{
	"contracts/Airdrop/Airdrop.sol": {
		"Airdrop": {
			"abi": [
				{
					"inputs": [
						{
							"internalType": "address",
							"name": "token_address",
							"type": "address"
						}
					],
					"stateMutability": "nonpayable",
					"type": "constructor"
				},
				{
					"inputs": [],
					"name": "Token",
					"outputs": [
						{
							"internalType": "contract IERC20",
							"name": "",
							"type": "address"
						}
					],
					"stateMutability": "view",
					"type": "function"
				},
				{
					"inputs": [
						{
							"internalType": "address",
							"name": "newairdropaddress",
							"type": "address"
						}
					],
					"name": "addAddressforAirdrop",
					"outputs": [],
					"stateMutability": "nonpayable",
					"type": "function"
				},
				{
					"inputs": [
						{
							"internalType": "uint256",
							"name": "",
							"type": "uint256"
						}
					],
					"name": "airdropaddresses",
					"outputs": [
						{
							"internalType": "address",
							"name": "",
							"type": "address"
						}
					],
					"stateMutability": "view",
					"type": "function"
				},
				{
					"inputs": [
						{
							"internalType": "uint256",
							"name": "_amount",
							"type": "uint256"
						}
					],
					"name": "doAirdrop",
					"outputs": [],
					"stateMutability": "nonpayable",
					"type": "function"
				},
				{
					"inputs": [
						{
							"internalType": "address",
							"name": "_address",
							"type": "address"
						}
					],
					"name": "inAirdrop",
					"outputs": [
						{
							"internalType": "bool",
							"name": "",
							"type": "bool"
						}
					],
					"stateMutability": "view",
					"type": "function"
				}
			],
			"devdoc": {
				"kind": "dev",
				"methods": {},
				"version": 1
			},
			"evm": {
				"assembly": "    /* \"contracts/Airdrop/Airdrop.sol\":136:983  contract Airdrop{\r... */\n  mstore(0x40, 0xa0)\n    /* \"contracts/Airdrop/Airdrop.sol\":237:319  constructor(address token_address){\r... */\n  callvalue\n  dup1\n  iszero\n  tag_1\n  jumpi\n  0x00\n  dup1\n  revert\ntag_1:\n  pop\n  mload(0x40)\n  sub(codesize, bytecodeSize)\n  dup1\n  bytecodeSize\n  dup4\n  codecopy\n  dup2\n  dup2\n  add\n  0x40\n  mstore\n  dup2\n  add\n  swap1\n  tag_2\n  swap2\n  swap1\n  tag_3\n  jump\t// in\ntag_2:\n    /* \"contracts/Airdrop/Airdrop.sol\":297:310  token_address */\n  dup1\n    /* \"contracts/Airdrop/Airdrop.sol\":282:311  Token = IERC20(token_address) */\n  0xffffffffffffffffffffffffffffffffffffffff\n  and\n  0x80\n  dup2\n  0xffffffffffffffffffffffffffffffffffffffff\n  and\n  0x60\n  shl\n  dup2\n  mstore\n  pop\n  pop\n    /* \"contracts/Airdrop/Airdrop.sol\":237:319  constructor(address token_address){\r... */\n  pop\n    /* \"contracts/Airdrop/Airdrop.sol\":136:983  contract Airdrop{\r... */\n  jump(tag_6)\n    /* \"#utility.yul\":7:150   */\ntag_8:\n    /* \"#utility.yul\":64:69   */\n  0x00\n    /* \"#utility.yul\":95:101   */\n  dup2\n    /* \"#utility.yul\":89:102   */\n  mload\n    /* \"#utility.yul\":80:102   */\n  swap1\n  pop\n    /* \"#utility.yul\":111:144   */\n  tag_10\n    /* \"#utility.yul\":138:143   */\n  dup2\n    /* \"#utility.yul\":111:144   */\n  tag_11\n  jump\t// in\ntag_10:\n    /* \"#utility.yul\":7:150   */\n  swap3\n  swap2\n  pop\n  pop\n  jump\t// out\n    /* \"#utility.yul\":156:507   */\ntag_3:\n    /* \"#utility.yul\":226:232   */\n  0x00\n    /* \"#utility.yul\":275:277   */\n  0x20\n    /* \"#utility.yul\":263:272   */\n  dup3\n    /* \"#utility.yul\":254:261   */\n  dup5\n    /* \"#utility.yul\":250:273   */\n  sub\n    /* \"#utility.yul\":246:278   */\n  slt\n    /* \"#utility.yul\":243:362   */\n  iszero\n  tag_13\n  jumpi\n    /* \"#utility.yul\":281:360   */\n  tag_14\n  tag_15\n  jump\t// in\ntag_14:\n    /* \"#utility.yul\":243:362   */\ntag_13:\n    /* \"#utility.yul\":401:402   */\n  0x00\n    /* \"#utility.yul\":426:490   */\n  tag_16\n    /* \"#utility.yul\":482:489   */\n  dup5\n    /* \"#utility.yul\":473:479   */\n  dup3\n    /* \"#utility.yul\":462:471   */\n  dup6\n    /* \"#utility.yul\":458:480   */\n  add\n    /* \"#utility.yul\":426:490   */\n  tag_8\n  jump\t// in\ntag_16:\n    /* \"#utility.yul\":416:490   */\n  swap2\n  pop\n    /* \"#utility.yul\":372:500   */\n  pop\n    /* \"#utility.yul\":156:507   */\n  swap3\n  swap2\n  pop\n  pop\n  jump\t// out\n    /* \"#utility.yul\":594:690   */\ntag_19:\n    /* \"#utility.yul\":631:638   */\n  0x00\n    /* \"#utility.yul\":660:684   */\n  tag_21\n    /* \"#utility.yul\":678:683   */\n  dup3\n    /* \"#utility.yul\":660:684   */\n  tag_22\n  jump\t// in\ntag_21:\n    /* \"#utility.yul\":649:684   */\n  swap1\n  pop\n    /* \"#utility.yul\":594:690   */\n  swap2\n  swap1\n  pop\n  jump\t// out\n    /* \"#utility.yul\":696:822   */\ntag_22:\n    /* \"#utility.yul\":733:740   */\n  0x00\n    /* \"#utility.yul\":773:815   */\n  0xffffffffffffffffffffffffffffffffffffffff\n    /* \"#utility.yul\":766:771   */\n  dup3\n    /* \"#utility.yul\":762:816   */\n  and\n    /* \"#utility.yul\":751:816   */\n  swap1\n  pop\n    /* \"#utility.yul\":696:822   */\n  swap2\n  swap1\n  pop\n  jump\t// out\n    /* \"#utility.yul\":951:1068   */\ntag_15:\n    /* \"#utility.yul\":1060:1061   */\n  0x00\n    /* \"#utility.yul\":1057:1058   */\n  dup1\n    /* \"#utility.yul\":1050:1062   */\n  revert\n    /* \"#utility.yul\":1074:1196   */\ntag_11:\n    /* \"#utility.yul\":1147:1171   */\n  tag_28\n    /* \"#utility.yul\":1165:1170   */\n  dup2\n    /* \"#utility.yul\":1147:1171   */\n  tag_19\n  jump\t// in\ntag_28:\n    /* \"#utility.yul\":1140:1145   */\n  dup2\n    /* \"#utility.yul\":1137:1172   */\n  eq\n    /* \"#utility.yul\":1127:1190   */\n  tag_29\n  jumpi\n    /* \"#utility.yul\":1186:1187   */\n  0x00\n    /* \"#utility.yul\":1183:1184   */\n  dup1\n    /* \"#utility.yul\":1176:1188   */\n  revert\n    /* \"#utility.yul\":1127:1190   */\ntag_29:\n    /* \"#utility.yul\":1074:1196   */\n  pop\n  jump\t// out\n    /* \"contracts/Airdrop/Airdrop.sol\":136:983  contract Airdrop{\r... */\ntag_6:\n  shr(0x60, mload(0x80))\n  codecopy(0x00, dataOffset(sub_0), dataSize(sub_0))\n  0x00\n  assignImmutable(\"0x845e9c18ca148a712f01bf14c91c3e2fe352eabe86c44817e3f33b63f585a343\")\n  return(0x00, dataSize(sub_0))\nstop\n\nsub_0: assembly {\n        /* \"contracts/Airdrop/Airdrop.sol\":136:983  contract Airdrop{\r... */\n      mstore(0x40, 0x80)\n      callvalue\n      dup1\n      iszero\n      tag_1\n      jumpi\n      0x00\n      dup1\n      revert\n    tag_1:\n      pop\n      jumpi(tag_2, lt(calldatasize, 0x04))\n      shr(0xe0, calldataload(0x00))\n      dup1\n      0x4a05f3e4\n      eq\n      tag_3\n      jumpi\n      dup1\n      0xafffe9de\n      eq\n      tag_4\n      jumpi\n      dup1\n      0xb3a687cb\n      eq\n      tag_5\n      jumpi\n      dup1\n      0xc0698f8e\n      eq\n      tag_6\n      jumpi\n      dup1\n      0xc2412676\n      eq\n      tag_7\n      jumpi\n    tag_2:\n      0x00\n      dup1\n      revert\n        /* \"contracts/Airdrop/Airdrop.sol\":794:976  function doAirdrop (uint256 _amount) public {\r... */\n    tag_3:\n      tag_8\n      0x04\n      dup1\n      calldatasize\n      sub\n      dup2\n      add\n      swap1\n      tag_9\n      swap2\n      swap1\n      tag_10\n      jump\t// in\n    tag_9:\n      tag_11\n      jump\t// in\n    tag_8:\n      stop\n        /* \"contracts/Airdrop/Airdrop.sol\":161:194  address[] public airdropaddresses */\n    tag_4:\n      tag_12\n      0x04\n      dup1\n      calldatasize\n      sub\n      dup2\n      add\n      swap1\n      tag_13\n      swap2\n      swap1\n      tag_10\n      jump\t// in\n    tag_13:\n      tag_14\n      jump\t// in\n    tag_12:\n      mload(0x40)\n      tag_15\n      swap2\n      swap1\n      tag_16\n      jump\t// in\n    tag_15:\n      mload(0x40)\n      dup1\n      swap2\n      sub\n      swap1\n      return\n        /* \"contracts/Airdrop/Airdrop.sol\":333:579  function inAirdrop(address _address)\r... */\n    tag_5:\n      tag_17\n      0x04\n      dup1\n      calldatasize\n      sub\n      dup2\n      add\n      swap1\n      tag_18\n      swap2\n      swap1\n      tag_19\n      jump\t// in\n    tag_18:\n      tag_20\n      jump\t// in\n    tag_17:\n      mload(0x40)\n      tag_21\n      swap2\n      swap1\n      tag_22\n      jump\t// in\n    tag_21:\n      mload(0x40)\n      dup1\n      swap2\n      sub\n      swap1\n      return\n        /* \"contracts/Airdrop/Airdrop.sol\":587:786  function addAddressforAirdrop (address newairdropaddress) public{\r... */\n    tag_6:\n      tag_23\n      0x04\n      dup1\n      calldatasize\n      sub\n      dup2\n      add\n      swap1\n      tag_24\n      swap2\n      swap1\n      tag_19\n      jump\t// in\n    tag_24:\n      tag_25\n      jump\t// in\n    tag_23:\n      stop\n        /* \"contracts/Airdrop/Airdrop.sol\":201:230  IERC20 public immutable Token */\n    tag_7:\n      tag_26\n      tag_27\n      jump\t// in\n    tag_26:\n      mload(0x40)\n      tag_28\n      swap2\n      swap1\n      tag_29\n      jump\t// in\n    tag_28:\n      mload(0x40)\n      dup1\n      swap2\n      sub\n      swap1\n      return\n        /* \"contracts/Airdrop/Airdrop.sol\":794:976  function doAirdrop (uint256 _amount) public {\r... */\n    tag_11:\n        /* \"contracts/Airdrop/Airdrop.sol\":854:863  uint256 s */\n      0x00\n        /* \"contracts/Airdrop/Airdrop.sol\":849:969  for (uint256 s=0; s<airdropaddresses.length; s+=1){\r... */\n    tag_31:\n        /* \"contracts/Airdrop/Airdrop.sol\":869:885  airdropaddresses */\n      0x00\n        /* \"contracts/Airdrop/Airdrop.sol\":869:892  airdropaddresses.length */\n      dup1\n      sload\n      swap1\n      pop\n        /* \"contracts/Airdrop/Airdrop.sol\":867:868  s */\n      dup2\n        /* \"contracts/Airdrop/Airdrop.sol\":867:892  s<airdropaddresses.length */\n      lt\n        /* \"contracts/Airdrop/Airdrop.sol\":849:969  for (uint256 s=0; s<airdropaddresses.length; s+=1){\r... */\n      iszero\n      tag_32\n      jumpi\n        /* \"contracts/Airdrop/Airdrop.sol\":914:919  Token */\n      immutable(\"0x845e9c18ca148a712f01bf14c91c3e2fe352eabe86c44817e3f33b63f585a343\")\n        /* \"contracts/Airdrop/Airdrop.sol\":914:928  Token.transfer */\n      0xffffffffffffffffffffffffffffffffffffffff\n      and\n      0xa9059cbb\n        /* \"contracts/Airdrop/Airdrop.sol\":929:945  airdropaddresses */\n      0x00\n        /* \"contracts/Airdrop/Airdrop.sol\":946:947  s */\n      dup4\n        /* \"contracts/Airdrop/Airdrop.sol\":929:948  airdropaddresses[s] */\n      dup2\n      sload\n      dup2\n      lt\n      tag_34\n      jumpi\n      tag_35\n      tag_36\n      jump\t// in\n    tag_35:\n    tag_34:\n      swap1\n      0x00\n      mstore\n      keccak256(0x00, 0x20)\n      add\n      0x00\n      swap1\n      sload\n      swap1\n      0x0100\n      exp\n      swap1\n      div\n      0xffffffffffffffffffffffffffffffffffffffff\n      and\n        /* \"contracts/Airdrop/Airdrop.sol\":949:956  _amount */\n      dup5\n        /* \"contracts/Airdrop/Airdrop.sol\":914:957  Token.transfer(airdropaddresses[s],_amount) */\n      mload(0x40)\n      dup4\n      0xffffffff\n      and\n      0xe0\n      shl\n      dup2\n      mstore\n      0x04\n      add\n      tag_38\n      swap3\n      swap2\n      swap1\n      tag_39\n      jump\t// in\n    tag_38:\n      0x20\n      mload(0x40)\n      dup1\n      dup4\n      sub\n      dup2\n      0x00\n      dup8\n      dup1\n      extcodesize\n      iszero\n      dup1\n      iszero\n      tag_40\n      jumpi\n      0x00\n      dup1\n      revert\n    tag_40:\n      pop\n      gas\n      call\n      iszero\n      dup1\n      iszero\n      tag_42\n      jumpi\n      returndatasize\n      0x00\n      dup1\n      returndatacopy\n      revert(0x00, returndatasize)\n    tag_42:\n      pop\n      pop\n      pop\n      pop\n      mload(0x40)\n      returndatasize\n      not(0x1f)\n      0x1f\n      dup3\n      add\n      and\n      dup3\n      add\n      dup1\n      0x40\n      mstore\n      pop\n      dup2\n      add\n      swap1\n      tag_43\n      swap2\n      swap1\n      tag_44\n      jump\t// in\n    tag_43:\n      pop\n        /* \"contracts/Airdrop/Airdrop.sol\":897:898  1 */\n      0x01\n        /* \"contracts/Airdrop/Airdrop.sol\":894:898  s+=1 */\n      dup2\n      tag_45\n      swap2\n      swap1\n      tag_46\n      jump\t// in\n    tag_45:\n      swap1\n      pop\n        /* \"contracts/Airdrop/Airdrop.sol\":849:969  for (uint256 s=0; s<airdropaddresses.length; s+=1){\r... */\n      jump(tag_31)\n    tag_32:\n      pop\n        /* \"contracts/Airdrop/Airdrop.sol\":794:976  function doAirdrop (uint256 _amount) public {\r... */\n      pop\n      jump\t// out\n        /* \"contracts/Airdrop/Airdrop.sol\":161:194  address[] public airdropaddresses */\n    tag_14:\n      0x00\n      dup2\n      dup2\n      sload\n      dup2\n      lt\n      tag_47\n      jumpi\n      0x00\n      dup1\n      revert\n    tag_47:\n      swap1\n      0x00\n      mstore\n      keccak256(0x00, 0x20)\n      add\n      0x00\n      swap2\n      pop\n      sload\n      swap1\n      0x0100\n      exp\n      swap1\n      div\n      0xffffffffffffffffffffffffffffffffffffffff\n      and\n      dup2\n      jump\t// out\n        /* \"contracts/Airdrop/Airdrop.sol\":333:579  function inAirdrop(address _address)\r... */\n    tag_20:\n        /* \"contracts/Airdrop/Airdrop.sol\":405:409  bool */\n      0x00\n        /* \"contracts/Airdrop/Airdrop.sol\":426:435  uint256 s */\n      dup1\n        /* \"contracts/Airdrop/Airdrop.sol\":436:437  0 */\n      0x00\n        /* \"contracts/Airdrop/Airdrop.sol\":426:437  uint256 s=0 */\n      swap1\n      pop\n        /* \"contracts/Airdrop/Airdrop.sol\":421:547  for (uint256 s=0; s < airdropaddresses.length; s+=1){\r... */\n    tag_50:\n        /* \"contracts/Airdrop/Airdrop.sol\":443:459  airdropaddresses */\n      0x00\n        /* \"contracts/Airdrop/Airdrop.sol\":443:466  airdropaddresses.length */\n      dup1\n      sload\n      swap1\n      pop\n        /* \"contracts/Airdrop/Airdrop.sol\":439:440  s */\n      dup2\n        /* \"contracts/Airdrop/Airdrop.sol\":439:466  s < airdropaddresses.length */\n      lt\n        /* \"contracts/Airdrop/Airdrop.sol\":421:547  for (uint256 s=0; s < airdropaddresses.length; s+=1){\r... */\n      iszero\n      tag_51\n      jumpi\n        /* \"contracts/Airdrop/Airdrop.sol\":512:520  _address */\n      dup3\n        /* \"contracts/Airdrop/Airdrop.sol\":491:520  airdropaddresses[s]==_address */\n      0xffffffffffffffffffffffffffffffffffffffff\n      and\n        /* \"contracts/Airdrop/Airdrop.sol\":491:507  airdropaddresses */\n      0x00\n        /* \"contracts/Airdrop/Airdrop.sol\":508:509  s */\n      dup3\n        /* \"contracts/Airdrop/Airdrop.sol\":491:510  airdropaddresses[s] */\n      dup2\n      sload\n      dup2\n      lt\n      tag_53\n      jumpi\n      tag_54\n      tag_36\n      jump\t// in\n    tag_54:\n    tag_53:\n      swap1\n      0x00\n      mstore\n      keccak256(0x00, 0x20)\n      add\n      0x00\n      swap1\n      sload\n      swap1\n      0x0100\n      exp\n      swap1\n      div\n      0xffffffffffffffffffffffffffffffffffffffff\n      and\n        /* \"contracts/Airdrop/Airdrop.sol\":491:520  airdropaddresses[s]==_address */\n      0xffffffffffffffffffffffffffffffffffffffff\n      and\n      eq\n        /* \"contracts/Airdrop/Airdrop.sol\":488:535  if(airdropaddresses[s]==_address) return (true) */\n      iszero\n      tag_56\n      jumpi\n        /* \"contracts/Airdrop/Airdrop.sol\":530:534  true */\n      0x01\n        /* \"contracts/Airdrop/Airdrop.sol\":522:535  return (true) */\n      swap2\n      pop\n      pop\n      jump(tag_49)\n        /* \"contracts/Airdrop/Airdrop.sol\":488:535  if(airdropaddresses[s]==_address) return (true) */\n    tag_56:\n        /* \"contracts/Airdrop/Airdrop.sol\":471:472  1 */\n      0x01\n        /* \"contracts/Airdrop/Airdrop.sol\":468:472  s+=1 */\n      dup2\n      tag_57\n      swap2\n      swap1\n      tag_46\n      jump\t// in\n    tag_57:\n      swap1\n      pop\n        /* \"contracts/Airdrop/Airdrop.sol\":421:547  for (uint256 s=0; s < airdropaddresses.length; s+=1){\r... */\n      jump(tag_50)\n    tag_51:\n      pop\n        /* \"contracts/Airdrop/Airdrop.sol\":565:570  false */\n      0x00\n        /* \"contracts/Airdrop/Airdrop.sol\":557:571  return (false) */\n      swap1\n      pop\n        /* \"contracts/Airdrop/Airdrop.sol\":333:579  function inAirdrop(address _address)\r... */\n    tag_49:\n      swap2\n      swap1\n      pop\n      jump\t// out\n        /* \"contracts/Airdrop/Airdrop.sol\":587:786  function addAddressforAirdrop (address newairdropaddress) public{\r... */\n    tag_25:\n        /* \"contracts/Airdrop/Airdrop.sol\":663:678  bool _inAirdrop */\n      0x00\n        /* \"contracts/Airdrop/Airdrop.sol\":682:710  inAirdrop(newairdropaddress) */\n      tag_59\n        /* \"contracts/Airdrop/Airdrop.sol\":692:709  newairdropaddress */\n      dup3\n        /* \"contracts/Airdrop/Airdrop.sol\":682:691  inAirdrop */\n      tag_20\n        /* \"contracts/Airdrop/Airdrop.sol\":682:710  inAirdrop(newairdropaddress) */\n      jump\t// in\n    tag_59:\n        /* \"contracts/Airdrop/Airdrop.sol\":662:710  (bool _inAirdrop) = inAirdrop(newairdropaddress) */\n      swap1\n      pop\n        /* \"contracts/Airdrop/Airdrop.sol\":726:736  _inAirdrop */\n      dup1\n        /* \"contracts/Airdrop/Airdrop.sol\":721:778  if (!_inAirdrop) airdropaddresses.push(newairdropaddress) */\n      tag_60\n      jumpi\n        /* \"contracts/Airdrop/Airdrop.sol\":738:754  airdropaddresses */\n      0x00\n        /* \"contracts/Airdrop/Airdrop.sol\":760:777  newairdropaddress */\n      dup3\n        /* \"contracts/Airdrop/Airdrop.sol\":738:778  airdropaddresses.push(newairdropaddress) */\n      swap1\n      dup1\n      0x01\n      dup2\n      sload\n      add\n      dup1\n      dup3\n      sstore\n      dup1\n      swap2\n      pop\n      pop\n      0x01\n      swap1\n      sub\n      swap1\n      0x00\n      mstore\n      keccak256(0x00, 0x20)\n      add\n      0x00\n      swap1\n      swap2\n      swap1\n      swap2\n      swap1\n      swap2\n      0x0100\n      exp\n      dup2\n      sload\n      dup2\n      0xffffffffffffffffffffffffffffffffffffffff\n      mul\n      not\n      and\n      swap1\n      dup4\n      0xffffffffffffffffffffffffffffffffffffffff\n      and\n      mul\n      or\n      swap1\n      sstore\n      pop\n        /* \"contracts/Airdrop/Airdrop.sol\":721:778  if (!_inAirdrop) airdropaddresses.push(newairdropaddress) */\n    tag_60:\n        /* \"contracts/Airdrop/Airdrop.sol\":651:786  {\r... */\n      pop\n        /* \"contracts/Airdrop/Airdrop.sol\":587:786  function addAddressforAirdrop (address newairdropaddress) public{\r... */\n      pop\n      jump\t// out\n        /* \"contracts/Airdrop/Airdrop.sol\":201:230  IERC20 public immutable Token */\n    tag_27:\n      immutable(\"0x845e9c18ca148a712f01bf14c91c3e2fe352eabe86c44817e3f33b63f585a343\")\n      dup2\n      jump\t// out\n        /* \"#utility.yul\":7:146   */\n    tag_63:\n        /* \"#utility.yul\":53:58   */\n      0x00\n        /* \"#utility.yul\":91:97   */\n      dup2\n        /* \"#utility.yul\":78:98   */\n      calldataload\n        /* \"#utility.yul\":69:98   */\n      swap1\n      pop\n        /* \"#utility.yul\":107:140   */\n      tag_65\n        /* \"#utility.yul\":134:139   */\n      dup2\n        /* \"#utility.yul\":107:140   */\n      tag_66\n      jump\t// in\n    tag_65:\n        /* \"#utility.yul\":7:146   */\n      swap3\n      swap2\n      pop\n      pop\n      jump\t// out\n        /* \"#utility.yul\":152:289   */\n    tag_67:\n        /* \"#utility.yul\":206:211   */\n      0x00\n        /* \"#utility.yul\":237:243   */\n      dup2\n        /* \"#utility.yul\":231:244   */\n      mload\n        /* \"#utility.yul\":222:244   */\n      swap1\n      pop\n        /* \"#utility.yul\":253:283   */\n      tag_69\n        /* \"#utility.yul\":277:282   */\n      dup2\n        /* \"#utility.yul\":253:283   */\n      tag_70\n      jump\t// in\n    tag_69:\n        /* \"#utility.yul\":152:289   */\n      swap3\n      swap2\n      pop\n      pop\n      jump\t// out\n        /* \"#utility.yul\":295:434   */\n    tag_71:\n        /* \"#utility.yul\":341:346   */\n      0x00\n        /* \"#utility.yul\":379:385   */\n      dup2\n        /* \"#utility.yul\":366:386   */\n      calldataload\n        /* \"#utility.yul\":357:386   */\n      swap1\n      pop\n        /* \"#utility.yul\":395:428   */\n      tag_73\n        /* \"#utility.yul\":422:427   */\n      dup2\n        /* \"#utility.yul\":395:428   */\n      tag_74\n      jump\t// in\n    tag_73:\n        /* \"#utility.yul\":295:434   */\n      swap3\n      swap2\n      pop\n      pop\n      jump\t// out\n        /* \"#utility.yul\":440:769   */\n    tag_19:\n        /* \"#utility.yul\":499:505   */\n      0x00\n        /* \"#utility.yul\":548:550   */\n      0x20\n        /* \"#utility.yul\":536:545   */\n      dup3\n        /* \"#utility.yul\":527:534   */\n      dup5\n        /* \"#utility.yul\":523:546   */\n      sub\n        /* \"#utility.yul\":519:551   */\n      slt\n        /* \"#utility.yul\":516:635   */\n      iszero\n      tag_76\n      jumpi\n        /* \"#utility.yul\":554:633   */\n      tag_77\n      tag_78\n      jump\t// in\n    tag_77:\n        /* \"#utility.yul\":516:635   */\n    tag_76:\n        /* \"#utility.yul\":674:675   */\n      0x00\n        /* \"#utility.yul\":699:752   */\n      tag_79\n        /* \"#utility.yul\":744:751   */\n      dup5\n        /* \"#utility.yul\":735:741   */\n      dup3\n        /* \"#utility.yul\":724:733   */\n      dup6\n        /* \"#utility.yul\":720:742   */\n      add\n        /* \"#utility.yul\":699:752   */\n      tag_63\n      jump\t// in\n    tag_79:\n        /* \"#utility.yul\":689:752   */\n      swap2\n      pop\n        /* \"#utility.yul\":645:762   */\n      pop\n        /* \"#utility.yul\":440:769   */\n      swap3\n      swap2\n      pop\n      pop\n      jump\t// out\n        /* \"#utility.yul\":775:1120   */\n    tag_44:\n        /* \"#utility.yul\":842:848   */\n      0x00\n        /* \"#utility.yul\":891:893   */\n      0x20\n        /* \"#utility.yul\":879:888   */\n      dup3\n        /* \"#utility.yul\":870:877   */\n      dup5\n        /* \"#utility.yul\":866:889   */\n      sub\n        /* \"#utility.yul\":862:894   */\n      slt\n        /* \"#utility.yul\":859:978   */\n      iszero\n      tag_81\n      jumpi\n        /* \"#utility.yul\":897:976   */\n      tag_82\n      tag_78\n      jump\t// in\n    tag_82:\n        /* \"#utility.yul\":859:978   */\n    tag_81:\n        /* \"#utility.yul\":1017:1018   */\n      0x00\n        /* \"#utility.yul\":1042:1103   */\n      tag_83\n        /* \"#utility.yul\":1095:1102   */\n      dup5\n        /* \"#utility.yul\":1086:1092   */\n      dup3\n        /* \"#utility.yul\":1075:1084   */\n      dup6\n        /* \"#utility.yul\":1071:1093   */\n      add\n        /* \"#utility.yul\":1042:1103   */\n      tag_67\n      jump\t// in\n    tag_83:\n        /* \"#utility.yul\":1032:1103   */\n      swap2\n      pop\n        /* \"#utility.yul\":988:1113   */\n      pop\n        /* \"#utility.yul\":775:1120   */\n      swap3\n      swap2\n      pop\n      pop\n      jump\t// out\n        /* \"#utility.yul\":1126:1455   */\n    tag_10:\n        /* \"#utility.yul\":1185:1191   */\n      0x00\n        /* \"#utility.yul\":1234:1236   */\n      0x20\n        /* \"#utility.yul\":1222:1231   */\n      dup3\n        /* \"#utility.yul\":1213:1220   */\n      dup5\n        /* \"#utility.yul\":1209:1232   */\n      sub\n        /* \"#utility.yul\":1205:1237   */\n      slt\n        /* \"#utility.yul\":1202:1321   */\n      iszero\n      tag_85\n      jumpi\n        /* \"#utility.yul\":1240:1319   */\n      tag_86\n      tag_78\n      jump\t// in\n    tag_86:\n        /* \"#utility.yul\":1202:1321   */\n    tag_85:\n        /* \"#utility.yul\":1360:1361   */\n      0x00\n        /* \"#utility.yul\":1385:1438   */\n      tag_87\n        /* \"#utility.yul\":1430:1437   */\n      dup5\n        /* \"#utility.yul\":1421:1427   */\n      dup3\n        /* \"#utility.yul\":1410:1419   */\n      dup6\n        /* \"#utility.yul\":1406:1428   */\n      add\n        /* \"#utility.yul\":1385:1438   */\n      tag_71\n      jump\t// in\n    tag_87:\n        /* \"#utility.yul\":1375:1438   */\n      swap2\n      pop\n        /* \"#utility.yul\":1331:1448   */\n      pop\n        /* \"#utility.yul\":1126:1455   */\n      swap3\n      swap2\n      pop\n      pop\n      jump\t// out\n        /* \"#utility.yul\":1461:1579   */\n    tag_88:\n        /* \"#utility.yul\":1548:1572   */\n      tag_90\n        /* \"#utility.yul\":1566:1571   */\n      dup2\n        /* \"#utility.yul\":1548:1572   */\n      tag_91\n      jump\t// in\n    tag_90:\n        /* \"#utility.yul\":1543:1546   */\n      dup3\n        /* \"#utility.yul\":1536:1573   */\n      mstore\n        /* \"#utility.yul\":1461:1579   */\n      pop\n      pop\n      jump\t// out\n        /* \"#utility.yul\":1585:1694   */\n    tag_92:\n        /* \"#utility.yul\":1666:1687   */\n      tag_94\n        /* \"#utility.yul\":1681:1686   */\n      dup2\n        /* \"#utility.yul\":1666:1687   */\n      tag_95\n      jump\t// in\n    tag_94:\n        /* \"#utility.yul\":1661:1664   */\n      dup3\n        /* \"#utility.yul\":1654:1688   */\n      mstore\n        /* \"#utility.yul\":1585:1694   */\n      pop\n      pop\n      jump\t// out\n        /* \"#utility.yul\":1700:1857   */\n    tag_96:\n        /* \"#utility.yul\":1800:1850   */\n      tag_98\n        /* \"#utility.yul\":1844:1849   */\n      dup2\n        /* \"#utility.yul\":1800:1850   */\n      tag_99\n      jump\t// in\n    tag_98:\n        /* \"#utility.yul\":1795:1798   */\n      dup3\n        /* \"#utility.yul\":1788:1851   */\n      mstore\n        /* \"#utility.yul\":1700:1857   */\n      pop\n      pop\n      jump\t// out\n        /* \"#utility.yul\":1863:1981   */\n    tag_100:\n        /* \"#utility.yul\":1950:1974   */\n      tag_102\n        /* \"#utility.yul\":1968:1973   */\n      dup2\n        /* \"#utility.yul\":1950:1974   */\n      tag_103\n      jump\t// in\n    tag_102:\n        /* \"#utility.yul\":1945:1948   */\n      dup3\n        /* \"#utility.yul\":1938:1975   */\n      mstore\n        /* \"#utility.yul\":1863:1981   */\n      pop\n      pop\n      jump\t// out\n        /* \"#utility.yul\":1987:2209   */\n    tag_16:\n        /* \"#utility.yul\":2080:2084   */\n      0x00\n        /* \"#utility.yul\":2118:2120   */\n      0x20\n        /* \"#utility.yul\":2107:2116   */\n      dup3\n        /* \"#utility.yul\":2103:2121   */\n      add\n        /* \"#utility.yul\":2095:2121   */\n      swap1\n      pop\n        /* \"#utility.yul\":2131:2202   */\n      tag_105\n        /* \"#utility.yul\":2199:2200   */\n      0x00\n        /* \"#utility.yul\":2188:2197   */\n      dup4\n        /* \"#utility.yul\":2184:2201   */\n      add\n        /* \"#utility.yul\":2175:2181   */\n      dup5\n        /* \"#utility.yul\":2131:2202   */\n      tag_88\n      jump\t// in\n    tag_105:\n        /* \"#utility.yul\":1987:2209   */\n      swap3\n      swap2\n      pop\n      pop\n      jump\t// out\n        /* \"#utility.yul\":2215:2547   */\n    tag_39:\n        /* \"#utility.yul\":2336:2340   */\n      0x00\n        /* \"#utility.yul\":2374:2376   */\n      0x40\n        /* \"#utility.yul\":2363:2372   */\n      dup3\n        /* \"#utility.yul\":2359:2377   */\n      add\n        /* \"#utility.yul\":2351:2377   */\n      swap1\n      pop\n        /* \"#utility.yul\":2387:2458   */\n      tag_107\n        /* \"#utility.yul\":2455:2456   */\n      0x00\n        /* \"#utility.yul\":2444:2453   */\n      dup4\n        /* \"#utility.yul\":2440:2457   */\n      add\n        /* \"#utility.yul\":2431:2437   */\n      dup6\n        /* \"#utility.yul\":2387:2458   */\n      tag_88\n      jump\t// in\n    tag_107:\n        /* \"#utility.yul\":2468:2540   */\n      tag_108\n        /* \"#utility.yul\":2536:2538   */\n      0x20\n        /* \"#utility.yul\":2525:2534   */\n      dup4\n        /* \"#utility.yul\":2521:2539   */\n      add\n        /* \"#utility.yul\":2512:2518   */\n      dup5\n        /* \"#utility.yul\":2468:2540   */\n      tag_100\n      jump\t// in\n    tag_108:\n        /* \"#utility.yul\":2215:2547   */\n      swap4\n      swap3\n      pop\n      pop\n      pop\n      jump\t// out\n        /* \"#utility.yul\":2553:2763   */\n    tag_22:\n        /* \"#utility.yul\":2640:2644   */\n      0x00\n        /* \"#utility.yul\":2678:2680   */\n      0x20\n        /* \"#utility.yul\":2667:2676   */\n      dup3\n        /* \"#utility.yul\":2663:2681   */\n      add\n        /* \"#utility.yul\":2655:2681   */\n      swap1\n      pop\n        /* \"#utility.yul\":2691:2756   */\n      tag_110\n        /* \"#utility.yul\":2753:2754   */\n      0x00\n        /* \"#utility.yul\":2742:2751   */\n      dup4\n        /* \"#utility.yul\":2738:2755   */\n      add\n        /* \"#utility.yul\":2729:2735   */\n      dup5\n        /* \"#utility.yul\":2691:2756   */\n      tag_92\n      jump\t// in\n    tag_110:\n        /* \"#utility.yul\":2553:2763   */\n      swap3\n      swap2\n      pop\n      pop\n      jump\t// out\n        /* \"#utility.yul\":2769:3017   */\n    tag_29:\n        /* \"#utility.yul\":2875:2879   */\n      0x00\n        /* \"#utility.yul\":2913:2915   */\n      0x20\n        /* \"#utility.yul\":2902:2911   */\n      dup3\n        /* \"#utility.yul\":2898:2916   */\n      add\n        /* \"#utility.yul\":2890:2916   */\n      swap1\n      pop\n        /* \"#utility.yul\":2926:3010   */\n      tag_112\n        /* \"#utility.yul\":3007:3008   */\n      0x00\n        /* \"#utility.yul\":2996:3005   */\n      dup4\n        /* \"#utility.yul\":2992:3009   */\n      add\n        /* \"#utility.yul\":2983:2989   */\n      dup5\n        /* \"#utility.yul\":2926:3010   */\n      tag_96\n      jump\t// in\n    tag_112:\n        /* \"#utility.yul\":2769:3017   */\n      swap3\n      swap2\n      pop\n      pop\n      jump\t// out\n        /* \"#utility.yul\":3104:3409   */\n    tag_46:\n        /* \"#utility.yul\":3144:3147   */\n      0x00\n        /* \"#utility.yul\":3163:3183   */\n      tag_116\n        /* \"#utility.yul\":3181:3182   */\n      dup3\n        /* \"#utility.yul\":3163:3183   */\n      tag_103\n      jump\t// in\n    tag_116:\n        /* \"#utility.yul\":3158:3183   */\n      swap2\n      pop\n        /* \"#utility.yul\":3197:3217   */\n      tag_117\n        /* \"#utility.yul\":3215:3216   */\n      dup4\n        /* \"#utility.yul\":3197:3217   */\n      tag_103\n      jump\t// in\n    tag_117:\n        /* \"#utility.yul\":3192:3217   */\n      swap3\n      pop\n        /* \"#utility.yul\":3351:3352   */\n      dup3\n        /* \"#utility.yul\":3283:3349   */\n      0xffffffffffffffffffffffffffffffffffffffffffffffffffffffffffffffff\n        /* \"#utility.yul\":3279:3353   */\n      sub\n        /* \"#utility.yul\":3276:3277   */\n      dup3\n        /* \"#utility.yul\":3273:3354   */\n      gt\n        /* \"#utility.yul\":3270:3377   */\n      iszero\n      tag_118\n      jumpi\n        /* \"#utility.yul\":3357:3375   */\n      tag_119\n      tag_120\n      jump\t// in\n    tag_119:\n        /* \"#utility.yul\":3270:3377   */\n    tag_118:\n        /* \"#utility.yul\":3401:3402   */\n      dup3\n        /* \"#utility.yul\":3398:3399   */\n      dup3\n        /* \"#utility.yul\":3394:3403   */\n      add\n        /* \"#utility.yul\":3387:3403   */\n      swap1\n      pop\n        /* \"#utility.yul\":3104:3409   */\n      swap3\n      swap2\n      pop\n      pop\n      jump\t// out\n        /* \"#utility.yul\":3415:3511   */\n    tag_91:\n        /* \"#utility.yul\":3452:3459   */\n      0x00\n        /* \"#utility.yul\":3481:3505   */\n      tag_122\n        /* \"#utility.yul\":3499:3504   */\n      dup3\n        /* \"#utility.yul\":3481:3505   */\n      tag_123\n      jump\t// in\n    tag_122:\n        /* \"#utility.yul\":3470:3505   */\n      swap1\n      pop\n        /* \"#utility.yul\":3415:3511   */\n      swap2\n      swap1\n      pop\n      jump\t// out\n        /* \"#utility.yul\":3517:3607   */\n    tag_95:\n        /* \"#utility.yul\":3551:3558   */\n      0x00\n        /* \"#utility.yul\":3594:3599   */\n      dup2\n        /* \"#utility.yul\":3587:3600   */\n      iszero\n        /* \"#utility.yul\":3580:3601   */\n      iszero\n        /* \"#utility.yul\":3569:3601   */\n      swap1\n      pop\n        /* \"#utility.yul\":3517:3607   */\n      swap2\n      swap1\n      pop\n      jump\t// out\n        /* \"#utility.yul\":3613:3739   */\n    tag_123:\n        /* \"#utility.yul\":3650:3657   */\n      0x00\n        /* \"#utility.yul\":3690:3732   */\n      0xffffffffffffffffffffffffffffffffffffffff\n        /* \"#utility.yul\":3683:3688   */\n      dup3\n        /* \"#utility.yul\":3679:3733   */\n      and\n        /* \"#utility.yul\":3668:3733   */\n      swap1\n      pop\n        /* \"#utility.yul\":3613:3739   */\n      swap2\n      swap1\n      pop\n      jump\t// out\n        /* \"#utility.yul\":3745:3822   */\n    tag_103:\n        /* \"#utility.yul\":3782:3789   */\n      0x00\n        /* \"#utility.yul\":3811:3816   */\n      dup2\n        /* \"#utility.yul\":3800:3816   */\n      swap1\n      pop\n        /* \"#utility.yul\":3745:3822   */\n      swap2\n      swap1\n      pop\n      jump\t// out\n        /* \"#utility.yul\":3828:3967   */\n    tag_99:\n        /* \"#utility.yul\":3891:3900   */\n      0x00\n        /* \"#utility.yul\":3924:3961   */\n      tag_128\n        /* \"#utility.yul\":3955:3960   */\n      dup3\n        /* \"#utility.yul\":3924:3961   */\n      tag_129\n      jump\t// in\n    tag_128:\n        /* \"#utility.yul\":3911:3961   */\n      swap1\n      pop\n        /* \"#utility.yul\":3828:3967   */\n      swap2\n      swap1\n      pop\n      jump\t// out\n        /* \"#utility.yul\":3973:4099   */\n    tag_129:\n        /* \"#utility.yul\":4023:4032   */\n      0x00\n        /* \"#utility.yul\":4056:4093   */\n      tag_131\n        /* \"#utility.yul\":4087:4092   */\n      dup3\n        /* \"#utility.yul\":4056:4093   */\n      tag_132\n      jump\t// in\n    tag_131:\n        /* \"#utility.yul\":4043:4093   */\n      swap1\n      pop\n        /* \"#utility.yul\":3973:4099   */\n      swap2\n      swap1\n      pop\n      jump\t// out\n        /* \"#utility.yul\":4105:4218   */\n    tag_132:\n        /* \"#utility.yul\":4155:4164   */\n      0x00\n        /* \"#utility.yul\":4188:4212   */\n      tag_134\n        /* \"#utility.yul\":4206:4211   */\n      dup3\n        /* \"#utility.yul\":4188:4212   */\n      tag_123\n      jump\t// in\n    tag_134:\n        /* \"#utility.yul\":4175:4212   */\n      swap1\n      pop\n        /* \"#utility.yul\":4105:4218   */\n      swap2\n      swap1\n      pop\n      jump\t// out\n        /* \"#utility.yul\":4224:4404   */\n    tag_120:\n        /* \"#utility.yul\":4272:4349   */\n      0x4e487b7100000000000000000000000000000000000000000000000000000000\n        /* \"#utility.yul\":4269:4270   */\n      0x00\n        /* \"#utility.yul\":4262:4350   */\n      mstore\n        /* \"#utility.yul\":4369:4373   */\n      0x11\n        /* \"#utility.yul\":4366:4367   */\n      0x04\n        /* \"#utility.yul\":4359:4374   */\n      mstore\n        /* \"#utility.yul\":4393:4397   */\n      0x24\n        /* \"#utility.yul\":4390:4391   */\n      0x00\n        /* \"#utility.yul\":4383:4398   */\n      revert\n        /* \"#utility.yul\":4410:4590   */\n    tag_36:\n        /* \"#utility.yul\":4458:4535   */\n      0x4e487b7100000000000000000000000000000000000000000000000000000000\n        /* \"#utility.yul\":4455:4456   */\n      0x00\n        /* \"#utility.yul\":4448:4536   */\n      mstore\n        /* \"#utility.yul\":4555:4559   */\n      0x32\n        /* \"#utility.yul\":4552:4553   */\n      0x04\n        /* \"#utility.yul\":4545:4560   */\n      mstore\n        /* \"#utility.yul\":4579:4583   */\n      0x24\n        /* \"#utility.yul\":4576:4577   */\n      0x00\n        /* \"#utility.yul\":4569:4584   */\n      revert\n        /* \"#utility.yul\":4719:4836   */\n    tag_78:\n        /* \"#utility.yul\":4828:4829   */\n      0x00\n        /* \"#utility.yul\":4825:4826   */\n      dup1\n        /* \"#utility.yul\":4818:4830   */\n      revert\n        /* \"#utility.yul\":4842:4964   */\n    tag_66:\n        /* \"#utility.yul\":4915:4939   */\n      tag_141\n        /* \"#utility.yul\":4933:4938   */\n      dup2\n        /* \"#utility.yul\":4915:4939   */\n      tag_91\n      jump\t// in\n    tag_141:\n        /* \"#utility.yul\":4908:4913   */\n      dup2\n        /* \"#utility.yul\":4905:4940   */\n      eq\n        /* \"#utility.yul\":4895:4958   */\n      tag_142\n      jumpi\n        /* \"#utility.yul\":4954:4955   */\n      0x00\n        /* \"#utility.yul\":4951:4952   */\n      dup1\n        /* \"#utility.yul\":4944:4956   */\n      revert\n        /* \"#utility.yul\":4895:4958   */\n    tag_142:\n        /* \"#utility.yul\":4842:4964   */\n      pop\n      jump\t// out\n        /* \"#utility.yul\":4970:5086   */\n    tag_70:\n        /* \"#utility.yul\":5040:5061   */\n      tag_144\n        /* \"#utility.yul\":5055:5060   */\n      dup2\n        /* \"#utility.yul\":5040:5061   */\n      tag_95\n      jump\t// in\n    tag_144:\n        /* \"#utility.yul\":5033:5038   */\n      dup2\n        /* \"#utility.yul\":5030:5062   */\n      eq\n        /* \"#utility.yul\":5020:5080   */\n      tag_145\n      jumpi\n        /* \"#utility.yul\":5076:5077   */\n      0x00\n        /* \"#utility.yul\":5073:5074   */\n      dup1\n        /* \"#utility.yul\":5066:5078   */\n      revert\n        /* \"#utility.yul\":5020:5080   */\n    tag_145:\n        /* \"#utility.yul\":4970:5086   */\n      pop\n      jump\t// out\n        /* \"#utility.yul\":5092:5214   */\n    tag_74:\n        /* \"#utility.yul\":5165:5189   */\n      tag_147\n        /* \"#utility.yul\":5183:5188   */\n      dup2\n        /* \"#utility.yul\":5165:5189   */\n      tag_103\n      jump\t// in\n    tag_147:\n        /* \"#utility.yul\":5158:5163   */\n      dup2\n        /* \"#utility.yul\":5155:5190   */\n      eq\n        /* \"#utility.yul\":5145:5208   */\n      tag_148\n      jumpi\n        /* \"#utility.yul\":5204:5205   */\n      0x00\n        /* \"#utility.yul\":5201:5202   */\n      dup1\n        /* \"#utility.yul\":5194:5206   */\n      revert\n        /* \"#utility.yul\":5145:5208   */\n    tag_148:\n        /* \"#utility.yul\":5092:5214   */\n      pop\n      jump\t// out\n\n    auxdata: 0xa264697066735822122000699f5144eb85d023419c207e2975df867521243287b2b222be91c3a209211f64736f6c63430008070033\n}\n",
				"bytecode": {
					"linkReferences": {},
					"object": "60a060405234801561001057600080fd5b5060405161080538038061080583398181016040528101906100329190610084565b8073ffffffffffffffffffffffffffffffffffffffff1660808173ffffffffffffffffffffffffffffffffffffffff1660601b81525050506100ff565b60008151905061007e816100e8565b92915050565b60006020828403121561009a576100996100e3565b5b60006100a88482850161006f565b91505092915050565b60006100bc826100c3565b9050919050565b600073ffffffffffffffffffffffffffffffffffffffff82169050919050565b600080fd5b6100f1816100b1565b81146100fc57600080fd5b50565b60805160601c6106e161012460003960008181610124015261039101526106e16000f3fe608060405234801561001057600080fd5b50600436106100575760003560e01c80634a05f3e41461005c578063afffe9de14610078578063b3a687cb146100a8578063c0698f8e146100d8578063c2412676146100f4575b600080fd5b6100766004803603810190610071919061044c565b610112565b005b610092600480360381019061008d919061044c565b610226565b60405161009f91906104b5565b60405180910390f35b6100c260048036038101906100bd91906103f2565b610265565b6040516100cf91906104f9565b60405180910390f35b6100f260048036038101906100ed91906103f2565b610315565b005b6100fc61038f565b6040516101099190610514565b60405180910390f35b60005b600080549050811015610222577f000000000000000000000000000000000000000000000000000000000000000073ffffffffffffffffffffffffffffffffffffffff1663a9059cbb6000838154811061017257610171610632565b5b9060005260206000200160009054906101000a900473ffffffffffffffffffffffffffffffffffffffff16846040518363ffffffff1660e01b81526004016101bb9291906104d0565b602060405180830381600087803b1580156101d557600080fd5b505af11580156101e9573d6000803e3d6000fd5b505050506040513d601f19601f8201168201806040525081019061020d919061041f565b5060018161021b919061052f565b9050610115565b5050565b6000818154811061023657600080fd5b906000526020600020016000915054906101000a900473ffffffffffffffffffffffffffffffffffffffff1681565b600080600090505b60008054905081101561030a578273ffffffffffffffffffffffffffffffffffffffff16600082815481106102a5576102a4610632565b5b9060005260206000200160009054906101000a900473ffffffffffffffffffffffffffffffffffffffff1673ffffffffffffffffffffffffffffffffffffffff1614156102f6576001915050610310565b600181610303919061052f565b905061026d565b50600090505b919050565b600061032082610265565b90508061038b576000829080600181540180825580915050600190039060005260206000200160009091909190916101000a81548173ffffffffffffffffffffffffffffffffffffffff021916908373ffffffffffffffffffffffffffffffffffffffff1602179055505b5050565b7f000000000000000000000000000000000000000000000000000000000000000081565b6000813590506103c281610666565b92915050565b6000815190506103d78161067d565b92915050565b6000813590506103ec81610694565b92915050565b60006020828403121561040857610407610661565b5b6000610416848285016103b3565b91505092915050565b60006020828403121561043557610434610661565b5b6000610443848285016103c8565b91505092915050565b60006020828403121561046257610461610661565b5b6000610470848285016103dd565b91505092915050565b61048281610585565b82525050565b61049181610597565b82525050565b6104a0816105cd565b82525050565b6104af816105c3565b82525050565b60006020820190506104ca6000830184610479565b92915050565b60006040820190506104e56000830185610479565b6104f260208301846104a6565b9392505050565b600060208201905061050e6000830184610488565b92915050565b60006020820190506105296000830184610497565b92915050565b600061053a826105c3565b9150610545836105c3565b9250827fffffffffffffffffffffffffffffffffffffffffffffffffffffffffffffffff0382111561057a57610579610603565b5b828201905092915050565b6000610590826105a3565b9050919050565b60008115159050919050565b600073ffffffffffffffffffffffffffffffffffffffff82169050919050565b6000819050919050565b60006105d8826105df565b9050919050565b60006105ea826105f1565b9050919050565b60006105fc826105a3565b9050919050565b7f4e487b7100000000000000000000000000000000000000000000000000000000600052601160045260246000fd5b7f4e487b7100000000000000000000000000000000000000000000000000000000600052603260045260246000fd5b600080fd5b61066f81610585565b811461067a57600080fd5b50565b61068681610597565b811461069157600080fd5b50565b61069d816105c3565b81146106a857600080fd5b5056fea264697066735822122000699f5144eb85d023419c207e2975df867521243287b2b222be91c3a209211f64736f6c63430008070033",
					"opcodes": "PUSH1 0xA0 PUSH1 0x40 MSTORE CALLVALUE DUP1 ISZERO PUSH2 0x10 JUMPI PUSH1 0x0 DUP1 REVERT JUMPDEST POP PUSH1 0x40 MLOAD PUSH2 0x805 CODESIZE SUB DUP1 PUSH2 0x805 DUP4 CODECOPY DUP2 DUP2 ADD PUSH1 0x40 MSTORE DUP2 ADD SWAP1 PUSH2 0x32 SWAP2 SWAP1 PUSH2 0x84 JUMP JUMPDEST DUP1 PUSH20 0xFFFFFFFFFFFFFFFFFFFFFFFFFFFFFFFFFFFFFFFF AND PUSH1 0x80 DUP2 PUSH20 0xFFFFFFFFFFFFFFFFFFFFFFFFFFFFFFFFFFFFFFFF AND PUSH1 0x60 SHL DUP2 MSTORE POP POP POP PUSH2 0xFF JUMP JUMPDEST PUSH1 0x0 DUP2 MLOAD SWAP1 POP PUSH2 0x7E DUP2 PUSH2 0xE8 JUMP JUMPDEST SWAP3 SWAP2 POP POP JUMP JUMPDEST PUSH1 0x0 PUSH1 0x20 DUP3 DUP5 SUB SLT ISZERO PUSH2 0x9A JUMPI PUSH2 0x99 PUSH2 0xE3 JUMP JUMPDEST JUMPDEST PUSH1 0x0 PUSH2 0xA8 DUP5 DUP3 DUP6 ADD PUSH2 0x6F JUMP JUMPDEST SWAP2 POP POP SWAP3 SWAP2 POP POP JUMP JUMPDEST PUSH1 0x0 PUSH2 0xBC DUP3 PUSH2 0xC3 JUMP JUMPDEST SWAP1 POP SWAP2 SWAP1 POP JUMP JUMPDEST PUSH1 0x0 PUSH20 0xFFFFFFFFFFFFFFFFFFFFFFFFFFFFFFFFFFFFFFFF DUP3 AND SWAP1 POP SWAP2 SWAP1 POP JUMP JUMPDEST PUSH1 0x0 DUP1 REVERT JUMPDEST PUSH2 0xF1 DUP2 PUSH2 0xB1 JUMP JUMPDEST DUP2 EQ PUSH2 0xFC JUMPI PUSH1 0x0 DUP1 REVERT JUMPDEST POP JUMP JUMPDEST PUSH1 0x80 MLOAD PUSH1 0x60 SHR PUSH2 0x6E1 PUSH2 0x124 PUSH1 0x0 CODECOPY PUSH1 0x0 DUP2 DUP2 PUSH2 0x124 ADD MSTORE PUSH2 0x391 ADD MSTORE PUSH2 0x6E1 PUSH1 0x0 RETURN INVALID PUSH1 0x80 PUSH1 0x40 MSTORE CALLVALUE DUP1 ISZERO PUSH2 0x10 JUMPI PUSH1 0x0 DUP1 REVERT JUMPDEST POP PUSH1 0x4 CALLDATASIZE LT PUSH2 0x57 JUMPI PUSH1 0x0 CALLDATALOAD PUSH1 0xE0 SHR DUP1 PUSH4 0x4A05F3E4 EQ PUSH2 0x5C JUMPI DUP1 PUSH4 0xAFFFE9DE EQ PUSH2 0x78 JUMPI DUP1 PUSH4 0xB3A687CB EQ PUSH2 0xA8 JUMPI DUP1 PUSH4 0xC0698F8E EQ PUSH2 0xD8 JUMPI DUP1 PUSH4 0xC2412676 EQ PUSH2 0xF4 JUMPI JUMPDEST PUSH1 0x0 DUP1 REVERT JUMPDEST PUSH2 0x76 PUSH1 0x4 DUP1 CALLDATASIZE SUB DUP2 ADD SWAP1 PUSH2 0x71 SWAP2 SWAP1 PUSH2 0x44C JUMP JUMPDEST PUSH2 0x112 JUMP JUMPDEST STOP JUMPDEST PUSH2 0x92 PUSH1 0x4 DUP1 CALLDATASIZE SUB DUP2 ADD SWAP1 PUSH2 0x8D SWAP2 SWAP1 PUSH2 0x44C JUMP JUMPDEST PUSH2 0x226 JUMP JUMPDEST PUSH1 0x40 MLOAD PUSH2 0x9F SWAP2 SWAP1 PUSH2 0x4B5 JUMP JUMPDEST PUSH1 0x40 MLOAD DUP1 SWAP2 SUB SWAP1 RETURN JUMPDEST PUSH2 0xC2 PUSH1 0x4 DUP1 CALLDATASIZE SUB DUP2 ADD SWAP1 PUSH2 0xBD SWAP2 SWAP1 PUSH2 0x3F2 JUMP JUMPDEST PUSH2 0x265 JUMP JUMPDEST PUSH1 0x40 MLOAD PUSH2 0xCF SWAP2 SWAP1 PUSH2 0x4F9 JUMP JUMPDEST PUSH1 0x40 MLOAD DUP1 SWAP2 SUB SWAP1 RETURN JUMPDEST PUSH2 0xF2 PUSH1 0x4 DUP1 CALLDATASIZE SUB DUP2 ADD SWAP1 PUSH2 0xED SWAP2 SWAP1 PUSH2 0x3F2 JUMP JUMPDEST PUSH2 0x315 JUMP JUMPDEST STOP JUMPDEST PUSH2 0xFC PUSH2 0x38F JUMP JUMPDEST PUSH1 0x40 MLOAD PUSH2 0x109 SWAP2 SWAP1 PUSH2 0x514 JUMP JUMPDEST PUSH1 0x40 MLOAD DUP1 SWAP2 SUB SWAP1 RETURN JUMPDEST PUSH1 0x0 JUMPDEST PUSH1 0x0 DUP1 SLOAD SWAP1 POP DUP2 LT ISZERO PUSH2 0x222 JUMPI PUSH32 0x0 PUSH20 0xFFFFFFFFFFFFFFFFFFFFFFFFFFFFFFFFFFFFFFFF AND PUSH4 0xA9059CBB PUSH1 0x0 DUP4 DUP2 SLOAD DUP2 LT PUSH2 0x172 JUMPI PUSH2 0x171 PUSH2 0x632 JUMP JUMPDEST JUMPDEST SWAP1 PUSH1 0x0 MSTORE PUSH1 0x20 PUSH1 0x0 KECCAK256 ADD PUSH1 0x0 SWAP1 SLOAD SWAP1 PUSH2 0x100 EXP SWAP1 DIV PUSH20 0xFFFFFFFFFFFFFFFFFFFFFFFFFFFFFFFFFFFFFFFF AND DUP5 PUSH1 0x40 MLOAD DUP4 PUSH4 0xFFFFFFFF AND PUSH1 0xE0 SHL DUP2 MSTORE PUSH1 0x4 ADD PUSH2 0x1BB SWAP3 SWAP2 SWAP1 PUSH2 0x4D0 JUMP JUMPDEST PUSH1 0x20 PUSH1 0x40 MLOAD DUP1 DUP4 SUB DUP2 PUSH1 0x0 DUP8 DUP1 EXTCODESIZE ISZERO DUP1 ISZERO PUSH2 0x1D5 JUMPI PUSH1 0x0 DUP1 REVERT JUMPDEST POP GAS CALL ISZERO DUP1 ISZERO PUSH2 0x1E9 JUMPI RETURNDATASIZE PUSH1 0x0 DUP1 RETURNDATACOPY RETURNDATASIZE PUSH1 0x0 REVERT JUMPDEST POP POP POP POP PUSH1 0x40 MLOAD RETURNDATASIZE PUSH1 0x1F NOT PUSH1 0x1F DUP3 ADD AND DUP3 ADD DUP1 PUSH1 0x40 MSTORE POP DUP2 ADD SWAP1 PUSH2 0x20D SWAP2 SWAP1 PUSH2 0x41F JUMP JUMPDEST POP PUSH1 0x1 DUP2 PUSH2 0x21B SWAP2 SWAP1 PUSH2 0x52F JUMP JUMPDEST SWAP1 POP PUSH2 0x115 JUMP JUMPDEST POP POP JUMP JUMPDEST PUSH1 0x0 DUP2 DUP2 SLOAD DUP2 LT PUSH2 0x236 JUMPI PUSH1 0x0 DUP1 REVERT JUMPDEST SWAP1 PUSH1 0x0 MSTORE PUSH1 0x20 PUSH1 0x0 KECCAK256 ADD PUSH1 0x0 SWAP2 POP SLOAD SWAP1 PUSH2 0x100 EXP SWAP1 DIV PUSH20 0xFFFFFFFFFFFFFFFFFFFFFFFFFFFFFFFFFFFFFFFF AND DUP2 JUMP JUMPDEST PUSH1 0x0 DUP1 PUSH1 0x0 SWAP1 POP JUMPDEST PUSH1 0x0 DUP1 SLOAD SWAP1 POP DUP2 LT ISZERO PUSH2 0x30A JUMPI DUP3 PUSH20 0xFFFFFFFFFFFFFFFFFFFFFFFFFFFFFFFFFFFFFFFF AND PUSH1 0x0 DUP3 DUP2 SLOAD DUP2 LT PUSH2 0x2A5 JUMPI PUSH2 0x2A4 PUSH2 0x632 JUMP JUMPDEST JUMPDEST SWAP1 PUSH1 0x0 MSTORE PUSH1 0x20 PUSH1 0x0 KECCAK256 ADD PUSH1 0x0 SWAP1 SLOAD SWAP1 PUSH2 0x100 EXP SWAP1 DIV PUSH20 0xFFFFFFFFFFFFFFFFFFFFFFFFFFFFFFFFFFFFFFFF AND PUSH20 0xFFFFFFFFFFFFFFFFFFFFFFFFFFFFFFFFFFFFFFFF AND EQ ISZERO PUSH2 0x2F6 JUMPI PUSH1 0x1 SWAP2 POP POP PUSH2 0x310 JUMP JUMPDEST PUSH1 0x1 DUP2 PUSH2 0x303 SWAP2 SWAP1 PUSH2 0x52F JUMP JUMPDEST SWAP1 POP PUSH2 0x26D JUMP JUMPDEST POP PUSH1 0x0 SWAP1 POP JUMPDEST SWAP2 SWAP1 POP JUMP JUMPDEST PUSH1 0x0 PUSH2 0x320 DUP3 PUSH2 0x265 JUMP JUMPDEST SWAP1 POP DUP1 PUSH2 0x38B JUMPI PUSH1 0x0 DUP3 SWAP1 DUP1 PUSH1 0x1 DUP2 SLOAD ADD DUP1 DUP3 SSTORE DUP1 SWAP2 POP POP PUSH1 0x1 SWAP1 SUB SWAP1 PUSH1 0x0 MSTORE PUSH1 0x20 PUSH1 0x0 KECCAK256 ADD PUSH1 0x0 SWAP1 SWAP2 SWAP1 SWAP2 SWAP1 SWAP2 PUSH2 0x100 EXP DUP2 SLOAD DUP2 PUSH20 0xFFFFFFFFFFFFFFFFFFFFFFFFFFFFFFFFFFFFFFFF MUL NOT AND SWAP1 DUP4 PUSH20 0xFFFFFFFFFFFFFFFFFFFFFFFFFFFFFFFFFFFFFFFF AND MUL OR SWAP1 SSTORE POP JUMPDEST POP POP JUMP JUMPDEST PUSH32 0x0 DUP2 JUMP JUMPDEST PUSH1 0x0 DUP2 CALLDATALOAD SWAP1 POP PUSH2 0x3C2 DUP2 PUSH2 0x666 JUMP JUMPDEST SWAP3 SWAP2 POP POP JUMP JUMPDEST PUSH1 0x0 DUP2 MLOAD SWAP1 POP PUSH2 0x3D7 DUP2 PUSH2 0x67D JUMP JUMPDEST SWAP3 SWAP2 POP POP JUMP JUMPDEST PUSH1 0x0 DUP2 CALLDATALOAD SWAP1 POP PUSH2 0x3EC DUP2 PUSH2 0x694 JUMP JUMPDEST SWAP3 SWAP2 POP POP JUMP JUMPDEST PUSH1 0x0 PUSH1 0x20 DUP3 DUP5 SUB SLT ISZERO PUSH2 0x408 JUMPI PUSH2 0x407 PUSH2 0x661 JUMP JUMPDEST JUMPDEST PUSH1 0x0 PUSH2 0x416 DUP5 DUP3 DUP6 ADD PUSH2 0x3B3 JUMP JUMPDEST SWAP2 POP POP SWAP3 SWAP2 POP POP JUMP JUMPDEST PUSH1 0x0 PUSH1 0x20 DUP3 DUP5 SUB SLT ISZERO PUSH2 0x435 JUMPI PUSH2 0x434 PUSH2 0x661 JUMP JUMPDEST JUMPDEST PUSH1 0x0 PUSH2 0x443 DUP5 DUP3 DUP6 ADD PUSH2 0x3C8 JUMP JUMPDEST SWAP2 POP POP SWAP3 SWAP2 POP POP JUMP JUMPDEST PUSH1 0x0 PUSH1 0x20 DUP3 DUP5 SUB SLT ISZERO PUSH2 0x462 JUMPI PUSH2 0x461 PUSH2 0x661 JUMP JUMPDEST JUMPDEST PUSH1 0x0 PUSH2 0x470 DUP5 DUP3 DUP6 ADD PUSH2 0x3DD JUMP JUMPDEST SWAP2 POP POP SWAP3 SWAP2 POP POP JUMP JUMPDEST PUSH2 0x482 DUP2 PUSH2 0x585 JUMP JUMPDEST DUP3 MSTORE POP POP JUMP JUMPDEST PUSH2 0x491 DUP2 PUSH2 0x597 JUMP JUMPDEST DUP3 MSTORE POP POP JUMP JUMPDEST PUSH2 0x4A0 DUP2 PUSH2 0x5CD JUMP JUMPDEST DUP3 MSTORE POP POP JUMP JUMPDEST PUSH2 0x4AF DUP2 PUSH2 0x5C3 JUMP JUMPDEST DUP3 MSTORE POP POP JUMP JUMPDEST PUSH1 0x0 PUSH1 0x20 DUP3 ADD SWAP1 POP PUSH2 0x4CA PUSH1 0x0 DUP4 ADD DUP5 PUSH2 0x479 JUMP JUMPDEST SWAP3 SWAP2 POP POP JUMP JUMPDEST PUSH1 0x0 PUSH1 0x40 DUP3 ADD SWAP1 POP PUSH2 0x4E5 PUSH1 0x0 DUP4 ADD DUP6 PUSH2 0x479 JUMP JUMPDEST PUSH2 0x4F2 PUSH1 0x20 DUP4 ADD DUP5 PUSH2 0x4A6 JUMP JUMPDEST SWAP4 SWAP3 POP POP POP JUMP JUMPDEST PUSH1 0x0 PUSH1 0x20 DUP3 ADD SWAP1 POP PUSH2 0x50E PUSH1 0x0 DUP4 ADD DUP5 PUSH2 0x488 JUMP JUMPDEST SWAP3 SWAP2 POP POP JUMP JUMPDEST PUSH1 0x0 PUSH1 0x20 DUP3 ADD SWAP1 POP PUSH2 0x529 PUSH1 0x0 DUP4 ADD DUP5 PUSH2 0x497 JUMP JUMPDEST SWAP3 SWAP2 POP POP JUMP JUMPDEST PUSH1 0x0 PUSH2 0x53A DUP3 PUSH2 0x5C3 JUMP JUMPDEST SWAP2 POP PUSH2 0x545 DUP4 PUSH2 0x5C3 JUMP JUMPDEST SWAP3 POP DUP3 PUSH32 0xFFFFFFFFFFFFFFFFFFFFFFFFFFFFFFFFFFFFFFFFFFFFFFFFFFFFFFFFFFFFFFFF SUB DUP3 GT ISZERO PUSH2 0x57A JUMPI PUSH2 0x579 PUSH2 0x603 JUMP JUMPDEST JUMPDEST DUP3 DUP3 ADD SWAP1 POP SWAP3 SWAP2 POP POP JUMP JUMPDEST PUSH1 0x0 PUSH2 0x590 DUP3 PUSH2 0x5A3 JUMP JUMPDEST SWAP1 POP SWAP2 SWAP1 POP JUMP JUMPDEST PUSH1 0x0 DUP2 ISZERO ISZERO SWAP1 POP SWAP2 SWAP1 POP JUMP JUMPDEST PUSH1 0x0 PUSH20 0xFFFFFFFFFFFFFFFFFFFFFFFFFFFFFFFFFFFFFFFF DUP3 AND SWAP1 POP SWAP2 SWAP1 POP JUMP JUMPDEST PUSH1 0x0 DUP2 SWAP1 POP SWAP2 SWAP1 POP JUMP JUMPDEST PUSH1 0x0 PUSH2 0x5D8 DUP3 PUSH2 0x5DF JUMP JUMPDEST SWAP1 POP SWAP2 SWAP1 POP JUMP JUMPDEST PUSH1 0x0 PUSH2 0x5EA DUP3 PUSH2 0x5F1 JUMP JUMPDEST SWAP1 POP SWAP2 SWAP1 POP JUMP JUMPDEST PUSH1 0x0 PUSH2 0x5FC DUP3 PUSH2 0x5A3 JUMP JUMPDEST SWAP1 POP SWAP2 SWAP1 POP JUMP JUMPDEST PUSH32 0x4E487B7100000000000000000000000000000000000000000000000000000000 PUSH1 0x0 MSTORE PUSH1 0x11 PUSH1 0x4 MSTORE PUSH1 0x24 PUSH1 0x0 REVERT JUMPDEST PUSH32 0x4E487B7100000000000000000000000000000000000000000000000000000000 PUSH1 0x0 MSTORE PUSH1 0x32 PUSH1 0x4 MSTORE PUSH1 0x24 PUSH1 0x0 REVERT JUMPDEST PUSH1 0x0 DUP1 REVERT JUMPDEST PUSH2 0x66F DUP2 PUSH2 0x585 JUMP JUMPDEST DUP2 EQ PUSH2 0x67A JUMPI PUSH1 0x0 DUP1 REVERT JUMPDEST POP JUMP JUMPDEST PUSH2 0x686 DUP2 PUSH2 0x597 JUMP JUMPDEST DUP2 EQ PUSH2 0x691 JUMPI PUSH1 0x0 DUP1 REVERT JUMPDEST POP JUMP JUMPDEST PUSH2 0x69D DUP2 PUSH2 0x5C3 JUMP JUMPDEST DUP2 EQ PUSH2 0x6A8 JUMPI PUSH1 0x0 DUP1 REVERT JUMPDEST POP JUMP INVALID LOG2 PUSH5 0x6970667358 0x22 SLT KECCAK256 STOP PUSH10 0x9F5144EB85D023419C20 PUSH31 0x2975DF867521243287B2B222BE91C3A209211F64736F6C6343000807003300 "
				},
				"gasEstimates": {
					"creation": {
						"codeDepositCost": "352200",
						"executionCost": "infinite",
						"totalCost": "infinite"
					},
					"external": {
						"Token()": "infinite",
						"addAddressforAirdrop(address)": "infinite",
						"airdropaddresses(uint256)": "4956",
						"doAirdrop(uint256)": "infinite",
						"inAirdrop(address)": "infinite"
					}
				},
				"methodIdentifiers": {
					"Token()": "c2412676",
					"addAddressforAirdrop(address)": "c0698f8e",
					"airdropaddresses(uint256)": "afffe9de",
					"doAirdrop(uint256)": "4a05f3e4",
					"inAirdrop(address)": "b3a687cb"
				}
			},
			"storageLayout": {
				"storage": [
					{
						"astId": 84,
						"contract": "contracts/Airdrop/Airdrop.sol:Airdrop",
						"label": "airdropaddresses",
						"offset": 0,
						"slot": "0",
						"type": "t_array(t_address)dyn_storage"
					}
				],
				"types": {
					"t_address": {
						"encoding": "inplace",
						"label": "address",
						"numberOfBytes": "20"
					},
					"t_array(t_address)dyn_storage": {
						"base": "t_address",
						"encoding": "dynamic_array",
						"label": "address[]",
						"numberOfBytes": "32"
					}
				}
			},
			"userdoc": {
				"kind": "user",
				"methods": {},
				"version": 1
			}
		}
	}
}