{
	"contracts/Test_1/SimpleStaking.sol": {
		"SimpleStaking": {
			"abi": [
				{
					"inputs": [
						{
							"internalType": "contract IERC20",
							"name": "_erc20_contract_address",
							"type": "address"
						}
					],
					"stateMutability": "nonpayable",
					"type": "constructor"
				},
				{
					"anonymous": false,
					"inputs": [
						{
							"indexed": false,
							"internalType": "address",
							"name": "to",
							"type": "address"
						},
						{
							"indexed": false,
							"internalType": "uint256",
							"name": "amount",
							"type": "uint256"
						}
					],
					"name": "TokensUnstaked",
					"type": "event"
				},
				{
					"anonymous": false,
					"inputs": [
						{
							"indexed": false,
							"internalType": "address",
							"name": "from",
							"type": "address"
						},
						{
							"indexed": false,
							"internalType": "uint256",
							"name": "amount",
							"type": "uint256"
						}
					],
					"name": "tokensStaked",
					"type": "event"
				},
				{
					"inputs": [
						{
							"internalType": "address",
							"name": "",
							"type": "address"
						}
					],
					"name": "alreadyWithdrawn",
					"outputs": [
						{
							"internalType": "uint256",
							"name": "",
							"type": "uint256"
						}
					],
					"stateMutability": "view",
					"type": "function"
				},
				{
					"inputs": [
						{
							"internalType": "address",
							"name": "",
							"type": "address"
						}
					],
					"name": "balances",
					"outputs": [
						{
							"internalType": "uint256",
							"name": "",
							"type": "uint256"
						}
					],
					"stateMutability": "view",
					"type": "function"
				},
				{
					"inputs": [],
					"name": "contractBalance",
					"outputs": [
						{
							"internalType": "uint256",
							"name": "",
							"type": "uint256"
						}
					],
					"stateMutability": "view",
					"type": "function"
				},
				{
					"inputs": [],
					"name": "erc20Contract",
					"outputs": [
						{
							"internalType": "contract IERC20",
							"name": "",
							"type": "address"
						}
					],
					"stateMutability": "view",
					"type": "function"
				},
				{
					"inputs": [],
					"name": "initialTimestamp",
					"outputs": [
						{
							"internalType": "uint256",
							"name": "",
							"type": "uint256"
						}
					],
					"stateMutability": "view",
					"type": "function"
				},
				{
					"inputs": [],
					"name": "owner",
					"outputs": [
						{
							"internalType": "address",
							"name": "",
							"type": "address"
						}
					],
					"stateMutability": "view",
					"type": "function"
				},
				{
					"inputs": [
						{
							"internalType": "uint256",
							"name": "_timePeriodInSeconds",
							"type": "uint256"
						}
					],
					"name": "setTimestamp",
					"outputs": [],
					"stateMutability": "nonpayable",
					"type": "function"
				},
				{
					"inputs": [
						{
							"internalType": "contract IERC20",
							"name": "token",
							"type": "address"
						},
						{
							"internalType": "uint256",
							"name": "amount",
							"type": "uint256"
						}
					],
					"name": "stakeTokens",
					"outputs": [],
					"stateMutability": "nonpayable",
					"type": "function"
				},
				{
					"inputs": [],
					"name": "timePeriod",
					"outputs": [
						{
							"internalType": "uint256",
							"name": "",
							"type": "uint256"
						}
					],
					"stateMutability": "view",
					"type": "function"
				},
				{
					"inputs": [],
					"name": "timestampSet",
					"outputs": [
						{
							"internalType": "bool",
							"name": "",
							"type": "bool"
						}
					],
					"stateMutability": "view",
					"type": "function"
				},
				{
					"inputs": [
						{
							"internalType": "contract IERC20",
							"name": "token",
							"type": "address"
						},
						{
							"internalType": "uint256",
							"name": "amount",
							"type": "uint256"
						}
					],
					"name": "transferAccidentallyLockedTokens",
					"outputs": [],
					"stateMutability": "nonpayable",
					"type": "function"
				},
				{
					"inputs": [
						{
							"internalType": "contract IERC20",
							"name": "token",
							"type": "address"
						},
						{
							"internalType": "uint256",
							"name": "amount",
							"type": "uint256"
						}
					],
					"name": "unstakeTokens",
					"outputs": [],
					"stateMutability": "nonpayable",
					"type": "function"
				}
			],
			"devdoc": {
				"kind": "dev",
				"methods": {
					"constructor": {
						"details": "Deploys contract and links the ERC20 token which we are staking, also sets owner as msg.sender and sets timestampSet bool to false.",
						"params": {
							"_erc20_contract_address": "."
						}
					},
					"setTimestamp(uint256)": {
						"details": "Sets the initial timestamp and calculates minimum staking period in seconds i.e. 3600 = 1 hour",
						"params": {
							"_timePeriodInSeconds": "amount of seconds to add to the initial timestamp i.e. we are essemtially creating the minimum staking period here"
						}
					},
					"stakeTokens(address,uint256)": {
						"details": "Allows the contract owner to allocate official ERC20 tokens to each future recipient (only one at a time).",
						"params": {
							"amount": "to allocate to recipient.",
							"token": ", the official ERC20 token which this contract exclusively accepts."
						}
					},
					"transferAccidentallyLockedTokens(address,uint256)": {
						"details": "Transfer accidentally locked ERC20 tokens.",
						"params": {
							"amount": "of ERC20 tokens to remove.",
							"token": "- ERC20 token address."
						}
					},
					"unstakeTokens(address,uint256)": {
						"details": "Allows user to unstake tokens after the correct time period has elapsed",
						"params": {
							"amount": "- the amount to unlock (in wei)",
							"token": "- address of the official ERC20 token which is being unlocked here."
						}
					}
				},
				"version": 1
			},
			"evm": {
				"assembly": "    /* \"contracts/Test_1/SimpleStaking.sol\":395:5841  contract SimpleStaking {... */\n  mstore(0x40, 0x80)\n    /* \"contracts/Test_1/SimpleStaking.sol\":1334:1860  constructor(IERC20 _erc20_contract_address) {... */\n  callvalue\n  dup1\n  iszero\n  tag_1\n  jumpi\n  0x00\n  dup1\n  revert\ntag_1:\n  pop\n  mload(0x40)\n  sub(codesize, bytecodeSize)\n  dup1\n  bytecodeSize\n  dup4\n  codecopy\n  dup2\n  dup2\n  add\n  0x40\n  mstore\n  dup2\n  add\n  swap1\n  tag_2\n  swap2\n  swap1\n  tag_3\n  jump\t// in\ntag_2:\n    /* \"contracts/Test_1/SimpleStaking.sol\":1428:1438  msg.sender */\n  caller\n    /* \"contracts/Test_1/SimpleStaking.sol\":1420:1425  owner */\n  0x00\n  0x01\n    /* \"contracts/Test_1/SimpleStaking.sol\":1420:1438  owner = msg.sender */\n  0x0100\n  exp\n  dup2\n  sload\n  dup2\n  0xffffffffffffffffffffffffffffffffffffffff\n  mul\n  not\n  and\n  swap1\n  dup4\n  0xffffffffffffffffffffffffffffffffffffffff\n  and\n  mul\n  or\n  swap1\n  sstore\n  pop\n    /* \"contracts/Test_1/SimpleStaking.sol\":1505:1510  false */\n  0x00\n    /* \"contracts/Test_1/SimpleStaking.sol\":1490:1502  timestampSet */\n  0x02\n  0x00\n    /* \"contracts/Test_1/SimpleStaking.sol\":1490:1510  timestampSet = false */\n  0x0100\n  exp\n  dup2\n  sload\n  dup2\n  0xff\n  mul\n  not\n  and\n  swap1\n  dup4\n  iszero\n  iszero\n  mul\n  or\n  swap1\n  sstore\n  pop\n    /* \"contracts/Test_1/SimpleStaking.sol\":1662:1663  0 */\n  0x00\n    /* \"contracts/Test_1/SimpleStaking.sol\":1618:1664  address(_erc20_contract_address) != address(0) */\n  0xffffffffffffffffffffffffffffffffffffffff\n  and\n    /* \"contracts/Test_1/SimpleStaking.sol\":1626:1649  _erc20_contract_address */\n  dup2\n    /* \"contracts/Test_1/SimpleStaking.sol\":1618:1664  address(_erc20_contract_address) != address(0) */\n  0xffffffffffffffffffffffffffffffffffffffff\n  and\n  eq\n  iszero\n    /* \"contracts/Test_1/SimpleStaking.sol\":1610:1716  require(address(_erc20_contract_address) != address(0), \"_erc20_contract_address address can not be zero\") */\n  tag_6\n  jumpi\n  mload(0x40)\n  0x08c379a000000000000000000000000000000000000000000000000000000000\n  dup2\n  mstore\n  0x04\n  add\n  tag_7\n  swap1\n  tag_8\n  jump\t// in\ntag_7:\n  mload(0x40)\n  dup1\n  swap2\n  sub\n  swap1\n  revert\ntag_6:\n    /* \"contracts/Test_1/SimpleStaking.sol\":1743:1766  _erc20_contract_address */\n  dup1\n    /* \"contracts/Test_1/SimpleStaking.sol\":1727:1740  erc20Contract */\n  0x07\n  0x00\n    /* \"contracts/Test_1/SimpleStaking.sol\":1727:1766  erc20Contract = _erc20_contract_address */\n  0x0100\n  exp\n  dup2\n  sload\n  dup2\n  0xffffffffffffffffffffffffffffffffffffffff\n  mul\n  not\n  and\n  swap1\n  dup4\n  0xffffffffffffffffffffffffffffffffffffffff\n  and\n  mul\n  or\n  swap1\n  sstore\n  pop\n    /* \"contracts/Test_1/SimpleStaking.sol\":1847:1852  false */\n  0x00\n    /* \"contracts/Test_1/SimpleStaking.sol\":1838:1844  locked */\n  dup1\n  0x00\n    /* \"contracts/Test_1/SimpleStaking.sol\":1838:1852  locked = false */\n  0x0100\n  exp\n  dup2\n  sload\n  dup2\n  0xff\n  mul\n  not\n  and\n  swap1\n  dup4\n  iszero\n  iszero\n  mul\n  or\n  swap1\n  sstore\n  pop\n    /* \"contracts/Test_1/SimpleStaking.sol\":1334:1860  constructor(IERC20 _erc20_contract_address) {... */\n  pop\n    /* \"contracts/Test_1/SimpleStaking.sol\":395:5841  contract SimpleStaking {... */\n  jump(tag_9)\n    /* \"#utility.yul\":88:205   */\ntag_11:\n    /* \"#utility.yul\":197:198   */\n  0x00\n    /* \"#utility.yul\":194:195   */\n  dup1\n    /* \"#utility.yul\":187:199   */\n  revert\n    /* \"#utility.yul\":334:460   */\ntag_13:\n    /* \"#utility.yul\":371:378   */\n  0x00\n    /* \"#utility.yul\":411:453   */\n  0xffffffffffffffffffffffffffffffffffffffff\n    /* \"#utility.yul\":404:409   */\n  dup3\n    /* \"#utility.yul\":400:454   */\n  and\n    /* \"#utility.yul\":389:454   */\n  swap1\n  pop\n    /* \"#utility.yul\":334:460   */\n  swap2\n  swap1\n  pop\n  jump\t// out\n    /* \"#utility.yul\":466:562   */\ntag_14:\n    /* \"#utility.yul\":503:510   */\n  0x00\n    /* \"#utility.yul\":532:556   */\n  tag_27\n    /* \"#utility.yul\":550:555   */\n  dup3\n    /* \"#utility.yul\":532:556   */\n  tag_13\n  jump\t// in\ntag_27:\n    /* \"#utility.yul\":521:556   */\n  swap1\n  pop\n    /* \"#utility.yul\":466:562   */\n  swap2\n  swap1\n  pop\n  jump\t// out\n    /* \"#utility.yul\":568:677   */\ntag_15:\n    /* \"#utility.yul\":618:625   */\n  0x00\n    /* \"#utility.yul\":647:671   */\n  tag_29\n    /* \"#utility.yul\":665:670   */\n  dup3\n    /* \"#utility.yul\":647:671   */\n  tag_14\n  jump\t// in\ntag_29:\n    /* \"#utility.yul\":636:671   */\n  swap1\n  pop\n    /* \"#utility.yul\":568:677   */\n  swap2\n  swap1\n  pop\n  jump\t// out\n    /* \"#utility.yul\":683:831   */\ntag_16:\n    /* \"#utility.yul\":769:806   */\n  tag_31\n    /* \"#utility.yul\":800:805   */\n  dup2\n    /* \"#utility.yul\":769:806   */\n  tag_15\n  jump\t// in\ntag_31:\n    /* \"#utility.yul\":762:767   */\n  dup2\n    /* \"#utility.yul\":759:807   */\n  eq\n    /* \"#utility.yul\":749:825   */\n  tag_32\n  jumpi\n    /* \"#utility.yul\":821:822   */\n  0x00\n    /* \"#utility.yul\":818:819   */\n  dup1\n    /* \"#utility.yul\":811:823   */\n  revert\n    /* \"#utility.yul\":749:825   */\ntag_32:\n    /* \"#utility.yul\":683:831   */\n  pop\n  jump\t// out\n    /* \"#utility.yul\":837:1006   */\ntag_17:\n    /* \"#utility.yul\":907:912   */\n  0x00\n    /* \"#utility.yul\":938:944   */\n  dup2\n    /* \"#utility.yul\":932:945   */\n  mload\n    /* \"#utility.yul\":923:945   */\n  swap1\n  pop\n    /* \"#utility.yul\":954:1000   */\n  tag_34\n    /* \"#utility.yul\":994:999   */\n  dup2\n    /* \"#utility.yul\":954:1000   */\n  tag_16\n  jump\t// in\ntag_34:\n    /* \"#utility.yul\":837:1006   */\n  swap3\n  swap2\n  pop\n  pop\n  jump\t// out\n    /* \"#utility.yul\":1012:1389   */\ntag_3:\n    /* \"#utility.yul\":1095:1101   */\n  0x00\n    /* \"#utility.yul\":1144:1146   */\n  0x20\n    /* \"#utility.yul\":1132:1141   */\n  dup3\n    /* \"#utility.yul\":1123:1130   */\n  dup5\n    /* \"#utility.yul\":1119:1142   */\n  sub\n    /* \"#utility.yul\":1115:1147   */\n  slt\n    /* \"#utility.yul\":1112:1231   */\n  iszero\n  tag_36\n  jumpi\n    /* \"#utility.yul\":1150:1229   */\n  tag_37\n  tag_11\n  jump\t// in\ntag_37:\n    /* \"#utility.yul\":1112:1231   */\ntag_36:\n    /* \"#utility.yul\":1270:1271   */\n  0x00\n    /* \"#utility.yul\":1295:1372   */\n  tag_38\n    /* \"#utility.yul\":1364:1371   */\n  dup5\n    /* \"#utility.yul\":1355:1361   */\n  dup3\n    /* \"#utility.yul\":1344:1353   */\n  dup6\n    /* \"#utility.yul\":1340:1362   */\n  add\n    /* \"#utility.yul\":1295:1372   */\n  tag_17\n  jump\t// in\ntag_38:\n    /* \"#utility.yul\":1285:1372   */\n  swap2\n  pop\n    /* \"#utility.yul\":1241:1382   */\n  pop\n    /* \"#utility.yul\":1012:1389   */\n  swap3\n  swap2\n  pop\n  pop\n  jump\t// out\n    /* \"#utility.yul\":1395:1564   */\ntag_18:\n    /* \"#utility.yul\":1479:1490   */\n  0x00\n    /* \"#utility.yul\":1513:1519   */\n  dup3\n    /* \"#utility.yul\":1508:1511   */\n  dup3\n    /* \"#utility.yul\":1501:1520   */\n  mstore\n    /* \"#utility.yul\":1553:1557   */\n  0x20\n    /* \"#utility.yul\":1548:1551   */\n  dup3\n    /* \"#utility.yul\":1544:1558   */\n  add\n    /* \"#utility.yul\":1529:1558   */\n  swap1\n  pop\n    /* \"#utility.yul\":1395:1564   */\n  swap3\n  swap2\n  pop\n  pop\n  jump\t// out\n    /* \"#utility.yul\":1570:1804   */\ntag_19:\n    /* \"#utility.yul\":1710:1744   */\n  0x5f65726332305f636f6e74726163745f61646472657373206164647265737320\n    /* \"#utility.yul\":1706:1707   */\n  0x00\n    /* \"#utility.yul\":1698:1704   */\n  dup3\n    /* \"#utility.yul\":1694:1708   */\n  add\n    /* \"#utility.yul\":1687:1745   */\n  mstore\n    /* \"#utility.yul\":1779:1796   */\n  0x63616e206e6f74206265207a65726f0000000000000000000000000000000000\n    /* \"#utility.yul\":1774:1776   */\n  0x20\n    /* \"#utility.yul\":1766:1772   */\n  dup3\n    /* \"#utility.yul\":1762:1777   */\n  add\n    /* \"#utility.yul\":1755:1797   */\n  mstore\n    /* \"#utility.yul\":1570:1804   */\n  pop\n  jump\t// out\n    /* \"#utility.yul\":1810:2176   */\ntag_20:\n    /* \"#utility.yul\":1952:1955   */\n  0x00\n    /* \"#utility.yul\":1973:2040   */\n  tag_42\n    /* \"#utility.yul\":2037:2039   */\n  0x2f\n    /* \"#utility.yul\":2032:2035   */\n  dup4\n    /* \"#utility.yul\":1973:2040   */\n  tag_18\n  jump\t// in\ntag_42:\n    /* \"#utility.yul\":1966:2040   */\n  swap2\n  pop\n    /* \"#utility.yul\":2049:2142   */\n  tag_43\n    /* \"#utility.yul\":2138:2141   */\n  dup3\n    /* \"#utility.yul\":2049:2142   */\n  tag_19\n  jump\t// in\ntag_43:\n    /* \"#utility.yul\":2167:2169   */\n  0x40\n    /* \"#utility.yul\":2162:2165   */\n  dup3\n    /* \"#utility.yul\":2158:2170   */\n  add\n    /* \"#utility.yul\":2151:2170   */\n  swap1\n  pop\n    /* \"#utility.yul\":1810:2176   */\n  swap2\n  swap1\n  pop\n  jump\t// out\n    /* \"#utility.yul\":2182:2601   */\ntag_8:\n    /* \"#utility.yul\":2348:2352   */\n  0x00\n    /* \"#utility.yul\":2386:2388   */\n  0x20\n    /* \"#utility.yul\":2375:2384   */\n  dup3\n    /* \"#utility.yul\":2371:2389   */\n  add\n    /* \"#utility.yul\":2363:2389   */\n  swap1\n  pop\n    /* \"#utility.yul\":2435:2444   */\n  dup2\n    /* \"#utility.yul\":2429:2433   */\n  dup2\n    /* \"#utility.yul\":2425:2445   */\n  sub\n    /* \"#utility.yul\":2421:2422   */\n  0x00\n    /* \"#utility.yul\":2410:2419   */\n  dup4\n    /* \"#utility.yul\":2406:2423   */\n  add\n    /* \"#utility.yul\":2399:2446   */\n  mstore\n    /* \"#utility.yul\":2463:2594   */\n  tag_45\n    /* \"#utility.yul\":2589:2593   */\n  dup2\n    /* \"#utility.yul\":2463:2594   */\n  tag_20\n  jump\t// in\ntag_45:\n    /* \"#utility.yul\":2455:2594   */\n  swap1\n  pop\n    /* \"#utility.yul\":2182:2601   */\n  swap2\n  swap1\n  pop\n  jump\t// out\n    /* \"contracts/Test_1/SimpleStaking.sol\":395:5841  contract SimpleStaking {... */\ntag_9:\n  dataSize(sub_0)\n  dup1\n  dataOffset(sub_0)\n  0x00\n  codecopy\n  0x00\n  return\nstop\n\nsub_0: assembly {\n        /* \"contracts/Test_1/SimpleStaking.sol\":395:5841  contract SimpleStaking {... */\n      mstore(0x40, 0x80)\n      callvalue\n      dup1\n      iszero\n      tag_1\n      jumpi\n      0x00\n      dup1\n      revert\n    tag_1:\n      pop\n      jumpi(tag_2, lt(calldatasize, 0x04))\n      shr(0xe0, calldataload(0x00))\n      dup1\n      0x9aa2e39e\n      gt\n      tag_15\n      jumpi\n      dup1\n      0x9aa2e39e\n      eq\n      tag_9\n      jumpi\n      dup1\n      0x9b69279a\n      eq\n      tag_10\n      jumpi\n      dup1\n      0xa0a2b573\n      eq\n      tag_11\n      jumpi\n      dup1\n      0xa8f6c913\n      eq\n      tag_12\n      jumpi\n      dup1\n      0xd6d14171\n      eq\n      tag_13\n      jumpi\n      dup1\n      0xe89a173e\n      eq\n      tag_14\n      jumpi\n      jump(tag_2)\n    tag_15:\n      dup1\n      0x27e235e3\n      eq\n      tag_3\n      jumpi\n      dup1\n      0x3e79d1e1\n      eq\n      tag_4\n      jumpi\n      dup1\n      0x3e994942\n      eq\n      tag_5\n      jumpi\n      dup1\n      0x79a83f5a\n      eq\n      tag_6\n      jumpi\n      dup1\n      0x8b7afe2e\n      eq\n      tag_7\n      jumpi\n      dup1\n      0x8da5cb5b\n      eq\n      tag_8\n      jumpi\n    tag_2:\n      0x00\n      dup1\n      revert\n        /* \"contracts/Test_1/SimpleStaking.sol\":864:907  mapping(address => uint256) public balances */\n    tag_3:\n      tag_16\n      0x04\n      dup1\n      calldatasize\n      sub\n      dup2\n      add\n      swap1\n      tag_17\n      swap2\n      swap1\n      tag_18\n      jump\t// in\n    tag_17:\n      tag_19\n      jump\t// in\n    tag_16:\n      mload(0x40)\n      tag_20\n      swap2\n      swap1\n      tag_21\n      jump\t// in\n    tag_20:\n      mload(0x40)\n      dup1\n      swap2\n      sub\n      swap1\n      return\n        /* \"contracts/Test_1/SimpleStaking.sol\":739:764  uint256 public timePeriod */\n    tag_4:\n      tag_22\n      tag_23\n      jump\t// in\n    tag_22:\n      mload(0x40)\n      tag_24\n      swap2\n      swap1\n      tag_21\n      jump\t// in\n    tag_24:\n      mload(0x40)\n      dup1\n      swap2\n      sub\n      swap1\n      return\n        /* \"contracts/Test_1/SimpleStaking.sol\":5245:5838  function transferAccidentallyLockedTokens(IERC20 token, uint256 amount) public onlyOwner noReentrant {... */\n    tag_5:\n      tag_25\n      0x04\n      dup1\n      calldatasize\n      sub\n      dup2\n      add\n      swap1\n      tag_26\n      swap2\n      swap1\n      tag_27\n      jump\t// in\n    tag_26:\n      tag_28\n      jump\t// in\n    tag_25:\n      stop\n        /* \"contracts/Test_1/SimpleStaking.sol\":3522:4080  function stakeTokens(IERC20 token, uint256 amount) public timestampIsSet noReentrant {... */\n    tag_6:\n      tag_29\n      0x04\n      dup1\n      calldatasize\n      sub\n      dup2\n      add\n      swap1\n      tag_30\n      swap2\n      swap1\n      tag_27\n      jump\t// in\n    tag_30:\n      tag_31\n      jump\t// in\n    tag_29:\n      stop\n        /* \"contracts/Test_1/SimpleStaking.sol\":914:944  uint256 public contractBalance */\n    tag_7:\n      tag_32\n      tag_33\n      jump\t// in\n    tag_32:\n      mload(0x40)\n      tag_34\n      swap2\n      swap1\n      tag_21\n      jump\t// in\n    tag_34:\n      mload(0x40)\n      dup1\n      swap2\n      sub\n      swap1\n      return\n        /* \"contracts/Test_1/SimpleStaking.sol\":605:625  address public owner */\n    tag_8:\n      tag_35\n      tag_36\n      jump\t// in\n    tag_35:\n      mload(0x40)\n      tag_37\n      swap2\n      swap1\n      tag_38\n      jump\t// in\n    tag_37:\n      mload(0x40)\n      dup1\n      swap2\n      sub\n      swap1\n      return\n        /* \"contracts/Test_1/SimpleStaking.sol\":806:857  mapping(address => uint256) public alreadyWithdrawn */\n    tag_9:\n      tag_39\n      0x04\n      dup1\n      calldatasize\n      sub\n      dup2\n      add\n      swap1\n      tag_40\n      swap2\n      swap1\n      tag_18\n      jump\t// in\n    tag_40:\n      tag_41\n      jump\t// in\n    tag_39:\n      mload(0x40)\n      tag_42\n      swap2\n      swap1\n      tag_21\n      jump\t// in\n    tag_42:\n      mload(0x40)\n      dup1\n      swap2\n      sub\n      swap1\n      return\n        /* \"contracts/Test_1/SimpleStaking.sol\":708:732  bool public timestampSet */\n    tag_10:\n      tag_43\n      tag_44\n      jump\t// in\n    tag_43:\n      mload(0x40)\n      tag_45\n      swap2\n      swap1\n      tag_46\n      jump\t// in\n    tag_45:\n      mload(0x40)\n      dup1\n      swap2\n      sub\n      swap1\n      return\n        /* \"contracts/Test_1/SimpleStaking.sol\":3020:3255  function setTimestamp(uint256 _timePeriodInSeconds) public onlyOwner timestampNotSet  {... */\n    tag_11:\n      tag_47\n      0x04\n      dup1\n      calldatasize\n      sub\n      dup2\n      add\n      swap1\n      tag_48\n      swap2\n      swap1\n      tag_49\n      jump\t// in\n    tag_48:\n      tag_50\n      jump\t// in\n    tag_47:\n      stop\n        /* \"contracts/Test_1/SimpleStaking.sol\":984:1011  IERC20 public erc20Contract */\n    tag_12:\n      tag_51\n      tag_52\n      jump\t// in\n    tag_51:\n      mload(0x40)\n      tag_53\n      swap2\n      swap1\n      tag_54\n      jump\t// in\n    tag_53:\n      mload(0x40)\n      dup1\n      swap2\n      sub\n      swap1\n      return\n        /* \"contracts/Test_1/SimpleStaking.sol\":670:701  uint256 public initialTimestamp */\n    tag_13:\n      tag_55\n      tag_56\n      jump\t// in\n    tag_55:\n      mload(0x40)\n      tag_57\n      swap2\n      swap1\n      tag_21\n      jump\t// in\n    tag_57:\n      mload(0x40)\n      dup1\n      swap2\n      sub\n      swap1\n      return\n        /* \"contracts/Test_1/SimpleStaking.sol\":4319:5085  function unstakeTokens(IERC20 token, uint256 amount) public timestampIsSet noReentrant {... */\n    tag_14:\n      tag_58\n      0x04\n      dup1\n      calldatasize\n      sub\n      dup2\n      add\n      swap1\n      tag_59\n      swap2\n      swap1\n      tag_27\n      jump\t// in\n    tag_59:\n      tag_60\n      jump\t// in\n    tag_58:\n      stop\n        /* \"contracts/Test_1/SimpleStaking.sol\":864:907  mapping(address => uint256) public balances */\n    tag_19:\n      mstore(0x20, 0x05)\n      dup1\n      0x00\n      mstore\n      keccak256(0x00, 0x40)\n      0x00\n      swap2\n      pop\n      swap1\n      pop\n      sload\n      dup2\n      jump\t// out\n        /* \"contracts/Test_1/SimpleStaking.sol\":739:764  uint256 public timePeriod */\n    tag_23:\n      sload(0x03)\n      dup2\n      jump\t// out\n        /* \"contracts/Test_1/SimpleStaking.sol\":5245:5838  function transferAccidentallyLockedTokens(IERC20 token, uint256 amount) public onlyOwner noReentrant {... */\n    tag_28:\n        /* \"contracts/Test_1/SimpleStaking.sol\":2237:2242  owner */\n      0x00\n      0x01\n      swap1\n      sload\n      swap1\n      0x0100\n      exp\n      swap1\n      div\n      0xffffffffffffffffffffffffffffffffffffffff\n      and\n        /* \"contracts/Test_1/SimpleStaking.sol\":2223:2242  msg.sender == owner */\n      0xffffffffffffffffffffffffffffffffffffffff\n      and\n        /* \"contracts/Test_1/SimpleStaking.sol\":2223:2233  msg.sender */\n      caller\n        /* \"contracts/Test_1/SimpleStaking.sol\":2223:2242  msg.sender == owner */\n      0xffffffffffffffffffffffffffffffffffffffff\n      and\n      eq\n        /* \"contracts/Test_1/SimpleStaking.sol\":2215:2291  require(msg.sender == owner, \"Message sender must be the contract's owner.\") */\n      tag_62\n      jumpi\n      mload(0x40)\n      0x08c379a000000000000000000000000000000000000000000000000000000000\n      dup2\n      mstore\n      0x04\n      add\n      tag_63\n      swap1\n      tag_64\n      jump\t// in\n    tag_63:\n      mload(0x40)\n      dup1\n      swap2\n      sub\n      swap1\n      revert\n    tag_62:\n        /* \"contracts/Test_1/SimpleStaking.sol\":1979:1985  locked */\n      0x00\n      dup1\n      sload\n      swap1\n      0x0100\n      exp\n      swap1\n      div\n      0xff\n      and\n        /* \"contracts/Test_1/SimpleStaking.sol\":1978:1985  !locked */\n      iszero\n        /* \"contracts/Test_1/SimpleStaking.sol\":1970:2004  require(!locked, \"No re-entrancy\") */\n      tag_66\n      jumpi\n      mload(0x40)\n      0x08c379a000000000000000000000000000000000000000000000000000000000\n      dup2\n      mstore\n      0x04\n      add\n      tag_67\n      swap1\n      tag_68\n      jump\t// in\n    tag_67:\n      mload(0x40)\n      dup1\n      swap2\n      sub\n      swap1\n      revert\n    tag_66:\n        /* \"contracts/Test_1/SimpleStaking.sol\":2024:2028  true */\n      0x01\n        /* \"contracts/Test_1/SimpleStaking.sol\":2015:2021  locked */\n      0x00\n      dup1\n        /* \"contracts/Test_1/SimpleStaking.sol\":2015:2028  locked = true */\n      0x0100\n      exp\n      dup2\n      sload\n      dup2\n      0xff\n      mul\n      not\n      and\n      swap1\n      dup4\n      iszero\n      iszero\n      mul\n      or\n      swap1\n      sstore\n      pop\n        /* \"contracts/Test_1/SimpleStaking.sol\":5391:5392  0 */\n      0x00\n        /* \"contracts/Test_1/SimpleStaking.sol\":5365:5393  address(token) != address(0) */\n      0xffffffffffffffffffffffffffffffffffffffff\n      and\n        /* \"contracts/Test_1/SimpleStaking.sol\":5373:5378  token */\n      dup3\n        /* \"contracts/Test_1/SimpleStaking.sol\":5365:5393  address(token) != address(0) */\n      0xffffffffffffffffffffffffffffffffffffffff\n      and\n      eq\n      iszero\n        /* \"contracts/Test_1/SimpleStaking.sol\":5357:5427  require(address(token) != address(0), \"Token address can not be zero\") */\n      tag_70\n      jumpi\n      mload(0x40)\n      0x08c379a000000000000000000000000000000000000000000000000000000000\n      dup2\n      mstore\n      0x04\n      add\n      tag_71\n      swap1\n      tag_72\n      jump\t// in\n    tag_71:\n      mload(0x40)\n      dup1\n      swap2\n      sub\n      swap1\n      revert\n    tag_70:\n        /* \"contracts/Test_1/SimpleStaking.sol\":5599:5612  erc20Contract */\n      0x07\n      0x00\n      swap1\n      sload\n      swap1\n      0x0100\n      exp\n      swap1\n      div\n      0xffffffffffffffffffffffffffffffffffffffff\n      and\n        /* \"contracts/Test_1/SimpleStaking.sol\":5590:5612  token != erc20Contract */\n      0xffffffffffffffffffffffffffffffffffffffff\n      and\n        /* \"contracts/Test_1/SimpleStaking.sol\":5590:5595  token */\n      dup3\n        /* \"contracts/Test_1/SimpleStaking.sol\":5590:5612  token != erc20Contract */\n      0xffffffffffffffffffffffffffffffffffffffff\n      and\n      eq\n      iszero\n        /* \"contracts/Test_1/SimpleStaking.sol\":5582:5693  require(token != erc20Contract, \"Token address can not be ERC20 address which was passed into the constructor\") */\n      tag_73\n      jumpi\n      mload(0x40)\n      0x08c379a000000000000000000000000000000000000000000000000000000000\n      dup2\n      mstore\n      0x04\n      add\n      tag_74\n      swap1\n      tag_75\n      jump\t// in\n    tag_74:\n      mload(0x40)\n      dup1\n      swap2\n      sub\n      swap1\n      revert\n    tag_73:\n        /* \"contracts/Test_1/SimpleStaking.sol\":5797:5830  token.safeTransfer(owner, amount) */\n      tag_76\n        /* \"contracts/Test_1/SimpleStaking.sol\":5816:5821  owner */\n      0x00\n      0x01\n      swap1\n      sload\n      swap1\n      0x0100\n      exp\n      swap1\n      div\n      0xffffffffffffffffffffffffffffffffffffffff\n      and\n        /* \"contracts/Test_1/SimpleStaking.sol\":5823:5829  amount */\n      dup3\n        /* \"contracts/Test_1/SimpleStaking.sol\":5797:5802  token */\n      dup5\n        /* \"contracts/Test_1/SimpleStaking.sol\":5797:5815  token.safeTransfer */\n      0xffffffffffffffffffffffffffffffffffffffff\n      and\n      tag_77\n      swap1\n        /* \"contracts/Test_1/SimpleStaking.sol\":5797:5830  token.safeTransfer(owner, amount) */\n      swap3\n      swap2\n      swap1\n      0xffffffff\n      and\n      jump\t// in\n    tag_76:\n        /* \"contracts/Test_1/SimpleStaking.sol\":2060:2065  false */\n      0x00\n        /* \"contracts/Test_1/SimpleStaking.sol\":2051:2057  locked */\n      dup1\n      0x00\n        /* \"contracts/Test_1/SimpleStaking.sol\":2051:2065  locked = false */\n      0x0100\n      exp\n      dup2\n      sload\n      dup2\n      0xff\n      mul\n      not\n      and\n      swap1\n      dup4\n      iszero\n      iszero\n      mul\n      or\n      swap1\n      sstore\n      pop\n        /* \"contracts/Test_1/SimpleStaking.sol\":5245:5838  function transferAccidentallyLockedTokens(IERC20 token, uint256 amount) public onlyOwner noReentrant {... */\n      pop\n      pop\n      jump\t// out\n        /* \"contracts/Test_1/SimpleStaking.sol\":3522:4080  function stakeTokens(IERC20 token, uint256 amount) public timestampIsSet noReentrant {... */\n    tag_31:\n        /* \"contracts/Test_1/SimpleStaking.sol\":2674:2678  true */\n      0x01\n        /* \"contracts/Test_1/SimpleStaking.sol\":2658:2678  timestampSet == true */\n      iszero\n      iszero\n        /* \"contracts/Test_1/SimpleStaking.sol\":2658:2670  timestampSet */\n      0x02\n      0x00\n      swap1\n      sload\n      swap1\n      0x0100\n      exp\n      swap1\n      div\n      0xff\n      and\n        /* \"contracts/Test_1/SimpleStaking.sol\":2658:2678  timestampSet == true */\n      iszero\n      iszero\n      eq\n        /* \"contracts/Test_1/SimpleStaking.sol\":2650:2731  require(timestampSet == true, \"Please set the time stamp first, then try again.\") */\n      tag_79\n      jumpi\n      mload(0x40)\n      0x08c379a000000000000000000000000000000000000000000000000000000000\n      dup2\n      mstore\n      0x04\n      add\n      tag_80\n      swap1\n      tag_81\n      jump\t// in\n    tag_80:\n      mload(0x40)\n      dup1\n      swap2\n      sub\n      swap1\n      revert\n    tag_79:\n        /* \"contracts/Test_1/SimpleStaking.sol\":1979:1985  locked */\n      0x00\n      dup1\n      sload\n      swap1\n      0x0100\n      exp\n      swap1\n      div\n      0xff\n      and\n        /* \"contracts/Test_1/SimpleStaking.sol\":1978:1985  !locked */\n      iszero\n        /* \"contracts/Test_1/SimpleStaking.sol\":1970:2004  require(!locked, \"No re-entrancy\") */\n      tag_83\n      jumpi\n      mload(0x40)\n      0x08c379a000000000000000000000000000000000000000000000000000000000\n      dup2\n      mstore\n      0x04\n      add\n      tag_84\n      swap1\n      tag_68\n      jump\t// in\n    tag_84:\n      mload(0x40)\n      dup1\n      swap2\n      sub\n      swap1\n      revert\n    tag_83:\n        /* \"contracts/Test_1/SimpleStaking.sol\":2024:2028  true */\n      0x01\n        /* \"contracts/Test_1/SimpleStaking.sol\":2015:2021  locked */\n      0x00\n      dup1\n        /* \"contracts/Test_1/SimpleStaking.sol\":2015:2028  locked = true */\n      0x0100\n      exp\n      dup2\n      sload\n      dup2\n      0xff\n      mul\n      not\n      and\n      swap1\n      dup4\n      iszero\n      iszero\n      mul\n      or\n      swap1\n      sstore\n      pop\n        /* \"contracts/Test_1/SimpleStaking.sol\":3635:3648  erc20Contract */\n      0x07\n      0x00\n      swap1\n      sload\n      swap1\n      0x0100\n      exp\n      swap1\n      div\n      0xffffffffffffffffffffffffffffffffffffffff\n      and\n        /* \"contracts/Test_1/SimpleStaking.sol\":3626:3648  token == erc20Contract */\n      0xffffffffffffffffffffffffffffffffffffffff\n      and\n        /* \"contracts/Test_1/SimpleStaking.sol\":3626:3631  token */\n      dup3\n        /* \"contracts/Test_1/SimpleStaking.sol\":3626:3648  token == erc20Contract */\n      0xffffffffffffffffffffffffffffffffffffffff\n      and\n      eq\n        /* \"contracts/Test_1/SimpleStaking.sol\":3618:3765  require(token == erc20Contract, \"You are only allowed to stake the official erc20 token address which was passed into this contract's constructor\") */\n      tag_86\n      jumpi\n      mload(0x40)\n      0x08c379a000000000000000000000000000000000000000000000000000000000\n      dup2\n      mstore\n      0x04\n      add\n      tag_87\n      swap1\n      tag_88\n      jump\t// in\n    tag_87:\n      mload(0x40)\n      dup1\n      swap2\n      sub\n      swap1\n      revert\n    tag_86:\n        /* \"contracts/Test_1/SimpleStaking.sol\":3794:3799  token */\n      dup2\n        /* \"contracts/Test_1/SimpleStaking.sol\":3794:3809  token.balanceOf */\n      0xffffffffffffffffffffffffffffffffffffffff\n      and\n      0x70a08231\n        /* \"contracts/Test_1/SimpleStaking.sol\":3810:3820  msg.sender */\n      caller\n        /* \"contracts/Test_1/SimpleStaking.sol\":3794:3821  token.balanceOf(msg.sender) */\n      mload(0x40)\n      dup3\n      0xffffffff\n      and\n      0xe0\n      shl\n      dup2\n      mstore\n      0x04\n      add\n      tag_89\n      swap2\n      swap1\n      tag_38\n      jump\t// in\n    tag_89:\n      0x20\n      mload(0x40)\n      dup1\n      dup4\n      sub\n      dup2\n      dup7\n      gas\n      staticcall\n      iszero\n      dup1\n      iszero\n      tag_91\n      jumpi\n      returndatasize\n      0x00\n      dup1\n      returndatacopy\n      revert(0x00, returndatasize)\n    tag_91:\n      pop\n      pop\n      pop\n      pop\n      mload(0x40)\n      returndatasize\n      not(0x1f)\n      0x1f\n      dup3\n      add\n      and\n      dup3\n      add\n      dup1\n      0x40\n      mstore\n      pop\n      dup2\n      add\n      swap1\n      tag_92\n      swap2\n      swap1\n      tag_93\n      jump\t// in\n    tag_92:\n        /* \"contracts/Test_1/SimpleStaking.sol\":3784:3790  amount */\n      dup2\n        /* \"contracts/Test_1/SimpleStaking.sol\":3784:3821  amount <= token.balanceOf(msg.sender) */\n      gt\n      iszero\n        /* \"contracts/Test_1/SimpleStaking.sol\":3776:3890  require(amount <= token.balanceOf(msg.sender), \"Not enough STATE tokens in your wallet, please try lesser amount\") */\n      tag_94\n      jumpi\n      mload(0x40)\n      0x08c379a000000000000000000000000000000000000000000000000000000000\n      dup2\n      mstore\n      0x04\n      add\n      tag_95\n      swap1\n      tag_96\n      jump\t// in\n    tag_95:\n      mload(0x40)\n      dup1\n      swap2\n      sub\n      swap1\n      revert\n    tag_94:\n        /* \"contracts/Test_1/SimpleStaking.sol\":3901:3958  token.safeTransferFrom(msg.sender, address(this), amount) */\n      tag_97\n        /* \"contracts/Test_1/SimpleStaking.sol\":3924:3934  msg.sender */\n      caller\n        /* \"contracts/Test_1/SimpleStaking.sol\":3944:3948  this */\n      address\n        /* \"contracts/Test_1/SimpleStaking.sol\":3951:3957  amount */\n      dup4\n        /* \"contracts/Test_1/SimpleStaking.sol\":3901:3906  token */\n      dup6\n        /* \"contracts/Test_1/SimpleStaking.sol\":3901:3923  token.safeTransferFrom */\n      0xffffffffffffffffffffffffffffffffffffffff\n      and\n      tag_98\n      swap1\n        /* \"contracts/Test_1/SimpleStaking.sol\":3901:3958  token.safeTransferFrom(msg.sender, address(this), amount) */\n      swap4\n      swap3\n      swap2\n      swap1\n      0xffffffff\n      and\n      jump\t// in\n    tag_97:\n        /* \"contracts/Test_1/SimpleStaking.sol\":3992:4024  balances[msg.sender].add(amount) */\n      tag_99\n        /* \"contracts/Test_1/SimpleStaking.sol\":4017:4023  amount */\n      dup2\n        /* \"contracts/Test_1/SimpleStaking.sol\":3992:4000  balances */\n      0x05\n        /* \"contracts/Test_1/SimpleStaking.sol\":3992:4012  balances[msg.sender] */\n      0x00\n        /* \"contracts/Test_1/SimpleStaking.sol\":4001:4011  msg.sender */\n      caller\n        /* \"contracts/Test_1/SimpleStaking.sol\":3992:4012  balances[msg.sender] */\n      0xffffffffffffffffffffffffffffffffffffffff\n      and\n      0xffffffffffffffffffffffffffffffffffffffff\n      and\n      dup2\n      mstore\n      0x20\n      add\n      swap1\n      dup2\n      mstore\n      0x20\n      add\n      0x00\n      keccak256\n      sload\n        /* \"contracts/Test_1/SimpleStaking.sol\":3992:4016  balances[msg.sender].add */\n      tag_100\n      swap1\n        /* \"contracts/Test_1/SimpleStaking.sol\":3992:4024  balances[msg.sender].add(amount) */\n      swap2\n      swap1\n      0xffffffff\n      and\n      jump\t// in\n    tag_99:\n        /* \"contracts/Test_1/SimpleStaking.sol\":3969:3977  balances */\n      0x05\n        /* \"contracts/Test_1/SimpleStaking.sol\":3969:3989  balances[msg.sender] */\n      0x00\n        /* \"contracts/Test_1/SimpleStaking.sol\":3978:3988  msg.sender */\n      caller\n        /* \"contracts/Test_1/SimpleStaking.sol\":3969:3989  balances[msg.sender] */\n      0xffffffffffffffffffffffffffffffffffffffff\n      and\n      0xffffffffffffffffffffffffffffffffffffffff\n      and\n      dup2\n      mstore\n      0x20\n      add\n      swap1\n      dup2\n      mstore\n      0x20\n      add\n      0x00\n      keccak256\n        /* \"contracts/Test_1/SimpleStaking.sol\":3969:4024  balances[msg.sender] = balances[msg.sender].add(amount) */\n      dup2\n      swap1\n      sstore\n      pop\n        /* \"contracts/Test_1/SimpleStaking.sol\":4040:4072  tokensStaked(msg.sender, amount) */\n      0xe5cfeeb5fcb96c1c52a55137c15e7f46d34d100d256c5396efc087c43d2fde4b\n        /* \"contracts/Test_1/SimpleStaking.sol\":4053:4063  msg.sender */\n      caller\n        /* \"contracts/Test_1/SimpleStaking.sol\":4065:4071  amount */\n      dup3\n        /* \"contracts/Test_1/SimpleStaking.sol\":4040:4072  tokensStaked(msg.sender, amount) */\n      mload(0x40)\n      tag_101\n      swap3\n      swap2\n      swap1\n      tag_102\n      jump\t// in\n    tag_101:\n      mload(0x40)\n      dup1\n      swap2\n      sub\n      swap1\n      log1\n        /* \"contracts/Test_1/SimpleStaking.sol\":2060:2065  false */\n      0x00\n        /* \"contracts/Test_1/SimpleStaking.sol\":2051:2057  locked */\n      dup1\n      0x00\n        /* \"contracts/Test_1/SimpleStaking.sol\":2051:2065  locked = false */\n      0x0100\n      exp\n      dup2\n      sload\n      dup2\n      0xff\n      mul\n      not\n      and\n      swap1\n      dup4\n      iszero\n      iszero\n      mul\n      or\n      swap1\n      sstore\n      pop\n        /* \"contracts/Test_1/SimpleStaking.sol\":3522:4080  function stakeTokens(IERC20 token, uint256 amount) public timestampIsSet noReentrant {... */\n      pop\n      pop\n      jump\t// out\n        /* \"contracts/Test_1/SimpleStaking.sol\":914:944  uint256 public contractBalance */\n    tag_33:\n      sload(0x06)\n      dup2\n      jump\t// out\n        /* \"contracts/Test_1/SimpleStaking.sol\":605:625  address public owner */\n    tag_36:\n      0x00\n      0x01\n      swap1\n      sload\n      swap1\n      0x0100\n      exp\n      swap1\n      div\n      0xffffffffffffffffffffffffffffffffffffffff\n      and\n      dup2\n      jump\t// out\n        /* \"contracts/Test_1/SimpleStaking.sol\":806:857  mapping(address => uint256) public alreadyWithdrawn */\n    tag_41:\n      mstore(0x20, 0x04)\n      dup1\n      0x00\n      mstore\n      keccak256(0x00, 0x40)\n      0x00\n      swap2\n      pop\n      swap1\n      pop\n      sload\n      dup2\n      jump\t// out\n        /* \"contracts/Test_1/SimpleStaking.sol\":708:732  bool public timestampSet */\n    tag_44:\n      0x02\n      0x00\n      swap1\n      sload\n      swap1\n      0x0100\n      exp\n      swap1\n      div\n      0xff\n      and\n      dup2\n      jump\t// out\n        /* \"contracts/Test_1/SimpleStaking.sol\":3020:3255  function setTimestamp(uint256 _timePeriodInSeconds) public onlyOwner timestampNotSet  {... */\n    tag_50:\n        /* \"contracts/Test_1/SimpleStaking.sol\":2237:2242  owner */\n      0x00\n      0x01\n      swap1\n      sload\n      swap1\n      0x0100\n      exp\n      swap1\n      div\n      0xffffffffffffffffffffffffffffffffffffffff\n      and\n        /* \"contracts/Test_1/SimpleStaking.sol\":2223:2242  msg.sender == owner */\n      0xffffffffffffffffffffffffffffffffffffffff\n      and\n        /* \"contracts/Test_1/SimpleStaking.sol\":2223:2233  msg.sender */\n      caller\n        /* \"contracts/Test_1/SimpleStaking.sol\":2223:2242  msg.sender == owner */\n      0xffffffffffffffffffffffffffffffffffffffff\n      and\n      eq\n        /* \"contracts/Test_1/SimpleStaking.sol\":2215:2291  require(msg.sender == owner, \"Message sender must be the contract's owner.\") */\n      tag_104\n      jumpi\n      mload(0x40)\n      0x08c379a000000000000000000000000000000000000000000000000000000000\n      dup2\n      mstore\n      0x04\n      add\n      tag_105\n      swap1\n      tag_64\n      jump\t// in\n    tag_105:\n      mload(0x40)\n      dup1\n      swap2\n      sub\n      swap1\n      revert\n    tag_104:\n        /* \"contracts/Test_1/SimpleStaking.sol\":2462:2467  false */\n      0x00\n        /* \"contracts/Test_1/SimpleStaking.sol\":2446:2467  timestampSet == false */\n      iszero\n      iszero\n        /* \"contracts/Test_1/SimpleStaking.sol\":2446:2458  timestampSet */\n      0x02\n      0x00\n      swap1\n      sload\n      swap1\n      0x0100\n      exp\n      swap1\n      div\n      0xff\n      and\n        /* \"contracts/Test_1/SimpleStaking.sol\":2446:2467  timestampSet == false */\n      iszero\n      iszero\n      eq\n        /* \"contracts/Test_1/SimpleStaking.sol\":2438:2508  require(timestampSet == false, \"The time stamp has already been set.\") */\n      tag_107\n      jumpi\n      mload(0x40)\n      0x08c379a000000000000000000000000000000000000000000000000000000000\n      dup2\n      mstore\n      0x04\n      add\n      tag_108\n      swap1\n      tag_109\n      jump\t// in\n    tag_108:\n      mload(0x40)\n      dup1\n      swap2\n      sub\n      swap1\n      revert\n    tag_107:\n        /* \"contracts/Test_1/SimpleStaking.sol\":3132:3136  true */\n      0x01\n        /* \"contracts/Test_1/SimpleStaking.sol\":3117:3129  timestampSet */\n      0x02\n      0x00\n        /* \"contracts/Test_1/SimpleStaking.sol\":3117:3136  timestampSet = true */\n      0x0100\n      exp\n      dup2\n      sload\n      dup2\n      0xff\n      mul\n      not\n      and\n      swap1\n      dup4\n      iszero\n      iszero\n      mul\n      or\n      swap1\n      sstore\n      pop\n        /* \"contracts/Test_1/SimpleStaking.sol\":3166:3181  block.timestamp */\n      timestamp\n        /* \"contracts/Test_1/SimpleStaking.sol\":3147:3163  initialTimestamp */\n      0x01\n        /* \"contracts/Test_1/SimpleStaking.sol\":3147:3181  initialTimestamp = block.timestamp */\n      dup2\n      swap1\n      sstore\n      pop\n        /* \"contracts/Test_1/SimpleStaking.sol\":3205:3247  initialTimestamp.add(_timePeriodInSeconds) */\n      tag_111\n        /* \"contracts/Test_1/SimpleStaking.sol\":3226:3246  _timePeriodInSeconds */\n      dup2\n        /* \"contracts/Test_1/SimpleStaking.sol\":3205:3221  initialTimestamp */\n      sload(0x01)\n        /* \"contracts/Test_1/SimpleStaking.sol\":3205:3225  initialTimestamp.add */\n      tag_100\n      swap1\n        /* \"contracts/Test_1/SimpleStaking.sol\":3205:3247  initialTimestamp.add(_timePeriodInSeconds) */\n      swap2\n      swap1\n      0xffffffff\n      and\n      jump\t// in\n    tag_111:\n        /* \"contracts/Test_1/SimpleStaking.sol\":3192:3202  timePeriod */\n      0x03\n        /* \"contracts/Test_1/SimpleStaking.sol\":3192:3247  timePeriod = initialTimestamp.add(_timePeriodInSeconds) */\n      dup2\n      swap1\n      sstore\n      pop\n        /* \"contracts/Test_1/SimpleStaking.sol\":3020:3255  function setTimestamp(uint256 _timePeriodInSeconds) public onlyOwner timestampNotSet  {... */\n      pop\n      jump\t// out\n        /* \"contracts/Test_1/SimpleStaking.sol\":984:1011  IERC20 public erc20Contract */\n    tag_52:\n      0x07\n      0x00\n      swap1\n      sload\n      swap1\n      0x0100\n      exp\n      swap1\n      div\n      0xffffffffffffffffffffffffffffffffffffffff\n      and\n      dup2\n      jump\t// out\n        /* \"contracts/Test_1/SimpleStaking.sol\":670:701  uint256 public initialTimestamp */\n    tag_56:\n      sload(0x01)\n      dup2\n      jump\t// out\n        /* \"contracts/Test_1/SimpleStaking.sol\":4319:5085  function unstakeTokens(IERC20 token, uint256 amount) public timestampIsSet noReentrant {... */\n    tag_60:\n        /* \"contracts/Test_1/SimpleStaking.sol\":2674:2678  true */\n      0x01\n        /* \"contracts/Test_1/SimpleStaking.sol\":2658:2678  timestampSet == true */\n      iszero\n      iszero\n        /* \"contracts/Test_1/SimpleStaking.sol\":2658:2670  timestampSet */\n      0x02\n      0x00\n      swap1\n      sload\n      swap1\n      0x0100\n      exp\n      swap1\n      div\n      0xff\n      and\n        /* \"contracts/Test_1/SimpleStaking.sol\":2658:2678  timestampSet == true */\n      iszero\n      iszero\n      eq\n        /* \"contracts/Test_1/SimpleStaking.sol\":2650:2731  require(timestampSet == true, \"Please set the time stamp first, then try again.\") */\n      tag_113\n      jumpi\n      mload(0x40)\n      0x08c379a000000000000000000000000000000000000000000000000000000000\n      dup2\n      mstore\n      0x04\n      add\n      tag_114\n      swap1\n      tag_81\n      jump\t// in\n    tag_114:\n      mload(0x40)\n      dup1\n      swap2\n      sub\n      swap1\n      revert\n    tag_113:\n        /* \"contracts/Test_1/SimpleStaking.sol\":1979:1985  locked */\n      0x00\n      dup1\n      sload\n      swap1\n      0x0100\n      exp\n      swap1\n      div\n      0xff\n      and\n        /* \"contracts/Test_1/SimpleStaking.sol\":1978:1985  !locked */\n      iszero\n        /* \"contracts/Test_1/SimpleStaking.sol\":1970:2004  require(!locked, \"No re-entrancy\") */\n      tag_116\n      jumpi\n      mload(0x40)\n      0x08c379a000000000000000000000000000000000000000000000000000000000\n      dup2\n      mstore\n      0x04\n      add\n      tag_117\n      swap1\n      tag_68\n      jump\t// in\n    tag_117:\n      mload(0x40)\n      dup1\n      swap2\n      sub\n      swap1\n      revert\n    tag_116:\n        /* \"contracts/Test_1/SimpleStaking.sol\":2024:2028  true */\n      0x01\n        /* \"contracts/Test_1/SimpleStaking.sol\":2015:2021  locked */\n      0x00\n      dup1\n        /* \"contracts/Test_1/SimpleStaking.sol\":2015:2028  locked = true */\n      0x0100\n      exp\n      dup2\n      sload\n      dup2\n      0xff\n      mul\n      not\n      and\n      swap1\n      dup4\n      iszero\n      iszero\n      mul\n      or\n      swap1\n      sstore\n      pop\n        /* \"contracts/Test_1/SimpleStaking.sol\":4449:4455  amount */\n      dup1\n        /* \"contracts/Test_1/SimpleStaking.sol\":4425:4433  balances */\n      0x05\n        /* \"contracts/Test_1/SimpleStaking.sol\":4425:4445  balances[msg.sender] */\n      0x00\n        /* \"contracts/Test_1/SimpleStaking.sol\":4434:4444  msg.sender */\n      caller\n        /* \"contracts/Test_1/SimpleStaking.sol\":4425:4445  balances[msg.sender] */\n      0xffffffffffffffffffffffffffffffffffffffff\n      and\n      0xffffffffffffffffffffffffffffffffffffffff\n      and\n      dup2\n      mstore\n      0x20\n      add\n      swap1\n      dup2\n      mstore\n      0x20\n      add\n      0x00\n      keccak256\n      sload\n        /* \"contracts/Test_1/SimpleStaking.sol\":4425:4455  balances[msg.sender] >= amount */\n      lt\n      iszero\n        /* \"contracts/Test_1/SimpleStaking.sol\":4417:4505  require(balances[msg.sender] >= amount, \"Insufficient token balance, try lesser amount\") */\n      tag_119\n      jumpi\n      mload(0x40)\n      0x08c379a000000000000000000000000000000000000000000000000000000000\n      dup2\n      mstore\n      0x04\n      add\n      tag_120\n      swap1\n      tag_121\n      jump\t// in\n    tag_120:\n      mload(0x40)\n      dup1\n      swap2\n      sub\n      swap1\n      revert\n    tag_119:\n        /* \"contracts/Test_1/SimpleStaking.sol\":4533:4546  erc20Contract */\n      0x07\n      0x00\n      swap1\n      sload\n      swap1\n      0x0100\n      exp\n      swap1\n      div\n      0xffffffffffffffffffffffffffffffffffffffff\n      and\n        /* \"contracts/Test_1/SimpleStaking.sol\":4524:4546  token == erc20Contract */\n      0xffffffffffffffffffffffffffffffffffffffff\n      and\n        /* \"contracts/Test_1/SimpleStaking.sol\":4524:4529  token */\n      dup3\n        /* \"contracts/Test_1/SimpleStaking.sol\":4524:4546  token == erc20Contract */\n      0xffffffffffffffffffffffffffffffffffffffff\n      and\n      eq\n        /* \"contracts/Test_1/SimpleStaking.sol\":4516:4651  require(token == erc20Contract, \"Token parameter must be the same as the erc20 contract address which was passed into the constructor\") */\n      tag_122\n      jumpi\n      mload(0x40)\n      0x08c379a000000000000000000000000000000000000000000000000000000000\n      dup2\n      mstore\n      0x04\n      add\n      tag_123\n      swap1\n      tag_124\n      jump\t// in\n    tag_123:\n      mload(0x40)\n      dup1\n      swap2\n      sub\n      swap1\n      revert\n    tag_122:\n        /* \"contracts/Test_1/SimpleStaking.sol\":4685:4695  timePeriod */\n      sload(0x03)\n        /* \"contracts/Test_1/SimpleStaking.sol\":4666:4681  block.timestamp */\n      timestamp\n        /* \"contracts/Test_1/SimpleStaking.sol\":4666:4695  block.timestamp >= timePeriod */\n      lt\n        /* \"contracts/Test_1/SimpleStaking.sol\":4662:5078  if (block.timestamp >= timePeriod) {... */\n      tag_125\n      jumpi\n        /* \"contracts/Test_1/SimpleStaking.sol\":4743:4783  alreadyWithdrawn[msg.sender].add(amount) */\n      tag_126\n        /* \"contracts/Test_1/SimpleStaking.sol\":4776:4782  amount */\n      dup2\n        /* \"contracts/Test_1/SimpleStaking.sol\":4743:4759  alreadyWithdrawn */\n      0x04\n        /* \"contracts/Test_1/SimpleStaking.sol\":4743:4771  alreadyWithdrawn[msg.sender] */\n      0x00\n        /* \"contracts/Test_1/SimpleStaking.sol\":4760:4770  msg.sender */\n      caller\n        /* \"contracts/Test_1/SimpleStaking.sol\":4743:4771  alreadyWithdrawn[msg.sender] */\n      0xffffffffffffffffffffffffffffffffffffffff\n      and\n      0xffffffffffffffffffffffffffffffffffffffff\n      and\n      dup2\n      mstore\n      0x20\n      add\n      swap1\n      dup2\n      mstore\n      0x20\n      add\n      0x00\n      keccak256\n      sload\n        /* \"contracts/Test_1/SimpleStaking.sol\":4743:4775  alreadyWithdrawn[msg.sender].add */\n      tag_100\n      swap1\n        /* \"contracts/Test_1/SimpleStaking.sol\":4743:4783  alreadyWithdrawn[msg.sender].add(amount) */\n      swap2\n      swap1\n      0xffffffff\n      and\n      jump\t// in\n    tag_126:\n        /* \"contracts/Test_1/SimpleStaking.sol\":4712:4728  alreadyWithdrawn */\n      0x04\n        /* \"contracts/Test_1/SimpleStaking.sol\":4712:4740  alreadyWithdrawn[msg.sender] */\n      0x00\n        /* \"contracts/Test_1/SimpleStaking.sol\":4729:4739  msg.sender */\n      caller\n        /* \"contracts/Test_1/SimpleStaking.sol\":4712:4740  alreadyWithdrawn[msg.sender] */\n      0xffffffffffffffffffffffffffffffffffffffff\n      and\n      0xffffffffffffffffffffffffffffffffffffffff\n      and\n      dup2\n      mstore\n      0x20\n      add\n      swap1\n      dup2\n      mstore\n      0x20\n      add\n      0x00\n      keccak256\n        /* \"contracts/Test_1/SimpleStaking.sol\":4712:4783  alreadyWithdrawn[msg.sender] = alreadyWithdrawn[msg.sender].add(amount) */\n      dup2\n      swap1\n      sstore\n      pop\n        /* \"contracts/Test_1/SimpleStaking.sol\":4821:4853  balances[msg.sender].sub(amount) */\n      tag_127\n        /* \"contracts/Test_1/SimpleStaking.sol\":4846:4852  amount */\n      dup2\n        /* \"contracts/Test_1/SimpleStaking.sol\":4821:4829  balances */\n      0x05\n        /* \"contracts/Test_1/SimpleStaking.sol\":4821:4841  balances[msg.sender] */\n      0x00\n        /* \"contracts/Test_1/SimpleStaking.sol\":4830:4840  msg.sender */\n      caller\n        /* \"contracts/Test_1/SimpleStaking.sol\":4821:4841  balances[msg.sender] */\n      0xffffffffffffffffffffffffffffffffffffffff\n      and\n      0xffffffffffffffffffffffffffffffffffffffff\n      and\n      dup2\n      mstore\n      0x20\n      add\n      swap1\n      dup2\n      mstore\n      0x20\n      add\n      0x00\n      keccak256\n      sload\n        /* \"contracts/Test_1/SimpleStaking.sol\":4821:4845  balances[msg.sender].sub */\n      tag_128\n      swap1\n        /* \"contracts/Test_1/SimpleStaking.sol\":4821:4853  balances[msg.sender].sub(amount) */\n      swap2\n      swap1\n      0xffffffff\n      and\n      jump\t// in\n    tag_127:\n        /* \"contracts/Test_1/SimpleStaking.sol\":4798:4806  balances */\n      0x05\n        /* \"contracts/Test_1/SimpleStaking.sol\":4798:4818  balances[msg.sender] */\n      0x00\n        /* \"contracts/Test_1/SimpleStaking.sol\":4807:4817  msg.sender */\n      caller\n        /* \"contracts/Test_1/SimpleStaking.sol\":4798:4818  balances[msg.sender] */\n      0xffffffffffffffffffffffffffffffffffffffff\n      and\n      0xffffffffffffffffffffffffffffffffffffffff\n      and\n      dup2\n      mstore\n      0x20\n      add\n      swap1\n      dup2\n      mstore\n      0x20\n      add\n      0x00\n      keccak256\n        /* \"contracts/Test_1/SimpleStaking.sol\":4798:4853  balances[msg.sender] = balances[msg.sender].sub(amount) */\n      dup2\n      swap1\n      sstore\n      pop\n        /* \"contracts/Test_1/SimpleStaking.sol\":4868:4906  token.safeTransfer(msg.sender, amount) */\n      tag_129\n        /* \"contracts/Test_1/SimpleStaking.sol\":4887:4897  msg.sender */\n      caller\n        /* \"contracts/Test_1/SimpleStaking.sol\":4899:4905  amount */\n      dup3\n        /* \"contracts/Test_1/SimpleStaking.sol\":4868:4873  token */\n      dup5\n        /* \"contracts/Test_1/SimpleStaking.sol\":4868:4886  token.safeTransfer */\n      0xffffffffffffffffffffffffffffffffffffffff\n      and\n      tag_77\n      swap1\n        /* \"contracts/Test_1/SimpleStaking.sol\":4868:4906  token.safeTransfer(msg.sender, amount) */\n      swap3\n      swap2\n      swap1\n      0xffffffff\n      and\n      jump\t// in\n    tag_129:\n        /* \"contracts/Test_1/SimpleStaking.sol\":4926:4960  TokensUnstaked(msg.sender, amount) */\n      0x9845e367b683334e5c0b12d7b81721ac518e649376fa65e3d68324e8f34f2679\n        /* \"contracts/Test_1/SimpleStaking.sol\":4941:4951  msg.sender */\n      caller\n        /* \"contracts/Test_1/SimpleStaking.sol\":4953:4959  amount */\n      dup3\n        /* \"contracts/Test_1/SimpleStaking.sol\":4926:4960  TokensUnstaked(msg.sender, amount) */\n      mload(0x40)\n      tag_130\n      swap3\n      swap2\n      swap1\n      tag_102\n      jump\t// in\n    tag_130:\n      mload(0x40)\n      dup1\n      swap2\n      sub\n      swap1\n      log1\n        /* \"contracts/Test_1/SimpleStaking.sol\":4662:5078  if (block.timestamp >= timePeriod) {... */\n      jump(tag_131)\n    tag_125:\n        /* \"contracts/Test_1/SimpleStaking.sol\":4993:5066  revert(\"Tokens are only available after correct time period has elapsed\") */\n      mload(0x40)\n      0x08c379a000000000000000000000000000000000000000000000000000000000\n      dup2\n      mstore\n      0x04\n      add\n      tag_132\n      swap1\n      tag_133\n      jump\t// in\n    tag_132:\n      mload(0x40)\n      dup1\n      swap2\n      sub\n      swap1\n      revert\n        /* \"contracts/Test_1/SimpleStaking.sol\":4662:5078  if (block.timestamp >= timePeriod) {... */\n    tag_131:\n        /* \"contracts/Test_1/SimpleStaking.sol\":2060:2065  false */\n      0x00\n        /* \"contracts/Test_1/SimpleStaking.sol\":2051:2057  locked */\n      dup1\n      0x00\n        /* \"contracts/Test_1/SimpleStaking.sol\":2051:2065  locked = false */\n      0x0100\n      exp\n      dup2\n      sload\n      dup2\n      0xff\n      mul\n      not\n      and\n      swap1\n      dup4\n      iszero\n      iszero\n      mul\n      or\n      swap1\n      sstore\n      pop\n        /* \"contracts/Test_1/SimpleStaking.sol\":4319:5085  function unstakeTokens(IERC20 token, uint256 amount) public timestampIsSet noReentrant {... */\n      pop\n      pop\n      jump\t// out\n        /* \"@openzeppelin/contracts/token/ERC20/utils/SafeERC20.sol\":701:906  function safeTransfer(... */\n    tag_77:\n        /* \"@openzeppelin/contracts/token/ERC20/utils/SafeERC20.sol\":813:899  _callOptionalReturn(token, abi.encodeWithSelector(token.transfer.selector, to, value)) */\n      tag_135\n        /* \"@openzeppelin/contracts/token/ERC20/utils/SafeERC20.sol\":833:838  token */\n      dup4\n        /* \"@openzeppelin/contracts/token/ERC20/utils/SafeERC20.sol\":863:886  token.transfer.selector */\n      shl(0xe0, 0xa9059cbb)\n        /* \"@openzeppelin/contracts/token/ERC20/utils/SafeERC20.sol\":888:890  to */\n      dup5\n        /* \"@openzeppelin/contracts/token/ERC20/utils/SafeERC20.sol\":892:897  value */\n      dup5\n        /* \"@openzeppelin/contracts/token/ERC20/utils/SafeERC20.sol\":840:898  abi.encodeWithSelector(token.transfer.selector, to, value) */\n      add(0x24, mload(0x40))\n      tag_136\n      swap3\n      swap2\n      swap1\n      tag_102\n      jump\t// in\n    tag_136:\n      mload(0x40)\n      0x20\n      dup2\n      dup4\n      sub\n      sub\n      dup2\n      mstore\n      swap1\n      0x40\n      mstore\n      swap1\n      not(0xffffffffffffffffffffffffffffffffffffffffffffffffffffffff)\n      and\n      0x20\n      dup3\n      add\n      dup1\n      mload\n      0xffffffffffffffffffffffffffffffffffffffffffffffffffffffff\n      dup4\n      dup2\n      dup4\n      and\n      or\n      dup4\n      mstore\n      pop\n      pop\n      pop\n      pop\n        /* \"@openzeppelin/contracts/token/ERC20/utils/SafeERC20.sol\":813:832  _callOptionalReturn */\n      tag_137\n        /* \"@openzeppelin/contracts/token/ERC20/utils/SafeERC20.sol\":813:899  _callOptionalReturn(token, abi.encodeWithSelector(token.transfer.selector, to, value)) */\n      jump\t// in\n    tag_135:\n        /* \"@openzeppelin/contracts/token/ERC20/utils/SafeERC20.sol\":701:906  function safeTransfer(... */\n      pop\n      pop\n      pop\n      jump\t// out\n        /* \"@openzeppelin/contracts/token/ERC20/utils/SafeERC20.sol\":912:1153  function safeTransferFrom(... */\n    tag_98:\n        /* \"@openzeppelin/contracts/token/ERC20/utils/SafeERC20.sol\":1050:1146  _callOptionalReturn(token, abi.encodeWithSelector(token.transferFrom.selector, from, to, value)) */\n      tag_139\n        /* \"@openzeppelin/contracts/token/ERC20/utils/SafeERC20.sol\":1070:1075  token */\n      dup5\n        /* \"@openzeppelin/contracts/token/ERC20/utils/SafeERC20.sol\":1100:1127  token.transferFrom.selector */\n      shl(0xe0, 0x23b872dd)\n        /* \"@openzeppelin/contracts/token/ERC20/utils/SafeERC20.sol\":1129:1133  from */\n      dup6\n        /* \"@openzeppelin/contracts/token/ERC20/utils/SafeERC20.sol\":1135:1137  to */\n      dup6\n        /* \"@openzeppelin/contracts/token/ERC20/utils/SafeERC20.sol\":1139:1144  value */\n      dup6\n        /* \"@openzeppelin/contracts/token/ERC20/utils/SafeERC20.sol\":1077:1145  abi.encodeWithSelector(token.transferFrom.selector, from, to, value) */\n      add(0x24, mload(0x40))\n      tag_140\n      swap4\n      swap3\n      swap2\n      swap1\n      tag_141\n      jump\t// in\n    tag_140:\n      mload(0x40)\n      0x20\n      dup2\n      dup4\n      sub\n      sub\n      dup2\n      mstore\n      swap1\n      0x40\n      mstore\n      swap1\n      not(0xffffffffffffffffffffffffffffffffffffffffffffffffffffffff)\n      and\n      0x20\n      dup3\n      add\n      dup1\n      mload\n      0xffffffffffffffffffffffffffffffffffffffffffffffffffffffff\n      dup4\n      dup2\n      dup4\n      and\n      or\n      dup4\n      mstore\n      pop\n      pop\n      pop\n      pop\n        /* \"@openzeppelin/contracts/token/ERC20/utils/SafeERC20.sol\":1050:1069  _callOptionalReturn */\n      tag_137\n        /* \"@openzeppelin/contracts/token/ERC20/utils/SafeERC20.sol\":1050:1146  _callOptionalReturn(token, abi.encodeWithSelector(token.transferFrom.selector, from, to, value)) */\n      jump\t// in\n    tag_139:\n        /* \"@openzeppelin/contracts/token/ERC20/utils/SafeERC20.sol\":912:1153  function safeTransferFrom(... */\n      pop\n      pop\n      pop\n      pop\n      jump\t// out\n        /* \"openzeppelin-solidity/contracts/utils/math/SafeMath.sol\":2755:2851  function add(uint256 a, uint256 b) internal pure returns (uint256) {... */\n    tag_100:\n        /* \"openzeppelin-solidity/contracts/utils/math/SafeMath.sol\":2813:2820  uint256 */\n      0x00\n        /* \"openzeppelin-solidity/contracts/utils/math/SafeMath.sol\":2843:2844  b */\n      dup2\n        /* \"openzeppelin-solidity/contracts/utils/math/SafeMath.sol\":2839:2840  a */\n      dup4\n        /* \"openzeppelin-solidity/contracts/utils/math/SafeMath.sol\":2839:2844  a + b */\n      tag_143\n      swap2\n      swap1\n      tag_144\n      jump\t// in\n    tag_143:\n        /* \"openzeppelin-solidity/contracts/utils/math/SafeMath.sol\":2832:2844  return a + b */\n      swap1\n      pop\n        /* \"openzeppelin-solidity/contracts/utils/math/SafeMath.sol\":2755:2851  function add(uint256 a, uint256 b) internal pure returns (uint256) {... */\n      swap3\n      swap2\n      pop\n      pop\n      jump\t// out\n        /* \"openzeppelin-solidity/contracts/utils/math/SafeMath.sol\":3122:3218  function sub(uint256 a, uint256 b) internal pure returns (uint256) {... */\n    tag_128:\n        /* \"openzeppelin-solidity/contracts/utils/math/SafeMath.sol\":3180:3187  uint256 */\n      0x00\n        /* \"openzeppelin-solidity/contracts/utils/math/SafeMath.sol\":3210:3211  b */\n      dup2\n        /* \"openzeppelin-solidity/contracts/utils/math/SafeMath.sol\":3206:3207  a */\n      dup4\n        /* \"openzeppelin-solidity/contracts/utils/math/SafeMath.sol\":3206:3211  a - b */\n      tag_146\n      swap2\n      swap1\n      tag_147\n      jump\t// in\n    tag_146:\n        /* \"openzeppelin-solidity/contracts/utils/math/SafeMath.sol\":3199:3211  return a - b */\n      swap1\n      pop\n        /* \"openzeppelin-solidity/contracts/utils/math/SafeMath.sol\":3122:3218  function sub(uint256 a, uint256 b) internal pure returns (uint256) {... */\n      swap3\n      swap2\n      pop\n      pop\n      jump\t// out\n        /* \"@openzeppelin/contracts/token/ERC20/utils/SafeERC20.sol\":3207:3913  function _callOptionalReturn(IERC20 token, bytes memory data) private {... */\n    tag_137:\n        /* \"@openzeppelin/contracts/token/ERC20/utils/SafeERC20.sol\":3626:3649  bytes memory returndata */\n      0x00\n        /* \"@openzeppelin/contracts/token/ERC20/utils/SafeERC20.sol\":3652:3721  address(token).functionCall(data, \"SafeERC20: low-level call failed\") */\n      tag_149\n        /* \"@openzeppelin/contracts/token/ERC20/utils/SafeERC20.sol\":3680:3684  data */\n      dup3\n        /* \"@openzeppelin/contracts/token/ERC20/utils/SafeERC20.sol\":3652:3721  address(token).functionCall(data, \"SafeERC20: low-level call failed\") */\n      mload(0x40)\n      dup1\n      0x40\n      add\n      0x40\n      mstore\n      dup1\n      0x20\n      dup2\n      mstore\n      0x20\n      add\n      0x5361666545524332303a206c6f772d6c6576656c2063616c6c206661696c6564\n      dup2\n      mstore\n      pop\n        /* \"@openzeppelin/contracts/token/ERC20/utils/SafeERC20.sol\":3660:3665  token */\n      dup6\n        /* \"@openzeppelin/contracts/token/ERC20/utils/SafeERC20.sol\":3652:3679  address(token).functionCall */\n      0xffffffffffffffffffffffffffffffffffffffff\n      and\n      tag_150\n      swap1\n        /* \"@openzeppelin/contracts/token/ERC20/utils/SafeERC20.sol\":3652:3721  address(token).functionCall(data, \"SafeERC20: low-level call failed\") */\n      swap3\n      swap2\n      swap1\n      0xffffffff\n      and\n      jump\t// in\n    tag_149:\n        /* \"@openzeppelin/contracts/token/ERC20/utils/SafeERC20.sol\":3626:3721  bytes memory returndata = address(token).functionCall(data, \"SafeERC20: low-level call failed\") */\n      swap1\n      pop\n        /* \"@openzeppelin/contracts/token/ERC20/utils/SafeERC20.sol\":3755:3756  0 */\n      0x00\n        /* \"@openzeppelin/contracts/token/ERC20/utils/SafeERC20.sol\":3735:3745  returndata */\n      dup2\n        /* \"@openzeppelin/contracts/token/ERC20/utils/SafeERC20.sol\":3735:3752  returndata.length */\n      mload\n        /* \"@openzeppelin/contracts/token/ERC20/utils/SafeERC20.sol\":3735:3756  returndata.length > 0 */\n      gt\n        /* \"@openzeppelin/contracts/token/ERC20/utils/SafeERC20.sol\":3731:3907  if (returndata.length > 0) {... */\n      iszero\n      tag_151\n      jumpi\n        /* \"@openzeppelin/contracts/token/ERC20/utils/SafeERC20.sol\":3830:3840  returndata */\n      dup1\n        /* \"@openzeppelin/contracts/token/ERC20/utils/SafeERC20.sol\":3819:3849  abi.decode(returndata, (bool)) */\n      dup1\n      0x20\n      add\n      swap1\n      mload\n      dup2\n      add\n      swap1\n      tag_152\n      swap2\n      swap1\n      tag_153\n      jump\t// in\n    tag_152:\n        /* \"@openzeppelin/contracts/token/ERC20/utils/SafeERC20.sol\":3811:3896  require(abi.decode(returndata, (bool)), \"SafeERC20: ERC20 operation did not succeed\") */\n      tag_154\n      jumpi\n      mload(0x40)\n      0x08c379a000000000000000000000000000000000000000000000000000000000\n      dup2\n      mstore\n      0x04\n      add\n      tag_155\n      swap1\n      tag_156\n      jump\t// in\n    tag_155:\n      mload(0x40)\n      dup1\n      swap2\n      sub\n      swap1\n      revert\n    tag_154:\n        /* \"@openzeppelin/contracts/token/ERC20/utils/SafeERC20.sol\":3731:3907  if (returndata.length > 0) {... */\n    tag_151:\n        /* \"@openzeppelin/contracts/token/ERC20/utils/SafeERC20.sol\":3277:3913  {... */\n      pop\n        /* \"@openzeppelin/contracts/token/ERC20/utils/SafeERC20.sol\":3207:3913  function _callOptionalReturn(IERC20 token, bytes memory data) private {... */\n      pop\n      pop\n      jump\t// out\n        /* \"@openzeppelin/contracts/utils/Address.sol\":3861:4084  function functionCall(... */\n    tag_150:\n        /* \"@openzeppelin/contracts/utils/Address.sol\":3994:4006  bytes memory */\n      0x60\n        /* \"@openzeppelin/contracts/utils/Address.sol\":4025:4077  functionCallWithValue(target, data, 0, errorMessage) */\n      tag_158\n        /* \"@openzeppelin/contracts/utils/Address.sol\":4047:4053  target */\n      dup5\n        /* \"@openzeppelin/contracts/utils/Address.sol\":4055:4059  data */\n      dup5\n        /* \"@openzeppelin/contracts/utils/Address.sol\":4061:4062  0 */\n      0x00\n        /* \"@openzeppelin/contracts/utils/Address.sol\":4064:4076  errorMessage */\n      dup6\n        /* \"@openzeppelin/contracts/utils/Address.sol\":4025:4046  functionCallWithValue */\n      tag_159\n        /* \"@openzeppelin/contracts/utils/Address.sol\":4025:4077  functionCallWithValue(target, data, 0, errorMessage) */\n      jump\t// in\n    tag_158:\n        /* \"@openzeppelin/contracts/utils/Address.sol\":4018:4077  return functionCallWithValue(target, data, 0, errorMessage) */\n      swap1\n      pop\n        /* \"@openzeppelin/contracts/utils/Address.sol\":3861:4084  function functionCall(... */\n      swap4\n      swap3\n      pop\n      pop\n      pop\n      jump\t// out\n        /* \"@openzeppelin/contracts/utils/Address.sol\":4948:5447  function functionCallWithValue(... */\n    tag_159:\n        /* \"@openzeppelin/contracts/utils/Address.sol\":5113:5125  bytes memory */\n      0x60\n        /* \"@openzeppelin/contracts/utils/Address.sol\":5170:5175  value */\n      dup3\n        /* \"@openzeppelin/contracts/utils/Address.sol\":5145:5166  address(this).balance */\n      selfbalance\n        /* \"@openzeppelin/contracts/utils/Address.sol\":5145:5175  address(this).balance >= value */\n      lt\n      iszero\n        /* \"@openzeppelin/contracts/utils/Address.sol\":5137:5218  require(address(this).balance >= value, \"Address: insufficient balance for call\") */\n      tag_161\n      jumpi\n      mload(0x40)\n      0x08c379a000000000000000000000000000000000000000000000000000000000\n      dup2\n      mstore\n      0x04\n      add\n      tag_162\n      swap1\n      tag_163\n      jump\t// in\n    tag_162:\n      mload(0x40)\n      dup1\n      swap2\n      sub\n      swap1\n      revert\n    tag_161:\n        /* \"@openzeppelin/contracts/utils/Address.sol\":5236:5254  isContract(target) */\n      tag_164\n        /* \"@openzeppelin/contracts/utils/Address.sol\":5247:5253  target */\n      dup6\n        /* \"@openzeppelin/contracts/utils/Address.sol\":5236:5246  isContract */\n      tag_165\n        /* \"@openzeppelin/contracts/utils/Address.sol\":5236:5254  isContract(target) */\n      jump\t// in\n    tag_164:\n        /* \"@openzeppelin/contracts/utils/Address.sol\":5228:5288  require(isContract(target), \"Address: call to non-contract\") */\n      tag_166\n      jumpi\n      mload(0x40)\n      0x08c379a000000000000000000000000000000000000000000000000000000000\n      dup2\n      mstore\n      0x04\n      add\n      tag_167\n      swap1\n      tag_168\n      jump\t// in\n    tag_167:\n      mload(0x40)\n      dup1\n      swap2\n      sub\n      swap1\n      revert\n    tag_166:\n        /* \"@openzeppelin/contracts/utils/Address.sol\":5300:5312  bool success */\n      0x00\n        /* \"@openzeppelin/contracts/utils/Address.sol\":5314:5337  bytes memory returndata */\n      dup1\n        /* \"@openzeppelin/contracts/utils/Address.sol\":5341:5347  target */\n      dup7\n        /* \"@openzeppelin/contracts/utils/Address.sol\":5341:5352  target.call */\n      0xffffffffffffffffffffffffffffffffffffffff\n      and\n        /* \"@openzeppelin/contracts/utils/Address.sol\":5360:5365  value */\n      dup6\n        /* \"@openzeppelin/contracts/utils/Address.sol\":5367:5371  data */\n      dup8\n        /* \"@openzeppelin/contracts/utils/Address.sol\":5341:5372  target.call{value: value}(data) */\n      mload(0x40)\n      tag_169\n      swap2\n      swap1\n      tag_170\n      jump\t// in\n    tag_169:\n      0x00\n      mload(0x40)\n      dup1\n      dup4\n      sub\n      dup2\n      dup6\n      dup8\n      gas\n      call\n      swap3\n      pop\n      pop\n      pop\n      returndatasize\n      dup1\n      0x00\n      dup2\n      eq\n      tag_173\n      jumpi\n      mload(0x40)\n      swap2\n      pop\n      and(add(returndatasize, 0x3f), not(0x1f))\n      dup3\n      add\n      0x40\n      mstore\n      returndatasize\n      dup3\n      mstore\n      returndatasize\n      0x00\n      0x20\n      dup5\n      add\n      returndatacopy\n      jump(tag_172)\n    tag_173:\n      0x60\n      swap2\n      pop\n    tag_172:\n      pop\n        /* \"@openzeppelin/contracts/utils/Address.sol\":5299:5372  (bool success, bytes memory returndata) = target.call{value: value}(data) */\n      swap2\n      pop\n      swap2\n      pop\n        /* \"@openzeppelin/contracts/utils/Address.sol\":5389:5440  verifyCallResult(success, returndata, errorMessage) */\n      tag_174\n        /* \"@openzeppelin/contracts/utils/Address.sol\":5406:5413  success */\n      dup3\n        /* \"@openzeppelin/contracts/utils/Address.sol\":5415:5425  returndata */\n      dup3\n        /* \"@openzeppelin/contracts/utils/Address.sol\":5427:5439  errorMessage */\n      dup7\n        /* \"@openzeppelin/contracts/utils/Address.sol\":5389:5405  verifyCallResult */\n      tag_175\n        /* \"@openzeppelin/contracts/utils/Address.sol\":5389:5440  verifyCallResult(success, returndata, errorMessage) */\n      jump\t// in\n    tag_174:\n        /* \"@openzeppelin/contracts/utils/Address.sol\":5382:5440  return verifyCallResult(success, returndata, errorMessage) */\n      swap3\n      pop\n      pop\n      pop\n        /* \"@openzeppelin/contracts/utils/Address.sol\":4948:5447  function functionCallWithValue(... */\n      swap5\n      swap4\n      pop\n      pop\n      pop\n      pop\n      jump\t// out\n        /* \"@openzeppelin/contracts/utils/Address.sol\":1175:1495  function isContract(address account) internal view returns (bool) {... */\n    tag_165:\n        /* \"@openzeppelin/contracts/utils/Address.sol\":1235:1239  bool */\n      0x00\n        /* \"@openzeppelin/contracts/utils/Address.sol\":1487:1488  0 */\n      dup1\n        /* \"@openzeppelin/contracts/utils/Address.sol\":1465:1472  account */\n      dup3\n        /* \"@openzeppelin/contracts/utils/Address.sol\":1465:1484  account.code.length */\n      0xffffffffffffffffffffffffffffffffffffffff\n      and\n      extcodesize\n        /* \"@openzeppelin/contracts/utils/Address.sol\":1465:1488  account.code.length > 0 */\n      gt\n        /* \"@openzeppelin/contracts/utils/Address.sol\":1458:1488  return account.code.length > 0 */\n      swap1\n      pop\n        /* \"@openzeppelin/contracts/utils/Address.sol\":1175:1495  function isContract(address account) internal view returns (bool) {... */\n      swap2\n      swap1\n      pop\n      jump\t// out\n        /* \"@openzeppelin/contracts/utils/Address.sol\":7561:8253  function verifyCallResult(... */\n    tag_175:\n        /* \"@openzeppelin/contracts/utils/Address.sol\":7707:7719  bytes memory */\n      0x60\n        /* \"@openzeppelin/contracts/utils/Address.sol\":7735:7742  success */\n      dup4\n        /* \"@openzeppelin/contracts/utils/Address.sol\":7731:8247  if (success) {... */\n      iszero\n      tag_178\n      jumpi\n        /* \"@openzeppelin/contracts/utils/Address.sol\":7765:7775  returndata */\n      dup3\n        /* \"@openzeppelin/contracts/utils/Address.sol\":7758:7775  return returndata */\n      swap1\n      pop\n      jump(tag_177)\n        /* \"@openzeppelin/contracts/utils/Address.sol\":7731:8247  if (success) {... */\n    tag_178:\n        /* \"@openzeppelin/contracts/utils/Address.sol\":7896:7897  0 */\n      0x00\n        /* \"@openzeppelin/contracts/utils/Address.sol\":7876:7886  returndata */\n      dup4\n        /* \"@openzeppelin/contracts/utils/Address.sol\":7876:7893  returndata.length */\n      mload\n        /* \"@openzeppelin/contracts/utils/Address.sol\":7876:7897  returndata.length > 0 */\n      gt\n        /* \"@openzeppelin/contracts/utils/Address.sol\":7872:8237  if (returndata.length > 0) {... */\n      iszero\n      tag_180\n      jumpi\n        /* \"@openzeppelin/contracts/utils/Address.sol\":8070:8080  returndata */\n      dup3\n        /* \"@openzeppelin/contracts/utils/Address.sol\":8064:8081  mload(returndata) */\n      mload\n        /* \"@openzeppelin/contracts/utils/Address.sol\":8130:8145  returndata_size */\n      dup1\n        /* \"@openzeppelin/contracts/utils/Address.sol\":8117:8127  returndata */\n      dup5\n        /* \"@openzeppelin/contracts/utils/Address.sol\":8113:8115  32 */\n      0x20\n        /* \"@openzeppelin/contracts/utils/Address.sol\":8109:8128  add(32, returndata) */\n      add\n        /* \"@openzeppelin/contracts/utils/Address.sol\":8102:8146  revert(add(32, returndata), returndata_size) */\n      revert\n        /* \"@openzeppelin/contracts/utils/Address.sol\":7872:8237  if (returndata.length > 0) {... */\n    tag_180:\n        /* \"@openzeppelin/contracts/utils/Address.sol\":8209:8221  errorMessage */\n      dup2\n        /* \"@openzeppelin/contracts/utils/Address.sol\":8202:8222  revert(errorMessage) */\n      mload(0x40)\n      0x08c379a000000000000000000000000000000000000000000000000000000000\n      dup2\n      mstore\n      0x04\n      add\n      tag_182\n      swap2\n      swap1\n      tag_183\n      jump\t// in\n    tag_182:\n      mload(0x40)\n      dup1\n      swap2\n      sub\n      swap1\n      revert\n        /* \"@openzeppelin/contracts/utils/Address.sol\":7561:8253  function verifyCallResult(... */\n    tag_177:\n      swap4\n      swap3\n      pop\n      pop\n      pop\n      jump\t// out\n        /* \"#utility.yul\":88:205   */\n    tag_185:\n        /* \"#utility.yul\":197:198   */\n      0x00\n        /* \"#utility.yul\":194:195   */\n      dup1\n        /* \"#utility.yul\":187:199   */\n      revert\n        /* \"#utility.yul\":334:460   */\n    tag_187:\n        /* \"#utility.yul\":371:378   */\n      0x00\n        /* \"#utility.yul\":411:453   */\n      0xffffffffffffffffffffffffffffffffffffffff\n        /* \"#utility.yul\":404:409   */\n      dup3\n        /* \"#utility.yul\":400:454   */\n      and\n        /* \"#utility.yul\":389:454   */\n      swap1\n      pop\n        /* \"#utility.yul\":334:460   */\n      swap2\n      swap1\n      pop\n      jump\t// out\n        /* \"#utility.yul\":466:562   */\n    tag_188:\n        /* \"#utility.yul\":503:510   */\n      0x00\n        /* \"#utility.yul\":532:556   */\n      tag_252\n        /* \"#utility.yul\":550:555   */\n      dup3\n        /* \"#utility.yul\":532:556   */\n      tag_187\n      jump\t// in\n    tag_252:\n        /* \"#utility.yul\":521:556   */\n      swap1\n      pop\n        /* \"#utility.yul\":466:562   */\n      swap2\n      swap1\n      pop\n      jump\t// out\n        /* \"#utility.yul\":568:690   */\n    tag_189:\n        /* \"#utility.yul\":641:665   */\n      tag_254\n        /* \"#utility.yul\":659:664   */\n      dup2\n        /* \"#utility.yul\":641:665   */\n      tag_188\n      jump\t// in\n    tag_254:\n        /* \"#utility.yul\":634:639   */\n      dup2\n        /* \"#utility.yul\":631:666   */\n      eq\n        /* \"#utility.yul\":621:684   */\n      tag_255\n      jumpi\n        /* \"#utility.yul\":680:681   */\n      0x00\n        /* \"#utility.yul\":677:678   */\n      dup1\n        /* \"#utility.yul\":670:682   */\n      revert\n        /* \"#utility.yul\":621:684   */\n    tag_255:\n        /* \"#utility.yul\":568:690   */\n      pop\n      jump\t// out\n        /* \"#utility.yul\":696:835   */\n    tag_190:\n        /* \"#utility.yul\":742:747   */\n      0x00\n        /* \"#utility.yul\":780:786   */\n      dup2\n        /* \"#utility.yul\":767:787   */\n      calldataload\n        /* \"#utility.yul\":758:787   */\n      swap1\n      pop\n        /* \"#utility.yul\":796:829   */\n      tag_257\n        /* \"#utility.yul\":823:828   */\n      dup2\n        /* \"#utility.yul\":796:829   */\n      tag_189\n      jump\t// in\n    tag_257:\n        /* \"#utility.yul\":696:835   */\n      swap3\n      swap2\n      pop\n      pop\n      jump\t// out\n        /* \"#utility.yul\":841:1170   */\n    tag_18:\n        /* \"#utility.yul\":900:906   */\n      0x00\n        /* \"#utility.yul\":949:951   */\n      0x20\n        /* \"#utility.yul\":937:946   */\n      dup3\n        /* \"#utility.yul\":928:935   */\n      dup5\n        /* \"#utility.yul\":924:947   */\n      sub\n        /* \"#utility.yul\":920:952   */\n      slt\n        /* \"#utility.yul\":917:1036   */\n      iszero\n      tag_259\n      jumpi\n        /* \"#utility.yul\":955:1034   */\n      tag_260\n      tag_185\n      jump\t// in\n    tag_260:\n        /* \"#utility.yul\":917:1036   */\n    tag_259:\n        /* \"#utility.yul\":1075:1076   */\n      0x00\n        /* \"#utility.yul\":1100:1153   */\n      tag_261\n        /* \"#utility.yul\":1145:1152   */\n      dup5\n        /* \"#utility.yul\":1136:1142   */\n      dup3\n        /* \"#utility.yul\":1125:1134   */\n      dup6\n        /* \"#utility.yul\":1121:1143   */\n      add\n        /* \"#utility.yul\":1100:1153   */\n      tag_190\n      jump\t// in\n    tag_261:\n        /* \"#utility.yul\":1090:1153   */\n      swap2\n      pop\n        /* \"#utility.yul\":1046:1163   */\n      pop\n        /* \"#utility.yul\":841:1170   */\n      swap3\n      swap2\n      pop\n      pop\n      jump\t// out\n        /* \"#utility.yul\":1176:1253   */\n    tag_191:\n        /* \"#utility.yul\":1213:1220   */\n      0x00\n        /* \"#utility.yul\":1242:1247   */\n      dup2\n        /* \"#utility.yul\":1231:1247   */\n      swap1\n      pop\n        /* \"#utility.yul\":1176:1253   */\n      swap2\n      swap1\n      pop\n      jump\t// out\n        /* \"#utility.yul\":1259:1377   */\n    tag_192:\n        /* \"#utility.yul\":1346:1370   */\n      tag_264\n        /* \"#utility.yul\":1364:1369   */\n      dup2\n        /* \"#utility.yul\":1346:1370   */\n      tag_191\n      jump\t// in\n    tag_264:\n        /* \"#utility.yul\":1341:1344   */\n      dup3\n        /* \"#utility.yul\":1334:1371   */\n      mstore\n        /* \"#utility.yul\":1259:1377   */\n      pop\n      pop\n      jump\t// out\n        /* \"#utility.yul\":1383:1605   */\n    tag_21:\n        /* \"#utility.yul\":1476:1480   */\n      0x00\n        /* \"#utility.yul\":1514:1516   */\n      0x20\n        /* \"#utility.yul\":1503:1512   */\n      dup3\n        /* \"#utility.yul\":1499:1517   */\n      add\n        /* \"#utility.yul\":1491:1517   */\n      swap1\n      pop\n        /* \"#utility.yul\":1527:1598   */\n      tag_266\n        /* \"#utility.yul\":1595:1596   */\n      0x00\n        /* \"#utility.yul\":1584:1593   */\n      dup4\n        /* \"#utility.yul\":1580:1597   */\n      add\n        /* \"#utility.yul\":1571:1577   */\n      dup5\n        /* \"#utility.yul\":1527:1598   */\n      tag_192\n      jump\t// in\n    tag_266:\n        /* \"#utility.yul\":1383:1605   */\n      swap3\n      swap2\n      pop\n      pop\n      jump\t// out\n        /* \"#utility.yul\":1611:1720   */\n    tag_193:\n        /* \"#utility.yul\":1661:1668   */\n      0x00\n        /* \"#utility.yul\":1690:1714   */\n      tag_268\n        /* \"#utility.yul\":1708:1713   */\n      dup3\n        /* \"#utility.yul\":1690:1714   */\n      tag_188\n      jump\t// in\n    tag_268:\n        /* \"#utility.yul\":1679:1714   */\n      swap1\n      pop\n        /* \"#utility.yul\":1611:1720   */\n      swap2\n      swap1\n      pop\n      jump\t// out\n        /* \"#utility.yul\":1726:1874   */\n    tag_194:\n        /* \"#utility.yul\":1812:1849   */\n      tag_270\n        /* \"#utility.yul\":1843:1848   */\n      dup2\n        /* \"#utility.yul\":1812:1849   */\n      tag_193\n      jump\t// in\n    tag_270:\n        /* \"#utility.yul\":1805:1810   */\n      dup2\n        /* \"#utility.yul\":1802:1850   */\n      eq\n        /* \"#utility.yul\":1792:1868   */\n      tag_271\n      jumpi\n        /* \"#utility.yul\":1864:1865   */\n      0x00\n        /* \"#utility.yul\":1861:1862   */\n      dup1\n        /* \"#utility.yul\":1854:1866   */\n      revert\n        /* \"#utility.yul\":1792:1868   */\n    tag_271:\n        /* \"#utility.yul\":1726:1874   */\n      pop\n      jump\t// out\n        /* \"#utility.yul\":1880:2045   */\n    tag_195:\n        /* \"#utility.yul\":1939:1944   */\n      0x00\n        /* \"#utility.yul\":1977:1983   */\n      dup2\n        /* \"#utility.yul\":1964:1984   */\n      calldataload\n        /* \"#utility.yul\":1955:1984   */\n      swap1\n      pop\n        /* \"#utility.yul\":1993:2039   */\n      tag_273\n        /* \"#utility.yul\":2033:2038   */\n      dup2\n        /* \"#utility.yul\":1993:2039   */\n      tag_194\n      jump\t// in\n    tag_273:\n        /* \"#utility.yul\":1880:2045   */\n      swap3\n      swap2\n      pop\n      pop\n      jump\t// out\n        /* \"#utility.yul\":2051:2173   */\n    tag_196:\n        /* \"#utility.yul\":2124:2148   */\n      tag_275\n        /* \"#utility.yul\":2142:2147   */\n      dup2\n        /* \"#utility.yul\":2124:2148   */\n      tag_191\n      jump\t// in\n    tag_275:\n        /* \"#utility.yul\":2117:2122   */\n      dup2\n        /* \"#utility.yul\":2114:2149   */\n      eq\n        /* \"#utility.yul\":2104:2167   */\n      tag_276\n      jumpi\n        /* \"#utility.yul\":2163:2164   */\n      0x00\n        /* \"#utility.yul\":2160:2161   */\n      dup1\n        /* \"#utility.yul\":2153:2165   */\n      revert\n        /* \"#utility.yul\":2104:2167   */\n    tag_276:\n        /* \"#utility.yul\":2051:2173   */\n      pop\n      jump\t// out\n        /* \"#utility.yul\":2179:2318   */\n    tag_197:\n        /* \"#utility.yul\":2225:2230   */\n      0x00\n        /* \"#utility.yul\":2263:2269   */\n      dup2\n        /* \"#utility.yul\":2250:2270   */\n      calldataload\n        /* \"#utility.yul\":2241:2270   */\n      swap1\n      pop\n        /* \"#utility.yul\":2279:2312   */\n      tag_278\n        /* \"#utility.yul\":2306:2311   */\n      dup2\n        /* \"#utility.yul\":2279:2312   */\n      tag_196\n      jump\t// in\n    tag_278:\n        /* \"#utility.yul\":2179:2318   */\n      swap3\n      swap2\n      pop\n      pop\n      jump\t// out\n        /* \"#utility.yul\":2324:2824   */\n    tag_27:\n        /* \"#utility.yul\":2405:2411   */\n      0x00\n        /* \"#utility.yul\":2413:2419   */\n      dup1\n        /* \"#utility.yul\":2462:2464   */\n      0x40\n        /* \"#utility.yul\":2450:2459   */\n      dup4\n        /* \"#utility.yul\":2441:2448   */\n      dup6\n        /* \"#utility.yul\":2437:2460   */\n      sub\n        /* \"#utility.yul\":2433:2465   */\n      slt\n        /* \"#utility.yul\":2430:2549   */\n      iszero\n      tag_280\n      jumpi\n        /* \"#utility.yul\":2468:2547   */\n      tag_281\n      tag_185\n      jump\t// in\n    tag_281:\n        /* \"#utility.yul\":2430:2549   */\n    tag_280:\n        /* \"#utility.yul\":2588:2589   */\n      0x00\n        /* \"#utility.yul\":2613:2679   */\n      tag_282\n        /* \"#utility.yul\":2671:2678   */\n      dup6\n        /* \"#utility.yul\":2662:2668   */\n      dup3\n        /* \"#utility.yul\":2651:2660   */\n      dup7\n        /* \"#utility.yul\":2647:2669   */\n      add\n        /* \"#utility.yul\":2613:2679   */\n      tag_195\n      jump\t// in\n    tag_282:\n        /* \"#utility.yul\":2603:2679   */\n      swap3\n      pop\n        /* \"#utility.yul\":2559:2689   */\n      pop\n        /* \"#utility.yul\":2728:2730   */\n      0x20\n        /* \"#utility.yul\":2754:2807   */\n      tag_283\n        /* \"#utility.yul\":2799:2806   */\n      dup6\n        /* \"#utility.yul\":2790:2796   */\n      dup3\n        /* \"#utility.yul\":2779:2788   */\n      dup7\n        /* \"#utility.yul\":2775:2797   */\n      add\n        /* \"#utility.yul\":2754:2807   */\n      tag_197\n      jump\t// in\n    tag_283:\n        /* \"#utility.yul\":2744:2807   */\n      swap2\n      pop\n        /* \"#utility.yul\":2699:2817   */\n      pop\n        /* \"#utility.yul\":2324:2824   */\n      swap3\n      pop\n      swap3\n      swap1\n      pop\n      jump\t// out\n        /* \"#utility.yul\":2830:2948   */\n    tag_198:\n        /* \"#utility.yul\":2917:2941   */\n      tag_285\n        /* \"#utility.yul\":2935:2940   */\n      dup2\n        /* \"#utility.yul\":2917:2941   */\n      tag_188\n      jump\t// in\n    tag_285:\n        /* \"#utility.yul\":2912:2915   */\n      dup3\n        /* \"#utility.yul\":2905:2942   */\n      mstore\n        /* \"#utility.yul\":2830:2948   */\n      pop\n      pop\n      jump\t// out\n        /* \"#utility.yul\":2954:3176   */\n    tag_38:\n        /* \"#utility.yul\":3047:3051   */\n      0x00\n        /* \"#utility.yul\":3085:3087   */\n      0x20\n        /* \"#utility.yul\":3074:3083   */\n      dup3\n        /* \"#utility.yul\":3070:3088   */\n      add\n        /* \"#utility.yul\":3062:3088   */\n      swap1\n      pop\n        /* \"#utility.yul\":3098:3169   */\n      tag_287\n        /* \"#utility.yul\":3166:3167   */\n      0x00\n        /* \"#utility.yul\":3155:3164   */\n      dup4\n        /* \"#utility.yul\":3151:3168   */\n      add\n        /* \"#utility.yul\":3142:3148   */\n      dup5\n        /* \"#utility.yul\":3098:3169   */\n      tag_198\n      jump\t// in\n    tag_287:\n        /* \"#utility.yul\":2954:3176   */\n      swap3\n      swap2\n      pop\n      pop\n      jump\t// out\n        /* \"#utility.yul\":3182:3272   */\n    tag_199:\n        /* \"#utility.yul\":3216:3223   */\n      0x00\n        /* \"#utility.yul\":3259:3264   */\n      dup2\n        /* \"#utility.yul\":3252:3265   */\n      iszero\n        /* \"#utility.yul\":3245:3266   */\n      iszero\n        /* \"#utility.yul\":3234:3266   */\n      swap1\n      pop\n        /* \"#utility.yul\":3182:3272   */\n      swap2\n      swap1\n      pop\n      jump\t// out\n        /* \"#utility.yul\":3278:3387   */\n    tag_200:\n        /* \"#utility.yul\":3359:3380   */\n      tag_290\n        /* \"#utility.yul\":3374:3379   */\n      dup2\n        /* \"#utility.yul\":3359:3380   */\n      tag_199\n      jump\t// in\n    tag_290:\n        /* \"#utility.yul\":3354:3357   */\n      dup3\n        /* \"#utility.yul\":3347:3381   */\n      mstore\n        /* \"#utility.yul\":3278:3387   */\n      pop\n      pop\n      jump\t// out\n        /* \"#utility.yul\":3393:3603   */\n    tag_46:\n        /* \"#utility.yul\":3480:3484   */\n      0x00\n        /* \"#utility.yul\":3518:3520   */\n      0x20\n        /* \"#utility.yul\":3507:3516   */\n      dup3\n        /* \"#utility.yul\":3503:3521   */\n      add\n        /* \"#utility.yul\":3495:3521   */\n      swap1\n      pop\n        /* \"#utility.yul\":3531:3596   */\n      tag_292\n        /* \"#utility.yul\":3593:3594   */\n      0x00\n        /* \"#utility.yul\":3582:3591   */\n      dup4\n        /* \"#utility.yul\":3578:3595   */\n      add\n        /* \"#utility.yul\":3569:3575   */\n      dup5\n        /* \"#utility.yul\":3531:3596   */\n      tag_200\n      jump\t// in\n    tag_292:\n        /* \"#utility.yul\":3393:3603   */\n      swap3\n      swap2\n      pop\n      pop\n      jump\t// out\n        /* \"#utility.yul\":3609:3938   */\n    tag_49:\n        /* \"#utility.yul\":3668:3674   */\n      0x00\n        /* \"#utility.yul\":3717:3719   */\n      0x20\n        /* \"#utility.yul\":3705:3714   */\n      dup3\n        /* \"#utility.yul\":3696:3703   */\n      dup5\n        /* \"#utility.yul\":3692:3715   */\n      sub\n        /* \"#utility.yul\":3688:3720   */\n      slt\n        /* \"#utility.yul\":3685:3804   */\n      iszero\n      tag_294\n      jumpi\n        /* \"#utility.yul\":3723:3802   */\n      tag_295\n      tag_185\n      jump\t// in\n    tag_295:\n        /* \"#utility.yul\":3685:3804   */\n    tag_294:\n        /* \"#utility.yul\":3843:3844   */\n      0x00\n        /* \"#utility.yul\":3868:3921   */\n      tag_296\n        /* \"#utility.yul\":3913:3920   */\n      dup5\n        /* \"#utility.yul\":3904:3910   */\n      dup3\n        /* \"#utility.yul\":3893:3902   */\n      dup6\n        /* \"#utility.yul\":3889:3911   */\n      add\n        /* \"#utility.yul\":3868:3921   */\n      tag_197\n      jump\t// in\n    tag_296:\n        /* \"#utility.yul\":3858:3921   */\n      swap2\n      pop\n        /* \"#utility.yul\":3814:3931   */\n      pop\n        /* \"#utility.yul\":3609:3938   */\n      swap3\n      swap2\n      pop\n      pop\n      jump\t// out\n        /* \"#utility.yul\":3944:4004   */\n    tag_201:\n        /* \"#utility.yul\":3972:3975   */\n      0x00\n        /* \"#utility.yul\":3993:3998   */\n      dup2\n        /* \"#utility.yul\":3986:3998   */\n      swap1\n      pop\n        /* \"#utility.yul\":3944:4004   */\n      swap2\n      swap1\n      pop\n      jump\t// out\n        /* \"#utility.yul\":4010:4152   */\n    tag_202:\n        /* \"#utility.yul\":4060:4069   */\n      0x00\n        /* \"#utility.yul\":4093:4146   */\n      tag_299\n        /* \"#utility.yul\":4111:4145   */\n      tag_300\n        /* \"#utility.yul\":4120:4144   */\n      tag_301\n        /* \"#utility.yul\":4138:4143   */\n      dup5\n        /* \"#utility.yul\":4120:4144   */\n      tag_187\n      jump\t// in\n    tag_301:\n        /* \"#utility.yul\":4111:4145   */\n      tag_201\n      jump\t// in\n    tag_300:\n        /* \"#utility.yul\":4093:4146   */\n      tag_187\n      jump\t// in\n    tag_299:\n        /* \"#utility.yul\":4080:4146   */\n      swap1\n      pop\n        /* \"#utility.yul\":4010:4152   */\n      swap2\n      swap1\n      pop\n      jump\t// out\n        /* \"#utility.yul\":4158:4284   */\n    tag_203:\n        /* \"#utility.yul\":4208:4217   */\n      0x00\n        /* \"#utility.yul\":4241:4278   */\n      tag_303\n        /* \"#utility.yul\":4272:4277   */\n      dup3\n        /* \"#utility.yul\":4241:4278   */\n      tag_202\n      jump\t// in\n    tag_303:\n        /* \"#utility.yul\":4228:4278   */\n      swap1\n      pop\n        /* \"#utility.yul\":4158:4284   */\n      swap2\n      swap1\n      pop\n      jump\t// out\n        /* \"#utility.yul\":4290:4429   */\n    tag_204:\n        /* \"#utility.yul\":4353:4362   */\n      0x00\n        /* \"#utility.yul\":4386:4423   */\n      tag_305\n        /* \"#utility.yul\":4417:4422   */\n      dup3\n        /* \"#utility.yul\":4386:4423   */\n      tag_203\n      jump\t// in\n    tag_305:\n        /* \"#utility.yul\":4373:4423   */\n      swap1\n      pop\n        /* \"#utility.yul\":4290:4429   */\n      swap2\n      swap1\n      pop\n      jump\t// out\n        /* \"#utility.yul\":4435:4592   */\n    tag_205:\n        /* \"#utility.yul\":4535:4585   */\n      tag_307\n        /* \"#utility.yul\":4579:4584   */\n      dup2\n        /* \"#utility.yul\":4535:4585   */\n      tag_204\n      jump\t// in\n    tag_307:\n        /* \"#utility.yul\":4530:4533   */\n      dup3\n        /* \"#utility.yul\":4523:4586   */\n      mstore\n        /* \"#utility.yul\":4435:4592   */\n      pop\n      pop\n      jump\t// out\n        /* \"#utility.yul\":4598:4846   */\n    tag_54:\n        /* \"#utility.yul\":4704:4708   */\n      0x00\n        /* \"#utility.yul\":4742:4744   */\n      0x20\n        /* \"#utility.yul\":4731:4740   */\n      dup3\n        /* \"#utility.yul\":4727:4745   */\n      add\n        /* \"#utility.yul\":4719:4745   */\n      swap1\n      pop\n        /* \"#utility.yul\":4755:4839   */\n      tag_309\n        /* \"#utility.yul\":4836:4837   */\n      0x00\n        /* \"#utility.yul\":4825:4834   */\n      dup4\n        /* \"#utility.yul\":4821:4838   */\n      add\n        /* \"#utility.yul\":4812:4818   */\n      dup5\n        /* \"#utility.yul\":4755:4839   */\n      tag_205\n      jump\t// in\n    tag_309:\n        /* \"#utility.yul\":4598:4846   */\n      swap3\n      swap2\n      pop\n      pop\n      jump\t// out\n        /* \"#utility.yul\":4852:5021   */\n    tag_206:\n        /* \"#utility.yul\":4936:4947   */\n      0x00\n        /* \"#utility.yul\":4970:4976   */\n      dup3\n        /* \"#utility.yul\":4965:4968   */\n      dup3\n        /* \"#utility.yul\":4958:4977   */\n      mstore\n        /* \"#utility.yul\":5010:5014   */\n      0x20\n        /* \"#utility.yul\":5005:5008   */\n      dup3\n        /* \"#utility.yul\":5001:5015   */\n      add\n        /* \"#utility.yul\":4986:5015   */\n      swap1\n      pop\n        /* \"#utility.yul\":4852:5021   */\n      swap3\n      swap2\n      pop\n      pop\n      jump\t// out\n        /* \"#utility.yul\":5027:5258   */\n    tag_207:\n        /* \"#utility.yul\":5167:5201   */\n      0x4d6573736167652073656e646572206d7573742062652074686520636f6e7472\n        /* \"#utility.yul\":5163:5164   */\n      0x00\n        /* \"#utility.yul\":5155:5161   */\n      dup3\n        /* \"#utility.yul\":5151:5165   */\n      add\n        /* \"#utility.yul\":5144:5202   */\n      mstore\n        /* \"#utility.yul\":5236:5250   */\n      0x6163742773206f776e65722e0000000000000000000000000000000000000000\n        /* \"#utility.yul\":5231:5233   */\n      0x20\n        /* \"#utility.yul\":5223:5229   */\n      dup3\n        /* \"#utility.yul\":5219:5234   */\n      add\n        /* \"#utility.yul\":5212:5251   */\n      mstore\n        /* \"#utility.yul\":5027:5258   */\n      pop\n      jump\t// out\n        /* \"#utility.yul\":5264:5630   */\n    tag_208:\n        /* \"#utility.yul\":5406:5409   */\n      0x00\n        /* \"#utility.yul\":5427:5494   */\n      tag_313\n        /* \"#utility.yul\":5491:5493   */\n      0x2c\n        /* \"#utility.yul\":5486:5489   */\n      dup4\n        /* \"#utility.yul\":5427:5494   */\n      tag_206\n      jump\t// in\n    tag_313:\n        /* \"#utility.yul\":5420:5494   */\n      swap2\n      pop\n        /* \"#utility.yul\":5503:5596   */\n      tag_314\n        /* \"#utility.yul\":5592:5595   */\n      dup3\n        /* \"#utility.yul\":5503:5596   */\n      tag_207\n      jump\t// in\n    tag_314:\n        /* \"#utility.yul\":5621:5623   */\n      0x40\n        /* \"#utility.yul\":5616:5619   */\n      dup3\n        /* \"#utility.yul\":5612:5624   */\n      add\n        /* \"#utility.yul\":5605:5624   */\n      swap1\n      pop\n        /* \"#utility.yul\":5264:5630   */\n      swap2\n      swap1\n      pop\n      jump\t// out\n        /* \"#utility.yul\":5636:6055   */\n    tag_64:\n        /* \"#utility.yul\":5802:5806   */\n      0x00\n        /* \"#utility.yul\":5840:5842   */\n      0x20\n        /* \"#utility.yul\":5829:5838   */\n      dup3\n        /* \"#utility.yul\":5825:5843   */\n      add\n        /* \"#utility.yul\":5817:5843   */\n      swap1\n      pop\n        /* \"#utility.yul\":5889:5898   */\n      dup2\n        /* \"#utility.yul\":5883:5887   */\n      dup2\n        /* \"#utility.yul\":5879:5899   */\n      sub\n        /* \"#utility.yul\":5875:5876   */\n      0x00\n        /* \"#utility.yul\":5864:5873   */\n      dup4\n        /* \"#utility.yul\":5860:5877   */\n      add\n        /* \"#utility.yul\":5853:5900   */\n      mstore\n        /* \"#utility.yul\":5917:6048   */\n      tag_316\n        /* \"#utility.yul\":6043:6047   */\n      dup2\n        /* \"#utility.yul\":5917:6048   */\n      tag_208\n      jump\t// in\n    tag_316:\n        /* \"#utility.yul\":5909:6048   */\n      swap1\n      pop\n        /* \"#utility.yul\":5636:6055   */\n      swap2\n      swap1\n      pop\n      jump\t// out\n        /* \"#utility.yul\":6061:6225   */\n    tag_209:\n        /* \"#utility.yul\":6201:6217   */\n      0x4e6f2072652d656e7472616e6379000000000000000000000000000000000000\n        /* \"#utility.yul\":6197:6198   */\n      0x00\n        /* \"#utility.yul\":6189:6195   */\n      dup3\n        /* \"#utility.yul\":6185:6199   */\n      add\n        /* \"#utility.yul\":6178:6218   */\n      mstore\n        /* \"#utility.yul\":6061:6225   */\n      pop\n      jump\t// out\n        /* \"#utility.yul\":6231:6597   */\n    tag_210:\n        /* \"#utility.yul\":6373:6376   */\n      0x00\n        /* \"#utility.yul\":6394:6461   */\n      tag_319\n        /* \"#utility.yul\":6458:6460   */\n      0x0e\n        /* \"#utility.yul\":6453:6456   */\n      dup4\n        /* \"#utility.yul\":6394:6461   */\n      tag_206\n      jump\t// in\n    tag_319:\n        /* \"#utility.yul\":6387:6461   */\n      swap2\n      pop\n        /* \"#utility.yul\":6470:6563   */\n      tag_320\n        /* \"#utility.yul\":6559:6562   */\n      dup3\n        /* \"#utility.yul\":6470:6563   */\n      tag_209\n      jump\t// in\n    tag_320:\n        /* \"#utility.yul\":6588:6590   */\n      0x20\n        /* \"#utility.yul\":6583:6586   */\n      dup3\n        /* \"#utility.yul\":6579:6591   */\n      add\n        /* \"#utility.yul\":6572:6591   */\n      swap1\n      pop\n        /* \"#utility.yul\":6231:6597   */\n      swap2\n      swap1\n      pop\n      jump\t// out\n        /* \"#utility.yul\":6603:7022   */\n    tag_68:\n        /* \"#utility.yul\":6769:6773   */\n      0x00\n        /* \"#utility.yul\":6807:6809   */\n      0x20\n        /* \"#utility.yul\":6796:6805   */\n      dup3\n        /* \"#utility.yul\":6792:6810   */\n      add\n        /* \"#utility.yul\":6784:6810   */\n      swap1\n      pop\n        /* \"#utility.yul\":6856:6865   */\n      dup2\n        /* \"#utility.yul\":6850:6854   */\n      dup2\n        /* \"#utility.yul\":6846:6866   */\n      sub\n        /* \"#utility.yul\":6842:6843   */\n      0x00\n        /* \"#utility.yul\":6831:6840   */\n      dup4\n        /* \"#utility.yul\":6827:6844   */\n      add\n        /* \"#utility.yul\":6820:6867   */\n      mstore\n        /* \"#utility.yul\":6884:7015   */\n      tag_322\n        /* \"#utility.yul\":7010:7014   */\n      dup2\n        /* \"#utility.yul\":6884:7015   */\n      tag_210\n      jump\t// in\n    tag_322:\n        /* \"#utility.yul\":6876:7015   */\n      swap1\n      pop\n        /* \"#utility.yul\":6603:7022   */\n      swap2\n      swap1\n      pop\n      jump\t// out\n        /* \"#utility.yul\":7028:7207   */\n    tag_211:\n        /* \"#utility.yul\":7168:7199   */\n      0x546f6b656e20616464726573732063616e206e6f74206265207a65726f000000\n        /* \"#utility.yul\":7164:7165   */\n      0x00\n        /* \"#utility.yul\":7156:7162   */\n      dup3\n        /* \"#utility.yul\":7152:7166   */\n      add\n        /* \"#utility.yul\":7145:7200   */\n      mstore\n        /* \"#utility.yul\":7028:7207   */\n      pop\n      jump\t// out\n        /* \"#utility.yul\":7213:7579   */\n    tag_212:\n        /* \"#utility.yul\":7355:7358   */\n      0x00\n        /* \"#utility.yul\":7376:7443   */\n      tag_325\n        /* \"#utility.yul\":7440:7442   */\n      0x1d\n        /* \"#utility.yul\":7435:7438   */\n      dup4\n        /* \"#utility.yul\":7376:7443   */\n      tag_206\n      jump\t// in\n    tag_325:\n        /* \"#utility.yul\":7369:7443   */\n      swap2\n      pop\n        /* \"#utility.yul\":7452:7545   */\n      tag_326\n        /* \"#utility.yul\":7541:7544   */\n      dup3\n        /* \"#utility.yul\":7452:7545   */\n      tag_211\n      jump\t// in\n    tag_326:\n        /* \"#utility.yul\":7570:7572   */\n      0x20\n        /* \"#utility.yul\":7565:7568   */\n      dup3\n        /* \"#utility.yul\":7561:7573   */\n      add\n        /* \"#utility.yul\":7554:7573   */\n      swap1\n      pop\n        /* \"#utility.yul\":7213:7579   */\n      swap2\n      swap1\n      pop\n      jump\t// out\n        /* \"#utility.yul\":7585:8004   */\n    tag_72:\n        /* \"#utility.yul\":7751:7755   */\n      0x00\n        /* \"#utility.yul\":7789:7791   */\n      0x20\n        /* \"#utility.yul\":7778:7787   */\n      dup3\n        /* \"#utility.yul\":7774:7792   */\n      add\n        /* \"#utility.yul\":7766:7792   */\n      swap1\n      pop\n        /* \"#utility.yul\":7838:7847   */\n      dup2\n        /* \"#utility.yul\":7832:7836   */\n      dup2\n        /* \"#utility.yul\":7828:7848   */\n      sub\n        /* \"#utility.yul\":7824:7825   */\n      0x00\n        /* \"#utility.yul\":7813:7822   */\n      dup4\n        /* \"#utility.yul\":7809:7826   */\n      add\n        /* \"#utility.yul\":7802:7849   */\n      mstore\n        /* \"#utility.yul\":7866:7997   */\n      tag_328\n        /* \"#utility.yul\":7992:7996   */\n      dup2\n        /* \"#utility.yul\":7866:7997   */\n      tag_212\n      jump\t// in\n    tag_328:\n        /* \"#utility.yul\":7858:7997   */\n      swap1\n      pop\n        /* \"#utility.yul\":7585:8004   */\n      swap2\n      swap1\n      pop\n      jump\t// out\n        /* \"#utility.yul\":8010:8310   */\n    tag_213:\n        /* \"#utility.yul\":8150:8184   */\n      0x546f6b656e20616464726573732063616e206e6f742062652045524332302061\n        /* \"#utility.yul\":8146:8147   */\n      0x00\n        /* \"#utility.yul\":8138:8144   */\n      dup3\n        /* \"#utility.yul\":8134:8148   */\n      add\n        /* \"#utility.yul\":8127:8185   */\n      mstore\n        /* \"#utility.yul\":8219:8253   */\n      0x646472657373207768696368207761732070617373656420696e746f20746865\n        /* \"#utility.yul\":8214:8216   */\n      0x20\n        /* \"#utility.yul\":8206:8212   */\n      dup3\n        /* \"#utility.yul\":8202:8217   */\n      add\n        /* \"#utility.yul\":8195:8254   */\n      mstore\n        /* \"#utility.yul\":8288:8302   */\n      0x20636f6e7374727563746f720000000000000000000000000000000000000000\n        /* \"#utility.yul\":8283:8285   */\n      0x40\n        /* \"#utility.yul\":8275:8281   */\n      dup3\n        /* \"#utility.yul\":8271:8286   */\n      add\n        /* \"#utility.yul\":8264:8303   */\n      mstore\n        /* \"#utility.yul\":8010:8310   */\n      pop\n      jump\t// out\n        /* \"#utility.yul\":8316:8682   */\n    tag_214:\n        /* \"#utility.yul\":8458:8461   */\n      0x00\n        /* \"#utility.yul\":8479:8546   */\n      tag_331\n        /* \"#utility.yul\":8543:8545   */\n      0x4c\n        /* \"#utility.yul\":8538:8541   */\n      dup4\n        /* \"#utility.yul\":8479:8546   */\n      tag_206\n      jump\t// in\n    tag_331:\n        /* \"#utility.yul\":8472:8546   */\n      swap2\n      pop\n        /* \"#utility.yul\":8555:8648   */\n      tag_332\n        /* \"#utility.yul\":8644:8647   */\n      dup3\n        /* \"#utility.yul\":8555:8648   */\n      tag_213\n      jump\t// in\n    tag_332:\n        /* \"#utility.yul\":8673:8675   */\n      0x60\n        /* \"#utility.yul\":8668:8671   */\n      dup3\n        /* \"#utility.yul\":8664:8676   */\n      add\n        /* \"#utility.yul\":8657:8676   */\n      swap1\n      pop\n        /* \"#utility.yul\":8316:8682   */\n      swap2\n      swap1\n      pop\n      jump\t// out\n        /* \"#utility.yul\":8688:9107   */\n    tag_75:\n        /* \"#utility.yul\":8854:8858   */\n      0x00\n        /* \"#utility.yul\":8892:8894   */\n      0x20\n        /* \"#utility.yul\":8881:8890   */\n      dup3\n        /* \"#utility.yul\":8877:8895   */\n      add\n        /* \"#utility.yul\":8869:8895   */\n      swap1\n      pop\n        /* \"#utility.yul\":8941:8950   */\n      dup2\n        /* \"#utility.yul\":8935:8939   */\n      dup2\n        /* \"#utility.yul\":8931:8951   */\n      sub\n        /* \"#utility.yul\":8927:8928   */\n      0x00\n        /* \"#utility.yul\":8916:8925   */\n      dup4\n        /* \"#utility.yul\":8912:8929   */\n      add\n        /* \"#utility.yul\":8905:8952   */\n      mstore\n        /* \"#utility.yul\":8969:9100   */\n      tag_334\n        /* \"#utility.yul\":9095:9099   */\n      dup2\n        /* \"#utility.yul\":8969:9100   */\n      tag_214\n      jump\t// in\n    tag_334:\n        /* \"#utility.yul\":8961:9100   */\n      swap1\n      pop\n        /* \"#utility.yul\":8688:9107   */\n      swap2\n      swap1\n      pop\n      jump\t// out\n        /* \"#utility.yul\":9113:9348   */\n    tag_215:\n        /* \"#utility.yul\":9253:9287   */\n      0x506c6561736520736574207468652074696d65207374616d702066697273742c\n        /* \"#utility.yul\":9249:9250   */\n      0x00\n        /* \"#utility.yul\":9241:9247   */\n      dup3\n        /* \"#utility.yul\":9237:9251   */\n      add\n        /* \"#utility.yul\":9230:9288   */\n      mstore\n        /* \"#utility.yul\":9322:9340   */\n      0x207468656e2074727920616761696e2e00000000000000000000000000000000\n        /* \"#utility.yul\":9317:9319   */\n      0x20\n        /* \"#utility.yul\":9309:9315   */\n      dup3\n        /* \"#utility.yul\":9305:9320   */\n      add\n        /* \"#utility.yul\":9298:9341   */\n      mstore\n        /* \"#utility.yul\":9113:9348   */\n      pop\n      jump\t// out\n        /* \"#utility.yul\":9354:9720   */\n    tag_216:\n        /* \"#utility.yul\":9496:9499   */\n      0x00\n        /* \"#utility.yul\":9517:9584   */\n      tag_337\n        /* \"#utility.yul\":9581:9583   */\n      0x30\n        /* \"#utility.yul\":9576:9579   */\n      dup4\n        /* \"#utility.yul\":9517:9584   */\n      tag_206\n      jump\t// in\n    tag_337:\n        /* \"#utility.yul\":9510:9584   */\n      swap2\n      pop\n        /* \"#utility.yul\":9593:9686   */\n      tag_338\n        /* \"#utility.yul\":9682:9685   */\n      dup3\n        /* \"#utility.yul\":9593:9686   */\n      tag_215\n      jump\t// in\n    tag_338:\n        /* \"#utility.yul\":9711:9713   */\n      0x40\n        /* \"#utility.yul\":9706:9709   */\n      dup3\n        /* \"#utility.yul\":9702:9714   */\n      add\n        /* \"#utility.yul\":9695:9714   */\n      swap1\n      pop\n        /* \"#utility.yul\":9354:9720   */\n      swap2\n      swap1\n      pop\n      jump\t// out\n        /* \"#utility.yul\":9726:10145   */\n    tag_81:\n        /* \"#utility.yul\":9892:9896   */\n      0x00\n        /* \"#utility.yul\":9930:9932   */\n      0x20\n        /* \"#utility.yul\":9919:9928   */\n      dup3\n        /* \"#utility.yul\":9915:9933   */\n      add\n        /* \"#utility.yul\":9907:9933   */\n      swap1\n      pop\n        /* \"#utility.yul\":9979:9988   */\n      dup2\n        /* \"#utility.yul\":9973:9977   */\n      dup2\n        /* \"#utility.yul\":9969:9989   */\n      sub\n        /* \"#utility.yul\":9965:9966   */\n      0x00\n        /* \"#utility.yul\":9954:9963   */\n      dup4\n        /* \"#utility.yul\":9950:9967   */\n      add\n        /* \"#utility.yul\":9943:9990   */\n      mstore\n        /* \"#utility.yul\":10007:10138   */\n      tag_340\n        /* \"#utility.yul\":10133:10137   */\n      dup2\n        /* \"#utility.yul\":10007:10138   */\n      tag_216\n      jump\t// in\n    tag_340:\n        /* \"#utility.yul\":9999:10138   */\n      swap1\n      pop\n        /* \"#utility.yul\":9726:10145   */\n      swap2\n      swap1\n      pop\n      jump\t// out\n        /* \"#utility.yul\":10151:10524   */\n    tag_217:\n        /* \"#utility.yul\":10291:10325   */\n      0x596f7520617265206f6e6c7920616c6c6f77656420746f207374616b65207468\n        /* \"#utility.yul\":10287:10288   */\n      0x00\n        /* \"#utility.yul\":10279:10285   */\n      dup3\n        /* \"#utility.yul\":10275:10289   */\n      add\n        /* \"#utility.yul\":10268:10326   */\n      mstore\n        /* \"#utility.yul\":10360:10394   */\n      0x65206f6666696369616c20657263323020746f6b656e20616464726573732077\n        /* \"#utility.yul\":10355:10357   */\n      0x20\n        /* \"#utility.yul\":10347:10353   */\n      dup3\n        /* \"#utility.yul\":10343:10358   */\n      add\n        /* \"#utility.yul\":10336:10395   */\n      mstore\n        /* \"#utility.yul\":10429:10463   */\n      0x68696368207761732070617373656420696e746f207468697320636f6e747261\n        /* \"#utility.yul\":10424:10426   */\n      0x40\n        /* \"#utility.yul\":10416:10422   */\n      dup3\n        /* \"#utility.yul\":10412:10427   */\n      add\n        /* \"#utility.yul\":10405:10464   */\n      mstore\n        /* \"#utility.yul\":10498:10516   */\n      0x6374277320636f6e7374727563746f7200000000000000000000000000000000\n        /* \"#utility.yul\":10493:10495   */\n      0x60\n        /* \"#utility.yul\":10485:10491   */\n      dup3\n        /* \"#utility.yul\":10481:10496   */\n      add\n        /* \"#utility.yul\":10474:10517   */\n      mstore\n        /* \"#utility.yul\":10151:10524   */\n      pop\n      jump\t// out\n        /* \"#utility.yul\":10530:10898   */\n    tag_218:\n        /* \"#utility.yul\":10672:10675   */\n      0x00\n        /* \"#utility.yul\":10693:10761   */\n      tag_343\n        /* \"#utility.yul\":10757:10760   */\n      0x70\n        /* \"#utility.yul\":10752:10755   */\n      dup4\n        /* \"#utility.yul\":10693:10761   */\n      tag_206\n      jump\t// in\n    tag_343:\n        /* \"#utility.yul\":10686:10761   */\n      swap2\n      pop\n        /* \"#utility.yul\":10770:10863   */\n      tag_344\n        /* \"#utility.yul\":10859:10862   */\n      dup3\n        /* \"#utility.yul\":10770:10863   */\n      tag_217\n      jump\t// in\n    tag_344:\n        /* \"#utility.yul\":10888:10891   */\n      0x80\n        /* \"#utility.yul\":10883:10886   */\n      dup3\n        /* \"#utility.yul\":10879:10892   */\n      add\n        /* \"#utility.yul\":10872:10892   */\n      swap1\n      pop\n        /* \"#utility.yul\":10530:10898   */\n      swap2\n      swap1\n      pop\n      jump\t// out\n        /* \"#utility.yul\":10904:11323   */\n    tag_88:\n        /* \"#utility.yul\":11070:11074   */\n      0x00\n        /* \"#utility.yul\":11108:11110   */\n      0x20\n        /* \"#utility.yul\":11097:11106   */\n      dup3\n        /* \"#utility.yul\":11093:11111   */\n      add\n        /* \"#utility.yul\":11085:11111   */\n      swap1\n      pop\n        /* \"#utility.yul\":11157:11166   */\n      dup2\n        /* \"#utility.yul\":11151:11155   */\n      dup2\n        /* \"#utility.yul\":11147:11167   */\n      sub\n        /* \"#utility.yul\":11143:11144   */\n      0x00\n        /* \"#utility.yul\":11132:11141   */\n      dup4\n        /* \"#utility.yul\":11128:11145   */\n      add\n        /* \"#utility.yul\":11121:11168   */\n      mstore\n        /* \"#utility.yul\":11185:11316   */\n      tag_346\n        /* \"#utility.yul\":11311:11315   */\n      dup2\n        /* \"#utility.yul\":11185:11316   */\n      tag_218\n      jump\t// in\n    tag_346:\n        /* \"#utility.yul\":11177:11316   */\n      swap1\n      pop\n        /* \"#utility.yul\":10904:11323   */\n      swap2\n      swap1\n      pop\n      jump\t// out\n        /* \"#utility.yul\":11329:11472   */\n    tag_219:\n        /* \"#utility.yul\":11386:11391   */\n      0x00\n        /* \"#utility.yul\":11417:11423   */\n      dup2\n        /* \"#utility.yul\":11411:11424   */\n      mload\n        /* \"#utility.yul\":11402:11424   */\n      swap1\n      pop\n        /* \"#utility.yul\":11433:11466   */\n      tag_348\n        /* \"#utility.yul\":11460:11465   */\n      dup2\n        /* \"#utility.yul\":11433:11466   */\n      tag_196\n      jump\t// in\n    tag_348:\n        /* \"#utility.yul\":11329:11472   */\n      swap3\n      swap2\n      pop\n      pop\n      jump\t// out\n        /* \"#utility.yul\":11478:11829   */\n    tag_93:\n        /* \"#utility.yul\":11548:11554   */\n      0x00\n        /* \"#utility.yul\":11597:11599   */\n      0x20\n        /* \"#utility.yul\":11585:11594   */\n      dup3\n        /* \"#utility.yul\":11576:11583   */\n      dup5\n        /* \"#utility.yul\":11572:11595   */\n      sub\n        /* \"#utility.yul\":11568:11600   */\n      slt\n        /* \"#utility.yul\":11565:11684   */\n      iszero\n      tag_350\n      jumpi\n        /* \"#utility.yul\":11603:11682   */\n      tag_351\n      tag_185\n      jump\t// in\n    tag_351:\n        /* \"#utility.yul\":11565:11684   */\n    tag_350:\n        /* \"#utility.yul\":11723:11724   */\n      0x00\n        /* \"#utility.yul\":11748:11812   */\n      tag_352\n        /* \"#utility.yul\":11804:11811   */\n      dup5\n        /* \"#utility.yul\":11795:11801   */\n      dup3\n        /* \"#utility.yul\":11784:11793   */\n      dup6\n        /* \"#utility.yul\":11780:11802   */\n      add\n        /* \"#utility.yul\":11748:11812   */\n      tag_219\n      jump\t// in\n    tag_352:\n        /* \"#utility.yul\":11738:11812   */\n      swap2\n      pop\n        /* \"#utility.yul\":11694:11822   */\n      pop\n        /* \"#utility.yul\":11478:11829   */\n      swap3\n      swap2\n      pop\n      pop\n      jump\t// out\n        /* \"#utility.yul\":11835:12086   */\n    tag_220:\n        /* \"#utility.yul\":11975:12009   */\n      0x4e6f7420656e6f75676820535441544520746f6b656e7320696e20796f757220\n        /* \"#utility.yul\":11971:11972   */\n      0x00\n        /* \"#utility.yul\":11963:11969   */\n      dup3\n        /* \"#utility.yul\":11959:11973   */\n      add\n        /* \"#utility.yul\":11952:12010   */\n      mstore\n        /* \"#utility.yul\":12044:12078   */\n      0x77616c6c65742c20706c6561736520747279206c657373657220616d6f756e74\n        /* \"#utility.yul\":12039:12041   */\n      0x20\n        /* \"#utility.yul\":12031:12037   */\n      dup3\n        /* \"#utility.yul\":12027:12042   */\n      add\n        /* \"#utility.yul\":12020:12079   */\n      mstore\n        /* \"#utility.yul\":11835:12086   */\n      pop\n      jump\t// out\n        /* \"#utility.yul\":12092:12458   */\n    tag_221:\n        /* \"#utility.yul\":12234:12237   */\n      0x00\n        /* \"#utility.yul\":12255:12322   */\n      tag_355\n        /* \"#utility.yul\":12319:12321   */\n      0x40\n        /* \"#utility.yul\":12314:12317   */\n      dup4\n        /* \"#utility.yul\":12255:12322   */\n      tag_206\n      jump\t// in\n    tag_355:\n        /* \"#utility.yul\":12248:12322   */\n      swap2\n      pop\n        /* \"#utility.yul\":12331:12424   */\n      tag_356\n        /* \"#utility.yul\":12420:12423   */\n      dup3\n        /* \"#utility.yul\":12331:12424   */\n      tag_220\n      jump\t// in\n    tag_356:\n        /* \"#utility.yul\":12449:12451   */\n      0x40\n        /* \"#utility.yul\":12444:12447   */\n      dup3\n        /* \"#utility.yul\":12440:12452   */\n      add\n        /* \"#utility.yul\":12433:12452   */\n      swap1\n      pop\n        /* \"#utility.yul\":12092:12458   */\n      swap2\n      swap1\n      pop\n      jump\t// out\n        /* \"#utility.yul\":12464:12883   */\n    tag_96:\n        /* \"#utility.yul\":12630:12634   */\n      0x00\n        /* \"#utility.yul\":12668:12670   */\n      0x20\n        /* \"#utility.yul\":12657:12666   */\n      dup3\n        /* \"#utility.yul\":12653:12671   */\n      add\n        /* \"#utility.yul\":12645:12671   */\n      swap1\n      pop\n        /* \"#utility.yul\":12717:12726   */\n      dup2\n        /* \"#utility.yul\":12711:12715   */\n      dup2\n        /* \"#utility.yul\":12707:12727   */\n      sub\n        /* \"#utility.yul\":12703:12704   */\n      0x00\n        /* \"#utility.yul\":12692:12701   */\n      dup4\n        /* \"#utility.yul\":12688:12705   */\n      add\n        /* \"#utility.yul\":12681:12728   */\n      mstore\n        /* \"#utility.yul\":12745:12876   */\n      tag_358\n        /* \"#utility.yul\":12871:12875   */\n      dup2\n        /* \"#utility.yul\":12745:12876   */\n      tag_221\n      jump\t// in\n    tag_358:\n        /* \"#utility.yul\":12737:12876   */\n      swap1\n      pop\n        /* \"#utility.yul\":12464:12883   */\n      swap2\n      swap1\n      pop\n      jump\t// out\n        /* \"#utility.yul\":12889:13221   */\n    tag_102:\n        /* \"#utility.yul\":13010:13014   */\n      0x00\n        /* \"#utility.yul\":13048:13050   */\n      0x40\n        /* \"#utility.yul\":13037:13046   */\n      dup3\n        /* \"#utility.yul\":13033:13051   */\n      add\n        /* \"#utility.yul\":13025:13051   */\n      swap1\n      pop\n        /* \"#utility.yul\":13061:13132   */\n      tag_360\n        /* \"#utility.yul\":13129:13130   */\n      0x00\n        /* \"#utility.yul\":13118:13127   */\n      dup4\n        /* \"#utility.yul\":13114:13131   */\n      add\n        /* \"#utility.yul\":13105:13111   */\n      dup6\n        /* \"#utility.yul\":13061:13132   */\n      tag_198\n      jump\t// in\n    tag_360:\n        /* \"#utility.yul\":13142:13214   */\n      tag_361\n        /* \"#utility.yul\":13210:13212   */\n      0x20\n        /* \"#utility.yul\":13199:13208   */\n      dup4\n        /* \"#utility.yul\":13195:13213   */\n      add\n        /* \"#utility.yul\":13186:13192   */\n      dup5\n        /* \"#utility.yul\":13142:13214   */\n      tag_192\n      jump\t// in\n    tag_361:\n        /* \"#utility.yul\":12889:13221   */\n      swap4\n      swap3\n      pop\n      pop\n      pop\n      jump\t// out\n        /* \"#utility.yul\":13227:13450   */\n    tag_222:\n        /* \"#utility.yul\":13367:13401   */\n      0x5468652074696d65207374616d702068617320616c7265616479206265656e20\n        /* \"#utility.yul\":13363:13364   */\n      0x00\n        /* \"#utility.yul\":13355:13361   */\n      dup3\n        /* \"#utility.yul\":13351:13365   */\n      add\n        /* \"#utility.yul\":13344:13402   */\n      mstore\n        /* \"#utility.yul\":13436:13442   */\n      0x7365742e00000000000000000000000000000000000000000000000000000000\n        /* \"#utility.yul\":13431:13433   */\n      0x20\n        /* \"#utility.yul\":13423:13429   */\n      dup3\n        /* \"#utility.yul\":13419:13434   */\n      add\n        /* \"#utility.yul\":13412:13443   */\n      mstore\n        /* \"#utility.yul\":13227:13450   */\n      pop\n      jump\t// out\n        /* \"#utility.yul\":13456:13822   */\n    tag_223:\n        /* \"#utility.yul\":13598:13601   */\n      0x00\n        /* \"#utility.yul\":13619:13686   */\n      tag_364\n        /* \"#utility.yul\":13683:13685   */\n      0x24\n        /* \"#utility.yul\":13678:13681   */\n      dup4\n        /* \"#utility.yul\":13619:13686   */\n      tag_206\n      jump\t// in\n    tag_364:\n        /* \"#utility.yul\":13612:13686   */\n      swap2\n      pop\n        /* \"#utility.yul\":13695:13788   */\n      tag_365\n        /* \"#utility.yul\":13784:13787   */\n      dup3\n        /* \"#utility.yul\":13695:13788   */\n      tag_222\n      jump\t// in\n    tag_365:\n        /* \"#utility.yul\":13813:13815   */\n      0x40\n        /* \"#utility.yul\":13808:13811   */\n      dup3\n        /* \"#utility.yul\":13804:13816   */\n      add\n        /* \"#utility.yul\":13797:13816   */\n      swap1\n      pop\n        /* \"#utility.yul\":13456:13822   */\n      swap2\n      swap1\n      pop\n      jump\t// out\n        /* \"#utility.yul\":13828:14247   */\n    tag_109:\n        /* \"#utility.yul\":13994:13998   */\n      0x00\n        /* \"#utility.yul\":14032:14034   */\n      0x20\n        /* \"#utility.yul\":14021:14030   */\n      dup3\n        /* \"#utility.yul\":14017:14035   */\n      add\n        /* \"#utility.yul\":14009:14035   */\n      swap1\n      pop\n        /* \"#utility.yul\":14081:14090   */\n      dup2\n        /* \"#utility.yul\":14075:14079   */\n      dup2\n        /* \"#utility.yul\":14071:14091   */\n      sub\n        /* \"#utility.yul\":14067:14068   */\n      0x00\n        /* \"#utility.yul\":14056:14065   */\n      dup4\n        /* \"#utility.yul\":14052:14069   */\n      add\n        /* \"#utility.yul\":14045:14092   */\n      mstore\n        /* \"#utility.yul\":14109:14240   */\n      tag_367\n        /* \"#utility.yul\":14235:14239   */\n      dup2\n        /* \"#utility.yul\":14109:14240   */\n      tag_223\n      jump\t// in\n    tag_367:\n        /* \"#utility.yul\":14101:14240   */\n      swap1\n      pop\n        /* \"#utility.yul\":13828:14247   */\n      swap2\n      swap1\n      pop\n      jump\t// out\n        /* \"#utility.yul\":14253:14485   */\n    tag_224:\n        /* \"#utility.yul\":14393:14427   */\n      0x496e73756666696369656e7420746f6b656e2062616c616e63652c2074727920\n        /* \"#utility.yul\":14389:14390   */\n      0x00\n        /* \"#utility.yul\":14381:14387   */\n      dup3\n        /* \"#utility.yul\":14377:14391   */\n      add\n        /* \"#utility.yul\":14370:14428   */\n      mstore\n        /* \"#utility.yul\":14462:14477   */\n      0x6c657373657220616d6f756e7400000000000000000000000000000000000000\n        /* \"#utility.yul\":14457:14459   */\n      0x20\n        /* \"#utility.yul\":14449:14455   */\n      dup3\n        /* \"#utility.yul\":14445:14460   */\n      add\n        /* \"#utility.yul\":14438:14478   */\n      mstore\n        /* \"#utility.yul\":14253:14485   */\n      pop\n      jump\t// out\n        /* \"#utility.yul\":14491:14857   */\n    tag_225:\n        /* \"#utility.yul\":14633:14636   */\n      0x00\n        /* \"#utility.yul\":14654:14721   */\n      tag_370\n        /* \"#utility.yul\":14718:14720   */\n      0x2d\n        /* \"#utility.yul\":14713:14716   */\n      dup4\n        /* \"#utility.yul\":14654:14721   */\n      tag_206\n      jump\t// in\n    tag_370:\n        /* \"#utility.yul\":14647:14721   */\n      swap2\n      pop\n        /* \"#utility.yul\":14730:14823   */\n      tag_371\n        /* \"#utility.yul\":14819:14822   */\n      dup3\n        /* \"#utility.yul\":14730:14823   */\n      tag_224\n      jump\t// in\n    tag_371:\n        /* \"#utility.yul\":14848:14850   */\n      0x40\n        /* \"#utility.yul\":14843:14846   */\n      dup3\n        /* \"#utility.yul\":14839:14851   */\n      add\n        /* \"#utility.yul\":14832:14851   */\n      swap1\n      pop\n        /* \"#utility.yul\":14491:14857   */\n      swap2\n      swap1\n      pop\n      jump\t// out\n        /* \"#utility.yul\":14863:15282   */\n    tag_121:\n        /* \"#utility.yul\":15029:15033   */\n      0x00\n        /* \"#utility.yul\":15067:15069   */\n      0x20\n        /* \"#utility.yul\":15056:15065   */\n      dup3\n        /* \"#utility.yul\":15052:15070   */\n      add\n        /* \"#utility.yul\":15044:15070   */\n      swap1\n      pop\n        /* \"#utility.yul\":15116:15125   */\n      dup2\n        /* \"#utility.yul\":15110:15114   */\n      dup2\n        /* \"#utility.yul\":15106:15126   */\n      sub\n        /* \"#utility.yul\":15102:15103   */\n      0x00\n        /* \"#utility.yul\":15091:15100   */\n      dup4\n        /* \"#utility.yul\":15087:15104   */\n      add\n        /* \"#utility.yul\":15080:15127   */\n      mstore\n        /* \"#utility.yul\":15144:15275   */\n      tag_373\n        /* \"#utility.yul\":15270:15274   */\n      dup2\n        /* \"#utility.yul\":15144:15275   */\n      tag_225\n      jump\t// in\n    tag_373:\n        /* \"#utility.yul\":15136:15275   */\n      swap1\n      pop\n        /* \"#utility.yul\":14863:15282   */\n      swap2\n      swap1\n      pop\n      jump\t// out\n        /* \"#utility.yul\":15288:15649   */\n    tag_226:\n        /* \"#utility.yul\":15428:15462   */\n      0x546f6b656e20706172616d65746572206d757374206265207468652073616d65\n        /* \"#utility.yul\":15424:15425   */\n      0x00\n        /* \"#utility.yul\":15416:15422   */\n      dup3\n        /* \"#utility.yul\":15412:15426   */\n      add\n        /* \"#utility.yul\":15405:15463   */\n      mstore\n        /* \"#utility.yul\":15497:15531   */\n      0x2061732074686520657263323020636f6e747261637420616464726573732077\n        /* \"#utility.yul\":15492:15494   */\n      0x20\n        /* \"#utility.yul\":15484:15490   */\n      dup3\n        /* \"#utility.yul\":15480:15495   */\n      add\n        /* \"#utility.yul\":15473:15532   */\n      mstore\n        /* \"#utility.yul\":15566:15600   */\n      0x68696368207761732070617373656420696e746f2074686520636f6e73747275\n        /* \"#utility.yul\":15561:15563   */\n      0x40\n        /* \"#utility.yul\":15553:15559   */\n      dup3\n        /* \"#utility.yul\":15549:15564   */\n      add\n        /* \"#utility.yul\":15542:15601   */\n      mstore\n        /* \"#utility.yul\":15635:15641   */\n      0x63746f7200000000000000000000000000000000000000000000000000000000\n        /* \"#utility.yul\":15630:15632   */\n      0x60\n        /* \"#utility.yul\":15622:15628   */\n      dup3\n        /* \"#utility.yul\":15618:15633   */\n      add\n        /* \"#utility.yul\":15611:15642   */\n      mstore\n        /* \"#utility.yul\":15288:15649   */\n      pop\n      jump\t// out\n        /* \"#utility.yul\":15655:16023   */\n    tag_227:\n        /* \"#utility.yul\":15797:15800   */\n      0x00\n        /* \"#utility.yul\":15818:15886   */\n      tag_376\n        /* \"#utility.yul\":15882:15885   */\n      0x64\n        /* \"#utility.yul\":15877:15880   */\n      dup4\n        /* \"#utility.yul\":15818:15886   */\n      tag_206\n      jump\t// in\n    tag_376:\n        /* \"#utility.yul\":15811:15886   */\n      swap2\n      pop\n        /* \"#utility.yul\":15895:15988   */\n      tag_377\n        /* \"#utility.yul\":15984:15987   */\n      dup3\n        /* \"#utility.yul\":15895:15988   */\n      tag_226\n      jump\t// in\n    tag_377:\n        /* \"#utility.yul\":16013:16016   */\n      0x80\n        /* \"#utility.yul\":16008:16011   */\n      dup3\n        /* \"#utility.yul\":16004:16017   */\n      add\n        /* \"#utility.yul\":15997:16017   */\n      swap1\n      pop\n        /* \"#utility.yul\":15655:16023   */\n      swap2\n      swap1\n      pop\n      jump\t// out\n        /* \"#utility.yul\":16029:16448   */\n    tag_124:\n        /* \"#utility.yul\":16195:16199   */\n      0x00\n        /* \"#utility.yul\":16233:16235   */\n      0x20\n        /* \"#utility.yul\":16222:16231   */\n      dup3\n        /* \"#utility.yul\":16218:16236   */\n      add\n        /* \"#utility.yul\":16210:16236   */\n      swap1\n      pop\n        /* \"#utility.yul\":16282:16291   */\n      dup2\n        /* \"#utility.yul\":16276:16280   */\n      dup2\n        /* \"#utility.yul\":16272:16292   */\n      sub\n        /* \"#utility.yul\":16268:16269   */\n      0x00\n        /* \"#utility.yul\":16257:16266   */\n      dup4\n        /* \"#utility.yul\":16253:16270   */\n      add\n        /* \"#utility.yul\":16246:16293   */\n      mstore\n        /* \"#utility.yul\":16310:16441   */\n      tag_379\n        /* \"#utility.yul\":16436:16440   */\n      dup2\n        /* \"#utility.yul\":16310:16441   */\n      tag_227\n      jump\t// in\n    tag_379:\n        /* \"#utility.yul\":16302:16441   */\n      swap1\n      pop\n        /* \"#utility.yul\":16029:16448   */\n      swap2\n      swap1\n      pop\n      jump\t// out\n        /* \"#utility.yul\":16454:16704   */\n    tag_228:\n        /* \"#utility.yul\":16594:16628   */\n      0x546f6b656e7320617265206f6e6c7920617661696c61626c6520616674657220\n        /* \"#utility.yul\":16590:16591   */\n      0x00\n        /* \"#utility.yul\":16582:16588   */\n      dup3\n        /* \"#utility.yul\":16578:16592   */\n      add\n        /* \"#utility.yul\":16571:16629   */\n      mstore\n        /* \"#utility.yul\":16663:16696   */\n      0x636f72726563742074696d6520706572696f642068617320656c617073656400\n        /* \"#utility.yul\":16658:16660   */\n      0x20\n        /* \"#utility.yul\":16650:16656   */\n      dup3\n        /* \"#utility.yul\":16646:16661   */\n      add\n        /* \"#utility.yul\":16639:16697   */\n      mstore\n        /* \"#utility.yul\":16454:16704   */\n      pop\n      jump\t// out\n        /* \"#utility.yul\":16710:17076   */\n    tag_229:\n        /* \"#utility.yul\":16852:16855   */\n      0x00\n        /* \"#utility.yul\":16873:16940   */\n      tag_382\n        /* \"#utility.yul\":16937:16939   */\n      0x3f\n        /* \"#utility.yul\":16932:16935   */\n      dup4\n        /* \"#utility.yul\":16873:16940   */\n      tag_206\n      jump\t// in\n    tag_382:\n        /* \"#utility.yul\":16866:16940   */\n      swap2\n      pop\n        /* \"#utility.yul\":16949:17042   */\n      tag_383\n        /* \"#utility.yul\":17038:17041   */\n      dup3\n        /* \"#utility.yul\":16949:17042   */\n      tag_228\n      jump\t// in\n    tag_383:\n        /* \"#utility.yul\":17067:17069   */\n      0x40\n        /* \"#utility.yul\":17062:17065   */\n      dup3\n        /* \"#utility.yul\":17058:17070   */\n      add\n        /* \"#utility.yul\":17051:17070   */\n      swap1\n      pop\n        /* \"#utility.yul\":16710:17076   */\n      swap2\n      swap1\n      pop\n      jump\t// out\n        /* \"#utility.yul\":17082:17501   */\n    tag_133:\n        /* \"#utility.yul\":17248:17252   */\n      0x00\n        /* \"#utility.yul\":17286:17288   */\n      0x20\n        /* \"#utility.yul\":17275:17284   */\n      dup3\n        /* \"#utility.yul\":17271:17289   */\n      add\n        /* \"#utility.yul\":17263:17289   */\n      swap1\n      pop\n        /* \"#utility.yul\":17335:17344   */\n      dup2\n        /* \"#utility.yul\":17329:17333   */\n      dup2\n        /* \"#utility.yul\":17325:17345   */\n      sub\n        /* \"#utility.yul\":17321:17322   */\n      0x00\n        /* \"#utility.yul\":17310:17319   */\n      dup4\n        /* \"#utility.yul\":17306:17323   */\n      add\n        /* \"#utility.yul\":17299:17346   */\n      mstore\n        /* \"#utility.yul\":17363:17494   */\n      tag_385\n        /* \"#utility.yul\":17489:17493   */\n      dup2\n        /* \"#utility.yul\":17363:17494   */\n      tag_229\n      jump\t// in\n    tag_385:\n        /* \"#utility.yul\":17355:17494   */\n      swap1\n      pop\n        /* \"#utility.yul\":17082:17501   */\n      swap2\n      swap1\n      pop\n      jump\t// out\n        /* \"#utility.yul\":17507:17949   */\n    tag_141:\n        /* \"#utility.yul\":17656:17660   */\n      0x00\n        /* \"#utility.yul\":17694:17696   */\n      0x60\n        /* \"#utility.yul\":17683:17692   */\n      dup3\n        /* \"#utility.yul\":17679:17697   */\n      add\n        /* \"#utility.yul\":17671:17697   */\n      swap1\n      pop\n        /* \"#utility.yul\":17707:17778   */\n      tag_387\n        /* \"#utility.yul\":17775:17776   */\n      0x00\n        /* \"#utility.yul\":17764:17773   */\n      dup4\n        /* \"#utility.yul\":17760:17777   */\n      add\n        /* \"#utility.yul\":17751:17757   */\n      dup7\n        /* \"#utility.yul\":17707:17778   */\n      tag_198\n      jump\t// in\n    tag_387:\n        /* \"#utility.yul\":17788:17860   */\n      tag_388\n        /* \"#utility.yul\":17856:17858   */\n      0x20\n        /* \"#utility.yul\":17845:17854   */\n      dup4\n        /* \"#utility.yul\":17841:17859   */\n      add\n        /* \"#utility.yul\":17832:17838   */\n      dup6\n        /* \"#utility.yul\":17788:17860   */\n      tag_198\n      jump\t// in\n    tag_388:\n        /* \"#utility.yul\":17870:17942   */\n      tag_389\n        /* \"#utility.yul\":17938:17940   */\n      0x40\n        /* \"#utility.yul\":17927:17936   */\n      dup4\n        /* \"#utility.yul\":17923:17941   */\n      add\n        /* \"#utility.yul\":17914:17920   */\n      dup5\n        /* \"#utility.yul\":17870:17942   */\n      tag_192\n      jump\t// in\n    tag_389:\n        /* \"#utility.yul\":17507:17949   */\n      swap5\n      swap4\n      pop\n      pop\n      pop\n      pop\n      jump\t// out\n        /* \"#utility.yul\":17955:18135   */\n    tag_230:\n        /* \"#utility.yul\":18003:18080   */\n      0x4e487b7100000000000000000000000000000000000000000000000000000000\n        /* \"#utility.yul\":18000:18001   */\n      0x00\n        /* \"#utility.yul\":17993:18081   */\n      mstore\n        /* \"#utility.yul\":18100:18104   */\n      0x11\n        /* \"#utility.yul\":18097:18098   */\n      0x04\n        /* \"#utility.yul\":18090:18105   */\n      mstore\n        /* \"#utility.yul\":18124:18128   */\n      0x24\n        /* \"#utility.yul\":18121:18122   */\n      0x00\n        /* \"#utility.yul\":18114:18129   */\n      revert\n        /* \"#utility.yul\":18141:18446   */\n    tag_144:\n        /* \"#utility.yul\":18181:18184   */\n      0x00\n        /* \"#utility.yul\":18200:18220   */\n      tag_392\n        /* \"#utility.yul\":18218:18219   */\n      dup3\n        /* \"#utility.yul\":18200:18220   */\n      tag_191\n      jump\t// in\n    tag_392:\n        /* \"#utility.yul\":18195:18220   */\n      swap2\n      pop\n        /* \"#utility.yul\":18234:18254   */\n      tag_393\n        /* \"#utility.yul\":18252:18253   */\n      dup4\n        /* \"#utility.yul\":18234:18254   */\n      tag_191\n      jump\t// in\n    tag_393:\n        /* \"#utility.yul\":18229:18254   */\n      swap3\n      pop\n        /* \"#utility.yul\":18388:18389   */\n      dup3\n        /* \"#utility.yul\":18320:18386   */\n      0xffffffffffffffffffffffffffffffffffffffffffffffffffffffffffffffff\n        /* \"#utility.yul\":18316:18390   */\n      sub\n        /* \"#utility.yul\":18313:18314   */\n      dup3\n        /* \"#utility.yul\":18310:18391   */\n      gt\n        /* \"#utility.yul\":18307:18414   */\n      iszero\n      tag_394\n      jumpi\n        /* \"#utility.yul\":18394:18412   */\n      tag_395\n      tag_230\n      jump\t// in\n    tag_395:\n        /* \"#utility.yul\":18307:18414   */\n    tag_394:\n        /* \"#utility.yul\":18438:18439   */\n      dup3\n        /* \"#utility.yul\":18435:18436   */\n      dup3\n        /* \"#utility.yul\":18431:18440   */\n      add\n        /* \"#utility.yul\":18424:18440   */\n      swap1\n      pop\n        /* \"#utility.yul\":18141:18446   */\n      swap3\n      swap2\n      pop\n      pop\n      jump\t// out\n        /* \"#utility.yul\":18452:18643   */\n    tag_147:\n        /* \"#utility.yul\":18492:18496   */\n      0x00\n        /* \"#utility.yul\":18512:18532   */\n      tag_397\n        /* \"#utility.yul\":18530:18531   */\n      dup3\n        /* \"#utility.yul\":18512:18532   */\n      tag_191\n      jump\t// in\n    tag_397:\n        /* \"#utility.yul\":18507:18532   */\n      swap2\n      pop\n        /* \"#utility.yul\":18546:18566   */\n      tag_398\n        /* \"#utility.yul\":18564:18565   */\n      dup4\n        /* \"#utility.yul\":18546:18566   */\n      tag_191\n      jump\t// in\n    tag_398:\n        /* \"#utility.yul\":18541:18566   */\n      swap3\n      pop\n        /* \"#utility.yul\":18585:18586   */\n      dup3\n        /* \"#utility.yul\":18582:18583   */\n      dup3\n        /* \"#utility.yul\":18579:18587   */\n      lt\n        /* \"#utility.yul\":18576:18610   */\n      iszero\n      tag_399\n      jumpi\n        /* \"#utility.yul\":18590:18608   */\n      tag_400\n      tag_230\n      jump\t// in\n    tag_400:\n        /* \"#utility.yul\":18576:18610   */\n    tag_399:\n        /* \"#utility.yul\":18635:18636   */\n      dup3\n        /* \"#utility.yul\":18632:18633   */\n      dup3\n        /* \"#utility.yul\":18628:18637   */\n      sub\n        /* \"#utility.yul\":18620:18637   */\n      swap1\n      pop\n        /* \"#utility.yul\":18452:18643   */\n      swap3\n      swap2\n      pop\n      pop\n      jump\t// out\n        /* \"#utility.yul\":18649:18765   */\n    tag_231:\n        /* \"#utility.yul\":18719:18740   */\n      tag_402\n        /* \"#utility.yul\":18734:18739   */\n      dup2\n        /* \"#utility.yul\":18719:18740   */\n      tag_199\n      jump\t// in\n    tag_402:\n        /* \"#utility.yul\":18712:18717   */\n      dup2\n        /* \"#utility.yul\":18709:18741   */\n      eq\n        /* \"#utility.yul\":18699:18759   */\n      tag_403\n      jumpi\n        /* \"#utility.yul\":18755:18756   */\n      0x00\n        /* \"#utility.yul\":18752:18753   */\n      dup1\n        /* \"#utility.yul\":18745:18757   */\n      revert\n        /* \"#utility.yul\":18699:18759   */\n    tag_403:\n        /* \"#utility.yul\":18649:18765   */\n      pop\n      jump\t// out\n        /* \"#utility.yul\":18771:18908   */\n    tag_232:\n        /* \"#utility.yul\":18825:18830   */\n      0x00\n        /* \"#utility.yul\":18856:18862   */\n      dup2\n        /* \"#utility.yul\":18850:18863   */\n      mload\n        /* \"#utility.yul\":18841:18863   */\n      swap1\n      pop\n        /* \"#utility.yul\":18872:18902   */\n      tag_405\n        /* \"#utility.yul\":18896:18901   */\n      dup2\n        /* \"#utility.yul\":18872:18902   */\n      tag_231\n      jump\t// in\n    tag_405:\n        /* \"#utility.yul\":18771:18908   */\n      swap3\n      swap2\n      pop\n      pop\n      jump\t// out\n        /* \"#utility.yul\":18914:19259   */\n    tag_153:\n        /* \"#utility.yul\":18981:18987   */\n      0x00\n        /* \"#utility.yul\":19030:19032   */\n      0x20\n        /* \"#utility.yul\":19018:19027   */\n      dup3\n        /* \"#utility.yul\":19009:19016   */\n      dup5\n        /* \"#utility.yul\":19005:19028   */\n      sub\n        /* \"#utility.yul\":19001:19033   */\n      slt\n        /* \"#utility.yul\":18998:19117   */\n      iszero\n      tag_407\n      jumpi\n        /* \"#utility.yul\":19036:19115   */\n      tag_408\n      tag_185\n      jump\t// in\n    tag_408:\n        /* \"#utility.yul\":18998:19117   */\n    tag_407:\n        /* \"#utility.yul\":19156:19157   */\n      0x00\n        /* \"#utility.yul\":19181:19242   */\n      tag_409\n        /* \"#utility.yul\":19234:19241   */\n      dup5\n        /* \"#utility.yul\":19225:19231   */\n      dup3\n        /* \"#utility.yul\":19214:19223   */\n      dup6\n        /* \"#utility.yul\":19210:19232   */\n      add\n        /* \"#utility.yul\":19181:19242   */\n      tag_232\n      jump\t// in\n    tag_409:\n        /* \"#utility.yul\":19171:19242   */\n      swap2\n      pop\n        /* \"#utility.yul\":19127:19252   */\n      pop\n        /* \"#utility.yul\":18914:19259   */\n      swap3\n      swap2\n      pop\n      pop\n      jump\t// out\n        /* \"#utility.yul\":19265:19494   */\n    tag_233:\n        /* \"#utility.yul\":19405:19439   */\n      0x5361666545524332303a204552433230206f7065726174696f6e20646964206e\n        /* \"#utility.yul\":19401:19402   */\n      0x00\n        /* \"#utility.yul\":19393:19399   */\n      dup3\n        /* \"#utility.yul\":19389:19403   */\n      add\n        /* \"#utility.yul\":19382:19440   */\n      mstore\n        /* \"#utility.yul\":19474:19486   */\n      0x6f74207375636365656400000000000000000000000000000000000000000000\n        /* \"#utility.yul\":19469:19471   */\n      0x20\n        /* \"#utility.yul\":19461:19467   */\n      dup3\n        /* \"#utility.yul\":19457:19472   */\n      add\n        /* \"#utility.yul\":19450:19487   */\n      mstore\n        /* \"#utility.yul\":19265:19494   */\n      pop\n      jump\t// out\n        /* \"#utility.yul\":19500:19866   */\n    tag_234:\n        /* \"#utility.yul\":19642:19645   */\n      0x00\n        /* \"#utility.yul\":19663:19730   */\n      tag_412\n        /* \"#utility.yul\":19727:19729   */\n      0x2a\n        /* \"#utility.yul\":19722:19725   */\n      dup4\n        /* \"#utility.yul\":19663:19730   */\n      tag_206\n      jump\t// in\n    tag_412:\n        /* \"#utility.yul\":19656:19730   */\n      swap2\n      pop\n        /* \"#utility.yul\":19739:19832   */\n      tag_413\n        /* \"#utility.yul\":19828:19831   */\n      dup3\n        /* \"#utility.yul\":19739:19832   */\n      tag_233\n      jump\t// in\n    tag_413:\n        /* \"#utility.yul\":19857:19859   */\n      0x40\n        /* \"#utility.yul\":19852:19855   */\n      dup3\n        /* \"#utility.yul\":19848:19860   */\n      add\n        /* \"#utility.yul\":19841:19860   */\n      swap1\n      pop\n        /* \"#utility.yul\":19500:19866   */\n      swap2\n      swap1\n      pop\n      jump\t// out\n        /* \"#utility.yul\":19872:20291   */\n    tag_156:\n        /* \"#utility.yul\":20038:20042   */\n      0x00\n        /* \"#utility.yul\":20076:20078   */\n      0x20\n        /* \"#utility.yul\":20065:20074   */\n      dup3\n        /* \"#utility.yul\":20061:20079   */\n      add\n        /* \"#utility.yul\":20053:20079   */\n      swap1\n      pop\n        /* \"#utility.yul\":20125:20134   */\n      dup2\n        /* \"#utility.yul\":20119:20123   */\n      dup2\n        /* \"#utility.yul\":20115:20135   */\n      sub\n        /* \"#utility.yul\":20111:20112   */\n      0x00\n        /* \"#utility.yul\":20100:20109   */\n      dup4\n        /* \"#utility.yul\":20096:20113   */\n      add\n        /* \"#utility.yul\":20089:20136   */\n      mstore\n        /* \"#utility.yul\":20153:20284   */\n      tag_415\n        /* \"#utility.yul\":20279:20283   */\n      dup2\n        /* \"#utility.yul\":20153:20284   */\n      tag_234\n      jump\t// in\n    tag_415:\n        /* \"#utility.yul\":20145:20284   */\n      swap1\n      pop\n        /* \"#utility.yul\":19872:20291   */\n      swap2\n      swap1\n      pop\n      jump\t// out\n        /* \"#utility.yul\":20297:20522   */\n    tag_235:\n        /* \"#utility.yul\":20437:20471   */\n      0x416464726573733a20696e73756666696369656e742062616c616e636520666f\n        /* \"#utility.yul\":20433:20434   */\n      0x00\n        /* \"#utility.yul\":20425:20431   */\n      dup3\n        /* \"#utility.yul\":20421:20435   */\n      add\n        /* \"#utility.yul\":20414:20472   */\n      mstore\n        /* \"#utility.yul\":20506:20514   */\n      0x722063616c6c0000000000000000000000000000000000000000000000000000\n        /* \"#utility.yul\":20501:20503   */\n      0x20\n        /* \"#utility.yul\":20493:20499   */\n      dup3\n        /* \"#utility.yul\":20489:20504   */\n      add\n        /* \"#utility.yul\":20482:20515   */\n      mstore\n        /* \"#utility.yul\":20297:20522   */\n      pop\n      jump\t// out\n        /* \"#utility.yul\":20528:20894   */\n    tag_236:\n        /* \"#utility.yul\":20670:20673   */\n      0x00\n        /* \"#utility.yul\":20691:20758   */\n      tag_418\n        /* \"#utility.yul\":20755:20757   */\n      0x26\n        /* \"#utility.yul\":20750:20753   */\n      dup4\n        /* \"#utility.yul\":20691:20758   */\n      tag_206\n      jump\t// in\n    tag_418:\n        /* \"#utility.yul\":20684:20758   */\n      swap2\n      pop\n        /* \"#utility.yul\":20767:20860   */\n      tag_419\n        /* \"#utility.yul\":20856:20859   */\n      dup3\n        /* \"#utility.yul\":20767:20860   */\n      tag_235\n      jump\t// in\n    tag_419:\n        /* \"#utility.yul\":20885:20887   */\n      0x40\n        /* \"#utility.yul\":20880:20883   */\n      dup3\n        /* \"#utility.yul\":20876:20888   */\n      add\n        /* \"#utility.yul\":20869:20888   */\n      swap1\n      pop\n        /* \"#utility.yul\":20528:20894   */\n      swap2\n      swap1\n      pop\n      jump\t// out\n        /* \"#utility.yul\":20900:21319   */\n    tag_163:\n        /* \"#utility.yul\":21066:21070   */\n      0x00\n        /* \"#utility.yul\":21104:21106   */\n      0x20\n        /* \"#utility.yul\":21093:21102   */\n      dup3\n        /* \"#utility.yul\":21089:21107   */\n      add\n        /* \"#utility.yul\":21081:21107   */\n      swap1\n      pop\n        /* \"#utility.yul\":21153:21162   */\n      dup2\n        /* \"#utility.yul\":21147:21151   */\n      dup2\n        /* \"#utility.yul\":21143:21163   */\n      sub\n        /* \"#utility.yul\":21139:21140   */\n      0x00\n        /* \"#utility.yul\":21128:21137   */\n      dup4\n        /* \"#utility.yul\":21124:21141   */\n      add\n        /* \"#utility.yul\":21117:21164   */\n      mstore\n        /* \"#utility.yul\":21181:21312   */\n      tag_421\n        /* \"#utility.yul\":21307:21311   */\n      dup2\n        /* \"#utility.yul\":21181:21312   */\n      tag_236\n      jump\t// in\n    tag_421:\n        /* \"#utility.yul\":21173:21312   */\n      swap1\n      pop\n        /* \"#utility.yul\":20900:21319   */\n      swap2\n      swap1\n      pop\n      jump\t// out\n        /* \"#utility.yul\":21325:21504   */\n    tag_237:\n        /* \"#utility.yul\":21465:21496   */\n      0x416464726573733a2063616c6c20746f206e6f6e2d636f6e7472616374000000\n        /* \"#utility.yul\":21461:21462   */\n      0x00\n        /* \"#utility.yul\":21453:21459   */\n      dup3\n        /* \"#utility.yul\":21449:21463   */\n      add\n        /* \"#utility.yul\":21442:21497   */\n      mstore\n        /* \"#utility.yul\":21325:21504   */\n      pop\n      jump\t// out\n        /* \"#utility.yul\":21510:21876   */\n    tag_238:\n        /* \"#utility.yul\":21652:21655   */\n      0x00\n        /* \"#utility.yul\":21673:21740   */\n      tag_424\n        /* \"#utility.yul\":21737:21739   */\n      0x1d\n        /* \"#utility.yul\":21732:21735   */\n      dup4\n        /* \"#utility.yul\":21673:21740   */\n      tag_206\n      jump\t// in\n    tag_424:\n        /* \"#utility.yul\":21666:21740   */\n      swap2\n      pop\n        /* \"#utility.yul\":21749:21842   */\n      tag_425\n        /* \"#utility.yul\":21838:21841   */\n      dup3\n        /* \"#utility.yul\":21749:21842   */\n      tag_237\n      jump\t// in\n    tag_425:\n        /* \"#utility.yul\":21867:21869   */\n      0x20\n        /* \"#utility.yul\":21862:21865   */\n      dup3\n        /* \"#utility.yul\":21858:21870   */\n      add\n        /* \"#utility.yul\":21851:21870   */\n      swap1\n      pop\n        /* \"#utility.yul\":21510:21876   */\n      swap2\n      swap1\n      pop\n      jump\t// out\n        /* \"#utility.yul\":21882:22301   */\n    tag_168:\n        /* \"#utility.yul\":22048:22052   */\n      0x00\n        /* \"#utility.yul\":22086:22088   */\n      0x20\n        /* \"#utility.yul\":22075:22084   */\n      dup3\n        /* \"#utility.yul\":22071:22089   */\n      add\n        /* \"#utility.yul\":22063:22089   */\n      swap1\n      pop\n        /* \"#utility.yul\":22135:22144   */\n      dup2\n        /* \"#utility.yul\":22129:22133   */\n      dup2\n        /* \"#utility.yul\":22125:22145   */\n      sub\n        /* \"#utility.yul\":22121:22122   */\n      0x00\n        /* \"#utility.yul\":22110:22119   */\n      dup4\n        /* \"#utility.yul\":22106:22123   */\n      add\n        /* \"#utility.yul\":22099:22146   */\n      mstore\n        /* \"#utility.yul\":22163:22294   */\n      tag_427\n        /* \"#utility.yul\":22289:22293   */\n      dup2\n        /* \"#utility.yul\":22163:22294   */\n      tag_238\n      jump\t// in\n    tag_427:\n        /* \"#utility.yul\":22155:22294   */\n      swap1\n      pop\n        /* \"#utility.yul\":21882:22301   */\n      swap2\n      swap1\n      pop\n      jump\t// out\n        /* \"#utility.yul\":22307:22405   */\n    tag_239:\n        /* \"#utility.yul\":22358:22364   */\n      0x00\n        /* \"#utility.yul\":22392:22397   */\n      dup2\n        /* \"#utility.yul\":22386:22398   */\n      mload\n        /* \"#utility.yul\":22376:22398   */\n      swap1\n      pop\n        /* \"#utility.yul\":22307:22405   */\n      swap2\n      swap1\n      pop\n      jump\t// out\n        /* \"#utility.yul\":22411:22558   */\n    tag_240:\n        /* \"#utility.yul\":22512:22523   */\n      0x00\n        /* \"#utility.yul\":22549:22552   */\n      dup2\n        /* \"#utility.yul\":22534:22552   */\n      swap1\n      pop\n        /* \"#utility.yul\":22411:22558   */\n      swap3\n      swap2\n      pop\n      pop\n      jump\t// out\n        /* \"#utility.yul\":22564:22871   */\n    tag_241:\n        /* \"#utility.yul\":22632:22633   */\n      0x00\n        /* \"#utility.yul\":22642:22755   */\n    tag_431:\n        /* \"#utility.yul\":22656:22662   */\n      dup4\n        /* \"#utility.yul\":22653:22654   */\n      dup2\n        /* \"#utility.yul\":22650:22663   */\n      lt\n        /* \"#utility.yul\":22642:22755   */\n      iszero\n      tag_433\n      jumpi\n        /* \"#utility.yul\":22741:22742   */\n      dup1\n        /* \"#utility.yul\":22736:22739   */\n      dup3\n        /* \"#utility.yul\":22732:22743   */\n      add\n        /* \"#utility.yul\":22726:22744   */\n      mload\n        /* \"#utility.yul\":22722:22723   */\n      dup2\n        /* \"#utility.yul\":22717:22720   */\n      dup5\n        /* \"#utility.yul\":22713:22724   */\n      add\n        /* \"#utility.yul\":22706:22745   */\n      mstore\n        /* \"#utility.yul\":22678:22680   */\n      0x20\n        /* \"#utility.yul\":22675:22676   */\n      dup2\n        /* \"#utility.yul\":22671:22681   */\n      add\n        /* \"#utility.yul\":22666:22681   */\n      swap1\n      pop\n        /* \"#utility.yul\":22642:22755   */\n      jump(tag_431)\n    tag_433:\n        /* \"#utility.yul\":22773:22779   */\n      dup4\n        /* \"#utility.yul\":22770:22771   */\n      dup2\n        /* \"#utility.yul\":22767:22780   */\n      gt\n        /* \"#utility.yul\":22764:22865   */\n      iszero\n      tag_434\n      jumpi\n        /* \"#utility.yul\":22853:22854   */\n      0x00\n        /* \"#utility.yul\":22844:22850   */\n      dup5\n        /* \"#utility.yul\":22839:22842   */\n      dup5\n        /* \"#utility.yul\":22835:22851   */\n      add\n        /* \"#utility.yul\":22828:22855   */\n      mstore\n        /* \"#utility.yul\":22764:22865   */\n    tag_434:\n        /* \"#utility.yul\":22613:22871   */\n      pop\n        /* \"#utility.yul\":22564:22871   */\n      pop\n      pop\n      pop\n      jump\t// out\n        /* \"#utility.yul\":22877:23250   */\n    tag_242:\n        /* \"#utility.yul\":22981:22984   */\n      0x00\n        /* \"#utility.yul\":23009:23047   */\n      tag_436\n        /* \"#utility.yul\":23041:23046   */\n      dup3\n        /* \"#utility.yul\":23009:23047   */\n      tag_239\n      jump\t// in\n    tag_436:\n        /* \"#utility.yul\":23063:23151   */\n      tag_437\n        /* \"#utility.yul\":23144:23150   */\n      dup2\n        /* \"#utility.yul\":23139:23142   */\n      dup6\n        /* \"#utility.yul\":23063:23151   */\n      tag_240\n      jump\t// in\n    tag_437:\n        /* \"#utility.yul\":23056:23151   */\n      swap4\n      pop\n        /* \"#utility.yul\":23160:23212   */\n      tag_438\n        /* \"#utility.yul\":23205:23211   */\n      dup2\n        /* \"#utility.yul\":23200:23203   */\n      dup6\n        /* \"#utility.yul\":23193:23197   */\n      0x20\n        /* \"#utility.yul\":23186:23191   */\n      dup7\n        /* \"#utility.yul\":23182:23198   */\n      add\n        /* \"#utility.yul\":23160:23212   */\n      tag_241\n      jump\t// in\n    tag_438:\n        /* \"#utility.yul\":23237:23243   */\n      dup1\n        /* \"#utility.yul\":23232:23235   */\n      dup5\n        /* \"#utility.yul\":23228:23244   */\n      add\n        /* \"#utility.yul\":23221:23244   */\n      swap2\n      pop\n        /* \"#utility.yul\":22985:23250   */\n      pop\n        /* \"#utility.yul\":22877:23250   */\n      swap3\n      swap2\n      pop\n      pop\n      jump\t// out\n        /* \"#utility.yul\":23256:23527   */\n    tag_170:\n        /* \"#utility.yul\":23386:23389   */\n      0x00\n        /* \"#utility.yul\":23408:23501   */\n      tag_440\n        /* \"#utility.yul\":23497:23500   */\n      dup3\n        /* \"#utility.yul\":23488:23494   */\n      dup5\n        /* \"#utility.yul\":23408:23501   */\n      tag_242\n      jump\t// in\n    tag_440:\n        /* \"#utility.yul\":23401:23501   */\n      swap2\n      pop\n        /* \"#utility.yul\":23518:23521   */\n      dup2\n        /* \"#utility.yul\":23511:23521   */\n      swap1\n      pop\n        /* \"#utility.yul\":23256:23527   */\n      swap3\n      swap2\n      pop\n      pop\n      jump\t// out\n        /* \"#utility.yul\":23533:23632   */\n    tag_243:\n        /* \"#utility.yul\":23585:23591   */\n      0x00\n        /* \"#utility.yul\":23619:23624   */\n      dup2\n        /* \"#utility.yul\":23613:23625   */\n      mload\n        /* \"#utility.yul\":23603:23625   */\n      swap1\n      pop\n        /* \"#utility.yul\":23533:23632   */\n      swap2\n      swap1\n      pop\n      jump\t// out\n        /* \"#utility.yul\":23638:23740   */\n    tag_244:\n        /* \"#utility.yul\":23679:23685   */\n      0x00\n        /* \"#utility.yul\":23730:23732   */\n      0x1f\n        /* \"#utility.yul\":23726:23733   */\n      not\n        /* \"#utility.yul\":23721:23723   */\n      0x1f\n        /* \"#utility.yul\":23714:23719   */\n      dup4\n        /* \"#utility.yul\":23710:23724   */\n      add\n        /* \"#utility.yul\":23706:23734   */\n      and\n        /* \"#utility.yul\":23696:23734   */\n      swap1\n      pop\n        /* \"#utility.yul\":23638:23740   */\n      swap2\n      swap1\n      pop\n      jump\t// out\n        /* \"#utility.yul\":23746:24110   */\n    tag_245:\n        /* \"#utility.yul\":23834:23837   */\n      0x00\n        /* \"#utility.yul\":23862:23901   */\n      tag_444\n        /* \"#utility.yul\":23895:23900   */\n      dup3\n        /* \"#utility.yul\":23862:23901   */\n      tag_243\n      jump\t// in\n    tag_444:\n        /* \"#utility.yul\":23917:23988   */\n      tag_445\n        /* \"#utility.yul\":23981:23987   */\n      dup2\n        /* \"#utility.yul\":23976:23979   */\n      dup6\n        /* \"#utility.yul\":23917:23988   */\n      tag_206\n      jump\t// in\n    tag_445:\n        /* \"#utility.yul\":23910:23988   */\n      swap4\n      pop\n        /* \"#utility.yul\":23997:24049   */\n      tag_446\n        /* \"#utility.yul\":24042:24048   */\n      dup2\n        /* \"#utility.yul\":24037:24040   */\n      dup6\n        /* \"#utility.yul\":24030:24034   */\n      0x20\n        /* \"#utility.yul\":24023:24028   */\n      dup7\n        /* \"#utility.yul\":24019:24035   */\n      add\n        /* \"#utility.yul\":23997:24049   */\n      tag_241\n      jump\t// in\n    tag_446:\n        /* \"#utility.yul\":24074:24103   */\n      tag_447\n        /* \"#utility.yul\":24096:24102   */\n      dup2\n        /* \"#utility.yul\":24074:24103   */\n      tag_244\n      jump\t// in\n    tag_447:\n        /* \"#utility.yul\":24069:24072   */\n      dup5\n        /* \"#utility.yul\":24065:24104   */\n      add\n        /* \"#utility.yul\":24058:24104   */\n      swap2\n      pop\n        /* \"#utility.yul\":23838:24110   */\n      pop\n        /* \"#utility.yul\":23746:24110   */\n      swap3\n      swap2\n      pop\n      pop\n      jump\t// out\n        /* \"#utility.yul\":24116:24429   */\n    tag_183:\n        /* \"#utility.yul\":24229:24233   */\n      0x00\n        /* \"#utility.yul\":24267:24269   */\n      0x20\n        /* \"#utility.yul\":24256:24265   */\n      dup3\n        /* \"#utility.yul\":24252:24270   */\n      add\n        /* \"#utility.yul\":24244:24270   */\n      swap1\n      pop\n        /* \"#utility.yul\":24316:24325   */\n      dup2\n        /* \"#utility.yul\":24310:24314   */\n      dup2\n        /* \"#utility.yul\":24306:24326   */\n      sub\n        /* \"#utility.yul\":24302:24303   */\n      0x00\n        /* \"#utility.yul\":24291:24300   */\n      dup4\n        /* \"#utility.yul\":24287:24304   */\n      add\n        /* \"#utility.yul\":24280:24327   */\n      mstore\n        /* \"#utility.yul\":24344:24422   */\n      tag_449\n        /* \"#utility.yul\":24417:24421   */\n      dup2\n        /* \"#utility.yul\":24408:24414   */\n      dup5\n        /* \"#utility.yul\":24344:24422   */\n      tag_245\n      jump\t// in\n    tag_449:\n        /* \"#utility.yul\":24336:24422   */\n      swap1\n      pop\n        /* \"#utility.yul\":24116:24429   */\n      swap3\n      swap2\n      pop\n      pop\n      jump\t// out\n\n    auxdata: 0xa264697066735822122005bc148a8ac1c8f8c748ef491b5344a30ef5f786bc81e9306e4bcc597c16447e64736f6c634300080b0033\n}\n",
				"bytecode": {
					"linkReferences": {},
					"object": "60806040523480156200001157600080fd5b5060405162002199380380620021998339818101604052810190620000379190620001e6565b33600060016101000a81548173ffffffffffffffffffffffffffffffffffffffff021916908373ffffffffffffffffffffffffffffffffffffffff1602179055506000600260006101000a81548160ff021916908315150217905550600073ffffffffffffffffffffffffffffffffffffffff168173ffffffffffffffffffffffffffffffffffffffff16141562000106576040517f08c379a0000000000000000000000000000000000000000000000000000000008152600401620000fd906200029f565b60405180910390fd5b80600760006101000a81548173ffffffffffffffffffffffffffffffffffffffff021916908373ffffffffffffffffffffffffffffffffffffffff16021790555060008060006101000a81548160ff02191690831515021790555050620002c1565b600080fd5b600073ffffffffffffffffffffffffffffffffffffffff82169050919050565b60006200019a826200016d565b9050919050565b6000620001ae826200018d565b9050919050565b620001c081620001a1565b8114620001cc57600080fd5b50565b600081519050620001e081620001b5565b92915050565b600060208284031215620001ff57620001fe62000168565b5b60006200020f84828501620001cf565b91505092915050565b600082825260208201905092915050565b7f5f65726332305f636f6e74726163745f6164647265737320616464726573732060008201527f63616e206e6f74206265207a65726f0000000000000000000000000000000000602082015250565b600062000287602f8362000218565b9150620002948262000229565b604082019050919050565b60006020820190508181036000830152620002ba8162000278565b9050919050565b611ec880620002d16000396000f3fe608060405234801561001057600080fd5b50600436106100b45760003560e01c80639aa2e39e116100715780639aa2e39e1461017b5780639b69279a146101ab578063a0a2b573146101c9578063a8f6c913146101e5578063d6d1417114610203578063e89a173e14610221576100b4565b806327e235e3146100b95780633e79d1e1146100e95780633e9949421461010757806379a83f5a146101235780638b7afe2e1461013f5780638da5cb5b1461015d575b600080fd5b6100d360048036038101906100ce919061116b565b61023d565b6040516100e091906111b1565b60405180910390f35b6100f1610255565b6040516100fe91906111b1565b60405180910390f35b610121600480360381019061011c9190611236565b61025b565b005b61013d60048036038101906101389190611236565b6104bf565b005b6101476107e2565b60405161015491906111b1565b60405180910390f35b6101656107e8565b6040516101729190611285565b60405180910390f35b6101956004803603810190610190919061116b565b61080e565b6040516101a291906111b1565b60405180910390f35b6101b3610826565b6040516101c091906112bb565b60405180910390f35b6101e360048036038101906101de91906112d6565b610839565b005b6101ed61095f565b6040516101fa9190611362565b60405180910390f35b61020b610985565b60405161021891906111b1565b60405180910390f35b61023b60048036038101906102369190611236565b61098b565b005b60056020528060005260406000206000915090505481565b60035481565b600060019054906101000a900473ffffffffffffffffffffffffffffffffffffffff1673ffffffffffffffffffffffffffffffffffffffff163373ffffffffffffffffffffffffffffffffffffffff16146102eb576040517f08c379a00000000000000000000000000000000000000000000000000000000081526004016102e290611400565b60405180910390fd5b60008054906101000a900460ff1615610339576040517f08c379a00000000000000000000000000000000000000000000000000000000081526004016103309061146c565b60405180910390fd5b60016000806101000a81548160ff021916908315150217905550600073ffffffffffffffffffffffffffffffffffffffff168273ffffffffffffffffffffffffffffffffffffffff1614156103c3576040517f08c379a00000000000000000000000000000000000000000000000000000000081526004016103ba906114d8565b60405180910390fd5b600760009054906101000a900473ffffffffffffffffffffffffffffffffffffffff1673ffffffffffffffffffffffffffffffffffffffff168273ffffffffffffffffffffffffffffffffffffffff161415610454576040517f08c379a000000000000000000000000000000000000000000000000000000000815260040161044b90611590565b60405180910390fd5b6104a1600060019054906101000a900473ffffffffffffffffffffffffffffffffffffffff16828473ffffffffffffffffffffffffffffffffffffffff16610d509092919063ffffffff16565b60008060006101000a81548160ff0219169083151502179055505050565b60011515600260009054906101000a900460ff16151514610515576040517f08c379a000000000000000000000000000000000000000000000000000000000815260040161050c90611622565b60405180910390fd5b60008054906101000a900460ff1615610563576040517f08c379a000000000000000000000000000000000000000000000000000000000815260040161055a9061146c565b60405180910390fd5b60016000806101000a81548160ff021916908315150217905550600760009054906101000a900473ffffffffffffffffffffffffffffffffffffffff1673ffffffffffffffffffffffffffffffffffffffff168273ffffffffffffffffffffffffffffffffffffffff161461060d576040517f08c379a000000000000000000000000000000000000000000000000000000000815260040161060490611700565b60405180910390fd5b8173ffffffffffffffffffffffffffffffffffffffff166370a08231336040518263ffffffff1660e01b81526004016106469190611285565b602060405180830381865afa158015610663573d6000803e3d6000fd5b505050506040513d601f19601f820116820180604052508101906106879190611735565b8111156106c9576040517f08c379a00000000000000000000000000000000000000000000000000000000081526004016106c0906117d4565b60405180910390fd5b6106f63330838573ffffffffffffffffffffffffffffffffffffffff16610dd6909392919063ffffffff16565b61074881600560003373ffffffffffffffffffffffffffffffffffffffff1673ffffffffffffffffffffffffffffffffffffffff16815260200190815260200160002054610e5f90919063ffffffff16565b600560003373ffffffffffffffffffffffffffffffffffffffff1673ffffffffffffffffffffffffffffffffffffffff168152602001908152602001600020819055507fe5cfeeb5fcb96c1c52a55137c15e7f46d34d100d256c5396efc087c43d2fde4b33826040516107bc9291906117f4565b60405180910390a160008060006101000a81548160ff0219169083151502179055505050565b60065481565b600060019054906101000a900473ffffffffffffffffffffffffffffffffffffffff1681565b60046020528060005260406000206000915090505481565b600260009054906101000a900460ff1681565b600060019054906101000a900473ffffffffffffffffffffffffffffffffffffffff1673ffffffffffffffffffffffffffffffffffffffff163373ffffffffffffffffffffffffffffffffffffffff16146108c9576040517f08c379a00000000000000000000000000000000000000000000000000000000081526004016108c090611400565b60405180910390fd5b60001515600260009054906101000a900460ff1615151461091f576040517f08c379a00000000000000000000000000000000000000000000000000000000081526004016109169061188f565b60405180910390fd5b6001600260006101000a81548160ff0219169083151502179055504260018190555061095681600154610e5f90919063ffffffff16565b60038190555050565b600760009054906101000a900473ffffffffffffffffffffffffffffffffffffffff1681565b60015481565b60011515600260009054906101000a900460ff161515146109e1576040517f08c379a00000000000000000000000000000000000000000000000000000000081526004016109d890611622565b60405180910390fd5b60008054906101000a900460ff1615610a2f576040517f08c379a0000000000000000000000000000000000000000000000000000000008152600401610a269061146c565b60405180910390fd5b60016000806101000a81548160ff02191690831515021790555080600560003373ffffffffffffffffffffffffffffffffffffffff1673ffffffffffffffffffffffffffffffffffffffff168152602001908152602001600020541015610acb576040517f08c379a0000000000000000000000000000000000000000000000000000000008152600401610ac290611921565b60405180910390fd5b600760009054906101000a900473ffffffffffffffffffffffffffffffffffffffff1673ffffffffffffffffffffffffffffffffffffffff168273ffffffffffffffffffffffffffffffffffffffff1614610b5b576040517f08c379a0000000000000000000000000000000000000000000000000000000008152600401610b52906119ff565b60405180910390fd5b6003544210610cf757610bb681600460003373ffffffffffffffffffffffffffffffffffffffff1673ffffffffffffffffffffffffffffffffffffffff16815260200190815260200160002054610e5f90919063ffffffff16565b600460003373ffffffffffffffffffffffffffffffffffffffff1673ffffffffffffffffffffffffffffffffffffffff16815260200190815260200160002081905550610c4b81600560003373ffffffffffffffffffffffffffffffffffffffff1673ffffffffffffffffffffffffffffffffffffffff16815260200190815260200160002054610e7590919063ffffffff16565b600560003373ffffffffffffffffffffffffffffffffffffffff1673ffffffffffffffffffffffffffffffffffffffff16815260200190815260200160002081905550610cb933828473ffffffffffffffffffffffffffffffffffffffff16610d509092919063ffffffff16565b7f9845e367b683334e5c0b12d7b81721ac518e649376fa65e3d68324e8f34f26793382604051610cea9291906117f4565b60405180910390a1610d32565b6040517f08c379a0000000000000000000000000000000000000000000000000000000008152600401610d2990611a91565b60405180910390fd5b60008060006101000a81548160ff0219169083151502179055505050565b610dd18363a9059cbb60e01b8484604051602401610d6f9291906117f4565b604051602081830303815290604052907bffffffffffffffffffffffffffffffffffffffffffffffffffffffff19166020820180517bffffffffffffffffffffffffffffffffffffffffffffffffffffffff8381831617835250505050610e8b565b505050565b610e59846323b872dd60e01b858585604051602401610df793929190611ab1565b604051602081830303815290604052907bffffffffffffffffffffffffffffffffffffffffffffffffffffffff19166020820180517bffffffffffffffffffffffffffffffffffffffffffffffffffffffff8381831617835250505050610e8b565b50505050565b60008183610e6d9190611b17565b905092915050565b60008183610e839190611b6d565b905092915050565b6000610eed826040518060400160405280602081526020017f5361666545524332303a206c6f772d6c6576656c2063616c6c206661696c65648152508573ffffffffffffffffffffffffffffffffffffffff16610f529092919063ffffffff16565b9050600081511115610f4d5780806020019051810190610f0d9190611bcd565b610f4c576040517f08c379a0000000000000000000000000000000000000000000000000000000008152600401610f4390611c6c565b60405180910390fd5b5b505050565b6060610f618484600085610f6a565b90509392505050565b606082471015610faf576040517f08c379a0000000000000000000000000000000000000000000000000000000008152600401610fa690611cfe565b60405180910390fd5b610fb88561107e565b610ff7576040517f08c379a0000000000000000000000000000000000000000000000000000000008152600401610fee90611d6a565b60405180910390fd5b6000808673ffffffffffffffffffffffffffffffffffffffff1685876040516110209190611e04565b60006040518083038185875af1925050503d806000811461105d576040519150601f19603f3d011682016040523d82523d6000602084013e611062565b606091505b50915091506110728282866110a1565b92505050949350505050565b6000808273ffffffffffffffffffffffffffffffffffffffff163b119050919050565b606083156110b157829050611101565b6000835111156110c45782518084602001fd5b816040517f08c379a00000000000000000000000000000000000000000000000000000000081526004016110f89190611e70565b60405180910390fd5b9392505050565b600080fd5b600073ffffffffffffffffffffffffffffffffffffffff82169050919050565b60006111388261110d565b9050919050565b6111488161112d565b811461115357600080fd5b50565b6000813590506111658161113f565b92915050565b60006020828403121561118157611180611108565b5b600061118f84828501611156565b91505092915050565b6000819050919050565b6111ab81611198565b82525050565b60006020820190506111c660008301846111a2565b92915050565b60006111d78261112d565b9050919050565b6111e7816111cc565b81146111f257600080fd5b50565b600081359050611204816111de565b92915050565b61121381611198565b811461121e57600080fd5b50565b6000813590506112308161120a565b92915050565b6000806040838503121561124d5761124c611108565b5b600061125b858286016111f5565b925050602061126c85828601611221565b9150509250929050565b61127f8161112d565b82525050565b600060208201905061129a6000830184611276565b92915050565b60008115159050919050565b6112b5816112a0565b82525050565b60006020820190506112d060008301846112ac565b92915050565b6000602082840312156112ec576112eb611108565b5b60006112fa84828501611221565b91505092915050565b6000819050919050565b600061132861132361131e8461110d565b611303565b61110d565b9050919050565b600061133a8261130d565b9050919050565b600061134c8261132f565b9050919050565b61135c81611341565b82525050565b60006020820190506113776000830184611353565b92915050565b600082825260208201905092915050565b7f4d6573736167652073656e646572206d7573742062652074686520636f6e747260008201527f6163742773206f776e65722e0000000000000000000000000000000000000000602082015250565b60006113ea602c8361137d565b91506113f58261138e565b604082019050919050565b60006020820190508181036000830152611419816113dd565b9050919050565b7f4e6f2072652d656e7472616e6379000000000000000000000000000000000000600082015250565b6000611456600e8361137d565b915061146182611420565b602082019050919050565b6000602082019050818103600083015261148581611449565b9050919050565b7f546f6b656e20616464726573732063616e206e6f74206265207a65726f000000600082015250565b60006114c2601d8361137d565b91506114cd8261148c565b602082019050919050565b600060208201905081810360008301526114f1816114b5565b9050919050565b7f546f6b656e20616464726573732063616e206e6f74206265204552433230206160008201527f646472657373207768696368207761732070617373656420696e746f2074686560208201527f20636f6e7374727563746f720000000000000000000000000000000000000000604082015250565b600061157a604c8361137d565b9150611585826114f8565b606082019050919050565b600060208201905081810360008301526115a98161156d565b9050919050565b7f506c6561736520736574207468652074696d65207374616d702066697273742c60008201527f207468656e2074727920616761696e2e00000000000000000000000000000000602082015250565b600061160c60308361137d565b9150611617826115b0565b604082019050919050565b6000602082019050818103600083015261163b816115ff565b9050919050565b7f596f7520617265206f6e6c7920616c6c6f77656420746f207374616b6520746860008201527f65206f6666696369616c20657263323020746f6b656e2061646472657373207760208201527f68696368207761732070617373656420696e746f207468697320636f6e74726160408201527f6374277320636f6e7374727563746f7200000000000000000000000000000000606082015250565b60006116ea60708361137d565b91506116f582611642565b608082019050919050565b60006020820190508181036000830152611719816116dd565b9050919050565b60008151905061172f8161120a565b92915050565b60006020828403121561174b5761174a611108565b5b600061175984828501611720565b91505092915050565b7f4e6f7420656e6f75676820535441544520746f6b656e7320696e20796f75722060008201527f77616c6c65742c20706c6561736520747279206c657373657220616d6f756e74602082015250565b60006117be60408361137d565b91506117c982611762565b604082019050919050565b600060208201905081810360008301526117ed816117b1565b9050919050565b60006040820190506118096000830185611276565b61181660208301846111a2565b9392505050565b7f5468652074696d65207374616d702068617320616c7265616479206265656e2060008201527f7365742e00000000000000000000000000000000000000000000000000000000602082015250565b600061187960248361137d565b91506118848261181d565b604082019050919050565b600060208201905081810360008301526118a88161186c565b9050919050565b7f496e73756666696369656e7420746f6b656e2062616c616e63652c207472792060008201527f6c657373657220616d6f756e7400000000000000000000000000000000000000602082015250565b600061190b602d8361137d565b9150611916826118af565b604082019050919050565b6000602082019050818103600083015261193a816118fe565b9050919050565b7f546f6b656e20706172616d65746572206d757374206265207468652073616d6560008201527f2061732074686520657263323020636f6e74726163742061646472657373207760208201527f68696368207761732070617373656420696e746f2074686520636f6e7374727560408201527f63746f7200000000000000000000000000000000000000000000000000000000606082015250565b60006119e960648361137d565b91506119f482611941565b608082019050919050565b60006020820190508181036000830152611a18816119dc565b9050919050565b7f546f6b656e7320617265206f6e6c7920617661696c61626c652061667465722060008201527f636f72726563742074696d6520706572696f642068617320656c617073656400602082015250565b6000611a7b603f8361137d565b9150611a8682611a1f565b604082019050919050565b60006020820190508181036000830152611aaa81611a6e565b9050919050565b6000606082019050611ac66000830186611276565b611ad36020830185611276565b611ae060408301846111a2565b949350505050565b7f4e487b7100000000000000000000000000000000000000000000000000000000600052601160045260246000fd5b6000611b2282611198565b9150611b2d83611198565b9250827fffffffffffffffffffffffffffffffffffffffffffffffffffffffffffffffff03821115611b6257611b61611ae8565b5b828201905092915050565b6000611b7882611198565b9150611b8383611198565b925082821015611b9657611b95611ae8565b5b828203905092915050565b611baa816112a0565b8114611bb557600080fd5b50565b600081519050611bc781611ba1565b92915050565b600060208284031215611be357611be2611108565b5b6000611bf184828501611bb8565b91505092915050565b7f5361666545524332303a204552433230206f7065726174696f6e20646964206e60008201527f6f74207375636365656400000000000000000000000000000000000000000000602082015250565b6000611c56602a8361137d565b9150611c6182611bfa565b604082019050919050565b60006020820190508181036000830152611c8581611c49565b9050919050565b7f416464726573733a20696e73756666696369656e742062616c616e636520666f60008201527f722063616c6c0000000000000000000000000000000000000000000000000000602082015250565b6000611ce860268361137d565b9150611cf382611c8c565b604082019050919050565b60006020820190508181036000830152611d1781611cdb565b9050919050565b7f416464726573733a2063616c6c20746f206e6f6e2d636f6e7472616374000000600082015250565b6000611d54601d8361137d565b9150611d5f82611d1e565b602082019050919050565b60006020820190508181036000830152611d8381611d47565b9050919050565b600081519050919050565b600081905092915050565b60005b83811015611dbe578082015181840152602081019050611da3565b83811115611dcd576000848401525b50505050565b6000611dde82611d8a565b611de88185611d95565b9350611df8818560208601611da0565b80840191505092915050565b6000611e108284611dd3565b915081905092915050565b600081519050919050565b6000601f19601f8301169050919050565b6000611e4282611e1b565b611e4c818561137d565b9350611e5c818560208601611da0565b611e6581611e26565b840191505092915050565b60006020820190508181036000830152611e8a8184611e37565b90509291505056fea264697066735822122005bc148a8ac1c8f8c748ef491b5344a30ef5f786bc81e9306e4bcc597c16447e64736f6c634300080b0033",
					"opcodes": "PUSH1 0x80 PUSH1 0x40 MSTORE CALLVALUE DUP1 ISZERO PUSH3 0x11 JUMPI PUSH1 0x0 DUP1 REVERT JUMPDEST POP PUSH1 0x40 MLOAD PUSH3 0x2199 CODESIZE SUB DUP1 PUSH3 0x2199 DUP4 CODECOPY DUP2 DUP2 ADD PUSH1 0x40 MSTORE DUP2 ADD SWAP1 PUSH3 0x37 SWAP2 SWAP1 PUSH3 0x1E6 JUMP JUMPDEST CALLER PUSH1 0x0 PUSH1 0x1 PUSH2 0x100 EXP DUP2 SLOAD DUP2 PUSH20 0xFFFFFFFFFFFFFFFFFFFFFFFFFFFFFFFFFFFFFFFF MUL NOT AND SWAP1 DUP4 PUSH20 0xFFFFFFFFFFFFFFFFFFFFFFFFFFFFFFFFFFFFFFFF AND MUL OR SWAP1 SSTORE POP PUSH1 0x0 PUSH1 0x2 PUSH1 0x0 PUSH2 0x100 EXP DUP2 SLOAD DUP2 PUSH1 0xFF MUL NOT AND SWAP1 DUP4 ISZERO ISZERO MUL OR SWAP1 SSTORE POP PUSH1 0x0 PUSH20 0xFFFFFFFFFFFFFFFFFFFFFFFFFFFFFFFFFFFFFFFF AND DUP2 PUSH20 0xFFFFFFFFFFFFFFFFFFFFFFFFFFFFFFFFFFFFFFFF AND EQ ISZERO PUSH3 0x106 JUMPI PUSH1 0x40 MLOAD PUSH32 0x8C379A000000000000000000000000000000000000000000000000000000000 DUP2 MSTORE PUSH1 0x4 ADD PUSH3 0xFD SWAP1 PUSH3 0x29F JUMP JUMPDEST PUSH1 0x40 MLOAD DUP1 SWAP2 SUB SWAP1 REVERT JUMPDEST DUP1 PUSH1 0x7 PUSH1 0x0 PUSH2 0x100 EXP DUP2 SLOAD DUP2 PUSH20 0xFFFFFFFFFFFFFFFFFFFFFFFFFFFFFFFFFFFFFFFF MUL NOT AND SWAP1 DUP4 PUSH20 0xFFFFFFFFFFFFFFFFFFFFFFFFFFFFFFFFFFFFFFFF AND MUL OR SWAP1 SSTORE POP PUSH1 0x0 DUP1 PUSH1 0x0 PUSH2 0x100 EXP DUP2 SLOAD DUP2 PUSH1 0xFF MUL NOT AND SWAP1 DUP4 ISZERO ISZERO MUL OR SWAP1 SSTORE POP POP PUSH3 0x2C1 JUMP JUMPDEST PUSH1 0x0 DUP1 REVERT JUMPDEST PUSH1 0x0 PUSH20 0xFFFFFFFFFFFFFFFFFFFFFFFFFFFFFFFFFFFFFFFF DUP3 AND SWAP1 POP SWAP2 SWAP1 POP JUMP JUMPDEST PUSH1 0x0 PUSH3 0x19A DUP3 PUSH3 0x16D JUMP JUMPDEST SWAP1 POP SWAP2 SWAP1 POP JUMP JUMPDEST PUSH1 0x0 PUSH3 0x1AE DUP3 PUSH3 0x18D JUMP JUMPDEST SWAP1 POP SWAP2 SWAP1 POP JUMP JUMPDEST PUSH3 0x1C0 DUP2 PUSH3 0x1A1 JUMP JUMPDEST DUP2 EQ PUSH3 0x1CC JUMPI PUSH1 0x0 DUP1 REVERT JUMPDEST POP JUMP JUMPDEST PUSH1 0x0 DUP2 MLOAD SWAP1 POP PUSH3 0x1E0 DUP2 PUSH3 0x1B5 JUMP JUMPDEST SWAP3 SWAP2 POP POP JUMP JUMPDEST PUSH1 0x0 PUSH1 0x20 DUP3 DUP5 SUB SLT ISZERO PUSH3 0x1FF JUMPI PUSH3 0x1FE PUSH3 0x168 JUMP JUMPDEST JUMPDEST PUSH1 0x0 PUSH3 0x20F DUP5 DUP3 DUP6 ADD PUSH3 0x1CF JUMP JUMPDEST SWAP2 POP POP SWAP3 SWAP2 POP POP JUMP JUMPDEST PUSH1 0x0 DUP3 DUP3 MSTORE PUSH1 0x20 DUP3 ADD SWAP1 POP SWAP3 SWAP2 POP POP JUMP JUMPDEST PUSH32 0x5F65726332305F636F6E74726163745F61646472657373206164647265737320 PUSH1 0x0 DUP3 ADD MSTORE PUSH32 0x63616E206E6F74206265207A65726F0000000000000000000000000000000000 PUSH1 0x20 DUP3 ADD MSTORE POP JUMP JUMPDEST PUSH1 0x0 PUSH3 0x287 PUSH1 0x2F DUP4 PUSH3 0x218 JUMP JUMPDEST SWAP2 POP PUSH3 0x294 DUP3 PUSH3 0x229 JUMP JUMPDEST PUSH1 0x40 DUP3 ADD SWAP1 POP SWAP2 SWAP1 POP JUMP JUMPDEST PUSH1 0x0 PUSH1 0x20 DUP3 ADD SWAP1 POP DUP2 DUP2 SUB PUSH1 0x0 DUP4 ADD MSTORE PUSH3 0x2BA DUP2 PUSH3 0x278 JUMP JUMPDEST SWAP1 POP SWAP2 SWAP1 POP JUMP JUMPDEST PUSH2 0x1EC8 DUP1 PUSH3 0x2D1 PUSH1 0x0 CODECOPY PUSH1 0x0 RETURN INVALID PUSH1 0x80 PUSH1 0x40 MSTORE CALLVALUE DUP1 ISZERO PUSH2 0x10 JUMPI PUSH1 0x0 DUP1 REVERT JUMPDEST POP PUSH1 0x4 CALLDATASIZE LT PUSH2 0xB4 JUMPI PUSH1 0x0 CALLDATALOAD PUSH1 0xE0 SHR DUP1 PUSH4 0x9AA2E39E GT PUSH2 0x71 JUMPI DUP1 PUSH4 0x9AA2E39E EQ PUSH2 0x17B JUMPI DUP1 PUSH4 0x9B69279A EQ PUSH2 0x1AB JUMPI DUP1 PUSH4 0xA0A2B573 EQ PUSH2 0x1C9 JUMPI DUP1 PUSH4 0xA8F6C913 EQ PUSH2 0x1E5 JUMPI DUP1 PUSH4 0xD6D14171 EQ PUSH2 0x203 JUMPI DUP1 PUSH4 0xE89A173E EQ PUSH2 0x221 JUMPI PUSH2 0xB4 JUMP JUMPDEST DUP1 PUSH4 0x27E235E3 EQ PUSH2 0xB9 JUMPI DUP1 PUSH4 0x3E79D1E1 EQ PUSH2 0xE9 JUMPI DUP1 PUSH4 0x3E994942 EQ PUSH2 0x107 JUMPI DUP1 PUSH4 0x79A83F5A EQ PUSH2 0x123 JUMPI DUP1 PUSH4 0x8B7AFE2E EQ PUSH2 0x13F JUMPI DUP1 PUSH4 0x8DA5CB5B EQ PUSH2 0x15D JUMPI JUMPDEST PUSH1 0x0 DUP1 REVERT JUMPDEST PUSH2 0xD3 PUSH1 0x4 DUP1 CALLDATASIZE SUB DUP2 ADD SWAP1 PUSH2 0xCE SWAP2 SWAP1 PUSH2 0x116B JUMP JUMPDEST PUSH2 0x23D JUMP JUMPDEST PUSH1 0x40 MLOAD PUSH2 0xE0 SWAP2 SWAP1 PUSH2 0x11B1 JUMP JUMPDEST PUSH1 0x40 MLOAD DUP1 SWAP2 SUB SWAP1 RETURN JUMPDEST PUSH2 0xF1 PUSH2 0x255 JUMP JUMPDEST PUSH1 0x40 MLOAD PUSH2 0xFE SWAP2 SWAP1 PUSH2 0x11B1 JUMP JUMPDEST PUSH1 0x40 MLOAD DUP1 SWAP2 SUB SWAP1 RETURN JUMPDEST PUSH2 0x121 PUSH1 0x4 DUP1 CALLDATASIZE SUB DUP2 ADD SWAP1 PUSH2 0x11C SWAP2 SWAP1 PUSH2 0x1236 JUMP JUMPDEST PUSH2 0x25B JUMP JUMPDEST STOP JUMPDEST PUSH2 0x13D PUSH1 0x4 DUP1 CALLDATASIZE SUB DUP2 ADD SWAP1 PUSH2 0x138 SWAP2 SWAP1 PUSH2 0x1236 JUMP JUMPDEST PUSH2 0x4BF JUMP JUMPDEST STOP JUMPDEST PUSH2 0x147 PUSH2 0x7E2 JUMP JUMPDEST PUSH1 0x40 MLOAD PUSH2 0x154 SWAP2 SWAP1 PUSH2 0x11B1 JUMP JUMPDEST PUSH1 0x40 MLOAD DUP1 SWAP2 SUB SWAP1 RETURN JUMPDEST PUSH2 0x165 PUSH2 0x7E8 JUMP JUMPDEST PUSH1 0x40 MLOAD PUSH2 0x172 SWAP2 SWAP1 PUSH2 0x1285 JUMP JUMPDEST PUSH1 0x40 MLOAD DUP1 SWAP2 SUB SWAP1 RETURN JUMPDEST PUSH2 0x195 PUSH1 0x4 DUP1 CALLDATASIZE SUB DUP2 ADD SWAP1 PUSH2 0x190 SWAP2 SWAP1 PUSH2 0x116B JUMP JUMPDEST PUSH2 0x80E JUMP JUMPDEST PUSH1 0x40 MLOAD PUSH2 0x1A2 SWAP2 SWAP1 PUSH2 0x11B1 JUMP JUMPDEST PUSH1 0x40 MLOAD DUP1 SWAP2 SUB SWAP1 RETURN JUMPDEST PUSH2 0x1B3 PUSH2 0x826 JUMP JUMPDEST PUSH1 0x40 MLOAD PUSH2 0x1C0 SWAP2 SWAP1 PUSH2 0x12BB JUMP JUMPDEST PUSH1 0x40 MLOAD DUP1 SWAP2 SUB SWAP1 RETURN JUMPDEST PUSH2 0x1E3 PUSH1 0x4 DUP1 CALLDATASIZE SUB DUP2 ADD SWAP1 PUSH2 0x1DE SWAP2 SWAP1 PUSH2 0x12D6 JUMP JUMPDEST PUSH2 0x839 JUMP JUMPDEST STOP JUMPDEST PUSH2 0x1ED PUSH2 0x95F JUMP JUMPDEST PUSH1 0x40 MLOAD PUSH2 0x1FA SWAP2 SWAP1 PUSH2 0x1362 JUMP JUMPDEST PUSH1 0x40 MLOAD DUP1 SWAP2 SUB SWAP1 RETURN JUMPDEST PUSH2 0x20B PUSH2 0x985 JUMP JUMPDEST PUSH1 0x40 MLOAD PUSH2 0x218 SWAP2 SWAP1 PUSH2 0x11B1 JUMP JUMPDEST PUSH1 0x40 MLOAD DUP1 SWAP2 SUB SWAP1 RETURN JUMPDEST PUSH2 0x23B PUSH1 0x4 DUP1 CALLDATASIZE SUB DUP2 ADD SWAP1 PUSH2 0x236 SWAP2 SWAP1 PUSH2 0x1236 JUMP JUMPDEST PUSH2 0x98B JUMP JUMPDEST STOP JUMPDEST PUSH1 0x5 PUSH1 0x20 MSTORE DUP1 PUSH1 0x0 MSTORE PUSH1 0x40 PUSH1 0x0 KECCAK256 PUSH1 0x0 SWAP2 POP SWAP1 POP SLOAD DUP2 JUMP JUMPDEST PUSH1 0x3 SLOAD DUP2 JUMP JUMPDEST PUSH1 0x0 PUSH1 0x1 SWAP1 SLOAD SWAP1 PUSH2 0x100 EXP SWAP1 DIV PUSH20 0xFFFFFFFFFFFFFFFFFFFFFFFFFFFFFFFFFFFFFFFF AND PUSH20 0xFFFFFFFFFFFFFFFFFFFFFFFFFFFFFFFFFFFFFFFF AND CALLER PUSH20 0xFFFFFFFFFFFFFFFFFFFFFFFFFFFFFFFFFFFFFFFF AND EQ PUSH2 0x2EB JUMPI PUSH1 0x40 MLOAD PUSH32 0x8C379A000000000000000000000000000000000000000000000000000000000 DUP2 MSTORE PUSH1 0x4 ADD PUSH2 0x2E2 SWAP1 PUSH2 0x1400 JUMP JUMPDEST PUSH1 0x40 MLOAD DUP1 SWAP2 SUB SWAP1 REVERT JUMPDEST PUSH1 0x0 DUP1 SLOAD SWAP1 PUSH2 0x100 EXP SWAP1 DIV PUSH1 0xFF AND ISZERO PUSH2 0x339 JUMPI PUSH1 0x40 MLOAD PUSH32 0x8C379A000000000000000000000000000000000000000000000000000000000 DUP2 MSTORE PUSH1 0x4 ADD PUSH2 0x330 SWAP1 PUSH2 0x146C JUMP JUMPDEST PUSH1 0x40 MLOAD DUP1 SWAP2 SUB SWAP1 REVERT JUMPDEST PUSH1 0x1 PUSH1 0x0 DUP1 PUSH2 0x100 EXP DUP2 SLOAD DUP2 PUSH1 0xFF MUL NOT AND SWAP1 DUP4 ISZERO ISZERO MUL OR SWAP1 SSTORE POP PUSH1 0x0 PUSH20 0xFFFFFFFFFFFFFFFFFFFFFFFFFFFFFFFFFFFFFFFF AND DUP3 PUSH20 0xFFFFFFFFFFFFFFFFFFFFFFFFFFFFFFFFFFFFFFFF AND EQ ISZERO PUSH2 0x3C3 JUMPI PUSH1 0x40 MLOAD PUSH32 0x8C379A000000000000000000000000000000000000000000000000000000000 DUP2 MSTORE PUSH1 0x4 ADD PUSH2 0x3BA SWAP1 PUSH2 0x14D8 JUMP JUMPDEST PUSH1 0x40 MLOAD DUP1 SWAP2 SUB SWAP1 REVERT JUMPDEST PUSH1 0x7 PUSH1 0x0 SWAP1 SLOAD SWAP1 PUSH2 0x100 EXP SWAP1 DIV PUSH20 0xFFFFFFFFFFFFFFFFFFFFFFFFFFFFFFFFFFFFFFFF AND PUSH20 0xFFFFFFFFFFFFFFFFFFFFFFFFFFFFFFFFFFFFFFFF AND DUP3 PUSH20 0xFFFFFFFFFFFFFFFFFFFFFFFFFFFFFFFFFFFFFFFF AND EQ ISZERO PUSH2 0x454 JUMPI PUSH1 0x40 MLOAD PUSH32 0x8C379A000000000000000000000000000000000000000000000000000000000 DUP2 MSTORE PUSH1 0x4 ADD PUSH2 0x44B SWAP1 PUSH2 0x1590 JUMP JUMPDEST PUSH1 0x40 MLOAD DUP1 SWAP2 SUB SWAP1 REVERT JUMPDEST PUSH2 0x4A1 PUSH1 0x0 PUSH1 0x1 SWAP1 SLOAD SWAP1 PUSH2 0x100 EXP SWAP1 DIV PUSH20 0xFFFFFFFFFFFFFFFFFFFFFFFFFFFFFFFFFFFFFFFF AND DUP3 DUP5 PUSH20 0xFFFFFFFFFFFFFFFFFFFFFFFFFFFFFFFFFFFFFFFF AND PUSH2 0xD50 SWAP1 SWAP3 SWAP2 SWAP1 PUSH4 0xFFFFFFFF AND JUMP JUMPDEST PUSH1 0x0 DUP1 PUSH1 0x0 PUSH2 0x100 EXP DUP2 SLOAD DUP2 PUSH1 0xFF MUL NOT AND SWAP1 DUP4 ISZERO ISZERO MUL OR SWAP1 SSTORE POP POP POP JUMP JUMPDEST PUSH1 0x1 ISZERO ISZERO PUSH1 0x2 PUSH1 0x0 SWAP1 SLOAD SWAP1 PUSH2 0x100 EXP SWAP1 DIV PUSH1 0xFF AND ISZERO ISZERO EQ PUSH2 0x515 JUMPI PUSH1 0x40 MLOAD PUSH32 0x8C379A000000000000000000000000000000000000000000000000000000000 DUP2 MSTORE PUSH1 0x4 ADD PUSH2 0x50C SWAP1 PUSH2 0x1622 JUMP JUMPDEST PUSH1 0x40 MLOAD DUP1 SWAP2 SUB SWAP1 REVERT JUMPDEST PUSH1 0x0 DUP1 SLOAD SWAP1 PUSH2 0x100 EXP SWAP1 DIV PUSH1 0xFF AND ISZERO PUSH2 0x563 JUMPI PUSH1 0x40 MLOAD PUSH32 0x8C379A000000000000000000000000000000000000000000000000000000000 DUP2 MSTORE PUSH1 0x4 ADD PUSH2 0x55A SWAP1 PUSH2 0x146C JUMP JUMPDEST PUSH1 0x40 MLOAD DUP1 SWAP2 SUB SWAP1 REVERT JUMPDEST PUSH1 0x1 PUSH1 0x0 DUP1 PUSH2 0x100 EXP DUP2 SLOAD DUP2 PUSH1 0xFF MUL NOT AND SWAP1 DUP4 ISZERO ISZERO MUL OR SWAP1 SSTORE POP PUSH1 0x7 PUSH1 0x0 SWAP1 SLOAD SWAP1 PUSH2 0x100 EXP SWAP1 DIV PUSH20 0xFFFFFFFFFFFFFFFFFFFFFFFFFFFFFFFFFFFFFFFF AND PUSH20 0xFFFFFFFFFFFFFFFFFFFFFFFFFFFFFFFFFFFFFFFF AND DUP3 PUSH20 0xFFFFFFFFFFFFFFFFFFFFFFFFFFFFFFFFFFFFFFFF AND EQ PUSH2 0x60D JUMPI PUSH1 0x40 MLOAD PUSH32 0x8C379A000000000000000000000000000000000000000000000000000000000 DUP2 MSTORE PUSH1 0x4 ADD PUSH2 0x604 SWAP1 PUSH2 0x1700 JUMP JUMPDEST PUSH1 0x40 MLOAD DUP1 SWAP2 SUB SWAP1 REVERT JUMPDEST DUP2 PUSH20 0xFFFFFFFFFFFFFFFFFFFFFFFFFFFFFFFFFFFFFFFF AND PUSH4 0x70A08231 CALLER PUSH1 0x40 MLOAD DUP3 PUSH4 0xFFFFFFFF AND PUSH1 0xE0 SHL DUP2 MSTORE PUSH1 0x4 ADD PUSH2 0x646 SWAP2 SWAP1 PUSH2 0x1285 JUMP JUMPDEST PUSH1 0x20 PUSH1 0x40 MLOAD DUP1 DUP4 SUB DUP2 DUP7 GAS STATICCALL ISZERO DUP1 ISZERO PUSH2 0x663 JUMPI RETURNDATASIZE PUSH1 0x0 DUP1 RETURNDATACOPY RETURNDATASIZE PUSH1 0x0 REVERT JUMPDEST POP POP POP POP PUSH1 0x40 MLOAD RETURNDATASIZE PUSH1 0x1F NOT PUSH1 0x1F DUP3 ADD AND DUP3 ADD DUP1 PUSH1 0x40 MSTORE POP DUP2 ADD SWAP1 PUSH2 0x687 SWAP2 SWAP1 PUSH2 0x1735 JUMP JUMPDEST DUP2 GT ISZERO PUSH2 0x6C9 JUMPI PUSH1 0x40 MLOAD PUSH32 0x8C379A000000000000000000000000000000000000000000000000000000000 DUP2 MSTORE PUSH1 0x4 ADD PUSH2 0x6C0 SWAP1 PUSH2 0x17D4 JUMP JUMPDEST PUSH1 0x40 MLOAD DUP1 SWAP2 SUB SWAP1 REVERT JUMPDEST PUSH2 0x6F6 CALLER ADDRESS DUP4 DUP6 PUSH20 0xFFFFFFFFFFFFFFFFFFFFFFFFFFFFFFFFFFFFFFFF AND PUSH2 0xDD6 SWAP1 SWAP4 SWAP3 SWAP2 SWAP1 PUSH4 0xFFFFFFFF AND JUMP JUMPDEST PUSH2 0x748 DUP2 PUSH1 0x5 PUSH1 0x0 CALLER PUSH20 0xFFFFFFFFFFFFFFFFFFFFFFFFFFFFFFFFFFFFFFFF AND PUSH20 0xFFFFFFFFFFFFFFFFFFFFFFFFFFFFFFFFFFFFFFFF AND DUP2 MSTORE PUSH1 0x20 ADD SWAP1 DUP2 MSTORE PUSH1 0x20 ADD PUSH1 0x0 KECCAK256 SLOAD PUSH2 0xE5F SWAP1 SWAP2 SWAP1 PUSH4 0xFFFFFFFF AND JUMP JUMPDEST PUSH1 0x5 PUSH1 0x0 CALLER PUSH20 0xFFFFFFFFFFFFFFFFFFFFFFFFFFFFFFFFFFFFFFFF AND PUSH20 0xFFFFFFFFFFFFFFFFFFFFFFFFFFFFFFFFFFFFFFFF AND DUP2 MSTORE PUSH1 0x20 ADD SWAP1 DUP2 MSTORE PUSH1 0x20 ADD PUSH1 0x0 KECCAK256 DUP2 SWAP1 SSTORE POP PUSH32 0xE5CFEEB5FCB96C1C52A55137C15E7F46D34D100D256C5396EFC087C43D2FDE4B CALLER DUP3 PUSH1 0x40 MLOAD PUSH2 0x7BC SWAP3 SWAP2 SWAP1 PUSH2 0x17F4 JUMP JUMPDEST PUSH1 0x40 MLOAD DUP1 SWAP2 SUB SWAP1 LOG1 PUSH1 0x0 DUP1 PUSH1 0x0 PUSH2 0x100 EXP DUP2 SLOAD DUP2 PUSH1 0xFF MUL NOT AND SWAP1 DUP4 ISZERO ISZERO MUL OR SWAP1 SSTORE POP POP POP JUMP JUMPDEST PUSH1 0x6 SLOAD DUP2 JUMP JUMPDEST PUSH1 0x0 PUSH1 0x1 SWAP1 SLOAD SWAP1 PUSH2 0x100 EXP SWAP1 DIV PUSH20 0xFFFFFFFFFFFFFFFFFFFFFFFFFFFFFFFFFFFFFFFF AND DUP2 JUMP JUMPDEST PUSH1 0x4 PUSH1 0x20 MSTORE DUP1 PUSH1 0x0 MSTORE PUSH1 0x40 PUSH1 0x0 KECCAK256 PUSH1 0x0 SWAP2 POP SWAP1 POP SLOAD DUP2 JUMP JUMPDEST PUSH1 0x2 PUSH1 0x0 SWAP1 SLOAD SWAP1 PUSH2 0x100 EXP SWAP1 DIV PUSH1 0xFF AND DUP2 JUMP JUMPDEST PUSH1 0x0 PUSH1 0x1 SWAP1 SLOAD SWAP1 PUSH2 0x100 EXP SWAP1 DIV PUSH20 0xFFFFFFFFFFFFFFFFFFFFFFFFFFFFFFFFFFFFFFFF AND PUSH20 0xFFFFFFFFFFFFFFFFFFFFFFFFFFFFFFFFFFFFFFFF AND CALLER PUSH20 0xFFFFFFFFFFFFFFFFFFFFFFFFFFFFFFFFFFFFFFFF AND EQ PUSH2 0x8C9 JUMPI PUSH1 0x40 MLOAD PUSH32 0x8C379A000000000000000000000000000000000000000000000000000000000 DUP2 MSTORE PUSH1 0x4 ADD PUSH2 0x8C0 SWAP1 PUSH2 0x1400 JUMP JUMPDEST PUSH1 0x40 MLOAD DUP1 SWAP2 SUB SWAP1 REVERT JUMPDEST PUSH1 0x0 ISZERO ISZERO PUSH1 0x2 PUSH1 0x0 SWAP1 SLOAD SWAP1 PUSH2 0x100 EXP SWAP1 DIV PUSH1 0xFF AND ISZERO ISZERO EQ PUSH2 0x91F JUMPI PUSH1 0x40 MLOAD PUSH32 0x8C379A000000000000000000000000000000000000000000000000000000000 DUP2 MSTORE PUSH1 0x4 ADD PUSH2 0x916 SWAP1 PUSH2 0x188F JUMP JUMPDEST PUSH1 0x40 MLOAD DUP1 SWAP2 SUB SWAP1 REVERT JUMPDEST PUSH1 0x1 PUSH1 0x2 PUSH1 0x0 PUSH2 0x100 EXP DUP2 SLOAD DUP2 PUSH1 0xFF MUL NOT AND SWAP1 DUP4 ISZERO ISZERO MUL OR SWAP1 SSTORE POP TIMESTAMP PUSH1 0x1 DUP2 SWAP1 SSTORE POP PUSH2 0x956 DUP2 PUSH1 0x1 SLOAD PUSH2 0xE5F SWAP1 SWAP2 SWAP1 PUSH4 0xFFFFFFFF AND JUMP JUMPDEST PUSH1 0x3 DUP2 SWAP1 SSTORE POP POP JUMP JUMPDEST PUSH1 0x7 PUSH1 0x0 SWAP1 SLOAD SWAP1 PUSH2 0x100 EXP SWAP1 DIV PUSH20 0xFFFFFFFFFFFFFFFFFFFFFFFFFFFFFFFFFFFFFFFF AND DUP2 JUMP JUMPDEST PUSH1 0x1 SLOAD DUP2 JUMP JUMPDEST PUSH1 0x1 ISZERO ISZERO PUSH1 0x2 PUSH1 0x0 SWAP1 SLOAD SWAP1 PUSH2 0x100 EXP SWAP1 DIV PUSH1 0xFF AND ISZERO ISZERO EQ PUSH2 0x9E1 JUMPI PUSH1 0x40 MLOAD PUSH32 0x8C379A000000000000000000000000000000000000000000000000000000000 DUP2 MSTORE PUSH1 0x4 ADD PUSH2 0x9D8 SWAP1 PUSH2 0x1622 JUMP JUMPDEST PUSH1 0x40 MLOAD DUP1 SWAP2 SUB SWAP1 REVERT JUMPDEST PUSH1 0x0 DUP1 SLOAD SWAP1 PUSH2 0x100 EXP SWAP1 DIV PUSH1 0xFF AND ISZERO PUSH2 0xA2F JUMPI PUSH1 0x40 MLOAD PUSH32 0x8C379A000000000000000000000000000000000000000000000000000000000 DUP2 MSTORE PUSH1 0x4 ADD PUSH2 0xA26 SWAP1 PUSH2 0x146C JUMP JUMPDEST PUSH1 0x40 MLOAD DUP1 SWAP2 SUB SWAP1 REVERT JUMPDEST PUSH1 0x1 PUSH1 0x0 DUP1 PUSH2 0x100 EXP DUP2 SLOAD DUP2 PUSH1 0xFF MUL NOT AND SWAP1 DUP4 ISZERO ISZERO MUL OR SWAP1 SSTORE POP DUP1 PUSH1 0x5 PUSH1 0x0 CALLER PUSH20 0xFFFFFFFFFFFFFFFFFFFFFFFFFFFFFFFFFFFFFFFF AND PUSH20 0xFFFFFFFFFFFFFFFFFFFFFFFFFFFFFFFFFFFFFFFF AND DUP2 MSTORE PUSH1 0x20 ADD SWAP1 DUP2 MSTORE PUSH1 0x20 ADD PUSH1 0x0 KECCAK256 SLOAD LT ISZERO PUSH2 0xACB JUMPI PUSH1 0x40 MLOAD PUSH32 0x8C379A000000000000000000000000000000000000000000000000000000000 DUP2 MSTORE PUSH1 0x4 ADD PUSH2 0xAC2 SWAP1 PUSH2 0x1921 JUMP JUMPDEST PUSH1 0x40 MLOAD DUP1 SWAP2 SUB SWAP1 REVERT JUMPDEST PUSH1 0x7 PUSH1 0x0 SWAP1 SLOAD SWAP1 PUSH2 0x100 EXP SWAP1 DIV PUSH20 0xFFFFFFFFFFFFFFFFFFFFFFFFFFFFFFFFFFFFFFFF AND PUSH20 0xFFFFFFFFFFFFFFFFFFFFFFFFFFFFFFFFFFFFFFFF AND DUP3 PUSH20 0xFFFFFFFFFFFFFFFFFFFFFFFFFFFFFFFFFFFFFFFF AND EQ PUSH2 0xB5B JUMPI PUSH1 0x40 MLOAD PUSH32 0x8C379A000000000000000000000000000000000000000000000000000000000 DUP2 MSTORE PUSH1 0x4 ADD PUSH2 0xB52 SWAP1 PUSH2 0x19FF JUMP JUMPDEST PUSH1 0x40 MLOAD DUP1 SWAP2 SUB SWAP1 REVERT JUMPDEST PUSH1 0x3 SLOAD TIMESTAMP LT PUSH2 0xCF7 JUMPI PUSH2 0xBB6 DUP2 PUSH1 0x4 PUSH1 0x0 CALLER PUSH20 0xFFFFFFFFFFFFFFFFFFFFFFFFFFFFFFFFFFFFFFFF AND PUSH20 0xFFFFFFFFFFFFFFFFFFFFFFFFFFFFFFFFFFFFFFFF AND DUP2 MSTORE PUSH1 0x20 ADD SWAP1 DUP2 MSTORE PUSH1 0x20 ADD PUSH1 0x0 KECCAK256 SLOAD PUSH2 0xE5F SWAP1 SWAP2 SWAP1 PUSH4 0xFFFFFFFF AND JUMP JUMPDEST PUSH1 0x4 PUSH1 0x0 CALLER PUSH20 0xFFFFFFFFFFFFFFFFFFFFFFFFFFFFFFFFFFFFFFFF AND PUSH20 0xFFFFFFFFFFFFFFFFFFFFFFFFFFFFFFFFFFFFFFFF AND DUP2 MSTORE PUSH1 0x20 ADD SWAP1 DUP2 MSTORE PUSH1 0x20 ADD PUSH1 0x0 KECCAK256 DUP2 SWAP1 SSTORE POP PUSH2 0xC4B DUP2 PUSH1 0x5 PUSH1 0x0 CALLER PUSH20 0xFFFFFFFFFFFFFFFFFFFFFFFFFFFFFFFFFFFFFFFF AND PUSH20 0xFFFFFFFFFFFFFFFFFFFFFFFFFFFFFFFFFFFFFFFF AND DUP2 MSTORE PUSH1 0x20 ADD SWAP1 DUP2 MSTORE PUSH1 0x20 ADD PUSH1 0x0 KECCAK256 SLOAD PUSH2 0xE75 SWAP1 SWAP2 SWAP1 PUSH4 0xFFFFFFFF AND JUMP JUMPDEST PUSH1 0x5 PUSH1 0x0 CALLER PUSH20 0xFFFFFFFFFFFFFFFFFFFFFFFFFFFFFFFFFFFFFFFF AND PUSH20 0xFFFFFFFFFFFFFFFFFFFFFFFFFFFFFFFFFFFFFFFF AND DUP2 MSTORE PUSH1 0x20 ADD SWAP1 DUP2 MSTORE PUSH1 0x20 ADD PUSH1 0x0 KECCAK256 DUP2 SWAP1 SSTORE POP PUSH2 0xCB9 CALLER DUP3 DUP5 PUSH20 0xFFFFFFFFFFFFFFFFFFFFFFFFFFFFFFFFFFFFFFFF AND PUSH2 0xD50 SWAP1 SWAP3 SWAP2 SWAP1 PUSH4 0xFFFFFFFF AND JUMP JUMPDEST PUSH32 0x9845E367B683334E5C0B12D7B81721AC518E649376FA65E3D68324E8F34F2679 CALLER DUP3 PUSH1 0x40 MLOAD PUSH2 0xCEA SWAP3 SWAP2 SWAP1 PUSH2 0x17F4 JUMP JUMPDEST PUSH1 0x40 MLOAD DUP1 SWAP2 SUB SWAP1 LOG1 PUSH2 0xD32 JUMP JUMPDEST PUSH1 0x40 MLOAD PUSH32 0x8C379A000000000000000000000000000000000000000000000000000000000 DUP2 MSTORE PUSH1 0x4 ADD PUSH2 0xD29 SWAP1 PUSH2 0x1A91 JUMP JUMPDEST PUSH1 0x40 MLOAD DUP1 SWAP2 SUB SWAP1 REVERT JUMPDEST PUSH1 0x0 DUP1 PUSH1 0x0 PUSH2 0x100 EXP DUP2 SLOAD DUP2 PUSH1 0xFF MUL NOT AND SWAP1 DUP4 ISZERO ISZERO MUL OR SWAP1 SSTORE POP POP POP JUMP JUMPDEST PUSH2 0xDD1 DUP4 PUSH4 0xA9059CBB PUSH1 0xE0 SHL DUP5 DUP5 PUSH1 0x40 MLOAD PUSH1 0x24 ADD PUSH2 0xD6F SWAP3 SWAP2 SWAP1 PUSH2 0x17F4 JUMP JUMPDEST PUSH1 0x40 MLOAD PUSH1 0x20 DUP2 DUP4 SUB SUB DUP2 MSTORE SWAP1 PUSH1 0x40 MSTORE SWAP1 PUSH28 0xFFFFFFFFFFFFFFFFFFFFFFFFFFFFFFFFFFFFFFFFFFFFFFFFFFFFFFFF NOT AND PUSH1 0x20 DUP3 ADD DUP1 MLOAD PUSH28 0xFFFFFFFFFFFFFFFFFFFFFFFFFFFFFFFFFFFFFFFFFFFFFFFFFFFFFFFF DUP4 DUP2 DUP4 AND OR DUP4 MSTORE POP POP POP POP PUSH2 0xE8B JUMP JUMPDEST POP POP POP JUMP JUMPDEST PUSH2 0xE59 DUP5 PUSH4 0x23B872DD PUSH1 0xE0 SHL DUP6 DUP6 DUP6 PUSH1 0x40 MLOAD PUSH1 0x24 ADD PUSH2 0xDF7 SWAP4 SWAP3 SWAP2 SWAP1 PUSH2 0x1AB1 JUMP JUMPDEST PUSH1 0x40 MLOAD PUSH1 0x20 DUP2 DUP4 SUB SUB DUP2 MSTORE SWAP1 PUSH1 0x40 MSTORE SWAP1 PUSH28 0xFFFFFFFFFFFFFFFFFFFFFFFFFFFFFFFFFFFFFFFFFFFFFFFFFFFFFFFF NOT AND PUSH1 0x20 DUP3 ADD DUP1 MLOAD PUSH28 0xFFFFFFFFFFFFFFFFFFFFFFFFFFFFFFFFFFFFFFFFFFFFFFFFFFFFFFFF DUP4 DUP2 DUP4 AND OR DUP4 MSTORE POP POP POP POP PUSH2 0xE8B JUMP JUMPDEST POP POP POP POP JUMP JUMPDEST PUSH1 0x0 DUP2 DUP4 PUSH2 0xE6D SWAP2 SWAP1 PUSH2 0x1B17 JUMP JUMPDEST SWAP1 POP SWAP3 SWAP2 POP POP JUMP JUMPDEST PUSH1 0x0 DUP2 DUP4 PUSH2 0xE83 SWAP2 SWAP1 PUSH2 0x1B6D JUMP JUMPDEST SWAP1 POP SWAP3 SWAP2 POP POP JUMP JUMPDEST PUSH1 0x0 PUSH2 0xEED DUP3 PUSH1 0x40 MLOAD DUP1 PUSH1 0x40 ADD PUSH1 0x40 MSTORE DUP1 PUSH1 0x20 DUP2 MSTORE PUSH1 0x20 ADD PUSH32 0x5361666545524332303A206C6F772D6C6576656C2063616C6C206661696C6564 DUP2 MSTORE POP DUP6 PUSH20 0xFFFFFFFFFFFFFFFFFFFFFFFFFFFFFFFFFFFFFFFF AND PUSH2 0xF52 SWAP1 SWAP3 SWAP2 SWAP1 PUSH4 0xFFFFFFFF AND JUMP JUMPDEST SWAP1 POP PUSH1 0x0 DUP2 MLOAD GT ISZERO PUSH2 0xF4D JUMPI DUP1 DUP1 PUSH1 0x20 ADD SWAP1 MLOAD DUP2 ADD SWAP1 PUSH2 0xF0D SWAP2 SWAP1 PUSH2 0x1BCD JUMP JUMPDEST PUSH2 0xF4C JUMPI PUSH1 0x40 MLOAD PUSH32 0x8C379A000000000000000000000000000000000000000000000000000000000 DUP2 MSTORE PUSH1 0x4 ADD PUSH2 0xF43 SWAP1 PUSH2 0x1C6C JUMP JUMPDEST PUSH1 0x40 MLOAD DUP1 SWAP2 SUB SWAP1 REVERT JUMPDEST JUMPDEST POP POP POP JUMP JUMPDEST PUSH1 0x60 PUSH2 0xF61 DUP5 DUP5 PUSH1 0x0 DUP6 PUSH2 0xF6A JUMP JUMPDEST SWAP1 POP SWAP4 SWAP3 POP POP POP JUMP JUMPDEST PUSH1 0x60 DUP3 SELFBALANCE LT ISZERO PUSH2 0xFAF JUMPI PUSH1 0x40 MLOAD PUSH32 0x8C379A000000000000000000000000000000000000000000000000000000000 DUP2 MSTORE PUSH1 0x4 ADD PUSH2 0xFA6 SWAP1 PUSH2 0x1CFE JUMP JUMPDEST PUSH1 0x40 MLOAD DUP1 SWAP2 SUB SWAP1 REVERT JUMPDEST PUSH2 0xFB8 DUP6 PUSH2 0x107E JUMP JUMPDEST PUSH2 0xFF7 JUMPI PUSH1 0x40 MLOAD PUSH32 0x8C379A000000000000000000000000000000000000000000000000000000000 DUP2 MSTORE PUSH1 0x4 ADD PUSH2 0xFEE SWAP1 PUSH2 0x1D6A JUMP JUMPDEST PUSH1 0x40 MLOAD DUP1 SWAP2 SUB SWAP1 REVERT JUMPDEST PUSH1 0x0 DUP1 DUP7 PUSH20 0xFFFFFFFFFFFFFFFFFFFFFFFFFFFFFFFFFFFFFFFF AND DUP6 DUP8 PUSH1 0x40 MLOAD PUSH2 0x1020 SWAP2 SWAP1 PUSH2 0x1E04 JUMP JUMPDEST PUSH1 0x0 PUSH1 0x40 MLOAD DUP1 DUP4 SUB DUP2 DUP6 DUP8 GAS CALL SWAP3 POP POP POP RETURNDATASIZE DUP1 PUSH1 0x0 DUP2 EQ PUSH2 0x105D JUMPI PUSH1 0x40 MLOAD SWAP2 POP PUSH1 0x1F NOT PUSH1 0x3F RETURNDATASIZE ADD AND DUP3 ADD PUSH1 0x40 MSTORE RETURNDATASIZE DUP3 MSTORE RETURNDATASIZE PUSH1 0x0 PUSH1 0x20 DUP5 ADD RETURNDATACOPY PUSH2 0x1062 JUMP JUMPDEST PUSH1 0x60 SWAP2 POP JUMPDEST POP SWAP2 POP SWAP2 POP PUSH2 0x1072 DUP3 DUP3 DUP7 PUSH2 0x10A1 JUMP JUMPDEST SWAP3 POP POP POP SWAP5 SWAP4 POP POP POP POP JUMP JUMPDEST PUSH1 0x0 DUP1 DUP3 PUSH20 0xFFFFFFFFFFFFFFFFFFFFFFFFFFFFFFFFFFFFFFFF AND EXTCODESIZE GT SWAP1 POP SWAP2 SWAP1 POP JUMP JUMPDEST PUSH1 0x60 DUP4 ISZERO PUSH2 0x10B1 JUMPI DUP3 SWAP1 POP PUSH2 0x1101 JUMP JUMPDEST PUSH1 0x0 DUP4 MLOAD GT ISZERO PUSH2 0x10C4 JUMPI DUP3 MLOAD DUP1 DUP5 PUSH1 0x20 ADD REVERT JUMPDEST DUP2 PUSH1 0x40 MLOAD PUSH32 0x8C379A000000000000000000000000000000000000000000000000000000000 DUP2 MSTORE PUSH1 0x4 ADD PUSH2 0x10F8 SWAP2 SWAP1 PUSH2 0x1E70 JUMP JUMPDEST PUSH1 0x40 MLOAD DUP1 SWAP2 SUB SWAP1 REVERT JUMPDEST SWAP4 SWAP3 POP POP POP JUMP JUMPDEST PUSH1 0x0 DUP1 REVERT JUMPDEST PUSH1 0x0 PUSH20 0xFFFFFFFFFFFFFFFFFFFFFFFFFFFFFFFFFFFFFFFF DUP3 AND SWAP1 POP SWAP2 SWAP1 POP JUMP JUMPDEST PUSH1 0x0 PUSH2 0x1138 DUP3 PUSH2 0x110D JUMP JUMPDEST SWAP1 POP SWAP2 SWAP1 POP JUMP JUMPDEST PUSH2 0x1148 DUP2 PUSH2 0x112D JUMP JUMPDEST DUP2 EQ PUSH2 0x1153 JUMPI PUSH1 0x0 DUP1 REVERT JUMPDEST POP JUMP JUMPDEST PUSH1 0x0 DUP2 CALLDATALOAD SWAP1 POP PUSH2 0x1165 DUP2 PUSH2 0x113F JUMP JUMPDEST SWAP3 SWAP2 POP POP JUMP JUMPDEST PUSH1 0x0 PUSH1 0x20 DUP3 DUP5 SUB SLT ISZERO PUSH2 0x1181 JUMPI PUSH2 0x1180 PUSH2 0x1108 JUMP JUMPDEST JUMPDEST PUSH1 0x0 PUSH2 0x118F DUP5 DUP3 DUP6 ADD PUSH2 0x1156 JUMP JUMPDEST SWAP2 POP POP SWAP3 SWAP2 POP POP JUMP JUMPDEST PUSH1 0x0 DUP2 SWAP1 POP SWAP2 SWAP1 POP JUMP JUMPDEST PUSH2 0x11AB DUP2 PUSH2 0x1198 JUMP JUMPDEST DUP3 MSTORE POP POP JUMP JUMPDEST PUSH1 0x0 PUSH1 0x20 DUP3 ADD SWAP1 POP PUSH2 0x11C6 PUSH1 0x0 DUP4 ADD DUP5 PUSH2 0x11A2 JUMP JUMPDEST SWAP3 SWAP2 POP POP JUMP JUMPDEST PUSH1 0x0 PUSH2 0x11D7 DUP3 PUSH2 0x112D JUMP JUMPDEST SWAP1 POP SWAP2 SWAP1 POP JUMP JUMPDEST PUSH2 0x11E7 DUP2 PUSH2 0x11CC JUMP JUMPDEST DUP2 EQ PUSH2 0x11F2 JUMPI PUSH1 0x0 DUP1 REVERT JUMPDEST POP JUMP JUMPDEST PUSH1 0x0 DUP2 CALLDATALOAD SWAP1 POP PUSH2 0x1204 DUP2 PUSH2 0x11DE JUMP JUMPDEST SWAP3 SWAP2 POP POP JUMP JUMPDEST PUSH2 0x1213 DUP2 PUSH2 0x1198 JUMP JUMPDEST DUP2 EQ PUSH2 0x121E JUMPI PUSH1 0x0 DUP1 REVERT JUMPDEST POP JUMP JUMPDEST PUSH1 0x0 DUP2 CALLDATALOAD SWAP1 POP PUSH2 0x1230 DUP2 PUSH2 0x120A JUMP JUMPDEST SWAP3 SWAP2 POP POP JUMP JUMPDEST PUSH1 0x0 DUP1 PUSH1 0x40 DUP4 DUP6 SUB SLT ISZERO PUSH2 0x124D JUMPI PUSH2 0x124C PUSH2 0x1108 JUMP JUMPDEST JUMPDEST PUSH1 0x0 PUSH2 0x125B DUP6 DUP3 DUP7 ADD PUSH2 0x11F5 JUMP JUMPDEST SWAP3 POP POP PUSH1 0x20 PUSH2 0x126C DUP6 DUP3 DUP7 ADD PUSH2 0x1221 JUMP JUMPDEST SWAP2 POP POP SWAP3 POP SWAP3 SWAP1 POP JUMP JUMPDEST PUSH2 0x127F DUP2 PUSH2 0x112D JUMP JUMPDEST DUP3 MSTORE POP POP JUMP JUMPDEST PUSH1 0x0 PUSH1 0x20 DUP3 ADD SWAP1 POP PUSH2 0x129A PUSH1 0x0 DUP4 ADD DUP5 PUSH2 0x1276 JUMP JUMPDEST SWAP3 SWAP2 POP POP JUMP JUMPDEST PUSH1 0x0 DUP2 ISZERO ISZERO SWAP1 POP SWAP2 SWAP1 POP JUMP JUMPDEST PUSH2 0x12B5 DUP2 PUSH2 0x12A0 JUMP JUMPDEST DUP3 MSTORE POP POP JUMP JUMPDEST PUSH1 0x0 PUSH1 0x20 DUP3 ADD SWAP1 POP PUSH2 0x12D0 PUSH1 0x0 DUP4 ADD DUP5 PUSH2 0x12AC JUMP JUMPDEST SWAP3 SWAP2 POP POP JUMP JUMPDEST PUSH1 0x0 PUSH1 0x20 DUP3 DUP5 SUB SLT ISZERO PUSH2 0x12EC JUMPI PUSH2 0x12EB PUSH2 0x1108 JUMP JUMPDEST JUMPDEST PUSH1 0x0 PUSH2 0x12FA DUP5 DUP3 DUP6 ADD PUSH2 0x1221 JUMP JUMPDEST SWAP2 POP POP SWAP3 SWAP2 POP POP JUMP JUMPDEST PUSH1 0x0 DUP2 SWAP1 POP SWAP2 SWAP1 POP JUMP JUMPDEST PUSH1 0x0 PUSH2 0x1328 PUSH2 0x1323 PUSH2 0x131E DUP5 PUSH2 0x110D JUMP JUMPDEST PUSH2 0x1303 JUMP JUMPDEST PUSH2 0x110D JUMP JUMPDEST SWAP1 POP SWAP2 SWAP1 POP JUMP JUMPDEST PUSH1 0x0 PUSH2 0x133A DUP3 PUSH2 0x130D JUMP JUMPDEST SWAP1 POP SWAP2 SWAP1 POP JUMP JUMPDEST PUSH1 0x0 PUSH2 0x134C DUP3 PUSH2 0x132F JUMP JUMPDEST SWAP1 POP SWAP2 SWAP1 POP JUMP JUMPDEST PUSH2 0x135C DUP2 PUSH2 0x1341 JUMP JUMPDEST DUP3 MSTORE POP POP JUMP JUMPDEST PUSH1 0x0 PUSH1 0x20 DUP3 ADD SWAP1 POP PUSH2 0x1377 PUSH1 0x0 DUP4 ADD DUP5 PUSH2 0x1353 JUMP JUMPDEST SWAP3 SWAP2 POP POP JUMP JUMPDEST PUSH1 0x0 DUP3 DUP3 MSTORE PUSH1 0x20 DUP3 ADD SWAP1 POP SWAP3 SWAP2 POP POP JUMP JUMPDEST PUSH32 0x4D6573736167652073656E646572206D7573742062652074686520636F6E7472 PUSH1 0x0 DUP3 ADD MSTORE PUSH32 0x6163742773206F776E65722E0000000000000000000000000000000000000000 PUSH1 0x20 DUP3 ADD MSTORE POP JUMP JUMPDEST PUSH1 0x0 PUSH2 0x13EA PUSH1 0x2C DUP4 PUSH2 0x137D JUMP JUMPDEST SWAP2 POP PUSH2 0x13F5 DUP3 PUSH2 0x138E JUMP JUMPDEST PUSH1 0x40 DUP3 ADD SWAP1 POP SWAP2 SWAP1 POP JUMP JUMPDEST PUSH1 0x0 PUSH1 0x20 DUP3 ADD SWAP1 POP DUP2 DUP2 SUB PUSH1 0x0 DUP4 ADD MSTORE PUSH2 0x1419 DUP2 PUSH2 0x13DD JUMP JUMPDEST SWAP1 POP SWAP2 SWAP1 POP JUMP JUMPDEST PUSH32 0x4E6F2072652D656E7472616E6379000000000000000000000000000000000000 PUSH1 0x0 DUP3 ADD MSTORE POP JUMP JUMPDEST PUSH1 0x0 PUSH2 0x1456 PUSH1 0xE DUP4 PUSH2 0x137D JUMP JUMPDEST SWAP2 POP PUSH2 0x1461 DUP3 PUSH2 0x1420 JUMP JUMPDEST PUSH1 0x20 DUP3 ADD SWAP1 POP SWAP2 SWAP1 POP JUMP JUMPDEST PUSH1 0x0 PUSH1 0x20 DUP3 ADD SWAP1 POP DUP2 DUP2 SUB PUSH1 0x0 DUP4 ADD MSTORE PUSH2 0x1485 DUP2 PUSH2 0x1449 JUMP JUMPDEST SWAP1 POP SWAP2 SWAP1 POP JUMP JUMPDEST PUSH32 0x546F6B656E20616464726573732063616E206E6F74206265207A65726F000000 PUSH1 0x0 DUP3 ADD MSTORE POP JUMP JUMPDEST PUSH1 0x0 PUSH2 0x14C2 PUSH1 0x1D DUP4 PUSH2 0x137D JUMP JUMPDEST SWAP2 POP PUSH2 0x14CD DUP3 PUSH2 0x148C JUMP JUMPDEST PUSH1 0x20 DUP3 ADD SWAP1 POP SWAP2 SWAP1 POP JUMP JUMPDEST PUSH1 0x0 PUSH1 0x20 DUP3 ADD SWAP1 POP DUP2 DUP2 SUB PUSH1 0x0 DUP4 ADD MSTORE PUSH2 0x14F1 DUP2 PUSH2 0x14B5 JUMP JUMPDEST SWAP1 POP SWAP2 SWAP1 POP JUMP JUMPDEST PUSH32 0x546F6B656E20616464726573732063616E206E6F742062652045524332302061 PUSH1 0x0 DUP3 ADD MSTORE PUSH32 0x646472657373207768696368207761732070617373656420696E746F20746865 PUSH1 0x20 DUP3 ADD MSTORE PUSH32 0x20636F6E7374727563746F720000000000000000000000000000000000000000 PUSH1 0x40 DUP3 ADD MSTORE POP JUMP JUMPDEST PUSH1 0x0 PUSH2 0x157A PUSH1 0x4C DUP4 PUSH2 0x137D JUMP JUMPDEST SWAP2 POP PUSH2 0x1585 DUP3 PUSH2 0x14F8 JUMP JUMPDEST PUSH1 0x60 DUP3 ADD SWAP1 POP SWAP2 SWAP1 POP JUMP JUMPDEST PUSH1 0x0 PUSH1 0x20 DUP3 ADD SWAP1 POP DUP2 DUP2 SUB PUSH1 0x0 DUP4 ADD MSTORE PUSH2 0x15A9 DUP2 PUSH2 0x156D JUMP JUMPDEST SWAP1 POP SWAP2 SWAP1 POP JUMP JUMPDEST PUSH32 0x506C6561736520736574207468652074696D65207374616D702066697273742C PUSH1 0x0 DUP3 ADD MSTORE PUSH32 0x207468656E2074727920616761696E2E00000000000000000000000000000000 PUSH1 0x20 DUP3 ADD MSTORE POP JUMP JUMPDEST PUSH1 0x0 PUSH2 0x160C PUSH1 0x30 DUP4 PUSH2 0x137D JUMP JUMPDEST SWAP2 POP PUSH2 0x1617 DUP3 PUSH2 0x15B0 JUMP JUMPDEST PUSH1 0x40 DUP3 ADD SWAP1 POP SWAP2 SWAP1 POP JUMP JUMPDEST PUSH1 0x0 PUSH1 0x20 DUP3 ADD SWAP1 POP DUP2 DUP2 SUB PUSH1 0x0 DUP4 ADD MSTORE PUSH2 0x163B DUP2 PUSH2 0x15FF JUMP JUMPDEST SWAP1 POP SWAP2 SWAP1 POP JUMP JUMPDEST PUSH32 0x596F7520617265206F6E6C7920616C6C6F77656420746F207374616B65207468 PUSH1 0x0 DUP3 ADD MSTORE PUSH32 0x65206F6666696369616C20657263323020746F6B656E20616464726573732077 PUSH1 0x20 DUP3 ADD MSTORE PUSH32 0x68696368207761732070617373656420696E746F207468697320636F6E747261 PUSH1 0x40 DUP3 ADD MSTORE PUSH32 0x6374277320636F6E7374727563746F7200000000000000000000000000000000 PUSH1 0x60 DUP3 ADD MSTORE POP JUMP JUMPDEST PUSH1 0x0 PUSH2 0x16EA PUSH1 0x70 DUP4 PUSH2 0x137D JUMP JUMPDEST SWAP2 POP PUSH2 0x16F5 DUP3 PUSH2 0x1642 JUMP JUMPDEST PUSH1 0x80 DUP3 ADD SWAP1 POP SWAP2 SWAP1 POP JUMP JUMPDEST PUSH1 0x0 PUSH1 0x20 DUP3 ADD SWAP1 POP DUP2 DUP2 SUB PUSH1 0x0 DUP4 ADD MSTORE PUSH2 0x1719 DUP2 PUSH2 0x16DD JUMP JUMPDEST SWAP1 POP SWAP2 SWAP1 POP JUMP JUMPDEST PUSH1 0x0 DUP2 MLOAD SWAP1 POP PUSH2 0x172F DUP2 PUSH2 0x120A JUMP JUMPDEST SWAP3 SWAP2 POP POP JUMP JUMPDEST PUSH1 0x0 PUSH1 0x20 DUP3 DUP5 SUB SLT ISZERO PUSH2 0x174B JUMPI PUSH2 0x174A PUSH2 0x1108 JUMP JUMPDEST JUMPDEST PUSH1 0x0 PUSH2 0x1759 DUP5 DUP3 DUP6 ADD PUSH2 0x1720 JUMP JUMPDEST SWAP2 POP POP SWAP3 SWAP2 POP POP JUMP JUMPDEST PUSH32 0x4E6F7420656E6F75676820535441544520746F6B656E7320696E20796F757220 PUSH1 0x0 DUP3 ADD MSTORE PUSH32 0x77616C6C65742C20706C6561736520747279206C657373657220616D6F756E74 PUSH1 0x20 DUP3 ADD MSTORE POP JUMP JUMPDEST PUSH1 0x0 PUSH2 0x17BE PUSH1 0x40 DUP4 PUSH2 0x137D JUMP JUMPDEST SWAP2 POP PUSH2 0x17C9 DUP3 PUSH2 0x1762 JUMP JUMPDEST PUSH1 0x40 DUP3 ADD SWAP1 POP SWAP2 SWAP1 POP JUMP JUMPDEST PUSH1 0x0 PUSH1 0x20 DUP3 ADD SWAP1 POP DUP2 DUP2 SUB PUSH1 0x0 DUP4 ADD MSTORE PUSH2 0x17ED DUP2 PUSH2 0x17B1 JUMP JUMPDEST SWAP1 POP SWAP2 SWAP1 POP JUMP JUMPDEST PUSH1 0x0 PUSH1 0x40 DUP3 ADD SWAP1 POP PUSH2 0x1809 PUSH1 0x0 DUP4 ADD DUP6 PUSH2 0x1276 JUMP JUMPDEST PUSH2 0x1816 PUSH1 0x20 DUP4 ADD DUP5 PUSH2 0x11A2 JUMP JUMPDEST SWAP4 SWAP3 POP POP POP JUMP JUMPDEST PUSH32 0x5468652074696D65207374616D702068617320616C7265616479206265656E20 PUSH1 0x0 DUP3 ADD MSTORE PUSH32 0x7365742E00000000000000000000000000000000000000000000000000000000 PUSH1 0x20 DUP3 ADD MSTORE POP JUMP JUMPDEST PUSH1 0x0 PUSH2 0x1879 PUSH1 0x24 DUP4 PUSH2 0x137D JUMP JUMPDEST SWAP2 POP PUSH2 0x1884 DUP3 PUSH2 0x181D JUMP JUMPDEST PUSH1 0x40 DUP3 ADD SWAP1 POP SWAP2 SWAP1 POP JUMP JUMPDEST PUSH1 0x0 PUSH1 0x20 DUP3 ADD SWAP1 POP DUP2 DUP2 SUB PUSH1 0x0 DUP4 ADD MSTORE PUSH2 0x18A8 DUP2 PUSH2 0x186C JUMP JUMPDEST SWAP1 POP SWAP2 SWAP1 POP JUMP JUMPDEST PUSH32 0x496E73756666696369656E7420746F6B656E2062616C616E63652C2074727920 PUSH1 0x0 DUP3 ADD MSTORE PUSH32 0x6C657373657220616D6F756E7400000000000000000000000000000000000000 PUSH1 0x20 DUP3 ADD MSTORE POP JUMP JUMPDEST PUSH1 0x0 PUSH2 0x190B PUSH1 0x2D DUP4 PUSH2 0x137D JUMP JUMPDEST SWAP2 POP PUSH2 0x1916 DUP3 PUSH2 0x18AF JUMP JUMPDEST PUSH1 0x40 DUP3 ADD SWAP1 POP SWAP2 SWAP1 POP JUMP JUMPDEST PUSH1 0x0 PUSH1 0x20 DUP3 ADD SWAP1 POP DUP2 DUP2 SUB PUSH1 0x0 DUP4 ADD MSTORE PUSH2 0x193A DUP2 PUSH2 0x18FE JUMP JUMPDEST SWAP1 POP SWAP2 SWAP1 POP JUMP JUMPDEST PUSH32 0x546F6B656E20706172616D65746572206D757374206265207468652073616D65 PUSH1 0x0 DUP3 ADD MSTORE PUSH32 0x2061732074686520657263323020636F6E747261637420616464726573732077 PUSH1 0x20 DUP3 ADD MSTORE PUSH32 0x68696368207761732070617373656420696E746F2074686520636F6E73747275 PUSH1 0x40 DUP3 ADD MSTORE PUSH32 0x63746F7200000000000000000000000000000000000000000000000000000000 PUSH1 0x60 DUP3 ADD MSTORE POP JUMP JUMPDEST PUSH1 0x0 PUSH2 0x19E9 PUSH1 0x64 DUP4 PUSH2 0x137D JUMP JUMPDEST SWAP2 POP PUSH2 0x19F4 DUP3 PUSH2 0x1941 JUMP JUMPDEST PUSH1 0x80 DUP3 ADD SWAP1 POP SWAP2 SWAP1 POP JUMP JUMPDEST PUSH1 0x0 PUSH1 0x20 DUP3 ADD SWAP1 POP DUP2 DUP2 SUB PUSH1 0x0 DUP4 ADD MSTORE PUSH2 0x1A18 DUP2 PUSH2 0x19DC JUMP JUMPDEST SWAP1 POP SWAP2 SWAP1 POP JUMP JUMPDEST PUSH32 0x546F6B656E7320617265206F6E6C7920617661696C61626C6520616674657220 PUSH1 0x0 DUP3 ADD MSTORE PUSH32 0x636F72726563742074696D6520706572696F642068617320656C617073656400 PUSH1 0x20 DUP3 ADD MSTORE POP JUMP JUMPDEST PUSH1 0x0 PUSH2 0x1A7B PUSH1 0x3F DUP4 PUSH2 0x137D JUMP JUMPDEST SWAP2 POP PUSH2 0x1A86 DUP3 PUSH2 0x1A1F JUMP JUMPDEST PUSH1 0x40 DUP3 ADD SWAP1 POP SWAP2 SWAP1 POP JUMP JUMPDEST PUSH1 0x0 PUSH1 0x20 DUP3 ADD SWAP1 POP DUP2 DUP2 SUB PUSH1 0x0 DUP4 ADD MSTORE PUSH2 0x1AAA DUP2 PUSH2 0x1A6E JUMP JUMPDEST SWAP1 POP SWAP2 SWAP1 POP JUMP JUMPDEST PUSH1 0x0 PUSH1 0x60 DUP3 ADD SWAP1 POP PUSH2 0x1AC6 PUSH1 0x0 DUP4 ADD DUP7 PUSH2 0x1276 JUMP JUMPDEST PUSH2 0x1AD3 PUSH1 0x20 DUP4 ADD DUP6 PUSH2 0x1276 JUMP JUMPDEST PUSH2 0x1AE0 PUSH1 0x40 DUP4 ADD DUP5 PUSH2 0x11A2 JUMP JUMPDEST SWAP5 SWAP4 POP POP POP POP JUMP JUMPDEST PUSH32 0x4E487B7100000000000000000000000000000000000000000000000000000000 PUSH1 0x0 MSTORE PUSH1 0x11 PUSH1 0x4 MSTORE PUSH1 0x24 PUSH1 0x0 REVERT JUMPDEST PUSH1 0x0 PUSH2 0x1B22 DUP3 PUSH2 0x1198 JUMP JUMPDEST SWAP2 POP PUSH2 0x1B2D DUP4 PUSH2 0x1198 JUMP JUMPDEST SWAP3 POP DUP3 PUSH32 0xFFFFFFFFFFFFFFFFFFFFFFFFFFFFFFFFFFFFFFFFFFFFFFFFFFFFFFFFFFFFFFFF SUB DUP3 GT ISZERO PUSH2 0x1B62 JUMPI PUSH2 0x1B61 PUSH2 0x1AE8 JUMP JUMPDEST JUMPDEST DUP3 DUP3 ADD SWAP1 POP SWAP3 SWAP2 POP POP JUMP JUMPDEST PUSH1 0x0 PUSH2 0x1B78 DUP3 PUSH2 0x1198 JUMP JUMPDEST SWAP2 POP PUSH2 0x1B83 DUP4 PUSH2 0x1198 JUMP JUMPDEST SWAP3 POP DUP3 DUP3 LT ISZERO PUSH2 0x1B96 JUMPI PUSH2 0x1B95 PUSH2 0x1AE8 JUMP JUMPDEST JUMPDEST DUP3 DUP3 SUB SWAP1 POP SWAP3 SWAP2 POP POP JUMP JUMPDEST PUSH2 0x1BAA DUP2 PUSH2 0x12A0 JUMP JUMPDEST DUP2 EQ PUSH2 0x1BB5 JUMPI PUSH1 0x0 DUP1 REVERT JUMPDEST POP JUMP JUMPDEST PUSH1 0x0 DUP2 MLOAD SWAP1 POP PUSH2 0x1BC7 DUP2 PUSH2 0x1BA1 JUMP JUMPDEST SWAP3 SWAP2 POP POP JUMP JUMPDEST PUSH1 0x0 PUSH1 0x20 DUP3 DUP5 SUB SLT ISZERO PUSH2 0x1BE3 JUMPI PUSH2 0x1BE2 PUSH2 0x1108 JUMP JUMPDEST JUMPDEST PUSH1 0x0 PUSH2 0x1BF1 DUP5 DUP3 DUP6 ADD PUSH2 0x1BB8 JUMP JUMPDEST SWAP2 POP POP SWAP3 SWAP2 POP POP JUMP JUMPDEST PUSH32 0x5361666545524332303A204552433230206F7065726174696F6E20646964206E PUSH1 0x0 DUP3 ADD MSTORE PUSH32 0x6F74207375636365656400000000000000000000000000000000000000000000 PUSH1 0x20 DUP3 ADD MSTORE POP JUMP JUMPDEST PUSH1 0x0 PUSH2 0x1C56 PUSH1 0x2A DUP4 PUSH2 0x137D JUMP JUMPDEST SWAP2 POP PUSH2 0x1C61 DUP3 PUSH2 0x1BFA JUMP JUMPDEST PUSH1 0x40 DUP3 ADD SWAP1 POP SWAP2 SWAP1 POP JUMP JUMPDEST PUSH1 0x0 PUSH1 0x20 DUP3 ADD SWAP1 POP DUP2 DUP2 SUB PUSH1 0x0 DUP4 ADD MSTORE PUSH2 0x1C85 DUP2 PUSH2 0x1C49 JUMP JUMPDEST SWAP1 POP SWAP2 SWAP1 POP JUMP JUMPDEST PUSH32 0x416464726573733A20696E73756666696369656E742062616C616E636520666F PUSH1 0x0 DUP3 ADD MSTORE PUSH32 0x722063616C6C0000000000000000000000000000000000000000000000000000 PUSH1 0x20 DUP3 ADD MSTORE POP JUMP JUMPDEST PUSH1 0x0 PUSH2 0x1CE8 PUSH1 0x26 DUP4 PUSH2 0x137D JUMP JUMPDEST SWAP2 POP PUSH2 0x1CF3 DUP3 PUSH2 0x1C8C JUMP JUMPDEST PUSH1 0x40 DUP3 ADD SWAP1 POP SWAP2 SWAP1 POP JUMP JUMPDEST PUSH1 0x0 PUSH1 0x20 DUP3 ADD SWAP1 POP DUP2 DUP2 SUB PUSH1 0x0 DUP4 ADD MSTORE PUSH2 0x1D17 DUP2 PUSH2 0x1CDB JUMP JUMPDEST SWAP1 POP SWAP2 SWAP1 POP JUMP JUMPDEST PUSH32 0x416464726573733A2063616C6C20746F206E6F6E2D636F6E7472616374000000 PUSH1 0x0 DUP3 ADD MSTORE POP JUMP JUMPDEST PUSH1 0x0 PUSH2 0x1D54 PUSH1 0x1D DUP4 PUSH2 0x137D JUMP JUMPDEST SWAP2 POP PUSH2 0x1D5F DUP3 PUSH2 0x1D1E JUMP JUMPDEST PUSH1 0x20 DUP3 ADD SWAP1 POP SWAP2 SWAP1 POP JUMP JUMPDEST PUSH1 0x0 PUSH1 0x20 DUP3 ADD SWAP1 POP DUP2 DUP2 SUB PUSH1 0x0 DUP4 ADD MSTORE PUSH2 0x1D83 DUP2 PUSH2 0x1D47 JUMP JUMPDEST SWAP1 POP SWAP2 SWAP1 POP JUMP JUMPDEST PUSH1 0x0 DUP2 MLOAD SWAP1 POP SWAP2 SWAP1 POP JUMP JUMPDEST PUSH1 0x0 DUP2 SWAP1 POP SWAP3 SWAP2 POP POP JUMP JUMPDEST PUSH1 0x0 JUMPDEST DUP4 DUP2 LT ISZERO PUSH2 0x1DBE JUMPI DUP1 DUP3 ADD MLOAD DUP2 DUP5 ADD MSTORE PUSH1 0x20 DUP2 ADD SWAP1 POP PUSH2 0x1DA3 JUMP JUMPDEST DUP4 DUP2 GT ISZERO PUSH2 0x1DCD JUMPI PUSH1 0x0 DUP5 DUP5 ADD MSTORE JUMPDEST POP POP POP POP JUMP JUMPDEST PUSH1 0x0 PUSH2 0x1DDE DUP3 PUSH2 0x1D8A JUMP JUMPDEST PUSH2 0x1DE8 DUP2 DUP6 PUSH2 0x1D95 JUMP JUMPDEST SWAP4 POP PUSH2 0x1DF8 DUP2 DUP6 PUSH1 0x20 DUP7 ADD PUSH2 0x1DA0 JUMP JUMPDEST DUP1 DUP5 ADD SWAP2 POP POP SWAP3 SWAP2 POP POP JUMP JUMPDEST PUSH1 0x0 PUSH2 0x1E10 DUP3 DUP5 PUSH2 0x1DD3 JUMP JUMPDEST SWAP2 POP DUP2 SWAP1 POP SWAP3 SWAP2 POP POP JUMP JUMPDEST PUSH1 0x0 DUP2 MLOAD SWAP1 POP SWAP2 SWAP1 POP JUMP JUMPDEST PUSH1 0x0 PUSH1 0x1F NOT PUSH1 0x1F DUP4 ADD AND SWAP1 POP SWAP2 SWAP1 POP JUMP JUMPDEST PUSH1 0x0 PUSH2 0x1E42 DUP3 PUSH2 0x1E1B JUMP JUMPDEST PUSH2 0x1E4C DUP2 DUP6 PUSH2 0x137D JUMP JUMPDEST SWAP4 POP PUSH2 0x1E5C DUP2 DUP6 PUSH1 0x20 DUP7 ADD PUSH2 0x1DA0 JUMP JUMPDEST PUSH2 0x1E65 DUP2 PUSH2 0x1E26 JUMP JUMPDEST DUP5 ADD SWAP2 POP POP SWAP3 SWAP2 POP POP JUMP JUMPDEST PUSH1 0x0 PUSH1 0x20 DUP3 ADD SWAP1 POP DUP2 DUP2 SUB PUSH1 0x0 DUP4 ADD MSTORE PUSH2 0x1E8A DUP2 DUP5 PUSH2 0x1E37 JUMP JUMPDEST SWAP1 POP SWAP3 SWAP2 POP POP JUMP INVALID LOG2 PUSH5 0x6970667358 0x22 SLT KECCAK256 SDIV 0xBC EQ DUP11 DUP11 0xC1 0xC8 0xF8 0xC7 BASEFEE 0xEF 0x49 SHL MSTORE8 DIFFICULTY LOG3 0xE CREATE2 0xF7 DUP7 0xBC DUP2 0xE9 ADDRESS PUSH15 0x4BCC597C16447E64736F6C63430008 SIGNEXTEND STOP CALLER "
				},
				"gasEstimates": {
					"creation": {
						"codeDepositCost": "1576000",
						"executionCost": "infinite",
						"totalCost": "infinite"
					},
					"external": {
						"alreadyWithdrawn(address)": "2814",
						"balances(address)": "2815",
						"contractBalance()": "2518",
						"erc20Contract()": "infinite",
						"initialTimestamp()": "2517",
						"owner()": "2675",
						"setTimestamp(uint256)": "infinite",
						"stakeTokens(address,uint256)": "infinite",
						"timePeriod()": "2452",
						"timestampSet()": "2493",
						"transferAccidentallyLockedTokens(address,uint256)": "infinite",
						"unstakeTokens(address,uint256)": "infinite"
					}
				},
				"methodIdentifiers": {
					"alreadyWithdrawn(address)": "9aa2e39e",
					"balances(address)": "27e235e3",
					"contractBalance()": "8b7afe2e",
					"erc20Contract()": "a8f6c913",
					"initialTimestamp()": "d6d14171",
					"owner()": "8da5cb5b",
					"setTimestamp(uint256)": "a0a2b573",
					"stakeTokens(address,uint256)": "79a83f5a",
					"timePeriod()": "3e79d1e1",
					"timestampSet()": "9b69279a",
					"transferAccidentallyLockedTokens(address,uint256)": "3e994942",
					"unstakeTokens(address,uint256)": "e89a173e"
				}
			},
			"storageLayout": {
				"storage": [
					{
						"astId": 602,
						"contract": "contracts/Test_1/SimpleStaking.sol:SimpleStaking",
						"label": "locked",
						"offset": 0,
						"slot": "0",
						"type": "t_bool"
					},
					{
						"astId": 611,
						"contract": "contracts/Test_1/SimpleStaking.sol:SimpleStaking",
						"label": "owner",
						"offset": 1,
						"slot": "0",
						"type": "t_address"
					},
					{
						"astId": 613,
						"contract": "contracts/Test_1/SimpleStaking.sol:SimpleStaking",
						"label": "initialTimestamp",
						"offset": 0,
						"slot": "1",
						"type": "t_uint256"
					},
					{
						"astId": 615,
						"contract": "contracts/Test_1/SimpleStaking.sol:SimpleStaking",
						"label": "timestampSet",
						"offset": 0,
						"slot": "2",
						"type": "t_bool"
					},
					{
						"astId": 617,
						"contract": "contracts/Test_1/SimpleStaking.sol:SimpleStaking",
						"label": "timePeriod",
						"offset": 0,
						"slot": "3",
						"type": "t_uint256"
					},
					{
						"astId": 621,
						"contract": "contracts/Test_1/SimpleStaking.sol:SimpleStaking",
						"label": "alreadyWithdrawn",
						"offset": 0,
						"slot": "4",
						"type": "t_mapping(t_address,t_uint256)"
					},
					{
						"astId": 625,
						"contract": "contracts/Test_1/SimpleStaking.sol:SimpleStaking",
						"label": "balances",
						"offset": 0,
						"slot": "5",
						"type": "t_mapping(t_address,t_uint256)"
					},
					{
						"astId": 627,
						"contract": "contracts/Test_1/SimpleStaking.sol:SimpleStaking",
						"label": "contractBalance",
						"offset": 0,
						"slot": "6",
						"type": "t_uint256"
					},
					{
						"astId": 630,
						"contract": "contracts/Test_1/SimpleStaking.sol:SimpleStaking",
						"label": "erc20Contract",
						"offset": 0,
						"slot": "7",
						"type": "t_contract(IERC20)77"
					}
				],
				"types": {
					"t_address": {
						"encoding": "inplace",
						"label": "address",
						"numberOfBytes": "20"
					},
					"t_bool": {
						"encoding": "inplace",
						"label": "bool",
						"numberOfBytes": "1"
					},
					"t_contract(IERC20)77": {
						"encoding": "inplace",
						"label": "contract IERC20",
						"numberOfBytes": "20"
					},
					"t_mapping(t_address,t_uint256)": {
						"encoding": "mapping",
						"key": "t_address",
						"label": "mapping(address => uint256)",
						"numberOfBytes": "32",
						"value": "t_uint256"
					},
					"t_uint256": {
						"encoding": "inplace",
						"label": "uint256",
						"numberOfBytes": "32"
					}
				}
			},
			"userdoc": {
				"kind": "user",
				"methods": {},
				"version": 1
			}
		}
	}
}