{
	"contracts/LooksRare/TokenSplitter.sol": {
		"TokenSplitter": {
			"abi": [
				{
					"inputs": [
						{
							"internalType": "address[]",
							"name": "_accounts",
							"type": "address[]"
						},
						{
							"internalType": "uint256[]",
							"name": "_shares",
							"type": "uint256[]"
						},
						{
							"internalType": "address",
							"name": "_TestToken",
							"type": "address"
						}
					],
					"stateMutability": "nonpayable",
					"type": "constructor"
				},
				{
					"anonymous": false,
					"inputs": [
						{
							"indexed": true,
							"internalType": "address",
							"name": "oldRecipient",
							"type": "address"
						},
						{
							"indexed": true,
							"internalType": "address",
							"name": "newRecipient",
							"type": "address"
						}
					],
					"name": "NewSharesOwner",
					"type": "event"
				},
				{
					"anonymous": false,
					"inputs": [
						{
							"indexed": true,
							"internalType": "address",
							"name": "previousOwner",
							"type": "address"
						},
						{
							"indexed": true,
							"internalType": "address",
							"name": "newOwner",
							"type": "address"
						}
					],
					"name": "OwnershipTransferred",
					"type": "event"
				},
				{
					"anonymous": false,
					"inputs": [
						{
							"indexed": true,
							"internalType": "address",
							"name": "account",
							"type": "address"
						},
						{
							"indexed": false,
							"internalType": "uint256",
							"name": "amount",
							"type": "uint256"
						}
					],
					"name": "TokensTransferred",
					"type": "event"
				},
				{
					"inputs": [],
					"name": "TOTAL_SHARES",
					"outputs": [
						{
							"internalType": "uint256",
							"name": "",
							"type": "uint256"
						}
					],
					"stateMutability": "view",
					"type": "function"
				},
				{
					"inputs": [
						{
							"internalType": "address",
							"name": "",
							"type": "address"
						}
					],
					"name": "accountInfo",
					"outputs": [
						{
							"internalType": "uint256",
							"name": "shares",
							"type": "uint256"
						},
						{
							"internalType": "uint256",
							"name": "tokensDistributedToAccount",
							"type": "uint256"
						}
					],
					"stateMutability": "view",
					"type": "function"
				},
				{
					"inputs": [
						{
							"internalType": "address",
							"name": "account",
							"type": "address"
						}
					],
					"name": "calculatePendingRewards",
					"outputs": [
						{
							"internalType": "uint256",
							"name": "",
							"type": "uint256"
						}
					],
					"stateMutability": "view",
					"type": "function"
				},
				{
					"inputs": [],
					"name": "owner",
					"outputs": [
						{
							"internalType": "address",
							"name": "",
							"type": "address"
						}
					],
					"stateMutability": "view",
					"type": "function"
				},
				{
					"inputs": [
						{
							"internalType": "address",
							"name": "account",
							"type": "address"
						}
					],
					"name": "releaseTokens",
					"outputs": [],
					"stateMutability": "nonpayable",
					"type": "function"
				},
				{
					"inputs": [],
					"name": "renounceOwnership",
					"outputs": [],
					"stateMutability": "nonpayable",
					"type": "function"
				},
				{
					"inputs": [],
					"name": "testToken",
					"outputs": [
						{
							"internalType": "contract IERC20",
							"name": "",
							"type": "address"
						}
					],
					"stateMutability": "view",
					"type": "function"
				},
				{
					"inputs": [],
					"name": "totalTokensDistributed",
					"outputs": [
						{
							"internalType": "uint256",
							"name": "",
							"type": "uint256"
						}
					],
					"stateMutability": "view",
					"type": "function"
				},
				{
					"inputs": [
						{
							"internalType": "address",
							"name": "newOwner",
							"type": "address"
						}
					],
					"name": "transferOwnership",
					"outputs": [],
					"stateMutability": "nonpayable",
					"type": "function"
				},
				{
					"inputs": [
						{
							"internalType": "address",
							"name": "_newRecipient",
							"type": "address"
						},
						{
							"internalType": "address",
							"name": "_currentRecipient",
							"type": "address"
						}
					],
					"name": "updateSharesOwner",
					"outputs": [],
					"stateMutability": "nonpayable",
					"type": "function"
				}
			],
			"devdoc": {
				"kind": "dev",
				"methods": {
					"calculatePendingRewards(address)": {
						"params": {
							"account": "address of the account"
						}
					},
					"constructor": {
						"params": {
							"_TestToken": "address of the LOOKS token",
							"_accounts": "array of accounts addresses",
							"_shares": "array of shares per account"
						}
					},
					"owner()": {
						"details": "Returns the address of the current owner."
					},
					"releaseTokens(address)": {
						"params": {
							"account": "address of the account"
						}
					},
					"renounceOwnership()": {
						"details": "Leaves the contract without owner. It will not be possible to call `onlyOwner` functions anymore. Can only be called by the current owner. NOTE: Renouncing ownership will leave the contract without an owner, thereby removing any functionality that is only available to the owner."
					},
					"transferOwnership(address)": {
						"details": "Transfers ownership of the contract to a new account (`newOwner`). Can only be called by the current owner."
					},
					"updateSharesOwner(address,address)": {
						"params": {
							"_currentRecipient": "address of the current recipient",
							"_newRecipient": "address of the new recipient"
						}
					}
				},
				"title": "TokenSplitter",
				"version": 1
			},
			"evm": {
				"assembly": "    /* \"contracts/LooksRare/TokenSplitter.sol\":438:4497  contract TokenSplitter is Ownable, ReentrancyGuard {... */\n  mstore(0x40, 0xc0)\n    /* \"contracts/LooksRare/TokenSplitter.sol\":1252:1887  constructor(... */\n  callvalue\n  dup1\n  iszero\n  tag_1\n  jumpi\n  0x00\n  dup1\n  revert\ntag_1:\n  pop\n  mload(0x40)\n  sub(codesize, bytecodeSize)\n  dup1\n  bytecodeSize\n  dup4\n  codecopy\n  dup2\n  dup2\n  add\n  0x40\n  mstore\n  dup2\n  add\n  swap1\n  tag_2\n  swap2\n  swap1\n  tag_3\n  jump\t// in\ntag_2:\n    /* \"@openzeppelin/contracts/access/Ownable.sol\":921:953  _transferOwnership(_msgSender()) */\n  tag_8\n    /* \"@openzeppelin/contracts/access/Ownable.sol\":940:952  _msgSender() */\n  tag_9\n    /* \"@openzeppelin/contracts/access/Ownable.sol\":940:950  _msgSender */\n  shl(0x20, tag_10)\n    /* \"@openzeppelin/contracts/access/Ownable.sol\":940:952  _msgSender() */\n  0x20\n  shr\n  jump\t// in\ntag_9:\n    /* \"@openzeppelin/contracts/access/Ownable.sol\":921:939  _transferOwnership */\n  shl(0x20, tag_11)\n    /* \"@openzeppelin/contracts/access/Ownable.sol\":921:953  _transferOwnership(_msgSender()) */\n  0x20\n  shr\n  jump\t// in\ntag_8:\n    /* \"@openzeppelin/contracts/security/ReentrancyGuard.sol\":1701:1702  1 */\n  0x01\n    /* \"@openzeppelin/contracts/security/ReentrancyGuard.sol\":1806:1813  _status */\n  dup1\n    /* \"@openzeppelin/contracts/security/ReentrancyGuard.sol\":1806:1828  _status = _NOT_ENTERED */\n  dup2\n  swap1\n  sstore\n  pop\n    /* \"contracts/LooksRare/TokenSplitter.sol\":1412:1419  _shares */\n  dup2\n    /* \"contracts/LooksRare/TokenSplitter.sol\":1412:1426  _shares.length */\n  mload\n    /* \"contracts/LooksRare/TokenSplitter.sol\":1392:1401  _accounts */\n  dup4\n    /* \"contracts/LooksRare/TokenSplitter.sol\":1392:1408  _accounts.length */\n  mload\n    /* \"contracts/LooksRare/TokenSplitter.sol\":1392:1426  _accounts.length == _shares.length */\n  eq\n    /* \"contracts/LooksRare/TokenSplitter.sol\":1384:1454  require(_accounts.length == _shares.length, \"Splitter: Length differ\") */\n  tag_14\n  jumpi\n  mload(0x40)\n  0x08c379a000000000000000000000000000000000000000000000000000000000\n  dup2\n  mstore\n  0x04\n  add\n  tag_15\n  swap1\n  tag_16\n  jump\t// in\ntag_15:\n  mload(0x40)\n  dup1\n  swap2\n  sub\n  swap1\n  revert\ntag_14:\n    /* \"contracts/LooksRare/TokenSplitter.sol\":1492:1493  0 */\n  0x00\n    /* \"contracts/LooksRare/TokenSplitter.sol\":1473:1482  _accounts */\n  dup4\n    /* \"contracts/LooksRare/TokenSplitter.sol\":1473:1489  _accounts.length */\n  mload\n    /* \"contracts/LooksRare/TokenSplitter.sol\":1473:1493  _accounts.length > 0 */\n  gt\n    /* \"contracts/LooksRare/TokenSplitter.sol\":1465:1526  require(_accounts.length > 0, \"Splitter: Length must be > 0\") */\n  tag_17\n  jumpi\n  mload(0x40)\n  0x08c379a000000000000000000000000000000000000000000000000000000000\n  dup2\n  mstore\n  0x04\n  add\n  tag_18\n  swap1\n  tag_19\n  jump\t// in\ntag_18:\n  mload(0x40)\n  dup1\n  swap2\n  sub\n  swap1\n  revert\ntag_17:\n    /* \"contracts/LooksRare/TokenSplitter.sol\":1539:1560  uint256 currentShares */\n  0x00\n    /* \"contracts/LooksRare/TokenSplitter.sol\":1578:1587  uint256 i */\n  dup1\n    /* \"contracts/LooksRare/TokenSplitter.sol\":1590:1591  0 */\n  0x00\n    /* \"contracts/LooksRare/TokenSplitter.sol\":1578:1591  uint256 i = 0 */\n  swap1\n  pop\n    /* \"contracts/LooksRare/TokenSplitter.sol\":1573:1800  for (uint256 i = 0; i < _accounts.length; i++) {... */\ntag_20:\n    /* \"contracts/LooksRare/TokenSplitter.sol\":1597:1606  _accounts */\n  dup5\n    /* \"contracts/LooksRare/TokenSplitter.sol\":1597:1613  _accounts.length */\n  mload\n    /* \"contracts/LooksRare/TokenSplitter.sol\":1593:1594  i */\n  dup2\n    /* \"contracts/LooksRare/TokenSplitter.sol\":1593:1613  i < _accounts.length */\n  lt\n    /* \"contracts/LooksRare/TokenSplitter.sol\":1573:1800  for (uint256 i = 0; i < _accounts.length; i++) {... */\n  iszero\n  tag_21\n  jumpi\n    /* \"contracts/LooksRare/TokenSplitter.sol\":1656:1657  0 */\n  0x00\n    /* \"contracts/LooksRare/TokenSplitter.sol\":1643:1650  _shares */\n  dup5\n    /* \"contracts/LooksRare/TokenSplitter.sol\":1651:1652  i */\n  dup3\n    /* \"contracts/LooksRare/TokenSplitter.sol\":1643:1653  _shares[i] */\n  dup2\n  mload\n  dup2\n  lt\n  tag_23\n  jumpi\n  tag_24\n  tag_25\n  jump\t// in\ntag_24:\ntag_23:\n  0x20\n  mul\n  0x20\n  add\n  add\n  mload\n    /* \"contracts/LooksRare/TokenSplitter.sol\":1643:1657  _shares[i] > 0 */\n  gt\n    /* \"contracts/LooksRare/TokenSplitter.sol\":1635:1684  require(_shares[i] > 0, \"Splitter: Shares are 0\") */\n  tag_26\n  jumpi\n  mload(0x40)\n  0x08c379a000000000000000000000000000000000000000000000000000000000\n  dup2\n  mstore\n  0x04\n  add\n  tag_27\n  swap1\n  tag_28\n  jump\t// in\ntag_27:\n  mload(0x40)\n  dup1\n  swap2\n  sub\n  swap1\n  revert\ntag_26:\n    /* \"contracts/LooksRare/TokenSplitter.sol\":1718:1725  _shares */\n  dup4\n    /* \"contracts/LooksRare/TokenSplitter.sol\":1726:1727  i */\n  dup2\n    /* \"contracts/LooksRare/TokenSplitter.sol\":1718:1728  _shares[i] */\n  dup2\n  mload\n  dup2\n  lt\n  tag_29\n  jumpi\n  tag_30\n  tag_25\n  jump\t// in\ntag_30:\ntag_29:\n  0x20\n  mul\n  0x20\n  add\n  add\n  mload\n    /* \"contracts/LooksRare/TokenSplitter.sol\":1701:1728  currentShares += _shares[i] */\n  dup3\n  tag_31\n  swap2\n  swap1\n  tag_32\n  jump\t// in\ntag_31:\n  swap2\n  pop\n    /* \"contracts/LooksRare/TokenSplitter.sol\":1778:1785  _shares */\n  dup4\n    /* \"contracts/LooksRare/TokenSplitter.sol\":1786:1787  i */\n  dup2\n    /* \"contracts/LooksRare/TokenSplitter.sol\":1778:1788  _shares[i] */\n  dup2\n  mload\n  dup2\n  lt\n  tag_33\n  jumpi\n  tag_34\n  tag_25\n  jump\t// in\ntag_34:\ntag_33:\n  0x20\n  mul\n  0x20\n  add\n  add\n  mload\n    /* \"contracts/LooksRare/TokenSplitter.sol\":1743:1754  accountInfo */\n  0x03\n    /* \"contracts/LooksRare/TokenSplitter.sol\":1743:1768  accountInfo[_accounts[i]] */\n  0x00\n    /* \"contracts/LooksRare/TokenSplitter.sol\":1755:1764  _accounts */\n  dup8\n    /* \"contracts/LooksRare/TokenSplitter.sol\":1765:1766  i */\n  dup5\n    /* \"contracts/LooksRare/TokenSplitter.sol\":1755:1767  _accounts[i] */\n  dup2\n  mload\n  dup2\n  lt\n  tag_35\n  jumpi\n  tag_36\n  tag_25\n  jump\t// in\ntag_36:\ntag_35:\n  0x20\n  mul\n  0x20\n  add\n  add\n  mload\n    /* \"contracts/LooksRare/TokenSplitter.sol\":1743:1768  accountInfo[_accounts[i]] */\n  0xffffffffffffffffffffffffffffffffffffffff\n  and\n  0xffffffffffffffffffffffffffffffffffffffff\n  and\n  dup2\n  mstore\n  0x20\n  add\n  swap1\n  dup2\n  mstore\n  0x20\n  add\n  0x00\n  keccak256\n    /* \"contracts/LooksRare/TokenSplitter.sol\":1743:1775  accountInfo[_accounts[i]].shares */\n  0x00\n  add\n    /* \"contracts/LooksRare/TokenSplitter.sol\":1743:1788  accountInfo[_accounts[i]].shares = _shares[i] */\n  dup2\n  swap1\n  sstore\n  pop\n    /* \"contracts/LooksRare/TokenSplitter.sol\":1615:1618  i++ */\n  dup1\n  dup1\n  tag_37\n  swap1\n  tag_38\n  jump\t// in\ntag_37:\n  swap2\n  pop\n  pop\n    /* \"contracts/LooksRare/TokenSplitter.sol\":1573:1800  for (uint256 i = 0; i < _accounts.length; i++) {... */\n  jump(tag_20)\ntag_21:\n  pop\n    /* \"contracts/LooksRare/TokenSplitter.sol\":1827:1840  currentShares */\n  dup1\n    /* \"contracts/LooksRare/TokenSplitter.sol\":1812:1840  TOTAL_SHARES = currentShares */\n  0x80\n  dup2\n  dup2\n  mstore\n  pop\n  pop\n    /* \"contracts/LooksRare/TokenSplitter.sol\":1868:1878  _TestToken */\n  dup2\n    /* \"contracts/LooksRare/TokenSplitter.sol\":1848:1879  testToken = IERC20( _TestToken) */\n  0xffffffffffffffffffffffffffffffffffffffff\n  and\n  0xa0\n  dup2\n  0xffffffffffffffffffffffffffffffffffffffff\n  and\n  dup2\n  mstore\n  pop\n  pop\n    /* \"contracts/LooksRare/TokenSplitter.sol\":1373:1887  {... */\n  pop\n    /* \"contracts/LooksRare/TokenSplitter.sol\":1252:1887  constructor(... */\n  pop\n  pop\n  pop\n    /* \"contracts/LooksRare/TokenSplitter.sol\":438:4497  contract TokenSplitter is Ownable, ReentrancyGuard {... */\n  jump(tag_39)\n    /* \"@openzeppelin/contracts/utils/Context.sol\":640:736  function _msgSender() internal view virtual returns (address) {... */\ntag_10:\n    /* \"@openzeppelin/contracts/utils/Context.sol\":693:700  address */\n  0x00\n    /* \"@openzeppelin/contracts/utils/Context.sol\":719:729  msg.sender */\n  caller\n    /* \"@openzeppelin/contracts/utils/Context.sol\":712:729  return msg.sender */\n  swap1\n  pop\n    /* \"@openzeppelin/contracts/utils/Context.sol\":640:736  function _msgSender() internal view virtual returns (address) {... */\n  swap1\n  jump\t// out\n    /* \"@openzeppelin/contracts/access/Ownable.sol\":2270:2457  function _transferOwnership(address newOwner) internal virtual {... */\ntag_11:\n    /* \"@openzeppelin/contracts/access/Ownable.sol\":2343:2359  address oldOwner */\n  0x00\n    /* \"@openzeppelin/contracts/access/Ownable.sol\":2362:2368  _owner */\n  dup1\n  0x00\n  swap1\n  sload\n  swap1\n  0x0100\n  exp\n  swap1\n  div\n  0xffffffffffffffffffffffffffffffffffffffff\n  and\n    /* \"@openzeppelin/contracts/access/Ownable.sol\":2343:2368  address oldOwner = _owner */\n  swap1\n  pop\n    /* \"@openzeppelin/contracts/access/Ownable.sol\":2387:2395  newOwner */\n  dup2\n    /* \"@openzeppelin/contracts/access/Ownable.sol\":2378:2384  _owner */\n  0x00\n  dup1\n    /* \"@openzeppelin/contracts/access/Ownable.sol\":2378:2395  _owner = newOwner */\n  0x0100\n  exp\n  dup2\n  sload\n  dup2\n  0xffffffffffffffffffffffffffffffffffffffff\n  mul\n  not\n  and\n  swap1\n  dup4\n  0xffffffffffffffffffffffffffffffffffffffff\n  and\n  mul\n  or\n  swap1\n  sstore\n  pop\n    /* \"@openzeppelin/contracts/access/Ownable.sol\":2441:2449  newOwner */\n  dup2\n    /* \"@openzeppelin/contracts/access/Ownable.sol\":2410:2450  OwnershipTransferred(oldOwner, newOwner) */\n  0xffffffffffffffffffffffffffffffffffffffff\n  and\n    /* \"@openzeppelin/contracts/access/Ownable.sol\":2431:2439  oldOwner */\n  dup2\n    /* \"@openzeppelin/contracts/access/Ownable.sol\":2410:2450  OwnershipTransferred(oldOwner, newOwner) */\n  0xffffffffffffffffffffffffffffffffffffffff\n  and\n  0x8be0079c531659141344cd1fd0a4f28419497f9722a3daafe3b4186f6b6457e0\n  mload(0x40)\n  mload(0x40)\n  dup1\n  swap2\n  sub\n  swap1\n  log3\n    /* \"@openzeppelin/contracts/access/Ownable.sol\":2333:2457  {... */\n  pop\n    /* \"@openzeppelin/contracts/access/Ownable.sol\":2270:2457  function _transferOwnership(address newOwner) internal virtual {... */\n  pop\n  jump\t// out\n    /* \"#utility.yul\":7:82   */\ntag_42:\n    /* \"#utility.yul\":40:46   */\n  0x00\n    /* \"#utility.yul\":73:75   */\n  0x40\n    /* \"#utility.yul\":67:76   */\n  mload\n    /* \"#utility.yul\":57:76   */\n  swap1\n  pop\n    /* \"#utility.yul\":7:82   */\n  swap1\n  jump\t// out\n    /* \"#utility.yul\":88:205   */\ntag_43:\n    /* \"#utility.yul\":197:198   */\n  0x00\n    /* \"#utility.yul\":194:195   */\n  dup1\n    /* \"#utility.yul\":187:199   */\n  revert\n    /* \"#utility.yul\":211:328   */\ntag_44:\n    /* \"#utility.yul\":320:321   */\n  0x00\n    /* \"#utility.yul\":317:318   */\n  dup1\n    /* \"#utility.yul\":310:322   */\n  revert\n    /* \"#utility.yul\":334:451   */\ntag_45:\n    /* \"#utility.yul\":443:444   */\n  0x00\n    /* \"#utility.yul\":440:441   */\n  dup1\n    /* \"#utility.yul\":433:445   */\n  revert\n    /* \"#utility.yul\":457:559   */\ntag_46:\n    /* \"#utility.yul\":498:504   */\n  0x00\n    /* \"#utility.yul\":549:551   */\n  0x1f\n    /* \"#utility.yul\":545:552   */\n  not\n    /* \"#utility.yul\":540:542   */\n  0x1f\n    /* \"#utility.yul\":533:538   */\n  dup4\n    /* \"#utility.yul\":529:543   */\n  add\n    /* \"#utility.yul\":525:553   */\n  and\n    /* \"#utility.yul\":515:553   */\n  swap1\n  pop\n    /* \"#utility.yul\":457:559   */\n  swap2\n  swap1\n  pop\n  jump\t// out\n    /* \"#utility.yul\":565:745   */\ntag_47:\n    /* \"#utility.yul\":613:690   */\n  0x4e487b7100000000000000000000000000000000000000000000000000000000\n    /* \"#utility.yul\":610:611   */\n  0x00\n    /* \"#utility.yul\":603:691   */\n  mstore\n    /* \"#utility.yul\":710:714   */\n  0x41\n    /* \"#utility.yul\":707:708   */\n  0x04\n    /* \"#utility.yul\":700:715   */\n  mstore\n    /* \"#utility.yul\":734:738   */\n  0x24\n    /* \"#utility.yul\":731:732   */\n  0x00\n    /* \"#utility.yul\":724:739   */\n  revert\n    /* \"#utility.yul\":751:1032   */\ntag_48:\n    /* \"#utility.yul\":834:861   */\n  tag_80\n    /* \"#utility.yul\":856:860   */\n  dup3\n    /* \"#utility.yul\":834:861   */\n  tag_46\n  jump\t// in\ntag_80:\n    /* \"#utility.yul\":826:832   */\n  dup2\n    /* \"#utility.yul\":822:862   */\n  add\n    /* \"#utility.yul\":964:970   */\n  dup2\n    /* \"#utility.yul\":952:962   */\n  dup2\n    /* \"#utility.yul\":949:971   */\n  lt\n    /* \"#utility.yul\":928:946   */\n  0xffffffffffffffff\n    /* \"#utility.yul\":916:926   */\n  dup3\n    /* \"#utility.yul\":913:947   */\n  gt\n    /* \"#utility.yul\":910:972   */\n  or\n    /* \"#utility.yul\":907:995   */\n  iszero\n  tag_81\n  jumpi\n    /* \"#utility.yul\":975:993   */\n  tag_82\n  tag_47\n  jump\t// in\ntag_82:\n    /* \"#utility.yul\":907:995   */\ntag_81:\n    /* \"#utility.yul\":1015:1025   */\n  dup1\n    /* \"#utility.yul\":1011:1013   */\n  0x40\n    /* \"#utility.yul\":1004:1026   */\n  mstore\n    /* \"#utility.yul\":794:1032   */\n  pop\n    /* \"#utility.yul\":751:1032   */\n  pop\n  pop\n  jump\t// out\n    /* \"#utility.yul\":1038:1167   */\ntag_49:\n    /* \"#utility.yul\":1072:1078   */\n  0x00\n    /* \"#utility.yul\":1099:1119   */\n  tag_84\n  tag_42\n  jump\t// in\ntag_84:\n    /* \"#utility.yul\":1089:1119   */\n  swap1\n  pop\n    /* \"#utility.yul\":1128:1161   */\n  tag_85\n    /* \"#utility.yul\":1156:1160   */\n  dup3\n    /* \"#utility.yul\":1148:1154   */\n  dup3\n    /* \"#utility.yul\":1128:1161   */\n  tag_48\n  jump\t// in\ntag_85:\n    /* \"#utility.yul\":1038:1167   */\n  swap2\n  swap1\n  pop\n  jump\t// out\n    /* \"#utility.yul\":1173:1484   */\ntag_50:\n    /* \"#utility.yul\":1250:1254   */\n  0x00\n    /* \"#utility.yul\":1340:1358   */\n  0xffffffffffffffff\n    /* \"#utility.yul\":1332:1338   */\n  dup3\n    /* \"#utility.yul\":1329:1359   */\n  gt\n    /* \"#utility.yul\":1326:1382   */\n  iszero\n  tag_87\n  jumpi\n    /* \"#utility.yul\":1362:1380   */\n  tag_88\n  tag_47\n  jump\t// in\ntag_88:\n    /* \"#utility.yul\":1326:1382   */\ntag_87:\n    /* \"#utility.yul\":1412:1416   */\n  0x20\n    /* \"#utility.yul\":1404:1410   */\n  dup3\n    /* \"#utility.yul\":1400:1417   */\n  mul\n    /* \"#utility.yul\":1392:1417   */\n  swap1\n  pop\n    /* \"#utility.yul\":1472:1476   */\n  0x20\n    /* \"#utility.yul\":1466:1470   */\n  dup2\n    /* \"#utility.yul\":1462:1477   */\n  add\n    /* \"#utility.yul\":1454:1477   */\n  swap1\n  pop\n    /* \"#utility.yul\":1173:1484   */\n  swap2\n  swap1\n  pop\n  jump\t// out\n    /* \"#utility.yul\":1490:1607   */\ntag_51:\n    /* \"#utility.yul\":1599:1600   */\n  0x00\n    /* \"#utility.yul\":1596:1597   */\n  dup1\n    /* \"#utility.yul\":1589:1601   */\n  revert\n    /* \"#utility.yul\":1613:1739   */\ntag_52:\n    /* \"#utility.yul\":1650:1657   */\n  0x00\n    /* \"#utility.yul\":1690:1732   */\n  0xffffffffffffffffffffffffffffffffffffffff\n    /* \"#utility.yul\":1683:1688   */\n  dup3\n    /* \"#utility.yul\":1679:1733   */\n  and\n    /* \"#utility.yul\":1668:1733   */\n  swap1\n  pop\n    /* \"#utility.yul\":1613:1739   */\n  swap2\n  swap1\n  pop\n  jump\t// out\n    /* \"#utility.yul\":1745:1841   */\ntag_53:\n    /* \"#utility.yul\":1782:1789   */\n  0x00\n    /* \"#utility.yul\":1811:1835   */\n  tag_92\n    /* \"#utility.yul\":1829:1834   */\n  dup3\n    /* \"#utility.yul\":1811:1835   */\n  tag_52\n  jump\t// in\ntag_92:\n    /* \"#utility.yul\":1800:1835   */\n  swap1\n  pop\n    /* \"#utility.yul\":1745:1841   */\n  swap2\n  swap1\n  pop\n  jump\t// out\n    /* \"#utility.yul\":1847:1969   */\ntag_54:\n    /* \"#utility.yul\":1920:1944   */\n  tag_94\n    /* \"#utility.yul\":1938:1943   */\n  dup2\n    /* \"#utility.yul\":1920:1944   */\n  tag_53\n  jump\t// in\ntag_94:\n    /* \"#utility.yul\":1913:1918   */\n  dup2\n    /* \"#utility.yul\":1910:1945   */\n  eq\n    /* \"#utility.yul\":1900:1963   */\n  tag_95\n  jumpi\n    /* \"#utility.yul\":1959:1960   */\n  0x00\n    /* \"#utility.yul\":1956:1957   */\n  dup1\n    /* \"#utility.yul\":1949:1961   */\n  revert\n    /* \"#utility.yul\":1900:1963   */\ntag_95:\n    /* \"#utility.yul\":1847:1969   */\n  pop\n  jump\t// out\n    /* \"#utility.yul\":1975:2118   */\ntag_55:\n    /* \"#utility.yul\":2032:2037   */\n  0x00\n    /* \"#utility.yul\":2063:2069   */\n  dup2\n    /* \"#utility.yul\":2057:2070   */\n  mload\n    /* \"#utility.yul\":2048:2070   */\n  swap1\n  pop\n    /* \"#utility.yul\":2079:2112   */\n  tag_97\n    /* \"#utility.yul\":2106:2111   */\n  dup2\n    /* \"#utility.yul\":2079:2112   */\n  tag_54\n  jump\t// in\ntag_97:\n    /* \"#utility.yul\":1975:2118   */\n  swap3\n  swap2\n  pop\n  pop\n  jump\t// out\n    /* \"#utility.yul\":2141:2873   */\ntag_56:\n    /* \"#utility.yul\":2248:2253   */\n  0x00\n    /* \"#utility.yul\":2273:2354   */\n  tag_99\n    /* \"#utility.yul\":2289:2353   */\n  tag_100\n    /* \"#utility.yul\":2346:2352   */\n  dup5\n    /* \"#utility.yul\":2289:2353   */\n  tag_50\n  jump\t// in\ntag_100:\n    /* \"#utility.yul\":2273:2354   */\n  tag_49\n  jump\t// in\ntag_99:\n    /* \"#utility.yul\":2264:2354   */\n  swap1\n  pop\n    /* \"#utility.yul\":2374:2379   */\n  dup1\n    /* \"#utility.yul\":2403:2409   */\n  dup4\n    /* \"#utility.yul\":2396:2401   */\n  dup3\n    /* \"#utility.yul\":2389:2410   */\n  mstore\n    /* \"#utility.yul\":2437:2441   */\n  0x20\n    /* \"#utility.yul\":2430:2435   */\n  dup3\n    /* \"#utility.yul\":2426:2442   */\n  add\n    /* \"#utility.yul\":2419:2442   */\n  swap1\n  pop\n    /* \"#utility.yul\":2490:2494   */\n  0x20\n    /* \"#utility.yul\":2482:2488   */\n  dup5\n    /* \"#utility.yul\":2478:2495   */\n  mul\n    /* \"#utility.yul\":2470:2476   */\n  dup4\n    /* \"#utility.yul\":2466:2496   */\n  add\n    /* \"#utility.yul\":2519:2522   */\n  dup6\n    /* \"#utility.yul\":2511:2517   */\n  dup2\n    /* \"#utility.yul\":2508:2523   */\n  gt\n    /* \"#utility.yul\":2505:2627   */\n  iszero\n  tag_101\n  jumpi\n    /* \"#utility.yul\":2538:2617   */\n  tag_102\n  tag_51\n  jump\t// in\ntag_102:\n    /* \"#utility.yul\":2505:2627   */\ntag_101:\n    /* \"#utility.yul\":2653:2659   */\n  dup4\n    /* \"#utility.yul\":2636:2867   */\ntag_103:\n    /* \"#utility.yul\":2670:2676   */\n  dup2\n    /* \"#utility.yul\":2665:2668   */\n  dup2\n    /* \"#utility.yul\":2662:2677   */\n  lt\n    /* \"#utility.yul\":2636:2867   */\n  iszero\n  tag_105\n  jumpi\n    /* \"#utility.yul\":2745:2748   */\n  dup1\n    /* \"#utility.yul\":2774:2822   */\n  tag_106\n    /* \"#utility.yul\":2818:2821   */\n  dup9\n    /* \"#utility.yul\":2806:2816   */\n  dup3\n    /* \"#utility.yul\":2774:2822   */\n  tag_55\n  jump\t// in\ntag_106:\n    /* \"#utility.yul\":2769:2772   */\n  dup5\n    /* \"#utility.yul\":2762:2823   */\n  mstore\n    /* \"#utility.yul\":2852:2856   */\n  0x20\n    /* \"#utility.yul\":2847:2850   */\n  dup5\n    /* \"#utility.yul\":2843:2857   */\n  add\n    /* \"#utility.yul\":2836:2857   */\n  swap4\n  pop\n    /* \"#utility.yul\":2712:2867   */\n  pop\n    /* \"#utility.yul\":2696:2700   */\n  0x20\n    /* \"#utility.yul\":2691:2694   */\n  dup2\n    /* \"#utility.yul\":2687:2701   */\n  add\n    /* \"#utility.yul\":2680:2701   */\n  swap1\n  pop\n    /* \"#utility.yul\":2636:2867   */\n  jump(tag_103)\ntag_105:\n    /* \"#utility.yul\":2640:2661   */\n  pop\n    /* \"#utility.yul\":2254:2873   */\n  pop\n  pop\n    /* \"#utility.yul\":2141:2873   */\n  swap4\n  swap3\n  pop\n  pop\n  pop\n  jump\t// out\n    /* \"#utility.yul\":2896:3281   */\ntag_57:\n    /* \"#utility.yul\":2978:2983   */\n  0x00\n    /* \"#utility.yul\":3027:3030   */\n  dup3\n    /* \"#utility.yul\":3020:3024   */\n  0x1f\n    /* \"#utility.yul\":3012:3018   */\n  dup4\n    /* \"#utility.yul\":3008:3025   */\n  add\n    /* \"#utility.yul\":3004:3031   */\n  slt\n    /* \"#utility.yul\":2994:3116   */\n  tag_108\n  jumpi\n    /* \"#utility.yul\":3035:3114   */\n  tag_109\n  tag_45\n  jump\t// in\ntag_109:\n    /* \"#utility.yul\":2994:3116   */\ntag_108:\n    /* \"#utility.yul\":3145:3151   */\n  dup2\n    /* \"#utility.yul\":3139:3152   */\n  mload\n    /* \"#utility.yul\":3170:3275   */\n  tag_110\n    /* \"#utility.yul\":3271:3274   */\n  dup5\n    /* \"#utility.yul\":3263:3269   */\n  dup3\n    /* \"#utility.yul\":3256:3260   */\n  0x20\n    /* \"#utility.yul\":3248:3254   */\n  dup7\n    /* \"#utility.yul\":3244:3261   */\n  add\n    /* \"#utility.yul\":3170:3275   */\n  tag_56\n  jump\t// in\ntag_110:\n    /* \"#utility.yul\":3161:3275   */\n  swap2\n  pop\n    /* \"#utility.yul\":2984:3281   */\n  pop\n    /* \"#utility.yul\":2896:3281   */\n  swap3\n  swap2\n  pop\n  pop\n  jump\t// out\n    /* \"#utility.yul\":3287:3598   */\ntag_58:\n    /* \"#utility.yul\":3364:3368   */\n  0x00\n    /* \"#utility.yul\":3454:3472   */\n  0xffffffffffffffff\n    /* \"#utility.yul\":3446:3452   */\n  dup3\n    /* \"#utility.yul\":3443:3473   */\n  gt\n    /* \"#utility.yul\":3440:3496   */\n  iszero\n  tag_112\n  jumpi\n    /* \"#utility.yul\":3476:3494   */\n  tag_113\n  tag_47\n  jump\t// in\ntag_113:\n    /* \"#utility.yul\":3440:3496   */\ntag_112:\n    /* \"#utility.yul\":3526:3530   */\n  0x20\n    /* \"#utility.yul\":3518:3524   */\n  dup3\n    /* \"#utility.yul\":3514:3531   */\n  mul\n    /* \"#utility.yul\":3506:3531   */\n  swap1\n  pop\n    /* \"#utility.yul\":3586:3590   */\n  0x20\n    /* \"#utility.yul\":3580:3584   */\n  dup2\n    /* \"#utility.yul\":3576:3591   */\n  add\n    /* \"#utility.yul\":3568:3591   */\n  swap1\n  pop\n    /* \"#utility.yul\":3287:3598   */\n  swap2\n  swap1\n  pop\n  jump\t// out\n    /* \"#utility.yul\":3604:3681   */\ntag_59:\n    /* \"#utility.yul\":3641:3648   */\n  0x00\n    /* \"#utility.yul\":3670:3675   */\n  dup2\n    /* \"#utility.yul\":3659:3675   */\n  swap1\n  pop\n    /* \"#utility.yul\":3604:3681   */\n  swap2\n  swap1\n  pop\n  jump\t// out\n    /* \"#utility.yul\":3687:3809   */\ntag_60:\n    /* \"#utility.yul\":3760:3784   */\n  tag_116\n    /* \"#utility.yul\":3778:3783   */\n  dup2\n    /* \"#utility.yul\":3760:3784   */\n  tag_59\n  jump\t// in\ntag_116:\n    /* \"#utility.yul\":3753:3758   */\n  dup2\n    /* \"#utility.yul\":3750:3785   */\n  eq\n    /* \"#utility.yul\":3740:3803   */\n  tag_117\n  jumpi\n    /* \"#utility.yul\":3799:3800   */\n  0x00\n    /* \"#utility.yul\":3796:3797   */\n  dup1\n    /* \"#utility.yul\":3789:3801   */\n  revert\n    /* \"#utility.yul\":3740:3803   */\ntag_117:\n    /* \"#utility.yul\":3687:3809   */\n  pop\n  jump\t// out\n    /* \"#utility.yul\":3815:3958   */\ntag_61:\n    /* \"#utility.yul\":3872:3877   */\n  0x00\n    /* \"#utility.yul\":3903:3909   */\n  dup2\n    /* \"#utility.yul\":3897:3910   */\n  mload\n    /* \"#utility.yul\":3888:3910   */\n  swap1\n  pop\n    /* \"#utility.yul\":3919:3952   */\n  tag_119\n    /* \"#utility.yul\":3946:3951   */\n  dup2\n    /* \"#utility.yul\":3919:3952   */\n  tag_60\n  jump\t// in\ntag_119:\n    /* \"#utility.yul\":3815:3958   */\n  swap3\n  swap2\n  pop\n  pop\n  jump\t// out\n    /* \"#utility.yul\":3981:4713   */\ntag_62:\n    /* \"#utility.yul\":4088:4093   */\n  0x00\n    /* \"#utility.yul\":4113:4194   */\n  tag_121\n    /* \"#utility.yul\":4129:4193   */\n  tag_122\n    /* \"#utility.yul\":4186:4192   */\n  dup5\n    /* \"#utility.yul\":4129:4193   */\n  tag_58\n  jump\t// in\ntag_122:\n    /* \"#utility.yul\":4113:4194   */\n  tag_49\n  jump\t// in\ntag_121:\n    /* \"#utility.yul\":4104:4194   */\n  swap1\n  pop\n    /* \"#utility.yul\":4214:4219   */\n  dup1\n    /* \"#utility.yul\":4243:4249   */\n  dup4\n    /* \"#utility.yul\":4236:4241   */\n  dup3\n    /* \"#utility.yul\":4229:4250   */\n  mstore\n    /* \"#utility.yul\":4277:4281   */\n  0x20\n    /* \"#utility.yul\":4270:4275   */\n  dup3\n    /* \"#utility.yul\":4266:4282   */\n  add\n    /* \"#utility.yul\":4259:4282   */\n  swap1\n  pop\n    /* \"#utility.yul\":4330:4334   */\n  0x20\n    /* \"#utility.yul\":4322:4328   */\n  dup5\n    /* \"#utility.yul\":4318:4335   */\n  mul\n    /* \"#utility.yul\":4310:4316   */\n  dup4\n    /* \"#utility.yul\":4306:4336   */\n  add\n    /* \"#utility.yul\":4359:4362   */\n  dup6\n    /* \"#utility.yul\":4351:4357   */\n  dup2\n    /* \"#utility.yul\":4348:4363   */\n  gt\n    /* \"#utility.yul\":4345:4467   */\n  iszero\n  tag_123\n  jumpi\n    /* \"#utility.yul\":4378:4457   */\n  tag_124\n  tag_51\n  jump\t// in\ntag_124:\n    /* \"#utility.yul\":4345:4467   */\ntag_123:\n    /* \"#utility.yul\":4493:4499   */\n  dup4\n    /* \"#utility.yul\":4476:4707   */\ntag_125:\n    /* \"#utility.yul\":4510:4516   */\n  dup2\n    /* \"#utility.yul\":4505:4508   */\n  dup2\n    /* \"#utility.yul\":4502:4517   */\n  lt\n    /* \"#utility.yul\":4476:4707   */\n  iszero\n  tag_127\n  jumpi\n    /* \"#utility.yul\":4585:4588   */\n  dup1\n    /* \"#utility.yul\":4614:4662   */\n  tag_128\n    /* \"#utility.yul\":4658:4661   */\n  dup9\n    /* \"#utility.yul\":4646:4656   */\n  dup3\n    /* \"#utility.yul\":4614:4662   */\n  tag_61\n  jump\t// in\ntag_128:\n    /* \"#utility.yul\":4609:4612   */\n  dup5\n    /* \"#utility.yul\":4602:4663   */\n  mstore\n    /* \"#utility.yul\":4692:4696   */\n  0x20\n    /* \"#utility.yul\":4687:4690   */\n  dup5\n    /* \"#utility.yul\":4683:4697   */\n  add\n    /* \"#utility.yul\":4676:4697   */\n  swap4\n  pop\n    /* \"#utility.yul\":4552:4707   */\n  pop\n    /* \"#utility.yul\":4536:4540   */\n  0x20\n    /* \"#utility.yul\":4531:4534   */\n  dup2\n    /* \"#utility.yul\":4527:4541   */\n  add\n    /* \"#utility.yul\":4520:4541   */\n  swap1\n  pop\n    /* \"#utility.yul\":4476:4707   */\n  jump(tag_125)\ntag_127:\n    /* \"#utility.yul\":4480:4501   */\n  pop\n    /* \"#utility.yul\":4094:4713   */\n  pop\n  pop\n    /* \"#utility.yul\":3981:4713   */\n  swap4\n  swap3\n  pop\n  pop\n  pop\n  jump\t// out\n    /* \"#utility.yul\":4736:5121   */\ntag_63:\n    /* \"#utility.yul\":4818:4823   */\n  0x00\n    /* \"#utility.yul\":4867:4870   */\n  dup3\n    /* \"#utility.yul\":4860:4864   */\n  0x1f\n    /* \"#utility.yul\":4852:4858   */\n  dup4\n    /* \"#utility.yul\":4848:4865   */\n  add\n    /* \"#utility.yul\":4844:4871   */\n  slt\n    /* \"#utility.yul\":4834:4956   */\n  tag_130\n  jumpi\n    /* \"#utility.yul\":4875:4954   */\n  tag_131\n  tag_45\n  jump\t// in\ntag_131:\n    /* \"#utility.yul\":4834:4956   */\ntag_130:\n    /* \"#utility.yul\":4985:4991   */\n  dup2\n    /* \"#utility.yul\":4979:4992   */\n  mload\n    /* \"#utility.yul\":5010:5115   */\n  tag_132\n    /* \"#utility.yul\":5111:5114   */\n  dup5\n    /* \"#utility.yul\":5103:5109   */\n  dup3\n    /* \"#utility.yul\":5096:5100   */\n  0x20\n    /* \"#utility.yul\":5088:5094   */\n  dup7\n    /* \"#utility.yul\":5084:5101   */\n  add\n    /* \"#utility.yul\":5010:5115   */\n  tag_62\n  jump\t// in\ntag_132:\n    /* \"#utility.yul\":5001:5115   */\n  swap2\n  pop\n    /* \"#utility.yul\":4824:5121   */\n  pop\n    /* \"#utility.yul\":4736:5121   */\n  swap3\n  swap2\n  pop\n  pop\n  jump\t// out\n    /* \"#utility.yul\":5127:6196   */\ntag_3:\n    /* \"#utility.yul\":5265:5271   */\n  0x00\n    /* \"#utility.yul\":5273:5279   */\n  dup1\n    /* \"#utility.yul\":5281:5287   */\n  0x00\n    /* \"#utility.yul\":5330:5332   */\n  0x60\n    /* \"#utility.yul\":5318:5327   */\n  dup5\n    /* \"#utility.yul\":5309:5316   */\n  dup7\n    /* \"#utility.yul\":5305:5328   */\n  sub\n    /* \"#utility.yul\":5301:5333   */\n  slt\n    /* \"#utility.yul\":5298:5417   */\n  iszero\n  tag_134\n  jumpi\n    /* \"#utility.yul\":5336:5415   */\n  tag_135\n  tag_43\n  jump\t// in\ntag_135:\n    /* \"#utility.yul\":5298:5417   */\ntag_134:\n    /* \"#utility.yul\":5477:5478   */\n  0x00\n    /* \"#utility.yul\":5466:5475   */\n  dup5\n    /* \"#utility.yul\":5462:5479   */\n  add\n    /* \"#utility.yul\":5456:5480   */\n  mload\n    /* \"#utility.yul\":5507:5525   */\n  0xffffffffffffffff\n    /* \"#utility.yul\":5499:5505   */\n  dup2\n    /* \"#utility.yul\":5496:5526   */\n  gt\n    /* \"#utility.yul\":5493:5610   */\n  iszero\n  tag_136\n  jumpi\n    /* \"#utility.yul\":5529:5608   */\n  tag_137\n  tag_44\n  jump\t// in\ntag_137:\n    /* \"#utility.yul\":5493:5610   */\ntag_136:\n    /* \"#utility.yul\":5634:5723   */\n  tag_138\n    /* \"#utility.yul\":5715:5722   */\n  dup7\n    /* \"#utility.yul\":5706:5712   */\n  dup3\n    /* \"#utility.yul\":5695:5704   */\n  dup8\n    /* \"#utility.yul\":5691:5713   */\n  add\n    /* \"#utility.yul\":5634:5723   */\n  tag_57\n  jump\t// in\ntag_138:\n    /* \"#utility.yul\":5624:5723   */\n  swap4\n  pop\n    /* \"#utility.yul\":5427:5733   */\n  pop\n    /* \"#utility.yul\":5793:5795   */\n  0x20\n    /* \"#utility.yul\":5782:5791   */\n  dup5\n    /* \"#utility.yul\":5778:5796   */\n  add\n    /* \"#utility.yul\":5772:5797   */\n  mload\n    /* \"#utility.yul\":5824:5842   */\n  0xffffffffffffffff\n    /* \"#utility.yul\":5816:5822   */\n  dup2\n    /* \"#utility.yul\":5813:5843   */\n  gt\n    /* \"#utility.yul\":5810:5927   */\n  iszero\n  tag_139\n  jumpi\n    /* \"#utility.yul\":5846:5925   */\n  tag_140\n  tag_44\n  jump\t// in\ntag_140:\n    /* \"#utility.yul\":5810:5927   */\ntag_139:\n    /* \"#utility.yul\":5951:6040   */\n  tag_141\n    /* \"#utility.yul\":6032:6039   */\n  dup7\n    /* \"#utility.yul\":6023:6029   */\n  dup3\n    /* \"#utility.yul\":6012:6021   */\n  dup8\n    /* \"#utility.yul\":6008:6030   */\n  add\n    /* \"#utility.yul\":5951:6040   */\n  tag_63\n  jump\t// in\ntag_141:\n    /* \"#utility.yul\":5941:6040   */\n  swap3\n  pop\n    /* \"#utility.yul\":5743:6050   */\n  pop\n    /* \"#utility.yul\":6089:6091   */\n  0x40\n    /* \"#utility.yul\":6115:6179   */\n  tag_142\n    /* \"#utility.yul\":6171:6178   */\n  dup7\n    /* \"#utility.yul\":6162:6168   */\n  dup3\n    /* \"#utility.yul\":6151:6160   */\n  dup8\n    /* \"#utility.yul\":6147:6169   */\n  add\n    /* \"#utility.yul\":6115:6179   */\n  tag_55\n  jump\t// in\ntag_142:\n    /* \"#utility.yul\":6105:6179   */\n  swap2\n  pop\n    /* \"#utility.yul\":6060:6189   */\n  pop\n    /* \"#utility.yul\":5127:6196   */\n  swap3\n  pop\n  swap3\n  pop\n  swap3\n  jump\t// out\n    /* \"#utility.yul\":6202:6371   */\ntag_64:\n    /* \"#utility.yul\":6286:6297   */\n  0x00\n    /* \"#utility.yul\":6320:6326   */\n  dup3\n    /* \"#utility.yul\":6315:6318   */\n  dup3\n    /* \"#utility.yul\":6308:6327   */\n  mstore\n    /* \"#utility.yul\":6360:6364   */\n  0x20\n    /* \"#utility.yul\":6355:6358   */\n  dup3\n    /* \"#utility.yul\":6351:6365   */\n  add\n    /* \"#utility.yul\":6336:6365   */\n  swap1\n  pop\n    /* \"#utility.yul\":6202:6371   */\n  swap3\n  swap2\n  pop\n  pop\n  jump\t// out\n    /* \"#utility.yul\":6377:6550   */\ntag_65:\n    /* \"#utility.yul\":6517:6542   */\n  0x53706c69747465723a204c656e67746820646966666572000000000000000000\n    /* \"#utility.yul\":6513:6514   */\n  0x00\n    /* \"#utility.yul\":6505:6511   */\n  dup3\n    /* \"#utility.yul\":6501:6515   */\n  add\n    /* \"#utility.yul\":6494:6543   */\n  mstore\n    /* \"#utility.yul\":6377:6550   */\n  pop\n  jump\t// out\n    /* \"#utility.yul\":6556:6922   */\ntag_66:\n    /* \"#utility.yul\":6698:6701   */\n  0x00\n    /* \"#utility.yul\":6719:6786   */\n  tag_146\n    /* \"#utility.yul\":6783:6785   */\n  0x17\n    /* \"#utility.yul\":6778:6781   */\n  dup4\n    /* \"#utility.yul\":6719:6786   */\n  tag_64\n  jump\t// in\ntag_146:\n    /* \"#utility.yul\":6712:6786   */\n  swap2\n  pop\n    /* \"#utility.yul\":6795:6888   */\n  tag_147\n    /* \"#utility.yul\":6884:6887   */\n  dup3\n    /* \"#utility.yul\":6795:6888   */\n  tag_65\n  jump\t// in\ntag_147:\n    /* \"#utility.yul\":6913:6915   */\n  0x20\n    /* \"#utility.yul\":6908:6911   */\n  dup3\n    /* \"#utility.yul\":6904:6916   */\n  add\n    /* \"#utility.yul\":6897:6916   */\n  swap1\n  pop\n    /* \"#utility.yul\":6556:6922   */\n  swap2\n  swap1\n  pop\n  jump\t// out\n    /* \"#utility.yul\":6928:7347   */\ntag_16:\n    /* \"#utility.yul\":7094:7098   */\n  0x00\n    /* \"#utility.yul\":7132:7134   */\n  0x20\n    /* \"#utility.yul\":7121:7130   */\n  dup3\n    /* \"#utility.yul\":7117:7135   */\n  add\n    /* \"#utility.yul\":7109:7135   */\n  swap1\n  pop\n    /* \"#utility.yul\":7181:7190   */\n  dup2\n    /* \"#utility.yul\":7175:7179   */\n  dup2\n    /* \"#utility.yul\":7171:7191   */\n  sub\n    /* \"#utility.yul\":7167:7168   */\n  0x00\n    /* \"#utility.yul\":7156:7165   */\n  dup4\n    /* \"#utility.yul\":7152:7169   */\n  add\n    /* \"#utility.yul\":7145:7192   */\n  mstore\n    /* \"#utility.yul\":7209:7340   */\n  tag_149\n    /* \"#utility.yul\":7335:7339   */\n  dup2\n    /* \"#utility.yul\":7209:7340   */\n  tag_66\n  jump\t// in\ntag_149:\n    /* \"#utility.yul\":7201:7340   */\n  swap1\n  pop\n    /* \"#utility.yul\":6928:7347   */\n  swap2\n  swap1\n  pop\n  jump\t// out\n    /* \"#utility.yul\":7353:7531   */\ntag_67:\n    /* \"#utility.yul\":7493:7523   */\n  0x53706c69747465723a204c656e677468206d757374206265203e203000000000\n    /* \"#utility.yul\":7489:7490   */\n  0x00\n    /* \"#utility.yul\":7481:7487   */\n  dup3\n    /* \"#utility.yul\":7477:7491   */\n  add\n    /* \"#utility.yul\":7470:7524   */\n  mstore\n    /* \"#utility.yul\":7353:7531   */\n  pop\n  jump\t// out\n    /* \"#utility.yul\":7537:7903   */\ntag_68:\n    /* \"#utility.yul\":7679:7682   */\n  0x00\n    /* \"#utility.yul\":7700:7767   */\n  tag_152\n    /* \"#utility.yul\":7764:7766   */\n  0x1c\n    /* \"#utility.yul\":7759:7762   */\n  dup4\n    /* \"#utility.yul\":7700:7767   */\n  tag_64\n  jump\t// in\ntag_152:\n    /* \"#utility.yul\":7693:7767   */\n  swap2\n  pop\n    /* \"#utility.yul\":7776:7869   */\n  tag_153\n    /* \"#utility.yul\":7865:7868   */\n  dup3\n    /* \"#utility.yul\":7776:7869   */\n  tag_67\n  jump\t// in\ntag_153:\n    /* \"#utility.yul\":7894:7896   */\n  0x20\n    /* \"#utility.yul\":7889:7892   */\n  dup3\n    /* \"#utility.yul\":7885:7897   */\n  add\n    /* \"#utility.yul\":7878:7897   */\n  swap1\n  pop\n    /* \"#utility.yul\":7537:7903   */\n  swap2\n  swap1\n  pop\n  jump\t// out\n    /* \"#utility.yul\":7909:8328   */\ntag_19:\n    /* \"#utility.yul\":8075:8079   */\n  0x00\n    /* \"#utility.yul\":8113:8115   */\n  0x20\n    /* \"#utility.yul\":8102:8111   */\n  dup3\n    /* \"#utility.yul\":8098:8116   */\n  add\n    /* \"#utility.yul\":8090:8116   */\n  swap1\n  pop\n    /* \"#utility.yul\":8162:8171   */\n  dup2\n    /* \"#utility.yul\":8156:8160   */\n  dup2\n    /* \"#utility.yul\":8152:8172   */\n  sub\n    /* \"#utility.yul\":8148:8149   */\n  0x00\n    /* \"#utility.yul\":8137:8146   */\n  dup4\n    /* \"#utility.yul\":8133:8150   */\n  add\n    /* \"#utility.yul\":8126:8173   */\n  mstore\n    /* \"#utility.yul\":8190:8321   */\n  tag_155\n    /* \"#utility.yul\":8316:8320   */\n  dup2\n    /* \"#utility.yul\":8190:8321   */\n  tag_68\n  jump\t// in\ntag_155:\n    /* \"#utility.yul\":8182:8321   */\n  swap1\n  pop\n    /* \"#utility.yul\":7909:8328   */\n  swap2\n  swap1\n  pop\n  jump\t// out\n    /* \"#utility.yul\":8334:8514   */\ntag_25:\n    /* \"#utility.yul\":8382:8459   */\n  0x4e487b7100000000000000000000000000000000000000000000000000000000\n    /* \"#utility.yul\":8379:8380   */\n  0x00\n    /* \"#utility.yul\":8372:8460   */\n  mstore\n    /* \"#utility.yul\":8479:8483   */\n  0x32\n    /* \"#utility.yul\":8476:8477   */\n  0x04\n    /* \"#utility.yul\":8469:8484   */\n  mstore\n    /* \"#utility.yul\":8503:8507   */\n  0x24\n    /* \"#utility.yul\":8500:8501   */\n  0x00\n    /* \"#utility.yul\":8493:8508   */\n  revert\n    /* \"#utility.yul\":8520:8692   */\ntag_69:\n    /* \"#utility.yul\":8660:8684   */\n  0x53706c69747465723a2053686172657320617265203000000000000000000000\n    /* \"#utility.yul\":8656:8657   */\n  0x00\n    /* \"#utility.yul\":8648:8654   */\n  dup3\n    /* \"#utility.yul\":8644:8658   */\n  add\n    /* \"#utility.yul\":8637:8685   */\n  mstore\n    /* \"#utility.yul\":8520:8692   */\n  pop\n  jump\t// out\n    /* \"#utility.yul\":8698:9064   */\ntag_70:\n    /* \"#utility.yul\":8840:8843   */\n  0x00\n    /* \"#utility.yul\":8861:8928   */\n  tag_159\n    /* \"#utility.yul\":8925:8927   */\n  0x16\n    /* \"#utility.yul\":8920:8923   */\n  dup4\n    /* \"#utility.yul\":8861:8928   */\n  tag_64\n  jump\t// in\ntag_159:\n    /* \"#utility.yul\":8854:8928   */\n  swap2\n  pop\n    /* \"#utility.yul\":8937:9030   */\n  tag_160\n    /* \"#utility.yul\":9026:9029   */\n  dup3\n    /* \"#utility.yul\":8937:9030   */\n  tag_69\n  jump\t// in\ntag_160:\n    /* \"#utility.yul\":9055:9057   */\n  0x20\n    /* \"#utility.yul\":9050:9053   */\n  dup3\n    /* \"#utility.yul\":9046:9058   */\n  add\n    /* \"#utility.yul\":9039:9058   */\n  swap1\n  pop\n    /* \"#utility.yul\":8698:9064   */\n  swap2\n  swap1\n  pop\n  jump\t// out\n    /* \"#utility.yul\":9070:9489   */\ntag_28:\n    /* \"#utility.yul\":9236:9240   */\n  0x00\n    /* \"#utility.yul\":9274:9276   */\n  0x20\n    /* \"#utility.yul\":9263:9272   */\n  dup3\n    /* \"#utility.yul\":9259:9277   */\n  add\n    /* \"#utility.yul\":9251:9277   */\n  swap1\n  pop\n    /* \"#utility.yul\":9323:9332   */\n  dup2\n    /* \"#utility.yul\":9317:9321   */\n  dup2\n    /* \"#utility.yul\":9313:9333   */\n  sub\n    /* \"#utility.yul\":9309:9310   */\n  0x00\n    /* \"#utility.yul\":9298:9307   */\n  dup4\n    /* \"#utility.yul\":9294:9311   */\n  add\n    /* \"#utility.yul\":9287:9334   */\n  mstore\n    /* \"#utility.yul\":9351:9482   */\n  tag_162\n    /* \"#utility.yul\":9477:9481   */\n  dup2\n    /* \"#utility.yul\":9351:9482   */\n  tag_70\n  jump\t// in\ntag_162:\n    /* \"#utility.yul\":9343:9482   */\n  swap1\n  pop\n    /* \"#utility.yul\":9070:9489   */\n  swap2\n  swap1\n  pop\n  jump\t// out\n    /* \"#utility.yul\":9495:9675   */\ntag_71:\n    /* \"#utility.yul\":9543:9620   */\n  0x4e487b7100000000000000000000000000000000000000000000000000000000\n    /* \"#utility.yul\":9540:9541   */\n  0x00\n    /* \"#utility.yul\":9533:9621   */\n  mstore\n    /* \"#utility.yul\":9640:9644   */\n  0x11\n    /* \"#utility.yul\":9637:9638   */\n  0x04\n    /* \"#utility.yul\":9630:9645   */\n  mstore\n    /* \"#utility.yul\":9664:9668   */\n  0x24\n    /* \"#utility.yul\":9661:9662   */\n  0x00\n    /* \"#utility.yul\":9654:9669   */\n  revert\n    /* \"#utility.yul\":9681:9986   */\ntag_32:\n    /* \"#utility.yul\":9721:9724   */\n  0x00\n    /* \"#utility.yul\":9740:9760   */\n  tag_165\n    /* \"#utility.yul\":9758:9759   */\n  dup3\n    /* \"#utility.yul\":9740:9760   */\n  tag_59\n  jump\t// in\ntag_165:\n    /* \"#utility.yul\":9735:9760   */\n  swap2\n  pop\n    /* \"#utility.yul\":9774:9794   */\n  tag_166\n    /* \"#utility.yul\":9792:9793   */\n  dup4\n    /* \"#utility.yul\":9774:9794   */\n  tag_59\n  jump\t// in\ntag_166:\n    /* \"#utility.yul\":9769:9794   */\n  swap3\n  pop\n    /* \"#utility.yul\":9928:9929   */\n  dup3\n    /* \"#utility.yul\":9860:9926   */\n  0xffffffffffffffffffffffffffffffffffffffffffffffffffffffffffffffff\n    /* \"#utility.yul\":9856:9930   */\n  sub\n    /* \"#utility.yul\":9853:9854   */\n  dup3\n    /* \"#utility.yul\":9850:9931   */\n  gt\n    /* \"#utility.yul\":9847:9954   */\n  iszero\n  tag_167\n  jumpi\n    /* \"#utility.yul\":9934:9952   */\n  tag_168\n  tag_71\n  jump\t// in\ntag_168:\n    /* \"#utility.yul\":9847:9954   */\ntag_167:\n    /* \"#utility.yul\":9978:9979   */\n  dup3\n    /* \"#utility.yul\":9975:9976   */\n  dup3\n    /* \"#utility.yul\":9971:9980   */\n  add\n    /* \"#utility.yul\":9964:9980   */\n  swap1\n  pop\n    /* \"#utility.yul\":9681:9986   */\n  swap3\n  swap2\n  pop\n  pop\n  jump\t// out\n    /* \"#utility.yul\":9992:10225   */\ntag_38:\n    /* \"#utility.yul\":10031:10034   */\n  0x00\n    /* \"#utility.yul\":10054:10078   */\n  tag_170\n    /* \"#utility.yul\":10072:10077   */\n  dup3\n    /* \"#utility.yul\":10054:10078   */\n  tag_59\n  jump\t// in\ntag_170:\n    /* \"#utility.yul\":10045:10078   */\n  swap2\n  pop\n    /* \"#utility.yul\":10100:10166   */\n  0xffffffffffffffffffffffffffffffffffffffffffffffffffffffffffffffff\n    /* \"#utility.yul\":10093:10098   */\n  dup3\n    /* \"#utility.yul\":10090:10167   */\n  eq\n    /* \"#utility.yul\":10087:10190   */\n  iszero\n  tag_171\n  jumpi\n    /* \"#utility.yul\":10170:10188   */\n  tag_172\n  tag_71\n  jump\t// in\ntag_172:\n    /* \"#utility.yul\":10087:10190   */\ntag_171:\n    /* \"#utility.yul\":10217:10218   */\n  0x01\n    /* \"#utility.yul\":10210:10215   */\n  dup3\n    /* \"#utility.yul\":10206:10219   */\n  add\n    /* \"#utility.yul\":10199:10219   */\n  swap1\n  pop\n    /* \"#utility.yul\":9992:10225   */\n  swap2\n  swap1\n  pop\n  jump\t// out\n    /* \"contracts/LooksRare/TokenSplitter.sol\":438:4497  contract TokenSplitter is Ownable, ReentrancyGuard {... */\ntag_39:\n  mload(0x80)\n  mload(0xa0)\n  codecopy(0x00, dataOffset(sub_0), dataSize(sub_0))\n  0x00\n  assignImmutable(\"0x588e5ad3f145f9d841773d4229bac23d743ef980914ad5d2b613712259f67f55\")\n  0x00\n  assignImmutable(\"0xadda5d3d116db89da9e084ab1b2cc501d795d98d1503f1026c7e065d5d1e5ce7\")\n  return(0x00, dataSize(sub_0))\nstop\n\nsub_0: assembly {\n        /* \"contracts/LooksRare/TokenSplitter.sol\":438:4497  contract TokenSplitter is Ownable, ReentrancyGuard {... */\n      mstore(0x40, 0x80)\n      callvalue\n      dup1\n      iszero\n      tag_1\n      jumpi\n      0x00\n      dup1\n      revert\n    tag_1:\n      pop\n      jumpi(tag_2, lt(calldatasize, 0x04))\n      shr(0xe0, calldataload(0x00))\n      dup1\n      0x87b0be48\n      gt\n      tag_13\n      jumpi\n      dup1\n      0x87b0be48\n      eq\n      tag_8\n      jumpi\n      dup1\n      0x8da5cb5b\n      eq\n      tag_9\n      jumpi\n      dup1\n      0xa7310b58\n      eq\n      tag_10\n      jumpi\n      dup1\n      0xd8f163ab\n      eq\n      tag_11\n      jumpi\n      dup1\n      0xf2fde38b\n      eq\n      tag_12\n      jumpi\n      jump(tag_2)\n    tag_13:\n      dup1\n      0x097aad10\n      eq\n      tag_3\n      jumpi\n      dup1\n      0x19281afd\n      eq\n      tag_4\n      jumpi\n      dup1\n      0x6895179d\n      eq\n      tag_5\n      jumpi\n      dup1\n      0x715018a6\n      eq\n      tag_6\n      jumpi\n      dup1\n      0x85e3f997\n      eq\n      tag_7\n      jumpi\n    tag_2:\n      0x00\n      dup1\n      revert\n        /* \"contracts/LooksRare/TokenSplitter.sol\":4018:4494  function calculatePendingRewards(address account) external view returns (uint256) {... */\n    tag_3:\n      tag_14\n      0x04\n      dup1\n      calldatasize\n      sub\n      dup2\n      add\n      swap1\n      tag_15\n      swap2\n      swap1\n      tag_16\n      jump\t// in\n    tag_15:\n      tag_17\n      jump\t// in\n    tag_14:\n      mload(0x40)\n      tag_18\n      swap2\n      swap1\n      tag_19\n      jump\t// in\n    tag_18:\n      mload(0x40)\n      dup1\n      swap2\n      sub\n      swap1\n      return\n        /* \"contracts/LooksRare/TokenSplitter.sol\":3074:3874  function updateSharesOwner(address _newRecipient, address _currentRecipient) external onlyOwner {... */\n    tag_4:\n      tag_20\n      0x04\n      dup1\n      calldatasize\n      sub\n      dup2\n      add\n      swap1\n      tag_21\n      swap2\n      swap1\n      tag_22\n      jump\t// in\n    tag_21:\n      tag_23\n      jump\t// in\n    tag_20:\n      stop\n        /* \"contracts/LooksRare/TokenSplitter.sol\":682:715  IERC20 public immutable testToken */\n    tag_5:\n      tag_24\n      tag_25\n      jump\t// in\n    tag_24:\n      mload(0x40)\n      tag_26\n      swap2\n      swap1\n      tag_27\n      jump\t// in\n    tag_26:\n      mload(0x40)\n      dup1\n      swap2\n      sub\n      swap1\n      return\n        /* \"@openzeppelin/contracts/access/Ownable.sol\":1668:1769  function renounceOwnership() public virtual onlyOwner {... */\n    tag_6:\n      tag_28\n      tag_29\n      jump\t// in\n    tag_28:\n      stop\n        /* \"contracts/LooksRare/TokenSplitter.sol\":636:673  uint256 public immutable TOTAL_SHARES */\n    tag_7:\n      tag_30\n      tag_31\n      jump\t// in\n    tag_30:\n      mload(0x40)\n      tag_32\n      swap2\n      swap1\n      tag_19\n      jump\t// in\n    tag_32:\n      mload(0x40)\n      dup1\n      swap2\n      sub\n      swap1\n      return\n        /* \"contracts/LooksRare/TokenSplitter.sol\":2011:2885  function releaseTokens(address account) external nonReentrant {... */\n    tag_8:\n      tag_33\n      0x04\n      dup1\n      calldatasize\n      sub\n      dup2\n      add\n      swap1\n      tag_34\n      swap2\n      swap1\n      tag_16\n      jump\t// in\n    tag_34:\n      tag_35\n      jump\t// in\n    tag_33:\n      stop\n        /* \"@openzeppelin/contracts/access/Ownable.sol\":1036:1121  function owner() public view virtual returns (address) {... */\n    tag_9:\n      tag_36\n      tag_37\n      jump\t// in\n    tag_36:\n      mload(0x40)\n      tag_38\n      swap2\n      swap1\n      tag_39\n      jump\t// in\n    tag_38:\n      mload(0x40)\n      dup1\n      swap2\n      sub\n      swap1\n      return\n        /* \"contracts/LooksRare/TokenSplitter.sol\":829:879  mapping(address => AccountInfo) public accountInfo */\n    tag_10:\n      tag_40\n      0x04\n      dup1\n      calldatasize\n      sub\n      dup2\n      add\n      swap1\n      tag_41\n      swap2\n      swap1\n      tag_16\n      jump\t// in\n    tag_41:\n      tag_42\n      jump\t// in\n    tag_40:\n      mload(0x40)\n      tag_43\n      swap3\n      swap2\n      swap1\n      tag_44\n      jump\t// in\n    tag_43:\n      mload(0x40)\n      dup1\n      swap2\n      sub\n      swap1\n      return\n        /* \"contracts/LooksRare/TokenSplitter.sol\":783:820  uint256 public totalTokensDistributed */\n    tag_11:\n      tag_45\n      tag_46\n      jump\t// in\n    tag_45:\n      mload(0x40)\n      tag_47\n      swap2\n      swap1\n      tag_19\n      jump\t// in\n    tag_47:\n      mload(0x40)\n      dup1\n      swap2\n      sub\n      swap1\n      return\n        /* \"@openzeppelin/contracts/access/Ownable.sol\":1918:2116  function transferOwnership(address newOwner) public virtual onlyOwner {... */\n    tag_12:\n      tag_48\n      0x04\n      dup1\n      calldatasize\n      sub\n      dup2\n      add\n      swap1\n      tag_49\n      swap2\n      swap1\n      tag_16\n      jump\t// in\n    tag_49:\n      tag_50\n      jump\t// in\n    tag_48:\n      stop\n        /* \"contracts/LooksRare/TokenSplitter.sol\":4018:4494  function calculatePendingRewards(address account) external view returns (uint256) {... */\n    tag_17:\n        /* \"contracts/LooksRare/TokenSplitter.sol\":4091:4098  uint256 */\n      0x00\n        /* \"contracts/LooksRare/TokenSplitter.sol\":4146:4147  0 */\n      dup1\n        /* \"contracts/LooksRare/TokenSplitter.sol\":4115:4126  accountInfo */\n      0x03\n        /* \"contracts/LooksRare/TokenSplitter.sol\":4115:4135  accountInfo[account] */\n      0x00\n        /* \"contracts/LooksRare/TokenSplitter.sol\":4127:4134  account */\n      dup5\n        /* \"contracts/LooksRare/TokenSplitter.sol\":4115:4135  accountInfo[account] */\n      0xffffffffffffffffffffffffffffffffffffffff\n      and\n      0xffffffffffffffffffffffffffffffffffffffff\n      and\n      dup2\n      mstore\n      0x20\n      add\n      swap1\n      dup2\n      mstore\n      0x20\n      add\n      0x00\n      keccak256\n        /* \"contracts/LooksRare/TokenSplitter.sol\":4115:4142  accountInfo[account].shares */\n      0x00\n      add\n      sload\n        /* \"contracts/LooksRare/TokenSplitter.sol\":4115:4147  accountInfo[account].shares == 0 */\n      eq\n        /* \"contracts/LooksRare/TokenSplitter.sol\":4111:4184  if (accountInfo[account].shares == 0) {... */\n      iszero\n      tag_52\n      jumpi\n        /* \"contracts/LooksRare/TokenSplitter.sol\":4171:4172  0 */\n      0x00\n        /* \"contracts/LooksRare/TokenSplitter.sol\":4164:4172  return 0 */\n      swap1\n      pop\n      jump(tag_51)\n        /* \"contracts/LooksRare/TokenSplitter.sol\":4111:4184  if (accountInfo[account].shares == 0) {... */\n    tag_52:\n        /* \"contracts/LooksRare/TokenSplitter.sol\":4196:4223  uint256 totalTokensReceived */\n      0x00\n        /* \"contracts/LooksRare/TokenSplitter.sol\":4263:4285  totalTokensDistributed */\n      sload(0x02)\n        /* \"contracts/LooksRare/TokenSplitter.sol\":4226:4235  testToken */\n      immutable(\"0x588e5ad3f145f9d841773d4229bac23d743ef980914ad5d2b613712259f67f55\")\n        /* \"contracts/LooksRare/TokenSplitter.sol\":4226:4245  testToken.balanceOf */\n      0xffffffffffffffffffffffffffffffffffffffff\n      and\n      0x70a08231\n        /* \"contracts/LooksRare/TokenSplitter.sol\":4254:4258  this */\n      address\n        /* \"contracts/LooksRare/TokenSplitter.sol\":4226:4260  testToken.balanceOf(address(this)) */\n      mload(0x40)\n      dup3\n      0xffffffff\n      and\n      0xe0\n      shl\n      dup2\n      mstore\n      0x04\n      add\n      tag_53\n      swap2\n      swap1\n      tag_39\n      jump\t// in\n    tag_53:\n      0x20\n      mload(0x40)\n      dup1\n      dup4\n      sub\n      dup2\n      dup7\n      gas\n      staticcall\n      iszero\n      dup1\n      iszero\n      tag_55\n      jumpi\n      returndatasize\n      0x00\n      dup1\n      returndatacopy\n      revert(0x00, returndatasize)\n    tag_55:\n      pop\n      pop\n      pop\n      pop\n      mload(0x40)\n      returndatasize\n      not(0x1f)\n      0x1f\n      dup3\n      add\n      and\n      dup3\n      add\n      dup1\n      0x40\n      mstore\n      pop\n      dup2\n      add\n      swap1\n      tag_56\n      swap2\n      swap1\n      tag_57\n      jump\t// in\n    tag_56:\n        /* \"contracts/LooksRare/TokenSplitter.sol\":4226:4285  testToken.balanceOf(address(this)) + totalTokensDistributed */\n      tag_58\n      swap2\n      swap1\n      tag_59\n      jump\t// in\n    tag_58:\n        /* \"contracts/LooksRare/TokenSplitter.sol\":4196:4285  uint256 totalTokensReceived = testToken.balanceOf(address(this)) + totalTokensDistributed */\n      swap1\n      pop\n        /* \"contracts/LooksRare/TokenSplitter.sol\":4296:4318  uint256 pendingRewards */\n      0x00\n        /* \"contracts/LooksRare/TokenSplitter.sol\":4405:4416  accountInfo */\n      0x03\n        /* \"contracts/LooksRare/TokenSplitter.sol\":4405:4425  accountInfo[account] */\n      0x00\n        /* \"contracts/LooksRare/TokenSplitter.sol\":4417:4424  account */\n      dup6\n        /* \"contracts/LooksRare/TokenSplitter.sol\":4405:4425  accountInfo[account] */\n      0xffffffffffffffffffffffffffffffffffffffff\n      and\n      0xffffffffffffffffffffffffffffffffffffffff\n      and\n      dup2\n      mstore\n      0x20\n      add\n      swap1\n      dup2\n      mstore\n      0x20\n      add\n      0x00\n      keccak256\n        /* \"contracts/LooksRare/TokenSplitter.sol\":4405:4452  accountInfo[account].tokensDistributedToAccount */\n      0x01\n      add\n      sload\n        /* \"contracts/LooksRare/TokenSplitter.sol\":4376:4388  TOTAL_SHARES */\n      immutable(\"0xadda5d3d116db89da9e084ab1b2cc501d795d98d1503f1026c7e065d5d1e5ce7\")\n        /* \"contracts/LooksRare/TokenSplitter.sol\":4345:4356  accountInfo */\n      0x03\n        /* \"contracts/LooksRare/TokenSplitter.sol\":4345:4365  accountInfo[account] */\n      0x00\n        /* \"contracts/LooksRare/TokenSplitter.sol\":4357:4364  account */\n      dup8\n        /* \"contracts/LooksRare/TokenSplitter.sol\":4345:4365  accountInfo[account] */\n      0xffffffffffffffffffffffffffffffffffffffff\n      and\n      0xffffffffffffffffffffffffffffffffffffffff\n      and\n      dup2\n      mstore\n      0x20\n      add\n      swap1\n      dup2\n      mstore\n      0x20\n      add\n      0x00\n      keccak256\n        /* \"contracts/LooksRare/TokenSplitter.sol\":4345:4372  accountInfo[account].shares */\n      0x00\n      add\n      sload\n        /* \"contracts/LooksRare/TokenSplitter.sol\":4323:4342  totalTokensReceived */\n      dup5\n        /* \"contracts/LooksRare/TokenSplitter.sol\":4323:4372  totalTokensReceived * accountInfo[account].shares */\n      tag_60\n      swap2\n      swap1\n      tag_61\n      jump\t// in\n    tag_60:\n        /* \"contracts/LooksRare/TokenSplitter.sol\":4322:4388  (totalTokensReceived * accountInfo[account].shares) / TOTAL_SHARES */\n      tag_62\n      swap2\n      swap1\n      tag_63\n      jump\t// in\n    tag_62:\n        /* \"contracts/LooksRare/TokenSplitter.sol\":4321:4452  ((totalTokensReceived * accountInfo[account].shares) / TOTAL_SHARES) -... */\n      tag_64\n      swap2\n      swap1\n      tag_65\n      jump\t// in\n    tag_64:\n        /* \"contracts/LooksRare/TokenSplitter.sol\":4296:4452  uint256 pendingRewards = ((totalTokensReceived * accountInfo[account].shares) / TOTAL_SHARES) -... */\n      swap1\n      pop\n        /* \"contracts/LooksRare/TokenSplitter.sol\":4472:4486  pendingRewards */\n      dup1\n        /* \"contracts/LooksRare/TokenSplitter.sol\":4465:4486  return pendingRewards */\n      swap3\n      pop\n      pop\n      pop\n        /* \"contracts/LooksRare/TokenSplitter.sol\":4018:4494  function calculatePendingRewards(address account) external view returns (uint256) {... */\n    tag_51:\n      swap2\n      swap1\n      pop\n      jump\t// out\n        /* \"contracts/LooksRare/TokenSplitter.sol\":3074:3874  function updateSharesOwner(address _newRecipient, address _currentRecipient) external onlyOwner {... */\n    tag_23:\n        /* \"@openzeppelin/contracts/access/Ownable.sol\":1259:1271  _msgSender() */\n      tag_67\n        /* \"@openzeppelin/contracts/access/Ownable.sol\":1259:1269  _msgSender */\n      tag_68\n        /* \"@openzeppelin/contracts/access/Ownable.sol\":1259:1271  _msgSender() */\n      jump\t// in\n    tag_67:\n        /* \"@openzeppelin/contracts/access/Ownable.sol\":1248:1271  owner() == _msgSender() */\n      0xffffffffffffffffffffffffffffffffffffffff\n      and\n        /* \"@openzeppelin/contracts/access/Ownable.sol\":1248:1255  owner() */\n      tag_69\n        /* \"@openzeppelin/contracts/access/Ownable.sol\":1248:1253  owner */\n      tag_37\n        /* \"@openzeppelin/contracts/access/Ownable.sol\":1248:1255  owner() */\n      jump\t// in\n    tag_69:\n        /* \"@openzeppelin/contracts/access/Ownable.sol\":1248:1271  owner() == _msgSender() */\n      0xffffffffffffffffffffffffffffffffffffffff\n      and\n      eq\n        /* \"@openzeppelin/contracts/access/Ownable.sol\":1240:1308  require(owner() == _msgSender(), \"Ownable: caller is not the owner\") */\n      tag_70\n      jumpi\n      mload(0x40)\n      0x08c379a000000000000000000000000000000000000000000000000000000000\n      dup2\n      mstore\n      0x04\n      add\n      tag_71\n      swap1\n      tag_72\n      jump\t// in\n    tag_71:\n      mload(0x40)\n      dup1\n      swap2\n      sub\n      swap1\n      revert\n    tag_70:\n        /* \"contracts/LooksRare/TokenSplitter.sol\":3229:3230  0 */\n      0x00\n        /* \"contracts/LooksRare/TokenSplitter.sol\":3189:3200  accountInfo */\n      0x03\n        /* \"contracts/LooksRare/TokenSplitter.sol\":3189:3219  accountInfo[_currentRecipient] */\n      0x00\n        /* \"contracts/LooksRare/TokenSplitter.sol\":3201:3218  _currentRecipient */\n      dup4\n        /* \"contracts/LooksRare/TokenSplitter.sol\":3189:3219  accountInfo[_currentRecipient] */\n      0xffffffffffffffffffffffffffffffffffffffff\n      and\n      0xffffffffffffffffffffffffffffffffffffffff\n      and\n      dup2\n      mstore\n      0x20\n      add\n      swap1\n      dup2\n      mstore\n      0x20\n      add\n      0x00\n      keccak256\n        /* \"contracts/LooksRare/TokenSplitter.sol\":3189:3226  accountInfo[_currentRecipient].shares */\n      0x00\n      add\n      sload\n        /* \"contracts/LooksRare/TokenSplitter.sol\":3189:3230  accountInfo[_currentRecipient].shares > 0 */\n      gt\n        /* \"contracts/LooksRare/TokenSplitter.sol\":3181:3273  require(accountInfo[_currentRecipient].shares > 0, \"Owner: Current recipient has no shares\") */\n      tag_74\n      jumpi\n      mload(0x40)\n      0x08c379a000000000000000000000000000000000000000000000000000000000\n      dup2\n      mstore\n      0x04\n      add\n      tag_75\n      swap1\n      tag_76\n      jump\t// in\n    tag_75:\n      mload(0x40)\n      dup1\n      swap2\n      sub\n      swap1\n      revert\n    tag_74:\n        /* \"contracts/LooksRare/TokenSplitter.sol\":3329:3330  0 */\n      0x00\n        /* \"contracts/LooksRare/TokenSplitter.sol\":3292:3303  accountInfo */\n      0x03\n        /* \"contracts/LooksRare/TokenSplitter.sol\":3292:3318  accountInfo[_newRecipient] */\n      0x00\n        /* \"contracts/LooksRare/TokenSplitter.sol\":3304:3317  _newRecipient */\n      dup5\n        /* \"contracts/LooksRare/TokenSplitter.sol\":3292:3318  accountInfo[_newRecipient] */\n      0xffffffffffffffffffffffffffffffffffffffff\n      and\n      0xffffffffffffffffffffffffffffffffffffffff\n      and\n      dup2\n      mstore\n      0x20\n      add\n      swap1\n      dup2\n      mstore\n      0x20\n      add\n      0x00\n      keccak256\n        /* \"contracts/LooksRare/TokenSplitter.sol\":3292:3325  accountInfo[_newRecipient].shares */\n      0x00\n      add\n      sload\n        /* \"contracts/LooksRare/TokenSplitter.sol\":3292:3330  accountInfo[_newRecipient].shares == 0 */\n      eq\n        /* \"contracts/LooksRare/TokenSplitter.sol\":3284:3375  require(accountInfo[_newRecipient].shares == 0, \"Owner: New recipient has existing shares\") */\n      tag_77\n      jumpi\n      mload(0x40)\n      0x08c379a000000000000000000000000000000000000000000000000000000000\n      dup2\n      mstore\n      0x04\n      add\n      tag_78\n      swap1\n      tag_79\n      jump\t// in\n    tag_78:\n      mload(0x40)\n      dup1\n      swap2\n      sub\n      swap1\n      revert\n    tag_77:\n        /* \"contracts/LooksRare/TokenSplitter.sol\":3465:3476  accountInfo */\n      0x03\n        /* \"contracts/LooksRare/TokenSplitter.sol\":3465:3495  accountInfo[_currentRecipient] */\n      0x00\n        /* \"contracts/LooksRare/TokenSplitter.sol\":3477:3494  _currentRecipient */\n      dup3\n        /* \"contracts/LooksRare/TokenSplitter.sol\":3465:3495  accountInfo[_currentRecipient] */\n      0xffffffffffffffffffffffffffffffffffffffff\n      and\n      0xffffffffffffffffffffffffffffffffffffffff\n      and\n      dup2\n      mstore\n      0x20\n      add\n      swap1\n      dup2\n      mstore\n      0x20\n      add\n      0x00\n      keccak256\n        /* \"contracts/LooksRare/TokenSplitter.sol\":3465:3502  accountInfo[_currentRecipient].shares */\n      0x00\n      add\n      sload\n        /* \"contracts/LooksRare/TokenSplitter.sol\":3429:3440  accountInfo */\n      0x03\n        /* \"contracts/LooksRare/TokenSplitter.sol\":3429:3455  accountInfo[_newRecipient] */\n      0x00\n        /* \"contracts/LooksRare/TokenSplitter.sol\":3441:3454  _newRecipient */\n      dup5\n        /* \"contracts/LooksRare/TokenSplitter.sol\":3429:3455  accountInfo[_newRecipient] */\n      0xffffffffffffffffffffffffffffffffffffffff\n      and\n      0xffffffffffffffffffffffffffffffffffffffff\n      and\n      dup2\n      mstore\n      0x20\n      add\n      swap1\n      dup2\n      mstore\n      0x20\n      add\n      0x00\n      keccak256\n        /* \"contracts/LooksRare/TokenSplitter.sol\":3429:3462  accountInfo[_newRecipient].shares */\n      0x00\n      add\n        /* \"contracts/LooksRare/TokenSplitter.sol\":3429:3502  accountInfo[_newRecipient].shares = accountInfo[_currentRecipient].shares */\n      dup2\n      swap1\n      sstore\n      pop\n        /* \"contracts/LooksRare/TokenSplitter.sol\":3569:3580  accountInfo */\n      0x03\n        /* \"contracts/LooksRare/TokenSplitter.sol\":3569:3599  accountInfo[_currentRecipient] */\n      0x00\n        /* \"contracts/LooksRare/TokenSplitter.sol\":3581:3598  _currentRecipient */\n      dup3\n        /* \"contracts/LooksRare/TokenSplitter.sol\":3569:3599  accountInfo[_currentRecipient] */\n      0xffffffffffffffffffffffffffffffffffffffff\n      and\n      0xffffffffffffffffffffffffffffffffffffffff\n      and\n      dup2\n      mstore\n      0x20\n      add\n      swap1\n      dup2\n      mstore\n      0x20\n      add\n      0x00\n      keccak256\n        /* \"contracts/LooksRare/TokenSplitter.sol\":3569:3640  accountInfo[_currentRecipient]... */\n      0x01\n      add\n      sload\n        /* \"contracts/LooksRare/TokenSplitter.sol\":3513:3524  accountInfo */\n      0x03\n        /* \"contracts/LooksRare/TokenSplitter.sol\":3513:3539  accountInfo[_newRecipient] */\n      0x00\n        /* \"contracts/LooksRare/TokenSplitter.sol\":3525:3538  _newRecipient */\n      dup5\n        /* \"contracts/LooksRare/TokenSplitter.sol\":3513:3539  accountInfo[_newRecipient] */\n      0xffffffffffffffffffffffffffffffffffffffff\n      and\n      0xffffffffffffffffffffffffffffffffffffffff\n      and\n      dup2\n      mstore\n      0x20\n      add\n      swap1\n      dup2\n      mstore\n      0x20\n      add\n      0x00\n      keccak256\n        /* \"contracts/LooksRare/TokenSplitter.sol\":3513:3566  accountInfo[_newRecipient].tokensDistributedToAccount */\n      0x01\n      add\n        /* \"contracts/LooksRare/TokenSplitter.sol\":3513:3640  accountInfo[_newRecipient].tokensDistributedToAccount = accountInfo[_currentRecipient]... */\n      dup2\n      swap1\n      sstore\n      pop\n        /* \"contracts/LooksRare/TokenSplitter.sol\":3727:3728  0 */\n      0x00\n        /* \"contracts/LooksRare/TokenSplitter.sol\":3687:3698  accountInfo */\n      0x03\n        /* \"contracts/LooksRare/TokenSplitter.sol\":3687:3717  accountInfo[_currentRecipient] */\n      0x00\n        /* \"contracts/LooksRare/TokenSplitter.sol\":3699:3716  _currentRecipient */\n      dup4\n        /* \"contracts/LooksRare/TokenSplitter.sol\":3687:3717  accountInfo[_currentRecipient] */\n      0xffffffffffffffffffffffffffffffffffffffff\n      and\n      0xffffffffffffffffffffffffffffffffffffffff\n      and\n      dup2\n      mstore\n      0x20\n      add\n      swap1\n      dup2\n      mstore\n      0x20\n      add\n      0x00\n      keccak256\n        /* \"contracts/LooksRare/TokenSplitter.sol\":3687:3724  accountInfo[_currentRecipient].shares */\n      0x00\n      add\n        /* \"contracts/LooksRare/TokenSplitter.sol\":3687:3728  accountInfo[_currentRecipient].shares = 0 */\n      dup2\n      swap1\n      sstore\n      pop\n        /* \"contracts/LooksRare/TokenSplitter.sol\":3799:3800  0 */\n      0x00\n        /* \"contracts/LooksRare/TokenSplitter.sol\":3739:3750  accountInfo */\n      0x03\n        /* \"contracts/LooksRare/TokenSplitter.sol\":3739:3769  accountInfo[_currentRecipient] */\n      0x00\n        /* \"contracts/LooksRare/TokenSplitter.sol\":3751:3768  _currentRecipient */\n      dup4\n        /* \"contracts/LooksRare/TokenSplitter.sol\":3739:3769  accountInfo[_currentRecipient] */\n      0xffffffffffffffffffffffffffffffffffffffff\n      and\n      0xffffffffffffffffffffffffffffffffffffffff\n      and\n      dup2\n      mstore\n      0x20\n      add\n      swap1\n      dup2\n      mstore\n      0x20\n      add\n      0x00\n      keccak256\n        /* \"contracts/LooksRare/TokenSplitter.sol\":3739:3796  accountInfo[_currentRecipient].tokensDistributedToAccount */\n      0x01\n      add\n        /* \"contracts/LooksRare/TokenSplitter.sol\":3739:3800  accountInfo[_currentRecipient].tokensDistributedToAccount = 0 */\n      dup2\n      swap1\n      sstore\n      pop\n        /* \"contracts/LooksRare/TokenSplitter.sol\":3852:3865  _newRecipient */\n      dup2\n        /* \"contracts/LooksRare/TokenSplitter.sol\":3818:3866  NewSharesOwner(_currentRecipient, _newRecipient) */\n      0xffffffffffffffffffffffffffffffffffffffff\n      and\n        /* \"contracts/LooksRare/TokenSplitter.sol\":3833:3850  _currentRecipient */\n      dup2\n        /* \"contracts/LooksRare/TokenSplitter.sol\":3818:3866  NewSharesOwner(_currentRecipient, _newRecipient) */\n      0xffffffffffffffffffffffffffffffffffffffff\n      and\n      0x47eba4993da31bfed0680c802fb8577f1a9d57bb4c0881372fbe7ad29995a880\n      mload(0x40)\n      mload(0x40)\n      dup1\n      swap2\n      sub\n      swap1\n      log3\n        /* \"contracts/LooksRare/TokenSplitter.sol\":3074:3874  function updateSharesOwner(address _newRecipient, address _currentRecipient) external onlyOwner {... */\n      pop\n      pop\n      jump\t// out\n        /* \"contracts/LooksRare/TokenSplitter.sol\":682:715  IERC20 public immutable testToken */\n    tag_25:\n      immutable(\"0x588e5ad3f145f9d841773d4229bac23d743ef980914ad5d2b613712259f67f55\")\n      dup2\n      jump\t// out\n        /* \"@openzeppelin/contracts/access/Ownable.sol\":1668:1769  function renounceOwnership() public virtual onlyOwner {... */\n    tag_29:\n        /* \"@openzeppelin/contracts/access/Ownable.sol\":1259:1271  _msgSender() */\n      tag_81\n        /* \"@openzeppelin/contracts/access/Ownable.sol\":1259:1269  _msgSender */\n      tag_68\n        /* \"@openzeppelin/contracts/access/Ownable.sol\":1259:1271  _msgSender() */\n      jump\t// in\n    tag_81:\n        /* \"@openzeppelin/contracts/access/Ownable.sol\":1248:1271  owner() == _msgSender() */\n      0xffffffffffffffffffffffffffffffffffffffff\n      and\n        /* \"@openzeppelin/contracts/access/Ownable.sol\":1248:1255  owner() */\n      tag_82\n        /* \"@openzeppelin/contracts/access/Ownable.sol\":1248:1253  owner */\n      tag_37\n        /* \"@openzeppelin/contracts/access/Ownable.sol\":1248:1255  owner() */\n      jump\t// in\n    tag_82:\n        /* \"@openzeppelin/contracts/access/Ownable.sol\":1248:1271  owner() == _msgSender() */\n      0xffffffffffffffffffffffffffffffffffffffff\n      and\n      eq\n        /* \"@openzeppelin/contracts/access/Ownable.sol\":1240:1308  require(owner() == _msgSender(), \"Ownable: caller is not the owner\") */\n      tag_83\n      jumpi\n      mload(0x40)\n      0x08c379a000000000000000000000000000000000000000000000000000000000\n      dup2\n      mstore\n      0x04\n      add\n      tag_84\n      swap1\n      tag_72\n      jump\t// in\n    tag_84:\n      mload(0x40)\n      dup1\n      swap2\n      sub\n      swap1\n      revert\n    tag_83:\n        /* \"@openzeppelin/contracts/access/Ownable.sol\":1732:1762  _transferOwnership(address(0)) */\n      tag_86\n        /* \"@openzeppelin/contracts/access/Ownable.sol\":1759:1760  0 */\n      0x00\n        /* \"@openzeppelin/contracts/access/Ownable.sol\":1732:1750  _transferOwnership */\n      tag_87\n        /* \"@openzeppelin/contracts/access/Ownable.sol\":1732:1762  _transferOwnership(address(0)) */\n      jump\t// in\n    tag_86:\n        /* \"@openzeppelin/contracts/access/Ownable.sol\":1668:1769  function renounceOwnership() public virtual onlyOwner {... */\n      jump\t// out\n        /* \"contracts/LooksRare/TokenSplitter.sol\":636:673  uint256 public immutable TOTAL_SHARES */\n    tag_31:\n      immutable(\"0xadda5d3d116db89da9e084ab1b2cc501d795d98d1503f1026c7e065d5d1e5ce7\")\n      dup2\n      jump\t// out\n        /* \"contracts/LooksRare/TokenSplitter.sol\":2011:2885  function releaseTokens(address account) external nonReentrant {... */\n    tag_35:\n        /* \"@openzeppelin/contracts/security/ReentrancyGuard.sol\":1744:1745  2 */\n      0x02\n        /* \"@openzeppelin/contracts/security/ReentrancyGuard.sol\":2325:2332  _status */\n      sload(0x01)\n        /* \"@openzeppelin/contracts/security/ReentrancyGuard.sol\":2325:2344  _status != _ENTERED */\n      eq\n      iszero\n        /* \"@openzeppelin/contracts/security/ReentrancyGuard.sol\":2317:2380  require(_status != _ENTERED, \"ReentrancyGuard: reentrant call\") */\n      tag_89\n      jumpi\n      mload(0x40)\n      0x08c379a000000000000000000000000000000000000000000000000000000000\n      dup2\n      mstore\n      0x04\n      add\n      tag_90\n      swap1\n      tag_91\n      jump\t// in\n    tag_90:\n      mload(0x40)\n      dup1\n      swap2\n      sub\n      swap1\n      revert\n    tag_89:\n        /* \"@openzeppelin/contracts/security/ReentrancyGuard.sol\":1744:1745  2 */\n      0x02\n        /* \"@openzeppelin/contracts/security/ReentrancyGuard.sol\":2455:2462  _status */\n      0x01\n        /* \"@openzeppelin/contracts/security/ReentrancyGuard.sol\":2455:2473  _status = _ENTERED */\n      dup2\n      swap1\n      sstore\n      pop\n        /* \"contracts/LooksRare/TokenSplitter.sol\":2122:2123  0 */\n      0x00\n        /* \"contracts/LooksRare/TokenSplitter.sol\":2092:2103  accountInfo */\n      0x03\n        /* \"contracts/LooksRare/TokenSplitter.sol\":2092:2112  accountInfo[account] */\n      0x00\n        /* \"contracts/LooksRare/TokenSplitter.sol\":2104:2111  account */\n      dup4\n        /* \"contracts/LooksRare/TokenSplitter.sol\":2092:2112  accountInfo[account] */\n      0xffffffffffffffffffffffffffffffffffffffff\n      and\n      0xffffffffffffffffffffffffffffffffffffffff\n      and\n      dup2\n      mstore\n      0x20\n      add\n      swap1\n      dup2\n      mstore\n      0x20\n      add\n      0x00\n      keccak256\n        /* \"contracts/LooksRare/TokenSplitter.sol\":2092:2119  accountInfo[account].shares */\n      0x00\n      add\n      sload\n        /* \"contracts/LooksRare/TokenSplitter.sol\":2092:2123  accountInfo[account].shares > 0 */\n      gt\n        /* \"contracts/LooksRare/TokenSplitter.sol\":2084:2158  require(accountInfo[account].shares > 0, \"Splitter: Account has no share\") */\n      tag_93\n      jumpi\n      mload(0x40)\n      0x08c379a000000000000000000000000000000000000000000000000000000000\n      dup2\n      mstore\n      0x04\n      add\n      tag_94\n      swap1\n      tag_95\n      jump\t// in\n    tag_94:\n      mload(0x40)\n      dup1\n      swap2\n      sub\n      swap1\n      revert\n    tag_93:\n        /* \"contracts/LooksRare/TokenSplitter.sol\":2227:2254  uint256 totalTokensReceived */\n      0x00\n        /* \"contracts/LooksRare/TokenSplitter.sol\":2294:2316  totalTokensDistributed */\n      sload(0x02)\n        /* \"contracts/LooksRare/TokenSplitter.sol\":2257:2266  testToken */\n      immutable(\"0x588e5ad3f145f9d841773d4229bac23d743ef980914ad5d2b613712259f67f55\")\n        /* \"contracts/LooksRare/TokenSplitter.sol\":2257:2276  testToken.balanceOf */\n      0xffffffffffffffffffffffffffffffffffffffff\n      and\n      0x70a08231\n        /* \"contracts/LooksRare/TokenSplitter.sol\":2285:2289  this */\n      address\n        /* \"contracts/LooksRare/TokenSplitter.sol\":2257:2291  testToken.balanceOf(address(this)) */\n      mload(0x40)\n      dup3\n      0xffffffff\n      and\n      0xe0\n      shl\n      dup2\n      mstore\n      0x04\n      add\n      tag_96\n      swap2\n      swap1\n      tag_39\n      jump\t// in\n    tag_96:\n      0x20\n      mload(0x40)\n      dup1\n      dup4\n      sub\n      dup2\n      dup7\n      gas\n      staticcall\n      iszero\n      dup1\n      iszero\n      tag_98\n      jumpi\n      returndatasize\n      0x00\n      dup1\n      returndatacopy\n      revert(0x00, returndatasize)\n    tag_98:\n      pop\n      pop\n      pop\n      pop\n      mload(0x40)\n      returndatasize\n      not(0x1f)\n      0x1f\n      dup3\n      add\n      and\n      dup3\n      add\n      dup1\n      0x40\n      mstore\n      pop\n      dup2\n      add\n      swap1\n      tag_99\n      swap2\n      swap1\n      tag_57\n      jump\t// in\n    tag_99:\n        /* \"contracts/LooksRare/TokenSplitter.sol\":2257:2316  testToken.balanceOf(address(this)) + totalTokensDistributed */\n      tag_100\n      swap2\n      swap1\n      tag_59\n      jump\t// in\n    tag_100:\n        /* \"contracts/LooksRare/TokenSplitter.sol\":2227:2316  uint256 totalTokensReceived = testToken.balanceOf(address(this)) + totalTokensDistributed */\n      swap1\n      pop\n        /* \"contracts/LooksRare/TokenSplitter.sol\":2327:2349  uint256 pendingRewards */\n      0x00\n        /* \"contracts/LooksRare/TokenSplitter.sol\":2436:2447  accountInfo */\n      0x03\n        /* \"contracts/LooksRare/TokenSplitter.sol\":2436:2456  accountInfo[account] */\n      0x00\n        /* \"contracts/LooksRare/TokenSplitter.sol\":2448:2455  account */\n      dup5\n        /* \"contracts/LooksRare/TokenSplitter.sol\":2436:2456  accountInfo[account] */\n      0xffffffffffffffffffffffffffffffffffffffff\n      and\n      0xffffffffffffffffffffffffffffffffffffffff\n      and\n      dup2\n      mstore\n      0x20\n      add\n      swap1\n      dup2\n      mstore\n      0x20\n      add\n      0x00\n      keccak256\n        /* \"contracts/LooksRare/TokenSplitter.sol\":2436:2483  accountInfo[account].tokensDistributedToAccount */\n      0x01\n      add\n      sload\n        /* \"contracts/LooksRare/TokenSplitter.sol\":2407:2419  TOTAL_SHARES */\n      immutable(\"0xadda5d3d116db89da9e084ab1b2cc501d795d98d1503f1026c7e065d5d1e5ce7\")\n        /* \"contracts/LooksRare/TokenSplitter.sol\":2376:2387  accountInfo */\n      0x03\n        /* \"contracts/LooksRare/TokenSplitter.sol\":2376:2396  accountInfo[account] */\n      0x00\n        /* \"contracts/LooksRare/TokenSplitter.sol\":2388:2395  account */\n      dup7\n        /* \"contracts/LooksRare/TokenSplitter.sol\":2376:2396  accountInfo[account] */\n      0xffffffffffffffffffffffffffffffffffffffff\n      and\n      0xffffffffffffffffffffffffffffffffffffffff\n      and\n      dup2\n      mstore\n      0x20\n      add\n      swap1\n      dup2\n      mstore\n      0x20\n      add\n      0x00\n      keccak256\n        /* \"contracts/LooksRare/TokenSplitter.sol\":2376:2403  accountInfo[account].shares */\n      0x00\n      add\n      sload\n        /* \"contracts/LooksRare/TokenSplitter.sol\":2354:2373  totalTokensReceived */\n      dup5\n        /* \"contracts/LooksRare/TokenSplitter.sol\":2354:2403  totalTokensReceived * accountInfo[account].shares */\n      tag_101\n      swap2\n      swap1\n      tag_61\n      jump\t// in\n    tag_101:\n        /* \"contracts/LooksRare/TokenSplitter.sol\":2353:2419  (totalTokensReceived * accountInfo[account].shares) / TOTAL_SHARES */\n      tag_102\n      swap2\n      swap1\n      tag_63\n      jump\t// in\n    tag_102:\n        /* \"contracts/LooksRare/TokenSplitter.sol\":2352:2483  ((totalTokensReceived * accountInfo[account].shares) / TOTAL_SHARES) -... */\n      tag_103\n      swap2\n      swap1\n      tag_65\n      jump\t// in\n    tag_103:\n        /* \"contracts/LooksRare/TokenSplitter.sol\":2327:2483  uint256 pendingRewards = ((totalTokensReceived * accountInfo[account].shares) / TOTAL_SHARES) -... */\n      swap1\n      pop\n        /* \"contracts/LooksRare/TokenSplitter.sol\":2555:2556  0 */\n      0x00\n        /* \"contracts/LooksRare/TokenSplitter.sol\":2537:2551  pendingRewards */\n      dup2\n        /* \"contracts/LooksRare/TokenSplitter.sol\":2537:2556  pendingRewards != 0 */\n      eq\n      iszero\n        /* \"contracts/LooksRare/TokenSplitter.sol\":2529:2590  require(pendingRewards != 0, \"Splitter: Nothing to transfer\") */\n      tag_104\n      jumpi\n      mload(0x40)\n      0x08c379a000000000000000000000000000000000000000000000000000000000\n      dup2\n      mstore\n      0x04\n      add\n      tag_105\n      swap1\n      tag_106\n      jump\t// in\n    tag_105:\n      mload(0x40)\n      dup1\n      swap2\n      sub\n      swap1\n      revert\n    tag_104:\n        /* \"contracts/LooksRare/TokenSplitter.sol\":2654:2668  pendingRewards */\n      dup1\n        /* \"contracts/LooksRare/TokenSplitter.sol\":2603:2614  accountInfo */\n      0x03\n        /* \"contracts/LooksRare/TokenSplitter.sol\":2603:2623  accountInfo[account] */\n      0x00\n        /* \"contracts/LooksRare/TokenSplitter.sol\":2615:2622  account */\n      dup6\n        /* \"contracts/LooksRare/TokenSplitter.sol\":2603:2623  accountInfo[account] */\n      0xffffffffffffffffffffffffffffffffffffffff\n      and\n      0xffffffffffffffffffffffffffffffffffffffff\n      and\n      dup2\n      mstore\n      0x20\n      add\n      swap1\n      dup2\n      mstore\n      0x20\n      add\n      0x00\n      keccak256\n        /* \"contracts/LooksRare/TokenSplitter.sol\":2603:2650  accountInfo[account].tokensDistributedToAccount */\n      0x01\n      add\n      0x00\n        /* \"contracts/LooksRare/TokenSplitter.sol\":2603:2668  accountInfo[account].tokensDistributedToAccount += pendingRewards */\n      dup3\n      dup3\n      sload\n      tag_107\n      swap2\n      swap1\n      tag_59\n      jump\t// in\n    tag_107:\n      swap3\n      pop\n      pop\n      dup2\n      swap1\n      sstore\n      pop\n        /* \"contracts/LooksRare/TokenSplitter.sol\":2705:2719  pendingRewards */\n      dup1\n        /* \"contracts/LooksRare/TokenSplitter.sol\":2679:2701  totalTokensDistributed */\n      0x02\n      0x00\n        /* \"contracts/LooksRare/TokenSplitter.sol\":2679:2719  totalTokensDistributed += pendingRewards */\n      dup3\n      dup3\n      sload\n      tag_108\n      swap2\n      swap1\n      tag_59\n      jump\t// in\n    tag_108:\n      swap3\n      pop\n      pop\n      dup2\n      swap1\n      sstore\n      pop\n        /* \"contracts/LooksRare/TokenSplitter.sol\":2770:2817  testToken.safeTransfer(account, pendingRewards) */\n      tag_109\n        /* \"contracts/LooksRare/TokenSplitter.sol\":2793:2800  account */\n      dup4\n        /* \"contracts/LooksRare/TokenSplitter.sol\":2802:2816  pendingRewards */\n      dup3\n        /* \"contracts/LooksRare/TokenSplitter.sol\":2770:2779  testToken */\n      immutable(\"0x588e5ad3f145f9d841773d4229bac23d743ef980914ad5d2b613712259f67f55\")\n        /* \"contracts/LooksRare/TokenSplitter.sol\":2770:2792  testToken.safeTransfer */\n      0xffffffffffffffffffffffffffffffffffffffff\n      and\n      tag_110\n      swap1\n        /* \"contracts/LooksRare/TokenSplitter.sol\":2770:2817  testToken.safeTransfer(account, pendingRewards) */\n      swap3\n      swap2\n      swap1\n      0xffffffff\n      and\n      jump\t// in\n    tag_109:\n        /* \"contracts/LooksRare/TokenSplitter.sol\":2853:2860  account */\n      dup3\n        /* \"contracts/LooksRare/TokenSplitter.sol\":2835:2877  TokensTransferred(account, pendingRewards) */\n      0xffffffffffffffffffffffffffffffffffffffff\n      and\n      0x12f4533b5cbd2c9f8a0752a2d0b16379af992dbb2a0844a5007a19d983b3a934\n        /* \"contracts/LooksRare/TokenSplitter.sol\":2862:2876  pendingRewards */\n      dup3\n        /* \"contracts/LooksRare/TokenSplitter.sol\":2835:2877  TokensTransferred(account, pendingRewards) */\n      mload(0x40)\n      tag_111\n      swap2\n      swap1\n      tag_19\n      jump\t// in\n    tag_111:\n      mload(0x40)\n      dup1\n      swap2\n      sub\n      swap1\n      log2\n        /* \"contracts/LooksRare/TokenSplitter.sol\":2073:2885  {... */\n      pop\n      pop\n        /* \"@openzeppelin/contracts/security/ReentrancyGuard.sol\":1701:1702  1 */\n      0x01\n        /* \"@openzeppelin/contracts/security/ReentrancyGuard.sol\":2628:2635  _status */\n      dup1\n        /* \"@openzeppelin/contracts/security/ReentrancyGuard.sol\":2628:2650  _status = _NOT_ENTERED */\n      dup2\n      swap1\n      sstore\n      pop\n        /* \"contracts/LooksRare/TokenSplitter.sol\":2011:2885  function releaseTokens(address account) external nonReentrant {... */\n      pop\n      jump\t// out\n        /* \"@openzeppelin/contracts/access/Ownable.sol\":1036:1121  function owner() public view virtual returns (address) {... */\n    tag_37:\n        /* \"@openzeppelin/contracts/access/Ownable.sol\":1082:1089  address */\n      0x00\n        /* \"@openzeppelin/contracts/access/Ownable.sol\":1108:1114  _owner */\n      dup1\n      0x00\n      swap1\n      sload\n      swap1\n      0x0100\n      exp\n      swap1\n      div\n      0xffffffffffffffffffffffffffffffffffffffff\n      and\n        /* \"@openzeppelin/contracts/access/Ownable.sol\":1101:1114  return _owner */\n      swap1\n      pop\n        /* \"@openzeppelin/contracts/access/Ownable.sol\":1036:1121  function owner() public view virtual returns (address) {... */\n      swap1\n      jump\t// out\n        /* \"contracts/LooksRare/TokenSplitter.sol\":829:879  mapping(address => AccountInfo) public accountInfo */\n    tag_42:\n      mstore(0x20, 0x03)\n      dup1\n      0x00\n      mstore\n      keccak256(0x00, 0x40)\n      0x00\n      swap2\n      pop\n      swap1\n      pop\n      dup1\n      0x00\n      add\n      sload\n      swap1\n      dup1\n      0x01\n      add\n      sload\n      swap1\n      pop\n      dup3\n      jump\t// out\n        /* \"contracts/LooksRare/TokenSplitter.sol\":783:820  uint256 public totalTokensDistributed */\n    tag_46:\n      sload(0x02)\n      dup2\n      jump\t// out\n        /* \"@openzeppelin/contracts/access/Ownable.sol\":1918:2116  function transferOwnership(address newOwner) public virtual onlyOwner {... */\n    tag_50:\n        /* \"@openzeppelin/contracts/access/Ownable.sol\":1259:1271  _msgSender() */\n      tag_114\n        /* \"@openzeppelin/contracts/access/Ownable.sol\":1259:1269  _msgSender */\n      tag_68\n        /* \"@openzeppelin/contracts/access/Ownable.sol\":1259:1271  _msgSender() */\n      jump\t// in\n    tag_114:\n        /* \"@openzeppelin/contracts/access/Ownable.sol\":1248:1271  owner() == _msgSender() */\n      0xffffffffffffffffffffffffffffffffffffffff\n      and\n        /* \"@openzeppelin/contracts/access/Ownable.sol\":1248:1255  owner() */\n      tag_115\n        /* \"@openzeppelin/contracts/access/Ownable.sol\":1248:1253  owner */\n      tag_37\n        /* \"@openzeppelin/contracts/access/Ownable.sol\":1248:1255  owner() */\n      jump\t// in\n    tag_115:\n        /* \"@openzeppelin/contracts/access/Ownable.sol\":1248:1271  owner() == _msgSender() */\n      0xffffffffffffffffffffffffffffffffffffffff\n      and\n      eq\n        /* \"@openzeppelin/contracts/access/Ownable.sol\":1240:1308  require(owner() == _msgSender(), \"Ownable: caller is not the owner\") */\n      tag_116\n      jumpi\n      mload(0x40)\n      0x08c379a000000000000000000000000000000000000000000000000000000000\n      dup2\n      mstore\n      0x04\n      add\n      tag_117\n      swap1\n      tag_72\n      jump\t// in\n    tag_117:\n      mload(0x40)\n      dup1\n      swap2\n      sub\n      swap1\n      revert\n    tag_116:\n        /* \"@openzeppelin/contracts/access/Ownable.sol\":2026:2027  0 */\n      0x00\n        /* \"@openzeppelin/contracts/access/Ownable.sol\":2006:2028  newOwner != address(0) */\n      0xffffffffffffffffffffffffffffffffffffffff\n      and\n        /* \"@openzeppelin/contracts/access/Ownable.sol\":2006:2014  newOwner */\n      dup2\n        /* \"@openzeppelin/contracts/access/Ownable.sol\":2006:2028  newOwner != address(0) */\n      0xffffffffffffffffffffffffffffffffffffffff\n      and\n      eq\n      iszero\n        /* \"@openzeppelin/contracts/access/Ownable.sol\":1998:2071  require(newOwner != address(0), \"Ownable: new owner is the zero address\") */\n      tag_119\n      jumpi\n      mload(0x40)\n      0x08c379a000000000000000000000000000000000000000000000000000000000\n      dup2\n      mstore\n      0x04\n      add\n      tag_120\n      swap1\n      tag_121\n      jump\t// in\n    tag_120:\n      mload(0x40)\n      dup1\n      swap2\n      sub\n      swap1\n      revert\n    tag_119:\n        /* \"@openzeppelin/contracts/access/Ownable.sol\":2081:2109  _transferOwnership(newOwner) */\n      tag_122\n        /* \"@openzeppelin/contracts/access/Ownable.sol\":2100:2108  newOwner */\n      dup2\n        /* \"@openzeppelin/contracts/access/Ownable.sol\":2081:2099  _transferOwnership */\n      tag_87\n        /* \"@openzeppelin/contracts/access/Ownable.sol\":2081:2109  _transferOwnership(newOwner) */\n      jump\t// in\n    tag_122:\n        /* \"@openzeppelin/contracts/access/Ownable.sol\":1918:2116  function transferOwnership(address newOwner) public virtual onlyOwner {... */\n      pop\n      jump\t// out\n        /* \"@openzeppelin/contracts/utils/Context.sol\":640:736  function _msgSender() internal view virtual returns (address) {... */\n    tag_68:\n        /* \"@openzeppelin/contracts/utils/Context.sol\":693:700  address */\n      0x00\n        /* \"@openzeppelin/contracts/utils/Context.sol\":719:729  msg.sender */\n      caller\n        /* \"@openzeppelin/contracts/utils/Context.sol\":712:729  return msg.sender */\n      swap1\n      pop\n        /* \"@openzeppelin/contracts/utils/Context.sol\":640:736  function _msgSender() internal view virtual returns (address) {... */\n      swap1\n      jump\t// out\n        /* \"@openzeppelin/contracts/access/Ownable.sol\":2270:2457  function _transferOwnership(address newOwner) internal virtual {... */\n    tag_87:\n        /* \"@openzeppelin/contracts/access/Ownable.sol\":2343:2359  address oldOwner */\n      0x00\n        /* \"@openzeppelin/contracts/access/Ownable.sol\":2362:2368  _owner */\n      dup1\n      0x00\n      swap1\n      sload\n      swap1\n      0x0100\n      exp\n      swap1\n      div\n      0xffffffffffffffffffffffffffffffffffffffff\n      and\n        /* \"@openzeppelin/contracts/access/Ownable.sol\":2343:2368  address oldOwner = _owner */\n      swap1\n      pop\n        /* \"@openzeppelin/contracts/access/Ownable.sol\":2387:2395  newOwner */\n      dup2\n        /* \"@openzeppelin/contracts/access/Ownable.sol\":2378:2384  _owner */\n      0x00\n      dup1\n        /* \"@openzeppelin/contracts/access/Ownable.sol\":2378:2395  _owner = newOwner */\n      0x0100\n      exp\n      dup2\n      sload\n      dup2\n      0xffffffffffffffffffffffffffffffffffffffff\n      mul\n      not\n      and\n      swap1\n      dup4\n      0xffffffffffffffffffffffffffffffffffffffff\n      and\n      mul\n      or\n      swap1\n      sstore\n      pop\n        /* \"@openzeppelin/contracts/access/Ownable.sol\":2441:2449  newOwner */\n      dup2\n        /* \"@openzeppelin/contracts/access/Ownable.sol\":2410:2450  OwnershipTransferred(oldOwner, newOwner) */\n      0xffffffffffffffffffffffffffffffffffffffff\n      and\n        /* \"@openzeppelin/contracts/access/Ownable.sol\":2431:2439  oldOwner */\n      dup2\n        /* \"@openzeppelin/contracts/access/Ownable.sol\":2410:2450  OwnershipTransferred(oldOwner, newOwner) */\n      0xffffffffffffffffffffffffffffffffffffffff\n      and\n      0x8be0079c531659141344cd1fd0a4f28419497f9722a3daafe3b4186f6b6457e0\n      mload(0x40)\n      mload(0x40)\n      dup1\n      swap2\n      sub\n      swap1\n      log3\n        /* \"@openzeppelin/contracts/access/Ownable.sol\":2333:2457  {... */\n      pop\n        /* \"@openzeppelin/contracts/access/Ownable.sol\":2270:2457  function _transferOwnership(address newOwner) internal virtual {... */\n      pop\n      jump\t// out\n        /* \"@openzeppelin/contracts/token/ERC20/utils/SafeERC20.sol\":701:906  function safeTransfer(... */\n    tag_110:\n        /* \"@openzeppelin/contracts/token/ERC20/utils/SafeERC20.sol\":813:899  _callOptionalReturn(token, abi.encodeWithSelector(token.transfer.selector, to, value)) */\n      tag_126\n        /* \"@openzeppelin/contracts/token/ERC20/utils/SafeERC20.sol\":833:838  token */\n      dup4\n        /* \"@openzeppelin/contracts/token/ERC20/utils/SafeERC20.sol\":863:886  token.transfer.selector */\n      shl(0xe0, 0xa9059cbb)\n        /* \"@openzeppelin/contracts/token/ERC20/utils/SafeERC20.sol\":888:890  to */\n      dup5\n        /* \"@openzeppelin/contracts/token/ERC20/utils/SafeERC20.sol\":892:897  value */\n      dup5\n        /* \"@openzeppelin/contracts/token/ERC20/utils/SafeERC20.sol\":840:898  abi.encodeWithSelector(token.transfer.selector, to, value) */\n      add(0x24, mload(0x40))\n      tag_127\n      swap3\n      swap2\n      swap1\n      tag_128\n      jump\t// in\n    tag_127:\n      mload(0x40)\n      0x20\n      dup2\n      dup4\n      sub\n      sub\n      dup2\n      mstore\n      swap1\n      0x40\n      mstore\n      swap1\n      not(0xffffffffffffffffffffffffffffffffffffffffffffffffffffffff)\n      and\n      0x20\n      dup3\n      add\n      dup1\n      mload\n      0xffffffffffffffffffffffffffffffffffffffffffffffffffffffff\n      dup4\n      dup2\n      dup4\n      and\n      or\n      dup4\n      mstore\n      pop\n      pop\n      pop\n      pop\n        /* \"@openzeppelin/contracts/token/ERC20/utils/SafeERC20.sol\":813:832  _callOptionalReturn */\n      tag_129\n        /* \"@openzeppelin/contracts/token/ERC20/utils/SafeERC20.sol\":813:899  _callOptionalReturn(token, abi.encodeWithSelector(token.transfer.selector, to, value)) */\n      jump\t// in\n    tag_126:\n        /* \"@openzeppelin/contracts/token/ERC20/utils/SafeERC20.sol\":701:906  function safeTransfer(... */\n      pop\n      pop\n      pop\n      jump\t// out\n        /* \"@openzeppelin/contracts/token/ERC20/utils/SafeERC20.sol\":3207:3913  function _callOptionalReturn(IERC20 token, bytes memory data) private {... */\n    tag_129:\n        /* \"@openzeppelin/contracts/token/ERC20/utils/SafeERC20.sol\":3626:3649  bytes memory returndata */\n      0x00\n        /* \"@openzeppelin/contracts/token/ERC20/utils/SafeERC20.sol\":3652:3721  address(token).functionCall(data, \"SafeERC20: low-level call failed\") */\n      tag_131\n        /* \"@openzeppelin/contracts/token/ERC20/utils/SafeERC20.sol\":3680:3684  data */\n      dup3\n        /* \"@openzeppelin/contracts/token/ERC20/utils/SafeERC20.sol\":3652:3721  address(token).functionCall(data, \"SafeERC20: low-level call failed\") */\n      mload(0x40)\n      dup1\n      0x40\n      add\n      0x40\n      mstore\n      dup1\n      0x20\n      dup2\n      mstore\n      0x20\n      add\n      0x5361666545524332303a206c6f772d6c6576656c2063616c6c206661696c6564\n      dup2\n      mstore\n      pop\n        /* \"@openzeppelin/contracts/token/ERC20/utils/SafeERC20.sol\":3660:3665  token */\n      dup6\n        /* \"@openzeppelin/contracts/token/ERC20/utils/SafeERC20.sol\":3652:3679  address(token).functionCall */\n      0xffffffffffffffffffffffffffffffffffffffff\n      and\n      tag_132\n      swap1\n        /* \"@openzeppelin/contracts/token/ERC20/utils/SafeERC20.sol\":3652:3721  address(token).functionCall(data, \"SafeERC20: low-level call failed\") */\n      swap3\n      swap2\n      swap1\n      0xffffffff\n      and\n      jump\t// in\n    tag_131:\n        /* \"@openzeppelin/contracts/token/ERC20/utils/SafeERC20.sol\":3626:3721  bytes memory returndata = address(token).functionCall(data, \"SafeERC20: low-level call failed\") */\n      swap1\n      pop\n        /* \"@openzeppelin/contracts/token/ERC20/utils/SafeERC20.sol\":3755:3756  0 */\n      0x00\n        /* \"@openzeppelin/contracts/token/ERC20/utils/SafeERC20.sol\":3735:3745  returndata */\n      dup2\n        /* \"@openzeppelin/contracts/token/ERC20/utils/SafeERC20.sol\":3735:3752  returndata.length */\n      mload\n        /* \"@openzeppelin/contracts/token/ERC20/utils/SafeERC20.sol\":3735:3756  returndata.length > 0 */\n      gt\n        /* \"@openzeppelin/contracts/token/ERC20/utils/SafeERC20.sol\":3731:3907  if (returndata.length > 0) {... */\n      iszero\n      tag_133\n      jumpi\n        /* \"@openzeppelin/contracts/token/ERC20/utils/SafeERC20.sol\":3830:3840  returndata */\n      dup1\n        /* \"@openzeppelin/contracts/token/ERC20/utils/SafeERC20.sol\":3819:3849  abi.decode(returndata, (bool)) */\n      dup1\n      0x20\n      add\n      swap1\n      mload\n      dup2\n      add\n      swap1\n      tag_134\n      swap2\n      swap1\n      tag_135\n      jump\t// in\n    tag_134:\n        /* \"@openzeppelin/contracts/token/ERC20/utils/SafeERC20.sol\":3811:3896  require(abi.decode(returndata, (bool)), \"SafeERC20: ERC20 operation did not succeed\") */\n      tag_136\n      jumpi\n      mload(0x40)\n      0x08c379a000000000000000000000000000000000000000000000000000000000\n      dup2\n      mstore\n      0x04\n      add\n      tag_137\n      swap1\n      tag_138\n      jump\t// in\n    tag_137:\n      mload(0x40)\n      dup1\n      swap2\n      sub\n      swap1\n      revert\n    tag_136:\n        /* \"@openzeppelin/contracts/token/ERC20/utils/SafeERC20.sol\":3731:3907  if (returndata.length > 0) {... */\n    tag_133:\n        /* \"@openzeppelin/contracts/token/ERC20/utils/SafeERC20.sol\":3277:3913  {... */\n      pop\n        /* \"@openzeppelin/contracts/token/ERC20/utils/SafeERC20.sol\":3207:3913  function _callOptionalReturn(IERC20 token, bytes memory data) private {... */\n      pop\n      pop\n      jump\t// out\n        /* \"@openzeppelin/contracts/utils/Address.sol\":3861:4084  function functionCall(... */\n    tag_132:\n        /* \"@openzeppelin/contracts/utils/Address.sol\":3994:4006  bytes memory */\n      0x60\n        /* \"@openzeppelin/contracts/utils/Address.sol\":4025:4077  functionCallWithValue(target, data, 0, errorMessage) */\n      tag_140\n        /* \"@openzeppelin/contracts/utils/Address.sol\":4047:4053  target */\n      dup5\n        /* \"@openzeppelin/contracts/utils/Address.sol\":4055:4059  data */\n      dup5\n        /* \"@openzeppelin/contracts/utils/Address.sol\":4061:4062  0 */\n      0x00\n        /* \"@openzeppelin/contracts/utils/Address.sol\":4064:4076  errorMessage */\n      dup6\n        /* \"@openzeppelin/contracts/utils/Address.sol\":4025:4046  functionCallWithValue */\n      tag_141\n        /* \"@openzeppelin/contracts/utils/Address.sol\":4025:4077  functionCallWithValue(target, data, 0, errorMessage) */\n      jump\t// in\n    tag_140:\n        /* \"@openzeppelin/contracts/utils/Address.sol\":4018:4077  return functionCallWithValue(target, data, 0, errorMessage) */\n      swap1\n      pop\n        /* \"@openzeppelin/contracts/utils/Address.sol\":3861:4084  function functionCall(... */\n      swap4\n      swap3\n      pop\n      pop\n      pop\n      jump\t// out\n        /* \"@openzeppelin/contracts/utils/Address.sol\":4948:5447  function functionCallWithValue(... */\n    tag_141:\n        /* \"@openzeppelin/contracts/utils/Address.sol\":5113:5125  bytes memory */\n      0x60\n        /* \"@openzeppelin/contracts/utils/Address.sol\":5170:5175  value */\n      dup3\n        /* \"@openzeppelin/contracts/utils/Address.sol\":5145:5166  address(this).balance */\n      selfbalance\n        /* \"@openzeppelin/contracts/utils/Address.sol\":5145:5175  address(this).balance >= value */\n      lt\n      iszero\n        /* \"@openzeppelin/contracts/utils/Address.sol\":5137:5218  require(address(this).balance >= value, \"Address: insufficient balance for call\") */\n      tag_143\n      jumpi\n      mload(0x40)\n      0x08c379a000000000000000000000000000000000000000000000000000000000\n      dup2\n      mstore\n      0x04\n      add\n      tag_144\n      swap1\n      tag_145\n      jump\t// in\n    tag_144:\n      mload(0x40)\n      dup1\n      swap2\n      sub\n      swap1\n      revert\n    tag_143:\n        /* \"@openzeppelin/contracts/utils/Address.sol\":5236:5254  isContract(target) */\n      tag_146\n        /* \"@openzeppelin/contracts/utils/Address.sol\":5247:5253  target */\n      dup6\n        /* \"@openzeppelin/contracts/utils/Address.sol\":5236:5246  isContract */\n      tag_147\n        /* \"@openzeppelin/contracts/utils/Address.sol\":5236:5254  isContract(target) */\n      jump\t// in\n    tag_146:\n        /* \"@openzeppelin/contracts/utils/Address.sol\":5228:5288  require(isContract(target), \"Address: call to non-contract\") */\n      tag_148\n      jumpi\n      mload(0x40)\n      0x08c379a000000000000000000000000000000000000000000000000000000000\n      dup2\n      mstore\n      0x04\n      add\n      tag_149\n      swap1\n      tag_150\n      jump\t// in\n    tag_149:\n      mload(0x40)\n      dup1\n      swap2\n      sub\n      swap1\n      revert\n    tag_148:\n        /* \"@openzeppelin/contracts/utils/Address.sol\":5300:5312  bool success */\n      0x00\n        /* \"@openzeppelin/contracts/utils/Address.sol\":5314:5337  bytes memory returndata */\n      dup1\n        /* \"@openzeppelin/contracts/utils/Address.sol\":5341:5347  target */\n      dup7\n        /* \"@openzeppelin/contracts/utils/Address.sol\":5341:5352  target.call */\n      0xffffffffffffffffffffffffffffffffffffffff\n      and\n        /* \"@openzeppelin/contracts/utils/Address.sol\":5360:5365  value */\n      dup6\n        /* \"@openzeppelin/contracts/utils/Address.sol\":5367:5371  data */\n      dup8\n        /* \"@openzeppelin/contracts/utils/Address.sol\":5341:5372  target.call{value: value}(data) */\n      mload(0x40)\n      tag_151\n      swap2\n      swap1\n      tag_152\n      jump\t// in\n    tag_151:\n      0x00\n      mload(0x40)\n      dup1\n      dup4\n      sub\n      dup2\n      dup6\n      dup8\n      gas\n      call\n      swap3\n      pop\n      pop\n      pop\n      returndatasize\n      dup1\n      0x00\n      dup2\n      eq\n      tag_155\n      jumpi\n      mload(0x40)\n      swap2\n      pop\n      and(add(returndatasize, 0x3f), not(0x1f))\n      dup3\n      add\n      0x40\n      mstore\n      returndatasize\n      dup3\n      mstore\n      returndatasize\n      0x00\n      0x20\n      dup5\n      add\n      returndatacopy\n      jump(tag_154)\n    tag_155:\n      0x60\n      swap2\n      pop\n    tag_154:\n      pop\n        /* \"@openzeppelin/contracts/utils/Address.sol\":5299:5372  (bool success, bytes memory returndata) = target.call{value: value}(data) */\n      swap2\n      pop\n      swap2\n      pop\n        /* \"@openzeppelin/contracts/utils/Address.sol\":5389:5440  verifyCallResult(success, returndata, errorMessage) */\n      tag_156\n        /* \"@openzeppelin/contracts/utils/Address.sol\":5406:5413  success */\n      dup3\n        /* \"@openzeppelin/contracts/utils/Address.sol\":5415:5425  returndata */\n      dup3\n        /* \"@openzeppelin/contracts/utils/Address.sol\":5427:5439  errorMessage */\n      dup7\n        /* \"@openzeppelin/contracts/utils/Address.sol\":5389:5405  verifyCallResult */\n      tag_157\n        /* \"@openzeppelin/contracts/utils/Address.sol\":5389:5440  verifyCallResult(success, returndata, errorMessage) */\n      jump\t// in\n    tag_156:\n        /* \"@openzeppelin/contracts/utils/Address.sol\":5382:5440  return verifyCallResult(success, returndata, errorMessage) */\n      swap3\n      pop\n      pop\n      pop\n        /* \"@openzeppelin/contracts/utils/Address.sol\":4948:5447  function functionCallWithValue(... */\n      swap5\n      swap4\n      pop\n      pop\n      pop\n      pop\n      jump\t// out\n        /* \"@openzeppelin/contracts/utils/Address.sol\":1175:1495  function isContract(address account) internal view returns (bool) {... */\n    tag_147:\n        /* \"@openzeppelin/contracts/utils/Address.sol\":1235:1239  bool */\n      0x00\n        /* \"@openzeppelin/contracts/utils/Address.sol\":1487:1488  0 */\n      dup1\n        /* \"@openzeppelin/contracts/utils/Address.sol\":1465:1472  account */\n      dup3\n        /* \"@openzeppelin/contracts/utils/Address.sol\":1465:1484  account.code.length */\n      0xffffffffffffffffffffffffffffffffffffffff\n      and\n      extcodesize\n        /* \"@openzeppelin/contracts/utils/Address.sol\":1465:1488  account.code.length > 0 */\n      gt\n        /* \"@openzeppelin/contracts/utils/Address.sol\":1458:1488  return account.code.length > 0 */\n      swap1\n      pop\n        /* \"@openzeppelin/contracts/utils/Address.sol\":1175:1495  function isContract(address account) internal view returns (bool) {... */\n      swap2\n      swap1\n      pop\n      jump\t// out\n        /* \"@openzeppelin/contracts/utils/Address.sol\":7561:8253  function verifyCallResult(... */\n    tag_157:\n        /* \"@openzeppelin/contracts/utils/Address.sol\":7707:7719  bytes memory */\n      0x60\n        /* \"@openzeppelin/contracts/utils/Address.sol\":7735:7742  success */\n      dup4\n        /* \"@openzeppelin/contracts/utils/Address.sol\":7731:8247  if (success) {... */\n      iszero\n      tag_160\n      jumpi\n        /* \"@openzeppelin/contracts/utils/Address.sol\":7765:7775  returndata */\n      dup3\n        /* \"@openzeppelin/contracts/utils/Address.sol\":7758:7775  return returndata */\n      swap1\n      pop\n      jump(tag_159)\n        /* \"@openzeppelin/contracts/utils/Address.sol\":7731:8247  if (success) {... */\n    tag_160:\n        /* \"@openzeppelin/contracts/utils/Address.sol\":7896:7897  0 */\n      0x00\n        /* \"@openzeppelin/contracts/utils/Address.sol\":7876:7886  returndata */\n      dup4\n        /* \"@openzeppelin/contracts/utils/Address.sol\":7876:7893  returndata.length */\n      mload\n        /* \"@openzeppelin/contracts/utils/Address.sol\":7876:7897  returndata.length > 0 */\n      gt\n        /* \"@openzeppelin/contracts/utils/Address.sol\":7872:8237  if (returndata.length > 0) {... */\n      iszero\n      tag_162\n      jumpi\n        /* \"@openzeppelin/contracts/utils/Address.sol\":8070:8080  returndata */\n      dup3\n        /* \"@openzeppelin/contracts/utils/Address.sol\":8064:8081  mload(returndata) */\n      mload\n        /* \"@openzeppelin/contracts/utils/Address.sol\":8130:8145  returndata_size */\n      dup1\n        /* \"@openzeppelin/contracts/utils/Address.sol\":8117:8127  returndata */\n      dup5\n        /* \"@openzeppelin/contracts/utils/Address.sol\":8113:8115  32 */\n      0x20\n        /* \"@openzeppelin/contracts/utils/Address.sol\":8109:8128  add(32, returndata) */\n      add\n        /* \"@openzeppelin/contracts/utils/Address.sol\":8102:8146  revert(add(32, returndata), returndata_size) */\n      revert\n        /* \"@openzeppelin/contracts/utils/Address.sol\":7872:8237  if (returndata.length > 0) {... */\n    tag_162:\n        /* \"@openzeppelin/contracts/utils/Address.sol\":8209:8221  errorMessage */\n      dup2\n        /* \"@openzeppelin/contracts/utils/Address.sol\":8202:8222  revert(errorMessage) */\n      mload(0x40)\n      0x08c379a000000000000000000000000000000000000000000000000000000000\n      dup2\n      mstore\n      0x04\n      add\n      tag_164\n      swap2\n      swap1\n      tag_165\n      jump\t// in\n    tag_164:\n      mload(0x40)\n      dup1\n      swap2\n      sub\n      swap1\n      revert\n        /* \"@openzeppelin/contracts/utils/Address.sol\":7561:8253  function verifyCallResult(... */\n    tag_159:\n      swap4\n      swap3\n      pop\n      pop\n      pop\n      jump\t// out\n        /* \"#utility.yul\":88:205   */\n    tag_167:\n        /* \"#utility.yul\":197:198   */\n      0x00\n        /* \"#utility.yul\":194:195   */\n      dup1\n        /* \"#utility.yul\":187:199   */\n      revert\n        /* \"#utility.yul\":334:460   */\n    tag_169:\n        /* \"#utility.yul\":371:378   */\n      0x00\n        /* \"#utility.yul\":411:453   */\n      0xffffffffffffffffffffffffffffffffffffffff\n        /* \"#utility.yul\":404:409   */\n      dup3\n        /* \"#utility.yul\":400:454   */\n      and\n        /* \"#utility.yul\":389:454   */\n      swap1\n      pop\n        /* \"#utility.yul\":334:460   */\n      swap2\n      swap1\n      pop\n      jump\t// out\n        /* \"#utility.yul\":466:562   */\n    tag_170:\n        /* \"#utility.yul\":503:510   */\n      0x00\n        /* \"#utility.yul\":532:556   */\n      tag_222\n        /* \"#utility.yul\":550:555   */\n      dup3\n        /* \"#utility.yul\":532:556   */\n      tag_169\n      jump\t// in\n    tag_222:\n        /* \"#utility.yul\":521:556   */\n      swap1\n      pop\n        /* \"#utility.yul\":466:562   */\n      swap2\n      swap1\n      pop\n      jump\t// out\n        /* \"#utility.yul\":568:690   */\n    tag_171:\n        /* \"#utility.yul\":641:665   */\n      tag_224\n        /* \"#utility.yul\":659:664   */\n      dup2\n        /* \"#utility.yul\":641:665   */\n      tag_170\n      jump\t// in\n    tag_224:\n        /* \"#utility.yul\":634:639   */\n      dup2\n        /* \"#utility.yul\":631:666   */\n      eq\n        /* \"#utility.yul\":621:684   */\n      tag_225\n      jumpi\n        /* \"#utility.yul\":680:681   */\n      0x00\n        /* \"#utility.yul\":677:678   */\n      dup1\n        /* \"#utility.yul\":670:682   */\n      revert\n        /* \"#utility.yul\":621:684   */\n    tag_225:\n        /* \"#utility.yul\":568:690   */\n      pop\n      jump\t// out\n        /* \"#utility.yul\":696:835   */\n    tag_172:\n        /* \"#utility.yul\":742:747   */\n      0x00\n        /* \"#utility.yul\":780:786   */\n      dup2\n        /* \"#utility.yul\":767:787   */\n      calldataload\n        /* \"#utility.yul\":758:787   */\n      swap1\n      pop\n        /* \"#utility.yul\":796:829   */\n      tag_227\n        /* \"#utility.yul\":823:828   */\n      dup2\n        /* \"#utility.yul\":796:829   */\n      tag_171\n      jump\t// in\n    tag_227:\n        /* \"#utility.yul\":696:835   */\n      swap3\n      swap2\n      pop\n      pop\n      jump\t// out\n        /* \"#utility.yul\":841:1170   */\n    tag_16:\n        /* \"#utility.yul\":900:906   */\n      0x00\n        /* \"#utility.yul\":949:951   */\n      0x20\n        /* \"#utility.yul\":937:946   */\n      dup3\n        /* \"#utility.yul\":928:935   */\n      dup5\n        /* \"#utility.yul\":924:947   */\n      sub\n        /* \"#utility.yul\":920:952   */\n      slt\n        /* \"#utility.yul\":917:1036   */\n      iszero\n      tag_229\n      jumpi\n        /* \"#utility.yul\":955:1034   */\n      tag_230\n      tag_167\n      jump\t// in\n    tag_230:\n        /* \"#utility.yul\":917:1036   */\n    tag_229:\n        /* \"#utility.yul\":1075:1076   */\n      0x00\n        /* \"#utility.yul\":1100:1153   */\n      tag_231\n        /* \"#utility.yul\":1145:1152   */\n      dup5\n        /* \"#utility.yul\":1136:1142   */\n      dup3\n        /* \"#utility.yul\":1125:1134   */\n      dup6\n        /* \"#utility.yul\":1121:1143   */\n      add\n        /* \"#utility.yul\":1100:1153   */\n      tag_172\n      jump\t// in\n    tag_231:\n        /* \"#utility.yul\":1090:1153   */\n      swap2\n      pop\n        /* \"#utility.yul\":1046:1163   */\n      pop\n        /* \"#utility.yul\":841:1170   */\n      swap3\n      swap2\n      pop\n      pop\n      jump\t// out\n        /* \"#utility.yul\":1176:1253   */\n    tag_173:\n        /* \"#utility.yul\":1213:1220   */\n      0x00\n        /* \"#utility.yul\":1242:1247   */\n      dup2\n        /* \"#utility.yul\":1231:1247   */\n      swap1\n      pop\n        /* \"#utility.yul\":1176:1253   */\n      swap2\n      swap1\n      pop\n      jump\t// out\n        /* \"#utility.yul\":1259:1377   */\n    tag_174:\n        /* \"#utility.yul\":1346:1370   */\n      tag_234\n        /* \"#utility.yul\":1364:1369   */\n      dup2\n        /* \"#utility.yul\":1346:1370   */\n      tag_173\n      jump\t// in\n    tag_234:\n        /* \"#utility.yul\":1341:1344   */\n      dup3\n        /* \"#utility.yul\":1334:1371   */\n      mstore\n        /* \"#utility.yul\":1259:1377   */\n      pop\n      pop\n      jump\t// out\n        /* \"#utility.yul\":1383:1605   */\n    tag_19:\n        /* \"#utility.yul\":1476:1480   */\n      0x00\n        /* \"#utility.yul\":1514:1516   */\n      0x20\n        /* \"#utility.yul\":1503:1512   */\n      dup3\n        /* \"#utility.yul\":1499:1517   */\n      add\n        /* \"#utility.yul\":1491:1517   */\n      swap1\n      pop\n        /* \"#utility.yul\":1527:1598   */\n      tag_236\n        /* \"#utility.yul\":1595:1596   */\n      0x00\n        /* \"#utility.yul\":1584:1593   */\n      dup4\n        /* \"#utility.yul\":1580:1597   */\n      add\n        /* \"#utility.yul\":1571:1577   */\n      dup5\n        /* \"#utility.yul\":1527:1598   */\n      tag_174\n      jump\t// in\n    tag_236:\n        /* \"#utility.yul\":1383:1605   */\n      swap3\n      swap2\n      pop\n      pop\n      jump\t// out\n        /* \"#utility.yul\":1611:2085   */\n    tag_22:\n        /* \"#utility.yul\":1679:1685   */\n      0x00\n        /* \"#utility.yul\":1687:1693   */\n      dup1\n        /* \"#utility.yul\":1736:1738   */\n      0x40\n        /* \"#utility.yul\":1724:1733   */\n      dup4\n        /* \"#utility.yul\":1715:1722   */\n      dup6\n        /* \"#utility.yul\":1711:1734   */\n      sub\n        /* \"#utility.yul\":1707:1739   */\n      slt\n        /* \"#utility.yul\":1704:1823   */\n      iszero\n      tag_238\n      jumpi\n        /* \"#utility.yul\":1742:1821   */\n      tag_239\n      tag_167\n      jump\t// in\n    tag_239:\n        /* \"#utility.yul\":1704:1823   */\n    tag_238:\n        /* \"#utility.yul\":1862:1863   */\n      0x00\n        /* \"#utility.yul\":1887:1940   */\n      tag_240\n        /* \"#utility.yul\":1932:1939   */\n      dup6\n        /* \"#utility.yul\":1923:1929   */\n      dup3\n        /* \"#utility.yul\":1912:1921   */\n      dup7\n        /* \"#utility.yul\":1908:1930   */\n      add\n        /* \"#utility.yul\":1887:1940   */\n      tag_172\n      jump\t// in\n    tag_240:\n        /* \"#utility.yul\":1877:1940   */\n      swap3\n      pop\n        /* \"#utility.yul\":1833:1950   */\n      pop\n        /* \"#utility.yul\":1989:1991   */\n      0x20\n        /* \"#utility.yul\":2015:2068   */\n      tag_241\n        /* \"#utility.yul\":2060:2067   */\n      dup6\n        /* \"#utility.yul\":2051:2057   */\n      dup3\n        /* \"#utility.yul\":2040:2049   */\n      dup7\n        /* \"#utility.yul\":2036:2058   */\n      add\n        /* \"#utility.yul\":2015:2068   */\n      tag_172\n      jump\t// in\n    tag_241:\n        /* \"#utility.yul\":2005:2068   */\n      swap2\n      pop\n        /* \"#utility.yul\":1960:2078   */\n      pop\n        /* \"#utility.yul\":1611:2085   */\n      swap3\n      pop\n      swap3\n      swap1\n      pop\n      jump\t// out\n        /* \"#utility.yul\":2091:2151   */\n    tag_175:\n        /* \"#utility.yul\":2119:2122   */\n      0x00\n        /* \"#utility.yul\":2140:2145   */\n      dup2\n        /* \"#utility.yul\":2133:2145   */\n      swap1\n      pop\n        /* \"#utility.yul\":2091:2151   */\n      swap2\n      swap1\n      pop\n      jump\t// out\n        /* \"#utility.yul\":2157:2299   */\n    tag_176:\n        /* \"#utility.yul\":2207:2216   */\n      0x00\n        /* \"#utility.yul\":2240:2293   */\n      tag_244\n        /* \"#utility.yul\":2258:2292   */\n      tag_245\n        /* \"#utility.yul\":2267:2291   */\n      tag_246\n        /* \"#utility.yul\":2285:2290   */\n      dup5\n        /* \"#utility.yul\":2267:2291   */\n      tag_169\n      jump\t// in\n    tag_246:\n        /* \"#utility.yul\":2258:2292   */\n      tag_175\n      jump\t// in\n    tag_245:\n        /* \"#utility.yul\":2240:2293   */\n      tag_169\n      jump\t// in\n    tag_244:\n        /* \"#utility.yul\":2227:2293   */\n      swap1\n      pop\n        /* \"#utility.yul\":2157:2299   */\n      swap2\n      swap1\n      pop\n      jump\t// out\n        /* \"#utility.yul\":2305:2431   */\n    tag_177:\n        /* \"#utility.yul\":2355:2364   */\n      0x00\n        /* \"#utility.yul\":2388:2425   */\n      tag_248\n        /* \"#utility.yul\":2419:2424   */\n      dup3\n        /* \"#utility.yul\":2388:2425   */\n      tag_176\n      jump\t// in\n    tag_248:\n        /* \"#utility.yul\":2375:2425   */\n      swap1\n      pop\n        /* \"#utility.yul\":2305:2431   */\n      swap2\n      swap1\n      pop\n      jump\t// out\n        /* \"#utility.yul\":2437:2577   */\n    tag_178:\n        /* \"#utility.yul\":2501:2510   */\n      0x00\n        /* \"#utility.yul\":2534:2571   */\n      tag_250\n        /* \"#utility.yul\":2565:2570   */\n      dup3\n        /* \"#utility.yul\":2534:2571   */\n      tag_177\n      jump\t// in\n    tag_250:\n        /* \"#utility.yul\":2521:2571   */\n      swap1\n      pop\n        /* \"#utility.yul\":2437:2577   */\n      swap2\n      swap1\n      pop\n      jump\t// out\n        /* \"#utility.yul\":2583:2742   */\n    tag_179:\n        /* \"#utility.yul\":2684:2735   */\n      tag_252\n        /* \"#utility.yul\":2729:2734   */\n      dup2\n        /* \"#utility.yul\":2684:2735   */\n      tag_178\n      jump\t// in\n    tag_252:\n        /* \"#utility.yul\":2679:2682   */\n      dup3\n        /* \"#utility.yul\":2672:2736   */\n      mstore\n        /* \"#utility.yul\":2583:2742   */\n      pop\n      pop\n      jump\t// out\n        /* \"#utility.yul\":2748:2998   */\n    tag_27:\n        /* \"#utility.yul\":2855:2859   */\n      0x00\n        /* \"#utility.yul\":2893:2895   */\n      0x20\n        /* \"#utility.yul\":2882:2891   */\n      dup3\n        /* \"#utility.yul\":2878:2896   */\n      add\n        /* \"#utility.yul\":2870:2896   */\n      swap1\n      pop\n        /* \"#utility.yul\":2906:2991   */\n      tag_254\n        /* \"#utility.yul\":2988:2989   */\n      0x00\n        /* \"#utility.yul\":2977:2986   */\n      dup4\n        /* \"#utility.yul\":2973:2990   */\n      add\n        /* \"#utility.yul\":2964:2970   */\n      dup5\n        /* \"#utility.yul\":2906:2991   */\n      tag_179\n      jump\t// in\n    tag_254:\n        /* \"#utility.yul\":2748:2998   */\n      swap3\n      swap2\n      pop\n      pop\n      jump\t// out\n        /* \"#utility.yul\":3004:3122   */\n    tag_180:\n        /* \"#utility.yul\":3091:3115   */\n      tag_256\n        /* \"#utility.yul\":3109:3114   */\n      dup2\n        /* \"#utility.yul\":3091:3115   */\n      tag_170\n      jump\t// in\n    tag_256:\n        /* \"#utility.yul\":3086:3089   */\n      dup3\n        /* \"#utility.yul\":3079:3116   */\n      mstore\n        /* \"#utility.yul\":3004:3122   */\n      pop\n      pop\n      jump\t// out\n        /* \"#utility.yul\":3128:3350   */\n    tag_39:\n        /* \"#utility.yul\":3221:3225   */\n      0x00\n        /* \"#utility.yul\":3259:3261   */\n      0x20\n        /* \"#utility.yul\":3248:3257   */\n      dup3\n        /* \"#utility.yul\":3244:3262   */\n      add\n        /* \"#utility.yul\":3236:3262   */\n      swap1\n      pop\n        /* \"#utility.yul\":3272:3343   */\n      tag_258\n        /* \"#utility.yul\":3340:3341   */\n      0x00\n        /* \"#utility.yul\":3329:3338   */\n      dup4\n        /* \"#utility.yul\":3325:3342   */\n      add\n        /* \"#utility.yul\":3316:3322   */\n      dup5\n        /* \"#utility.yul\":3272:3343   */\n      tag_180\n      jump\t// in\n    tag_258:\n        /* \"#utility.yul\":3128:3350   */\n      swap3\n      swap2\n      pop\n      pop\n      jump\t// out\n        /* \"#utility.yul\":3356:3688   */\n    tag_44:\n        /* \"#utility.yul\":3477:3481   */\n      0x00\n        /* \"#utility.yul\":3515:3517   */\n      0x40\n        /* \"#utility.yul\":3504:3513   */\n      dup3\n        /* \"#utility.yul\":3500:3518   */\n      add\n        /* \"#utility.yul\":3492:3518   */\n      swap1\n      pop\n        /* \"#utility.yul\":3528:3599   */\n      tag_260\n        /* \"#utility.yul\":3596:3597   */\n      0x00\n        /* \"#utility.yul\":3585:3594   */\n      dup4\n        /* \"#utility.yul\":3581:3598   */\n      add\n        /* \"#utility.yul\":3572:3578   */\n      dup6\n        /* \"#utility.yul\":3528:3599   */\n      tag_174\n      jump\t// in\n    tag_260:\n        /* \"#utility.yul\":3609:3681   */\n      tag_261\n        /* \"#utility.yul\":3677:3679   */\n      0x20\n        /* \"#utility.yul\":3666:3675   */\n      dup4\n        /* \"#utility.yul\":3662:3680   */\n      add\n        /* \"#utility.yul\":3653:3659   */\n      dup5\n        /* \"#utility.yul\":3609:3681   */\n      tag_174\n      jump\t// in\n    tag_261:\n        /* \"#utility.yul\":3356:3688   */\n      swap4\n      swap3\n      pop\n      pop\n      pop\n      jump\t// out\n        /* \"#utility.yul\":3694:3816   */\n    tag_181:\n        /* \"#utility.yul\":3767:3791   */\n      tag_263\n        /* \"#utility.yul\":3785:3790   */\n      dup2\n        /* \"#utility.yul\":3767:3791   */\n      tag_173\n      jump\t// in\n    tag_263:\n        /* \"#utility.yul\":3760:3765   */\n      dup2\n        /* \"#utility.yul\":3757:3792   */\n      eq\n        /* \"#utility.yul\":3747:3810   */\n      tag_264\n      jumpi\n        /* \"#utility.yul\":3806:3807   */\n      0x00\n        /* \"#utility.yul\":3803:3804   */\n      dup1\n        /* \"#utility.yul\":3796:3808   */\n      revert\n        /* \"#utility.yul\":3747:3810   */\n    tag_264:\n        /* \"#utility.yul\":3694:3816   */\n      pop\n      jump\t// out\n        /* \"#utility.yul\":3822:3965   */\n    tag_182:\n        /* \"#utility.yul\":3879:3884   */\n      0x00\n        /* \"#utility.yul\":3910:3916   */\n      dup2\n        /* \"#utility.yul\":3904:3917   */\n      mload\n        /* \"#utility.yul\":3895:3917   */\n      swap1\n      pop\n        /* \"#utility.yul\":3926:3959   */\n      tag_266\n        /* \"#utility.yul\":3953:3958   */\n      dup2\n        /* \"#utility.yul\":3926:3959   */\n      tag_181\n      jump\t// in\n    tag_266:\n        /* \"#utility.yul\":3822:3965   */\n      swap3\n      swap2\n      pop\n      pop\n      jump\t// out\n        /* \"#utility.yul\":3971:4322   */\n    tag_57:\n        /* \"#utility.yul\":4041:4047   */\n      0x00\n        /* \"#utility.yul\":4090:4092   */\n      0x20\n        /* \"#utility.yul\":4078:4087   */\n      dup3\n        /* \"#utility.yul\":4069:4076   */\n      dup5\n        /* \"#utility.yul\":4065:4088   */\n      sub\n        /* \"#utility.yul\":4061:4093   */\n      slt\n        /* \"#utility.yul\":4058:4177   */\n      iszero\n      tag_268\n      jumpi\n        /* \"#utility.yul\":4096:4175   */\n      tag_269\n      tag_167\n      jump\t// in\n    tag_269:\n        /* \"#utility.yul\":4058:4177   */\n    tag_268:\n        /* \"#utility.yul\":4216:4217   */\n      0x00\n        /* \"#utility.yul\":4241:4305   */\n      tag_270\n        /* \"#utility.yul\":4297:4304   */\n      dup5\n        /* \"#utility.yul\":4288:4294   */\n      dup3\n        /* \"#utility.yul\":4277:4286   */\n      dup6\n        /* \"#utility.yul\":4273:4295   */\n      add\n        /* \"#utility.yul\":4241:4305   */\n      tag_182\n      jump\t// in\n    tag_270:\n        /* \"#utility.yul\":4231:4305   */\n      swap2\n      pop\n        /* \"#utility.yul\":4187:4315   */\n      pop\n        /* \"#utility.yul\":3971:4322   */\n      swap3\n      swap2\n      pop\n      pop\n      jump\t// out\n        /* \"#utility.yul\":4328:4508   */\n    tag_183:\n        /* \"#utility.yul\":4376:4453   */\n      0x4e487b7100000000000000000000000000000000000000000000000000000000\n        /* \"#utility.yul\":4373:4374   */\n      0x00\n        /* \"#utility.yul\":4366:4454   */\n      mstore\n        /* \"#utility.yul\":4473:4477   */\n      0x11\n        /* \"#utility.yul\":4470:4471   */\n      0x04\n        /* \"#utility.yul\":4463:4478   */\n      mstore\n        /* \"#utility.yul\":4497:4501   */\n      0x24\n        /* \"#utility.yul\":4494:4495   */\n      0x00\n        /* \"#utility.yul\":4487:4502   */\n      revert\n        /* \"#utility.yul\":4514:4819   */\n    tag_59:\n        /* \"#utility.yul\":4554:4557   */\n      0x00\n        /* \"#utility.yul\":4573:4593   */\n      tag_273\n        /* \"#utility.yul\":4591:4592   */\n      dup3\n        /* \"#utility.yul\":4573:4593   */\n      tag_173\n      jump\t// in\n    tag_273:\n        /* \"#utility.yul\":4568:4593   */\n      swap2\n      pop\n        /* \"#utility.yul\":4607:4627   */\n      tag_274\n        /* \"#utility.yul\":4625:4626   */\n      dup4\n        /* \"#utility.yul\":4607:4627   */\n      tag_173\n      jump\t// in\n    tag_274:\n        /* \"#utility.yul\":4602:4627   */\n      swap3\n      pop\n        /* \"#utility.yul\":4761:4762   */\n      dup3\n        /* \"#utility.yul\":4693:4759   */\n      0xffffffffffffffffffffffffffffffffffffffffffffffffffffffffffffffff\n        /* \"#utility.yul\":4689:4763   */\n      sub\n        /* \"#utility.yul\":4686:4687   */\n      dup3\n        /* \"#utility.yul\":4683:4764   */\n      gt\n        /* \"#utility.yul\":4680:4787   */\n      iszero\n      tag_275\n      jumpi\n        /* \"#utility.yul\":4767:4785   */\n      tag_276\n      tag_183\n      jump\t// in\n    tag_276:\n        /* \"#utility.yul\":4680:4787   */\n    tag_275:\n        /* \"#utility.yul\":4811:4812   */\n      dup3\n        /* \"#utility.yul\":4808:4809   */\n      dup3\n        /* \"#utility.yul\":4804:4813   */\n      add\n        /* \"#utility.yul\":4797:4813   */\n      swap1\n      pop\n        /* \"#utility.yul\":4514:4819   */\n      swap3\n      swap2\n      pop\n      pop\n      jump\t// out\n        /* \"#utility.yul\":4825:5173   */\n    tag_61:\n        /* \"#utility.yul\":4865:4872   */\n      0x00\n        /* \"#utility.yul\":4888:4908   */\n      tag_278\n        /* \"#utility.yul\":4906:4907   */\n      dup3\n        /* \"#utility.yul\":4888:4908   */\n      tag_173\n      jump\t// in\n    tag_278:\n        /* \"#utility.yul\":4883:4908   */\n      swap2\n      pop\n        /* \"#utility.yul\":4922:4942   */\n      tag_279\n        /* \"#utility.yul\":4940:4941   */\n      dup4\n        /* \"#utility.yul\":4922:4942   */\n      tag_173\n      jump\t// in\n    tag_279:\n        /* \"#utility.yul\":4917:4942   */\n      swap3\n      pop\n        /* \"#utility.yul\":5110:5111   */\n      dup2\n        /* \"#utility.yul\":5042:5108   */\n      0xffffffffffffffffffffffffffffffffffffffffffffffffffffffffffffffff\n        /* \"#utility.yul\":5038:5112   */\n      div\n        /* \"#utility.yul\":5035:5036   */\n      dup4\n        /* \"#utility.yul\":5032:5113   */\n      gt\n        /* \"#utility.yul\":5027:5028   */\n      dup3\n        /* \"#utility.yul\":5020:5029   */\n      iszero\n        /* \"#utility.yul\":5013:5030   */\n      iszero\n        /* \"#utility.yul\":5009:5114   */\n      and\n        /* \"#utility.yul\":5006:5137   */\n      iszero\n      tag_280\n      jumpi\n        /* \"#utility.yul\":5117:5135   */\n      tag_281\n      tag_183\n      jump\t// in\n    tag_281:\n        /* \"#utility.yul\":5006:5137   */\n    tag_280:\n        /* \"#utility.yul\":5165:5166   */\n      dup3\n        /* \"#utility.yul\":5162:5163   */\n      dup3\n        /* \"#utility.yul\":5158:5167   */\n      mul\n        /* \"#utility.yul\":5147:5167   */\n      swap1\n      pop\n        /* \"#utility.yul\":4825:5173   */\n      swap3\n      swap2\n      pop\n      pop\n      jump\t// out\n        /* \"#utility.yul\":5179:5359   */\n    tag_184:\n        /* \"#utility.yul\":5227:5304   */\n      0x4e487b7100000000000000000000000000000000000000000000000000000000\n        /* \"#utility.yul\":5224:5225   */\n      0x00\n        /* \"#utility.yul\":5217:5305   */\n      mstore\n        /* \"#utility.yul\":5324:5328   */\n      0x12\n        /* \"#utility.yul\":5321:5322   */\n      0x04\n        /* \"#utility.yul\":5314:5329   */\n      mstore\n        /* \"#utility.yul\":5348:5352   */\n      0x24\n        /* \"#utility.yul\":5345:5346   */\n      0x00\n        /* \"#utility.yul\":5338:5353   */\n      revert\n        /* \"#utility.yul\":5365:5550   */\n    tag_63:\n        /* \"#utility.yul\":5405:5406   */\n      0x00\n        /* \"#utility.yul\":5422:5442   */\n      tag_284\n        /* \"#utility.yul\":5440:5441   */\n      dup3\n        /* \"#utility.yul\":5422:5442   */\n      tag_173\n      jump\t// in\n    tag_284:\n        /* \"#utility.yul\":5417:5442   */\n      swap2\n      pop\n        /* \"#utility.yul\":5456:5476   */\n      tag_285\n        /* \"#utility.yul\":5474:5475   */\n      dup4\n        /* \"#utility.yul\":5456:5476   */\n      tag_173\n      jump\t// in\n    tag_285:\n        /* \"#utility.yul\":5451:5476   */\n      swap3\n      pop\n        /* \"#utility.yul\":5495:5496   */\n      dup3\n        /* \"#utility.yul\":5485:5520   */\n      tag_286\n      jumpi\n        /* \"#utility.yul\":5500:5518   */\n      tag_287\n      tag_184\n      jump\t// in\n    tag_287:\n        /* \"#utility.yul\":5485:5520   */\n    tag_286:\n        /* \"#utility.yul\":5542:5543   */\n      dup3\n        /* \"#utility.yul\":5539:5540   */\n      dup3\n        /* \"#utility.yul\":5535:5544   */\n      div\n        /* \"#utility.yul\":5530:5544   */\n      swap1\n      pop\n        /* \"#utility.yul\":5365:5550   */\n      swap3\n      swap2\n      pop\n      pop\n      jump\t// out\n        /* \"#utility.yul\":5556:5747   */\n    tag_65:\n        /* \"#utility.yul\":5596:5600   */\n      0x00\n        /* \"#utility.yul\":5616:5636   */\n      tag_289\n        /* \"#utility.yul\":5634:5635   */\n      dup3\n        /* \"#utility.yul\":5616:5636   */\n      tag_173\n      jump\t// in\n    tag_289:\n        /* \"#utility.yul\":5611:5636   */\n      swap2\n      pop\n        /* \"#utility.yul\":5650:5670   */\n      tag_290\n        /* \"#utility.yul\":5668:5669   */\n      dup4\n        /* \"#utility.yul\":5650:5670   */\n      tag_173\n      jump\t// in\n    tag_290:\n        /* \"#utility.yul\":5645:5670   */\n      swap3\n      pop\n        /* \"#utility.yul\":5689:5690   */\n      dup3\n        /* \"#utility.yul\":5686:5687   */\n      dup3\n        /* \"#utility.yul\":5683:5691   */\n      lt\n        /* \"#utility.yul\":5680:5714   */\n      iszero\n      tag_291\n      jumpi\n        /* \"#utility.yul\":5694:5712   */\n      tag_292\n      tag_183\n      jump\t// in\n    tag_292:\n        /* \"#utility.yul\":5680:5714   */\n    tag_291:\n        /* \"#utility.yul\":5739:5740   */\n      dup3\n        /* \"#utility.yul\":5736:5737   */\n      dup3\n        /* \"#utility.yul\":5732:5741   */\n      sub\n        /* \"#utility.yul\":5724:5741   */\n      swap1\n      pop\n        /* \"#utility.yul\":5556:5747   */\n      swap3\n      swap2\n      pop\n      pop\n      jump\t// out\n        /* \"#utility.yul\":5753:5922   */\n    tag_185:\n        /* \"#utility.yul\":5837:5848   */\n      0x00\n        /* \"#utility.yul\":5871:5877   */\n      dup3\n        /* \"#utility.yul\":5866:5869   */\n      dup3\n        /* \"#utility.yul\":5859:5878   */\n      mstore\n        /* \"#utility.yul\":5911:5915   */\n      0x20\n        /* \"#utility.yul\":5906:5909   */\n      dup3\n        /* \"#utility.yul\":5902:5916   */\n      add\n        /* \"#utility.yul\":5887:5916   */\n      swap1\n      pop\n        /* \"#utility.yul\":5753:5922   */\n      swap3\n      swap2\n      pop\n      pop\n      jump\t// out\n        /* \"#utility.yul\":5928:6110   */\n    tag_186:\n        /* \"#utility.yul\":6068:6102   */\n      0x4f776e61626c653a2063616c6c6572206973206e6f7420746865206f776e6572\n        /* \"#utility.yul\":6064:6065   */\n      0x00\n        /* \"#utility.yul\":6056:6062   */\n      dup3\n        /* \"#utility.yul\":6052:6066   */\n      add\n        /* \"#utility.yul\":6045:6103   */\n      mstore\n        /* \"#utility.yul\":5928:6110   */\n      pop\n      jump\t// out\n        /* \"#utility.yul\":6116:6482   */\n    tag_187:\n        /* \"#utility.yul\":6258:6261   */\n      0x00\n        /* \"#utility.yul\":6279:6346   */\n      tag_296\n        /* \"#utility.yul\":6343:6345   */\n      0x20\n        /* \"#utility.yul\":6338:6341   */\n      dup4\n        /* \"#utility.yul\":6279:6346   */\n      tag_185\n      jump\t// in\n    tag_296:\n        /* \"#utility.yul\":6272:6346   */\n      swap2\n      pop\n        /* \"#utility.yul\":6355:6448   */\n      tag_297\n        /* \"#utility.yul\":6444:6447   */\n      dup3\n        /* \"#utility.yul\":6355:6448   */\n      tag_186\n      jump\t// in\n    tag_297:\n        /* \"#utility.yul\":6473:6475   */\n      0x20\n        /* \"#utility.yul\":6468:6471   */\n      dup3\n        /* \"#utility.yul\":6464:6476   */\n      add\n        /* \"#utility.yul\":6457:6476   */\n      swap1\n      pop\n        /* \"#utility.yul\":6116:6482   */\n      swap2\n      swap1\n      pop\n      jump\t// out\n        /* \"#utility.yul\":6488:6907   */\n    tag_72:\n        /* \"#utility.yul\":6654:6658   */\n      0x00\n        /* \"#utility.yul\":6692:6694   */\n      0x20\n        /* \"#utility.yul\":6681:6690   */\n      dup3\n        /* \"#utility.yul\":6677:6695   */\n      add\n        /* \"#utility.yul\":6669:6695   */\n      swap1\n      pop\n        /* \"#utility.yul\":6741:6750   */\n      dup2\n        /* \"#utility.yul\":6735:6739   */\n      dup2\n        /* \"#utility.yul\":6731:6751   */\n      sub\n        /* \"#utility.yul\":6727:6728   */\n      0x00\n        /* \"#utility.yul\":6716:6725   */\n      dup4\n        /* \"#utility.yul\":6712:6729   */\n      add\n        /* \"#utility.yul\":6705:6752   */\n      mstore\n        /* \"#utility.yul\":6769:6900   */\n      tag_299\n        /* \"#utility.yul\":6895:6899   */\n      dup2\n        /* \"#utility.yul\":6769:6900   */\n      tag_187\n      jump\t// in\n    tag_299:\n        /* \"#utility.yul\":6761:6900   */\n      swap1\n      pop\n        /* \"#utility.yul\":6488:6907   */\n      swap2\n      swap1\n      pop\n      jump\t// out\n        /* \"#utility.yul\":6913:7138   */\n    tag_188:\n        /* \"#utility.yul\":7053:7087   */\n      0x4f776e65723a2043757272656e7420726563697069656e7420686173206e6f20\n        /* \"#utility.yul\":7049:7050   */\n      0x00\n        /* \"#utility.yul\":7041:7047   */\n      dup3\n        /* \"#utility.yul\":7037:7051   */\n      add\n        /* \"#utility.yul\":7030:7088   */\n      mstore\n        /* \"#utility.yul\":7122:7130   */\n      0x7368617265730000000000000000000000000000000000000000000000000000\n        /* \"#utility.yul\":7117:7119   */\n      0x20\n        /* \"#utility.yul\":7109:7115   */\n      dup3\n        /* \"#utility.yul\":7105:7120   */\n      add\n        /* \"#utility.yul\":7098:7131   */\n      mstore\n        /* \"#utility.yul\":6913:7138   */\n      pop\n      jump\t// out\n        /* \"#utility.yul\":7144:7510   */\n    tag_189:\n        /* \"#utility.yul\":7286:7289   */\n      0x00\n        /* \"#utility.yul\":7307:7374   */\n      tag_302\n        /* \"#utility.yul\":7371:7373   */\n      0x26\n        /* \"#utility.yul\":7366:7369   */\n      dup4\n        /* \"#utility.yul\":7307:7374   */\n      tag_185\n      jump\t// in\n    tag_302:\n        /* \"#utility.yul\":7300:7374   */\n      swap2\n      pop\n        /* \"#utility.yul\":7383:7476   */\n      tag_303\n        /* \"#utility.yul\":7472:7475   */\n      dup3\n        /* \"#utility.yul\":7383:7476   */\n      tag_188\n      jump\t// in\n    tag_303:\n        /* \"#utility.yul\":7501:7503   */\n      0x40\n        /* \"#utility.yul\":7496:7499   */\n      dup3\n        /* \"#utility.yul\":7492:7504   */\n      add\n        /* \"#utility.yul\":7485:7504   */\n      swap1\n      pop\n        /* \"#utility.yul\":7144:7510   */\n      swap2\n      swap1\n      pop\n      jump\t// out\n        /* \"#utility.yul\":7516:7935   */\n    tag_76:\n        /* \"#utility.yul\":7682:7686   */\n      0x00\n        /* \"#utility.yul\":7720:7722   */\n      0x20\n        /* \"#utility.yul\":7709:7718   */\n      dup3\n        /* \"#utility.yul\":7705:7723   */\n      add\n        /* \"#utility.yul\":7697:7723   */\n      swap1\n      pop\n        /* \"#utility.yul\":7769:7778   */\n      dup2\n        /* \"#utility.yul\":7763:7767   */\n      dup2\n        /* \"#utility.yul\":7759:7779   */\n      sub\n        /* \"#utility.yul\":7755:7756   */\n      0x00\n        /* \"#utility.yul\":7744:7753   */\n      dup4\n        /* \"#utility.yul\":7740:7757   */\n      add\n        /* \"#utility.yul\":7733:7780   */\n      mstore\n        /* \"#utility.yul\":7797:7928   */\n      tag_305\n        /* \"#utility.yul\":7923:7927   */\n      dup2\n        /* \"#utility.yul\":7797:7928   */\n      tag_189\n      jump\t// in\n    tag_305:\n        /* \"#utility.yul\":7789:7928   */\n      swap1\n      pop\n        /* \"#utility.yul\":7516:7935   */\n      swap2\n      swap1\n      pop\n      jump\t// out\n        /* \"#utility.yul\":7941:8168   */\n    tag_190:\n        /* \"#utility.yul\":8081:8115   */\n      0x4f776e65723a204e657720726563697069656e7420686173206578697374696e\n        /* \"#utility.yul\":8077:8078   */\n      0x00\n        /* \"#utility.yul\":8069:8075   */\n      dup3\n        /* \"#utility.yul\":8065:8079   */\n      add\n        /* \"#utility.yul\":8058:8116   */\n      mstore\n        /* \"#utility.yul\":8150:8160   */\n      0x6720736861726573000000000000000000000000000000000000000000000000\n        /* \"#utility.yul\":8145:8147   */\n      0x20\n        /* \"#utility.yul\":8137:8143   */\n      dup3\n        /* \"#utility.yul\":8133:8148   */\n      add\n        /* \"#utility.yul\":8126:8161   */\n      mstore\n        /* \"#utility.yul\":7941:8168   */\n      pop\n      jump\t// out\n        /* \"#utility.yul\":8174:8540   */\n    tag_191:\n        /* \"#utility.yul\":8316:8319   */\n      0x00\n        /* \"#utility.yul\":8337:8404   */\n      tag_308\n        /* \"#utility.yul\":8401:8403   */\n      0x28\n        /* \"#utility.yul\":8396:8399   */\n      dup4\n        /* \"#utility.yul\":8337:8404   */\n      tag_185\n      jump\t// in\n    tag_308:\n        /* \"#utility.yul\":8330:8404   */\n      swap2\n      pop\n        /* \"#utility.yul\":8413:8506   */\n      tag_309\n        /* \"#utility.yul\":8502:8505   */\n      dup3\n        /* \"#utility.yul\":8413:8506   */\n      tag_190\n      jump\t// in\n    tag_309:\n        /* \"#utility.yul\":8531:8533   */\n      0x40\n        /* \"#utility.yul\":8526:8529   */\n      dup3\n        /* \"#utility.yul\":8522:8534   */\n      add\n        /* \"#utility.yul\":8515:8534   */\n      swap1\n      pop\n        /* \"#utility.yul\":8174:8540   */\n      swap2\n      swap1\n      pop\n      jump\t// out\n        /* \"#utility.yul\":8546:8965   */\n    tag_79:\n        /* \"#utility.yul\":8712:8716   */\n      0x00\n        /* \"#utility.yul\":8750:8752   */\n      0x20\n        /* \"#utility.yul\":8739:8748   */\n      dup3\n        /* \"#utility.yul\":8735:8753   */\n      add\n        /* \"#utility.yul\":8727:8753   */\n      swap1\n      pop\n        /* \"#utility.yul\":8799:8808   */\n      dup2\n        /* \"#utility.yul\":8793:8797   */\n      dup2\n        /* \"#utility.yul\":8789:8809   */\n      sub\n        /* \"#utility.yul\":8785:8786   */\n      0x00\n        /* \"#utility.yul\":8774:8783   */\n      dup4\n        /* \"#utility.yul\":8770:8787   */\n      add\n        /* \"#utility.yul\":8763:8810   */\n      mstore\n        /* \"#utility.yul\":8827:8958   */\n      tag_311\n        /* \"#utility.yul\":8953:8957   */\n      dup2\n        /* \"#utility.yul\":8827:8958   */\n      tag_191\n      jump\t// in\n    tag_311:\n        /* \"#utility.yul\":8819:8958   */\n      swap1\n      pop\n        /* \"#utility.yul\":8546:8965   */\n      swap2\n      swap1\n      pop\n      jump\t// out\n        /* \"#utility.yul\":8971:9152   */\n    tag_192:\n        /* \"#utility.yul\":9111:9144   */\n      0x5265656e7472616e637947756172643a207265656e7472616e742063616c6c00\n        /* \"#utility.yul\":9107:9108   */\n      0x00\n        /* \"#utility.yul\":9099:9105   */\n      dup3\n        /* \"#utility.yul\":9095:9109   */\n      add\n        /* \"#utility.yul\":9088:9145   */\n      mstore\n        /* \"#utility.yul\":8971:9152   */\n      pop\n      jump\t// out\n        /* \"#utility.yul\":9158:9524   */\n    tag_193:\n        /* \"#utility.yul\":9300:9303   */\n      0x00\n        /* \"#utility.yul\":9321:9388   */\n      tag_314\n        /* \"#utility.yul\":9385:9387   */\n      0x1f\n        /* \"#utility.yul\":9380:9383   */\n      dup4\n        /* \"#utility.yul\":9321:9388   */\n      tag_185\n      jump\t// in\n    tag_314:\n        /* \"#utility.yul\":9314:9388   */\n      swap2\n      pop\n        /* \"#utility.yul\":9397:9490   */\n      tag_315\n        /* \"#utility.yul\":9486:9489   */\n      dup3\n        /* \"#utility.yul\":9397:9490   */\n      tag_192\n      jump\t// in\n    tag_315:\n        /* \"#utility.yul\":9515:9517   */\n      0x20\n        /* \"#utility.yul\":9510:9513   */\n      dup3\n        /* \"#utility.yul\":9506:9518   */\n      add\n        /* \"#utility.yul\":9499:9518   */\n      swap1\n      pop\n        /* \"#utility.yul\":9158:9524   */\n      swap2\n      swap1\n      pop\n      jump\t// out\n        /* \"#utility.yul\":9530:9949   */\n    tag_91:\n        /* \"#utility.yul\":9696:9700   */\n      0x00\n        /* \"#utility.yul\":9734:9736   */\n      0x20\n        /* \"#utility.yul\":9723:9732   */\n      dup3\n        /* \"#utility.yul\":9719:9737   */\n      add\n        /* \"#utility.yul\":9711:9737   */\n      swap1\n      pop\n        /* \"#utility.yul\":9783:9792   */\n      dup2\n        /* \"#utility.yul\":9777:9781   */\n      dup2\n        /* \"#utility.yul\":9773:9793   */\n      sub\n        /* \"#utility.yul\":9769:9770   */\n      0x00\n        /* \"#utility.yul\":9758:9767   */\n      dup4\n        /* \"#utility.yul\":9754:9771   */\n      add\n        /* \"#utility.yul\":9747:9794   */\n      mstore\n        /* \"#utility.yul\":9811:9942   */\n      tag_317\n        /* \"#utility.yul\":9937:9941   */\n      dup2\n        /* \"#utility.yul\":9811:9942   */\n      tag_193\n      jump\t// in\n    tag_317:\n        /* \"#utility.yul\":9803:9942   */\n      swap1\n      pop\n        /* \"#utility.yul\":9530:9949   */\n      swap2\n      swap1\n      pop\n      jump\t// out\n        /* \"#utility.yul\":9955:10135   */\n    tag_194:\n        /* \"#utility.yul\":10095:10127   */\n      0x53706c69747465723a204163636f756e7420686173206e6f2073686172650000\n        /* \"#utility.yul\":10091:10092   */\n      0x00\n        /* \"#utility.yul\":10083:10089   */\n      dup3\n        /* \"#utility.yul\":10079:10093   */\n      add\n        /* \"#utility.yul\":10072:10128   */\n      mstore\n        /* \"#utility.yul\":9955:10135   */\n      pop\n      jump\t// out\n        /* \"#utility.yul\":10141:10507   */\n    tag_195:\n        /* \"#utility.yul\":10283:10286   */\n      0x00\n        /* \"#utility.yul\":10304:10371   */\n      tag_320\n        /* \"#utility.yul\":10368:10370   */\n      0x1e\n        /* \"#utility.yul\":10363:10366   */\n      dup4\n        /* \"#utility.yul\":10304:10371   */\n      tag_185\n      jump\t// in\n    tag_320:\n        /* \"#utility.yul\":10297:10371   */\n      swap2\n      pop\n        /* \"#utility.yul\":10380:10473   */\n      tag_321\n        /* \"#utility.yul\":10469:10472   */\n      dup3\n        /* \"#utility.yul\":10380:10473   */\n      tag_194\n      jump\t// in\n    tag_321:\n        /* \"#utility.yul\":10498:10500   */\n      0x20\n        /* \"#utility.yul\":10493:10496   */\n      dup3\n        /* \"#utility.yul\":10489:10501   */\n      add\n        /* \"#utility.yul\":10482:10501   */\n      swap1\n      pop\n        /* \"#utility.yul\":10141:10507   */\n      swap2\n      swap1\n      pop\n      jump\t// out\n        /* \"#utility.yul\":10513:10932   */\n    tag_95:\n        /* \"#utility.yul\":10679:10683   */\n      0x00\n        /* \"#utility.yul\":10717:10719   */\n      0x20\n        /* \"#utility.yul\":10706:10715   */\n      dup3\n        /* \"#utility.yul\":10702:10720   */\n      add\n        /* \"#utility.yul\":10694:10720   */\n      swap1\n      pop\n        /* \"#utility.yul\":10766:10775   */\n      dup2\n        /* \"#utility.yul\":10760:10764   */\n      dup2\n        /* \"#utility.yul\":10756:10776   */\n      sub\n        /* \"#utility.yul\":10752:10753   */\n      0x00\n        /* \"#utility.yul\":10741:10750   */\n      dup4\n        /* \"#utility.yul\":10737:10754   */\n      add\n        /* \"#utility.yul\":10730:10777   */\n      mstore\n        /* \"#utility.yul\":10794:10925   */\n      tag_323\n        /* \"#utility.yul\":10920:10924   */\n      dup2\n        /* \"#utility.yul\":10794:10925   */\n      tag_195\n      jump\t// in\n    tag_323:\n        /* \"#utility.yul\":10786:10925   */\n      swap1\n      pop\n        /* \"#utility.yul\":10513:10932   */\n      swap2\n      swap1\n      pop\n      jump\t// out\n        /* \"#utility.yul\":10938:11117   */\n    tag_196:\n        /* \"#utility.yul\":11078:11109   */\n      0x53706c69747465723a204e6f7468696e6720746f207472616e73666572000000\n        /* \"#utility.yul\":11074:11075   */\n      0x00\n        /* \"#utility.yul\":11066:11072   */\n      dup3\n        /* \"#utility.yul\":11062:11076   */\n      add\n        /* \"#utility.yul\":11055:11110   */\n      mstore\n        /* \"#utility.yul\":10938:11117   */\n      pop\n      jump\t// out\n        /* \"#utility.yul\":11123:11489   */\n    tag_197:\n        /* \"#utility.yul\":11265:11268   */\n      0x00\n        /* \"#utility.yul\":11286:11353   */\n      tag_326\n        /* \"#utility.yul\":11350:11352   */\n      0x1d\n        /* \"#utility.yul\":11345:11348   */\n      dup4\n        /* \"#utility.yul\":11286:11353   */\n      tag_185\n      jump\t// in\n    tag_326:\n        /* \"#utility.yul\":11279:11353   */\n      swap2\n      pop\n        /* \"#utility.yul\":11362:11455   */\n      tag_327\n        /* \"#utility.yul\":11451:11454   */\n      dup3\n        /* \"#utility.yul\":11362:11455   */\n      tag_196\n      jump\t// in\n    tag_327:\n        /* \"#utility.yul\":11480:11482   */\n      0x20\n        /* \"#utility.yul\":11475:11478   */\n      dup3\n        /* \"#utility.yul\":11471:11483   */\n      add\n        /* \"#utility.yul\":11464:11483   */\n      swap1\n      pop\n        /* \"#utility.yul\":11123:11489   */\n      swap2\n      swap1\n      pop\n      jump\t// out\n        /* \"#utility.yul\":11495:11914   */\n    tag_106:\n        /* \"#utility.yul\":11661:11665   */\n      0x00\n        /* \"#utility.yul\":11699:11701   */\n      0x20\n        /* \"#utility.yul\":11688:11697   */\n      dup3\n        /* \"#utility.yul\":11684:11702   */\n      add\n        /* \"#utility.yul\":11676:11702   */\n      swap1\n      pop\n        /* \"#utility.yul\":11748:11757   */\n      dup2\n        /* \"#utility.yul\":11742:11746   */\n      dup2\n        /* \"#utility.yul\":11738:11758   */\n      sub\n        /* \"#utility.yul\":11734:11735   */\n      0x00\n        /* \"#utility.yul\":11723:11732   */\n      dup4\n        /* \"#utility.yul\":11719:11736   */\n      add\n        /* \"#utility.yul\":11712:11759   */\n      mstore\n        /* \"#utility.yul\":11776:11907   */\n      tag_329\n        /* \"#utility.yul\":11902:11906   */\n      dup2\n        /* \"#utility.yul\":11776:11907   */\n      tag_197\n      jump\t// in\n    tag_329:\n        /* \"#utility.yul\":11768:11907   */\n      swap1\n      pop\n        /* \"#utility.yul\":11495:11914   */\n      swap2\n      swap1\n      pop\n      jump\t// out\n        /* \"#utility.yul\":11920:12145   */\n    tag_198:\n        /* \"#utility.yul\":12060:12094   */\n      0x4f776e61626c653a206e6577206f776e657220697320746865207a65726f2061\n        /* \"#utility.yul\":12056:12057   */\n      0x00\n        /* \"#utility.yul\":12048:12054   */\n      dup3\n        /* \"#utility.yul\":12044:12058   */\n      add\n        /* \"#utility.yul\":12037:12095   */\n      mstore\n        /* \"#utility.yul\":12129:12137   */\n      0x6464726573730000000000000000000000000000000000000000000000000000\n        /* \"#utility.yul\":12124:12126   */\n      0x20\n        /* \"#utility.yul\":12116:12122   */\n      dup3\n        /* \"#utility.yul\":12112:12127   */\n      add\n        /* \"#utility.yul\":12105:12138   */\n      mstore\n        /* \"#utility.yul\":11920:12145   */\n      pop\n      jump\t// out\n        /* \"#utility.yul\":12151:12517   */\n    tag_199:\n        /* \"#utility.yul\":12293:12296   */\n      0x00\n        /* \"#utility.yul\":12314:12381   */\n      tag_332\n        /* \"#utility.yul\":12378:12380   */\n      0x26\n        /* \"#utility.yul\":12373:12376   */\n      dup4\n        /* \"#utility.yul\":12314:12381   */\n      tag_185\n      jump\t// in\n    tag_332:\n        /* \"#utility.yul\":12307:12381   */\n      swap2\n      pop\n        /* \"#utility.yul\":12390:12483   */\n      tag_333\n        /* \"#utility.yul\":12479:12482   */\n      dup3\n        /* \"#utility.yul\":12390:12483   */\n      tag_198\n      jump\t// in\n    tag_333:\n        /* \"#utility.yul\":12508:12510   */\n      0x40\n        /* \"#utility.yul\":12503:12506   */\n      dup3\n        /* \"#utility.yul\":12499:12511   */\n      add\n        /* \"#utility.yul\":12492:12511   */\n      swap1\n      pop\n        /* \"#utility.yul\":12151:12517   */\n      swap2\n      swap1\n      pop\n      jump\t// out\n        /* \"#utility.yul\":12523:12942   */\n    tag_121:\n        /* \"#utility.yul\":12689:12693   */\n      0x00\n        /* \"#utility.yul\":12727:12729   */\n      0x20\n        /* \"#utility.yul\":12716:12725   */\n      dup3\n        /* \"#utility.yul\":12712:12730   */\n      add\n        /* \"#utility.yul\":12704:12730   */\n      swap1\n      pop\n        /* \"#utility.yul\":12776:12785   */\n      dup2\n        /* \"#utility.yul\":12770:12774   */\n      dup2\n        /* \"#utility.yul\":12766:12786   */\n      sub\n        /* \"#utility.yul\":12762:12763   */\n      0x00\n        /* \"#utility.yul\":12751:12760   */\n      dup4\n        /* \"#utility.yul\":12747:12764   */\n      add\n        /* \"#utility.yul\":12740:12787   */\n      mstore\n        /* \"#utility.yul\":12804:12935   */\n      tag_335\n        /* \"#utility.yul\":12930:12934   */\n      dup2\n        /* \"#utility.yul\":12804:12935   */\n      tag_199\n      jump\t// in\n    tag_335:\n        /* \"#utility.yul\":12796:12935   */\n      swap1\n      pop\n        /* \"#utility.yul\":12523:12942   */\n      swap2\n      swap1\n      pop\n      jump\t// out\n        /* \"#utility.yul\":12948:13280   */\n    tag_128:\n        /* \"#utility.yul\":13069:13073   */\n      0x00\n        /* \"#utility.yul\":13107:13109   */\n      0x40\n        /* \"#utility.yul\":13096:13105   */\n      dup3\n        /* \"#utility.yul\":13092:13110   */\n      add\n        /* \"#utility.yul\":13084:13110   */\n      swap1\n      pop\n        /* \"#utility.yul\":13120:13191   */\n      tag_337\n        /* \"#utility.yul\":13188:13189   */\n      0x00\n        /* \"#utility.yul\":13177:13186   */\n      dup4\n        /* \"#utility.yul\":13173:13190   */\n      add\n        /* \"#utility.yul\":13164:13170   */\n      dup6\n        /* \"#utility.yul\":13120:13191   */\n      tag_180\n      jump\t// in\n    tag_337:\n        /* \"#utility.yul\":13201:13273   */\n      tag_338\n        /* \"#utility.yul\":13269:13271   */\n      0x20\n        /* \"#utility.yul\":13258:13267   */\n      dup4\n        /* \"#utility.yul\":13254:13272   */\n      add\n        /* \"#utility.yul\":13245:13251   */\n      dup5\n        /* \"#utility.yul\":13201:13273   */\n      tag_174\n      jump\t// in\n    tag_338:\n        /* \"#utility.yul\":12948:13280   */\n      swap4\n      swap3\n      pop\n      pop\n      pop\n      jump\t// out\n        /* \"#utility.yul\":13286:13376   */\n    tag_200:\n        /* \"#utility.yul\":13320:13327   */\n      0x00\n        /* \"#utility.yul\":13363:13368   */\n      dup2\n        /* \"#utility.yul\":13356:13369   */\n      iszero\n        /* \"#utility.yul\":13349:13370   */\n      iszero\n        /* \"#utility.yul\":13338:13370   */\n      swap1\n      pop\n        /* \"#utility.yul\":13286:13376   */\n      swap2\n      swap1\n      pop\n      jump\t// out\n        /* \"#utility.yul\":13382:13498   */\n    tag_201:\n        /* \"#utility.yul\":13452:13473   */\n      tag_341\n        /* \"#utility.yul\":13467:13472   */\n      dup2\n        /* \"#utility.yul\":13452:13473   */\n      tag_200\n      jump\t// in\n    tag_341:\n        /* \"#utility.yul\":13445:13450   */\n      dup2\n        /* \"#utility.yul\":13442:13474   */\n      eq\n        /* \"#utility.yul\":13432:13492   */\n      tag_342\n      jumpi\n        /* \"#utility.yul\":13488:13489   */\n      0x00\n        /* \"#utility.yul\":13485:13486   */\n      dup1\n        /* \"#utility.yul\":13478:13490   */\n      revert\n        /* \"#utility.yul\":13432:13492   */\n    tag_342:\n        /* \"#utility.yul\":13382:13498   */\n      pop\n      jump\t// out\n        /* \"#utility.yul\":13504:13641   */\n    tag_202:\n        /* \"#utility.yul\":13558:13563   */\n      0x00\n        /* \"#utility.yul\":13589:13595   */\n      dup2\n        /* \"#utility.yul\":13583:13596   */\n      mload\n        /* \"#utility.yul\":13574:13596   */\n      swap1\n      pop\n        /* \"#utility.yul\":13605:13635   */\n      tag_344\n        /* \"#utility.yul\":13629:13634   */\n      dup2\n        /* \"#utility.yul\":13605:13635   */\n      tag_201\n      jump\t// in\n    tag_344:\n        /* \"#utility.yul\":13504:13641   */\n      swap3\n      swap2\n      pop\n      pop\n      jump\t// out\n        /* \"#utility.yul\":13647:13992   */\n    tag_135:\n        /* \"#utility.yul\":13714:13720   */\n      0x00\n        /* \"#utility.yul\":13763:13765   */\n      0x20\n        /* \"#utility.yul\":13751:13760   */\n      dup3\n        /* \"#utility.yul\":13742:13749   */\n      dup5\n        /* \"#utility.yul\":13738:13761   */\n      sub\n        /* \"#utility.yul\":13734:13766   */\n      slt\n        /* \"#utility.yul\":13731:13850   */\n      iszero\n      tag_346\n      jumpi\n        /* \"#utility.yul\":13769:13848   */\n      tag_347\n      tag_167\n      jump\t// in\n    tag_347:\n        /* \"#utility.yul\":13731:13850   */\n    tag_346:\n        /* \"#utility.yul\":13889:13890   */\n      0x00\n        /* \"#utility.yul\":13914:13975   */\n      tag_348\n        /* \"#utility.yul\":13967:13974   */\n      dup5\n        /* \"#utility.yul\":13958:13964   */\n      dup3\n        /* \"#utility.yul\":13947:13956   */\n      dup6\n        /* \"#utility.yul\":13943:13965   */\n      add\n        /* \"#utility.yul\":13914:13975   */\n      tag_202\n      jump\t// in\n    tag_348:\n        /* \"#utility.yul\":13904:13975   */\n      swap2\n      pop\n        /* \"#utility.yul\":13860:13985   */\n      pop\n        /* \"#utility.yul\":13647:13992   */\n      swap3\n      swap2\n      pop\n      pop\n      jump\t// out\n        /* \"#utility.yul\":13998:14227   */\n    tag_203:\n        /* \"#utility.yul\":14138:14172   */\n      0x5361666545524332303a204552433230206f7065726174696f6e20646964206e\n        /* \"#utility.yul\":14134:14135   */\n      0x00\n        /* \"#utility.yul\":14126:14132   */\n      dup3\n        /* \"#utility.yul\":14122:14136   */\n      add\n        /* \"#utility.yul\":14115:14173   */\n      mstore\n        /* \"#utility.yul\":14207:14219   */\n      0x6f74207375636365656400000000000000000000000000000000000000000000\n        /* \"#utility.yul\":14202:14204   */\n      0x20\n        /* \"#utility.yul\":14194:14200   */\n      dup3\n        /* \"#utility.yul\":14190:14205   */\n      add\n        /* \"#utility.yul\":14183:14220   */\n      mstore\n        /* \"#utility.yul\":13998:14227   */\n      pop\n      jump\t// out\n        /* \"#utility.yul\":14233:14599   */\n    tag_204:\n        /* \"#utility.yul\":14375:14378   */\n      0x00\n        /* \"#utility.yul\":14396:14463   */\n      tag_351\n        /* \"#utility.yul\":14460:14462   */\n      0x2a\n        /* \"#utility.yul\":14455:14458   */\n      dup4\n        /* \"#utility.yul\":14396:14463   */\n      tag_185\n      jump\t// in\n    tag_351:\n        /* \"#utility.yul\":14389:14463   */\n      swap2\n      pop\n        /* \"#utility.yul\":14472:14565   */\n      tag_352\n        /* \"#utility.yul\":14561:14564   */\n      dup3\n        /* \"#utility.yul\":14472:14565   */\n      tag_203\n      jump\t// in\n    tag_352:\n        /* \"#utility.yul\":14590:14592   */\n      0x40\n        /* \"#utility.yul\":14585:14588   */\n      dup3\n        /* \"#utility.yul\":14581:14593   */\n      add\n        /* \"#utility.yul\":14574:14593   */\n      swap1\n      pop\n        /* \"#utility.yul\":14233:14599   */\n      swap2\n      swap1\n      pop\n      jump\t// out\n        /* \"#utility.yul\":14605:15024   */\n    tag_138:\n        /* \"#utility.yul\":14771:14775   */\n      0x00\n        /* \"#utility.yul\":14809:14811   */\n      0x20\n        /* \"#utility.yul\":14798:14807   */\n      dup3\n        /* \"#utility.yul\":14794:14812   */\n      add\n        /* \"#utility.yul\":14786:14812   */\n      swap1\n      pop\n        /* \"#utility.yul\":14858:14867   */\n      dup2\n        /* \"#utility.yul\":14852:14856   */\n      dup2\n        /* \"#utility.yul\":14848:14868   */\n      sub\n        /* \"#utility.yul\":14844:14845   */\n      0x00\n        /* \"#utility.yul\":14833:14842   */\n      dup4\n        /* \"#utility.yul\":14829:14846   */\n      add\n        /* \"#utility.yul\":14822:14869   */\n      mstore\n        /* \"#utility.yul\":14886:15017   */\n      tag_354\n        /* \"#utility.yul\":15012:15016   */\n      dup2\n        /* \"#utility.yul\":14886:15017   */\n      tag_204\n      jump\t// in\n    tag_354:\n        /* \"#utility.yul\":14878:15017   */\n      swap1\n      pop\n        /* \"#utility.yul\":14605:15024   */\n      swap2\n      swap1\n      pop\n      jump\t// out\n        /* \"#utility.yul\":15030:15255   */\n    tag_205:\n        /* \"#utility.yul\":15170:15204   */\n      0x416464726573733a20696e73756666696369656e742062616c616e636520666f\n        /* \"#utility.yul\":15166:15167   */\n      0x00\n        /* \"#utility.yul\":15158:15164   */\n      dup3\n        /* \"#utility.yul\":15154:15168   */\n      add\n        /* \"#utility.yul\":15147:15205   */\n      mstore\n        /* \"#utility.yul\":15239:15247   */\n      0x722063616c6c0000000000000000000000000000000000000000000000000000\n        /* \"#utility.yul\":15234:15236   */\n      0x20\n        /* \"#utility.yul\":15226:15232   */\n      dup3\n        /* \"#utility.yul\":15222:15237   */\n      add\n        /* \"#utility.yul\":15215:15248   */\n      mstore\n        /* \"#utility.yul\":15030:15255   */\n      pop\n      jump\t// out\n        /* \"#utility.yul\":15261:15627   */\n    tag_206:\n        /* \"#utility.yul\":15403:15406   */\n      0x00\n        /* \"#utility.yul\":15424:15491   */\n      tag_357\n        /* \"#utility.yul\":15488:15490   */\n      0x26\n        /* \"#utility.yul\":15483:15486   */\n      dup4\n        /* \"#utility.yul\":15424:15491   */\n      tag_185\n      jump\t// in\n    tag_357:\n        /* \"#utility.yul\":15417:15491   */\n      swap2\n      pop\n        /* \"#utility.yul\":15500:15593   */\n      tag_358\n        /* \"#utility.yul\":15589:15592   */\n      dup3\n        /* \"#utility.yul\":15500:15593   */\n      tag_205\n      jump\t// in\n    tag_358:\n        /* \"#utility.yul\":15618:15620   */\n      0x40\n        /* \"#utility.yul\":15613:15616   */\n      dup3\n        /* \"#utility.yul\":15609:15621   */\n      add\n        /* \"#utility.yul\":15602:15621   */\n      swap1\n      pop\n        /* \"#utility.yul\":15261:15627   */\n      swap2\n      swap1\n      pop\n      jump\t// out\n        /* \"#utility.yul\":15633:16052   */\n    tag_145:\n        /* \"#utility.yul\":15799:15803   */\n      0x00\n        /* \"#utility.yul\":15837:15839   */\n      0x20\n        /* \"#utility.yul\":15826:15835   */\n      dup3\n        /* \"#utility.yul\":15822:15840   */\n      add\n        /* \"#utility.yul\":15814:15840   */\n      swap1\n      pop\n        /* \"#utility.yul\":15886:15895   */\n      dup2\n        /* \"#utility.yul\":15880:15884   */\n      dup2\n        /* \"#utility.yul\":15876:15896   */\n      sub\n        /* \"#utility.yul\":15872:15873   */\n      0x00\n        /* \"#utility.yul\":15861:15870   */\n      dup4\n        /* \"#utility.yul\":15857:15874   */\n      add\n        /* \"#utility.yul\":15850:15897   */\n      mstore\n        /* \"#utility.yul\":15914:16045   */\n      tag_360\n        /* \"#utility.yul\":16040:16044   */\n      dup2\n        /* \"#utility.yul\":15914:16045   */\n      tag_206\n      jump\t// in\n    tag_360:\n        /* \"#utility.yul\":15906:16045   */\n      swap1\n      pop\n        /* \"#utility.yul\":15633:16052   */\n      swap2\n      swap1\n      pop\n      jump\t// out\n        /* \"#utility.yul\":16058:16237   */\n    tag_207:\n        /* \"#utility.yul\":16198:16229   */\n      0x416464726573733a2063616c6c20746f206e6f6e2d636f6e7472616374000000\n        /* \"#utility.yul\":16194:16195   */\n      0x00\n        /* \"#utility.yul\":16186:16192   */\n      dup3\n        /* \"#utility.yul\":16182:16196   */\n      add\n        /* \"#utility.yul\":16175:16230   */\n      mstore\n        /* \"#utility.yul\":16058:16237   */\n      pop\n      jump\t// out\n        /* \"#utility.yul\":16243:16609   */\n    tag_208:\n        /* \"#utility.yul\":16385:16388   */\n      0x00\n        /* \"#utility.yul\":16406:16473   */\n      tag_363\n        /* \"#utility.yul\":16470:16472   */\n      0x1d\n        /* \"#utility.yul\":16465:16468   */\n      dup4\n        /* \"#utility.yul\":16406:16473   */\n      tag_185\n      jump\t// in\n    tag_363:\n        /* \"#utility.yul\":16399:16473   */\n      swap2\n      pop\n        /* \"#utility.yul\":16482:16575   */\n      tag_364\n        /* \"#utility.yul\":16571:16574   */\n      dup3\n        /* \"#utility.yul\":16482:16575   */\n      tag_207\n      jump\t// in\n    tag_364:\n        /* \"#utility.yul\":16600:16602   */\n      0x20\n        /* \"#utility.yul\":16595:16598   */\n      dup3\n        /* \"#utility.yul\":16591:16603   */\n      add\n        /* \"#utility.yul\":16584:16603   */\n      swap1\n      pop\n        /* \"#utility.yul\":16243:16609   */\n      swap2\n      swap1\n      pop\n      jump\t// out\n        /* \"#utility.yul\":16615:17034   */\n    tag_150:\n        /* \"#utility.yul\":16781:16785   */\n      0x00\n        /* \"#utility.yul\":16819:16821   */\n      0x20\n        /* \"#utility.yul\":16808:16817   */\n      dup3\n        /* \"#utility.yul\":16804:16822   */\n      add\n        /* \"#utility.yul\":16796:16822   */\n      swap1\n      pop\n        /* \"#utility.yul\":16868:16877   */\n      dup2\n        /* \"#utility.yul\":16862:16866   */\n      dup2\n        /* \"#utility.yul\":16858:16878   */\n      sub\n        /* \"#utility.yul\":16854:16855   */\n      0x00\n        /* \"#utility.yul\":16843:16852   */\n      dup4\n        /* \"#utility.yul\":16839:16856   */\n      add\n        /* \"#utility.yul\":16832:16879   */\n      mstore\n        /* \"#utility.yul\":16896:17027   */\n      tag_366\n        /* \"#utility.yul\":17022:17026   */\n      dup2\n        /* \"#utility.yul\":16896:17027   */\n      tag_208\n      jump\t// in\n    tag_366:\n        /* \"#utility.yul\":16888:17027   */\n      swap1\n      pop\n        /* \"#utility.yul\":16615:17034   */\n      swap2\n      swap1\n      pop\n      jump\t// out\n        /* \"#utility.yul\":17040:17138   */\n    tag_209:\n        /* \"#utility.yul\":17091:17097   */\n      0x00\n        /* \"#utility.yul\":17125:17130   */\n      dup2\n        /* \"#utility.yul\":17119:17131   */\n      mload\n        /* \"#utility.yul\":17109:17131   */\n      swap1\n      pop\n        /* \"#utility.yul\":17040:17138   */\n      swap2\n      swap1\n      pop\n      jump\t// out\n        /* \"#utility.yul\":17144:17291   */\n    tag_210:\n        /* \"#utility.yul\":17245:17256   */\n      0x00\n        /* \"#utility.yul\":17282:17285   */\n      dup2\n        /* \"#utility.yul\":17267:17285   */\n      swap1\n      pop\n        /* \"#utility.yul\":17144:17291   */\n      swap3\n      swap2\n      pop\n      pop\n      jump\t// out\n        /* \"#utility.yul\":17297:17604   */\n    tag_211:\n        /* \"#utility.yul\":17365:17366   */\n      0x00\n        /* \"#utility.yul\":17375:17488   */\n    tag_370:\n        /* \"#utility.yul\":17389:17395   */\n      dup4\n        /* \"#utility.yul\":17386:17387   */\n      dup2\n        /* \"#utility.yul\":17383:17396   */\n      lt\n        /* \"#utility.yul\":17375:17488   */\n      iszero\n      tag_372\n      jumpi\n        /* \"#utility.yul\":17474:17475   */\n      dup1\n        /* \"#utility.yul\":17469:17472   */\n      dup3\n        /* \"#utility.yul\":17465:17476   */\n      add\n        /* \"#utility.yul\":17459:17477   */\n      mload\n        /* \"#utility.yul\":17455:17456   */\n      dup2\n        /* \"#utility.yul\":17450:17453   */\n      dup5\n        /* \"#utility.yul\":17446:17457   */\n      add\n        /* \"#utility.yul\":17439:17478   */\n      mstore\n        /* \"#utility.yul\":17411:17413   */\n      0x20\n        /* \"#utility.yul\":17408:17409   */\n      dup2\n        /* \"#utility.yul\":17404:17414   */\n      add\n        /* \"#utility.yul\":17399:17414   */\n      swap1\n      pop\n        /* \"#utility.yul\":17375:17488   */\n      jump(tag_370)\n    tag_372:\n        /* \"#utility.yul\":17506:17512   */\n      dup4\n        /* \"#utility.yul\":17503:17504   */\n      dup2\n        /* \"#utility.yul\":17500:17513   */\n      gt\n        /* \"#utility.yul\":17497:17598   */\n      iszero\n      tag_373\n      jumpi\n        /* \"#utility.yul\":17586:17587   */\n      0x00\n        /* \"#utility.yul\":17577:17583   */\n      dup5\n        /* \"#utility.yul\":17572:17575   */\n      dup5\n        /* \"#utility.yul\":17568:17584   */\n      add\n        /* \"#utility.yul\":17561:17588   */\n      mstore\n        /* \"#utility.yul\":17497:17598   */\n    tag_373:\n        /* \"#utility.yul\":17346:17604   */\n      pop\n        /* \"#utility.yul\":17297:17604   */\n      pop\n      pop\n      pop\n      jump\t// out\n        /* \"#utility.yul\":17610:17983   */\n    tag_212:\n        /* \"#utility.yul\":17714:17717   */\n      0x00\n        /* \"#utility.yul\":17742:17780   */\n      tag_375\n        /* \"#utility.yul\":17774:17779   */\n      dup3\n        /* \"#utility.yul\":17742:17780   */\n      tag_209\n      jump\t// in\n    tag_375:\n        /* \"#utility.yul\":17796:17884   */\n      tag_376\n        /* \"#utility.yul\":17877:17883   */\n      dup2\n        /* \"#utility.yul\":17872:17875   */\n      dup6\n        /* \"#utility.yul\":17796:17884   */\n      tag_210\n      jump\t// in\n    tag_376:\n        /* \"#utility.yul\":17789:17884   */\n      swap4\n      pop\n        /* \"#utility.yul\":17893:17945   */\n      tag_377\n        /* \"#utility.yul\":17938:17944   */\n      dup2\n        /* \"#utility.yul\":17933:17936   */\n      dup6\n        /* \"#utility.yul\":17926:17930   */\n      0x20\n        /* \"#utility.yul\":17919:17924   */\n      dup7\n        /* \"#utility.yul\":17915:17931   */\n      add\n        /* \"#utility.yul\":17893:17945   */\n      tag_211\n      jump\t// in\n    tag_377:\n        /* \"#utility.yul\":17970:17976   */\n      dup1\n        /* \"#utility.yul\":17965:17968   */\n      dup5\n        /* \"#utility.yul\":17961:17977   */\n      add\n        /* \"#utility.yul\":17954:17977   */\n      swap2\n      pop\n        /* \"#utility.yul\":17718:17983   */\n      pop\n        /* \"#utility.yul\":17610:17983   */\n      swap3\n      swap2\n      pop\n      pop\n      jump\t// out\n        /* \"#utility.yul\":17989:18260   */\n    tag_152:\n        /* \"#utility.yul\":18119:18122   */\n      0x00\n        /* \"#utility.yul\":18141:18234   */\n      tag_379\n        /* \"#utility.yul\":18230:18233   */\n      dup3\n        /* \"#utility.yul\":18221:18227   */\n      dup5\n        /* \"#utility.yul\":18141:18234   */\n      tag_212\n      jump\t// in\n    tag_379:\n        /* \"#utility.yul\":18134:18234   */\n      swap2\n      pop\n        /* \"#utility.yul\":18251:18254   */\n      dup2\n        /* \"#utility.yul\":18244:18254   */\n      swap1\n      pop\n        /* \"#utility.yul\":17989:18260   */\n      swap3\n      swap2\n      pop\n      pop\n      jump\t// out\n        /* \"#utility.yul\":18266:18365   */\n    tag_213:\n        /* \"#utility.yul\":18318:18324   */\n      0x00\n        /* \"#utility.yul\":18352:18357   */\n      dup2\n        /* \"#utility.yul\":18346:18358   */\n      mload\n        /* \"#utility.yul\":18336:18358   */\n      swap1\n      pop\n        /* \"#utility.yul\":18266:18365   */\n      swap2\n      swap1\n      pop\n      jump\t// out\n        /* \"#utility.yul\":18371:18473   */\n    tag_214:\n        /* \"#utility.yul\":18412:18418   */\n      0x00\n        /* \"#utility.yul\":18463:18465   */\n      0x1f\n        /* \"#utility.yul\":18459:18466   */\n      not\n        /* \"#utility.yul\":18454:18456   */\n      0x1f\n        /* \"#utility.yul\":18447:18452   */\n      dup4\n        /* \"#utility.yul\":18443:18457   */\n      add\n        /* \"#utility.yul\":18439:18467   */\n      and\n        /* \"#utility.yul\":18429:18467   */\n      swap1\n      pop\n        /* \"#utility.yul\":18371:18473   */\n      swap2\n      swap1\n      pop\n      jump\t// out\n        /* \"#utility.yul\":18479:18843   */\n    tag_215:\n        /* \"#utility.yul\":18567:18570   */\n      0x00\n        /* \"#utility.yul\":18595:18634   */\n      tag_383\n        /* \"#utility.yul\":18628:18633   */\n      dup3\n        /* \"#utility.yul\":18595:18634   */\n      tag_213\n      jump\t// in\n    tag_383:\n        /* \"#utility.yul\":18650:18721   */\n      tag_384\n        /* \"#utility.yul\":18714:18720   */\n      dup2\n        /* \"#utility.yul\":18709:18712   */\n      dup6\n        /* \"#utility.yul\":18650:18721   */\n      tag_185\n      jump\t// in\n    tag_384:\n        /* \"#utility.yul\":18643:18721   */\n      swap4\n      pop\n        /* \"#utility.yul\":18730:18782   */\n      tag_385\n        /* \"#utility.yul\":18775:18781   */\n      dup2\n        /* \"#utility.yul\":18770:18773   */\n      dup6\n        /* \"#utility.yul\":18763:18767   */\n      0x20\n        /* \"#utility.yul\":18756:18761   */\n      dup7\n        /* \"#utility.yul\":18752:18768   */\n      add\n        /* \"#utility.yul\":18730:18782   */\n      tag_211\n      jump\t// in\n    tag_385:\n        /* \"#utility.yul\":18807:18836   */\n      tag_386\n        /* \"#utility.yul\":18829:18835   */\n      dup2\n        /* \"#utility.yul\":18807:18836   */\n      tag_214\n      jump\t// in\n    tag_386:\n        /* \"#utility.yul\":18802:18805   */\n      dup5\n        /* \"#utility.yul\":18798:18837   */\n      add\n        /* \"#utility.yul\":18791:18837   */\n      swap2\n      pop\n        /* \"#utility.yul\":18571:18843   */\n      pop\n        /* \"#utility.yul\":18479:18843   */\n      swap3\n      swap2\n      pop\n      pop\n      jump\t// out\n        /* \"#utility.yul\":18849:19162   */\n    tag_165:\n        /* \"#utility.yul\":18962:18966   */\n      0x00\n        /* \"#utility.yul\":19000:19002   */\n      0x20\n        /* \"#utility.yul\":18989:18998   */\n      dup3\n        /* \"#utility.yul\":18985:19003   */\n      add\n        /* \"#utility.yul\":18977:19003   */\n      swap1\n      pop\n        /* \"#utility.yul\":19049:19058   */\n      dup2\n        /* \"#utility.yul\":19043:19047   */\n      dup2\n        /* \"#utility.yul\":19039:19059   */\n      sub\n        /* \"#utility.yul\":19035:19036   */\n      0x00\n        /* \"#utility.yul\":19024:19033   */\n      dup4\n        /* \"#utility.yul\":19020:19037   */\n      add\n        /* \"#utility.yul\":19013:19060   */\n      mstore\n        /* \"#utility.yul\":19077:19155   */\n      tag_388\n        /* \"#utility.yul\":19150:19154   */\n      dup2\n        /* \"#utility.yul\":19141:19147   */\n      dup5\n        /* \"#utility.yul\":19077:19155   */\n      tag_215\n      jump\t// in\n    tag_388:\n        /* \"#utility.yul\":19069:19155   */\n      swap1\n      pop\n        /* \"#utility.yul\":18849:19162   */\n      swap3\n      swap2\n      pop\n      pop\n      jump\t// out\n\n    auxdata: 0xa26469706673582212204cf6400a57dc232909908bd79751de883ab2541adb9c56e4ecb548415f4ad0ba64736f6c634300080b0033\n}\n",
				"bytecode": {
					"linkReferences": {},
					"object": "60c06040523480156200001157600080fd5b50604051620024bc380380620024bc833981810160405281019062000037919062000637565b620000576200004b6200026c60201b60201c565b6200027460201b60201c565b600180819055508151835114620000a5576040517f08c379a00000000000000000000000000000000000000000000000000000000081526004016200009c9062000732565b60405180910390fd5b6000835111620000ec576040517f08c379a0000000000000000000000000000000000000000000000000000000008152600401620000e390620007a4565b60405180910390fd5b600080600090505b845181101562000225576000848281518110620001165762000115620007c6565b5b60200260200101511162000161576040517f08c379a0000000000000000000000000000000000000000000000000000000008152600401620001589062000845565b60405180910390fd5b838181518110620001775762000176620007c6565b5b6020026020010151826200018c919062000896565b9150838181518110620001a457620001a3620007c6565b5b602002602001015160036000878481518110620001c657620001c5620007c6565b5b602002602001015173ffffffffffffffffffffffffffffffffffffffff1673ffffffffffffffffffffffffffffffffffffffff1681526020019081526020016000206000018190555080806200021c90620008f3565b915050620000f4565b5080608081815250508173ffffffffffffffffffffffffffffffffffffffff1660a08173ffffffffffffffffffffffffffffffffffffffff16815250505050505062000941565b600033905090565b60008060009054906101000a900473ffffffffffffffffffffffffffffffffffffffff169050816000806101000a81548173ffffffffffffffffffffffffffffffffffffffff021916908373ffffffffffffffffffffffffffffffffffffffff1602179055508173ffffffffffffffffffffffffffffffffffffffff168173ffffffffffffffffffffffffffffffffffffffff167f8be0079c531659141344cd1fd0a4f28419497f9722a3daafe3b4186f6b6457e060405160405180910390a35050565b6000604051905090565b600080fd5b600080fd5b600080fd5b6000601f19601f8301169050919050565b7f4e487b7100000000000000000000000000000000000000000000000000000000600052604160045260246000fd5b6200039c8262000351565b810181811067ffffffffffffffff82111715620003be57620003bd62000362565b5b80604052505050565b6000620003d362000338565b9050620003e1828262000391565b919050565b600067ffffffffffffffff82111562000404576200040362000362565b5b602082029050602081019050919050565b600080fd5b600073ffffffffffffffffffffffffffffffffffffffff82169050919050565b600062000447826200041a565b9050919050565b62000459816200043a565b81146200046557600080fd5b50565b60008151905062000479816200044e565b92915050565b6000620004966200049084620003e6565b620003c7565b90508083825260208201905060208402830185811115620004bc57620004bb62000415565b5b835b81811015620004e95780620004d4888262000468565b845260208401935050602081019050620004be565b5050509392505050565b600082601f8301126200050b576200050a6200034c565b5b81516200051d8482602086016200047f565b91505092915050565b600067ffffffffffffffff82111562000544576200054362000362565b5b602082029050602081019050919050565b6000819050919050565b6200056a8162000555565b81146200057657600080fd5b50565b6000815190506200058a816200055f565b92915050565b6000620005a7620005a18462000526565b620003c7565b90508083825260208201905060208402830185811115620005cd57620005cc62000415565b5b835b81811015620005fa5780620005e5888262000579565b845260208401935050602081019050620005cf565b5050509392505050565b600082601f8301126200061c576200061b6200034c565b5b81516200062e84826020860162000590565b91505092915050565b60008060006060848603121562000653576200065262000342565b5b600084015167ffffffffffffffff81111562000674576200067362000347565b5b6200068286828701620004f3565b935050602084015167ffffffffffffffff811115620006a657620006a562000347565b5b620006b48682870162000604565b9250506040620006c78682870162000468565b9150509250925092565b600082825260208201905092915050565b7f53706c69747465723a204c656e67746820646966666572000000000000000000600082015250565b60006200071a601783620006d1565b91506200072782620006e2565b602082019050919050565b600060208201905081810360008301526200074d816200070b565b9050919050565b7f53706c69747465723a204c656e677468206d757374206265203e203000000000600082015250565b60006200078c601c83620006d1565b9150620007998262000754565b602082019050919050565b60006020820190508181036000830152620007bf816200077d565b9050919050565b7f4e487b7100000000000000000000000000000000000000000000000000000000600052603260045260246000fd5b7f53706c69747465723a2053686172657320617265203000000000000000000000600082015250565b60006200082d601683620006d1565b91506200083a82620007f5565b602082019050919050565b6000602082019050818103600083015262000860816200081e565b9050919050565b7f4e487b7100000000000000000000000000000000000000000000000000000000600052601160045260246000fd5b6000620008a38262000555565b9150620008b08362000555565b9250827fffffffffffffffffffffffffffffffffffffffffffffffffffffffffffffffff03821115620008e857620008e762000867565b5b828201905092915050565b6000620009008262000555565b91507fffffffffffffffffffffffffffffffffffffffffffffffffffffffffffffffff82141562000936576200093562000867565b5b600182019050919050565b60805160a051611b326200098a6000396000818161023601528181610737015281816108df0152610b0a015260008181610321015281816107e301526109ca0152611b326000f3fe608060405234801561001057600080fd5b506004361061009e5760003560e01c806387b0be481161006657806387b0be48146101355780638da5cb5b14610151578063a7310b581461016f578063d8f163ab146101a0578063f2fde38b146101be5761009e565b8063097aad10146100a357806319281afd146100d35780636895179d146100ef578063715018a61461010d57806385e3f99714610117575b600080fd5b6100bd60048036038101906100b89190611125565b6101da565b6040516100ca919061116b565b60405180910390f35b6100ed60048036038101906100e89190611186565b6103af565b005b6100f7610735565b6040516101049190611225565b60405180910390f35b610115610759565b005b61011f6107e1565b60405161012c919061116b565b60405180910390f35b61014f600480360381019061014a9190611125565b610805565b005b610159610ba8565b604051610166919061124f565b60405180910390f35b61018960048036038101906101849190611125565b610bd1565b60405161019792919061126a565b60405180910390f35b6101a8610bf5565b6040516101b5919061116b565b60405180910390f35b6101d860048036038101906101d39190611125565b610bfb565b005b600080600360008473ffffffffffffffffffffffffffffffffffffffff1673ffffffffffffffffffffffffffffffffffffffff16815260200190815260200160002060000154141561022f57600090506103aa565b60006002547f000000000000000000000000000000000000000000000000000000000000000073ffffffffffffffffffffffffffffffffffffffff166370a08231306040518263ffffffff1660e01b815260040161028d919061124f565b602060405180830381865afa1580156102aa573d6000803e3d6000fd5b505050506040513d601f19601f820116820180604052508101906102ce91906112bf565b6102d8919061131b565b90506000600360008573ffffffffffffffffffffffffffffffffffffffff1673ffffffffffffffffffffffffffffffffffffffff168152602001908152602001600020600101547f0000000000000000000000000000000000000000000000000000000000000000600360008773ffffffffffffffffffffffffffffffffffffffff1673ffffffffffffffffffffffffffffffffffffffff168152602001908152602001600020600001548461038e9190611371565b61039891906113fa565b6103a2919061142b565b905080925050505b919050565b6103b7610cf3565b73ffffffffffffffffffffffffffffffffffffffff166103d5610ba8565b73ffffffffffffffffffffffffffffffffffffffff161461042b576040517f08c379a0000000000000000000000000000000000000000000000000000000008152600401610422906114bc565b60405180910390fd5b6000600360008373ffffffffffffffffffffffffffffffffffffffff1673ffffffffffffffffffffffffffffffffffffffff16815260200190815260200160002060000154116104b0576040517f08c379a00000000000000000000000000000000000000000000000000000000081526004016104a79061154e565b60405180910390fd5b6000600360008473ffffffffffffffffffffffffffffffffffffffff1673ffffffffffffffffffffffffffffffffffffffff1681526020019081526020016000206000015414610535576040517f08c379a000000000000000000000000000000000000000000000000000000000815260040161052c906115e0565b60405180910390fd5b600360008273ffffffffffffffffffffffffffffffffffffffff1673ffffffffffffffffffffffffffffffffffffffff16815260200190815260200160002060000154600360008473ffffffffffffffffffffffffffffffffffffffff1673ffffffffffffffffffffffffffffffffffffffff16815260200190815260200160002060000181905550600360008273ffffffffffffffffffffffffffffffffffffffff1673ffffffffffffffffffffffffffffffffffffffff16815260200190815260200160002060010154600360008473ffffffffffffffffffffffffffffffffffffffff1673ffffffffffffffffffffffffffffffffffffffff168152602001908152602001600020600101819055506000600360008373ffffffffffffffffffffffffffffffffffffffff1673ffffffffffffffffffffffffffffffffffffffff168152602001908152602001600020600001819055506000600360008373ffffffffffffffffffffffffffffffffffffffff1673ffffffffffffffffffffffffffffffffffffffff168152602001908152602001600020600101819055508173ffffffffffffffffffffffffffffffffffffffff168173ffffffffffffffffffffffffffffffffffffffff167f47eba4993da31bfed0680c802fb8577f1a9d57bb4c0881372fbe7ad29995a88060405160405180910390a35050565b7f000000000000000000000000000000000000000000000000000000000000000081565b610761610cf3565b73ffffffffffffffffffffffffffffffffffffffff1661077f610ba8565b73ffffffffffffffffffffffffffffffffffffffff16146107d5576040517f08c379a00000000000000000000000000000000000000000000000000000000081526004016107cc906114bc565b60405180910390fd5b6107df6000610cfb565b565b7f000000000000000000000000000000000000000000000000000000000000000081565b6002600154141561084b576040517f08c379a00000000000000000000000000000000000000000000000000000000081526004016108429061164c565b60405180910390fd5b60026001819055506000600360008373ffffffffffffffffffffffffffffffffffffffff1673ffffffffffffffffffffffffffffffffffffffff16815260200190815260200160002060000154116108d8576040517f08c379a00000000000000000000000000000000000000000000000000000000081526004016108cf906116b8565b60405180910390fd5b60006002547f000000000000000000000000000000000000000000000000000000000000000073ffffffffffffffffffffffffffffffffffffffff166370a08231306040518263ffffffff1660e01b8152600401610936919061124f565b602060405180830381865afa158015610953573d6000803e3d6000fd5b505050506040513d601f19601f8201168201806040525081019061097791906112bf565b610981919061131b565b90506000600360008473ffffffffffffffffffffffffffffffffffffffff1673ffffffffffffffffffffffffffffffffffffffff168152602001908152602001600020600101547f0000000000000000000000000000000000000000000000000000000000000000600360008673ffffffffffffffffffffffffffffffffffffffff1673ffffffffffffffffffffffffffffffffffffffff1681526020019081526020016000206000015484610a379190611371565b610a4191906113fa565b610a4b919061142b565b90506000811415610a91576040517f08c379a0000000000000000000000000000000000000000000000000000000008152600401610a8890611724565b60405180910390fd5b80600360008573ffffffffffffffffffffffffffffffffffffffff1673ffffffffffffffffffffffffffffffffffffffff1681526020019081526020016000206001016000828254610ae3919061131b565b925050819055508060026000828254610afc919061131b565b92505081905550610b4e83827f000000000000000000000000000000000000000000000000000000000000000073ffffffffffffffffffffffffffffffffffffffff16610dbf9092919063ffffffff16565b8273ffffffffffffffffffffffffffffffffffffffff167f12f4533b5cbd2c9f8a0752a2d0b16379af992dbb2a0844a5007a19d983b3a93482604051610b94919061116b565b60405180910390a250506001808190555050565b60008060009054906101000a900473ffffffffffffffffffffffffffffffffffffffff16905090565b60036020528060005260406000206000915090508060000154908060010154905082565b60025481565b610c03610cf3565b73ffffffffffffffffffffffffffffffffffffffff16610c21610ba8565b73ffffffffffffffffffffffffffffffffffffffff1614610c77576040517f08c379a0000000000000000000000000000000000000000000000000000000008152600401610c6e906114bc565b60405180910390fd5b600073ffffffffffffffffffffffffffffffffffffffff168173ffffffffffffffffffffffffffffffffffffffff161415610ce7576040517f08c379a0000000000000000000000000000000000000000000000000000000008152600401610cde906117b6565b60405180910390fd5b610cf081610cfb565b50565b600033905090565b60008060009054906101000a900473ffffffffffffffffffffffffffffffffffffffff169050816000806101000a81548173ffffffffffffffffffffffffffffffffffffffff021916908373ffffffffffffffffffffffffffffffffffffffff1602179055508173ffffffffffffffffffffffffffffffffffffffff168173ffffffffffffffffffffffffffffffffffffffff167f8be0079c531659141344cd1fd0a4f28419497f9722a3daafe3b4186f6b6457e060405160405180910390a35050565b610e408363a9059cbb60e01b8484604051602401610dde9291906117d6565b604051602081830303815290604052907bffffffffffffffffffffffffffffffffffffffffffffffffffffffff19166020820180517bffffffffffffffffffffffffffffffffffffffffffffffffffffffff8381831617835250505050610e45565b505050565b6000610ea7826040518060400160405280602081526020017f5361666545524332303a206c6f772d6c6576656c2063616c6c206661696c65648152508573ffffffffffffffffffffffffffffffffffffffff16610f0c9092919063ffffffff16565b9050600081511115610f075780806020019051810190610ec79190611837565b610f06576040517f08c379a0000000000000000000000000000000000000000000000000000000008152600401610efd906118d6565b60405180910390fd5b5b505050565b6060610f1b8484600085610f24565b90509392505050565b606082471015610f69576040517f08c379a0000000000000000000000000000000000000000000000000000000008152600401610f6090611968565b60405180910390fd5b610f7285611038565b610fb1576040517f08c379a0000000000000000000000000000000000000000000000000000000008152600401610fa8906119d4565b60405180910390fd5b6000808673ffffffffffffffffffffffffffffffffffffffff168587604051610fda9190611a6e565b60006040518083038185875af1925050503d8060008114611017576040519150601f19603f3d011682016040523d82523d6000602084013e61101c565b606091505b509150915061102c82828661105b565b92505050949350505050565b6000808273ffffffffffffffffffffffffffffffffffffffff163b119050919050565b6060831561106b578290506110bb565b60008351111561107e5782518084602001fd5b816040517f08c379a00000000000000000000000000000000000000000000000000000000081526004016110b29190611ada565b60405180910390fd5b9392505050565b600080fd5b600073ffffffffffffffffffffffffffffffffffffffff82169050919050565b60006110f2826110c7565b9050919050565b611102816110e7565b811461110d57600080fd5b50565b60008135905061111f816110f9565b92915050565b60006020828403121561113b5761113a6110c2565b5b600061114984828501611110565b91505092915050565b6000819050919050565b61116581611152565b82525050565b6000602082019050611180600083018461115c565b92915050565b6000806040838503121561119d5761119c6110c2565b5b60006111ab85828601611110565b92505060206111bc85828601611110565b9150509250929050565b6000819050919050565b60006111eb6111e66111e1846110c7565b6111c6565b6110c7565b9050919050565b60006111fd826111d0565b9050919050565b600061120f826111f2565b9050919050565b61121f81611204565b82525050565b600060208201905061123a6000830184611216565b92915050565b611249816110e7565b82525050565b60006020820190506112646000830184611240565b92915050565b600060408201905061127f600083018561115c565b61128c602083018461115c565b9392505050565b61129c81611152565b81146112a757600080fd5b50565b6000815190506112b981611293565b92915050565b6000602082840312156112d5576112d46110c2565b5b60006112e3848285016112aa565b91505092915050565b7f4e487b7100000000000000000000000000000000000000000000000000000000600052601160045260246000fd5b600061132682611152565b915061133183611152565b9250827fffffffffffffffffffffffffffffffffffffffffffffffffffffffffffffffff03821115611366576113656112ec565b5b828201905092915050565b600061137c82611152565b915061138783611152565b9250817fffffffffffffffffffffffffffffffffffffffffffffffffffffffffffffffff04831182151516156113c0576113bf6112ec565b5b828202905092915050565b7f4e487b7100000000000000000000000000000000000000000000000000000000600052601260045260246000fd5b600061140582611152565b915061141083611152565b9250826114205761141f6113cb565b5b828204905092915050565b600061143682611152565b915061144183611152565b925082821015611454576114536112ec565b5b828203905092915050565b600082825260208201905092915050565b7f4f776e61626c653a2063616c6c6572206973206e6f7420746865206f776e6572600082015250565b60006114a660208361145f565b91506114b182611470565b602082019050919050565b600060208201905081810360008301526114d581611499565b9050919050565b7f4f776e65723a2043757272656e7420726563697069656e7420686173206e6f2060008201527f7368617265730000000000000000000000000000000000000000000000000000602082015250565b600061153860268361145f565b9150611543826114dc565b604082019050919050565b600060208201905081810360008301526115678161152b565b9050919050565b7f4f776e65723a204e657720726563697069656e7420686173206578697374696e60008201527f6720736861726573000000000000000000000000000000000000000000000000602082015250565b60006115ca60288361145f565b91506115d58261156e565b604082019050919050565b600060208201905081810360008301526115f9816115bd565b9050919050565b7f5265656e7472616e637947756172643a207265656e7472616e742063616c6c00600082015250565b6000611636601f8361145f565b915061164182611600565b602082019050919050565b6000602082019050818103600083015261166581611629565b9050919050565b7f53706c69747465723a204163636f756e7420686173206e6f2073686172650000600082015250565b60006116a2601e8361145f565b91506116ad8261166c565b602082019050919050565b600060208201905081810360008301526116d181611695565b9050919050565b7f53706c69747465723a204e6f7468696e6720746f207472616e73666572000000600082015250565b600061170e601d8361145f565b9150611719826116d8565b602082019050919050565b6000602082019050818103600083015261173d81611701565b9050919050565b7f4f776e61626c653a206e6577206f776e657220697320746865207a65726f206160008201527f6464726573730000000000000000000000000000000000000000000000000000602082015250565b60006117a060268361145f565b91506117ab82611744565b604082019050919050565b600060208201905081810360008301526117cf81611793565b9050919050565b60006040820190506117eb6000830185611240565b6117f8602083018461115c565b9392505050565b60008115159050919050565b611814816117ff565b811461181f57600080fd5b50565b6000815190506118318161180b565b92915050565b60006020828403121561184d5761184c6110c2565b5b600061185b84828501611822565b91505092915050565b7f5361666545524332303a204552433230206f7065726174696f6e20646964206e60008201527f6f74207375636365656400000000000000000000000000000000000000000000602082015250565b60006118c0602a8361145f565b91506118cb82611864565b604082019050919050565b600060208201905081810360008301526118ef816118b3565b9050919050565b7f416464726573733a20696e73756666696369656e742062616c616e636520666f60008201527f722063616c6c0000000000000000000000000000000000000000000000000000602082015250565b600061195260268361145f565b915061195d826118f6565b604082019050919050565b6000602082019050818103600083015261198181611945565b9050919050565b7f416464726573733a2063616c6c20746f206e6f6e2d636f6e7472616374000000600082015250565b60006119be601d8361145f565b91506119c982611988565b602082019050919050565b600060208201905081810360008301526119ed816119b1565b9050919050565b600081519050919050565b600081905092915050565b60005b83811015611a28578082015181840152602081019050611a0d565b83811115611a37576000848401525b50505050565b6000611a48826119f4565b611a5281856119ff565b9350611a62818560208601611a0a565b80840191505092915050565b6000611a7a8284611a3d565b915081905092915050565b600081519050919050565b6000601f19601f8301169050919050565b6000611aac82611a85565b611ab6818561145f565b9350611ac6818560208601611a0a565b611acf81611a90565b840191505092915050565b60006020820190508181036000830152611af48184611aa1565b90509291505056fea26469706673582212204cf6400a57dc232909908bd79751de883ab2541adb9c56e4ecb548415f4ad0ba64736f6c634300080b0033",
					"opcodes": "PUSH1 0xC0 PUSH1 0x40 MSTORE CALLVALUE DUP1 ISZERO PUSH3 0x11 JUMPI PUSH1 0x0 DUP1 REVERT JUMPDEST POP PUSH1 0x40 MLOAD PUSH3 0x24BC CODESIZE SUB DUP1 PUSH3 0x24BC DUP4 CODECOPY DUP2 DUP2 ADD PUSH1 0x40 MSTORE DUP2 ADD SWAP1 PUSH3 0x37 SWAP2 SWAP1 PUSH3 0x637 JUMP JUMPDEST PUSH3 0x57 PUSH3 0x4B PUSH3 0x26C PUSH1 0x20 SHL PUSH1 0x20 SHR JUMP JUMPDEST PUSH3 0x274 PUSH1 0x20 SHL PUSH1 0x20 SHR JUMP JUMPDEST PUSH1 0x1 DUP1 DUP2 SWAP1 SSTORE POP DUP2 MLOAD DUP4 MLOAD EQ PUSH3 0xA5 JUMPI PUSH1 0x40 MLOAD PUSH32 0x8C379A000000000000000000000000000000000000000000000000000000000 DUP2 MSTORE PUSH1 0x4 ADD PUSH3 0x9C SWAP1 PUSH3 0x732 JUMP JUMPDEST PUSH1 0x40 MLOAD DUP1 SWAP2 SUB SWAP1 REVERT JUMPDEST PUSH1 0x0 DUP4 MLOAD GT PUSH3 0xEC JUMPI PUSH1 0x40 MLOAD PUSH32 0x8C379A000000000000000000000000000000000000000000000000000000000 DUP2 MSTORE PUSH1 0x4 ADD PUSH3 0xE3 SWAP1 PUSH3 0x7A4 JUMP JUMPDEST PUSH1 0x40 MLOAD DUP1 SWAP2 SUB SWAP1 REVERT JUMPDEST PUSH1 0x0 DUP1 PUSH1 0x0 SWAP1 POP JUMPDEST DUP5 MLOAD DUP2 LT ISZERO PUSH3 0x225 JUMPI PUSH1 0x0 DUP5 DUP3 DUP2 MLOAD DUP2 LT PUSH3 0x116 JUMPI PUSH3 0x115 PUSH3 0x7C6 JUMP JUMPDEST JUMPDEST PUSH1 0x20 MUL PUSH1 0x20 ADD ADD MLOAD GT PUSH3 0x161 JUMPI PUSH1 0x40 MLOAD PUSH32 0x8C379A000000000000000000000000000000000000000000000000000000000 DUP2 MSTORE PUSH1 0x4 ADD PUSH3 0x158 SWAP1 PUSH3 0x845 JUMP JUMPDEST PUSH1 0x40 MLOAD DUP1 SWAP2 SUB SWAP1 REVERT JUMPDEST DUP4 DUP2 DUP2 MLOAD DUP2 LT PUSH3 0x177 JUMPI PUSH3 0x176 PUSH3 0x7C6 JUMP JUMPDEST JUMPDEST PUSH1 0x20 MUL PUSH1 0x20 ADD ADD MLOAD DUP3 PUSH3 0x18C SWAP2 SWAP1 PUSH3 0x896 JUMP JUMPDEST SWAP2 POP DUP4 DUP2 DUP2 MLOAD DUP2 LT PUSH3 0x1A4 JUMPI PUSH3 0x1A3 PUSH3 0x7C6 JUMP JUMPDEST JUMPDEST PUSH1 0x20 MUL PUSH1 0x20 ADD ADD MLOAD PUSH1 0x3 PUSH1 0x0 DUP8 DUP5 DUP2 MLOAD DUP2 LT PUSH3 0x1C6 JUMPI PUSH3 0x1C5 PUSH3 0x7C6 JUMP JUMPDEST JUMPDEST PUSH1 0x20 MUL PUSH1 0x20 ADD ADD MLOAD PUSH20 0xFFFFFFFFFFFFFFFFFFFFFFFFFFFFFFFFFFFFFFFF AND PUSH20 0xFFFFFFFFFFFFFFFFFFFFFFFFFFFFFFFFFFFFFFFF AND DUP2 MSTORE PUSH1 0x20 ADD SWAP1 DUP2 MSTORE PUSH1 0x20 ADD PUSH1 0x0 KECCAK256 PUSH1 0x0 ADD DUP2 SWAP1 SSTORE POP DUP1 DUP1 PUSH3 0x21C SWAP1 PUSH3 0x8F3 JUMP JUMPDEST SWAP2 POP POP PUSH3 0xF4 JUMP JUMPDEST POP DUP1 PUSH1 0x80 DUP2 DUP2 MSTORE POP POP DUP2 PUSH20 0xFFFFFFFFFFFFFFFFFFFFFFFFFFFFFFFFFFFFFFFF AND PUSH1 0xA0 DUP2 PUSH20 0xFFFFFFFFFFFFFFFFFFFFFFFFFFFFFFFFFFFFFFFF AND DUP2 MSTORE POP POP POP POP POP POP PUSH3 0x941 JUMP JUMPDEST PUSH1 0x0 CALLER SWAP1 POP SWAP1 JUMP JUMPDEST PUSH1 0x0 DUP1 PUSH1 0x0 SWAP1 SLOAD SWAP1 PUSH2 0x100 EXP SWAP1 DIV PUSH20 0xFFFFFFFFFFFFFFFFFFFFFFFFFFFFFFFFFFFFFFFF AND SWAP1 POP DUP2 PUSH1 0x0 DUP1 PUSH2 0x100 EXP DUP2 SLOAD DUP2 PUSH20 0xFFFFFFFFFFFFFFFFFFFFFFFFFFFFFFFFFFFFFFFF MUL NOT AND SWAP1 DUP4 PUSH20 0xFFFFFFFFFFFFFFFFFFFFFFFFFFFFFFFFFFFFFFFF AND MUL OR SWAP1 SSTORE POP DUP2 PUSH20 0xFFFFFFFFFFFFFFFFFFFFFFFFFFFFFFFFFFFFFFFF AND DUP2 PUSH20 0xFFFFFFFFFFFFFFFFFFFFFFFFFFFFFFFFFFFFFFFF AND PUSH32 0x8BE0079C531659141344CD1FD0A4F28419497F9722A3DAAFE3B4186F6B6457E0 PUSH1 0x40 MLOAD PUSH1 0x40 MLOAD DUP1 SWAP2 SUB SWAP1 LOG3 POP POP JUMP JUMPDEST PUSH1 0x0 PUSH1 0x40 MLOAD SWAP1 POP SWAP1 JUMP JUMPDEST PUSH1 0x0 DUP1 REVERT JUMPDEST PUSH1 0x0 DUP1 REVERT JUMPDEST PUSH1 0x0 DUP1 REVERT JUMPDEST PUSH1 0x0 PUSH1 0x1F NOT PUSH1 0x1F DUP4 ADD AND SWAP1 POP SWAP2 SWAP1 POP JUMP JUMPDEST PUSH32 0x4E487B7100000000000000000000000000000000000000000000000000000000 PUSH1 0x0 MSTORE PUSH1 0x41 PUSH1 0x4 MSTORE PUSH1 0x24 PUSH1 0x0 REVERT JUMPDEST PUSH3 0x39C DUP3 PUSH3 0x351 JUMP JUMPDEST DUP2 ADD DUP2 DUP2 LT PUSH8 0xFFFFFFFFFFFFFFFF DUP3 GT OR ISZERO PUSH3 0x3BE JUMPI PUSH3 0x3BD PUSH3 0x362 JUMP JUMPDEST JUMPDEST DUP1 PUSH1 0x40 MSTORE POP POP POP JUMP JUMPDEST PUSH1 0x0 PUSH3 0x3D3 PUSH3 0x338 JUMP JUMPDEST SWAP1 POP PUSH3 0x3E1 DUP3 DUP3 PUSH3 0x391 JUMP JUMPDEST SWAP2 SWAP1 POP JUMP JUMPDEST PUSH1 0x0 PUSH8 0xFFFFFFFFFFFFFFFF DUP3 GT ISZERO PUSH3 0x404 JUMPI PUSH3 0x403 PUSH3 0x362 JUMP JUMPDEST JUMPDEST PUSH1 0x20 DUP3 MUL SWAP1 POP PUSH1 0x20 DUP2 ADD SWAP1 POP SWAP2 SWAP1 POP JUMP JUMPDEST PUSH1 0x0 DUP1 REVERT JUMPDEST PUSH1 0x0 PUSH20 0xFFFFFFFFFFFFFFFFFFFFFFFFFFFFFFFFFFFFFFFF DUP3 AND SWAP1 POP SWAP2 SWAP1 POP JUMP JUMPDEST PUSH1 0x0 PUSH3 0x447 DUP3 PUSH3 0x41A JUMP JUMPDEST SWAP1 POP SWAP2 SWAP1 POP JUMP JUMPDEST PUSH3 0x459 DUP2 PUSH3 0x43A JUMP JUMPDEST DUP2 EQ PUSH3 0x465 JUMPI PUSH1 0x0 DUP1 REVERT JUMPDEST POP JUMP JUMPDEST PUSH1 0x0 DUP2 MLOAD SWAP1 POP PUSH3 0x479 DUP2 PUSH3 0x44E JUMP JUMPDEST SWAP3 SWAP2 POP POP JUMP JUMPDEST PUSH1 0x0 PUSH3 0x496 PUSH3 0x490 DUP5 PUSH3 0x3E6 JUMP JUMPDEST PUSH3 0x3C7 JUMP JUMPDEST SWAP1 POP DUP1 DUP4 DUP3 MSTORE PUSH1 0x20 DUP3 ADD SWAP1 POP PUSH1 0x20 DUP5 MUL DUP4 ADD DUP6 DUP2 GT ISZERO PUSH3 0x4BC JUMPI PUSH3 0x4BB PUSH3 0x415 JUMP JUMPDEST JUMPDEST DUP4 JUMPDEST DUP2 DUP2 LT ISZERO PUSH3 0x4E9 JUMPI DUP1 PUSH3 0x4D4 DUP9 DUP3 PUSH3 0x468 JUMP JUMPDEST DUP5 MSTORE PUSH1 0x20 DUP5 ADD SWAP4 POP POP PUSH1 0x20 DUP2 ADD SWAP1 POP PUSH3 0x4BE JUMP JUMPDEST POP POP POP SWAP4 SWAP3 POP POP POP JUMP JUMPDEST PUSH1 0x0 DUP3 PUSH1 0x1F DUP4 ADD SLT PUSH3 0x50B JUMPI PUSH3 0x50A PUSH3 0x34C JUMP JUMPDEST JUMPDEST DUP2 MLOAD PUSH3 0x51D DUP5 DUP3 PUSH1 0x20 DUP7 ADD PUSH3 0x47F JUMP JUMPDEST SWAP2 POP POP SWAP3 SWAP2 POP POP JUMP JUMPDEST PUSH1 0x0 PUSH8 0xFFFFFFFFFFFFFFFF DUP3 GT ISZERO PUSH3 0x544 JUMPI PUSH3 0x543 PUSH3 0x362 JUMP JUMPDEST JUMPDEST PUSH1 0x20 DUP3 MUL SWAP1 POP PUSH1 0x20 DUP2 ADD SWAP1 POP SWAP2 SWAP1 POP JUMP JUMPDEST PUSH1 0x0 DUP2 SWAP1 POP SWAP2 SWAP1 POP JUMP JUMPDEST PUSH3 0x56A DUP2 PUSH3 0x555 JUMP JUMPDEST DUP2 EQ PUSH3 0x576 JUMPI PUSH1 0x0 DUP1 REVERT JUMPDEST POP JUMP JUMPDEST PUSH1 0x0 DUP2 MLOAD SWAP1 POP PUSH3 0x58A DUP2 PUSH3 0x55F JUMP JUMPDEST SWAP3 SWAP2 POP POP JUMP JUMPDEST PUSH1 0x0 PUSH3 0x5A7 PUSH3 0x5A1 DUP5 PUSH3 0x526 JUMP JUMPDEST PUSH3 0x3C7 JUMP JUMPDEST SWAP1 POP DUP1 DUP4 DUP3 MSTORE PUSH1 0x20 DUP3 ADD SWAP1 POP PUSH1 0x20 DUP5 MUL DUP4 ADD DUP6 DUP2 GT ISZERO PUSH3 0x5CD JUMPI PUSH3 0x5CC PUSH3 0x415 JUMP JUMPDEST JUMPDEST DUP4 JUMPDEST DUP2 DUP2 LT ISZERO PUSH3 0x5FA JUMPI DUP1 PUSH3 0x5E5 DUP9 DUP3 PUSH3 0x579 JUMP JUMPDEST DUP5 MSTORE PUSH1 0x20 DUP5 ADD SWAP4 POP POP PUSH1 0x20 DUP2 ADD SWAP1 POP PUSH3 0x5CF JUMP JUMPDEST POP POP POP SWAP4 SWAP3 POP POP POP JUMP JUMPDEST PUSH1 0x0 DUP3 PUSH1 0x1F DUP4 ADD SLT PUSH3 0x61C JUMPI PUSH3 0x61B PUSH3 0x34C JUMP JUMPDEST JUMPDEST DUP2 MLOAD PUSH3 0x62E DUP5 DUP3 PUSH1 0x20 DUP7 ADD PUSH3 0x590 JUMP JUMPDEST SWAP2 POP POP SWAP3 SWAP2 POP POP JUMP JUMPDEST PUSH1 0x0 DUP1 PUSH1 0x0 PUSH1 0x60 DUP5 DUP7 SUB SLT ISZERO PUSH3 0x653 JUMPI PUSH3 0x652 PUSH3 0x342 JUMP JUMPDEST JUMPDEST PUSH1 0x0 DUP5 ADD MLOAD PUSH8 0xFFFFFFFFFFFFFFFF DUP2 GT ISZERO PUSH3 0x674 JUMPI PUSH3 0x673 PUSH3 0x347 JUMP JUMPDEST JUMPDEST PUSH3 0x682 DUP7 DUP3 DUP8 ADD PUSH3 0x4F3 JUMP JUMPDEST SWAP4 POP POP PUSH1 0x20 DUP5 ADD MLOAD PUSH8 0xFFFFFFFFFFFFFFFF DUP2 GT ISZERO PUSH3 0x6A6 JUMPI PUSH3 0x6A5 PUSH3 0x347 JUMP JUMPDEST JUMPDEST PUSH3 0x6B4 DUP7 DUP3 DUP8 ADD PUSH3 0x604 JUMP JUMPDEST SWAP3 POP POP PUSH1 0x40 PUSH3 0x6C7 DUP7 DUP3 DUP8 ADD PUSH3 0x468 JUMP JUMPDEST SWAP2 POP POP SWAP3 POP SWAP3 POP SWAP3 JUMP JUMPDEST PUSH1 0x0 DUP3 DUP3 MSTORE PUSH1 0x20 DUP3 ADD SWAP1 POP SWAP3 SWAP2 POP POP JUMP JUMPDEST PUSH32 0x53706C69747465723A204C656E67746820646966666572000000000000000000 PUSH1 0x0 DUP3 ADD MSTORE POP JUMP JUMPDEST PUSH1 0x0 PUSH3 0x71A PUSH1 0x17 DUP4 PUSH3 0x6D1 JUMP JUMPDEST SWAP2 POP PUSH3 0x727 DUP3 PUSH3 0x6E2 JUMP JUMPDEST PUSH1 0x20 DUP3 ADD SWAP1 POP SWAP2 SWAP1 POP JUMP JUMPDEST PUSH1 0x0 PUSH1 0x20 DUP3 ADD SWAP1 POP DUP2 DUP2 SUB PUSH1 0x0 DUP4 ADD MSTORE PUSH3 0x74D DUP2 PUSH3 0x70B JUMP JUMPDEST SWAP1 POP SWAP2 SWAP1 POP JUMP JUMPDEST PUSH32 0x53706C69747465723A204C656E677468206D757374206265203E203000000000 PUSH1 0x0 DUP3 ADD MSTORE POP JUMP JUMPDEST PUSH1 0x0 PUSH3 0x78C PUSH1 0x1C DUP4 PUSH3 0x6D1 JUMP JUMPDEST SWAP2 POP PUSH3 0x799 DUP3 PUSH3 0x754 JUMP JUMPDEST PUSH1 0x20 DUP3 ADD SWAP1 POP SWAP2 SWAP1 POP JUMP JUMPDEST PUSH1 0x0 PUSH1 0x20 DUP3 ADD SWAP1 POP DUP2 DUP2 SUB PUSH1 0x0 DUP4 ADD MSTORE PUSH3 0x7BF DUP2 PUSH3 0x77D JUMP JUMPDEST SWAP1 POP SWAP2 SWAP1 POP JUMP JUMPDEST PUSH32 0x4E487B7100000000000000000000000000000000000000000000000000000000 PUSH1 0x0 MSTORE PUSH1 0x32 PUSH1 0x4 MSTORE PUSH1 0x24 PUSH1 0x0 REVERT JUMPDEST PUSH32 0x53706C69747465723A2053686172657320617265203000000000000000000000 PUSH1 0x0 DUP3 ADD MSTORE POP JUMP JUMPDEST PUSH1 0x0 PUSH3 0x82D PUSH1 0x16 DUP4 PUSH3 0x6D1 JUMP JUMPDEST SWAP2 POP PUSH3 0x83A DUP3 PUSH3 0x7F5 JUMP JUMPDEST PUSH1 0x20 DUP3 ADD SWAP1 POP SWAP2 SWAP1 POP JUMP JUMPDEST PUSH1 0x0 PUSH1 0x20 DUP3 ADD SWAP1 POP DUP2 DUP2 SUB PUSH1 0x0 DUP4 ADD MSTORE PUSH3 0x860 DUP2 PUSH3 0x81E JUMP JUMPDEST SWAP1 POP SWAP2 SWAP1 POP JUMP JUMPDEST PUSH32 0x4E487B7100000000000000000000000000000000000000000000000000000000 PUSH1 0x0 MSTORE PUSH1 0x11 PUSH1 0x4 MSTORE PUSH1 0x24 PUSH1 0x0 REVERT JUMPDEST PUSH1 0x0 PUSH3 0x8A3 DUP3 PUSH3 0x555 JUMP JUMPDEST SWAP2 POP PUSH3 0x8B0 DUP4 PUSH3 0x555 JUMP JUMPDEST SWAP3 POP DUP3 PUSH32 0xFFFFFFFFFFFFFFFFFFFFFFFFFFFFFFFFFFFFFFFFFFFFFFFFFFFFFFFFFFFFFFFF SUB DUP3 GT ISZERO PUSH3 0x8E8 JUMPI PUSH3 0x8E7 PUSH3 0x867 JUMP JUMPDEST JUMPDEST DUP3 DUP3 ADD SWAP1 POP SWAP3 SWAP2 POP POP JUMP JUMPDEST PUSH1 0x0 PUSH3 0x900 DUP3 PUSH3 0x555 JUMP JUMPDEST SWAP2 POP PUSH32 0xFFFFFFFFFFFFFFFFFFFFFFFFFFFFFFFFFFFFFFFFFFFFFFFFFFFFFFFFFFFFFFFF DUP3 EQ ISZERO PUSH3 0x936 JUMPI PUSH3 0x935 PUSH3 0x867 JUMP JUMPDEST JUMPDEST PUSH1 0x1 DUP3 ADD SWAP1 POP SWAP2 SWAP1 POP JUMP JUMPDEST PUSH1 0x80 MLOAD PUSH1 0xA0 MLOAD PUSH2 0x1B32 PUSH3 0x98A PUSH1 0x0 CODECOPY PUSH1 0x0 DUP2 DUP2 PUSH2 0x236 ADD MSTORE DUP2 DUP2 PUSH2 0x737 ADD MSTORE DUP2 DUP2 PUSH2 0x8DF ADD MSTORE PUSH2 0xB0A ADD MSTORE PUSH1 0x0 DUP2 DUP2 PUSH2 0x321 ADD MSTORE DUP2 DUP2 PUSH2 0x7E3 ADD MSTORE PUSH2 0x9CA ADD MSTORE PUSH2 0x1B32 PUSH1 0x0 RETURN INVALID PUSH1 0x80 PUSH1 0x40 MSTORE CALLVALUE DUP1 ISZERO PUSH2 0x10 JUMPI PUSH1 0x0 DUP1 REVERT JUMPDEST POP PUSH1 0x4 CALLDATASIZE LT PUSH2 0x9E JUMPI PUSH1 0x0 CALLDATALOAD PUSH1 0xE0 SHR DUP1 PUSH4 0x87B0BE48 GT PUSH2 0x66 JUMPI DUP1 PUSH4 0x87B0BE48 EQ PUSH2 0x135 JUMPI DUP1 PUSH4 0x8DA5CB5B EQ PUSH2 0x151 JUMPI DUP1 PUSH4 0xA7310B58 EQ PUSH2 0x16F JUMPI DUP1 PUSH4 0xD8F163AB EQ PUSH2 0x1A0 JUMPI DUP1 PUSH4 0xF2FDE38B EQ PUSH2 0x1BE JUMPI PUSH2 0x9E JUMP JUMPDEST DUP1 PUSH4 0x97AAD10 EQ PUSH2 0xA3 JUMPI DUP1 PUSH4 0x19281AFD EQ PUSH2 0xD3 JUMPI DUP1 PUSH4 0x6895179D EQ PUSH2 0xEF JUMPI DUP1 PUSH4 0x715018A6 EQ PUSH2 0x10D JUMPI DUP1 PUSH4 0x85E3F997 EQ PUSH2 0x117 JUMPI JUMPDEST PUSH1 0x0 DUP1 REVERT JUMPDEST PUSH2 0xBD PUSH1 0x4 DUP1 CALLDATASIZE SUB DUP2 ADD SWAP1 PUSH2 0xB8 SWAP2 SWAP1 PUSH2 0x1125 JUMP JUMPDEST PUSH2 0x1DA JUMP JUMPDEST PUSH1 0x40 MLOAD PUSH2 0xCA SWAP2 SWAP1 PUSH2 0x116B JUMP JUMPDEST PUSH1 0x40 MLOAD DUP1 SWAP2 SUB SWAP1 RETURN JUMPDEST PUSH2 0xED PUSH1 0x4 DUP1 CALLDATASIZE SUB DUP2 ADD SWAP1 PUSH2 0xE8 SWAP2 SWAP1 PUSH2 0x1186 JUMP JUMPDEST PUSH2 0x3AF JUMP JUMPDEST STOP JUMPDEST PUSH2 0xF7 PUSH2 0x735 JUMP JUMPDEST PUSH1 0x40 MLOAD PUSH2 0x104 SWAP2 SWAP1 PUSH2 0x1225 JUMP JUMPDEST PUSH1 0x40 MLOAD DUP1 SWAP2 SUB SWAP1 RETURN JUMPDEST PUSH2 0x115 PUSH2 0x759 JUMP JUMPDEST STOP JUMPDEST PUSH2 0x11F PUSH2 0x7E1 JUMP JUMPDEST PUSH1 0x40 MLOAD PUSH2 0x12C SWAP2 SWAP1 PUSH2 0x116B JUMP JUMPDEST PUSH1 0x40 MLOAD DUP1 SWAP2 SUB SWAP1 RETURN JUMPDEST PUSH2 0x14F PUSH1 0x4 DUP1 CALLDATASIZE SUB DUP2 ADD SWAP1 PUSH2 0x14A SWAP2 SWAP1 PUSH2 0x1125 JUMP JUMPDEST PUSH2 0x805 JUMP JUMPDEST STOP JUMPDEST PUSH2 0x159 PUSH2 0xBA8 JUMP JUMPDEST PUSH1 0x40 MLOAD PUSH2 0x166 SWAP2 SWAP1 PUSH2 0x124F JUMP JUMPDEST PUSH1 0x40 MLOAD DUP1 SWAP2 SUB SWAP1 RETURN JUMPDEST PUSH2 0x189 PUSH1 0x4 DUP1 CALLDATASIZE SUB DUP2 ADD SWAP1 PUSH2 0x184 SWAP2 SWAP1 PUSH2 0x1125 JUMP JUMPDEST PUSH2 0xBD1 JUMP JUMPDEST PUSH1 0x40 MLOAD PUSH2 0x197 SWAP3 SWAP2 SWAP1 PUSH2 0x126A JUMP JUMPDEST PUSH1 0x40 MLOAD DUP1 SWAP2 SUB SWAP1 RETURN JUMPDEST PUSH2 0x1A8 PUSH2 0xBF5 JUMP JUMPDEST PUSH1 0x40 MLOAD PUSH2 0x1B5 SWAP2 SWAP1 PUSH2 0x116B JUMP JUMPDEST PUSH1 0x40 MLOAD DUP1 SWAP2 SUB SWAP1 RETURN JUMPDEST PUSH2 0x1D8 PUSH1 0x4 DUP1 CALLDATASIZE SUB DUP2 ADD SWAP1 PUSH2 0x1D3 SWAP2 SWAP1 PUSH2 0x1125 JUMP JUMPDEST PUSH2 0xBFB JUMP JUMPDEST STOP JUMPDEST PUSH1 0x0 DUP1 PUSH1 0x3 PUSH1 0x0 DUP5 PUSH20 0xFFFFFFFFFFFFFFFFFFFFFFFFFFFFFFFFFFFFFFFF AND PUSH20 0xFFFFFFFFFFFFFFFFFFFFFFFFFFFFFFFFFFFFFFFF AND DUP2 MSTORE PUSH1 0x20 ADD SWAP1 DUP2 MSTORE PUSH1 0x20 ADD PUSH1 0x0 KECCAK256 PUSH1 0x0 ADD SLOAD EQ ISZERO PUSH2 0x22F JUMPI PUSH1 0x0 SWAP1 POP PUSH2 0x3AA JUMP JUMPDEST PUSH1 0x0 PUSH1 0x2 SLOAD PUSH32 0x0 PUSH20 0xFFFFFFFFFFFFFFFFFFFFFFFFFFFFFFFFFFFFFFFF AND PUSH4 0x70A08231 ADDRESS PUSH1 0x40 MLOAD DUP3 PUSH4 0xFFFFFFFF AND PUSH1 0xE0 SHL DUP2 MSTORE PUSH1 0x4 ADD PUSH2 0x28D SWAP2 SWAP1 PUSH2 0x124F JUMP JUMPDEST PUSH1 0x20 PUSH1 0x40 MLOAD DUP1 DUP4 SUB DUP2 DUP7 GAS STATICCALL ISZERO DUP1 ISZERO PUSH2 0x2AA JUMPI RETURNDATASIZE PUSH1 0x0 DUP1 RETURNDATACOPY RETURNDATASIZE PUSH1 0x0 REVERT JUMPDEST POP POP POP POP PUSH1 0x40 MLOAD RETURNDATASIZE PUSH1 0x1F NOT PUSH1 0x1F DUP3 ADD AND DUP3 ADD DUP1 PUSH1 0x40 MSTORE POP DUP2 ADD SWAP1 PUSH2 0x2CE SWAP2 SWAP1 PUSH2 0x12BF JUMP JUMPDEST PUSH2 0x2D8 SWAP2 SWAP1 PUSH2 0x131B JUMP JUMPDEST SWAP1 POP PUSH1 0x0 PUSH1 0x3 PUSH1 0x0 DUP6 PUSH20 0xFFFFFFFFFFFFFFFFFFFFFFFFFFFFFFFFFFFFFFFF AND PUSH20 0xFFFFFFFFFFFFFFFFFFFFFFFFFFFFFFFFFFFFFFFF AND DUP2 MSTORE PUSH1 0x20 ADD SWAP1 DUP2 MSTORE PUSH1 0x20 ADD PUSH1 0x0 KECCAK256 PUSH1 0x1 ADD SLOAD PUSH32 0x0 PUSH1 0x3 PUSH1 0x0 DUP8 PUSH20 0xFFFFFFFFFFFFFFFFFFFFFFFFFFFFFFFFFFFFFFFF AND PUSH20 0xFFFFFFFFFFFFFFFFFFFFFFFFFFFFFFFFFFFFFFFF AND DUP2 MSTORE PUSH1 0x20 ADD SWAP1 DUP2 MSTORE PUSH1 0x20 ADD PUSH1 0x0 KECCAK256 PUSH1 0x0 ADD SLOAD DUP5 PUSH2 0x38E SWAP2 SWAP1 PUSH2 0x1371 JUMP JUMPDEST PUSH2 0x398 SWAP2 SWAP1 PUSH2 0x13FA JUMP JUMPDEST PUSH2 0x3A2 SWAP2 SWAP1 PUSH2 0x142B JUMP JUMPDEST SWAP1 POP DUP1 SWAP3 POP POP POP JUMPDEST SWAP2 SWAP1 POP JUMP JUMPDEST PUSH2 0x3B7 PUSH2 0xCF3 JUMP JUMPDEST PUSH20 0xFFFFFFFFFFFFFFFFFFFFFFFFFFFFFFFFFFFFFFFF AND PUSH2 0x3D5 PUSH2 0xBA8 JUMP JUMPDEST PUSH20 0xFFFFFFFFFFFFFFFFFFFFFFFFFFFFFFFFFFFFFFFF AND EQ PUSH2 0x42B JUMPI PUSH1 0x40 MLOAD PUSH32 0x8C379A000000000000000000000000000000000000000000000000000000000 DUP2 MSTORE PUSH1 0x4 ADD PUSH2 0x422 SWAP1 PUSH2 0x14BC JUMP JUMPDEST PUSH1 0x40 MLOAD DUP1 SWAP2 SUB SWAP1 REVERT JUMPDEST PUSH1 0x0 PUSH1 0x3 PUSH1 0x0 DUP4 PUSH20 0xFFFFFFFFFFFFFFFFFFFFFFFFFFFFFFFFFFFFFFFF AND PUSH20 0xFFFFFFFFFFFFFFFFFFFFFFFFFFFFFFFFFFFFFFFF AND DUP2 MSTORE PUSH1 0x20 ADD SWAP1 DUP2 MSTORE PUSH1 0x20 ADD PUSH1 0x0 KECCAK256 PUSH1 0x0 ADD SLOAD GT PUSH2 0x4B0 JUMPI PUSH1 0x40 MLOAD PUSH32 0x8C379A000000000000000000000000000000000000000000000000000000000 DUP2 MSTORE PUSH1 0x4 ADD PUSH2 0x4A7 SWAP1 PUSH2 0x154E JUMP JUMPDEST PUSH1 0x40 MLOAD DUP1 SWAP2 SUB SWAP1 REVERT JUMPDEST PUSH1 0x0 PUSH1 0x3 PUSH1 0x0 DUP5 PUSH20 0xFFFFFFFFFFFFFFFFFFFFFFFFFFFFFFFFFFFFFFFF AND PUSH20 0xFFFFFFFFFFFFFFFFFFFFFFFFFFFFFFFFFFFFFFFF AND DUP2 MSTORE PUSH1 0x20 ADD SWAP1 DUP2 MSTORE PUSH1 0x20 ADD PUSH1 0x0 KECCAK256 PUSH1 0x0 ADD SLOAD EQ PUSH2 0x535 JUMPI PUSH1 0x40 MLOAD PUSH32 0x8C379A000000000000000000000000000000000000000000000000000000000 DUP2 MSTORE PUSH1 0x4 ADD PUSH2 0x52C SWAP1 PUSH2 0x15E0 JUMP JUMPDEST PUSH1 0x40 MLOAD DUP1 SWAP2 SUB SWAP1 REVERT JUMPDEST PUSH1 0x3 PUSH1 0x0 DUP3 PUSH20 0xFFFFFFFFFFFFFFFFFFFFFFFFFFFFFFFFFFFFFFFF AND PUSH20 0xFFFFFFFFFFFFFFFFFFFFFFFFFFFFFFFFFFFFFFFF AND DUP2 MSTORE PUSH1 0x20 ADD SWAP1 DUP2 MSTORE PUSH1 0x20 ADD PUSH1 0x0 KECCAK256 PUSH1 0x0 ADD SLOAD PUSH1 0x3 PUSH1 0x0 DUP5 PUSH20 0xFFFFFFFFFFFFFFFFFFFFFFFFFFFFFFFFFFFFFFFF AND PUSH20 0xFFFFFFFFFFFFFFFFFFFFFFFFFFFFFFFFFFFFFFFF AND DUP2 MSTORE PUSH1 0x20 ADD SWAP1 DUP2 MSTORE PUSH1 0x20 ADD PUSH1 0x0 KECCAK256 PUSH1 0x0 ADD DUP2 SWAP1 SSTORE POP PUSH1 0x3 PUSH1 0x0 DUP3 PUSH20 0xFFFFFFFFFFFFFFFFFFFFFFFFFFFFFFFFFFFFFFFF AND PUSH20 0xFFFFFFFFFFFFFFFFFFFFFFFFFFFFFFFFFFFFFFFF AND DUP2 MSTORE PUSH1 0x20 ADD SWAP1 DUP2 MSTORE PUSH1 0x20 ADD PUSH1 0x0 KECCAK256 PUSH1 0x1 ADD SLOAD PUSH1 0x3 PUSH1 0x0 DUP5 PUSH20 0xFFFFFFFFFFFFFFFFFFFFFFFFFFFFFFFFFFFFFFFF AND PUSH20 0xFFFFFFFFFFFFFFFFFFFFFFFFFFFFFFFFFFFFFFFF AND DUP2 MSTORE PUSH1 0x20 ADD SWAP1 DUP2 MSTORE PUSH1 0x20 ADD PUSH1 0x0 KECCAK256 PUSH1 0x1 ADD DUP2 SWAP1 SSTORE POP PUSH1 0x0 PUSH1 0x3 PUSH1 0x0 DUP4 PUSH20 0xFFFFFFFFFFFFFFFFFFFFFFFFFFFFFFFFFFFFFFFF AND PUSH20 0xFFFFFFFFFFFFFFFFFFFFFFFFFFFFFFFFFFFFFFFF AND DUP2 MSTORE PUSH1 0x20 ADD SWAP1 DUP2 MSTORE PUSH1 0x20 ADD PUSH1 0x0 KECCAK256 PUSH1 0x0 ADD DUP2 SWAP1 SSTORE POP PUSH1 0x0 PUSH1 0x3 PUSH1 0x0 DUP4 PUSH20 0xFFFFFFFFFFFFFFFFFFFFFFFFFFFFFFFFFFFFFFFF AND PUSH20 0xFFFFFFFFFFFFFFFFFFFFFFFFFFFFFFFFFFFFFFFF AND DUP2 MSTORE PUSH1 0x20 ADD SWAP1 DUP2 MSTORE PUSH1 0x20 ADD PUSH1 0x0 KECCAK256 PUSH1 0x1 ADD DUP2 SWAP1 SSTORE POP DUP2 PUSH20 0xFFFFFFFFFFFFFFFFFFFFFFFFFFFFFFFFFFFFFFFF AND DUP2 PUSH20 0xFFFFFFFFFFFFFFFFFFFFFFFFFFFFFFFFFFFFFFFF AND PUSH32 0x47EBA4993DA31BFED0680C802FB8577F1A9D57BB4C0881372FBE7AD29995A880 PUSH1 0x40 MLOAD PUSH1 0x40 MLOAD DUP1 SWAP2 SUB SWAP1 LOG3 POP POP JUMP JUMPDEST PUSH32 0x0 DUP2 JUMP JUMPDEST PUSH2 0x761 PUSH2 0xCF3 JUMP JUMPDEST PUSH20 0xFFFFFFFFFFFFFFFFFFFFFFFFFFFFFFFFFFFFFFFF AND PUSH2 0x77F PUSH2 0xBA8 JUMP JUMPDEST PUSH20 0xFFFFFFFFFFFFFFFFFFFFFFFFFFFFFFFFFFFFFFFF AND EQ PUSH2 0x7D5 JUMPI PUSH1 0x40 MLOAD PUSH32 0x8C379A000000000000000000000000000000000000000000000000000000000 DUP2 MSTORE PUSH1 0x4 ADD PUSH2 0x7CC SWAP1 PUSH2 0x14BC JUMP JUMPDEST PUSH1 0x40 MLOAD DUP1 SWAP2 SUB SWAP1 REVERT JUMPDEST PUSH2 0x7DF PUSH1 0x0 PUSH2 0xCFB JUMP JUMPDEST JUMP JUMPDEST PUSH32 0x0 DUP2 JUMP JUMPDEST PUSH1 0x2 PUSH1 0x1 SLOAD EQ ISZERO PUSH2 0x84B JUMPI PUSH1 0x40 MLOAD PUSH32 0x8C379A000000000000000000000000000000000000000000000000000000000 DUP2 MSTORE PUSH1 0x4 ADD PUSH2 0x842 SWAP1 PUSH2 0x164C JUMP JUMPDEST PUSH1 0x40 MLOAD DUP1 SWAP2 SUB SWAP1 REVERT JUMPDEST PUSH1 0x2 PUSH1 0x1 DUP2 SWAP1 SSTORE POP PUSH1 0x0 PUSH1 0x3 PUSH1 0x0 DUP4 PUSH20 0xFFFFFFFFFFFFFFFFFFFFFFFFFFFFFFFFFFFFFFFF AND PUSH20 0xFFFFFFFFFFFFFFFFFFFFFFFFFFFFFFFFFFFFFFFF AND DUP2 MSTORE PUSH1 0x20 ADD SWAP1 DUP2 MSTORE PUSH1 0x20 ADD PUSH1 0x0 KECCAK256 PUSH1 0x0 ADD SLOAD GT PUSH2 0x8D8 JUMPI PUSH1 0x40 MLOAD PUSH32 0x8C379A000000000000000000000000000000000000000000000000000000000 DUP2 MSTORE PUSH1 0x4 ADD PUSH2 0x8CF SWAP1 PUSH2 0x16B8 JUMP JUMPDEST PUSH1 0x40 MLOAD DUP1 SWAP2 SUB SWAP1 REVERT JUMPDEST PUSH1 0x0 PUSH1 0x2 SLOAD PUSH32 0x0 PUSH20 0xFFFFFFFFFFFFFFFFFFFFFFFFFFFFFFFFFFFFFFFF AND PUSH4 0x70A08231 ADDRESS PUSH1 0x40 MLOAD DUP3 PUSH4 0xFFFFFFFF AND PUSH1 0xE0 SHL DUP2 MSTORE PUSH1 0x4 ADD PUSH2 0x936 SWAP2 SWAP1 PUSH2 0x124F JUMP JUMPDEST PUSH1 0x20 PUSH1 0x40 MLOAD DUP1 DUP4 SUB DUP2 DUP7 GAS STATICCALL ISZERO DUP1 ISZERO PUSH2 0x953 JUMPI RETURNDATASIZE PUSH1 0x0 DUP1 RETURNDATACOPY RETURNDATASIZE PUSH1 0x0 REVERT JUMPDEST POP POP POP POP PUSH1 0x40 MLOAD RETURNDATASIZE PUSH1 0x1F NOT PUSH1 0x1F DUP3 ADD AND DUP3 ADD DUP1 PUSH1 0x40 MSTORE POP DUP2 ADD SWAP1 PUSH2 0x977 SWAP2 SWAP1 PUSH2 0x12BF JUMP JUMPDEST PUSH2 0x981 SWAP2 SWAP1 PUSH2 0x131B JUMP JUMPDEST SWAP1 POP PUSH1 0x0 PUSH1 0x3 PUSH1 0x0 DUP5 PUSH20 0xFFFFFFFFFFFFFFFFFFFFFFFFFFFFFFFFFFFFFFFF AND PUSH20 0xFFFFFFFFFFFFFFFFFFFFFFFFFFFFFFFFFFFFFFFF AND DUP2 MSTORE PUSH1 0x20 ADD SWAP1 DUP2 MSTORE PUSH1 0x20 ADD PUSH1 0x0 KECCAK256 PUSH1 0x1 ADD SLOAD PUSH32 0x0 PUSH1 0x3 PUSH1 0x0 DUP7 PUSH20 0xFFFFFFFFFFFFFFFFFFFFFFFFFFFFFFFFFFFFFFFF AND PUSH20 0xFFFFFFFFFFFFFFFFFFFFFFFFFFFFFFFFFFFFFFFF AND DUP2 MSTORE PUSH1 0x20 ADD SWAP1 DUP2 MSTORE PUSH1 0x20 ADD PUSH1 0x0 KECCAK256 PUSH1 0x0 ADD SLOAD DUP5 PUSH2 0xA37 SWAP2 SWAP1 PUSH2 0x1371 JUMP JUMPDEST PUSH2 0xA41 SWAP2 SWAP1 PUSH2 0x13FA JUMP JUMPDEST PUSH2 0xA4B SWAP2 SWAP1 PUSH2 0x142B JUMP JUMPDEST SWAP1 POP PUSH1 0x0 DUP2 EQ ISZERO PUSH2 0xA91 JUMPI PUSH1 0x40 MLOAD PUSH32 0x8C379A000000000000000000000000000000000000000000000000000000000 DUP2 MSTORE PUSH1 0x4 ADD PUSH2 0xA88 SWAP1 PUSH2 0x1724 JUMP JUMPDEST PUSH1 0x40 MLOAD DUP1 SWAP2 SUB SWAP1 REVERT JUMPDEST DUP1 PUSH1 0x3 PUSH1 0x0 DUP6 PUSH20 0xFFFFFFFFFFFFFFFFFFFFFFFFFFFFFFFFFFFFFFFF AND PUSH20 0xFFFFFFFFFFFFFFFFFFFFFFFFFFFFFFFFFFFFFFFF AND DUP2 MSTORE PUSH1 0x20 ADD SWAP1 DUP2 MSTORE PUSH1 0x20 ADD PUSH1 0x0 KECCAK256 PUSH1 0x1 ADD PUSH1 0x0 DUP3 DUP3 SLOAD PUSH2 0xAE3 SWAP2 SWAP1 PUSH2 0x131B JUMP JUMPDEST SWAP3 POP POP DUP2 SWAP1 SSTORE POP DUP1 PUSH1 0x2 PUSH1 0x0 DUP3 DUP3 SLOAD PUSH2 0xAFC SWAP2 SWAP1 PUSH2 0x131B JUMP JUMPDEST SWAP3 POP POP DUP2 SWAP1 SSTORE POP PUSH2 0xB4E DUP4 DUP3 PUSH32 0x0 PUSH20 0xFFFFFFFFFFFFFFFFFFFFFFFFFFFFFFFFFFFFFFFF AND PUSH2 0xDBF SWAP1 SWAP3 SWAP2 SWAP1 PUSH4 0xFFFFFFFF AND JUMP JUMPDEST DUP3 PUSH20 0xFFFFFFFFFFFFFFFFFFFFFFFFFFFFFFFFFFFFFFFF AND PUSH32 0x12F4533B5CBD2C9F8A0752A2D0B16379AF992DBB2A0844A5007A19D983B3A934 DUP3 PUSH1 0x40 MLOAD PUSH2 0xB94 SWAP2 SWAP1 PUSH2 0x116B JUMP JUMPDEST PUSH1 0x40 MLOAD DUP1 SWAP2 SUB SWAP1 LOG2 POP POP PUSH1 0x1 DUP1 DUP2 SWAP1 SSTORE POP POP JUMP JUMPDEST PUSH1 0x0 DUP1 PUSH1 0x0 SWAP1 SLOAD SWAP1 PUSH2 0x100 EXP SWAP1 DIV PUSH20 0xFFFFFFFFFFFFFFFFFFFFFFFFFFFFFFFFFFFFFFFF AND SWAP1 POP SWAP1 JUMP JUMPDEST PUSH1 0x3 PUSH1 0x20 MSTORE DUP1 PUSH1 0x0 MSTORE PUSH1 0x40 PUSH1 0x0 KECCAK256 PUSH1 0x0 SWAP2 POP SWAP1 POP DUP1 PUSH1 0x0 ADD SLOAD SWAP1 DUP1 PUSH1 0x1 ADD SLOAD SWAP1 POP DUP3 JUMP JUMPDEST PUSH1 0x2 SLOAD DUP2 JUMP JUMPDEST PUSH2 0xC03 PUSH2 0xCF3 JUMP JUMPDEST PUSH20 0xFFFFFFFFFFFFFFFFFFFFFFFFFFFFFFFFFFFFFFFF AND PUSH2 0xC21 PUSH2 0xBA8 JUMP JUMPDEST PUSH20 0xFFFFFFFFFFFFFFFFFFFFFFFFFFFFFFFFFFFFFFFF AND EQ PUSH2 0xC77 JUMPI PUSH1 0x40 MLOAD PUSH32 0x8C379A000000000000000000000000000000000000000000000000000000000 DUP2 MSTORE PUSH1 0x4 ADD PUSH2 0xC6E SWAP1 PUSH2 0x14BC JUMP JUMPDEST PUSH1 0x40 MLOAD DUP1 SWAP2 SUB SWAP1 REVERT JUMPDEST PUSH1 0x0 PUSH20 0xFFFFFFFFFFFFFFFFFFFFFFFFFFFFFFFFFFFFFFFF AND DUP2 PUSH20 0xFFFFFFFFFFFFFFFFFFFFFFFFFFFFFFFFFFFFFFFF AND EQ ISZERO PUSH2 0xCE7 JUMPI PUSH1 0x40 MLOAD PUSH32 0x8C379A000000000000000000000000000000000000000000000000000000000 DUP2 MSTORE PUSH1 0x4 ADD PUSH2 0xCDE SWAP1 PUSH2 0x17B6 JUMP JUMPDEST PUSH1 0x40 MLOAD DUP1 SWAP2 SUB SWAP1 REVERT JUMPDEST PUSH2 0xCF0 DUP2 PUSH2 0xCFB JUMP JUMPDEST POP JUMP JUMPDEST PUSH1 0x0 CALLER SWAP1 POP SWAP1 JUMP JUMPDEST PUSH1 0x0 DUP1 PUSH1 0x0 SWAP1 SLOAD SWAP1 PUSH2 0x100 EXP SWAP1 DIV PUSH20 0xFFFFFFFFFFFFFFFFFFFFFFFFFFFFFFFFFFFFFFFF AND SWAP1 POP DUP2 PUSH1 0x0 DUP1 PUSH2 0x100 EXP DUP2 SLOAD DUP2 PUSH20 0xFFFFFFFFFFFFFFFFFFFFFFFFFFFFFFFFFFFFFFFF MUL NOT AND SWAP1 DUP4 PUSH20 0xFFFFFFFFFFFFFFFFFFFFFFFFFFFFFFFFFFFFFFFF AND MUL OR SWAP1 SSTORE POP DUP2 PUSH20 0xFFFFFFFFFFFFFFFFFFFFFFFFFFFFFFFFFFFFFFFF AND DUP2 PUSH20 0xFFFFFFFFFFFFFFFFFFFFFFFFFFFFFFFFFFFFFFFF AND PUSH32 0x8BE0079C531659141344CD1FD0A4F28419497F9722A3DAAFE3B4186F6B6457E0 PUSH1 0x40 MLOAD PUSH1 0x40 MLOAD DUP1 SWAP2 SUB SWAP1 LOG3 POP POP JUMP JUMPDEST PUSH2 0xE40 DUP4 PUSH4 0xA9059CBB PUSH1 0xE0 SHL DUP5 DUP5 PUSH1 0x40 MLOAD PUSH1 0x24 ADD PUSH2 0xDDE SWAP3 SWAP2 SWAP1 PUSH2 0x17D6 JUMP JUMPDEST PUSH1 0x40 MLOAD PUSH1 0x20 DUP2 DUP4 SUB SUB DUP2 MSTORE SWAP1 PUSH1 0x40 MSTORE SWAP1 PUSH28 0xFFFFFFFFFFFFFFFFFFFFFFFFFFFFFFFFFFFFFFFFFFFFFFFFFFFFFFFF NOT AND PUSH1 0x20 DUP3 ADD DUP1 MLOAD PUSH28 0xFFFFFFFFFFFFFFFFFFFFFFFFFFFFFFFFFFFFFFFFFFFFFFFFFFFFFFFF DUP4 DUP2 DUP4 AND OR DUP4 MSTORE POP POP POP POP PUSH2 0xE45 JUMP JUMPDEST POP POP POP JUMP JUMPDEST PUSH1 0x0 PUSH2 0xEA7 DUP3 PUSH1 0x40 MLOAD DUP1 PUSH1 0x40 ADD PUSH1 0x40 MSTORE DUP1 PUSH1 0x20 DUP2 MSTORE PUSH1 0x20 ADD PUSH32 0x5361666545524332303A206C6F772D6C6576656C2063616C6C206661696C6564 DUP2 MSTORE POP DUP6 PUSH20 0xFFFFFFFFFFFFFFFFFFFFFFFFFFFFFFFFFFFFFFFF AND PUSH2 0xF0C SWAP1 SWAP3 SWAP2 SWAP1 PUSH4 0xFFFFFFFF AND JUMP JUMPDEST SWAP1 POP PUSH1 0x0 DUP2 MLOAD GT ISZERO PUSH2 0xF07 JUMPI DUP1 DUP1 PUSH1 0x20 ADD SWAP1 MLOAD DUP2 ADD SWAP1 PUSH2 0xEC7 SWAP2 SWAP1 PUSH2 0x1837 JUMP JUMPDEST PUSH2 0xF06 JUMPI PUSH1 0x40 MLOAD PUSH32 0x8C379A000000000000000000000000000000000000000000000000000000000 DUP2 MSTORE PUSH1 0x4 ADD PUSH2 0xEFD SWAP1 PUSH2 0x18D6 JUMP JUMPDEST PUSH1 0x40 MLOAD DUP1 SWAP2 SUB SWAP1 REVERT JUMPDEST JUMPDEST POP POP POP JUMP JUMPDEST PUSH1 0x60 PUSH2 0xF1B DUP5 DUP5 PUSH1 0x0 DUP6 PUSH2 0xF24 JUMP JUMPDEST SWAP1 POP SWAP4 SWAP3 POP POP POP JUMP JUMPDEST PUSH1 0x60 DUP3 SELFBALANCE LT ISZERO PUSH2 0xF69 JUMPI PUSH1 0x40 MLOAD PUSH32 0x8C379A000000000000000000000000000000000000000000000000000000000 DUP2 MSTORE PUSH1 0x4 ADD PUSH2 0xF60 SWAP1 PUSH2 0x1968 JUMP JUMPDEST PUSH1 0x40 MLOAD DUP1 SWAP2 SUB SWAP1 REVERT JUMPDEST PUSH2 0xF72 DUP6 PUSH2 0x1038 JUMP JUMPDEST PUSH2 0xFB1 JUMPI PUSH1 0x40 MLOAD PUSH32 0x8C379A000000000000000000000000000000000000000000000000000000000 DUP2 MSTORE PUSH1 0x4 ADD PUSH2 0xFA8 SWAP1 PUSH2 0x19D4 JUMP JUMPDEST PUSH1 0x40 MLOAD DUP1 SWAP2 SUB SWAP1 REVERT JUMPDEST PUSH1 0x0 DUP1 DUP7 PUSH20 0xFFFFFFFFFFFFFFFFFFFFFFFFFFFFFFFFFFFFFFFF AND DUP6 DUP8 PUSH1 0x40 MLOAD PUSH2 0xFDA SWAP2 SWAP1 PUSH2 0x1A6E JUMP JUMPDEST PUSH1 0x0 PUSH1 0x40 MLOAD DUP1 DUP4 SUB DUP2 DUP6 DUP8 GAS CALL SWAP3 POP POP POP RETURNDATASIZE DUP1 PUSH1 0x0 DUP2 EQ PUSH2 0x1017 JUMPI PUSH1 0x40 MLOAD SWAP2 POP PUSH1 0x1F NOT PUSH1 0x3F RETURNDATASIZE ADD AND DUP3 ADD PUSH1 0x40 MSTORE RETURNDATASIZE DUP3 MSTORE RETURNDATASIZE PUSH1 0x0 PUSH1 0x20 DUP5 ADD RETURNDATACOPY PUSH2 0x101C JUMP JUMPDEST PUSH1 0x60 SWAP2 POP JUMPDEST POP SWAP2 POP SWAP2 POP PUSH2 0x102C DUP3 DUP3 DUP7 PUSH2 0x105B JUMP JUMPDEST SWAP3 POP POP POP SWAP5 SWAP4 POP POP POP POP JUMP JUMPDEST PUSH1 0x0 DUP1 DUP3 PUSH20 0xFFFFFFFFFFFFFFFFFFFFFFFFFFFFFFFFFFFFFFFF AND EXTCODESIZE GT SWAP1 POP SWAP2 SWAP1 POP JUMP JUMPDEST PUSH1 0x60 DUP4 ISZERO PUSH2 0x106B JUMPI DUP3 SWAP1 POP PUSH2 0x10BB JUMP JUMPDEST PUSH1 0x0 DUP4 MLOAD GT ISZERO PUSH2 0x107E JUMPI DUP3 MLOAD DUP1 DUP5 PUSH1 0x20 ADD REVERT JUMPDEST DUP2 PUSH1 0x40 MLOAD PUSH32 0x8C379A000000000000000000000000000000000000000000000000000000000 DUP2 MSTORE PUSH1 0x4 ADD PUSH2 0x10B2 SWAP2 SWAP1 PUSH2 0x1ADA JUMP JUMPDEST PUSH1 0x40 MLOAD DUP1 SWAP2 SUB SWAP1 REVERT JUMPDEST SWAP4 SWAP3 POP POP POP JUMP JUMPDEST PUSH1 0x0 DUP1 REVERT JUMPDEST PUSH1 0x0 PUSH20 0xFFFFFFFFFFFFFFFFFFFFFFFFFFFFFFFFFFFFFFFF DUP3 AND SWAP1 POP SWAP2 SWAP1 POP JUMP JUMPDEST PUSH1 0x0 PUSH2 0x10F2 DUP3 PUSH2 0x10C7 JUMP JUMPDEST SWAP1 POP SWAP2 SWAP1 POP JUMP JUMPDEST PUSH2 0x1102 DUP2 PUSH2 0x10E7 JUMP JUMPDEST DUP2 EQ PUSH2 0x110D JUMPI PUSH1 0x0 DUP1 REVERT JUMPDEST POP JUMP JUMPDEST PUSH1 0x0 DUP2 CALLDATALOAD SWAP1 POP PUSH2 0x111F DUP2 PUSH2 0x10F9 JUMP JUMPDEST SWAP3 SWAP2 POP POP JUMP JUMPDEST PUSH1 0x0 PUSH1 0x20 DUP3 DUP5 SUB SLT ISZERO PUSH2 0x113B JUMPI PUSH2 0x113A PUSH2 0x10C2 JUMP JUMPDEST JUMPDEST PUSH1 0x0 PUSH2 0x1149 DUP5 DUP3 DUP6 ADD PUSH2 0x1110 JUMP JUMPDEST SWAP2 POP POP SWAP3 SWAP2 POP POP JUMP JUMPDEST PUSH1 0x0 DUP2 SWAP1 POP SWAP2 SWAP1 POP JUMP JUMPDEST PUSH2 0x1165 DUP2 PUSH2 0x1152 JUMP JUMPDEST DUP3 MSTORE POP POP JUMP JUMPDEST PUSH1 0x0 PUSH1 0x20 DUP3 ADD SWAP1 POP PUSH2 0x1180 PUSH1 0x0 DUP4 ADD DUP5 PUSH2 0x115C JUMP JUMPDEST SWAP3 SWAP2 POP POP JUMP JUMPDEST PUSH1 0x0 DUP1 PUSH1 0x40 DUP4 DUP6 SUB SLT ISZERO PUSH2 0x119D JUMPI PUSH2 0x119C PUSH2 0x10C2 JUMP JUMPDEST JUMPDEST PUSH1 0x0 PUSH2 0x11AB DUP6 DUP3 DUP7 ADD PUSH2 0x1110 JUMP JUMPDEST SWAP3 POP POP PUSH1 0x20 PUSH2 0x11BC DUP6 DUP3 DUP7 ADD PUSH2 0x1110 JUMP JUMPDEST SWAP2 POP POP SWAP3 POP SWAP3 SWAP1 POP JUMP JUMPDEST PUSH1 0x0 DUP2 SWAP1 POP SWAP2 SWAP1 POP JUMP JUMPDEST PUSH1 0x0 PUSH2 0x11EB PUSH2 0x11E6 PUSH2 0x11E1 DUP5 PUSH2 0x10C7 JUMP JUMPDEST PUSH2 0x11C6 JUMP JUMPDEST PUSH2 0x10C7 JUMP JUMPDEST SWAP1 POP SWAP2 SWAP1 POP JUMP JUMPDEST PUSH1 0x0 PUSH2 0x11FD DUP3 PUSH2 0x11D0 JUMP JUMPDEST SWAP1 POP SWAP2 SWAP1 POP JUMP JUMPDEST PUSH1 0x0 PUSH2 0x120F DUP3 PUSH2 0x11F2 JUMP JUMPDEST SWAP1 POP SWAP2 SWAP1 POP JUMP JUMPDEST PUSH2 0x121F DUP2 PUSH2 0x1204 JUMP JUMPDEST DUP3 MSTORE POP POP JUMP JUMPDEST PUSH1 0x0 PUSH1 0x20 DUP3 ADD SWAP1 POP PUSH2 0x123A PUSH1 0x0 DUP4 ADD DUP5 PUSH2 0x1216 JUMP JUMPDEST SWAP3 SWAP2 POP POP JUMP JUMPDEST PUSH2 0x1249 DUP2 PUSH2 0x10E7 JUMP JUMPDEST DUP3 MSTORE POP POP JUMP JUMPDEST PUSH1 0x0 PUSH1 0x20 DUP3 ADD SWAP1 POP PUSH2 0x1264 PUSH1 0x0 DUP4 ADD DUP5 PUSH2 0x1240 JUMP JUMPDEST SWAP3 SWAP2 POP POP JUMP JUMPDEST PUSH1 0x0 PUSH1 0x40 DUP3 ADD SWAP1 POP PUSH2 0x127F PUSH1 0x0 DUP4 ADD DUP6 PUSH2 0x115C JUMP JUMPDEST PUSH2 0x128C PUSH1 0x20 DUP4 ADD DUP5 PUSH2 0x115C JUMP JUMPDEST SWAP4 SWAP3 POP POP POP JUMP JUMPDEST PUSH2 0x129C DUP2 PUSH2 0x1152 JUMP JUMPDEST DUP2 EQ PUSH2 0x12A7 JUMPI PUSH1 0x0 DUP1 REVERT JUMPDEST POP JUMP JUMPDEST PUSH1 0x0 DUP2 MLOAD SWAP1 POP PUSH2 0x12B9 DUP2 PUSH2 0x1293 JUMP JUMPDEST SWAP3 SWAP2 POP POP JUMP JUMPDEST PUSH1 0x0 PUSH1 0x20 DUP3 DUP5 SUB SLT ISZERO PUSH2 0x12D5 JUMPI PUSH2 0x12D4 PUSH2 0x10C2 JUMP JUMPDEST JUMPDEST PUSH1 0x0 PUSH2 0x12E3 DUP5 DUP3 DUP6 ADD PUSH2 0x12AA JUMP JUMPDEST SWAP2 POP POP SWAP3 SWAP2 POP POP JUMP JUMPDEST PUSH32 0x4E487B7100000000000000000000000000000000000000000000000000000000 PUSH1 0x0 MSTORE PUSH1 0x11 PUSH1 0x4 MSTORE PUSH1 0x24 PUSH1 0x0 REVERT JUMPDEST PUSH1 0x0 PUSH2 0x1326 DUP3 PUSH2 0x1152 JUMP JUMPDEST SWAP2 POP PUSH2 0x1331 DUP4 PUSH2 0x1152 JUMP JUMPDEST SWAP3 POP DUP3 PUSH32 0xFFFFFFFFFFFFFFFFFFFFFFFFFFFFFFFFFFFFFFFFFFFFFFFFFFFFFFFFFFFFFFFF SUB DUP3 GT ISZERO PUSH2 0x1366 JUMPI PUSH2 0x1365 PUSH2 0x12EC JUMP JUMPDEST JUMPDEST DUP3 DUP3 ADD SWAP1 POP SWAP3 SWAP2 POP POP JUMP JUMPDEST PUSH1 0x0 PUSH2 0x137C DUP3 PUSH2 0x1152 JUMP JUMPDEST SWAP2 POP PUSH2 0x1387 DUP4 PUSH2 0x1152 JUMP JUMPDEST SWAP3 POP DUP2 PUSH32 0xFFFFFFFFFFFFFFFFFFFFFFFFFFFFFFFFFFFFFFFFFFFFFFFFFFFFFFFFFFFFFFFF DIV DUP4 GT DUP3 ISZERO ISZERO AND ISZERO PUSH2 0x13C0 JUMPI PUSH2 0x13BF PUSH2 0x12EC JUMP JUMPDEST JUMPDEST DUP3 DUP3 MUL SWAP1 POP SWAP3 SWAP2 POP POP JUMP JUMPDEST PUSH32 0x4E487B7100000000000000000000000000000000000000000000000000000000 PUSH1 0x0 MSTORE PUSH1 0x12 PUSH1 0x4 MSTORE PUSH1 0x24 PUSH1 0x0 REVERT JUMPDEST PUSH1 0x0 PUSH2 0x1405 DUP3 PUSH2 0x1152 JUMP JUMPDEST SWAP2 POP PUSH2 0x1410 DUP4 PUSH2 0x1152 JUMP JUMPDEST SWAP3 POP DUP3 PUSH2 0x1420 JUMPI PUSH2 0x141F PUSH2 0x13CB JUMP JUMPDEST JUMPDEST DUP3 DUP3 DIV SWAP1 POP SWAP3 SWAP2 POP POP JUMP JUMPDEST PUSH1 0x0 PUSH2 0x1436 DUP3 PUSH2 0x1152 JUMP JUMPDEST SWAP2 POP PUSH2 0x1441 DUP4 PUSH2 0x1152 JUMP JUMPDEST SWAP3 POP DUP3 DUP3 LT ISZERO PUSH2 0x1454 JUMPI PUSH2 0x1453 PUSH2 0x12EC JUMP JUMPDEST JUMPDEST DUP3 DUP3 SUB SWAP1 POP SWAP3 SWAP2 POP POP JUMP JUMPDEST PUSH1 0x0 DUP3 DUP3 MSTORE PUSH1 0x20 DUP3 ADD SWAP1 POP SWAP3 SWAP2 POP POP JUMP JUMPDEST PUSH32 0x4F776E61626C653A2063616C6C6572206973206E6F7420746865206F776E6572 PUSH1 0x0 DUP3 ADD MSTORE POP JUMP JUMPDEST PUSH1 0x0 PUSH2 0x14A6 PUSH1 0x20 DUP4 PUSH2 0x145F JUMP JUMPDEST SWAP2 POP PUSH2 0x14B1 DUP3 PUSH2 0x1470 JUMP JUMPDEST PUSH1 0x20 DUP3 ADD SWAP1 POP SWAP2 SWAP1 POP JUMP JUMPDEST PUSH1 0x0 PUSH1 0x20 DUP3 ADD SWAP1 POP DUP2 DUP2 SUB PUSH1 0x0 DUP4 ADD MSTORE PUSH2 0x14D5 DUP2 PUSH2 0x1499 JUMP JUMPDEST SWAP1 POP SWAP2 SWAP1 POP JUMP JUMPDEST PUSH32 0x4F776E65723A2043757272656E7420726563697069656E7420686173206E6F20 PUSH1 0x0 DUP3 ADD MSTORE PUSH32 0x7368617265730000000000000000000000000000000000000000000000000000 PUSH1 0x20 DUP3 ADD MSTORE POP JUMP JUMPDEST PUSH1 0x0 PUSH2 0x1538 PUSH1 0x26 DUP4 PUSH2 0x145F JUMP JUMPDEST SWAP2 POP PUSH2 0x1543 DUP3 PUSH2 0x14DC JUMP JUMPDEST PUSH1 0x40 DUP3 ADD SWAP1 POP SWAP2 SWAP1 POP JUMP JUMPDEST PUSH1 0x0 PUSH1 0x20 DUP3 ADD SWAP1 POP DUP2 DUP2 SUB PUSH1 0x0 DUP4 ADD MSTORE PUSH2 0x1567 DUP2 PUSH2 0x152B JUMP JUMPDEST SWAP1 POP SWAP2 SWAP1 POP JUMP JUMPDEST PUSH32 0x4F776E65723A204E657720726563697069656E7420686173206578697374696E PUSH1 0x0 DUP3 ADD MSTORE PUSH32 0x6720736861726573000000000000000000000000000000000000000000000000 PUSH1 0x20 DUP3 ADD MSTORE POP JUMP JUMPDEST PUSH1 0x0 PUSH2 0x15CA PUSH1 0x28 DUP4 PUSH2 0x145F JUMP JUMPDEST SWAP2 POP PUSH2 0x15D5 DUP3 PUSH2 0x156E JUMP JUMPDEST PUSH1 0x40 DUP3 ADD SWAP1 POP SWAP2 SWAP1 POP JUMP JUMPDEST PUSH1 0x0 PUSH1 0x20 DUP3 ADD SWAP1 POP DUP2 DUP2 SUB PUSH1 0x0 DUP4 ADD MSTORE PUSH2 0x15F9 DUP2 PUSH2 0x15BD JUMP JUMPDEST SWAP1 POP SWAP2 SWAP1 POP JUMP JUMPDEST PUSH32 0x5265656E7472616E637947756172643A207265656E7472616E742063616C6C00 PUSH1 0x0 DUP3 ADD MSTORE POP JUMP JUMPDEST PUSH1 0x0 PUSH2 0x1636 PUSH1 0x1F DUP4 PUSH2 0x145F JUMP JUMPDEST SWAP2 POP PUSH2 0x1641 DUP3 PUSH2 0x1600 JUMP JUMPDEST PUSH1 0x20 DUP3 ADD SWAP1 POP SWAP2 SWAP1 POP JUMP JUMPDEST PUSH1 0x0 PUSH1 0x20 DUP3 ADD SWAP1 POP DUP2 DUP2 SUB PUSH1 0x0 DUP4 ADD MSTORE PUSH2 0x1665 DUP2 PUSH2 0x1629 JUMP JUMPDEST SWAP1 POP SWAP2 SWAP1 POP JUMP JUMPDEST PUSH32 0x53706C69747465723A204163636F756E7420686173206E6F2073686172650000 PUSH1 0x0 DUP3 ADD MSTORE POP JUMP JUMPDEST PUSH1 0x0 PUSH2 0x16A2 PUSH1 0x1E DUP4 PUSH2 0x145F JUMP JUMPDEST SWAP2 POP PUSH2 0x16AD DUP3 PUSH2 0x166C JUMP JUMPDEST PUSH1 0x20 DUP3 ADD SWAP1 POP SWAP2 SWAP1 POP JUMP JUMPDEST PUSH1 0x0 PUSH1 0x20 DUP3 ADD SWAP1 POP DUP2 DUP2 SUB PUSH1 0x0 DUP4 ADD MSTORE PUSH2 0x16D1 DUP2 PUSH2 0x1695 JUMP JUMPDEST SWAP1 POP SWAP2 SWAP1 POP JUMP JUMPDEST PUSH32 0x53706C69747465723A204E6F7468696E6720746F207472616E73666572000000 PUSH1 0x0 DUP3 ADD MSTORE POP JUMP JUMPDEST PUSH1 0x0 PUSH2 0x170E PUSH1 0x1D DUP4 PUSH2 0x145F JUMP JUMPDEST SWAP2 POP PUSH2 0x1719 DUP3 PUSH2 0x16D8 JUMP JUMPDEST PUSH1 0x20 DUP3 ADD SWAP1 POP SWAP2 SWAP1 POP JUMP JUMPDEST PUSH1 0x0 PUSH1 0x20 DUP3 ADD SWAP1 POP DUP2 DUP2 SUB PUSH1 0x0 DUP4 ADD MSTORE PUSH2 0x173D DUP2 PUSH2 0x1701 JUMP JUMPDEST SWAP1 POP SWAP2 SWAP1 POP JUMP JUMPDEST PUSH32 0x4F776E61626C653A206E6577206F776E657220697320746865207A65726F2061 PUSH1 0x0 DUP3 ADD MSTORE PUSH32 0x6464726573730000000000000000000000000000000000000000000000000000 PUSH1 0x20 DUP3 ADD MSTORE POP JUMP JUMPDEST PUSH1 0x0 PUSH2 0x17A0 PUSH1 0x26 DUP4 PUSH2 0x145F JUMP JUMPDEST SWAP2 POP PUSH2 0x17AB DUP3 PUSH2 0x1744 JUMP JUMPDEST PUSH1 0x40 DUP3 ADD SWAP1 POP SWAP2 SWAP1 POP JUMP JUMPDEST PUSH1 0x0 PUSH1 0x20 DUP3 ADD SWAP1 POP DUP2 DUP2 SUB PUSH1 0x0 DUP4 ADD MSTORE PUSH2 0x17CF DUP2 PUSH2 0x1793 JUMP JUMPDEST SWAP1 POP SWAP2 SWAP1 POP JUMP JUMPDEST PUSH1 0x0 PUSH1 0x40 DUP3 ADD SWAP1 POP PUSH2 0x17EB PUSH1 0x0 DUP4 ADD DUP6 PUSH2 0x1240 JUMP JUMPDEST PUSH2 0x17F8 PUSH1 0x20 DUP4 ADD DUP5 PUSH2 0x115C JUMP JUMPDEST SWAP4 SWAP3 POP POP POP JUMP JUMPDEST PUSH1 0x0 DUP2 ISZERO ISZERO SWAP1 POP SWAP2 SWAP1 POP JUMP JUMPDEST PUSH2 0x1814 DUP2 PUSH2 0x17FF JUMP JUMPDEST DUP2 EQ PUSH2 0x181F JUMPI PUSH1 0x0 DUP1 REVERT JUMPDEST POP JUMP JUMPDEST PUSH1 0x0 DUP2 MLOAD SWAP1 POP PUSH2 0x1831 DUP2 PUSH2 0x180B JUMP JUMPDEST SWAP3 SWAP2 POP POP JUMP JUMPDEST PUSH1 0x0 PUSH1 0x20 DUP3 DUP5 SUB SLT ISZERO PUSH2 0x184D JUMPI PUSH2 0x184C PUSH2 0x10C2 JUMP JUMPDEST JUMPDEST PUSH1 0x0 PUSH2 0x185B DUP5 DUP3 DUP6 ADD PUSH2 0x1822 JUMP JUMPDEST SWAP2 POP POP SWAP3 SWAP2 POP POP JUMP JUMPDEST PUSH32 0x5361666545524332303A204552433230206F7065726174696F6E20646964206E PUSH1 0x0 DUP3 ADD MSTORE PUSH32 0x6F74207375636365656400000000000000000000000000000000000000000000 PUSH1 0x20 DUP3 ADD MSTORE POP JUMP JUMPDEST PUSH1 0x0 PUSH2 0x18C0 PUSH1 0x2A DUP4 PUSH2 0x145F JUMP JUMPDEST SWAP2 POP PUSH2 0x18CB DUP3 PUSH2 0x1864 JUMP JUMPDEST PUSH1 0x40 DUP3 ADD SWAP1 POP SWAP2 SWAP1 POP JUMP JUMPDEST PUSH1 0x0 PUSH1 0x20 DUP3 ADD SWAP1 POP DUP2 DUP2 SUB PUSH1 0x0 DUP4 ADD MSTORE PUSH2 0x18EF DUP2 PUSH2 0x18B3 JUMP JUMPDEST SWAP1 POP SWAP2 SWAP1 POP JUMP JUMPDEST PUSH32 0x416464726573733A20696E73756666696369656E742062616C616E636520666F PUSH1 0x0 DUP3 ADD MSTORE PUSH32 0x722063616C6C0000000000000000000000000000000000000000000000000000 PUSH1 0x20 DUP3 ADD MSTORE POP JUMP JUMPDEST PUSH1 0x0 PUSH2 0x1952 PUSH1 0x26 DUP4 PUSH2 0x145F JUMP JUMPDEST SWAP2 POP PUSH2 0x195D DUP3 PUSH2 0x18F6 JUMP JUMPDEST PUSH1 0x40 DUP3 ADD SWAP1 POP SWAP2 SWAP1 POP JUMP JUMPDEST PUSH1 0x0 PUSH1 0x20 DUP3 ADD SWAP1 POP DUP2 DUP2 SUB PUSH1 0x0 DUP4 ADD MSTORE PUSH2 0x1981 DUP2 PUSH2 0x1945 JUMP JUMPDEST SWAP1 POP SWAP2 SWAP1 POP JUMP JUMPDEST PUSH32 0x416464726573733A2063616C6C20746F206E6F6E2D636F6E7472616374000000 PUSH1 0x0 DUP3 ADD MSTORE POP JUMP JUMPDEST PUSH1 0x0 PUSH2 0x19BE PUSH1 0x1D DUP4 PUSH2 0x145F JUMP JUMPDEST SWAP2 POP PUSH2 0x19C9 DUP3 PUSH2 0x1988 JUMP JUMPDEST PUSH1 0x20 DUP3 ADD SWAP1 POP SWAP2 SWAP1 POP JUMP JUMPDEST PUSH1 0x0 PUSH1 0x20 DUP3 ADD SWAP1 POP DUP2 DUP2 SUB PUSH1 0x0 DUP4 ADD MSTORE PUSH2 0x19ED DUP2 PUSH2 0x19B1 JUMP JUMPDEST SWAP1 POP SWAP2 SWAP1 POP JUMP JUMPDEST PUSH1 0x0 DUP2 MLOAD SWAP1 POP SWAP2 SWAP1 POP JUMP JUMPDEST PUSH1 0x0 DUP2 SWAP1 POP SWAP3 SWAP2 POP POP JUMP JUMPDEST PUSH1 0x0 JUMPDEST DUP4 DUP2 LT ISZERO PUSH2 0x1A28 JUMPI DUP1 DUP3 ADD MLOAD DUP2 DUP5 ADD MSTORE PUSH1 0x20 DUP2 ADD SWAP1 POP PUSH2 0x1A0D JUMP JUMPDEST DUP4 DUP2 GT ISZERO PUSH2 0x1A37 JUMPI PUSH1 0x0 DUP5 DUP5 ADD MSTORE JUMPDEST POP POP POP POP JUMP JUMPDEST PUSH1 0x0 PUSH2 0x1A48 DUP3 PUSH2 0x19F4 JUMP JUMPDEST PUSH2 0x1A52 DUP2 DUP6 PUSH2 0x19FF JUMP JUMPDEST SWAP4 POP PUSH2 0x1A62 DUP2 DUP6 PUSH1 0x20 DUP7 ADD PUSH2 0x1A0A JUMP JUMPDEST DUP1 DUP5 ADD SWAP2 POP POP SWAP3 SWAP2 POP POP JUMP JUMPDEST PUSH1 0x0 PUSH2 0x1A7A DUP3 DUP5 PUSH2 0x1A3D JUMP JUMPDEST SWAP2 POP DUP2 SWAP1 POP SWAP3 SWAP2 POP POP JUMP JUMPDEST PUSH1 0x0 DUP2 MLOAD SWAP1 POP SWAP2 SWAP1 POP JUMP JUMPDEST PUSH1 0x0 PUSH1 0x1F NOT PUSH1 0x1F DUP4 ADD AND SWAP1 POP SWAP2 SWAP1 POP JUMP JUMPDEST PUSH1 0x0 PUSH2 0x1AAC DUP3 PUSH2 0x1A85 JUMP JUMPDEST PUSH2 0x1AB6 DUP2 DUP6 PUSH2 0x145F JUMP JUMPDEST SWAP4 POP PUSH2 0x1AC6 DUP2 DUP6 PUSH1 0x20 DUP7 ADD PUSH2 0x1A0A JUMP JUMPDEST PUSH2 0x1ACF DUP2 PUSH2 0x1A90 JUMP JUMPDEST DUP5 ADD SWAP2 POP POP SWAP3 SWAP2 POP POP JUMP JUMPDEST PUSH1 0x0 PUSH1 0x20 DUP3 ADD SWAP1 POP DUP2 DUP2 SUB PUSH1 0x0 DUP4 ADD MSTORE PUSH2 0x1AF4 DUP2 DUP5 PUSH2 0x1AA1 JUMP JUMPDEST SWAP1 POP SWAP3 SWAP2 POP POP JUMP INVALID LOG2 PUSH5 0x6970667358 0x22 SLT KECCAK256 0x4C 0xF6 BLOCKHASH EXP JUMPI 0xDC 0x23 0x29 MULMOD SWAP1 DUP12 0xD7 SWAP8 MLOAD 0xDE DUP9 GASPRICE 0xB2 SLOAD BYTE 0xDB SWAP13 JUMP 0xE4 0xEC 0xB5 BASEFEE COINBASE 0x5F 0x4A 0xD0 0xBA PUSH5 0x736F6C6343 STOP ADDMOD SIGNEXTEND STOP CALLER "
				},
				"gasEstimates": {
					"creation": {
						"codeDepositCost": "1392400",
						"executionCost": "infinite",
						"totalCost": "infinite"
					},
					"external": {
						"TOTAL_SHARES()": "infinite",
						"accountInfo(address)": "infinite",
						"calculatePendingRewards(address)": "infinite",
						"owner()": "2544",
						"releaseTokens(address)": "infinite",
						"renounceOwnership()": "30441",
						"testToken()": "infinite",
						"totalTokensDistributed()": "2495",
						"transferOwnership(address)": "30811",
						"updateSharesOwner(address,address)": "infinite"
					}
				},
				"methodIdentifiers": {
					"TOTAL_SHARES()": "85e3f997",
					"accountInfo(address)": "a7310b58",
					"calculatePendingRewards(address)": "097aad10",
					"owner()": "8da5cb5b",
					"releaseTokens(address)": "87b0be48",
					"renounceOwnership()": "715018a6",
					"testToken()": "6895179d",
					"totalTokensDistributed()": "d8f163ab",
					"transferOwnership(address)": "f2fde38b",
					"updateSharesOwner(address,address)": "19281afd"
				}
			},
			"storageLayout": {
				"storage": [
					{
						"astId": 7,
						"contract": "contracts/LooksRare/TokenSplitter.sol:TokenSplitter",
						"label": "_owner",
						"offset": 0,
						"slot": "0",
						"type": "t_address"
					},
					{
						"astId": 115,
						"contract": "contracts/LooksRare/TokenSplitter.sol:TokenSplitter",
						"label": "_status",
						"offset": 0,
						"slot": "1",
						"type": "t_uint256"
					},
					{
						"astId": 793,
						"contract": "contracts/LooksRare/TokenSplitter.sol:TokenSplitter",
						"label": "totalTokensDistributed",
						"offset": 0,
						"slot": "2",
						"type": "t_uint256"
					},
					{
						"astId": 798,
						"contract": "contracts/LooksRare/TokenSplitter.sol:TokenSplitter",
						"label": "accountInfo",
						"offset": 0,
						"slot": "3",
						"type": "t_mapping(t_address,t_struct(AccountInfo)786_storage)"
					}
				],
				"types": {
					"t_address": {
						"encoding": "inplace",
						"label": "address",
						"numberOfBytes": "20"
					},
					"t_mapping(t_address,t_struct(AccountInfo)786_storage)": {
						"encoding": "mapping",
						"key": "t_address",
						"label": "mapping(address => struct TokenSplitter.AccountInfo)",
						"numberOfBytes": "32",
						"value": "t_struct(AccountInfo)786_storage"
					},
					"t_struct(AccountInfo)786_storage": {
						"encoding": "inplace",
						"label": "struct TokenSplitter.AccountInfo",
						"members": [
							{
								"astId": 783,
								"contract": "contracts/LooksRare/TokenSplitter.sol:TokenSplitter",
								"label": "shares",
								"offset": 0,
								"slot": "0",
								"type": "t_uint256"
							},
							{
								"astId": 785,
								"contract": "contracts/LooksRare/TokenSplitter.sol:TokenSplitter",
								"label": "tokensDistributedToAccount",
								"offset": 0,
								"slot": "1",
								"type": "t_uint256"
							}
						],
						"numberOfBytes": "64"
					},
					"t_uint256": {
						"encoding": "inplace",
						"label": "uint256",
						"numberOfBytes": "32"
					}
				}
			},
			"userdoc": {
				"kind": "user",
				"methods": {
					"calculatePendingRewards(address)": {
						"notice": "Retrieve amount of LOOKS tokens that can be transferred"
					},
					"constructor": {
						"notice": "Constructor"
					},
					"releaseTokens(address)": {
						"notice": "Release LOOKS tokens to the account"
					},
					"updateSharesOwner(address,address)": {
						"notice": "Update share recipient"
					}
				},
				"notice": "It splits LOOKS to team/treasury/trading volume reward accounts based on shares.",
				"version": 1
			}
		}
	}
}