{
	"contracts/TokenDistributor.sol": {
		"TokenDistributor": {
			"abi": [
				{
					"inputs": [
						{
							"internalType": "address",
							"name": "_looksRareToken",
							"type": "address"
						},
						{
							"internalType": "address",
							"name": "_tokenSplitter",
							"type": "address"
						},
						{
							"internalType": "uint256",
							"name": "_startBlock",
							"type": "uint256"
						},
						{
							"internalType": "uint256[]",
							"name": "_rewardsPerBlockForStaking",
							"type": "uint256[]"
						},
						{
							"internalType": "uint256[]",
							"name": "_rewardsPerBlockForOthers",
							"type": "uint256[]"
						},
						{
							"internalType": "uint256[]",
							"name": "_periodLengthesInBlocks",
							"type": "uint256[]"
						},
						{
							"internalType": "uint256",
							"name": "_numberPeriods",
							"type": "uint256"
						}
					],
					"stateMutability": "nonpayable",
					"type": "constructor"
				},
				{
					"anonymous": false,
					"inputs": [
						{
							"indexed": true,
							"internalType": "address",
							"name": "user",
							"type": "address"
						},
						{
							"indexed": false,
							"internalType": "uint256",
							"name": "harvestedAmount",
							"type": "uint256"
						}
					],
					"name": "Compound",
					"type": "event"
				},
				{
					"anonymous": false,
					"inputs": [
						{
							"indexed": true,
							"internalType": "address",
							"name": "user",
							"type": "address"
						},
						{
							"indexed": false,
							"internalType": "uint256",
							"name": "amount",
							"type": "uint256"
						},
						{
							"indexed": false,
							"internalType": "uint256",
							"name": "harvestedAmount",
							"type": "uint256"
						}
					],
					"name": "Deposit",
					"type": "event"
				},
				{
					"anonymous": false,
					"inputs": [
						{
							"indexed": true,
							"internalType": "uint256",
							"name": "currentPhase",
							"type": "uint256"
						},
						{
							"indexed": false,
							"internalType": "uint256",
							"name": "startBlock",
							"type": "uint256"
						},
						{
							"indexed": false,
							"internalType": "uint256",
							"name": "rewardPerBlockForStaking",
							"type": "uint256"
						},
						{
							"indexed": false,
							"internalType": "uint256",
							"name": "rewardPerBlockForOthers",
							"type": "uint256"
						}
					],
					"name": "NewRewardsPerBlock",
					"type": "event"
				},
				{
					"anonymous": false,
					"inputs": [
						{
							"indexed": true,
							"internalType": "address",
							"name": "user",
							"type": "address"
						},
						{
							"indexed": false,
							"internalType": "uint256",
							"name": "amount",
							"type": "uint256"
						},
						{
							"indexed": false,
							"internalType": "uint256",
							"name": "harvestedAmount",
							"type": "uint256"
						}
					],
					"name": "Withdraw",
					"type": "event"
				},
				{
					"inputs": [],
					"name": "NUMBER_PERIODS",
					"outputs": [
						{
							"internalType": "uint256",
							"name": "",
							"type": "uint256"
						}
					],
					"stateMutability": "view",
					"type": "function"
				},
				{
					"inputs": [],
					"name": "PRECISION_FACTOR",
					"outputs": [
						{
							"internalType": "uint256",
							"name": "",
							"type": "uint256"
						}
					],
					"stateMutability": "view",
					"type": "function"
				},
				{
					"inputs": [],
					"name": "START_BLOCK",
					"outputs": [
						{
							"internalType": "uint256",
							"name": "",
							"type": "uint256"
						}
					],
					"stateMutability": "view",
					"type": "function"
				},
				{
					"inputs": [],
					"name": "accTokenPerShare",
					"outputs": [
						{
							"internalType": "uint256",
							"name": "",
							"type": "uint256"
						}
					],
					"stateMutability": "view",
					"type": "function"
				},
				{
					"inputs": [
						{
							"internalType": "address",
							"name": "user",
							"type": "address"
						}
					],
					"name": "calculatePendingRewards",
					"outputs": [
						{
							"internalType": "uint256",
							"name": "",
							"type": "uint256"
						}
					],
					"stateMutability": "view",
					"type": "function"
				},
				{
					"inputs": [],
					"name": "currentPhase",
					"outputs": [
						{
							"internalType": "uint256",
							"name": "",
							"type": "uint256"
						}
					],
					"stateMutability": "view",
					"type": "function"
				},
				{
					"inputs": [
						{
							"internalType": "uint256",
							"name": "amount",
							"type": "uint256"
						}
					],
					"name": "deposit",
					"outputs": [],
					"stateMutability": "nonpayable",
					"type": "function"
				},
				{
					"inputs": [],
					"name": "endBlock",
					"outputs": [
						{
							"internalType": "uint256",
							"name": "",
							"type": "uint256"
						}
					],
					"stateMutability": "view",
					"type": "function"
				},
				{
					"inputs": [],
					"name": "harvestAndCompound",
					"outputs": [],
					"stateMutability": "nonpayable",
					"type": "function"
				},
				{
					"inputs": [],
					"name": "lastRewardBlock",
					"outputs": [
						{
							"internalType": "uint256",
							"name": "",
							"type": "uint256"
						}
					],
					"stateMutability": "view",
					"type": "function"
				},
				{
					"inputs": [],
					"name": "looksRareToken",
					"outputs": [
						{
							"internalType": "contract ITestToken",
							"name": "",
							"type": "address"
						}
					],
					"stateMutability": "view",
					"type": "function"
				},
				{
					"inputs": [],
					"name": "rewardPerBlockForOthers",
					"outputs": [
						{
							"internalType": "uint256",
							"name": "",
							"type": "uint256"
						}
					],
					"stateMutability": "view",
					"type": "function"
				},
				{
					"inputs": [],
					"name": "rewardPerBlockForStaking",
					"outputs": [
						{
							"internalType": "uint256",
							"name": "",
							"type": "uint256"
						}
					],
					"stateMutability": "view",
					"type": "function"
				},
				{
					"inputs": [
						{
							"internalType": "uint256",
							"name": "",
							"type": "uint256"
						}
					],
					"name": "stakingPeriod",
					"outputs": [
						{
							"internalType": "uint256",
							"name": "rewardPerBlockForStaking",
							"type": "uint256"
						},
						{
							"internalType": "uint256",
							"name": "rewardPerBlockForOthers",
							"type": "uint256"
						},
						{
							"internalType": "uint256",
							"name": "periodLengthInBlock",
							"type": "uint256"
						}
					],
					"stateMutability": "view",
					"type": "function"
				},
				{
					"inputs": [],
					"name": "tokenSplitter",
					"outputs": [
						{
							"internalType": "address",
							"name": "",
							"type": "address"
						}
					],
					"stateMutability": "view",
					"type": "function"
				},
				{
					"inputs": [],
					"name": "totalAmountStaked",
					"outputs": [
						{
							"internalType": "uint256",
							"name": "",
							"type": "uint256"
						}
					],
					"stateMutability": "view",
					"type": "function"
				},
				{
					"inputs": [],
					"name": "updatePool",
					"outputs": [],
					"stateMutability": "nonpayable",
					"type": "function"
				},
				{
					"inputs": [
						{
							"internalType": "address",
							"name": "",
							"type": "address"
						}
					],
					"name": "userInfo",
					"outputs": [
						{
							"internalType": "uint256",
							"name": "amount",
							"type": "uint256"
						},
						{
							"internalType": "uint256",
							"name": "rewardDebt",
							"type": "uint256"
						}
					],
					"stateMutability": "view",
					"type": "function"
				},
				{
					"inputs": [
						{
							"internalType": "uint256",
							"name": "amount",
							"type": "uint256"
						}
					],
					"name": "withdraw",
					"outputs": [],
					"stateMutability": "nonpayable",
					"type": "function"
				},
				{
					"inputs": [],
					"name": "withdrawAll",
					"outputs": [],
					"stateMutability": "nonpayable",
					"type": "function"
				}
			],
			"devdoc": {
				"kind": "dev",
				"methods": {
					"calculatePendingRewards(address)": {
						"params": {
							"user": "address of the user"
						},
						"returns": {
							"_0": "Pending rewards"
						}
					},
					"constructor": {
						"params": {
							"_looksRareToken": "LOOKS token address",
							"_numberPeriods": "number of periods with different rewards/lengthes (e.g., if 3 changes --> 4 periods)",
							"_periodLengthesInBlocks": "array of period lengthes",
							"_rewardsPerBlockForOthers": "array of rewards per block for other purposes (team + treasury + trading rewards)",
							"_rewardsPerBlockForStaking": "array of rewards per block for staking",
							"_startBlock": "start block for reward program",
							"_tokenSplitter": "token splitter contract address (for team and trading rewards)"
						}
					},
					"deposit(uint256)": {
						"params": {
							"amount": "amount to deposit (in LOOKS)"
						}
					},
					"withdraw(uint256)": {
						"params": {
							"amount": "amount to withdraw"
						}
					}
				},
				"title": "TokenDistributor",
				"version": 1
			},
			"evm": {
				"assembly": "    /* \"contracts/TokenDistributor.sol\":422:14968  contract TokenDistributor is ReentrancyGuard {\r... */\n  mstore(0x40, 0x0100)\n    /* \"contracts/TokenDistributor.sol\":2998:4997  constructor(\r... */\n  callvalue\n  dup1\n  iszero\n  tag_1\n  jumpi\n  0x00\n  dup1\n  revert\ntag_1:\n  pop\n  mload(0x40)\n  sub(codesize, bytecodeSize)\n  dup1\n  bytecodeSize\n  dup4\n  codecopy\n  dup2\n  dup2\n  add\n  0x40\n  mstore\n  dup2\n  add\n  swap1\n  tag_2\n  swap2\n  swap1\n  tag_3\n  jump\t// in\ntag_2:\n    /* \"@openzeppelin/contracts/security/ReentrancyGuard.sol\":1701:1702  1 */\n  0x01\n    /* \"@openzeppelin/contracts/security/ReentrancyGuard.sol\":1806:1813  _status */\n  0x00\n    /* \"@openzeppelin/contracts/security/ReentrancyGuard.sol\":1806:1828  _status = _NOT_ENTERED */\n  dup2\n  swap1\n  sstore\n  pop\n    /* \"contracts/TokenDistributor.sol\":3373:3387  _numberPeriods */\n  dup1\n    /* \"contracts/TokenDistributor.sol\":3339:3362  _periodLengthesInBlocks */\n  dup3\n    /* \"contracts/TokenDistributor.sol\":3339:3369  _periodLengthesInBlocks.length */\n  mload\n    /* \"contracts/TokenDistributor.sol\":3339:3387  _periodLengthesInBlocks.length == _numberPeriods */\n  eq\n    /* \"contracts/TokenDistributor.sol\":3338:3462  (_periodLengthesInBlocks.length == _numberPeriods) &&\r... */\n  dup1\n  iszero\n  tag_8\n  jumpi\n  pop\n    /* \"contracts/TokenDistributor.sol\":3447:3461  _numberPeriods */\n  dup1\n    /* \"contracts/TokenDistributor.sol\":3410:3436  _rewardsPerBlockForStaking */\n  dup5\n    /* \"contracts/TokenDistributor.sol\":3410:3443  _rewardsPerBlockForStaking.length */\n  mload\n    /* \"contracts/TokenDistributor.sol\":3410:3461  _rewardsPerBlockForStaking.length == _numberPeriods */\n  eq\n    /* \"contracts/TokenDistributor.sol\":3338:3462  (_periodLengthesInBlocks.length == _numberPeriods) &&\r... */\ntag_8:\n    /* \"contracts/TokenDistributor.sol\":3338:3536  (_periodLengthesInBlocks.length == _numberPeriods) &&\r... */\n  dup1\n  iszero\n  tag_9\n  jumpi\n  pop\n    /* \"contracts/TokenDistributor.sol\":3521:3535  _numberPeriods */\n  dup1\n    /* \"contracts/TokenDistributor.sol\":3484:3510  _rewardsPerBlockForStaking */\n  dup5\n    /* \"contracts/TokenDistributor.sol\":3484:3517  _rewardsPerBlockForStaking.length */\n  mload\n    /* \"contracts/TokenDistributor.sol\":3484:3535  _rewardsPerBlockForStaking.length == _numberPeriods */\n  eq\n    /* \"contracts/TokenDistributor.sol\":3338:3536  (_periodLengthesInBlocks.length == _numberPeriods) &&\r... */\ntag_9:\n    /* \"contracts/TokenDistributor.sol\":3316:3610  require(\r... */\n  tag_10\n  jumpi\n  mload(0x40)\n  0x08c379a000000000000000000000000000000000000000000000000000000000\n  dup2\n  mstore\n  0x04\n  add\n  tag_11\n  swap1\n  tag_12\n  jump\t// in\ntag_11:\n  mload(0x40)\n  dup1\n  swap2\n  sub\n  swap1\n  revert\ntag_10:\n    /* \"contracts/TokenDistributor.sol\":3668:3696  uint256 nonCirculatingSupply */\n  0x00\n    /* \"contracts/TokenDistributor.sol\":3766:3781  _looksRareToken */\n  dup8\n    /* \"contracts/TokenDistributor.sol\":3755:3794  ITestToken(_looksRareToken).totalSupply */\n  0xffffffffffffffffffffffffffffffffffffffff\n  and\n  0x18160ddd\n    /* \"contracts/TokenDistributor.sol\":3755:3796  ITestToken(_looksRareToken).totalSupply() */\n  mload(0x40)\n  dup2\n  0xffffffff\n  and\n  0xe0\n  shl\n  dup2\n  mstore\n  0x04\n  add\n  0x20\n  mload(0x40)\n  dup1\n  dup4\n  sub\n  dup2\n  dup7\n  dup1\n  extcodesize\n  iszero\n  dup1\n  iszero\n  tag_13\n  jumpi\n  0x00\n  dup1\n  revert\ntag_13:\n  pop\n  gas\n  staticcall\n  iszero\n  dup1\n  iszero\n  tag_15\n  jumpi\n  returndatasize\n  0x00\n  dup1\n  returndatacopy\n  revert(0x00, returndatasize)\ntag_15:\n  pop\n  pop\n  pop\n  pop\n  mload(0x40)\n  returndatasize\n  not(0x1f)\n  0x1f\n  dup3\n  add\n  and\n  dup3\n  add\n  dup1\n  0x40\n  mstore\n  pop\n  dup2\n  add\n  swap1\n  tag_16\n  swap2\n  swap1\n  tag_17\n  jump\t// in\ntag_16:\n    /* \"contracts/TokenDistributor.sol\":3710:3725  _looksRareToken */\n  dup9\n    /* \"contracts/TokenDistributor.sol\":3699:3737  ITestToken(_looksRareToken).SUPPLY_CAP */\n  0xffffffffffffffffffffffffffffffffffffffff\n  and\n  0x0cfccc83\n    /* \"contracts/TokenDistributor.sol\":3699:3739  ITestToken(_looksRareToken).SUPPLY_CAP() */\n  mload(0x40)\n  dup2\n  0xffffffff\n  and\n  0xe0\n  shl\n  dup2\n  mstore\n  0x04\n  add\n  0x20\n  mload(0x40)\n  dup1\n  dup4\n  sub\n  dup2\n  dup7\n  dup1\n  extcodesize\n  iszero\n  dup1\n  iszero\n  tag_18\n  jumpi\n  0x00\n  dup1\n  revert\ntag_18:\n  pop\n  gas\n  staticcall\n  iszero\n  dup1\n  iszero\n  tag_20\n  jumpi\n  returndatasize\n  0x00\n  dup1\n  returndatacopy\n  revert(0x00, returndatasize)\ntag_20:\n  pop\n  pop\n  pop\n  pop\n  mload(0x40)\n  returndatasize\n  not(0x1f)\n  0x1f\n  dup3\n  add\n  and\n  dup3\n  add\n  dup1\n  0x40\n  mstore\n  pop\n  dup2\n  add\n  swap1\n  tag_21\n  swap2\n  swap1\n  tag_17\n  jump\t// in\ntag_21:\n    /* \"contracts/TokenDistributor.sol\":3699:3796  ITestToken(_looksRareToken).SUPPLY_CAP() -\r... */\n  tag_22\n  swap2\n  swap1\n  tag_23\n  jump\t// in\ntag_22:\n    /* \"contracts/TokenDistributor.sol\":3668:3796  uint256 nonCirculatingSupply = ITestToken(_looksRareToken).SUPPLY_CAP() -\r... */\n  swap1\n  pop\n    /* \"contracts/TokenDistributor.sol\":3809:3839  uint256 amountTokensToBeMinted */\n  0x00\n    /* \"contracts/TokenDistributor.sol\":3857:3866  uint256 i */\n  dup1\n    /* \"contracts/TokenDistributor.sol\":3869:3870  0 */\n  0x00\n    /* \"contracts/TokenDistributor.sol\":3857:3870  uint256 i = 0 */\n  swap1\n  pop\n    /* \"contracts/TokenDistributor.sol\":3852:4384  for (uint256 i = 0; i < _numberPeriods; i++) {\r... */\ntag_24:\n    /* \"contracts/TokenDistributor.sol\":3876:3890  _numberPeriods */\n  dup4\n    /* \"contracts/TokenDistributor.sol\":3872:3873  i */\n  dup2\n    /* \"contracts/TokenDistributor.sol\":3872:3890  i < _numberPeriods */\n  lt\n    /* \"contracts/TokenDistributor.sol\":3852:4384  for (uint256 i = 0; i < _numberPeriods; i++) {\r... */\n  iszero\n  tag_25\n  jumpi\n    /* \"contracts/TokenDistributor.sol\":4067:4090  _periodLengthesInBlocks */\n  dup5\n    /* \"contracts/TokenDistributor.sol\":4091:4092  i */\n  dup2\n    /* \"contracts/TokenDistributor.sol\":4067:4093  _periodLengthesInBlocks[i] */\n  dup2\n  mload\n  dup2\n  lt\n  tag_27\n  jumpi\n  tag_28\n  tag_29\n  jump\t// in\ntag_28:\ntag_27:\n  0x20\n  mul\n  0x20\n  add\n  add\n  mload\n    /* \"contracts/TokenDistributor.sol\":4036:4061  _rewardsPerBlockForOthers */\n  dup7\n    /* \"contracts/TokenDistributor.sol\":4062:4063  i */\n  dup3\n    /* \"contracts/TokenDistributor.sol\":4036:4064  _rewardsPerBlockForOthers[i] */\n  dup2\n  mload\n  dup2\n  lt\n  tag_30\n  jumpi\n  tag_31\n  tag_29\n  jump\t// in\ntag_31:\ntag_30:\n  0x20\n  mul\n  0x20\n  add\n  add\n  mload\n    /* \"contracts/TokenDistributor.sol\":4036:4093  _rewardsPerBlockForOthers[i] * _periodLengthesInBlocks[i] */\n  tag_32\n  swap2\n  swap1\n  tag_33\n  jump\t// in\ntag_32:\n    /* \"contracts/TokenDistributor.sol\":3988:4011  _periodLengthesInBlocks */\n  dup6\n    /* \"contracts/TokenDistributor.sol\":4012:4013  i */\n  dup3\n    /* \"contracts/TokenDistributor.sol\":3988:4014  _periodLengthesInBlocks[i] */\n  dup2\n  mload\n  dup2\n  lt\n  tag_34\n  jumpi\n  tag_35\n  tag_29\n  jump\t// in\ntag_35:\ntag_34:\n  0x20\n  mul\n  0x20\n  add\n  add\n  mload\n    /* \"contracts/TokenDistributor.sol\":3956:3982  _rewardsPerBlockForStaking */\n  dup9\n    /* \"contracts/TokenDistributor.sol\":3983:3984  i */\n  dup4\n    /* \"contracts/TokenDistributor.sol\":3956:3985  _rewardsPerBlockForStaking[i] */\n  dup2\n  mload\n  dup2\n  lt\n  tag_36\n  jumpi\n  tag_37\n  tag_29\n  jump\t// in\ntag_37:\ntag_36:\n  0x20\n  mul\n  0x20\n  add\n  add\n  mload\n    /* \"contracts/TokenDistributor.sol\":3956:4014  _rewardsPerBlockForStaking[i] * _periodLengthesInBlocks[i] */\n  tag_38\n  swap2\n  swap1\n  tag_33\n  jump\t// in\ntag_38:\n    /* \"contracts/TokenDistributor.sol\":3955:4094  (_rewardsPerBlockForStaking[i] * _periodLengthesInBlocks[i]) +\r... */\n  tag_39\n  swap2\n  swap1\n  tag_40\n  jump\t// in\ntag_39:\n    /* \"contracts/TokenDistributor.sol\":3912:4094  amountTokensToBeMinted +=\r... */\n  dup3\n  tag_41\n  swap2\n  swap1\n  tag_40\n  jump\t// in\ntag_41:\n  swap2\n  pop\n    /* \"contracts/TokenDistributor.sol\":4130:4372  StakingPeriod({\r... */\n  mload(0x40)\n  dup1\n  0x60\n  add\n  0x40\n  mstore\n  dup1\n    /* \"contracts/TokenDistributor.sol\":4189:4215  _rewardsPerBlockForStaking */\n  dup9\n    /* \"contracts/TokenDistributor.sol\":4216:4217  i */\n  dup4\n    /* \"contracts/TokenDistributor.sol\":4189:4218  _rewardsPerBlockForStaking[i] */\n  dup2\n  mload\n  dup2\n  lt\n  tag_42\n  jumpi\n  tag_43\n  tag_29\n  jump\t// in\ntag_43:\ntag_42:\n  0x20\n  mul\n  0x20\n  add\n  add\n  mload\n    /* \"contracts/TokenDistributor.sol\":4130:4372  StakingPeriod({\r... */\n  dup2\n  mstore\n  0x20\n  add\n    /* \"contracts/TokenDistributor.sol\":4262:4287  _rewardsPerBlockForOthers */\n  dup8\n    /* \"contracts/TokenDistributor.sol\":4288:4289  i */\n  dup4\n    /* \"contracts/TokenDistributor.sol\":4262:4290  _rewardsPerBlockForOthers[i] */\n  dup2\n  mload\n  dup2\n  lt\n  tag_44\n  jumpi\n  tag_45\n  tag_29\n  jump\t// in\ntag_45:\ntag_44:\n  0x20\n  mul\n  0x20\n  add\n  add\n  mload\n    /* \"contracts/TokenDistributor.sol\":4130:4372  StakingPeriod({\r... */\n  dup2\n  mstore\n  0x20\n  add\n    /* \"contracts/TokenDistributor.sol\":4330:4353  _periodLengthesInBlocks */\n  dup7\n    /* \"contracts/TokenDistributor.sol\":4354:4355  i */\n  dup4\n    /* \"contracts/TokenDistributor.sol\":4330:4356  _periodLengthesInBlocks[i] */\n  dup2\n  mload\n  dup2\n  lt\n  tag_46\n  jumpi\n  tag_47\n  tag_29\n  jump\t// in\ntag_47:\ntag_46:\n  0x20\n  mul\n  0x20\n  add\n  add\n  mload\n    /* \"contracts/TokenDistributor.sol\":4130:4372  StakingPeriod({\r... */\n  dup2\n  mstore\n  pop\n    /* \"contracts/TokenDistributor.sol\":4111:4124  stakingPeriod */\n  0x08\n    /* \"contracts/TokenDistributor.sol\":4111:4127  stakingPeriod[i] */\n  0x00\n    /* \"contracts/TokenDistributor.sol\":4125:4126  i */\n  dup4\n    /* \"contracts/TokenDistributor.sol\":4111:4127  stakingPeriod[i] */\n  dup2\n  mstore\n  0x20\n  add\n  swap1\n  dup2\n  mstore\n  0x20\n  add\n  0x00\n  keccak256\n    /* \"contracts/TokenDistributor.sol\":4111:4372  stakingPeriod[i] = StakingPeriod({\r... */\n  0x00\n  dup3\n  add\n  mload\n  dup2\n  0x00\n  add\n  sstore\n  0x20\n  dup3\n  add\n  mload\n  dup2\n  0x01\n  add\n  sstore\n  0x40\n  dup3\n  add\n  mload\n  dup2\n  0x02\n  add\n  sstore\n  swap1\n  pop\n  pop\n    /* \"contracts/TokenDistributor.sol\":3892:3895  i++ */\n  dup1\n  dup1\n  tag_48\n  swap1\n  tag_49\n  jump\t// in\ntag_48:\n  swap2\n  pop\n  pop\n    /* \"contracts/TokenDistributor.sol\":3852:4384  for (uint256 i = 0; i < _numberPeriods; i++) {\r... */\n  jump(tag_24)\ntag_25:\n  pop\n    /* \"contracts/TokenDistributor.sol\":4430:4450  nonCirculatingSupply */\n  dup2\n    /* \"contracts/TokenDistributor.sol\":4404:4426  amountTokensToBeMinted */\n  dup2\n    /* \"contracts/TokenDistributor.sol\":4404:4450  amountTokensToBeMinted == nonCirculatingSupply */\n  eq\n    /* \"contracts/TokenDistributor.sol\":4396:4491  require(amountTokensToBeMinted == nonCirculatingSupply, \"Distributor: Wrong reward parameters\") */\n  tag_50\n  jumpi\n  mload(0x40)\n  0x08c379a000000000000000000000000000000000000000000000000000000000\n  dup2\n  mstore\n  0x04\n  add\n  tag_51\n  swap1\n  tag_52\n  jump\t// in\ntag_51:\n  mload(0x40)\n  dup1\n  swap2\n  sub\n  swap1\n  revert\ntag_50:\n    /* \"contracts/TokenDistributor.sol\":4560:4575  _looksRareToken */\n  dup9\n    /* \"contracts/TokenDistributor.sol\":4532:4576  looksRareToken = ITestToken(_looksRareToken) */\n  0xffffffffffffffffffffffffffffffffffffffff\n  and\n  0x80\n  dup2\n  0xffffffffffffffffffffffffffffffffffffffff\n  and\n  0x60\n  shl\n  dup2\n  mstore\n  pop\n  pop\n    /* \"contracts/TokenDistributor.sol\":4603:4617  _tokenSplitter */\n  dup8\n    /* \"contracts/TokenDistributor.sol\":4587:4617  tokenSplitter = _tokenSplitter */\n  0xffffffffffffffffffffffffffffffffffffffff\n  and\n  0xa0\n  dup2\n  0xffffffffffffffffffffffffffffffffffffffff\n  and\n  0x60\n  shl\n  dup2\n  mstore\n  pop\n  pop\n    /* \"contracts/TokenDistributor.sol\":4655:4681  _rewardsPerBlockForStaking */\n  dup6\n    /* \"contracts/TokenDistributor.sol\":4682:4683  0 */\n  0x00\n    /* \"contracts/TokenDistributor.sol\":4655:4684  _rewardsPerBlockForStaking[0] */\n  dup2\n  mload\n  dup2\n  lt\n  tag_53\n  jumpi\n  tag_54\n  tag_29\n  jump\t// in\ntag_54:\ntag_53:\n  0x20\n  mul\n  0x20\n  add\n  add\n  mload\n    /* \"contracts/TokenDistributor.sol\":4628:4652  rewardPerBlockForStaking */\n  0x06\n    /* \"contracts/TokenDistributor.sol\":4628:4684  rewardPerBlockForStaking = _rewardsPerBlockForStaking[0] */\n  dup2\n  swap1\n  sstore\n  pop\n    /* \"contracts/TokenDistributor.sol\":4721:4746  _rewardsPerBlockForOthers */\n  dup5\n    /* \"contracts/TokenDistributor.sol\":4747:4748  0 */\n  0x00\n    /* \"contracts/TokenDistributor.sol\":4721:4749  _rewardsPerBlockForOthers[0] */\n  dup2\n  mload\n  dup2\n  lt\n  tag_55\n  jumpi\n  tag_56\n  tag_29\n  jump\t// in\ntag_56:\ntag_55:\n  0x20\n  mul\n  0x20\n  add\n  add\n  mload\n    /* \"contracts/TokenDistributor.sol\":4695:4718  rewardPerBlockForOthers */\n  0x05\n    /* \"contracts/TokenDistributor.sol\":4695:4749  rewardPerBlockForOthers = _rewardsPerBlockForOthers[0] */\n  dup2\n  swap1\n  sstore\n  pop\n    /* \"contracts/TokenDistributor.sol\":4776:4787  _startBlock */\n  dup7\n    /* \"contracts/TokenDistributor.sol\":4762:4787  START_BLOCK = _startBlock */\n  0xe0\n  dup2\n  dup2\n  mstore\n  pop\n  pop\n    /* \"contracts/TokenDistributor.sol\":4823:4846  _periodLengthesInBlocks */\n  dup4\n    /* \"contracts/TokenDistributor.sol\":4847:4848  0 */\n  0x00\n    /* \"contracts/TokenDistributor.sol\":4823:4849  _periodLengthesInBlocks[0] */\n  dup2\n  mload\n  dup2\n  lt\n  tag_57\n  jumpi\n  tag_58\n  tag_29\n  jump\t// in\ntag_58:\ntag_57:\n  0x20\n  mul\n  0x20\n  add\n  add\n  mload\n    /* \"contracts/TokenDistributor.sol\":4809:4820  _startBlock */\n  dup8\n    /* \"contracts/TokenDistributor.sol\":4809:4849  _startBlock + _periodLengthesInBlocks[0] */\n  tag_59\n  swap2\n  swap1\n  tag_40\n  jump\t// in\ntag_59:\n    /* \"contracts/TokenDistributor.sol\":4798:4806  endBlock */\n  0x03\n    /* \"contracts/TokenDistributor.sol\":4798:4849  endBlock = _startBlock + _periodLengthesInBlocks[0] */\n  dup2\n  swap1\n  sstore\n  pop\n    /* \"contracts/TokenDistributor.sol\":4879:4893  _numberPeriods */\n  dup3\n    /* \"contracts/TokenDistributor.sol\":4862:4893  NUMBER_PERIODS = _numberPeriods */\n  0xc0\n  dup2\n  dup2\n  mstore\n  pop\n  pop\n    /* \"contracts/TokenDistributor.sol\":4978:4989  _startBlock */\n  dup7\n    /* \"contracts/TokenDistributor.sol\":4960:4975  lastRewardBlock */\n  0x04\n    /* \"contracts/TokenDistributor.sol\":4960:4989  lastRewardBlock = _startBlock */\n  dup2\n  swap1\n  sstore\n  pop\n    /* \"contracts/TokenDistributor.sol\":3305:4997  {\r... */\n  pop\n  pop\n    /* \"contracts/TokenDistributor.sol\":2998:4997  constructor(\r... */\n  pop\n  pop\n  pop\n  pop\n  pop\n  pop\n  pop\n    /* \"contracts/TokenDistributor.sol\":422:14968  contract TokenDistributor is ReentrancyGuard {\r... */\n  jump(tag_60)\n    /* \"#utility.yul\":24:768   */\ntag_62:\n    /* \"#utility.yul\":131:136   */\n  0x00\n    /* \"#utility.yul\":156:237   */\n  tag_64\n    /* \"#utility.yul\":172:236   */\n  tag_65\n    /* \"#utility.yul\":229:235   */\n  dup5\n    /* \"#utility.yul\":172:236   */\n  tag_66\n  jump\t// in\ntag_65:\n    /* \"#utility.yul\":156:237   */\n  tag_67\n  jump\t// in\ntag_64:\n    /* \"#utility.yul\":147:237   */\n  swap1\n  pop\n    /* \"#utility.yul\":257:262   */\n  dup1\n    /* \"#utility.yul\":286:292   */\n  dup4\n    /* \"#utility.yul\":279:284   */\n  dup3\n    /* \"#utility.yul\":272:293   */\n  mstore\n    /* \"#utility.yul\":320:324   */\n  0x20\n    /* \"#utility.yul\":313:318   */\n  dup3\n    /* \"#utility.yul\":309:325   */\n  add\n    /* \"#utility.yul\":302:325   */\n  swap1\n  pop\n    /* \"#utility.yul\":346:352   */\n  dup3\n    /* \"#utility.yul\":396:399   */\n  dup6\n    /* \"#utility.yul\":388:392   */\n  0x20\n    /* \"#utility.yul\":380:386   */\n  dup7\n    /* \"#utility.yul\":376:393   */\n  mul\n    /* \"#utility.yul\":371:374   */\n  dup3\n    /* \"#utility.yul\":367:394   */\n  add\n    /* \"#utility.yul\":364:400   */\n  gt\n    /* \"#utility.yul\":361:504   */\n  iszero\n  tag_68\n  jumpi\n    /* \"#utility.yul\":415:494   */\n  tag_69\n  tag_70\n  jump\t// in\ntag_69:\n    /* \"#utility.yul\":361:504   */\ntag_68:\n    /* \"#utility.yul\":528:529   */\n  0x00\n    /* \"#utility.yul\":513:762   */\ntag_71:\n    /* \"#utility.yul\":538:544   */\n  dup6\n    /* \"#utility.yul\":535:536   */\n  dup2\n    /* \"#utility.yul\":532:545   */\n  lt\n    /* \"#utility.yul\":513:762   */\n  iszero\n  tag_73\n  jumpi\n    /* \"#utility.yul\":606:609   */\n  dup2\n    /* \"#utility.yul\":635:683   */\n  tag_74\n    /* \"#utility.yul\":679:682   */\n  dup9\n    /* \"#utility.yul\":667:677   */\n  dup3\n    /* \"#utility.yul\":635:683   */\n  tag_75\n  jump\t// in\ntag_74:\n    /* \"#utility.yul\":630:633   */\n  dup5\n    /* \"#utility.yul\":623:684   */\n  mstore\n    /* \"#utility.yul\":713:717   */\n  0x20\n    /* \"#utility.yul\":708:711   */\n  dup5\n    /* \"#utility.yul\":704:718   */\n  add\n    /* \"#utility.yul\":697:718   */\n  swap4\n  pop\n    /* \"#utility.yul\":747:751   */\n  0x20\n    /* \"#utility.yul\":742:745   */\n  dup4\n    /* \"#utility.yul\":738:752   */\n  add\n    /* \"#utility.yul\":731:752   */\n  swap3\n  pop\n    /* \"#utility.yul\":573:762   */\n  pop\n    /* \"#utility.yul\":560:561   */\n  0x01\n    /* \"#utility.yul\":557:558   */\n  dup2\n    /* \"#utility.yul\":553:562   */\n  add\n    /* \"#utility.yul\":548:562   */\n  swap1\n  pop\n    /* \"#utility.yul\":513:762   */\n  jump(tag_71)\ntag_73:\n    /* \"#utility.yul\":517:531   */\n  pop\n    /* \"#utility.yul\":137:768   */\n  pop\n  pop\n    /* \"#utility.yul\":24:768   */\n  swap4\n  swap3\n  pop\n  pop\n  pop\n  jump\t// out\n    /* \"#utility.yul\":774:917   */\ntag_76:\n    /* \"#utility.yul\":831:836   */\n  0x00\n    /* \"#utility.yul\":862:868   */\n  dup2\n    /* \"#utility.yul\":856:869   */\n  mload\n    /* \"#utility.yul\":847:869   */\n  swap1\n  pop\n    /* \"#utility.yul\":878:911   */\n  tag_78\n    /* \"#utility.yul\":905:910   */\n  dup2\n    /* \"#utility.yul\":878:911   */\n  tag_79\n  jump\t// in\ntag_78:\n    /* \"#utility.yul\":774:917   */\n  swap3\n  swap2\n  pop\n  pop\n  jump\t// out\n    /* \"#utility.yul\":940:1325   */\ntag_80:\n    /* \"#utility.yul\":1022:1027   */\n  0x00\n    /* \"#utility.yul\":1071:1074   */\n  dup3\n    /* \"#utility.yul\":1064:1068   */\n  0x1f\n    /* \"#utility.yul\":1056:1062   */\n  dup4\n    /* \"#utility.yul\":1052:1069   */\n  add\n    /* \"#utility.yul\":1048:1075   */\n  slt\n    /* \"#utility.yul\":1038:1160   */\n  tag_82\n  jumpi\n    /* \"#utility.yul\":1079:1158   */\n  tag_83\n  tag_84\n  jump\t// in\ntag_83:\n    /* \"#utility.yul\":1038:1160   */\ntag_82:\n    /* \"#utility.yul\":1189:1195   */\n  dup2\n    /* \"#utility.yul\":1183:1196   */\n  mload\n    /* \"#utility.yul\":1214:1319   */\n  tag_85\n    /* \"#utility.yul\":1315:1318   */\n  dup5\n    /* \"#utility.yul\":1307:1313   */\n  dup3\n    /* \"#utility.yul\":1300:1304   */\n  0x20\n    /* \"#utility.yul\":1292:1298   */\n  dup7\n    /* \"#utility.yul\":1288:1305   */\n  add\n    /* \"#utility.yul\":1214:1319   */\n  tag_62\n  jump\t// in\ntag_85:\n    /* \"#utility.yul\":1205:1319   */\n  swap2\n  pop\n    /* \"#utility.yul\":1028:1325   */\n  pop\n    /* \"#utility.yul\":940:1325   */\n  swap3\n  swap2\n  pop\n  pop\n  jump\t// out\n    /* \"#utility.yul\":1331:1474   */\ntag_75:\n    /* \"#utility.yul\":1388:1393   */\n  0x00\n    /* \"#utility.yul\":1419:1425   */\n  dup2\n    /* \"#utility.yul\":1413:1426   */\n  mload\n    /* \"#utility.yul\":1404:1426   */\n  swap1\n  pop\n    /* \"#utility.yul\":1435:1468   */\n  tag_87\n    /* \"#utility.yul\":1462:1467   */\n  dup2\n    /* \"#utility.yul\":1435:1468   */\n  tag_88\n  jump\t// in\ntag_87:\n    /* \"#utility.yul\":1331:1474   */\n  swap3\n  swap2\n  pop\n  pop\n  jump\t// out\n    /* \"#utility.yul\":1480:3380   */\ntag_3:\n    /* \"#utility.yul\":1679:1685   */\n  0x00\n    /* \"#utility.yul\":1687:1693   */\n  dup1\n    /* \"#utility.yul\":1695:1701   */\n  0x00\n    /* \"#utility.yul\":1703:1709   */\n  dup1\n    /* \"#utility.yul\":1711:1717   */\n  0x00\n    /* \"#utility.yul\":1719:1725   */\n  dup1\n    /* \"#utility.yul\":1727:1733   */\n  0x00\n    /* \"#utility.yul\":1776:1779   */\n  0xe0\n    /* \"#utility.yul\":1764:1773   */\n  dup9\n    /* \"#utility.yul\":1755:1762   */\n  dup11\n    /* \"#utility.yul\":1751:1774   */\n  sub\n    /* \"#utility.yul\":1747:1780   */\n  slt\n    /* \"#utility.yul\":1744:1864   */\n  iszero\n  tag_90\n  jumpi\n    /* \"#utility.yul\":1783:1862   */\n  tag_91\n  tag_92\n  jump\t// in\ntag_91:\n    /* \"#utility.yul\":1744:1864   */\ntag_90:\n    /* \"#utility.yul\":1903:1904   */\n  0x00\n    /* \"#utility.yul\":1928:1992   */\n  tag_93\n    /* \"#utility.yul\":1984:1991   */\n  dup11\n    /* \"#utility.yul\":1975:1981   */\n  dup3\n    /* \"#utility.yul\":1964:1973   */\n  dup12\n    /* \"#utility.yul\":1960:1982   */\n  add\n    /* \"#utility.yul\":1928:1992   */\n  tag_76\n  jump\t// in\ntag_93:\n    /* \"#utility.yul\":1918:1992   */\n  swap8\n  pop\n    /* \"#utility.yul\":1874:2002   */\n  pop\n    /* \"#utility.yul\":2041:2043   */\n  0x20\n    /* \"#utility.yul\":2067:2131   */\n  tag_94\n    /* \"#utility.yul\":2123:2130   */\n  dup11\n    /* \"#utility.yul\":2114:2120   */\n  dup3\n    /* \"#utility.yul\":2103:2112   */\n  dup12\n    /* \"#utility.yul\":2099:2121   */\n  add\n    /* \"#utility.yul\":2067:2131   */\n  tag_76\n  jump\t// in\ntag_94:\n    /* \"#utility.yul\":2057:2131   */\n  swap7\n  pop\n    /* \"#utility.yul\":2012:2141   */\n  pop\n    /* \"#utility.yul\":2180:2182   */\n  0x40\n    /* \"#utility.yul\":2206:2270   */\n  tag_95\n    /* \"#utility.yul\":2262:2269   */\n  dup11\n    /* \"#utility.yul\":2253:2259   */\n  dup3\n    /* \"#utility.yul\":2242:2251   */\n  dup12\n    /* \"#utility.yul\":2238:2260   */\n  add\n    /* \"#utility.yul\":2206:2270   */\n  tag_75\n  jump\t// in\ntag_95:\n    /* \"#utility.yul\":2196:2270   */\n  swap6\n  pop\n    /* \"#utility.yul\":2151:2280   */\n  pop\n    /* \"#utility.yul\":2340:2342   */\n  0x60\n    /* \"#utility.yul\":2329:2338   */\n  dup9\n    /* \"#utility.yul\":2325:2343   */\n  add\n    /* \"#utility.yul\":2319:2344   */\n  mload\n    /* \"#utility.yul\":2371:2389   */\n  0xffffffffffffffff\n    /* \"#utility.yul\":2363:2369   */\n  dup2\n    /* \"#utility.yul\":2360:2390   */\n  gt\n    /* \"#utility.yul\":2357:2474   */\n  iszero\n  tag_96\n  jumpi\n    /* \"#utility.yul\":2393:2472   */\n  tag_97\n  tag_98\n  jump\t// in\ntag_97:\n    /* \"#utility.yul\":2357:2474   */\ntag_96:\n    /* \"#utility.yul\":2498:2587   */\n  tag_99\n    /* \"#utility.yul\":2579:2586   */\n  dup11\n    /* \"#utility.yul\":2570:2576   */\n  dup3\n    /* \"#utility.yul\":2559:2568   */\n  dup12\n    /* \"#utility.yul\":2555:2577   */\n  add\n    /* \"#utility.yul\":2498:2587   */\n  tag_80\n  jump\t// in\ntag_99:\n    /* \"#utility.yul\":2488:2587   */\n  swap5\n  pop\n    /* \"#utility.yul\":2290:2597   */\n  pop\n    /* \"#utility.yul\":2657:2660   */\n  0x80\n    /* \"#utility.yul\":2646:2655   */\n  dup9\n    /* \"#utility.yul\":2642:2661   */\n  add\n    /* \"#utility.yul\":2636:2662   */\n  mload\n    /* \"#utility.yul\":2689:2707   */\n  0xffffffffffffffff\n    /* \"#utility.yul\":2681:2687   */\n  dup2\n    /* \"#utility.yul\":2678:2708   */\n  gt\n    /* \"#utility.yul\":2675:2792   */\n  iszero\n  tag_100\n  jumpi\n    /* \"#utility.yul\":2711:2790   */\n  tag_101\n  tag_98\n  jump\t// in\ntag_101:\n    /* \"#utility.yul\":2675:2792   */\ntag_100:\n    /* \"#utility.yul\":2816:2905   */\n  tag_102\n    /* \"#utility.yul\":2897:2904   */\n  dup11\n    /* \"#utility.yul\":2888:2894   */\n  dup3\n    /* \"#utility.yul\":2877:2886   */\n  dup12\n    /* \"#utility.yul\":2873:2895   */\n  add\n    /* \"#utility.yul\":2816:2905   */\n  tag_80\n  jump\t// in\ntag_102:\n    /* \"#utility.yul\":2806:2905   */\n  swap4\n  pop\n    /* \"#utility.yul\":2607:2915   */\n  pop\n    /* \"#utility.yul\":2975:2978   */\n  0xa0\n    /* \"#utility.yul\":2964:2973   */\n  dup9\n    /* \"#utility.yul\":2960:2979   */\n  add\n    /* \"#utility.yul\":2954:2980   */\n  mload\n    /* \"#utility.yul\":3007:3025   */\n  0xffffffffffffffff\n    /* \"#utility.yul\":2999:3005   */\n  dup2\n    /* \"#utility.yul\":2996:3026   */\n  gt\n    /* \"#utility.yul\":2993:3110   */\n  iszero\n  tag_103\n  jumpi\n    /* \"#utility.yul\":3029:3108   */\n  tag_104\n  tag_98\n  jump\t// in\ntag_104:\n    /* \"#utility.yul\":2993:3110   */\ntag_103:\n    /* \"#utility.yul\":3134:3223   */\n  tag_105\n    /* \"#utility.yul\":3215:3222   */\n  dup11\n    /* \"#utility.yul\":3206:3212   */\n  dup3\n    /* \"#utility.yul\":3195:3204   */\n  dup12\n    /* \"#utility.yul\":3191:3213   */\n  add\n    /* \"#utility.yul\":3134:3223   */\n  tag_80\n  jump\t// in\ntag_105:\n    /* \"#utility.yul\":3124:3223   */\n  swap3\n  pop\n    /* \"#utility.yul\":2925:3233   */\n  pop\n    /* \"#utility.yul\":3272:3275   */\n  0xc0\n    /* \"#utility.yul\":3299:3363   */\n  tag_106\n    /* \"#utility.yul\":3355:3362   */\n  dup11\n    /* \"#utility.yul\":3346:3352   */\n  dup3\n    /* \"#utility.yul\":3335:3344   */\n  dup12\n    /* \"#utility.yul\":3331:3353   */\n  add\n    /* \"#utility.yul\":3299:3363   */\n  tag_75\n  jump\t// in\ntag_106:\n    /* \"#utility.yul\":3289:3363   */\n  swap2\n  pop\n    /* \"#utility.yul\":3243:3373   */\n  pop\n    /* \"#utility.yul\":1480:3380   */\n  swap3\n  swap6\n  swap9\n  swap2\n  swap5\n  swap8\n  pop\n  swap3\n  swap6\n  pop\n  jump\t// out\n    /* \"#utility.yul\":3386:3737   */\ntag_17:\n    /* \"#utility.yul\":3456:3462   */\n  0x00\n    /* \"#utility.yul\":3505:3507   */\n  0x20\n    /* \"#utility.yul\":3493:3502   */\n  dup3\n    /* \"#utility.yul\":3484:3491   */\n  dup5\n    /* \"#utility.yul\":3480:3503   */\n  sub\n    /* \"#utility.yul\":3476:3508   */\n  slt\n    /* \"#utility.yul\":3473:3592   */\n  iszero\n  tag_108\n  jumpi\n    /* \"#utility.yul\":3511:3590   */\n  tag_109\n  tag_92\n  jump\t// in\ntag_109:\n    /* \"#utility.yul\":3473:3592   */\ntag_108:\n    /* \"#utility.yul\":3631:3632   */\n  0x00\n    /* \"#utility.yul\":3656:3720   */\n  tag_110\n    /* \"#utility.yul\":3712:3719   */\n  dup5\n    /* \"#utility.yul\":3703:3709   */\n  dup3\n    /* \"#utility.yul\":3692:3701   */\n  dup6\n    /* \"#utility.yul\":3688:3710   */\n  add\n    /* \"#utility.yul\":3656:3720   */\n  tag_75\n  jump\t// in\ntag_110:\n    /* \"#utility.yul\":3646:3720   */\n  swap2\n  pop\n    /* \"#utility.yul\":3602:3730   */\n  pop\n    /* \"#utility.yul\":3386:3737   */\n  swap3\n  swap2\n  pop\n  pop\n  jump\t// out\n    /* \"#utility.yul\":3743:4109   */\ntag_111:\n    /* \"#utility.yul\":3885:3888   */\n  0x00\n    /* \"#utility.yul\":3906:3973   */\n  tag_113\n    /* \"#utility.yul\":3970:3972   */\n  0x24\n    /* \"#utility.yul\":3965:3968   */\n  dup4\n    /* \"#utility.yul\":3906:3973   */\n  tag_114\n  jump\t// in\ntag_113:\n    /* \"#utility.yul\":3899:3973   */\n  swap2\n  pop\n    /* \"#utility.yul\":3982:4075   */\n  tag_115\n    /* \"#utility.yul\":4071:4074   */\n  dup3\n    /* \"#utility.yul\":3982:4075   */\n  tag_116\n  jump\t// in\ntag_115:\n    /* \"#utility.yul\":4100:4102   */\n  0x40\n    /* \"#utility.yul\":4095:4098   */\n  dup3\n    /* \"#utility.yul\":4091:4103   */\n  add\n    /* \"#utility.yul\":4084:4103   */\n  swap1\n  pop\n    /* \"#utility.yul\":3743:4109   */\n  swap2\n  swap1\n  pop\n  jump\t// out\n    /* \"#utility.yul\":4115:4481   */\ntag_117:\n    /* \"#utility.yul\":4257:4260   */\n  0x00\n    /* \"#utility.yul\":4278:4345   */\n  tag_119\n    /* \"#utility.yul\":4342:4344   */\n  0x2e\n    /* \"#utility.yul\":4337:4340   */\n  dup4\n    /* \"#utility.yul\":4278:4345   */\n  tag_114\n  jump\t// in\ntag_119:\n    /* \"#utility.yul\":4271:4345   */\n  swap2\n  pop\n    /* \"#utility.yul\":4354:4447   */\n  tag_120\n    /* \"#utility.yul\":4443:4446   */\n  dup3\n    /* \"#utility.yul\":4354:4447   */\n  tag_121\n  jump\t// in\ntag_120:\n    /* \"#utility.yul\":4472:4474   */\n  0x40\n    /* \"#utility.yul\":4467:4470   */\n  dup3\n    /* \"#utility.yul\":4463:4475   */\n  add\n    /* \"#utility.yul\":4456:4475   */\n  swap1\n  pop\n    /* \"#utility.yul\":4115:4481   */\n  swap2\n  swap1\n  pop\n  jump\t// out\n    /* \"#utility.yul\":4487:4906   */\ntag_52:\n    /* \"#utility.yul\":4653:4657   */\n  0x00\n    /* \"#utility.yul\":4691:4693   */\n  0x20\n    /* \"#utility.yul\":4680:4689   */\n  dup3\n    /* \"#utility.yul\":4676:4694   */\n  add\n    /* \"#utility.yul\":4668:4694   */\n  swap1\n  pop\n    /* \"#utility.yul\":4740:4749   */\n  dup2\n    /* \"#utility.yul\":4734:4738   */\n  dup2\n    /* \"#utility.yul\":4730:4750   */\n  sub\n    /* \"#utility.yul\":4726:4727   */\n  0x00\n    /* \"#utility.yul\":4715:4724   */\n  dup4\n    /* \"#utility.yul\":4711:4728   */\n  add\n    /* \"#utility.yul\":4704:4751   */\n  mstore\n    /* \"#utility.yul\":4768:4899   */\n  tag_123\n    /* \"#utility.yul\":4894:4898   */\n  dup2\n    /* \"#utility.yul\":4768:4899   */\n  tag_111\n  jump\t// in\ntag_123:\n    /* \"#utility.yul\":4760:4899   */\n  swap1\n  pop\n    /* \"#utility.yul\":4487:4906   */\n  swap2\n  swap1\n  pop\n  jump\t// out\n    /* \"#utility.yul\":4912:5331   */\ntag_12:\n    /* \"#utility.yul\":5078:5082   */\n  0x00\n    /* \"#utility.yul\":5116:5118   */\n  0x20\n    /* \"#utility.yul\":5105:5114   */\n  dup3\n    /* \"#utility.yul\":5101:5119   */\n  add\n    /* \"#utility.yul\":5093:5119   */\n  swap1\n  pop\n    /* \"#utility.yul\":5165:5174   */\n  dup2\n    /* \"#utility.yul\":5159:5163   */\n  dup2\n    /* \"#utility.yul\":5155:5175   */\n  sub\n    /* \"#utility.yul\":5151:5152   */\n  0x00\n    /* \"#utility.yul\":5140:5149   */\n  dup4\n    /* \"#utility.yul\":5136:5153   */\n  add\n    /* \"#utility.yul\":5129:5176   */\n  mstore\n    /* \"#utility.yul\":5193:5324   */\n  tag_125\n    /* \"#utility.yul\":5319:5323   */\n  dup2\n    /* \"#utility.yul\":5193:5324   */\n  tag_117\n  jump\t// in\ntag_125:\n    /* \"#utility.yul\":5185:5324   */\n  swap1\n  pop\n    /* \"#utility.yul\":4912:5331   */\n  swap2\n  swap1\n  pop\n  jump\t// out\n    /* \"#utility.yul\":5337:5466   */\ntag_67:\n    /* \"#utility.yul\":5371:5377   */\n  0x00\n    /* \"#utility.yul\":5398:5418   */\n  tag_127\n  tag_128\n  jump\t// in\ntag_127:\n    /* \"#utility.yul\":5388:5418   */\n  swap1\n  pop\n    /* \"#utility.yul\":5427:5460   */\n  tag_129\n    /* \"#utility.yul\":5455:5459   */\n  dup3\n    /* \"#utility.yul\":5447:5453   */\n  dup3\n    /* \"#utility.yul\":5427:5460   */\n  tag_130\n  jump\t// in\ntag_129:\n    /* \"#utility.yul\":5337:5466   */\n  swap2\n  swap1\n  pop\n  jump\t// out\n    /* \"#utility.yul\":5472:5547   */\ntag_128:\n    /* \"#utility.yul\":5505:5511   */\n  0x00\n    /* \"#utility.yul\":5538:5540   */\n  0x40\n    /* \"#utility.yul\":5532:5541   */\n  mload\n    /* \"#utility.yul\":5522:5541   */\n  swap1\n  pop\n    /* \"#utility.yul\":5472:5547   */\n  swap1\n  jump\t// out\n    /* \"#utility.yul\":5553:5864   */\ntag_66:\n    /* \"#utility.yul\":5630:5634   */\n  0x00\n    /* \"#utility.yul\":5720:5738   */\n  0xffffffffffffffff\n    /* \"#utility.yul\":5712:5718   */\n  dup3\n    /* \"#utility.yul\":5709:5739   */\n  gt\n    /* \"#utility.yul\":5706:5762   */\n  iszero\n  tag_133\n  jumpi\n    /* \"#utility.yul\":5742:5760   */\n  tag_134\n  tag_135\n  jump\t// in\ntag_134:\n    /* \"#utility.yul\":5706:5762   */\ntag_133:\n    /* \"#utility.yul\":5792:5796   */\n  0x20\n    /* \"#utility.yul\":5784:5790   */\n  dup3\n    /* \"#utility.yul\":5780:5797   */\n  mul\n    /* \"#utility.yul\":5772:5797   */\n  swap1\n  pop\n    /* \"#utility.yul\":5852:5856   */\n  0x20\n    /* \"#utility.yul\":5846:5850   */\n  dup2\n    /* \"#utility.yul\":5842:5857   */\n  add\n    /* \"#utility.yul\":5834:5857   */\n  swap1\n  pop\n    /* \"#utility.yul\":5553:5864   */\n  swap2\n  swap1\n  pop\n  jump\t// out\n    /* \"#utility.yul\":5870:6039   */\ntag_114:\n    /* \"#utility.yul\":5954:5965   */\n  0x00\n    /* \"#utility.yul\":5988:5994   */\n  dup3\n    /* \"#utility.yul\":5983:5986   */\n  dup3\n    /* \"#utility.yul\":5976:5995   */\n  mstore\n    /* \"#utility.yul\":6028:6032   */\n  0x20\n    /* \"#utility.yul\":6023:6026   */\n  dup3\n    /* \"#utility.yul\":6019:6033   */\n  add\n    /* \"#utility.yul\":6004:6033   */\n  swap1\n  pop\n    /* \"#utility.yul\":5870:6039   */\n  swap3\n  swap2\n  pop\n  pop\n  jump\t// out\n    /* \"#utility.yul\":6045:6350   */\ntag_40:\n    /* \"#utility.yul\":6085:6088   */\n  0x00\n    /* \"#utility.yul\":6104:6124   */\n  tag_138\n    /* \"#utility.yul\":6122:6123   */\n  dup3\n    /* \"#utility.yul\":6104:6124   */\n  tag_139\n  jump\t// in\ntag_138:\n    /* \"#utility.yul\":6099:6124   */\n  swap2\n  pop\n    /* \"#utility.yul\":6138:6158   */\n  tag_140\n    /* \"#utility.yul\":6156:6157   */\n  dup4\n    /* \"#utility.yul\":6138:6158   */\n  tag_139\n  jump\t// in\ntag_140:\n    /* \"#utility.yul\":6133:6158   */\n  swap3\n  pop\n    /* \"#utility.yul\":6292:6293   */\n  dup3\n    /* \"#utility.yul\":6224:6290   */\n  0xffffffffffffffffffffffffffffffffffffffffffffffffffffffffffffffff\n    /* \"#utility.yul\":6220:6294   */\n  sub\n    /* \"#utility.yul\":6217:6218   */\n  dup3\n    /* \"#utility.yul\":6214:6295   */\n  gt\n    /* \"#utility.yul\":6211:6318   */\n  iszero\n  tag_141\n  jumpi\n    /* \"#utility.yul\":6298:6316   */\n  tag_142\n  tag_143\n  jump\t// in\ntag_142:\n    /* \"#utility.yul\":6211:6318   */\ntag_141:\n    /* \"#utility.yul\":6342:6343   */\n  dup3\n    /* \"#utility.yul\":6339:6340   */\n  dup3\n    /* \"#utility.yul\":6335:6344   */\n  add\n    /* \"#utility.yul\":6328:6344   */\n  swap1\n  pop\n    /* \"#utility.yul\":6045:6350   */\n  swap3\n  swap2\n  pop\n  pop\n  jump\t// out\n    /* \"#utility.yul\":6356:6704   */\ntag_33:\n    /* \"#utility.yul\":6396:6403   */\n  0x00\n    /* \"#utility.yul\":6419:6439   */\n  tag_145\n    /* \"#utility.yul\":6437:6438   */\n  dup3\n    /* \"#utility.yul\":6419:6439   */\n  tag_139\n  jump\t// in\ntag_145:\n    /* \"#utility.yul\":6414:6439   */\n  swap2\n  pop\n    /* \"#utility.yul\":6453:6473   */\n  tag_146\n    /* \"#utility.yul\":6471:6472   */\n  dup4\n    /* \"#utility.yul\":6453:6473   */\n  tag_139\n  jump\t// in\ntag_146:\n    /* \"#utility.yul\":6448:6473   */\n  swap3\n  pop\n    /* \"#utility.yul\":6641:6642   */\n  dup2\n    /* \"#utility.yul\":6573:6639   */\n  0xffffffffffffffffffffffffffffffffffffffffffffffffffffffffffffffff\n    /* \"#utility.yul\":6569:6643   */\n  div\n    /* \"#utility.yul\":6566:6567   */\n  dup4\n    /* \"#utility.yul\":6563:6644   */\n  gt\n    /* \"#utility.yul\":6558:6559   */\n  dup3\n    /* \"#utility.yul\":6551:6560   */\n  iszero\n    /* \"#utility.yul\":6544:6561   */\n  iszero\n    /* \"#utility.yul\":6540:6645   */\n  and\n    /* \"#utility.yul\":6537:6668   */\n  iszero\n  tag_147\n  jumpi\n    /* \"#utility.yul\":6648:6666   */\n  tag_148\n  tag_143\n  jump\t// in\ntag_148:\n    /* \"#utility.yul\":6537:6668   */\ntag_147:\n    /* \"#utility.yul\":6696:6697   */\n  dup3\n    /* \"#utility.yul\":6693:6694   */\n  dup3\n    /* \"#utility.yul\":6689:6698   */\n  mul\n    /* \"#utility.yul\":6678:6698   */\n  swap1\n  pop\n    /* \"#utility.yul\":6356:6704   */\n  swap3\n  swap2\n  pop\n  pop\n  jump\t// out\n    /* \"#utility.yul\":6710:6901   */\ntag_23:\n    /* \"#utility.yul\":6750:6754   */\n  0x00\n    /* \"#utility.yul\":6770:6790   */\n  tag_150\n    /* \"#utility.yul\":6788:6789   */\n  dup3\n    /* \"#utility.yul\":6770:6790   */\n  tag_139\n  jump\t// in\ntag_150:\n    /* \"#utility.yul\":6765:6790   */\n  swap2\n  pop\n    /* \"#utility.yul\":6804:6824   */\n  tag_151\n    /* \"#utility.yul\":6822:6823   */\n  dup4\n    /* \"#utility.yul\":6804:6824   */\n  tag_139\n  jump\t// in\ntag_151:\n    /* \"#utility.yul\":6799:6824   */\n  swap3\n  pop\n    /* \"#utility.yul\":6843:6844   */\n  dup3\n    /* \"#utility.yul\":6840:6841   */\n  dup3\n    /* \"#utility.yul\":6837:6845   */\n  lt\n    /* \"#utility.yul\":6834:6868   */\n  iszero\n  tag_152\n  jumpi\n    /* \"#utility.yul\":6848:6866   */\n  tag_153\n  tag_143\n  jump\t// in\ntag_153:\n    /* \"#utility.yul\":6834:6868   */\ntag_152:\n    /* \"#utility.yul\":6893:6894   */\n  dup3\n    /* \"#utility.yul\":6890:6891   */\n  dup3\n    /* \"#utility.yul\":6886:6895   */\n  sub\n    /* \"#utility.yul\":6878:6895   */\n  swap1\n  pop\n    /* \"#utility.yul\":6710:6901   */\n  swap3\n  swap2\n  pop\n  pop\n  jump\t// out\n    /* \"#utility.yul\":6907:7003   */\ntag_154:\n    /* \"#utility.yul\":6944:6951   */\n  0x00\n    /* \"#utility.yul\":6973:6997   */\n  tag_156\n    /* \"#utility.yul\":6991:6996   */\n  dup3\n    /* \"#utility.yul\":6973:6997   */\n  tag_157\n  jump\t// in\ntag_156:\n    /* \"#utility.yul\":6962:6997   */\n  swap1\n  pop\n    /* \"#utility.yul\":6907:7003   */\n  swap2\n  swap1\n  pop\n  jump\t// out\n    /* \"#utility.yul\":7009:7135   */\ntag_157:\n    /* \"#utility.yul\":7046:7053   */\n  0x00\n    /* \"#utility.yul\":7086:7128   */\n  0xffffffffffffffffffffffffffffffffffffffff\n    /* \"#utility.yul\":7079:7084   */\n  dup3\n    /* \"#utility.yul\":7075:7129   */\n  and\n    /* \"#utility.yul\":7064:7129   */\n  swap1\n  pop\n    /* \"#utility.yul\":7009:7135   */\n  swap2\n  swap1\n  pop\n  jump\t// out\n    /* \"#utility.yul\":7141:7218   */\ntag_139:\n    /* \"#utility.yul\":7178:7185   */\n  0x00\n    /* \"#utility.yul\":7207:7212   */\n  dup2\n    /* \"#utility.yul\":7196:7212   */\n  swap1\n  pop\n    /* \"#utility.yul\":7141:7218   */\n  swap2\n  swap1\n  pop\n  jump\t// out\n    /* \"#utility.yul\":7224:7505   */\ntag_130:\n    /* \"#utility.yul\":7307:7334   */\n  tag_161\n    /* \"#utility.yul\":7329:7333   */\n  dup3\n    /* \"#utility.yul\":7307:7334   */\n  tag_162\n  jump\t// in\ntag_161:\n    /* \"#utility.yul\":7299:7305   */\n  dup2\n    /* \"#utility.yul\":7295:7335   */\n  add\n    /* \"#utility.yul\":7437:7443   */\n  dup2\n    /* \"#utility.yul\":7425:7435   */\n  dup2\n    /* \"#utility.yul\":7422:7444   */\n  lt\n    /* \"#utility.yul\":7401:7419   */\n  0xffffffffffffffff\n    /* \"#utility.yul\":7389:7399   */\n  dup3\n    /* \"#utility.yul\":7386:7420   */\n  gt\n    /* \"#utility.yul\":7383:7445   */\n  or\n    /* \"#utility.yul\":7380:7468   */\n  iszero\n  tag_163\n  jumpi\n    /* \"#utility.yul\":7448:7466   */\n  tag_164\n  tag_135\n  jump\t// in\ntag_164:\n    /* \"#utility.yul\":7380:7468   */\ntag_163:\n    /* \"#utility.yul\":7488:7498   */\n  dup1\n    /* \"#utility.yul\":7484:7486   */\n  0x40\n    /* \"#utility.yul\":7477:7499   */\n  mstore\n    /* \"#utility.yul\":7267:7505   */\n  pop\n    /* \"#utility.yul\":7224:7505   */\n  pop\n  pop\n  jump\t// out\n    /* \"#utility.yul\":7511:7744   */\ntag_49:\n    /* \"#utility.yul\":7550:7553   */\n  0x00\n    /* \"#utility.yul\":7573:7597   */\n  tag_166\n    /* \"#utility.yul\":7591:7596   */\n  dup3\n    /* \"#utility.yul\":7573:7597   */\n  tag_139\n  jump\t// in\ntag_166:\n    /* \"#utility.yul\":7564:7597   */\n  swap2\n  pop\n    /* \"#utility.yul\":7619:7685   */\n  0xffffffffffffffffffffffffffffffffffffffffffffffffffffffffffffffff\n    /* \"#utility.yul\":7612:7617   */\n  dup3\n    /* \"#utility.yul\":7609:7686   */\n  eq\n    /* \"#utility.yul\":7606:7709   */\n  iszero\n  tag_167\n  jumpi\n    /* \"#utility.yul\":7689:7707   */\n  tag_168\n  tag_143\n  jump\t// in\ntag_168:\n    /* \"#utility.yul\":7606:7709   */\ntag_167:\n    /* \"#utility.yul\":7736:7737   */\n  0x01\n    /* \"#utility.yul\":7729:7734   */\n  dup3\n    /* \"#utility.yul\":7725:7738   */\n  add\n    /* \"#utility.yul\":7718:7738   */\n  swap1\n  pop\n    /* \"#utility.yul\":7511:7744   */\n  swap2\n  swap1\n  pop\n  jump\t// out\n    /* \"#utility.yul\":7750:7930   */\ntag_143:\n    /* \"#utility.yul\":7798:7875   */\n  0x4e487b7100000000000000000000000000000000000000000000000000000000\n    /* \"#utility.yul\":7795:7796   */\n  0x00\n    /* \"#utility.yul\":7788:7876   */\n  mstore\n    /* \"#utility.yul\":7895:7899   */\n  0x11\n    /* \"#utility.yul\":7892:7893   */\n  0x04\n    /* \"#utility.yul\":7885:7900   */\n  mstore\n    /* \"#utility.yul\":7919:7923   */\n  0x24\n    /* \"#utility.yul\":7916:7917   */\n  0x00\n    /* \"#utility.yul\":7909:7924   */\n  revert\n    /* \"#utility.yul\":7936:8116   */\ntag_29:\n    /* \"#utility.yul\":7984:8061   */\n  0x4e487b7100000000000000000000000000000000000000000000000000000000\n    /* \"#utility.yul\":7981:7982   */\n  0x00\n    /* \"#utility.yul\":7974:8062   */\n  mstore\n    /* \"#utility.yul\":8081:8085   */\n  0x32\n    /* \"#utility.yul\":8078:8079   */\n  0x04\n    /* \"#utility.yul\":8071:8086   */\n  mstore\n    /* \"#utility.yul\":8105:8109   */\n  0x24\n    /* \"#utility.yul\":8102:8103   */\n  0x00\n    /* \"#utility.yul\":8095:8110   */\n  revert\n    /* \"#utility.yul\":8122:8302   */\ntag_135:\n    /* \"#utility.yul\":8170:8247   */\n  0x4e487b7100000000000000000000000000000000000000000000000000000000\n    /* \"#utility.yul\":8167:8168   */\n  0x00\n    /* \"#utility.yul\":8160:8248   */\n  mstore\n    /* \"#utility.yul\":8267:8271   */\n  0x41\n    /* \"#utility.yul\":8264:8265   */\n  0x04\n    /* \"#utility.yul\":8257:8272   */\n  mstore\n    /* \"#utility.yul\":8291:8295   */\n  0x24\n    /* \"#utility.yul\":8288:8289   */\n  0x00\n    /* \"#utility.yul\":8281:8296   */\n  revert\n    /* \"#utility.yul\":8308:8425   */\ntag_84:\n    /* \"#utility.yul\":8417:8418   */\n  0x00\n    /* \"#utility.yul\":8414:8415   */\n  dup1\n    /* \"#utility.yul\":8407:8419   */\n  revert\n    /* \"#utility.yul\":8431:8548   */\ntag_70:\n    /* \"#utility.yul\":8540:8541   */\n  0x00\n    /* \"#utility.yul\":8537:8538   */\n  dup1\n    /* \"#utility.yul\":8530:8542   */\n  revert\n    /* \"#utility.yul\":8554:8671   */\ntag_98:\n    /* \"#utility.yul\":8663:8664   */\n  0x00\n    /* \"#utility.yul\":8660:8661   */\n  dup1\n    /* \"#utility.yul\":8653:8665   */\n  revert\n    /* \"#utility.yul\":8677:8794   */\ntag_92:\n    /* \"#utility.yul\":8786:8787   */\n  0x00\n    /* \"#utility.yul\":8783:8784   */\n  dup1\n    /* \"#utility.yul\":8776:8788   */\n  revert\n    /* \"#utility.yul\":8800:8902   */\ntag_162:\n    /* \"#utility.yul\":8841:8847   */\n  0x00\n    /* \"#utility.yul\":8892:8894   */\n  0x1f\n    /* \"#utility.yul\":8888:8895   */\n  not\n    /* \"#utility.yul\":8883:8885   */\n  0x1f\n    /* \"#utility.yul\":8876:8881   */\n  dup4\n    /* \"#utility.yul\":8872:8886   */\n  add\n    /* \"#utility.yul\":8868:8896   */\n  and\n    /* \"#utility.yul\":8858:8896   */\n  swap1\n  pop\n    /* \"#utility.yul\":8800:8902   */\n  swap2\n  swap1\n  pop\n  jump\t// out\n    /* \"#utility.yul\":8908:9131   */\ntag_116:\n    /* \"#utility.yul\":9048:9082   */\n  0x4469737472696275746f723a2057726f6e672072657761726420706172616d65\n    /* \"#utility.yul\":9044:9045   */\n  0x00\n    /* \"#utility.yul\":9036:9042   */\n  dup3\n    /* \"#utility.yul\":9032:9046   */\n  add\n    /* \"#utility.yul\":9025:9083   */\n  mstore\n    /* \"#utility.yul\":9117:9123   */\n  0x7465727300000000000000000000000000000000000000000000000000000000\n    /* \"#utility.yul\":9112:9114   */\n  0x20\n    /* \"#utility.yul\":9104:9110   */\n  dup3\n    /* \"#utility.yul\":9100:9115   */\n  add\n    /* \"#utility.yul\":9093:9124   */\n  mstore\n    /* \"#utility.yul\":8908:9131   */\n  pop\n  jump\t// out\n    /* \"#utility.yul\":9137:9370   */\ntag_121:\n    /* \"#utility.yul\":9277:9311   */\n  0x4469737472696275746f723a204c656e6774686573206d757374206d61746368\n    /* \"#utility.yul\":9273:9274   */\n  0x00\n    /* \"#utility.yul\":9265:9271   */\n  dup3\n    /* \"#utility.yul\":9261:9275   */\n  add\n    /* \"#utility.yul\":9254:9312   */\n  mstore\n    /* \"#utility.yul\":9346:9362   */\n  0x206e756d626572506572696f6473000000000000000000000000000000000000\n    /* \"#utility.yul\":9341:9343   */\n  0x20\n    /* \"#utility.yul\":9333:9339   */\n  dup3\n    /* \"#utility.yul\":9329:9344   */\n  add\n    /* \"#utility.yul\":9322:9363   */\n  mstore\n    /* \"#utility.yul\":9137:9370   */\n  pop\n  jump\t// out\n    /* \"#utility.yul\":9376:9498   */\ntag_79:\n    /* \"#utility.yul\":9449:9473   */\n  tag_180\n    /* \"#utility.yul\":9467:9472   */\n  dup2\n    /* \"#utility.yul\":9449:9473   */\n  tag_154\n  jump\t// in\ntag_180:\n    /* \"#utility.yul\":9442:9447   */\n  dup2\n    /* \"#utility.yul\":9439:9474   */\n  eq\n    /* \"#utility.yul\":9429:9492   */\n  tag_181\n  jumpi\n    /* \"#utility.yul\":9488:9489   */\n  0x00\n    /* \"#utility.yul\":9485:9486   */\n  dup1\n    /* \"#utility.yul\":9478:9490   */\n  revert\n    /* \"#utility.yul\":9429:9492   */\ntag_181:\n    /* \"#utility.yul\":9376:9498   */\n  pop\n  jump\t// out\n    /* \"#utility.yul\":9504:9626   */\ntag_88:\n    /* \"#utility.yul\":9577:9601   */\n  tag_183\n    /* \"#utility.yul\":9595:9600   */\n  dup2\n    /* \"#utility.yul\":9577:9601   */\n  tag_139\n  jump\t// in\ntag_183:\n    /* \"#utility.yul\":9570:9575   */\n  dup2\n    /* \"#utility.yul\":9567:9602   */\n  eq\n    /* \"#utility.yul\":9557:9620   */\n  tag_184\n  jumpi\n    /* \"#utility.yul\":9616:9617   */\n  0x00\n    /* \"#utility.yul\":9613:9614   */\n  dup1\n    /* \"#utility.yul\":9606:9618   */\n  revert\n    /* \"#utility.yul\":9557:9620   */\ntag_184:\n    /* \"#utility.yul\":9504:9626   */\n  pop\n  jump\t// out\n    /* \"contracts/TokenDistributor.sol\":422:14968  contract TokenDistributor is ReentrancyGuard {\r... */\ntag_60:\n  shr(0x60, mload(0x80))\n  shr(0x60, mload(0xa0))\n  mload(0xc0)\n  mload(0xe0)\n  codecopy(0x00, dataOffset(sub_0), dataSize(sub_0))\n  0x00\n  assignImmutable(\"0xda454547ca5f9bde387781b7470d1c4b06be980d23784ba34fd5243580f9e233\")\n  0x00\n  assignImmutable(\"0xafcd10eb8a933fb34272fbf3a0d55ec898d75144e8be37ea9b6ca4a0ee7bc3b2\")\n  0x00\n  assignImmutable(\"0xa752a62a6f5fb32dd4e041dbf29a56f1f90fbf8d8356b6069d6d3304e11d2d2e\")\n  0x00\n  assignImmutable(\"0x94ac46a65f1fb0934ae334b85100dc6a35a94d53aa1e2b4e46f9a861095e9ac0\")\n  return(0x00, dataSize(sub_0))\nstop\n\nsub_0: assembly {\n        /* \"contracts/TokenDistributor.sol\":422:14968  contract TokenDistributor is ReentrancyGuard {\r... */\n      mstore(0x40, 0x80)\n      callvalue\n      dup1\n      iszero\n      tag_1\n      jumpi\n      0x00\n      dup1\n      revert\n    tag_1:\n      pop\n      jumpi(tag_2, lt(calldatasize, 0x04))\n      shr(0xe0, calldataload(0x00))\n      dup1\n      0x853828b6\n      gt\n      tag_23\n      jumpi\n      dup1\n      0xc1027c98\n      gt\n      tag_24\n      jumpi\n      dup1\n      0xc1027c98\n      eq\n      tag_18\n      jumpi\n      dup1\n      0xccd34cd5\n      eq\n      tag_19\n      jumpi\n      dup1\n      0xe3161ddd\n      eq\n      tag_20\n      jumpi\n      dup1\n      0xe683d96f\n      eq\n      tag_21\n      jumpi\n      dup1\n      0xfe961f61\n      eq\n      tag_22\n      jumpi\n      jump(tag_2)\n    tag_24:\n      dup1\n      0x853828b6\n      eq\n      tag_13\n      jumpi\n      dup1\n      0x8f662915\n      eq\n      tag_14\n      jumpi\n      dup1\n      0xa46074c3\n      eq\n      tag_15\n      jumpi\n      dup1\n      0xa9f8d181\n      eq\n      tag_16\n      jumpi\n      dup1\n      0xb6b55f25\n      eq\n      tag_17\n      jumpi\n      jump(tag_2)\n    tag_23:\n      dup1\n      0x2e1a7d4d\n      gt\n      tag_25\n      jumpi\n      dup1\n      0x2e1a7d4d\n      eq\n      tag_8\n      jumpi\n      dup1\n      0x36db9fb2\n      eq\n      tag_9\n      jumpi\n      dup1\n      0x39b3e826\n      eq\n      tag_10\n      jumpi\n      dup1\n      0x52bf348c\n      eq\n      tag_11\n      jumpi\n      dup1\n      0x5a9477e9\n      eq\n      tag_12\n      jumpi\n      jump(tag_2)\n    tag_25:\n      dup1\n      0x055ad42e\n      eq\n      tag_3\n      jumpi\n      dup1\n      0x083c6323\n      eq\n      tag_4\n      jumpi\n      dup1\n      0x097aad10\n      eq\n      tag_5\n      jumpi\n      dup1\n      0x1959a002\n      eq\n      tag_6\n      jumpi\n      dup1\n      0x2a4e051b\n      eq\n      tag_7\n      jumpi\n    tag_2:\n      0x00\n      dup1\n      revert\n        /* \"contracts/TokenDistributor.sol\":1333:1360  uint256 public currentPhase */\n    tag_3:\n      tag_26\n      tag_27\n      jump\t// in\n    tag_26:\n      mload(0x40)\n      tag_28\n      swap2\n      swap1\n      tag_29\n      jump\t// in\n    tag_28:\n      mload(0x40)\n      dup1\n      swap2\n      sub\n      swap1\n      return\n        /* \"contracts/TokenDistributor.sol\":1407:1430  uint256 public endBlock */\n    tag_4:\n      tag_30\n      tag_31\n      jump\t// in\n    tag_30:\n      mload(0x40)\n      tag_32\n      swap2\n      swap1\n      tag_29\n      jump\t// in\n    tag_32:\n      mload(0x40)\n      dup1\n      swap2\n      sub\n      swap1\n      return\n        /* \"contracts/TokenDistributor.sol\":9656:11642  function calculatePendingRewards(address user) external view returns (uint256) {\r... */\n    tag_5:\n      tag_33\n      0x04\n      dup1\n      calldatasize\n      sub\n      dup2\n      add\n      swap1\n      tag_34\n      swap2\n      swap1\n      tag_35\n      jump\t// in\n    tag_34:\n      tag_36\n      jump\t// in\n    tag_33:\n      mload(0x40)\n      tag_37\n      swap2\n      swap1\n      tag_29\n      jump\t// in\n    tag_37:\n      mload(0x40)\n      dup1\n      swap2\n      sub\n      swap1\n      return\n        /* \"contracts/TokenDistributor.sol\":1886:1930  mapping(address => UserInfo) public userInfo */\n    tag_6:\n      tag_38\n      0x04\n      dup1\n      calldatasize\n      sub\n      dup2\n      add\n      swap1\n      tag_39\n      swap2\n      swap1\n      tag_35\n      jump\t// in\n    tag_39:\n      tag_40\n      jump\t// in\n    tag_38:\n      mload(0x40)\n      tag_41\n      swap3\n      swap2\n      swap1\n      tag_42\n      jump\t// in\n    tag_41:\n      mload(0x40)\n      dup1\n      swap2\n      sub\n      swap1\n      return\n        /* \"contracts/TokenDistributor.sol\":6256:7202  function harvestAndCompound() external nonReentrant {\r... */\n    tag_7:\n      tag_43\n      tag_44\n      jump\t// in\n    tag_43:\n      stop\n        /* \"contracts/TokenDistributor.sol\":7475:8481  function withdraw(uint256 amount) external nonReentrant {\r... */\n    tag_8:\n      tag_45\n      0x04\n      dup1\n      calldatasize\n      sub\n      dup2\n      add\n      swap1\n      tag_46\n      swap2\n      swap1\n      tag_47\n      jump\t// in\n    tag_46:\n      tag_48\n      jump\t// in\n    tag_45:\n      stop\n        /* \"contracts/TokenDistributor.sol\":958:1000  ITestToken public immutable looksRareToken */\n    tag_9:\n      tag_49\n      tag_50\n      jump\t// in\n    tag_49:\n      mload(0x40)\n      tag_51\n      swap2\n      swap1\n      tag_52\n      jump\t// in\n    tag_51:\n      mload(0x40)\n      dup1\n      swap2\n      sub\n      swap1\n      return\n        /* \"contracts/TokenDistributor.sol\":1177:1213  uint256 public immutable START_BLOCK */\n    tag_10:\n      tag_53\n      tag_54\n      jump\t// in\n    tag_53:\n      mload(0x40)\n      tag_55\n      swap2\n      swap1\n      tag_29\n      jump\t// in\n    tag_55:\n      mload(0x40)\n      dup1\n      swap2\n      sub\n      swap1\n      return\n        /* \"contracts/TokenDistributor.sol\":1089:1128  uint256 public immutable NUMBER_PERIODS */\n    tag_11:\n      tag_56\n      tag_57\n      jump\t// in\n    tag_56:\n      mload(0x40)\n      tag_58\n      swap2\n      swap1\n      tag_29\n      jump\t// in\n    tag_58:\n      mload(0x40)\n      dup1\n      swap2\n      sub\n      swap1\n      return\n        /* \"contracts/TokenDistributor.sol\":1706:1745  uint256 public rewardPerBlockForStaking */\n    tag_12:\n      tag_59\n      tag_60\n      jump\t// in\n    tag_59:\n      mload(0x40)\n      tag_61\n      swap2\n      swap1\n      tag_29\n      jump\t// in\n    tag_61:\n      mload(0x40)\n      dup1\n      swap2\n      sub\n      swap1\n      return\n        /* \"contracts/TokenDistributor.sol\":8569:9505  function withdrawAll() external nonReentrant {\r... */\n    tag_13:\n      tag_62\n      tag_63\n      jump\t// in\n    tag_62:\n      stop\n        /* \"contracts/TokenDistributor.sol\":1259:1290  uint256 public accTokenPerShare */\n    tag_14:\n      tag_64\n      tag_65\n      jump\t// in\n    tag_64:\n      mload(0x40)\n      tag_66\n      swap2\n      swap1\n      tag_29\n      jump\t// in\n    tag_66:\n      mload(0x40)\n      dup1\n      swap2\n      sub\n      swap1\n      return\n        /* \"contracts/TokenDistributor.sol\":1009:1047  address public immutable tokenSplitter */\n    tag_15:\n      tag_67\n      tag_68\n      jump\t// in\n    tag_67:\n      mload(0x40)\n      tag_69\n      swap2\n      swap1\n      tag_70\n      jump\t// in\n    tag_69:\n      mload(0x40)\n      dup1\n      swap2\n      sub\n      swap1\n      return\n        /* \"contracts/TokenDistributor.sol\":1479:1509  uint256 public lastRewardBlock */\n    tag_16:\n      tag_71\n      tag_72\n      jump\t// in\n    tag_71:\n      mload(0x40)\n      tag_73\n      swap2\n      swap1\n      tag_29\n      jump\t// in\n    tag_73:\n      mload(0x40)\n      dup1\n      swap2\n      sub\n      swap1\n      return\n        /* \"contracts/TokenDistributor.sol\":5142:6180  function deposit(uint256 amount) external nonReentrant {\r... */\n    tag_17:\n      tag_74\n      0x04\n      dup1\n      calldatasize\n      sub\n      dup2\n      add\n      swap1\n      tag_75\n      swap2\n      swap1\n      tag_47\n      jump\t// in\n    tag_75:\n      tag_76\n      jump\t// in\n    tag_74:\n      stop\n        /* \"contracts/TokenDistributor.sol\":1823:1877  mapping(uint256 => StakingPeriod) public stakingPeriod */\n    tag_18:\n      tag_77\n      0x04\n      dup1\n      calldatasize\n      sub\n      dup2\n      add\n      swap1\n      tag_78\n      swap2\n      swap1\n      tag_47\n      jump\t// in\n    tag_78:\n      tag_79\n      jump\t// in\n    tag_77:\n      mload(0x40)\n      tag_80\n      swap4\n      swap3\n      swap2\n      swap1\n      tag_81\n      jump\t// in\n    tag_80:\n      mload(0x40)\n      dup1\n      swap2\n      sub\n      swap1\n      return\n        /* \"contracts/TokenDistributor.sol\":900:949  uint256 public constant PRECISION_FACTOR = 10**12 */\n    tag_19:\n      tag_82\n      tag_83\n      jump\t// in\n    tag_82:\n      mload(0x40)\n      tag_84\n      swap2\n      swap1\n      tag_29\n      jump\t// in\n    tag_84:\n      mload(0x40)\n      dup1\n      swap2\n      sub\n      swap1\n      return\n        /* \"contracts/TokenDistributor.sol\":7264:7340  function updatePool() external nonReentrant {\r... */\n    tag_20:\n      tag_85\n      tag_86\n      jump\t// in\n    tag_85:\n      stop\n        /* \"contracts/TokenDistributor.sol\":1610:1648  uint256 public rewardPerBlockForOthers */\n    tag_21:\n      tag_87\n      tag_88\n      jump\t// in\n    tag_87:\n      mload(0x40)\n      tag_89\n      swap2\n      swap1\n      tag_29\n      jump\t// in\n    tag_89:\n      mload(0x40)\n      dup1\n      swap2\n      sub\n      swap1\n      return\n        /* \"contracts/TokenDistributor.sol\":1782:1814  uint256 public totalAmountStaked */\n    tag_22:\n      tag_90\n      tag_91\n      jump\t// in\n    tag_90:\n      mload(0x40)\n      tag_92\n      swap2\n      swap1\n      tag_29\n      jump\t// in\n    tag_92:\n      mload(0x40)\n      dup1\n      swap2\n      sub\n      swap1\n      return\n        /* \"contracts/TokenDistributor.sol\":1333:1360  uint256 public currentPhase */\n    tag_27:\n      sload(0x02)\n      dup2\n      jump\t// out\n        /* \"contracts/TokenDistributor.sol\":1407:1430  uint256 public endBlock */\n    tag_31:\n      sload(0x03)\n      dup2\n      jump\t// out\n        /* \"contracts/TokenDistributor.sol\":9656:11642  function calculatePendingRewards(address user) external view returns (uint256) {\r... */\n    tag_36:\n        /* \"contracts/TokenDistributor.sol\":9726:9733  uint256 */\n      0x00\n        /* \"contracts/TokenDistributor.sol\":9766:9781  lastRewardBlock */\n      sload(0x04)\n        /* \"contracts/TokenDistributor.sol\":9751:9763  block.number */\n      number\n        /* \"contracts/TokenDistributor.sol\":9751:9781  block.number > lastRewardBlock */\n      gt\n        /* \"contracts/TokenDistributor.sol\":9750:9810  (block.number > lastRewardBlock) && (totalAmountStaked != 0) */\n      dup1\n      iszero\n      tag_94\n      jumpi\n      pop\n        /* \"contracts/TokenDistributor.sol\":9808:9809  0 */\n      0x00\n        /* \"contracts/TokenDistributor.sol\":9787:9804  totalAmountStaked */\n      sload(0x07)\n        /* \"contracts/TokenDistributor.sol\":9787:9809  totalAmountStaked != 0 */\n      eq\n      iszero\n        /* \"contracts/TokenDistributor.sol\":9750:9810  (block.number > lastRewardBlock) && (totalAmountStaked != 0) */\n    tag_94:\n        /* \"contracts/TokenDistributor.sol\":9746:11635  if ((block.number > lastRewardBlock) && (totalAmountStaked != 0)) {\r... */\n      iszero\n      tag_95\n      jumpi\n        /* \"contracts/TokenDistributor.sol\":9827:9845  uint256 multiplier */\n      0x00\n        /* \"contracts/TokenDistributor.sol\":9848:9893  _getMultiplier(lastRewardBlock, block.number) */\n      tag_96\n        /* \"contracts/TokenDistributor.sol\":9863:9878  lastRewardBlock */\n      sload(0x04)\n        /* \"contracts/TokenDistributor.sol\":9880:9892  block.number */\n      number\n        /* \"contracts/TokenDistributor.sol\":9848:9862  _getMultiplier */\n      tag_97\n        /* \"contracts/TokenDistributor.sol\":9848:9893  _getMultiplier(lastRewardBlock, block.number) */\n      jump\t// in\n    tag_96:\n        /* \"contracts/TokenDistributor.sol\":9827:9893  uint256 multiplier = _getMultiplier(lastRewardBlock, block.number) */\n      swap1\n      pop\n        /* \"contracts/TokenDistributor.sol\":9910:9939  uint256 tokenRewardForStaking */\n      0x00\n        /* \"contracts/TokenDistributor.sol\":9955:9979  rewardPerBlockForStaking */\n      sload(0x06)\n        /* \"contracts/TokenDistributor.sol\":9942:9952  multiplier */\n      dup3\n        /* \"contracts/TokenDistributor.sol\":9942:9979  multiplier * rewardPerBlockForStaking */\n      tag_98\n      swap2\n      swap1\n      tag_99\n      jump\t// in\n    tag_98:\n        /* \"contracts/TokenDistributor.sol\":9910:9979  uint256 tokenRewardForStaking = multiplier * rewardPerBlockForStaking */\n      swap1\n      pop\n        /* \"contracts/TokenDistributor.sol\":9996:10020  uint256 adjustedEndBlock */\n      0x00\n        /* \"contracts/TokenDistributor.sol\":10023:10031  endBlock */\n      sload(0x03)\n        /* \"contracts/TokenDistributor.sol\":9996:10031  uint256 adjustedEndBlock = endBlock */\n      swap1\n      pop\n        /* \"contracts/TokenDistributor.sol\":10046:10074  uint256 adjustedCurrentPhase */\n      0x00\n        /* \"contracts/TokenDistributor.sol\":10077:10089  currentPhase */\n      sload(0x02)\n        /* \"contracts/TokenDistributor.sol\":10046:10089  uint256 adjustedCurrentPhase = currentPhase */\n      swap1\n      pop\n        /* \"contracts/TokenDistributor.sol\":10179:11213  while ((block.number > adjustedEndBlock) && (adjustedCurrentPhase < (NUMBER_PERIODS - 1))) {\r... */\n    tag_100:\n        /* \"contracts/TokenDistributor.sol\":10202:10218  adjustedEndBlock */\n      dup2\n        /* \"contracts/TokenDistributor.sol\":10187:10199  block.number */\n      number\n        /* \"contracts/TokenDistributor.sol\":10187:10218  block.number > adjustedEndBlock */\n      gt\n        /* \"contracts/TokenDistributor.sol\":10186:10268  (block.number > adjustedEndBlock) && (adjustedCurrentPhase < (NUMBER_PERIODS - 1)) */\n      dup1\n      iszero\n      tag_102\n      jumpi\n      pop\n        /* \"contracts/TokenDistributor.sol\":10265:10266  1 */\n      0x01\n        /* \"contracts/TokenDistributor.sol\":10248:10262  NUMBER_PERIODS */\n      immutable(\"0xafcd10eb8a933fb34272fbf3a0d55ec898d75144e8be37ea9b6ca4a0ee7bc3b2\")\n        /* \"contracts/TokenDistributor.sol\":10248:10266  NUMBER_PERIODS - 1 */\n      tag_103\n      swap2\n      swap1\n      tag_104\n      jump\t// in\n    tag_103:\n        /* \"contracts/TokenDistributor.sol\":10224:10244  adjustedCurrentPhase */\n      dup2\n        /* \"contracts/TokenDistributor.sol\":10224:10267  adjustedCurrentPhase < (NUMBER_PERIODS - 1) */\n      lt\n        /* \"contracts/TokenDistributor.sol\":10186:10268  (block.number > adjustedEndBlock) && (adjustedCurrentPhase < (NUMBER_PERIODS - 1)) */\n    tag_102:\n        /* \"contracts/TokenDistributor.sol\":10179:11213  while ((block.number > adjustedEndBlock) && (adjustedCurrentPhase < (NUMBER_PERIODS - 1))) {\r... */\n      iszero\n      tag_101\n      jumpi\n        /* \"contracts/TokenDistributor.sol\":10330:10352  adjustedCurrentPhase++ */\n      dup1\n      dup1\n      tag_105\n      swap1\n      tag_106\n      jump\t// in\n    tag_105:\n      swap2\n      pop\n      pop\n        /* \"contracts/TokenDistributor.sol\":10418:10458  uint256 adjustedRewardPerBlockForStaking */\n      0x00\n        /* \"contracts/TokenDistributor.sol\":10461:10474  stakingPeriod */\n      0x08\n        /* \"contracts/TokenDistributor.sol\":10461:10496  stakingPeriod[adjustedCurrentPhase] */\n      0x00\n        /* \"contracts/TokenDistributor.sol\":10475:10495  adjustedCurrentPhase */\n      dup4\n        /* \"contracts/TokenDistributor.sol\":10461:10496  stakingPeriod[adjustedCurrentPhase] */\n      dup2\n      mstore\n      0x20\n      add\n      swap1\n      dup2\n      mstore\n      0x20\n      add\n      0x00\n      keccak256\n        /* \"contracts/TokenDistributor.sol\":10461:10521  stakingPeriod[adjustedCurrentPhase].rewardPerBlockForStaking */\n      0x00\n      add\n      sload\n        /* \"contracts/TokenDistributor.sol\":10418:10521  uint256 adjustedRewardPerBlockForStaking = stakingPeriod[adjustedCurrentPhase].rewardPerBlockForStaking */\n      swap1\n      pop\n        /* \"contracts/TokenDistributor.sol\":10594:10618  uint256 previousEndBlock */\n      0x00\n        /* \"contracts/TokenDistributor.sol\":10621:10637  adjustedEndBlock */\n      dup4\n        /* \"contracts/TokenDistributor.sol\":10594:10637  uint256 previousEndBlock = adjustedEndBlock */\n      swap1\n      pop\n        /* \"contracts/TokenDistributor.sol\":10733:10746  stakingPeriod */\n      0x08\n        /* \"contracts/TokenDistributor.sol\":10733:10768  stakingPeriod[adjustedCurrentPhase] */\n      0x00\n        /* \"contracts/TokenDistributor.sol\":10747:10767  adjustedCurrentPhase */\n      dup5\n        /* \"contracts/TokenDistributor.sol\":10733:10768  stakingPeriod[adjustedCurrentPhase] */\n      dup2\n      mstore\n      0x20\n      add\n      swap1\n      dup2\n      mstore\n      0x20\n      add\n      0x00\n      keccak256\n        /* \"contracts/TokenDistributor.sol\":10733:10788  stakingPeriod[adjustedCurrentPhase].periodLengthInBlock */\n      0x02\n      add\n      sload\n        /* \"contracts/TokenDistributor.sol\":10714:10730  previousEndBlock */\n      dup2\n        /* \"contracts/TokenDistributor.sol\":10714:10788  previousEndBlock + stakingPeriod[adjustedCurrentPhase].periodLengthInBlock */\n      tag_107\n      swap2\n      swap1\n      tag_108\n      jump\t// in\n    tag_107:\n        /* \"contracts/TokenDistributor.sol\":10695:10788  adjustedEndBlock = previousEndBlock + stakingPeriod[adjustedCurrentPhase].periodLengthInBlock */\n      swap4\n      pop\n        /* \"contracts/TokenDistributor.sol\":10854:10875  uint256 newMultiplier */\n      0x00\n        /* \"contracts/TokenDistributor.sol\":10895:10911  adjustedEndBlock */\n      dup5\n        /* \"contracts/TokenDistributor.sol\":10879:10891  block.number */\n      number\n        /* \"contracts/TokenDistributor.sol\":10879:10911  block.number <= adjustedEndBlock */\n      gt\n      iszero\n        /* \"contracts/TokenDistributor.sol\":10878:11048  (block.number <= adjustedEndBlock)\r... */\n      tag_109\n      jumpi\n        /* \"contracts/TokenDistributor.sol\":10993:11006  stakingPeriod */\n      0x08\n        /* \"contracts/TokenDistributor.sol\":10993:11028  stakingPeriod[adjustedCurrentPhase] */\n      0x00\n        /* \"contracts/TokenDistributor.sol\":11007:11027  adjustedCurrentPhase */\n      dup6\n        /* \"contracts/TokenDistributor.sol\":10993:11028  stakingPeriod[adjustedCurrentPhase] */\n      dup2\n      mstore\n      0x20\n      add\n      swap1\n      dup2\n      mstore\n      0x20\n      add\n      0x00\n      keccak256\n        /* \"contracts/TokenDistributor.sol\":10993:11048  stakingPeriod[adjustedCurrentPhase].periodLengthInBlock */\n      0x02\n      add\n      sload\n        /* \"contracts/TokenDistributor.sol\":10878:11048  (block.number <= adjustedEndBlock)\r... */\n      jump(tag_110)\n    tag_109:\n        /* \"contracts/TokenDistributor.sol\":10952:10968  previousEndBlock */\n      dup2\n        /* \"contracts/TokenDistributor.sol\":10937:10949  block.number */\n      number\n        /* \"contracts/TokenDistributor.sol\":10937:10968  block.number - previousEndBlock */\n      tag_111\n      swap2\n      swap1\n      tag_104\n      jump\t// in\n    tag_111:\n        /* \"contracts/TokenDistributor.sol\":10878:11048  (block.number <= adjustedEndBlock)\r... */\n    tag_110:\n        /* \"contracts/TokenDistributor.sol\":10854:11048  uint256 newMultiplier = (block.number <= adjustedEndBlock)\r... */\n      swap1\n      pop\n        /* \"contracts/TokenDistributor.sol\":11164:11196  adjustedRewardPerBlockForStaking */\n      dup3\n        /* \"contracts/TokenDistributor.sol\":11148:11161  newMultiplier */\n      dup2\n        /* \"contracts/TokenDistributor.sol\":11148:11196  newMultiplier * adjustedRewardPerBlockForStaking */\n      tag_112\n      swap2\n      swap1\n      tag_99\n      jump\t// in\n    tag_112:\n        /* \"contracts/TokenDistributor.sol\":11122:11197  tokenRewardForStaking += (newMultiplier * adjustedRewardPerBlockForStaking) */\n      dup7\n      tag_113\n      swap2\n      swap1\n      tag_108\n      jump\t// in\n    tag_113:\n      swap6\n      pop\n        /* \"contracts/TokenDistributor.sol\":10270:11213  {\r... */\n      pop\n      pop\n      pop\n        /* \"contracts/TokenDistributor.sol\":10179:11213  while ((block.number > adjustedEndBlock) && (adjustedCurrentPhase < (NUMBER_PERIODS - 1))) {\r... */\n      jump(tag_100)\n    tag_101:\n        /* \"contracts/TokenDistributor.sol\":11229:11258  uint256 adjustedTokenPerShare */\n      0x00\n        /* \"contracts/TokenDistributor.sol\":11359:11376  totalAmountStaked */\n      sload(0x07)\n        /* \"contracts/TokenDistributor.sol\":943:949  10**12 */\n      0xe8d4a51000\n        /* \"contracts/TokenDistributor.sol\":11298:11319  tokenRewardForStaking */\n      dup6\n        /* \"contracts/TokenDistributor.sol\":11298:11338  tokenRewardForStaking * PRECISION_FACTOR */\n      tag_114\n      swap2\n      swap1\n      tag_99\n      jump\t// in\n    tag_114:\n        /* \"contracts/TokenDistributor.sol\":11297:11376  (tokenRewardForStaking * PRECISION_FACTOR) /\r... */\n      tag_115\n      swap2\n      swap1\n      tag_116\n      jump\t// in\n    tag_115:\n        /* \"contracts/TokenDistributor.sol\":11261:11277  accTokenPerShare */\n      sload(0x01)\n        /* \"contracts/TokenDistributor.sol\":11261:11376  accTokenPerShare +\r... */\n      tag_117\n      swap2\n      swap1\n      tag_108\n      jump\t// in\n    tag_117:\n        /* \"contracts/TokenDistributor.sol\":11229:11376  uint256 adjustedTokenPerShare = accTokenPerShare +\r... */\n      swap1\n      pop\n        /* \"contracts/TokenDistributor.sol\":11469:11477  userInfo */\n      0x09\n        /* \"contracts/TokenDistributor.sol\":11469:11483  userInfo[user] */\n      0x00\n        /* \"contracts/TokenDistributor.sol\":11478:11482  user */\n      dup9\n        /* \"contracts/TokenDistributor.sol\":11469:11483  userInfo[user] */\n      0xffffffffffffffffffffffffffffffffffffffff\n      and\n      0xffffffffffffffffffffffffffffffffffffffff\n      and\n      dup2\n      mstore\n      0x20\n      add\n      swap1\n      dup2\n      mstore\n      0x20\n      add\n      0x00\n      keccak256\n        /* \"contracts/TokenDistributor.sol\":11469:11494  userInfo[user].rewardDebt */\n      0x01\n      add\n      sload\n        /* \"contracts/TokenDistributor.sol\":943:949  10**12 */\n      0xe8d4a51000\n        /* \"contracts/TokenDistributor.sol\":11425:11446  adjustedTokenPerShare */\n      dup3\n        /* \"contracts/TokenDistributor.sol\":11401:11409  userInfo */\n      0x09\n        /* \"contracts/TokenDistributor.sol\":11401:11415  userInfo[user] */\n      0x00\n        /* \"contracts/TokenDistributor.sol\":11410:11414  user */\n      dup12\n        /* \"contracts/TokenDistributor.sol\":11401:11415  userInfo[user] */\n      0xffffffffffffffffffffffffffffffffffffffff\n      and\n      0xffffffffffffffffffffffffffffffffffffffff\n      and\n      dup2\n      mstore\n      0x20\n      add\n      swap1\n      dup2\n      mstore\n      0x20\n      add\n      0x00\n      keccak256\n        /* \"contracts/TokenDistributor.sol\":11401:11422  userInfo[user].amount */\n      0x00\n      add\n      sload\n        /* \"contracts/TokenDistributor.sol\":11401:11446  userInfo[user].amount * adjustedTokenPerShare */\n      tag_118\n      swap2\n      swap1\n      tag_99\n      jump\t// in\n    tag_118:\n        /* \"contracts/TokenDistributor.sol\":11400:11466  (userInfo[user].amount * adjustedTokenPerShare) / PRECISION_FACTOR */\n      tag_119\n      swap2\n      swap1\n      tag_116\n      jump\t// in\n    tag_119:\n        /* \"contracts/TokenDistributor.sol\":11400:11494  (userInfo[user].amount * adjustedTokenPerShare) / PRECISION_FACTOR - userInfo[user].rewardDebt */\n      tag_120\n      swap2\n      swap1\n      tag_104\n      jump\t// in\n    tag_120:\n        /* \"contracts/TokenDistributor.sol\":11393:11494  return (userInfo[user].amount * adjustedTokenPerShare) / PRECISION_FACTOR - userInfo[user].rewardDebt */\n      swap6\n      pop\n      pop\n      pop\n      pop\n      pop\n      pop\n      jump(tag_93)\n        /* \"contracts/TokenDistributor.sol\":9746:11635  if ((block.number > lastRewardBlock) && (totalAmountStaked != 0)) {\r... */\n    tag_95:\n        /* \"contracts/TokenDistributor.sol\":11598:11606  userInfo */\n      0x09\n        /* \"contracts/TokenDistributor.sol\":11598:11612  userInfo[user] */\n      0x00\n        /* \"contracts/TokenDistributor.sol\":11607:11611  user */\n      dup4\n        /* \"contracts/TokenDistributor.sol\":11598:11612  userInfo[user] */\n      0xffffffffffffffffffffffffffffffffffffffff\n      and\n      0xffffffffffffffffffffffffffffffffffffffff\n      and\n      dup2\n      mstore\n      0x20\n      add\n      swap1\n      dup2\n      mstore\n      0x20\n      add\n      0x00\n      keccak256\n        /* \"contracts/TokenDistributor.sol\":11598:11623  userInfo[user].rewardDebt */\n      0x01\n      add\n      sload\n        /* \"contracts/TokenDistributor.sol\":943:949  10**12 */\n      0xe8d4a51000\n        /* \"contracts/TokenDistributor.sol\":11559:11575  accTokenPerShare */\n      sload(0x01)\n        /* \"contracts/TokenDistributor.sol\":11535:11543  userInfo */\n      0x09\n        /* \"contracts/TokenDistributor.sol\":11535:11549  userInfo[user] */\n      0x00\n        /* \"contracts/TokenDistributor.sol\":11544:11548  user */\n      dup7\n        /* \"contracts/TokenDistributor.sol\":11535:11549  userInfo[user] */\n      0xffffffffffffffffffffffffffffffffffffffff\n      and\n      0xffffffffffffffffffffffffffffffffffffffff\n      and\n      dup2\n      mstore\n      0x20\n      add\n      swap1\n      dup2\n      mstore\n      0x20\n      add\n      0x00\n      keccak256\n        /* \"contracts/TokenDistributor.sol\":11535:11556  userInfo[user].amount */\n      0x00\n      add\n      sload\n        /* \"contracts/TokenDistributor.sol\":11535:11575  userInfo[user].amount * accTokenPerShare */\n      tag_122\n      swap2\n      swap1\n      tag_99\n      jump\t// in\n    tag_122:\n        /* \"contracts/TokenDistributor.sol\":11534:11595  (userInfo[user].amount * accTokenPerShare) / PRECISION_FACTOR */\n      tag_123\n      swap2\n      swap1\n      tag_116\n      jump\t// in\n    tag_123:\n        /* \"contracts/TokenDistributor.sol\":11534:11623  (userInfo[user].amount * accTokenPerShare) / PRECISION_FACTOR - userInfo[user].rewardDebt */\n      tag_124\n      swap2\n      swap1\n      tag_104\n      jump\t// in\n    tag_124:\n        /* \"contracts/TokenDistributor.sol\":11527:11623  return (userInfo[user].amount * accTokenPerShare) / PRECISION_FACTOR - userInfo[user].rewardDebt */\n      swap1\n      pop\n        /* \"contracts/TokenDistributor.sol\":9656:11642  function calculatePendingRewards(address user) external view returns (uint256) {\r... */\n    tag_93:\n      swap2\n      swap1\n      pop\n      jump\t// out\n        /* \"contracts/TokenDistributor.sol\":1886:1930  mapping(address => UserInfo) public userInfo */\n    tag_40:\n      mstore(0x20, 0x09)\n      dup1\n      0x00\n      mstore\n      keccak256(0x00, 0x40)\n      0x00\n      swap2\n      pop\n      swap1\n      pop\n      dup1\n      0x00\n      add\n      sload\n      swap1\n      dup1\n      0x01\n      add\n      sload\n      swap1\n      pop\n      dup3\n      jump\t// out\n        /* \"contracts/TokenDistributor.sol\":6256:7202  function harvestAndCompound() external nonReentrant {\r... */\n    tag_44:\n        /* \"@openzeppelin/contracts/security/ReentrancyGuard.sol\":1744:1745  2 */\n      0x02\n        /* \"@openzeppelin/contracts/security/ReentrancyGuard.sol\":2325:2332  _status */\n      sload(0x00)\n        /* \"@openzeppelin/contracts/security/ReentrancyGuard.sol\":2325:2344  _status != _ENTERED */\n      eq\n      iszero\n        /* \"@openzeppelin/contracts/security/ReentrancyGuard.sol\":2317:2380  require(_status != _ENTERED, \"ReentrancyGuard: reentrant call\") */\n      tag_126\n      jumpi\n      mload(0x40)\n      0x08c379a000000000000000000000000000000000000000000000000000000000\n      dup2\n      mstore\n      0x04\n      add\n      tag_127\n      swap1\n      tag_128\n      jump\t// in\n    tag_127:\n      mload(0x40)\n      dup1\n      swap2\n      sub\n      swap1\n      revert\n    tag_126:\n        /* \"@openzeppelin/contracts/security/ReentrancyGuard.sol\":1744:1745  2 */\n      0x02\n        /* \"@openzeppelin/contracts/security/ReentrancyGuard.sol\":2455:2462  _status */\n      0x00\n        /* \"@openzeppelin/contracts/security/ReentrancyGuard.sol\":2455:2473  _status = _ENTERED */\n      dup2\n      swap1\n      sstore\n      pop\n        /* \"contracts/TokenDistributor.sol\":6355:6368  _updatePool() */\n      tag_130\n        /* \"contracts/TokenDistributor.sol\":6355:6366  _updatePool */\n      tag_131\n        /* \"contracts/TokenDistributor.sol\":6355:6368  _updatePool() */\n      jump\t// in\n    tag_130:\n        /* \"contracts/TokenDistributor.sol\":6419:6441  uint256 pendingRewards */\n      0x00\n        /* \"contracts/TokenDistributor.sol\":6529:6537  userInfo */\n      0x09\n        /* \"contracts/TokenDistributor.sol\":6529:6549  userInfo[msg.sender] */\n      0x00\n        /* \"contracts/TokenDistributor.sol\":6538:6548  msg.sender */\n      caller\n        /* \"contracts/TokenDistributor.sol\":6529:6549  userInfo[msg.sender] */\n      0xffffffffffffffffffffffffffffffffffffffff\n      and\n      0xffffffffffffffffffffffffffffffffffffffff\n      and\n      dup2\n      mstore\n      0x20\n      add\n      swap1\n      dup2\n      mstore\n      0x20\n      add\n      0x00\n      keccak256\n        /* \"contracts/TokenDistributor.sol\":6529:6560  userInfo[msg.sender].rewardDebt */\n      0x01\n      add\n      sload\n        /* \"contracts/TokenDistributor.sol\":943:949  10**12 */\n      0xe8d4a51000\n        /* \"contracts/TokenDistributor.sol\":6476:6492  accTokenPerShare */\n      sload(0x01)\n        /* \"contracts/TokenDistributor.sol\":6446:6454  userInfo */\n      0x09\n        /* \"contracts/TokenDistributor.sol\":6446:6466  userInfo[msg.sender] */\n      0x00\n        /* \"contracts/TokenDistributor.sol\":6455:6465  msg.sender */\n      caller\n        /* \"contracts/TokenDistributor.sol\":6446:6466  userInfo[msg.sender] */\n      0xffffffffffffffffffffffffffffffffffffffff\n      and\n      0xffffffffffffffffffffffffffffffffffffffff\n      and\n      dup2\n      mstore\n      0x20\n      add\n      swap1\n      dup2\n      mstore\n      0x20\n      add\n      0x00\n      keccak256\n        /* \"contracts/TokenDistributor.sol\":6446:6473  userInfo[msg.sender].amount */\n      0x00\n      add\n      sload\n        /* \"contracts/TokenDistributor.sol\":6446:6492  userInfo[msg.sender].amount * accTokenPerShare */\n      tag_132\n      swap2\n      swap1\n      tag_99\n      jump\t// in\n    tag_132:\n        /* \"contracts/TokenDistributor.sol\":6445:6512  (userInfo[msg.sender].amount * accTokenPerShare) / PRECISION_FACTOR */\n      tag_133\n      swap2\n      swap1\n      tag_116\n      jump\t// in\n    tag_133:\n        /* \"contracts/TokenDistributor.sol\":6444:6560  ((userInfo[msg.sender].amount * accTokenPerShare) / PRECISION_FACTOR) -\r... */\n      tag_134\n      swap2\n      swap1\n      tag_104\n      jump\t// in\n    tag_134:\n        /* \"contracts/TokenDistributor.sol\":6419:6560  uint256 pendingRewards = ((userInfo[msg.sender].amount * accTokenPerShare) / PRECISION_FACTOR) -\r... */\n      swap1\n      pop\n        /* \"contracts/TokenDistributor.sol\":6636:6637  0 */\n      0x00\n        /* \"contracts/TokenDistributor.sol\":6618:6632  pendingRewards */\n      dup2\n        /* \"contracts/TokenDistributor.sol\":6618:6637  pendingRewards == 0 */\n      eq\n        /* \"contracts/TokenDistributor.sol\":6614:6772  if (pendingRewards == 0) {\r... */\n      iszero\n      tag_135\n      jumpi\n        /* \"contracts/TokenDistributor.sol\":6754:6761  return; */\n      pop\n      jump(tag_129)\n        /* \"contracts/TokenDistributor.sol\":6614:6772  if (pendingRewards == 0) {\r... */\n    tag_135:\n        /* \"contracts/TokenDistributor.sol\":6866:6880  pendingRewards */\n      dup1\n        /* \"contracts/TokenDistributor.sol\":6835:6843  userInfo */\n      0x09\n        /* \"contracts/TokenDistributor.sol\":6835:6855  userInfo[msg.sender] */\n      0x00\n        /* \"contracts/TokenDistributor.sol\":6844:6854  msg.sender */\n      caller\n        /* \"contracts/TokenDistributor.sol\":6835:6855  userInfo[msg.sender] */\n      0xffffffffffffffffffffffffffffffffffffffff\n      and\n      0xffffffffffffffffffffffffffffffffffffffff\n      and\n      dup2\n      mstore\n      0x20\n      add\n      swap1\n      dup2\n      mstore\n      0x20\n      add\n      0x00\n      keccak256\n        /* \"contracts/TokenDistributor.sol\":6835:6862  userInfo[msg.sender].amount */\n      0x00\n      add\n      0x00\n        /* \"contracts/TokenDistributor.sol\":6835:6880  userInfo[msg.sender].amount += pendingRewards */\n      dup3\n      dup3\n      sload\n      tag_136\n      swap2\n      swap1\n      tag_108\n      jump\t// in\n    tag_136:\n      swap3\n      pop\n      pop\n      dup2\n      swap1\n      sstore\n      pop\n        /* \"contracts/TokenDistributor.sol\":6951:6965  pendingRewards */\n      dup1\n        /* \"contracts/TokenDistributor.sol\":6930:6947  totalAmountStaked */\n      0x07\n      0x00\n        /* \"contracts/TokenDistributor.sol\":6930:6965  totalAmountStaked += pendingRewards */\n      dup3\n      dup3\n      sload\n      tag_137\n      swap2\n      swap1\n      tag_108\n      jump\t// in\n    tag_137:\n      swap3\n      pop\n      pop\n      dup2\n      swap1\n      sstore\n      pop\n        /* \"contracts/TokenDistributor.sol\":943:949  10**12 */\n      0xe8d4a51000\n        /* \"contracts/TokenDistributor.sol\":7104:7120  accTokenPerShare */\n      sload(0x01)\n        /* \"contracts/TokenDistributor.sol\":7074:7082  userInfo */\n      0x09\n        /* \"contracts/TokenDistributor.sol\":7074:7094  userInfo[msg.sender] */\n      0x00\n        /* \"contracts/TokenDistributor.sol\":7083:7093  msg.sender */\n      caller\n        /* \"contracts/TokenDistributor.sol\":7074:7094  userInfo[msg.sender] */\n      0xffffffffffffffffffffffffffffffffffffffff\n      and\n      0xffffffffffffffffffffffffffffffffffffffff\n      and\n      dup2\n      mstore\n      0x20\n      add\n      swap1\n      dup2\n      mstore\n      0x20\n      add\n      0x00\n      keccak256\n        /* \"contracts/TokenDistributor.sol\":7074:7101  userInfo[msg.sender].amount */\n      0x00\n      add\n      sload\n        /* \"contracts/TokenDistributor.sol\":7074:7120  userInfo[msg.sender].amount * accTokenPerShare */\n      tag_138\n      swap2\n      swap1\n      tag_99\n      jump\t// in\n    tag_138:\n        /* \"contracts/TokenDistributor.sol\":7073:7140  (userInfo[msg.sender].amount * accTokenPerShare) / PRECISION_FACTOR */\n      tag_139\n      swap2\n      swap1\n      tag_116\n      jump\t// in\n    tag_139:\n        /* \"contracts/TokenDistributor.sol\":7039:7047  userInfo */\n      0x09\n        /* \"contracts/TokenDistributor.sol\":7039:7059  userInfo[msg.sender] */\n      0x00\n        /* \"contracts/TokenDistributor.sol\":7048:7058  msg.sender */\n      caller\n        /* \"contracts/TokenDistributor.sol\":7039:7059  userInfo[msg.sender] */\n      0xffffffffffffffffffffffffffffffffffffffff\n      and\n      0xffffffffffffffffffffffffffffffffffffffff\n      and\n      dup2\n      mstore\n      0x20\n      add\n      swap1\n      dup2\n      mstore\n      0x20\n      add\n      0x00\n      keccak256\n        /* \"contracts/TokenDistributor.sol\":7039:7070  userInfo[msg.sender].rewardDebt */\n      0x01\n      add\n        /* \"contracts/TokenDistributor.sol\":7039:7140  userInfo[msg.sender].rewardDebt = (userInfo[msg.sender].amount * accTokenPerShare) / PRECISION_FACTOR */\n      dup2\n      swap1\n      sstore\n      pop\n        /* \"contracts/TokenDistributor.sol\":7167:7177  msg.sender */\n      caller\n        /* \"contracts/TokenDistributor.sol\":7158:7194  Compound(msg.sender, pendingRewards) */\n      0xffffffffffffffffffffffffffffffffffffffff\n      and\n      0x169f1815ebdea059aac3bb00ec9a9594c7a5ffcb64a17e8392b5d84909a14556\n        /* \"contracts/TokenDistributor.sol\":7179:7193  pendingRewards */\n      dup3\n        /* \"contracts/TokenDistributor.sol\":7158:7194  Compound(msg.sender, pendingRewards) */\n      mload(0x40)\n      tag_140\n      swap2\n      swap1\n      tag_29\n      jump\t// in\n    tag_140:\n      mload(0x40)\n      dup1\n      swap2\n      sub\n      swap1\n      log2\n        /* \"contracts/TokenDistributor.sol\":6308:7202  {\r... */\n      pop\n        /* \"@openzeppelin/contracts/security/ReentrancyGuard.sol\":2484:2485  _ */\n    tag_129:\n        /* \"@openzeppelin/contracts/security/ReentrancyGuard.sol\":1701:1702  1 */\n      0x01\n        /* \"@openzeppelin/contracts/security/ReentrancyGuard.sol\":2628:2635  _status */\n      0x00\n        /* \"@openzeppelin/contracts/security/ReentrancyGuard.sol\":2628:2650  _status = _NOT_ENTERED */\n      dup2\n      swap1\n      sstore\n      pop\n        /* \"contracts/TokenDistributor.sol\":6256:7202  function harvestAndCompound() external nonReentrant {\r... */\n      jump\t// out\n        /* \"contracts/TokenDistributor.sol\":7475:8481  function withdraw(uint256 amount) external nonReentrant {\r... */\n    tag_48:\n        /* \"@openzeppelin/contracts/security/ReentrancyGuard.sol\":1744:1745  2 */\n      0x02\n        /* \"@openzeppelin/contracts/security/ReentrancyGuard.sol\":2325:2332  _status */\n      sload(0x00)\n        /* \"@openzeppelin/contracts/security/ReentrancyGuard.sol\":2325:2344  _status != _ENTERED */\n      eq\n      iszero\n        /* \"@openzeppelin/contracts/security/ReentrancyGuard.sol\":2317:2380  require(_status != _ENTERED, \"ReentrancyGuard: reentrant call\") */\n      tag_142\n      jumpi\n      mload(0x40)\n      0x08c379a000000000000000000000000000000000000000000000000000000000\n      dup2\n      mstore\n      0x04\n      add\n      tag_143\n      swap1\n      tag_128\n      jump\t// in\n    tag_143:\n      mload(0x40)\n      dup1\n      swap2\n      sub\n      swap1\n      revert\n    tag_142:\n        /* \"@openzeppelin/contracts/security/ReentrancyGuard.sol\":1744:1745  2 */\n      0x02\n        /* \"@openzeppelin/contracts/security/ReentrancyGuard.sol\":2455:2462  _status */\n      0x00\n        /* \"@openzeppelin/contracts/security/ReentrancyGuard.sol\":2455:2473  _status = _ENTERED */\n      dup2\n      swap1\n      sstore\n      pop\n        /* \"contracts/TokenDistributor.sol\":7596:7602  amount */\n      dup1\n        /* \"contracts/TokenDistributor.sol\":7565:7573  userInfo */\n      0x09\n        /* \"contracts/TokenDistributor.sol\":7565:7585  userInfo[msg.sender] */\n      0x00\n        /* \"contracts/TokenDistributor.sol\":7574:7584  msg.sender */\n      caller\n        /* \"contracts/TokenDistributor.sol\":7565:7585  userInfo[msg.sender] */\n      0xffffffffffffffffffffffffffffffffffffffff\n      and\n      0xffffffffffffffffffffffffffffffffffffffff\n      and\n      dup2\n      mstore\n      0x20\n      add\n      swap1\n      dup2\n      mstore\n      0x20\n      add\n      0x00\n      keccak256\n        /* \"contracts/TokenDistributor.sol\":7565:7592  userInfo[msg.sender].amount */\n      0x00\n      add\n      sload\n        /* \"contracts/TokenDistributor.sol\":7565:7602  userInfo[msg.sender].amount >= amount */\n      lt\n      iszero\n        /* \"contracts/TokenDistributor.sol\":7564:7619  (userInfo[msg.sender].amount >= amount) && (amount > 0) */\n      dup1\n      iszero\n      tag_145\n      jumpi\n      pop\n        /* \"contracts/TokenDistributor.sol\":7617:7618  0 */\n      0x00\n        /* \"contracts/TokenDistributor.sol\":7608:7614  amount */\n      dup2\n        /* \"contracts/TokenDistributor.sol\":7608:7618  amount > 0 */\n      gt\n        /* \"contracts/TokenDistributor.sol\":7564:7619  (userInfo[msg.sender].amount >= amount) && (amount > 0) */\n    tag_145:\n        /* \"contracts/TokenDistributor.sol\":7542:7702  require(\r... */\n      tag_146\n      jumpi\n      mload(0x40)\n      0x08c379a000000000000000000000000000000000000000000000000000000000\n      dup2\n      mstore\n      0x04\n      add\n      tag_147\n      swap1\n      tag_148\n      jump\t// in\n    tag_147:\n      mload(0x40)\n      dup1\n      swap2\n      sub\n      swap1\n      revert\n    tag_146:\n        /* \"contracts/TokenDistributor.sol\":7739:7752  _updatePool() */\n      tag_149\n        /* \"contracts/TokenDistributor.sol\":7739:7750  _updatePool */\n      tag_131\n        /* \"contracts/TokenDistributor.sol\":7739:7752  _updatePool() */\n      jump\t// in\n    tag_149:\n        /* \"contracts/TokenDistributor.sol\":7803:7825  uint256 pendingRewards */\n      0x00\n        /* \"contracts/TokenDistributor.sol\":7913:7921  userInfo */\n      0x09\n        /* \"contracts/TokenDistributor.sol\":7913:7933  userInfo[msg.sender] */\n      0x00\n        /* \"contracts/TokenDistributor.sol\":7922:7932  msg.sender */\n      caller\n        /* \"contracts/TokenDistributor.sol\":7913:7933  userInfo[msg.sender] */\n      0xffffffffffffffffffffffffffffffffffffffff\n      and\n      0xffffffffffffffffffffffffffffffffffffffff\n      and\n      dup2\n      mstore\n      0x20\n      add\n      swap1\n      dup2\n      mstore\n      0x20\n      add\n      0x00\n      keccak256\n        /* \"contracts/TokenDistributor.sol\":7913:7944  userInfo[msg.sender].rewardDebt */\n      0x01\n      add\n      sload\n        /* \"contracts/TokenDistributor.sol\":943:949  10**12 */\n      0xe8d4a51000\n        /* \"contracts/TokenDistributor.sol\":7860:7876  accTokenPerShare */\n      sload(0x01)\n        /* \"contracts/TokenDistributor.sol\":7830:7838  userInfo */\n      0x09\n        /* \"contracts/TokenDistributor.sol\":7830:7850  userInfo[msg.sender] */\n      0x00\n        /* \"contracts/TokenDistributor.sol\":7839:7849  msg.sender */\n      caller\n        /* \"contracts/TokenDistributor.sol\":7830:7850  userInfo[msg.sender] */\n      0xffffffffffffffffffffffffffffffffffffffff\n      and\n      0xffffffffffffffffffffffffffffffffffffffff\n      and\n      dup2\n      mstore\n      0x20\n      add\n      swap1\n      dup2\n      mstore\n      0x20\n      add\n      0x00\n      keccak256\n        /* \"contracts/TokenDistributor.sol\":7830:7857  userInfo[msg.sender].amount */\n      0x00\n      add\n      sload\n        /* \"contracts/TokenDistributor.sol\":7830:7876  userInfo[msg.sender].amount * accTokenPerShare */\n      tag_150\n      swap2\n      swap1\n      tag_99\n      jump\t// in\n    tag_150:\n        /* \"contracts/TokenDistributor.sol\":7829:7896  (userInfo[msg.sender].amount * accTokenPerShare) / PRECISION_FACTOR */\n      tag_151\n      swap2\n      swap1\n      tag_116\n      jump\t// in\n    tag_151:\n        /* \"contracts/TokenDistributor.sol\":7828:7944  ((userInfo[msg.sender].amount * accTokenPerShare) / PRECISION_FACTOR) -\r... */\n      tag_152\n      swap2\n      swap1\n      tag_104\n      jump\t// in\n    tag_152:\n        /* \"contracts/TokenDistributor.sol\":7803:7944  uint256 pendingRewards = ((userInfo[msg.sender].amount * accTokenPerShare) / PRECISION_FACTOR) -\r... */\n      swap1\n      pop\n        /* \"contracts/TokenDistributor.sol\":8070:8076  amount */\n      dup2\n        /* \"contracts/TokenDistributor.sol\":8053:8067  pendingRewards */\n      dup2\n        /* \"contracts/TokenDistributor.sol\":8023:8031  userInfo */\n      0x09\n        /* \"contracts/TokenDistributor.sol\":8023:8043  userInfo[msg.sender] */\n      0x00\n        /* \"contracts/TokenDistributor.sol\":8032:8042  msg.sender */\n      caller\n        /* \"contracts/TokenDistributor.sol\":8023:8043  userInfo[msg.sender] */\n      0xffffffffffffffffffffffffffffffffffffffff\n      and\n      0xffffffffffffffffffffffffffffffffffffffff\n      and\n      dup2\n      mstore\n      0x20\n      add\n      swap1\n      dup2\n      mstore\n      0x20\n      add\n      0x00\n      keccak256\n        /* \"contracts/TokenDistributor.sol\":8023:8050  userInfo[msg.sender].amount */\n      0x00\n      add\n      sload\n        /* \"contracts/TokenDistributor.sol\":8023:8067  userInfo[msg.sender].amount + pendingRewards */\n      tag_153\n      swap2\n      swap1\n      tag_108\n      jump\t// in\n    tag_153:\n        /* \"contracts/TokenDistributor.sol\":8023:8076  userInfo[msg.sender].amount + pendingRewards - amount */\n      tag_154\n      swap2\n      swap1\n      tag_104\n      jump\t// in\n    tag_154:\n        /* \"contracts/TokenDistributor.sol\":7993:8001  userInfo */\n      0x09\n        /* \"contracts/TokenDistributor.sol\":7993:8013  userInfo[msg.sender] */\n      0x00\n        /* \"contracts/TokenDistributor.sol\":8002:8012  msg.sender */\n      caller\n        /* \"contracts/TokenDistributor.sol\":7993:8013  userInfo[msg.sender] */\n      0xffffffffffffffffffffffffffffffffffffffff\n      and\n      0xffffffffffffffffffffffffffffffffffffffff\n      and\n      dup2\n      mstore\n      0x20\n      add\n      swap1\n      dup2\n      mstore\n      0x20\n      add\n      0x00\n      keccak256\n        /* \"contracts/TokenDistributor.sol\":7993:8020  userInfo[msg.sender].amount */\n      0x00\n      add\n        /* \"contracts/TokenDistributor.sol\":7993:8076  userInfo[msg.sender].amount = userInfo[msg.sender].amount + pendingRewards - amount */\n      dup2\n      swap1\n      sstore\n      pop\n        /* \"contracts/TokenDistributor.sol\":943:949  10**12 */\n      0xe8d4a51000\n        /* \"contracts/TokenDistributor.sol\":8152:8168  accTokenPerShare */\n      sload(0x01)\n        /* \"contracts/TokenDistributor.sol\":8122:8130  userInfo */\n      0x09\n        /* \"contracts/TokenDistributor.sol\":8122:8142  userInfo[msg.sender] */\n      0x00\n        /* \"contracts/TokenDistributor.sol\":8131:8141  msg.sender */\n      caller\n        /* \"contracts/TokenDistributor.sol\":8122:8142  userInfo[msg.sender] */\n      0xffffffffffffffffffffffffffffffffffffffff\n      and\n      0xffffffffffffffffffffffffffffffffffffffff\n      and\n      dup2\n      mstore\n      0x20\n      add\n      swap1\n      dup2\n      mstore\n      0x20\n      add\n      0x00\n      keccak256\n        /* \"contracts/TokenDistributor.sol\":8122:8149  userInfo[msg.sender].amount */\n      0x00\n      add\n      sload\n        /* \"contracts/TokenDistributor.sol\":8122:8168  userInfo[msg.sender].amount * accTokenPerShare */\n      tag_155\n      swap2\n      swap1\n      tag_99\n      jump\t// in\n    tag_155:\n        /* \"contracts/TokenDistributor.sol\":8121:8188  (userInfo[msg.sender].amount * accTokenPerShare) / PRECISION_FACTOR */\n      tag_156\n      swap2\n      swap1\n      tag_116\n      jump\t// in\n    tag_156:\n        /* \"contracts/TokenDistributor.sol\":8087:8095  userInfo */\n      0x09\n        /* \"contracts/TokenDistributor.sol\":8087:8107  userInfo[msg.sender] */\n      0x00\n        /* \"contracts/TokenDistributor.sol\":8096:8106  msg.sender */\n      caller\n        /* \"contracts/TokenDistributor.sol\":8087:8107  userInfo[msg.sender] */\n      0xffffffffffffffffffffffffffffffffffffffff\n      and\n      0xffffffffffffffffffffffffffffffffffffffff\n      and\n      dup2\n      mstore\n      0x20\n      add\n      swap1\n      dup2\n      mstore\n      0x20\n      add\n      0x00\n      keccak256\n        /* \"contracts/TokenDistributor.sol\":8087:8118  userInfo[msg.sender].rewardDebt */\n      0x01\n      add\n        /* \"contracts/TokenDistributor.sol\":8087:8188  userInfo[msg.sender].rewardDebt = (userInfo[msg.sender].amount * accTokenPerShare) / PRECISION_FACTOR */\n      dup2\n      swap1\n      sstore\n      pop\n        /* \"contracts/TokenDistributor.sol\":8297:8303  amount */\n      dup2\n        /* \"contracts/TokenDistributor.sol\":8280:8294  pendingRewards */\n      dup2\n        /* \"contracts/TokenDistributor.sol\":8260:8277  totalAmountStaked */\n      sload(0x07)\n        /* \"contracts/TokenDistributor.sol\":8260:8294  totalAmountStaked + pendingRewards */\n      tag_157\n      swap2\n      swap1\n      tag_108\n      jump\t// in\n    tag_157:\n        /* \"contracts/TokenDistributor.sol\":8260:8303  totalAmountStaked + pendingRewards - amount */\n      tag_158\n      swap2\n      swap1\n      tag_104\n      jump\t// in\n    tag_158:\n        /* \"contracts/TokenDistributor.sol\":8240:8257  totalAmountStaked */\n      0x07\n        /* \"contracts/TokenDistributor.sol\":8240:8303  totalAmountStaked = totalAmountStaked + pendingRewards - amount */\n      dup2\n      swap1\n      sstore\n      pop\n        /* \"contracts/TokenDistributor.sol\":8364:8411  looksRareToken.safeTransfer(msg.sender, amount) */\n      tag_159\n        /* \"contracts/TokenDistributor.sol\":8392:8402  msg.sender */\n      caller\n        /* \"contracts/TokenDistributor.sol\":8404:8410  amount */\n      dup4\n        /* \"contracts/TokenDistributor.sol\":8364:8378  looksRareToken */\n      immutable(\"0x94ac46a65f1fb0934ae334b85100dc6a35a94d53aa1e2b4e46f9a861095e9ac0\")\n        /* \"contracts/TokenDistributor.sol\":8364:8391  looksRareToken.safeTransfer */\n      0xffffffffffffffffffffffffffffffffffffffff\n      and\n      tag_160\n      swap1\n        /* \"contracts/TokenDistributor.sol\":8364:8411  looksRareToken.safeTransfer(msg.sender, amount) */\n      swap3\n      swap2\n      swap1\n      0xffffffff\n      and\n      jump\t// in\n    tag_159:\n        /* \"contracts/TokenDistributor.sol\":8438:8448  msg.sender */\n      caller\n        /* \"contracts/TokenDistributor.sol\":8429:8473  Withdraw(msg.sender, amount, pendingRewards) */\n      0xffffffffffffffffffffffffffffffffffffffff\n      and\n      0xf279e6a1f5e320cca91135676d9cb6e44ca8a08c0b88342bcdb1144f6511b568\n        /* \"contracts/TokenDistributor.sol\":8450:8456  amount */\n      dup4\n        /* \"contracts/TokenDistributor.sol\":8458:8472  pendingRewards */\n      dup4\n        /* \"contracts/TokenDistributor.sol\":8429:8473  Withdraw(msg.sender, amount, pendingRewards) */\n      mload(0x40)\n      tag_161\n      swap3\n      swap2\n      swap1\n      tag_42\n      jump\t// in\n    tag_161:\n      mload(0x40)\n      dup1\n      swap2\n      sub\n      swap1\n      log2\n        /* \"contracts/TokenDistributor.sol\":7531:8481  {\r... */\n      pop\n        /* \"@openzeppelin/contracts/security/ReentrancyGuard.sol\":1701:1702  1 */\n      0x01\n        /* \"@openzeppelin/contracts/security/ReentrancyGuard.sol\":2628:2635  _status */\n      0x00\n        /* \"@openzeppelin/contracts/security/ReentrancyGuard.sol\":2628:2650  _status = _NOT_ENTERED */\n      dup2\n      swap1\n      sstore\n      pop\n        /* \"contracts/TokenDistributor.sol\":7475:8481  function withdraw(uint256 amount) external nonReentrant {\r... */\n      pop\n      jump\t// out\n        /* \"contracts/TokenDistributor.sol\":958:1000  ITestToken public immutable looksRareToken */\n    tag_50:\n      immutable(\"0x94ac46a65f1fb0934ae334b85100dc6a35a94d53aa1e2b4e46f9a861095e9ac0\")\n      dup2\n      jump\t// out\n        /* \"contracts/TokenDistributor.sol\":1177:1213  uint256 public immutable START_BLOCK */\n    tag_54:\n      immutable(\"0xda454547ca5f9bde387781b7470d1c4b06be980d23784ba34fd5243580f9e233\")\n      dup2\n      jump\t// out\n        /* \"contracts/TokenDistributor.sol\":1089:1128  uint256 public immutable NUMBER_PERIODS */\n    tag_57:\n      immutable(\"0xafcd10eb8a933fb34272fbf3a0d55ec898d75144e8be37ea9b6ca4a0ee7bc3b2\")\n      dup2\n      jump\t// out\n        /* \"contracts/TokenDistributor.sol\":1706:1745  uint256 public rewardPerBlockForStaking */\n    tag_60:\n      sload(0x06)\n      dup2\n      jump\t// out\n        /* \"contracts/TokenDistributor.sol\":8569:9505  function withdrawAll() external nonReentrant {\r... */\n    tag_63:\n        /* \"@openzeppelin/contracts/security/ReentrancyGuard.sol\":1744:1745  2 */\n      0x02\n        /* \"@openzeppelin/contracts/security/ReentrancyGuard.sol\":2325:2332  _status */\n      sload(0x00)\n        /* \"@openzeppelin/contracts/security/ReentrancyGuard.sol\":2325:2344  _status != _ENTERED */\n      eq\n      iszero\n        /* \"@openzeppelin/contracts/security/ReentrancyGuard.sol\":2317:2380  require(_status != _ENTERED, \"ReentrancyGuard: reentrant call\") */\n      tag_163\n      jumpi\n      mload(0x40)\n      0x08c379a000000000000000000000000000000000000000000000000000000000\n      dup2\n      mstore\n      0x04\n      add\n      tag_164\n      swap1\n      tag_128\n      jump\t// in\n    tag_164:\n      mload(0x40)\n      dup1\n      swap2\n      sub\n      swap1\n      revert\n    tag_163:\n        /* \"@openzeppelin/contracts/security/ReentrancyGuard.sol\":1744:1745  2 */\n      0x02\n        /* \"@openzeppelin/contracts/security/ReentrancyGuard.sol\":2455:2462  _status */\n      0x00\n        /* \"@openzeppelin/contracts/security/ReentrancyGuard.sol\":2455:2473  _status = _ENTERED */\n      dup2\n      swap1\n      sstore\n      pop\n        /* \"contracts/TokenDistributor.sol\":8663:8664  0 */\n      0x00\n        /* \"contracts/TokenDistributor.sol\":8633:8641  userInfo */\n      0x09\n        /* \"contracts/TokenDistributor.sol\":8633:8653  userInfo[msg.sender] */\n      0x00\n        /* \"contracts/TokenDistributor.sol\":8642:8652  msg.sender */\n      caller\n        /* \"contracts/TokenDistributor.sol\":8633:8653  userInfo[msg.sender] */\n      0xffffffffffffffffffffffffffffffffffffffff\n      and\n      0xffffffffffffffffffffffffffffffffffffffff\n      and\n      dup2\n      mstore\n      0x20\n      add\n      swap1\n      dup2\n      mstore\n      0x20\n      add\n      0x00\n      keccak256\n        /* \"contracts/TokenDistributor.sol\":8633:8660  userInfo[msg.sender].amount */\n      0x00\n      add\n      sload\n        /* \"contracts/TokenDistributor.sol\":8633:8664  userInfo[msg.sender].amount > 0 */\n      gt\n        /* \"contracts/TokenDistributor.sol\":8625:8697  require(userInfo[msg.sender].amount > 0, \"Withdraw: Amount must be > 0\") */\n      tag_166\n      jumpi\n      mload(0x40)\n      0x08c379a000000000000000000000000000000000000000000000000000000000\n      dup2\n      mstore\n      0x04\n      add\n      tag_167\n      swap1\n      tag_168\n      jump\t// in\n    tag_167:\n      mload(0x40)\n      dup1\n      swap2\n      sub\n      swap1\n      revert\n    tag_166:\n        /* \"contracts/TokenDistributor.sol\":8734:8747  _updatePool() */\n      tag_169\n        /* \"contracts/TokenDistributor.sol\":8734:8745  _updatePool */\n      tag_131\n        /* \"contracts/TokenDistributor.sol\":8734:8747  _updatePool() */\n      jump\t// in\n    tag_169:\n        /* \"contracts/TokenDistributor.sol\":8837:8859  uint256 pendingRewards */\n      0x00\n        /* \"contracts/TokenDistributor.sol\":8947:8955  userInfo */\n      0x09\n        /* \"contracts/TokenDistributor.sol\":8947:8967  userInfo[msg.sender] */\n      0x00\n        /* \"contracts/TokenDistributor.sol\":8956:8966  msg.sender */\n      caller\n        /* \"contracts/TokenDistributor.sol\":8947:8967  userInfo[msg.sender] */\n      0xffffffffffffffffffffffffffffffffffffffff\n      and\n      0xffffffffffffffffffffffffffffffffffffffff\n      and\n      dup2\n      mstore\n      0x20\n      add\n      swap1\n      dup2\n      mstore\n      0x20\n      add\n      0x00\n      keccak256\n        /* \"contracts/TokenDistributor.sol\":8947:8978  userInfo[msg.sender].rewardDebt */\n      0x01\n      add\n      sload\n        /* \"contracts/TokenDistributor.sol\":943:949  10**12 */\n      0xe8d4a51000\n        /* \"contracts/TokenDistributor.sol\":8894:8910  accTokenPerShare */\n      sload(0x01)\n        /* \"contracts/TokenDistributor.sol\":8864:8872  userInfo */\n      0x09\n        /* \"contracts/TokenDistributor.sol\":8864:8884  userInfo[msg.sender] */\n      0x00\n        /* \"contracts/TokenDistributor.sol\":8873:8883  msg.sender */\n      caller\n        /* \"contracts/TokenDistributor.sol\":8864:8884  userInfo[msg.sender] */\n      0xffffffffffffffffffffffffffffffffffffffff\n      and\n      0xffffffffffffffffffffffffffffffffffffffff\n      and\n      dup2\n      mstore\n      0x20\n      add\n      swap1\n      dup2\n      mstore\n      0x20\n      add\n      0x00\n      keccak256\n        /* \"contracts/TokenDistributor.sol\":8864:8891  userInfo[msg.sender].amount */\n      0x00\n      add\n      sload\n        /* \"contracts/TokenDistributor.sol\":8864:8910  userInfo[msg.sender].amount * accTokenPerShare */\n      tag_170\n      swap2\n      swap1\n      tag_99\n      jump\t// in\n    tag_170:\n        /* \"contracts/TokenDistributor.sol\":8863:8930  (userInfo[msg.sender].amount * accTokenPerShare) / PRECISION_FACTOR */\n      tag_171\n      swap2\n      swap1\n      tag_116\n      jump\t// in\n    tag_171:\n        /* \"contracts/TokenDistributor.sol\":8862:8978  ((userInfo[msg.sender].amount * accTokenPerShare) / PRECISION_FACTOR) -\r... */\n      tag_172\n      swap2\n      swap1\n      tag_104\n      jump\t// in\n    tag_172:\n        /* \"contracts/TokenDistributor.sol\":8837:8978  uint256 pendingRewards = ((userInfo[msg.sender].amount * accTokenPerShare) / PRECISION_FACTOR) -\r... */\n      swap1\n      pop\n        /* \"contracts/TokenDistributor.sol\":8991:9015  uint256 amountToTransfer */\n      0x00\n        /* \"contracts/TokenDistributor.sol\":9048:9062  pendingRewards */\n      dup2\n        /* \"contracts/TokenDistributor.sol\":9018:9026  userInfo */\n      0x09\n        /* \"contracts/TokenDistributor.sol\":9018:9038  userInfo[msg.sender] */\n      0x00\n        /* \"contracts/TokenDistributor.sol\":9027:9037  msg.sender */\n      caller\n        /* \"contracts/TokenDistributor.sol\":9018:9038  userInfo[msg.sender] */\n      0xffffffffffffffffffffffffffffffffffffffff\n      and\n      0xffffffffffffffffffffffffffffffffffffffff\n      and\n      dup2\n      mstore\n      0x20\n      add\n      swap1\n      dup2\n      mstore\n      0x20\n      add\n      0x00\n      keccak256\n        /* \"contracts/TokenDistributor.sol\":9018:9045  userInfo[msg.sender].amount */\n      0x00\n      add\n      sload\n        /* \"contracts/TokenDistributor.sol\":9018:9062  userInfo[msg.sender].amount + pendingRewards */\n      tag_173\n      swap2\n      swap1\n      tag_108\n      jump\t// in\n    tag_173:\n        /* \"contracts/TokenDistributor.sol\":8991:9062  uint256 amountToTransfer = userInfo[msg.sender].amount + pendingRewards */\n      swap1\n      pop\n        /* \"contracts/TokenDistributor.sol\":9154:9162  userInfo */\n      0x09\n        /* \"contracts/TokenDistributor.sol\":9154:9174  userInfo[msg.sender] */\n      0x00\n        /* \"contracts/TokenDistributor.sol\":9163:9173  msg.sender */\n      caller\n        /* \"contracts/TokenDistributor.sol\":9154:9174  userInfo[msg.sender] */\n      0xffffffffffffffffffffffffffffffffffffffff\n      and\n      0xffffffffffffffffffffffffffffffffffffffff\n      and\n      dup2\n      mstore\n      0x20\n      add\n      swap1\n      dup2\n      mstore\n      0x20\n      add\n      0x00\n      keccak256\n        /* \"contracts/TokenDistributor.sol\":9154:9181  userInfo[msg.sender].amount */\n      0x00\n      add\n      sload\n        /* \"contracts/TokenDistributor.sol\":9134:9151  totalAmountStaked */\n      sload(0x07)\n        /* \"contracts/TokenDistributor.sol\":9134:9181  totalAmountStaked - userInfo[msg.sender].amount */\n      tag_174\n      swap2\n      swap1\n      tag_104\n      jump\t// in\n    tag_174:\n        /* \"contracts/TokenDistributor.sol\":9114:9131  totalAmountStaked */\n      0x07\n        /* \"contracts/TokenDistributor.sol\":9114:9181  totalAmountStaked = totalAmountStaked - userInfo[msg.sender].amount */\n      dup2\n      swap1\n      sstore\n      pop\n        /* \"contracts/TokenDistributor.sol\":9260:9261  0 */\n      0x00\n        /* \"contracts/TokenDistributor.sol\":9230:9238  userInfo */\n      0x09\n        /* \"contracts/TokenDistributor.sol\":9230:9250  userInfo[msg.sender] */\n      0x00\n        /* \"contracts/TokenDistributor.sol\":9239:9249  msg.sender */\n      caller\n        /* \"contracts/TokenDistributor.sol\":9230:9250  userInfo[msg.sender] */\n      0xffffffffffffffffffffffffffffffffffffffff\n      and\n      0xffffffffffffffffffffffffffffffffffffffff\n      and\n      dup2\n      mstore\n      0x20\n      add\n      swap1\n      dup2\n      mstore\n      0x20\n      add\n      0x00\n      keccak256\n        /* \"contracts/TokenDistributor.sol\":9230:9257  userInfo[msg.sender].amount */\n      0x00\n      add\n        /* \"contracts/TokenDistributor.sol\":9230:9261  userInfo[msg.sender].amount = 0 */\n      dup2\n      swap1\n      sstore\n      pop\n        /* \"contracts/TokenDistributor.sol\":9306:9307  0 */\n      0x00\n        /* \"contracts/TokenDistributor.sol\":9272:9280  userInfo */\n      0x09\n        /* \"contracts/TokenDistributor.sol\":9272:9292  userInfo[msg.sender] */\n      0x00\n        /* \"contracts/TokenDistributor.sol\":9281:9291  msg.sender */\n      caller\n        /* \"contracts/TokenDistributor.sol\":9272:9292  userInfo[msg.sender] */\n      0xffffffffffffffffffffffffffffffffffffffff\n      and\n      0xffffffffffffffffffffffffffffffffffffffff\n      and\n      dup2\n      mstore\n      0x20\n      add\n      swap1\n      dup2\n      mstore\n      0x20\n      add\n      0x00\n      keccak256\n        /* \"contracts/TokenDistributor.sol\":9272:9303  userInfo[msg.sender].rewardDebt */\n      0x01\n      add\n        /* \"contracts/TokenDistributor.sol\":9272:9307  userInfo[msg.sender].rewardDebt = 0 */\n      dup2\n      swap1\n      sstore\n      pop\n        /* \"contracts/TokenDistributor.sol\":9368:9425  looksRareToken.safeTransfer(msg.sender, amountToTransfer) */\n      tag_175\n        /* \"contracts/TokenDistributor.sol\":9396:9406  msg.sender */\n      caller\n        /* \"contracts/TokenDistributor.sol\":9408:9424  amountToTransfer */\n      dup3\n        /* \"contracts/TokenDistributor.sol\":9368:9382  looksRareToken */\n      immutable(\"0x94ac46a65f1fb0934ae334b85100dc6a35a94d53aa1e2b4e46f9a861095e9ac0\")\n        /* \"contracts/TokenDistributor.sol\":9368:9395  looksRareToken.safeTransfer */\n      0xffffffffffffffffffffffffffffffffffffffff\n      and\n      tag_160\n      swap1\n        /* \"contracts/TokenDistributor.sol\":9368:9425  looksRareToken.safeTransfer(msg.sender, amountToTransfer) */\n      swap3\n      swap2\n      swap1\n      0xffffffff\n      and\n      jump\t// in\n    tag_175:\n        /* \"contracts/TokenDistributor.sol\":9452:9462  msg.sender */\n      caller\n        /* \"contracts/TokenDistributor.sol\":9443:9497  Withdraw(msg.sender, amountToTransfer, pendingRewards) */\n      0xffffffffffffffffffffffffffffffffffffffff\n      and\n      0xf279e6a1f5e320cca91135676d9cb6e44ca8a08c0b88342bcdb1144f6511b568\n        /* \"contracts/TokenDistributor.sol\":9464:9480  amountToTransfer */\n      dup3\n        /* \"contracts/TokenDistributor.sol\":9482:9496  pendingRewards */\n      dup5\n        /* \"contracts/TokenDistributor.sol\":9443:9497  Withdraw(msg.sender, amountToTransfer, pendingRewards) */\n      mload(0x40)\n      tag_176\n      swap3\n      swap2\n      swap1\n      tag_42\n      jump\t// in\n    tag_176:\n      mload(0x40)\n      dup1\n      swap2\n      sub\n      swap1\n      log2\n        /* \"contracts/TokenDistributor.sol\":8614:9505  {\r... */\n      pop\n      pop\n        /* \"@openzeppelin/contracts/security/ReentrancyGuard.sol\":1701:1702  1 */\n      0x01\n        /* \"@openzeppelin/contracts/security/ReentrancyGuard.sol\":2628:2635  _status */\n      0x00\n        /* \"@openzeppelin/contracts/security/ReentrancyGuard.sol\":2628:2650  _status = _NOT_ENTERED */\n      dup2\n      swap1\n      sstore\n      pop\n        /* \"contracts/TokenDistributor.sol\":8569:9505  function withdrawAll() external nonReentrant {\r... */\n      jump\t// out\n        /* \"contracts/TokenDistributor.sol\":1259:1290  uint256 public accTokenPerShare */\n    tag_65:\n      sload(0x01)\n      dup2\n      jump\t// out\n        /* \"contracts/TokenDistributor.sol\":1009:1047  address public immutable tokenSplitter */\n    tag_68:\n      immutable(\"0xa752a62a6f5fb32dd4e041dbf29a56f1f90fbf8d8356b6069d6d3304e11d2d2e\")\n      dup2\n      jump\t// out\n        /* \"contracts/TokenDistributor.sol\":1479:1509  uint256 public lastRewardBlock */\n    tag_72:\n      sload(0x04)\n      dup2\n      jump\t// out\n        /* \"contracts/TokenDistributor.sol\":5142:6180  function deposit(uint256 amount) external nonReentrant {\r... */\n    tag_76:\n        /* \"@openzeppelin/contracts/security/ReentrancyGuard.sol\":1744:1745  2 */\n      0x02\n        /* \"@openzeppelin/contracts/security/ReentrancyGuard.sol\":2325:2332  _status */\n      sload(0x00)\n        /* \"@openzeppelin/contracts/security/ReentrancyGuard.sol\":2325:2344  _status != _ENTERED */\n      eq\n      iszero\n        /* \"@openzeppelin/contracts/security/ReentrancyGuard.sol\":2317:2380  require(_status != _ENTERED, \"ReentrancyGuard: reentrant call\") */\n      tag_178\n      jumpi\n      mload(0x40)\n      0x08c379a000000000000000000000000000000000000000000000000000000000\n      dup2\n      mstore\n      0x04\n      add\n      tag_179\n      swap1\n      tag_128\n      jump\t// in\n    tag_179:\n      mload(0x40)\n      dup1\n      swap2\n      sub\n      swap1\n      revert\n    tag_178:\n        /* \"@openzeppelin/contracts/security/ReentrancyGuard.sol\":1744:1745  2 */\n      0x02\n        /* \"@openzeppelin/contracts/security/ReentrancyGuard.sol\":2455:2462  _status */\n      0x00\n        /* \"@openzeppelin/contracts/security/ReentrancyGuard.sol\":2455:2473  _status = _ENTERED */\n      dup2\n      swap1\n      sstore\n      pop\n        /* \"contracts/TokenDistributor.sol\":5225:5226  0 */\n      0x00\n        /* \"contracts/TokenDistributor.sol\":5216:5222  amount */\n      dup2\n        /* \"contracts/TokenDistributor.sol\":5216:5226  amount > 0 */\n      gt\n        /* \"contracts/TokenDistributor.sol\":5208:5258  require(amount > 0, \"Deposit: Amount must be > 0\") */\n      tag_181\n      jumpi\n      mload(0x40)\n      0x08c379a000000000000000000000000000000000000000000000000000000000\n      dup2\n      mstore\n      0x04\n      add\n      tag_182\n      swap1\n      tag_183\n      jump\t// in\n    tag_182:\n      mload(0x40)\n      dup1\n      swap2\n      sub\n      swap1\n      revert\n    tag_181:\n        /* \"contracts/TokenDistributor.sol\":5307:5320  _updatePool() */\n      tag_184\n        /* \"contracts/TokenDistributor.sol\":5307:5318  _updatePool */\n      tag_131\n        /* \"contracts/TokenDistributor.sol\":5307:5320  _updatePool() */\n      jump\t// in\n    tag_184:\n        /* \"contracts/TokenDistributor.sol\":5384:5450  looksRareToken.safeTransferFrom(msg.sender, address(this), amount) */\n      tag_185\n        /* \"contracts/TokenDistributor.sol\":5416:5426  msg.sender */\n      caller\n        /* \"contracts/TokenDistributor.sol\":5436:5440  this */\n      address\n        /* \"contracts/TokenDistributor.sol\":5443:5449  amount */\n      dup4\n        /* \"contracts/TokenDistributor.sol\":5384:5398  looksRareToken */\n      immutable(\"0x94ac46a65f1fb0934ae334b85100dc6a35a94d53aa1e2b4e46f9a861095e9ac0\")\n        /* \"contracts/TokenDistributor.sol\":5384:5415  looksRareToken.safeTransferFrom */\n      0xffffffffffffffffffffffffffffffffffffffff\n      and\n      tag_186\n      swap1\n        /* \"contracts/TokenDistributor.sol\":5384:5450  looksRareToken.safeTransferFrom(msg.sender, address(this), amount) */\n      swap4\n      swap3\n      swap2\n      swap1\n      0xffffffff\n      and\n      jump\t// in\n    tag_185:\n        /* \"contracts/TokenDistributor.sol\":5463:5485  uint256 pendingRewards */\n      0x00\n        /* \"contracts/TokenDistributor.sol\":5613:5614  0 */\n      dup1\n        /* \"contracts/TokenDistributor.sol\":5583:5591  userInfo */\n      0x09\n        /* \"contracts/TokenDistributor.sol\":5583:5603  userInfo[msg.sender] */\n      0x00\n        /* \"contracts/TokenDistributor.sol\":5592:5602  msg.sender */\n      caller\n        /* \"contracts/TokenDistributor.sol\":5583:5603  userInfo[msg.sender] */\n      0xffffffffffffffffffffffffffffffffffffffff\n      and\n      0xffffffffffffffffffffffffffffffffffffffff\n      and\n      dup2\n      mstore\n      0x20\n      add\n      swap1\n      dup2\n      mstore\n      0x20\n      add\n      0x00\n      keccak256\n        /* \"contracts/TokenDistributor.sol\":5583:5610  userInfo[msg.sender].amount */\n      0x00\n      add\n      sload\n        /* \"contracts/TokenDistributor.sol\":5583:5614  userInfo[msg.sender].amount > 0 */\n      gt\n        /* \"contracts/TokenDistributor.sol\":5579:5797  if (userInfo[msg.sender].amount > 0) {\r... */\n      iszero\n      tag_187\n      jumpi\n        /* \"contracts/TokenDistributor.sol\":5754:5762  userInfo */\n      0x09\n        /* \"contracts/TokenDistributor.sol\":5754:5774  userInfo[msg.sender] */\n      0x00\n        /* \"contracts/TokenDistributor.sol\":5763:5773  msg.sender */\n      caller\n        /* \"contracts/TokenDistributor.sol\":5754:5774  userInfo[msg.sender] */\n      0xffffffffffffffffffffffffffffffffffffffff\n      and\n      0xffffffffffffffffffffffffffffffffffffffff\n      and\n      dup2\n      mstore\n      0x20\n      add\n      swap1\n      dup2\n      mstore\n      0x20\n      add\n      0x00\n      keccak256\n        /* \"contracts/TokenDistributor.sol\":5754:5785  userInfo[msg.sender].rewardDebt */\n      0x01\n      add\n      sload\n        /* \"contracts/TokenDistributor.sol\":943:949  10**12 */\n      0xe8d4a51000\n        /* \"contracts/TokenDistributor.sol\":5697:5713  accTokenPerShare */\n      sload(0x01)\n        /* \"contracts/TokenDistributor.sol\":5667:5675  userInfo */\n      0x09\n        /* \"contracts/TokenDistributor.sol\":5667:5687  userInfo[msg.sender] */\n      0x00\n        /* \"contracts/TokenDistributor.sol\":5676:5686  msg.sender */\n      caller\n        /* \"contracts/TokenDistributor.sol\":5667:5687  userInfo[msg.sender] */\n      0xffffffffffffffffffffffffffffffffffffffff\n      and\n      0xffffffffffffffffffffffffffffffffffffffff\n      and\n      dup2\n      mstore\n      0x20\n      add\n      swap1\n      dup2\n      mstore\n      0x20\n      add\n      0x00\n      keccak256\n        /* \"contracts/TokenDistributor.sol\":5667:5694  userInfo[msg.sender].amount */\n      0x00\n      add\n      sload\n        /* \"contracts/TokenDistributor.sol\":5667:5713  userInfo[msg.sender].amount * accTokenPerShare */\n      tag_188\n      swap2\n      swap1\n      tag_99\n      jump\t// in\n    tag_188:\n        /* \"contracts/TokenDistributor.sol\":5666:5733  (userInfo[msg.sender].amount * accTokenPerShare) / PRECISION_FACTOR */\n      tag_189\n      swap2\n      swap1\n      tag_116\n      jump\t// in\n    tag_189:\n        /* \"contracts/TokenDistributor.sol\":5665:5785  ((userInfo[msg.sender].amount * accTokenPerShare) / PRECISION_FACTOR) -\r... */\n      tag_190\n      swap2\n      swap1\n      tag_104\n      jump\t// in\n    tag_190:\n        /* \"contracts/TokenDistributor.sol\":5631:5785  pendingRewards =\r... */\n      swap1\n      pop\n        /* \"contracts/TokenDistributor.sol\":5579:5797  if (userInfo[msg.sender].amount > 0) {\r... */\n    tag_187:\n        /* \"contracts/TokenDistributor.sol\":5886:5900  pendingRewards */\n      dup1\n        /* \"contracts/TokenDistributor.sol\":5877:5883  amount */\n      dup3\n        /* \"contracts/TokenDistributor.sol\":5877:5900  amount + pendingRewards */\n      tag_191\n      swap2\n      swap1\n      tag_108\n      jump\t// in\n    tag_191:\n        /* \"contracts/TokenDistributor.sol\":5845:5853  userInfo */\n      0x09\n        /* \"contracts/TokenDistributor.sol\":5845:5865  userInfo[msg.sender] */\n      0x00\n        /* \"contracts/TokenDistributor.sol\":5854:5864  msg.sender */\n      caller\n        /* \"contracts/TokenDistributor.sol\":5845:5865  userInfo[msg.sender] */\n      0xffffffffffffffffffffffffffffffffffffffff\n      and\n      0xffffffffffffffffffffffffffffffffffffffff\n      and\n      dup2\n      mstore\n      0x20\n      add\n      swap1\n      dup2\n      mstore\n      0x20\n      add\n      0x00\n      keccak256\n        /* \"contracts/TokenDistributor.sol\":5845:5872  userInfo[msg.sender].amount */\n      0x00\n      add\n      0x00\n        /* \"contracts/TokenDistributor.sol\":5845:5901  userInfo[msg.sender].amount += (amount + pendingRewards) */\n      dup3\n      dup3\n      sload\n      tag_192\n      swap2\n      swap1\n      tag_108\n      jump\t// in\n    tag_192:\n      swap3\n      pop\n      pop\n      dup2\n      swap1\n      sstore\n      pop\n        /* \"contracts/TokenDistributor.sol\":943:949  10**12 */\n      0xe8d4a51000\n        /* \"contracts/TokenDistributor.sol\":5977:5993  accTokenPerShare */\n      sload(0x01)\n        /* \"contracts/TokenDistributor.sol\":5947:5955  userInfo */\n      0x09\n        /* \"contracts/TokenDistributor.sol\":5947:5967  userInfo[msg.sender] */\n      0x00\n        /* \"contracts/TokenDistributor.sol\":5956:5966  msg.sender */\n      caller\n        /* \"contracts/TokenDistributor.sol\":5947:5967  userInfo[msg.sender] */\n      0xffffffffffffffffffffffffffffffffffffffff\n      and\n      0xffffffffffffffffffffffffffffffffffffffff\n      and\n      dup2\n      mstore\n      0x20\n      add\n      swap1\n      dup2\n      mstore\n      0x20\n      add\n      0x00\n      keccak256\n        /* \"contracts/TokenDistributor.sol\":5947:5974  userInfo[msg.sender].amount */\n      0x00\n      add\n      sload\n        /* \"contracts/TokenDistributor.sol\":5947:5993  userInfo[msg.sender].amount * accTokenPerShare */\n      tag_193\n      swap2\n      swap1\n      tag_99\n      jump\t// in\n    tag_193:\n        /* \"contracts/TokenDistributor.sol\":5946:6013  (userInfo[msg.sender].amount * accTokenPerShare) / PRECISION_FACTOR */\n      tag_194\n      swap2\n      swap1\n      tag_116\n      jump\t// in\n    tag_194:\n        /* \"contracts/TokenDistributor.sol\":5912:5920  userInfo */\n      0x09\n        /* \"contracts/TokenDistributor.sol\":5912:5932  userInfo[msg.sender] */\n      0x00\n        /* \"contracts/TokenDistributor.sol\":5921:5931  msg.sender */\n      caller\n        /* \"contracts/TokenDistributor.sol\":5912:5932  userInfo[msg.sender] */\n      0xffffffffffffffffffffffffffffffffffffffff\n      and\n      0xffffffffffffffffffffffffffffffffffffffff\n      and\n      dup2\n      mstore\n      0x20\n      add\n      swap1\n      dup2\n      mstore\n      0x20\n      add\n      0x00\n      keccak256\n        /* \"contracts/TokenDistributor.sol\":5912:5943  userInfo[msg.sender].rewardDebt */\n      0x01\n      add\n        /* \"contracts/TokenDistributor.sol\":5912:6013  userInfo[msg.sender].rewardDebt = (userInfo[msg.sender].amount * accTokenPerShare) / PRECISION_FACTOR */\n      dup2\n      swap1\n      sstore\n      pop\n        /* \"contracts/TokenDistributor.sol\":6096:6110  pendingRewards */\n      dup1\n        /* \"contracts/TokenDistributor.sol\":6087:6093  amount */\n      dup3\n        /* \"contracts/TokenDistributor.sol\":6087:6110  amount + pendingRewards */\n      tag_195\n      swap2\n      swap1\n      tag_108\n      jump\t// in\n    tag_195:\n        /* \"contracts/TokenDistributor.sol\":6065:6082  totalAmountStaked */\n      0x07\n      0x00\n        /* \"contracts/TokenDistributor.sol\":6065:6111  totalAmountStaked += (amount + pendingRewards) */\n      dup3\n      dup3\n      sload\n      tag_196\n      swap2\n      swap1\n      tag_108\n      jump\t// in\n    tag_196:\n      swap3\n      pop\n      pop\n      dup2\n      swap1\n      sstore\n      pop\n        /* \"contracts/TokenDistributor.sol\":6137:6147  msg.sender */\n      caller\n        /* \"contracts/TokenDistributor.sol\":6129:6172  Deposit(msg.sender, amount, pendingRewards) */\n      0xffffffffffffffffffffffffffffffffffffffff\n      and\n      0x90890809c654f11d6e72a28fa60149770a0d11ec6c92319d6ceb2bb0a4ea1a15\n        /* \"contracts/TokenDistributor.sol\":6149:6155  amount */\n      dup4\n        /* \"contracts/TokenDistributor.sol\":6157:6171  pendingRewards */\n      dup4\n        /* \"contracts/TokenDistributor.sol\":6129:6172  Deposit(msg.sender, amount, pendingRewards) */\n      mload(0x40)\n      tag_197\n      swap3\n      swap2\n      swap1\n      tag_42\n      jump\t// in\n    tag_197:\n      mload(0x40)\n      dup1\n      swap2\n      sub\n      swap1\n      log2\n        /* \"contracts/TokenDistributor.sol\":5197:6180  {\r... */\n      pop\n        /* \"@openzeppelin/contracts/security/ReentrancyGuard.sol\":1701:1702  1 */\n      0x01\n        /* \"@openzeppelin/contracts/security/ReentrancyGuard.sol\":2628:2635  _status */\n      0x00\n        /* \"@openzeppelin/contracts/security/ReentrancyGuard.sol\":2628:2650  _status = _NOT_ENTERED */\n      dup2\n      swap1\n      sstore\n      pop\n        /* \"contracts/TokenDistributor.sol\":5142:6180  function deposit(uint256 amount) external nonReentrant {\r... */\n      pop\n      jump\t// out\n        /* \"contracts/TokenDistributor.sol\":1823:1877  mapping(uint256 => StakingPeriod) public stakingPeriod */\n    tag_79:\n      mstore(0x20, 0x08)\n      dup1\n      0x00\n      mstore\n      keccak256(0x00, 0x40)\n      0x00\n      swap2\n      pop\n      swap1\n      pop\n      dup1\n      0x00\n      add\n      sload\n      swap1\n      dup1\n      0x01\n      add\n      sload\n      swap1\n      dup1\n      0x02\n      add\n      sload\n      swap1\n      pop\n      dup4\n      jump\t// out\n        /* \"contracts/TokenDistributor.sol\":900:949  uint256 public constant PRECISION_FACTOR = 10**12 */\n    tag_83:\n        /* \"contracts/TokenDistributor.sol\":943:949  10**12 */\n      0xe8d4a51000\n        /* \"contracts/TokenDistributor.sol\":900:949  uint256 public constant PRECISION_FACTOR = 10**12 */\n      dup2\n      jump\t// out\n        /* \"contracts/TokenDistributor.sol\":7264:7340  function updatePool() external nonReentrant {\r... */\n    tag_86:\n        /* \"@openzeppelin/contracts/security/ReentrancyGuard.sol\":1744:1745  2 */\n      0x02\n        /* \"@openzeppelin/contracts/security/ReentrancyGuard.sol\":2325:2332  _status */\n      sload(0x00)\n        /* \"@openzeppelin/contracts/security/ReentrancyGuard.sol\":2325:2344  _status != _ENTERED */\n      eq\n      iszero\n        /* \"@openzeppelin/contracts/security/ReentrancyGuard.sol\":2317:2380  require(_status != _ENTERED, \"ReentrancyGuard: reentrant call\") */\n      tag_199\n      jumpi\n      mload(0x40)\n      0x08c379a000000000000000000000000000000000000000000000000000000000\n      dup2\n      mstore\n      0x04\n      add\n      tag_200\n      swap1\n      tag_128\n      jump\t// in\n    tag_200:\n      mload(0x40)\n      dup1\n      swap2\n      sub\n      swap1\n      revert\n    tag_199:\n        /* \"@openzeppelin/contracts/security/ReentrancyGuard.sol\":1744:1745  2 */\n      0x02\n        /* \"@openzeppelin/contracts/security/ReentrancyGuard.sol\":2455:2462  _status */\n      0x00\n        /* \"@openzeppelin/contracts/security/ReentrancyGuard.sol\":2455:2473  _status = _ENTERED */\n      dup2\n      swap1\n      sstore\n      pop\n        /* \"contracts/TokenDistributor.sol\":7319:7332  _updatePool() */\n      tag_202\n        /* \"contracts/TokenDistributor.sol\":7319:7330  _updatePool */\n      tag_131\n        /* \"contracts/TokenDistributor.sol\":7319:7332  _updatePool() */\n      jump\t// in\n    tag_202:\n        /* \"@openzeppelin/contracts/security/ReentrancyGuard.sol\":1701:1702  1 */\n      0x01\n        /* \"@openzeppelin/contracts/security/ReentrancyGuard.sol\":2628:2635  _status */\n      0x00\n        /* \"@openzeppelin/contracts/security/ReentrancyGuard.sol\":2628:2650  _status = _NOT_ENTERED */\n      dup2\n      swap1\n      sstore\n      pop\n        /* \"contracts/TokenDistributor.sol\":7264:7340  function updatePool() external nonReentrant {\r... */\n      jump\t// out\n        /* \"contracts/TokenDistributor.sol\":1610:1648  uint256 public rewardPerBlockForOthers */\n    tag_88:\n      sload(0x05)\n      dup2\n      jump\t// out\n        /* \"contracts/TokenDistributor.sol\":1782:1814  uint256 public totalAmountStaked */\n    tag_91:\n      sload(0x07)\n      dup2\n      jump\t// out\n        /* \"contracts/TokenDistributor.sol\":14684:14965  function _getMultiplier(uint256 from, uint256 to) internal view returns (uint256) {\r... */\n    tag_97:\n        /* \"contracts/TokenDistributor.sol\":14757:14764  uint256 */\n      0x00\n        /* \"contracts/TokenDistributor.sol\":14787:14795  endBlock */\n      sload(0x03)\n        /* \"contracts/TokenDistributor.sol\":14781:14783  to */\n      dup3\n        /* \"contracts/TokenDistributor.sol\":14781:14795  to <= endBlock */\n      gt\n        /* \"contracts/TokenDistributor.sol\":14777:14958  if (to <= endBlock) {\r... */\n      tag_204\n      jumpi\n        /* \"contracts/TokenDistributor.sol\":14824:14828  from */\n      dup3\n        /* \"contracts/TokenDistributor.sol\":14819:14821  to */\n      dup3\n        /* \"contracts/TokenDistributor.sol\":14819:14828  to - from */\n      tag_205\n      swap2\n      swap1\n      tag_104\n      jump\t// in\n    tag_205:\n        /* \"contracts/TokenDistributor.sol\":14812:14828  return to - from */\n      swap1\n      pop\n      jump(tag_203)\n        /* \"contracts/TokenDistributor.sol\":14777:14958  if (to <= endBlock) {\r... */\n    tag_204:\n        /* \"contracts/TokenDistributor.sol\":14858:14866  endBlock */\n      sload(0x03)\n        /* \"contracts/TokenDistributor.sol\":14850:14854  from */\n      dup4\n        /* \"contracts/TokenDistributor.sol\":14850:14866  from >= endBlock */\n      lt\n        /* \"contracts/TokenDistributor.sol\":14846:14958  if (from >= endBlock) {\r... */\n      tag_207\n      jumpi\n        /* \"contracts/TokenDistributor.sol\":14890:14891  0 */\n      0x00\n        /* \"contracts/TokenDistributor.sol\":14883:14891  return 0 */\n      swap1\n      pop\n      jump(tag_203)\n        /* \"contracts/TokenDistributor.sol\":14846:14958  if (from >= endBlock) {\r... */\n    tag_207:\n        /* \"contracts/TokenDistributor.sol\":14942:14946  from */\n      dup3\n        /* \"contracts/TokenDistributor.sol\":14931:14939  endBlock */\n      sload(0x03)\n        /* \"contracts/TokenDistributor.sol\":14931:14946  endBlock - from */\n      tag_209\n      swap2\n      swap1\n      tag_104\n      jump\t// in\n    tag_209:\n        /* \"contracts/TokenDistributor.sol\":14924:14946  return endBlock - from */\n      swap1\n      pop\n        /* \"contracts/TokenDistributor.sol\":14684:14965  function _getMultiplier(uint256 from, uint256 to) internal view returns (uint256) {\r... */\n    tag_203:\n      swap3\n      swap2\n      pop\n      pop\n      jump\t// out\n        /* \"contracts/TokenDistributor.sol\":11720:13835  function _updatePool() internal {\r... */\n    tag_131:\n        /* \"contracts/TokenDistributor.sol\":11783:11798  lastRewardBlock */\n      sload(0x04)\n        /* \"contracts/TokenDistributor.sol\":11767:11779  block.number */\n      number\n        /* \"contracts/TokenDistributor.sol\":11767:11798  block.number <= lastRewardBlock */\n      gt\n        /* \"contracts/TokenDistributor.sol\":11763:11833  if (block.number <= lastRewardBlock) {\r... */\n      tag_211\n      jumpi\n        /* \"contracts/TokenDistributor.sol\":11815:11822  return; */\n      jump(tag_210)\n        /* \"contracts/TokenDistributor.sol\":11763:11833  if (block.number <= lastRewardBlock) {\r... */\n    tag_211:\n        /* \"contracts/TokenDistributor.sol\":11870:11871  0 */\n      0x00\n        /* \"contracts/TokenDistributor.sol\":11849:11866  totalAmountStaked */\n      sload(0x07)\n        /* \"contracts/TokenDistributor.sol\":11849:11871  totalAmountStaked == 0 */\n      eq\n        /* \"contracts/TokenDistributor.sol\":11845:11951  if (totalAmountStaked == 0) {\r... */\n      iszero\n      tag_212\n      jumpi\n        /* \"contracts/TokenDistributor.sol\":11906:11918  block.number */\n      number\n        /* \"contracts/TokenDistributor.sol\":11888:11903  lastRewardBlock */\n      0x04\n        /* \"contracts/TokenDistributor.sol\":11888:11918  lastRewardBlock = block.number */\n      dup2\n      swap1\n      sstore\n      pop\n        /* \"contracts/TokenDistributor.sol\":11933:11940  return; */\n      jump(tag_210)\n        /* \"contracts/TokenDistributor.sol\":11845:11951  if (totalAmountStaked == 0) {\r... */\n    tag_212:\n        /* \"contracts/TokenDistributor.sol\":11996:12014  uint256 multiplier */\n      0x00\n        /* \"contracts/TokenDistributor.sol\":12017:12062  _getMultiplier(lastRewardBlock, block.number) */\n      tag_213\n        /* \"contracts/TokenDistributor.sol\":12032:12047  lastRewardBlock */\n      sload(0x04)\n        /* \"contracts/TokenDistributor.sol\":12049:12061  block.number */\n      number\n        /* \"contracts/TokenDistributor.sol\":12017:12031  _getMultiplier */\n      tag_97\n        /* \"contracts/TokenDistributor.sol\":12017:12062  _getMultiplier(lastRewardBlock, block.number) */\n      jump\t// in\n    tag_213:\n        /* \"contracts/TokenDistributor.sol\":11996:12062  uint256 multiplier = _getMultiplier(lastRewardBlock, block.number) */\n      swap1\n      pop\n        /* \"contracts/TokenDistributor.sol\":12128:12157  uint256 tokenRewardForStaking */\n      0x00\n        /* \"contracts/TokenDistributor.sol\":12173:12197  rewardPerBlockForStaking */\n      sload(0x06)\n        /* \"contracts/TokenDistributor.sol\":12160:12170  multiplier */\n      dup3\n        /* \"contracts/TokenDistributor.sol\":12160:12197  multiplier * rewardPerBlockForStaking */\n      tag_214\n      swap2\n      swap1\n      tag_99\n      jump\t// in\n    tag_214:\n        /* \"contracts/TokenDistributor.sol\":12128:12197  uint256 tokenRewardForStaking = multiplier * rewardPerBlockForStaking */\n      swap1\n      pop\n        /* \"contracts/TokenDistributor.sol\":12208:12236  uint256 tokenRewardForOthers */\n      0x00\n        /* \"contracts/TokenDistributor.sol\":12252:12275  rewardPerBlockForOthers */\n      sload(0x05)\n        /* \"contracts/TokenDistributor.sol\":12239:12249  multiplier */\n      dup4\n        /* \"contracts/TokenDistributor.sol\":12239:12275  multiplier * rewardPerBlockForOthers */\n      tag_215\n      swap2\n      swap1\n      tag_99\n      jump\t// in\n    tag_215:\n        /* \"contracts/TokenDistributor.sol\":12208:12275  uint256 tokenRewardForOthers = multiplier * rewardPerBlockForOthers */\n      swap1\n      pop\n        /* \"contracts/TokenDistributor.sol\":12357:13084  while ((block.number > endBlock) && (currentPhase < (NUMBER_PERIODS - 1))) {\r... */\n    tag_216:\n        /* \"contracts/TokenDistributor.sol\":12380:12388  endBlock */\n      sload(0x03)\n        /* \"contracts/TokenDistributor.sol\":12365:12377  block.number */\n      number\n        /* \"contracts/TokenDistributor.sol\":12365:12388  block.number > endBlock */\n      gt\n        /* \"contracts/TokenDistributor.sol\":12364:12430  (block.number > endBlock) && (currentPhase < (NUMBER_PERIODS - 1)) */\n      dup1\n      iszero\n      tag_218\n      jumpi\n      pop\n        /* \"contracts/TokenDistributor.sol\":12427:12428  1 */\n      0x01\n        /* \"contracts/TokenDistributor.sol\":12410:12424  NUMBER_PERIODS */\n      immutable(\"0xafcd10eb8a933fb34272fbf3a0d55ec898d75144e8be37ea9b6ca4a0ee7bc3b2\")\n        /* \"contracts/TokenDistributor.sol\":12410:12428  NUMBER_PERIODS - 1 */\n      tag_219\n      swap2\n      swap1\n      tag_104\n      jump\t// in\n    tag_219:\n        /* \"contracts/TokenDistributor.sol\":12394:12406  currentPhase */\n      sload(0x02)\n        /* \"contracts/TokenDistributor.sol\":12394:12429  currentPhase < (NUMBER_PERIODS - 1) */\n      lt\n        /* \"contracts/TokenDistributor.sol\":12364:12430  (block.number > endBlock) && (currentPhase < (NUMBER_PERIODS - 1)) */\n    tag_218:\n        /* \"contracts/TokenDistributor.sol\":12357:13084  while ((block.number > endBlock) && (currentPhase < (NUMBER_PERIODS - 1))) {\r... */\n      iszero\n      tag_217\n      jumpi\n        /* \"contracts/TokenDistributor.sol\":12488:12520  _updateRewardsPerBlock(endBlock) */\n      tag_220\n        /* \"contracts/TokenDistributor.sol\":12511:12519  endBlock */\n      sload(0x03)\n        /* \"contracts/TokenDistributor.sol\":12488:12510  _updateRewardsPerBlock */\n      tag_221\n        /* \"contracts/TokenDistributor.sol\":12488:12520  _updateRewardsPerBlock(endBlock) */\n      jump\t// in\n    tag_220:\n        /* \"contracts/TokenDistributor.sol\":12537:12561  uint256 previousEndBlock */\n      0x00\n        /* \"contracts/TokenDistributor.sol\":12564:12572  endBlock */\n      sload(0x03)\n        /* \"contracts/TokenDistributor.sol\":12537:12572  uint256 previousEndBlock = endBlock */\n      swap1\n      pop\n        /* \"contracts/TokenDistributor.sol\":12638:12651  stakingPeriod */\n      0x08\n        /* \"contracts/TokenDistributor.sol\":12638:12665  stakingPeriod[currentPhase] */\n      0x00\n        /* \"contracts/TokenDistributor.sol\":12652:12664  currentPhase */\n      sload(0x02)\n        /* \"contracts/TokenDistributor.sol\":12638:12665  stakingPeriod[currentPhase] */\n      dup2\n      mstore\n      0x20\n      add\n      swap1\n      dup2\n      mstore\n      0x20\n      add\n      0x00\n      keccak256\n        /* \"contracts/TokenDistributor.sol\":12638:12685  stakingPeriod[currentPhase].periodLengthInBlock */\n      0x02\n      add\n      sload\n        /* \"contracts/TokenDistributor.sol\":12626:12634  endBlock */\n      0x03\n      0x00\n        /* \"contracts/TokenDistributor.sol\":12626:12685  endBlock += stakingPeriod[currentPhase].periodLengthInBlock */\n      dup3\n      dup3\n      sload\n      tag_222\n      swap2\n      swap1\n      tag_108\n      jump\t// in\n    tag_222:\n      swap3\n      pop\n      pop\n      dup2\n      swap1\n      sstore\n      pop\n        /* \"contracts/TokenDistributor.sol\":12801:12822  uint256 newMultiplier */\n      0x00\n        /* \"contracts/TokenDistributor.sol\":12825:12871  _getMultiplier(previousEndBlock, block.number) */\n      tag_223\n        /* \"contracts/TokenDistributor.sol\":12840:12856  previousEndBlock */\n      dup3\n        /* \"contracts/TokenDistributor.sol\":12858:12870  block.number */\n      number\n        /* \"contracts/TokenDistributor.sol\":12825:12839  _getMultiplier */\n      tag_97\n        /* \"contracts/TokenDistributor.sol\":12825:12871  _getMultiplier(previousEndBlock, block.number) */\n      jump\t// in\n    tag_223:\n        /* \"contracts/TokenDistributor.sol\":12801:12871  uint256 newMultiplier = _getMultiplier(previousEndBlock, block.number) */\n      swap1\n      pop\n        /* \"contracts/TokenDistributor.sol\":12967:12991  rewardPerBlockForStaking */\n      sload(0x06)\n        /* \"contracts/TokenDistributor.sol\":12951:12964  newMultiplier */\n      dup2\n        /* \"contracts/TokenDistributor.sol\":12951:12991  newMultiplier * rewardPerBlockForStaking */\n      tag_224\n      swap2\n      swap1\n      tag_99\n      jump\t// in\n    tag_224:\n        /* \"contracts/TokenDistributor.sol\":12925:12992  tokenRewardForStaking += (newMultiplier * rewardPerBlockForStaking) */\n      dup5\n      tag_225\n      swap2\n      swap1\n      tag_108\n      jump\t// in\n    tag_225:\n      swap4\n      pop\n        /* \"contracts/TokenDistributor.sol\":13048:13071  rewardPerBlockForOthers */\n      sload(0x05)\n        /* \"contracts/TokenDistributor.sol\":13032:13045  newMultiplier */\n      dup2\n        /* \"contracts/TokenDistributor.sol\":13032:13071  newMultiplier * rewardPerBlockForOthers */\n      tag_226\n      swap2\n      swap1\n      tag_99\n      jump\t// in\n    tag_226:\n        /* \"contracts/TokenDistributor.sol\":13007:13072  tokenRewardForOthers += (newMultiplier * rewardPerBlockForOthers) */\n      dup4\n      tag_227\n      swap2\n      swap1\n      tag_108\n      jump\t// in\n    tag_227:\n      swap3\n      pop\n        /* \"contracts/TokenDistributor.sol\":12432:13084  {\r... */\n      pop\n      pop\n        /* \"contracts/TokenDistributor.sol\":12357:13084  while ((block.number > endBlock) && (currentPhase < (NUMBER_PERIODS - 1))) {\r... */\n      jump(tag_216)\n    tag_217:\n        /* \"contracts/TokenDistributor.sol\":13195:13196  0 */\n      0x00\n        /* \"contracts/TokenDistributor.sol\":13171:13192  tokenRewardForStaking */\n      dup3\n        /* \"contracts/TokenDistributor.sol\":13171:13196  tokenRewardForStaking > 0 */\n      gt\n        /* \"contracts/TokenDistributor.sol\":13167:13637  if (tokenRewardForStaking > 0) {\r... */\n      iszero\n      tag_228\n      jumpi\n        /* \"contracts/TokenDistributor.sol\":13310:13325  bool mintStatus */\n      0x00\n        /* \"contracts/TokenDistributor.sol\":13328:13342  looksRareToken */\n      immutable(\"0x94ac46a65f1fb0934ae334b85100dc6a35a94d53aa1e2b4e46f9a861095e9ac0\")\n        /* \"contracts/TokenDistributor.sol\":13328:13347  looksRareToken.mint */\n      0xffffffffffffffffffffffffffffffffffffffff\n      and\n      0x40c10f19\n        /* \"contracts/TokenDistributor.sol\":13356:13360  this */\n      address\n        /* \"contracts/TokenDistributor.sol\":13363:13384  tokenRewardForStaking */\n      dup6\n        /* \"contracts/TokenDistributor.sol\":13328:13385  looksRareToken.mint(address(this), tokenRewardForStaking) */\n      mload(0x40)\n      dup4\n      0xffffffff\n      and\n      0xe0\n      shl\n      dup2\n      mstore\n      0x04\n      add\n      tag_229\n      swap3\n      swap2\n      swap1\n      tag_230\n      jump\t// in\n    tag_229:\n      0x20\n      mload(0x40)\n      dup1\n      dup4\n      sub\n      dup2\n      0x00\n      dup8\n      dup1\n      extcodesize\n      iszero\n      dup1\n      iszero\n      tag_231\n      jumpi\n      0x00\n      dup1\n      revert\n    tag_231:\n      pop\n      gas\n      call\n      iszero\n      dup1\n      iszero\n      tag_233\n      jumpi\n      returndatasize\n      0x00\n      dup1\n      returndatacopy\n      revert(0x00, returndatasize)\n    tag_233:\n      pop\n      pop\n      pop\n      pop\n      mload(0x40)\n      returndatasize\n      not(0x1f)\n      0x1f\n      dup3\n      add\n      and\n      dup3\n      add\n      dup1\n      0x40\n      mstore\n      pop\n      dup2\n      add\n      swap1\n      tag_234\n      swap2\n      swap1\n      tag_235\n      jump\t// in\n    tag_234:\n        /* \"contracts/TokenDistributor.sol\":13310:13385  bool mintStatus = looksRareToken.mint(address(this), tokenRewardForStaking) */\n      swap1\n      pop\n        /* \"contracts/TokenDistributor.sol\":13404:13414  mintStatus */\n      dup1\n        /* \"contracts/TokenDistributor.sol\":13400:13553  if (mintStatus) {\r... */\n      iszero\n      tag_236\n      jumpi\n        /* \"contracts/TokenDistributor.sol\":13519:13536  totalAmountStaked */\n      sload(0x07)\n        /* \"contracts/TokenDistributor.sol\":943:949  10**12 */\n      0xe8d4a51000\n        /* \"contracts/TokenDistributor.sol\":13475:13496  tokenRewardForStaking */\n      dup5\n        /* \"contracts/TokenDistributor.sol\":13475:13515  tokenRewardForStaking * PRECISION_FACTOR */\n      tag_237\n      swap2\n      swap1\n      tag_99\n      jump\t// in\n    tag_237:\n        /* \"contracts/TokenDistributor.sol\":13474:13536  (tokenRewardForStaking * PRECISION_FACTOR) / totalAmountStaked */\n      tag_238\n      swap2\n      swap1\n      tag_116\n      jump\t// in\n    tag_238:\n        /* \"contracts/TokenDistributor.sol\":13454:13470  accTokenPerShare */\n      sload(0x01)\n        /* \"contracts/TokenDistributor.sol\":13454:13537  accTokenPerShare + ((tokenRewardForStaking * PRECISION_FACTOR) / totalAmountStaked) */\n      tag_239\n      swap2\n      swap1\n      tag_108\n      jump\t// in\n    tag_239:\n        /* \"contracts/TokenDistributor.sol\":13435:13451  accTokenPerShare */\n      0x01\n        /* \"contracts/TokenDistributor.sol\":13435:13537  accTokenPerShare = accTokenPerShare + ((tokenRewardForStaking * PRECISION_FACTOR) / totalAmountStaked) */\n      dup2\n      swap1\n      sstore\n      pop\n        /* \"contracts/TokenDistributor.sol\":13400:13553  if (mintStatus) {\r... */\n    tag_236:\n        /* \"contracts/TokenDistributor.sol\":13569:13583  looksRareToken */\n      immutable(\"0x94ac46a65f1fb0934ae334b85100dc6a35a94d53aa1e2b4e46f9a861095e9ac0\")\n        /* \"contracts/TokenDistributor.sol\":13569:13588  looksRareToken.mint */\n      0xffffffffffffffffffffffffffffffffffffffff\n      and\n      0x40c10f19\n        /* \"contracts/TokenDistributor.sol\":13589:13602  tokenSplitter */\n      immutable(\"0xa752a62a6f5fb32dd4e041dbf29a56f1f90fbf8d8356b6069d6d3304e11d2d2e\")\n        /* \"contracts/TokenDistributor.sol\":13604:13624  tokenRewardForOthers */\n      dup5\n        /* \"contracts/TokenDistributor.sol\":13569:13625  looksRareToken.mint(tokenSplitter, tokenRewardForOthers) */\n      mload(0x40)\n      dup4\n      0xffffffff\n      and\n      0xe0\n      shl\n      dup2\n      mstore\n      0x04\n      add\n      tag_240\n      swap3\n      swap2\n      swap1\n      tag_230\n      jump\t// in\n    tag_240:\n      0x20\n      mload(0x40)\n      dup1\n      dup4\n      sub\n      dup2\n      0x00\n      dup8\n      dup1\n      extcodesize\n      iszero\n      dup1\n      iszero\n      tag_241\n      jumpi\n      0x00\n      dup1\n      revert\n    tag_241:\n      pop\n      gas\n      call\n      iszero\n      dup1\n      iszero\n      tag_243\n      jumpi\n      returndatasize\n      0x00\n      dup1\n      returndatacopy\n      revert(0x00, returndatasize)\n    tag_243:\n      pop\n      pop\n      pop\n      pop\n      mload(0x40)\n      returndatasize\n      not(0x1f)\n      0x1f\n      dup3\n      add\n      and\n      dup3\n      add\n      dup1\n      0x40\n      mstore\n      pop\n      dup2\n      add\n      swap1\n      tag_244\n      swap2\n      swap1\n      tag_235\n      jump\t// in\n    tag_244:\n      pop\n        /* \"contracts/TokenDistributor.sol\":13198:13637  {\r... */\n      pop\n        /* \"contracts/TokenDistributor.sol\":13167:13637  if (tokenRewardForStaking > 0) {\r... */\n    tag_228:\n        /* \"contracts/TokenDistributor.sol\":13761:13769  endBlock */\n      sload(0x03)\n        /* \"contracts/TokenDistributor.sol\":13742:13757  lastRewardBlock */\n      sload(0x04)\n        /* \"contracts/TokenDistributor.sol\":13742:13769  lastRewardBlock <= endBlock */\n      gt\n        /* \"contracts/TokenDistributor.sol\":13738:13828  if (lastRewardBlock <= endBlock) {\r... */\n      tag_245\n      jumpi\n        /* \"contracts/TokenDistributor.sol\":13804:13816  block.number */\n      number\n        /* \"contracts/TokenDistributor.sol\":13786:13801  lastRewardBlock */\n      0x04\n        /* \"contracts/TokenDistributor.sol\":13786:13816  lastRewardBlock = block.number */\n      dup2\n      swap1\n      sstore\n      pop\n        /* \"contracts/TokenDistributor.sol\":13738:13828  if (lastRewardBlock <= endBlock) {\r... */\n    tag_245:\n        /* \"contracts/TokenDistributor.sol\":11752:13835  {\r... */\n      pop\n      pop\n      pop\n        /* \"contracts/TokenDistributor.sol\":11720:13835  function _updatePool() internal {\r... */\n    tag_210:\n      jump\t// out\n        /* \"@openzeppelin/contracts/token/ERC20/utils/SafeERC20.sol\":701:906  function safeTransfer(... */\n    tag_160:\n        /* \"@openzeppelin/contracts/token/ERC20/utils/SafeERC20.sol\":813:899  _callOptionalReturn(token, abi.encodeWithSelector(token.transfer.selector, to, value)) */\n      tag_247\n        /* \"@openzeppelin/contracts/token/ERC20/utils/SafeERC20.sol\":833:838  token */\n      dup4\n        /* \"@openzeppelin/contracts/token/ERC20/utils/SafeERC20.sol\":863:886  token.transfer.selector */\n      shl(0xe0, 0xa9059cbb)\n        /* \"@openzeppelin/contracts/token/ERC20/utils/SafeERC20.sol\":888:890  to */\n      dup5\n        /* \"@openzeppelin/contracts/token/ERC20/utils/SafeERC20.sol\":892:897  value */\n      dup5\n        /* \"@openzeppelin/contracts/token/ERC20/utils/SafeERC20.sol\":840:898  abi.encodeWithSelector(token.transfer.selector, to, value) */\n      add(0x24, mload(0x40))\n      tag_248\n      swap3\n      swap2\n      swap1\n      tag_230\n      jump\t// in\n    tag_248:\n      mload(0x40)\n      0x20\n      dup2\n      dup4\n      sub\n      sub\n      dup2\n      mstore\n      swap1\n      0x40\n      mstore\n      swap1\n      not(0xffffffffffffffffffffffffffffffffffffffffffffffffffffffff)\n      and\n      0x20\n      dup3\n      add\n      dup1\n      mload\n      0xffffffffffffffffffffffffffffffffffffffffffffffffffffffff\n      dup4\n      dup2\n      dup4\n      and\n      or\n      dup4\n      mstore\n      pop\n      pop\n      pop\n      pop\n        /* \"@openzeppelin/contracts/token/ERC20/utils/SafeERC20.sol\":813:832  _callOptionalReturn */\n      tag_249\n        /* \"@openzeppelin/contracts/token/ERC20/utils/SafeERC20.sol\":813:899  _callOptionalReturn(token, abi.encodeWithSelector(token.transfer.selector, to, value)) */\n      jump\t// in\n    tag_247:\n        /* \"@openzeppelin/contracts/token/ERC20/utils/SafeERC20.sol\":701:906  function safeTransfer(... */\n      pop\n      pop\n      pop\n      jump\t// out\n        /* \"@openzeppelin/contracts/token/ERC20/utils/SafeERC20.sol\":912:1153  function safeTransferFrom(... */\n    tag_186:\n        /* \"@openzeppelin/contracts/token/ERC20/utils/SafeERC20.sol\":1050:1146  _callOptionalReturn(token, abi.encodeWithSelector(token.transferFrom.selector, from, to, value)) */\n      tag_251\n        /* \"@openzeppelin/contracts/token/ERC20/utils/SafeERC20.sol\":1070:1075  token */\n      dup5\n        /* \"@openzeppelin/contracts/token/ERC20/utils/SafeERC20.sol\":1100:1127  token.transferFrom.selector */\n      shl(0xe0, 0x23b872dd)\n        /* \"@openzeppelin/contracts/token/ERC20/utils/SafeERC20.sol\":1129:1133  from */\n      dup6\n        /* \"@openzeppelin/contracts/token/ERC20/utils/SafeERC20.sol\":1135:1137  to */\n      dup6\n        /* \"@openzeppelin/contracts/token/ERC20/utils/SafeERC20.sol\":1139:1144  value */\n      dup6\n        /* \"@openzeppelin/contracts/token/ERC20/utils/SafeERC20.sol\":1077:1145  abi.encodeWithSelector(token.transferFrom.selector, from, to, value) */\n      add(0x24, mload(0x40))\n      tag_252\n      swap4\n      swap3\n      swap2\n      swap1\n      tag_253\n      jump\t// in\n    tag_252:\n      mload(0x40)\n      0x20\n      dup2\n      dup4\n      sub\n      sub\n      dup2\n      mstore\n      swap1\n      0x40\n      mstore\n      swap1\n      not(0xffffffffffffffffffffffffffffffffffffffffffffffffffffffff)\n      and\n      0x20\n      dup3\n      add\n      dup1\n      mload\n      0xffffffffffffffffffffffffffffffffffffffffffffffffffffffff\n      dup4\n      dup2\n      dup4\n      and\n      or\n      dup4\n      mstore\n      pop\n      pop\n      pop\n      pop\n        /* \"@openzeppelin/contracts/token/ERC20/utils/SafeERC20.sol\":1050:1069  _callOptionalReturn */\n      tag_249\n        /* \"@openzeppelin/contracts/token/ERC20/utils/SafeERC20.sol\":1050:1146  _callOptionalReturn(token, abi.encodeWithSelector(token.transferFrom.selector, from, to, value)) */\n      jump\t// in\n    tag_251:\n        /* \"@openzeppelin/contracts/token/ERC20/utils/SafeERC20.sol\":912:1153  function safeTransferFrom(... */\n      pop\n      pop\n      pop\n      pop\n      jump\t// out\n        /* \"contracts/TokenDistributor.sol\":13962:14427  function _updateRewardsPerBlock(uint256 _newStartBlock) internal {\r... */\n    tag_221:\n        /* \"contracts/TokenDistributor.sol\":14071:14083  currentPhase */\n      0x02\n      0x00\n        /* \"contracts/TokenDistributor.sol\":14071:14085  currentPhase++ */\n      dup2\n      sload\n      dup1\n      swap3\n      swap2\n      swap1\n      tag_255\n      swap1\n      tag_106\n      jump\t// in\n    tag_255:\n      swap2\n      swap1\n      pop\n      sstore\n      pop\n        /* \"contracts/TokenDistributor.sol\":14162:14175  stakingPeriod */\n      0x08\n        /* \"contracts/TokenDistributor.sol\":14162:14189  stakingPeriod[currentPhase] */\n      0x00\n        /* \"contracts/TokenDistributor.sol\":14176:14188  currentPhase */\n      sload(0x02)\n        /* \"contracts/TokenDistributor.sol\":14162:14189  stakingPeriod[currentPhase] */\n      dup2\n      mstore\n      0x20\n      add\n      swap1\n      dup2\n      mstore\n      0x20\n      add\n      0x00\n      keccak256\n        /* \"contracts/TokenDistributor.sol\":14162:14214  stakingPeriod[currentPhase].rewardPerBlockForStaking */\n      0x00\n      add\n      sload\n        /* \"contracts/TokenDistributor.sol\":14135:14159  rewardPerBlockForStaking */\n      0x06\n        /* \"contracts/TokenDistributor.sol\":14135:14214  rewardPerBlockForStaking = stakingPeriod[currentPhase].rewardPerBlockForStaking */\n      dup2\n      swap1\n      sstore\n      pop\n        /* \"contracts/TokenDistributor.sol\":14251:14264  stakingPeriod */\n      0x08\n        /* \"contracts/TokenDistributor.sol\":14251:14278  stakingPeriod[currentPhase] */\n      0x00\n        /* \"contracts/TokenDistributor.sol\":14265:14277  currentPhase */\n      sload(0x02)\n        /* \"contracts/TokenDistributor.sol\":14251:14278  stakingPeriod[currentPhase] */\n      dup2\n      mstore\n      0x20\n      add\n      swap1\n      dup2\n      mstore\n      0x20\n      add\n      0x00\n      keccak256\n        /* \"contracts/TokenDistributor.sol\":14251:14302  stakingPeriod[currentPhase].rewardPerBlockForOthers */\n      0x01\n      add\n      sload\n        /* \"contracts/TokenDistributor.sol\":14225:14248  rewardPerBlockForOthers */\n      0x05\n        /* \"contracts/TokenDistributor.sol\":14225:14302  rewardPerBlockForOthers = stakingPeriod[currentPhase].rewardPerBlockForOthers */\n      dup2\n      swap1\n      sstore\n      pop\n        /* \"contracts/TokenDistributor.sol\":14339:14351  currentPhase */\n      sload(0x02)\n        /* \"contracts/TokenDistributor.sol\":14320:14419  NewRewardsPerBlock(currentPhase, _newStartBlock, rewardPerBlockForStaking, rewardPerBlockForOthers) */\n      0x40181eb77bccfdef1a73b669bb4290d98e2fbec678c7cf4578ae256210420e17\n        /* \"contracts/TokenDistributor.sol\":14353:14367  _newStartBlock */\n      dup3\n        /* \"contracts/TokenDistributor.sol\":14369:14393  rewardPerBlockForStaking */\n      sload(0x06)\n        /* \"contracts/TokenDistributor.sol\":14395:14418  rewardPerBlockForOthers */\n      sload(0x05)\n        /* \"contracts/TokenDistributor.sol\":14320:14419  NewRewardsPerBlock(currentPhase, _newStartBlock, rewardPerBlockForStaking, rewardPerBlockForOthers) */\n      mload(0x40)\n      tag_256\n      swap4\n      swap3\n      swap2\n      swap1\n      tag_81\n      jump\t// in\n    tag_256:\n      mload(0x40)\n      dup1\n      swap2\n      sub\n      swap1\n      log2\n        /* \"contracts/TokenDistributor.sol\":13962:14427  function _updateRewardsPerBlock(uint256 _newStartBlock) internal {\r... */\n      pop\n      jump\t// out\n        /* \"@openzeppelin/contracts/token/ERC20/utils/SafeERC20.sol\":3207:3913  function _callOptionalReturn(IERC20 token, bytes memory data) private {... */\n    tag_249:\n        /* \"@openzeppelin/contracts/token/ERC20/utils/SafeERC20.sol\":3626:3649  bytes memory returndata */\n      0x00\n        /* \"@openzeppelin/contracts/token/ERC20/utils/SafeERC20.sol\":3652:3721  address(token).functionCall(data, \"SafeERC20: low-level call failed\") */\n      tag_258\n        /* \"@openzeppelin/contracts/token/ERC20/utils/SafeERC20.sol\":3680:3684  data */\n      dup3\n        /* \"@openzeppelin/contracts/token/ERC20/utils/SafeERC20.sol\":3652:3721  address(token).functionCall(data, \"SafeERC20: low-level call failed\") */\n      mload(0x40)\n      dup1\n      0x40\n      add\n      0x40\n      mstore\n      dup1\n      0x20\n      dup2\n      mstore\n      0x20\n      add\n      0x5361666545524332303a206c6f772d6c6576656c2063616c6c206661696c6564\n      dup2\n      mstore\n      pop\n        /* \"@openzeppelin/contracts/token/ERC20/utils/SafeERC20.sol\":3660:3665  token */\n      dup6\n        /* \"@openzeppelin/contracts/token/ERC20/utils/SafeERC20.sol\":3652:3679  address(token).functionCall */\n      0xffffffffffffffffffffffffffffffffffffffff\n      and\n      tag_259\n      swap1\n        /* \"@openzeppelin/contracts/token/ERC20/utils/SafeERC20.sol\":3652:3721  address(token).functionCall(data, \"SafeERC20: low-level call failed\") */\n      swap3\n      swap2\n      swap1\n      0xffffffff\n      and\n      jump\t// in\n    tag_258:\n        /* \"@openzeppelin/contracts/token/ERC20/utils/SafeERC20.sol\":3626:3721  bytes memory returndata = address(token).functionCall(data, \"SafeERC20: low-level call failed\") */\n      swap1\n      pop\n        /* \"@openzeppelin/contracts/token/ERC20/utils/SafeERC20.sol\":3755:3756  0 */\n      0x00\n        /* \"@openzeppelin/contracts/token/ERC20/utils/SafeERC20.sol\":3735:3745  returndata */\n      dup2\n        /* \"@openzeppelin/contracts/token/ERC20/utils/SafeERC20.sol\":3735:3752  returndata.length */\n      mload\n        /* \"@openzeppelin/contracts/token/ERC20/utils/SafeERC20.sol\":3735:3756  returndata.length > 0 */\n      gt\n        /* \"@openzeppelin/contracts/token/ERC20/utils/SafeERC20.sol\":3731:3907  if (returndata.length > 0) {... */\n      iszero\n      tag_260\n      jumpi\n        /* \"@openzeppelin/contracts/token/ERC20/utils/SafeERC20.sol\":3830:3840  returndata */\n      dup1\n        /* \"@openzeppelin/contracts/token/ERC20/utils/SafeERC20.sol\":3819:3849  abi.decode(returndata, (bool)) */\n      dup1\n      0x20\n      add\n      swap1\n      mload\n      dup2\n      add\n      swap1\n      tag_261\n      swap2\n      swap1\n      tag_235\n      jump\t// in\n    tag_261:\n        /* \"@openzeppelin/contracts/token/ERC20/utils/SafeERC20.sol\":3811:3896  require(abi.decode(returndata, (bool)), \"SafeERC20: ERC20 operation did not succeed\") */\n      tag_262\n      jumpi\n      mload(0x40)\n      0x08c379a000000000000000000000000000000000000000000000000000000000\n      dup2\n      mstore\n      0x04\n      add\n      tag_263\n      swap1\n      tag_264\n      jump\t// in\n    tag_263:\n      mload(0x40)\n      dup1\n      swap2\n      sub\n      swap1\n      revert\n    tag_262:\n        /* \"@openzeppelin/contracts/token/ERC20/utils/SafeERC20.sol\":3731:3907  if (returndata.length > 0) {... */\n    tag_260:\n        /* \"@openzeppelin/contracts/token/ERC20/utils/SafeERC20.sol\":3277:3913  {... */\n      pop\n        /* \"@openzeppelin/contracts/token/ERC20/utils/SafeERC20.sol\":3207:3913  function _callOptionalReturn(IERC20 token, bytes memory data) private {... */\n      pop\n      pop\n      jump\t// out\n        /* \"@openzeppelin/contracts/utils/Address.sol\":3861:4084  function functionCall(... */\n    tag_259:\n        /* \"@openzeppelin/contracts/utils/Address.sol\":3994:4006  bytes memory */\n      0x60\n        /* \"@openzeppelin/contracts/utils/Address.sol\":4025:4077  functionCallWithValue(target, data, 0, errorMessage) */\n      tag_266\n        /* \"@openzeppelin/contracts/utils/Address.sol\":4047:4053  target */\n      dup5\n        /* \"@openzeppelin/contracts/utils/Address.sol\":4055:4059  data */\n      dup5\n        /* \"@openzeppelin/contracts/utils/Address.sol\":4061:4062  0 */\n      0x00\n        /* \"@openzeppelin/contracts/utils/Address.sol\":4064:4076  errorMessage */\n      dup6\n        /* \"@openzeppelin/contracts/utils/Address.sol\":4025:4046  functionCallWithValue */\n      tag_267\n        /* \"@openzeppelin/contracts/utils/Address.sol\":4025:4077  functionCallWithValue(target, data, 0, errorMessage) */\n      jump\t// in\n    tag_266:\n        /* \"@openzeppelin/contracts/utils/Address.sol\":4018:4077  return functionCallWithValue(target, data, 0, errorMessage) */\n      swap1\n      pop\n        /* \"@openzeppelin/contracts/utils/Address.sol\":3861:4084  function functionCall(... */\n      swap4\n      swap3\n      pop\n      pop\n      pop\n      jump\t// out\n        /* \"@openzeppelin/contracts/utils/Address.sol\":4948:5447  function functionCallWithValue(... */\n    tag_267:\n        /* \"@openzeppelin/contracts/utils/Address.sol\":5113:5125  bytes memory */\n      0x60\n        /* \"@openzeppelin/contracts/utils/Address.sol\":5170:5175  value */\n      dup3\n        /* \"@openzeppelin/contracts/utils/Address.sol\":5145:5166  address(this).balance */\n      selfbalance\n        /* \"@openzeppelin/contracts/utils/Address.sol\":5145:5175  address(this).balance >= value */\n      lt\n      iszero\n        /* \"@openzeppelin/contracts/utils/Address.sol\":5137:5218  require(address(this).balance >= value, \"Address: insufficient balance for call\") */\n      tag_269\n      jumpi\n      mload(0x40)\n      0x08c379a000000000000000000000000000000000000000000000000000000000\n      dup2\n      mstore\n      0x04\n      add\n      tag_270\n      swap1\n      tag_271\n      jump\t// in\n    tag_270:\n      mload(0x40)\n      dup1\n      swap2\n      sub\n      swap1\n      revert\n    tag_269:\n        /* \"@openzeppelin/contracts/utils/Address.sol\":5236:5254  isContract(target) */\n      tag_272\n        /* \"@openzeppelin/contracts/utils/Address.sol\":5247:5253  target */\n      dup6\n        /* \"@openzeppelin/contracts/utils/Address.sol\":5236:5246  isContract */\n      tag_273\n        /* \"@openzeppelin/contracts/utils/Address.sol\":5236:5254  isContract(target) */\n      jump\t// in\n    tag_272:\n        /* \"@openzeppelin/contracts/utils/Address.sol\":5228:5288  require(isContract(target), \"Address: call to non-contract\") */\n      tag_274\n      jumpi\n      mload(0x40)\n      0x08c379a000000000000000000000000000000000000000000000000000000000\n      dup2\n      mstore\n      0x04\n      add\n      tag_275\n      swap1\n      tag_276\n      jump\t// in\n    tag_275:\n      mload(0x40)\n      dup1\n      swap2\n      sub\n      swap1\n      revert\n    tag_274:\n        /* \"@openzeppelin/contracts/utils/Address.sol\":5300:5312  bool success */\n      0x00\n        /* \"@openzeppelin/contracts/utils/Address.sol\":5314:5337  bytes memory returndata */\n      dup1\n        /* \"@openzeppelin/contracts/utils/Address.sol\":5341:5347  target */\n      dup7\n        /* \"@openzeppelin/contracts/utils/Address.sol\":5341:5352  target.call */\n      0xffffffffffffffffffffffffffffffffffffffff\n      and\n        /* \"@openzeppelin/contracts/utils/Address.sol\":5360:5365  value */\n      dup6\n        /* \"@openzeppelin/contracts/utils/Address.sol\":5367:5371  data */\n      dup8\n        /* \"@openzeppelin/contracts/utils/Address.sol\":5341:5372  target.call{value: value}(data) */\n      mload(0x40)\n      tag_277\n      swap2\n      swap1\n      tag_278\n      jump\t// in\n    tag_277:\n      0x00\n      mload(0x40)\n      dup1\n      dup4\n      sub\n      dup2\n      dup6\n      dup8\n      gas\n      call\n      swap3\n      pop\n      pop\n      pop\n      returndatasize\n      dup1\n      0x00\n      dup2\n      eq\n      tag_281\n      jumpi\n      mload(0x40)\n      swap2\n      pop\n      and(add(returndatasize, 0x3f), not(0x1f))\n      dup3\n      add\n      0x40\n      mstore\n      returndatasize\n      dup3\n      mstore\n      returndatasize\n      0x00\n      0x20\n      dup5\n      add\n      returndatacopy\n      jump(tag_280)\n    tag_281:\n      0x60\n      swap2\n      pop\n    tag_280:\n      pop\n        /* \"@openzeppelin/contracts/utils/Address.sol\":5299:5372  (bool success, bytes memory returndata) = target.call{value: value}(data) */\n      swap2\n      pop\n      swap2\n      pop\n        /* \"@openzeppelin/contracts/utils/Address.sol\":5389:5440  verifyCallResult(success, returndata, errorMessage) */\n      tag_282\n        /* \"@openzeppelin/contracts/utils/Address.sol\":5406:5413  success */\n      dup3\n        /* \"@openzeppelin/contracts/utils/Address.sol\":5415:5425  returndata */\n      dup3\n        /* \"@openzeppelin/contracts/utils/Address.sol\":5427:5439  errorMessage */\n      dup7\n        /* \"@openzeppelin/contracts/utils/Address.sol\":5389:5405  verifyCallResult */\n      tag_283\n        /* \"@openzeppelin/contracts/utils/Address.sol\":5389:5440  verifyCallResult(success, returndata, errorMessage) */\n      jump\t// in\n    tag_282:\n        /* \"@openzeppelin/contracts/utils/Address.sol\":5382:5440  return verifyCallResult(success, returndata, errorMessage) */\n      swap3\n      pop\n      pop\n      pop\n        /* \"@openzeppelin/contracts/utils/Address.sol\":4948:5447  function functionCallWithValue(... */\n      swap5\n      swap4\n      pop\n      pop\n      pop\n      pop\n      jump\t// out\n        /* \"@openzeppelin/contracts/utils/Address.sol\":1175:1495  function isContract(address account) internal view returns (bool) {... */\n    tag_273:\n        /* \"@openzeppelin/contracts/utils/Address.sol\":1235:1239  bool */\n      0x00\n        /* \"@openzeppelin/contracts/utils/Address.sol\":1487:1488  0 */\n      dup1\n        /* \"@openzeppelin/contracts/utils/Address.sol\":1465:1472  account */\n      dup3\n        /* \"@openzeppelin/contracts/utils/Address.sol\":1465:1484  account.code.length */\n      0xffffffffffffffffffffffffffffffffffffffff\n      and\n      extcodesize\n        /* \"@openzeppelin/contracts/utils/Address.sol\":1465:1488  account.code.length > 0 */\n      gt\n        /* \"@openzeppelin/contracts/utils/Address.sol\":1458:1488  return account.code.length > 0 */\n      swap1\n      pop\n        /* \"@openzeppelin/contracts/utils/Address.sol\":1175:1495  function isContract(address account) internal view returns (bool) {... */\n      swap2\n      swap1\n      pop\n      jump\t// out\n        /* \"@openzeppelin/contracts/utils/Address.sol\":7561:8253  function verifyCallResult(... */\n    tag_283:\n        /* \"@openzeppelin/contracts/utils/Address.sol\":7707:7719  bytes memory */\n      0x60\n        /* \"@openzeppelin/contracts/utils/Address.sol\":7735:7742  success */\n      dup4\n        /* \"@openzeppelin/contracts/utils/Address.sol\":7731:8247  if (success) {... */\n      iszero\n      tag_286\n      jumpi\n        /* \"@openzeppelin/contracts/utils/Address.sol\":7765:7775  returndata */\n      dup3\n        /* \"@openzeppelin/contracts/utils/Address.sol\":7758:7775  return returndata */\n      swap1\n      pop\n      jump(tag_285)\n        /* \"@openzeppelin/contracts/utils/Address.sol\":7731:8247  if (success) {... */\n    tag_286:\n        /* \"@openzeppelin/contracts/utils/Address.sol\":7896:7897  0 */\n      0x00\n        /* \"@openzeppelin/contracts/utils/Address.sol\":7876:7886  returndata */\n      dup4\n        /* \"@openzeppelin/contracts/utils/Address.sol\":7876:7893  returndata.length */\n      mload\n        /* \"@openzeppelin/contracts/utils/Address.sol\":7876:7897  returndata.length > 0 */\n      gt\n        /* \"@openzeppelin/contracts/utils/Address.sol\":7872:8237  if (returndata.length > 0) {... */\n      iszero\n      tag_288\n      jumpi\n        /* \"@openzeppelin/contracts/utils/Address.sol\":8070:8080  returndata */\n      dup3\n        /* \"@openzeppelin/contracts/utils/Address.sol\":8064:8081  mload(returndata) */\n      mload\n        /* \"@openzeppelin/contracts/utils/Address.sol\":8130:8145  returndata_size */\n      dup1\n        /* \"@openzeppelin/contracts/utils/Address.sol\":8117:8127  returndata */\n      dup5\n        /* \"@openzeppelin/contracts/utils/Address.sol\":8113:8115  32 */\n      0x20\n        /* \"@openzeppelin/contracts/utils/Address.sol\":8109:8128  add(32, returndata) */\n      add\n        /* \"@openzeppelin/contracts/utils/Address.sol\":8102:8146  revert(add(32, returndata), returndata_size) */\n      revert\n        /* \"@openzeppelin/contracts/utils/Address.sol\":7872:8237  if (returndata.length > 0) {... */\n    tag_288:\n        /* \"@openzeppelin/contracts/utils/Address.sol\":8209:8221  errorMessage */\n      dup2\n        /* \"@openzeppelin/contracts/utils/Address.sol\":8202:8222  revert(errorMessage) */\n      mload(0x40)\n      0x08c379a000000000000000000000000000000000000000000000000000000000\n      dup2\n      mstore\n      0x04\n      add\n      tag_290\n      swap2\n      swap1\n      tag_291\n      jump\t// in\n    tag_290:\n      mload(0x40)\n      dup1\n      swap2\n      sub\n      swap1\n      revert\n        /* \"@openzeppelin/contracts/utils/Address.sol\":7561:8253  function verifyCallResult(... */\n    tag_285:\n      swap4\n      swap3\n      pop\n      pop\n      pop\n      jump\t// out\n        /* \"#utility.yul\":7:146   */\n    tag_293:\n        /* \"#utility.yul\":53:58   */\n      0x00\n        /* \"#utility.yul\":91:97   */\n      dup2\n        /* \"#utility.yul\":78:98   */\n      calldataload\n        /* \"#utility.yul\":69:98   */\n      swap1\n      pop\n        /* \"#utility.yul\":107:140   */\n      tag_295\n        /* \"#utility.yul\":134:139   */\n      dup2\n        /* \"#utility.yul\":107:140   */\n      tag_296\n      jump\t// in\n    tag_295:\n        /* \"#utility.yul\":7:146   */\n      swap3\n      swap2\n      pop\n      pop\n      jump\t// out\n        /* \"#utility.yul\":152:289   */\n    tag_297:\n        /* \"#utility.yul\":206:211   */\n      0x00\n        /* \"#utility.yul\":237:243   */\n      dup2\n        /* \"#utility.yul\":231:244   */\n      mload\n        /* \"#utility.yul\":222:244   */\n      swap1\n      pop\n        /* \"#utility.yul\":253:283   */\n      tag_299\n        /* \"#utility.yul\":277:282   */\n      dup2\n        /* \"#utility.yul\":253:283   */\n      tag_300\n      jump\t// in\n    tag_299:\n        /* \"#utility.yul\":152:289   */\n      swap3\n      swap2\n      pop\n      pop\n      jump\t// out\n        /* \"#utility.yul\":295:434   */\n    tag_301:\n        /* \"#utility.yul\":341:346   */\n      0x00\n        /* \"#utility.yul\":379:385   */\n      dup2\n        /* \"#utility.yul\":366:386   */\n      calldataload\n        /* \"#utility.yul\":357:386   */\n      swap1\n      pop\n        /* \"#utility.yul\":395:428   */\n      tag_303\n        /* \"#utility.yul\":422:427   */\n      dup2\n        /* \"#utility.yul\":395:428   */\n      tag_304\n      jump\t// in\n    tag_303:\n        /* \"#utility.yul\":295:434   */\n      swap3\n      swap2\n      pop\n      pop\n      jump\t// out\n        /* \"#utility.yul\":440:769   */\n    tag_35:\n        /* \"#utility.yul\":499:505   */\n      0x00\n        /* \"#utility.yul\":548:550   */\n      0x20\n        /* \"#utility.yul\":536:545   */\n      dup3\n        /* \"#utility.yul\":527:534   */\n      dup5\n        /* \"#utility.yul\":523:546   */\n      sub\n        /* \"#utility.yul\":519:551   */\n      slt\n        /* \"#utility.yul\":516:635   */\n      iszero\n      tag_306\n      jumpi\n        /* \"#utility.yul\":554:633   */\n      tag_307\n      tag_308\n      jump\t// in\n    tag_307:\n        /* \"#utility.yul\":516:635   */\n    tag_306:\n        /* \"#utility.yul\":674:675   */\n      0x00\n        /* \"#utility.yul\":699:752   */\n      tag_309\n        /* \"#utility.yul\":744:751   */\n      dup5\n        /* \"#utility.yul\":735:741   */\n      dup3\n        /* \"#utility.yul\":724:733   */\n      dup6\n        /* \"#utility.yul\":720:742   */\n      add\n        /* \"#utility.yul\":699:752   */\n      tag_293\n      jump\t// in\n    tag_309:\n        /* \"#utility.yul\":689:752   */\n      swap2\n      pop\n        /* \"#utility.yul\":645:762   */\n      pop\n        /* \"#utility.yul\":440:769   */\n      swap3\n      swap2\n      pop\n      pop\n      jump\t// out\n        /* \"#utility.yul\":775:1120   */\n    tag_235:\n        /* \"#utility.yul\":842:848   */\n      0x00\n        /* \"#utility.yul\":891:893   */\n      0x20\n        /* \"#utility.yul\":879:888   */\n      dup3\n        /* \"#utility.yul\":870:877   */\n      dup5\n        /* \"#utility.yul\":866:889   */\n      sub\n        /* \"#utility.yul\":862:894   */\n      slt\n        /* \"#utility.yul\":859:978   */\n      iszero\n      tag_311\n      jumpi\n        /* \"#utility.yul\":897:976   */\n      tag_312\n      tag_308\n      jump\t// in\n    tag_312:\n        /* \"#utility.yul\":859:978   */\n    tag_311:\n        /* \"#utility.yul\":1017:1018   */\n      0x00\n        /* \"#utility.yul\":1042:1103   */\n      tag_313\n        /* \"#utility.yul\":1095:1102   */\n      dup5\n        /* \"#utility.yul\":1086:1092   */\n      dup3\n        /* \"#utility.yul\":1075:1084   */\n      dup6\n        /* \"#utility.yul\":1071:1093   */\n      add\n        /* \"#utility.yul\":1042:1103   */\n      tag_297\n      jump\t// in\n    tag_313:\n        /* \"#utility.yul\":1032:1103   */\n      swap2\n      pop\n        /* \"#utility.yul\":988:1113   */\n      pop\n        /* \"#utility.yul\":775:1120   */\n      swap3\n      swap2\n      pop\n      pop\n      jump\t// out\n        /* \"#utility.yul\":1126:1455   */\n    tag_47:\n        /* \"#utility.yul\":1185:1191   */\n      0x00\n        /* \"#utility.yul\":1234:1236   */\n      0x20\n        /* \"#utility.yul\":1222:1231   */\n      dup3\n        /* \"#utility.yul\":1213:1220   */\n      dup5\n        /* \"#utility.yul\":1209:1232   */\n      sub\n        /* \"#utility.yul\":1205:1237   */\n      slt\n        /* \"#utility.yul\":1202:1321   */\n      iszero\n      tag_315\n      jumpi\n        /* \"#utility.yul\":1240:1319   */\n      tag_316\n      tag_308\n      jump\t// in\n    tag_316:\n        /* \"#utility.yul\":1202:1321   */\n    tag_315:\n        /* \"#utility.yul\":1360:1361   */\n      0x00\n        /* \"#utility.yul\":1385:1438   */\n      tag_317\n        /* \"#utility.yul\":1430:1437   */\n      dup5\n        /* \"#utility.yul\":1421:1427   */\n      dup3\n        /* \"#utility.yul\":1410:1419   */\n      dup6\n        /* \"#utility.yul\":1406:1428   */\n      add\n        /* \"#utility.yul\":1385:1438   */\n      tag_301\n      jump\t// in\n    tag_317:\n        /* \"#utility.yul\":1375:1438   */\n      swap2\n      pop\n        /* \"#utility.yul\":1331:1448   */\n      pop\n        /* \"#utility.yul\":1126:1455   */\n      swap3\n      swap2\n      pop\n      pop\n      jump\t// out\n        /* \"#utility.yul\":1461:1579   */\n    tag_318:\n        /* \"#utility.yul\":1548:1572   */\n      tag_320\n        /* \"#utility.yul\":1566:1571   */\n      dup2\n        /* \"#utility.yul\":1548:1572   */\n      tag_321\n      jump\t// in\n    tag_320:\n        /* \"#utility.yul\":1543:1546   */\n      dup3\n        /* \"#utility.yul\":1536:1573   */\n      mstore\n        /* \"#utility.yul\":1461:1579   */\n      pop\n      pop\n      jump\t// out\n        /* \"#utility.yul\":1585:1958   */\n    tag_322:\n        /* \"#utility.yul\":1689:1692   */\n      0x00\n        /* \"#utility.yul\":1717:1755   */\n      tag_324\n        /* \"#utility.yul\":1749:1754   */\n      dup3\n        /* \"#utility.yul\":1717:1755   */\n      tag_325\n      jump\t// in\n    tag_324:\n        /* \"#utility.yul\":1771:1859   */\n      tag_326\n        /* \"#utility.yul\":1852:1858   */\n      dup2\n        /* \"#utility.yul\":1847:1850   */\n      dup6\n        /* \"#utility.yul\":1771:1859   */\n      tag_327\n      jump\t// in\n    tag_326:\n        /* \"#utility.yul\":1764:1859   */\n      swap4\n      pop\n        /* \"#utility.yul\":1868:1920   */\n      tag_328\n        /* \"#utility.yul\":1913:1919   */\n      dup2\n        /* \"#utility.yul\":1908:1911   */\n      dup6\n        /* \"#utility.yul\":1901:1905   */\n      0x20\n        /* \"#utility.yul\":1894:1899   */\n      dup7\n        /* \"#utility.yul\":1890:1906   */\n      add\n        /* \"#utility.yul\":1868:1920   */\n      tag_329\n      jump\t// in\n    tag_328:\n        /* \"#utility.yul\":1945:1951   */\n      dup1\n        /* \"#utility.yul\":1940:1943   */\n      dup5\n        /* \"#utility.yul\":1936:1952   */\n      add\n        /* \"#utility.yul\":1929:1952   */\n      swap2\n      pop\n        /* \"#utility.yul\":1693:1958   */\n      pop\n        /* \"#utility.yul\":1585:1958   */\n      swap3\n      swap2\n      pop\n      pop\n      jump\t// out\n        /* \"#utility.yul\":1964:2131   */\n    tag_330:\n        /* \"#utility.yul\":2069:2124   */\n      tag_332\n        /* \"#utility.yul\":2118:2123   */\n      dup2\n        /* \"#utility.yul\":2069:2124   */\n      tag_333\n      jump\t// in\n    tag_332:\n        /* \"#utility.yul\":2064:2067   */\n      dup3\n        /* \"#utility.yul\":2057:2125   */\n      mstore\n        /* \"#utility.yul\":1964:2131   */\n      pop\n      pop\n      jump\t// out\n        /* \"#utility.yul\":2137:2501   */\n    tag_334:\n        /* \"#utility.yul\":2225:2228   */\n      0x00\n        /* \"#utility.yul\":2253:2292   */\n      tag_336\n        /* \"#utility.yul\":2286:2291   */\n      dup3\n        /* \"#utility.yul\":2253:2292   */\n      tag_337\n      jump\t// in\n    tag_336:\n        /* \"#utility.yul\":2308:2379   */\n      tag_338\n        /* \"#utility.yul\":2372:2378   */\n      dup2\n        /* \"#utility.yul\":2367:2370   */\n      dup6\n        /* \"#utility.yul\":2308:2379   */\n      tag_339\n      jump\t// in\n    tag_338:\n        /* \"#utility.yul\":2301:2379   */\n      swap4\n      pop\n        /* \"#utility.yul\":2388:2440   */\n      tag_340\n        /* \"#utility.yul\":2433:2439   */\n      dup2\n        /* \"#utility.yul\":2428:2431   */\n      dup6\n        /* \"#utility.yul\":2421:2425   */\n      0x20\n        /* \"#utility.yul\":2414:2419   */\n      dup7\n        /* \"#utility.yul\":2410:2426   */\n      add\n        /* \"#utility.yul\":2388:2440   */\n      tag_329\n      jump\t// in\n    tag_340:\n        /* \"#utility.yul\":2465:2494   */\n      tag_341\n        /* \"#utility.yul\":2487:2493   */\n      dup2\n        /* \"#utility.yul\":2465:2494   */\n      tag_342\n      jump\t// in\n    tag_341:\n        /* \"#utility.yul\":2460:2463   */\n      dup5\n        /* \"#utility.yul\":2456:2495   */\n      add\n        /* \"#utility.yul\":2449:2495   */\n      swap2\n      pop\n        /* \"#utility.yul\":2229:2501   */\n      pop\n        /* \"#utility.yul\":2137:2501   */\n      swap3\n      swap2\n      pop\n      pop\n      jump\t// out\n        /* \"#utility.yul\":2507:2873   */\n    tag_343:\n        /* \"#utility.yul\":2649:2652   */\n      0x00\n        /* \"#utility.yul\":2670:2737   */\n      tag_345\n        /* \"#utility.yul\":2734:2736   */\n      0x26\n        /* \"#utility.yul\":2729:2732   */\n      dup4\n        /* \"#utility.yul\":2670:2737   */\n      tag_339\n      jump\t// in\n    tag_345:\n        /* \"#utility.yul\":2663:2737   */\n      swap2\n      pop\n        /* \"#utility.yul\":2746:2839   */\n      tag_346\n        /* \"#utility.yul\":2835:2838   */\n      dup3\n        /* \"#utility.yul\":2746:2839   */\n      tag_347\n      jump\t// in\n    tag_346:\n        /* \"#utility.yul\":2864:2866   */\n      0x40\n        /* \"#utility.yul\":2859:2862   */\n      dup3\n        /* \"#utility.yul\":2855:2867   */\n      add\n        /* \"#utility.yul\":2848:2867   */\n      swap1\n      pop\n        /* \"#utility.yul\":2507:2873   */\n      swap2\n      swap1\n      pop\n      jump\t// out\n        /* \"#utility.yul\":2879:3245   */\n    tag_348:\n        /* \"#utility.yul\":3021:3024   */\n      0x00\n        /* \"#utility.yul\":3042:3109   */\n      tag_350\n        /* \"#utility.yul\":3106:3108   */\n      0x1c\n        /* \"#utility.yul\":3101:3104   */\n      dup4\n        /* \"#utility.yul\":3042:3109   */\n      tag_339\n      jump\t// in\n    tag_350:\n        /* \"#utility.yul\":3035:3109   */\n      swap2\n      pop\n        /* \"#utility.yul\":3118:3211   */\n      tag_351\n        /* \"#utility.yul\":3207:3210   */\n      dup3\n        /* \"#utility.yul\":3118:3211   */\n      tag_352\n      jump\t// in\n    tag_351:\n        /* \"#utility.yul\":3236:3238   */\n      0x20\n        /* \"#utility.yul\":3231:3234   */\n      dup3\n        /* \"#utility.yul\":3227:3239   */\n      add\n        /* \"#utility.yul\":3220:3239   */\n      swap1\n      pop\n        /* \"#utility.yul\":2879:3245   */\n      swap2\n      swap1\n      pop\n      jump\t// out\n        /* \"#utility.yul\":3251:3617   */\n    tag_353:\n        /* \"#utility.yul\":3393:3396   */\n      0x00\n        /* \"#utility.yul\":3414:3481   */\n      tag_355\n        /* \"#utility.yul\":3478:3480   */\n      0x1d\n        /* \"#utility.yul\":3473:3476   */\n      dup4\n        /* \"#utility.yul\":3414:3481   */\n      tag_339\n      jump\t// in\n    tag_355:\n        /* \"#utility.yul\":3407:3481   */\n      swap2\n      pop\n        /* \"#utility.yul\":3490:3583   */\n      tag_356\n        /* \"#utility.yul\":3579:3582   */\n      dup3\n        /* \"#utility.yul\":3490:3583   */\n      tag_357\n      jump\t// in\n    tag_356:\n        /* \"#utility.yul\":3608:3610   */\n      0x20\n        /* \"#utility.yul\":3603:3606   */\n      dup3\n        /* \"#utility.yul\":3599:3611   */\n      add\n        /* \"#utility.yul\":3592:3611   */\n      swap1\n      pop\n        /* \"#utility.yul\":3251:3617   */\n      swap2\n      swap1\n      pop\n      jump\t// out\n        /* \"#utility.yul\":3623:3989   */\n    tag_358:\n        /* \"#utility.yul\":3765:3768   */\n      0x00\n        /* \"#utility.yul\":3786:3853   */\n      tag_360\n        /* \"#utility.yul\":3850:3852   */\n      0x37\n        /* \"#utility.yul\":3845:3848   */\n      dup4\n        /* \"#utility.yul\":3786:3853   */\n      tag_339\n      jump\t// in\n    tag_360:\n        /* \"#utility.yul\":3779:3853   */\n      swap2\n      pop\n        /* \"#utility.yul\":3862:3955   */\n      tag_361\n        /* \"#utility.yul\":3951:3954   */\n      dup3\n        /* \"#utility.yul\":3862:3955   */\n      tag_362\n      jump\t// in\n    tag_361:\n        /* \"#utility.yul\":3980:3982   */\n      0x40\n        /* \"#utility.yul\":3975:3978   */\n      dup3\n        /* \"#utility.yul\":3971:3983   */\n      add\n        /* \"#utility.yul\":3964:3983   */\n      swap1\n      pop\n        /* \"#utility.yul\":3623:3989   */\n      swap2\n      swap1\n      pop\n      jump\t// out\n        /* \"#utility.yul\":3995:4361   */\n    tag_363:\n        /* \"#utility.yul\":4137:4140   */\n      0x00\n        /* \"#utility.yul\":4158:4225   */\n      tag_365\n        /* \"#utility.yul\":4222:4224   */\n      0x2a\n        /* \"#utility.yul\":4217:4220   */\n      dup4\n        /* \"#utility.yul\":4158:4225   */\n      tag_339\n      jump\t// in\n    tag_365:\n        /* \"#utility.yul\":4151:4225   */\n      swap2\n      pop\n        /* \"#utility.yul\":4234:4327   */\n      tag_366\n        /* \"#utility.yul\":4323:4326   */\n      dup3\n        /* \"#utility.yul\":4234:4327   */\n      tag_367\n      jump\t// in\n    tag_366:\n        /* \"#utility.yul\":4352:4354   */\n      0x40\n        /* \"#utility.yul\":4347:4350   */\n      dup3\n        /* \"#utility.yul\":4343:4355   */\n      add\n        /* \"#utility.yul\":4336:4355   */\n      swap1\n      pop\n        /* \"#utility.yul\":3995:4361   */\n      swap2\n      swap1\n      pop\n      jump\t// out\n        /* \"#utility.yul\":4367:4733   */\n    tag_368:\n        /* \"#utility.yul\":4509:4512   */\n      0x00\n        /* \"#utility.yul\":4530:4597   */\n      tag_370\n        /* \"#utility.yul\":4594:4596   */\n      0x1f\n        /* \"#utility.yul\":4589:4592   */\n      dup4\n        /* \"#utility.yul\":4530:4597   */\n      tag_339\n      jump\t// in\n    tag_370:\n        /* \"#utility.yul\":4523:4597   */\n      swap2\n      pop\n        /* \"#utility.yul\":4606:4699   */\n      tag_371\n        /* \"#utility.yul\":4695:4698   */\n      dup3\n        /* \"#utility.yul\":4606:4699   */\n      tag_372\n      jump\t// in\n    tag_371:\n        /* \"#utility.yul\":4724:4726   */\n      0x20\n        /* \"#utility.yul\":4719:4722   */\n      dup3\n        /* \"#utility.yul\":4715:4727   */\n      add\n        /* \"#utility.yul\":4708:4727   */\n      swap1\n      pop\n        /* \"#utility.yul\":4367:4733   */\n      swap2\n      swap1\n      pop\n      jump\t// out\n        /* \"#utility.yul\":4739:5105   */\n    tag_373:\n        /* \"#utility.yul\":4881:4884   */\n      0x00\n        /* \"#utility.yul\":4902:4969   */\n      tag_375\n        /* \"#utility.yul\":4966:4968   */\n      0x1b\n        /* \"#utility.yul\":4961:4964   */\n      dup4\n        /* \"#utility.yul\":4902:4969   */\n      tag_339\n      jump\t// in\n    tag_375:\n        /* \"#utility.yul\":4895:4969   */\n      swap2\n      pop\n        /* \"#utility.yul\":4978:5071   */\n      tag_376\n        /* \"#utility.yul\":5067:5070   */\n      dup3\n        /* \"#utility.yul\":4978:5071   */\n      tag_377\n      jump\t// in\n    tag_376:\n        /* \"#utility.yul\":5096:5098   */\n      0x20\n        /* \"#utility.yul\":5091:5094   */\n      dup3\n        /* \"#utility.yul\":5087:5099   */\n      add\n        /* \"#utility.yul\":5080:5099   */\n      swap1\n      pop\n        /* \"#utility.yul\":4739:5105   */\n      swap2\n      swap1\n      pop\n      jump\t// out\n        /* \"#utility.yul\":5111:5229   */\n    tag_378:\n        /* \"#utility.yul\":5198:5222   */\n      tag_380\n        /* \"#utility.yul\":5216:5221   */\n      dup2\n        /* \"#utility.yul\":5198:5222   */\n      tag_381\n      jump\t// in\n    tag_380:\n        /* \"#utility.yul\":5193:5196   */\n      dup3\n        /* \"#utility.yul\":5186:5223   */\n      mstore\n        /* \"#utility.yul\":5111:5229   */\n      pop\n      pop\n      jump\t// out\n        /* \"#utility.yul\":5235:5506   */\n    tag_278:\n        /* \"#utility.yul\":5365:5368   */\n      0x00\n        /* \"#utility.yul\":5387:5480   */\n      tag_383\n        /* \"#utility.yul\":5476:5479   */\n      dup3\n        /* \"#utility.yul\":5467:5473   */\n      dup5\n        /* \"#utility.yul\":5387:5480   */\n      tag_322\n      jump\t// in\n    tag_383:\n        /* \"#utility.yul\":5380:5480   */\n      swap2\n      pop\n        /* \"#utility.yul\":5497:5500   */\n      dup2\n        /* \"#utility.yul\":5490:5500   */\n      swap1\n      pop\n        /* \"#utility.yul\":5235:5506   */\n      swap3\n      swap2\n      pop\n      pop\n      jump\t// out\n        /* \"#utility.yul\":5512:5734   */\n    tag_70:\n        /* \"#utility.yul\":5605:5609   */\n      0x00\n        /* \"#utility.yul\":5643:5645   */\n      0x20\n        /* \"#utility.yul\":5632:5641   */\n      dup3\n        /* \"#utility.yul\":5628:5646   */\n      add\n        /* \"#utility.yul\":5620:5646   */\n      swap1\n      pop\n        /* \"#utility.yul\":5656:5727   */\n      tag_385\n        /* \"#utility.yul\":5724:5725   */\n      0x00\n        /* \"#utility.yul\":5713:5722   */\n      dup4\n        /* \"#utility.yul\":5709:5726   */\n      add\n        /* \"#utility.yul\":5700:5706   */\n      dup5\n        /* \"#utility.yul\":5656:5727   */\n      tag_318\n      jump\t// in\n    tag_385:\n        /* \"#utility.yul\":5512:5734   */\n      swap3\n      swap2\n      pop\n      pop\n      jump\t// out\n        /* \"#utility.yul\":5740:6182   */\n    tag_253:\n        /* \"#utility.yul\":5889:5893   */\n      0x00\n        /* \"#utility.yul\":5927:5929   */\n      0x60\n        /* \"#utility.yul\":5916:5925   */\n      dup3\n        /* \"#utility.yul\":5912:5930   */\n      add\n        /* \"#utility.yul\":5904:5930   */\n      swap1\n      pop\n        /* \"#utility.yul\":5940:6011   */\n      tag_387\n        /* \"#utility.yul\":6008:6009   */\n      0x00\n        /* \"#utility.yul\":5997:6006   */\n      dup4\n        /* \"#utility.yul\":5993:6010   */\n      add\n        /* \"#utility.yul\":5984:5990   */\n      dup7\n        /* \"#utility.yul\":5940:6011   */\n      tag_318\n      jump\t// in\n    tag_387:\n        /* \"#utility.yul\":6021:6093   */\n      tag_388\n        /* \"#utility.yul\":6089:6091   */\n      0x20\n        /* \"#utility.yul\":6078:6087   */\n      dup4\n        /* \"#utility.yul\":6074:6092   */\n      add\n        /* \"#utility.yul\":6065:6071   */\n      dup6\n        /* \"#utility.yul\":6021:6093   */\n      tag_318\n      jump\t// in\n    tag_388:\n        /* \"#utility.yul\":6103:6175   */\n      tag_389\n        /* \"#utility.yul\":6171:6173   */\n      0x40\n        /* \"#utility.yul\":6160:6169   */\n      dup4\n        /* \"#utility.yul\":6156:6174   */\n      add\n        /* \"#utility.yul\":6147:6153   */\n      dup5\n        /* \"#utility.yul\":6103:6175   */\n      tag_378\n      jump\t// in\n    tag_389:\n        /* \"#utility.yul\":5740:6182   */\n      swap5\n      swap4\n      pop\n      pop\n      pop\n      pop\n      jump\t// out\n        /* \"#utility.yul\":6188:6520   */\n    tag_230:\n        /* \"#utility.yul\":6309:6313   */\n      0x00\n        /* \"#utility.yul\":6347:6349   */\n      0x40\n        /* \"#utility.yul\":6336:6345   */\n      dup3\n        /* \"#utility.yul\":6332:6350   */\n      add\n        /* \"#utility.yul\":6324:6350   */\n      swap1\n      pop\n        /* \"#utility.yul\":6360:6431   */\n      tag_391\n        /* \"#utility.yul\":6428:6429   */\n      0x00\n        /* \"#utility.yul\":6417:6426   */\n      dup4\n        /* \"#utility.yul\":6413:6430   */\n      add\n        /* \"#utility.yul\":6404:6410   */\n      dup6\n        /* \"#utility.yul\":6360:6431   */\n      tag_318\n      jump\t// in\n    tag_391:\n        /* \"#utility.yul\":6441:6513   */\n      tag_392\n        /* \"#utility.yul\":6509:6511   */\n      0x20\n        /* \"#utility.yul\":6498:6507   */\n      dup4\n        /* \"#utility.yul\":6494:6512   */\n      add\n        /* \"#utility.yul\":6485:6491   */\n      dup5\n        /* \"#utility.yul\":6441:6513   */\n      tag_378\n      jump\t// in\n    tag_392:\n        /* \"#utility.yul\":6188:6520   */\n      swap4\n      swap3\n      pop\n      pop\n      pop\n      jump\t// out\n        /* \"#utility.yul\":6526:6784   */\n    tag_52:\n        /* \"#utility.yul\":6637:6641   */\n      0x00\n        /* \"#utility.yul\":6675:6677   */\n      0x20\n        /* \"#utility.yul\":6664:6673   */\n      dup3\n        /* \"#utility.yul\":6660:6678   */\n      add\n        /* \"#utility.yul\":6652:6678   */\n      swap1\n      pop\n        /* \"#utility.yul\":6688:6777   */\n      tag_394\n        /* \"#utility.yul\":6774:6775   */\n      0x00\n        /* \"#utility.yul\":6763:6772   */\n      dup4\n        /* \"#utility.yul\":6759:6776   */\n      add\n        /* \"#utility.yul\":6750:6756   */\n      dup5\n        /* \"#utility.yul\":6688:6777   */\n      tag_330\n      jump\t// in\n    tag_394:\n        /* \"#utility.yul\":6526:6784   */\n      swap3\n      swap2\n      pop\n      pop\n      jump\t// out\n        /* \"#utility.yul\":6790:7103   */\n    tag_291:\n        /* \"#utility.yul\":6903:6907   */\n      0x00\n        /* \"#utility.yul\":6941:6943   */\n      0x20\n        /* \"#utility.yul\":6930:6939   */\n      dup3\n        /* \"#utility.yul\":6926:6944   */\n      add\n        /* \"#utility.yul\":6918:6944   */\n      swap1\n      pop\n        /* \"#utility.yul\":6990:6999   */\n      dup2\n        /* \"#utility.yul\":6984:6988   */\n      dup2\n        /* \"#utility.yul\":6980:7000   */\n      sub\n        /* \"#utility.yul\":6976:6977   */\n      0x00\n        /* \"#utility.yul\":6965:6974   */\n      dup4\n        /* \"#utility.yul\":6961:6978   */\n      add\n        /* \"#utility.yul\":6954:7001   */\n      mstore\n        /* \"#utility.yul\":7018:7096   */\n      tag_396\n        /* \"#utility.yul\":7091:7095   */\n      dup2\n        /* \"#utility.yul\":7082:7088   */\n      dup5\n        /* \"#utility.yul\":7018:7096   */\n      tag_334\n      jump\t// in\n    tag_396:\n        /* \"#utility.yul\":7010:7096   */\n      swap1\n      pop\n        /* \"#utility.yul\":6790:7103   */\n      swap3\n      swap2\n      pop\n      pop\n      jump\t// out\n        /* \"#utility.yul\":7109:7528   */\n    tag_271:\n        /* \"#utility.yul\":7275:7279   */\n      0x00\n        /* \"#utility.yul\":7313:7315   */\n      0x20\n        /* \"#utility.yul\":7302:7311   */\n      dup3\n        /* \"#utility.yul\":7298:7316   */\n      add\n        /* \"#utility.yul\":7290:7316   */\n      swap1\n      pop\n        /* \"#utility.yul\":7362:7371   */\n      dup2\n        /* \"#utility.yul\":7356:7360   */\n      dup2\n        /* \"#utility.yul\":7352:7372   */\n      sub\n        /* \"#utility.yul\":7348:7349   */\n      0x00\n        /* \"#utility.yul\":7337:7346   */\n      dup4\n        /* \"#utility.yul\":7333:7350   */\n      add\n        /* \"#utility.yul\":7326:7373   */\n      mstore\n        /* \"#utility.yul\":7390:7521   */\n      tag_398\n        /* \"#utility.yul\":7516:7520   */\n      dup2\n        /* \"#utility.yul\":7390:7521   */\n      tag_343\n      jump\t// in\n    tag_398:\n        /* \"#utility.yul\":7382:7521   */\n      swap1\n      pop\n        /* \"#utility.yul\":7109:7528   */\n      swap2\n      swap1\n      pop\n      jump\t// out\n        /* \"#utility.yul\":7534:7953   */\n    tag_168:\n        /* \"#utility.yul\":7700:7704   */\n      0x00\n        /* \"#utility.yul\":7738:7740   */\n      0x20\n        /* \"#utility.yul\":7727:7736   */\n      dup3\n        /* \"#utility.yul\":7723:7741   */\n      add\n        /* \"#utility.yul\":7715:7741   */\n      swap1\n      pop\n        /* \"#utility.yul\":7787:7796   */\n      dup2\n        /* \"#utility.yul\":7781:7785   */\n      dup2\n        /* \"#utility.yul\":7777:7797   */\n      sub\n        /* \"#utility.yul\":7773:7774   */\n      0x00\n        /* \"#utility.yul\":7762:7771   */\n      dup4\n        /* \"#utility.yul\":7758:7775   */\n      add\n        /* \"#utility.yul\":7751:7798   */\n      mstore\n        /* \"#utility.yul\":7815:7946   */\n      tag_400\n        /* \"#utility.yul\":7941:7945   */\n      dup2\n        /* \"#utility.yul\":7815:7946   */\n      tag_348\n      jump\t// in\n    tag_400:\n        /* \"#utility.yul\":7807:7946   */\n      swap1\n      pop\n        /* \"#utility.yul\":7534:7953   */\n      swap2\n      swap1\n      pop\n      jump\t// out\n        /* \"#utility.yul\":7959:8378   */\n    tag_276:\n        /* \"#utility.yul\":8125:8129   */\n      0x00\n        /* \"#utility.yul\":8163:8165   */\n      0x20\n        /* \"#utility.yul\":8152:8161   */\n      dup3\n        /* \"#utility.yul\":8148:8166   */\n      add\n        /* \"#utility.yul\":8140:8166   */\n      swap1\n      pop\n        /* \"#utility.yul\":8212:8221   */\n      dup2\n        /* \"#utility.yul\":8206:8210   */\n      dup2\n        /* \"#utility.yul\":8202:8222   */\n      sub\n        /* \"#utility.yul\":8198:8199   */\n      0x00\n        /* \"#utility.yul\":8187:8196   */\n      dup4\n        /* \"#utility.yul\":8183:8200   */\n      add\n        /* \"#utility.yul\":8176:8223   */\n      mstore\n        /* \"#utility.yul\":8240:8371   */\n      tag_402\n        /* \"#utility.yul\":8366:8370   */\n      dup2\n        /* \"#utility.yul\":8240:8371   */\n      tag_353\n      jump\t// in\n    tag_402:\n        /* \"#utility.yul\":8232:8371   */\n      swap1\n      pop\n        /* \"#utility.yul\":7959:8378   */\n      swap2\n      swap1\n      pop\n      jump\t// out\n        /* \"#utility.yul\":8384:8803   */\n    tag_148:\n        /* \"#utility.yul\":8550:8554   */\n      0x00\n        /* \"#utility.yul\":8588:8590   */\n      0x20\n        /* \"#utility.yul\":8577:8586   */\n      dup3\n        /* \"#utility.yul\":8573:8591   */\n      add\n        /* \"#utility.yul\":8565:8591   */\n      swap1\n      pop\n        /* \"#utility.yul\":8637:8646   */\n      dup2\n        /* \"#utility.yul\":8631:8635   */\n      dup2\n        /* \"#utility.yul\":8627:8647   */\n      sub\n        /* \"#utility.yul\":8623:8624   */\n      0x00\n        /* \"#utility.yul\":8612:8621   */\n      dup4\n        /* \"#utility.yul\":8608:8625   */\n      add\n        /* \"#utility.yul\":8601:8648   */\n      mstore\n        /* \"#utility.yul\":8665:8796   */\n      tag_404\n        /* \"#utility.yul\":8791:8795   */\n      dup2\n        /* \"#utility.yul\":8665:8796   */\n      tag_358\n      jump\t// in\n    tag_404:\n        /* \"#utility.yul\":8657:8796   */\n      swap1\n      pop\n        /* \"#utility.yul\":8384:8803   */\n      swap2\n      swap1\n      pop\n      jump\t// out\n        /* \"#utility.yul\":8809:9228   */\n    tag_264:\n        /* \"#utility.yul\":8975:8979   */\n      0x00\n        /* \"#utility.yul\":9013:9015   */\n      0x20\n        /* \"#utility.yul\":9002:9011   */\n      dup3\n        /* \"#utility.yul\":8998:9016   */\n      add\n        /* \"#utility.yul\":8990:9016   */\n      swap1\n      pop\n        /* \"#utility.yul\":9062:9071   */\n      dup2\n        /* \"#utility.yul\":9056:9060   */\n      dup2\n        /* \"#utility.yul\":9052:9072   */\n      sub\n        /* \"#utility.yul\":9048:9049   */\n      0x00\n        /* \"#utility.yul\":9037:9046   */\n      dup4\n        /* \"#utility.yul\":9033:9050   */\n      add\n        /* \"#utility.yul\":9026:9073   */\n      mstore\n        /* \"#utility.yul\":9090:9221   */\n      tag_406\n        /* \"#utility.yul\":9216:9220   */\n      dup2\n        /* \"#utility.yul\":9090:9221   */\n      tag_363\n      jump\t// in\n    tag_406:\n        /* \"#utility.yul\":9082:9221   */\n      swap1\n      pop\n        /* \"#utility.yul\":8809:9228   */\n      swap2\n      swap1\n      pop\n      jump\t// out\n        /* \"#utility.yul\":9234:9653   */\n    tag_128:\n        /* \"#utility.yul\":9400:9404   */\n      0x00\n        /* \"#utility.yul\":9438:9440   */\n      0x20\n        /* \"#utility.yul\":9427:9436   */\n      dup3\n        /* \"#utility.yul\":9423:9441   */\n      add\n        /* \"#utility.yul\":9415:9441   */\n      swap1\n      pop\n        /* \"#utility.yul\":9487:9496   */\n      dup2\n        /* \"#utility.yul\":9481:9485   */\n      dup2\n        /* \"#utility.yul\":9477:9497   */\n      sub\n        /* \"#utility.yul\":9473:9474   */\n      0x00\n        /* \"#utility.yul\":9462:9471   */\n      dup4\n        /* \"#utility.yul\":9458:9475   */\n      add\n        /* \"#utility.yul\":9451:9498   */\n      mstore\n        /* \"#utility.yul\":9515:9646   */\n      tag_408\n        /* \"#utility.yul\":9641:9645   */\n      dup2\n        /* \"#utility.yul\":9515:9646   */\n      tag_368\n      jump\t// in\n    tag_408:\n        /* \"#utility.yul\":9507:9646   */\n      swap1\n      pop\n        /* \"#utility.yul\":9234:9653   */\n      swap2\n      swap1\n      pop\n      jump\t// out\n        /* \"#utility.yul\":9659:10078   */\n    tag_183:\n        /* \"#utility.yul\":9825:9829   */\n      0x00\n        /* \"#utility.yul\":9863:9865   */\n      0x20\n        /* \"#utility.yul\":9852:9861   */\n      dup3\n        /* \"#utility.yul\":9848:9866   */\n      add\n        /* \"#utility.yul\":9840:9866   */\n      swap1\n      pop\n        /* \"#utility.yul\":9912:9921   */\n      dup2\n        /* \"#utility.yul\":9906:9910   */\n      dup2\n        /* \"#utility.yul\":9902:9922   */\n      sub\n        /* \"#utility.yul\":9898:9899   */\n      0x00\n        /* \"#utility.yul\":9887:9896   */\n      dup4\n        /* \"#utility.yul\":9883:9900   */\n      add\n        /* \"#utility.yul\":9876:9923   */\n      mstore\n        /* \"#utility.yul\":9940:10071   */\n      tag_410\n        /* \"#utility.yul\":10066:10070   */\n      dup2\n        /* \"#utility.yul\":9940:10071   */\n      tag_373\n      jump\t// in\n    tag_410:\n        /* \"#utility.yul\":9932:10071   */\n      swap1\n      pop\n        /* \"#utility.yul\":9659:10078   */\n      swap2\n      swap1\n      pop\n      jump\t// out\n        /* \"#utility.yul\":10084:10306   */\n    tag_29:\n        /* \"#utility.yul\":10177:10181   */\n      0x00\n        /* \"#utility.yul\":10215:10217   */\n      0x20\n        /* \"#utility.yul\":10204:10213   */\n      dup3\n        /* \"#utility.yul\":10200:10218   */\n      add\n        /* \"#utility.yul\":10192:10218   */\n      swap1\n      pop\n        /* \"#utility.yul\":10228:10299   */\n      tag_412\n        /* \"#utility.yul\":10296:10297   */\n      0x00\n        /* \"#utility.yul\":10285:10294   */\n      dup4\n        /* \"#utility.yul\":10281:10298   */\n      add\n        /* \"#utility.yul\":10272:10278   */\n      dup5\n        /* \"#utility.yul\":10228:10299   */\n      tag_378\n      jump\t// in\n    tag_412:\n        /* \"#utility.yul\":10084:10306   */\n      swap3\n      swap2\n      pop\n      pop\n      jump\t// out\n        /* \"#utility.yul\":10312:10644   */\n    tag_42:\n        /* \"#utility.yul\":10433:10437   */\n      0x00\n        /* \"#utility.yul\":10471:10473   */\n      0x40\n        /* \"#utility.yul\":10460:10469   */\n      dup3\n        /* \"#utility.yul\":10456:10474   */\n      add\n        /* \"#utility.yul\":10448:10474   */\n      swap1\n      pop\n        /* \"#utility.yul\":10484:10555   */\n      tag_414\n        /* \"#utility.yul\":10552:10553   */\n      0x00\n        /* \"#utility.yul\":10541:10550   */\n      dup4\n        /* \"#utility.yul\":10537:10554   */\n      add\n        /* \"#utility.yul\":10528:10534   */\n      dup6\n        /* \"#utility.yul\":10484:10555   */\n      tag_378\n      jump\t// in\n    tag_414:\n        /* \"#utility.yul\":10565:10637   */\n      tag_415\n        /* \"#utility.yul\":10633:10635   */\n      0x20\n        /* \"#utility.yul\":10622:10631   */\n      dup4\n        /* \"#utility.yul\":10618:10636   */\n      add\n        /* \"#utility.yul\":10609:10615   */\n      dup5\n        /* \"#utility.yul\":10565:10637   */\n      tag_378\n      jump\t// in\n    tag_415:\n        /* \"#utility.yul\":10312:10644   */\n      swap4\n      swap3\n      pop\n      pop\n      pop\n      jump\t// out\n        /* \"#utility.yul\":10650:11092   */\n    tag_81:\n        /* \"#utility.yul\":10799:10803   */\n      0x00\n        /* \"#utility.yul\":10837:10839   */\n      0x60\n        /* \"#utility.yul\":10826:10835   */\n      dup3\n        /* \"#utility.yul\":10822:10840   */\n      add\n        /* \"#utility.yul\":10814:10840   */\n      swap1\n      pop\n        /* \"#utility.yul\":10850:10921   */\n      tag_417\n        /* \"#utility.yul\":10918:10919   */\n      0x00\n        /* \"#utility.yul\":10907:10916   */\n      dup4\n        /* \"#utility.yul\":10903:10920   */\n      add\n        /* \"#utility.yul\":10894:10900   */\n      dup7\n        /* \"#utility.yul\":10850:10921   */\n      tag_378\n      jump\t// in\n    tag_417:\n        /* \"#utility.yul\":10931:11003   */\n      tag_418\n        /* \"#utility.yul\":10999:11001   */\n      0x20\n        /* \"#utility.yul\":10988:10997   */\n      dup4\n        /* \"#utility.yul\":10984:11002   */\n      add\n        /* \"#utility.yul\":10975:10981   */\n      dup6\n        /* \"#utility.yul\":10931:11003   */\n      tag_378\n      jump\t// in\n    tag_418:\n        /* \"#utility.yul\":11013:11085   */\n      tag_419\n        /* \"#utility.yul\":11081:11083   */\n      0x40\n        /* \"#utility.yul\":11070:11079   */\n      dup4\n        /* \"#utility.yul\":11066:11084   */\n      add\n        /* \"#utility.yul\":11057:11063   */\n      dup5\n        /* \"#utility.yul\":11013:11085   */\n      tag_378\n      jump\t// in\n    tag_419:\n        /* \"#utility.yul\":10650:11092   */\n      swap5\n      swap4\n      pop\n      pop\n      pop\n      pop\n      jump\t// out\n        /* \"#utility.yul\":11179:11277   */\n    tag_325:\n        /* \"#utility.yul\":11230:11236   */\n      0x00\n        /* \"#utility.yul\":11264:11269   */\n      dup2\n        /* \"#utility.yul\":11258:11270   */\n      mload\n        /* \"#utility.yul\":11248:11270   */\n      swap1\n      pop\n        /* \"#utility.yul\":11179:11277   */\n      swap2\n      swap1\n      pop\n      jump\t// out\n        /* \"#utility.yul\":11283:11382   */\n    tag_337:\n        /* \"#utility.yul\":11335:11341   */\n      0x00\n        /* \"#utility.yul\":11369:11374   */\n      dup2\n        /* \"#utility.yul\":11363:11375   */\n      mload\n        /* \"#utility.yul\":11353:11375   */\n      swap1\n      pop\n        /* \"#utility.yul\":11283:11382   */\n      swap2\n      swap1\n      pop\n      jump\t// out\n        /* \"#utility.yul\":11388:11535   */\n    tag_327:\n        /* \"#utility.yul\":11489:11500   */\n      0x00\n        /* \"#utility.yul\":11526:11529   */\n      dup2\n        /* \"#utility.yul\":11511:11529   */\n      swap1\n      pop\n        /* \"#utility.yul\":11388:11535   */\n      swap3\n      swap2\n      pop\n      pop\n      jump\t// out\n        /* \"#utility.yul\":11541:11710   */\n    tag_339:\n        /* \"#utility.yul\":11625:11636   */\n      0x00\n        /* \"#utility.yul\":11659:11665   */\n      dup3\n        /* \"#utility.yul\":11654:11657   */\n      dup3\n        /* \"#utility.yul\":11647:11666   */\n      mstore\n        /* \"#utility.yul\":11699:11703   */\n      0x20\n        /* \"#utility.yul\":11694:11697   */\n      dup3\n        /* \"#utility.yul\":11690:11704   */\n      add\n        /* \"#utility.yul\":11675:11704   */\n      swap1\n      pop\n        /* \"#utility.yul\":11541:11710   */\n      swap3\n      swap2\n      pop\n      pop\n      jump\t// out\n        /* \"#utility.yul\":11716:12021   */\n    tag_108:\n        /* \"#utility.yul\":11756:11759   */\n      0x00\n        /* \"#utility.yul\":11775:11795   */\n      tag_427\n        /* \"#utility.yul\":11793:11794   */\n      dup3\n        /* \"#utility.yul\":11775:11795   */\n      tag_381\n      jump\t// in\n    tag_427:\n        /* \"#utility.yul\":11770:11795   */\n      swap2\n      pop\n        /* \"#utility.yul\":11809:11829   */\n      tag_428\n        /* \"#utility.yul\":11827:11828   */\n      dup4\n        /* \"#utility.yul\":11809:11829   */\n      tag_381\n      jump\t// in\n    tag_428:\n        /* \"#utility.yul\":11804:11829   */\n      swap3\n      pop\n        /* \"#utility.yul\":11963:11964   */\n      dup3\n        /* \"#utility.yul\":11895:11961   */\n      0xffffffffffffffffffffffffffffffffffffffffffffffffffffffffffffffff\n        /* \"#utility.yul\":11891:11965   */\n      sub\n        /* \"#utility.yul\":11888:11889   */\n      dup3\n        /* \"#utility.yul\":11885:11966   */\n      gt\n        /* \"#utility.yul\":11882:11989   */\n      iszero\n      tag_429\n      jumpi\n        /* \"#utility.yul\":11969:11987   */\n      tag_430\n      tag_431\n      jump\t// in\n    tag_430:\n        /* \"#utility.yul\":11882:11989   */\n    tag_429:\n        /* \"#utility.yul\":12013:12014   */\n      dup3\n        /* \"#utility.yul\":12010:12011   */\n      dup3\n        /* \"#utility.yul\":12006:12015   */\n      add\n        /* \"#utility.yul\":11999:12015   */\n      swap1\n      pop\n        /* \"#utility.yul\":11716:12021   */\n      swap3\n      swap2\n      pop\n      pop\n      jump\t// out\n        /* \"#utility.yul\":12027:12212   */\n    tag_116:\n        /* \"#utility.yul\":12067:12068   */\n      0x00\n        /* \"#utility.yul\":12084:12104   */\n      tag_433\n        /* \"#utility.yul\":12102:12103   */\n      dup3\n        /* \"#utility.yul\":12084:12104   */\n      tag_381\n      jump\t// in\n    tag_433:\n        /* \"#utility.yul\":12079:12104   */\n      swap2\n      pop\n        /* \"#utility.yul\":12118:12138   */\n      tag_434\n        /* \"#utility.yul\":12136:12137   */\n      dup4\n        /* \"#utility.yul\":12118:12138   */\n      tag_381\n      jump\t// in\n    tag_434:\n        /* \"#utility.yul\":12113:12138   */\n      swap3\n      pop\n        /* \"#utility.yul\":12157:12158   */\n      dup3\n        /* \"#utility.yul\":12147:12182   */\n      tag_435\n      jumpi\n        /* \"#utility.yul\":12162:12180   */\n      tag_436\n      tag_437\n      jump\t// in\n    tag_436:\n        /* \"#utility.yul\":12147:12182   */\n    tag_435:\n        /* \"#utility.yul\":12204:12205   */\n      dup3\n        /* \"#utility.yul\":12201:12202   */\n      dup3\n        /* \"#utility.yul\":12197:12206   */\n      div\n        /* \"#utility.yul\":12192:12206   */\n      swap1\n      pop\n        /* \"#utility.yul\":12027:12212   */\n      swap3\n      swap2\n      pop\n      pop\n      jump\t// out\n        /* \"#utility.yul\":12218:12566   */\n    tag_99:\n        /* \"#utility.yul\":12258:12265   */\n      0x00\n        /* \"#utility.yul\":12281:12301   */\n      tag_439\n        /* \"#utility.yul\":12299:12300   */\n      dup3\n        /* \"#utility.yul\":12281:12301   */\n      tag_381\n      jump\t// in\n    tag_439:\n        /* \"#utility.yul\":12276:12301   */\n      swap2\n      pop\n        /* \"#utility.yul\":12315:12335   */\n      tag_440\n        /* \"#utility.yul\":12333:12334   */\n      dup4\n        /* \"#utility.yul\":12315:12335   */\n      tag_381\n      jump\t// in\n    tag_440:\n        /* \"#utility.yul\":12310:12335   */\n      swap3\n      pop\n        /* \"#utility.yul\":12503:12504   */\n      dup2\n        /* \"#utility.yul\":12435:12501   */\n      0xffffffffffffffffffffffffffffffffffffffffffffffffffffffffffffffff\n        /* \"#utility.yul\":12431:12505   */\n      div\n        /* \"#utility.yul\":12428:12429   */\n      dup4\n        /* \"#utility.yul\":12425:12506   */\n      gt\n        /* \"#utility.yul\":12420:12421   */\n      dup3\n        /* \"#utility.yul\":12413:12422   */\n      iszero\n        /* \"#utility.yul\":12406:12423   */\n      iszero\n        /* \"#utility.yul\":12402:12507   */\n      and\n        /* \"#utility.yul\":12399:12530   */\n      iszero\n      tag_441\n      jumpi\n        /* \"#utility.yul\":12510:12528   */\n      tag_442\n      tag_431\n      jump\t// in\n    tag_442:\n        /* \"#utility.yul\":12399:12530   */\n    tag_441:\n        /* \"#utility.yul\":12558:12559   */\n      dup3\n        /* \"#utility.yul\":12555:12556   */\n      dup3\n        /* \"#utility.yul\":12551:12560   */\n      mul\n        /* \"#utility.yul\":12540:12560   */\n      swap1\n      pop\n        /* \"#utility.yul\":12218:12566   */\n      swap3\n      swap2\n      pop\n      pop\n      jump\t// out\n        /* \"#utility.yul\":12572:12763   */\n    tag_104:\n        /* \"#utility.yul\":12612:12616   */\n      0x00\n        /* \"#utility.yul\":12632:12652   */\n      tag_444\n        /* \"#utility.yul\":12650:12651   */\n      dup3\n        /* \"#utility.yul\":12632:12652   */\n      tag_381\n      jump\t// in\n    tag_444:\n        /* \"#utility.yul\":12627:12652   */\n      swap2\n      pop\n        /* \"#utility.yul\":12666:12686   */\n      tag_445\n        /* \"#utility.yul\":12684:12685   */\n      dup4\n        /* \"#utility.yul\":12666:12686   */\n      tag_381\n      jump\t// in\n    tag_445:\n        /* \"#utility.yul\":12661:12686   */\n      swap3\n      pop\n        /* \"#utility.yul\":12705:12706   */\n      dup3\n        /* \"#utility.yul\":12702:12703   */\n      dup3\n        /* \"#utility.yul\":12699:12707   */\n      lt\n        /* \"#utility.yul\":12696:12730   */\n      iszero\n      tag_446\n      jumpi\n        /* \"#utility.yul\":12710:12728   */\n      tag_447\n      tag_431\n      jump\t// in\n    tag_447:\n        /* \"#utility.yul\":12696:12730   */\n    tag_446:\n        /* \"#utility.yul\":12755:12756   */\n      dup3\n        /* \"#utility.yul\":12752:12753   */\n      dup3\n        /* \"#utility.yul\":12748:12757   */\n      sub\n        /* \"#utility.yul\":12740:12757   */\n      swap1\n      pop\n        /* \"#utility.yul\":12572:12763   */\n      swap3\n      swap2\n      pop\n      pop\n      jump\t// out\n        /* \"#utility.yul\":12769:12865   */\n    tag_321:\n        /* \"#utility.yul\":12806:12813   */\n      0x00\n        /* \"#utility.yul\":12835:12859   */\n      tag_449\n        /* \"#utility.yul\":12853:12858   */\n      dup3\n        /* \"#utility.yul\":12835:12859   */\n      tag_450\n      jump\t// in\n    tag_449:\n        /* \"#utility.yul\":12824:12859   */\n      swap1\n      pop\n        /* \"#utility.yul\":12769:12865   */\n      swap2\n      swap1\n      pop\n      jump\t// out\n        /* \"#utility.yul\":12871:12961   */\n    tag_451:\n        /* \"#utility.yul\":12905:12912   */\n      0x00\n        /* \"#utility.yul\":12948:12953   */\n      dup2\n        /* \"#utility.yul\":12941:12954   */\n      iszero\n        /* \"#utility.yul\":12934:12955   */\n      iszero\n        /* \"#utility.yul\":12923:12955   */\n      swap1\n      pop\n        /* \"#utility.yul\":12871:12961   */\n      swap2\n      swap1\n      pop\n      jump\t// out\n        /* \"#utility.yul\":12967:13093   */\n    tag_450:\n        /* \"#utility.yul\":13004:13011   */\n      0x00\n        /* \"#utility.yul\":13044:13086   */\n      0xffffffffffffffffffffffffffffffffffffffff\n        /* \"#utility.yul\":13037:13042   */\n      dup3\n        /* \"#utility.yul\":13033:13087   */\n      and\n        /* \"#utility.yul\":13022:13087   */\n      swap1\n      pop\n        /* \"#utility.yul\":12967:13093   */\n      swap2\n      swap1\n      pop\n      jump\t// out\n        /* \"#utility.yul\":13099:13176   */\n    tag_381:\n        /* \"#utility.yul\":13136:13143   */\n      0x00\n        /* \"#utility.yul\":13165:13170   */\n      dup2\n        /* \"#utility.yul\":13154:13170   */\n      swap1\n      pop\n        /* \"#utility.yul\":13099:13176   */\n      swap2\n      swap1\n      pop\n      jump\t// out\n        /* \"#utility.yul\":13182:13326   */\n    tag_333:\n        /* \"#utility.yul\":13250:13259   */\n      0x00\n        /* \"#utility.yul\":13283:13320   */\n      tag_456\n        /* \"#utility.yul\":13314:13319   */\n      dup3\n        /* \"#utility.yul\":13283:13320   */\n      tag_457\n      jump\t// in\n    tag_456:\n        /* \"#utility.yul\":13270:13320   */\n      swap1\n      pop\n        /* \"#utility.yul\":13182:13326   */\n      swap2\n      swap1\n      pop\n      jump\t// out\n        /* \"#utility.yul\":13332:13458   */\n    tag_457:\n        /* \"#utility.yul\":13382:13391   */\n      0x00\n        /* \"#utility.yul\":13415:13452   */\n      tag_459\n        /* \"#utility.yul\":13446:13451   */\n      dup3\n        /* \"#utility.yul\":13415:13452   */\n      tag_460\n      jump\t// in\n    tag_459:\n        /* \"#utility.yul\":13402:13452   */\n      swap1\n      pop\n        /* \"#utility.yul\":13332:13458   */\n      swap2\n      swap1\n      pop\n      jump\t// out\n        /* \"#utility.yul\":13464:13577   */\n    tag_460:\n        /* \"#utility.yul\":13514:13523   */\n      0x00\n        /* \"#utility.yul\":13547:13571   */\n      tag_462\n        /* \"#utility.yul\":13565:13570   */\n      dup3\n        /* \"#utility.yul\":13547:13571   */\n      tag_450\n      jump\t// in\n    tag_462:\n        /* \"#utility.yul\":13534:13571   */\n      swap1\n      pop\n        /* \"#utility.yul\":13464:13577   */\n      swap2\n      swap1\n      pop\n      jump\t// out\n        /* \"#utility.yul\":13583:13890   */\n    tag_329:\n        /* \"#utility.yul\":13651:13652   */\n      0x00\n        /* \"#utility.yul\":13661:13774   */\n    tag_464:\n        /* \"#utility.yul\":13675:13681   */\n      dup4\n        /* \"#utility.yul\":13672:13673   */\n      dup2\n        /* \"#utility.yul\":13669:13682   */\n      lt\n        /* \"#utility.yul\":13661:13774   */\n      iszero\n      tag_466\n      jumpi\n        /* \"#utility.yul\":13760:13761   */\n      dup1\n        /* \"#utility.yul\":13755:13758   */\n      dup3\n        /* \"#utility.yul\":13751:13762   */\n      add\n        /* \"#utility.yul\":13745:13763   */\n      mload\n        /* \"#utility.yul\":13741:13742   */\n      dup2\n        /* \"#utility.yul\":13736:13739   */\n      dup5\n        /* \"#utility.yul\":13732:13743   */\n      add\n        /* \"#utility.yul\":13725:13764   */\n      mstore\n        /* \"#utility.yul\":13697:13699   */\n      0x20\n        /* \"#utility.yul\":13694:13695   */\n      dup2\n        /* \"#utility.yul\":13690:13700   */\n      add\n        /* \"#utility.yul\":13685:13700   */\n      swap1\n      pop\n        /* \"#utility.yul\":13661:13774   */\n      jump(tag_464)\n    tag_466:\n        /* \"#utility.yul\":13792:13798   */\n      dup4\n        /* \"#utility.yul\":13789:13790   */\n      dup2\n        /* \"#utility.yul\":13786:13799   */\n      gt\n        /* \"#utility.yul\":13783:13884   */\n      iszero\n      tag_467\n      jumpi\n        /* \"#utility.yul\":13872:13873   */\n      0x00\n        /* \"#utility.yul\":13863:13869   */\n      dup5\n        /* \"#utility.yul\":13858:13861   */\n      dup5\n        /* \"#utility.yul\":13854:13870   */\n      add\n        /* \"#utility.yul\":13847:13874   */\n      mstore\n        /* \"#utility.yul\":13783:13884   */\n    tag_467:\n        /* \"#utility.yul\":13632:13890   */\n      pop\n        /* \"#utility.yul\":13583:13890   */\n      pop\n      pop\n      pop\n      jump\t// out\n        /* \"#utility.yul\":13896:14129   */\n    tag_106:\n        /* \"#utility.yul\":13935:13938   */\n      0x00\n        /* \"#utility.yul\":13958:13982   */\n      tag_469\n        /* \"#utility.yul\":13976:13981   */\n      dup3\n        /* \"#utility.yul\":13958:13982   */\n      tag_381\n      jump\t// in\n    tag_469:\n        /* \"#utility.yul\":13949:13982   */\n      swap2\n      pop\n        /* \"#utility.yul\":14004:14070   */\n      0xffffffffffffffffffffffffffffffffffffffffffffffffffffffffffffffff\n        /* \"#utility.yul\":13997:14002   */\n      dup3\n        /* \"#utility.yul\":13994:14071   */\n      eq\n        /* \"#utility.yul\":13991:14094   */\n      iszero\n      tag_470\n      jumpi\n        /* \"#utility.yul\":14074:14092   */\n      tag_471\n      tag_431\n      jump\t// in\n    tag_471:\n        /* \"#utility.yul\":13991:14094   */\n    tag_470:\n        /* \"#utility.yul\":14121:14122   */\n      0x01\n        /* \"#utility.yul\":14114:14119   */\n      dup3\n        /* \"#utility.yul\":14110:14123   */\n      add\n        /* \"#utility.yul\":14103:14123   */\n      swap1\n      pop\n        /* \"#utility.yul\":13896:14129   */\n      swap2\n      swap1\n      pop\n      jump\t// out\n        /* \"#utility.yul\":14135:14315   */\n    tag_431:\n        /* \"#utility.yul\":14183:14260   */\n      0x4e487b7100000000000000000000000000000000000000000000000000000000\n        /* \"#utility.yul\":14180:14181   */\n      0x00\n        /* \"#utility.yul\":14173:14261   */\n      mstore\n        /* \"#utility.yul\":14280:14284   */\n      0x11\n        /* \"#utility.yul\":14277:14278   */\n      0x04\n        /* \"#utility.yul\":14270:14285   */\n      mstore\n        /* \"#utility.yul\":14304:14308   */\n      0x24\n        /* \"#utility.yul\":14301:14302   */\n      0x00\n        /* \"#utility.yul\":14294:14309   */\n      revert\n        /* \"#utility.yul\":14321:14501   */\n    tag_437:\n        /* \"#utility.yul\":14369:14446   */\n      0x4e487b7100000000000000000000000000000000000000000000000000000000\n        /* \"#utility.yul\":14366:14367   */\n      0x00\n        /* \"#utility.yul\":14359:14447   */\n      mstore\n        /* \"#utility.yul\":14466:14470   */\n      0x12\n        /* \"#utility.yul\":14463:14464   */\n      0x04\n        /* \"#utility.yul\":14456:14471   */\n      mstore\n        /* \"#utility.yul\":14490:14494   */\n      0x24\n        /* \"#utility.yul\":14487:14488   */\n      0x00\n        /* \"#utility.yul\":14480:14495   */\n      revert\n        /* \"#utility.yul\":14630:14747   */\n    tag_308:\n        /* \"#utility.yul\":14739:14740   */\n      0x00\n        /* \"#utility.yul\":14736:14737   */\n      dup1\n        /* \"#utility.yul\":14729:14741   */\n      revert\n        /* \"#utility.yul\":14753:14855   */\n    tag_342:\n        /* \"#utility.yul\":14794:14800   */\n      0x00\n        /* \"#utility.yul\":14845:14847   */\n      0x1f\n        /* \"#utility.yul\":14841:14848   */\n      not\n        /* \"#utility.yul\":14836:14838   */\n      0x1f\n        /* \"#utility.yul\":14829:14834   */\n      dup4\n        /* \"#utility.yul\":14825:14839   */\n      add\n        /* \"#utility.yul\":14821:14849   */\n      and\n        /* \"#utility.yul\":14811:14849   */\n      swap1\n      pop\n        /* \"#utility.yul\":14753:14855   */\n      swap2\n      swap1\n      pop\n      jump\t// out\n        /* \"#utility.yul\":14861:15086   */\n    tag_347:\n        /* \"#utility.yul\":15001:15035   */\n      0x416464726573733a20696e73756666696369656e742062616c616e636520666f\n        /* \"#utility.yul\":14997:14998   */\n      0x00\n        /* \"#utility.yul\":14989:14995   */\n      dup3\n        /* \"#utility.yul\":14985:14999   */\n      add\n        /* \"#utility.yul\":14978:15036   */\n      mstore\n        /* \"#utility.yul\":15070:15078   */\n      0x722063616c6c0000000000000000000000000000000000000000000000000000\n        /* \"#utility.yul\":15065:15067   */\n      0x20\n        /* \"#utility.yul\":15057:15063   */\n      dup3\n        /* \"#utility.yul\":15053:15068   */\n      add\n        /* \"#utility.yul\":15046:15079   */\n      mstore\n        /* \"#utility.yul\":14861:15086   */\n      pop\n      jump\t// out\n        /* \"#utility.yul\":15092:15270   */\n    tag_352:\n        /* \"#utility.yul\":15232:15262   */\n      0x57697468647261773a20416d6f756e74206d757374206265203e203000000000\n        /* \"#utility.yul\":15228:15229   */\n      0x00\n        /* \"#utility.yul\":15220:15226   */\n      dup3\n        /* \"#utility.yul\":15216:15230   */\n      add\n        /* \"#utility.yul\":15209:15263   */\n      mstore\n        /* \"#utility.yul\":15092:15270   */\n      pop\n      jump\t// out\n        /* \"#utility.yul\":15276:15455   */\n    tag_357:\n        /* \"#utility.yul\":15416:15447   */\n      0x416464726573733a2063616c6c20746f206e6f6e2d636f6e7472616374000000\n        /* \"#utility.yul\":15412:15413   */\n      0x00\n        /* \"#utility.yul\":15404:15410   */\n      dup3\n        /* \"#utility.yul\":15400:15414   */\n      add\n        /* \"#utility.yul\":15393:15448   */\n      mstore\n        /* \"#utility.yul\":15276:15455   */\n      pop\n      jump\t// out\n        /* \"#utility.yul\":15461:15703   */\n    tag_362:\n        /* \"#utility.yul\":15601:15635   */\n      0x57697468647261773a20416d6f756e74206d757374206265203e2030206f7220\n        /* \"#utility.yul\":15597:15598   */\n      0x00\n        /* \"#utility.yul\":15589:15595   */\n      dup3\n        /* \"#utility.yul\":15585:15599   */\n      add\n        /* \"#utility.yul\":15578:15636   */\n      mstore\n        /* \"#utility.yul\":15670:15695   */\n      0x6c6f776572207468616e20757365722062616c616e6365000000000000000000\n        /* \"#utility.yul\":15665:15667   */\n      0x20\n        /* \"#utility.yul\":15657:15663   */\n      dup3\n        /* \"#utility.yul\":15653:15668   */\n      add\n        /* \"#utility.yul\":15646:15696   */\n      mstore\n        /* \"#utility.yul\":15461:15703   */\n      pop\n      jump\t// out\n        /* \"#utility.yul\":15709:15938   */\n    tag_367:\n        /* \"#utility.yul\":15849:15883   */\n      0x5361666545524332303a204552433230206f7065726174696f6e20646964206e\n        /* \"#utility.yul\":15845:15846   */\n      0x00\n        /* \"#utility.yul\":15837:15843   */\n      dup3\n        /* \"#utility.yul\":15833:15847   */\n      add\n        /* \"#utility.yul\":15826:15884   */\n      mstore\n        /* \"#utility.yul\":15918:15930   */\n      0x6f74207375636365656400000000000000000000000000000000000000000000\n        /* \"#utility.yul\":15913:15915   */\n      0x20\n        /* \"#utility.yul\":15905:15911   */\n      dup3\n        /* \"#utility.yul\":15901:15916   */\n      add\n        /* \"#utility.yul\":15894:15931   */\n      mstore\n        /* \"#utility.yul\":15709:15938   */\n      pop\n      jump\t// out\n        /* \"#utility.yul\":15944:16125   */\n    tag_372:\n        /* \"#utility.yul\":16084:16117   */\n      0x5265656e7472616e637947756172643a207265656e7472616e742063616c6c00\n        /* \"#utility.yul\":16080:16081   */\n      0x00\n        /* \"#utility.yul\":16072:16078   */\n      dup3\n        /* \"#utility.yul\":16068:16082   */\n      add\n        /* \"#utility.yul\":16061:16118   */\n      mstore\n        /* \"#utility.yul\":15944:16125   */\n      pop\n      jump\t// out\n        /* \"#utility.yul\":16131:16308   */\n    tag_377:\n        /* \"#utility.yul\":16271:16300   */\n      0x4465706f7369743a20416d6f756e74206d757374206265203e20300000000000\n        /* \"#utility.yul\":16267:16268   */\n      0x00\n        /* \"#utility.yul\":16259:16265   */\n      dup3\n        /* \"#utility.yul\":16255:16269   */\n      add\n        /* \"#utility.yul\":16248:16301   */\n      mstore\n        /* \"#utility.yul\":16131:16308   */\n      pop\n      jump\t// out\n        /* \"#utility.yul\":16314:16436   */\n    tag_296:\n        /* \"#utility.yul\":16387:16411   */\n      tag_486\n        /* \"#utility.yul\":16405:16410   */\n      dup2\n        /* \"#utility.yul\":16387:16411   */\n      tag_321\n      jump\t// in\n    tag_486:\n        /* \"#utility.yul\":16380:16385   */\n      dup2\n        /* \"#utility.yul\":16377:16412   */\n      eq\n        /* \"#utility.yul\":16367:16430   */\n      tag_487\n      jumpi\n        /* \"#utility.yul\":16426:16427   */\n      0x00\n        /* \"#utility.yul\":16423:16424   */\n      dup1\n        /* \"#utility.yul\":16416:16428   */\n      revert\n        /* \"#utility.yul\":16367:16430   */\n    tag_487:\n        /* \"#utility.yul\":16314:16436   */\n      pop\n      jump\t// out\n        /* \"#utility.yul\":16442:16558   */\n    tag_300:\n        /* \"#utility.yul\":16512:16533   */\n      tag_489\n        /* \"#utility.yul\":16527:16532   */\n      dup2\n        /* \"#utility.yul\":16512:16533   */\n      tag_451\n      jump\t// in\n    tag_489:\n        /* \"#utility.yul\":16505:16510   */\n      dup2\n        /* \"#utility.yul\":16502:16534   */\n      eq\n        /* \"#utility.yul\":16492:16552   */\n      tag_490\n      jumpi\n        /* \"#utility.yul\":16548:16549   */\n      0x00\n        /* \"#utility.yul\":16545:16546   */\n      dup1\n        /* \"#utility.yul\":16538:16550   */\n      revert\n        /* \"#utility.yul\":16492:16552   */\n    tag_490:\n        /* \"#utility.yul\":16442:16558   */\n      pop\n      jump\t// out\n        /* \"#utility.yul\":16564:16686   */\n    tag_304:\n        /* \"#utility.yul\":16637:16661   */\n      tag_492\n        /* \"#utility.yul\":16655:16660   */\n      dup2\n        /* \"#utility.yul\":16637:16661   */\n      tag_381\n      jump\t// in\n    tag_492:\n        /* \"#utility.yul\":16630:16635   */\n      dup2\n        /* \"#utility.yul\":16627:16662   */\n      eq\n        /* \"#utility.yul\":16617:16680   */\n      tag_493\n      jumpi\n        /* \"#utility.yul\":16676:16677   */\n      0x00\n        /* \"#utility.yul\":16673:16674   */\n      dup1\n        /* \"#utility.yul\":16666:16678   */\n      revert\n        /* \"#utility.yul\":16617:16680   */\n    tag_493:\n        /* \"#utility.yul\":16564:16686   */\n      pop\n      jump\t// out\n\n    auxdata: 0xa264697066735822122073561f440766bf651db0bcd3be684ff1848254e0a253fcf530c960da0695e28764736f6c63430008070033\n}\n",
				"bytecode": {
					"linkReferences": {},
					"object": "6101006040523480156200001257600080fd5b50604051620030c6380380620030c683398181016040528101906200003891906200055e565b6001600081905550808251148015620000515750808451145b80156200005e5750808451145b620000a0576040517f08c379a0000000000000000000000000000000000000000000000000000000008152600401620000979062000710565b60405180910390fd5b60008773ffffffffffffffffffffffffffffffffffffffff166318160ddd6040518163ffffffff1660e01b815260040160206040518083038186803b158015620000e957600080fd5b505afa158015620000fe573d6000803e3d6000fd5b505050506040513d601f19601f820116820180604052508101906200012491906200066e565b8873ffffffffffffffffffffffffffffffffffffffff16630cfccc836040518163ffffffff1660e01b815260040160206040518083038186803b1580156200016b57600080fd5b505afa15801562000180573d6000803e3d6000fd5b505050506040513d601f19601f82011682018060405250810190620001a691906200066e565b620001b2919062000859565b9050600080600090505b838110156200032c57848181518110620001db57620001da62000985565b5b6020026020010151868281518110620001f957620001f862000985565b5b60200260200101516200020d9190620007f8565b85828151811062000223576200022262000985565b5b602002602001015188838151811062000241576200024062000985565b5b6020026020010151620002559190620007f8565b6200026191906200079b565b826200026e91906200079b565b9150604051806060016040528088838151811062000291576200029062000985565b5b60200260200101518152602001878381518110620002b457620002b362000985565b5b60200260200101518152602001868381518110620002d757620002d662000985565b5b6020026020010151815250600860008381526020019081526020016000206000820151816000015560208201518160010155604082015181600201559050508080620003239062000908565b915050620001bc565b5081811462000372576040517f08c379a00000000000000000000000000000000000000000000000000000000081526004016200036990620006ee565b60405180910390fd5b8873ffffffffffffffffffffffffffffffffffffffff1660808173ffffffffffffffffffffffffffffffffffffffff1660601b815250508773ffffffffffffffffffffffffffffffffffffffff1660a08173ffffffffffffffffffffffffffffffffffffffff1660601b8152505085600081518110620003f757620003f662000985565b5b6020026020010151600681905550846000815181106200041c576200041b62000985565b5b60200260200101516005819055508660e081815250508360008151811062000449576200044862000985565b5b6020026020010151876200045e91906200079b565b6003819055508260c081815250508660048190555050505050505050505062000ada565b60006200049962000493846200075b565b62000732565b90508083825260208201905082856020860282011115620004bf57620004be620009e8565b5b60005b85811015620004f35781620004d8888262000547565b845260208401935060208301925050600181019050620004c2565b5050509392505050565b6000815190506200050e8162000aa6565b92915050565b600082601f8301126200052c576200052b620009e3565b5b81516200053e84826020860162000482565b91505092915050565b600081519050620005588162000ac0565b92915050565b600080600080600080600060e0888a03121562000580576200057f620009f2565b5b6000620005908a828b01620004fd565b9750506020620005a38a828b01620004fd565b9650506040620005b68a828b0162000547565b955050606088015167ffffffffffffffff811115620005da57620005d9620009ed565b5b620005e88a828b0162000514565b945050608088015167ffffffffffffffff8111156200060c576200060b620009ed565b5b6200061a8a828b0162000514565b93505060a088015167ffffffffffffffff8111156200063e576200063d620009ed565b5b6200064c8a828b0162000514565b92505060c06200065f8a828b0162000547565b91505092959891949750929550565b600060208284031215620006875762000686620009f2565b5b6000620006978482850162000547565b91505092915050565b6000620006af6024836200078a565b9150620006bc8262000a08565b604082019050919050565b6000620006d6602e836200078a565b9150620006e38262000a57565b604082019050919050565b600060208201905081810360008301526200070981620006a0565b9050919050565b600060208201905081810360008301526200072b81620006c7565b9050919050565b60006200073e62000751565b90506200074c8282620008d2565b919050565b6000604051905090565b600067ffffffffffffffff821115620007795762000778620009b4565b5b602082029050602081019050919050565b600082825260208201905092915050565b6000620007a882620008c8565b9150620007b583620008c8565b9250827fffffffffffffffffffffffffffffffffffffffffffffffffffffffffffffffff03821115620007ed57620007ec62000956565b5b828201905092915050565b60006200080582620008c8565b91506200081283620008c8565b9250817fffffffffffffffffffffffffffffffffffffffffffffffffffffffffffffffff04831182151516156200084e576200084d62000956565b5b828202905092915050565b60006200086682620008c8565b91506200087383620008c8565b92508282101562000889576200088862000956565b5b828203905092915050565b6000620008a182620008a8565b9050919050565b600073ffffffffffffffffffffffffffffffffffffffff82169050919050565b6000819050919050565b620008dd82620009f7565b810181811067ffffffffffffffff82111715620008ff57620008fe620009b4565b5b80604052505050565b60006200091582620008c8565b91507fffffffffffffffffffffffffffffffffffffffffffffffffffffffffffffffff8214156200094b576200094a62000956565b5b600182019050919050565b7f4e487b7100000000000000000000000000000000000000000000000000000000600052601160045260246000fd5b7f4e487b7100000000000000000000000000000000000000000000000000000000600052603260045260246000fd5b7f4e487b7100000000000000000000000000000000000000000000000000000000600052604160045260246000fd5b600080fd5b600080fd5b600080fd5b600080fd5b6000601f19601f8301169050919050565b7f4469737472696275746f723a2057726f6e672072657761726420706172616d6560008201527f7465727300000000000000000000000000000000000000000000000000000000602082015250565b7f4469737472696275746f723a204c656e6774686573206d757374206d6174636860008201527f206e756d626572506572696f6473000000000000000000000000000000000000602082015250565b62000ab18162000894565b811462000abd57600080fd5b50565b62000acb81620008c8565b811462000ad757600080fd5b50565b60805160601c60a05160601c60c05160e05161257462000b526000396000610cd10152600081816103e801528181610cf501526115740152600081816110900152611765015260008181610c0b01528181610cad01528181610fe80152818161115901528181611642015261172901526125746000f3fe608060405234801561001057600080fd5b506004361061012c5760003560e01c8063853828b6116100ad578063c1027c9811610071578063c1027c98146102ec578063ccd34cd51461031e578063e3161ddd1461033c578063e683d96f14610346578063fe961f61146103645761012c565b8063853828b61461026c5780638f66291514610276578063a46074c314610294578063a9f8d181146102b2578063b6b55f25146102d05761012c565b80632e1a7d4d116100f45780632e1a7d4d146101d857806336db9fb2146101f457806339b3e8261461021257806352bf348c146102305780635a9477e91461024e5761012c565b8063055ad42e14610131578063083c63231461014f578063097aad101461016d5780631959a0021461019d5780632a4e051b146101ce575b600080fd5b610139610382565b6040516101469190612038565b60405180910390f35b610157610388565b6040516101649190612038565b60405180910390f35b61018760048036038101906101829190611c76565b61038e565b6040516101949190612038565b60405180910390f35b6101b760048036038101906101b29190611c76565b61065c565b6040516101c5929190612053565b60405180910390f35b6101d6610680565b005b6101f260048036038101906101ed9190611cd0565b610908565b005b6101fc610cab565b6040516102099190611f1b565b60405180910390f35b61021a610ccf565b6040516102279190612038565b60405180910390f35b610238610cf3565b6040516102459190612038565b60405180910390f35b610256610d17565b6040516102639190612038565b60405180910390f35b610274610d1d565b005b61027e611088565b60405161028b9190612038565b60405180910390f35b61029c61108e565b6040516102a99190611ea0565b60405180910390f35b6102ba6110b2565b6040516102c79190612038565b60405180910390f35b6102ea60048036038101906102e59190611cd0565b6110b8565b005b61030660048036038101906103019190611cd0565b611424565b6040516103159392919061207c565b60405180910390f35b61032661144e565b6040516103339190612038565b60405180910390f35b610344611457565b005b61034e6114b7565b60405161035b9190612038565b60405180910390f35b61036c6114bd565b6040516103799190612038565b60405180910390f35b60025481565b60035481565b6000600454431180156103a45750600060075414155b156105a75760006103b7600454436114c3565b90506000600654826103c9919061216c565b905060006003549050600060025490505b8143118015610414575060017f000000000000000000000000000000000000000000000000000000000000000061041191906121c6565b81105b156104c1578080610424906122ab565b915050600060086000838152602001908152602001600020600001549050600083905060086000848152602001908152602001600020600201548161046991906120e5565b935060008443111561049157600860008581526020019081526020016000206002015461049e565b814361049d91906121c6565b5b905082816104ac919061216c565b866104b791906120e5565b95505050506103da565b600060075464e8d4a51000856104d7919061216c565b6104e1919061213b565b6001546104ee91906120e5565b9050600960008873ffffffffffffffffffffffffffffffffffffffff1673ffffffffffffffffffffffffffffffffffffffff1681526020019081526020016000206001015464e8d4a5100082600960008b73ffffffffffffffffffffffffffffffffffffffff1673ffffffffffffffffffffffffffffffffffffffff16815260200190815260200160002060000154610587919061216c565b610591919061213b565b61059b91906121c6565b95505050505050610657565b600960008373ffffffffffffffffffffffffffffffffffffffff1673ffffffffffffffffffffffffffffffffffffffff1681526020019081526020016000206001015464e8d4a51000600154600960008673ffffffffffffffffffffffffffffffffffffffff1673ffffffffffffffffffffffffffffffffffffffff16815260200190815260200160002060000154610640919061216c565b61064a919061213b565b61065491906121c6565b90505b919050565b60096020528060005260406000206000915090508060000154908060010154905082565b600260005414156106c6576040517f08c379a00000000000000000000000000000000000000000000000000000000081526004016106bd90611ff8565b60405180910390fd5b60026000819055506106d661150a565b6000600960003373ffffffffffffffffffffffffffffffffffffffff1673ffffffffffffffffffffffffffffffffffffffff1681526020019081526020016000206001015464e8d4a51000600154600960003373ffffffffffffffffffffffffffffffffffffffff1673ffffffffffffffffffffffffffffffffffffffff16815260200190815260200160002060000154610771919061216c565b61077b919061213b565b61078591906121c6565b9050600081141561079657506108fe565b80600960003373ffffffffffffffffffffffffffffffffffffffff1673ffffffffffffffffffffffffffffffffffffffff16815260200190815260200160002060000160008282546107e891906120e5565b92505081905550806007600082825461080191906120e5565b9250508190555064e8d4a51000600154600960003373ffffffffffffffffffffffffffffffffffffffff1673ffffffffffffffffffffffffffffffffffffffff1681526020019081526020016000206000015461085e919061216c565b610868919061213b565b600960003373ffffffffffffffffffffffffffffffffffffffff1673ffffffffffffffffffffffffffffffffffffffff168152602001908152602001600020600101819055503373ffffffffffffffffffffffffffffffffffffffff167f169f1815ebdea059aac3bb00ec9a9594c7a5ffcb64a17e8392b5d84909a14556826040516108f49190612038565b60405180910390a2505b6001600081905550565b6002600054141561094e576040517f08c379a000000000000000000000000000000000000000000000000000000000815260040161094590611ff8565b60405180910390fd5b600260008190555080600960003373ffffffffffffffffffffffffffffffffffffffff1673ffffffffffffffffffffffffffffffffffffffff16815260200190815260200160002060000154101580156109a85750600081115b6109e7576040517f08c379a00000000000000000000000000000000000000000000000000000000081526004016109de90611fb8565b60405180910390fd5b6109ef61150a565b6000600960003373ffffffffffffffffffffffffffffffffffffffff1673ffffffffffffffffffffffffffffffffffffffff1681526020019081526020016000206001015464e8d4a51000600154600960003373ffffffffffffffffffffffffffffffffffffffff1673ffffffffffffffffffffffffffffffffffffffff16815260200190815260200160002060000154610a8a919061216c565b610a94919061213b565b610a9e91906121c6565b90508181600960003373ffffffffffffffffffffffffffffffffffffffff1673ffffffffffffffffffffffffffffffffffffffff16815260200190815260200160002060000154610aef91906120e5565b610af991906121c6565b600960003373ffffffffffffffffffffffffffffffffffffffff1673ffffffffffffffffffffffffffffffffffffffff1681526020019081526020016000206000018190555064e8d4a51000600154600960003373ffffffffffffffffffffffffffffffffffffffff1673ffffffffffffffffffffffffffffffffffffffff16815260200190815260200160002060000154610b95919061216c565b610b9f919061213b565b600960003373ffffffffffffffffffffffffffffffffffffffff1673ffffffffffffffffffffffffffffffffffffffff168152602001908152602001600020600101819055508181600754610bf491906120e5565b610bfe91906121c6565b600781905550610c4f33837f000000000000000000000000000000000000000000000000000000000000000073ffffffffffffffffffffffffffffffffffffffff166118109092919063ffffffff16565b3373ffffffffffffffffffffffffffffffffffffffff167ff279e6a1f5e320cca91135676d9cb6e44ca8a08c0b88342bcdb1144f6511b5688383604051610c97929190612053565b60405180910390a250600160008190555050565b7f000000000000000000000000000000000000000000000000000000000000000081565b7f000000000000000000000000000000000000000000000000000000000000000081565b7f000000000000000000000000000000000000000000000000000000000000000081565b60065481565b60026000541415610d63576040517f08c379a0000000000000000000000000000000000000000000000000000000008152600401610d5a90611ff8565b60405180910390fd5b60026000819055506000600960003373ffffffffffffffffffffffffffffffffffffffff1673ffffffffffffffffffffffffffffffffffffffff1681526020019081526020016000206000015411610df0576040517f08c379a0000000000000000000000000000000000000000000000000000000008152600401610de790611f78565b60405180910390fd5b610df861150a565b6000600960003373ffffffffffffffffffffffffffffffffffffffff1673ffffffffffffffffffffffffffffffffffffffff1681526020019081526020016000206001015464e8d4a51000600154600960003373ffffffffffffffffffffffffffffffffffffffff1673ffffffffffffffffffffffffffffffffffffffff16815260200190815260200160002060000154610e93919061216c565b610e9d919061213b565b610ea791906121c6565b9050600081600960003373ffffffffffffffffffffffffffffffffffffffff1673ffffffffffffffffffffffffffffffffffffffff16815260200190815260200160002060000154610ef991906120e5565b9050600960003373ffffffffffffffffffffffffffffffffffffffff1673ffffffffffffffffffffffffffffffffffffffff16815260200190815260200160002060000154600754610f4b91906121c6565b6007819055506000600960003373ffffffffffffffffffffffffffffffffffffffff1673ffffffffffffffffffffffffffffffffffffffff168152602001908152602001600020600001819055506000600960003373ffffffffffffffffffffffffffffffffffffffff1673ffffffffffffffffffffffffffffffffffffffff1681526020019081526020016000206001018190555061102c33827f000000000000000000000000000000000000000000000000000000000000000073ffffffffffffffffffffffffffffffffffffffff166118109092919063ffffffff16565b3373ffffffffffffffffffffffffffffffffffffffff167ff279e6a1f5e320cca91135676d9cb6e44ca8a08c0b88342bcdb1144f6511b5688284604051611074929190612053565b60405180910390a250506001600081905550565b60015481565b7f000000000000000000000000000000000000000000000000000000000000000081565b60045481565b600260005414156110fe576040517f08c379a00000000000000000000000000000000000000000000000000000000081526004016110f590611ff8565b60405180910390fd5b600260008190555060008111611149576040517f08c379a000000000000000000000000000000000000000000000000000000000815260040161114090612018565b60405180910390fd5b61115161150a565b61119e3330837f000000000000000000000000000000000000000000000000000000000000000073ffffffffffffffffffffffffffffffffffffffff16611896909392919063ffffffff16565b600080600960003373ffffffffffffffffffffffffffffffffffffffff1673ffffffffffffffffffffffffffffffffffffffff16815260200190815260200160002060000154111561129a57600960003373ffffffffffffffffffffffffffffffffffffffff1673ffffffffffffffffffffffffffffffffffffffff1681526020019081526020016000206001015464e8d4a51000600154600960003373ffffffffffffffffffffffffffffffffffffffff1673ffffffffffffffffffffffffffffffffffffffff16815260200190815260200160002060000154611283919061216c565b61128d919061213b565b61129791906121c6565b90505b80826112a691906120e5565b600960003373ffffffffffffffffffffffffffffffffffffffff1673ffffffffffffffffffffffffffffffffffffffff16815260200190815260200160002060000160008282546112f791906120e5565b9250508190555064e8d4a51000600154600960003373ffffffffffffffffffffffffffffffffffffffff1673ffffffffffffffffffffffffffffffffffffffff16815260200190815260200160002060000154611354919061216c565b61135e919061213b565b600960003373ffffffffffffffffffffffffffffffffffffffff1673ffffffffffffffffffffffffffffffffffffffff1681526020019081526020016000206001018190555080826113b091906120e5565b600760008282546113c191906120e5565b925050819055503373ffffffffffffffffffffffffffffffffffffffff167f90890809c654f11d6e72a28fa60149770a0d11ec6c92319d6ceb2bb0a4ea1a158383604051611410929190612053565b60405180910390a250600160008190555050565b60086020528060005260406000206000915090508060000154908060010154908060020154905083565b64e8d4a5100081565b6002600054141561149d576040517f08c379a000000000000000000000000000000000000000000000000000000000815260040161149490611ff8565b60405180910390fd5b60026000819055506114ad61150a565b6001600081905550565b60055481565b60075481565b600060035482116114e15782826114da91906121c6565b9050611504565b60035483106114f35760009050611504565b8260035461150191906121c6565b90505b92915050565b60045443116115185761180e565b6000600754141561152f574360048190555061180e565b600061153d600454436114c3565b905060006006548261154f919061216c565b9050600060055483611561919061216c565b90505b600354431180156115a2575060017f000000000000000000000000000000000000000000000000000000000000000061159d91906121c6565b600254105b15611635576115b260035461191f565b6000600354905060086000600254815260200190815260200160002060020154600360008282546115e391906120e5565b9250508190555060006115f682436114c3565b905060065481611606919061216c565b8461161191906120e5565b935060055481611621919061216c565b8361162c91906120e5565b92505050611564565b60008211156117f75760007f000000000000000000000000000000000000000000000000000000000000000073ffffffffffffffffffffffffffffffffffffffff166340c10f1930856040518363ffffffff1660e01b815260040161169b929190611ef2565b602060405180830381600087803b1580156116b557600080fd5b505af11580156116c9573d6000803e3d6000fd5b505050506040513d601f19601f820116820180604052508101906116ed9190611ca3565b905080156117275760075464e8d4a5100084611709919061216c565b611713919061213b565b60015461172091906120e5565b6001819055505b7f000000000000000000000000000000000000000000000000000000000000000073ffffffffffffffffffffffffffffffffffffffff166340c10f197f0000000000000000000000000000000000000000000000000000000000000000846040518363ffffffff1660e01b81526004016117a2929190611ef2565b602060405180830381600087803b1580156117bc57600080fd5b505af11580156117d0573d6000803e3d6000fd5b505050506040513d601f19601f820116820180604052508101906117f49190611ca3565b50505b6003546004541161180a57436004819055505b5050505b565b6118918363a9059cbb60e01b848460405160240161182f929190611ef2565b604051602081830303815290604052907bffffffffffffffffffffffffffffffffffffffffffffffffffffffff19166020820180517bffffffffffffffffffffffffffffffffffffffffffffffffffffffff83818316178352505050506119ba565b505050565b611919846323b872dd60e01b8585856040516024016118b793929190611ebb565b604051602081830303815290604052907bffffffffffffffffffffffffffffffffffffffffffffffffffffffff19166020820180517bffffffffffffffffffffffffffffffffffffffffffffffffffffffff83818316178352505050506119ba565b50505050565b60026000815480929190611932906122ab565b919050555060086000600254815260200190815260200160002060000154600681905550600860006002548152602001908152602001600020600101546005819055506002547f40181eb77bccfdef1a73b669bb4290d98e2fbec678c7cf4578ae256210420e17826006546005546040516119af9392919061207c565b60405180910390a250565b6000611a1c826040518060400160405280602081526020017f5361666545524332303a206c6f772d6c6576656c2063616c6c206661696c65648152508573ffffffffffffffffffffffffffffffffffffffff16611a819092919063ffffffff16565b9050600081511115611a7c5780806020019051810190611a3c9190611ca3565b611a7b576040517f08c379a0000000000000000000000000000000000000000000000000000000008152600401611a7290611fd8565b60405180910390fd5b5b505050565b6060611a908484600085611a99565b90509392505050565b606082471015611ade576040517f08c379a0000000000000000000000000000000000000000000000000000000008152600401611ad590611f58565b60405180910390fd5b611ae785611bad565b611b26576040517f08c379a0000000000000000000000000000000000000000000000000000000008152600401611b1d90611f98565b60405180910390fd5b6000808673ffffffffffffffffffffffffffffffffffffffff168587604051611b4f9190611e89565b60006040518083038185875af1925050503d8060008114611b8c576040519150601f19603f3d011682016040523d82523d6000602084013e611b91565b606091505b5091509150611ba1828286611bd0565b92505050949350505050565b6000808273ffffffffffffffffffffffffffffffffffffffff163b119050919050565b60608315611be057829050611c30565b600083511115611bf35782518084602001fd5b816040517f08c379a0000000000000000000000000000000000000000000000000000000008152600401611c279190611f36565b60405180910390fd5b9392505050565b600081359050611c46816124f9565b92915050565b600081519050611c5b81612510565b92915050565b600081359050611c7081612527565b92915050565b600060208284031215611c8c57611c8b612352565b5b6000611c9a84828501611c37565b91505092915050565b600060208284031215611cb957611cb8612352565b5b6000611cc784828501611c4c565b91505092915050565b600060208284031215611ce657611ce5612352565b5b6000611cf484828501611c61565b91505092915050565b611d06816121fa565b82525050565b6000611d17826120b3565b611d2181856120c9565b9350611d31818560208601612278565b80840191505092915050565b611d4681612242565b82525050565b6000611d57826120be565b611d6181856120d4565b9350611d71818560208601612278565b611d7a81612357565b840191505092915050565b6000611d926026836120d4565b9150611d9d82612368565b604082019050919050565b6000611db5601c836120d4565b9150611dc0826123b7565b602082019050919050565b6000611dd8601d836120d4565b9150611de3826123e0565b602082019050919050565b6000611dfb6037836120d4565b9150611e0682612409565b604082019050919050565b6000611e1e602a836120d4565b9150611e2982612458565b604082019050919050565b6000611e41601f836120d4565b9150611e4c826124a7565b602082019050919050565b6000611e64601b836120d4565b9150611e6f826124d0565b602082019050919050565b611e8381612238565b82525050565b6000611e958284611d0c565b915081905092915050565b6000602082019050611eb56000830184611cfd565b92915050565b6000606082019050611ed06000830186611cfd565b611edd6020830185611cfd565b611eea6040830184611e7a565b949350505050565b6000604082019050611f076000830185611cfd565b611f146020830184611e7a565b9392505050565b6000602082019050611f306000830184611d3d565b92915050565b60006020820190508181036000830152611f508184611d4c565b905092915050565b60006020820190508181036000830152611f7181611d85565b9050919050565b60006020820190508181036000830152611f9181611da8565b9050919050565b60006020820190508181036000830152611fb181611dcb565b9050919050565b60006020820190508181036000830152611fd181611dee565b9050919050565b60006020820190508181036000830152611ff181611e11565b9050919050565b6000602082019050818103600083015261201181611e34565b9050919050565b6000602082019050818103600083015261203181611e57565b9050919050565b600060208201905061204d6000830184611e7a565b92915050565b60006040820190506120686000830185611e7a565b6120756020830184611e7a565b9392505050565b60006060820190506120916000830186611e7a565b61209e6020830185611e7a565b6120ab6040830184611e7a565b949350505050565b600081519050919050565b600081519050919050565b600081905092915050565b600082825260208201905092915050565b60006120f082612238565b91506120fb83612238565b9250827fffffffffffffffffffffffffffffffffffffffffffffffffffffffffffffffff038211156121305761212f6122f4565b5b828201905092915050565b600061214682612238565b915061215183612238565b92508261216157612160612323565b5b828204905092915050565b600061217782612238565b915061218283612238565b9250817fffffffffffffffffffffffffffffffffffffffffffffffffffffffffffffffff04831182151516156121bb576121ba6122f4565b5b828202905092915050565b60006121d182612238565b91506121dc83612238565b9250828210156121ef576121ee6122f4565b5b828203905092915050565b600061220582612218565b9050919050565b60008115159050919050565b600073ffffffffffffffffffffffffffffffffffffffff82169050919050565b6000819050919050565b600061224d82612254565b9050919050565b600061225f82612266565b9050919050565b600061227182612218565b9050919050565b60005b8381101561229657808201518184015260208101905061227b565b838111156122a5576000848401525b50505050565b60006122b682612238565b91507fffffffffffffffffffffffffffffffffffffffffffffffffffffffffffffffff8214156122e9576122e86122f4565b5b600182019050919050565b7f4e487b7100000000000000000000000000000000000000000000000000000000600052601160045260246000fd5b7f4e487b7100000000000000000000000000000000000000000000000000000000600052601260045260246000fd5b600080fd5b6000601f19601f8301169050919050565b7f416464726573733a20696e73756666696369656e742062616c616e636520666f60008201527f722063616c6c0000000000000000000000000000000000000000000000000000602082015250565b7f57697468647261773a20416d6f756e74206d757374206265203e203000000000600082015250565b7f416464726573733a2063616c6c20746f206e6f6e2d636f6e7472616374000000600082015250565b7f57697468647261773a20416d6f756e74206d757374206265203e2030206f722060008201527f6c6f776572207468616e20757365722062616c616e6365000000000000000000602082015250565b7f5361666545524332303a204552433230206f7065726174696f6e20646964206e60008201527f6f74207375636365656400000000000000000000000000000000000000000000602082015250565b7f5265656e7472616e637947756172643a207265656e7472616e742063616c6c00600082015250565b7f4465706f7369743a20416d6f756e74206d757374206265203e20300000000000600082015250565b612502816121fa565b811461250d57600080fd5b50565b6125198161220c565b811461252457600080fd5b50565b61253081612238565b811461253b57600080fd5b5056fea264697066735822122073561f440766bf651db0bcd3be684ff1848254e0a253fcf530c960da0695e28764736f6c63430008070033",
					"opcodes": "PUSH2 0x100 PUSH1 0x40 MSTORE CALLVALUE DUP1 ISZERO PUSH3 0x12 JUMPI PUSH1 0x0 DUP1 REVERT JUMPDEST POP PUSH1 0x40 MLOAD PUSH3 0x30C6 CODESIZE SUB DUP1 PUSH3 0x30C6 DUP4 CODECOPY DUP2 DUP2 ADD PUSH1 0x40 MSTORE DUP2 ADD SWAP1 PUSH3 0x38 SWAP2 SWAP1 PUSH3 0x55E JUMP JUMPDEST PUSH1 0x1 PUSH1 0x0 DUP2 SWAP1 SSTORE POP DUP1 DUP3 MLOAD EQ DUP1 ISZERO PUSH3 0x51 JUMPI POP DUP1 DUP5 MLOAD EQ JUMPDEST DUP1 ISZERO PUSH3 0x5E JUMPI POP DUP1 DUP5 MLOAD EQ JUMPDEST PUSH3 0xA0 JUMPI PUSH1 0x40 MLOAD PUSH32 0x8C379A000000000000000000000000000000000000000000000000000000000 DUP2 MSTORE PUSH1 0x4 ADD PUSH3 0x97 SWAP1 PUSH3 0x710 JUMP JUMPDEST PUSH1 0x40 MLOAD DUP1 SWAP2 SUB SWAP1 REVERT JUMPDEST PUSH1 0x0 DUP8 PUSH20 0xFFFFFFFFFFFFFFFFFFFFFFFFFFFFFFFFFFFFFFFF AND PUSH4 0x18160DDD PUSH1 0x40 MLOAD DUP2 PUSH4 0xFFFFFFFF AND PUSH1 0xE0 SHL DUP2 MSTORE PUSH1 0x4 ADD PUSH1 0x20 PUSH1 0x40 MLOAD DUP1 DUP4 SUB DUP2 DUP7 DUP1 EXTCODESIZE ISZERO DUP1 ISZERO PUSH3 0xE9 JUMPI PUSH1 0x0 DUP1 REVERT JUMPDEST POP GAS STATICCALL ISZERO DUP1 ISZERO PUSH3 0xFE JUMPI RETURNDATASIZE PUSH1 0x0 DUP1 RETURNDATACOPY RETURNDATASIZE PUSH1 0x0 REVERT JUMPDEST POP POP POP POP PUSH1 0x40 MLOAD RETURNDATASIZE PUSH1 0x1F NOT PUSH1 0x1F DUP3 ADD AND DUP3 ADD DUP1 PUSH1 0x40 MSTORE POP DUP2 ADD SWAP1 PUSH3 0x124 SWAP2 SWAP1 PUSH3 0x66E JUMP JUMPDEST DUP9 PUSH20 0xFFFFFFFFFFFFFFFFFFFFFFFFFFFFFFFFFFFFFFFF AND PUSH4 0xCFCCC83 PUSH1 0x40 MLOAD DUP2 PUSH4 0xFFFFFFFF AND PUSH1 0xE0 SHL DUP2 MSTORE PUSH1 0x4 ADD PUSH1 0x20 PUSH1 0x40 MLOAD DUP1 DUP4 SUB DUP2 DUP7 DUP1 EXTCODESIZE ISZERO DUP1 ISZERO PUSH3 0x16B JUMPI PUSH1 0x0 DUP1 REVERT JUMPDEST POP GAS STATICCALL ISZERO DUP1 ISZERO PUSH3 0x180 JUMPI RETURNDATASIZE PUSH1 0x0 DUP1 RETURNDATACOPY RETURNDATASIZE PUSH1 0x0 REVERT JUMPDEST POP POP POP POP PUSH1 0x40 MLOAD RETURNDATASIZE PUSH1 0x1F NOT PUSH1 0x1F DUP3 ADD AND DUP3 ADD DUP1 PUSH1 0x40 MSTORE POP DUP2 ADD SWAP1 PUSH3 0x1A6 SWAP2 SWAP1 PUSH3 0x66E JUMP JUMPDEST PUSH3 0x1B2 SWAP2 SWAP1 PUSH3 0x859 JUMP JUMPDEST SWAP1 POP PUSH1 0x0 DUP1 PUSH1 0x0 SWAP1 POP JUMPDEST DUP4 DUP2 LT ISZERO PUSH3 0x32C JUMPI DUP5 DUP2 DUP2 MLOAD DUP2 LT PUSH3 0x1DB JUMPI PUSH3 0x1DA PUSH3 0x985 JUMP JUMPDEST JUMPDEST PUSH1 0x20 MUL PUSH1 0x20 ADD ADD MLOAD DUP7 DUP3 DUP2 MLOAD DUP2 LT PUSH3 0x1F9 JUMPI PUSH3 0x1F8 PUSH3 0x985 JUMP JUMPDEST JUMPDEST PUSH1 0x20 MUL PUSH1 0x20 ADD ADD MLOAD PUSH3 0x20D SWAP2 SWAP1 PUSH3 0x7F8 JUMP JUMPDEST DUP6 DUP3 DUP2 MLOAD DUP2 LT PUSH3 0x223 JUMPI PUSH3 0x222 PUSH3 0x985 JUMP JUMPDEST JUMPDEST PUSH1 0x20 MUL PUSH1 0x20 ADD ADD MLOAD DUP9 DUP4 DUP2 MLOAD DUP2 LT PUSH3 0x241 JUMPI PUSH3 0x240 PUSH3 0x985 JUMP JUMPDEST JUMPDEST PUSH1 0x20 MUL PUSH1 0x20 ADD ADD MLOAD PUSH3 0x255 SWAP2 SWAP1 PUSH3 0x7F8 JUMP JUMPDEST PUSH3 0x261 SWAP2 SWAP1 PUSH3 0x79B JUMP JUMPDEST DUP3 PUSH3 0x26E SWAP2 SWAP1 PUSH3 0x79B JUMP JUMPDEST SWAP2 POP PUSH1 0x40 MLOAD DUP1 PUSH1 0x60 ADD PUSH1 0x40 MSTORE DUP1 DUP9 DUP4 DUP2 MLOAD DUP2 LT PUSH3 0x291 JUMPI PUSH3 0x290 PUSH3 0x985 JUMP JUMPDEST JUMPDEST PUSH1 0x20 MUL PUSH1 0x20 ADD ADD MLOAD DUP2 MSTORE PUSH1 0x20 ADD DUP8 DUP4 DUP2 MLOAD DUP2 LT PUSH3 0x2B4 JUMPI PUSH3 0x2B3 PUSH3 0x985 JUMP JUMPDEST JUMPDEST PUSH1 0x20 MUL PUSH1 0x20 ADD ADD MLOAD DUP2 MSTORE PUSH1 0x20 ADD DUP7 DUP4 DUP2 MLOAD DUP2 LT PUSH3 0x2D7 JUMPI PUSH3 0x2D6 PUSH3 0x985 JUMP JUMPDEST JUMPDEST PUSH1 0x20 MUL PUSH1 0x20 ADD ADD MLOAD DUP2 MSTORE POP PUSH1 0x8 PUSH1 0x0 DUP4 DUP2 MSTORE PUSH1 0x20 ADD SWAP1 DUP2 MSTORE PUSH1 0x20 ADD PUSH1 0x0 KECCAK256 PUSH1 0x0 DUP3 ADD MLOAD DUP2 PUSH1 0x0 ADD SSTORE PUSH1 0x20 DUP3 ADD MLOAD DUP2 PUSH1 0x1 ADD SSTORE PUSH1 0x40 DUP3 ADD MLOAD DUP2 PUSH1 0x2 ADD SSTORE SWAP1 POP POP DUP1 DUP1 PUSH3 0x323 SWAP1 PUSH3 0x908 JUMP JUMPDEST SWAP2 POP POP PUSH3 0x1BC JUMP JUMPDEST POP DUP2 DUP2 EQ PUSH3 0x372 JUMPI PUSH1 0x40 MLOAD PUSH32 0x8C379A000000000000000000000000000000000000000000000000000000000 DUP2 MSTORE PUSH1 0x4 ADD PUSH3 0x369 SWAP1 PUSH3 0x6EE JUMP JUMPDEST PUSH1 0x40 MLOAD DUP1 SWAP2 SUB SWAP1 REVERT JUMPDEST DUP9 PUSH20 0xFFFFFFFFFFFFFFFFFFFFFFFFFFFFFFFFFFFFFFFF AND PUSH1 0x80 DUP2 PUSH20 0xFFFFFFFFFFFFFFFFFFFFFFFFFFFFFFFFFFFFFFFF AND PUSH1 0x60 SHL DUP2 MSTORE POP POP DUP8 PUSH20 0xFFFFFFFFFFFFFFFFFFFFFFFFFFFFFFFFFFFFFFFF AND PUSH1 0xA0 DUP2 PUSH20 0xFFFFFFFFFFFFFFFFFFFFFFFFFFFFFFFFFFFFFFFF AND PUSH1 0x60 SHL DUP2 MSTORE POP POP DUP6 PUSH1 0x0 DUP2 MLOAD DUP2 LT PUSH3 0x3F7 JUMPI PUSH3 0x3F6 PUSH3 0x985 JUMP JUMPDEST JUMPDEST PUSH1 0x20 MUL PUSH1 0x20 ADD ADD MLOAD PUSH1 0x6 DUP2 SWAP1 SSTORE POP DUP5 PUSH1 0x0 DUP2 MLOAD DUP2 LT PUSH3 0x41C JUMPI PUSH3 0x41B PUSH3 0x985 JUMP JUMPDEST JUMPDEST PUSH1 0x20 MUL PUSH1 0x20 ADD ADD MLOAD PUSH1 0x5 DUP2 SWAP1 SSTORE POP DUP7 PUSH1 0xE0 DUP2 DUP2 MSTORE POP POP DUP4 PUSH1 0x0 DUP2 MLOAD DUP2 LT PUSH3 0x449 JUMPI PUSH3 0x448 PUSH3 0x985 JUMP JUMPDEST JUMPDEST PUSH1 0x20 MUL PUSH1 0x20 ADD ADD MLOAD DUP8 PUSH3 0x45E SWAP2 SWAP1 PUSH3 0x79B JUMP JUMPDEST PUSH1 0x3 DUP2 SWAP1 SSTORE POP DUP3 PUSH1 0xC0 DUP2 DUP2 MSTORE POP POP DUP7 PUSH1 0x4 DUP2 SWAP1 SSTORE POP POP POP POP POP POP POP POP POP POP PUSH3 0xADA JUMP JUMPDEST PUSH1 0x0 PUSH3 0x499 PUSH3 0x493 DUP5 PUSH3 0x75B JUMP JUMPDEST PUSH3 0x732 JUMP JUMPDEST SWAP1 POP DUP1 DUP4 DUP3 MSTORE PUSH1 0x20 DUP3 ADD SWAP1 POP DUP3 DUP6 PUSH1 0x20 DUP7 MUL DUP3 ADD GT ISZERO PUSH3 0x4BF JUMPI PUSH3 0x4BE PUSH3 0x9E8 JUMP JUMPDEST JUMPDEST PUSH1 0x0 JUMPDEST DUP6 DUP2 LT ISZERO PUSH3 0x4F3 JUMPI DUP2 PUSH3 0x4D8 DUP9 DUP3 PUSH3 0x547 JUMP JUMPDEST DUP5 MSTORE PUSH1 0x20 DUP5 ADD SWAP4 POP PUSH1 0x20 DUP4 ADD SWAP3 POP POP PUSH1 0x1 DUP2 ADD SWAP1 POP PUSH3 0x4C2 JUMP JUMPDEST POP POP POP SWAP4 SWAP3 POP POP POP JUMP JUMPDEST PUSH1 0x0 DUP2 MLOAD SWAP1 POP PUSH3 0x50E DUP2 PUSH3 0xAA6 JUMP JUMPDEST SWAP3 SWAP2 POP POP JUMP JUMPDEST PUSH1 0x0 DUP3 PUSH1 0x1F DUP4 ADD SLT PUSH3 0x52C JUMPI PUSH3 0x52B PUSH3 0x9E3 JUMP JUMPDEST JUMPDEST DUP2 MLOAD PUSH3 0x53E DUP5 DUP3 PUSH1 0x20 DUP7 ADD PUSH3 0x482 JUMP JUMPDEST SWAP2 POP POP SWAP3 SWAP2 POP POP JUMP JUMPDEST PUSH1 0x0 DUP2 MLOAD SWAP1 POP PUSH3 0x558 DUP2 PUSH3 0xAC0 JUMP JUMPDEST SWAP3 SWAP2 POP POP JUMP JUMPDEST PUSH1 0x0 DUP1 PUSH1 0x0 DUP1 PUSH1 0x0 DUP1 PUSH1 0x0 PUSH1 0xE0 DUP9 DUP11 SUB SLT ISZERO PUSH3 0x580 JUMPI PUSH3 0x57F PUSH3 0x9F2 JUMP JUMPDEST JUMPDEST PUSH1 0x0 PUSH3 0x590 DUP11 DUP3 DUP12 ADD PUSH3 0x4FD JUMP JUMPDEST SWAP8 POP POP PUSH1 0x20 PUSH3 0x5A3 DUP11 DUP3 DUP12 ADD PUSH3 0x4FD JUMP JUMPDEST SWAP7 POP POP PUSH1 0x40 PUSH3 0x5B6 DUP11 DUP3 DUP12 ADD PUSH3 0x547 JUMP JUMPDEST SWAP6 POP POP PUSH1 0x60 DUP9 ADD MLOAD PUSH8 0xFFFFFFFFFFFFFFFF DUP2 GT ISZERO PUSH3 0x5DA JUMPI PUSH3 0x5D9 PUSH3 0x9ED JUMP JUMPDEST JUMPDEST PUSH3 0x5E8 DUP11 DUP3 DUP12 ADD PUSH3 0x514 JUMP JUMPDEST SWAP5 POP POP PUSH1 0x80 DUP9 ADD MLOAD PUSH8 0xFFFFFFFFFFFFFFFF DUP2 GT ISZERO PUSH3 0x60C JUMPI PUSH3 0x60B PUSH3 0x9ED JUMP JUMPDEST JUMPDEST PUSH3 0x61A DUP11 DUP3 DUP12 ADD PUSH3 0x514 JUMP JUMPDEST SWAP4 POP POP PUSH1 0xA0 DUP9 ADD MLOAD PUSH8 0xFFFFFFFFFFFFFFFF DUP2 GT ISZERO PUSH3 0x63E JUMPI PUSH3 0x63D PUSH3 0x9ED JUMP JUMPDEST JUMPDEST PUSH3 0x64C DUP11 DUP3 DUP12 ADD PUSH3 0x514 JUMP JUMPDEST SWAP3 POP POP PUSH1 0xC0 PUSH3 0x65F DUP11 DUP3 DUP12 ADD PUSH3 0x547 JUMP JUMPDEST SWAP2 POP POP SWAP3 SWAP6 SWAP9 SWAP2 SWAP5 SWAP8 POP SWAP3 SWAP6 POP JUMP JUMPDEST PUSH1 0x0 PUSH1 0x20 DUP3 DUP5 SUB SLT ISZERO PUSH3 0x687 JUMPI PUSH3 0x686 PUSH3 0x9F2 JUMP JUMPDEST JUMPDEST PUSH1 0x0 PUSH3 0x697 DUP5 DUP3 DUP6 ADD PUSH3 0x547 JUMP JUMPDEST SWAP2 POP POP SWAP3 SWAP2 POP POP JUMP JUMPDEST PUSH1 0x0 PUSH3 0x6AF PUSH1 0x24 DUP4 PUSH3 0x78A JUMP JUMPDEST SWAP2 POP PUSH3 0x6BC DUP3 PUSH3 0xA08 JUMP JUMPDEST PUSH1 0x40 DUP3 ADD SWAP1 POP SWAP2 SWAP1 POP JUMP JUMPDEST PUSH1 0x0 PUSH3 0x6D6 PUSH1 0x2E DUP4 PUSH3 0x78A JUMP JUMPDEST SWAP2 POP PUSH3 0x6E3 DUP3 PUSH3 0xA57 JUMP JUMPDEST PUSH1 0x40 DUP3 ADD SWAP1 POP SWAP2 SWAP1 POP JUMP JUMPDEST PUSH1 0x0 PUSH1 0x20 DUP3 ADD SWAP1 POP DUP2 DUP2 SUB PUSH1 0x0 DUP4 ADD MSTORE PUSH3 0x709 DUP2 PUSH3 0x6A0 JUMP JUMPDEST SWAP1 POP SWAP2 SWAP1 POP JUMP JUMPDEST PUSH1 0x0 PUSH1 0x20 DUP3 ADD SWAP1 POP DUP2 DUP2 SUB PUSH1 0x0 DUP4 ADD MSTORE PUSH3 0x72B DUP2 PUSH3 0x6C7 JUMP JUMPDEST SWAP1 POP SWAP2 SWAP1 POP JUMP JUMPDEST PUSH1 0x0 PUSH3 0x73E PUSH3 0x751 JUMP JUMPDEST SWAP1 POP PUSH3 0x74C DUP3 DUP3 PUSH3 0x8D2 JUMP JUMPDEST SWAP2 SWAP1 POP JUMP JUMPDEST PUSH1 0x0 PUSH1 0x40 MLOAD SWAP1 POP SWAP1 JUMP JUMPDEST PUSH1 0x0 PUSH8 0xFFFFFFFFFFFFFFFF DUP3 GT ISZERO PUSH3 0x779 JUMPI PUSH3 0x778 PUSH3 0x9B4 JUMP JUMPDEST JUMPDEST PUSH1 0x20 DUP3 MUL SWAP1 POP PUSH1 0x20 DUP2 ADD SWAP1 POP SWAP2 SWAP1 POP JUMP JUMPDEST PUSH1 0x0 DUP3 DUP3 MSTORE PUSH1 0x20 DUP3 ADD SWAP1 POP SWAP3 SWAP2 POP POP JUMP JUMPDEST PUSH1 0x0 PUSH3 0x7A8 DUP3 PUSH3 0x8C8 JUMP JUMPDEST SWAP2 POP PUSH3 0x7B5 DUP4 PUSH3 0x8C8 JUMP JUMPDEST SWAP3 POP DUP3 PUSH32 0xFFFFFFFFFFFFFFFFFFFFFFFFFFFFFFFFFFFFFFFFFFFFFFFFFFFFFFFFFFFFFFFF SUB DUP3 GT ISZERO PUSH3 0x7ED JUMPI PUSH3 0x7EC PUSH3 0x956 JUMP JUMPDEST JUMPDEST DUP3 DUP3 ADD SWAP1 POP SWAP3 SWAP2 POP POP JUMP JUMPDEST PUSH1 0x0 PUSH3 0x805 DUP3 PUSH3 0x8C8 JUMP JUMPDEST SWAP2 POP PUSH3 0x812 DUP4 PUSH3 0x8C8 JUMP JUMPDEST SWAP3 POP DUP2 PUSH32 0xFFFFFFFFFFFFFFFFFFFFFFFFFFFFFFFFFFFFFFFFFFFFFFFFFFFFFFFFFFFFFFFF DIV DUP4 GT DUP3 ISZERO ISZERO AND ISZERO PUSH3 0x84E JUMPI PUSH3 0x84D PUSH3 0x956 JUMP JUMPDEST JUMPDEST DUP3 DUP3 MUL SWAP1 POP SWAP3 SWAP2 POP POP JUMP JUMPDEST PUSH1 0x0 PUSH3 0x866 DUP3 PUSH3 0x8C8 JUMP JUMPDEST SWAP2 POP PUSH3 0x873 DUP4 PUSH3 0x8C8 JUMP JUMPDEST SWAP3 POP DUP3 DUP3 LT ISZERO PUSH3 0x889 JUMPI PUSH3 0x888 PUSH3 0x956 JUMP JUMPDEST JUMPDEST DUP3 DUP3 SUB SWAP1 POP SWAP3 SWAP2 POP POP JUMP JUMPDEST PUSH1 0x0 PUSH3 0x8A1 DUP3 PUSH3 0x8A8 JUMP JUMPDEST SWAP1 POP SWAP2 SWAP1 POP JUMP JUMPDEST PUSH1 0x0 PUSH20 0xFFFFFFFFFFFFFFFFFFFFFFFFFFFFFFFFFFFFFFFF DUP3 AND SWAP1 POP SWAP2 SWAP1 POP JUMP JUMPDEST PUSH1 0x0 DUP2 SWAP1 POP SWAP2 SWAP1 POP JUMP JUMPDEST PUSH3 0x8DD DUP3 PUSH3 0x9F7 JUMP JUMPDEST DUP2 ADD DUP2 DUP2 LT PUSH8 0xFFFFFFFFFFFFFFFF DUP3 GT OR ISZERO PUSH3 0x8FF JUMPI PUSH3 0x8FE PUSH3 0x9B4 JUMP JUMPDEST JUMPDEST DUP1 PUSH1 0x40 MSTORE POP POP POP JUMP JUMPDEST PUSH1 0x0 PUSH3 0x915 DUP3 PUSH3 0x8C8 JUMP JUMPDEST SWAP2 POP PUSH32 0xFFFFFFFFFFFFFFFFFFFFFFFFFFFFFFFFFFFFFFFFFFFFFFFFFFFFFFFFFFFFFFFF DUP3 EQ ISZERO PUSH3 0x94B JUMPI PUSH3 0x94A PUSH3 0x956 JUMP JUMPDEST JUMPDEST PUSH1 0x1 DUP3 ADD SWAP1 POP SWAP2 SWAP1 POP JUMP JUMPDEST PUSH32 0x4E487B7100000000000000000000000000000000000000000000000000000000 PUSH1 0x0 MSTORE PUSH1 0x11 PUSH1 0x4 MSTORE PUSH1 0x24 PUSH1 0x0 REVERT JUMPDEST PUSH32 0x4E487B7100000000000000000000000000000000000000000000000000000000 PUSH1 0x0 MSTORE PUSH1 0x32 PUSH1 0x4 MSTORE PUSH1 0x24 PUSH1 0x0 REVERT JUMPDEST PUSH32 0x4E487B7100000000000000000000000000000000000000000000000000000000 PUSH1 0x0 MSTORE PUSH1 0x41 PUSH1 0x4 MSTORE PUSH1 0x24 PUSH1 0x0 REVERT JUMPDEST PUSH1 0x0 DUP1 REVERT JUMPDEST PUSH1 0x0 DUP1 REVERT JUMPDEST PUSH1 0x0 DUP1 REVERT JUMPDEST PUSH1 0x0 DUP1 REVERT JUMPDEST PUSH1 0x0 PUSH1 0x1F NOT PUSH1 0x1F DUP4 ADD AND SWAP1 POP SWAP2 SWAP1 POP JUMP JUMPDEST PUSH32 0x4469737472696275746F723A2057726F6E672072657761726420706172616D65 PUSH1 0x0 DUP3 ADD MSTORE PUSH32 0x7465727300000000000000000000000000000000000000000000000000000000 PUSH1 0x20 DUP3 ADD MSTORE POP JUMP JUMPDEST PUSH32 0x4469737472696275746F723A204C656E6774686573206D757374206D61746368 PUSH1 0x0 DUP3 ADD MSTORE PUSH32 0x206E756D626572506572696F6473000000000000000000000000000000000000 PUSH1 0x20 DUP3 ADD MSTORE POP JUMP JUMPDEST PUSH3 0xAB1 DUP2 PUSH3 0x894 JUMP JUMPDEST DUP2 EQ PUSH3 0xABD JUMPI PUSH1 0x0 DUP1 REVERT JUMPDEST POP JUMP JUMPDEST PUSH3 0xACB DUP2 PUSH3 0x8C8 JUMP JUMPDEST DUP2 EQ PUSH3 0xAD7 JUMPI PUSH1 0x0 DUP1 REVERT JUMPDEST POP JUMP JUMPDEST PUSH1 0x80 MLOAD PUSH1 0x60 SHR PUSH1 0xA0 MLOAD PUSH1 0x60 SHR PUSH1 0xC0 MLOAD PUSH1 0xE0 MLOAD PUSH2 0x2574 PUSH3 0xB52 PUSH1 0x0 CODECOPY PUSH1 0x0 PUSH2 0xCD1 ADD MSTORE PUSH1 0x0 DUP2 DUP2 PUSH2 0x3E8 ADD MSTORE DUP2 DUP2 PUSH2 0xCF5 ADD MSTORE PUSH2 0x1574 ADD MSTORE PUSH1 0x0 DUP2 DUP2 PUSH2 0x1090 ADD MSTORE PUSH2 0x1765 ADD MSTORE PUSH1 0x0 DUP2 DUP2 PUSH2 0xC0B ADD MSTORE DUP2 DUP2 PUSH2 0xCAD ADD MSTORE DUP2 DUP2 PUSH2 0xFE8 ADD MSTORE DUP2 DUP2 PUSH2 0x1159 ADD MSTORE DUP2 DUP2 PUSH2 0x1642 ADD MSTORE PUSH2 0x1729 ADD MSTORE PUSH2 0x2574 PUSH1 0x0 RETURN INVALID PUSH1 0x80 PUSH1 0x40 MSTORE CALLVALUE DUP1 ISZERO PUSH2 0x10 JUMPI PUSH1 0x0 DUP1 REVERT JUMPDEST POP PUSH1 0x4 CALLDATASIZE LT PUSH2 0x12C JUMPI PUSH1 0x0 CALLDATALOAD PUSH1 0xE0 SHR DUP1 PUSH4 0x853828B6 GT PUSH2 0xAD JUMPI DUP1 PUSH4 0xC1027C98 GT PUSH2 0x71 JUMPI DUP1 PUSH4 0xC1027C98 EQ PUSH2 0x2EC JUMPI DUP1 PUSH4 0xCCD34CD5 EQ PUSH2 0x31E JUMPI DUP1 PUSH4 0xE3161DDD EQ PUSH2 0x33C JUMPI DUP1 PUSH4 0xE683D96F EQ PUSH2 0x346 JUMPI DUP1 PUSH4 0xFE961F61 EQ PUSH2 0x364 JUMPI PUSH2 0x12C JUMP JUMPDEST DUP1 PUSH4 0x853828B6 EQ PUSH2 0x26C JUMPI DUP1 PUSH4 0x8F662915 EQ PUSH2 0x276 JUMPI DUP1 PUSH4 0xA46074C3 EQ PUSH2 0x294 JUMPI DUP1 PUSH4 0xA9F8D181 EQ PUSH2 0x2B2 JUMPI DUP1 PUSH4 0xB6B55F25 EQ PUSH2 0x2D0 JUMPI PUSH2 0x12C JUMP JUMPDEST DUP1 PUSH4 0x2E1A7D4D GT PUSH2 0xF4 JUMPI DUP1 PUSH4 0x2E1A7D4D EQ PUSH2 0x1D8 JUMPI DUP1 PUSH4 0x36DB9FB2 EQ PUSH2 0x1F4 JUMPI DUP1 PUSH4 0x39B3E826 EQ PUSH2 0x212 JUMPI DUP1 PUSH4 0x52BF348C EQ PUSH2 0x230 JUMPI DUP1 PUSH4 0x5A9477E9 EQ PUSH2 0x24E JUMPI PUSH2 0x12C JUMP JUMPDEST DUP1 PUSH4 0x55AD42E EQ PUSH2 0x131 JUMPI DUP1 PUSH4 0x83C6323 EQ PUSH2 0x14F JUMPI DUP1 PUSH4 0x97AAD10 EQ PUSH2 0x16D JUMPI DUP1 PUSH4 0x1959A002 EQ PUSH2 0x19D JUMPI DUP1 PUSH4 0x2A4E051B EQ PUSH2 0x1CE JUMPI JUMPDEST PUSH1 0x0 DUP1 REVERT JUMPDEST PUSH2 0x139 PUSH2 0x382 JUMP JUMPDEST PUSH1 0x40 MLOAD PUSH2 0x146 SWAP2 SWAP1 PUSH2 0x2038 JUMP JUMPDEST PUSH1 0x40 MLOAD DUP1 SWAP2 SUB SWAP1 RETURN JUMPDEST PUSH2 0x157 PUSH2 0x388 JUMP JUMPDEST PUSH1 0x40 MLOAD PUSH2 0x164 SWAP2 SWAP1 PUSH2 0x2038 JUMP JUMPDEST PUSH1 0x40 MLOAD DUP1 SWAP2 SUB SWAP1 RETURN JUMPDEST PUSH2 0x187 PUSH1 0x4 DUP1 CALLDATASIZE SUB DUP2 ADD SWAP1 PUSH2 0x182 SWAP2 SWAP1 PUSH2 0x1C76 JUMP JUMPDEST PUSH2 0x38E JUMP JUMPDEST PUSH1 0x40 MLOAD PUSH2 0x194 SWAP2 SWAP1 PUSH2 0x2038 JUMP JUMPDEST PUSH1 0x40 MLOAD DUP1 SWAP2 SUB SWAP1 RETURN JUMPDEST PUSH2 0x1B7 PUSH1 0x4 DUP1 CALLDATASIZE SUB DUP2 ADD SWAP1 PUSH2 0x1B2 SWAP2 SWAP1 PUSH2 0x1C76 JUMP JUMPDEST PUSH2 0x65C JUMP JUMPDEST PUSH1 0x40 MLOAD PUSH2 0x1C5 SWAP3 SWAP2 SWAP1 PUSH2 0x2053 JUMP JUMPDEST PUSH1 0x40 MLOAD DUP1 SWAP2 SUB SWAP1 RETURN JUMPDEST PUSH2 0x1D6 PUSH2 0x680 JUMP JUMPDEST STOP JUMPDEST PUSH2 0x1F2 PUSH1 0x4 DUP1 CALLDATASIZE SUB DUP2 ADD SWAP1 PUSH2 0x1ED SWAP2 SWAP1 PUSH2 0x1CD0 JUMP JUMPDEST PUSH2 0x908 JUMP JUMPDEST STOP JUMPDEST PUSH2 0x1FC PUSH2 0xCAB JUMP JUMPDEST PUSH1 0x40 MLOAD PUSH2 0x209 SWAP2 SWAP1 PUSH2 0x1F1B JUMP JUMPDEST PUSH1 0x40 MLOAD DUP1 SWAP2 SUB SWAP1 RETURN JUMPDEST PUSH2 0x21A PUSH2 0xCCF JUMP JUMPDEST PUSH1 0x40 MLOAD PUSH2 0x227 SWAP2 SWAP1 PUSH2 0x2038 JUMP JUMPDEST PUSH1 0x40 MLOAD DUP1 SWAP2 SUB SWAP1 RETURN JUMPDEST PUSH2 0x238 PUSH2 0xCF3 JUMP JUMPDEST PUSH1 0x40 MLOAD PUSH2 0x245 SWAP2 SWAP1 PUSH2 0x2038 JUMP JUMPDEST PUSH1 0x40 MLOAD DUP1 SWAP2 SUB SWAP1 RETURN JUMPDEST PUSH2 0x256 PUSH2 0xD17 JUMP JUMPDEST PUSH1 0x40 MLOAD PUSH2 0x263 SWAP2 SWAP1 PUSH2 0x2038 JUMP JUMPDEST PUSH1 0x40 MLOAD DUP1 SWAP2 SUB SWAP1 RETURN JUMPDEST PUSH2 0x274 PUSH2 0xD1D JUMP JUMPDEST STOP JUMPDEST PUSH2 0x27E PUSH2 0x1088 JUMP JUMPDEST PUSH1 0x40 MLOAD PUSH2 0x28B SWAP2 SWAP1 PUSH2 0x2038 JUMP JUMPDEST PUSH1 0x40 MLOAD DUP1 SWAP2 SUB SWAP1 RETURN JUMPDEST PUSH2 0x29C PUSH2 0x108E JUMP JUMPDEST PUSH1 0x40 MLOAD PUSH2 0x2A9 SWAP2 SWAP1 PUSH2 0x1EA0 JUMP JUMPDEST PUSH1 0x40 MLOAD DUP1 SWAP2 SUB SWAP1 RETURN JUMPDEST PUSH2 0x2BA PUSH2 0x10B2 JUMP JUMPDEST PUSH1 0x40 MLOAD PUSH2 0x2C7 SWAP2 SWAP1 PUSH2 0x2038 JUMP JUMPDEST PUSH1 0x40 MLOAD DUP1 SWAP2 SUB SWAP1 RETURN JUMPDEST PUSH2 0x2EA PUSH1 0x4 DUP1 CALLDATASIZE SUB DUP2 ADD SWAP1 PUSH2 0x2E5 SWAP2 SWAP1 PUSH2 0x1CD0 JUMP JUMPDEST PUSH2 0x10B8 JUMP JUMPDEST STOP JUMPDEST PUSH2 0x306 PUSH1 0x4 DUP1 CALLDATASIZE SUB DUP2 ADD SWAP1 PUSH2 0x301 SWAP2 SWAP1 PUSH2 0x1CD0 JUMP JUMPDEST PUSH2 0x1424 JUMP JUMPDEST PUSH1 0x40 MLOAD PUSH2 0x315 SWAP4 SWAP3 SWAP2 SWAP1 PUSH2 0x207C JUMP JUMPDEST PUSH1 0x40 MLOAD DUP1 SWAP2 SUB SWAP1 RETURN JUMPDEST PUSH2 0x326 PUSH2 0x144E JUMP JUMPDEST PUSH1 0x40 MLOAD PUSH2 0x333 SWAP2 SWAP1 PUSH2 0x2038 JUMP JUMPDEST PUSH1 0x40 MLOAD DUP1 SWAP2 SUB SWAP1 RETURN JUMPDEST PUSH2 0x344 PUSH2 0x1457 JUMP JUMPDEST STOP JUMPDEST PUSH2 0x34E PUSH2 0x14B7 JUMP JUMPDEST PUSH1 0x40 MLOAD PUSH2 0x35B SWAP2 SWAP1 PUSH2 0x2038 JUMP JUMPDEST PUSH1 0x40 MLOAD DUP1 SWAP2 SUB SWAP1 RETURN JUMPDEST PUSH2 0x36C PUSH2 0x14BD JUMP JUMPDEST PUSH1 0x40 MLOAD PUSH2 0x379 SWAP2 SWAP1 PUSH2 0x2038 JUMP JUMPDEST PUSH1 0x40 MLOAD DUP1 SWAP2 SUB SWAP1 RETURN JUMPDEST PUSH1 0x2 SLOAD DUP2 JUMP JUMPDEST PUSH1 0x3 SLOAD DUP2 JUMP JUMPDEST PUSH1 0x0 PUSH1 0x4 SLOAD NUMBER GT DUP1 ISZERO PUSH2 0x3A4 JUMPI POP PUSH1 0x0 PUSH1 0x7 SLOAD EQ ISZERO JUMPDEST ISZERO PUSH2 0x5A7 JUMPI PUSH1 0x0 PUSH2 0x3B7 PUSH1 0x4 SLOAD NUMBER PUSH2 0x14C3 JUMP JUMPDEST SWAP1 POP PUSH1 0x0 PUSH1 0x6 SLOAD DUP3 PUSH2 0x3C9 SWAP2 SWAP1 PUSH2 0x216C JUMP JUMPDEST SWAP1 POP PUSH1 0x0 PUSH1 0x3 SLOAD SWAP1 POP PUSH1 0x0 PUSH1 0x2 SLOAD SWAP1 POP JUMPDEST DUP2 NUMBER GT DUP1 ISZERO PUSH2 0x414 JUMPI POP PUSH1 0x1 PUSH32 0x0 PUSH2 0x411 SWAP2 SWAP1 PUSH2 0x21C6 JUMP JUMPDEST DUP2 LT JUMPDEST ISZERO PUSH2 0x4C1 JUMPI DUP1 DUP1 PUSH2 0x424 SWAP1 PUSH2 0x22AB JUMP JUMPDEST SWAP2 POP POP PUSH1 0x0 PUSH1 0x8 PUSH1 0x0 DUP4 DUP2 MSTORE PUSH1 0x20 ADD SWAP1 DUP2 MSTORE PUSH1 0x20 ADD PUSH1 0x0 KECCAK256 PUSH1 0x0 ADD SLOAD SWAP1 POP PUSH1 0x0 DUP4 SWAP1 POP PUSH1 0x8 PUSH1 0x0 DUP5 DUP2 MSTORE PUSH1 0x20 ADD SWAP1 DUP2 MSTORE PUSH1 0x20 ADD PUSH1 0x0 KECCAK256 PUSH1 0x2 ADD SLOAD DUP2 PUSH2 0x469 SWAP2 SWAP1 PUSH2 0x20E5 JUMP JUMPDEST SWAP4 POP PUSH1 0x0 DUP5 NUMBER GT ISZERO PUSH2 0x491 JUMPI PUSH1 0x8 PUSH1 0x0 DUP6 DUP2 MSTORE PUSH1 0x20 ADD SWAP1 DUP2 MSTORE PUSH1 0x20 ADD PUSH1 0x0 KECCAK256 PUSH1 0x2 ADD SLOAD PUSH2 0x49E JUMP JUMPDEST DUP2 NUMBER PUSH2 0x49D SWAP2 SWAP1 PUSH2 0x21C6 JUMP JUMPDEST JUMPDEST SWAP1 POP DUP3 DUP2 PUSH2 0x4AC SWAP2 SWAP1 PUSH2 0x216C JUMP JUMPDEST DUP7 PUSH2 0x4B7 SWAP2 SWAP1 PUSH2 0x20E5 JUMP JUMPDEST SWAP6 POP POP POP POP PUSH2 0x3DA JUMP JUMPDEST PUSH1 0x0 PUSH1 0x7 SLOAD PUSH5 0xE8D4A51000 DUP6 PUSH2 0x4D7 SWAP2 SWAP1 PUSH2 0x216C JUMP JUMPDEST PUSH2 0x4E1 SWAP2 SWAP1 PUSH2 0x213B JUMP JUMPDEST PUSH1 0x1 SLOAD PUSH2 0x4EE SWAP2 SWAP1 PUSH2 0x20E5 JUMP JUMPDEST SWAP1 POP PUSH1 0x9 PUSH1 0x0 DUP9 PUSH20 0xFFFFFFFFFFFFFFFFFFFFFFFFFFFFFFFFFFFFFFFF AND PUSH20 0xFFFFFFFFFFFFFFFFFFFFFFFFFFFFFFFFFFFFFFFF AND DUP2 MSTORE PUSH1 0x20 ADD SWAP1 DUP2 MSTORE PUSH1 0x20 ADD PUSH1 0x0 KECCAK256 PUSH1 0x1 ADD SLOAD PUSH5 0xE8D4A51000 DUP3 PUSH1 0x9 PUSH1 0x0 DUP12 PUSH20 0xFFFFFFFFFFFFFFFFFFFFFFFFFFFFFFFFFFFFFFFF AND PUSH20 0xFFFFFFFFFFFFFFFFFFFFFFFFFFFFFFFFFFFFFFFF AND DUP2 MSTORE PUSH1 0x20 ADD SWAP1 DUP2 MSTORE PUSH1 0x20 ADD PUSH1 0x0 KECCAK256 PUSH1 0x0 ADD SLOAD PUSH2 0x587 SWAP2 SWAP1 PUSH2 0x216C JUMP JUMPDEST PUSH2 0x591 SWAP2 SWAP1 PUSH2 0x213B JUMP JUMPDEST PUSH2 0x59B SWAP2 SWAP1 PUSH2 0x21C6 JUMP JUMPDEST SWAP6 POP POP POP POP POP POP PUSH2 0x657 JUMP JUMPDEST PUSH1 0x9 PUSH1 0x0 DUP4 PUSH20 0xFFFFFFFFFFFFFFFFFFFFFFFFFFFFFFFFFFFFFFFF AND PUSH20 0xFFFFFFFFFFFFFFFFFFFFFFFFFFFFFFFFFFFFFFFF AND DUP2 MSTORE PUSH1 0x20 ADD SWAP1 DUP2 MSTORE PUSH1 0x20 ADD PUSH1 0x0 KECCAK256 PUSH1 0x1 ADD SLOAD PUSH5 0xE8D4A51000 PUSH1 0x1 SLOAD PUSH1 0x9 PUSH1 0x0 DUP7 PUSH20 0xFFFFFFFFFFFFFFFFFFFFFFFFFFFFFFFFFFFFFFFF AND PUSH20 0xFFFFFFFFFFFFFFFFFFFFFFFFFFFFFFFFFFFFFFFF AND DUP2 MSTORE PUSH1 0x20 ADD SWAP1 DUP2 MSTORE PUSH1 0x20 ADD PUSH1 0x0 KECCAK256 PUSH1 0x0 ADD SLOAD PUSH2 0x640 SWAP2 SWAP1 PUSH2 0x216C JUMP JUMPDEST PUSH2 0x64A SWAP2 SWAP1 PUSH2 0x213B JUMP JUMPDEST PUSH2 0x654 SWAP2 SWAP1 PUSH2 0x21C6 JUMP JUMPDEST SWAP1 POP JUMPDEST SWAP2 SWAP1 POP JUMP JUMPDEST PUSH1 0x9 PUSH1 0x20 MSTORE DUP1 PUSH1 0x0 MSTORE PUSH1 0x40 PUSH1 0x0 KECCAK256 PUSH1 0x0 SWAP2 POP SWAP1 POP DUP1 PUSH1 0x0 ADD SLOAD SWAP1 DUP1 PUSH1 0x1 ADD SLOAD SWAP1 POP DUP3 JUMP JUMPDEST PUSH1 0x2 PUSH1 0x0 SLOAD EQ ISZERO PUSH2 0x6C6 JUMPI PUSH1 0x40 MLOAD PUSH32 0x8C379A000000000000000000000000000000000000000000000000000000000 DUP2 MSTORE PUSH1 0x4 ADD PUSH2 0x6BD SWAP1 PUSH2 0x1FF8 JUMP JUMPDEST PUSH1 0x40 MLOAD DUP1 SWAP2 SUB SWAP1 REVERT JUMPDEST PUSH1 0x2 PUSH1 0x0 DUP2 SWAP1 SSTORE POP PUSH2 0x6D6 PUSH2 0x150A JUMP JUMPDEST PUSH1 0x0 PUSH1 0x9 PUSH1 0x0 CALLER PUSH20 0xFFFFFFFFFFFFFFFFFFFFFFFFFFFFFFFFFFFFFFFF AND PUSH20 0xFFFFFFFFFFFFFFFFFFFFFFFFFFFFFFFFFFFFFFFF AND DUP2 MSTORE PUSH1 0x20 ADD SWAP1 DUP2 MSTORE PUSH1 0x20 ADD PUSH1 0x0 KECCAK256 PUSH1 0x1 ADD SLOAD PUSH5 0xE8D4A51000 PUSH1 0x1 SLOAD PUSH1 0x9 PUSH1 0x0 CALLER PUSH20 0xFFFFFFFFFFFFFFFFFFFFFFFFFFFFFFFFFFFFFFFF AND PUSH20 0xFFFFFFFFFFFFFFFFFFFFFFFFFFFFFFFFFFFFFFFF AND DUP2 MSTORE PUSH1 0x20 ADD SWAP1 DUP2 MSTORE PUSH1 0x20 ADD PUSH1 0x0 KECCAK256 PUSH1 0x0 ADD SLOAD PUSH2 0x771 SWAP2 SWAP1 PUSH2 0x216C JUMP JUMPDEST PUSH2 0x77B SWAP2 SWAP1 PUSH2 0x213B JUMP JUMPDEST PUSH2 0x785 SWAP2 SWAP1 PUSH2 0x21C6 JUMP JUMPDEST SWAP1 POP PUSH1 0x0 DUP2 EQ ISZERO PUSH2 0x796 JUMPI POP PUSH2 0x8FE JUMP JUMPDEST DUP1 PUSH1 0x9 PUSH1 0x0 CALLER PUSH20 0xFFFFFFFFFFFFFFFFFFFFFFFFFFFFFFFFFFFFFFFF AND PUSH20 0xFFFFFFFFFFFFFFFFFFFFFFFFFFFFFFFFFFFFFFFF AND DUP2 MSTORE PUSH1 0x20 ADD SWAP1 DUP2 MSTORE PUSH1 0x20 ADD PUSH1 0x0 KECCAK256 PUSH1 0x0 ADD PUSH1 0x0 DUP3 DUP3 SLOAD PUSH2 0x7E8 SWAP2 SWAP1 PUSH2 0x20E5 JUMP JUMPDEST SWAP3 POP POP DUP2 SWAP1 SSTORE POP DUP1 PUSH1 0x7 PUSH1 0x0 DUP3 DUP3 SLOAD PUSH2 0x801 SWAP2 SWAP1 PUSH2 0x20E5 JUMP JUMPDEST SWAP3 POP POP DUP2 SWAP1 SSTORE POP PUSH5 0xE8D4A51000 PUSH1 0x1 SLOAD PUSH1 0x9 PUSH1 0x0 CALLER PUSH20 0xFFFFFFFFFFFFFFFFFFFFFFFFFFFFFFFFFFFFFFFF AND PUSH20 0xFFFFFFFFFFFFFFFFFFFFFFFFFFFFFFFFFFFFFFFF AND DUP2 MSTORE PUSH1 0x20 ADD SWAP1 DUP2 MSTORE PUSH1 0x20 ADD PUSH1 0x0 KECCAK256 PUSH1 0x0 ADD SLOAD PUSH2 0x85E SWAP2 SWAP1 PUSH2 0x216C JUMP JUMPDEST PUSH2 0x868 SWAP2 SWAP1 PUSH2 0x213B JUMP JUMPDEST PUSH1 0x9 PUSH1 0x0 CALLER PUSH20 0xFFFFFFFFFFFFFFFFFFFFFFFFFFFFFFFFFFFFFFFF AND PUSH20 0xFFFFFFFFFFFFFFFFFFFFFFFFFFFFFFFFFFFFFFFF AND DUP2 MSTORE PUSH1 0x20 ADD SWAP1 DUP2 MSTORE PUSH1 0x20 ADD PUSH1 0x0 KECCAK256 PUSH1 0x1 ADD DUP2 SWAP1 SSTORE POP CALLER PUSH20 0xFFFFFFFFFFFFFFFFFFFFFFFFFFFFFFFFFFFFFFFF AND PUSH32 0x169F1815EBDEA059AAC3BB00EC9A9594C7A5FFCB64A17E8392B5D84909A14556 DUP3 PUSH1 0x40 MLOAD PUSH2 0x8F4 SWAP2 SWAP1 PUSH2 0x2038 JUMP JUMPDEST PUSH1 0x40 MLOAD DUP1 SWAP2 SUB SWAP1 LOG2 POP JUMPDEST PUSH1 0x1 PUSH1 0x0 DUP2 SWAP1 SSTORE POP JUMP JUMPDEST PUSH1 0x2 PUSH1 0x0 SLOAD EQ ISZERO PUSH2 0x94E JUMPI PUSH1 0x40 MLOAD PUSH32 0x8C379A000000000000000000000000000000000000000000000000000000000 DUP2 MSTORE PUSH1 0x4 ADD PUSH2 0x945 SWAP1 PUSH2 0x1FF8 JUMP JUMPDEST PUSH1 0x40 MLOAD DUP1 SWAP2 SUB SWAP1 REVERT JUMPDEST PUSH1 0x2 PUSH1 0x0 DUP2 SWAP1 SSTORE POP DUP1 PUSH1 0x9 PUSH1 0x0 CALLER PUSH20 0xFFFFFFFFFFFFFFFFFFFFFFFFFFFFFFFFFFFFFFFF AND PUSH20 0xFFFFFFFFFFFFFFFFFFFFFFFFFFFFFFFFFFFFFFFF AND DUP2 MSTORE PUSH1 0x20 ADD SWAP1 DUP2 MSTORE PUSH1 0x20 ADD PUSH1 0x0 KECCAK256 PUSH1 0x0 ADD SLOAD LT ISZERO DUP1 ISZERO PUSH2 0x9A8 JUMPI POP PUSH1 0x0 DUP2 GT JUMPDEST PUSH2 0x9E7 JUMPI PUSH1 0x40 MLOAD PUSH32 0x8C379A000000000000000000000000000000000000000000000000000000000 DUP2 MSTORE PUSH1 0x4 ADD PUSH2 0x9DE SWAP1 PUSH2 0x1FB8 JUMP JUMPDEST PUSH1 0x40 MLOAD DUP1 SWAP2 SUB SWAP1 REVERT JUMPDEST PUSH2 0x9EF PUSH2 0x150A JUMP JUMPDEST PUSH1 0x0 PUSH1 0x9 PUSH1 0x0 CALLER PUSH20 0xFFFFFFFFFFFFFFFFFFFFFFFFFFFFFFFFFFFFFFFF AND PUSH20 0xFFFFFFFFFFFFFFFFFFFFFFFFFFFFFFFFFFFFFFFF AND DUP2 MSTORE PUSH1 0x20 ADD SWAP1 DUP2 MSTORE PUSH1 0x20 ADD PUSH1 0x0 KECCAK256 PUSH1 0x1 ADD SLOAD PUSH5 0xE8D4A51000 PUSH1 0x1 SLOAD PUSH1 0x9 PUSH1 0x0 CALLER PUSH20 0xFFFFFFFFFFFFFFFFFFFFFFFFFFFFFFFFFFFFFFFF AND PUSH20 0xFFFFFFFFFFFFFFFFFFFFFFFFFFFFFFFFFFFFFFFF AND DUP2 MSTORE PUSH1 0x20 ADD SWAP1 DUP2 MSTORE PUSH1 0x20 ADD PUSH1 0x0 KECCAK256 PUSH1 0x0 ADD SLOAD PUSH2 0xA8A SWAP2 SWAP1 PUSH2 0x216C JUMP JUMPDEST PUSH2 0xA94 SWAP2 SWAP1 PUSH2 0x213B JUMP JUMPDEST PUSH2 0xA9E SWAP2 SWAP1 PUSH2 0x21C6 JUMP JUMPDEST SWAP1 POP DUP2 DUP2 PUSH1 0x9 PUSH1 0x0 CALLER PUSH20 0xFFFFFFFFFFFFFFFFFFFFFFFFFFFFFFFFFFFFFFFF AND PUSH20 0xFFFFFFFFFFFFFFFFFFFFFFFFFFFFFFFFFFFFFFFF AND DUP2 MSTORE PUSH1 0x20 ADD SWAP1 DUP2 MSTORE PUSH1 0x20 ADD PUSH1 0x0 KECCAK256 PUSH1 0x0 ADD SLOAD PUSH2 0xAEF SWAP2 SWAP1 PUSH2 0x20E5 JUMP JUMPDEST PUSH2 0xAF9 SWAP2 SWAP1 PUSH2 0x21C6 JUMP JUMPDEST PUSH1 0x9 PUSH1 0x0 CALLER PUSH20 0xFFFFFFFFFFFFFFFFFFFFFFFFFFFFFFFFFFFFFFFF AND PUSH20 0xFFFFFFFFFFFFFFFFFFFFFFFFFFFFFFFFFFFFFFFF AND DUP2 MSTORE PUSH1 0x20 ADD SWAP1 DUP2 MSTORE PUSH1 0x20 ADD PUSH1 0x0 KECCAK256 PUSH1 0x0 ADD DUP2 SWAP1 SSTORE POP PUSH5 0xE8D4A51000 PUSH1 0x1 SLOAD PUSH1 0x9 PUSH1 0x0 CALLER PUSH20 0xFFFFFFFFFFFFFFFFFFFFFFFFFFFFFFFFFFFFFFFF AND PUSH20 0xFFFFFFFFFFFFFFFFFFFFFFFFFFFFFFFFFFFFFFFF AND DUP2 MSTORE PUSH1 0x20 ADD SWAP1 DUP2 MSTORE PUSH1 0x20 ADD PUSH1 0x0 KECCAK256 PUSH1 0x0 ADD SLOAD PUSH2 0xB95 SWAP2 SWAP1 PUSH2 0x216C JUMP JUMPDEST PUSH2 0xB9F SWAP2 SWAP1 PUSH2 0x213B JUMP JUMPDEST PUSH1 0x9 PUSH1 0x0 CALLER PUSH20 0xFFFFFFFFFFFFFFFFFFFFFFFFFFFFFFFFFFFFFFFF AND PUSH20 0xFFFFFFFFFFFFFFFFFFFFFFFFFFFFFFFFFFFFFFFF AND DUP2 MSTORE PUSH1 0x20 ADD SWAP1 DUP2 MSTORE PUSH1 0x20 ADD PUSH1 0x0 KECCAK256 PUSH1 0x1 ADD DUP2 SWAP1 SSTORE POP DUP2 DUP2 PUSH1 0x7 SLOAD PUSH2 0xBF4 SWAP2 SWAP1 PUSH2 0x20E5 JUMP JUMPDEST PUSH2 0xBFE SWAP2 SWAP1 PUSH2 0x21C6 JUMP JUMPDEST PUSH1 0x7 DUP2 SWAP1 SSTORE POP PUSH2 0xC4F CALLER DUP4 PUSH32 0x0 PUSH20 0xFFFFFFFFFFFFFFFFFFFFFFFFFFFFFFFFFFFFFFFF AND PUSH2 0x1810 SWAP1 SWAP3 SWAP2 SWAP1 PUSH4 0xFFFFFFFF AND JUMP JUMPDEST CALLER PUSH20 0xFFFFFFFFFFFFFFFFFFFFFFFFFFFFFFFFFFFFFFFF AND PUSH32 0xF279E6A1F5E320CCA91135676D9CB6E44CA8A08C0B88342BCDB1144F6511B568 DUP4 DUP4 PUSH1 0x40 MLOAD PUSH2 0xC97 SWAP3 SWAP2 SWAP1 PUSH2 0x2053 JUMP JUMPDEST PUSH1 0x40 MLOAD DUP1 SWAP2 SUB SWAP1 LOG2 POP PUSH1 0x1 PUSH1 0x0 DUP2 SWAP1 SSTORE POP POP JUMP JUMPDEST PUSH32 0x0 DUP2 JUMP JUMPDEST PUSH32 0x0 DUP2 JUMP JUMPDEST PUSH32 0x0 DUP2 JUMP JUMPDEST PUSH1 0x6 SLOAD DUP2 JUMP JUMPDEST PUSH1 0x2 PUSH1 0x0 SLOAD EQ ISZERO PUSH2 0xD63 JUMPI PUSH1 0x40 MLOAD PUSH32 0x8C379A000000000000000000000000000000000000000000000000000000000 DUP2 MSTORE PUSH1 0x4 ADD PUSH2 0xD5A SWAP1 PUSH2 0x1FF8 JUMP JUMPDEST PUSH1 0x40 MLOAD DUP1 SWAP2 SUB SWAP1 REVERT JUMPDEST PUSH1 0x2 PUSH1 0x0 DUP2 SWAP1 SSTORE POP PUSH1 0x0 PUSH1 0x9 PUSH1 0x0 CALLER PUSH20 0xFFFFFFFFFFFFFFFFFFFFFFFFFFFFFFFFFFFFFFFF AND PUSH20 0xFFFFFFFFFFFFFFFFFFFFFFFFFFFFFFFFFFFFFFFF AND DUP2 MSTORE PUSH1 0x20 ADD SWAP1 DUP2 MSTORE PUSH1 0x20 ADD PUSH1 0x0 KECCAK256 PUSH1 0x0 ADD SLOAD GT PUSH2 0xDF0 JUMPI PUSH1 0x40 MLOAD PUSH32 0x8C379A000000000000000000000000000000000000000000000000000000000 DUP2 MSTORE PUSH1 0x4 ADD PUSH2 0xDE7 SWAP1 PUSH2 0x1F78 JUMP JUMPDEST PUSH1 0x40 MLOAD DUP1 SWAP2 SUB SWAP1 REVERT JUMPDEST PUSH2 0xDF8 PUSH2 0x150A JUMP JUMPDEST PUSH1 0x0 PUSH1 0x9 PUSH1 0x0 CALLER PUSH20 0xFFFFFFFFFFFFFFFFFFFFFFFFFFFFFFFFFFFFFFFF AND PUSH20 0xFFFFFFFFFFFFFFFFFFFFFFFFFFFFFFFFFFFFFFFF AND DUP2 MSTORE PUSH1 0x20 ADD SWAP1 DUP2 MSTORE PUSH1 0x20 ADD PUSH1 0x0 KECCAK256 PUSH1 0x1 ADD SLOAD PUSH5 0xE8D4A51000 PUSH1 0x1 SLOAD PUSH1 0x9 PUSH1 0x0 CALLER PUSH20 0xFFFFFFFFFFFFFFFFFFFFFFFFFFFFFFFFFFFFFFFF AND PUSH20 0xFFFFFFFFFFFFFFFFFFFFFFFFFFFFFFFFFFFFFFFF AND DUP2 MSTORE PUSH1 0x20 ADD SWAP1 DUP2 MSTORE PUSH1 0x20 ADD PUSH1 0x0 KECCAK256 PUSH1 0x0 ADD SLOAD PUSH2 0xE93 SWAP2 SWAP1 PUSH2 0x216C JUMP JUMPDEST PUSH2 0xE9D SWAP2 SWAP1 PUSH2 0x213B JUMP JUMPDEST PUSH2 0xEA7 SWAP2 SWAP1 PUSH2 0x21C6 JUMP JUMPDEST SWAP1 POP PUSH1 0x0 DUP2 PUSH1 0x9 PUSH1 0x0 CALLER PUSH20 0xFFFFFFFFFFFFFFFFFFFFFFFFFFFFFFFFFFFFFFFF AND PUSH20 0xFFFFFFFFFFFFFFFFFFFFFFFFFFFFFFFFFFFFFFFF AND DUP2 MSTORE PUSH1 0x20 ADD SWAP1 DUP2 MSTORE PUSH1 0x20 ADD PUSH1 0x0 KECCAK256 PUSH1 0x0 ADD SLOAD PUSH2 0xEF9 SWAP2 SWAP1 PUSH2 0x20E5 JUMP JUMPDEST SWAP1 POP PUSH1 0x9 PUSH1 0x0 CALLER PUSH20 0xFFFFFFFFFFFFFFFFFFFFFFFFFFFFFFFFFFFFFFFF AND PUSH20 0xFFFFFFFFFFFFFFFFFFFFFFFFFFFFFFFFFFFFFFFF AND DUP2 MSTORE PUSH1 0x20 ADD SWAP1 DUP2 MSTORE PUSH1 0x20 ADD PUSH1 0x0 KECCAK256 PUSH1 0x0 ADD SLOAD PUSH1 0x7 SLOAD PUSH2 0xF4B SWAP2 SWAP1 PUSH2 0x21C6 JUMP JUMPDEST PUSH1 0x7 DUP2 SWAP1 SSTORE POP PUSH1 0x0 PUSH1 0x9 PUSH1 0x0 CALLER PUSH20 0xFFFFFFFFFFFFFFFFFFFFFFFFFFFFFFFFFFFFFFFF AND PUSH20 0xFFFFFFFFFFFFFFFFFFFFFFFFFFFFFFFFFFFFFFFF AND DUP2 MSTORE PUSH1 0x20 ADD SWAP1 DUP2 MSTORE PUSH1 0x20 ADD PUSH1 0x0 KECCAK256 PUSH1 0x0 ADD DUP2 SWAP1 SSTORE POP PUSH1 0x0 PUSH1 0x9 PUSH1 0x0 CALLER PUSH20 0xFFFFFFFFFFFFFFFFFFFFFFFFFFFFFFFFFFFFFFFF AND PUSH20 0xFFFFFFFFFFFFFFFFFFFFFFFFFFFFFFFFFFFFFFFF AND DUP2 MSTORE PUSH1 0x20 ADD SWAP1 DUP2 MSTORE PUSH1 0x20 ADD PUSH1 0x0 KECCAK256 PUSH1 0x1 ADD DUP2 SWAP1 SSTORE POP PUSH2 0x102C CALLER DUP3 PUSH32 0x0 PUSH20 0xFFFFFFFFFFFFFFFFFFFFFFFFFFFFFFFFFFFFFFFF AND PUSH2 0x1810 SWAP1 SWAP3 SWAP2 SWAP1 PUSH4 0xFFFFFFFF AND JUMP JUMPDEST CALLER PUSH20 0xFFFFFFFFFFFFFFFFFFFFFFFFFFFFFFFFFFFFFFFF AND PUSH32 0xF279E6A1F5E320CCA91135676D9CB6E44CA8A08C0B88342BCDB1144F6511B568 DUP3 DUP5 PUSH1 0x40 MLOAD PUSH2 0x1074 SWAP3 SWAP2 SWAP1 PUSH2 0x2053 JUMP JUMPDEST PUSH1 0x40 MLOAD DUP1 SWAP2 SUB SWAP1 LOG2 POP POP PUSH1 0x1 PUSH1 0x0 DUP2 SWAP1 SSTORE POP JUMP JUMPDEST PUSH1 0x1 SLOAD DUP2 JUMP JUMPDEST PUSH32 0x0 DUP2 JUMP JUMPDEST PUSH1 0x4 SLOAD DUP2 JUMP JUMPDEST PUSH1 0x2 PUSH1 0x0 SLOAD EQ ISZERO PUSH2 0x10FE JUMPI PUSH1 0x40 MLOAD PUSH32 0x8C379A000000000000000000000000000000000000000000000000000000000 DUP2 MSTORE PUSH1 0x4 ADD PUSH2 0x10F5 SWAP1 PUSH2 0x1FF8 JUMP JUMPDEST PUSH1 0x40 MLOAD DUP1 SWAP2 SUB SWAP1 REVERT JUMPDEST PUSH1 0x2 PUSH1 0x0 DUP2 SWAP1 SSTORE POP PUSH1 0x0 DUP2 GT PUSH2 0x1149 JUMPI PUSH1 0x40 MLOAD PUSH32 0x8C379A000000000000000000000000000000000000000000000000000000000 DUP2 MSTORE PUSH1 0x4 ADD PUSH2 0x1140 SWAP1 PUSH2 0x2018 JUMP JUMPDEST PUSH1 0x40 MLOAD DUP1 SWAP2 SUB SWAP1 REVERT JUMPDEST PUSH2 0x1151 PUSH2 0x150A JUMP JUMPDEST PUSH2 0x119E CALLER ADDRESS DUP4 PUSH32 0x0 PUSH20 0xFFFFFFFFFFFFFFFFFFFFFFFFFFFFFFFFFFFFFFFF AND PUSH2 0x1896 SWAP1 SWAP4 SWAP3 SWAP2 SWAP1 PUSH4 0xFFFFFFFF AND JUMP JUMPDEST PUSH1 0x0 DUP1 PUSH1 0x9 PUSH1 0x0 CALLER PUSH20 0xFFFFFFFFFFFFFFFFFFFFFFFFFFFFFFFFFFFFFFFF AND PUSH20 0xFFFFFFFFFFFFFFFFFFFFFFFFFFFFFFFFFFFFFFFF AND DUP2 MSTORE PUSH1 0x20 ADD SWAP1 DUP2 MSTORE PUSH1 0x20 ADD PUSH1 0x0 KECCAK256 PUSH1 0x0 ADD SLOAD GT ISZERO PUSH2 0x129A JUMPI PUSH1 0x9 PUSH1 0x0 CALLER PUSH20 0xFFFFFFFFFFFFFFFFFFFFFFFFFFFFFFFFFFFFFFFF AND PUSH20 0xFFFFFFFFFFFFFFFFFFFFFFFFFFFFFFFFFFFFFFFF AND DUP2 MSTORE PUSH1 0x20 ADD SWAP1 DUP2 MSTORE PUSH1 0x20 ADD PUSH1 0x0 KECCAK256 PUSH1 0x1 ADD SLOAD PUSH5 0xE8D4A51000 PUSH1 0x1 SLOAD PUSH1 0x9 PUSH1 0x0 CALLER PUSH20 0xFFFFFFFFFFFFFFFFFFFFFFFFFFFFFFFFFFFFFFFF AND PUSH20 0xFFFFFFFFFFFFFFFFFFFFFFFFFFFFFFFFFFFFFFFF AND DUP2 MSTORE PUSH1 0x20 ADD SWAP1 DUP2 MSTORE PUSH1 0x20 ADD PUSH1 0x0 KECCAK256 PUSH1 0x0 ADD SLOAD PUSH2 0x1283 SWAP2 SWAP1 PUSH2 0x216C JUMP JUMPDEST PUSH2 0x128D SWAP2 SWAP1 PUSH2 0x213B JUMP JUMPDEST PUSH2 0x1297 SWAP2 SWAP1 PUSH2 0x21C6 JUMP JUMPDEST SWAP1 POP JUMPDEST DUP1 DUP3 PUSH2 0x12A6 SWAP2 SWAP1 PUSH2 0x20E5 JUMP JUMPDEST PUSH1 0x9 PUSH1 0x0 CALLER PUSH20 0xFFFFFFFFFFFFFFFFFFFFFFFFFFFFFFFFFFFFFFFF AND PUSH20 0xFFFFFFFFFFFFFFFFFFFFFFFFFFFFFFFFFFFFFFFF AND DUP2 MSTORE PUSH1 0x20 ADD SWAP1 DUP2 MSTORE PUSH1 0x20 ADD PUSH1 0x0 KECCAK256 PUSH1 0x0 ADD PUSH1 0x0 DUP3 DUP3 SLOAD PUSH2 0x12F7 SWAP2 SWAP1 PUSH2 0x20E5 JUMP JUMPDEST SWAP3 POP POP DUP2 SWAP1 SSTORE POP PUSH5 0xE8D4A51000 PUSH1 0x1 SLOAD PUSH1 0x9 PUSH1 0x0 CALLER PUSH20 0xFFFFFFFFFFFFFFFFFFFFFFFFFFFFFFFFFFFFFFFF AND PUSH20 0xFFFFFFFFFFFFFFFFFFFFFFFFFFFFFFFFFFFFFFFF AND DUP2 MSTORE PUSH1 0x20 ADD SWAP1 DUP2 MSTORE PUSH1 0x20 ADD PUSH1 0x0 KECCAK256 PUSH1 0x0 ADD SLOAD PUSH2 0x1354 SWAP2 SWAP1 PUSH2 0x216C JUMP JUMPDEST PUSH2 0x135E SWAP2 SWAP1 PUSH2 0x213B JUMP JUMPDEST PUSH1 0x9 PUSH1 0x0 CALLER PUSH20 0xFFFFFFFFFFFFFFFFFFFFFFFFFFFFFFFFFFFFFFFF AND PUSH20 0xFFFFFFFFFFFFFFFFFFFFFFFFFFFFFFFFFFFFFFFF AND DUP2 MSTORE PUSH1 0x20 ADD SWAP1 DUP2 MSTORE PUSH1 0x20 ADD PUSH1 0x0 KECCAK256 PUSH1 0x1 ADD DUP2 SWAP1 SSTORE POP DUP1 DUP3 PUSH2 0x13B0 SWAP2 SWAP1 PUSH2 0x20E5 JUMP JUMPDEST PUSH1 0x7 PUSH1 0x0 DUP3 DUP3 SLOAD PUSH2 0x13C1 SWAP2 SWAP1 PUSH2 0x20E5 JUMP JUMPDEST SWAP3 POP POP DUP2 SWAP1 SSTORE POP CALLER PUSH20 0xFFFFFFFFFFFFFFFFFFFFFFFFFFFFFFFFFFFFFFFF AND PUSH32 0x90890809C654F11D6E72A28FA60149770A0D11EC6C92319D6CEB2BB0A4EA1A15 DUP4 DUP4 PUSH1 0x40 MLOAD PUSH2 0x1410 SWAP3 SWAP2 SWAP1 PUSH2 0x2053 JUMP JUMPDEST PUSH1 0x40 MLOAD DUP1 SWAP2 SUB SWAP1 LOG2 POP PUSH1 0x1 PUSH1 0x0 DUP2 SWAP1 SSTORE POP POP JUMP JUMPDEST PUSH1 0x8 PUSH1 0x20 MSTORE DUP1 PUSH1 0x0 MSTORE PUSH1 0x40 PUSH1 0x0 KECCAK256 PUSH1 0x0 SWAP2 POP SWAP1 POP DUP1 PUSH1 0x0 ADD SLOAD SWAP1 DUP1 PUSH1 0x1 ADD SLOAD SWAP1 DUP1 PUSH1 0x2 ADD SLOAD SWAP1 POP DUP4 JUMP JUMPDEST PUSH5 0xE8D4A51000 DUP2 JUMP JUMPDEST PUSH1 0x2 PUSH1 0x0 SLOAD EQ ISZERO PUSH2 0x149D JUMPI PUSH1 0x40 MLOAD PUSH32 0x8C379A000000000000000000000000000000000000000000000000000000000 DUP2 MSTORE PUSH1 0x4 ADD PUSH2 0x1494 SWAP1 PUSH2 0x1FF8 JUMP JUMPDEST PUSH1 0x40 MLOAD DUP1 SWAP2 SUB SWAP1 REVERT JUMPDEST PUSH1 0x2 PUSH1 0x0 DUP2 SWAP1 SSTORE POP PUSH2 0x14AD PUSH2 0x150A JUMP JUMPDEST PUSH1 0x1 PUSH1 0x0 DUP2 SWAP1 SSTORE POP JUMP JUMPDEST PUSH1 0x5 SLOAD DUP2 JUMP JUMPDEST PUSH1 0x7 SLOAD DUP2 JUMP JUMPDEST PUSH1 0x0 PUSH1 0x3 SLOAD DUP3 GT PUSH2 0x14E1 JUMPI DUP3 DUP3 PUSH2 0x14DA SWAP2 SWAP1 PUSH2 0x21C6 JUMP JUMPDEST SWAP1 POP PUSH2 0x1504 JUMP JUMPDEST PUSH1 0x3 SLOAD DUP4 LT PUSH2 0x14F3 JUMPI PUSH1 0x0 SWAP1 POP PUSH2 0x1504 JUMP JUMPDEST DUP3 PUSH1 0x3 SLOAD PUSH2 0x1501 SWAP2 SWAP1 PUSH2 0x21C6 JUMP JUMPDEST SWAP1 POP JUMPDEST SWAP3 SWAP2 POP POP JUMP JUMPDEST PUSH1 0x4 SLOAD NUMBER GT PUSH2 0x1518 JUMPI PUSH2 0x180E JUMP JUMPDEST PUSH1 0x0 PUSH1 0x7 SLOAD EQ ISZERO PUSH2 0x152F JUMPI NUMBER PUSH1 0x4 DUP2 SWAP1 SSTORE POP PUSH2 0x180E JUMP JUMPDEST PUSH1 0x0 PUSH2 0x153D PUSH1 0x4 SLOAD NUMBER PUSH2 0x14C3 JUMP JUMPDEST SWAP1 POP PUSH1 0x0 PUSH1 0x6 SLOAD DUP3 PUSH2 0x154F SWAP2 SWAP1 PUSH2 0x216C JUMP JUMPDEST SWAP1 POP PUSH1 0x0 PUSH1 0x5 SLOAD DUP4 PUSH2 0x1561 SWAP2 SWAP1 PUSH2 0x216C JUMP JUMPDEST SWAP1 POP JUMPDEST PUSH1 0x3 SLOAD NUMBER GT DUP1 ISZERO PUSH2 0x15A2 JUMPI POP PUSH1 0x1 PUSH32 0x0 PUSH2 0x159D SWAP2 SWAP1 PUSH2 0x21C6 JUMP JUMPDEST PUSH1 0x2 SLOAD LT JUMPDEST ISZERO PUSH2 0x1635 JUMPI PUSH2 0x15B2 PUSH1 0x3 SLOAD PUSH2 0x191F JUMP JUMPDEST PUSH1 0x0 PUSH1 0x3 SLOAD SWAP1 POP PUSH1 0x8 PUSH1 0x0 PUSH1 0x2 SLOAD DUP2 MSTORE PUSH1 0x20 ADD SWAP1 DUP2 MSTORE PUSH1 0x20 ADD PUSH1 0x0 KECCAK256 PUSH1 0x2 ADD SLOAD PUSH1 0x3 PUSH1 0x0 DUP3 DUP3 SLOAD PUSH2 0x15E3 SWAP2 SWAP1 PUSH2 0x20E5 JUMP JUMPDEST SWAP3 POP POP DUP2 SWAP1 SSTORE POP PUSH1 0x0 PUSH2 0x15F6 DUP3 NUMBER PUSH2 0x14C3 JUMP JUMPDEST SWAP1 POP PUSH1 0x6 SLOAD DUP2 PUSH2 0x1606 SWAP2 SWAP1 PUSH2 0x216C JUMP JUMPDEST DUP5 PUSH2 0x1611 SWAP2 SWAP1 PUSH2 0x20E5 JUMP JUMPDEST SWAP4 POP PUSH1 0x5 SLOAD DUP2 PUSH2 0x1621 SWAP2 SWAP1 PUSH2 0x216C JUMP JUMPDEST DUP4 PUSH2 0x162C SWAP2 SWAP1 PUSH2 0x20E5 JUMP JUMPDEST SWAP3 POP POP POP PUSH2 0x1564 JUMP JUMPDEST PUSH1 0x0 DUP3 GT ISZERO PUSH2 0x17F7 JUMPI PUSH1 0x0 PUSH32 0x0 PUSH20 0xFFFFFFFFFFFFFFFFFFFFFFFFFFFFFFFFFFFFFFFF AND PUSH4 0x40C10F19 ADDRESS DUP6 PUSH1 0x40 MLOAD DUP4 PUSH4 0xFFFFFFFF AND PUSH1 0xE0 SHL DUP2 MSTORE PUSH1 0x4 ADD PUSH2 0x169B SWAP3 SWAP2 SWAP1 PUSH2 0x1EF2 JUMP JUMPDEST PUSH1 0x20 PUSH1 0x40 MLOAD DUP1 DUP4 SUB DUP2 PUSH1 0x0 DUP8 DUP1 EXTCODESIZE ISZERO DUP1 ISZERO PUSH2 0x16B5 JUMPI PUSH1 0x0 DUP1 REVERT JUMPDEST POP GAS CALL ISZERO DUP1 ISZERO PUSH2 0x16C9 JUMPI RETURNDATASIZE PUSH1 0x0 DUP1 RETURNDATACOPY RETURNDATASIZE PUSH1 0x0 REVERT JUMPDEST POP POP POP POP PUSH1 0x40 MLOAD RETURNDATASIZE PUSH1 0x1F NOT PUSH1 0x1F DUP3 ADD AND DUP3 ADD DUP1 PUSH1 0x40 MSTORE POP DUP2 ADD SWAP1 PUSH2 0x16ED SWAP2 SWAP1 PUSH2 0x1CA3 JUMP JUMPDEST SWAP1 POP DUP1 ISZERO PUSH2 0x1727 JUMPI PUSH1 0x7 SLOAD PUSH5 0xE8D4A51000 DUP5 PUSH2 0x1709 SWAP2 SWAP1 PUSH2 0x216C JUMP JUMPDEST PUSH2 0x1713 SWAP2 SWAP1 PUSH2 0x213B JUMP JUMPDEST PUSH1 0x1 SLOAD PUSH2 0x1720 SWAP2 SWAP1 PUSH2 0x20E5 JUMP JUMPDEST PUSH1 0x1 DUP2 SWAP1 SSTORE POP JUMPDEST PUSH32 0x0 PUSH20 0xFFFFFFFFFFFFFFFFFFFFFFFFFFFFFFFFFFFFFFFF AND PUSH4 0x40C10F19 PUSH32 0x0 DUP5 PUSH1 0x40 MLOAD DUP4 PUSH4 0xFFFFFFFF AND PUSH1 0xE0 SHL DUP2 MSTORE PUSH1 0x4 ADD PUSH2 0x17A2 SWAP3 SWAP2 SWAP1 PUSH2 0x1EF2 JUMP JUMPDEST PUSH1 0x20 PUSH1 0x40 MLOAD DUP1 DUP4 SUB DUP2 PUSH1 0x0 DUP8 DUP1 EXTCODESIZE ISZERO DUP1 ISZERO PUSH2 0x17BC JUMPI PUSH1 0x0 DUP1 REVERT JUMPDEST POP GAS CALL ISZERO DUP1 ISZERO PUSH2 0x17D0 JUMPI RETURNDATASIZE PUSH1 0x0 DUP1 RETURNDATACOPY RETURNDATASIZE PUSH1 0x0 REVERT JUMPDEST POP POP POP POP PUSH1 0x40 MLOAD RETURNDATASIZE PUSH1 0x1F NOT PUSH1 0x1F DUP3 ADD AND DUP3 ADD DUP1 PUSH1 0x40 MSTORE POP DUP2 ADD SWAP1 PUSH2 0x17F4 SWAP2 SWAP1 PUSH2 0x1CA3 JUMP JUMPDEST POP POP JUMPDEST PUSH1 0x3 SLOAD PUSH1 0x4 SLOAD GT PUSH2 0x180A JUMPI NUMBER PUSH1 0x4 DUP2 SWAP1 SSTORE POP JUMPDEST POP POP POP JUMPDEST JUMP JUMPDEST PUSH2 0x1891 DUP4 PUSH4 0xA9059CBB PUSH1 0xE0 SHL DUP5 DUP5 PUSH1 0x40 MLOAD PUSH1 0x24 ADD PUSH2 0x182F SWAP3 SWAP2 SWAP1 PUSH2 0x1EF2 JUMP JUMPDEST PUSH1 0x40 MLOAD PUSH1 0x20 DUP2 DUP4 SUB SUB DUP2 MSTORE SWAP1 PUSH1 0x40 MSTORE SWAP1 PUSH28 0xFFFFFFFFFFFFFFFFFFFFFFFFFFFFFFFFFFFFFFFFFFFFFFFFFFFFFFFF NOT AND PUSH1 0x20 DUP3 ADD DUP1 MLOAD PUSH28 0xFFFFFFFFFFFFFFFFFFFFFFFFFFFFFFFFFFFFFFFFFFFFFFFFFFFFFFFF DUP4 DUP2 DUP4 AND OR DUP4 MSTORE POP POP POP POP PUSH2 0x19BA JUMP JUMPDEST POP POP POP JUMP JUMPDEST PUSH2 0x1919 DUP5 PUSH4 0x23B872DD PUSH1 0xE0 SHL DUP6 DUP6 DUP6 PUSH1 0x40 MLOAD PUSH1 0x24 ADD PUSH2 0x18B7 SWAP4 SWAP3 SWAP2 SWAP1 PUSH2 0x1EBB JUMP JUMPDEST PUSH1 0x40 MLOAD PUSH1 0x20 DUP2 DUP4 SUB SUB DUP2 MSTORE SWAP1 PUSH1 0x40 MSTORE SWAP1 PUSH28 0xFFFFFFFFFFFFFFFFFFFFFFFFFFFFFFFFFFFFFFFFFFFFFFFFFFFFFFFF NOT AND PUSH1 0x20 DUP3 ADD DUP1 MLOAD PUSH28 0xFFFFFFFFFFFFFFFFFFFFFFFFFFFFFFFFFFFFFFFFFFFFFFFFFFFFFFFF DUP4 DUP2 DUP4 AND OR DUP4 MSTORE POP POP POP POP PUSH2 0x19BA JUMP JUMPDEST POP POP POP POP JUMP JUMPDEST PUSH1 0x2 PUSH1 0x0 DUP2 SLOAD DUP1 SWAP3 SWAP2 SWAP1 PUSH2 0x1932 SWAP1 PUSH2 0x22AB JUMP JUMPDEST SWAP2 SWAP1 POP SSTORE POP PUSH1 0x8 PUSH1 0x0 PUSH1 0x2 SLOAD DUP2 MSTORE PUSH1 0x20 ADD SWAP1 DUP2 MSTORE PUSH1 0x20 ADD PUSH1 0x0 KECCAK256 PUSH1 0x0 ADD SLOAD PUSH1 0x6 DUP2 SWAP1 SSTORE POP PUSH1 0x8 PUSH1 0x0 PUSH1 0x2 SLOAD DUP2 MSTORE PUSH1 0x20 ADD SWAP1 DUP2 MSTORE PUSH1 0x20 ADD PUSH1 0x0 KECCAK256 PUSH1 0x1 ADD SLOAD PUSH1 0x5 DUP2 SWAP1 SSTORE POP PUSH1 0x2 SLOAD PUSH32 0x40181EB77BCCFDEF1A73B669BB4290D98E2FBEC678C7CF4578AE256210420E17 DUP3 PUSH1 0x6 SLOAD PUSH1 0x5 SLOAD PUSH1 0x40 MLOAD PUSH2 0x19AF SWAP4 SWAP3 SWAP2 SWAP1 PUSH2 0x207C JUMP JUMPDEST PUSH1 0x40 MLOAD DUP1 SWAP2 SUB SWAP1 LOG2 POP JUMP JUMPDEST PUSH1 0x0 PUSH2 0x1A1C DUP3 PUSH1 0x40 MLOAD DUP1 PUSH1 0x40 ADD PUSH1 0x40 MSTORE DUP1 PUSH1 0x20 DUP2 MSTORE PUSH1 0x20 ADD PUSH32 0x5361666545524332303A206C6F772D6C6576656C2063616C6C206661696C6564 DUP2 MSTORE POP DUP6 PUSH20 0xFFFFFFFFFFFFFFFFFFFFFFFFFFFFFFFFFFFFFFFF AND PUSH2 0x1A81 SWAP1 SWAP3 SWAP2 SWAP1 PUSH4 0xFFFFFFFF AND JUMP JUMPDEST SWAP1 POP PUSH1 0x0 DUP2 MLOAD GT ISZERO PUSH2 0x1A7C JUMPI DUP1 DUP1 PUSH1 0x20 ADD SWAP1 MLOAD DUP2 ADD SWAP1 PUSH2 0x1A3C SWAP2 SWAP1 PUSH2 0x1CA3 JUMP JUMPDEST PUSH2 0x1A7B JUMPI PUSH1 0x40 MLOAD PUSH32 0x8C379A000000000000000000000000000000000000000000000000000000000 DUP2 MSTORE PUSH1 0x4 ADD PUSH2 0x1A72 SWAP1 PUSH2 0x1FD8 JUMP JUMPDEST PUSH1 0x40 MLOAD DUP1 SWAP2 SUB SWAP1 REVERT JUMPDEST JUMPDEST POP POP POP JUMP JUMPDEST PUSH1 0x60 PUSH2 0x1A90 DUP5 DUP5 PUSH1 0x0 DUP6 PUSH2 0x1A99 JUMP JUMPDEST SWAP1 POP SWAP4 SWAP3 POP POP POP JUMP JUMPDEST PUSH1 0x60 DUP3 SELFBALANCE LT ISZERO PUSH2 0x1ADE JUMPI PUSH1 0x40 MLOAD PUSH32 0x8C379A000000000000000000000000000000000000000000000000000000000 DUP2 MSTORE PUSH1 0x4 ADD PUSH2 0x1AD5 SWAP1 PUSH2 0x1F58 JUMP JUMPDEST PUSH1 0x40 MLOAD DUP1 SWAP2 SUB SWAP1 REVERT JUMPDEST PUSH2 0x1AE7 DUP6 PUSH2 0x1BAD JUMP JUMPDEST PUSH2 0x1B26 JUMPI PUSH1 0x40 MLOAD PUSH32 0x8C379A000000000000000000000000000000000000000000000000000000000 DUP2 MSTORE PUSH1 0x4 ADD PUSH2 0x1B1D SWAP1 PUSH2 0x1F98 JUMP JUMPDEST PUSH1 0x40 MLOAD DUP1 SWAP2 SUB SWAP1 REVERT JUMPDEST PUSH1 0x0 DUP1 DUP7 PUSH20 0xFFFFFFFFFFFFFFFFFFFFFFFFFFFFFFFFFFFFFFFF AND DUP6 DUP8 PUSH1 0x40 MLOAD PUSH2 0x1B4F SWAP2 SWAP1 PUSH2 0x1E89 JUMP JUMPDEST PUSH1 0x0 PUSH1 0x40 MLOAD DUP1 DUP4 SUB DUP2 DUP6 DUP8 GAS CALL SWAP3 POP POP POP RETURNDATASIZE DUP1 PUSH1 0x0 DUP2 EQ PUSH2 0x1B8C JUMPI PUSH1 0x40 MLOAD SWAP2 POP PUSH1 0x1F NOT PUSH1 0x3F RETURNDATASIZE ADD AND DUP3 ADD PUSH1 0x40 MSTORE RETURNDATASIZE DUP3 MSTORE RETURNDATASIZE PUSH1 0x0 PUSH1 0x20 DUP5 ADD RETURNDATACOPY PUSH2 0x1B91 JUMP JUMPDEST PUSH1 0x60 SWAP2 POP JUMPDEST POP SWAP2 POP SWAP2 POP PUSH2 0x1BA1 DUP3 DUP3 DUP7 PUSH2 0x1BD0 JUMP JUMPDEST SWAP3 POP POP POP SWAP5 SWAP4 POP POP POP POP JUMP JUMPDEST PUSH1 0x0 DUP1 DUP3 PUSH20 0xFFFFFFFFFFFFFFFFFFFFFFFFFFFFFFFFFFFFFFFF AND EXTCODESIZE GT SWAP1 POP SWAP2 SWAP1 POP JUMP JUMPDEST PUSH1 0x60 DUP4 ISZERO PUSH2 0x1BE0 JUMPI DUP3 SWAP1 POP PUSH2 0x1C30 JUMP JUMPDEST PUSH1 0x0 DUP4 MLOAD GT ISZERO PUSH2 0x1BF3 JUMPI DUP3 MLOAD DUP1 DUP5 PUSH1 0x20 ADD REVERT JUMPDEST DUP2 PUSH1 0x40 MLOAD PUSH32 0x8C379A000000000000000000000000000000000000000000000000000000000 DUP2 MSTORE PUSH1 0x4 ADD PUSH2 0x1C27 SWAP2 SWAP1 PUSH2 0x1F36 JUMP JUMPDEST PUSH1 0x40 MLOAD DUP1 SWAP2 SUB SWAP1 REVERT JUMPDEST SWAP4 SWAP3 POP POP POP JUMP JUMPDEST PUSH1 0x0 DUP2 CALLDATALOAD SWAP1 POP PUSH2 0x1C46 DUP2 PUSH2 0x24F9 JUMP JUMPDEST SWAP3 SWAP2 POP POP JUMP JUMPDEST PUSH1 0x0 DUP2 MLOAD SWAP1 POP PUSH2 0x1C5B DUP2 PUSH2 0x2510 JUMP JUMPDEST SWAP3 SWAP2 POP POP JUMP JUMPDEST PUSH1 0x0 DUP2 CALLDATALOAD SWAP1 POP PUSH2 0x1C70 DUP2 PUSH2 0x2527 JUMP JUMPDEST SWAP3 SWAP2 POP POP JUMP JUMPDEST PUSH1 0x0 PUSH1 0x20 DUP3 DUP5 SUB SLT ISZERO PUSH2 0x1C8C JUMPI PUSH2 0x1C8B PUSH2 0x2352 JUMP JUMPDEST JUMPDEST PUSH1 0x0 PUSH2 0x1C9A DUP5 DUP3 DUP6 ADD PUSH2 0x1C37 JUMP JUMPDEST SWAP2 POP POP SWAP3 SWAP2 POP POP JUMP JUMPDEST PUSH1 0x0 PUSH1 0x20 DUP3 DUP5 SUB SLT ISZERO PUSH2 0x1CB9 JUMPI PUSH2 0x1CB8 PUSH2 0x2352 JUMP JUMPDEST JUMPDEST PUSH1 0x0 PUSH2 0x1CC7 DUP5 DUP3 DUP6 ADD PUSH2 0x1C4C JUMP JUMPDEST SWAP2 POP POP SWAP3 SWAP2 POP POP JUMP JUMPDEST PUSH1 0x0 PUSH1 0x20 DUP3 DUP5 SUB SLT ISZERO PUSH2 0x1CE6 JUMPI PUSH2 0x1CE5 PUSH2 0x2352 JUMP JUMPDEST JUMPDEST PUSH1 0x0 PUSH2 0x1CF4 DUP5 DUP3 DUP6 ADD PUSH2 0x1C61 JUMP JUMPDEST SWAP2 POP POP SWAP3 SWAP2 POP POP JUMP JUMPDEST PUSH2 0x1D06 DUP2 PUSH2 0x21FA JUMP JUMPDEST DUP3 MSTORE POP POP JUMP JUMPDEST PUSH1 0x0 PUSH2 0x1D17 DUP3 PUSH2 0x20B3 JUMP JUMPDEST PUSH2 0x1D21 DUP2 DUP6 PUSH2 0x20C9 JUMP JUMPDEST SWAP4 POP PUSH2 0x1D31 DUP2 DUP6 PUSH1 0x20 DUP7 ADD PUSH2 0x2278 JUMP JUMPDEST DUP1 DUP5 ADD SWAP2 POP POP SWAP3 SWAP2 POP POP JUMP JUMPDEST PUSH2 0x1D46 DUP2 PUSH2 0x2242 JUMP JUMPDEST DUP3 MSTORE POP POP JUMP JUMPDEST PUSH1 0x0 PUSH2 0x1D57 DUP3 PUSH2 0x20BE JUMP JUMPDEST PUSH2 0x1D61 DUP2 DUP6 PUSH2 0x20D4 JUMP JUMPDEST SWAP4 POP PUSH2 0x1D71 DUP2 DUP6 PUSH1 0x20 DUP7 ADD PUSH2 0x2278 JUMP JUMPDEST PUSH2 0x1D7A DUP2 PUSH2 0x2357 JUMP JUMPDEST DUP5 ADD SWAP2 POP POP SWAP3 SWAP2 POP POP JUMP JUMPDEST PUSH1 0x0 PUSH2 0x1D92 PUSH1 0x26 DUP4 PUSH2 0x20D4 JUMP JUMPDEST SWAP2 POP PUSH2 0x1D9D DUP3 PUSH2 0x2368 JUMP JUMPDEST PUSH1 0x40 DUP3 ADD SWAP1 POP SWAP2 SWAP1 POP JUMP JUMPDEST PUSH1 0x0 PUSH2 0x1DB5 PUSH1 0x1C DUP4 PUSH2 0x20D4 JUMP JUMPDEST SWAP2 POP PUSH2 0x1DC0 DUP3 PUSH2 0x23B7 JUMP JUMPDEST PUSH1 0x20 DUP3 ADD SWAP1 POP SWAP2 SWAP1 POP JUMP JUMPDEST PUSH1 0x0 PUSH2 0x1DD8 PUSH1 0x1D DUP4 PUSH2 0x20D4 JUMP JUMPDEST SWAP2 POP PUSH2 0x1DE3 DUP3 PUSH2 0x23E0 JUMP JUMPDEST PUSH1 0x20 DUP3 ADD SWAP1 POP SWAP2 SWAP1 POP JUMP JUMPDEST PUSH1 0x0 PUSH2 0x1DFB PUSH1 0x37 DUP4 PUSH2 0x20D4 JUMP JUMPDEST SWAP2 POP PUSH2 0x1E06 DUP3 PUSH2 0x2409 JUMP JUMPDEST PUSH1 0x40 DUP3 ADD SWAP1 POP SWAP2 SWAP1 POP JUMP JUMPDEST PUSH1 0x0 PUSH2 0x1E1E PUSH1 0x2A DUP4 PUSH2 0x20D4 JUMP JUMPDEST SWAP2 POP PUSH2 0x1E29 DUP3 PUSH2 0x2458 JUMP JUMPDEST PUSH1 0x40 DUP3 ADD SWAP1 POP SWAP2 SWAP1 POP JUMP JUMPDEST PUSH1 0x0 PUSH2 0x1E41 PUSH1 0x1F DUP4 PUSH2 0x20D4 JUMP JUMPDEST SWAP2 POP PUSH2 0x1E4C DUP3 PUSH2 0x24A7 JUMP JUMPDEST PUSH1 0x20 DUP3 ADD SWAP1 POP SWAP2 SWAP1 POP JUMP JUMPDEST PUSH1 0x0 PUSH2 0x1E64 PUSH1 0x1B DUP4 PUSH2 0x20D4 JUMP JUMPDEST SWAP2 POP PUSH2 0x1E6F DUP3 PUSH2 0x24D0 JUMP JUMPDEST PUSH1 0x20 DUP3 ADD SWAP1 POP SWAP2 SWAP1 POP JUMP JUMPDEST PUSH2 0x1E83 DUP2 PUSH2 0x2238 JUMP JUMPDEST DUP3 MSTORE POP POP JUMP JUMPDEST PUSH1 0x0 PUSH2 0x1E95 DUP3 DUP5 PUSH2 0x1D0C JUMP JUMPDEST SWAP2 POP DUP2 SWAP1 POP SWAP3 SWAP2 POP POP JUMP JUMPDEST PUSH1 0x0 PUSH1 0x20 DUP3 ADD SWAP1 POP PUSH2 0x1EB5 PUSH1 0x0 DUP4 ADD DUP5 PUSH2 0x1CFD JUMP JUMPDEST SWAP3 SWAP2 POP POP JUMP JUMPDEST PUSH1 0x0 PUSH1 0x60 DUP3 ADD SWAP1 POP PUSH2 0x1ED0 PUSH1 0x0 DUP4 ADD DUP7 PUSH2 0x1CFD JUMP JUMPDEST PUSH2 0x1EDD PUSH1 0x20 DUP4 ADD DUP6 PUSH2 0x1CFD JUMP JUMPDEST PUSH2 0x1EEA PUSH1 0x40 DUP4 ADD DUP5 PUSH2 0x1E7A JUMP JUMPDEST SWAP5 SWAP4 POP POP POP POP JUMP JUMPDEST PUSH1 0x0 PUSH1 0x40 DUP3 ADD SWAP1 POP PUSH2 0x1F07 PUSH1 0x0 DUP4 ADD DUP6 PUSH2 0x1CFD JUMP JUMPDEST PUSH2 0x1F14 PUSH1 0x20 DUP4 ADD DUP5 PUSH2 0x1E7A JUMP JUMPDEST SWAP4 SWAP3 POP POP POP JUMP JUMPDEST PUSH1 0x0 PUSH1 0x20 DUP3 ADD SWAP1 POP PUSH2 0x1F30 PUSH1 0x0 DUP4 ADD DUP5 PUSH2 0x1D3D JUMP JUMPDEST SWAP3 SWAP2 POP POP JUMP JUMPDEST PUSH1 0x0 PUSH1 0x20 DUP3 ADD SWAP1 POP DUP2 DUP2 SUB PUSH1 0x0 DUP4 ADD MSTORE PUSH2 0x1F50 DUP2 DUP5 PUSH2 0x1D4C JUMP JUMPDEST SWAP1 POP SWAP3 SWAP2 POP POP JUMP JUMPDEST PUSH1 0x0 PUSH1 0x20 DUP3 ADD SWAP1 POP DUP2 DUP2 SUB PUSH1 0x0 DUP4 ADD MSTORE PUSH2 0x1F71 DUP2 PUSH2 0x1D85 JUMP JUMPDEST SWAP1 POP SWAP2 SWAP1 POP JUMP JUMPDEST PUSH1 0x0 PUSH1 0x20 DUP3 ADD SWAP1 POP DUP2 DUP2 SUB PUSH1 0x0 DUP4 ADD MSTORE PUSH2 0x1F91 DUP2 PUSH2 0x1DA8 JUMP JUMPDEST SWAP1 POP SWAP2 SWAP1 POP JUMP JUMPDEST PUSH1 0x0 PUSH1 0x20 DUP3 ADD SWAP1 POP DUP2 DUP2 SUB PUSH1 0x0 DUP4 ADD MSTORE PUSH2 0x1FB1 DUP2 PUSH2 0x1DCB JUMP JUMPDEST SWAP1 POP SWAP2 SWAP1 POP JUMP JUMPDEST PUSH1 0x0 PUSH1 0x20 DUP3 ADD SWAP1 POP DUP2 DUP2 SUB PUSH1 0x0 DUP4 ADD MSTORE PUSH2 0x1FD1 DUP2 PUSH2 0x1DEE JUMP JUMPDEST SWAP1 POP SWAP2 SWAP1 POP JUMP JUMPDEST PUSH1 0x0 PUSH1 0x20 DUP3 ADD SWAP1 POP DUP2 DUP2 SUB PUSH1 0x0 DUP4 ADD MSTORE PUSH2 0x1FF1 DUP2 PUSH2 0x1E11 JUMP JUMPDEST SWAP1 POP SWAP2 SWAP1 POP JUMP JUMPDEST PUSH1 0x0 PUSH1 0x20 DUP3 ADD SWAP1 POP DUP2 DUP2 SUB PUSH1 0x0 DUP4 ADD MSTORE PUSH2 0x2011 DUP2 PUSH2 0x1E34 JUMP JUMPDEST SWAP1 POP SWAP2 SWAP1 POP JUMP JUMPDEST PUSH1 0x0 PUSH1 0x20 DUP3 ADD SWAP1 POP DUP2 DUP2 SUB PUSH1 0x0 DUP4 ADD MSTORE PUSH2 0x2031 DUP2 PUSH2 0x1E57 JUMP JUMPDEST SWAP1 POP SWAP2 SWAP1 POP JUMP JUMPDEST PUSH1 0x0 PUSH1 0x20 DUP3 ADD SWAP1 POP PUSH2 0x204D PUSH1 0x0 DUP4 ADD DUP5 PUSH2 0x1E7A JUMP JUMPDEST SWAP3 SWAP2 POP POP JUMP JUMPDEST PUSH1 0x0 PUSH1 0x40 DUP3 ADD SWAP1 POP PUSH2 0x2068 PUSH1 0x0 DUP4 ADD DUP6 PUSH2 0x1E7A JUMP JUMPDEST PUSH2 0x2075 PUSH1 0x20 DUP4 ADD DUP5 PUSH2 0x1E7A JUMP JUMPDEST SWAP4 SWAP3 POP POP POP JUMP JUMPDEST PUSH1 0x0 PUSH1 0x60 DUP3 ADD SWAP1 POP PUSH2 0x2091 PUSH1 0x0 DUP4 ADD DUP7 PUSH2 0x1E7A JUMP JUMPDEST PUSH2 0x209E PUSH1 0x20 DUP4 ADD DUP6 PUSH2 0x1E7A JUMP JUMPDEST PUSH2 0x20AB PUSH1 0x40 DUP4 ADD DUP5 PUSH2 0x1E7A JUMP JUMPDEST SWAP5 SWAP4 POP POP POP POP JUMP JUMPDEST PUSH1 0x0 DUP2 MLOAD SWAP1 POP SWAP2 SWAP1 POP JUMP JUMPDEST PUSH1 0x0 DUP2 MLOAD SWAP1 POP SWAP2 SWAP1 POP JUMP JUMPDEST PUSH1 0x0 DUP2 SWAP1 POP SWAP3 SWAP2 POP POP JUMP JUMPDEST PUSH1 0x0 DUP3 DUP3 MSTORE PUSH1 0x20 DUP3 ADD SWAP1 POP SWAP3 SWAP2 POP POP JUMP JUMPDEST PUSH1 0x0 PUSH2 0x20F0 DUP3 PUSH2 0x2238 JUMP JUMPDEST SWAP2 POP PUSH2 0x20FB DUP4 PUSH2 0x2238 JUMP JUMPDEST SWAP3 POP DUP3 PUSH32 0xFFFFFFFFFFFFFFFFFFFFFFFFFFFFFFFFFFFFFFFFFFFFFFFFFFFFFFFFFFFFFFFF SUB DUP3 GT ISZERO PUSH2 0x2130 JUMPI PUSH2 0x212F PUSH2 0x22F4 JUMP JUMPDEST JUMPDEST DUP3 DUP3 ADD SWAP1 POP SWAP3 SWAP2 POP POP JUMP JUMPDEST PUSH1 0x0 PUSH2 0x2146 DUP3 PUSH2 0x2238 JUMP JUMPDEST SWAP2 POP PUSH2 0x2151 DUP4 PUSH2 0x2238 JUMP JUMPDEST SWAP3 POP DUP3 PUSH2 0x2161 JUMPI PUSH2 0x2160 PUSH2 0x2323 JUMP JUMPDEST JUMPDEST DUP3 DUP3 DIV SWAP1 POP SWAP3 SWAP2 POP POP JUMP JUMPDEST PUSH1 0x0 PUSH2 0x2177 DUP3 PUSH2 0x2238 JUMP JUMPDEST SWAP2 POP PUSH2 0x2182 DUP4 PUSH2 0x2238 JUMP JUMPDEST SWAP3 POP DUP2 PUSH32 0xFFFFFFFFFFFFFFFFFFFFFFFFFFFFFFFFFFFFFFFFFFFFFFFFFFFFFFFFFFFFFFFF DIV DUP4 GT DUP3 ISZERO ISZERO AND ISZERO PUSH2 0x21BB JUMPI PUSH2 0x21BA PUSH2 0x22F4 JUMP JUMPDEST JUMPDEST DUP3 DUP3 MUL SWAP1 POP SWAP3 SWAP2 POP POP JUMP JUMPDEST PUSH1 0x0 PUSH2 0x21D1 DUP3 PUSH2 0x2238 JUMP JUMPDEST SWAP2 POP PUSH2 0x21DC DUP4 PUSH2 0x2238 JUMP JUMPDEST SWAP3 POP DUP3 DUP3 LT ISZERO PUSH2 0x21EF JUMPI PUSH2 0x21EE PUSH2 0x22F4 JUMP JUMPDEST JUMPDEST DUP3 DUP3 SUB SWAP1 POP SWAP3 SWAP2 POP POP JUMP JUMPDEST PUSH1 0x0 PUSH2 0x2205 DUP3 PUSH2 0x2218 JUMP JUMPDEST SWAP1 POP SWAP2 SWAP1 POP JUMP JUMPDEST PUSH1 0x0 DUP2 ISZERO ISZERO SWAP1 POP SWAP2 SWAP1 POP JUMP JUMPDEST PUSH1 0x0 PUSH20 0xFFFFFFFFFFFFFFFFFFFFFFFFFFFFFFFFFFFFFFFF DUP3 AND SWAP1 POP SWAP2 SWAP1 POP JUMP JUMPDEST PUSH1 0x0 DUP2 SWAP1 POP SWAP2 SWAP1 POP JUMP JUMPDEST PUSH1 0x0 PUSH2 0x224D DUP3 PUSH2 0x2254 JUMP JUMPDEST SWAP1 POP SWAP2 SWAP1 POP JUMP JUMPDEST PUSH1 0x0 PUSH2 0x225F DUP3 PUSH2 0x2266 JUMP JUMPDEST SWAP1 POP SWAP2 SWAP1 POP JUMP JUMPDEST PUSH1 0x0 PUSH2 0x2271 DUP3 PUSH2 0x2218 JUMP JUMPDEST SWAP1 POP SWAP2 SWAP1 POP JUMP JUMPDEST PUSH1 0x0 JUMPDEST DUP4 DUP2 LT ISZERO PUSH2 0x2296 JUMPI DUP1 DUP3 ADD MLOAD DUP2 DUP5 ADD MSTORE PUSH1 0x20 DUP2 ADD SWAP1 POP PUSH2 0x227B JUMP JUMPDEST DUP4 DUP2 GT ISZERO PUSH2 0x22A5 JUMPI PUSH1 0x0 DUP5 DUP5 ADD MSTORE JUMPDEST POP POP POP POP JUMP JUMPDEST PUSH1 0x0 PUSH2 0x22B6 DUP3 PUSH2 0x2238 JUMP JUMPDEST SWAP2 POP PUSH32 0xFFFFFFFFFFFFFFFFFFFFFFFFFFFFFFFFFFFFFFFFFFFFFFFFFFFFFFFFFFFFFFFF DUP3 EQ ISZERO PUSH2 0x22E9 JUMPI PUSH2 0x22E8 PUSH2 0x22F4 JUMP JUMPDEST JUMPDEST PUSH1 0x1 DUP3 ADD SWAP1 POP SWAP2 SWAP1 POP JUMP JUMPDEST PUSH32 0x4E487B7100000000000000000000000000000000000000000000000000000000 PUSH1 0x0 MSTORE PUSH1 0x11 PUSH1 0x4 MSTORE PUSH1 0x24 PUSH1 0x0 REVERT JUMPDEST PUSH32 0x4E487B7100000000000000000000000000000000000000000000000000000000 PUSH1 0x0 MSTORE PUSH1 0x12 PUSH1 0x4 MSTORE PUSH1 0x24 PUSH1 0x0 REVERT JUMPDEST PUSH1 0x0 DUP1 REVERT JUMPDEST PUSH1 0x0 PUSH1 0x1F NOT PUSH1 0x1F DUP4 ADD AND SWAP1 POP SWAP2 SWAP1 POP JUMP JUMPDEST PUSH32 0x416464726573733A20696E73756666696369656E742062616C616E636520666F PUSH1 0x0 DUP3 ADD MSTORE PUSH32 0x722063616C6C0000000000000000000000000000000000000000000000000000 PUSH1 0x20 DUP3 ADD MSTORE POP JUMP JUMPDEST PUSH32 0x57697468647261773A20416D6F756E74206D757374206265203E203000000000 PUSH1 0x0 DUP3 ADD MSTORE POP JUMP JUMPDEST PUSH32 0x416464726573733A2063616C6C20746F206E6F6E2D636F6E7472616374000000 PUSH1 0x0 DUP3 ADD MSTORE POP JUMP JUMPDEST PUSH32 0x57697468647261773A20416D6F756E74206D757374206265203E2030206F7220 PUSH1 0x0 DUP3 ADD MSTORE PUSH32 0x6C6F776572207468616E20757365722062616C616E6365000000000000000000 PUSH1 0x20 DUP3 ADD MSTORE POP JUMP JUMPDEST PUSH32 0x5361666545524332303A204552433230206F7065726174696F6E20646964206E PUSH1 0x0 DUP3 ADD MSTORE PUSH32 0x6F74207375636365656400000000000000000000000000000000000000000000 PUSH1 0x20 DUP3 ADD MSTORE POP JUMP JUMPDEST PUSH32 0x5265656E7472616E637947756172643A207265656E7472616E742063616C6C00 PUSH1 0x0 DUP3 ADD MSTORE POP JUMP JUMPDEST PUSH32 0x4465706F7369743A20416D6F756E74206D757374206265203E20300000000000 PUSH1 0x0 DUP3 ADD MSTORE POP JUMP JUMPDEST PUSH2 0x2502 DUP2 PUSH2 0x21FA JUMP JUMPDEST DUP2 EQ PUSH2 0x250D JUMPI PUSH1 0x0 DUP1 REVERT JUMPDEST POP JUMP JUMPDEST PUSH2 0x2519 DUP2 PUSH2 0x220C JUMP JUMPDEST DUP2 EQ PUSH2 0x2524 JUMPI PUSH1 0x0 DUP1 REVERT JUMPDEST POP JUMP JUMPDEST PUSH2 0x2530 DUP2 PUSH2 0x2238 JUMP JUMPDEST DUP2 EQ PUSH2 0x253B JUMPI PUSH1 0x0 DUP1 REVERT JUMPDEST POP JUMP INVALID LOG2 PUSH5 0x6970667358 0x22 SLT KECCAK256 PUSH20 0x561F440766BF651DB0BCD3BE684FF1848254E0A2 MSTORE8 0xFC CREATE2 ADDRESS 0xC9 PUSH1 0xDA MOD SWAP6 0xE2 DUP8 PUSH5 0x736F6C6343 STOP ADDMOD SMOD STOP CALLER "
				},
				"gasEstimates": {
					"creation": {
						"codeDepositCost": "1917600",
						"executionCost": "infinite",
						"totalCost": "infinite"
					},
					"external": {
						"NUMBER_PERIODS()": "infinite",
						"PRECISION_FACTOR()": "373",
						"START_BLOCK()": "infinite",
						"accTokenPerShare()": "2474",
						"calculatePendingRewards(address)": "infinite",
						"currentPhase()": "2453",
						"deposit(uint256)": "infinite",
						"endBlock()": "2475",
						"harvestAndCompound()": "infinite",
						"lastRewardBlock()": "2518",
						"looksRareToken()": "infinite",
						"rewardPerBlockForOthers()": "2517",
						"rewardPerBlockForStaking()": "2540",
						"stakingPeriod(uint256)": "infinite",
						"tokenSplitter()": "infinite",
						"totalAmountStaked()": "2539",
						"updatePool()": "infinite",
						"userInfo(address)": "infinite",
						"withdraw(uint256)": "infinite",
						"withdrawAll()": "infinite"
					},
					"internal": {
						"_getMultiplier(uint256,uint256)": "infinite",
						"_updatePool()": "infinite",
						"_updateRewardsPerBlock(uint256)": "infinite"
					}
				},
				"methodIdentifiers": {
					"NUMBER_PERIODS()": "52bf348c",
					"PRECISION_FACTOR()": "ccd34cd5",
					"START_BLOCK()": "39b3e826",
					"accTokenPerShare()": "8f662915",
					"calculatePendingRewards(address)": "097aad10",
					"currentPhase()": "055ad42e",
					"deposit(uint256)": "b6b55f25",
					"endBlock()": "083c6323",
					"harvestAndCompound()": "2a4e051b",
					"lastRewardBlock()": "a9f8d181",
					"looksRareToken()": "36db9fb2",
					"rewardPerBlockForOthers()": "e683d96f",
					"rewardPerBlockForStaking()": "5a9477e9",
					"stakingPeriod(uint256)": "c1027c98",
					"tokenSplitter()": "a46074c3",
					"totalAmountStaked()": "fe961f61",
					"updatePool()": "e3161ddd",
					"userInfo(address)": "1959a002",
					"withdraw(uint256)": "2e1a7d4d",
					"withdrawAll()": "853828b6"
				}
			},
			"storageLayout": {
				"storage": [
					{
						"astId": 10,
						"contract": "contracts/TokenDistributor.sol:TokenDistributor",
						"label": "_status",
						"offset": 0,
						"slot": "0",
						"type": "t_uint256"
					},
					{
						"astId": 705,
						"contract": "contracts/TokenDistributor.sol:TokenDistributor",
						"label": "accTokenPerShare",
						"offset": 0,
						"slot": "1",
						"type": "t_uint256"
					},
					{
						"astId": 707,
						"contract": "contracts/TokenDistributor.sol:TokenDistributor",
						"label": "currentPhase",
						"offset": 0,
						"slot": "2",
						"type": "t_uint256"
					},
					{
						"astId": 709,
						"contract": "contracts/TokenDistributor.sol:TokenDistributor",
						"label": "endBlock",
						"offset": 0,
						"slot": "3",
						"type": "t_uint256"
					},
					{
						"astId": 711,
						"contract": "contracts/TokenDistributor.sol:TokenDistributor",
						"label": "lastRewardBlock",
						"offset": 0,
						"slot": "4",
						"type": "t_uint256"
					},
					{
						"astId": 713,
						"contract": "contracts/TokenDistributor.sol:TokenDistributor",
						"label": "rewardPerBlockForOthers",
						"offset": 0,
						"slot": "5",
						"type": "t_uint256"
					},
					{
						"astId": 715,
						"contract": "contracts/TokenDistributor.sol:TokenDistributor",
						"label": "rewardPerBlockForStaking",
						"offset": 0,
						"slot": "6",
						"type": "t_uint256"
					},
					{
						"astId": 717,
						"contract": "contracts/TokenDistributor.sol:TokenDistributor",
						"label": "totalAmountStaked",
						"offset": 0,
						"slot": "7",
						"type": "t_uint256"
					},
					{
						"astId": 722,
						"contract": "contracts/TokenDistributor.sol:TokenDistributor",
						"label": "stakingPeriod",
						"offset": 0,
						"slot": "8",
						"type": "t_mapping(t_uint256,t_struct(StakingPeriod)684_storage)"
					},
					{
						"astId": 727,
						"contract": "contracts/TokenDistributor.sol:TokenDistributor",
						"label": "userInfo",
						"offset": 0,
						"slot": "9",
						"type": "t_mapping(t_address,t_struct(UserInfo)689_storage)"
					}
				],
				"types": {
					"t_address": {
						"encoding": "inplace",
						"label": "address",
						"numberOfBytes": "20"
					},
					"t_mapping(t_address,t_struct(UserInfo)689_storage)": {
						"encoding": "mapping",
						"key": "t_address",
						"label": "mapping(address => struct TokenDistributor.UserInfo)",
						"numberOfBytes": "32",
						"value": "t_struct(UserInfo)689_storage"
					},
					"t_mapping(t_uint256,t_struct(StakingPeriod)684_storage)": {
						"encoding": "mapping",
						"key": "t_uint256",
						"label": "mapping(uint256 => struct TokenDistributor.StakingPeriod)",
						"numberOfBytes": "32",
						"value": "t_struct(StakingPeriod)684_storage"
					},
					"t_struct(StakingPeriod)684_storage": {
						"encoding": "inplace",
						"label": "struct TokenDistributor.StakingPeriod",
						"members": [
							{
								"astId": 679,
								"contract": "contracts/TokenDistributor.sol:TokenDistributor",
								"label": "rewardPerBlockForStaking",
								"offset": 0,
								"slot": "0",
								"type": "t_uint256"
							},
							{
								"astId": 681,
								"contract": "contracts/TokenDistributor.sol:TokenDistributor",
								"label": "rewardPerBlockForOthers",
								"offset": 0,
								"slot": "1",
								"type": "t_uint256"
							},
							{
								"astId": 683,
								"contract": "contracts/TokenDistributor.sol:TokenDistributor",
								"label": "periodLengthInBlock",
								"offset": 0,
								"slot": "2",
								"type": "t_uint256"
							}
						],
						"numberOfBytes": "96"
					},
					"t_struct(UserInfo)689_storage": {
						"encoding": "inplace",
						"label": "struct TokenDistributor.UserInfo",
						"members": [
							{
								"astId": 686,
								"contract": "contracts/TokenDistributor.sol:TokenDistributor",
								"label": "amount",
								"offset": 0,
								"slot": "0",
								"type": "t_uint256"
							},
							{
								"astId": 688,
								"contract": "contracts/TokenDistributor.sol:TokenDistributor",
								"label": "rewardDebt",
								"offset": 0,
								"slot": "1",
								"type": "t_uint256"
							}
						],
						"numberOfBytes": "64"
					},
					"t_uint256": {
						"encoding": "inplace",
						"label": "uint256",
						"numberOfBytes": "32"
					}
				}
			},
			"userdoc": {
				"kind": "user",
				"methods": {
					"calculatePendingRewards(address)": {
						"notice": "Calculate pending rewards for a user"
					},
					"constructor": {
						"notice": "Constructor"
					},
					"deposit(uint256)": {
						"notice": "Deposit staked tokens and compounds pending rewards"
					},
					"harvestAndCompound()": {
						"notice": "Compound based on pending rewards"
					},
					"updatePool()": {
						"notice": "Update pool rewards"
					},
					"withdraw(uint256)": {
						"notice": "Withdraw staked tokens and compound pending rewards"
					},
					"withdrawAll()": {
						"notice": "Withdraw all staked tokens and collect tokens"
					}
				},
				"notice": "It handles the distribution of LOOKS token. It auto-adjusts block rewards over a set number of periods.",
				"version": 1
			}
		}
	}
}