{
	"contracts/TokenSplitter.sol": {
		"TokenSplitter": {
			"abi": [
				{
					"inputs": [
						{
							"internalType": "address[]",
							"name": "_accounts",
							"type": "address[]"
						},
						{
							"internalType": "uint256[]",
							"name": "_shares",
							"type": "uint256[]"
						},
						{
							"internalType": "address",
							"name": "_looksRareToken",
							"type": "address"
						}
					],
					"stateMutability": "nonpayable",
					"type": "constructor"
				},
				{
					"anonymous": false,
					"inputs": [
						{
							"indexed": true,
							"internalType": "address",
							"name": "oldRecipient",
							"type": "address"
						},
						{
							"indexed": true,
							"internalType": "address",
							"name": "newRecipient",
							"type": "address"
						}
					],
					"name": "NewSharesOwner",
					"type": "event"
				},
				{
					"anonymous": false,
					"inputs": [
						{
							"indexed": true,
							"internalType": "address",
							"name": "previousOwner",
							"type": "address"
						},
						{
							"indexed": true,
							"internalType": "address",
							"name": "newOwner",
							"type": "address"
						}
					],
					"name": "OwnershipTransferred",
					"type": "event"
				},
				{
					"anonymous": false,
					"inputs": [
						{
							"indexed": true,
							"internalType": "address",
							"name": "account",
							"type": "address"
						},
						{
							"indexed": false,
							"internalType": "uint256",
							"name": "amount",
							"type": "uint256"
						}
					],
					"name": "TokensTransferred",
					"type": "event"
				},
				{
					"inputs": [],
					"name": "TOTAL_SHARES",
					"outputs": [
						{
							"internalType": "uint256",
							"name": "",
							"type": "uint256"
						}
					],
					"stateMutability": "view",
					"type": "function"
				},
				{
					"inputs": [
						{
							"internalType": "address",
							"name": "",
							"type": "address"
						}
					],
					"name": "accountInfo",
					"outputs": [
						{
							"internalType": "uint256",
							"name": "shares",
							"type": "uint256"
						},
						{
							"internalType": "uint256",
							"name": "tokensDistributedToAccount",
							"type": "uint256"
						}
					],
					"stateMutability": "view",
					"type": "function"
				},
				{
					"inputs": [
						{
							"internalType": "address",
							"name": "account",
							"type": "address"
						}
					],
					"name": "calculatePendingRewards",
					"outputs": [
						{
							"internalType": "uint256",
							"name": "",
							"type": "uint256"
						}
					],
					"stateMutability": "view",
					"type": "function"
				},
				{
					"inputs": [],
					"name": "looksRareToken",
					"outputs": [
						{
							"internalType": "contract IERC20",
							"name": "",
							"type": "address"
						}
					],
					"stateMutability": "view",
					"type": "function"
				},
				{
					"inputs": [],
					"name": "owner",
					"outputs": [
						{
							"internalType": "address",
							"name": "",
							"type": "address"
						}
					],
					"stateMutability": "view",
					"type": "function"
				},
				{
					"inputs": [
						{
							"internalType": "address",
							"name": "account",
							"type": "address"
						}
					],
					"name": "releaseTokens",
					"outputs": [],
					"stateMutability": "nonpayable",
					"type": "function"
				},
				{
					"inputs": [],
					"name": "renounceOwnership",
					"outputs": [],
					"stateMutability": "nonpayable",
					"type": "function"
				},
				{
					"inputs": [],
					"name": "totalTokensDistributed",
					"outputs": [
						{
							"internalType": "uint256",
							"name": "",
							"type": "uint256"
						}
					],
					"stateMutability": "view",
					"type": "function"
				},
				{
					"inputs": [
						{
							"internalType": "address",
							"name": "newOwner",
							"type": "address"
						}
					],
					"name": "transferOwnership",
					"outputs": [],
					"stateMutability": "nonpayable",
					"type": "function"
				},
				{
					"inputs": [
						{
							"internalType": "address",
							"name": "_newRecipient",
							"type": "address"
						},
						{
							"internalType": "address",
							"name": "_currentRecipient",
							"type": "address"
						}
					],
					"name": "updateSharesOwner",
					"outputs": [],
					"stateMutability": "nonpayable",
					"type": "function"
				}
			],
			"devdoc": {
				"kind": "dev",
				"methods": {
					"calculatePendingRewards(address)": {
						"params": {
							"account": "address of the account"
						}
					},
					"constructor": {
						"params": {
							"_accounts": "array of accounts addresses",
							"_looksRareToken": "address of the LOOKS token",
							"_shares": "array of shares per account"
						}
					},
					"owner()": {
						"details": "Returns the address of the current owner."
					},
					"releaseTokens(address)": {
						"params": {
							"account": "address of the account"
						}
					},
					"renounceOwnership()": {
						"details": "Leaves the contract without owner. It will not be possible to call `onlyOwner` functions anymore. Can only be called by the current owner. NOTE: Renouncing ownership will leave the contract without an owner, thereby removing any functionality that is only available to the owner."
					},
					"transferOwnership(address)": {
						"details": "Transfers ownership of the contract to a new account (`newOwner`). Can only be called by the current owner."
					},
					"updateSharesOwner(address,address)": {
						"params": {
							"_currentRecipient": "address of the current recipient",
							"_newRecipient": "address of the new recipient"
						}
					}
				},
				"title": "TokenSplitter",
				"version": 1
			},
			"evm": {
				"assembly": "    /* \"contracts/TokenSplitter.sol\":438:4537  contract TokenSplitter is Ownable, ReentrancyGuard {\r... */\n  mstore(0x40, 0xc0)\n    /* \"contracts/TokenSplitter.sol\":1261:1912  constructor(\r... */\n  callvalue\n  dup1\n  iszero\n  tag_1\n  jumpi\n  0x00\n  dup1\n  revert\ntag_1:\n  pop\n  mload(0x40)\n  sub(codesize, bytecodeSize)\n  dup1\n  bytecodeSize\n  dup4\n  codecopy\n  dup2\n  dup2\n  add\n  0x40\n  mstore\n  dup2\n  add\n  swap1\n  tag_2\n  swap2\n  swap1\n  tag_3\n  jump\t// in\ntag_2:\n    /* \"@openzeppelin/contracts/access/Ownable.sol\":921:953  _transferOwnership(_msgSender()) */\n  tag_8\n    /* \"@openzeppelin/contracts/access/Ownable.sol\":940:952  _msgSender() */\n  tag_9\n    /* \"@openzeppelin/contracts/access/Ownable.sol\":940:950  _msgSender */\n  shl(0x20, tag_10)\n    /* \"@openzeppelin/contracts/access/Ownable.sol\":940:952  _msgSender() */\n  0x20\n  shr\n  jump\t// in\ntag_9:\n    /* \"@openzeppelin/contracts/access/Ownable.sol\":921:939  _transferOwnership */\n  shl(0x20, tag_11)\n    /* \"@openzeppelin/contracts/access/Ownable.sol\":921:953  _transferOwnership(_msgSender()) */\n  0x20\n  shr\n  jump\t// in\ntag_8:\n    /* \"@openzeppelin/contracts/security/ReentrancyGuard.sol\":1701:1702  1 */\n  0x01\n    /* \"@openzeppelin/contracts/security/ReentrancyGuard.sol\":1806:1813  _status */\n  dup1\n    /* \"@openzeppelin/contracts/security/ReentrancyGuard.sol\":1806:1828  _status = _NOT_ENTERED */\n  dup2\n  swap1\n  sstore\n  pop\n    /* \"contracts/TokenSplitter.sol\":1425:1432  _shares */\n  dup2\n    /* \"contracts/TokenSplitter.sol\":1425:1439  _shares.length */\n  mload\n    /* \"contracts/TokenSplitter.sol\":1405:1414  _accounts */\n  dup4\n    /* \"contracts/TokenSplitter.sol\":1405:1421  _accounts.length */\n  mload\n    /* \"contracts/TokenSplitter.sol\":1405:1439  _accounts.length == _shares.length */\n  eq\n    /* \"contracts/TokenSplitter.sol\":1397:1467  require(_accounts.length == _shares.length, \"Splitter: Length differ\") */\n  tag_14\n  jumpi\n  mload(0x40)\n  0x08c379a000000000000000000000000000000000000000000000000000000000\n  dup2\n  mstore\n  0x04\n  add\n  tag_15\n  swap1\n  tag_16\n  jump\t// in\ntag_15:\n  mload(0x40)\n  dup1\n  swap2\n  sub\n  swap1\n  revert\ntag_14:\n    /* \"contracts/TokenSplitter.sol\":1505:1506  0 */\n  0x00\n    /* \"contracts/TokenSplitter.sol\":1486:1495  _accounts */\n  dup4\n    /* \"contracts/TokenSplitter.sol\":1486:1502  _accounts.length */\n  mload\n    /* \"contracts/TokenSplitter.sol\":1486:1506  _accounts.length > 0 */\n  gt\n    /* \"contracts/TokenSplitter.sol\":1478:1539  require(_accounts.length > 0, \"Splitter: Length must be > 0\") */\n  tag_17\n  jumpi\n  mload(0x40)\n  0x08c379a000000000000000000000000000000000000000000000000000000000\n  dup2\n  mstore\n  0x04\n  add\n  tag_18\n  swap1\n  tag_19\n  jump\t// in\ntag_18:\n  mload(0x40)\n  dup1\n  swap2\n  sub\n  swap1\n  revert\ntag_17:\n    /* \"contracts/TokenSplitter.sol\":1552:1573  uint256 currentShares */\n  0x00\n    /* \"contracts/TokenSplitter.sol\":1591:1600  uint256 i */\n  dup1\n    /* \"contracts/TokenSplitter.sol\":1603:1604  0 */\n  0x00\n    /* \"contracts/TokenSplitter.sol\":1591:1604  uint256 i = 0 */\n  swap1\n  pop\n    /* \"contracts/TokenSplitter.sol\":1586:1813  for (uint256 i = 0; i < _accounts.length; i++) {\r... */\ntag_20:\n    /* \"contracts/TokenSplitter.sol\":1610:1619  _accounts */\n  dup5\n    /* \"contracts/TokenSplitter.sol\":1610:1626  _accounts.length */\n  mload\n    /* \"contracts/TokenSplitter.sol\":1606:1607  i */\n  dup2\n    /* \"contracts/TokenSplitter.sol\":1606:1626  i < _accounts.length */\n  lt\n    /* \"contracts/TokenSplitter.sol\":1586:1813  for (uint256 i = 0; i < _accounts.length; i++) {\r... */\n  iszero\n  tag_21\n  jumpi\n    /* \"contracts/TokenSplitter.sol\":1669:1670  0 */\n  0x00\n    /* \"contracts/TokenSplitter.sol\":1656:1663  _shares */\n  dup5\n    /* \"contracts/TokenSplitter.sol\":1664:1665  i */\n  dup3\n    /* \"contracts/TokenSplitter.sol\":1656:1666  _shares[i] */\n  dup2\n  mload\n  dup2\n  lt\n  tag_23\n  jumpi\n  tag_24\n  tag_25\n  jump\t// in\ntag_24:\ntag_23:\n  0x20\n  mul\n  0x20\n  add\n  add\n  mload\n    /* \"contracts/TokenSplitter.sol\":1656:1670  _shares[i] > 0 */\n  gt\n    /* \"contracts/TokenSplitter.sol\":1648:1697  require(_shares[i] > 0, \"Splitter: Shares are 0\") */\n  tag_26\n  jumpi\n  mload(0x40)\n  0x08c379a000000000000000000000000000000000000000000000000000000000\n  dup2\n  mstore\n  0x04\n  add\n  tag_27\n  swap1\n  tag_28\n  jump\t// in\ntag_27:\n  mload(0x40)\n  dup1\n  swap2\n  sub\n  swap1\n  revert\ntag_26:\n    /* \"contracts/TokenSplitter.sol\":1731:1738  _shares */\n  dup4\n    /* \"contracts/TokenSplitter.sol\":1739:1740  i */\n  dup2\n    /* \"contracts/TokenSplitter.sol\":1731:1741  _shares[i] */\n  dup2\n  mload\n  dup2\n  lt\n  tag_29\n  jumpi\n  tag_30\n  tag_25\n  jump\t// in\ntag_30:\ntag_29:\n  0x20\n  mul\n  0x20\n  add\n  add\n  mload\n    /* \"contracts/TokenSplitter.sol\":1714:1741  currentShares += _shares[i] */\n  dup3\n  tag_31\n  swap2\n  swap1\n  tag_32\n  jump\t// in\ntag_31:\n  swap2\n  pop\n    /* \"contracts/TokenSplitter.sol\":1791:1798  _shares */\n  dup4\n    /* \"contracts/TokenSplitter.sol\":1799:1800  i */\n  dup2\n    /* \"contracts/TokenSplitter.sol\":1791:1801  _shares[i] */\n  dup2\n  mload\n  dup2\n  lt\n  tag_33\n  jumpi\n  tag_34\n  tag_25\n  jump\t// in\ntag_34:\ntag_33:\n  0x20\n  mul\n  0x20\n  add\n  add\n  mload\n    /* \"contracts/TokenSplitter.sol\":1756:1767  accountInfo */\n  0x03\n    /* \"contracts/TokenSplitter.sol\":1756:1781  accountInfo[_accounts[i]] */\n  0x00\n    /* \"contracts/TokenSplitter.sol\":1768:1777  _accounts */\n  dup8\n    /* \"contracts/TokenSplitter.sol\":1778:1779  i */\n  dup5\n    /* \"contracts/TokenSplitter.sol\":1768:1780  _accounts[i] */\n  dup2\n  mload\n  dup2\n  lt\n  tag_35\n  jumpi\n  tag_36\n  tag_25\n  jump\t// in\ntag_36:\ntag_35:\n  0x20\n  mul\n  0x20\n  add\n  add\n  mload\n    /* \"contracts/TokenSplitter.sol\":1756:1781  accountInfo[_accounts[i]] */\n  0xffffffffffffffffffffffffffffffffffffffff\n  and\n  0xffffffffffffffffffffffffffffffffffffffff\n  and\n  dup2\n  mstore\n  0x20\n  add\n  swap1\n  dup2\n  mstore\n  0x20\n  add\n  0x00\n  keccak256\n    /* \"contracts/TokenSplitter.sol\":1756:1788  accountInfo[_accounts[i]].shares */\n  0x00\n  add\n    /* \"contracts/TokenSplitter.sol\":1756:1801  accountInfo[_accounts[i]].shares = _shares[i] */\n  dup2\n  swap1\n  sstore\n  pop\n    /* \"contracts/TokenSplitter.sol\":1628:1631  i++ */\n  dup1\n  dup1\n  tag_37\n  swap1\n  tag_38\n  jump\t// in\ntag_37:\n  swap2\n  pop\n  pop\n    /* \"contracts/TokenSplitter.sol\":1586:1813  for (uint256 i = 0; i < _accounts.length; i++) {\r... */\n  jump(tag_20)\ntag_21:\n  pop\n    /* \"contracts/TokenSplitter.sol\":1840:1853  currentShares */\n  dup1\n    /* \"contracts/TokenSplitter.sol\":1825:1853  TOTAL_SHARES = currentShares */\n  0x80\n  dup2\n  dup2\n  mstore\n  pop\n  pop\n    /* \"contracts/TokenSplitter.sol\":1888:1903  _looksRareToken */\n  dup2\n    /* \"contracts/TokenSplitter.sol\":1864:1904  looksRareToken = IERC20(_looksRareToken) */\n  0xffffffffffffffffffffffffffffffffffffffff\n  and\n  0xa0\n  dup2\n  0xffffffffffffffffffffffffffffffffffffffff\n  and\n  0x60\n  shl\n  dup2\n  mstore\n  pop\n  pop\n    /* \"contracts/TokenSplitter.sol\":1386:1912  {\r... */\n  pop\n    /* \"contracts/TokenSplitter.sol\":1261:1912  constructor(\r... */\n  pop\n  pop\n  pop\n    /* \"contracts/TokenSplitter.sol\":438:4537  contract TokenSplitter is Ownable, ReentrancyGuard {\r... */\n  jump(tag_39)\n    /* \"@openzeppelin/contracts/utils/Context.sol\":640:736  function _msgSender() internal view virtual returns (address) {... */\ntag_10:\n    /* \"@openzeppelin/contracts/utils/Context.sol\":693:700  address */\n  0x00\n    /* \"@openzeppelin/contracts/utils/Context.sol\":719:729  msg.sender */\n  caller\n    /* \"@openzeppelin/contracts/utils/Context.sol\":712:729  return msg.sender */\n  swap1\n  pop\n    /* \"@openzeppelin/contracts/utils/Context.sol\":640:736  function _msgSender() internal view virtual returns (address) {... */\n  swap1\n  jump\t// out\n    /* \"@openzeppelin/contracts/access/Ownable.sol\":2270:2457  function _transferOwnership(address newOwner) internal virtual {... */\ntag_11:\n    /* \"@openzeppelin/contracts/access/Ownable.sol\":2343:2359  address oldOwner */\n  0x00\n    /* \"@openzeppelin/contracts/access/Ownable.sol\":2362:2368  _owner */\n  dup1\n  0x00\n  swap1\n  sload\n  swap1\n  0x0100\n  exp\n  swap1\n  div\n  0xffffffffffffffffffffffffffffffffffffffff\n  and\n    /* \"@openzeppelin/contracts/access/Ownable.sol\":2343:2368  address oldOwner = _owner */\n  swap1\n  pop\n    /* \"@openzeppelin/contracts/access/Ownable.sol\":2387:2395  newOwner */\n  dup2\n    /* \"@openzeppelin/contracts/access/Ownable.sol\":2378:2384  _owner */\n  0x00\n  dup1\n    /* \"@openzeppelin/contracts/access/Ownable.sol\":2378:2395  _owner = newOwner */\n  0x0100\n  exp\n  dup2\n  sload\n  dup2\n  0xffffffffffffffffffffffffffffffffffffffff\n  mul\n  not\n  and\n  swap1\n  dup4\n  0xffffffffffffffffffffffffffffffffffffffff\n  and\n  mul\n  or\n  swap1\n  sstore\n  pop\n    /* \"@openzeppelin/contracts/access/Ownable.sol\":2441:2449  newOwner */\n  dup2\n    /* \"@openzeppelin/contracts/access/Ownable.sol\":2410:2450  OwnershipTransferred(oldOwner, newOwner) */\n  0xffffffffffffffffffffffffffffffffffffffff\n  and\n    /* \"@openzeppelin/contracts/access/Ownable.sol\":2431:2439  oldOwner */\n  dup2\n    /* \"@openzeppelin/contracts/access/Ownable.sol\":2410:2450  OwnershipTransferred(oldOwner, newOwner) */\n  0xffffffffffffffffffffffffffffffffffffffff\n  and\n  0x8be0079c531659141344cd1fd0a4f28419497f9722a3daafe3b4186f6b6457e0\n  mload(0x40)\n  mload(0x40)\n  dup1\n  swap2\n  sub\n  swap1\n  log3\n    /* \"@openzeppelin/contracts/access/Ownable.sol\":2333:2457  {... */\n  pop\n    /* \"@openzeppelin/contracts/access/Ownable.sol\":2270:2457  function _transferOwnership(address newOwner) internal virtual {... */\n  pop\n  jump\t// out\n    /* \"#utility.yul\":24:768   */\ntag_43:\n    /* \"#utility.yul\":131:136   */\n  0x00\n    /* \"#utility.yul\":156:237   */\n  tag_45\n    /* \"#utility.yul\":172:236   */\n  tag_46\n    /* \"#utility.yul\":229:235   */\n  dup5\n    /* \"#utility.yul\":172:236   */\n  tag_47\n  jump\t// in\ntag_46:\n    /* \"#utility.yul\":156:237   */\n  tag_48\n  jump\t// in\ntag_45:\n    /* \"#utility.yul\":147:237   */\n  swap1\n  pop\n    /* \"#utility.yul\":257:262   */\n  dup1\n    /* \"#utility.yul\":286:292   */\n  dup4\n    /* \"#utility.yul\":279:284   */\n  dup3\n    /* \"#utility.yul\":272:293   */\n  mstore\n    /* \"#utility.yul\":320:324   */\n  0x20\n    /* \"#utility.yul\":313:318   */\n  dup3\n    /* \"#utility.yul\":309:325   */\n  add\n    /* \"#utility.yul\":302:325   */\n  swap1\n  pop\n    /* \"#utility.yul\":346:352   */\n  dup3\n    /* \"#utility.yul\":396:399   */\n  dup6\n    /* \"#utility.yul\":388:392   */\n  0x20\n    /* \"#utility.yul\":380:386   */\n  dup7\n    /* \"#utility.yul\":376:393   */\n  mul\n    /* \"#utility.yul\":371:374   */\n  dup3\n    /* \"#utility.yul\":367:394   */\n  add\n    /* \"#utility.yul\":364:400   */\n  gt\n    /* \"#utility.yul\":361:504   */\n  iszero\n  tag_49\n  jumpi\n    /* \"#utility.yul\":415:494   */\n  tag_50\n  tag_51\n  jump\t// in\ntag_50:\n    /* \"#utility.yul\":361:504   */\ntag_49:\n    /* \"#utility.yul\":528:529   */\n  0x00\n    /* \"#utility.yul\":513:762   */\ntag_52:\n    /* \"#utility.yul\":538:544   */\n  dup6\n    /* \"#utility.yul\":535:536   */\n  dup2\n    /* \"#utility.yul\":532:545   */\n  lt\n    /* \"#utility.yul\":513:762   */\n  iszero\n  tag_54\n  jumpi\n    /* \"#utility.yul\":606:609   */\n  dup2\n    /* \"#utility.yul\":635:683   */\n  tag_55\n    /* \"#utility.yul\":679:682   */\n  dup9\n    /* \"#utility.yul\":667:677   */\n  dup3\n    /* \"#utility.yul\":635:683   */\n  tag_56\n  jump\t// in\ntag_55:\n    /* \"#utility.yul\":630:633   */\n  dup5\n    /* \"#utility.yul\":623:684   */\n  mstore\n    /* \"#utility.yul\":713:717   */\n  0x20\n    /* \"#utility.yul\":708:711   */\n  dup5\n    /* \"#utility.yul\":704:718   */\n  add\n    /* \"#utility.yul\":697:718   */\n  swap4\n  pop\n    /* \"#utility.yul\":747:751   */\n  0x20\n    /* \"#utility.yul\":742:745   */\n  dup4\n    /* \"#utility.yul\":738:752   */\n  add\n    /* \"#utility.yul\":731:752   */\n  swap3\n  pop\n    /* \"#utility.yul\":573:762   */\n  pop\n    /* \"#utility.yul\":560:561   */\n  0x01\n    /* \"#utility.yul\":557:558   */\n  dup2\n    /* \"#utility.yul\":553:562   */\n  add\n    /* \"#utility.yul\":548:562   */\n  swap1\n  pop\n    /* \"#utility.yul\":513:762   */\n  jump(tag_52)\ntag_54:\n    /* \"#utility.yul\":517:531   */\n  pop\n    /* \"#utility.yul\":137:768   */\n  pop\n  pop\n    /* \"#utility.yul\":24:768   */\n  swap4\n  swap3\n  pop\n  pop\n  pop\n  jump\t// out\n    /* \"#utility.yul\":791:1535   */\ntag_57:\n    /* \"#utility.yul\":898:903   */\n  0x00\n    /* \"#utility.yul\":923:1004   */\n  tag_59\n    /* \"#utility.yul\":939:1003   */\n  tag_60\n    /* \"#utility.yul\":996:1002   */\n  dup5\n    /* \"#utility.yul\":939:1003   */\n  tag_61\n  jump\t// in\ntag_60:\n    /* \"#utility.yul\":923:1004   */\n  tag_48\n  jump\t// in\ntag_59:\n    /* \"#utility.yul\":914:1004   */\n  swap1\n  pop\n    /* \"#utility.yul\":1024:1029   */\n  dup1\n    /* \"#utility.yul\":1053:1059   */\n  dup4\n    /* \"#utility.yul\":1046:1051   */\n  dup3\n    /* \"#utility.yul\":1039:1060   */\n  mstore\n    /* \"#utility.yul\":1087:1091   */\n  0x20\n    /* \"#utility.yul\":1080:1085   */\n  dup3\n    /* \"#utility.yul\":1076:1092   */\n  add\n    /* \"#utility.yul\":1069:1092   */\n  swap1\n  pop\n    /* \"#utility.yul\":1113:1119   */\n  dup3\n    /* \"#utility.yul\":1163:1166   */\n  dup6\n    /* \"#utility.yul\":1155:1159   */\n  0x20\n    /* \"#utility.yul\":1147:1153   */\n  dup7\n    /* \"#utility.yul\":1143:1160   */\n  mul\n    /* \"#utility.yul\":1138:1141   */\n  dup3\n    /* \"#utility.yul\":1134:1161   */\n  add\n    /* \"#utility.yul\":1131:1167   */\n  gt\n    /* \"#utility.yul\":1128:1271   */\n  iszero\n  tag_62\n  jumpi\n    /* \"#utility.yul\":1182:1261   */\n  tag_63\n  tag_51\n  jump\t// in\ntag_63:\n    /* \"#utility.yul\":1128:1271   */\ntag_62:\n    /* \"#utility.yul\":1295:1296   */\n  0x00\n    /* \"#utility.yul\":1280:1529   */\ntag_64:\n    /* \"#utility.yul\":1305:1311   */\n  dup6\n    /* \"#utility.yul\":1302:1303   */\n  dup2\n    /* \"#utility.yul\":1299:1312   */\n  lt\n    /* \"#utility.yul\":1280:1529   */\n  iszero\n  tag_66\n  jumpi\n    /* \"#utility.yul\":1373:1376   */\n  dup2\n    /* \"#utility.yul\":1402:1450   */\n  tag_67\n    /* \"#utility.yul\":1446:1449   */\n  dup9\n    /* \"#utility.yul\":1434:1444   */\n  dup3\n    /* \"#utility.yul\":1402:1450   */\n  tag_68\n  jump\t// in\ntag_67:\n    /* \"#utility.yul\":1397:1400   */\n  dup5\n    /* \"#utility.yul\":1390:1451   */\n  mstore\n    /* \"#utility.yul\":1480:1484   */\n  0x20\n    /* \"#utility.yul\":1475:1478   */\n  dup5\n    /* \"#utility.yul\":1471:1485   */\n  add\n    /* \"#utility.yul\":1464:1485   */\n  swap4\n  pop\n    /* \"#utility.yul\":1514:1518   */\n  0x20\n    /* \"#utility.yul\":1509:1512   */\n  dup4\n    /* \"#utility.yul\":1505:1519   */\n  add\n    /* \"#utility.yul\":1498:1519   */\n  swap3\n  pop\n    /* \"#utility.yul\":1340:1529   */\n  pop\n    /* \"#utility.yul\":1327:1328   */\n  0x01\n    /* \"#utility.yul\":1324:1325   */\n  dup2\n    /* \"#utility.yul\":1320:1329   */\n  add\n    /* \"#utility.yul\":1315:1329   */\n  swap1\n  pop\n    /* \"#utility.yul\":1280:1529   */\n  jump(tag_64)\ntag_66:\n    /* \"#utility.yul\":1284:1298   */\n  pop\n    /* \"#utility.yul\":904:1535   */\n  pop\n  pop\n    /* \"#utility.yul\":791:1535   */\n  swap4\n  swap3\n  pop\n  pop\n  pop\n  jump\t// out\n    /* \"#utility.yul\":1541:1684   */\ntag_56:\n    /* \"#utility.yul\":1598:1603   */\n  0x00\n    /* \"#utility.yul\":1629:1635   */\n  dup2\n    /* \"#utility.yul\":1623:1636   */\n  mload\n    /* \"#utility.yul\":1614:1636   */\n  swap1\n  pop\n    /* \"#utility.yul\":1645:1678   */\n  tag_70\n    /* \"#utility.yul\":1672:1677   */\n  dup2\n    /* \"#utility.yul\":1645:1678   */\n  tag_71\n  jump\t// in\ntag_70:\n    /* \"#utility.yul\":1541:1684   */\n  swap3\n  swap2\n  pop\n  pop\n  jump\t// out\n    /* \"#utility.yul\":1707:2092   */\ntag_72:\n    /* \"#utility.yul\":1789:1794   */\n  0x00\n    /* \"#utility.yul\":1838:1841   */\n  dup3\n    /* \"#utility.yul\":1831:1835   */\n  0x1f\n    /* \"#utility.yul\":1823:1829   */\n  dup4\n    /* \"#utility.yul\":1819:1836   */\n  add\n    /* \"#utility.yul\":1815:1842   */\n  slt\n    /* \"#utility.yul\":1805:1927   */\n  tag_74\n  jumpi\n    /* \"#utility.yul\":1846:1925   */\n  tag_75\n  tag_76\n  jump\t// in\ntag_75:\n    /* \"#utility.yul\":1805:1927   */\ntag_74:\n    /* \"#utility.yul\":1956:1962   */\n  dup2\n    /* \"#utility.yul\":1950:1963   */\n  mload\n    /* \"#utility.yul\":1981:2086   */\n  tag_77\n    /* \"#utility.yul\":2082:2085   */\n  dup5\n    /* \"#utility.yul\":2074:2080   */\n  dup3\n    /* \"#utility.yul\":2067:2071   */\n  0x20\n    /* \"#utility.yul\":2059:2065   */\n  dup7\n    /* \"#utility.yul\":2055:2072   */\n  add\n    /* \"#utility.yul\":1981:2086   */\n  tag_43\n  jump\t// in\ntag_77:\n    /* \"#utility.yul\":1972:2086   */\n  swap2\n  pop\n    /* \"#utility.yul\":1795:2092   */\n  pop\n    /* \"#utility.yul\":1707:2092   */\n  swap3\n  swap2\n  pop\n  pop\n  jump\t// out\n    /* \"#utility.yul\":2115:2500   */\ntag_78:\n    /* \"#utility.yul\":2197:2202   */\n  0x00\n    /* \"#utility.yul\":2246:2249   */\n  dup3\n    /* \"#utility.yul\":2239:2243   */\n  0x1f\n    /* \"#utility.yul\":2231:2237   */\n  dup4\n    /* \"#utility.yul\":2227:2244   */\n  add\n    /* \"#utility.yul\":2223:2250   */\n  slt\n    /* \"#utility.yul\":2213:2335   */\n  tag_80\n  jumpi\n    /* \"#utility.yul\":2254:2333   */\n  tag_81\n  tag_76\n  jump\t// in\ntag_81:\n    /* \"#utility.yul\":2213:2335   */\ntag_80:\n    /* \"#utility.yul\":2364:2370   */\n  dup2\n    /* \"#utility.yul\":2358:2371   */\n  mload\n    /* \"#utility.yul\":2389:2494   */\n  tag_82\n    /* \"#utility.yul\":2490:2493   */\n  dup5\n    /* \"#utility.yul\":2482:2488   */\n  dup3\n    /* \"#utility.yul\":2475:2479   */\n  0x20\n    /* \"#utility.yul\":2467:2473   */\n  dup7\n    /* \"#utility.yul\":2463:2480   */\n  add\n    /* \"#utility.yul\":2389:2494   */\n  tag_57\n  jump\t// in\ntag_82:\n    /* \"#utility.yul\":2380:2494   */\n  swap2\n  pop\n    /* \"#utility.yul\":2203:2500   */\n  pop\n    /* \"#utility.yul\":2115:2500   */\n  swap3\n  swap2\n  pop\n  pop\n  jump\t// out\n    /* \"#utility.yul\":2506:2649   */\ntag_68:\n    /* \"#utility.yul\":2563:2568   */\n  0x00\n    /* \"#utility.yul\":2594:2600   */\n  dup2\n    /* \"#utility.yul\":2588:2601   */\n  mload\n    /* \"#utility.yul\":2579:2601   */\n  swap1\n  pop\n    /* \"#utility.yul\":2610:2643   */\n  tag_84\n    /* \"#utility.yul\":2637:2642   */\n  dup2\n    /* \"#utility.yul\":2610:2643   */\n  tag_85\n  jump\t// in\ntag_84:\n    /* \"#utility.yul\":2506:2649   */\n  swap3\n  swap2\n  pop\n  pop\n  jump\t// out\n    /* \"#utility.yul\":2655:3724   */\ntag_3:\n    /* \"#utility.yul\":2793:2799   */\n  0x00\n    /* \"#utility.yul\":2801:2807   */\n  dup1\n    /* \"#utility.yul\":2809:2815   */\n  0x00\n    /* \"#utility.yul\":2858:2860   */\n  0x60\n    /* \"#utility.yul\":2846:2855   */\n  dup5\n    /* \"#utility.yul\":2837:2844   */\n  dup7\n    /* \"#utility.yul\":2833:2856   */\n  sub\n    /* \"#utility.yul\":2829:2861   */\n  slt\n    /* \"#utility.yul\":2826:2945   */\n  iszero\n  tag_87\n  jumpi\n    /* \"#utility.yul\":2864:2943   */\n  tag_88\n  tag_89\n  jump\t// in\ntag_88:\n    /* \"#utility.yul\":2826:2945   */\ntag_87:\n    /* \"#utility.yul\":3005:3006   */\n  0x00\n    /* \"#utility.yul\":2994:3003   */\n  dup5\n    /* \"#utility.yul\":2990:3007   */\n  add\n    /* \"#utility.yul\":2984:3008   */\n  mload\n    /* \"#utility.yul\":3035:3053   */\n  0xffffffffffffffff\n    /* \"#utility.yul\":3027:3033   */\n  dup2\n    /* \"#utility.yul\":3024:3054   */\n  gt\n    /* \"#utility.yul\":3021:3138   */\n  iszero\n  tag_90\n  jumpi\n    /* \"#utility.yul\":3057:3136   */\n  tag_91\n  tag_92\n  jump\t// in\ntag_91:\n    /* \"#utility.yul\":3021:3138   */\ntag_90:\n    /* \"#utility.yul\":3162:3251   */\n  tag_93\n    /* \"#utility.yul\":3243:3250   */\n  dup7\n    /* \"#utility.yul\":3234:3240   */\n  dup3\n    /* \"#utility.yul\":3223:3232   */\n  dup8\n    /* \"#utility.yul\":3219:3241   */\n  add\n    /* \"#utility.yul\":3162:3251   */\n  tag_72\n  jump\t// in\ntag_93:\n    /* \"#utility.yul\":3152:3251   */\n  swap4\n  pop\n    /* \"#utility.yul\":2955:3261   */\n  pop\n    /* \"#utility.yul\":3321:3323   */\n  0x20\n    /* \"#utility.yul\":3310:3319   */\n  dup5\n    /* \"#utility.yul\":3306:3324   */\n  add\n    /* \"#utility.yul\":3300:3325   */\n  mload\n    /* \"#utility.yul\":3352:3370   */\n  0xffffffffffffffff\n    /* \"#utility.yul\":3344:3350   */\n  dup2\n    /* \"#utility.yul\":3341:3371   */\n  gt\n    /* \"#utility.yul\":3338:3455   */\n  iszero\n  tag_94\n  jumpi\n    /* \"#utility.yul\":3374:3453   */\n  tag_95\n  tag_92\n  jump\t// in\ntag_95:\n    /* \"#utility.yul\":3338:3455   */\ntag_94:\n    /* \"#utility.yul\":3479:3568   */\n  tag_96\n    /* \"#utility.yul\":3560:3567   */\n  dup7\n    /* \"#utility.yul\":3551:3557   */\n  dup3\n    /* \"#utility.yul\":3540:3549   */\n  dup8\n    /* \"#utility.yul\":3536:3558   */\n  add\n    /* \"#utility.yul\":3479:3568   */\n  tag_78\n  jump\t// in\ntag_96:\n    /* \"#utility.yul\":3469:3568   */\n  swap3\n  pop\n    /* \"#utility.yul\":3271:3578   */\n  pop\n    /* \"#utility.yul\":3617:3619   */\n  0x40\n    /* \"#utility.yul\":3643:3707   */\n  tag_97\n    /* \"#utility.yul\":3699:3706   */\n  dup7\n    /* \"#utility.yul\":3690:3696   */\n  dup3\n    /* \"#utility.yul\":3679:3688   */\n  dup8\n    /* \"#utility.yul\":3675:3697   */\n  add\n    /* \"#utility.yul\":3643:3707   */\n  tag_56\n  jump\t// in\ntag_97:\n    /* \"#utility.yul\":3633:3707   */\n  swap2\n  pop\n    /* \"#utility.yul\":3588:3717   */\n  pop\n    /* \"#utility.yul\":2655:3724   */\n  swap3\n  pop\n  swap3\n  pop\n  swap3\n  jump\t// out\n    /* \"#utility.yul\":3730:4096   */\ntag_98:\n    /* \"#utility.yul\":3872:3875   */\n  0x00\n    /* \"#utility.yul\":3893:3960   */\n  tag_100\n    /* \"#utility.yul\":3957:3959   */\n  0x1c\n    /* \"#utility.yul\":3952:3955   */\n  dup4\n    /* \"#utility.yul\":3893:3960   */\n  tag_101\n  jump\t// in\ntag_100:\n    /* \"#utility.yul\":3886:3960   */\n  swap2\n  pop\n    /* \"#utility.yul\":3969:4062   */\n  tag_102\n    /* \"#utility.yul\":4058:4061   */\n  dup3\n    /* \"#utility.yul\":3969:4062   */\n  tag_103\n  jump\t// in\ntag_102:\n    /* \"#utility.yul\":4087:4089   */\n  0x20\n    /* \"#utility.yul\":4082:4085   */\n  dup3\n    /* \"#utility.yul\":4078:4090   */\n  add\n    /* \"#utility.yul\":4071:4090   */\n  swap1\n  pop\n    /* \"#utility.yul\":3730:4096   */\n  swap2\n  swap1\n  pop\n  jump\t// out\n    /* \"#utility.yul\":4102:4468   */\ntag_104:\n    /* \"#utility.yul\":4244:4247   */\n  0x00\n    /* \"#utility.yul\":4265:4332   */\n  tag_106\n    /* \"#utility.yul\":4329:4331   */\n  0x16\n    /* \"#utility.yul\":4324:4327   */\n  dup4\n    /* \"#utility.yul\":4265:4332   */\n  tag_101\n  jump\t// in\ntag_106:\n    /* \"#utility.yul\":4258:4332   */\n  swap2\n  pop\n    /* \"#utility.yul\":4341:4434   */\n  tag_107\n    /* \"#utility.yul\":4430:4433   */\n  dup3\n    /* \"#utility.yul\":4341:4434   */\n  tag_108\n  jump\t// in\ntag_107:\n    /* \"#utility.yul\":4459:4461   */\n  0x20\n    /* \"#utility.yul\":4454:4457   */\n  dup3\n    /* \"#utility.yul\":4450:4462   */\n  add\n    /* \"#utility.yul\":4443:4462   */\n  swap1\n  pop\n    /* \"#utility.yul\":4102:4468   */\n  swap2\n  swap1\n  pop\n  jump\t// out\n    /* \"#utility.yul\":4474:4840   */\ntag_109:\n    /* \"#utility.yul\":4616:4619   */\n  0x00\n    /* \"#utility.yul\":4637:4704   */\n  tag_111\n    /* \"#utility.yul\":4701:4703   */\n  0x17\n    /* \"#utility.yul\":4696:4699   */\n  dup4\n    /* \"#utility.yul\":4637:4704   */\n  tag_101\n  jump\t// in\ntag_111:\n    /* \"#utility.yul\":4630:4704   */\n  swap2\n  pop\n    /* \"#utility.yul\":4713:4806   */\n  tag_112\n    /* \"#utility.yul\":4802:4805   */\n  dup3\n    /* \"#utility.yul\":4713:4806   */\n  tag_113\n  jump\t// in\ntag_112:\n    /* \"#utility.yul\":4831:4833   */\n  0x20\n    /* \"#utility.yul\":4826:4829   */\n  dup3\n    /* \"#utility.yul\":4822:4834   */\n  add\n    /* \"#utility.yul\":4815:4834   */\n  swap1\n  pop\n    /* \"#utility.yul\":4474:4840   */\n  swap2\n  swap1\n  pop\n  jump\t// out\n    /* \"#utility.yul\":4846:5265   */\ntag_19:\n    /* \"#utility.yul\":5012:5016   */\n  0x00\n    /* \"#utility.yul\":5050:5052   */\n  0x20\n    /* \"#utility.yul\":5039:5048   */\n  dup3\n    /* \"#utility.yul\":5035:5053   */\n  add\n    /* \"#utility.yul\":5027:5053   */\n  swap1\n  pop\n    /* \"#utility.yul\":5099:5108   */\n  dup2\n    /* \"#utility.yul\":5093:5097   */\n  dup2\n    /* \"#utility.yul\":5089:5109   */\n  sub\n    /* \"#utility.yul\":5085:5086   */\n  0x00\n    /* \"#utility.yul\":5074:5083   */\n  dup4\n    /* \"#utility.yul\":5070:5087   */\n  add\n    /* \"#utility.yul\":5063:5110   */\n  mstore\n    /* \"#utility.yul\":5127:5258   */\n  tag_115\n    /* \"#utility.yul\":5253:5257   */\n  dup2\n    /* \"#utility.yul\":5127:5258   */\n  tag_98\n  jump\t// in\ntag_115:\n    /* \"#utility.yul\":5119:5258   */\n  swap1\n  pop\n    /* \"#utility.yul\":4846:5265   */\n  swap2\n  swap1\n  pop\n  jump\t// out\n    /* \"#utility.yul\":5271:5690   */\ntag_28:\n    /* \"#utility.yul\":5437:5441   */\n  0x00\n    /* \"#utility.yul\":5475:5477   */\n  0x20\n    /* \"#utility.yul\":5464:5473   */\n  dup3\n    /* \"#utility.yul\":5460:5478   */\n  add\n    /* \"#utility.yul\":5452:5478   */\n  swap1\n  pop\n    /* \"#utility.yul\":5524:5533   */\n  dup2\n    /* \"#utility.yul\":5518:5522   */\n  dup2\n    /* \"#utility.yul\":5514:5534   */\n  sub\n    /* \"#utility.yul\":5510:5511   */\n  0x00\n    /* \"#utility.yul\":5499:5508   */\n  dup4\n    /* \"#utility.yul\":5495:5512   */\n  add\n    /* \"#utility.yul\":5488:5535   */\n  mstore\n    /* \"#utility.yul\":5552:5683   */\n  tag_117\n    /* \"#utility.yul\":5678:5682   */\n  dup2\n    /* \"#utility.yul\":5552:5683   */\n  tag_104\n  jump\t// in\ntag_117:\n    /* \"#utility.yul\":5544:5683   */\n  swap1\n  pop\n    /* \"#utility.yul\":5271:5690   */\n  swap2\n  swap1\n  pop\n  jump\t// out\n    /* \"#utility.yul\":5696:6115   */\ntag_16:\n    /* \"#utility.yul\":5862:5866   */\n  0x00\n    /* \"#utility.yul\":5900:5902   */\n  0x20\n    /* \"#utility.yul\":5889:5898   */\n  dup3\n    /* \"#utility.yul\":5885:5903   */\n  add\n    /* \"#utility.yul\":5877:5903   */\n  swap1\n  pop\n    /* \"#utility.yul\":5949:5958   */\n  dup2\n    /* \"#utility.yul\":5943:5947   */\n  dup2\n    /* \"#utility.yul\":5939:5959   */\n  sub\n    /* \"#utility.yul\":5935:5936   */\n  0x00\n    /* \"#utility.yul\":5924:5933   */\n  dup4\n    /* \"#utility.yul\":5920:5937   */\n  add\n    /* \"#utility.yul\":5913:5960   */\n  mstore\n    /* \"#utility.yul\":5977:6108   */\n  tag_119\n    /* \"#utility.yul\":6103:6107   */\n  dup2\n    /* \"#utility.yul\":5977:6108   */\n  tag_109\n  jump\t// in\ntag_119:\n    /* \"#utility.yul\":5969:6108   */\n  swap1\n  pop\n    /* \"#utility.yul\":5696:6115   */\n  swap2\n  swap1\n  pop\n  jump\t// out\n    /* \"#utility.yul\":6121:6250   */\ntag_48:\n    /* \"#utility.yul\":6155:6161   */\n  0x00\n    /* \"#utility.yul\":6182:6202   */\n  tag_121\n  tag_122\n  jump\t// in\ntag_121:\n    /* \"#utility.yul\":6172:6202   */\n  swap1\n  pop\n    /* \"#utility.yul\":6211:6244   */\n  tag_123\n    /* \"#utility.yul\":6239:6243   */\n  dup3\n    /* \"#utility.yul\":6231:6237   */\n  dup3\n    /* \"#utility.yul\":6211:6244   */\n  tag_124\n  jump\t// in\ntag_123:\n    /* \"#utility.yul\":6121:6250   */\n  swap2\n  swap1\n  pop\n  jump\t// out\n    /* \"#utility.yul\":6256:6331   */\ntag_122:\n    /* \"#utility.yul\":6289:6295   */\n  0x00\n    /* \"#utility.yul\":6322:6324   */\n  0x40\n    /* \"#utility.yul\":6316:6325   */\n  mload\n    /* \"#utility.yul\":6306:6325   */\n  swap1\n  pop\n    /* \"#utility.yul\":6256:6331   */\n  swap1\n  jump\t// out\n    /* \"#utility.yul\":6337:6648   */\ntag_47:\n    /* \"#utility.yul\":6414:6418   */\n  0x00\n    /* \"#utility.yul\":6504:6522   */\n  0xffffffffffffffff\n    /* \"#utility.yul\":6496:6502   */\n  dup3\n    /* \"#utility.yul\":6493:6523   */\n  gt\n    /* \"#utility.yul\":6490:6546   */\n  iszero\n  tag_127\n  jumpi\n    /* \"#utility.yul\":6526:6544   */\n  tag_128\n  tag_129\n  jump\t// in\ntag_128:\n    /* \"#utility.yul\":6490:6546   */\ntag_127:\n    /* \"#utility.yul\":6576:6580   */\n  0x20\n    /* \"#utility.yul\":6568:6574   */\n  dup3\n    /* \"#utility.yul\":6564:6581   */\n  mul\n    /* \"#utility.yul\":6556:6581   */\n  swap1\n  pop\n    /* \"#utility.yul\":6636:6640   */\n  0x20\n    /* \"#utility.yul\":6630:6634   */\n  dup2\n    /* \"#utility.yul\":6626:6641   */\n  add\n    /* \"#utility.yul\":6618:6641   */\n  swap1\n  pop\n    /* \"#utility.yul\":6337:6648   */\n  swap2\n  swap1\n  pop\n  jump\t// out\n    /* \"#utility.yul\":6654:6965   */\ntag_61:\n    /* \"#utility.yul\":6731:6735   */\n  0x00\n    /* \"#utility.yul\":6821:6839   */\n  0xffffffffffffffff\n    /* \"#utility.yul\":6813:6819   */\n  dup3\n    /* \"#utility.yul\":6810:6840   */\n  gt\n    /* \"#utility.yul\":6807:6863   */\n  iszero\n  tag_131\n  jumpi\n    /* \"#utility.yul\":6843:6861   */\n  tag_132\n  tag_129\n  jump\t// in\ntag_132:\n    /* \"#utility.yul\":6807:6863   */\ntag_131:\n    /* \"#utility.yul\":6893:6897   */\n  0x20\n    /* \"#utility.yul\":6885:6891   */\n  dup3\n    /* \"#utility.yul\":6881:6898   */\n  mul\n    /* \"#utility.yul\":6873:6898   */\n  swap1\n  pop\n    /* \"#utility.yul\":6953:6957   */\n  0x20\n    /* \"#utility.yul\":6947:6951   */\n  dup2\n    /* \"#utility.yul\":6943:6958   */\n  add\n    /* \"#utility.yul\":6935:6958   */\n  swap1\n  pop\n    /* \"#utility.yul\":6654:6965   */\n  swap2\n  swap1\n  pop\n  jump\t// out\n    /* \"#utility.yul\":6971:7140   */\ntag_101:\n    /* \"#utility.yul\":7055:7066   */\n  0x00\n    /* \"#utility.yul\":7089:7095   */\n  dup3\n    /* \"#utility.yul\":7084:7087   */\n  dup3\n    /* \"#utility.yul\":7077:7096   */\n  mstore\n    /* \"#utility.yul\":7129:7133   */\n  0x20\n    /* \"#utility.yul\":7124:7127   */\n  dup3\n    /* \"#utility.yul\":7120:7134   */\n  add\n    /* \"#utility.yul\":7105:7134   */\n  swap1\n  pop\n    /* \"#utility.yul\":6971:7140   */\n  swap3\n  swap2\n  pop\n  pop\n  jump\t// out\n    /* \"#utility.yul\":7146:7451   */\ntag_32:\n    /* \"#utility.yul\":7186:7189   */\n  0x00\n    /* \"#utility.yul\":7205:7225   */\n  tag_135\n    /* \"#utility.yul\":7223:7224   */\n  dup3\n    /* \"#utility.yul\":7205:7225   */\n  tag_136\n  jump\t// in\ntag_135:\n    /* \"#utility.yul\":7200:7225   */\n  swap2\n  pop\n    /* \"#utility.yul\":7239:7259   */\n  tag_137\n    /* \"#utility.yul\":7257:7258   */\n  dup4\n    /* \"#utility.yul\":7239:7259   */\n  tag_136\n  jump\t// in\ntag_137:\n    /* \"#utility.yul\":7234:7259   */\n  swap3\n  pop\n    /* \"#utility.yul\":7393:7394   */\n  dup3\n    /* \"#utility.yul\":7325:7391   */\n  0xffffffffffffffffffffffffffffffffffffffffffffffffffffffffffffffff\n    /* \"#utility.yul\":7321:7395   */\n  sub\n    /* \"#utility.yul\":7318:7319   */\n  dup3\n    /* \"#utility.yul\":7315:7396   */\n  gt\n    /* \"#utility.yul\":7312:7419   */\n  iszero\n  tag_138\n  jumpi\n    /* \"#utility.yul\":7399:7417   */\n  tag_139\n  tag_140\n  jump\t// in\ntag_139:\n    /* \"#utility.yul\":7312:7419   */\ntag_138:\n    /* \"#utility.yul\":7443:7444   */\n  dup3\n    /* \"#utility.yul\":7440:7441   */\n  dup3\n    /* \"#utility.yul\":7436:7445   */\n  add\n    /* \"#utility.yul\":7429:7445   */\n  swap1\n  pop\n    /* \"#utility.yul\":7146:7451   */\n  swap3\n  swap2\n  pop\n  pop\n  jump\t// out\n    /* \"#utility.yul\":7457:7553   */\ntag_141:\n    /* \"#utility.yul\":7494:7501   */\n  0x00\n    /* \"#utility.yul\":7523:7547   */\n  tag_143\n    /* \"#utility.yul\":7541:7546   */\n  dup3\n    /* \"#utility.yul\":7523:7547   */\n  tag_144\n  jump\t// in\ntag_143:\n    /* \"#utility.yul\":7512:7547   */\n  swap1\n  pop\n    /* \"#utility.yul\":7457:7553   */\n  swap2\n  swap1\n  pop\n  jump\t// out\n    /* \"#utility.yul\":7559:7685   */\ntag_144:\n    /* \"#utility.yul\":7596:7603   */\n  0x00\n    /* \"#utility.yul\":7636:7678   */\n  0xffffffffffffffffffffffffffffffffffffffff\n    /* \"#utility.yul\":7629:7634   */\n  dup3\n    /* \"#utility.yul\":7625:7679   */\n  and\n    /* \"#utility.yul\":7614:7679   */\n  swap1\n  pop\n    /* \"#utility.yul\":7559:7685   */\n  swap2\n  swap1\n  pop\n  jump\t// out\n    /* \"#utility.yul\":7691:7768   */\ntag_136:\n    /* \"#utility.yul\":7728:7735   */\n  0x00\n    /* \"#utility.yul\":7757:7762   */\n  dup2\n    /* \"#utility.yul\":7746:7762   */\n  swap1\n  pop\n    /* \"#utility.yul\":7691:7768   */\n  swap2\n  swap1\n  pop\n  jump\t// out\n    /* \"#utility.yul\":7774:8055   */\ntag_124:\n    /* \"#utility.yul\":7857:7884   */\n  tag_148\n    /* \"#utility.yul\":7879:7883   */\n  dup3\n    /* \"#utility.yul\":7857:7884   */\n  tag_149\n  jump\t// in\ntag_148:\n    /* \"#utility.yul\":7849:7855   */\n  dup2\n    /* \"#utility.yul\":7845:7885   */\n  add\n    /* \"#utility.yul\":7987:7993   */\n  dup2\n    /* \"#utility.yul\":7975:7985   */\n  dup2\n    /* \"#utility.yul\":7972:7994   */\n  lt\n    /* \"#utility.yul\":7951:7969   */\n  0xffffffffffffffff\n    /* \"#utility.yul\":7939:7949   */\n  dup3\n    /* \"#utility.yul\":7936:7970   */\n  gt\n    /* \"#utility.yul\":7933:7995   */\n  or\n    /* \"#utility.yul\":7930:8018   */\n  iszero\n  tag_150\n  jumpi\n    /* \"#utility.yul\":7998:8016   */\n  tag_151\n  tag_129\n  jump\t// in\ntag_151:\n    /* \"#utility.yul\":7930:8018   */\ntag_150:\n    /* \"#utility.yul\":8038:8048   */\n  dup1\n    /* \"#utility.yul\":8034:8036   */\n  0x40\n    /* \"#utility.yul\":8027:8049   */\n  mstore\n    /* \"#utility.yul\":7817:8055   */\n  pop\n    /* \"#utility.yul\":7774:8055   */\n  pop\n  pop\n  jump\t// out\n    /* \"#utility.yul\":8061:8294   */\ntag_38:\n    /* \"#utility.yul\":8100:8103   */\n  0x00\n    /* \"#utility.yul\":8123:8147   */\n  tag_153\n    /* \"#utility.yul\":8141:8146   */\n  dup3\n    /* \"#utility.yul\":8123:8147   */\n  tag_136\n  jump\t// in\ntag_153:\n    /* \"#utility.yul\":8114:8147   */\n  swap2\n  pop\n    /* \"#utility.yul\":8169:8235   */\n  0xffffffffffffffffffffffffffffffffffffffffffffffffffffffffffffffff\n    /* \"#utility.yul\":8162:8167   */\n  dup3\n    /* \"#utility.yul\":8159:8236   */\n  eq\n    /* \"#utility.yul\":8156:8259   */\n  iszero\n  tag_154\n  jumpi\n    /* \"#utility.yul\":8239:8257   */\n  tag_155\n  tag_140\n  jump\t// in\ntag_155:\n    /* \"#utility.yul\":8156:8259   */\ntag_154:\n    /* \"#utility.yul\":8286:8287   */\n  0x01\n    /* \"#utility.yul\":8279:8284   */\n  dup3\n    /* \"#utility.yul\":8275:8288   */\n  add\n    /* \"#utility.yul\":8268:8288   */\n  swap1\n  pop\n    /* \"#utility.yul\":8061:8294   */\n  swap2\n  swap1\n  pop\n  jump\t// out\n    /* \"#utility.yul\":8300:8480   */\ntag_140:\n    /* \"#utility.yul\":8348:8425   */\n  0x4e487b7100000000000000000000000000000000000000000000000000000000\n    /* \"#utility.yul\":8345:8346   */\n  0x00\n    /* \"#utility.yul\":8338:8426   */\n  mstore\n    /* \"#utility.yul\":8445:8449   */\n  0x11\n    /* \"#utility.yul\":8442:8443   */\n  0x04\n    /* \"#utility.yul\":8435:8450   */\n  mstore\n    /* \"#utility.yul\":8469:8473   */\n  0x24\n    /* \"#utility.yul\":8466:8467   */\n  0x00\n    /* \"#utility.yul\":8459:8474   */\n  revert\n    /* \"#utility.yul\":8486:8666   */\ntag_25:\n    /* \"#utility.yul\":8534:8611   */\n  0x4e487b7100000000000000000000000000000000000000000000000000000000\n    /* \"#utility.yul\":8531:8532   */\n  0x00\n    /* \"#utility.yul\":8524:8612   */\n  mstore\n    /* \"#utility.yul\":8631:8635   */\n  0x32\n    /* \"#utility.yul\":8628:8629   */\n  0x04\n    /* \"#utility.yul\":8621:8636   */\n  mstore\n    /* \"#utility.yul\":8655:8659   */\n  0x24\n    /* \"#utility.yul\":8652:8653   */\n  0x00\n    /* \"#utility.yul\":8645:8660   */\n  revert\n    /* \"#utility.yul\":8672:8852   */\ntag_129:\n    /* \"#utility.yul\":8720:8797   */\n  0x4e487b7100000000000000000000000000000000000000000000000000000000\n    /* \"#utility.yul\":8717:8718   */\n  0x00\n    /* \"#utility.yul\":8710:8798   */\n  mstore\n    /* \"#utility.yul\":8817:8821   */\n  0x41\n    /* \"#utility.yul\":8814:8815   */\n  0x04\n    /* \"#utility.yul\":8807:8822   */\n  mstore\n    /* \"#utility.yul\":8841:8845   */\n  0x24\n    /* \"#utility.yul\":8838:8839   */\n  0x00\n    /* \"#utility.yul\":8831:8846   */\n  revert\n    /* \"#utility.yul\":8858:8975   */\ntag_76:\n    /* \"#utility.yul\":8967:8968   */\n  0x00\n    /* \"#utility.yul\":8964:8965   */\n  dup1\n    /* \"#utility.yul\":8957:8969   */\n  revert\n    /* \"#utility.yul\":8981:9098   */\ntag_51:\n    /* \"#utility.yul\":9090:9091   */\n  0x00\n    /* \"#utility.yul\":9087:9088   */\n  dup1\n    /* \"#utility.yul\":9080:9092   */\n  revert\n    /* \"#utility.yul\":9104:9221   */\ntag_92:\n    /* \"#utility.yul\":9213:9214   */\n  0x00\n    /* \"#utility.yul\":9210:9211   */\n  dup1\n    /* \"#utility.yul\":9203:9215   */\n  revert\n    /* \"#utility.yul\":9227:9344   */\ntag_89:\n    /* \"#utility.yul\":9336:9337   */\n  0x00\n    /* \"#utility.yul\":9333:9334   */\n  dup1\n    /* \"#utility.yul\":9326:9338   */\n  revert\n    /* \"#utility.yul\":9350:9452   */\ntag_149:\n    /* \"#utility.yul\":9391:9397   */\n  0x00\n    /* \"#utility.yul\":9442:9444   */\n  0x1f\n    /* \"#utility.yul\":9438:9445   */\n  not\n    /* \"#utility.yul\":9433:9435   */\n  0x1f\n    /* \"#utility.yul\":9426:9431   */\n  dup4\n    /* \"#utility.yul\":9422:9436   */\n  add\n    /* \"#utility.yul\":9418:9446   */\n  and\n    /* \"#utility.yul\":9408:9446   */\n  swap1\n  pop\n    /* \"#utility.yul\":9350:9452   */\n  swap2\n  swap1\n  pop\n  jump\t// out\n    /* \"#utility.yul\":9458:9636   */\ntag_103:\n    /* \"#utility.yul\":9598:9628   */\n  0x53706c69747465723a204c656e677468206d757374206265203e203000000000\n    /* \"#utility.yul\":9594:9595   */\n  0x00\n    /* \"#utility.yul\":9586:9592   */\n  dup3\n    /* \"#utility.yul\":9582:9596   */\n  add\n    /* \"#utility.yul\":9575:9629   */\n  mstore\n    /* \"#utility.yul\":9458:9636   */\n  pop\n  jump\t// out\n    /* \"#utility.yul\":9642:9814   */\ntag_108:\n    /* \"#utility.yul\":9782:9806   */\n  0x53706c69747465723a2053686172657320617265203000000000000000000000\n    /* \"#utility.yul\":9778:9779   */\n  0x00\n    /* \"#utility.yul\":9770:9776   */\n  dup3\n    /* \"#utility.yul\":9766:9780   */\n  add\n    /* \"#utility.yul\":9759:9807   */\n  mstore\n    /* \"#utility.yul\":9642:9814   */\n  pop\n  jump\t// out\n    /* \"#utility.yul\":9820:9993   */\ntag_113:\n    /* \"#utility.yul\":9960:9985   */\n  0x53706c69747465723a204c656e67746820646966666572000000000000000000\n    /* \"#utility.yul\":9956:9957   */\n  0x00\n    /* \"#utility.yul\":9948:9954   */\n  dup3\n    /* \"#utility.yul\":9944:9958   */\n  add\n    /* \"#utility.yul\":9937:9986   */\n  mstore\n    /* \"#utility.yul\":9820:9993   */\n  pop\n  jump\t// out\n    /* \"#utility.yul\":9999:10121   */\ntag_71:\n    /* \"#utility.yul\":10072:10096   */\n  tag_168\n    /* \"#utility.yul\":10090:10095   */\n  dup2\n    /* \"#utility.yul\":10072:10096   */\n  tag_141\n  jump\t// in\ntag_168:\n    /* \"#utility.yul\":10065:10070   */\n  dup2\n    /* \"#utility.yul\":10062:10097   */\n  eq\n    /* \"#utility.yul\":10052:10115   */\n  tag_169\n  jumpi\n    /* \"#utility.yul\":10111:10112   */\n  0x00\n    /* \"#utility.yul\":10108:10109   */\n  dup1\n    /* \"#utility.yul\":10101:10113   */\n  revert\n    /* \"#utility.yul\":10052:10115   */\ntag_169:\n    /* \"#utility.yul\":9999:10121   */\n  pop\n  jump\t// out\n    /* \"#utility.yul\":10127:10249   */\ntag_85:\n    /* \"#utility.yul\":10200:10224   */\n  tag_171\n    /* \"#utility.yul\":10218:10223   */\n  dup2\n    /* \"#utility.yul\":10200:10224   */\n  tag_136\n  jump\t// in\ntag_171:\n    /* \"#utility.yul\":10193:10198   */\n  dup2\n    /* \"#utility.yul\":10190:10225   */\n  eq\n    /* \"#utility.yul\":10180:10243   */\n  tag_172\n  jumpi\n    /* \"#utility.yul\":10239:10240   */\n  0x00\n    /* \"#utility.yul\":10236:10237   */\n  dup1\n    /* \"#utility.yul\":10229:10241   */\n  revert\n    /* \"#utility.yul\":10180:10243   */\ntag_172:\n    /* \"#utility.yul\":10127:10249   */\n  pop\n  jump\t// out\n    /* \"contracts/TokenSplitter.sol\":438:4537  contract TokenSplitter is Ownable, ReentrancyGuard {\r... */\ntag_39:\n  mload(0x80)\n  shr(0x60, mload(0xa0))\n  codecopy(0x00, dataOffset(sub_0), dataSize(sub_0))\n  0x00\n  assignImmutable(\"0x588e5ad3f145f9d841773d4229bac23d743ef980914ad5d2b613712259f67f55\")\n  0x00\n  assignImmutable(\"0xadda5d3d116db89da9e084ab1b2cc501d795d98d1503f1026c7e065d5d1e5ce7\")\n  return(0x00, dataSize(sub_0))\nstop\n\nsub_0: assembly {\n        /* \"contracts/TokenSplitter.sol\":438:4537  contract TokenSplitter is Ownable, ReentrancyGuard {\r... */\n      mstore(0x40, 0x80)\n      callvalue\n      dup1\n      iszero\n      tag_1\n      jumpi\n      0x00\n      dup1\n      revert\n    tag_1:\n      pop\n      jumpi(tag_2, lt(calldatasize, 0x04))\n      shr(0xe0, calldataload(0x00))\n      dup1\n      0x87b0be48\n      gt\n      tag_13\n      jumpi\n      dup1\n      0x87b0be48\n      eq\n      tag_8\n      jumpi\n      dup1\n      0x8da5cb5b\n      eq\n      tag_9\n      jumpi\n      dup1\n      0xa7310b58\n      eq\n      tag_10\n      jumpi\n      dup1\n      0xd8f163ab\n      eq\n      tag_11\n      jumpi\n      dup1\n      0xf2fde38b\n      eq\n      tag_12\n      jumpi\n      jump(tag_2)\n    tag_13:\n      dup1\n      0x097aad10\n      eq\n      tag_3\n      jumpi\n      dup1\n      0x19281afd\n      eq\n      tag_4\n      jumpi\n      dup1\n      0x36db9fb2\n      eq\n      tag_5\n      jumpi\n      dup1\n      0x715018a6\n      eq\n      tag_6\n      jumpi\n      dup1\n      0x85e3f997\n      eq\n      tag_7\n      jumpi\n    tag_2:\n      0x00\n      dup1\n      revert\n        /* \"contracts/TokenSplitter.sol\":4053:4534  function calculatePendingRewards(address account) external view returns (uint256) {\r... */\n    tag_3:\n      tag_14\n      0x04\n      dup1\n      calldatasize\n      sub\n      dup2\n      add\n      swap1\n      tag_15\n      swap2\n      swap1\n      tag_16\n      jump\t// in\n    tag_15:\n      tag_17\n      jump\t// in\n    tag_14:\n      mload(0x40)\n      tag_18\n      swap2\n      swap1\n      tag_19\n      jump\t// in\n    tag_18:\n      mload(0x40)\n      dup1\n      swap2\n      sub\n      swap1\n      return\n        /* \"contracts/TokenSplitter.sol\":3109:3909  function updateSharesOwner(address _newRecipient, address _currentRecipient) external onlyOwner {\r... */\n    tag_4:\n      tag_20\n      0x04\n      dup1\n      calldatasize\n      sub\n      dup2\n      add\n      swap1\n      tag_21\n      swap2\n      swap1\n      tag_22\n      jump\t// in\n    tag_21:\n      tag_23\n      jump\t// in\n    tag_20:\n      stop\n        /* \"contracts/TokenSplitter.sol\":682:720  IERC20 public immutable looksRareToken */\n    tag_5:\n      tag_24\n      tag_25\n      jump\t// in\n    tag_24:\n      mload(0x40)\n      tag_26\n      swap2\n      swap1\n      tag_27\n      jump\t// in\n    tag_26:\n      mload(0x40)\n      dup1\n      swap2\n      sub\n      swap1\n      return\n        /* \"@openzeppelin/contracts/access/Ownable.sol\":1668:1769  function renounceOwnership() public virtual onlyOwner {... */\n    tag_6:\n      tag_28\n      tag_29\n      jump\t// in\n    tag_28:\n      stop\n        /* \"contracts/TokenSplitter.sol\":636:673  uint256 public immutable TOTAL_SHARES */\n    tag_7:\n      tag_30\n      tag_31\n      jump\t// in\n    tag_30:\n      mload(0x40)\n      tag_32\n      swap2\n      swap1\n      tag_19\n      jump\t// in\n    tag_32:\n      mload(0x40)\n      dup1\n      swap2\n      sub\n      swap1\n      return\n        /* \"contracts/TokenSplitter.sol\":2036:2920  function releaseTokens(address account) external nonReentrant {\r... */\n    tag_8:\n      tag_33\n      0x04\n      dup1\n      calldatasize\n      sub\n      dup2\n      add\n      swap1\n      tag_34\n      swap2\n      swap1\n      tag_16\n      jump\t// in\n    tag_34:\n      tag_35\n      jump\t// in\n    tag_33:\n      stop\n        /* \"@openzeppelin/contracts/access/Ownable.sol\":1036:1121  function owner() public view virtual returns (address) {... */\n    tag_9:\n      tag_36\n      tag_37\n      jump\t// in\n    tag_36:\n      mload(0x40)\n      tag_38\n      swap2\n      swap1\n      tag_39\n      jump\t// in\n    tag_38:\n      mload(0x40)\n      dup1\n      swap2\n      sub\n      swap1\n      return\n        /* \"contracts/TokenSplitter.sol\":834:884  mapping(address => AccountInfo) public accountInfo */\n    tag_10:\n      tag_40\n      0x04\n      dup1\n      calldatasize\n      sub\n      dup2\n      add\n      swap1\n      tag_41\n      swap2\n      swap1\n      tag_16\n      jump\t// in\n    tag_41:\n      tag_42\n      jump\t// in\n    tag_40:\n      mload(0x40)\n      tag_43\n      swap3\n      swap2\n      swap1\n      tag_44\n      jump\t// in\n    tag_43:\n      mload(0x40)\n      dup1\n      swap2\n      sub\n      swap1\n      return\n        /* \"contracts/TokenSplitter.sol\":788:825  uint256 public totalTokensDistributed */\n    tag_11:\n      tag_45\n      tag_46\n      jump\t// in\n    tag_45:\n      mload(0x40)\n      tag_47\n      swap2\n      swap1\n      tag_19\n      jump\t// in\n    tag_47:\n      mload(0x40)\n      dup1\n      swap2\n      sub\n      swap1\n      return\n        /* \"@openzeppelin/contracts/access/Ownable.sol\":1918:2116  function transferOwnership(address newOwner) public virtual onlyOwner {... */\n    tag_12:\n      tag_48\n      0x04\n      dup1\n      calldatasize\n      sub\n      dup2\n      add\n      swap1\n      tag_49\n      swap2\n      swap1\n      tag_16\n      jump\t// in\n    tag_49:\n      tag_50\n      jump\t// in\n    tag_48:\n      stop\n        /* \"contracts/TokenSplitter.sol\":4053:4534  function calculatePendingRewards(address account) external view returns (uint256) {\r... */\n    tag_17:\n        /* \"contracts/TokenSplitter.sol\":4126:4133  uint256 */\n      0x00\n        /* \"contracts/TokenSplitter.sol\":4181:4182  0 */\n      dup1\n        /* \"contracts/TokenSplitter.sol\":4150:4161  accountInfo */\n      0x03\n        /* \"contracts/TokenSplitter.sol\":4150:4170  accountInfo[account] */\n      0x00\n        /* \"contracts/TokenSplitter.sol\":4162:4169  account */\n      dup5\n        /* \"contracts/TokenSplitter.sol\":4150:4170  accountInfo[account] */\n      0xffffffffffffffffffffffffffffffffffffffff\n      and\n      0xffffffffffffffffffffffffffffffffffffffff\n      and\n      dup2\n      mstore\n      0x20\n      add\n      swap1\n      dup2\n      mstore\n      0x20\n      add\n      0x00\n      keccak256\n        /* \"contracts/TokenSplitter.sol\":4150:4177  accountInfo[account].shares */\n      0x00\n      add\n      sload\n        /* \"contracts/TokenSplitter.sol\":4150:4182  accountInfo[account].shares == 0 */\n      eq\n        /* \"contracts/TokenSplitter.sol\":4146:4219  if (accountInfo[account].shares == 0) {\r... */\n      iszero\n      tag_52\n      jumpi\n        /* \"contracts/TokenSplitter.sol\":4206:4207  0 */\n      0x00\n        /* \"contracts/TokenSplitter.sol\":4199:4207  return 0 */\n      swap1\n      pop\n      jump(tag_51)\n        /* \"contracts/TokenSplitter.sol\":4146:4219  if (accountInfo[account].shares == 0) {\r... */\n    tag_52:\n        /* \"contracts/TokenSplitter.sol\":4231:4258  uint256 totalTokensReceived */\n      0x00\n        /* \"contracts/TokenSplitter.sol\":4303:4325  totalTokensDistributed */\n      sload(0x02)\n        /* \"contracts/TokenSplitter.sol\":4261:4275  looksRareToken */\n      immutable(\"0x588e5ad3f145f9d841773d4229bac23d743ef980914ad5d2b613712259f67f55\")\n        /* \"contracts/TokenSplitter.sol\":4261:4285  looksRareToken.balanceOf */\n      0xffffffffffffffffffffffffffffffffffffffff\n      and\n      0x70a08231\n        /* \"contracts/TokenSplitter.sol\":4294:4298  this */\n      address\n        /* \"contracts/TokenSplitter.sol\":4261:4300  looksRareToken.balanceOf(address(this)) */\n      mload(0x40)\n      dup3\n      0xffffffff\n      and\n      0xe0\n      shl\n      dup2\n      mstore\n      0x04\n      add\n      tag_53\n      swap2\n      swap1\n      tag_39\n      jump\t// in\n    tag_53:\n      0x20\n      mload(0x40)\n      dup1\n      dup4\n      sub\n      dup2\n      dup7\n      dup1\n      extcodesize\n      iszero\n      dup1\n      iszero\n      tag_54\n      jumpi\n      0x00\n      dup1\n      revert\n    tag_54:\n      pop\n      gas\n      staticcall\n      iszero\n      dup1\n      iszero\n      tag_56\n      jumpi\n      returndatasize\n      0x00\n      dup1\n      returndatacopy\n      revert(0x00, returndatasize)\n    tag_56:\n      pop\n      pop\n      pop\n      pop\n      mload(0x40)\n      returndatasize\n      not(0x1f)\n      0x1f\n      dup3\n      add\n      and\n      dup3\n      add\n      dup1\n      0x40\n      mstore\n      pop\n      dup2\n      add\n      swap1\n      tag_57\n      swap2\n      swap1\n      tag_58\n      jump\t// in\n    tag_57:\n        /* \"contracts/TokenSplitter.sol\":4261:4325  looksRareToken.balanceOf(address(this)) + totalTokensDistributed */\n      tag_59\n      swap2\n      swap1\n      tag_60\n      jump\t// in\n    tag_59:\n        /* \"contracts/TokenSplitter.sol\":4231:4325  uint256 totalTokensReceived = looksRareToken.balanceOf(address(this)) + totalTokensDistributed */\n      swap1\n      pop\n        /* \"contracts/TokenSplitter.sol\":4336:4358  uint256 pendingRewards */\n      0x00\n        /* \"contracts/TokenSplitter.sol\":4445:4456  accountInfo */\n      0x03\n        /* \"contracts/TokenSplitter.sol\":4445:4465  accountInfo[account] */\n      0x00\n        /* \"contracts/TokenSplitter.sol\":4457:4464  account */\n      dup6\n        /* \"contracts/TokenSplitter.sol\":4445:4465  accountInfo[account] */\n      0xffffffffffffffffffffffffffffffffffffffff\n      and\n      0xffffffffffffffffffffffffffffffffffffffff\n      and\n      dup2\n      mstore\n      0x20\n      add\n      swap1\n      dup2\n      mstore\n      0x20\n      add\n      0x00\n      keccak256\n        /* \"contracts/TokenSplitter.sol\":4445:4492  accountInfo[account].tokensDistributedToAccount */\n      0x01\n      add\n      sload\n        /* \"contracts/TokenSplitter.sol\":4416:4428  TOTAL_SHARES */\n      immutable(\"0xadda5d3d116db89da9e084ab1b2cc501d795d98d1503f1026c7e065d5d1e5ce7\")\n        /* \"contracts/TokenSplitter.sol\":4385:4396  accountInfo */\n      0x03\n        /* \"contracts/TokenSplitter.sol\":4385:4405  accountInfo[account] */\n      0x00\n        /* \"contracts/TokenSplitter.sol\":4397:4404  account */\n      dup8\n        /* \"contracts/TokenSplitter.sol\":4385:4405  accountInfo[account] */\n      0xffffffffffffffffffffffffffffffffffffffff\n      and\n      0xffffffffffffffffffffffffffffffffffffffff\n      and\n      dup2\n      mstore\n      0x20\n      add\n      swap1\n      dup2\n      mstore\n      0x20\n      add\n      0x00\n      keccak256\n        /* \"contracts/TokenSplitter.sol\":4385:4412  accountInfo[account].shares */\n      0x00\n      add\n      sload\n        /* \"contracts/TokenSplitter.sol\":4363:4382  totalTokensReceived */\n      dup5\n        /* \"contracts/TokenSplitter.sol\":4363:4412  totalTokensReceived * accountInfo[account].shares */\n      tag_61\n      swap2\n      swap1\n      tag_62\n      jump\t// in\n    tag_61:\n        /* \"contracts/TokenSplitter.sol\":4362:4428  (totalTokensReceived * accountInfo[account].shares) / TOTAL_SHARES */\n      tag_63\n      swap2\n      swap1\n      tag_64\n      jump\t// in\n    tag_63:\n        /* \"contracts/TokenSplitter.sol\":4361:4492  ((totalTokensReceived * accountInfo[account].shares) / TOTAL_SHARES) -\r... */\n      tag_65\n      swap2\n      swap1\n      tag_66\n      jump\t// in\n    tag_65:\n        /* \"contracts/TokenSplitter.sol\":4336:4492  uint256 pendingRewards = ((totalTokensReceived * accountInfo[account].shares) / TOTAL_SHARES) -\r... */\n      swap1\n      pop\n        /* \"contracts/TokenSplitter.sol\":4512:4526  pendingRewards */\n      dup1\n        /* \"contracts/TokenSplitter.sol\":4505:4526  return pendingRewards */\n      swap3\n      pop\n      pop\n      pop\n        /* \"contracts/TokenSplitter.sol\":4053:4534  function calculatePendingRewards(address account) external view returns (uint256) {\r... */\n    tag_51:\n      swap2\n      swap1\n      pop\n      jump\t// out\n        /* \"contracts/TokenSplitter.sol\":3109:3909  function updateSharesOwner(address _newRecipient, address _currentRecipient) external onlyOwner {\r... */\n    tag_23:\n        /* \"@openzeppelin/contracts/access/Ownable.sol\":1259:1271  _msgSender() */\n      tag_68\n        /* \"@openzeppelin/contracts/access/Ownable.sol\":1259:1269  _msgSender */\n      tag_69\n        /* \"@openzeppelin/contracts/access/Ownable.sol\":1259:1271  _msgSender() */\n      jump\t// in\n    tag_68:\n        /* \"@openzeppelin/contracts/access/Ownable.sol\":1248:1271  owner() == _msgSender() */\n      0xffffffffffffffffffffffffffffffffffffffff\n      and\n        /* \"@openzeppelin/contracts/access/Ownable.sol\":1248:1255  owner() */\n      tag_70\n        /* \"@openzeppelin/contracts/access/Ownable.sol\":1248:1253  owner */\n      tag_37\n        /* \"@openzeppelin/contracts/access/Ownable.sol\":1248:1255  owner() */\n      jump\t// in\n    tag_70:\n        /* \"@openzeppelin/contracts/access/Ownable.sol\":1248:1271  owner() == _msgSender() */\n      0xffffffffffffffffffffffffffffffffffffffff\n      and\n      eq\n        /* \"@openzeppelin/contracts/access/Ownable.sol\":1240:1308  require(owner() == _msgSender(), \"Ownable: caller is not the owner\") */\n      tag_71\n      jumpi\n      mload(0x40)\n      0x08c379a000000000000000000000000000000000000000000000000000000000\n      dup2\n      mstore\n      0x04\n      add\n      tag_72\n      swap1\n      tag_73\n      jump\t// in\n    tag_72:\n      mload(0x40)\n      dup1\n      swap2\n      sub\n      swap1\n      revert\n    tag_71:\n        /* \"contracts/TokenSplitter.sol\":3264:3265  0 */\n      0x00\n        /* \"contracts/TokenSplitter.sol\":3224:3235  accountInfo */\n      0x03\n        /* \"contracts/TokenSplitter.sol\":3224:3254  accountInfo[_currentRecipient] */\n      0x00\n        /* \"contracts/TokenSplitter.sol\":3236:3253  _currentRecipient */\n      dup4\n        /* \"contracts/TokenSplitter.sol\":3224:3254  accountInfo[_currentRecipient] */\n      0xffffffffffffffffffffffffffffffffffffffff\n      and\n      0xffffffffffffffffffffffffffffffffffffffff\n      and\n      dup2\n      mstore\n      0x20\n      add\n      swap1\n      dup2\n      mstore\n      0x20\n      add\n      0x00\n      keccak256\n        /* \"contracts/TokenSplitter.sol\":3224:3261  accountInfo[_currentRecipient].shares */\n      0x00\n      add\n      sload\n        /* \"contracts/TokenSplitter.sol\":3224:3265  accountInfo[_currentRecipient].shares > 0 */\n      gt\n        /* \"contracts/TokenSplitter.sol\":3216:3308  require(accountInfo[_currentRecipient].shares > 0, \"Owner: Current recipient has no shares\") */\n      tag_75\n      jumpi\n      mload(0x40)\n      0x08c379a000000000000000000000000000000000000000000000000000000000\n      dup2\n      mstore\n      0x04\n      add\n      tag_76\n      swap1\n      tag_77\n      jump\t// in\n    tag_76:\n      mload(0x40)\n      dup1\n      swap2\n      sub\n      swap1\n      revert\n    tag_75:\n        /* \"contracts/TokenSplitter.sol\":3364:3365  0 */\n      0x00\n        /* \"contracts/TokenSplitter.sol\":3327:3338  accountInfo */\n      0x03\n        /* \"contracts/TokenSplitter.sol\":3327:3353  accountInfo[_newRecipient] */\n      0x00\n        /* \"contracts/TokenSplitter.sol\":3339:3352  _newRecipient */\n      dup5\n        /* \"contracts/TokenSplitter.sol\":3327:3353  accountInfo[_newRecipient] */\n      0xffffffffffffffffffffffffffffffffffffffff\n      and\n      0xffffffffffffffffffffffffffffffffffffffff\n      and\n      dup2\n      mstore\n      0x20\n      add\n      swap1\n      dup2\n      mstore\n      0x20\n      add\n      0x00\n      keccak256\n        /* \"contracts/TokenSplitter.sol\":3327:3360  accountInfo[_newRecipient].shares */\n      0x00\n      add\n      sload\n        /* \"contracts/TokenSplitter.sol\":3327:3365  accountInfo[_newRecipient].shares == 0 */\n      eq\n        /* \"contracts/TokenSplitter.sol\":3319:3410  require(accountInfo[_newRecipient].shares == 0, \"Owner: New recipient has existing shares\") */\n      tag_78\n      jumpi\n      mload(0x40)\n      0x08c379a000000000000000000000000000000000000000000000000000000000\n      dup2\n      mstore\n      0x04\n      add\n      tag_79\n      swap1\n      tag_80\n      jump\t// in\n    tag_79:\n      mload(0x40)\n      dup1\n      swap2\n      sub\n      swap1\n      revert\n    tag_78:\n        /* \"contracts/TokenSplitter.sol\":3500:3511  accountInfo */\n      0x03\n        /* \"contracts/TokenSplitter.sol\":3500:3530  accountInfo[_currentRecipient] */\n      0x00\n        /* \"contracts/TokenSplitter.sol\":3512:3529  _currentRecipient */\n      dup3\n        /* \"contracts/TokenSplitter.sol\":3500:3530  accountInfo[_currentRecipient] */\n      0xffffffffffffffffffffffffffffffffffffffff\n      and\n      0xffffffffffffffffffffffffffffffffffffffff\n      and\n      dup2\n      mstore\n      0x20\n      add\n      swap1\n      dup2\n      mstore\n      0x20\n      add\n      0x00\n      keccak256\n        /* \"contracts/TokenSplitter.sol\":3500:3537  accountInfo[_currentRecipient].shares */\n      0x00\n      add\n      sload\n        /* \"contracts/TokenSplitter.sol\":3464:3475  accountInfo */\n      0x03\n        /* \"contracts/TokenSplitter.sol\":3464:3490  accountInfo[_newRecipient] */\n      0x00\n        /* \"contracts/TokenSplitter.sol\":3476:3489  _newRecipient */\n      dup5\n        /* \"contracts/TokenSplitter.sol\":3464:3490  accountInfo[_newRecipient] */\n      0xffffffffffffffffffffffffffffffffffffffff\n      and\n      0xffffffffffffffffffffffffffffffffffffffff\n      and\n      dup2\n      mstore\n      0x20\n      add\n      swap1\n      dup2\n      mstore\n      0x20\n      add\n      0x00\n      keccak256\n        /* \"contracts/TokenSplitter.sol\":3464:3497  accountInfo[_newRecipient].shares */\n      0x00\n      add\n        /* \"contracts/TokenSplitter.sol\":3464:3537  accountInfo[_newRecipient].shares = accountInfo[_currentRecipient].shares */\n      dup2\n      swap1\n      sstore\n      pop\n        /* \"contracts/TokenSplitter.sol\":3604:3615  accountInfo */\n      0x03\n        /* \"contracts/TokenSplitter.sol\":3604:3634  accountInfo[_currentRecipient] */\n      0x00\n        /* \"contracts/TokenSplitter.sol\":3616:3633  _currentRecipient */\n      dup3\n        /* \"contracts/TokenSplitter.sol\":3604:3634  accountInfo[_currentRecipient] */\n      0xffffffffffffffffffffffffffffffffffffffff\n      and\n      0xffffffffffffffffffffffffffffffffffffffff\n      and\n      dup2\n      mstore\n      0x20\n      add\n      swap1\n      dup2\n      mstore\n      0x20\n      add\n      0x00\n      keccak256\n        /* \"contracts/TokenSplitter.sol\":3604:3675  accountInfo[_currentRecipient]\r... */\n      0x01\n      add\n      sload\n        /* \"contracts/TokenSplitter.sol\":3548:3559  accountInfo */\n      0x03\n        /* \"contracts/TokenSplitter.sol\":3548:3574  accountInfo[_newRecipient] */\n      0x00\n        /* \"contracts/TokenSplitter.sol\":3560:3573  _newRecipient */\n      dup5\n        /* \"contracts/TokenSplitter.sol\":3548:3574  accountInfo[_newRecipient] */\n      0xffffffffffffffffffffffffffffffffffffffff\n      and\n      0xffffffffffffffffffffffffffffffffffffffff\n      and\n      dup2\n      mstore\n      0x20\n      add\n      swap1\n      dup2\n      mstore\n      0x20\n      add\n      0x00\n      keccak256\n        /* \"contracts/TokenSplitter.sol\":3548:3601  accountInfo[_newRecipient].tokensDistributedToAccount */\n      0x01\n      add\n        /* \"contracts/TokenSplitter.sol\":3548:3675  accountInfo[_newRecipient].tokensDistributedToAccount = accountInfo[_currentRecipient]\r... */\n      dup2\n      swap1\n      sstore\n      pop\n        /* \"contracts/TokenSplitter.sol\":3762:3763  0 */\n      0x00\n        /* \"contracts/TokenSplitter.sol\":3722:3733  accountInfo */\n      0x03\n        /* \"contracts/TokenSplitter.sol\":3722:3752  accountInfo[_currentRecipient] */\n      0x00\n        /* \"contracts/TokenSplitter.sol\":3734:3751  _currentRecipient */\n      dup4\n        /* \"contracts/TokenSplitter.sol\":3722:3752  accountInfo[_currentRecipient] */\n      0xffffffffffffffffffffffffffffffffffffffff\n      and\n      0xffffffffffffffffffffffffffffffffffffffff\n      and\n      dup2\n      mstore\n      0x20\n      add\n      swap1\n      dup2\n      mstore\n      0x20\n      add\n      0x00\n      keccak256\n        /* \"contracts/TokenSplitter.sol\":3722:3759  accountInfo[_currentRecipient].shares */\n      0x00\n      add\n        /* \"contracts/TokenSplitter.sol\":3722:3763  accountInfo[_currentRecipient].shares = 0 */\n      dup2\n      swap1\n      sstore\n      pop\n        /* \"contracts/TokenSplitter.sol\":3834:3835  0 */\n      0x00\n        /* \"contracts/TokenSplitter.sol\":3774:3785  accountInfo */\n      0x03\n        /* \"contracts/TokenSplitter.sol\":3774:3804  accountInfo[_currentRecipient] */\n      0x00\n        /* \"contracts/TokenSplitter.sol\":3786:3803  _currentRecipient */\n      dup4\n        /* \"contracts/TokenSplitter.sol\":3774:3804  accountInfo[_currentRecipient] */\n      0xffffffffffffffffffffffffffffffffffffffff\n      and\n      0xffffffffffffffffffffffffffffffffffffffff\n      and\n      dup2\n      mstore\n      0x20\n      add\n      swap1\n      dup2\n      mstore\n      0x20\n      add\n      0x00\n      keccak256\n        /* \"contracts/TokenSplitter.sol\":3774:3831  accountInfo[_currentRecipient].tokensDistributedToAccount */\n      0x01\n      add\n        /* \"contracts/TokenSplitter.sol\":3774:3835  accountInfo[_currentRecipient].tokensDistributedToAccount = 0 */\n      dup2\n      swap1\n      sstore\n      pop\n        /* \"contracts/TokenSplitter.sol\":3887:3900  _newRecipient */\n      dup2\n        /* \"contracts/TokenSplitter.sol\":3853:3901  NewSharesOwner(_currentRecipient, _newRecipient) */\n      0xffffffffffffffffffffffffffffffffffffffff\n      and\n        /* \"contracts/TokenSplitter.sol\":3868:3885  _currentRecipient */\n      dup2\n        /* \"contracts/TokenSplitter.sol\":3853:3901  NewSharesOwner(_currentRecipient, _newRecipient) */\n      0xffffffffffffffffffffffffffffffffffffffff\n      and\n      0x47eba4993da31bfed0680c802fb8577f1a9d57bb4c0881372fbe7ad29995a880\n      mload(0x40)\n      mload(0x40)\n      dup1\n      swap2\n      sub\n      swap1\n      log3\n        /* \"contracts/TokenSplitter.sol\":3109:3909  function updateSharesOwner(address _newRecipient, address _currentRecipient) external onlyOwner {\r... */\n      pop\n      pop\n      jump\t// out\n        /* \"contracts/TokenSplitter.sol\":682:720  IERC20 public immutable looksRareToken */\n    tag_25:\n      immutable(\"0x588e5ad3f145f9d841773d4229bac23d743ef980914ad5d2b613712259f67f55\")\n      dup2\n      jump\t// out\n        /* \"@openzeppelin/contracts/access/Ownable.sol\":1668:1769  function renounceOwnership() public virtual onlyOwner {... */\n    tag_29:\n        /* \"@openzeppelin/contracts/access/Ownable.sol\":1259:1271  _msgSender() */\n      tag_82\n        /* \"@openzeppelin/contracts/access/Ownable.sol\":1259:1269  _msgSender */\n      tag_69\n        /* \"@openzeppelin/contracts/access/Ownable.sol\":1259:1271  _msgSender() */\n      jump\t// in\n    tag_82:\n        /* \"@openzeppelin/contracts/access/Ownable.sol\":1248:1271  owner() == _msgSender() */\n      0xffffffffffffffffffffffffffffffffffffffff\n      and\n        /* \"@openzeppelin/contracts/access/Ownable.sol\":1248:1255  owner() */\n      tag_83\n        /* \"@openzeppelin/contracts/access/Ownable.sol\":1248:1253  owner */\n      tag_37\n        /* \"@openzeppelin/contracts/access/Ownable.sol\":1248:1255  owner() */\n      jump\t// in\n    tag_83:\n        /* \"@openzeppelin/contracts/access/Ownable.sol\":1248:1271  owner() == _msgSender() */\n      0xffffffffffffffffffffffffffffffffffffffff\n      and\n      eq\n        /* \"@openzeppelin/contracts/access/Ownable.sol\":1240:1308  require(owner() == _msgSender(), \"Ownable: caller is not the owner\") */\n      tag_84\n      jumpi\n      mload(0x40)\n      0x08c379a000000000000000000000000000000000000000000000000000000000\n      dup2\n      mstore\n      0x04\n      add\n      tag_85\n      swap1\n      tag_73\n      jump\t// in\n    tag_85:\n      mload(0x40)\n      dup1\n      swap2\n      sub\n      swap1\n      revert\n    tag_84:\n        /* \"@openzeppelin/contracts/access/Ownable.sol\":1732:1762  _transferOwnership(address(0)) */\n      tag_87\n        /* \"@openzeppelin/contracts/access/Ownable.sol\":1759:1760  0 */\n      0x00\n        /* \"@openzeppelin/contracts/access/Ownable.sol\":1732:1750  _transferOwnership */\n      tag_88\n        /* \"@openzeppelin/contracts/access/Ownable.sol\":1732:1762  _transferOwnership(address(0)) */\n      jump\t// in\n    tag_87:\n        /* \"@openzeppelin/contracts/access/Ownable.sol\":1668:1769  function renounceOwnership() public virtual onlyOwner {... */\n      jump\t// out\n        /* \"contracts/TokenSplitter.sol\":636:673  uint256 public immutable TOTAL_SHARES */\n    tag_31:\n      immutable(\"0xadda5d3d116db89da9e084ab1b2cc501d795d98d1503f1026c7e065d5d1e5ce7\")\n      dup2\n      jump\t// out\n        /* \"contracts/TokenSplitter.sol\":2036:2920  function releaseTokens(address account) external nonReentrant {\r... */\n    tag_35:\n        /* \"@openzeppelin/contracts/security/ReentrancyGuard.sol\":1744:1745  2 */\n      0x02\n        /* \"@openzeppelin/contracts/security/ReentrancyGuard.sol\":2325:2332  _status */\n      sload(0x01)\n        /* \"@openzeppelin/contracts/security/ReentrancyGuard.sol\":2325:2344  _status != _ENTERED */\n      eq\n      iszero\n        /* \"@openzeppelin/contracts/security/ReentrancyGuard.sol\":2317:2380  require(_status != _ENTERED, \"ReentrancyGuard: reentrant call\") */\n      tag_90\n      jumpi\n      mload(0x40)\n      0x08c379a000000000000000000000000000000000000000000000000000000000\n      dup2\n      mstore\n      0x04\n      add\n      tag_91\n      swap1\n      tag_92\n      jump\t// in\n    tag_91:\n      mload(0x40)\n      dup1\n      swap2\n      sub\n      swap1\n      revert\n    tag_90:\n        /* \"@openzeppelin/contracts/security/ReentrancyGuard.sol\":1744:1745  2 */\n      0x02\n        /* \"@openzeppelin/contracts/security/ReentrancyGuard.sol\":2455:2462  _status */\n      0x01\n        /* \"@openzeppelin/contracts/security/ReentrancyGuard.sol\":2455:2473  _status = _ENTERED */\n      dup2\n      swap1\n      sstore\n      pop\n        /* \"contracts/TokenSplitter.sol\":2147:2148  0 */\n      0x00\n        /* \"contracts/TokenSplitter.sol\":2117:2128  accountInfo */\n      0x03\n        /* \"contracts/TokenSplitter.sol\":2117:2137  accountInfo[account] */\n      0x00\n        /* \"contracts/TokenSplitter.sol\":2129:2136  account */\n      dup4\n        /* \"contracts/TokenSplitter.sol\":2117:2137  accountInfo[account] */\n      0xffffffffffffffffffffffffffffffffffffffff\n      and\n      0xffffffffffffffffffffffffffffffffffffffff\n      and\n      dup2\n      mstore\n      0x20\n      add\n      swap1\n      dup2\n      mstore\n      0x20\n      add\n      0x00\n      keccak256\n        /* \"contracts/TokenSplitter.sol\":2117:2144  accountInfo[account].shares */\n      0x00\n      add\n      sload\n        /* \"contracts/TokenSplitter.sol\":2117:2148  accountInfo[account].shares > 0 */\n      gt\n        /* \"contracts/TokenSplitter.sol\":2109:2183  require(accountInfo[account].shares > 0, \"Splitter: Account has no share\") */\n      tag_94\n      jumpi\n      mload(0x40)\n      0x08c379a000000000000000000000000000000000000000000000000000000000\n      dup2\n      mstore\n      0x04\n      add\n      tag_95\n      swap1\n      tag_96\n      jump\t// in\n    tag_95:\n      mload(0x40)\n      dup1\n      swap2\n      sub\n      swap1\n      revert\n    tag_94:\n        /* \"contracts/TokenSplitter.sol\":2252:2279  uint256 totalTokensReceived */\n      0x00\n        /* \"contracts/TokenSplitter.sol\":2324:2346  totalTokensDistributed */\n      sload(0x02)\n        /* \"contracts/TokenSplitter.sol\":2282:2296  looksRareToken */\n      immutable(\"0x588e5ad3f145f9d841773d4229bac23d743ef980914ad5d2b613712259f67f55\")\n        /* \"contracts/TokenSplitter.sol\":2282:2306  looksRareToken.balanceOf */\n      0xffffffffffffffffffffffffffffffffffffffff\n      and\n      0x70a08231\n        /* \"contracts/TokenSplitter.sol\":2315:2319  this */\n      address\n        /* \"contracts/TokenSplitter.sol\":2282:2321  looksRareToken.balanceOf(address(this)) */\n      mload(0x40)\n      dup3\n      0xffffffff\n      and\n      0xe0\n      shl\n      dup2\n      mstore\n      0x04\n      add\n      tag_97\n      swap2\n      swap1\n      tag_39\n      jump\t// in\n    tag_97:\n      0x20\n      mload(0x40)\n      dup1\n      dup4\n      sub\n      dup2\n      dup7\n      dup1\n      extcodesize\n      iszero\n      dup1\n      iszero\n      tag_98\n      jumpi\n      0x00\n      dup1\n      revert\n    tag_98:\n      pop\n      gas\n      staticcall\n      iszero\n      dup1\n      iszero\n      tag_100\n      jumpi\n      returndatasize\n      0x00\n      dup1\n      returndatacopy\n      revert(0x00, returndatasize)\n    tag_100:\n      pop\n      pop\n      pop\n      pop\n      mload(0x40)\n      returndatasize\n      not(0x1f)\n      0x1f\n      dup3\n      add\n      and\n      dup3\n      add\n      dup1\n      0x40\n      mstore\n      pop\n      dup2\n      add\n      swap1\n      tag_101\n      swap2\n      swap1\n      tag_58\n      jump\t// in\n    tag_101:\n        /* \"contracts/TokenSplitter.sol\":2282:2346  looksRareToken.balanceOf(address(this)) + totalTokensDistributed */\n      tag_102\n      swap2\n      swap1\n      tag_60\n      jump\t// in\n    tag_102:\n        /* \"contracts/TokenSplitter.sol\":2252:2346  uint256 totalTokensReceived = looksRareToken.balanceOf(address(this)) + totalTokensDistributed */\n      swap1\n      pop\n        /* \"contracts/TokenSplitter.sol\":2357:2379  uint256 pendingRewards */\n      0x00\n        /* \"contracts/TokenSplitter.sol\":2466:2477  accountInfo */\n      0x03\n        /* \"contracts/TokenSplitter.sol\":2466:2486  accountInfo[account] */\n      0x00\n        /* \"contracts/TokenSplitter.sol\":2478:2485  account */\n      dup5\n        /* \"contracts/TokenSplitter.sol\":2466:2486  accountInfo[account] */\n      0xffffffffffffffffffffffffffffffffffffffff\n      and\n      0xffffffffffffffffffffffffffffffffffffffff\n      and\n      dup2\n      mstore\n      0x20\n      add\n      swap1\n      dup2\n      mstore\n      0x20\n      add\n      0x00\n      keccak256\n        /* \"contracts/TokenSplitter.sol\":2466:2513  accountInfo[account].tokensDistributedToAccount */\n      0x01\n      add\n      sload\n        /* \"contracts/TokenSplitter.sol\":2437:2449  TOTAL_SHARES */\n      immutable(\"0xadda5d3d116db89da9e084ab1b2cc501d795d98d1503f1026c7e065d5d1e5ce7\")\n        /* \"contracts/TokenSplitter.sol\":2406:2417  accountInfo */\n      0x03\n        /* \"contracts/TokenSplitter.sol\":2406:2426  accountInfo[account] */\n      0x00\n        /* \"contracts/TokenSplitter.sol\":2418:2425  account */\n      dup7\n        /* \"contracts/TokenSplitter.sol\":2406:2426  accountInfo[account] */\n      0xffffffffffffffffffffffffffffffffffffffff\n      and\n      0xffffffffffffffffffffffffffffffffffffffff\n      and\n      dup2\n      mstore\n      0x20\n      add\n      swap1\n      dup2\n      mstore\n      0x20\n      add\n      0x00\n      keccak256\n        /* \"contracts/TokenSplitter.sol\":2406:2433  accountInfo[account].shares */\n      0x00\n      add\n      sload\n        /* \"contracts/TokenSplitter.sol\":2384:2403  totalTokensReceived */\n      dup5\n        /* \"contracts/TokenSplitter.sol\":2384:2433  totalTokensReceived * accountInfo[account].shares */\n      tag_103\n      swap2\n      swap1\n      tag_62\n      jump\t// in\n    tag_103:\n        /* \"contracts/TokenSplitter.sol\":2383:2449  (totalTokensReceived * accountInfo[account].shares) / TOTAL_SHARES */\n      tag_104\n      swap2\n      swap1\n      tag_64\n      jump\t// in\n    tag_104:\n        /* \"contracts/TokenSplitter.sol\":2382:2513  ((totalTokensReceived * accountInfo[account].shares) / TOTAL_SHARES) -\r... */\n      tag_105\n      swap2\n      swap1\n      tag_66\n      jump\t// in\n    tag_105:\n        /* \"contracts/TokenSplitter.sol\":2357:2513  uint256 pendingRewards = ((totalTokensReceived * accountInfo[account].shares) / TOTAL_SHARES) -\r... */\n      swap1\n      pop\n        /* \"contracts/TokenSplitter.sol\":2585:2586  0 */\n      0x00\n        /* \"contracts/TokenSplitter.sol\":2567:2581  pendingRewards */\n      dup2\n        /* \"contracts/TokenSplitter.sol\":2567:2586  pendingRewards != 0 */\n      eq\n      iszero\n        /* \"contracts/TokenSplitter.sol\":2559:2620  require(pendingRewards != 0, \"Splitter: Nothing to transfer\") */\n      tag_106\n      jumpi\n      mload(0x40)\n      0x08c379a000000000000000000000000000000000000000000000000000000000\n      dup2\n      mstore\n      0x04\n      add\n      tag_107\n      swap1\n      tag_108\n      jump\t// in\n    tag_107:\n      mload(0x40)\n      dup1\n      swap2\n      sub\n      swap1\n      revert\n    tag_106:\n        /* \"contracts/TokenSplitter.sol\":2684:2698  pendingRewards */\n      dup1\n        /* \"contracts/TokenSplitter.sol\":2633:2644  accountInfo */\n      0x03\n        /* \"contracts/TokenSplitter.sol\":2633:2653  accountInfo[account] */\n      0x00\n        /* \"contracts/TokenSplitter.sol\":2645:2652  account */\n      dup6\n        /* \"contracts/TokenSplitter.sol\":2633:2653  accountInfo[account] */\n      0xffffffffffffffffffffffffffffffffffffffff\n      and\n      0xffffffffffffffffffffffffffffffffffffffff\n      and\n      dup2\n      mstore\n      0x20\n      add\n      swap1\n      dup2\n      mstore\n      0x20\n      add\n      0x00\n      keccak256\n        /* \"contracts/TokenSplitter.sol\":2633:2680  accountInfo[account].tokensDistributedToAccount */\n      0x01\n      add\n      0x00\n        /* \"contracts/TokenSplitter.sol\":2633:2698  accountInfo[account].tokensDistributedToAccount += pendingRewards */\n      dup3\n      dup3\n      sload\n      tag_109\n      swap2\n      swap1\n      tag_60\n      jump\t// in\n    tag_109:\n      swap3\n      pop\n      pop\n      dup2\n      swap1\n      sstore\n      pop\n        /* \"contracts/TokenSplitter.sol\":2735:2749  pendingRewards */\n      dup1\n        /* \"contracts/TokenSplitter.sol\":2709:2731  totalTokensDistributed */\n      0x02\n      0x00\n        /* \"contracts/TokenSplitter.sol\":2709:2749  totalTokensDistributed += pendingRewards */\n      dup3\n      dup3\n      sload\n      tag_110\n      swap2\n      swap1\n      tag_60\n      jump\t// in\n    tag_110:\n      swap3\n      pop\n      pop\n      dup2\n      swap1\n      sstore\n      pop\n        /* \"contracts/TokenSplitter.sol\":2800:2852  looksRareToken.safeTransfer(account, pendingRewards) */\n      tag_111\n        /* \"contracts/TokenSplitter.sol\":2828:2835  account */\n      dup4\n        /* \"contracts/TokenSplitter.sol\":2837:2851  pendingRewards */\n      dup3\n        /* \"contracts/TokenSplitter.sol\":2800:2814  looksRareToken */\n      immutable(\"0x588e5ad3f145f9d841773d4229bac23d743ef980914ad5d2b613712259f67f55\")\n        /* \"contracts/TokenSplitter.sol\":2800:2827  looksRareToken.safeTransfer */\n      0xffffffffffffffffffffffffffffffffffffffff\n      and\n      tag_112\n      swap1\n        /* \"contracts/TokenSplitter.sol\":2800:2852  looksRareToken.safeTransfer(account, pendingRewards) */\n      swap3\n      swap2\n      swap1\n      0xffffffff\n      and\n      jump\t// in\n    tag_111:\n        /* \"contracts/TokenSplitter.sol\":2888:2895  account */\n      dup3\n        /* \"contracts/TokenSplitter.sol\":2870:2912  TokensTransferred(account, pendingRewards) */\n      0xffffffffffffffffffffffffffffffffffffffff\n      and\n      0x12f4533b5cbd2c9f8a0752a2d0b16379af992dbb2a0844a5007a19d983b3a934\n        /* \"contracts/TokenSplitter.sol\":2897:2911  pendingRewards */\n      dup3\n        /* \"contracts/TokenSplitter.sol\":2870:2912  TokensTransferred(account, pendingRewards) */\n      mload(0x40)\n      tag_113\n      swap2\n      swap1\n      tag_19\n      jump\t// in\n    tag_113:\n      mload(0x40)\n      dup1\n      swap2\n      sub\n      swap1\n      log2\n        /* \"contracts/TokenSplitter.sol\":2098:2920  {\r... */\n      pop\n      pop\n        /* \"@openzeppelin/contracts/security/ReentrancyGuard.sol\":1701:1702  1 */\n      0x01\n        /* \"@openzeppelin/contracts/security/ReentrancyGuard.sol\":2628:2635  _status */\n      dup1\n        /* \"@openzeppelin/contracts/security/ReentrancyGuard.sol\":2628:2650  _status = _NOT_ENTERED */\n      dup2\n      swap1\n      sstore\n      pop\n        /* \"contracts/TokenSplitter.sol\":2036:2920  function releaseTokens(address account) external nonReentrant {\r... */\n      pop\n      jump\t// out\n        /* \"@openzeppelin/contracts/access/Ownable.sol\":1036:1121  function owner() public view virtual returns (address) {... */\n    tag_37:\n        /* \"@openzeppelin/contracts/access/Ownable.sol\":1082:1089  address */\n      0x00\n        /* \"@openzeppelin/contracts/access/Ownable.sol\":1108:1114  _owner */\n      dup1\n      0x00\n      swap1\n      sload\n      swap1\n      0x0100\n      exp\n      swap1\n      div\n      0xffffffffffffffffffffffffffffffffffffffff\n      and\n        /* \"@openzeppelin/contracts/access/Ownable.sol\":1101:1114  return _owner */\n      swap1\n      pop\n        /* \"@openzeppelin/contracts/access/Ownable.sol\":1036:1121  function owner() public view virtual returns (address) {... */\n      swap1\n      jump\t// out\n        /* \"contracts/TokenSplitter.sol\":834:884  mapping(address => AccountInfo) public accountInfo */\n    tag_42:\n      mstore(0x20, 0x03)\n      dup1\n      0x00\n      mstore\n      keccak256(0x00, 0x40)\n      0x00\n      swap2\n      pop\n      swap1\n      pop\n      dup1\n      0x00\n      add\n      sload\n      swap1\n      dup1\n      0x01\n      add\n      sload\n      swap1\n      pop\n      dup3\n      jump\t// out\n        /* \"contracts/TokenSplitter.sol\":788:825  uint256 public totalTokensDistributed */\n    tag_46:\n      sload(0x02)\n      dup2\n      jump\t// out\n        /* \"@openzeppelin/contracts/access/Ownable.sol\":1918:2116  function transferOwnership(address newOwner) public virtual onlyOwner {... */\n    tag_50:\n        /* \"@openzeppelin/contracts/access/Ownable.sol\":1259:1271  _msgSender() */\n      tag_116\n        /* \"@openzeppelin/contracts/access/Ownable.sol\":1259:1269  _msgSender */\n      tag_69\n        /* \"@openzeppelin/contracts/access/Ownable.sol\":1259:1271  _msgSender() */\n      jump\t// in\n    tag_116:\n        /* \"@openzeppelin/contracts/access/Ownable.sol\":1248:1271  owner() == _msgSender() */\n      0xffffffffffffffffffffffffffffffffffffffff\n      and\n        /* \"@openzeppelin/contracts/access/Ownable.sol\":1248:1255  owner() */\n      tag_117\n        /* \"@openzeppelin/contracts/access/Ownable.sol\":1248:1253  owner */\n      tag_37\n        /* \"@openzeppelin/contracts/access/Ownable.sol\":1248:1255  owner() */\n      jump\t// in\n    tag_117:\n        /* \"@openzeppelin/contracts/access/Ownable.sol\":1248:1271  owner() == _msgSender() */\n      0xffffffffffffffffffffffffffffffffffffffff\n      and\n      eq\n        /* \"@openzeppelin/contracts/access/Ownable.sol\":1240:1308  require(owner() == _msgSender(), \"Ownable: caller is not the owner\") */\n      tag_118\n      jumpi\n      mload(0x40)\n      0x08c379a000000000000000000000000000000000000000000000000000000000\n      dup2\n      mstore\n      0x04\n      add\n      tag_119\n      swap1\n      tag_73\n      jump\t// in\n    tag_119:\n      mload(0x40)\n      dup1\n      swap2\n      sub\n      swap1\n      revert\n    tag_118:\n        /* \"@openzeppelin/contracts/access/Ownable.sol\":2026:2027  0 */\n      0x00\n        /* \"@openzeppelin/contracts/access/Ownable.sol\":2006:2028  newOwner != address(0) */\n      0xffffffffffffffffffffffffffffffffffffffff\n      and\n        /* \"@openzeppelin/contracts/access/Ownable.sol\":2006:2014  newOwner */\n      dup2\n        /* \"@openzeppelin/contracts/access/Ownable.sol\":2006:2028  newOwner != address(0) */\n      0xffffffffffffffffffffffffffffffffffffffff\n      and\n      eq\n      iszero\n        /* \"@openzeppelin/contracts/access/Ownable.sol\":1998:2071  require(newOwner != address(0), \"Ownable: new owner is the zero address\") */\n      tag_121\n      jumpi\n      mload(0x40)\n      0x08c379a000000000000000000000000000000000000000000000000000000000\n      dup2\n      mstore\n      0x04\n      add\n      tag_122\n      swap1\n      tag_123\n      jump\t// in\n    tag_122:\n      mload(0x40)\n      dup1\n      swap2\n      sub\n      swap1\n      revert\n    tag_121:\n        /* \"@openzeppelin/contracts/access/Ownable.sol\":2081:2109  _transferOwnership(newOwner) */\n      tag_124\n        /* \"@openzeppelin/contracts/access/Ownable.sol\":2100:2108  newOwner */\n      dup2\n        /* \"@openzeppelin/contracts/access/Ownable.sol\":2081:2099  _transferOwnership */\n      tag_88\n        /* \"@openzeppelin/contracts/access/Ownable.sol\":2081:2109  _transferOwnership(newOwner) */\n      jump\t// in\n    tag_124:\n        /* \"@openzeppelin/contracts/access/Ownable.sol\":1918:2116  function transferOwnership(address newOwner) public virtual onlyOwner {... */\n      pop\n      jump\t// out\n        /* \"@openzeppelin/contracts/utils/Context.sol\":640:736  function _msgSender() internal view virtual returns (address) {... */\n    tag_69:\n        /* \"@openzeppelin/contracts/utils/Context.sol\":693:700  address */\n      0x00\n        /* \"@openzeppelin/contracts/utils/Context.sol\":719:729  msg.sender */\n      caller\n        /* \"@openzeppelin/contracts/utils/Context.sol\":712:729  return msg.sender */\n      swap1\n      pop\n        /* \"@openzeppelin/contracts/utils/Context.sol\":640:736  function _msgSender() internal view virtual returns (address) {... */\n      swap1\n      jump\t// out\n        /* \"@openzeppelin/contracts/access/Ownable.sol\":2270:2457  function _transferOwnership(address newOwner) internal virtual {... */\n    tag_88:\n        /* \"@openzeppelin/contracts/access/Ownable.sol\":2343:2359  address oldOwner */\n      0x00\n        /* \"@openzeppelin/contracts/access/Ownable.sol\":2362:2368  _owner */\n      dup1\n      0x00\n      swap1\n      sload\n      swap1\n      0x0100\n      exp\n      swap1\n      div\n      0xffffffffffffffffffffffffffffffffffffffff\n      and\n        /* \"@openzeppelin/contracts/access/Ownable.sol\":2343:2368  address oldOwner = _owner */\n      swap1\n      pop\n        /* \"@openzeppelin/contracts/access/Ownable.sol\":2387:2395  newOwner */\n      dup2\n        /* \"@openzeppelin/contracts/access/Ownable.sol\":2378:2384  _owner */\n      0x00\n      dup1\n        /* \"@openzeppelin/contracts/access/Ownable.sol\":2378:2395  _owner = newOwner */\n      0x0100\n      exp\n      dup2\n      sload\n      dup2\n      0xffffffffffffffffffffffffffffffffffffffff\n      mul\n      not\n      and\n      swap1\n      dup4\n      0xffffffffffffffffffffffffffffffffffffffff\n      and\n      mul\n      or\n      swap1\n      sstore\n      pop\n        /* \"@openzeppelin/contracts/access/Ownable.sol\":2441:2449  newOwner */\n      dup2\n        /* \"@openzeppelin/contracts/access/Ownable.sol\":2410:2450  OwnershipTransferred(oldOwner, newOwner) */\n      0xffffffffffffffffffffffffffffffffffffffff\n      and\n        /* \"@openzeppelin/contracts/access/Ownable.sol\":2431:2439  oldOwner */\n      dup2\n        /* \"@openzeppelin/contracts/access/Ownable.sol\":2410:2450  OwnershipTransferred(oldOwner, newOwner) */\n      0xffffffffffffffffffffffffffffffffffffffff\n      and\n      0x8be0079c531659141344cd1fd0a4f28419497f9722a3daafe3b4186f6b6457e0\n      mload(0x40)\n      mload(0x40)\n      dup1\n      swap2\n      sub\n      swap1\n      log3\n        /* \"@openzeppelin/contracts/access/Ownable.sol\":2333:2457  {... */\n      pop\n        /* \"@openzeppelin/contracts/access/Ownable.sol\":2270:2457  function _transferOwnership(address newOwner) internal virtual {... */\n      pop\n      jump\t// out\n        /* \"@openzeppelin/contracts/token/ERC20/utils/SafeERC20.sol\":701:906  function safeTransfer(... */\n    tag_112:\n        /* \"@openzeppelin/contracts/token/ERC20/utils/SafeERC20.sol\":813:899  _callOptionalReturn(token, abi.encodeWithSelector(token.transfer.selector, to, value)) */\n      tag_128\n        /* \"@openzeppelin/contracts/token/ERC20/utils/SafeERC20.sol\":833:838  token */\n      dup4\n        /* \"@openzeppelin/contracts/token/ERC20/utils/SafeERC20.sol\":863:886  token.transfer.selector */\n      shl(0xe0, 0xa9059cbb)\n        /* \"@openzeppelin/contracts/token/ERC20/utils/SafeERC20.sol\":888:890  to */\n      dup5\n        /* \"@openzeppelin/contracts/token/ERC20/utils/SafeERC20.sol\":892:897  value */\n      dup5\n        /* \"@openzeppelin/contracts/token/ERC20/utils/SafeERC20.sol\":840:898  abi.encodeWithSelector(token.transfer.selector, to, value) */\n      add(0x24, mload(0x40))\n      tag_129\n      swap3\n      swap2\n      swap1\n      tag_130\n      jump\t// in\n    tag_129:\n      mload(0x40)\n      0x20\n      dup2\n      dup4\n      sub\n      sub\n      dup2\n      mstore\n      swap1\n      0x40\n      mstore\n      swap1\n      not(0xffffffffffffffffffffffffffffffffffffffffffffffffffffffff)\n      and\n      0x20\n      dup3\n      add\n      dup1\n      mload\n      0xffffffffffffffffffffffffffffffffffffffffffffffffffffffff\n      dup4\n      dup2\n      dup4\n      and\n      or\n      dup4\n      mstore\n      pop\n      pop\n      pop\n      pop\n        /* \"@openzeppelin/contracts/token/ERC20/utils/SafeERC20.sol\":813:832  _callOptionalReturn */\n      tag_131\n        /* \"@openzeppelin/contracts/token/ERC20/utils/SafeERC20.sol\":813:899  _callOptionalReturn(token, abi.encodeWithSelector(token.transfer.selector, to, value)) */\n      jump\t// in\n    tag_128:\n        /* \"@openzeppelin/contracts/token/ERC20/utils/SafeERC20.sol\":701:906  function safeTransfer(... */\n      pop\n      pop\n      pop\n      jump\t// out\n        /* \"@openzeppelin/contracts/token/ERC20/utils/SafeERC20.sol\":3207:3913  function _callOptionalReturn(IERC20 token, bytes memory data) private {... */\n    tag_131:\n        /* \"@openzeppelin/contracts/token/ERC20/utils/SafeERC20.sol\":3626:3649  bytes memory returndata */\n      0x00\n        /* \"@openzeppelin/contracts/token/ERC20/utils/SafeERC20.sol\":3652:3721  address(token).functionCall(data, \"SafeERC20: low-level call failed\") */\n      tag_133\n        /* \"@openzeppelin/contracts/token/ERC20/utils/SafeERC20.sol\":3680:3684  data */\n      dup3\n        /* \"@openzeppelin/contracts/token/ERC20/utils/SafeERC20.sol\":3652:3721  address(token).functionCall(data, \"SafeERC20: low-level call failed\") */\n      mload(0x40)\n      dup1\n      0x40\n      add\n      0x40\n      mstore\n      dup1\n      0x20\n      dup2\n      mstore\n      0x20\n      add\n      0x5361666545524332303a206c6f772d6c6576656c2063616c6c206661696c6564\n      dup2\n      mstore\n      pop\n        /* \"@openzeppelin/contracts/token/ERC20/utils/SafeERC20.sol\":3660:3665  token */\n      dup6\n        /* \"@openzeppelin/contracts/token/ERC20/utils/SafeERC20.sol\":3652:3679  address(token).functionCall */\n      0xffffffffffffffffffffffffffffffffffffffff\n      and\n      tag_134\n      swap1\n        /* \"@openzeppelin/contracts/token/ERC20/utils/SafeERC20.sol\":3652:3721  address(token).functionCall(data, \"SafeERC20: low-level call failed\") */\n      swap3\n      swap2\n      swap1\n      0xffffffff\n      and\n      jump\t// in\n    tag_133:\n        /* \"@openzeppelin/contracts/token/ERC20/utils/SafeERC20.sol\":3626:3721  bytes memory returndata = address(token).functionCall(data, \"SafeERC20: low-level call failed\") */\n      swap1\n      pop\n        /* \"@openzeppelin/contracts/token/ERC20/utils/SafeERC20.sol\":3755:3756  0 */\n      0x00\n        /* \"@openzeppelin/contracts/token/ERC20/utils/SafeERC20.sol\":3735:3745  returndata */\n      dup2\n        /* \"@openzeppelin/contracts/token/ERC20/utils/SafeERC20.sol\":3735:3752  returndata.length */\n      mload\n        /* \"@openzeppelin/contracts/token/ERC20/utils/SafeERC20.sol\":3735:3756  returndata.length > 0 */\n      gt\n        /* \"@openzeppelin/contracts/token/ERC20/utils/SafeERC20.sol\":3731:3907  if (returndata.length > 0) {... */\n      iszero\n      tag_135\n      jumpi\n        /* \"@openzeppelin/contracts/token/ERC20/utils/SafeERC20.sol\":3830:3840  returndata */\n      dup1\n        /* \"@openzeppelin/contracts/token/ERC20/utils/SafeERC20.sol\":3819:3849  abi.decode(returndata, (bool)) */\n      dup1\n      0x20\n      add\n      swap1\n      mload\n      dup2\n      add\n      swap1\n      tag_136\n      swap2\n      swap1\n      tag_137\n      jump\t// in\n    tag_136:\n        /* \"@openzeppelin/contracts/token/ERC20/utils/SafeERC20.sol\":3811:3896  require(abi.decode(returndata, (bool)), \"SafeERC20: ERC20 operation did not succeed\") */\n      tag_138\n      jumpi\n      mload(0x40)\n      0x08c379a000000000000000000000000000000000000000000000000000000000\n      dup2\n      mstore\n      0x04\n      add\n      tag_139\n      swap1\n      tag_140\n      jump\t// in\n    tag_139:\n      mload(0x40)\n      dup1\n      swap2\n      sub\n      swap1\n      revert\n    tag_138:\n        /* \"@openzeppelin/contracts/token/ERC20/utils/SafeERC20.sol\":3731:3907  if (returndata.length > 0) {... */\n    tag_135:\n        /* \"@openzeppelin/contracts/token/ERC20/utils/SafeERC20.sol\":3277:3913  {... */\n      pop\n        /* \"@openzeppelin/contracts/token/ERC20/utils/SafeERC20.sol\":3207:3913  function _callOptionalReturn(IERC20 token, bytes memory data) private {... */\n      pop\n      pop\n      jump\t// out\n        /* \"@openzeppelin/contracts/utils/Address.sol\":3861:4084  function functionCall(... */\n    tag_134:\n        /* \"@openzeppelin/contracts/utils/Address.sol\":3994:4006  bytes memory */\n      0x60\n        /* \"@openzeppelin/contracts/utils/Address.sol\":4025:4077  functionCallWithValue(target, data, 0, errorMessage) */\n      tag_142\n        /* \"@openzeppelin/contracts/utils/Address.sol\":4047:4053  target */\n      dup5\n        /* \"@openzeppelin/contracts/utils/Address.sol\":4055:4059  data */\n      dup5\n        /* \"@openzeppelin/contracts/utils/Address.sol\":4061:4062  0 */\n      0x00\n        /* \"@openzeppelin/contracts/utils/Address.sol\":4064:4076  errorMessage */\n      dup6\n        /* \"@openzeppelin/contracts/utils/Address.sol\":4025:4046  functionCallWithValue */\n      tag_143\n        /* \"@openzeppelin/contracts/utils/Address.sol\":4025:4077  functionCallWithValue(target, data, 0, errorMessage) */\n      jump\t// in\n    tag_142:\n        /* \"@openzeppelin/contracts/utils/Address.sol\":4018:4077  return functionCallWithValue(target, data, 0, errorMessage) */\n      swap1\n      pop\n        /* \"@openzeppelin/contracts/utils/Address.sol\":3861:4084  function functionCall(... */\n      swap4\n      swap3\n      pop\n      pop\n      pop\n      jump\t// out\n        /* \"@openzeppelin/contracts/utils/Address.sol\":4948:5447  function functionCallWithValue(... */\n    tag_143:\n        /* \"@openzeppelin/contracts/utils/Address.sol\":5113:5125  bytes memory */\n      0x60\n        /* \"@openzeppelin/contracts/utils/Address.sol\":5170:5175  value */\n      dup3\n        /* \"@openzeppelin/contracts/utils/Address.sol\":5145:5166  address(this).balance */\n      selfbalance\n        /* \"@openzeppelin/contracts/utils/Address.sol\":5145:5175  address(this).balance >= value */\n      lt\n      iszero\n        /* \"@openzeppelin/contracts/utils/Address.sol\":5137:5218  require(address(this).balance >= value, \"Address: insufficient balance for call\") */\n      tag_145\n      jumpi\n      mload(0x40)\n      0x08c379a000000000000000000000000000000000000000000000000000000000\n      dup2\n      mstore\n      0x04\n      add\n      tag_146\n      swap1\n      tag_147\n      jump\t// in\n    tag_146:\n      mload(0x40)\n      dup1\n      swap2\n      sub\n      swap1\n      revert\n    tag_145:\n        /* \"@openzeppelin/contracts/utils/Address.sol\":5236:5254  isContract(target) */\n      tag_148\n        /* \"@openzeppelin/contracts/utils/Address.sol\":5247:5253  target */\n      dup6\n        /* \"@openzeppelin/contracts/utils/Address.sol\":5236:5246  isContract */\n      tag_149\n        /* \"@openzeppelin/contracts/utils/Address.sol\":5236:5254  isContract(target) */\n      jump\t// in\n    tag_148:\n        /* \"@openzeppelin/contracts/utils/Address.sol\":5228:5288  require(isContract(target), \"Address: call to non-contract\") */\n      tag_150\n      jumpi\n      mload(0x40)\n      0x08c379a000000000000000000000000000000000000000000000000000000000\n      dup2\n      mstore\n      0x04\n      add\n      tag_151\n      swap1\n      tag_152\n      jump\t// in\n    tag_151:\n      mload(0x40)\n      dup1\n      swap2\n      sub\n      swap1\n      revert\n    tag_150:\n        /* \"@openzeppelin/contracts/utils/Address.sol\":5300:5312  bool success */\n      0x00\n        /* \"@openzeppelin/contracts/utils/Address.sol\":5314:5337  bytes memory returndata */\n      dup1\n        /* \"@openzeppelin/contracts/utils/Address.sol\":5341:5347  target */\n      dup7\n        /* \"@openzeppelin/contracts/utils/Address.sol\":5341:5352  target.call */\n      0xffffffffffffffffffffffffffffffffffffffff\n      and\n        /* \"@openzeppelin/contracts/utils/Address.sol\":5360:5365  value */\n      dup6\n        /* \"@openzeppelin/contracts/utils/Address.sol\":5367:5371  data */\n      dup8\n        /* \"@openzeppelin/contracts/utils/Address.sol\":5341:5372  target.call{value: value}(data) */\n      mload(0x40)\n      tag_153\n      swap2\n      swap1\n      tag_154\n      jump\t// in\n    tag_153:\n      0x00\n      mload(0x40)\n      dup1\n      dup4\n      sub\n      dup2\n      dup6\n      dup8\n      gas\n      call\n      swap3\n      pop\n      pop\n      pop\n      returndatasize\n      dup1\n      0x00\n      dup2\n      eq\n      tag_157\n      jumpi\n      mload(0x40)\n      swap2\n      pop\n      and(add(returndatasize, 0x3f), not(0x1f))\n      dup3\n      add\n      0x40\n      mstore\n      returndatasize\n      dup3\n      mstore\n      returndatasize\n      0x00\n      0x20\n      dup5\n      add\n      returndatacopy\n      jump(tag_156)\n    tag_157:\n      0x60\n      swap2\n      pop\n    tag_156:\n      pop\n        /* \"@openzeppelin/contracts/utils/Address.sol\":5299:5372  (bool success, bytes memory returndata) = target.call{value: value}(data) */\n      swap2\n      pop\n      swap2\n      pop\n        /* \"@openzeppelin/contracts/utils/Address.sol\":5389:5440  verifyCallResult(success, returndata, errorMessage) */\n      tag_158\n        /* \"@openzeppelin/contracts/utils/Address.sol\":5406:5413  success */\n      dup3\n        /* \"@openzeppelin/contracts/utils/Address.sol\":5415:5425  returndata */\n      dup3\n        /* \"@openzeppelin/contracts/utils/Address.sol\":5427:5439  errorMessage */\n      dup7\n        /* \"@openzeppelin/contracts/utils/Address.sol\":5389:5405  verifyCallResult */\n      tag_159\n        /* \"@openzeppelin/contracts/utils/Address.sol\":5389:5440  verifyCallResult(success, returndata, errorMessage) */\n      jump\t// in\n    tag_158:\n        /* \"@openzeppelin/contracts/utils/Address.sol\":5382:5440  return verifyCallResult(success, returndata, errorMessage) */\n      swap3\n      pop\n      pop\n      pop\n        /* \"@openzeppelin/contracts/utils/Address.sol\":4948:5447  function functionCallWithValue(... */\n      swap5\n      swap4\n      pop\n      pop\n      pop\n      pop\n      jump\t// out\n        /* \"@openzeppelin/contracts/utils/Address.sol\":1175:1495  function isContract(address account) internal view returns (bool) {... */\n    tag_149:\n        /* \"@openzeppelin/contracts/utils/Address.sol\":1235:1239  bool */\n      0x00\n        /* \"@openzeppelin/contracts/utils/Address.sol\":1487:1488  0 */\n      dup1\n        /* \"@openzeppelin/contracts/utils/Address.sol\":1465:1472  account */\n      dup3\n        /* \"@openzeppelin/contracts/utils/Address.sol\":1465:1484  account.code.length */\n      0xffffffffffffffffffffffffffffffffffffffff\n      and\n      extcodesize\n        /* \"@openzeppelin/contracts/utils/Address.sol\":1465:1488  account.code.length > 0 */\n      gt\n        /* \"@openzeppelin/contracts/utils/Address.sol\":1458:1488  return account.code.length > 0 */\n      swap1\n      pop\n        /* \"@openzeppelin/contracts/utils/Address.sol\":1175:1495  function isContract(address account) internal view returns (bool) {... */\n      swap2\n      swap1\n      pop\n      jump\t// out\n        /* \"@openzeppelin/contracts/utils/Address.sol\":7561:8253  function verifyCallResult(... */\n    tag_159:\n        /* \"@openzeppelin/contracts/utils/Address.sol\":7707:7719  bytes memory */\n      0x60\n        /* \"@openzeppelin/contracts/utils/Address.sol\":7735:7742  success */\n      dup4\n        /* \"@openzeppelin/contracts/utils/Address.sol\":7731:8247  if (success) {... */\n      iszero\n      tag_162\n      jumpi\n        /* \"@openzeppelin/contracts/utils/Address.sol\":7765:7775  returndata */\n      dup3\n        /* \"@openzeppelin/contracts/utils/Address.sol\":7758:7775  return returndata */\n      swap1\n      pop\n      jump(tag_161)\n        /* \"@openzeppelin/contracts/utils/Address.sol\":7731:8247  if (success) {... */\n    tag_162:\n        /* \"@openzeppelin/contracts/utils/Address.sol\":7896:7897  0 */\n      0x00\n        /* \"@openzeppelin/contracts/utils/Address.sol\":7876:7886  returndata */\n      dup4\n        /* \"@openzeppelin/contracts/utils/Address.sol\":7876:7893  returndata.length */\n      mload\n        /* \"@openzeppelin/contracts/utils/Address.sol\":7876:7897  returndata.length > 0 */\n      gt\n        /* \"@openzeppelin/contracts/utils/Address.sol\":7872:8237  if (returndata.length > 0) {... */\n      iszero\n      tag_164\n      jumpi\n        /* \"@openzeppelin/contracts/utils/Address.sol\":8070:8080  returndata */\n      dup3\n        /* \"@openzeppelin/contracts/utils/Address.sol\":8064:8081  mload(returndata) */\n      mload\n        /* \"@openzeppelin/contracts/utils/Address.sol\":8130:8145  returndata_size */\n      dup1\n        /* \"@openzeppelin/contracts/utils/Address.sol\":8117:8127  returndata */\n      dup5\n        /* \"@openzeppelin/contracts/utils/Address.sol\":8113:8115  32 */\n      0x20\n        /* \"@openzeppelin/contracts/utils/Address.sol\":8109:8128  add(32, returndata) */\n      add\n        /* \"@openzeppelin/contracts/utils/Address.sol\":8102:8146  revert(add(32, returndata), returndata_size) */\n      revert\n        /* \"@openzeppelin/contracts/utils/Address.sol\":7872:8237  if (returndata.length > 0) {... */\n    tag_164:\n        /* \"@openzeppelin/contracts/utils/Address.sol\":8209:8221  errorMessage */\n      dup2\n        /* \"@openzeppelin/contracts/utils/Address.sol\":8202:8222  revert(errorMessage) */\n      mload(0x40)\n      0x08c379a000000000000000000000000000000000000000000000000000000000\n      dup2\n      mstore\n      0x04\n      add\n      tag_166\n      swap2\n      swap1\n      tag_167\n      jump\t// in\n    tag_166:\n      mload(0x40)\n      dup1\n      swap2\n      sub\n      swap1\n      revert\n        /* \"@openzeppelin/contracts/utils/Address.sol\":7561:8253  function verifyCallResult(... */\n    tag_161:\n      swap4\n      swap3\n      pop\n      pop\n      pop\n      jump\t// out\n        /* \"#utility.yul\":7:146   */\n    tag_169:\n        /* \"#utility.yul\":53:58   */\n      0x00\n        /* \"#utility.yul\":91:97   */\n      dup2\n        /* \"#utility.yul\":78:98   */\n      calldataload\n        /* \"#utility.yul\":69:98   */\n      swap1\n      pop\n        /* \"#utility.yul\":107:140   */\n      tag_171\n        /* \"#utility.yul\":134:139   */\n      dup2\n        /* \"#utility.yul\":107:140   */\n      tag_172\n      jump\t// in\n    tag_171:\n        /* \"#utility.yul\":7:146   */\n      swap3\n      swap2\n      pop\n      pop\n      jump\t// out\n        /* \"#utility.yul\":152:289   */\n    tag_173:\n        /* \"#utility.yul\":206:211   */\n      0x00\n        /* \"#utility.yul\":237:243   */\n      dup2\n        /* \"#utility.yul\":231:244   */\n      mload\n        /* \"#utility.yul\":222:244   */\n      swap1\n      pop\n        /* \"#utility.yul\":253:283   */\n      tag_175\n        /* \"#utility.yul\":277:282   */\n      dup2\n        /* \"#utility.yul\":253:283   */\n      tag_176\n      jump\t// in\n    tag_175:\n        /* \"#utility.yul\":152:289   */\n      swap3\n      swap2\n      pop\n      pop\n      jump\t// out\n        /* \"#utility.yul\":295:438   */\n    tag_177:\n        /* \"#utility.yul\":352:357   */\n      0x00\n        /* \"#utility.yul\":383:389   */\n      dup2\n        /* \"#utility.yul\":377:390   */\n      mload\n        /* \"#utility.yul\":368:390   */\n      swap1\n      pop\n        /* \"#utility.yul\":399:432   */\n      tag_179\n        /* \"#utility.yul\":426:431   */\n      dup2\n        /* \"#utility.yul\":399:432   */\n      tag_180\n      jump\t// in\n    tag_179:\n        /* \"#utility.yul\":295:438   */\n      swap3\n      swap2\n      pop\n      pop\n      jump\t// out\n        /* \"#utility.yul\":444:773   */\n    tag_16:\n        /* \"#utility.yul\":503:509   */\n      0x00\n        /* \"#utility.yul\":552:554   */\n      0x20\n        /* \"#utility.yul\":540:549   */\n      dup3\n        /* \"#utility.yul\":531:538   */\n      dup5\n        /* \"#utility.yul\":527:550   */\n      sub\n        /* \"#utility.yul\":523:555   */\n      slt\n        /* \"#utility.yul\":520:639   */\n      iszero\n      tag_182\n      jumpi\n        /* \"#utility.yul\":558:637   */\n      tag_183\n      tag_184\n      jump\t// in\n    tag_183:\n        /* \"#utility.yul\":520:639   */\n    tag_182:\n        /* \"#utility.yul\":678:679   */\n      0x00\n        /* \"#utility.yul\":703:756   */\n      tag_185\n        /* \"#utility.yul\":748:755   */\n      dup5\n        /* \"#utility.yul\":739:745   */\n      dup3\n        /* \"#utility.yul\":728:737   */\n      dup6\n        /* \"#utility.yul\":724:746   */\n      add\n        /* \"#utility.yul\":703:756   */\n      tag_169\n      jump\t// in\n    tag_185:\n        /* \"#utility.yul\":693:756   */\n      swap2\n      pop\n        /* \"#utility.yul\":649:766   */\n      pop\n        /* \"#utility.yul\":444:773   */\n      swap3\n      swap2\n      pop\n      pop\n      jump\t// out\n        /* \"#utility.yul\":779:1253   */\n    tag_22:\n        /* \"#utility.yul\":847:853   */\n      0x00\n        /* \"#utility.yul\":855:861   */\n      dup1\n        /* \"#utility.yul\":904:906   */\n      0x40\n        /* \"#utility.yul\":892:901   */\n      dup4\n        /* \"#utility.yul\":883:890   */\n      dup6\n        /* \"#utility.yul\":879:902   */\n      sub\n        /* \"#utility.yul\":875:907   */\n      slt\n        /* \"#utility.yul\":872:991   */\n      iszero\n      tag_187\n      jumpi\n        /* \"#utility.yul\":910:989   */\n      tag_188\n      tag_184\n      jump\t// in\n    tag_188:\n        /* \"#utility.yul\":872:991   */\n    tag_187:\n        /* \"#utility.yul\":1030:1031   */\n      0x00\n        /* \"#utility.yul\":1055:1108   */\n      tag_189\n        /* \"#utility.yul\":1100:1107   */\n      dup6\n        /* \"#utility.yul\":1091:1097   */\n      dup3\n        /* \"#utility.yul\":1080:1089   */\n      dup7\n        /* \"#utility.yul\":1076:1098   */\n      add\n        /* \"#utility.yul\":1055:1108   */\n      tag_169\n      jump\t// in\n    tag_189:\n        /* \"#utility.yul\":1045:1108   */\n      swap3\n      pop\n        /* \"#utility.yul\":1001:1118   */\n      pop\n        /* \"#utility.yul\":1157:1159   */\n      0x20\n        /* \"#utility.yul\":1183:1236   */\n      tag_190\n        /* \"#utility.yul\":1228:1235   */\n      dup6\n        /* \"#utility.yul\":1219:1225   */\n      dup3\n        /* \"#utility.yul\":1208:1217   */\n      dup7\n        /* \"#utility.yul\":1204:1226   */\n      add\n        /* \"#utility.yul\":1183:1236   */\n      tag_169\n      jump\t// in\n    tag_190:\n        /* \"#utility.yul\":1173:1236   */\n      swap2\n      pop\n        /* \"#utility.yul\":1128:1246   */\n      pop\n        /* \"#utility.yul\":779:1253   */\n      swap3\n      pop\n      swap3\n      swap1\n      pop\n      jump\t// out\n        /* \"#utility.yul\":1259:1604   */\n    tag_137:\n        /* \"#utility.yul\":1326:1332   */\n      0x00\n        /* \"#utility.yul\":1375:1377   */\n      0x20\n        /* \"#utility.yul\":1363:1372   */\n      dup3\n        /* \"#utility.yul\":1354:1361   */\n      dup5\n        /* \"#utility.yul\":1350:1373   */\n      sub\n        /* \"#utility.yul\":1346:1378   */\n      slt\n        /* \"#utility.yul\":1343:1462   */\n      iszero\n      tag_192\n      jumpi\n        /* \"#utility.yul\":1381:1460   */\n      tag_193\n      tag_184\n      jump\t// in\n    tag_193:\n        /* \"#utility.yul\":1343:1462   */\n    tag_192:\n        /* \"#utility.yul\":1501:1502   */\n      0x00\n        /* \"#utility.yul\":1526:1587   */\n      tag_194\n        /* \"#utility.yul\":1579:1586   */\n      dup5\n        /* \"#utility.yul\":1570:1576   */\n      dup3\n        /* \"#utility.yul\":1559:1568   */\n      dup6\n        /* \"#utility.yul\":1555:1577   */\n      add\n        /* \"#utility.yul\":1526:1587   */\n      tag_173\n      jump\t// in\n    tag_194:\n        /* \"#utility.yul\":1516:1587   */\n      swap2\n      pop\n        /* \"#utility.yul\":1472:1597   */\n      pop\n        /* \"#utility.yul\":1259:1604   */\n      swap3\n      swap2\n      pop\n      pop\n      jump\t// out\n        /* \"#utility.yul\":1610:1961   */\n    tag_58:\n        /* \"#utility.yul\":1680:1686   */\n      0x00\n        /* \"#utility.yul\":1729:1731   */\n      0x20\n        /* \"#utility.yul\":1717:1726   */\n      dup3\n        /* \"#utility.yul\":1708:1715   */\n      dup5\n        /* \"#utility.yul\":1704:1727   */\n      sub\n        /* \"#utility.yul\":1700:1732   */\n      slt\n        /* \"#utility.yul\":1697:1816   */\n      iszero\n      tag_196\n      jumpi\n        /* \"#utility.yul\":1735:1814   */\n      tag_197\n      tag_184\n      jump\t// in\n    tag_197:\n        /* \"#utility.yul\":1697:1816   */\n    tag_196:\n        /* \"#utility.yul\":1855:1856   */\n      0x00\n        /* \"#utility.yul\":1880:1944   */\n      tag_198\n        /* \"#utility.yul\":1936:1943   */\n      dup5\n        /* \"#utility.yul\":1927:1933   */\n      dup3\n        /* \"#utility.yul\":1916:1925   */\n      dup6\n        /* \"#utility.yul\":1912:1934   */\n      add\n        /* \"#utility.yul\":1880:1944   */\n      tag_177\n      jump\t// in\n    tag_198:\n        /* \"#utility.yul\":1870:1944   */\n      swap2\n      pop\n        /* \"#utility.yul\":1826:1954   */\n      pop\n        /* \"#utility.yul\":1610:1961   */\n      swap3\n      swap2\n      pop\n      pop\n      jump\t// out\n        /* \"#utility.yul\":1967:2085   */\n    tag_199:\n        /* \"#utility.yul\":2054:2078   */\n      tag_201\n        /* \"#utility.yul\":2072:2077   */\n      dup2\n        /* \"#utility.yul\":2054:2078   */\n      tag_202\n      jump\t// in\n    tag_201:\n        /* \"#utility.yul\":2049:2052   */\n      dup3\n        /* \"#utility.yul\":2042:2079   */\n      mstore\n        /* \"#utility.yul\":1967:2085   */\n      pop\n      pop\n      jump\t// out\n        /* \"#utility.yul\":2091:2464   */\n    tag_203:\n        /* \"#utility.yul\":2195:2198   */\n      0x00\n        /* \"#utility.yul\":2223:2261   */\n      tag_205\n        /* \"#utility.yul\":2255:2260   */\n      dup3\n        /* \"#utility.yul\":2223:2261   */\n      tag_206\n      jump\t// in\n    tag_205:\n        /* \"#utility.yul\":2277:2365   */\n      tag_207\n        /* \"#utility.yul\":2358:2364   */\n      dup2\n        /* \"#utility.yul\":2353:2356   */\n      dup6\n        /* \"#utility.yul\":2277:2365   */\n      tag_208\n      jump\t// in\n    tag_207:\n        /* \"#utility.yul\":2270:2365   */\n      swap4\n      pop\n        /* \"#utility.yul\":2374:2426   */\n      tag_209\n        /* \"#utility.yul\":2419:2425   */\n      dup2\n        /* \"#utility.yul\":2414:2417   */\n      dup6\n        /* \"#utility.yul\":2407:2411   */\n      0x20\n        /* \"#utility.yul\":2400:2405   */\n      dup7\n        /* \"#utility.yul\":2396:2412   */\n      add\n        /* \"#utility.yul\":2374:2426   */\n      tag_210\n      jump\t// in\n    tag_209:\n        /* \"#utility.yul\":2451:2457   */\n      dup1\n        /* \"#utility.yul\":2446:2449   */\n      dup5\n        /* \"#utility.yul\":2442:2458   */\n      add\n        /* \"#utility.yul\":2435:2458   */\n      swap2\n      pop\n        /* \"#utility.yul\":2199:2464   */\n      pop\n        /* \"#utility.yul\":2091:2464   */\n      swap3\n      swap2\n      pop\n      pop\n      jump\t// out\n        /* \"#utility.yul\":2470:2629   */\n    tag_211:\n        /* \"#utility.yul\":2571:2622   */\n      tag_213\n        /* \"#utility.yul\":2616:2621   */\n      dup2\n        /* \"#utility.yul\":2571:2622   */\n      tag_214\n      jump\t// in\n    tag_213:\n        /* \"#utility.yul\":2566:2569   */\n      dup3\n        /* \"#utility.yul\":2559:2623   */\n      mstore\n        /* \"#utility.yul\":2470:2629   */\n      pop\n      pop\n      jump\t// out\n        /* \"#utility.yul\":2635:2999   */\n    tag_215:\n        /* \"#utility.yul\":2723:2726   */\n      0x00\n        /* \"#utility.yul\":2751:2790   */\n      tag_217\n        /* \"#utility.yul\":2784:2789   */\n      dup3\n        /* \"#utility.yul\":2751:2790   */\n      tag_218\n      jump\t// in\n    tag_217:\n        /* \"#utility.yul\":2806:2877   */\n      tag_219\n        /* \"#utility.yul\":2870:2876   */\n      dup2\n        /* \"#utility.yul\":2865:2868   */\n      dup6\n        /* \"#utility.yul\":2806:2877   */\n      tag_220\n      jump\t// in\n    tag_219:\n        /* \"#utility.yul\":2799:2877   */\n      swap4\n      pop\n        /* \"#utility.yul\":2886:2938   */\n      tag_221\n        /* \"#utility.yul\":2931:2937   */\n      dup2\n        /* \"#utility.yul\":2926:2929   */\n      dup6\n        /* \"#utility.yul\":2919:2923   */\n      0x20\n        /* \"#utility.yul\":2912:2917   */\n      dup7\n        /* \"#utility.yul\":2908:2924   */\n      add\n        /* \"#utility.yul\":2886:2938   */\n      tag_210\n      jump\t// in\n    tag_221:\n        /* \"#utility.yul\":2963:2992   */\n      tag_222\n        /* \"#utility.yul\":2985:2991   */\n      dup2\n        /* \"#utility.yul\":2963:2992   */\n      tag_223\n      jump\t// in\n    tag_222:\n        /* \"#utility.yul\":2958:2961   */\n      dup5\n        /* \"#utility.yul\":2954:2993   */\n      add\n        /* \"#utility.yul\":2947:2993   */\n      swap2\n      pop\n        /* \"#utility.yul\":2727:2999   */\n      pop\n        /* \"#utility.yul\":2635:2999   */\n      swap3\n      swap2\n      pop\n      pop\n      jump\t// out\n        /* \"#utility.yul\":3005:3371   */\n    tag_224:\n        /* \"#utility.yul\":3147:3150   */\n      0x00\n        /* \"#utility.yul\":3168:3235   */\n      tag_226\n        /* \"#utility.yul\":3232:3234   */\n      0x28\n        /* \"#utility.yul\":3227:3230   */\n      dup4\n        /* \"#utility.yul\":3168:3235   */\n      tag_220\n      jump\t// in\n    tag_226:\n        /* \"#utility.yul\":3161:3235   */\n      swap2\n      pop\n        /* \"#utility.yul\":3244:3337   */\n      tag_227\n        /* \"#utility.yul\":3333:3336   */\n      dup3\n        /* \"#utility.yul\":3244:3337   */\n      tag_228\n      jump\t// in\n    tag_227:\n        /* \"#utility.yul\":3362:3364   */\n      0x40\n        /* \"#utility.yul\":3357:3360   */\n      dup3\n        /* \"#utility.yul\":3353:3365   */\n      add\n        /* \"#utility.yul\":3346:3365   */\n      swap1\n      pop\n        /* \"#utility.yul\":3005:3371   */\n      swap2\n      swap1\n      pop\n      jump\t// out\n        /* \"#utility.yul\":3377:3743   */\n    tag_229:\n        /* \"#utility.yul\":3519:3522   */\n      0x00\n        /* \"#utility.yul\":3540:3607   */\n      tag_231\n        /* \"#utility.yul\":3604:3606   */\n      0x26\n        /* \"#utility.yul\":3599:3602   */\n      dup4\n        /* \"#utility.yul\":3540:3607   */\n      tag_220\n      jump\t// in\n    tag_231:\n        /* \"#utility.yul\":3533:3607   */\n      swap2\n      pop\n        /* \"#utility.yul\":3616:3709   */\n      tag_232\n        /* \"#utility.yul\":3705:3708   */\n      dup3\n        /* \"#utility.yul\":3616:3709   */\n      tag_233\n      jump\t// in\n    tag_232:\n        /* \"#utility.yul\":3734:3736   */\n      0x40\n        /* \"#utility.yul\":3729:3732   */\n      dup3\n        /* \"#utility.yul\":3725:3737   */\n      add\n        /* \"#utility.yul\":3718:3737   */\n      swap1\n      pop\n        /* \"#utility.yul\":3377:3743   */\n      swap2\n      swap1\n      pop\n      jump\t// out\n        /* \"#utility.yul\":3749:4115   */\n    tag_234:\n        /* \"#utility.yul\":3891:3894   */\n      0x00\n        /* \"#utility.yul\":3912:3979   */\n      tag_236\n        /* \"#utility.yul\":3976:3978   */\n      0x1d\n        /* \"#utility.yul\":3971:3974   */\n      dup4\n        /* \"#utility.yul\":3912:3979   */\n      tag_220\n      jump\t// in\n    tag_236:\n        /* \"#utility.yul\":3905:3979   */\n      swap2\n      pop\n        /* \"#utility.yul\":3988:4081   */\n      tag_237\n        /* \"#utility.yul\":4077:4080   */\n      dup3\n        /* \"#utility.yul\":3988:4081   */\n      tag_238\n      jump\t// in\n    tag_237:\n        /* \"#utility.yul\":4106:4108   */\n      0x20\n        /* \"#utility.yul\":4101:4104   */\n      dup3\n        /* \"#utility.yul\":4097:4109   */\n      add\n        /* \"#utility.yul\":4090:4109   */\n      swap1\n      pop\n        /* \"#utility.yul\":3749:4115   */\n      swap2\n      swap1\n      pop\n      jump\t// out\n        /* \"#utility.yul\":4121:4487   */\n    tag_239:\n        /* \"#utility.yul\":4263:4266   */\n      0x00\n        /* \"#utility.yul\":4284:4351   */\n      tag_241\n        /* \"#utility.yul\":4348:4350   */\n      0x26\n        /* \"#utility.yul\":4343:4346   */\n      dup4\n        /* \"#utility.yul\":4284:4351   */\n      tag_220\n      jump\t// in\n    tag_241:\n        /* \"#utility.yul\":4277:4351   */\n      swap2\n      pop\n        /* \"#utility.yul\":4360:4453   */\n      tag_242\n        /* \"#utility.yul\":4449:4452   */\n      dup3\n        /* \"#utility.yul\":4360:4453   */\n      tag_243\n      jump\t// in\n    tag_242:\n        /* \"#utility.yul\":4478:4480   */\n      0x40\n        /* \"#utility.yul\":4473:4476   */\n      dup3\n        /* \"#utility.yul\":4469:4481   */\n      add\n        /* \"#utility.yul\":4462:4481   */\n      swap1\n      pop\n        /* \"#utility.yul\":4121:4487   */\n      swap2\n      swap1\n      pop\n      jump\t// out\n        /* \"#utility.yul\":4493:4859   */\n    tag_244:\n        /* \"#utility.yul\":4635:4638   */\n      0x00\n        /* \"#utility.yul\":4656:4723   */\n      tag_246\n        /* \"#utility.yul\":4720:4722   */\n      0x1e\n        /* \"#utility.yul\":4715:4718   */\n      dup4\n        /* \"#utility.yul\":4656:4723   */\n      tag_220\n      jump\t// in\n    tag_246:\n        /* \"#utility.yul\":4649:4723   */\n      swap2\n      pop\n        /* \"#utility.yul\":4732:4825   */\n      tag_247\n        /* \"#utility.yul\":4821:4824   */\n      dup3\n        /* \"#utility.yul\":4732:4825   */\n      tag_248\n      jump\t// in\n    tag_247:\n        /* \"#utility.yul\":4850:4852   */\n      0x20\n        /* \"#utility.yul\":4845:4848   */\n      dup3\n        /* \"#utility.yul\":4841:4853   */\n      add\n        /* \"#utility.yul\":4834:4853   */\n      swap1\n      pop\n        /* \"#utility.yul\":4493:4859   */\n      swap2\n      swap1\n      pop\n      jump\t// out\n        /* \"#utility.yul\":4865:5231   */\n    tag_249:\n        /* \"#utility.yul\":5007:5010   */\n      0x00\n        /* \"#utility.yul\":5028:5095   */\n      tag_251\n        /* \"#utility.yul\":5092:5094   */\n      0x20\n        /* \"#utility.yul\":5087:5090   */\n      dup4\n        /* \"#utility.yul\":5028:5095   */\n      tag_220\n      jump\t// in\n    tag_251:\n        /* \"#utility.yul\":5021:5095   */\n      swap2\n      pop\n        /* \"#utility.yul\":5104:5197   */\n      tag_252\n        /* \"#utility.yul\":5193:5196   */\n      dup3\n        /* \"#utility.yul\":5104:5197   */\n      tag_253\n      jump\t// in\n    tag_252:\n        /* \"#utility.yul\":5222:5224   */\n      0x20\n        /* \"#utility.yul\":5217:5220   */\n      dup3\n        /* \"#utility.yul\":5213:5225   */\n      add\n        /* \"#utility.yul\":5206:5225   */\n      swap1\n      pop\n        /* \"#utility.yul\":4865:5231   */\n      swap2\n      swap1\n      pop\n      jump\t// out\n        /* \"#utility.yul\":5237:5603   */\n    tag_254:\n        /* \"#utility.yul\":5379:5382   */\n      0x00\n        /* \"#utility.yul\":5400:5467   */\n      tag_256\n        /* \"#utility.yul\":5464:5466   */\n      0x26\n        /* \"#utility.yul\":5459:5462   */\n      dup4\n        /* \"#utility.yul\":5400:5467   */\n      tag_220\n      jump\t// in\n    tag_256:\n        /* \"#utility.yul\":5393:5467   */\n      swap2\n      pop\n        /* \"#utility.yul\":5476:5569   */\n      tag_257\n        /* \"#utility.yul\":5565:5568   */\n      dup3\n        /* \"#utility.yul\":5476:5569   */\n      tag_258\n      jump\t// in\n    tag_257:\n        /* \"#utility.yul\":5594:5596   */\n      0x40\n        /* \"#utility.yul\":5589:5592   */\n      dup3\n        /* \"#utility.yul\":5585:5597   */\n      add\n        /* \"#utility.yul\":5578:5597   */\n      swap1\n      pop\n        /* \"#utility.yul\":5237:5603   */\n      swap2\n      swap1\n      pop\n      jump\t// out\n        /* \"#utility.yul\":5609:5975   */\n    tag_259:\n        /* \"#utility.yul\":5751:5754   */\n      0x00\n        /* \"#utility.yul\":5772:5839   */\n      tag_261\n        /* \"#utility.yul\":5836:5838   */\n      0x1d\n        /* \"#utility.yul\":5831:5834   */\n      dup4\n        /* \"#utility.yul\":5772:5839   */\n      tag_220\n      jump\t// in\n    tag_261:\n        /* \"#utility.yul\":5765:5839   */\n      swap2\n      pop\n        /* \"#utility.yul\":5848:5941   */\n      tag_262\n        /* \"#utility.yul\":5937:5940   */\n      dup3\n        /* \"#utility.yul\":5848:5941   */\n      tag_263\n      jump\t// in\n    tag_262:\n        /* \"#utility.yul\":5966:5968   */\n      0x20\n        /* \"#utility.yul\":5961:5964   */\n      dup3\n        /* \"#utility.yul\":5957:5969   */\n      add\n        /* \"#utility.yul\":5950:5969   */\n      swap1\n      pop\n        /* \"#utility.yul\":5609:5975   */\n      swap2\n      swap1\n      pop\n      jump\t// out\n        /* \"#utility.yul\":5981:6347   */\n    tag_264:\n        /* \"#utility.yul\":6123:6126   */\n      0x00\n        /* \"#utility.yul\":6144:6211   */\n      tag_266\n        /* \"#utility.yul\":6208:6210   */\n      0x2a\n        /* \"#utility.yul\":6203:6206   */\n      dup4\n        /* \"#utility.yul\":6144:6211   */\n      tag_220\n      jump\t// in\n    tag_266:\n        /* \"#utility.yul\":6137:6211   */\n      swap2\n      pop\n        /* \"#utility.yul\":6220:6313   */\n      tag_267\n        /* \"#utility.yul\":6309:6312   */\n      dup3\n        /* \"#utility.yul\":6220:6313   */\n      tag_268\n      jump\t// in\n    tag_267:\n        /* \"#utility.yul\":6338:6340   */\n      0x40\n        /* \"#utility.yul\":6333:6336   */\n      dup3\n        /* \"#utility.yul\":6329:6341   */\n      add\n        /* \"#utility.yul\":6322:6341   */\n      swap1\n      pop\n        /* \"#utility.yul\":5981:6347   */\n      swap2\n      swap1\n      pop\n      jump\t// out\n        /* \"#utility.yul\":6353:6719   */\n    tag_269:\n        /* \"#utility.yul\":6495:6498   */\n      0x00\n        /* \"#utility.yul\":6516:6583   */\n      tag_271\n        /* \"#utility.yul\":6580:6582   */\n      0x1f\n        /* \"#utility.yul\":6575:6578   */\n      dup4\n        /* \"#utility.yul\":6516:6583   */\n      tag_220\n      jump\t// in\n    tag_271:\n        /* \"#utility.yul\":6509:6583   */\n      swap2\n      pop\n        /* \"#utility.yul\":6592:6685   */\n      tag_272\n        /* \"#utility.yul\":6681:6684   */\n      dup3\n        /* \"#utility.yul\":6592:6685   */\n      tag_273\n      jump\t// in\n    tag_272:\n        /* \"#utility.yul\":6710:6712   */\n      0x20\n        /* \"#utility.yul\":6705:6708   */\n      dup3\n        /* \"#utility.yul\":6701:6713   */\n      add\n        /* \"#utility.yul\":6694:6713   */\n      swap1\n      pop\n        /* \"#utility.yul\":6353:6719   */\n      swap2\n      swap1\n      pop\n      jump\t// out\n        /* \"#utility.yul\":6725:6843   */\n    tag_274:\n        /* \"#utility.yul\":6812:6836   */\n      tag_276\n        /* \"#utility.yul\":6830:6835   */\n      dup2\n        /* \"#utility.yul\":6812:6836   */\n      tag_277\n      jump\t// in\n    tag_276:\n        /* \"#utility.yul\":6807:6810   */\n      dup3\n        /* \"#utility.yul\":6800:6837   */\n      mstore\n        /* \"#utility.yul\":6725:6843   */\n      pop\n      pop\n      jump\t// out\n        /* \"#utility.yul\":6849:7120   */\n    tag_154:\n        /* \"#utility.yul\":6979:6982   */\n      0x00\n        /* \"#utility.yul\":7001:7094   */\n      tag_279\n        /* \"#utility.yul\":7090:7093   */\n      dup3\n        /* \"#utility.yul\":7081:7087   */\n      dup5\n        /* \"#utility.yul\":7001:7094   */\n      tag_203\n      jump\t// in\n    tag_279:\n        /* \"#utility.yul\":6994:7094   */\n      swap2\n      pop\n        /* \"#utility.yul\":7111:7114   */\n      dup2\n        /* \"#utility.yul\":7104:7114   */\n      swap1\n      pop\n        /* \"#utility.yul\":6849:7120   */\n      swap3\n      swap2\n      pop\n      pop\n      jump\t// out\n        /* \"#utility.yul\":7126:7348   */\n    tag_39:\n        /* \"#utility.yul\":7219:7223   */\n      0x00\n        /* \"#utility.yul\":7257:7259   */\n      0x20\n        /* \"#utility.yul\":7246:7255   */\n      dup3\n        /* \"#utility.yul\":7242:7260   */\n      add\n        /* \"#utility.yul\":7234:7260   */\n      swap1\n      pop\n        /* \"#utility.yul\":7270:7341   */\n      tag_281\n        /* \"#utility.yul\":7338:7339   */\n      0x00\n        /* \"#utility.yul\":7327:7336   */\n      dup4\n        /* \"#utility.yul\":7323:7340   */\n      add\n        /* \"#utility.yul\":7314:7320   */\n      dup5\n        /* \"#utility.yul\":7270:7341   */\n      tag_199\n      jump\t// in\n    tag_281:\n        /* \"#utility.yul\":7126:7348   */\n      swap3\n      swap2\n      pop\n      pop\n      jump\t// out\n        /* \"#utility.yul\":7354:7686   */\n    tag_130:\n        /* \"#utility.yul\":7475:7479   */\n      0x00\n        /* \"#utility.yul\":7513:7515   */\n      0x40\n        /* \"#utility.yul\":7502:7511   */\n      dup3\n        /* \"#utility.yul\":7498:7516   */\n      add\n        /* \"#utility.yul\":7490:7516   */\n      swap1\n      pop\n        /* \"#utility.yul\":7526:7597   */\n      tag_283\n        /* \"#utility.yul\":7594:7595   */\n      0x00\n        /* \"#utility.yul\":7583:7592   */\n      dup4\n        /* \"#utility.yul\":7579:7596   */\n      add\n        /* \"#utility.yul\":7570:7576   */\n      dup6\n        /* \"#utility.yul\":7526:7597   */\n      tag_199\n      jump\t// in\n    tag_283:\n        /* \"#utility.yul\":7607:7679   */\n      tag_284\n        /* \"#utility.yul\":7675:7677   */\n      0x20\n        /* \"#utility.yul\":7664:7673   */\n      dup4\n        /* \"#utility.yul\":7660:7678   */\n      add\n        /* \"#utility.yul\":7651:7657   */\n      dup5\n        /* \"#utility.yul\":7607:7679   */\n      tag_274\n      jump\t// in\n    tag_284:\n        /* \"#utility.yul\":7354:7686   */\n      swap4\n      swap3\n      pop\n      pop\n      pop\n      jump\t// out\n        /* \"#utility.yul\":7692:7942   */\n    tag_27:\n        /* \"#utility.yul\":7799:7803   */\n      0x00\n        /* \"#utility.yul\":7837:7839   */\n      0x20\n        /* \"#utility.yul\":7826:7835   */\n      dup3\n        /* \"#utility.yul\":7822:7840   */\n      add\n        /* \"#utility.yul\":7814:7840   */\n      swap1\n      pop\n        /* \"#utility.yul\":7850:7935   */\n      tag_286\n        /* \"#utility.yul\":7932:7933   */\n      0x00\n        /* \"#utility.yul\":7921:7930   */\n      dup4\n        /* \"#utility.yul\":7917:7934   */\n      add\n        /* \"#utility.yul\":7908:7914   */\n      dup5\n        /* \"#utility.yul\":7850:7935   */\n      tag_211\n      jump\t// in\n    tag_286:\n        /* \"#utility.yul\":7692:7942   */\n      swap3\n      swap2\n      pop\n      pop\n      jump\t// out\n        /* \"#utility.yul\":7948:8261   */\n    tag_167:\n        /* \"#utility.yul\":8061:8065   */\n      0x00\n        /* \"#utility.yul\":8099:8101   */\n      0x20\n        /* \"#utility.yul\":8088:8097   */\n      dup3\n        /* \"#utility.yul\":8084:8102   */\n      add\n        /* \"#utility.yul\":8076:8102   */\n      swap1\n      pop\n        /* \"#utility.yul\":8148:8157   */\n      dup2\n        /* \"#utility.yul\":8142:8146   */\n      dup2\n        /* \"#utility.yul\":8138:8158   */\n      sub\n        /* \"#utility.yul\":8134:8135   */\n      0x00\n        /* \"#utility.yul\":8123:8132   */\n      dup4\n        /* \"#utility.yul\":8119:8136   */\n      add\n        /* \"#utility.yul\":8112:8159   */\n      mstore\n        /* \"#utility.yul\":8176:8254   */\n      tag_288\n        /* \"#utility.yul\":8249:8253   */\n      dup2\n        /* \"#utility.yul\":8240:8246   */\n      dup5\n        /* \"#utility.yul\":8176:8254   */\n      tag_215\n      jump\t// in\n    tag_288:\n        /* \"#utility.yul\":8168:8254   */\n      swap1\n      pop\n        /* \"#utility.yul\":7948:8261   */\n      swap3\n      swap2\n      pop\n      pop\n      jump\t// out\n        /* \"#utility.yul\":8267:8686   */\n    tag_80:\n        /* \"#utility.yul\":8433:8437   */\n      0x00\n        /* \"#utility.yul\":8471:8473   */\n      0x20\n        /* \"#utility.yul\":8460:8469   */\n      dup3\n        /* \"#utility.yul\":8456:8474   */\n      add\n        /* \"#utility.yul\":8448:8474   */\n      swap1\n      pop\n        /* \"#utility.yul\":8520:8529   */\n      dup2\n        /* \"#utility.yul\":8514:8518   */\n      dup2\n        /* \"#utility.yul\":8510:8530   */\n      sub\n        /* \"#utility.yul\":8506:8507   */\n      0x00\n        /* \"#utility.yul\":8495:8504   */\n      dup4\n        /* \"#utility.yul\":8491:8508   */\n      add\n        /* \"#utility.yul\":8484:8531   */\n      mstore\n        /* \"#utility.yul\":8548:8679   */\n      tag_290\n        /* \"#utility.yul\":8674:8678   */\n      dup2\n        /* \"#utility.yul\":8548:8679   */\n      tag_224\n      jump\t// in\n    tag_290:\n        /* \"#utility.yul\":8540:8679   */\n      swap1\n      pop\n        /* \"#utility.yul\":8267:8686   */\n      swap2\n      swap1\n      pop\n      jump\t// out\n        /* \"#utility.yul\":8692:9111   */\n    tag_123:\n        /* \"#utility.yul\":8858:8862   */\n      0x00\n        /* \"#utility.yul\":8896:8898   */\n      0x20\n        /* \"#utility.yul\":8885:8894   */\n      dup3\n        /* \"#utility.yul\":8881:8899   */\n      add\n        /* \"#utility.yul\":8873:8899   */\n      swap1\n      pop\n        /* \"#utility.yul\":8945:8954   */\n      dup2\n        /* \"#utility.yul\":8939:8943   */\n      dup2\n        /* \"#utility.yul\":8935:8955   */\n      sub\n        /* \"#utility.yul\":8931:8932   */\n      0x00\n        /* \"#utility.yul\":8920:8929   */\n      dup4\n        /* \"#utility.yul\":8916:8933   */\n      add\n        /* \"#utility.yul\":8909:8956   */\n      mstore\n        /* \"#utility.yul\":8973:9104   */\n      tag_292\n        /* \"#utility.yul\":9099:9103   */\n      dup2\n        /* \"#utility.yul\":8973:9104   */\n      tag_229\n      jump\t// in\n    tag_292:\n        /* \"#utility.yul\":8965:9104   */\n      swap1\n      pop\n        /* \"#utility.yul\":8692:9111   */\n      swap2\n      swap1\n      pop\n      jump\t// out\n        /* \"#utility.yul\":9117:9536   */\n    tag_108:\n        /* \"#utility.yul\":9283:9287   */\n      0x00\n        /* \"#utility.yul\":9321:9323   */\n      0x20\n        /* \"#utility.yul\":9310:9319   */\n      dup3\n        /* \"#utility.yul\":9306:9324   */\n      add\n        /* \"#utility.yul\":9298:9324   */\n      swap1\n      pop\n        /* \"#utility.yul\":9370:9379   */\n      dup2\n        /* \"#utility.yul\":9364:9368   */\n      dup2\n        /* \"#utility.yul\":9360:9380   */\n      sub\n        /* \"#utility.yul\":9356:9357   */\n      0x00\n        /* \"#utility.yul\":9345:9354   */\n      dup4\n        /* \"#utility.yul\":9341:9358   */\n      add\n        /* \"#utility.yul\":9334:9381   */\n      mstore\n        /* \"#utility.yul\":9398:9529   */\n      tag_294\n        /* \"#utility.yul\":9524:9528   */\n      dup2\n        /* \"#utility.yul\":9398:9529   */\n      tag_234\n      jump\t// in\n    tag_294:\n        /* \"#utility.yul\":9390:9529   */\n      swap1\n      pop\n        /* \"#utility.yul\":9117:9536   */\n      swap2\n      swap1\n      pop\n      jump\t// out\n        /* \"#utility.yul\":9542:9961   */\n    tag_147:\n        /* \"#utility.yul\":9708:9712   */\n      0x00\n        /* \"#utility.yul\":9746:9748   */\n      0x20\n        /* \"#utility.yul\":9735:9744   */\n      dup3\n        /* \"#utility.yul\":9731:9749   */\n      add\n        /* \"#utility.yul\":9723:9749   */\n      swap1\n      pop\n        /* \"#utility.yul\":9795:9804   */\n      dup2\n        /* \"#utility.yul\":9789:9793   */\n      dup2\n        /* \"#utility.yul\":9785:9805   */\n      sub\n        /* \"#utility.yul\":9781:9782   */\n      0x00\n        /* \"#utility.yul\":9770:9779   */\n      dup4\n        /* \"#utility.yul\":9766:9783   */\n      add\n        /* \"#utility.yul\":9759:9806   */\n      mstore\n        /* \"#utility.yul\":9823:9954   */\n      tag_296\n        /* \"#utility.yul\":9949:9953   */\n      dup2\n        /* \"#utility.yul\":9823:9954   */\n      tag_239\n      jump\t// in\n    tag_296:\n        /* \"#utility.yul\":9815:9954   */\n      swap1\n      pop\n        /* \"#utility.yul\":9542:9961   */\n      swap2\n      swap1\n      pop\n      jump\t// out\n        /* \"#utility.yul\":9967:10386   */\n    tag_96:\n        /* \"#utility.yul\":10133:10137   */\n      0x00\n        /* \"#utility.yul\":10171:10173   */\n      0x20\n        /* \"#utility.yul\":10160:10169   */\n      dup3\n        /* \"#utility.yul\":10156:10174   */\n      add\n        /* \"#utility.yul\":10148:10174   */\n      swap1\n      pop\n        /* \"#utility.yul\":10220:10229   */\n      dup2\n        /* \"#utility.yul\":10214:10218   */\n      dup2\n        /* \"#utility.yul\":10210:10230   */\n      sub\n        /* \"#utility.yul\":10206:10207   */\n      0x00\n        /* \"#utility.yul\":10195:10204   */\n      dup4\n        /* \"#utility.yul\":10191:10208   */\n      add\n        /* \"#utility.yul\":10184:10231   */\n      mstore\n        /* \"#utility.yul\":10248:10379   */\n      tag_298\n        /* \"#utility.yul\":10374:10378   */\n      dup2\n        /* \"#utility.yul\":10248:10379   */\n      tag_244\n      jump\t// in\n    tag_298:\n        /* \"#utility.yul\":10240:10379   */\n      swap1\n      pop\n        /* \"#utility.yul\":9967:10386   */\n      swap2\n      swap1\n      pop\n      jump\t// out\n        /* \"#utility.yul\":10392:10811   */\n    tag_73:\n        /* \"#utility.yul\":10558:10562   */\n      0x00\n        /* \"#utility.yul\":10596:10598   */\n      0x20\n        /* \"#utility.yul\":10585:10594   */\n      dup3\n        /* \"#utility.yul\":10581:10599   */\n      add\n        /* \"#utility.yul\":10573:10599   */\n      swap1\n      pop\n        /* \"#utility.yul\":10645:10654   */\n      dup2\n        /* \"#utility.yul\":10639:10643   */\n      dup2\n        /* \"#utility.yul\":10635:10655   */\n      sub\n        /* \"#utility.yul\":10631:10632   */\n      0x00\n        /* \"#utility.yul\":10620:10629   */\n      dup4\n        /* \"#utility.yul\":10616:10633   */\n      add\n        /* \"#utility.yul\":10609:10656   */\n      mstore\n        /* \"#utility.yul\":10673:10804   */\n      tag_300\n        /* \"#utility.yul\":10799:10803   */\n      dup2\n        /* \"#utility.yul\":10673:10804   */\n      tag_249\n      jump\t// in\n    tag_300:\n        /* \"#utility.yul\":10665:10804   */\n      swap1\n      pop\n        /* \"#utility.yul\":10392:10811   */\n      swap2\n      swap1\n      pop\n      jump\t// out\n        /* \"#utility.yul\":10817:11236   */\n    tag_77:\n        /* \"#utility.yul\":10983:10987   */\n      0x00\n        /* \"#utility.yul\":11021:11023   */\n      0x20\n        /* \"#utility.yul\":11010:11019   */\n      dup3\n        /* \"#utility.yul\":11006:11024   */\n      add\n        /* \"#utility.yul\":10998:11024   */\n      swap1\n      pop\n        /* \"#utility.yul\":11070:11079   */\n      dup2\n        /* \"#utility.yul\":11064:11068   */\n      dup2\n        /* \"#utility.yul\":11060:11080   */\n      sub\n        /* \"#utility.yul\":11056:11057   */\n      0x00\n        /* \"#utility.yul\":11045:11054   */\n      dup4\n        /* \"#utility.yul\":11041:11058   */\n      add\n        /* \"#utility.yul\":11034:11081   */\n      mstore\n        /* \"#utility.yul\":11098:11229   */\n      tag_302\n        /* \"#utility.yul\":11224:11228   */\n      dup2\n        /* \"#utility.yul\":11098:11229   */\n      tag_254\n      jump\t// in\n    tag_302:\n        /* \"#utility.yul\":11090:11229   */\n      swap1\n      pop\n        /* \"#utility.yul\":10817:11236   */\n      swap2\n      swap1\n      pop\n      jump\t// out\n        /* \"#utility.yul\":11242:11661   */\n    tag_152:\n        /* \"#utility.yul\":11408:11412   */\n      0x00\n        /* \"#utility.yul\":11446:11448   */\n      0x20\n        /* \"#utility.yul\":11435:11444   */\n      dup3\n        /* \"#utility.yul\":11431:11449   */\n      add\n        /* \"#utility.yul\":11423:11449   */\n      swap1\n      pop\n        /* \"#utility.yul\":11495:11504   */\n      dup2\n        /* \"#utility.yul\":11489:11493   */\n      dup2\n        /* \"#utility.yul\":11485:11505   */\n      sub\n        /* \"#utility.yul\":11481:11482   */\n      0x00\n        /* \"#utility.yul\":11470:11479   */\n      dup4\n        /* \"#utility.yul\":11466:11483   */\n      add\n        /* \"#utility.yul\":11459:11506   */\n      mstore\n        /* \"#utility.yul\":11523:11654   */\n      tag_304\n        /* \"#utility.yul\":11649:11653   */\n      dup2\n        /* \"#utility.yul\":11523:11654   */\n      tag_259\n      jump\t// in\n    tag_304:\n        /* \"#utility.yul\":11515:11654   */\n      swap1\n      pop\n        /* \"#utility.yul\":11242:11661   */\n      swap2\n      swap1\n      pop\n      jump\t// out\n        /* \"#utility.yul\":11667:12086   */\n    tag_140:\n        /* \"#utility.yul\":11833:11837   */\n      0x00\n        /* \"#utility.yul\":11871:11873   */\n      0x20\n        /* \"#utility.yul\":11860:11869   */\n      dup3\n        /* \"#utility.yul\":11856:11874   */\n      add\n        /* \"#utility.yul\":11848:11874   */\n      swap1\n      pop\n        /* \"#utility.yul\":11920:11929   */\n      dup2\n        /* \"#utility.yul\":11914:11918   */\n      dup2\n        /* \"#utility.yul\":11910:11930   */\n      sub\n        /* \"#utility.yul\":11906:11907   */\n      0x00\n        /* \"#utility.yul\":11895:11904   */\n      dup4\n        /* \"#utility.yul\":11891:11908   */\n      add\n        /* \"#utility.yul\":11884:11931   */\n      mstore\n        /* \"#utility.yul\":11948:12079   */\n      tag_306\n        /* \"#utility.yul\":12074:12078   */\n      dup2\n        /* \"#utility.yul\":11948:12079   */\n      tag_264\n      jump\t// in\n    tag_306:\n        /* \"#utility.yul\":11940:12079   */\n      swap1\n      pop\n        /* \"#utility.yul\":11667:12086   */\n      swap2\n      swap1\n      pop\n      jump\t// out\n        /* \"#utility.yul\":12092:12511   */\n    tag_92:\n        /* \"#utility.yul\":12258:12262   */\n      0x00\n        /* \"#utility.yul\":12296:12298   */\n      0x20\n        /* \"#utility.yul\":12285:12294   */\n      dup3\n        /* \"#utility.yul\":12281:12299   */\n      add\n        /* \"#utility.yul\":12273:12299   */\n      swap1\n      pop\n        /* \"#utility.yul\":12345:12354   */\n      dup2\n        /* \"#utility.yul\":12339:12343   */\n      dup2\n        /* \"#utility.yul\":12335:12355   */\n      sub\n        /* \"#utility.yul\":12331:12332   */\n      0x00\n        /* \"#utility.yul\":12320:12329   */\n      dup4\n        /* \"#utility.yul\":12316:12333   */\n      add\n        /* \"#utility.yul\":12309:12356   */\n      mstore\n        /* \"#utility.yul\":12373:12504   */\n      tag_308\n        /* \"#utility.yul\":12499:12503   */\n      dup2\n        /* \"#utility.yul\":12373:12504   */\n      tag_269\n      jump\t// in\n    tag_308:\n        /* \"#utility.yul\":12365:12504   */\n      swap1\n      pop\n        /* \"#utility.yul\":12092:12511   */\n      swap2\n      swap1\n      pop\n      jump\t// out\n        /* \"#utility.yul\":12517:12739   */\n    tag_19:\n        /* \"#utility.yul\":12610:12614   */\n      0x00\n        /* \"#utility.yul\":12648:12650   */\n      0x20\n        /* \"#utility.yul\":12637:12646   */\n      dup3\n        /* \"#utility.yul\":12633:12651   */\n      add\n        /* \"#utility.yul\":12625:12651   */\n      swap1\n      pop\n        /* \"#utility.yul\":12661:12732   */\n      tag_310\n        /* \"#utility.yul\":12729:12730   */\n      0x00\n        /* \"#utility.yul\":12718:12727   */\n      dup4\n        /* \"#utility.yul\":12714:12731   */\n      add\n        /* \"#utility.yul\":12705:12711   */\n      dup5\n        /* \"#utility.yul\":12661:12732   */\n      tag_274\n      jump\t// in\n    tag_310:\n        /* \"#utility.yul\":12517:12739   */\n      swap3\n      swap2\n      pop\n      pop\n      jump\t// out\n        /* \"#utility.yul\":12745:13077   */\n    tag_44:\n        /* \"#utility.yul\":12866:12870   */\n      0x00\n        /* \"#utility.yul\":12904:12906   */\n      0x40\n        /* \"#utility.yul\":12893:12902   */\n      dup3\n        /* \"#utility.yul\":12889:12907   */\n      add\n        /* \"#utility.yul\":12881:12907   */\n      swap1\n      pop\n        /* \"#utility.yul\":12917:12988   */\n      tag_312\n        /* \"#utility.yul\":12985:12986   */\n      0x00\n        /* \"#utility.yul\":12974:12983   */\n      dup4\n        /* \"#utility.yul\":12970:12987   */\n      add\n        /* \"#utility.yul\":12961:12967   */\n      dup6\n        /* \"#utility.yul\":12917:12988   */\n      tag_274\n      jump\t// in\n    tag_312:\n        /* \"#utility.yul\":12998:13070   */\n      tag_313\n        /* \"#utility.yul\":13066:13068   */\n      0x20\n        /* \"#utility.yul\":13055:13064   */\n      dup4\n        /* \"#utility.yul\":13051:13069   */\n      add\n        /* \"#utility.yul\":13042:13048   */\n      dup5\n        /* \"#utility.yul\":12998:13070   */\n      tag_274\n      jump\t// in\n    tag_313:\n        /* \"#utility.yul\":12745:13077   */\n      swap4\n      swap3\n      pop\n      pop\n      pop\n      jump\t// out\n        /* \"#utility.yul\":13164:13262   */\n    tag_206:\n        /* \"#utility.yul\":13215:13221   */\n      0x00\n        /* \"#utility.yul\":13249:13254   */\n      dup2\n        /* \"#utility.yul\":13243:13255   */\n      mload\n        /* \"#utility.yul\":13233:13255   */\n      swap1\n      pop\n        /* \"#utility.yul\":13164:13262   */\n      swap2\n      swap1\n      pop\n      jump\t// out\n        /* \"#utility.yul\":13268:13367   */\n    tag_218:\n        /* \"#utility.yul\":13320:13326   */\n      0x00\n        /* \"#utility.yul\":13354:13359   */\n      dup2\n        /* \"#utility.yul\":13348:13360   */\n      mload\n        /* \"#utility.yul\":13338:13360   */\n      swap1\n      pop\n        /* \"#utility.yul\":13268:13367   */\n      swap2\n      swap1\n      pop\n      jump\t// out\n        /* \"#utility.yul\":13373:13520   */\n    tag_208:\n        /* \"#utility.yul\":13474:13485   */\n      0x00\n        /* \"#utility.yul\":13511:13514   */\n      dup2\n        /* \"#utility.yul\":13496:13514   */\n      swap1\n      pop\n        /* \"#utility.yul\":13373:13520   */\n      swap3\n      swap2\n      pop\n      pop\n      jump\t// out\n        /* \"#utility.yul\":13526:13695   */\n    tag_220:\n        /* \"#utility.yul\":13610:13621   */\n      0x00\n        /* \"#utility.yul\":13644:13650   */\n      dup3\n        /* \"#utility.yul\":13639:13642   */\n      dup3\n        /* \"#utility.yul\":13632:13651   */\n      mstore\n        /* \"#utility.yul\":13684:13688   */\n      0x20\n        /* \"#utility.yul\":13679:13682   */\n      dup3\n        /* \"#utility.yul\":13675:13689   */\n      add\n        /* \"#utility.yul\":13660:13689   */\n      swap1\n      pop\n        /* \"#utility.yul\":13526:13695   */\n      swap3\n      swap2\n      pop\n      pop\n      jump\t// out\n        /* \"#utility.yul\":13701:14006   */\n    tag_60:\n        /* \"#utility.yul\":13741:13744   */\n      0x00\n        /* \"#utility.yul\":13760:13780   */\n      tag_321\n        /* \"#utility.yul\":13778:13779   */\n      dup3\n        /* \"#utility.yul\":13760:13780   */\n      tag_277\n      jump\t// in\n    tag_321:\n        /* \"#utility.yul\":13755:13780   */\n      swap2\n      pop\n        /* \"#utility.yul\":13794:13814   */\n      tag_322\n        /* \"#utility.yul\":13812:13813   */\n      dup4\n        /* \"#utility.yul\":13794:13814   */\n      tag_277\n      jump\t// in\n    tag_322:\n        /* \"#utility.yul\":13789:13814   */\n      swap3\n      pop\n        /* \"#utility.yul\":13948:13949   */\n      dup3\n        /* \"#utility.yul\":13880:13946   */\n      0xffffffffffffffffffffffffffffffffffffffffffffffffffffffffffffffff\n        /* \"#utility.yul\":13876:13950   */\n      sub\n        /* \"#utility.yul\":13873:13874   */\n      dup3\n        /* \"#utility.yul\":13870:13951   */\n      gt\n        /* \"#utility.yul\":13867:13974   */\n      iszero\n      tag_323\n      jumpi\n        /* \"#utility.yul\":13954:13972   */\n      tag_324\n      tag_325\n      jump\t// in\n    tag_324:\n        /* \"#utility.yul\":13867:13974   */\n    tag_323:\n        /* \"#utility.yul\":13998:13999   */\n      dup3\n        /* \"#utility.yul\":13995:13996   */\n      dup3\n        /* \"#utility.yul\":13991:14000   */\n      add\n        /* \"#utility.yul\":13984:14000   */\n      swap1\n      pop\n        /* \"#utility.yul\":13701:14006   */\n      swap3\n      swap2\n      pop\n      pop\n      jump\t// out\n        /* \"#utility.yul\":14012:14197   */\n    tag_64:\n        /* \"#utility.yul\":14052:14053   */\n      0x00\n        /* \"#utility.yul\":14069:14089   */\n      tag_327\n        /* \"#utility.yul\":14087:14088   */\n      dup3\n        /* \"#utility.yul\":14069:14089   */\n      tag_277\n      jump\t// in\n    tag_327:\n        /* \"#utility.yul\":14064:14089   */\n      swap2\n      pop\n        /* \"#utility.yul\":14103:14123   */\n      tag_328\n        /* \"#utility.yul\":14121:14122   */\n      dup4\n        /* \"#utility.yul\":14103:14123   */\n      tag_277\n      jump\t// in\n    tag_328:\n        /* \"#utility.yul\":14098:14123   */\n      swap3\n      pop\n        /* \"#utility.yul\":14142:14143   */\n      dup3\n        /* \"#utility.yul\":14132:14167   */\n      tag_329\n      jumpi\n        /* \"#utility.yul\":14147:14165   */\n      tag_330\n      tag_331\n      jump\t// in\n    tag_330:\n        /* \"#utility.yul\":14132:14167   */\n    tag_329:\n        /* \"#utility.yul\":14189:14190   */\n      dup3\n        /* \"#utility.yul\":14186:14187   */\n      dup3\n        /* \"#utility.yul\":14182:14191   */\n      div\n        /* \"#utility.yul\":14177:14191   */\n      swap1\n      pop\n        /* \"#utility.yul\":14012:14197   */\n      swap3\n      swap2\n      pop\n      pop\n      jump\t// out\n        /* \"#utility.yul\":14203:14551   */\n    tag_62:\n        /* \"#utility.yul\":14243:14250   */\n      0x00\n        /* \"#utility.yul\":14266:14286   */\n      tag_333\n        /* \"#utility.yul\":14284:14285   */\n      dup3\n        /* \"#utility.yul\":14266:14286   */\n      tag_277\n      jump\t// in\n    tag_333:\n        /* \"#utility.yul\":14261:14286   */\n      swap2\n      pop\n        /* \"#utility.yul\":14300:14320   */\n      tag_334\n        /* \"#utility.yul\":14318:14319   */\n      dup4\n        /* \"#utility.yul\":14300:14320   */\n      tag_277\n      jump\t// in\n    tag_334:\n        /* \"#utility.yul\":14295:14320   */\n      swap3\n      pop\n        /* \"#utility.yul\":14488:14489   */\n      dup2\n        /* \"#utility.yul\":14420:14486   */\n      0xffffffffffffffffffffffffffffffffffffffffffffffffffffffffffffffff\n        /* \"#utility.yul\":14416:14490   */\n      div\n        /* \"#utility.yul\":14413:14414   */\n      dup4\n        /* \"#utility.yul\":14410:14491   */\n      gt\n        /* \"#utility.yul\":14405:14406   */\n      dup3\n        /* \"#utility.yul\":14398:14407   */\n      iszero\n        /* \"#utility.yul\":14391:14408   */\n      iszero\n        /* \"#utility.yul\":14387:14492   */\n      and\n        /* \"#utility.yul\":14384:14515   */\n      iszero\n      tag_335\n      jumpi\n        /* \"#utility.yul\":14495:14513   */\n      tag_336\n      tag_325\n      jump\t// in\n    tag_336:\n        /* \"#utility.yul\":14384:14515   */\n    tag_335:\n        /* \"#utility.yul\":14543:14544   */\n      dup3\n        /* \"#utility.yul\":14540:14541   */\n      dup3\n        /* \"#utility.yul\":14536:14545   */\n      mul\n        /* \"#utility.yul\":14525:14545   */\n      swap1\n      pop\n        /* \"#utility.yul\":14203:14551   */\n      swap3\n      swap2\n      pop\n      pop\n      jump\t// out\n        /* \"#utility.yul\":14557:14748   */\n    tag_66:\n        /* \"#utility.yul\":14597:14601   */\n      0x00\n        /* \"#utility.yul\":14617:14637   */\n      tag_338\n        /* \"#utility.yul\":14635:14636   */\n      dup3\n        /* \"#utility.yul\":14617:14637   */\n      tag_277\n      jump\t// in\n    tag_338:\n        /* \"#utility.yul\":14612:14637   */\n      swap2\n      pop\n        /* \"#utility.yul\":14651:14671   */\n      tag_339\n        /* \"#utility.yul\":14669:14670   */\n      dup4\n        /* \"#utility.yul\":14651:14671   */\n      tag_277\n      jump\t// in\n    tag_339:\n        /* \"#utility.yul\":14646:14671   */\n      swap3\n      pop\n        /* \"#utility.yul\":14690:14691   */\n      dup3\n        /* \"#utility.yul\":14687:14688   */\n      dup3\n        /* \"#utility.yul\":14684:14692   */\n      lt\n        /* \"#utility.yul\":14681:14715   */\n      iszero\n      tag_340\n      jumpi\n        /* \"#utility.yul\":14695:14713   */\n      tag_341\n      tag_325\n      jump\t// in\n    tag_341:\n        /* \"#utility.yul\":14681:14715   */\n    tag_340:\n        /* \"#utility.yul\":14740:14741   */\n      dup3\n        /* \"#utility.yul\":14737:14738   */\n      dup3\n        /* \"#utility.yul\":14733:14742   */\n      sub\n        /* \"#utility.yul\":14725:14742   */\n      swap1\n      pop\n        /* \"#utility.yul\":14557:14748   */\n      swap3\n      swap2\n      pop\n      pop\n      jump\t// out\n        /* \"#utility.yul\":14754:14850   */\n    tag_202:\n        /* \"#utility.yul\":14791:14798   */\n      0x00\n        /* \"#utility.yul\":14820:14844   */\n      tag_343\n        /* \"#utility.yul\":14838:14843   */\n      dup3\n        /* \"#utility.yul\":14820:14844   */\n      tag_344\n      jump\t// in\n    tag_343:\n        /* \"#utility.yul\":14809:14844   */\n      swap1\n      pop\n        /* \"#utility.yul\":14754:14850   */\n      swap2\n      swap1\n      pop\n      jump\t// out\n        /* \"#utility.yul\":14856:14946   */\n    tag_345:\n        /* \"#utility.yul\":14890:14897   */\n      0x00\n        /* \"#utility.yul\":14933:14938   */\n      dup2\n        /* \"#utility.yul\":14926:14939   */\n      iszero\n        /* \"#utility.yul\":14919:14940   */\n      iszero\n        /* \"#utility.yul\":14908:14940   */\n      swap1\n      pop\n        /* \"#utility.yul\":14856:14946   */\n      swap2\n      swap1\n      pop\n      jump\t// out\n        /* \"#utility.yul\":14952:15078   */\n    tag_344:\n        /* \"#utility.yul\":14989:14996   */\n      0x00\n        /* \"#utility.yul\":15029:15071   */\n      0xffffffffffffffffffffffffffffffffffffffff\n        /* \"#utility.yul\":15022:15027   */\n      dup3\n        /* \"#utility.yul\":15018:15072   */\n      and\n        /* \"#utility.yul\":15007:15072   */\n      swap1\n      pop\n        /* \"#utility.yul\":14952:15078   */\n      swap2\n      swap1\n      pop\n      jump\t// out\n        /* \"#utility.yul\":15084:15161   */\n    tag_277:\n        /* \"#utility.yul\":15121:15128   */\n      0x00\n        /* \"#utility.yul\":15150:15155   */\n      dup2\n        /* \"#utility.yul\":15139:15155   */\n      swap1\n      pop\n        /* \"#utility.yul\":15084:15161   */\n      swap2\n      swap1\n      pop\n      jump\t// out\n        /* \"#utility.yul\":15167:15307   */\n    tag_214:\n        /* \"#utility.yul\":15231:15240   */\n      0x00\n        /* \"#utility.yul\":15264:15301   */\n      tag_350\n        /* \"#utility.yul\":15295:15300   */\n      dup3\n        /* \"#utility.yul\":15264:15301   */\n      tag_351\n      jump\t// in\n    tag_350:\n        /* \"#utility.yul\":15251:15301   */\n      swap1\n      pop\n        /* \"#utility.yul\":15167:15307   */\n      swap2\n      swap1\n      pop\n      jump\t// out\n        /* \"#utility.yul\":15313:15439   */\n    tag_351:\n        /* \"#utility.yul\":15363:15372   */\n      0x00\n        /* \"#utility.yul\":15396:15433   */\n      tag_353\n        /* \"#utility.yul\":15427:15432   */\n      dup3\n        /* \"#utility.yul\":15396:15433   */\n      tag_354\n      jump\t// in\n    tag_353:\n        /* \"#utility.yul\":15383:15433   */\n      swap1\n      pop\n        /* \"#utility.yul\":15313:15439   */\n      swap2\n      swap1\n      pop\n      jump\t// out\n        /* \"#utility.yul\":15445:15558   */\n    tag_354:\n        /* \"#utility.yul\":15495:15504   */\n      0x00\n        /* \"#utility.yul\":15528:15552   */\n      tag_356\n        /* \"#utility.yul\":15546:15551   */\n      dup3\n        /* \"#utility.yul\":15528:15552   */\n      tag_344\n      jump\t// in\n    tag_356:\n        /* \"#utility.yul\":15515:15552   */\n      swap1\n      pop\n        /* \"#utility.yul\":15445:15558   */\n      swap2\n      swap1\n      pop\n      jump\t// out\n        /* \"#utility.yul\":15564:15871   */\n    tag_210:\n        /* \"#utility.yul\":15632:15633   */\n      0x00\n        /* \"#utility.yul\":15642:15755   */\n    tag_358:\n        /* \"#utility.yul\":15656:15662   */\n      dup4\n        /* \"#utility.yul\":15653:15654   */\n      dup2\n        /* \"#utility.yul\":15650:15663   */\n      lt\n        /* \"#utility.yul\":15642:15755   */\n      iszero\n      tag_360\n      jumpi\n        /* \"#utility.yul\":15741:15742   */\n      dup1\n        /* \"#utility.yul\":15736:15739   */\n      dup3\n        /* \"#utility.yul\":15732:15743   */\n      add\n        /* \"#utility.yul\":15726:15744   */\n      mload\n        /* \"#utility.yul\":15722:15723   */\n      dup2\n        /* \"#utility.yul\":15717:15720   */\n      dup5\n        /* \"#utility.yul\":15713:15724   */\n      add\n        /* \"#utility.yul\":15706:15745   */\n      mstore\n        /* \"#utility.yul\":15678:15680   */\n      0x20\n        /* \"#utility.yul\":15675:15676   */\n      dup2\n        /* \"#utility.yul\":15671:15681   */\n      add\n        /* \"#utility.yul\":15666:15681   */\n      swap1\n      pop\n        /* \"#utility.yul\":15642:15755   */\n      jump(tag_358)\n    tag_360:\n        /* \"#utility.yul\":15773:15779   */\n      dup4\n        /* \"#utility.yul\":15770:15771   */\n      dup2\n        /* \"#utility.yul\":15767:15780   */\n      gt\n        /* \"#utility.yul\":15764:15865   */\n      iszero\n      tag_361\n      jumpi\n        /* \"#utility.yul\":15853:15854   */\n      0x00\n        /* \"#utility.yul\":15844:15850   */\n      dup5\n        /* \"#utility.yul\":15839:15842   */\n      dup5\n        /* \"#utility.yul\":15835:15851   */\n      add\n        /* \"#utility.yul\":15828:15855   */\n      mstore\n        /* \"#utility.yul\":15764:15865   */\n    tag_361:\n        /* \"#utility.yul\":15613:15871   */\n      pop\n        /* \"#utility.yul\":15564:15871   */\n      pop\n      pop\n      pop\n      jump\t// out\n        /* \"#utility.yul\":15877:16057   */\n    tag_325:\n        /* \"#utility.yul\":15925:16002   */\n      0x4e487b7100000000000000000000000000000000000000000000000000000000\n        /* \"#utility.yul\":15922:15923   */\n      0x00\n        /* \"#utility.yul\":15915:16003   */\n      mstore\n        /* \"#utility.yul\":16022:16026   */\n      0x11\n        /* \"#utility.yul\":16019:16020   */\n      0x04\n        /* \"#utility.yul\":16012:16027   */\n      mstore\n        /* \"#utility.yul\":16046:16050   */\n      0x24\n        /* \"#utility.yul\":16043:16044   */\n      0x00\n        /* \"#utility.yul\":16036:16051   */\n      revert\n        /* \"#utility.yul\":16063:16243   */\n    tag_331:\n        /* \"#utility.yul\":16111:16188   */\n      0x4e487b7100000000000000000000000000000000000000000000000000000000\n        /* \"#utility.yul\":16108:16109   */\n      0x00\n        /* \"#utility.yul\":16101:16189   */\n      mstore\n        /* \"#utility.yul\":16208:16212   */\n      0x12\n        /* \"#utility.yul\":16205:16206   */\n      0x04\n        /* \"#utility.yul\":16198:16213   */\n      mstore\n        /* \"#utility.yul\":16232:16236   */\n      0x24\n        /* \"#utility.yul\":16229:16230   */\n      0x00\n        /* \"#utility.yul\":16222:16237   */\n      revert\n        /* \"#utility.yul\":16372:16489   */\n    tag_184:\n        /* \"#utility.yul\":16481:16482   */\n      0x00\n        /* \"#utility.yul\":16478:16479   */\n      dup1\n        /* \"#utility.yul\":16471:16483   */\n      revert\n        /* \"#utility.yul\":16495:16597   */\n    tag_223:\n        /* \"#utility.yul\":16536:16542   */\n      0x00\n        /* \"#utility.yul\":16587:16589   */\n      0x1f\n        /* \"#utility.yul\":16583:16590   */\n      not\n        /* \"#utility.yul\":16578:16580   */\n      0x1f\n        /* \"#utility.yul\":16571:16576   */\n      dup4\n        /* \"#utility.yul\":16567:16581   */\n      add\n        /* \"#utility.yul\":16563:16591   */\n      and\n        /* \"#utility.yul\":16553:16591   */\n      swap1\n      pop\n        /* \"#utility.yul\":16495:16597   */\n      swap2\n      swap1\n      pop\n      jump\t// out\n        /* \"#utility.yul\":16603:16830   */\n    tag_228:\n        /* \"#utility.yul\":16743:16777   */\n      0x4f776e65723a204e657720726563697069656e7420686173206578697374696e\n        /* \"#utility.yul\":16739:16740   */\n      0x00\n        /* \"#utility.yul\":16731:16737   */\n      dup3\n        /* \"#utility.yul\":16727:16741   */\n      add\n        /* \"#utility.yul\":16720:16778   */\n      mstore\n        /* \"#utility.yul\":16812:16822   */\n      0x6720736861726573000000000000000000000000000000000000000000000000\n        /* \"#utility.yul\":16807:16809   */\n      0x20\n        /* \"#utility.yul\":16799:16805   */\n      dup3\n        /* \"#utility.yul\":16795:16810   */\n      add\n        /* \"#utility.yul\":16788:16823   */\n      mstore\n        /* \"#utility.yul\":16603:16830   */\n      pop\n      jump\t// out\n        /* \"#utility.yul\":16836:17061   */\n    tag_233:\n        /* \"#utility.yul\":16976:17010   */\n      0x4f776e61626c653a206e6577206f776e657220697320746865207a65726f2061\n        /* \"#utility.yul\":16972:16973   */\n      0x00\n        /* \"#utility.yul\":16964:16970   */\n      dup3\n        /* \"#utility.yul\":16960:16974   */\n      add\n        /* \"#utility.yul\":16953:17011   */\n      mstore\n        /* \"#utility.yul\":17045:17053   */\n      0x6464726573730000000000000000000000000000000000000000000000000000\n        /* \"#utility.yul\":17040:17042   */\n      0x20\n        /* \"#utility.yul\":17032:17038   */\n      dup3\n        /* \"#utility.yul\":17028:17043   */\n      add\n        /* \"#utility.yul\":17021:17054   */\n      mstore\n        /* \"#utility.yul\":16836:17061   */\n      pop\n      jump\t// out\n        /* \"#utility.yul\":17067:17246   */\n    tag_238:\n        /* \"#utility.yul\":17207:17238   */\n      0x53706c69747465723a204e6f7468696e6720746f207472616e73666572000000\n        /* \"#utility.yul\":17203:17204   */\n      0x00\n        /* \"#utility.yul\":17195:17201   */\n      dup3\n        /* \"#utility.yul\":17191:17205   */\n      add\n        /* \"#utility.yul\":17184:17239   */\n      mstore\n        /* \"#utility.yul\":17067:17246   */\n      pop\n      jump\t// out\n        /* \"#utility.yul\":17252:17477   */\n    tag_243:\n        /* \"#utility.yul\":17392:17426   */\n      0x416464726573733a20696e73756666696369656e742062616c616e636520666f\n        /* \"#utility.yul\":17388:17389   */\n      0x00\n        /* \"#utility.yul\":17380:17386   */\n      dup3\n        /* \"#utility.yul\":17376:17390   */\n      add\n        /* \"#utility.yul\":17369:17427   */\n      mstore\n        /* \"#utility.yul\":17461:17469   */\n      0x722063616c6c0000000000000000000000000000000000000000000000000000\n        /* \"#utility.yul\":17456:17458   */\n      0x20\n        /* \"#utility.yul\":17448:17454   */\n      dup3\n        /* \"#utility.yul\":17444:17459   */\n      add\n        /* \"#utility.yul\":17437:17470   */\n      mstore\n        /* \"#utility.yul\":17252:17477   */\n      pop\n      jump\t// out\n        /* \"#utility.yul\":17483:17663   */\n    tag_248:\n        /* \"#utility.yul\":17623:17655   */\n      0x53706c69747465723a204163636f756e7420686173206e6f2073686172650000\n        /* \"#utility.yul\":17619:17620   */\n      0x00\n        /* \"#utility.yul\":17611:17617   */\n      dup3\n        /* \"#utility.yul\":17607:17621   */\n      add\n        /* \"#utility.yul\":17600:17656   */\n      mstore\n        /* \"#utility.yul\":17483:17663   */\n      pop\n      jump\t// out\n        /* \"#utility.yul\":17669:17851   */\n    tag_253:\n        /* \"#utility.yul\":17809:17843   */\n      0x4f776e61626c653a2063616c6c6572206973206e6f7420746865206f776e6572\n        /* \"#utility.yul\":17805:17806   */\n      0x00\n        /* \"#utility.yul\":17797:17803   */\n      dup3\n        /* \"#utility.yul\":17793:17807   */\n      add\n        /* \"#utility.yul\":17786:17844   */\n      mstore\n        /* \"#utility.yul\":17669:17851   */\n      pop\n      jump\t// out\n        /* \"#utility.yul\":17857:18082   */\n    tag_258:\n        /* \"#utility.yul\":17997:18031   */\n      0x4f776e65723a2043757272656e7420726563697069656e7420686173206e6f20\n        /* \"#utility.yul\":17993:17994   */\n      0x00\n        /* \"#utility.yul\":17985:17991   */\n      dup3\n        /* \"#utility.yul\":17981:17995   */\n      add\n        /* \"#utility.yul\":17974:18032   */\n      mstore\n        /* \"#utility.yul\":18066:18074   */\n      0x7368617265730000000000000000000000000000000000000000000000000000\n        /* \"#utility.yul\":18061:18063   */\n      0x20\n        /* \"#utility.yul\":18053:18059   */\n      dup3\n        /* \"#utility.yul\":18049:18064   */\n      add\n        /* \"#utility.yul\":18042:18075   */\n      mstore\n        /* \"#utility.yul\":17857:18082   */\n      pop\n      jump\t// out\n        /* \"#utility.yul\":18088:18267   */\n    tag_263:\n        /* \"#utility.yul\":18228:18259   */\n      0x416464726573733a2063616c6c20746f206e6f6e2d636f6e7472616374000000\n        /* \"#utility.yul\":18224:18225   */\n      0x00\n        /* \"#utility.yul\":18216:18222   */\n      dup3\n        /* \"#utility.yul\":18212:18226   */\n      add\n        /* \"#utility.yul\":18205:18260   */\n      mstore\n        /* \"#utility.yul\":18088:18267   */\n      pop\n      jump\t// out\n        /* \"#utility.yul\":18273:18502   */\n    tag_268:\n        /* \"#utility.yul\":18413:18447   */\n      0x5361666545524332303a204552433230206f7065726174696f6e20646964206e\n        /* \"#utility.yul\":18409:18410   */\n      0x00\n        /* \"#utility.yul\":18401:18407   */\n      dup3\n        /* \"#utility.yul\":18397:18411   */\n      add\n        /* \"#utility.yul\":18390:18448   */\n      mstore\n        /* \"#utility.yul\":18482:18494   */\n      0x6f74207375636365656400000000000000000000000000000000000000000000\n        /* \"#utility.yul\":18477:18479   */\n      0x20\n        /* \"#utility.yul\":18469:18475   */\n      dup3\n        /* \"#utility.yul\":18465:18480   */\n      add\n        /* \"#utility.yul\":18458:18495   */\n      mstore\n        /* \"#utility.yul\":18273:18502   */\n      pop\n      jump\t// out\n        /* \"#utility.yul\":18508:18689   */\n    tag_273:\n        /* \"#utility.yul\":18648:18681   */\n      0x5265656e7472616e637947756172643a207265656e7472616e742063616c6c00\n        /* \"#utility.yul\":18644:18645   */\n      0x00\n        /* \"#utility.yul\":18636:18642   */\n      dup3\n        /* \"#utility.yul\":18632:18646   */\n      add\n        /* \"#utility.yul\":18625:18682   */\n      mstore\n        /* \"#utility.yul\":18508:18689   */\n      pop\n      jump\t// out\n        /* \"#utility.yul\":18695:18817   */\n    tag_172:\n        /* \"#utility.yul\":18768:18792   */\n      tag_379\n        /* \"#utility.yul\":18786:18791   */\n      dup2\n        /* \"#utility.yul\":18768:18792   */\n      tag_202\n      jump\t// in\n    tag_379:\n        /* \"#utility.yul\":18761:18766   */\n      dup2\n        /* \"#utility.yul\":18758:18793   */\n      eq\n        /* \"#utility.yul\":18748:18811   */\n      tag_380\n      jumpi\n        /* \"#utility.yul\":18807:18808   */\n      0x00\n        /* \"#utility.yul\":18804:18805   */\n      dup1\n        /* \"#utility.yul\":18797:18809   */\n      revert\n        /* \"#utility.yul\":18748:18811   */\n    tag_380:\n        /* \"#utility.yul\":18695:18817   */\n      pop\n      jump\t// out\n        /* \"#utility.yul\":18823:18939   */\n    tag_176:\n        /* \"#utility.yul\":18893:18914   */\n      tag_382\n        /* \"#utility.yul\":18908:18913   */\n      dup2\n        /* \"#utility.yul\":18893:18914   */\n      tag_345\n      jump\t// in\n    tag_382:\n        /* \"#utility.yul\":18886:18891   */\n      dup2\n        /* \"#utility.yul\":18883:18915   */\n      eq\n        /* \"#utility.yul\":18873:18933   */\n      tag_383\n      jumpi\n        /* \"#utility.yul\":18929:18930   */\n      0x00\n        /* \"#utility.yul\":18926:18927   */\n      dup1\n        /* \"#utility.yul\":18919:18931   */\n      revert\n        /* \"#utility.yul\":18873:18933   */\n    tag_383:\n        /* \"#utility.yul\":18823:18939   */\n      pop\n      jump\t// out\n        /* \"#utility.yul\":18945:19067   */\n    tag_180:\n        /* \"#utility.yul\":19018:19042   */\n      tag_385\n        /* \"#utility.yul\":19036:19041   */\n      dup2\n        /* \"#utility.yul\":19018:19042   */\n      tag_277\n      jump\t// in\n    tag_385:\n        /* \"#utility.yul\":19011:19016   */\n      dup2\n        /* \"#utility.yul\":19008:19043   */\n      eq\n        /* \"#utility.yul\":18998:19061   */\n      tag_386\n      jumpi\n        /* \"#utility.yul\":19057:19058   */\n      0x00\n        /* \"#utility.yul\":19054:19055   */\n      dup1\n        /* \"#utility.yul\":19047:19059   */\n      revert\n        /* \"#utility.yul\":18998:19061   */\n    tag_386:\n        /* \"#utility.yul\":18945:19067   */\n      pop\n      jump\t// out\n\n    auxdata: 0xa26469706673582212201b292551eafdad0ac99d0ac5e43e07b68e64941d5e0af6df04f69f3e829ce46e64736f6c63430008070033\n}\n",
				"bytecode": {
					"linkReferences": {},
					"object": "60c06040523480156200001157600080fd5b50604051620024d4380380620024d48339818101604052810190620000379190620004c5565b620000576200004b6200026f60201b60201c565b6200027760201b60201c565b600180819055508151835114620000a5576040517f08c379a00000000000000000000000000000000000000000000000000000000081526004016200009c9062000618565b60405180910390fd5b6000835111620000ec576040517f08c379a0000000000000000000000000000000000000000000000000000000008152600401620000e390620005d4565b60405180910390fd5b600080600090505b84518110156200022557600084828151811062000116576200011562000820565b5b60200260200101511162000161576040517f08c379a00000000000000000000000000000000000000000000000000000000081526004016200015890620005f6565b60405180910390fd5b83818151811062000177576200017662000820565b5b6020026020010151826200018c9190620006d2565b9150838181518110620001a457620001a362000820565b5b602002602001015160036000878481518110620001c657620001c562000820565b5b602002602001015173ffffffffffffffffffffffffffffffffffffffff1673ffffffffffffffffffffffffffffffffffffffff1681526020019081526020016000206000018190555080806200021c90620007a3565b915050620000f4565b5080608081815250508173ffffffffffffffffffffffffffffffffffffffff1660a08173ffffffffffffffffffffffffffffffffffffffff1660601b815250505050505062000952565b600033905090565b60008060009054906101000a900473ffffffffffffffffffffffffffffffffffffffff169050816000806101000a81548173ffffffffffffffffffffffffffffffffffffffff021916908373ffffffffffffffffffffffffffffffffffffffff1602179055508173ffffffffffffffffffffffffffffffffffffffff168173ffffffffffffffffffffffffffffffffffffffff167f8be0079c531659141344cd1fd0a4f28419497f9722a3daafe3b4186f6b6457e060405160405180910390a35050565b6000620003526200034c8462000663565b6200063a565b9050808382526020820190508285602086028201111562000378576200037762000883565b5b60005b85811015620003ac578162000391888262000431565b8452602084019350602083019250506001810190506200037b565b5050509392505050565b6000620003cd620003c78462000692565b6200063a565b90508083825260208201905082856020860282011115620003f357620003f262000883565b5b60005b858110156200042757816200040c8882620004ae565b845260208401935060208301925050600181019050620003f6565b5050509392505050565b60008151905062000442816200091e565b92915050565b600082601f83011262000460576200045f6200087e565b5b8151620004728482602086016200033b565b91505092915050565b600082601f8301126200049357620004926200087e565b5b8151620004a5848260208601620003b6565b91505092915050565b600081519050620004bf8162000938565b92915050565b600080600060608486031215620004e157620004e06200088d565b5b600084015167ffffffffffffffff81111562000502576200050162000888565b5b620005108682870162000448565b935050602084015167ffffffffffffffff81111562000534576200053362000888565b5b62000542868287016200047b565b9250506040620005558682870162000431565b9150509250925092565b60006200056e601c83620006c1565b91506200057b82620008a3565b602082019050919050565b600062000595601683620006c1565b9150620005a282620008cc565b602082019050919050565b6000620005bc601783620006c1565b9150620005c982620008f5565b602082019050919050565b60006020820190508181036000830152620005ef816200055f565b9050919050565b60006020820190508181036000830152620006118162000586565b9050919050565b600060208201905081810360008301526200063381620005ad565b9050919050565b60006200064662000659565b90506200065482826200076d565b919050565b6000604051905090565b600067ffffffffffffffff8211156200068157620006806200084f565b5b602082029050602081019050919050565b600067ffffffffffffffff821115620006b057620006af6200084f565b5b602082029050602081019050919050565b600082825260208201905092915050565b6000620006df8262000763565b9150620006ec8362000763565b9250827fffffffffffffffffffffffffffffffffffffffffffffffffffffffffffffffff03821115620007245762000723620007f1565b5b828201905092915050565b60006200073c8262000743565b9050919050565b600073ffffffffffffffffffffffffffffffffffffffff82169050919050565b6000819050919050565b620007788262000892565b810181811067ffffffffffffffff821117156200079a57620007996200084f565b5b80604052505050565b6000620007b08262000763565b91507fffffffffffffffffffffffffffffffffffffffffffffffffffffffffffffffff821415620007e657620007e5620007f1565b5b600182019050919050565b7f4e487b7100000000000000000000000000000000000000000000000000000000600052601160045260246000fd5b7f4e487b7100000000000000000000000000000000000000000000000000000000600052603260045260246000fd5b7f4e487b7100000000000000000000000000000000000000000000000000000000600052604160045260246000fd5b600080fd5b600080fd5b600080fd5b600080fd5b6000601f19601f8301169050919050565b7f53706c69747465723a204c656e677468206d757374206265203e203000000000600082015250565b7f53706c69747465723a2053686172657320617265203000000000000000000000600082015250565b7f53706c69747465723a204c656e67746820646966666572000000000000000000600082015250565b62000929816200072f565b81146200093557600080fd5b50565b620009438162000763565b81146200094f57600080fd5b50565b60805160a05160601c611b366200099e6000396000818161023601528181610746015281816108ee0152610b28015260008181610330015281816107f201526109e80152611b366000f3fe608060405234801561001057600080fd5b506004361061009e5760003560e01c806387b0be481161006657806387b0be48146101355780638da5cb5b14610151578063a7310b581461016f578063d8f163ab146101a0578063f2fde38b146101be5761009e565b8063097aad10146100a357806319281afd146100d357806336db9fb2146100ef578063715018a61461010d57806385e3f99714610117575b600080fd5b6100bd60048036038101906100b8919061111f565b6101da565b6040516100ca91906115b3565b60405180910390f35b6100ed60048036038101906100e8919061114c565b6103be565b005b6100f7610744565b6040516101049190611436565b60405180910390f35b610115610768565b005b61011f6107f0565b60405161012c91906115b3565b60405180910390f35b61014f600480360381019061014a919061111f565b610814565b005b610159610bc6565b60405161016691906113f2565b60405180910390f35b6101896004803603810190610184919061111f565b610bef565b6040516101979291906115ce565b60405180910390f35b6101a8610c13565b6040516101b591906115b3565b60405180910390f35b6101d860048036038101906101d3919061111f565b610c19565b005b600080600360008473ffffffffffffffffffffffffffffffffffffffff1673ffffffffffffffffffffffffffffffffffffffff16815260200190815260200160002060000154141561022f57600090506103b9565b60006002547f000000000000000000000000000000000000000000000000000000000000000073ffffffffffffffffffffffffffffffffffffffff166370a08231306040518263ffffffff1660e01b815260040161028d91906113f2565b60206040518083038186803b1580156102a557600080fd5b505afa1580156102b9573d6000803e3d6000fd5b505050506040513d601f19601f820116820180604052508101906102dd91906111b9565b6102e79190611629565b90506000600360008573ffffffffffffffffffffffffffffffffffffffff1673ffffffffffffffffffffffffffffffffffffffff168152602001908152602001600020600101547f0000000000000000000000000000000000000000000000000000000000000000600360008773ffffffffffffffffffffffffffffffffffffffff1673ffffffffffffffffffffffffffffffffffffffff168152602001908152602001600020600001548461039d91906116b0565b6103a7919061167f565b6103b1919061170a565b905080925050505b919050565b6103c6610d11565b73ffffffffffffffffffffffffffffffffffffffff166103e4610bc6565b73ffffffffffffffffffffffffffffffffffffffff161461043a576040517f08c379a000000000000000000000000000000000000000000000000000000000815260040161043190611513565b60405180910390fd5b6000600360008373ffffffffffffffffffffffffffffffffffffffff1673ffffffffffffffffffffffffffffffffffffffff16815260200190815260200160002060000154116104bf576040517f08c379a00000000000000000000000000000000000000000000000000000000081526004016104b690611533565b60405180910390fd5b6000600360008473ffffffffffffffffffffffffffffffffffffffff1673ffffffffffffffffffffffffffffffffffffffff1681526020019081526020016000206000015414610544576040517f08c379a000000000000000000000000000000000000000000000000000000000815260040161053b90611473565b60405180910390fd5b600360008273ffffffffffffffffffffffffffffffffffffffff1673ffffffffffffffffffffffffffffffffffffffff16815260200190815260200160002060000154600360008473ffffffffffffffffffffffffffffffffffffffff1673ffffffffffffffffffffffffffffffffffffffff16815260200190815260200160002060000181905550600360008273ffffffffffffffffffffffffffffffffffffffff1673ffffffffffffffffffffffffffffffffffffffff16815260200190815260200160002060010154600360008473ffffffffffffffffffffffffffffffffffffffff1673ffffffffffffffffffffffffffffffffffffffff168152602001908152602001600020600101819055506000600360008373ffffffffffffffffffffffffffffffffffffffff1673ffffffffffffffffffffffffffffffffffffffff168152602001908152602001600020600001819055506000600360008373ffffffffffffffffffffffffffffffffffffffff1673ffffffffffffffffffffffffffffffffffffffff168152602001908152602001600020600101819055508173ffffffffffffffffffffffffffffffffffffffff168173ffffffffffffffffffffffffffffffffffffffff167f47eba4993da31bfed0680c802fb8577f1a9d57bb4c0881372fbe7ad29995a88060405160405180910390a35050565b7f000000000000000000000000000000000000000000000000000000000000000081565b610770610d11565b73ffffffffffffffffffffffffffffffffffffffff1661078e610bc6565b73ffffffffffffffffffffffffffffffffffffffff16146107e4576040517f08c379a00000000000000000000000000000000000000000000000000000000081526004016107db90611513565b60405180910390fd5b6107ee6000610d19565b565b7f000000000000000000000000000000000000000000000000000000000000000081565b6002600154141561085a576040517f08c379a000000000000000000000000000000000000000000000000000000000815260040161085190611593565b60405180910390fd5b60026001819055506000600360008373ffffffffffffffffffffffffffffffffffffffff1673ffffffffffffffffffffffffffffffffffffffff16815260200190815260200160002060000154116108e7576040517f08c379a00000000000000000000000000000000000000000000000000000000081526004016108de906114f3565b60405180910390fd5b60006002547f000000000000000000000000000000000000000000000000000000000000000073ffffffffffffffffffffffffffffffffffffffff166370a08231306040518263ffffffff1660e01b815260040161094591906113f2565b60206040518083038186803b15801561095d57600080fd5b505afa158015610971573d6000803e3d6000fd5b505050506040513d601f19601f8201168201806040525081019061099591906111b9565b61099f9190611629565b90506000600360008473ffffffffffffffffffffffffffffffffffffffff1673ffffffffffffffffffffffffffffffffffffffff168152602001908152602001600020600101547f0000000000000000000000000000000000000000000000000000000000000000600360008673ffffffffffffffffffffffffffffffffffffffff1673ffffffffffffffffffffffffffffffffffffffff1681526020019081526020016000206000015484610a5591906116b0565b610a5f919061167f565b610a69919061170a565b90506000811415610aaf576040517f08c379a0000000000000000000000000000000000000000000000000000000008152600401610aa6906114b3565b60405180910390fd5b80600360008573ffffffffffffffffffffffffffffffffffffffff1673ffffffffffffffffffffffffffffffffffffffff1681526020019081526020016000206001016000828254610b019190611629565b925050819055508060026000828254610b1a9190611629565b92505081905550610b6c83827f000000000000000000000000000000000000000000000000000000000000000073ffffffffffffffffffffffffffffffffffffffff16610ddd9092919063ffffffff16565b8273ffffffffffffffffffffffffffffffffffffffff167f12f4533b5cbd2c9f8a0752a2d0b16379af992dbb2a0844a5007a19d983b3a93482604051610bb291906115b3565b60405180910390a250506001808190555050565b60008060009054906101000a900473ffffffffffffffffffffffffffffffffffffffff16905090565b60036020528060005260406000206000915090508060000154908060010154905082565b60025481565b610c21610d11565b73ffffffffffffffffffffffffffffffffffffffff16610c3f610bc6565b73ffffffffffffffffffffffffffffffffffffffff1614610c95576040517f08c379a0000000000000000000000000000000000000000000000000000000008152600401610c8c90611513565b60405180910390fd5b600073ffffffffffffffffffffffffffffffffffffffff168173ffffffffffffffffffffffffffffffffffffffff161415610d05576040517f08c379a0000000000000000000000000000000000000000000000000000000008152600401610cfc90611493565b60405180910390fd5b610d0e81610d19565b50565b600033905090565b60008060009054906101000a900473ffffffffffffffffffffffffffffffffffffffff169050816000806101000a81548173ffffffffffffffffffffffffffffffffffffffff021916908373ffffffffffffffffffffffffffffffffffffffff1602179055508173ffffffffffffffffffffffffffffffffffffffff168173ffffffffffffffffffffffffffffffffffffffff167f8be0079c531659141344cd1fd0a4f28419497f9722a3daafe3b4186f6b6457e060405160405180910390a35050565b610e5e8363a9059cbb60e01b8484604051602401610dfc92919061140d565b604051602081830303815290604052907bffffffffffffffffffffffffffffffffffffffffffffffffffffffff19166020820180517bffffffffffffffffffffffffffffffffffffffffffffffffffffffff8381831617835250505050610e63565b505050565b6000610ec5826040518060400160405280602081526020017f5361666545524332303a206c6f772d6c6576656c2063616c6c206661696c65648152508573ffffffffffffffffffffffffffffffffffffffff16610f2a9092919063ffffffff16565b9050600081511115610f255780806020019051810190610ee5919061118c565b610f24576040517f08c379a0000000000000000000000000000000000000000000000000000000008152600401610f1b90611573565b60405180910390fd5b5b505050565b6060610f398484600085610f42565b90509392505050565b606082471015610f87576040517f08c379a0000000000000000000000000000000000000000000000000000000008152600401610f7e906114d3565b60405180910390fd5b610f9085611056565b610fcf576040517f08c379a0000000000000000000000000000000000000000000000000000000008152600401610fc690611553565b60405180910390fd5b6000808673ffffffffffffffffffffffffffffffffffffffff168587604051610ff891906113db565b60006040518083038185875af1925050503d8060008114611035576040519150601f19603f3d011682016040523d82523d6000602084013e61103a565b606091505b509150915061104a828286611079565b92505050949350505050565b6000808273ffffffffffffffffffffffffffffffffffffffff163b119050919050565b60608315611089578290506110d9565b60008351111561109c5782518084602001fd5b816040517f08c379a00000000000000000000000000000000000000000000000000000000081526004016110d09190611451565b60405180910390fd5b9392505050565b6000813590506110ef81611abb565b92915050565b60008151905061110481611ad2565b92915050565b60008151905061111981611ae9565b92915050565b6000602082840312156111355761113461184d565b5b6000611143848285016110e0565b91505092915050565b600080604083850312156111635761116261184d565b5b6000611171858286016110e0565b9250506020611182858286016110e0565b9150509250929050565b6000602082840312156111a2576111a161184d565b5b60006111b0848285016110f5565b91505092915050565b6000602082840312156111cf576111ce61184d565b5b60006111dd8482850161110a565b91505092915050565b6111ef8161173e565b82525050565b6000611200826115f7565b61120a818561160d565b935061121a8185602086016117bc565b80840191505092915050565b61122f81611786565b82525050565b600061124082611602565b61124a8185611618565b935061125a8185602086016117bc565b61126381611852565b840191505092915050565b600061127b602883611618565b915061128682611863565b604082019050919050565b600061129e602683611618565b91506112a9826118b2565b604082019050919050565b60006112c1601d83611618565b91506112cc82611901565b602082019050919050565b60006112e4602683611618565b91506112ef8261192a565b604082019050919050565b6000611307601e83611618565b915061131282611979565b602082019050919050565b600061132a602083611618565b9150611335826119a2565b602082019050919050565b600061134d602683611618565b9150611358826119cb565b604082019050919050565b6000611370601d83611618565b915061137b82611a1a565b602082019050919050565b6000611393602a83611618565b915061139e82611a43565b604082019050919050565b60006113b6601f83611618565b91506113c182611a92565b602082019050919050565b6113d58161177c565b82525050565b60006113e782846111f5565b915081905092915050565b600060208201905061140760008301846111e6565b92915050565b600060408201905061142260008301856111e6565b61142f60208301846113cc565b9392505050565b600060208201905061144b6000830184611226565b92915050565b6000602082019050818103600083015261146b8184611235565b905092915050565b6000602082019050818103600083015261148c8161126e565b9050919050565b600060208201905081810360008301526114ac81611291565b9050919050565b600060208201905081810360008301526114cc816112b4565b9050919050565b600060208201905081810360008301526114ec816112d7565b9050919050565b6000602082019050818103600083015261150c816112fa565b9050919050565b6000602082019050818103600083015261152c8161131d565b9050919050565b6000602082019050818103600083015261154c81611340565b9050919050565b6000602082019050818103600083015261156c81611363565b9050919050565b6000602082019050818103600083015261158c81611386565b9050919050565b600060208201905081810360008301526115ac816113a9565b9050919050565b60006020820190506115c860008301846113cc565b92915050565b60006040820190506115e360008301856113cc565b6115f060208301846113cc565b9392505050565b600081519050919050565b600081519050919050565b600081905092915050565b600082825260208201905092915050565b60006116348261177c565b915061163f8361177c565b9250827fffffffffffffffffffffffffffffffffffffffffffffffffffffffffffffffff03821115611674576116736117ef565b5b828201905092915050565b600061168a8261177c565b91506116958361177c565b9250826116a5576116a461181e565b5b828204905092915050565b60006116bb8261177c565b91506116c68361177c565b9250817fffffffffffffffffffffffffffffffffffffffffffffffffffffffffffffffff04831182151516156116ff576116fe6117ef565b5b828202905092915050565b60006117158261177c565b91506117208361177c565b925082821015611733576117326117ef565b5b828203905092915050565b60006117498261175c565b9050919050565b60008115159050919050565b600073ffffffffffffffffffffffffffffffffffffffff82169050919050565b6000819050919050565b600061179182611798565b9050919050565b60006117a3826117aa565b9050919050565b60006117b58261175c565b9050919050565b60005b838110156117da5780820151818401526020810190506117bf565b838111156117e9576000848401525b50505050565b7f4e487b7100000000000000000000000000000000000000000000000000000000600052601160045260246000fd5b7f4e487b7100000000000000000000000000000000000000000000000000000000600052601260045260246000fd5b600080fd5b6000601f19601f8301169050919050565b7f4f776e65723a204e657720726563697069656e7420686173206578697374696e60008201527f6720736861726573000000000000000000000000000000000000000000000000602082015250565b7f4f776e61626c653a206e6577206f776e657220697320746865207a65726f206160008201527f6464726573730000000000000000000000000000000000000000000000000000602082015250565b7f53706c69747465723a204e6f7468696e6720746f207472616e73666572000000600082015250565b7f416464726573733a20696e73756666696369656e742062616c616e636520666f60008201527f722063616c6c0000000000000000000000000000000000000000000000000000602082015250565b7f53706c69747465723a204163636f756e7420686173206e6f2073686172650000600082015250565b7f4f776e61626c653a2063616c6c6572206973206e6f7420746865206f776e6572600082015250565b7f4f776e65723a2043757272656e7420726563697069656e7420686173206e6f2060008201527f7368617265730000000000000000000000000000000000000000000000000000602082015250565b7f416464726573733a2063616c6c20746f206e6f6e2d636f6e7472616374000000600082015250565b7f5361666545524332303a204552433230206f7065726174696f6e20646964206e60008201527f6f74207375636365656400000000000000000000000000000000000000000000602082015250565b7f5265656e7472616e637947756172643a207265656e7472616e742063616c6c00600082015250565b611ac48161173e565b8114611acf57600080fd5b50565b611adb81611750565b8114611ae657600080fd5b50565b611af28161177c565b8114611afd57600080fd5b5056fea26469706673582212201b292551eafdad0ac99d0ac5e43e07b68e64941d5e0af6df04f69f3e829ce46e64736f6c63430008070033",
					"opcodes": "PUSH1 0xC0 PUSH1 0x40 MSTORE CALLVALUE DUP1 ISZERO PUSH3 0x11 JUMPI PUSH1 0x0 DUP1 REVERT JUMPDEST POP PUSH1 0x40 MLOAD PUSH3 0x24D4 CODESIZE SUB DUP1 PUSH3 0x24D4 DUP4 CODECOPY DUP2 DUP2 ADD PUSH1 0x40 MSTORE DUP2 ADD SWAP1 PUSH3 0x37 SWAP2 SWAP1 PUSH3 0x4C5 JUMP JUMPDEST PUSH3 0x57 PUSH3 0x4B PUSH3 0x26F PUSH1 0x20 SHL PUSH1 0x20 SHR JUMP JUMPDEST PUSH3 0x277 PUSH1 0x20 SHL PUSH1 0x20 SHR JUMP JUMPDEST PUSH1 0x1 DUP1 DUP2 SWAP1 SSTORE POP DUP2 MLOAD DUP4 MLOAD EQ PUSH3 0xA5 JUMPI PUSH1 0x40 MLOAD PUSH32 0x8C379A000000000000000000000000000000000000000000000000000000000 DUP2 MSTORE PUSH1 0x4 ADD PUSH3 0x9C SWAP1 PUSH3 0x618 JUMP JUMPDEST PUSH1 0x40 MLOAD DUP1 SWAP2 SUB SWAP1 REVERT JUMPDEST PUSH1 0x0 DUP4 MLOAD GT PUSH3 0xEC JUMPI PUSH1 0x40 MLOAD PUSH32 0x8C379A000000000000000000000000000000000000000000000000000000000 DUP2 MSTORE PUSH1 0x4 ADD PUSH3 0xE3 SWAP1 PUSH3 0x5D4 JUMP JUMPDEST PUSH1 0x40 MLOAD DUP1 SWAP2 SUB SWAP1 REVERT JUMPDEST PUSH1 0x0 DUP1 PUSH1 0x0 SWAP1 POP JUMPDEST DUP5 MLOAD DUP2 LT ISZERO PUSH3 0x225 JUMPI PUSH1 0x0 DUP5 DUP3 DUP2 MLOAD DUP2 LT PUSH3 0x116 JUMPI PUSH3 0x115 PUSH3 0x820 JUMP JUMPDEST JUMPDEST PUSH1 0x20 MUL PUSH1 0x20 ADD ADD MLOAD GT PUSH3 0x161 JUMPI PUSH1 0x40 MLOAD PUSH32 0x8C379A000000000000000000000000000000000000000000000000000000000 DUP2 MSTORE PUSH1 0x4 ADD PUSH3 0x158 SWAP1 PUSH3 0x5F6 JUMP JUMPDEST PUSH1 0x40 MLOAD DUP1 SWAP2 SUB SWAP1 REVERT JUMPDEST DUP4 DUP2 DUP2 MLOAD DUP2 LT PUSH3 0x177 JUMPI PUSH3 0x176 PUSH3 0x820 JUMP JUMPDEST JUMPDEST PUSH1 0x20 MUL PUSH1 0x20 ADD ADD MLOAD DUP3 PUSH3 0x18C SWAP2 SWAP1 PUSH3 0x6D2 JUMP JUMPDEST SWAP2 POP DUP4 DUP2 DUP2 MLOAD DUP2 LT PUSH3 0x1A4 JUMPI PUSH3 0x1A3 PUSH3 0x820 JUMP JUMPDEST JUMPDEST PUSH1 0x20 MUL PUSH1 0x20 ADD ADD MLOAD PUSH1 0x3 PUSH1 0x0 DUP8 DUP5 DUP2 MLOAD DUP2 LT PUSH3 0x1C6 JUMPI PUSH3 0x1C5 PUSH3 0x820 JUMP JUMPDEST JUMPDEST PUSH1 0x20 MUL PUSH1 0x20 ADD ADD MLOAD PUSH20 0xFFFFFFFFFFFFFFFFFFFFFFFFFFFFFFFFFFFFFFFF AND PUSH20 0xFFFFFFFFFFFFFFFFFFFFFFFFFFFFFFFFFFFFFFFF AND DUP2 MSTORE PUSH1 0x20 ADD SWAP1 DUP2 MSTORE PUSH1 0x20 ADD PUSH1 0x0 KECCAK256 PUSH1 0x0 ADD DUP2 SWAP1 SSTORE POP DUP1 DUP1 PUSH3 0x21C SWAP1 PUSH3 0x7A3 JUMP JUMPDEST SWAP2 POP POP PUSH3 0xF4 JUMP JUMPDEST POP DUP1 PUSH1 0x80 DUP2 DUP2 MSTORE POP POP DUP2 PUSH20 0xFFFFFFFFFFFFFFFFFFFFFFFFFFFFFFFFFFFFFFFF AND PUSH1 0xA0 DUP2 PUSH20 0xFFFFFFFFFFFFFFFFFFFFFFFFFFFFFFFFFFFFFFFF AND PUSH1 0x60 SHL DUP2 MSTORE POP POP POP POP POP POP PUSH3 0x952 JUMP JUMPDEST PUSH1 0x0 CALLER SWAP1 POP SWAP1 JUMP JUMPDEST PUSH1 0x0 DUP1 PUSH1 0x0 SWAP1 SLOAD SWAP1 PUSH2 0x100 EXP SWAP1 DIV PUSH20 0xFFFFFFFFFFFFFFFFFFFFFFFFFFFFFFFFFFFFFFFF AND SWAP1 POP DUP2 PUSH1 0x0 DUP1 PUSH2 0x100 EXP DUP2 SLOAD DUP2 PUSH20 0xFFFFFFFFFFFFFFFFFFFFFFFFFFFFFFFFFFFFFFFF MUL NOT AND SWAP1 DUP4 PUSH20 0xFFFFFFFFFFFFFFFFFFFFFFFFFFFFFFFFFFFFFFFF AND MUL OR SWAP1 SSTORE POP DUP2 PUSH20 0xFFFFFFFFFFFFFFFFFFFFFFFFFFFFFFFFFFFFFFFF AND DUP2 PUSH20 0xFFFFFFFFFFFFFFFFFFFFFFFFFFFFFFFFFFFFFFFF AND PUSH32 0x8BE0079C531659141344CD1FD0A4F28419497F9722A3DAAFE3B4186F6B6457E0 PUSH1 0x40 MLOAD PUSH1 0x40 MLOAD DUP1 SWAP2 SUB SWAP1 LOG3 POP POP JUMP JUMPDEST PUSH1 0x0 PUSH3 0x352 PUSH3 0x34C DUP5 PUSH3 0x663 JUMP JUMPDEST PUSH3 0x63A JUMP JUMPDEST SWAP1 POP DUP1 DUP4 DUP3 MSTORE PUSH1 0x20 DUP3 ADD SWAP1 POP DUP3 DUP6 PUSH1 0x20 DUP7 MUL DUP3 ADD GT ISZERO PUSH3 0x378 JUMPI PUSH3 0x377 PUSH3 0x883 JUMP JUMPDEST JUMPDEST PUSH1 0x0 JUMPDEST DUP6 DUP2 LT ISZERO PUSH3 0x3AC JUMPI DUP2 PUSH3 0x391 DUP9 DUP3 PUSH3 0x431 JUMP JUMPDEST DUP5 MSTORE PUSH1 0x20 DUP5 ADD SWAP4 POP PUSH1 0x20 DUP4 ADD SWAP3 POP POP PUSH1 0x1 DUP2 ADD SWAP1 POP PUSH3 0x37B JUMP JUMPDEST POP POP POP SWAP4 SWAP3 POP POP POP JUMP JUMPDEST PUSH1 0x0 PUSH3 0x3CD PUSH3 0x3C7 DUP5 PUSH3 0x692 JUMP JUMPDEST PUSH3 0x63A JUMP JUMPDEST SWAP1 POP DUP1 DUP4 DUP3 MSTORE PUSH1 0x20 DUP3 ADD SWAP1 POP DUP3 DUP6 PUSH1 0x20 DUP7 MUL DUP3 ADD GT ISZERO PUSH3 0x3F3 JUMPI PUSH3 0x3F2 PUSH3 0x883 JUMP JUMPDEST JUMPDEST PUSH1 0x0 JUMPDEST DUP6 DUP2 LT ISZERO PUSH3 0x427 JUMPI DUP2 PUSH3 0x40C DUP9 DUP3 PUSH3 0x4AE JUMP JUMPDEST DUP5 MSTORE PUSH1 0x20 DUP5 ADD SWAP4 POP PUSH1 0x20 DUP4 ADD SWAP3 POP POP PUSH1 0x1 DUP2 ADD SWAP1 POP PUSH3 0x3F6 JUMP JUMPDEST POP POP POP SWAP4 SWAP3 POP POP POP JUMP JUMPDEST PUSH1 0x0 DUP2 MLOAD SWAP1 POP PUSH3 0x442 DUP2 PUSH3 0x91E JUMP JUMPDEST SWAP3 SWAP2 POP POP JUMP JUMPDEST PUSH1 0x0 DUP3 PUSH1 0x1F DUP4 ADD SLT PUSH3 0x460 JUMPI PUSH3 0x45F PUSH3 0x87E JUMP JUMPDEST JUMPDEST DUP2 MLOAD PUSH3 0x472 DUP5 DUP3 PUSH1 0x20 DUP7 ADD PUSH3 0x33B JUMP JUMPDEST SWAP2 POP POP SWAP3 SWAP2 POP POP JUMP JUMPDEST PUSH1 0x0 DUP3 PUSH1 0x1F DUP4 ADD SLT PUSH3 0x493 JUMPI PUSH3 0x492 PUSH3 0x87E JUMP JUMPDEST JUMPDEST DUP2 MLOAD PUSH3 0x4A5 DUP5 DUP3 PUSH1 0x20 DUP7 ADD PUSH3 0x3B6 JUMP JUMPDEST SWAP2 POP POP SWAP3 SWAP2 POP POP JUMP JUMPDEST PUSH1 0x0 DUP2 MLOAD SWAP1 POP PUSH3 0x4BF DUP2 PUSH3 0x938 JUMP JUMPDEST SWAP3 SWAP2 POP POP JUMP JUMPDEST PUSH1 0x0 DUP1 PUSH1 0x0 PUSH1 0x60 DUP5 DUP7 SUB SLT ISZERO PUSH3 0x4E1 JUMPI PUSH3 0x4E0 PUSH3 0x88D JUMP JUMPDEST JUMPDEST PUSH1 0x0 DUP5 ADD MLOAD PUSH8 0xFFFFFFFFFFFFFFFF DUP2 GT ISZERO PUSH3 0x502 JUMPI PUSH3 0x501 PUSH3 0x888 JUMP JUMPDEST JUMPDEST PUSH3 0x510 DUP7 DUP3 DUP8 ADD PUSH3 0x448 JUMP JUMPDEST SWAP4 POP POP PUSH1 0x20 DUP5 ADD MLOAD PUSH8 0xFFFFFFFFFFFFFFFF DUP2 GT ISZERO PUSH3 0x534 JUMPI PUSH3 0x533 PUSH3 0x888 JUMP JUMPDEST JUMPDEST PUSH3 0x542 DUP7 DUP3 DUP8 ADD PUSH3 0x47B JUMP JUMPDEST SWAP3 POP POP PUSH1 0x40 PUSH3 0x555 DUP7 DUP3 DUP8 ADD PUSH3 0x431 JUMP JUMPDEST SWAP2 POP POP SWAP3 POP SWAP3 POP SWAP3 JUMP JUMPDEST PUSH1 0x0 PUSH3 0x56E PUSH1 0x1C DUP4 PUSH3 0x6C1 JUMP JUMPDEST SWAP2 POP PUSH3 0x57B DUP3 PUSH3 0x8A3 JUMP JUMPDEST PUSH1 0x20 DUP3 ADD SWAP1 POP SWAP2 SWAP1 POP JUMP JUMPDEST PUSH1 0x0 PUSH3 0x595 PUSH1 0x16 DUP4 PUSH3 0x6C1 JUMP JUMPDEST SWAP2 POP PUSH3 0x5A2 DUP3 PUSH3 0x8CC JUMP JUMPDEST PUSH1 0x20 DUP3 ADD SWAP1 POP SWAP2 SWAP1 POP JUMP JUMPDEST PUSH1 0x0 PUSH3 0x5BC PUSH1 0x17 DUP4 PUSH3 0x6C1 JUMP JUMPDEST SWAP2 POP PUSH3 0x5C9 DUP3 PUSH3 0x8F5 JUMP JUMPDEST PUSH1 0x20 DUP3 ADD SWAP1 POP SWAP2 SWAP1 POP JUMP JUMPDEST PUSH1 0x0 PUSH1 0x20 DUP3 ADD SWAP1 POP DUP2 DUP2 SUB PUSH1 0x0 DUP4 ADD MSTORE PUSH3 0x5EF DUP2 PUSH3 0x55F JUMP JUMPDEST SWAP1 POP SWAP2 SWAP1 POP JUMP JUMPDEST PUSH1 0x0 PUSH1 0x20 DUP3 ADD SWAP1 POP DUP2 DUP2 SUB PUSH1 0x0 DUP4 ADD MSTORE PUSH3 0x611 DUP2 PUSH3 0x586 JUMP JUMPDEST SWAP1 POP SWAP2 SWAP1 POP JUMP JUMPDEST PUSH1 0x0 PUSH1 0x20 DUP3 ADD SWAP1 POP DUP2 DUP2 SUB PUSH1 0x0 DUP4 ADD MSTORE PUSH3 0x633 DUP2 PUSH3 0x5AD JUMP JUMPDEST SWAP1 POP SWAP2 SWAP1 POP JUMP JUMPDEST PUSH1 0x0 PUSH3 0x646 PUSH3 0x659 JUMP JUMPDEST SWAP1 POP PUSH3 0x654 DUP3 DUP3 PUSH3 0x76D JUMP JUMPDEST SWAP2 SWAP1 POP JUMP JUMPDEST PUSH1 0x0 PUSH1 0x40 MLOAD SWAP1 POP SWAP1 JUMP JUMPDEST PUSH1 0x0 PUSH8 0xFFFFFFFFFFFFFFFF DUP3 GT ISZERO PUSH3 0x681 JUMPI PUSH3 0x680 PUSH3 0x84F JUMP JUMPDEST JUMPDEST PUSH1 0x20 DUP3 MUL SWAP1 POP PUSH1 0x20 DUP2 ADD SWAP1 POP SWAP2 SWAP1 POP JUMP JUMPDEST PUSH1 0x0 PUSH8 0xFFFFFFFFFFFFFFFF DUP3 GT ISZERO PUSH3 0x6B0 JUMPI PUSH3 0x6AF PUSH3 0x84F JUMP JUMPDEST JUMPDEST PUSH1 0x20 DUP3 MUL SWAP1 POP PUSH1 0x20 DUP2 ADD SWAP1 POP SWAP2 SWAP1 POP JUMP JUMPDEST PUSH1 0x0 DUP3 DUP3 MSTORE PUSH1 0x20 DUP3 ADD SWAP1 POP SWAP3 SWAP2 POP POP JUMP JUMPDEST PUSH1 0x0 PUSH3 0x6DF DUP3 PUSH3 0x763 JUMP JUMPDEST SWAP2 POP PUSH3 0x6EC DUP4 PUSH3 0x763 JUMP JUMPDEST SWAP3 POP DUP3 PUSH32 0xFFFFFFFFFFFFFFFFFFFFFFFFFFFFFFFFFFFFFFFFFFFFFFFFFFFFFFFFFFFFFFFF SUB DUP3 GT ISZERO PUSH3 0x724 JUMPI PUSH3 0x723 PUSH3 0x7F1 JUMP JUMPDEST JUMPDEST DUP3 DUP3 ADD SWAP1 POP SWAP3 SWAP2 POP POP JUMP JUMPDEST PUSH1 0x0 PUSH3 0x73C DUP3 PUSH3 0x743 JUMP JUMPDEST SWAP1 POP SWAP2 SWAP1 POP JUMP JUMPDEST PUSH1 0x0 PUSH20 0xFFFFFFFFFFFFFFFFFFFFFFFFFFFFFFFFFFFFFFFF DUP3 AND SWAP1 POP SWAP2 SWAP1 POP JUMP JUMPDEST PUSH1 0x0 DUP2 SWAP1 POP SWAP2 SWAP1 POP JUMP JUMPDEST PUSH3 0x778 DUP3 PUSH3 0x892 JUMP JUMPDEST DUP2 ADD DUP2 DUP2 LT PUSH8 0xFFFFFFFFFFFFFFFF DUP3 GT OR ISZERO PUSH3 0x79A JUMPI PUSH3 0x799 PUSH3 0x84F JUMP JUMPDEST JUMPDEST DUP1 PUSH1 0x40 MSTORE POP POP POP JUMP JUMPDEST PUSH1 0x0 PUSH3 0x7B0 DUP3 PUSH3 0x763 JUMP JUMPDEST SWAP2 POP PUSH32 0xFFFFFFFFFFFFFFFFFFFFFFFFFFFFFFFFFFFFFFFFFFFFFFFFFFFFFFFFFFFFFFFF DUP3 EQ ISZERO PUSH3 0x7E6 JUMPI PUSH3 0x7E5 PUSH3 0x7F1 JUMP JUMPDEST JUMPDEST PUSH1 0x1 DUP3 ADD SWAP1 POP SWAP2 SWAP1 POP JUMP JUMPDEST PUSH32 0x4E487B7100000000000000000000000000000000000000000000000000000000 PUSH1 0x0 MSTORE PUSH1 0x11 PUSH1 0x4 MSTORE PUSH1 0x24 PUSH1 0x0 REVERT JUMPDEST PUSH32 0x4E487B7100000000000000000000000000000000000000000000000000000000 PUSH1 0x0 MSTORE PUSH1 0x32 PUSH1 0x4 MSTORE PUSH1 0x24 PUSH1 0x0 REVERT JUMPDEST PUSH32 0x4E487B7100000000000000000000000000000000000000000000000000000000 PUSH1 0x0 MSTORE PUSH1 0x41 PUSH1 0x4 MSTORE PUSH1 0x24 PUSH1 0x0 REVERT JUMPDEST PUSH1 0x0 DUP1 REVERT JUMPDEST PUSH1 0x0 DUP1 REVERT JUMPDEST PUSH1 0x0 DUP1 REVERT JUMPDEST PUSH1 0x0 DUP1 REVERT JUMPDEST PUSH1 0x0 PUSH1 0x1F NOT PUSH1 0x1F DUP4 ADD AND SWAP1 POP SWAP2 SWAP1 POP JUMP JUMPDEST PUSH32 0x53706C69747465723A204C656E677468206D757374206265203E203000000000 PUSH1 0x0 DUP3 ADD MSTORE POP JUMP JUMPDEST PUSH32 0x53706C69747465723A2053686172657320617265203000000000000000000000 PUSH1 0x0 DUP3 ADD MSTORE POP JUMP JUMPDEST PUSH32 0x53706C69747465723A204C656E67746820646966666572000000000000000000 PUSH1 0x0 DUP3 ADD MSTORE POP JUMP JUMPDEST PUSH3 0x929 DUP2 PUSH3 0x72F JUMP JUMPDEST DUP2 EQ PUSH3 0x935 JUMPI PUSH1 0x0 DUP1 REVERT JUMPDEST POP JUMP JUMPDEST PUSH3 0x943 DUP2 PUSH3 0x763 JUMP JUMPDEST DUP2 EQ PUSH3 0x94F JUMPI PUSH1 0x0 DUP1 REVERT JUMPDEST POP JUMP JUMPDEST PUSH1 0x80 MLOAD PUSH1 0xA0 MLOAD PUSH1 0x60 SHR PUSH2 0x1B36 PUSH3 0x99E PUSH1 0x0 CODECOPY PUSH1 0x0 DUP2 DUP2 PUSH2 0x236 ADD MSTORE DUP2 DUP2 PUSH2 0x746 ADD MSTORE DUP2 DUP2 PUSH2 0x8EE ADD MSTORE PUSH2 0xB28 ADD MSTORE PUSH1 0x0 DUP2 DUP2 PUSH2 0x330 ADD MSTORE DUP2 DUP2 PUSH2 0x7F2 ADD MSTORE PUSH2 0x9E8 ADD MSTORE PUSH2 0x1B36 PUSH1 0x0 RETURN INVALID PUSH1 0x80 PUSH1 0x40 MSTORE CALLVALUE DUP1 ISZERO PUSH2 0x10 JUMPI PUSH1 0x0 DUP1 REVERT JUMPDEST POP PUSH1 0x4 CALLDATASIZE LT PUSH2 0x9E JUMPI PUSH1 0x0 CALLDATALOAD PUSH1 0xE0 SHR DUP1 PUSH4 0x87B0BE48 GT PUSH2 0x66 JUMPI DUP1 PUSH4 0x87B0BE48 EQ PUSH2 0x135 JUMPI DUP1 PUSH4 0x8DA5CB5B EQ PUSH2 0x151 JUMPI DUP1 PUSH4 0xA7310B58 EQ PUSH2 0x16F JUMPI DUP1 PUSH4 0xD8F163AB EQ PUSH2 0x1A0 JUMPI DUP1 PUSH4 0xF2FDE38B EQ PUSH2 0x1BE JUMPI PUSH2 0x9E JUMP JUMPDEST DUP1 PUSH4 0x97AAD10 EQ PUSH2 0xA3 JUMPI DUP1 PUSH4 0x19281AFD EQ PUSH2 0xD3 JUMPI DUP1 PUSH4 0x36DB9FB2 EQ PUSH2 0xEF JUMPI DUP1 PUSH4 0x715018A6 EQ PUSH2 0x10D JUMPI DUP1 PUSH4 0x85E3F997 EQ PUSH2 0x117 JUMPI JUMPDEST PUSH1 0x0 DUP1 REVERT JUMPDEST PUSH2 0xBD PUSH1 0x4 DUP1 CALLDATASIZE SUB DUP2 ADD SWAP1 PUSH2 0xB8 SWAP2 SWAP1 PUSH2 0x111F JUMP JUMPDEST PUSH2 0x1DA JUMP JUMPDEST PUSH1 0x40 MLOAD PUSH2 0xCA SWAP2 SWAP1 PUSH2 0x15B3 JUMP JUMPDEST PUSH1 0x40 MLOAD DUP1 SWAP2 SUB SWAP1 RETURN JUMPDEST PUSH2 0xED PUSH1 0x4 DUP1 CALLDATASIZE SUB DUP2 ADD SWAP1 PUSH2 0xE8 SWAP2 SWAP1 PUSH2 0x114C JUMP JUMPDEST PUSH2 0x3BE JUMP JUMPDEST STOP JUMPDEST PUSH2 0xF7 PUSH2 0x744 JUMP JUMPDEST PUSH1 0x40 MLOAD PUSH2 0x104 SWAP2 SWAP1 PUSH2 0x1436 JUMP JUMPDEST PUSH1 0x40 MLOAD DUP1 SWAP2 SUB SWAP1 RETURN JUMPDEST PUSH2 0x115 PUSH2 0x768 JUMP JUMPDEST STOP JUMPDEST PUSH2 0x11F PUSH2 0x7F0 JUMP JUMPDEST PUSH1 0x40 MLOAD PUSH2 0x12C SWAP2 SWAP1 PUSH2 0x15B3 JUMP JUMPDEST PUSH1 0x40 MLOAD DUP1 SWAP2 SUB SWAP1 RETURN JUMPDEST PUSH2 0x14F PUSH1 0x4 DUP1 CALLDATASIZE SUB DUP2 ADD SWAP1 PUSH2 0x14A SWAP2 SWAP1 PUSH2 0x111F JUMP JUMPDEST PUSH2 0x814 JUMP JUMPDEST STOP JUMPDEST PUSH2 0x159 PUSH2 0xBC6 JUMP JUMPDEST PUSH1 0x40 MLOAD PUSH2 0x166 SWAP2 SWAP1 PUSH2 0x13F2 JUMP JUMPDEST PUSH1 0x40 MLOAD DUP1 SWAP2 SUB SWAP1 RETURN JUMPDEST PUSH2 0x189 PUSH1 0x4 DUP1 CALLDATASIZE SUB DUP2 ADD SWAP1 PUSH2 0x184 SWAP2 SWAP1 PUSH2 0x111F JUMP JUMPDEST PUSH2 0xBEF JUMP JUMPDEST PUSH1 0x40 MLOAD PUSH2 0x197 SWAP3 SWAP2 SWAP1 PUSH2 0x15CE JUMP JUMPDEST PUSH1 0x40 MLOAD DUP1 SWAP2 SUB SWAP1 RETURN JUMPDEST PUSH2 0x1A8 PUSH2 0xC13 JUMP JUMPDEST PUSH1 0x40 MLOAD PUSH2 0x1B5 SWAP2 SWAP1 PUSH2 0x15B3 JUMP JUMPDEST PUSH1 0x40 MLOAD DUP1 SWAP2 SUB SWAP1 RETURN JUMPDEST PUSH2 0x1D8 PUSH1 0x4 DUP1 CALLDATASIZE SUB DUP2 ADD SWAP1 PUSH2 0x1D3 SWAP2 SWAP1 PUSH2 0x111F JUMP JUMPDEST PUSH2 0xC19 JUMP JUMPDEST STOP JUMPDEST PUSH1 0x0 DUP1 PUSH1 0x3 PUSH1 0x0 DUP5 PUSH20 0xFFFFFFFFFFFFFFFFFFFFFFFFFFFFFFFFFFFFFFFF AND PUSH20 0xFFFFFFFFFFFFFFFFFFFFFFFFFFFFFFFFFFFFFFFF AND DUP2 MSTORE PUSH1 0x20 ADD SWAP1 DUP2 MSTORE PUSH1 0x20 ADD PUSH1 0x0 KECCAK256 PUSH1 0x0 ADD SLOAD EQ ISZERO PUSH2 0x22F JUMPI PUSH1 0x0 SWAP1 POP PUSH2 0x3B9 JUMP JUMPDEST PUSH1 0x0 PUSH1 0x2 SLOAD PUSH32 0x0 PUSH20 0xFFFFFFFFFFFFFFFFFFFFFFFFFFFFFFFFFFFFFFFF AND PUSH4 0x70A08231 ADDRESS PUSH1 0x40 MLOAD DUP3 PUSH4 0xFFFFFFFF AND PUSH1 0xE0 SHL DUP2 MSTORE PUSH1 0x4 ADD PUSH2 0x28D SWAP2 SWAP1 PUSH2 0x13F2 JUMP JUMPDEST PUSH1 0x20 PUSH1 0x40 MLOAD DUP1 DUP4 SUB DUP2 DUP7 DUP1 EXTCODESIZE ISZERO DUP1 ISZERO PUSH2 0x2A5 JUMPI PUSH1 0x0 DUP1 REVERT JUMPDEST POP GAS STATICCALL ISZERO DUP1 ISZERO PUSH2 0x2B9 JUMPI RETURNDATASIZE PUSH1 0x0 DUP1 RETURNDATACOPY RETURNDATASIZE PUSH1 0x0 REVERT JUMPDEST POP POP POP POP PUSH1 0x40 MLOAD RETURNDATASIZE PUSH1 0x1F NOT PUSH1 0x1F DUP3 ADD AND DUP3 ADD DUP1 PUSH1 0x40 MSTORE POP DUP2 ADD SWAP1 PUSH2 0x2DD SWAP2 SWAP1 PUSH2 0x11B9 JUMP JUMPDEST PUSH2 0x2E7 SWAP2 SWAP1 PUSH2 0x1629 JUMP JUMPDEST SWAP1 POP PUSH1 0x0 PUSH1 0x3 PUSH1 0x0 DUP6 PUSH20 0xFFFFFFFFFFFFFFFFFFFFFFFFFFFFFFFFFFFFFFFF AND PUSH20 0xFFFFFFFFFFFFFFFFFFFFFFFFFFFFFFFFFFFFFFFF AND DUP2 MSTORE PUSH1 0x20 ADD SWAP1 DUP2 MSTORE PUSH1 0x20 ADD PUSH1 0x0 KECCAK256 PUSH1 0x1 ADD SLOAD PUSH32 0x0 PUSH1 0x3 PUSH1 0x0 DUP8 PUSH20 0xFFFFFFFFFFFFFFFFFFFFFFFFFFFFFFFFFFFFFFFF AND PUSH20 0xFFFFFFFFFFFFFFFFFFFFFFFFFFFFFFFFFFFFFFFF AND DUP2 MSTORE PUSH1 0x20 ADD SWAP1 DUP2 MSTORE PUSH1 0x20 ADD PUSH1 0x0 KECCAK256 PUSH1 0x0 ADD SLOAD DUP5 PUSH2 0x39D SWAP2 SWAP1 PUSH2 0x16B0 JUMP JUMPDEST PUSH2 0x3A7 SWAP2 SWAP1 PUSH2 0x167F JUMP JUMPDEST PUSH2 0x3B1 SWAP2 SWAP1 PUSH2 0x170A JUMP JUMPDEST SWAP1 POP DUP1 SWAP3 POP POP POP JUMPDEST SWAP2 SWAP1 POP JUMP JUMPDEST PUSH2 0x3C6 PUSH2 0xD11 JUMP JUMPDEST PUSH20 0xFFFFFFFFFFFFFFFFFFFFFFFFFFFFFFFFFFFFFFFF AND PUSH2 0x3E4 PUSH2 0xBC6 JUMP JUMPDEST PUSH20 0xFFFFFFFFFFFFFFFFFFFFFFFFFFFFFFFFFFFFFFFF AND EQ PUSH2 0x43A JUMPI PUSH1 0x40 MLOAD PUSH32 0x8C379A000000000000000000000000000000000000000000000000000000000 DUP2 MSTORE PUSH1 0x4 ADD PUSH2 0x431 SWAP1 PUSH2 0x1513 JUMP JUMPDEST PUSH1 0x40 MLOAD DUP1 SWAP2 SUB SWAP1 REVERT JUMPDEST PUSH1 0x0 PUSH1 0x3 PUSH1 0x0 DUP4 PUSH20 0xFFFFFFFFFFFFFFFFFFFFFFFFFFFFFFFFFFFFFFFF AND PUSH20 0xFFFFFFFFFFFFFFFFFFFFFFFFFFFFFFFFFFFFFFFF AND DUP2 MSTORE PUSH1 0x20 ADD SWAP1 DUP2 MSTORE PUSH1 0x20 ADD PUSH1 0x0 KECCAK256 PUSH1 0x0 ADD SLOAD GT PUSH2 0x4BF JUMPI PUSH1 0x40 MLOAD PUSH32 0x8C379A000000000000000000000000000000000000000000000000000000000 DUP2 MSTORE PUSH1 0x4 ADD PUSH2 0x4B6 SWAP1 PUSH2 0x1533 JUMP JUMPDEST PUSH1 0x40 MLOAD DUP1 SWAP2 SUB SWAP1 REVERT JUMPDEST PUSH1 0x0 PUSH1 0x3 PUSH1 0x0 DUP5 PUSH20 0xFFFFFFFFFFFFFFFFFFFFFFFFFFFFFFFFFFFFFFFF AND PUSH20 0xFFFFFFFFFFFFFFFFFFFFFFFFFFFFFFFFFFFFFFFF AND DUP2 MSTORE PUSH1 0x20 ADD SWAP1 DUP2 MSTORE PUSH1 0x20 ADD PUSH1 0x0 KECCAK256 PUSH1 0x0 ADD SLOAD EQ PUSH2 0x544 JUMPI PUSH1 0x40 MLOAD PUSH32 0x8C379A000000000000000000000000000000000000000000000000000000000 DUP2 MSTORE PUSH1 0x4 ADD PUSH2 0x53B SWAP1 PUSH2 0x1473 JUMP JUMPDEST PUSH1 0x40 MLOAD DUP1 SWAP2 SUB SWAP1 REVERT JUMPDEST PUSH1 0x3 PUSH1 0x0 DUP3 PUSH20 0xFFFFFFFFFFFFFFFFFFFFFFFFFFFFFFFFFFFFFFFF AND PUSH20 0xFFFFFFFFFFFFFFFFFFFFFFFFFFFFFFFFFFFFFFFF AND DUP2 MSTORE PUSH1 0x20 ADD SWAP1 DUP2 MSTORE PUSH1 0x20 ADD PUSH1 0x0 KECCAK256 PUSH1 0x0 ADD SLOAD PUSH1 0x3 PUSH1 0x0 DUP5 PUSH20 0xFFFFFFFFFFFFFFFFFFFFFFFFFFFFFFFFFFFFFFFF AND PUSH20 0xFFFFFFFFFFFFFFFFFFFFFFFFFFFFFFFFFFFFFFFF AND DUP2 MSTORE PUSH1 0x20 ADD SWAP1 DUP2 MSTORE PUSH1 0x20 ADD PUSH1 0x0 KECCAK256 PUSH1 0x0 ADD DUP2 SWAP1 SSTORE POP PUSH1 0x3 PUSH1 0x0 DUP3 PUSH20 0xFFFFFFFFFFFFFFFFFFFFFFFFFFFFFFFFFFFFFFFF AND PUSH20 0xFFFFFFFFFFFFFFFFFFFFFFFFFFFFFFFFFFFFFFFF AND DUP2 MSTORE PUSH1 0x20 ADD SWAP1 DUP2 MSTORE PUSH1 0x20 ADD PUSH1 0x0 KECCAK256 PUSH1 0x1 ADD SLOAD PUSH1 0x3 PUSH1 0x0 DUP5 PUSH20 0xFFFFFFFFFFFFFFFFFFFFFFFFFFFFFFFFFFFFFFFF AND PUSH20 0xFFFFFFFFFFFFFFFFFFFFFFFFFFFFFFFFFFFFFFFF AND DUP2 MSTORE PUSH1 0x20 ADD SWAP1 DUP2 MSTORE PUSH1 0x20 ADD PUSH1 0x0 KECCAK256 PUSH1 0x1 ADD DUP2 SWAP1 SSTORE POP PUSH1 0x0 PUSH1 0x3 PUSH1 0x0 DUP4 PUSH20 0xFFFFFFFFFFFFFFFFFFFFFFFFFFFFFFFFFFFFFFFF AND PUSH20 0xFFFFFFFFFFFFFFFFFFFFFFFFFFFFFFFFFFFFFFFF AND DUP2 MSTORE PUSH1 0x20 ADD SWAP1 DUP2 MSTORE PUSH1 0x20 ADD PUSH1 0x0 KECCAK256 PUSH1 0x0 ADD DUP2 SWAP1 SSTORE POP PUSH1 0x0 PUSH1 0x3 PUSH1 0x0 DUP4 PUSH20 0xFFFFFFFFFFFFFFFFFFFFFFFFFFFFFFFFFFFFFFFF AND PUSH20 0xFFFFFFFFFFFFFFFFFFFFFFFFFFFFFFFFFFFFFFFF AND DUP2 MSTORE PUSH1 0x20 ADD SWAP1 DUP2 MSTORE PUSH1 0x20 ADD PUSH1 0x0 KECCAK256 PUSH1 0x1 ADD DUP2 SWAP1 SSTORE POP DUP2 PUSH20 0xFFFFFFFFFFFFFFFFFFFFFFFFFFFFFFFFFFFFFFFF AND DUP2 PUSH20 0xFFFFFFFFFFFFFFFFFFFFFFFFFFFFFFFFFFFFFFFF AND PUSH32 0x47EBA4993DA31BFED0680C802FB8577F1A9D57BB4C0881372FBE7AD29995A880 PUSH1 0x40 MLOAD PUSH1 0x40 MLOAD DUP1 SWAP2 SUB SWAP1 LOG3 POP POP JUMP JUMPDEST PUSH32 0x0 DUP2 JUMP JUMPDEST PUSH2 0x770 PUSH2 0xD11 JUMP JUMPDEST PUSH20 0xFFFFFFFFFFFFFFFFFFFFFFFFFFFFFFFFFFFFFFFF AND PUSH2 0x78E PUSH2 0xBC6 JUMP JUMPDEST PUSH20 0xFFFFFFFFFFFFFFFFFFFFFFFFFFFFFFFFFFFFFFFF AND EQ PUSH2 0x7E4 JUMPI PUSH1 0x40 MLOAD PUSH32 0x8C379A000000000000000000000000000000000000000000000000000000000 DUP2 MSTORE PUSH1 0x4 ADD PUSH2 0x7DB SWAP1 PUSH2 0x1513 JUMP JUMPDEST PUSH1 0x40 MLOAD DUP1 SWAP2 SUB SWAP1 REVERT JUMPDEST PUSH2 0x7EE PUSH1 0x0 PUSH2 0xD19 JUMP JUMPDEST JUMP JUMPDEST PUSH32 0x0 DUP2 JUMP JUMPDEST PUSH1 0x2 PUSH1 0x1 SLOAD EQ ISZERO PUSH2 0x85A JUMPI PUSH1 0x40 MLOAD PUSH32 0x8C379A000000000000000000000000000000000000000000000000000000000 DUP2 MSTORE PUSH1 0x4 ADD PUSH2 0x851 SWAP1 PUSH2 0x1593 JUMP JUMPDEST PUSH1 0x40 MLOAD DUP1 SWAP2 SUB SWAP1 REVERT JUMPDEST PUSH1 0x2 PUSH1 0x1 DUP2 SWAP1 SSTORE POP PUSH1 0x0 PUSH1 0x3 PUSH1 0x0 DUP4 PUSH20 0xFFFFFFFFFFFFFFFFFFFFFFFFFFFFFFFFFFFFFFFF AND PUSH20 0xFFFFFFFFFFFFFFFFFFFFFFFFFFFFFFFFFFFFFFFF AND DUP2 MSTORE PUSH1 0x20 ADD SWAP1 DUP2 MSTORE PUSH1 0x20 ADD PUSH1 0x0 KECCAK256 PUSH1 0x0 ADD SLOAD GT PUSH2 0x8E7 JUMPI PUSH1 0x40 MLOAD PUSH32 0x8C379A000000000000000000000000000000000000000000000000000000000 DUP2 MSTORE PUSH1 0x4 ADD PUSH2 0x8DE SWAP1 PUSH2 0x14F3 JUMP JUMPDEST PUSH1 0x40 MLOAD DUP1 SWAP2 SUB SWAP1 REVERT JUMPDEST PUSH1 0x0 PUSH1 0x2 SLOAD PUSH32 0x0 PUSH20 0xFFFFFFFFFFFFFFFFFFFFFFFFFFFFFFFFFFFFFFFF AND PUSH4 0x70A08231 ADDRESS PUSH1 0x40 MLOAD DUP3 PUSH4 0xFFFFFFFF AND PUSH1 0xE0 SHL DUP2 MSTORE PUSH1 0x4 ADD PUSH2 0x945 SWAP2 SWAP1 PUSH2 0x13F2 JUMP JUMPDEST PUSH1 0x20 PUSH1 0x40 MLOAD DUP1 DUP4 SUB DUP2 DUP7 DUP1 EXTCODESIZE ISZERO DUP1 ISZERO PUSH2 0x95D JUMPI PUSH1 0x0 DUP1 REVERT JUMPDEST POP GAS STATICCALL ISZERO DUP1 ISZERO PUSH2 0x971 JUMPI RETURNDATASIZE PUSH1 0x0 DUP1 RETURNDATACOPY RETURNDATASIZE PUSH1 0x0 REVERT JUMPDEST POP POP POP POP PUSH1 0x40 MLOAD RETURNDATASIZE PUSH1 0x1F NOT PUSH1 0x1F DUP3 ADD AND DUP3 ADD DUP1 PUSH1 0x40 MSTORE POP DUP2 ADD SWAP1 PUSH2 0x995 SWAP2 SWAP1 PUSH2 0x11B9 JUMP JUMPDEST PUSH2 0x99F SWAP2 SWAP1 PUSH2 0x1629 JUMP JUMPDEST SWAP1 POP PUSH1 0x0 PUSH1 0x3 PUSH1 0x0 DUP5 PUSH20 0xFFFFFFFFFFFFFFFFFFFFFFFFFFFFFFFFFFFFFFFF AND PUSH20 0xFFFFFFFFFFFFFFFFFFFFFFFFFFFFFFFFFFFFFFFF AND DUP2 MSTORE PUSH1 0x20 ADD SWAP1 DUP2 MSTORE PUSH1 0x20 ADD PUSH1 0x0 KECCAK256 PUSH1 0x1 ADD SLOAD PUSH32 0x0 PUSH1 0x3 PUSH1 0x0 DUP7 PUSH20 0xFFFFFFFFFFFFFFFFFFFFFFFFFFFFFFFFFFFFFFFF AND PUSH20 0xFFFFFFFFFFFFFFFFFFFFFFFFFFFFFFFFFFFFFFFF AND DUP2 MSTORE PUSH1 0x20 ADD SWAP1 DUP2 MSTORE PUSH1 0x20 ADD PUSH1 0x0 KECCAK256 PUSH1 0x0 ADD SLOAD DUP5 PUSH2 0xA55 SWAP2 SWAP1 PUSH2 0x16B0 JUMP JUMPDEST PUSH2 0xA5F SWAP2 SWAP1 PUSH2 0x167F JUMP JUMPDEST PUSH2 0xA69 SWAP2 SWAP1 PUSH2 0x170A JUMP JUMPDEST SWAP1 POP PUSH1 0x0 DUP2 EQ ISZERO PUSH2 0xAAF JUMPI PUSH1 0x40 MLOAD PUSH32 0x8C379A000000000000000000000000000000000000000000000000000000000 DUP2 MSTORE PUSH1 0x4 ADD PUSH2 0xAA6 SWAP1 PUSH2 0x14B3 JUMP JUMPDEST PUSH1 0x40 MLOAD DUP1 SWAP2 SUB SWAP1 REVERT JUMPDEST DUP1 PUSH1 0x3 PUSH1 0x0 DUP6 PUSH20 0xFFFFFFFFFFFFFFFFFFFFFFFFFFFFFFFFFFFFFFFF AND PUSH20 0xFFFFFFFFFFFFFFFFFFFFFFFFFFFFFFFFFFFFFFFF AND DUP2 MSTORE PUSH1 0x20 ADD SWAP1 DUP2 MSTORE PUSH1 0x20 ADD PUSH1 0x0 KECCAK256 PUSH1 0x1 ADD PUSH1 0x0 DUP3 DUP3 SLOAD PUSH2 0xB01 SWAP2 SWAP1 PUSH2 0x1629 JUMP JUMPDEST SWAP3 POP POP DUP2 SWAP1 SSTORE POP DUP1 PUSH1 0x2 PUSH1 0x0 DUP3 DUP3 SLOAD PUSH2 0xB1A SWAP2 SWAP1 PUSH2 0x1629 JUMP JUMPDEST SWAP3 POP POP DUP2 SWAP1 SSTORE POP PUSH2 0xB6C DUP4 DUP3 PUSH32 0x0 PUSH20 0xFFFFFFFFFFFFFFFFFFFFFFFFFFFFFFFFFFFFFFFF AND PUSH2 0xDDD SWAP1 SWAP3 SWAP2 SWAP1 PUSH4 0xFFFFFFFF AND JUMP JUMPDEST DUP3 PUSH20 0xFFFFFFFFFFFFFFFFFFFFFFFFFFFFFFFFFFFFFFFF AND PUSH32 0x12F4533B5CBD2C9F8A0752A2D0B16379AF992DBB2A0844A5007A19D983B3A934 DUP3 PUSH1 0x40 MLOAD PUSH2 0xBB2 SWAP2 SWAP1 PUSH2 0x15B3 JUMP JUMPDEST PUSH1 0x40 MLOAD DUP1 SWAP2 SUB SWAP1 LOG2 POP POP PUSH1 0x1 DUP1 DUP2 SWAP1 SSTORE POP POP JUMP JUMPDEST PUSH1 0x0 DUP1 PUSH1 0x0 SWAP1 SLOAD SWAP1 PUSH2 0x100 EXP SWAP1 DIV PUSH20 0xFFFFFFFFFFFFFFFFFFFFFFFFFFFFFFFFFFFFFFFF AND SWAP1 POP SWAP1 JUMP JUMPDEST PUSH1 0x3 PUSH1 0x20 MSTORE DUP1 PUSH1 0x0 MSTORE PUSH1 0x40 PUSH1 0x0 KECCAK256 PUSH1 0x0 SWAP2 POP SWAP1 POP DUP1 PUSH1 0x0 ADD SLOAD SWAP1 DUP1 PUSH1 0x1 ADD SLOAD SWAP1 POP DUP3 JUMP JUMPDEST PUSH1 0x2 SLOAD DUP2 JUMP JUMPDEST PUSH2 0xC21 PUSH2 0xD11 JUMP JUMPDEST PUSH20 0xFFFFFFFFFFFFFFFFFFFFFFFFFFFFFFFFFFFFFFFF AND PUSH2 0xC3F PUSH2 0xBC6 JUMP JUMPDEST PUSH20 0xFFFFFFFFFFFFFFFFFFFFFFFFFFFFFFFFFFFFFFFF AND EQ PUSH2 0xC95 JUMPI PUSH1 0x40 MLOAD PUSH32 0x8C379A000000000000000000000000000000000000000000000000000000000 DUP2 MSTORE PUSH1 0x4 ADD PUSH2 0xC8C SWAP1 PUSH2 0x1513 JUMP JUMPDEST PUSH1 0x40 MLOAD DUP1 SWAP2 SUB SWAP1 REVERT JUMPDEST PUSH1 0x0 PUSH20 0xFFFFFFFFFFFFFFFFFFFFFFFFFFFFFFFFFFFFFFFF AND DUP2 PUSH20 0xFFFFFFFFFFFFFFFFFFFFFFFFFFFFFFFFFFFFFFFF AND EQ ISZERO PUSH2 0xD05 JUMPI PUSH1 0x40 MLOAD PUSH32 0x8C379A000000000000000000000000000000000000000000000000000000000 DUP2 MSTORE PUSH1 0x4 ADD PUSH2 0xCFC SWAP1 PUSH2 0x1493 JUMP JUMPDEST PUSH1 0x40 MLOAD DUP1 SWAP2 SUB SWAP1 REVERT JUMPDEST PUSH2 0xD0E DUP2 PUSH2 0xD19 JUMP JUMPDEST POP JUMP JUMPDEST PUSH1 0x0 CALLER SWAP1 POP SWAP1 JUMP JUMPDEST PUSH1 0x0 DUP1 PUSH1 0x0 SWAP1 SLOAD SWAP1 PUSH2 0x100 EXP SWAP1 DIV PUSH20 0xFFFFFFFFFFFFFFFFFFFFFFFFFFFFFFFFFFFFFFFF AND SWAP1 POP DUP2 PUSH1 0x0 DUP1 PUSH2 0x100 EXP DUP2 SLOAD DUP2 PUSH20 0xFFFFFFFFFFFFFFFFFFFFFFFFFFFFFFFFFFFFFFFF MUL NOT AND SWAP1 DUP4 PUSH20 0xFFFFFFFFFFFFFFFFFFFFFFFFFFFFFFFFFFFFFFFF AND MUL OR SWAP1 SSTORE POP DUP2 PUSH20 0xFFFFFFFFFFFFFFFFFFFFFFFFFFFFFFFFFFFFFFFF AND DUP2 PUSH20 0xFFFFFFFFFFFFFFFFFFFFFFFFFFFFFFFFFFFFFFFF AND PUSH32 0x8BE0079C531659141344CD1FD0A4F28419497F9722A3DAAFE3B4186F6B6457E0 PUSH1 0x40 MLOAD PUSH1 0x40 MLOAD DUP1 SWAP2 SUB SWAP1 LOG3 POP POP JUMP JUMPDEST PUSH2 0xE5E DUP4 PUSH4 0xA9059CBB PUSH1 0xE0 SHL DUP5 DUP5 PUSH1 0x40 MLOAD PUSH1 0x24 ADD PUSH2 0xDFC SWAP3 SWAP2 SWAP1 PUSH2 0x140D JUMP JUMPDEST PUSH1 0x40 MLOAD PUSH1 0x20 DUP2 DUP4 SUB SUB DUP2 MSTORE SWAP1 PUSH1 0x40 MSTORE SWAP1 PUSH28 0xFFFFFFFFFFFFFFFFFFFFFFFFFFFFFFFFFFFFFFFFFFFFFFFFFFFFFFFF NOT AND PUSH1 0x20 DUP3 ADD DUP1 MLOAD PUSH28 0xFFFFFFFFFFFFFFFFFFFFFFFFFFFFFFFFFFFFFFFFFFFFFFFFFFFFFFFF DUP4 DUP2 DUP4 AND OR DUP4 MSTORE POP POP POP POP PUSH2 0xE63 JUMP JUMPDEST POP POP POP JUMP JUMPDEST PUSH1 0x0 PUSH2 0xEC5 DUP3 PUSH1 0x40 MLOAD DUP1 PUSH1 0x40 ADD PUSH1 0x40 MSTORE DUP1 PUSH1 0x20 DUP2 MSTORE PUSH1 0x20 ADD PUSH32 0x5361666545524332303A206C6F772D6C6576656C2063616C6C206661696C6564 DUP2 MSTORE POP DUP6 PUSH20 0xFFFFFFFFFFFFFFFFFFFFFFFFFFFFFFFFFFFFFFFF AND PUSH2 0xF2A SWAP1 SWAP3 SWAP2 SWAP1 PUSH4 0xFFFFFFFF AND JUMP JUMPDEST SWAP1 POP PUSH1 0x0 DUP2 MLOAD GT ISZERO PUSH2 0xF25 JUMPI DUP1 DUP1 PUSH1 0x20 ADD SWAP1 MLOAD DUP2 ADD SWAP1 PUSH2 0xEE5 SWAP2 SWAP1 PUSH2 0x118C JUMP JUMPDEST PUSH2 0xF24 JUMPI PUSH1 0x40 MLOAD PUSH32 0x8C379A000000000000000000000000000000000000000000000000000000000 DUP2 MSTORE PUSH1 0x4 ADD PUSH2 0xF1B SWAP1 PUSH2 0x1573 JUMP JUMPDEST PUSH1 0x40 MLOAD DUP1 SWAP2 SUB SWAP1 REVERT JUMPDEST JUMPDEST POP POP POP JUMP JUMPDEST PUSH1 0x60 PUSH2 0xF39 DUP5 DUP5 PUSH1 0x0 DUP6 PUSH2 0xF42 JUMP JUMPDEST SWAP1 POP SWAP4 SWAP3 POP POP POP JUMP JUMPDEST PUSH1 0x60 DUP3 SELFBALANCE LT ISZERO PUSH2 0xF87 JUMPI PUSH1 0x40 MLOAD PUSH32 0x8C379A000000000000000000000000000000000000000000000000000000000 DUP2 MSTORE PUSH1 0x4 ADD PUSH2 0xF7E SWAP1 PUSH2 0x14D3 JUMP JUMPDEST PUSH1 0x40 MLOAD DUP1 SWAP2 SUB SWAP1 REVERT JUMPDEST PUSH2 0xF90 DUP6 PUSH2 0x1056 JUMP JUMPDEST PUSH2 0xFCF JUMPI PUSH1 0x40 MLOAD PUSH32 0x8C379A000000000000000000000000000000000000000000000000000000000 DUP2 MSTORE PUSH1 0x4 ADD PUSH2 0xFC6 SWAP1 PUSH2 0x1553 JUMP JUMPDEST PUSH1 0x40 MLOAD DUP1 SWAP2 SUB SWAP1 REVERT JUMPDEST PUSH1 0x0 DUP1 DUP7 PUSH20 0xFFFFFFFFFFFFFFFFFFFFFFFFFFFFFFFFFFFFFFFF AND DUP6 DUP8 PUSH1 0x40 MLOAD PUSH2 0xFF8 SWAP2 SWAP1 PUSH2 0x13DB JUMP JUMPDEST PUSH1 0x0 PUSH1 0x40 MLOAD DUP1 DUP4 SUB DUP2 DUP6 DUP8 GAS CALL SWAP3 POP POP POP RETURNDATASIZE DUP1 PUSH1 0x0 DUP2 EQ PUSH2 0x1035 JUMPI PUSH1 0x40 MLOAD SWAP2 POP PUSH1 0x1F NOT PUSH1 0x3F RETURNDATASIZE ADD AND DUP3 ADD PUSH1 0x40 MSTORE RETURNDATASIZE DUP3 MSTORE RETURNDATASIZE PUSH1 0x0 PUSH1 0x20 DUP5 ADD RETURNDATACOPY PUSH2 0x103A JUMP JUMPDEST PUSH1 0x60 SWAP2 POP JUMPDEST POP SWAP2 POP SWAP2 POP PUSH2 0x104A DUP3 DUP3 DUP7 PUSH2 0x1079 JUMP JUMPDEST SWAP3 POP POP POP SWAP5 SWAP4 POP POP POP POP JUMP JUMPDEST PUSH1 0x0 DUP1 DUP3 PUSH20 0xFFFFFFFFFFFFFFFFFFFFFFFFFFFFFFFFFFFFFFFF AND EXTCODESIZE GT SWAP1 POP SWAP2 SWAP1 POP JUMP JUMPDEST PUSH1 0x60 DUP4 ISZERO PUSH2 0x1089 JUMPI DUP3 SWAP1 POP PUSH2 0x10D9 JUMP JUMPDEST PUSH1 0x0 DUP4 MLOAD GT ISZERO PUSH2 0x109C JUMPI DUP3 MLOAD DUP1 DUP5 PUSH1 0x20 ADD REVERT JUMPDEST DUP2 PUSH1 0x40 MLOAD PUSH32 0x8C379A000000000000000000000000000000000000000000000000000000000 DUP2 MSTORE PUSH1 0x4 ADD PUSH2 0x10D0 SWAP2 SWAP1 PUSH2 0x1451 JUMP JUMPDEST PUSH1 0x40 MLOAD DUP1 SWAP2 SUB SWAP1 REVERT JUMPDEST SWAP4 SWAP3 POP POP POP JUMP JUMPDEST PUSH1 0x0 DUP2 CALLDATALOAD SWAP1 POP PUSH2 0x10EF DUP2 PUSH2 0x1ABB JUMP JUMPDEST SWAP3 SWAP2 POP POP JUMP JUMPDEST PUSH1 0x0 DUP2 MLOAD SWAP1 POP PUSH2 0x1104 DUP2 PUSH2 0x1AD2 JUMP JUMPDEST SWAP3 SWAP2 POP POP JUMP JUMPDEST PUSH1 0x0 DUP2 MLOAD SWAP1 POP PUSH2 0x1119 DUP2 PUSH2 0x1AE9 JUMP JUMPDEST SWAP3 SWAP2 POP POP JUMP JUMPDEST PUSH1 0x0 PUSH1 0x20 DUP3 DUP5 SUB SLT ISZERO PUSH2 0x1135 JUMPI PUSH2 0x1134 PUSH2 0x184D JUMP JUMPDEST JUMPDEST PUSH1 0x0 PUSH2 0x1143 DUP5 DUP3 DUP6 ADD PUSH2 0x10E0 JUMP JUMPDEST SWAP2 POP POP SWAP3 SWAP2 POP POP JUMP JUMPDEST PUSH1 0x0 DUP1 PUSH1 0x40 DUP4 DUP6 SUB SLT ISZERO PUSH2 0x1163 JUMPI PUSH2 0x1162 PUSH2 0x184D JUMP JUMPDEST JUMPDEST PUSH1 0x0 PUSH2 0x1171 DUP6 DUP3 DUP7 ADD PUSH2 0x10E0 JUMP JUMPDEST SWAP3 POP POP PUSH1 0x20 PUSH2 0x1182 DUP6 DUP3 DUP7 ADD PUSH2 0x10E0 JUMP JUMPDEST SWAP2 POP POP SWAP3 POP SWAP3 SWAP1 POP JUMP JUMPDEST PUSH1 0x0 PUSH1 0x20 DUP3 DUP5 SUB SLT ISZERO PUSH2 0x11A2 JUMPI PUSH2 0x11A1 PUSH2 0x184D JUMP JUMPDEST JUMPDEST PUSH1 0x0 PUSH2 0x11B0 DUP5 DUP3 DUP6 ADD PUSH2 0x10F5 JUMP JUMPDEST SWAP2 POP POP SWAP3 SWAP2 POP POP JUMP JUMPDEST PUSH1 0x0 PUSH1 0x20 DUP3 DUP5 SUB SLT ISZERO PUSH2 0x11CF JUMPI PUSH2 0x11CE PUSH2 0x184D JUMP JUMPDEST JUMPDEST PUSH1 0x0 PUSH2 0x11DD DUP5 DUP3 DUP6 ADD PUSH2 0x110A JUMP JUMPDEST SWAP2 POP POP SWAP3 SWAP2 POP POP JUMP JUMPDEST PUSH2 0x11EF DUP2 PUSH2 0x173E JUMP JUMPDEST DUP3 MSTORE POP POP JUMP JUMPDEST PUSH1 0x0 PUSH2 0x1200 DUP3 PUSH2 0x15F7 JUMP JUMPDEST PUSH2 0x120A DUP2 DUP6 PUSH2 0x160D JUMP JUMPDEST SWAP4 POP PUSH2 0x121A DUP2 DUP6 PUSH1 0x20 DUP7 ADD PUSH2 0x17BC JUMP JUMPDEST DUP1 DUP5 ADD SWAP2 POP POP SWAP3 SWAP2 POP POP JUMP JUMPDEST PUSH2 0x122F DUP2 PUSH2 0x1786 JUMP JUMPDEST DUP3 MSTORE POP POP JUMP JUMPDEST PUSH1 0x0 PUSH2 0x1240 DUP3 PUSH2 0x1602 JUMP JUMPDEST PUSH2 0x124A DUP2 DUP6 PUSH2 0x1618 JUMP JUMPDEST SWAP4 POP PUSH2 0x125A DUP2 DUP6 PUSH1 0x20 DUP7 ADD PUSH2 0x17BC JUMP JUMPDEST PUSH2 0x1263 DUP2 PUSH2 0x1852 JUMP JUMPDEST DUP5 ADD SWAP2 POP POP SWAP3 SWAP2 POP POP JUMP JUMPDEST PUSH1 0x0 PUSH2 0x127B PUSH1 0x28 DUP4 PUSH2 0x1618 JUMP JUMPDEST SWAP2 POP PUSH2 0x1286 DUP3 PUSH2 0x1863 JUMP JUMPDEST PUSH1 0x40 DUP3 ADD SWAP1 POP SWAP2 SWAP1 POP JUMP JUMPDEST PUSH1 0x0 PUSH2 0x129E PUSH1 0x26 DUP4 PUSH2 0x1618 JUMP JUMPDEST SWAP2 POP PUSH2 0x12A9 DUP3 PUSH2 0x18B2 JUMP JUMPDEST PUSH1 0x40 DUP3 ADD SWAP1 POP SWAP2 SWAP1 POP JUMP JUMPDEST PUSH1 0x0 PUSH2 0x12C1 PUSH1 0x1D DUP4 PUSH2 0x1618 JUMP JUMPDEST SWAP2 POP PUSH2 0x12CC DUP3 PUSH2 0x1901 JUMP JUMPDEST PUSH1 0x20 DUP3 ADD SWAP1 POP SWAP2 SWAP1 POP JUMP JUMPDEST PUSH1 0x0 PUSH2 0x12E4 PUSH1 0x26 DUP4 PUSH2 0x1618 JUMP JUMPDEST SWAP2 POP PUSH2 0x12EF DUP3 PUSH2 0x192A JUMP JUMPDEST PUSH1 0x40 DUP3 ADD SWAP1 POP SWAP2 SWAP1 POP JUMP JUMPDEST PUSH1 0x0 PUSH2 0x1307 PUSH1 0x1E DUP4 PUSH2 0x1618 JUMP JUMPDEST SWAP2 POP PUSH2 0x1312 DUP3 PUSH2 0x1979 JUMP JUMPDEST PUSH1 0x20 DUP3 ADD SWAP1 POP SWAP2 SWAP1 POP JUMP JUMPDEST PUSH1 0x0 PUSH2 0x132A PUSH1 0x20 DUP4 PUSH2 0x1618 JUMP JUMPDEST SWAP2 POP PUSH2 0x1335 DUP3 PUSH2 0x19A2 JUMP JUMPDEST PUSH1 0x20 DUP3 ADD SWAP1 POP SWAP2 SWAP1 POP JUMP JUMPDEST PUSH1 0x0 PUSH2 0x134D PUSH1 0x26 DUP4 PUSH2 0x1618 JUMP JUMPDEST SWAP2 POP PUSH2 0x1358 DUP3 PUSH2 0x19CB JUMP JUMPDEST PUSH1 0x40 DUP3 ADD SWAP1 POP SWAP2 SWAP1 POP JUMP JUMPDEST PUSH1 0x0 PUSH2 0x1370 PUSH1 0x1D DUP4 PUSH2 0x1618 JUMP JUMPDEST SWAP2 POP PUSH2 0x137B DUP3 PUSH2 0x1A1A JUMP JUMPDEST PUSH1 0x20 DUP3 ADD SWAP1 POP SWAP2 SWAP1 POP JUMP JUMPDEST PUSH1 0x0 PUSH2 0x1393 PUSH1 0x2A DUP4 PUSH2 0x1618 JUMP JUMPDEST SWAP2 POP PUSH2 0x139E DUP3 PUSH2 0x1A43 JUMP JUMPDEST PUSH1 0x40 DUP3 ADD SWAP1 POP SWAP2 SWAP1 POP JUMP JUMPDEST PUSH1 0x0 PUSH2 0x13B6 PUSH1 0x1F DUP4 PUSH2 0x1618 JUMP JUMPDEST SWAP2 POP PUSH2 0x13C1 DUP3 PUSH2 0x1A92 JUMP JUMPDEST PUSH1 0x20 DUP3 ADD SWAP1 POP SWAP2 SWAP1 POP JUMP JUMPDEST PUSH2 0x13D5 DUP2 PUSH2 0x177C JUMP JUMPDEST DUP3 MSTORE POP POP JUMP JUMPDEST PUSH1 0x0 PUSH2 0x13E7 DUP3 DUP5 PUSH2 0x11F5 JUMP JUMPDEST SWAP2 POP DUP2 SWAP1 POP SWAP3 SWAP2 POP POP JUMP JUMPDEST PUSH1 0x0 PUSH1 0x20 DUP3 ADD SWAP1 POP PUSH2 0x1407 PUSH1 0x0 DUP4 ADD DUP5 PUSH2 0x11E6 JUMP JUMPDEST SWAP3 SWAP2 POP POP JUMP JUMPDEST PUSH1 0x0 PUSH1 0x40 DUP3 ADD SWAP1 POP PUSH2 0x1422 PUSH1 0x0 DUP4 ADD DUP6 PUSH2 0x11E6 JUMP JUMPDEST PUSH2 0x142F PUSH1 0x20 DUP4 ADD DUP5 PUSH2 0x13CC JUMP JUMPDEST SWAP4 SWAP3 POP POP POP JUMP JUMPDEST PUSH1 0x0 PUSH1 0x20 DUP3 ADD SWAP1 POP PUSH2 0x144B PUSH1 0x0 DUP4 ADD DUP5 PUSH2 0x1226 JUMP JUMPDEST SWAP3 SWAP2 POP POP JUMP JUMPDEST PUSH1 0x0 PUSH1 0x20 DUP3 ADD SWAP1 POP DUP2 DUP2 SUB PUSH1 0x0 DUP4 ADD MSTORE PUSH2 0x146B DUP2 DUP5 PUSH2 0x1235 JUMP JUMPDEST SWAP1 POP SWAP3 SWAP2 POP POP JUMP JUMPDEST PUSH1 0x0 PUSH1 0x20 DUP3 ADD SWAP1 POP DUP2 DUP2 SUB PUSH1 0x0 DUP4 ADD MSTORE PUSH2 0x148C DUP2 PUSH2 0x126E JUMP JUMPDEST SWAP1 POP SWAP2 SWAP1 POP JUMP JUMPDEST PUSH1 0x0 PUSH1 0x20 DUP3 ADD SWAP1 POP DUP2 DUP2 SUB PUSH1 0x0 DUP4 ADD MSTORE PUSH2 0x14AC DUP2 PUSH2 0x1291 JUMP JUMPDEST SWAP1 POP SWAP2 SWAP1 POP JUMP JUMPDEST PUSH1 0x0 PUSH1 0x20 DUP3 ADD SWAP1 POP DUP2 DUP2 SUB PUSH1 0x0 DUP4 ADD MSTORE PUSH2 0x14CC DUP2 PUSH2 0x12B4 JUMP JUMPDEST SWAP1 POP SWAP2 SWAP1 POP JUMP JUMPDEST PUSH1 0x0 PUSH1 0x20 DUP3 ADD SWAP1 POP DUP2 DUP2 SUB PUSH1 0x0 DUP4 ADD MSTORE PUSH2 0x14EC DUP2 PUSH2 0x12D7 JUMP JUMPDEST SWAP1 POP SWAP2 SWAP1 POP JUMP JUMPDEST PUSH1 0x0 PUSH1 0x20 DUP3 ADD SWAP1 POP DUP2 DUP2 SUB PUSH1 0x0 DUP4 ADD MSTORE PUSH2 0x150C DUP2 PUSH2 0x12FA JUMP JUMPDEST SWAP1 POP SWAP2 SWAP1 POP JUMP JUMPDEST PUSH1 0x0 PUSH1 0x20 DUP3 ADD SWAP1 POP DUP2 DUP2 SUB PUSH1 0x0 DUP4 ADD MSTORE PUSH2 0x152C DUP2 PUSH2 0x131D JUMP JUMPDEST SWAP1 POP SWAP2 SWAP1 POP JUMP JUMPDEST PUSH1 0x0 PUSH1 0x20 DUP3 ADD SWAP1 POP DUP2 DUP2 SUB PUSH1 0x0 DUP4 ADD MSTORE PUSH2 0x154C DUP2 PUSH2 0x1340 JUMP JUMPDEST SWAP1 POP SWAP2 SWAP1 POP JUMP JUMPDEST PUSH1 0x0 PUSH1 0x20 DUP3 ADD SWAP1 POP DUP2 DUP2 SUB PUSH1 0x0 DUP4 ADD MSTORE PUSH2 0x156C DUP2 PUSH2 0x1363 JUMP JUMPDEST SWAP1 POP SWAP2 SWAP1 POP JUMP JUMPDEST PUSH1 0x0 PUSH1 0x20 DUP3 ADD SWAP1 POP DUP2 DUP2 SUB PUSH1 0x0 DUP4 ADD MSTORE PUSH2 0x158C DUP2 PUSH2 0x1386 JUMP JUMPDEST SWAP1 POP SWAP2 SWAP1 POP JUMP JUMPDEST PUSH1 0x0 PUSH1 0x20 DUP3 ADD SWAP1 POP DUP2 DUP2 SUB PUSH1 0x0 DUP4 ADD MSTORE PUSH2 0x15AC DUP2 PUSH2 0x13A9 JUMP JUMPDEST SWAP1 POP SWAP2 SWAP1 POP JUMP JUMPDEST PUSH1 0x0 PUSH1 0x20 DUP3 ADD SWAP1 POP PUSH2 0x15C8 PUSH1 0x0 DUP4 ADD DUP5 PUSH2 0x13CC JUMP JUMPDEST SWAP3 SWAP2 POP POP JUMP JUMPDEST PUSH1 0x0 PUSH1 0x40 DUP3 ADD SWAP1 POP PUSH2 0x15E3 PUSH1 0x0 DUP4 ADD DUP6 PUSH2 0x13CC JUMP JUMPDEST PUSH2 0x15F0 PUSH1 0x20 DUP4 ADD DUP5 PUSH2 0x13CC JUMP JUMPDEST SWAP4 SWAP3 POP POP POP JUMP JUMPDEST PUSH1 0x0 DUP2 MLOAD SWAP1 POP SWAP2 SWAP1 POP JUMP JUMPDEST PUSH1 0x0 DUP2 MLOAD SWAP1 POP SWAP2 SWAP1 POP JUMP JUMPDEST PUSH1 0x0 DUP2 SWAP1 POP SWAP3 SWAP2 POP POP JUMP JUMPDEST PUSH1 0x0 DUP3 DUP3 MSTORE PUSH1 0x20 DUP3 ADD SWAP1 POP SWAP3 SWAP2 POP POP JUMP JUMPDEST PUSH1 0x0 PUSH2 0x1634 DUP3 PUSH2 0x177C JUMP JUMPDEST SWAP2 POP PUSH2 0x163F DUP4 PUSH2 0x177C JUMP JUMPDEST SWAP3 POP DUP3 PUSH32 0xFFFFFFFFFFFFFFFFFFFFFFFFFFFFFFFFFFFFFFFFFFFFFFFFFFFFFFFFFFFFFFFF SUB DUP3 GT ISZERO PUSH2 0x1674 JUMPI PUSH2 0x1673 PUSH2 0x17EF JUMP JUMPDEST JUMPDEST DUP3 DUP3 ADD SWAP1 POP SWAP3 SWAP2 POP POP JUMP JUMPDEST PUSH1 0x0 PUSH2 0x168A DUP3 PUSH2 0x177C JUMP JUMPDEST SWAP2 POP PUSH2 0x1695 DUP4 PUSH2 0x177C JUMP JUMPDEST SWAP3 POP DUP3 PUSH2 0x16A5 JUMPI PUSH2 0x16A4 PUSH2 0x181E JUMP JUMPDEST JUMPDEST DUP3 DUP3 DIV SWAP1 POP SWAP3 SWAP2 POP POP JUMP JUMPDEST PUSH1 0x0 PUSH2 0x16BB DUP3 PUSH2 0x177C JUMP JUMPDEST SWAP2 POP PUSH2 0x16C6 DUP4 PUSH2 0x177C JUMP JUMPDEST SWAP3 POP DUP2 PUSH32 0xFFFFFFFFFFFFFFFFFFFFFFFFFFFFFFFFFFFFFFFFFFFFFFFFFFFFFFFFFFFFFFFF DIV DUP4 GT DUP3 ISZERO ISZERO AND ISZERO PUSH2 0x16FF JUMPI PUSH2 0x16FE PUSH2 0x17EF JUMP JUMPDEST JUMPDEST DUP3 DUP3 MUL SWAP1 POP SWAP3 SWAP2 POP POP JUMP JUMPDEST PUSH1 0x0 PUSH2 0x1715 DUP3 PUSH2 0x177C JUMP JUMPDEST SWAP2 POP PUSH2 0x1720 DUP4 PUSH2 0x177C JUMP JUMPDEST SWAP3 POP DUP3 DUP3 LT ISZERO PUSH2 0x1733 JUMPI PUSH2 0x1732 PUSH2 0x17EF JUMP JUMPDEST JUMPDEST DUP3 DUP3 SUB SWAP1 POP SWAP3 SWAP2 POP POP JUMP JUMPDEST PUSH1 0x0 PUSH2 0x1749 DUP3 PUSH2 0x175C JUMP JUMPDEST SWAP1 POP SWAP2 SWAP1 POP JUMP JUMPDEST PUSH1 0x0 DUP2 ISZERO ISZERO SWAP1 POP SWAP2 SWAP1 POP JUMP JUMPDEST PUSH1 0x0 PUSH20 0xFFFFFFFFFFFFFFFFFFFFFFFFFFFFFFFFFFFFFFFF DUP3 AND SWAP1 POP SWAP2 SWAP1 POP JUMP JUMPDEST PUSH1 0x0 DUP2 SWAP1 POP SWAP2 SWAP1 POP JUMP JUMPDEST PUSH1 0x0 PUSH2 0x1791 DUP3 PUSH2 0x1798 JUMP JUMPDEST SWAP1 POP SWAP2 SWAP1 POP JUMP JUMPDEST PUSH1 0x0 PUSH2 0x17A3 DUP3 PUSH2 0x17AA JUMP JUMPDEST SWAP1 POP SWAP2 SWAP1 POP JUMP JUMPDEST PUSH1 0x0 PUSH2 0x17B5 DUP3 PUSH2 0x175C JUMP JUMPDEST SWAP1 POP SWAP2 SWAP1 POP JUMP JUMPDEST PUSH1 0x0 JUMPDEST DUP4 DUP2 LT ISZERO PUSH2 0x17DA JUMPI DUP1 DUP3 ADD MLOAD DUP2 DUP5 ADD MSTORE PUSH1 0x20 DUP2 ADD SWAP1 POP PUSH2 0x17BF JUMP JUMPDEST DUP4 DUP2 GT ISZERO PUSH2 0x17E9 JUMPI PUSH1 0x0 DUP5 DUP5 ADD MSTORE JUMPDEST POP POP POP POP JUMP JUMPDEST PUSH32 0x4E487B7100000000000000000000000000000000000000000000000000000000 PUSH1 0x0 MSTORE PUSH1 0x11 PUSH1 0x4 MSTORE PUSH1 0x24 PUSH1 0x0 REVERT JUMPDEST PUSH32 0x4E487B7100000000000000000000000000000000000000000000000000000000 PUSH1 0x0 MSTORE PUSH1 0x12 PUSH1 0x4 MSTORE PUSH1 0x24 PUSH1 0x0 REVERT JUMPDEST PUSH1 0x0 DUP1 REVERT JUMPDEST PUSH1 0x0 PUSH1 0x1F NOT PUSH1 0x1F DUP4 ADD AND SWAP1 POP SWAP2 SWAP1 POP JUMP JUMPDEST PUSH32 0x4F776E65723A204E657720726563697069656E7420686173206578697374696E PUSH1 0x0 DUP3 ADD MSTORE PUSH32 0x6720736861726573000000000000000000000000000000000000000000000000 PUSH1 0x20 DUP3 ADD MSTORE POP JUMP JUMPDEST PUSH32 0x4F776E61626C653A206E6577206F776E657220697320746865207A65726F2061 PUSH1 0x0 DUP3 ADD MSTORE PUSH32 0x6464726573730000000000000000000000000000000000000000000000000000 PUSH1 0x20 DUP3 ADD MSTORE POP JUMP JUMPDEST PUSH32 0x53706C69747465723A204E6F7468696E6720746F207472616E73666572000000 PUSH1 0x0 DUP3 ADD MSTORE POP JUMP JUMPDEST PUSH32 0x416464726573733A20696E73756666696369656E742062616C616E636520666F PUSH1 0x0 DUP3 ADD MSTORE PUSH32 0x722063616C6C0000000000000000000000000000000000000000000000000000 PUSH1 0x20 DUP3 ADD MSTORE POP JUMP JUMPDEST PUSH32 0x53706C69747465723A204163636F756E7420686173206E6F2073686172650000 PUSH1 0x0 DUP3 ADD MSTORE POP JUMP JUMPDEST PUSH32 0x4F776E61626C653A2063616C6C6572206973206E6F7420746865206F776E6572 PUSH1 0x0 DUP3 ADD MSTORE POP JUMP JUMPDEST PUSH32 0x4F776E65723A2043757272656E7420726563697069656E7420686173206E6F20 PUSH1 0x0 DUP3 ADD MSTORE PUSH32 0x7368617265730000000000000000000000000000000000000000000000000000 PUSH1 0x20 DUP3 ADD MSTORE POP JUMP JUMPDEST PUSH32 0x416464726573733A2063616C6C20746F206E6F6E2D636F6E7472616374000000 PUSH1 0x0 DUP3 ADD MSTORE POP JUMP JUMPDEST PUSH32 0x5361666545524332303A204552433230206F7065726174696F6E20646964206E PUSH1 0x0 DUP3 ADD MSTORE PUSH32 0x6F74207375636365656400000000000000000000000000000000000000000000 PUSH1 0x20 DUP3 ADD MSTORE POP JUMP JUMPDEST PUSH32 0x5265656E7472616E637947756172643A207265656E7472616E742063616C6C00 PUSH1 0x0 DUP3 ADD MSTORE POP JUMP JUMPDEST PUSH2 0x1AC4 DUP2 PUSH2 0x173E JUMP JUMPDEST DUP2 EQ PUSH2 0x1ACF JUMPI PUSH1 0x0 DUP1 REVERT JUMPDEST POP JUMP JUMPDEST PUSH2 0x1ADB DUP2 PUSH2 0x1750 JUMP JUMPDEST DUP2 EQ PUSH2 0x1AE6 JUMPI PUSH1 0x0 DUP1 REVERT JUMPDEST POP JUMP JUMPDEST PUSH2 0x1AF2 DUP2 PUSH2 0x177C JUMP JUMPDEST DUP2 EQ PUSH2 0x1AFD JUMPI PUSH1 0x0 DUP1 REVERT JUMPDEST POP JUMP INVALID LOG2 PUSH5 0x6970667358 0x22 SLT KECCAK256 SHL 0x29 0x25 MLOAD 0xEA REVERT 0xAD EXP 0xC9 SWAP14 EXP 0xC5 0xE4 RETURNDATACOPY SMOD 0xB6 DUP15 PUSH5 0x941D5E0AF6 0xDF DIV 0xF6 SWAP16 RETURNDATACOPY DUP3 SWAP13 0xE4 PUSH15 0x64736F6C6343000807003300000000 "
				},
				"gasEstimates": {
					"creation": {
						"codeDepositCost": "1393200",
						"executionCost": "infinite",
						"totalCost": "infinite"
					},
					"external": {
						"TOTAL_SHARES()": "infinite",
						"accountInfo(address)": "infinite",
						"calculatePendingRewards(address)": "infinite",
						"looksRareToken()": "infinite",
						"owner()": "2544",
						"releaseTokens(address)": "infinite",
						"renounceOwnership()": "30441",
						"totalTokensDistributed()": "2495",
						"transferOwnership(address)": "30811",
						"updateSharesOwner(address,address)": "infinite"
					}
				},
				"methodIdentifiers": {
					"TOTAL_SHARES()": "85e3f997",
					"accountInfo(address)": "a7310b58",
					"calculatePendingRewards(address)": "097aad10",
					"looksRareToken()": "36db9fb2",
					"owner()": "8da5cb5b",
					"releaseTokens(address)": "87b0be48",
					"renounceOwnership()": "715018a6",
					"totalTokensDistributed()": "d8f163ab",
					"transferOwnership(address)": "f2fde38b",
					"updateSharesOwner(address,address)": "19281afd"
				}
			},
			"storageLayout": {
				"storage": [
					{
						"astId": 7,
						"contract": "contracts/TokenSplitter.sol:TokenSplitter",
						"label": "_owner",
						"offset": 0,
						"slot": "0",
						"type": "t_address"
					},
					{
						"astId": 115,
						"contract": "contracts/TokenSplitter.sol:TokenSplitter",
						"label": "_status",
						"offset": 0,
						"slot": "1",
						"type": "t_uint256"
					},
					{
						"astId": 793,
						"contract": "contracts/TokenSplitter.sol:TokenSplitter",
						"label": "totalTokensDistributed",
						"offset": 0,
						"slot": "2",
						"type": "t_uint256"
					},
					{
						"astId": 798,
						"contract": "contracts/TokenSplitter.sol:TokenSplitter",
						"label": "accountInfo",
						"offset": 0,
						"slot": "3",
						"type": "t_mapping(t_address,t_struct(AccountInfo)786_storage)"
					}
				],
				"types": {
					"t_address": {
						"encoding": "inplace",
						"label": "address",
						"numberOfBytes": "20"
					},
					"t_mapping(t_address,t_struct(AccountInfo)786_storage)": {
						"encoding": "mapping",
						"key": "t_address",
						"label": "mapping(address => struct TokenSplitter.AccountInfo)",
						"numberOfBytes": "32",
						"value": "t_struct(AccountInfo)786_storage"
					},
					"t_struct(AccountInfo)786_storage": {
						"encoding": "inplace",
						"label": "struct TokenSplitter.AccountInfo",
						"members": [
							{
								"astId": 783,
								"contract": "contracts/TokenSplitter.sol:TokenSplitter",
								"label": "shares",
								"offset": 0,
								"slot": "0",
								"type": "t_uint256"
							},
							{
								"astId": 785,
								"contract": "contracts/TokenSplitter.sol:TokenSplitter",
								"label": "tokensDistributedToAccount",
								"offset": 0,
								"slot": "1",
								"type": "t_uint256"
							}
						],
						"numberOfBytes": "64"
					},
					"t_uint256": {
						"encoding": "inplace",
						"label": "uint256",
						"numberOfBytes": "32"
					}
				}
			},
			"userdoc": {
				"kind": "user",
				"methods": {
					"calculatePendingRewards(address)": {
						"notice": "Retrieve amount of LOOKS tokens that can be transferred"
					},
					"constructor": {
						"notice": "Constructor"
					},
					"releaseTokens(address)": {
						"notice": "Release LOOKS tokens to the account"
					},
					"updateSharesOwner(address,address)": {
						"notice": "Update share recipient"
					}
				},
				"notice": "It splits LOOKS to team/treasury/trading volume reward accounts based on shares.",
				"version": 1
			}
		}
	}
}