{
	"contracts/LooksRare/MultiRewardsDistributor.sol": {
		"MultiRewardsDistributor": {
			"abi": [
				{
					"inputs": [
						{
							"internalType": "address",
							"name": "_looksRareToken",
							"type": "address"
						}
					],
					"stateMutability": "nonpayable",
					"type": "constructor"
				},
				{
					"anonymous": false,
					"inputs": [
						{
							"indexed": false,
							"internalType": "address",
							"name": "user",
							"type": "address"
						},
						{
							"indexed": false,
							"internalType": "uint256",
							"name": "rewardRound",
							"type": "uint256"
						},
						{
							"indexed": false,
							"internalType": "uint256",
							"name": "totalAmount",
							"type": "uint256"
						},
						{
							"indexed": false,
							"internalType": "uint8[]",
							"name": "treeIds",
							"type": "uint8[]"
						},
						{
							"indexed": false,
							"internalType": "uint256[]",
							"name": "amounts",
							"type": "uint256[]"
						}
					],
					"name": "Claim",
					"type": "event"
				},
				{
					"anonymous": false,
					"inputs": [
						{
							"indexed": false,
							"internalType": "uint8",
							"name": "treeId",
							"type": "uint8"
						}
					],
					"name": "NewTree",
					"type": "event"
				},
				{
					"anonymous": false,
					"inputs": [
						{
							"indexed": true,
							"internalType": "address",
							"name": "previousOwner",
							"type": "address"
						},
						{
							"indexed": true,
							"internalType": "address",
							"name": "newOwner",
							"type": "address"
						}
					],
					"name": "OwnershipTransferred",
					"type": "event"
				},
				{
					"anonymous": false,
					"inputs": [
						{
							"indexed": false,
							"internalType": "address",
							"name": "account",
							"type": "address"
						}
					],
					"name": "Paused",
					"type": "event"
				},
				{
					"anonymous": false,
					"inputs": [
						{
							"indexed": false,
							"internalType": "uint256",
							"name": "amount",
							"type": "uint256"
						}
					],
					"name": "TokenWithdrawnOwner",
					"type": "event"
				},
				{
					"anonymous": false,
					"inputs": [
						{
							"indexed": false,
							"internalType": "address",
							"name": "account",
							"type": "address"
						}
					],
					"name": "Unpaused",
					"type": "event"
				},
				{
					"anonymous": false,
					"inputs": [
						{
							"indexed": true,
							"internalType": "uint256",
							"name": "rewardRound",
							"type": "uint256"
						}
					],
					"name": "UpdateTradingRewards",
					"type": "event"
				},
				{
					"inputs": [],
					"name": "BUFFER_ADMIN_WITHDRAW",
					"outputs": [
						{
							"internalType": "uint256",
							"name": "",
							"type": "uint256"
						}
					],
					"stateMutability": "view",
					"type": "function"
				},
				{
					"inputs": [],
					"name": "SAFE_GUARD_AMOUNT",
					"outputs": [
						{
							"internalType": "uint256",
							"name": "",
							"type": "uint256"
						}
					],
					"stateMutability": "view",
					"type": "function"
				},
				{
					"inputs": [
						{
							"internalType": "address",
							"name": "safeGuard",
							"type": "address"
						}
					],
					"name": "addNewTree",
					"outputs": [],
					"stateMutability": "nonpayable",
					"type": "function"
				},
				{
					"inputs": [
						{
							"internalType": "address",
							"name": "",
							"type": "address"
						},
						{
							"internalType": "uint8",
							"name": "",
							"type": "uint8"
						}
					],
					"name": "amountClaimedByUserPerTreeId",
					"outputs": [
						{
							"internalType": "uint256",
							"name": "",
							"type": "uint256"
						}
					],
					"stateMutability": "view",
					"type": "function"
				},
				{
					"inputs": [
						{
							"internalType": "address",
							"name": "user",
							"type": "address"
						},
						{
							"internalType": "uint8[]",
							"name": "treeIds",
							"type": "uint8[]"
						},
						{
							"internalType": "uint256[]",
							"name": "amounts",
							"type": "uint256[]"
						},
						{
							"internalType": "bytes32[][]",
							"name": "merkleProofs",
							"type": "bytes32[][]"
						}
					],
					"name": "canClaim",
					"outputs": [
						{
							"internalType": "bool[]",
							"name": "",
							"type": "bool[]"
						},
						{
							"internalType": "uint256[]",
							"name": "",
							"type": "uint256[]"
						}
					],
					"stateMutability": "view",
					"type": "function"
				},
				{
					"inputs": [
						{
							"internalType": "uint8[]",
							"name": "treeIds",
							"type": "uint8[]"
						},
						{
							"internalType": "uint256[]",
							"name": "amounts",
							"type": "uint256[]"
						},
						{
							"internalType": "bytes32[][]",
							"name": "merkleProofs",
							"type": "bytes32[][]"
						}
					],
					"name": "claim",
					"outputs": [],
					"stateMutability": "nonpayable",
					"type": "function"
				},
				{
					"inputs": [],
					"name": "currentRewardRound",
					"outputs": [
						{
							"internalType": "uint256",
							"name": "",
							"type": "uint256"
						}
					],
					"stateMutability": "view",
					"type": "function"
				},
				{
					"inputs": [],
					"name": "lastPausedTimestamp",
					"outputs": [
						{
							"internalType": "uint256",
							"name": "",
							"type": "uint256"
						}
					],
					"stateMutability": "view",
					"type": "function"
				},
				{
					"inputs": [],
					"name": "looksRareToken",
					"outputs": [
						{
							"internalType": "contract IERC20",
							"name": "",
							"type": "address"
						}
					],
					"stateMutability": "view",
					"type": "function"
				},
				{
					"inputs": [
						{
							"internalType": "bytes32",
							"name": "",
							"type": "bytes32"
						}
					],
					"name": "merkleRootUsed",
					"outputs": [
						{
							"internalType": "bool",
							"name": "",
							"type": "bool"
						}
					],
					"stateMutability": "view",
					"type": "function"
				},
				{
					"inputs": [],
					"name": "numberTrees",
					"outputs": [
						{
							"internalType": "uint8",
							"name": "",
							"type": "uint8"
						}
					],
					"stateMutability": "view",
					"type": "function"
				},
				{
					"inputs": [],
					"name": "owner",
					"outputs": [
						{
							"internalType": "address",
							"name": "",
							"type": "address"
						}
					],
					"stateMutability": "view",
					"type": "function"
				},
				{
					"inputs": [],
					"name": "pauseDistribution",
					"outputs": [],
					"stateMutability": "nonpayable",
					"type": "function"
				},
				{
					"inputs": [],
					"name": "paused",
					"outputs": [
						{
							"internalType": "bool",
							"name": "",
							"type": "bool"
						}
					],
					"stateMutability": "view",
					"type": "function"
				},
				{
					"inputs": [],
					"name": "renounceOwnership",
					"outputs": [],
					"stateMutability": "nonpayable",
					"type": "function"
				},
				{
					"inputs": [
						{
							"internalType": "address",
							"name": "",
							"type": "address"
						}
					],
					"name": "safeGuardUsed",
					"outputs": [
						{
							"internalType": "bool",
							"name": "",
							"type": "bool"
						}
					],
					"stateMutability": "view",
					"type": "function"
				},
				{
					"inputs": [
						{
							"internalType": "address",
							"name": "newOwner",
							"type": "address"
						}
					],
					"name": "transferOwnership",
					"outputs": [],
					"stateMutability": "nonpayable",
					"type": "function"
				},
				{
					"inputs": [
						{
							"internalType": "uint8",
							"name": "",
							"type": "uint8"
						}
					],
					"name": "treeParameters",
					"outputs": [
						{
							"internalType": "address",
							"name": "safeGuard",
							"type": "address"
						},
						{
							"internalType": "bytes32",
							"name": "merkleRoot",
							"type": "bytes32"
						},
						{
							"internalType": "uint256",
							"name": "maxAmountPerUserInCurrentTree",
							"type": "uint256"
						}
					],
					"stateMutability": "view",
					"type": "function"
				},
				{
					"inputs": [],
					"name": "unpauseDistribution",
					"outputs": [],
					"stateMutability": "nonpayable",
					"type": "function"
				},
				{
					"inputs": [
						{
							"internalType": "uint8[]",
							"name": "treeIds",
							"type": "uint8[]"
						},
						{
							"internalType": "bytes32[]",
							"name": "merkleRoots",
							"type": "bytes32[]"
						},
						{
							"internalType": "uint256[]",
							"name": "maxAmountsPerUser",
							"type": "uint256[]"
						},
						{
							"internalType": "bytes32[][]",
							"name": "merkleProofsSafeGuards",
							"type": "bytes32[][]"
						}
					],
					"name": "updateTradingRewards",
					"outputs": [],
					"stateMutability": "nonpayable",
					"type": "function"
				},
				{
					"inputs": [
						{
							"internalType": "uint256",
							"name": "amount",
							"type": "uint256"
						}
					],
					"name": "withdrawTokenRewards",
					"outputs": [],
					"stateMutability": "nonpayable",
					"type": "function"
				}
			],
			"devdoc": {
				"details": "It uses safe guard addresses (e.g., address(0), address(1)) to add a protection layer against operational errors when the operator sets up the merkle roots for each of the existing trees.",
				"kind": "dev",
				"methods": {
					"addNewTree(address)": {
						"details": "Only for owner.",
						"params": {
							"safeGuard": "address of a safe guard user (e.g., address(0), address(1))"
						}
					},
					"canClaim(address,uint8[],uint256[],bytes32[][])": {
						"params": {
							"amounts": "array of amounts to claim",
							"merkleProofs": "array of arrays containing the merkle proof",
							"treeIds": "array of treeIds",
							"user": "address of the user"
						}
					},
					"claim(uint8[],uint256[],bytes32[][])": {
						"params": {
							"amounts": "array of amounts to claim",
							"merkleProofs": "array of arrays containing the merkle proof",
							"treeIds": "array of treeIds"
						}
					},
					"constructor": {
						"params": {
							"_looksRareToken": "address of the LooksRare token"
						}
					},
					"owner()": {
						"details": "Returns the address of the current owner."
					},
					"pauseDistribution()": {
						"details": "Only for owner."
					},
					"paused()": {
						"details": "Returns true if the contract is paused, and false otherwise."
					},
					"renounceOwnership()": {
						"details": "Leaves the contract without owner. It will not be possible to call `onlyOwner` functions anymore. Can only be called by the current owner. NOTE: Renouncing ownership will leave the contract without an owner, thereby removing any functionality that is only available to the owner."
					},
					"transferOwnership(address)": {
						"details": "Transfers ownership of the contract to a new account (`newOwner`). Can only be called by the current owner."
					},
					"unpauseDistribution()": {
						"details": "Only for owner."
					},
					"updateTradingRewards(uint8[],bytes32[],uint256[],bytes32[][])": {
						"details": "It automatically increments the currentRewardRound",
						"params": {
							"maxAmountsPerUser": "array of maximum amounts per user (for each treeId)",
							"merkleProofsSafeGuards": "array of merkle proof for the safe guard addresses",
							"merkleRoots": "array of merkle roots (for each treeId)",
							"treeIds": "array of treeIds"
						}
					},
					"withdrawTokenRewards(uint256)": {
						"details": "It is for emergency purposes. Only for owner.",
						"params": {
							"amount": "amount to withdraw"
						}
					}
				},
				"title": "MultiRewardsDistributor",
				"version": 1
			},
			"evm": {
				"assembly": "    /* \"contracts/LooksRare/MultiRewardsDistributor.sol\":793:9690  contract MultiRewardsDistributor is Pausable, ReentrancyGuard, Ownable {... */\n  mstore(0x40, 0xa0)\n    /* \"contracts/LooksRare/MultiRewardsDistributor.sol\":2553:2668  constructor(address _looksRareToken) {... */\n  callvalue\n  dup1\n  iszero\n  tag_1\n  jumpi\n  0x00\n  dup1\n  revert\ntag_1:\n  pop\n  mload(0x40)\n  sub(codesize, bytecodeSize)\n  dup1\n  bytecodeSize\n  dup4\n  codecopy\n  dup2\n  dup2\n  add\n  0x40\n  mstore\n  dup2\n  add\n  swap1\n  tag_2\n  swap2\n  swap1\n  tag_3\n  jump\t// in\ntag_2:\n    /* \"@openzeppelin/contracts/security/Pausable.sol\":991:996  false */\n  0x00\n    /* \"@openzeppelin/contracts/security/Pausable.sol\":981:988  _paused */\n  dup1\n  0x00\n    /* \"@openzeppelin/contracts/security/Pausable.sol\":981:996  _paused = false */\n  0x0100\n  exp\n  dup2\n  sload\n  dup2\n  0xff\n  mul\n  not\n  and\n  swap1\n  dup4\n  iszero\n  iszero\n  mul\n  or\n  swap1\n  sstore\n  pop\n    /* \"@openzeppelin/contracts/security/ReentrancyGuard.sol\":1701:1702  1 */\n  0x01\n    /* \"@openzeppelin/contracts/security/ReentrancyGuard.sol\":1806:1813  _status */\n  dup1\n    /* \"@openzeppelin/contracts/security/ReentrancyGuard.sol\":1806:1828  _status = _NOT_ENTERED */\n  dup2\n  swap1\n  sstore\n  pop\n    /* \"@openzeppelin/contracts/access/Ownable.sol\":921:953  _transferOwnership(_msgSender()) */\n  tag_11\n    /* \"@openzeppelin/contracts/access/Ownable.sol\":940:952  _msgSender() */\n  tag_12\n    /* \"@openzeppelin/contracts/access/Ownable.sol\":940:950  _msgSender */\n  shl(0x20, tag_13)\n    /* \"@openzeppelin/contracts/access/Ownable.sol\":940:952  _msgSender() */\n  0x20\n  shr\n  jump\t// in\ntag_12:\n    /* \"@openzeppelin/contracts/access/Ownable.sol\":921:939  _transferOwnership */\n  shl(0x20, tag_14)\n    /* \"@openzeppelin/contracts/access/Ownable.sol\":921:953  _transferOwnership(_msgSender()) */\n  0x20\n  shr\n  jump\t// in\ntag_11:\n    /* \"contracts/LooksRare/MultiRewardsDistributor.sol\":2625:2640  _looksRareToken */\n  dup1\n    /* \"contracts/LooksRare/MultiRewardsDistributor.sol\":2601:2641  looksRareToken = IERC20(_looksRareToken) */\n  0xffffffffffffffffffffffffffffffffffffffff\n  and\n  0x80\n  dup2\n  0xffffffffffffffffffffffffffffffffffffffff\n  and\n  dup2\n  mstore\n  pop\n  pop\n    /* \"contracts/LooksRare/MultiRewardsDistributor.sol\":2652:2660  _pause() */\n  tag_16\n    /* \"contracts/LooksRare/MultiRewardsDistributor.sol\":2652:2658  _pause */\n  shl(0x20, tag_17)\n    /* \"contracts/LooksRare/MultiRewardsDistributor.sol\":2652:2660  _pause() */\n  0x20\n  shr\n  jump\t// in\ntag_16:\n    /* \"contracts/LooksRare/MultiRewardsDistributor.sol\":2553:2668  constructor(address _looksRareToken) {... */\n  pop\n    /* \"contracts/LooksRare/MultiRewardsDistributor.sol\":793:9690  contract MultiRewardsDistributor is Pausable, ReentrancyGuard, Ownable {... */\n  jump(tag_18)\n    /* \"@openzeppelin/contracts/utils/Context.sol\":640:736  function _msgSender() internal view virtual returns (address) {... */\ntag_13:\n    /* \"@openzeppelin/contracts/utils/Context.sol\":693:700  address */\n  0x00\n    /* \"@openzeppelin/contracts/utils/Context.sol\":719:729  msg.sender */\n  caller\n    /* \"@openzeppelin/contracts/utils/Context.sol\":712:729  return msg.sender */\n  swap1\n  pop\n    /* \"@openzeppelin/contracts/utils/Context.sol\":640:736  function _msgSender() internal view virtual returns (address) {... */\n  swap1\n  jump\t// out\n    /* \"@openzeppelin/contracts/access/Ownable.sol\":2270:2457  function _transferOwnership(address newOwner) internal virtual {... */\ntag_14:\n    /* \"@openzeppelin/contracts/access/Ownable.sol\":2343:2359  address oldOwner */\n  0x00\n    /* \"@openzeppelin/contracts/access/Ownable.sol\":2362:2368  _owner */\n  0x02\n  0x00\n  swap1\n  sload\n  swap1\n  0x0100\n  exp\n  swap1\n  div\n  0xffffffffffffffffffffffffffffffffffffffff\n  and\n    /* \"@openzeppelin/contracts/access/Ownable.sol\":2343:2368  address oldOwner = _owner */\n  swap1\n  pop\n    /* \"@openzeppelin/contracts/access/Ownable.sol\":2387:2395  newOwner */\n  dup2\n    /* \"@openzeppelin/contracts/access/Ownable.sol\":2378:2384  _owner */\n  0x02\n  0x00\n    /* \"@openzeppelin/contracts/access/Ownable.sol\":2378:2395  _owner = newOwner */\n  0x0100\n  exp\n  dup2\n  sload\n  dup2\n  0xffffffffffffffffffffffffffffffffffffffff\n  mul\n  not\n  and\n  swap1\n  dup4\n  0xffffffffffffffffffffffffffffffffffffffff\n  and\n  mul\n  or\n  swap1\n  sstore\n  pop\n    /* \"@openzeppelin/contracts/access/Ownable.sol\":2441:2449  newOwner */\n  dup2\n    /* \"@openzeppelin/contracts/access/Ownable.sol\":2410:2450  OwnershipTransferred(oldOwner, newOwner) */\n  0xffffffffffffffffffffffffffffffffffffffff\n  and\n    /* \"@openzeppelin/contracts/access/Ownable.sol\":2431:2439  oldOwner */\n  dup2\n    /* \"@openzeppelin/contracts/access/Ownable.sol\":2410:2450  OwnershipTransferred(oldOwner, newOwner) */\n  0xffffffffffffffffffffffffffffffffffffffff\n  and\n  0x8be0079c531659141344cd1fd0a4f28419497f9722a3daafe3b4186f6b6457e0\n  mload(0x40)\n  mload(0x40)\n  dup1\n  swap2\n  sub\n  swap1\n  log3\n    /* \"@openzeppelin/contracts/access/Ownable.sol\":2333:2457  {... */\n  pop\n    /* \"@openzeppelin/contracts/access/Ownable.sol\":2270:2457  function _transferOwnership(address newOwner) internal virtual {... */\n  pop\n  jump\t// out\n    /* \"@openzeppelin/contracts/security/Pausable.sol\":1863:1978  function _pause() internal virtual whenNotPaused {... */\ntag_17:\n    /* \"@openzeppelin/contracts/security/Pausable.sol\":1412:1420  paused() */\n  tag_22\n    /* \"@openzeppelin/contracts/security/Pausable.sol\":1412:1418  paused */\n  shl(0x20, tag_23)\n    /* \"@openzeppelin/contracts/security/Pausable.sol\":1412:1420  paused() */\n  0x20\n  shr\n  jump\t// in\ntag_22:\n    /* \"@openzeppelin/contracts/security/Pausable.sol\":1411:1420  !paused() */\n  iszero\n    /* \"@openzeppelin/contracts/security/Pausable.sol\":1403:1441  require(!paused(), \"Pausable: paused\") */\n  tag_24\n  jumpi\n  mload(0x40)\n  0x08c379a000000000000000000000000000000000000000000000000000000000\n  dup2\n  mstore\n  0x04\n  add\n  tag_25\n  swap1\n  tag_26\n  jump\t// in\ntag_25:\n  mload(0x40)\n  dup1\n  swap2\n  sub\n  swap1\n  revert\ntag_24:\n    /* \"@openzeppelin/contracts/security/Pausable.sol\":1932:1936  true */\n  0x01\n    /* \"@openzeppelin/contracts/security/Pausable.sol\":1922:1929  _paused */\n  0x00\n  dup1\n    /* \"@openzeppelin/contracts/security/Pausable.sol\":1922:1936  _paused = true */\n  0x0100\n  exp\n  dup2\n  sload\n  dup2\n  0xff\n  mul\n  not\n  and\n  swap1\n  dup4\n  iszero\n  iszero\n  mul\n  or\n  swap1\n  sstore\n  pop\n    /* \"@openzeppelin/contracts/security/Pausable.sol\":1951:1971  Paused(_msgSender()) */\n  0x62e78cea01bee320cd4e420270b5ea74000d11b0c9f74754ebdbfc544b05a258\n    /* \"@openzeppelin/contracts/security/Pausable.sol\":1958:1970  _msgSender() */\n  tag_28\n    /* \"@openzeppelin/contracts/security/Pausable.sol\":1958:1968  _msgSender */\n  shl(0x20, tag_13)\n    /* \"@openzeppelin/contracts/security/Pausable.sol\":1958:1970  _msgSender() */\n  0x20\n  shr\n  jump\t// in\ntag_28:\n    /* \"@openzeppelin/contracts/security/Pausable.sol\":1951:1971  Paused(_msgSender()) */\n  mload(0x40)\n  tag_29\n  swap2\n  swap1\n  tag_30\n  jump\t// in\ntag_29:\n  mload(0x40)\n  dup1\n  swap2\n  sub\n  swap1\n  log1\n    /* \"@openzeppelin/contracts/security/Pausable.sol\":1863:1978  function _pause() internal virtual whenNotPaused {... */\n  jump\t// out\n    /* \"@openzeppelin/contracts/security/Pausable.sol\":1098:1182  function paused() public view virtual returns (bool) {... */\ntag_23:\n    /* \"@openzeppelin/contracts/security/Pausable.sol\":1145:1149  bool */\n  0x00\n    /* \"@openzeppelin/contracts/security/Pausable.sol\":1168:1175  _paused */\n  dup1\n  0x00\n  swap1\n  sload\n  swap1\n  0x0100\n  exp\n  swap1\n  div\n  0xff\n  and\n    /* \"@openzeppelin/contracts/security/Pausable.sol\":1161:1175  return _paused */\n  swap1\n  pop\n    /* \"@openzeppelin/contracts/security/Pausable.sol\":1098:1182  function paused() public view virtual returns (bool) {... */\n  swap1\n  jump\t// out\n    /* \"#utility.yul\":88:205   */\ntag_33:\n    /* \"#utility.yul\":197:198   */\n  0x00\n    /* \"#utility.yul\":194:195   */\n  dup1\n    /* \"#utility.yul\":187:199   */\n  revert\n    /* \"#utility.yul\":334:460   */\ntag_35:\n    /* \"#utility.yul\":371:378   */\n  0x00\n    /* \"#utility.yul\":411:453   */\n  0xffffffffffffffffffffffffffffffffffffffff\n    /* \"#utility.yul\":404:409   */\n  dup3\n    /* \"#utility.yul\":400:454   */\n  and\n    /* \"#utility.yul\":389:454   */\n  swap1\n  pop\n    /* \"#utility.yul\":334:460   */\n  swap2\n  swap1\n  pop\n  jump\t// out\n    /* \"#utility.yul\":466:562   */\ntag_36:\n    /* \"#utility.yul\":503:510   */\n  0x00\n    /* \"#utility.yul\":532:556   */\n  tag_49\n    /* \"#utility.yul\":550:555   */\n  dup3\n    /* \"#utility.yul\":532:556   */\n  tag_35\n  jump\t// in\ntag_49:\n    /* \"#utility.yul\":521:556   */\n  swap1\n  pop\n    /* \"#utility.yul\":466:562   */\n  swap2\n  swap1\n  pop\n  jump\t// out\n    /* \"#utility.yul\":568:690   */\ntag_37:\n    /* \"#utility.yul\":641:665   */\n  tag_51\n    /* \"#utility.yul\":659:664   */\n  dup2\n    /* \"#utility.yul\":641:665   */\n  tag_36\n  jump\t// in\ntag_51:\n    /* \"#utility.yul\":634:639   */\n  dup2\n    /* \"#utility.yul\":631:666   */\n  eq\n    /* \"#utility.yul\":621:684   */\n  tag_52\n  jumpi\n    /* \"#utility.yul\":680:681   */\n  0x00\n    /* \"#utility.yul\":677:678   */\n  dup1\n    /* \"#utility.yul\":670:682   */\n  revert\n    /* \"#utility.yul\":621:684   */\ntag_52:\n    /* \"#utility.yul\":568:690   */\n  pop\n  jump\t// out\n    /* \"#utility.yul\":696:839   */\ntag_38:\n    /* \"#utility.yul\":753:758   */\n  0x00\n    /* \"#utility.yul\":784:790   */\n  dup2\n    /* \"#utility.yul\":778:791   */\n  mload\n    /* \"#utility.yul\":769:791   */\n  swap1\n  pop\n    /* \"#utility.yul\":800:833   */\n  tag_54\n    /* \"#utility.yul\":827:832   */\n  dup2\n    /* \"#utility.yul\":800:833   */\n  tag_37\n  jump\t// in\ntag_54:\n    /* \"#utility.yul\":696:839   */\n  swap3\n  swap2\n  pop\n  pop\n  jump\t// out\n    /* \"#utility.yul\":845:1196   */\ntag_3:\n    /* \"#utility.yul\":915:921   */\n  0x00\n    /* \"#utility.yul\":964:966   */\n  0x20\n    /* \"#utility.yul\":952:961   */\n  dup3\n    /* \"#utility.yul\":943:950   */\n  dup5\n    /* \"#utility.yul\":939:962   */\n  sub\n    /* \"#utility.yul\":935:967   */\n  slt\n    /* \"#utility.yul\":932:1051   */\n  iszero\n  tag_56\n  jumpi\n    /* \"#utility.yul\":970:1049   */\n  tag_57\n  tag_33\n  jump\t// in\ntag_57:\n    /* \"#utility.yul\":932:1051   */\ntag_56:\n    /* \"#utility.yul\":1090:1091   */\n  0x00\n    /* \"#utility.yul\":1115:1179   */\n  tag_58\n    /* \"#utility.yul\":1171:1178   */\n  dup5\n    /* \"#utility.yul\":1162:1168   */\n  dup3\n    /* \"#utility.yul\":1151:1160   */\n  dup6\n    /* \"#utility.yul\":1147:1169   */\n  add\n    /* \"#utility.yul\":1115:1179   */\n  tag_38\n  jump\t// in\ntag_58:\n    /* \"#utility.yul\":1105:1179   */\n  swap2\n  pop\n    /* \"#utility.yul\":1061:1189   */\n  pop\n    /* \"#utility.yul\":845:1196   */\n  swap3\n  swap2\n  pop\n  pop\n  jump\t// out\n    /* \"#utility.yul\":1202:1371   */\ntag_39:\n    /* \"#utility.yul\":1286:1297   */\n  0x00\n    /* \"#utility.yul\":1320:1326   */\n  dup3\n    /* \"#utility.yul\":1315:1318   */\n  dup3\n    /* \"#utility.yul\":1308:1327   */\n  mstore\n    /* \"#utility.yul\":1360:1364   */\n  0x20\n    /* \"#utility.yul\":1355:1358   */\n  dup3\n    /* \"#utility.yul\":1351:1365   */\n  add\n    /* \"#utility.yul\":1336:1365   */\n  swap1\n  pop\n    /* \"#utility.yul\":1202:1371   */\n  swap3\n  swap2\n  pop\n  pop\n  jump\t// out\n    /* \"#utility.yul\":1377:1543   */\ntag_40:\n    /* \"#utility.yul\":1517:1535   */\n  0x5061757361626c653a2070617573656400000000000000000000000000000000\n    /* \"#utility.yul\":1513:1514   */\n  0x00\n    /* \"#utility.yul\":1505:1511   */\n  dup3\n    /* \"#utility.yul\":1501:1515   */\n  add\n    /* \"#utility.yul\":1494:1536   */\n  mstore\n    /* \"#utility.yul\":1377:1543   */\n  pop\n  jump\t// out\n    /* \"#utility.yul\":1549:1915   */\ntag_41:\n    /* \"#utility.yul\":1691:1694   */\n  0x00\n    /* \"#utility.yul\":1712:1779   */\n  tag_62\n    /* \"#utility.yul\":1776:1778   */\n  0x10\n    /* \"#utility.yul\":1771:1774   */\n  dup4\n    /* \"#utility.yul\":1712:1779   */\n  tag_39\n  jump\t// in\ntag_62:\n    /* \"#utility.yul\":1705:1779   */\n  swap2\n  pop\n    /* \"#utility.yul\":1788:1881   */\n  tag_63\n    /* \"#utility.yul\":1877:1880   */\n  dup3\n    /* \"#utility.yul\":1788:1881   */\n  tag_40\n  jump\t// in\ntag_63:\n    /* \"#utility.yul\":1906:1908   */\n  0x20\n    /* \"#utility.yul\":1901:1904   */\n  dup3\n    /* \"#utility.yul\":1897:1909   */\n  add\n    /* \"#utility.yul\":1890:1909   */\n  swap1\n  pop\n    /* \"#utility.yul\":1549:1915   */\n  swap2\n  swap1\n  pop\n  jump\t// out\n    /* \"#utility.yul\":1921:2340   */\ntag_26:\n    /* \"#utility.yul\":2087:2091   */\n  0x00\n    /* \"#utility.yul\":2125:2127   */\n  0x20\n    /* \"#utility.yul\":2114:2123   */\n  dup3\n    /* \"#utility.yul\":2110:2128   */\n  add\n    /* \"#utility.yul\":2102:2128   */\n  swap1\n  pop\n    /* \"#utility.yul\":2174:2183   */\n  dup2\n    /* \"#utility.yul\":2168:2172   */\n  dup2\n    /* \"#utility.yul\":2164:2184   */\n  sub\n    /* \"#utility.yul\":2160:2161   */\n  0x00\n    /* \"#utility.yul\":2149:2158   */\n  dup4\n    /* \"#utility.yul\":2145:2162   */\n  add\n    /* \"#utility.yul\":2138:2185   */\n  mstore\n    /* \"#utility.yul\":2202:2333   */\n  tag_65\n    /* \"#utility.yul\":2328:2332   */\n  dup2\n    /* \"#utility.yul\":2202:2333   */\n  tag_41\n  jump\t// in\ntag_65:\n    /* \"#utility.yul\":2194:2333   */\n  swap1\n  pop\n    /* \"#utility.yul\":1921:2340   */\n  swap2\n  swap1\n  pop\n  jump\t// out\n    /* \"#utility.yul\":2346:2464   */\ntag_42:\n    /* \"#utility.yul\":2433:2457   */\n  tag_67\n    /* \"#utility.yul\":2451:2456   */\n  dup2\n    /* \"#utility.yul\":2433:2457   */\n  tag_36\n  jump\t// in\ntag_67:\n    /* \"#utility.yul\":2428:2431   */\n  dup3\n    /* \"#utility.yul\":2421:2458   */\n  mstore\n    /* \"#utility.yul\":2346:2464   */\n  pop\n  pop\n  jump\t// out\n    /* \"#utility.yul\":2470:2692   */\ntag_30:\n    /* \"#utility.yul\":2563:2567   */\n  0x00\n    /* \"#utility.yul\":2601:2603   */\n  0x20\n    /* \"#utility.yul\":2590:2599   */\n  dup3\n    /* \"#utility.yul\":2586:2604   */\n  add\n    /* \"#utility.yul\":2578:2604   */\n  swap1\n  pop\n    /* \"#utility.yul\":2614:2685   */\n  tag_69\n    /* \"#utility.yul\":2682:2683   */\n  0x00\n    /* \"#utility.yul\":2671:2680   */\n  dup4\n    /* \"#utility.yul\":2667:2684   */\n  add\n    /* \"#utility.yul\":2658:2664   */\n  dup5\n    /* \"#utility.yul\":2614:2685   */\n  tag_42\n  jump\t// in\ntag_69:\n    /* \"#utility.yul\":2470:2692   */\n  swap3\n  swap2\n  pop\n  pop\n  jump\t// out\n    /* \"contracts/LooksRare/MultiRewardsDistributor.sol\":793:9690  contract MultiRewardsDistributor is Pausable, ReentrancyGuard, Ownable {... */\ntag_18:\n  mload(0x80)\n  codecopy(0x00, dataOffset(sub_0), dataSize(sub_0))\n  0x00\n  assignImmutable(\"0x981ba9c05125852eb71669638086986a3c68ccef93723e09757758413c01202a\")\n  return(0x00, dataSize(sub_0))\nstop\n\nsub_0: assembly {\n        /* \"contracts/LooksRare/MultiRewardsDistributor.sol\":793:9690  contract MultiRewardsDistributor is Pausable, ReentrancyGuard, Ownable {... */\n      mstore(0x40, 0x80)\n      callvalue\n      dup1\n      iszero\n      tag_1\n      jumpi\n      0x00\n      dup1\n      revert\n    tag_1:\n      pop\n      jumpi(tag_2, lt(calldatasize, 0x04))\n      shr(0xe0, calldataload(0x00))\n      dup1\n      0x7663d437\n      gt\n      tag_24\n      jumpi\n      dup1\n      0xba42590d\n      gt\n      tag_25\n      jumpi\n      dup1\n      0xba42590d\n      eq\n      tag_18\n      jumpi\n      dup1\n      0xc6760f6b\n      eq\n      tag_19\n      jumpi\n      dup1\n      0xd0e1f97f\n      eq\n      tag_20\n      jumpi\n      dup1\n      0xda0195ec\n      eq\n      tag_21\n      jumpi\n      dup1\n      0xf2fde38b\n      eq\n      tag_22\n      jumpi\n      dup1\n      0xfa461974\n      eq\n      tag_23\n      jumpi\n      jump(tag_2)\n    tag_25:\n      dup1\n      0x7663d437\n      eq\n      tag_13\n      jumpi\n      dup1\n      0x8923e2f7\n      eq\n      tag_14\n      jumpi\n      dup1\n      0x8da5cb5b\n      eq\n      tag_15\n      jumpi\n      dup1\n      0xa95c56f5\n      eq\n      tag_16\n      jumpi\n      dup1\n      0xb94ec9d0\n      eq\n      tag_17\n      jumpi\n      jump(tag_2)\n    tag_24:\n      dup1\n      0x31cec7a3\n      gt\n      tag_26\n      jumpi\n      dup1\n      0x31cec7a3\n      eq\n      tag_8\n      jumpi\n      dup1\n      0x3488fca2\n      eq\n      tag_9\n      jumpi\n      dup1\n      0x36db9fb2\n      eq\n      tag_10\n      jumpi\n      dup1\n      0x5c975abb\n      eq\n      tag_11\n      jumpi\n      dup1\n      0x715018a6\n      eq\n      tag_12\n      jumpi\n      jump(tag_2)\n    tag_26:\n      dup1\n      0x0401ff48\n      eq\n      tag_3\n      jumpi\n      dup1\n      0x070e44ce\n      eq\n      tag_4\n      jumpi\n      dup1\n      0x1040faf9\n      eq\n      tag_5\n      jumpi\n      dup1\n      0x141fd8c8\n      eq\n      tag_6\n      jumpi\n      dup1\n      0x249c8f5e\n      eq\n      tag_7\n      jumpi\n    tag_2:\n      0x00\n      dup1\n      revert\n        /* \"contracts/LooksRare/MultiRewardsDistributor.sol\":1894:1975  mapping(address => mapping(uint8 => uint256)) public amountClaimedByUserPerTreeId */\n    tag_3:\n      tag_27\n      0x04\n      dup1\n      calldatasize\n      sub\n      dup2\n      add\n      swap1\n      tag_28\n      swap2\n      swap1\n      tag_29\n      jump\t// in\n    tag_28:\n      tag_30\n      jump\t// in\n    tag_27:\n      mload(0x40)\n      tag_31\n      swap2\n      swap1\n      tag_32\n      jump\t// in\n    tag_31:\n      mload(0x40)\n      dup1\n      swap2\n      sub\n      swap1\n      return\n        /* \"contracts/LooksRare/MultiRewardsDistributor.sol\":7882:8747  function canClaim(... */\n    tag_4:\n      tag_33\n      0x04\n      dup1\n      calldatasize\n      sub\n      dup2\n      add\n      swap1\n      tag_34\n      swap2\n      swap1\n      tag_35\n      jump\t// in\n    tag_34:\n      tag_36\n      jump\t// in\n    tag_33:\n      mload(0x40)\n      tag_37\n      swap3\n      swap2\n      swap1\n      tag_38\n      jump\t// in\n    tag_37:\n      mload(0x40)\n      dup1\n      swap2\n      sub\n      swap1\n      return\n        /* \"contracts/LooksRare/MultiRewardsDistributor.sol\":1617:1650  uint256 public currentRewardRound */\n    tag_5:\n      tag_39\n      tag_40\n      jump\t// in\n    tag_39:\n      mload(0x40)\n      tag_41\n      swap2\n      swap1\n      tag_32\n      jump\t// in\n    tag_41:\n      mload(0x40)\n      dup1\n      swap2\n      sub\n      swap1\n      return\n        /* \"contracts/LooksRare/MultiRewardsDistributor.sol\":1252:1306  uint256 public constant BUFFER_ADMIN_WITHDRAW = 3 days */\n    tag_6:\n      tag_42\n      tag_43\n      jump\t// in\n    tag_42:\n      mload(0x40)\n      tag_44\n      swap2\n      swap1\n      tag_32\n      jump\t// in\n    tag_44:\n      mload(0x40)\n      dup1\n      swap2\n      sub\n      swap1\n      return\n        /* \"contracts/LooksRare/MultiRewardsDistributor.sol\":1555:1579  uint8 public numberTrees */\n    tag_7:\n      tag_45\n      tag_46\n      jump\t// in\n    tag_45:\n      mload(0x40)\n      tag_47\n      swap2\n      swap1\n      tag_48\n      jump\t// in\n    tag_47:\n      mload(0x40)\n      dup1\n      swap2\n      sub\n      swap1\n      return\n        /* \"contracts/LooksRare/MultiRewardsDistributor.sol\":6758:6895  function pauseDistribution() external onlyOwner whenNotPaused {... */\n    tag_8:\n      tag_49\n      tag_50\n      jump\t// in\n    tag_49:\n      stop\n        /* \"contracts/LooksRare/MultiRewardsDistributor.sol\":6331:6668  function addNewTree(address safeGuard) external onlyOwner {... */\n    tag_9:\n      tag_51\n      0x04\n      dup1\n      calldatasize\n      sub\n      dup2\n      add\n      swap1\n      tag_52\n      swap2\n      swap1\n      tag_53\n      jump\t// in\n    tag_52:\n      tag_54\n      jump\t// in\n    tag_51:\n      stop\n        /* \"contracts/LooksRare/MultiRewardsDistributor.sol\":1448:1486  IERC20 public immutable looksRareToken */\n    tag_10:\n      tag_55\n      tag_56\n      jump\t// in\n    tag_55:\n      mload(0x40)\n      tag_57\n      swap2\n      swap1\n      tag_58\n      jump\t// in\n    tag_57:\n      mload(0x40)\n      dup1\n      swap2\n      sub\n      swap1\n      return\n        /* \"@openzeppelin/contracts/security/Pausable.sol\":1098:1182  function paused() public view virtual returns (bool) {... */\n    tag_11:\n      tag_59\n      tag_60\n      jump\t// in\n    tag_59:\n      mload(0x40)\n      tag_61\n      swap2\n      swap1\n      tag_62\n      jump\t// in\n    tag_61:\n      mload(0x40)\n      dup1\n      swap2\n      sub\n      swap1\n      return\n        /* \"@openzeppelin/contracts/access/Ownable.sol\":1668:1769  function renounceOwnership() public virtual onlyOwner {... */\n    tag_12:\n      tag_63\n      tag_64\n      jump\t// in\n    tag_63:\n      stop\n        /* \"contracts/LooksRare/MultiRewardsDistributor.sol\":1784:1837  mapping(uint8 => TreeParameter) public treeParameters */\n    tag_13:\n      tag_65\n      0x04\n      dup1\n      calldatasize\n      sub\n      dup2\n      add\n      swap1\n      tag_66\n      swap2\n      swap1\n      tag_67\n      jump\t// in\n    tag_66:\n      tag_68\n      jump\t// in\n    tag_65:\n      mload(0x40)\n      tag_69\n      swap4\n      swap3\n      swap2\n      swap1\n      tag_70\n      jump\t// in\n    tag_69:\n      mload(0x40)\n      dup1\n      swap2\n      sub\n      swap1\n      return\n        /* \"contracts/LooksRare/MultiRewardsDistributor.sol\":7255:7557  function withdrawTokenRewards(uint256 amount) external onlyOwner whenPaused {... */\n    tag_14:\n      tag_71\n      0x04\n      dup1\n      calldatasize\n      sub\n      dup2\n      add\n      swap1\n      tag_72\n      swap2\n      swap1\n      tag_73\n      jump\t// in\n    tag_72:\n      tag_74\n      jump\t// in\n    tag_71:\n      stop\n        /* \"@openzeppelin/contracts/access/Ownable.sol\":1036:1121  function owner() public view virtual returns (address) {... */\n    tag_15:\n      tag_75\n      tag_76\n      jump\t// in\n    tag_75:\n      mload(0x40)\n      tag_77\n      swap2\n      swap1\n      tag_78\n      jump\t// in\n    tag_77:\n      mload(0x40)\n      dup1\n      swap2\n      sub\n      swap1\n      return\n        /* \"contracts/LooksRare/MultiRewardsDistributor.sol\":2034:2079  mapping(address => bool) public safeGuardUsed */\n    tag_16:\n      tag_79\n      0x04\n      dup1\n      calldatasize\n      sub\n      dup2\n      add\n      swap1\n      tag_80\n      swap2\n      swap1\n      tag_53\n      jump\t// in\n    tag_80:\n      tag_81\n      jump\t// in\n    tag_79:\n      mload(0x40)\n      tag_82\n      swap2\n      swap1\n      tag_62\n      jump\t// in\n    tag_82:\n      mload(0x40)\n      dup1\n      swap2\n      sub\n      swap1\n      return\n        /* \"contracts/LooksRare/MultiRewardsDistributor.sol\":6987:7077  function unpauseDistribution() external onlyOwner whenPaused {... */\n    tag_17:\n      tag_83\n      tag_84\n      jump\t// in\n    tag_83:\n      stop\n        /* \"contracts/LooksRare/MultiRewardsDistributor.sol\":2134:2180  mapping(bytes32 => bool) public merkleRootUsed */\n    tag_18:\n      tag_85\n      0x04\n      dup1\n      calldatasize\n      sub\n      dup2\n      add\n      swap1\n      tag_86\n      swap2\n      swap1\n      tag_87\n      jump\t// in\n    tag_86:\n      tag_88\n      jump\t// in\n    tag_85:\n      mload(0x40)\n      tag_89\n      swap2\n      swap1\n      tag_62\n      jump\t// in\n    tag_89:\n      mload(0x40)\n      dup1\n      swap2\n      sub\n      swap1\n      return\n        /* \"contracts/LooksRare/MultiRewardsDistributor.sol\":2893:4329  function claim(... */\n    tag_19:\n      tag_90\n      0x04\n      dup1\n      calldatasize\n      sub\n      dup2\n      add\n      swap1\n      tag_91\n      swap2\n      swap1\n      tag_92\n      jump\t// in\n    tag_91:\n      tag_93\n      jump\t// in\n    tag_90:\n      stop\n        /* \"contracts/LooksRare/MultiRewardsDistributor.sol\":1367:1415  uint256 public constant SAFE_GUARD_AMOUNT = 1e18 */\n    tag_20:\n      tag_94\n      tag_95\n      jump\t// in\n    tag_94:\n      mload(0x40)\n      tag_96\n      swap2\n      swap1\n      tag_32\n      jump\t// in\n    tag_96:\n      mload(0x40)\n      dup1\n      swap2\n      sub\n      swap1\n      return\n        /* \"contracts/LooksRare/MultiRewardsDistributor.sol\":4762:6160  function updateTradingRewards(... */\n    tag_21:\n      tag_97\n      0x04\n      dup1\n      calldatasize\n      sub\n      dup2\n      add\n      swap1\n      tag_98\n      swap2\n      swap1\n      tag_99\n      jump\t// in\n    tag_98:\n      tag_100\n      jump\t// in\n    tag_97:\n      stop\n        /* \"@openzeppelin/contracts/access/Ownable.sol\":1918:2116  function transferOwnership(address newOwner) public virtual onlyOwner {... */\n    tag_22:\n      tag_101\n      0x04\n      dup1\n      calldatasize\n      sub\n      dup2\n      add\n      swap1\n      tag_102\n      swap2\n      swap1\n      tag_53\n      jump\t// in\n    tag_102:\n      tag_103\n      jump\t// in\n    tag_101:\n      stop\n        /* \"contracts/LooksRare/MultiRewardsDistributor.sol\":1689:1723  uint256 public lastPausedTimestamp */\n    tag_23:\n      tag_104\n      tag_105\n      jump\t// in\n    tag_104:\n      mload(0x40)\n      tag_106\n      swap2\n      swap1\n      tag_32\n      jump\t// in\n    tag_106:\n      mload(0x40)\n      dup1\n      swap2\n      sub\n      swap1\n      return\n        /* \"contracts/LooksRare/MultiRewardsDistributor.sol\":1894:1975  mapping(address => mapping(uint8 => uint256)) public amountClaimedByUserPerTreeId */\n    tag_30:\n      mstore(0x20, 0x06)\n      dup2\n      0x00\n      mstore\n      mstore(0x20, keccak256(0x00, 0x40))\n      dup1\n      0x00\n      mstore\n      keccak256(0x00, 0x40)\n      0x00\n      swap2\n      pop\n      swap2\n      pop\n      pop\n      sload\n      dup2\n      jump\t// out\n        /* \"contracts/LooksRare/MultiRewardsDistributor.sol\":7882:8747  function canClaim(... */\n    tag_36:\n        /* \"contracts/LooksRare/MultiRewardsDistributor.sol\":8069:8082  bool[] memory */\n      0x60\n        /* \"contracts/LooksRare/MultiRewardsDistributor.sol\":8084:8100  uint256[] memory */\n      dup1\n        /* \"contracts/LooksRare/MultiRewardsDistributor.sol\":8113:8135  bool[] memory statuses */\n      0x00\n        /* \"contracts/LooksRare/MultiRewardsDistributor.sol\":8149:8156  amounts */\n      dup7\n      dup7\n        /* \"contracts/LooksRare/MultiRewardsDistributor.sol\":8149:8163  amounts.length */\n      swap1\n      pop\n        /* \"contracts/LooksRare/MultiRewardsDistributor.sol\":8138:8164  new bool[](amounts.length) */\n      0xffffffffffffffff\n      dup2\n      gt\n      iszero\n      tag_108\n      jumpi\n      tag_109\n      tag_110\n      jump\t// in\n    tag_109:\n    tag_108:\n      mload(0x40)\n      swap1\n      dup1\n      dup3\n      mstore\n      dup1\n      0x20\n      mul\n      0x20\n      add\n      dup3\n      add\n      0x40\n      mstore\n      dup1\n      iszero\n      tag_111\n      jumpi\n      dup2\n      0x20\n      add\n      0x20\n      dup3\n      mul\n      dup1\n      calldatasize\n      dup4\n      calldatacopy\n      dup1\n      dup3\n      add\n      swap2\n      pop\n      pop\n      swap1\n      pop\n    tag_111:\n      pop\n        /* \"contracts/LooksRare/MultiRewardsDistributor.sol\":8113:8164  bool[] memory statuses = new bool[](amounts.length) */\n      swap1\n      pop\n        /* \"contracts/LooksRare/MultiRewardsDistributor.sol\":8175:8207  uint256[] memory adjustedAmounts */\n      0x00\n        /* \"contracts/LooksRare/MultiRewardsDistributor.sol\":8224:8231  amounts */\n      dup8\n      dup8\n        /* \"contracts/LooksRare/MultiRewardsDistributor.sol\":8224:8238  amounts.length */\n      swap1\n      pop\n        /* \"contracts/LooksRare/MultiRewardsDistributor.sol\":8210:8239  new uint256[](amounts.length) */\n      0xffffffffffffffff\n      dup2\n      gt\n      iszero\n      tag_112\n      jumpi\n      tag_113\n      tag_110\n      jump\t// in\n    tag_113:\n    tag_112:\n      mload(0x40)\n      swap1\n      dup1\n      dup3\n      mstore\n      dup1\n      0x20\n      mul\n      0x20\n      add\n      dup3\n      add\n      0x40\n      mstore\n      dup1\n      iszero\n      tag_114\n      jumpi\n      dup2\n      0x20\n      add\n      0x20\n      dup3\n      mul\n      dup1\n      calldatasize\n      dup4\n      calldatacopy\n      dup1\n      dup3\n      add\n      swap2\n      pop\n      pop\n      swap1\n      pop\n    tag_114:\n      pop\n        /* \"contracts/LooksRare/MultiRewardsDistributor.sol\":8175:8239  uint256[] memory adjustedAmounts = new uint256[](amounts.length) */\n      swap1\n      pop\n        /* \"contracts/LooksRare/MultiRewardsDistributor.sol\":8274:8281  amounts */\n      dup8\n      dup8\n        /* \"contracts/LooksRare/MultiRewardsDistributor.sol\":8274:8288  amounts.length */\n      swap1\n      pop\n        /* \"contracts/LooksRare/MultiRewardsDistributor.sol\":8256:8263  treeIds */\n      dup11\n      dup11\n        /* \"contracts/LooksRare/MultiRewardsDistributor.sol\":8256:8270  treeIds.length */\n      swap1\n      pop\n        /* \"contracts/LooksRare/MultiRewardsDistributor.sol\":8256:8288  treeIds.length != amounts.length */\n      eq\n      iszero\n        /* \"contracts/LooksRare/MultiRewardsDistributor.sol\":8256:8329  treeIds.length != amounts.length || treeIds.length != merkleProofs.length */\n      dup1\n      tag_115\n      jumpi\n      pop\n        /* \"contracts/LooksRare/MultiRewardsDistributor.sol\":8310:8322  merkleProofs */\n      dup6\n      dup6\n        /* \"contracts/LooksRare/MultiRewardsDistributor.sol\":8310:8329  merkleProofs.length */\n      swap1\n      pop\n        /* \"contracts/LooksRare/MultiRewardsDistributor.sol\":8292:8299  treeIds */\n      dup11\n      dup11\n        /* \"contracts/LooksRare/MultiRewardsDistributor.sol\":8292:8306  treeIds.length */\n      swap1\n      pop\n        /* \"contracts/LooksRare/MultiRewardsDistributor.sol\":8292:8329  treeIds.length != merkleProofs.length */\n      eq\n      iszero\n        /* \"contracts/LooksRare/MultiRewardsDistributor.sol\":8256:8329  treeIds.length != amounts.length || treeIds.length != merkleProofs.length */\n    tag_115:\n        /* \"contracts/LooksRare/MultiRewardsDistributor.sol\":8256:8352  treeIds.length != amounts.length || treeIds.length != merkleProofs.length || treeIds.length == 0 */\n      dup1\n      tag_116\n      jumpi\n      pop\n        /* \"contracts/LooksRare/MultiRewardsDistributor.sol\":8351:8352  0 */\n      0x00\n        /* \"contracts/LooksRare/MultiRewardsDistributor.sol\":8333:8340  treeIds */\n      dup11\n      dup11\n        /* \"contracts/LooksRare/MultiRewardsDistributor.sol\":8333:8347  treeIds.length */\n      swap1\n      pop\n        /* \"contracts/LooksRare/MultiRewardsDistributor.sol\":8333:8352  treeIds.length == 0 */\n      eq\n        /* \"contracts/LooksRare/MultiRewardsDistributor.sol\":8256:8352  treeIds.length != amounts.length || treeIds.length != merkleProofs.length || treeIds.length == 0 */\n    tag_116:\n        /* \"contracts/LooksRare/MultiRewardsDistributor.sol\":8252:8740  if (treeIds.length != amounts.length || treeIds.length != merkleProofs.length || treeIds.length == 0) {... */\n      iszero\n      tag_117\n      jumpi\n        /* \"contracts/LooksRare/MultiRewardsDistributor.sol\":8377:8385  statuses */\n      dup2\n        /* \"contracts/LooksRare/MultiRewardsDistributor.sol\":8387:8402  adjustedAmounts */\n      dup2\n        /* \"contracts/LooksRare/MultiRewardsDistributor.sol\":8369:8403  return (statuses, adjustedAmounts) */\n      swap4\n      pop\n      swap4\n      pop\n      pop\n      pop\n      jump(tag_107)\n        /* \"contracts/LooksRare/MultiRewardsDistributor.sol\":8252:8740  if (treeIds.length != amounts.length || treeIds.length != merkleProofs.length || treeIds.length == 0) {... */\n    tag_117:\n        /* \"contracts/LooksRare/MultiRewardsDistributor.sol\":8441:8450  uint256 i */\n      0x00\n        /* \"contracts/LooksRare/MultiRewardsDistributor.sol\":8436:8680  for (uint256 i = 0; i < treeIds.length; i++) {... */\n    tag_119:\n        /* \"contracts/LooksRare/MultiRewardsDistributor.sol\":8460:8467  treeIds */\n      dup11\n      dup11\n        /* \"contracts/LooksRare/MultiRewardsDistributor.sol\":8460:8474  treeIds.length */\n      swap1\n      pop\n        /* \"contracts/LooksRare/MultiRewardsDistributor.sol\":8456:8457  i */\n      dup2\n        /* \"contracts/LooksRare/MultiRewardsDistributor.sol\":8456:8474  i < treeIds.length */\n      lt\n        /* \"contracts/LooksRare/MultiRewardsDistributor.sol\":8436:8680  for (uint256 i = 0; i < treeIds.length; i++) {... */\n      iszero\n      tag_120\n      jumpi\n        /* \"contracts/LooksRare/MultiRewardsDistributor.sol\":8517:8528  numberTrees */\n      0x02\n      0x14\n      swap1\n      sload\n      swap1\n      0x0100\n      exp\n      swap1\n      div\n      0xff\n      and\n        /* \"contracts/LooksRare/MultiRewardsDistributor.sol\":8504:8528  treeIds[i] < numberTrees */\n      0xff\n      and\n        /* \"contracts/LooksRare/MultiRewardsDistributor.sol\":8504:8511  treeIds */\n      dup12\n      dup12\n        /* \"contracts/LooksRare/MultiRewardsDistributor.sol\":8512:8513  i */\n      dup4\n        /* \"contracts/LooksRare/MultiRewardsDistributor.sol\":8504:8514  treeIds[i] */\n      dup2\n      dup2\n      lt\n      tag_122\n      jumpi\n      tag_123\n      tag_124\n      jump\t// in\n    tag_123:\n    tag_122:\n      swap1\n      pop\n      0x20\n      mul\n      add\n      0x20\n      dup2\n      add\n      swap1\n      tag_125\n      swap2\n      swap1\n      tag_67\n      jump\t// in\n    tag_125:\n        /* \"contracts/LooksRare/MultiRewardsDistributor.sol\":8504:8528  treeIds[i] < numberTrees */\n      0xff\n      and\n      lt\n        /* \"contracts/LooksRare/MultiRewardsDistributor.sol\":8500:8665  if (treeIds[i] < numberTrees) {... */\n      iszero\n      tag_126\n      jumpi\n        /* \"contracts/LooksRare/MultiRewardsDistributor.sol\":8589:8645  _canClaim(user, treeIds[i], amounts[i], merkleProofs[i]) */\n      tag_127\n        /* \"contracts/LooksRare/MultiRewardsDistributor.sol\":8599:8603  user */\n      dup13\n        /* \"contracts/LooksRare/MultiRewardsDistributor.sol\":8605:8612  treeIds */\n      dup13\n      dup13\n        /* \"contracts/LooksRare/MultiRewardsDistributor.sol\":8613:8614  i */\n      dup5\n        /* \"contracts/LooksRare/MultiRewardsDistributor.sol\":8605:8615  treeIds[i] */\n      dup2\n      dup2\n      lt\n      tag_128\n      jumpi\n      tag_129\n      tag_124\n      jump\t// in\n    tag_129:\n    tag_128:\n      swap1\n      pop\n      0x20\n      mul\n      add\n      0x20\n      dup2\n      add\n      swap1\n      tag_130\n      swap2\n      swap1\n      tag_67\n      jump\t// in\n    tag_130:\n        /* \"contracts/LooksRare/MultiRewardsDistributor.sol\":8617:8624  amounts */\n      dup12\n      dup12\n        /* \"contracts/LooksRare/MultiRewardsDistributor.sol\":8625:8626  i */\n      dup6\n        /* \"contracts/LooksRare/MultiRewardsDistributor.sol\":8617:8627  amounts[i] */\n      dup2\n      dup2\n      lt\n      tag_131\n      jumpi\n      tag_132\n      tag_124\n      jump\t// in\n    tag_132:\n    tag_131:\n      swap1\n      pop\n      0x20\n      mul\n      add\n      calldataload\n        /* \"contracts/LooksRare/MultiRewardsDistributor.sol\":8629:8641  merkleProofs */\n      dup11\n      dup11\n        /* \"contracts/LooksRare/MultiRewardsDistributor.sol\":8642:8643  i */\n      dup7\n        /* \"contracts/LooksRare/MultiRewardsDistributor.sol\":8629:8644  merkleProofs[i] */\n      dup2\n      dup2\n      lt\n      tag_133\n      jumpi\n      tag_134\n      tag_124\n      jump\t// in\n    tag_134:\n    tag_133:\n      swap1\n      pop\n      0x20\n      mul\n      dup2\n      add\n      swap1\n      tag_135\n      swap2\n      swap1\n      tag_136\n      jump\t// in\n    tag_135:\n        /* \"contracts/LooksRare/MultiRewardsDistributor.sol\":8589:8598  _canClaim */\n      tag_137\n        /* \"contracts/LooksRare/MultiRewardsDistributor.sol\":8589:8645  _canClaim(user, treeIds[i], amounts[i], merkleProofs[i]) */\n      jump\t// in\n    tag_127:\n        /* \"contracts/LooksRare/MultiRewardsDistributor.sol\":8554:8562  statuses */\n      dup5\n        /* \"contracts/LooksRare/MultiRewardsDistributor.sol\":8563:8564  i */\n      dup4\n        /* \"contracts/LooksRare/MultiRewardsDistributor.sol\":8554:8565  statuses[i] */\n      dup2\n      mload\n      dup2\n      lt\n      tag_138\n      jumpi\n      tag_139\n      tag_124\n      jump\t// in\n    tag_139:\n    tag_138:\n      0x20\n      mul\n      0x20\n      add\n      add\n        /* \"contracts/LooksRare/MultiRewardsDistributor.sol\":8567:8582  adjustedAmounts */\n      dup5\n        /* \"contracts/LooksRare/MultiRewardsDistributor.sol\":8583:8584  i */\n      dup5\n        /* \"contracts/LooksRare/MultiRewardsDistributor.sol\":8567:8585  adjustedAmounts[i] */\n      dup2\n      mload\n      dup2\n      lt\n      tag_140\n      jumpi\n      tag_141\n      tag_124\n      jump\t// in\n    tag_141:\n    tag_140:\n      0x20\n      mul\n      0x20\n      add\n      add\n        /* \"contracts/LooksRare/MultiRewardsDistributor.sol\":8553:8645  (statuses[i], adjustedAmounts[i]) = _canClaim(user, treeIds[i], amounts[i], merkleProofs[i]) */\n      dup3\n      dup2\n      mstore\n      pop\n      dup3\n      iszero\n      iszero\n      iszero\n      iszero\n      dup2\n      mstore\n      pop\n      pop\n      pop\n        /* \"contracts/LooksRare/MultiRewardsDistributor.sol\":8500:8665  if (treeIds[i] < numberTrees) {... */\n    tag_126:\n        /* \"contracts/LooksRare/MultiRewardsDistributor.sol\":8476:8479  i++ */\n      dup1\n      dup1\n      tag_142\n      swap1\n      tag_143\n      jump\t// in\n    tag_142:\n      swap2\n      pop\n      pop\n        /* \"contracts/LooksRare/MultiRewardsDistributor.sol\":8436:8680  for (uint256 i = 0; i < treeIds.length; i++) {... */\n      jump(tag_119)\n    tag_120:\n      pop\n        /* \"contracts/LooksRare/MultiRewardsDistributor.sol\":8702:8710  statuses */\n      dup2\n        /* \"contracts/LooksRare/MultiRewardsDistributor.sol\":8712:8727  adjustedAmounts */\n      dup2\n        /* \"contracts/LooksRare/MultiRewardsDistributor.sol\":8694:8728  return (statuses, adjustedAmounts) */\n      swap4\n      pop\n      swap4\n      pop\n      pop\n      pop\n        /* \"contracts/LooksRare/MultiRewardsDistributor.sol\":7882:8747  function canClaim(... */\n    tag_107:\n      swap8\n      pop\n      swap8\n      swap6\n      pop\n      pop\n      pop\n      pop\n      pop\n      pop\n      jump\t// out\n        /* \"contracts/LooksRare/MultiRewardsDistributor.sol\":1617:1650  uint256 public currentRewardRound */\n    tag_40:\n      sload(0x03)\n      dup2\n      jump\t// out\n        /* \"contracts/LooksRare/MultiRewardsDistributor.sol\":1252:1306  uint256 public constant BUFFER_ADMIN_WITHDRAW = 3 days */\n    tag_43:\n        /* \"contracts/LooksRare/MultiRewardsDistributor.sol\":1300:1306  3 days */\n      0x03f480\n        /* \"contracts/LooksRare/MultiRewardsDistributor.sol\":1252:1306  uint256 public constant BUFFER_ADMIN_WITHDRAW = 3 days */\n      dup2\n      jump\t// out\n        /* \"contracts/LooksRare/MultiRewardsDistributor.sol\":1555:1579  uint8 public numberTrees */\n    tag_46:\n      0x02\n      0x14\n      swap1\n      sload\n      swap1\n      0x0100\n      exp\n      swap1\n      div\n      0xff\n      and\n      dup2\n      jump\t// out\n        /* \"contracts/LooksRare/MultiRewardsDistributor.sol\":6758:6895  function pauseDistribution() external onlyOwner whenNotPaused {... */\n    tag_50:\n        /* \"@openzeppelin/contracts/access/Ownable.sol\":1259:1271  _msgSender() */\n      tag_145\n        /* \"@openzeppelin/contracts/access/Ownable.sol\":1259:1269  _msgSender */\n      tag_146\n        /* \"@openzeppelin/contracts/access/Ownable.sol\":1259:1271  _msgSender() */\n      jump\t// in\n    tag_145:\n        /* \"@openzeppelin/contracts/access/Ownable.sol\":1248:1271  owner() == _msgSender() */\n      0xffffffffffffffffffffffffffffffffffffffff\n      and\n        /* \"@openzeppelin/contracts/access/Ownable.sol\":1248:1255  owner() */\n      tag_147\n        /* \"@openzeppelin/contracts/access/Ownable.sol\":1248:1253  owner */\n      tag_76\n        /* \"@openzeppelin/contracts/access/Ownable.sol\":1248:1255  owner() */\n      jump\t// in\n    tag_147:\n        /* \"@openzeppelin/contracts/access/Ownable.sol\":1248:1271  owner() == _msgSender() */\n      0xffffffffffffffffffffffffffffffffffffffff\n      and\n      eq\n        /* \"@openzeppelin/contracts/access/Ownable.sol\":1240:1308  require(owner() == _msgSender(), \"Ownable: caller is not the owner\") */\n      tag_148\n      jumpi\n      mload(0x40)\n      0x08c379a000000000000000000000000000000000000000000000000000000000\n      dup2\n      mstore\n      0x04\n      add\n      tag_149\n      swap1\n      tag_150\n      jump\t// in\n    tag_149:\n      mload(0x40)\n      dup1\n      swap2\n      sub\n      swap1\n      revert\n    tag_148:\n        /* \"@openzeppelin/contracts/security/Pausable.sol\":1412:1420  paused() */\n      tag_152\n        /* \"@openzeppelin/contracts/security/Pausable.sol\":1412:1418  paused */\n      tag_60\n        /* \"@openzeppelin/contracts/security/Pausable.sol\":1412:1420  paused() */\n      jump\t// in\n    tag_152:\n        /* \"@openzeppelin/contracts/security/Pausable.sol\":1411:1420  !paused() */\n      iszero\n        /* \"@openzeppelin/contracts/security/Pausable.sol\":1403:1441  require(!paused(), \"Pausable: paused\") */\n      tag_153\n      jumpi\n      mload(0x40)\n      0x08c379a000000000000000000000000000000000000000000000000000000000\n      dup2\n      mstore\n      0x04\n      add\n      tag_154\n      swap1\n      tag_155\n      jump\t// in\n    tag_154:\n      mload(0x40)\n      dup1\n      swap2\n      sub\n      swap1\n      revert\n    tag_153:\n        /* \"contracts/LooksRare/MultiRewardsDistributor.sol\":6853:6868  block.timestamp */\n      timestamp\n        /* \"contracts/LooksRare/MultiRewardsDistributor.sol\":6831:6850  lastPausedTimestamp */\n      0x04\n        /* \"contracts/LooksRare/MultiRewardsDistributor.sol\":6831:6868  lastPausedTimestamp = block.timestamp */\n      dup2\n      swap1\n      sstore\n      pop\n        /* \"contracts/LooksRare/MultiRewardsDistributor.sol\":6879:6887  _pause() */\n      tag_157\n        /* \"contracts/LooksRare/MultiRewardsDistributor.sol\":6879:6885  _pause */\n      tag_158\n        /* \"contracts/LooksRare/MultiRewardsDistributor.sol\":6879:6887  _pause() */\n      jump\t// in\n    tag_157:\n        /* \"contracts/LooksRare/MultiRewardsDistributor.sol\":6758:6895  function pauseDistribution() external onlyOwner whenNotPaused {... */\n      jump\t// out\n        /* \"contracts/LooksRare/MultiRewardsDistributor.sol\":6331:6668  function addNewTree(address safeGuard) external onlyOwner {... */\n    tag_54:\n        /* \"@openzeppelin/contracts/access/Ownable.sol\":1259:1271  _msgSender() */\n      tag_160\n        /* \"@openzeppelin/contracts/access/Ownable.sol\":1259:1269  _msgSender */\n      tag_146\n        /* \"@openzeppelin/contracts/access/Ownable.sol\":1259:1271  _msgSender() */\n      jump\t// in\n    tag_160:\n        /* \"@openzeppelin/contracts/access/Ownable.sol\":1248:1271  owner() == _msgSender() */\n      0xffffffffffffffffffffffffffffffffffffffff\n      and\n        /* \"@openzeppelin/contracts/access/Ownable.sol\":1248:1255  owner() */\n      tag_161\n        /* \"@openzeppelin/contracts/access/Ownable.sol\":1248:1253  owner */\n      tag_76\n        /* \"@openzeppelin/contracts/access/Ownable.sol\":1248:1255  owner() */\n      jump\t// in\n    tag_161:\n        /* \"@openzeppelin/contracts/access/Ownable.sol\":1248:1271  owner() == _msgSender() */\n      0xffffffffffffffffffffffffffffffffffffffff\n      and\n      eq\n        /* \"@openzeppelin/contracts/access/Ownable.sol\":1240:1308  require(owner() == _msgSender(), \"Ownable: caller is not the owner\") */\n      tag_162\n      jumpi\n      mload(0x40)\n      0x08c379a000000000000000000000000000000000000000000000000000000000\n      dup2\n      mstore\n      0x04\n      add\n      tag_163\n      swap1\n      tag_150\n      jump\t// in\n    tag_163:\n      mload(0x40)\n      dup1\n      swap2\n      sub\n      swap1\n      revert\n    tag_162:\n        /* \"contracts/LooksRare/MultiRewardsDistributor.sol\":6409:6422  safeGuardUsed */\n      0x07\n        /* \"contracts/LooksRare/MultiRewardsDistributor.sol\":6409:6433  safeGuardUsed[safeGuard] */\n      0x00\n        /* \"contracts/LooksRare/MultiRewardsDistributor.sol\":6423:6432  safeGuard */\n      dup3\n        /* \"contracts/LooksRare/MultiRewardsDistributor.sol\":6409:6433  safeGuardUsed[safeGuard] */\n      0xffffffffffffffffffffffffffffffffffffffff\n      and\n      0xffffffffffffffffffffffffffffffffffffffff\n      and\n      dup2\n      mstore\n      0x20\n      add\n      swap1\n      dup2\n      mstore\n      0x20\n      add\n      0x00\n      keccak256\n      0x00\n      swap1\n      sload\n      swap1\n      0x0100\n      exp\n      swap1\n      div\n      0xff\n      and\n        /* \"contracts/LooksRare/MultiRewardsDistributor.sol\":6408:6433  !safeGuardUsed[safeGuard] */\n      iszero\n        /* \"contracts/LooksRare/MultiRewardsDistributor.sol\":6400:6468  require(!safeGuardUsed[safeGuard], \"Owner: Safe guard already used\") */\n      tag_165\n      jumpi\n      mload(0x40)\n      0x08c379a000000000000000000000000000000000000000000000000000000000\n      dup2\n      mstore\n      0x04\n      add\n      tag_166\n      swap1\n      tag_167\n      jump\t// in\n    tag_166:\n      mload(0x40)\n      dup1\n      swap2\n      sub\n      swap1\n      revert\n    tag_165:\n        /* \"contracts/LooksRare/MultiRewardsDistributor.sol\":6506:6510  true */\n      0x01\n        /* \"contracts/LooksRare/MultiRewardsDistributor.sol\":6479:6492  safeGuardUsed */\n      0x07\n        /* \"contracts/LooksRare/MultiRewardsDistributor.sol\":6479:6503  safeGuardUsed[safeGuard] */\n      0x00\n        /* \"contracts/LooksRare/MultiRewardsDistributor.sol\":6493:6502  safeGuard */\n      dup4\n        /* \"contracts/LooksRare/MultiRewardsDistributor.sol\":6479:6503  safeGuardUsed[safeGuard] */\n      0xffffffffffffffffffffffffffffffffffffffff\n      and\n      0xffffffffffffffffffffffffffffffffffffffff\n      and\n      dup2\n      mstore\n      0x20\n      add\n      swap1\n      dup2\n      mstore\n      0x20\n      add\n      0x00\n      keccak256\n      0x00\n        /* \"contracts/LooksRare/MultiRewardsDistributor.sol\":6479:6510  safeGuardUsed[safeGuard] = true */\n      0x0100\n      exp\n      dup2\n      sload\n      dup2\n      0xff\n      mul\n      not\n      and\n      swap1\n      dup4\n      iszero\n      iszero\n      mul\n      or\n      swap1\n      sstore\n      pop\n        /* \"contracts/LooksRare/MultiRewardsDistributor.sol\":6561:6570  safeGuard */\n      dup1\n        /* \"contracts/LooksRare/MultiRewardsDistributor.sol\":6521:6535  treeParameters */\n      0x05\n        /* \"contracts/LooksRare/MultiRewardsDistributor.sol\":6521:6548  treeParameters[numberTrees] */\n      0x00\n        /* \"contracts/LooksRare/MultiRewardsDistributor.sol\":6536:6547  numberTrees */\n      0x02\n      0x14\n      swap1\n      sload\n      swap1\n      0x0100\n      exp\n      swap1\n      div\n      0xff\n      and\n        /* \"contracts/LooksRare/MultiRewardsDistributor.sol\":6521:6548  treeParameters[numberTrees] */\n      0xff\n      and\n      0xff\n      and\n      dup2\n      mstore\n      0x20\n      add\n      swap1\n      dup2\n      mstore\n      0x20\n      add\n      0x00\n      keccak256\n        /* \"contracts/LooksRare/MultiRewardsDistributor.sol\":6521:6558  treeParameters[numberTrees].safeGuard */\n      0x00\n      add\n      0x00\n        /* \"contracts/LooksRare/MultiRewardsDistributor.sol\":6521:6570  treeParameters[numberTrees].safeGuard = safeGuard */\n      0x0100\n      exp\n      dup2\n      sload\n      dup2\n      0xffffffffffffffffffffffffffffffffffffffff\n      mul\n      not\n      and\n      swap1\n      dup4\n      0xffffffffffffffffffffffffffffffffffffffff\n      and\n      mul\n      or\n      swap1\n      sstore\n      pop\n        /* \"contracts/LooksRare/MultiRewardsDistributor.sol\":6638:6660  NewTree(numberTrees++) */\n      0x0cc7daa76db4972d6a17fb9d6aab3dc31eacbe5c2d577977f4cbe162f077c0b1\n        /* \"contracts/LooksRare/MultiRewardsDistributor.sol\":6646:6657  numberTrees */\n      0x02\n      0x14\n        /* \"contracts/LooksRare/MultiRewardsDistributor.sol\":6646:6659  numberTrees++ */\n      dup2\n      dup2\n      swap1\n      sload\n      swap1\n      0x0100\n      exp\n      swap1\n      div\n      0xff\n      and\n      dup1\n      swap3\n      swap2\n      swap1\n      tag_168\n      swap1\n      tag_169\n      jump\t// in\n    tag_168:\n      swap2\n      swap1\n      0x0100\n      exp\n      dup2\n      sload\n      dup2\n      0xff\n      mul\n      not\n      and\n      swap1\n      dup4\n      0xff\n      and\n      mul\n      or\n      swap1\n      sstore\n      pop\n        /* \"contracts/LooksRare/MultiRewardsDistributor.sol\":6638:6660  NewTree(numberTrees++) */\n      mload(0x40)\n      tag_170\n      swap2\n      swap1\n      tag_48\n      jump\t// in\n    tag_170:\n      mload(0x40)\n      dup1\n      swap2\n      sub\n      swap1\n      log1\n        /* \"contracts/LooksRare/MultiRewardsDistributor.sol\":6331:6668  function addNewTree(address safeGuard) external onlyOwner {... */\n      pop\n      jump\t// out\n        /* \"contracts/LooksRare/MultiRewardsDistributor.sol\":1448:1486  IERC20 public immutable looksRareToken */\n    tag_56:\n      immutable(\"0x981ba9c05125852eb71669638086986a3c68ccef93723e09757758413c01202a\")\n      dup2\n      jump\t// out\n        /* \"@openzeppelin/contracts/security/Pausable.sol\":1098:1182  function paused() public view virtual returns (bool) {... */\n    tag_60:\n        /* \"@openzeppelin/contracts/security/Pausable.sol\":1145:1149  bool */\n      0x00\n        /* \"@openzeppelin/contracts/security/Pausable.sol\":1168:1175  _paused */\n      dup1\n      0x00\n      swap1\n      sload\n      swap1\n      0x0100\n      exp\n      swap1\n      div\n      0xff\n      and\n        /* \"@openzeppelin/contracts/security/Pausable.sol\":1161:1175  return _paused */\n      swap1\n      pop\n        /* \"@openzeppelin/contracts/security/Pausable.sol\":1098:1182  function paused() public view virtual returns (bool) {... */\n      swap1\n      jump\t// out\n        /* \"@openzeppelin/contracts/access/Ownable.sol\":1668:1769  function renounceOwnership() public virtual onlyOwner {... */\n    tag_64:\n        /* \"@openzeppelin/contracts/access/Ownable.sol\":1259:1271  _msgSender() */\n      tag_173\n        /* \"@openzeppelin/contracts/access/Ownable.sol\":1259:1269  _msgSender */\n      tag_146\n        /* \"@openzeppelin/contracts/access/Ownable.sol\":1259:1271  _msgSender() */\n      jump\t// in\n    tag_173:\n        /* \"@openzeppelin/contracts/access/Ownable.sol\":1248:1271  owner() == _msgSender() */\n      0xffffffffffffffffffffffffffffffffffffffff\n      and\n        /* \"@openzeppelin/contracts/access/Ownable.sol\":1248:1255  owner() */\n      tag_174\n        /* \"@openzeppelin/contracts/access/Ownable.sol\":1248:1253  owner */\n      tag_76\n        /* \"@openzeppelin/contracts/access/Ownable.sol\":1248:1255  owner() */\n      jump\t// in\n    tag_174:\n        /* \"@openzeppelin/contracts/access/Ownable.sol\":1248:1271  owner() == _msgSender() */\n      0xffffffffffffffffffffffffffffffffffffffff\n      and\n      eq\n        /* \"@openzeppelin/contracts/access/Ownable.sol\":1240:1308  require(owner() == _msgSender(), \"Ownable: caller is not the owner\") */\n      tag_175\n      jumpi\n      mload(0x40)\n      0x08c379a000000000000000000000000000000000000000000000000000000000\n      dup2\n      mstore\n      0x04\n      add\n      tag_176\n      swap1\n      tag_150\n      jump\t// in\n    tag_176:\n      mload(0x40)\n      dup1\n      swap2\n      sub\n      swap1\n      revert\n    tag_175:\n        /* \"@openzeppelin/contracts/access/Ownable.sol\":1732:1762  _transferOwnership(address(0)) */\n      tag_178\n        /* \"@openzeppelin/contracts/access/Ownable.sol\":1759:1760  0 */\n      0x00\n        /* \"@openzeppelin/contracts/access/Ownable.sol\":1732:1750  _transferOwnership */\n      tag_179\n        /* \"@openzeppelin/contracts/access/Ownable.sol\":1732:1762  _transferOwnership(address(0)) */\n      jump\t// in\n    tag_178:\n        /* \"@openzeppelin/contracts/access/Ownable.sol\":1668:1769  function renounceOwnership() public virtual onlyOwner {... */\n      jump\t// out\n        /* \"contracts/LooksRare/MultiRewardsDistributor.sol\":1784:1837  mapping(uint8 => TreeParameter) public treeParameters */\n    tag_68:\n      mstore(0x20, 0x05)\n      dup1\n      0x00\n      mstore\n      keccak256(0x00, 0x40)\n      0x00\n      swap2\n      pop\n      swap1\n      pop\n      dup1\n      0x00\n      add\n      0x00\n      swap1\n      sload\n      swap1\n      0x0100\n      exp\n      swap1\n      div\n      0xffffffffffffffffffffffffffffffffffffffff\n      and\n      swap1\n      dup1\n      0x01\n      add\n      sload\n      swap1\n      dup1\n      0x02\n      add\n      sload\n      swap1\n      pop\n      dup4\n      jump\t// out\n        /* \"contracts/LooksRare/MultiRewardsDistributor.sol\":7255:7557  function withdrawTokenRewards(uint256 amount) external onlyOwner whenPaused {... */\n    tag_74:\n        /* \"@openzeppelin/contracts/access/Ownable.sol\":1259:1271  _msgSender() */\n      tag_181\n        /* \"@openzeppelin/contracts/access/Ownable.sol\":1259:1269  _msgSender */\n      tag_146\n        /* \"@openzeppelin/contracts/access/Ownable.sol\":1259:1271  _msgSender() */\n      jump\t// in\n    tag_181:\n        /* \"@openzeppelin/contracts/access/Ownable.sol\":1248:1271  owner() == _msgSender() */\n      0xffffffffffffffffffffffffffffffffffffffff\n      and\n        /* \"@openzeppelin/contracts/access/Ownable.sol\":1248:1255  owner() */\n      tag_182\n        /* \"@openzeppelin/contracts/access/Ownable.sol\":1248:1253  owner */\n      tag_76\n        /* \"@openzeppelin/contracts/access/Ownable.sol\":1248:1255  owner() */\n      jump\t// in\n    tag_182:\n        /* \"@openzeppelin/contracts/access/Ownable.sol\":1248:1271  owner() == _msgSender() */\n      0xffffffffffffffffffffffffffffffffffffffff\n      and\n      eq\n        /* \"@openzeppelin/contracts/access/Ownable.sol\":1240:1308  require(owner() == _msgSender(), \"Ownable: caller is not the owner\") */\n      tag_183\n      jumpi\n      mload(0x40)\n      0x08c379a000000000000000000000000000000000000000000000000000000000\n      dup2\n      mstore\n      0x04\n      add\n      tag_184\n      swap1\n      tag_150\n      jump\t// in\n    tag_184:\n      mload(0x40)\n      dup1\n      swap2\n      sub\n      swap1\n      revert\n    tag_183:\n        /* \"@openzeppelin/contracts/security/Pausable.sol\":1677:1685  paused() */\n      tag_186\n        /* \"@openzeppelin/contracts/security/Pausable.sol\":1677:1683  paused */\n      tag_60\n        /* \"@openzeppelin/contracts/security/Pausable.sol\":1677:1685  paused() */\n      jump\t// in\n    tag_186:\n        /* \"@openzeppelin/contracts/security/Pausable.sol\":1669:1710  require(paused(), \"Pausable: not paused\") */\n      tag_187\n      jumpi\n      mload(0x40)\n      0x08c379a000000000000000000000000000000000000000000000000000000000\n      dup2\n      mstore\n      0x04\n      add\n      tag_188\n      swap1\n      tag_189\n      jump\t// in\n    tag_188:\n      mload(0x40)\n      dup1\n      swap2\n      sub\n      swap1\n      revert\n    tag_187:\n        /* \"contracts/LooksRare/MultiRewardsDistributor.sol\":1300:1306  3 days */\n      0x03f480\n        /* \"contracts/LooksRare/MultiRewardsDistributor.sol\":7369:7388  lastPausedTimestamp */\n      sload(0x04)\n        /* \"contracts/LooksRare/MultiRewardsDistributor.sol\":7369:7412  lastPausedTimestamp + BUFFER_ADMIN_WITHDRAW */\n      tag_191\n      swap2\n      swap1\n      tag_192\n      jump\t// in\n    tag_191:\n        /* \"contracts/LooksRare/MultiRewardsDistributor.sol\":7350:7365  block.timestamp */\n      timestamp\n        /* \"contracts/LooksRare/MultiRewardsDistributor.sol\":7350:7413  block.timestamp > (lastPausedTimestamp + BUFFER_ADMIN_WITHDRAW) */\n      gt\n        /* \"contracts/LooksRare/MultiRewardsDistributor.sol\":7342:7446  require(block.timestamp > (lastPausedTimestamp + BUFFER_ADMIN_WITHDRAW), \"Owner: Too early to withdraw\") */\n      tag_193\n      jumpi\n      mload(0x40)\n      0x08c379a000000000000000000000000000000000000000000000000000000000\n      dup2\n      mstore\n      0x04\n      add\n      tag_194\n      swap1\n      tag_195\n      jump\t// in\n    tag_194:\n      mload(0x40)\n      dup1\n      swap2\n      sub\n      swap1\n      revert\n    tag_193:\n        /* \"contracts/LooksRare/MultiRewardsDistributor.sol\":7457:7504  looksRareToken.safeTransfer(msg.sender, amount) */\n      tag_196\n        /* \"contracts/LooksRare/MultiRewardsDistributor.sol\":7485:7495  msg.sender */\n      caller\n        /* \"contracts/LooksRare/MultiRewardsDistributor.sol\":7497:7503  amount */\n      dup3\n        /* \"contracts/LooksRare/MultiRewardsDistributor.sol\":7457:7471  looksRareToken */\n      immutable(\"0x981ba9c05125852eb71669638086986a3c68ccef93723e09757758413c01202a\")\n        /* \"contracts/LooksRare/MultiRewardsDistributor.sol\":7457:7484  looksRareToken.safeTransfer */\n      0xffffffffffffffffffffffffffffffffffffffff\n      and\n      tag_197\n      swap1\n        /* \"contracts/LooksRare/MultiRewardsDistributor.sol\":7457:7504  looksRareToken.safeTransfer(msg.sender, amount) */\n      swap3\n      swap2\n      swap1\n      0xffffffff\n      and\n      jump\t// in\n    tag_196:\n        /* \"contracts/LooksRare/MultiRewardsDistributor.sol\":7522:7549  TokenWithdrawnOwner(amount) */\n      0xb4cd5c4a08bbed33abfe773ece179d156730e39629e065b7dcd8263027387c1d\n        /* \"contracts/LooksRare/MultiRewardsDistributor.sol\":7542:7548  amount */\n      dup2\n        /* \"contracts/LooksRare/MultiRewardsDistributor.sol\":7522:7549  TokenWithdrawnOwner(amount) */\n      mload(0x40)\n      tag_198\n      swap2\n      swap1\n      tag_32\n      jump\t// in\n    tag_198:\n      mload(0x40)\n      dup1\n      swap2\n      sub\n      swap1\n      log1\n        /* \"contracts/LooksRare/MultiRewardsDistributor.sol\":7255:7557  function withdrawTokenRewards(uint256 amount) external onlyOwner whenPaused {... */\n      pop\n      jump\t// out\n        /* \"@openzeppelin/contracts/access/Ownable.sol\":1036:1121  function owner() public view virtual returns (address) {... */\n    tag_76:\n        /* \"@openzeppelin/contracts/access/Ownable.sol\":1082:1089  address */\n      0x00\n        /* \"@openzeppelin/contracts/access/Ownable.sol\":1108:1114  _owner */\n      0x02\n      0x00\n      swap1\n      sload\n      swap1\n      0x0100\n      exp\n      swap1\n      div\n      0xffffffffffffffffffffffffffffffffffffffff\n      and\n        /* \"@openzeppelin/contracts/access/Ownable.sol\":1101:1114  return _owner */\n      swap1\n      pop\n        /* \"@openzeppelin/contracts/access/Ownable.sol\":1036:1121  function owner() public view virtual returns (address) {... */\n      swap1\n      jump\t// out\n        /* \"contracts/LooksRare/MultiRewardsDistributor.sol\":2034:2079  mapping(address => bool) public safeGuardUsed */\n    tag_81:\n      mstore(0x20, 0x07)\n      dup1\n      0x00\n      mstore\n      keccak256(0x00, 0x40)\n      0x00\n      swap2\n      pop\n      sload\n      swap1\n      0x0100\n      exp\n      swap1\n      div\n      0xff\n      and\n      dup2\n      jump\t// out\n        /* \"contracts/LooksRare/MultiRewardsDistributor.sol\":6987:7077  function unpauseDistribution() external onlyOwner whenPaused {... */\n    tag_84:\n        /* \"@openzeppelin/contracts/access/Ownable.sol\":1259:1271  _msgSender() */\n      tag_201\n        /* \"@openzeppelin/contracts/access/Ownable.sol\":1259:1269  _msgSender */\n      tag_146\n        /* \"@openzeppelin/contracts/access/Ownable.sol\":1259:1271  _msgSender() */\n      jump\t// in\n    tag_201:\n        /* \"@openzeppelin/contracts/access/Ownable.sol\":1248:1271  owner() == _msgSender() */\n      0xffffffffffffffffffffffffffffffffffffffff\n      and\n        /* \"@openzeppelin/contracts/access/Ownable.sol\":1248:1255  owner() */\n      tag_202\n        /* \"@openzeppelin/contracts/access/Ownable.sol\":1248:1253  owner */\n      tag_76\n        /* \"@openzeppelin/contracts/access/Ownable.sol\":1248:1255  owner() */\n      jump\t// in\n    tag_202:\n        /* \"@openzeppelin/contracts/access/Ownable.sol\":1248:1271  owner() == _msgSender() */\n      0xffffffffffffffffffffffffffffffffffffffff\n      and\n      eq\n        /* \"@openzeppelin/contracts/access/Ownable.sol\":1240:1308  require(owner() == _msgSender(), \"Ownable: caller is not the owner\") */\n      tag_203\n      jumpi\n      mload(0x40)\n      0x08c379a000000000000000000000000000000000000000000000000000000000\n      dup2\n      mstore\n      0x04\n      add\n      tag_204\n      swap1\n      tag_150\n      jump\t// in\n    tag_204:\n      mload(0x40)\n      dup1\n      swap2\n      sub\n      swap1\n      revert\n    tag_203:\n        /* \"@openzeppelin/contracts/security/Pausable.sol\":1677:1685  paused() */\n      tag_206\n        /* \"@openzeppelin/contracts/security/Pausable.sol\":1677:1683  paused */\n      tag_60\n        /* \"@openzeppelin/contracts/security/Pausable.sol\":1677:1685  paused() */\n      jump\t// in\n    tag_206:\n        /* \"@openzeppelin/contracts/security/Pausable.sol\":1669:1710  require(paused(), \"Pausable: not paused\") */\n      tag_207\n      jumpi\n      mload(0x40)\n      0x08c379a000000000000000000000000000000000000000000000000000000000\n      dup2\n      mstore\n      0x04\n      add\n      tag_208\n      swap1\n      tag_189\n      jump\t// in\n    tag_208:\n      mload(0x40)\n      dup1\n      swap2\n      sub\n      swap1\n      revert\n    tag_207:\n        /* \"contracts/LooksRare/MultiRewardsDistributor.sol\":7059:7069  _unpause() */\n      tag_210\n        /* \"contracts/LooksRare/MultiRewardsDistributor.sol\":7059:7067  _unpause */\n      tag_211\n        /* \"contracts/LooksRare/MultiRewardsDistributor.sol\":7059:7069  _unpause() */\n      jump\t// in\n    tag_210:\n        /* \"contracts/LooksRare/MultiRewardsDistributor.sol\":6987:7077  function unpauseDistribution() external onlyOwner whenPaused {... */\n      jump\t// out\n        /* \"contracts/LooksRare/MultiRewardsDistributor.sol\":2134:2180  mapping(bytes32 => bool) public merkleRootUsed */\n    tag_88:\n      mstore(0x20, 0x08)\n      dup1\n      0x00\n      mstore\n      keccak256(0x00, 0x40)\n      0x00\n      swap2\n      pop\n      sload\n      swap1\n      0x0100\n      exp\n      swap1\n      div\n      0xff\n      and\n      dup2\n      jump\t// out\n        /* \"contracts/LooksRare/MultiRewardsDistributor.sol\":2893:4329  function claim(... */\n    tag_93:\n        /* \"@openzeppelin/contracts/security/Pausable.sol\":1412:1420  paused() */\n      tag_213\n        /* \"@openzeppelin/contracts/security/Pausable.sol\":1412:1418  paused */\n      tag_60\n        /* \"@openzeppelin/contracts/security/Pausable.sol\":1412:1420  paused() */\n      jump\t// in\n    tag_213:\n        /* \"@openzeppelin/contracts/security/Pausable.sol\":1411:1420  !paused() */\n      iszero\n        /* \"@openzeppelin/contracts/security/Pausable.sol\":1403:1441  require(!paused(), \"Pausable: paused\") */\n      tag_214\n      jumpi\n      mload(0x40)\n      0x08c379a000000000000000000000000000000000000000000000000000000000\n      dup2\n      mstore\n      0x04\n      add\n      tag_215\n      swap1\n      tag_155\n      jump\t// in\n    tag_215:\n      mload(0x40)\n      dup1\n      swap2\n      sub\n      swap1\n      revert\n    tag_214:\n        /* \"@openzeppelin/contracts/security/ReentrancyGuard.sol\":1744:1745  2 */\n      0x02\n        /* \"@openzeppelin/contracts/security/ReentrancyGuard.sol\":2325:2332  _status */\n      sload(0x01)\n        /* \"@openzeppelin/contracts/security/ReentrancyGuard.sol\":2325:2344  _status != _ENTERED */\n      eq\n      iszero\n        /* \"@openzeppelin/contracts/security/ReentrancyGuard.sol\":2317:2380  require(_status != _ENTERED, \"ReentrancyGuard: reentrant call\") */\n      tag_217\n      jumpi\n      mload(0x40)\n      0x08c379a000000000000000000000000000000000000000000000000000000000\n      dup2\n      mstore\n      0x04\n      add\n      tag_218\n      swap1\n      tag_219\n      jump\t// in\n    tag_218:\n      mload(0x40)\n      dup1\n      swap2\n      sub\n      swap1\n      revert\n    tag_217:\n        /* \"@openzeppelin/contracts/security/ReentrancyGuard.sol\":1744:1745  2 */\n      0x02\n        /* \"@openzeppelin/contracts/security/ReentrancyGuard.sol\":2455:2462  _status */\n      0x01\n        /* \"@openzeppelin/contracts/security/ReentrancyGuard.sol\":2455:2473  _status = _ENTERED */\n      dup2\n      swap1\n      sstore\n      pop\n        /* \"contracts/LooksRare/MultiRewardsDistributor.sol\":3117:3118  0 */\n      0x00\n        /* \"contracts/LooksRare/MultiRewardsDistributor.sol\":3100:3107  treeIds */\n      dup7\n      dup7\n        /* \"contracts/LooksRare/MultiRewardsDistributor.sol\":3100:3114  treeIds.length */\n      swap1\n      pop\n        /* \"contracts/LooksRare/MultiRewardsDistributor.sol\":3100:3118  treeIds.length > 0 */\n      gt\n        /* \"contracts/LooksRare/MultiRewardsDistributor.sol\":3100:3154  treeIds.length > 0 && treeIds.length == amounts.length */\n      dup1\n      iszero\n      tag_221\n      jumpi\n      pop\n        /* \"contracts/LooksRare/MultiRewardsDistributor.sol\":3140:3147  amounts */\n      dup4\n      dup4\n        /* \"contracts/LooksRare/MultiRewardsDistributor.sol\":3140:3154  amounts.length */\n      swap1\n      pop\n        /* \"contracts/LooksRare/MultiRewardsDistributor.sol\":3122:3129  treeIds */\n      dup7\n      dup7\n        /* \"contracts/LooksRare/MultiRewardsDistributor.sol\":3122:3136  treeIds.length */\n      swap1\n      pop\n        /* \"contracts/LooksRare/MultiRewardsDistributor.sol\":3122:3154  treeIds.length == amounts.length */\n      eq\n        /* \"contracts/LooksRare/MultiRewardsDistributor.sol\":3100:3154  treeIds.length > 0 && treeIds.length == amounts.length */\n    tag_221:\n        /* \"contracts/LooksRare/MultiRewardsDistributor.sol\":3100:3195  treeIds.length > 0 && treeIds.length == amounts.length && merkleProofs.length == treeIds.length */\n      dup1\n      iszero\n      tag_222\n      jumpi\n      pop\n        /* \"contracts/LooksRare/MultiRewardsDistributor.sol\":3181:3188  treeIds */\n      dup6\n      dup6\n        /* \"contracts/LooksRare/MultiRewardsDistributor.sol\":3181:3195  treeIds.length */\n      swap1\n      pop\n        /* \"contracts/LooksRare/MultiRewardsDistributor.sol\":3158:3170  merkleProofs */\n      dup3\n      dup3\n        /* \"contracts/LooksRare/MultiRewardsDistributor.sol\":3158:3177  merkleProofs.length */\n      swap1\n      pop\n        /* \"contracts/LooksRare/MultiRewardsDistributor.sol\":3158:3195  merkleProofs.length == treeIds.length */\n      eq\n        /* \"contracts/LooksRare/MultiRewardsDistributor.sol\":3100:3195  treeIds.length > 0 && treeIds.length == amounts.length && merkleProofs.length == treeIds.length */\n    tag_222:\n        /* \"contracts/LooksRare/MultiRewardsDistributor.sol\":3078:3245  require(... */\n      tag_223\n      jumpi\n      mload(0x40)\n      0x08c379a000000000000000000000000000000000000000000000000000000000\n      dup2\n      mstore\n      0x04\n      add\n      tag_224\n      swap1\n      tag_225\n      jump\t// in\n    tag_224:\n      mload(0x40)\n      dup1\n      swap2\n      sub\n      swap1\n      revert\n    tag_223:\n        /* \"contracts/LooksRare/MultiRewardsDistributor.sol\":3258:3282  uint256 amountToTransfer */\n      0x00\n        /* \"contracts/LooksRare/MultiRewardsDistributor.sol\":3293:3325  uint256[] memory adjustedAmounts */\n      dup1\n        /* \"contracts/LooksRare/MultiRewardsDistributor.sol\":3342:3349  amounts */\n      dup6\n      dup6\n        /* \"contracts/LooksRare/MultiRewardsDistributor.sol\":3342:3356  amounts.length */\n      swap1\n      pop\n        /* \"contracts/LooksRare/MultiRewardsDistributor.sol\":3328:3357  new uint256[](amounts.length) */\n      0xffffffffffffffff\n      dup2\n      gt\n      iszero\n      tag_226\n      jumpi\n      tag_227\n      tag_110\n      jump\t// in\n    tag_227:\n    tag_226:\n      mload(0x40)\n      swap1\n      dup1\n      dup3\n      mstore\n      dup1\n      0x20\n      mul\n      0x20\n      add\n      dup3\n      add\n      0x40\n      mstore\n      dup1\n      iszero\n      tag_228\n      jumpi\n      dup2\n      0x20\n      add\n      0x20\n      dup3\n      mul\n      dup1\n      calldatasize\n      dup4\n      calldatacopy\n      dup1\n      dup3\n      add\n      swap2\n      pop\n      pop\n      swap1\n      pop\n    tag_228:\n      pop\n        /* \"contracts/LooksRare/MultiRewardsDistributor.sol\":3293:3357  uint256[] memory adjustedAmounts = new uint256[](amounts.length) */\n      swap1\n      pop\n        /* \"contracts/LooksRare/MultiRewardsDistributor.sol\":3375:3384  uint256 i */\n      0x00\n        /* \"contracts/LooksRare/MultiRewardsDistributor.sol\":3370:4119  for (uint256 i = 0; i < treeIds.length; i++) {... */\n    tag_229:\n        /* \"contracts/LooksRare/MultiRewardsDistributor.sol\":3394:3401  treeIds */\n      dup9\n      dup9\n        /* \"contracts/LooksRare/MultiRewardsDistributor.sol\":3394:3408  treeIds.length */\n      swap1\n      pop\n        /* \"contracts/LooksRare/MultiRewardsDistributor.sol\":3390:3391  i */\n      dup2\n        /* \"contracts/LooksRare/MultiRewardsDistributor.sol\":3390:3408  i < treeIds.length */\n      lt\n        /* \"contracts/LooksRare/MultiRewardsDistributor.sol\":3370:4119  for (uint256 i = 0; i < treeIds.length; i++) {... */\n      iszero\n      tag_230\n      jumpi\n        /* \"contracts/LooksRare/MultiRewardsDistributor.sol\":3451:3462  numberTrees */\n      0x02\n      0x14\n      swap1\n      sload\n      swap1\n      0x0100\n      exp\n      swap1\n      div\n      0xff\n      and\n        /* \"contracts/LooksRare/MultiRewardsDistributor.sol\":3438:3462  treeIds[i] < numberTrees */\n      0xff\n      and\n        /* \"contracts/LooksRare/MultiRewardsDistributor.sol\":3438:3445  treeIds */\n      dup10\n      dup10\n        /* \"contracts/LooksRare/MultiRewardsDistributor.sol\":3446:3447  i */\n      dup4\n        /* \"contracts/LooksRare/MultiRewardsDistributor.sol\":3438:3448  treeIds[i] */\n      dup2\n      dup2\n      lt\n      tag_232\n      jumpi\n      tag_233\n      tag_124\n      jump\t// in\n    tag_233:\n    tag_232:\n      swap1\n      pop\n      0x20\n      mul\n      add\n      0x20\n      dup2\n      add\n      swap1\n      tag_234\n      swap2\n      swap1\n      tag_67\n      jump\t// in\n    tag_234:\n        /* \"contracts/LooksRare/MultiRewardsDistributor.sol\":3438:3462  treeIds[i] < numberTrees */\n      0xff\n      and\n      lt\n        /* \"contracts/LooksRare/MultiRewardsDistributor.sol\":3430:3492  require(treeIds[i] < numberTrees, \"Rewards: Tree nonexistent\") */\n      tag_235\n      jumpi\n      mload(0x40)\n      0x08c379a000000000000000000000000000000000000000000000000000000000\n      dup2\n      mstore\n      0x04\n      add\n      tag_236\n      swap1\n      tag_237\n      jump\t// in\n    tag_236:\n      mload(0x40)\n      dup1\n      swap2\n      sub\n      swap1\n      revert\n    tag_235:\n        /* \"contracts/LooksRare/MultiRewardsDistributor.sol\":3508:3524  bool claimStatus */\n      0x00\n        /* \"contracts/LooksRare/MultiRewardsDistributor.sol\":3526:3548  uint256 adjustedAmount */\n      dup1\n        /* \"contracts/LooksRare/MultiRewardsDistributor.sol\":3552:3614  _canClaim(msg.sender, treeIds[i], amounts[i], merkleProofs[i]) */\n      tag_238\n        /* \"contracts/LooksRare/MultiRewardsDistributor.sol\":3562:3572  msg.sender */\n      caller\n        /* \"contracts/LooksRare/MultiRewardsDistributor.sol\":3574:3581  treeIds */\n      dup13\n      dup13\n        /* \"contracts/LooksRare/MultiRewardsDistributor.sol\":3582:3583  i */\n      dup7\n        /* \"contracts/LooksRare/MultiRewardsDistributor.sol\":3574:3584  treeIds[i] */\n      dup2\n      dup2\n      lt\n      tag_239\n      jumpi\n      tag_240\n      tag_124\n      jump\t// in\n    tag_240:\n    tag_239:\n      swap1\n      pop\n      0x20\n      mul\n      add\n      0x20\n      dup2\n      add\n      swap1\n      tag_241\n      swap2\n      swap1\n      tag_67\n      jump\t// in\n    tag_241:\n        /* \"contracts/LooksRare/MultiRewardsDistributor.sol\":3586:3593  amounts */\n      dup12\n      dup12\n        /* \"contracts/LooksRare/MultiRewardsDistributor.sol\":3594:3595  i */\n      dup8\n        /* \"contracts/LooksRare/MultiRewardsDistributor.sol\":3586:3596  amounts[i] */\n      dup2\n      dup2\n      lt\n      tag_242\n      jumpi\n      tag_243\n      tag_124\n      jump\t// in\n    tag_243:\n    tag_242:\n      swap1\n      pop\n      0x20\n      mul\n      add\n      calldataload\n        /* \"contracts/LooksRare/MultiRewardsDistributor.sol\":3598:3610  merkleProofs */\n      dup11\n      dup11\n        /* \"contracts/LooksRare/MultiRewardsDistributor.sol\":3611:3612  i */\n      dup9\n        /* \"contracts/LooksRare/MultiRewardsDistributor.sol\":3598:3613  merkleProofs[i] */\n      dup2\n      dup2\n      lt\n      tag_244\n      jumpi\n      tag_245\n      tag_124\n      jump\t// in\n    tag_245:\n    tag_244:\n      swap1\n      pop\n      0x20\n      mul\n      dup2\n      add\n      swap1\n      tag_246\n      swap2\n      swap1\n      tag_136\n      jump\t// in\n    tag_246:\n        /* \"contracts/LooksRare/MultiRewardsDistributor.sol\":3552:3561  _canClaim */\n      tag_137\n        /* \"contracts/LooksRare/MultiRewardsDistributor.sol\":3552:3614  _canClaim(msg.sender, treeIds[i], amounts[i], merkleProofs[i]) */\n      jump\t// in\n    tag_238:\n        /* \"contracts/LooksRare/MultiRewardsDistributor.sol\":3507:3614  (bool claimStatus, uint256 adjustedAmount) = _canClaim(msg.sender, treeIds[i], amounts[i], merkleProofs[i]) */\n      swap2\n      pop\n      swap2\n      pop\n        /* \"contracts/LooksRare/MultiRewardsDistributor.sol\":3637:3648  claimStatus */\n      dup2\n        /* \"contracts/LooksRare/MultiRewardsDistributor.sol\":3629:3675  require(claimStatus, \"Rewards: Invalid proof\") */\n      tag_247\n      jumpi\n      mload(0x40)\n      0x08c379a000000000000000000000000000000000000000000000000000000000\n      dup2\n      mstore\n      0x04\n      add\n      tag_248\n      swap1\n      tag_249\n      jump\t// in\n    tag_248:\n      mload(0x40)\n      dup1\n      swap2\n      sub\n      swap1\n      revert\n    tag_247:\n        /* \"contracts/LooksRare/MultiRewardsDistributor.sol\":3715:3716  0 */\n      0x00\n        /* \"contracts/LooksRare/MultiRewardsDistributor.sol\":3698:3712  adjustedAmount */\n      dup2\n        /* \"contracts/LooksRare/MultiRewardsDistributor.sol\":3698:3716  adjustedAmount > 0 */\n      gt\n        /* \"contracts/LooksRare/MultiRewardsDistributor.sol\":3690:3745  require(adjustedAmount > 0, \"Rewards: Already claimed\") */\n      tag_250\n      jumpi\n      mload(0x40)\n      0x08c379a000000000000000000000000000000000000000000000000000000000\n      dup2\n      mstore\n      0x04\n      add\n      tag_251\n      swap1\n      tag_252\n      jump\t// in\n    tag_251:\n      mload(0x40)\n      dup1\n      swap2\n      sub\n      swap1\n      revert\n    tag_250:\n        /* \"contracts/LooksRare/MultiRewardsDistributor.sol\":3800:3814  treeParameters */\n      0x05\n        /* \"contracts/LooksRare/MultiRewardsDistributor.sol\":3800:3826  treeParameters[treeIds[i]] */\n      0x00\n        /* \"contracts/LooksRare/MultiRewardsDistributor.sol\":3815:3822  treeIds */\n      dup13\n      dup13\n        /* \"contracts/LooksRare/MultiRewardsDistributor.sol\":3823:3824  i */\n      dup7\n        /* \"contracts/LooksRare/MultiRewardsDistributor.sol\":3815:3825  treeIds[i] */\n      dup2\n      dup2\n      lt\n      tag_253\n      jumpi\n      tag_254\n      tag_124\n      jump\t// in\n    tag_254:\n    tag_253:\n      swap1\n      pop\n      0x20\n      mul\n      add\n      0x20\n      dup2\n      add\n      swap1\n      tag_255\n      swap2\n      swap1\n      tag_67\n      jump\t// in\n    tag_255:\n        /* \"contracts/LooksRare/MultiRewardsDistributor.sol\":3800:3826  treeParameters[treeIds[i]] */\n      0xff\n      and\n      0xff\n      and\n      dup2\n      mstore\n      0x20\n      add\n      swap1\n      dup2\n      mstore\n      0x20\n      add\n      0x00\n      keccak256\n        /* \"contracts/LooksRare/MultiRewardsDistributor.sol\":3800:3856  treeParameters[treeIds[i]].maxAmountPerUserInCurrentTree */\n      0x02\n      add\n      sload\n        /* \"contracts/LooksRare/MultiRewardsDistributor.sol\":3786:3793  amounts */\n      dup10\n      dup10\n        /* \"contracts/LooksRare/MultiRewardsDistributor.sol\":3794:3795  i */\n      dup6\n        /* \"contracts/LooksRare/MultiRewardsDistributor.sol\":3786:3796  amounts[i] */\n      dup2\n      dup2\n      lt\n      tag_256\n      jumpi\n      tag_257\n      tag_124\n      jump\t// in\n    tag_257:\n    tag_256:\n      swap1\n      pop\n      0x20\n      mul\n      add\n      calldataload\n        /* \"contracts/LooksRare/MultiRewardsDistributor.sol\":3786:3856  amounts[i] <= treeParameters[treeIds[i]].maxAmountPerUserInCurrentTree */\n      gt\n      iszero\n        /* \"contracts/LooksRare/MultiRewardsDistributor.sol\":3760:3923  require(... */\n      tag_258\n      jumpi\n      mload(0x40)\n      0x08c379a000000000000000000000000000000000000000000000000000000000\n      dup2\n      mstore\n      0x04\n      add\n      tag_259\n      swap1\n      tag_260\n      jump\t// in\n    tag_259:\n      mload(0x40)\n      dup1\n      swap2\n      sub\n      swap1\n      revert\n    tag_258:\n        /* \"contracts/LooksRare/MultiRewardsDistributor.sol\":3958:3972  adjustedAmount */\n      dup1\n        /* \"contracts/LooksRare/MultiRewardsDistributor.sol\":3938:3972  amountToTransfer += adjustedAmount */\n      dup6\n      tag_261\n      swap2\n      swap1\n      tag_192\n      jump\t// in\n    tag_261:\n      swap5\n      pop\n        /* \"contracts/LooksRare/MultiRewardsDistributor.sol\":4043:4057  adjustedAmount */\n      dup1\n        /* \"contracts/LooksRare/MultiRewardsDistributor.sol\":3987:4015  amountClaimedByUserPerTreeId */\n      0x06\n        /* \"contracts/LooksRare/MultiRewardsDistributor.sol\":3987:4027  amountClaimedByUserPerTreeId[msg.sender] */\n      0x00\n        /* \"contracts/LooksRare/MultiRewardsDistributor.sol\":4016:4026  msg.sender */\n      caller\n        /* \"contracts/LooksRare/MultiRewardsDistributor.sol\":3987:4027  amountClaimedByUserPerTreeId[msg.sender] */\n      0xffffffffffffffffffffffffffffffffffffffff\n      and\n      0xffffffffffffffffffffffffffffffffffffffff\n      and\n      dup2\n      mstore\n      0x20\n      add\n      swap1\n      dup2\n      mstore\n      0x20\n      add\n      0x00\n      keccak256\n        /* \"contracts/LooksRare/MultiRewardsDistributor.sol\":3987:4039  amountClaimedByUserPerTreeId[msg.sender][treeIds[i]] */\n      0x00\n        /* \"contracts/LooksRare/MultiRewardsDistributor.sol\":4028:4035  treeIds */\n      dup14\n      dup14\n        /* \"contracts/LooksRare/MultiRewardsDistributor.sol\":4036:4037  i */\n      dup8\n        /* \"contracts/LooksRare/MultiRewardsDistributor.sol\":4028:4038  treeIds[i] */\n      dup2\n      dup2\n      lt\n      tag_262\n      jumpi\n      tag_263\n      tag_124\n      jump\t// in\n    tag_263:\n    tag_262:\n      swap1\n      pop\n      0x20\n      mul\n      add\n      0x20\n      dup2\n      add\n      swap1\n      tag_264\n      swap2\n      swap1\n      tag_67\n      jump\t// in\n    tag_264:\n        /* \"contracts/LooksRare/MultiRewardsDistributor.sol\":3987:4039  amountClaimedByUserPerTreeId[msg.sender][treeIds[i]] */\n      0xff\n      and\n      0xff\n      and\n      dup2\n      mstore\n      0x20\n      add\n      swap1\n      dup2\n      mstore\n      0x20\n      add\n      0x00\n      keccak256\n      0x00\n        /* \"contracts/LooksRare/MultiRewardsDistributor.sol\":3987:4057  amountClaimedByUserPerTreeId[msg.sender][treeIds[i]] += adjustedAmount */\n      dup3\n      dup3\n      sload\n      tag_265\n      swap2\n      swap1\n      tag_192\n      jump\t// in\n    tag_265:\n      swap3\n      pop\n      pop\n      dup2\n      swap1\n      sstore\n      pop\n        /* \"contracts/LooksRare/MultiRewardsDistributor.sol\":4093:4107  adjustedAmount */\n      dup1\n        /* \"contracts/LooksRare/MultiRewardsDistributor.sol\":4072:4087  adjustedAmounts */\n      dup5\n        /* \"contracts/LooksRare/MultiRewardsDistributor.sol\":4088:4089  i */\n      dup5\n        /* \"contracts/LooksRare/MultiRewardsDistributor.sol\":4072:4090  adjustedAmounts[i] */\n      dup2\n      mload\n      dup2\n      lt\n      tag_266\n      jumpi\n      tag_267\n      tag_124\n      jump\t// in\n    tag_267:\n    tag_266:\n      0x20\n      mul\n      0x20\n      add\n      add\n        /* \"contracts/LooksRare/MultiRewardsDistributor.sol\":4072:4107  adjustedAmounts[i] = adjustedAmount */\n      dup2\n      dup2\n      mstore\n      pop\n      pop\n        /* \"contracts/LooksRare/MultiRewardsDistributor.sol\":3415:4119  {... */\n      pop\n      pop\n        /* \"contracts/LooksRare/MultiRewardsDistributor.sol\":3410:3413  i++ */\n      dup1\n      dup1\n      tag_268\n      swap1\n      tag_143\n      jump\t// in\n    tag_268:\n      swap2\n      pop\n      pop\n        /* \"contracts/LooksRare/MultiRewardsDistributor.sol\":3370:4119  for (uint256 i = 0; i < treeIds.length; i++) {... */\n      jump(tag_229)\n    tag_230:\n      pop\n        /* \"contracts/LooksRare/MultiRewardsDistributor.sol\":4165:4222  looksRareToken.safeTransfer(msg.sender, amountToTransfer) */\n      tag_269\n        /* \"contracts/LooksRare/MultiRewardsDistributor.sol\":4193:4203  msg.sender */\n      caller\n        /* \"contracts/LooksRare/MultiRewardsDistributor.sol\":4205:4221  amountToTransfer */\n      dup4\n        /* \"contracts/LooksRare/MultiRewardsDistributor.sol\":4165:4179  looksRareToken */\n      immutable(\"0x981ba9c05125852eb71669638086986a3c68ccef93723e09757758413c01202a\")\n        /* \"contracts/LooksRare/MultiRewardsDistributor.sol\":4165:4192  looksRareToken.safeTransfer */\n      0xffffffffffffffffffffffffffffffffffffffff\n      and\n      tag_197\n      swap1\n        /* \"contracts/LooksRare/MultiRewardsDistributor.sol\":4165:4222  looksRareToken.safeTransfer(msg.sender, amountToTransfer) */\n      swap3\n      swap2\n      swap1\n      0xffffffff\n      and\n      jump\t// in\n    tag_269:\n        /* \"contracts/LooksRare/MultiRewardsDistributor.sol\":4240:4321  Claim(msg.sender, currentRewardRound, amountToTransfer, treeIds, adjustedAmounts) */\n      0x1bb61a7c0e8fe6922242f2a1fb97851dd40ebfa837ab768260708c3cbc1f8601\n        /* \"contracts/LooksRare/MultiRewardsDistributor.sol\":4246:4256  msg.sender */\n      caller\n        /* \"contracts/LooksRare/MultiRewardsDistributor.sol\":4258:4276  currentRewardRound */\n      sload(0x03)\n        /* \"contracts/LooksRare/MultiRewardsDistributor.sol\":4278:4294  amountToTransfer */\n      dup5\n        /* \"contracts/LooksRare/MultiRewardsDistributor.sol\":4296:4303  treeIds */\n      dup12\n      dup12\n        /* \"contracts/LooksRare/MultiRewardsDistributor.sol\":4305:4320  adjustedAmounts */\n      dup7\n        /* \"contracts/LooksRare/MultiRewardsDistributor.sol\":4240:4321  Claim(msg.sender, currentRewardRound, amountToTransfer, treeIds, adjustedAmounts) */\n      mload(0x40)\n      tag_270\n      swap7\n      swap6\n      swap5\n      swap4\n      swap3\n      swap2\n      swap1\n      tag_271\n      jump\t// in\n    tag_270:\n      mload(0x40)\n      dup1\n      swap2\n      sub\n      swap1\n      log1\n        /* \"contracts/LooksRare/MultiRewardsDistributor.sol\":3067:4329  {... */\n      pop\n      pop\n        /* \"@openzeppelin/contracts/security/ReentrancyGuard.sol\":1701:1702  1 */\n      0x01\n        /* \"@openzeppelin/contracts/security/ReentrancyGuard.sol\":2628:2635  _status */\n      dup1\n        /* \"@openzeppelin/contracts/security/ReentrancyGuard.sol\":2628:2650  _status = _NOT_ENTERED */\n      dup2\n      swap1\n      sstore\n      pop\n        /* \"contracts/LooksRare/MultiRewardsDistributor.sol\":2893:4329  function claim(... */\n      pop\n      pop\n      pop\n      pop\n      pop\n      pop\n      jump\t// out\n        /* \"contracts/LooksRare/MultiRewardsDistributor.sol\":1367:1415  uint256 public constant SAFE_GUARD_AMOUNT = 1e18 */\n    tag_95:\n        /* \"contracts/LooksRare/MultiRewardsDistributor.sol\":1411:1415  1e18 */\n      0x0de0b6b3a7640000\n        /* \"contracts/LooksRare/MultiRewardsDistributor.sol\":1367:1415  uint256 public constant SAFE_GUARD_AMOUNT = 1e18 */\n      dup2\n      jump\t// out\n        /* \"contracts/LooksRare/MultiRewardsDistributor.sol\":4762:6160  function updateTradingRewards(... */\n    tag_100:\n        /* \"@openzeppelin/contracts/access/Ownable.sol\":1259:1271  _msgSender() */\n      tag_273\n        /* \"@openzeppelin/contracts/access/Ownable.sol\":1259:1269  _msgSender */\n      tag_146\n        /* \"@openzeppelin/contracts/access/Ownable.sol\":1259:1271  _msgSender() */\n      jump\t// in\n    tag_273:\n        /* \"@openzeppelin/contracts/access/Ownable.sol\":1248:1271  owner() == _msgSender() */\n      0xffffffffffffffffffffffffffffffffffffffff\n      and\n        /* \"@openzeppelin/contracts/access/Ownable.sol\":1248:1255  owner() */\n      tag_274\n        /* \"@openzeppelin/contracts/access/Ownable.sol\":1248:1253  owner */\n      tag_76\n        /* \"@openzeppelin/contracts/access/Ownable.sol\":1248:1255  owner() */\n      jump\t// in\n    tag_274:\n        /* \"@openzeppelin/contracts/access/Ownable.sol\":1248:1271  owner() == _msgSender() */\n      0xffffffffffffffffffffffffffffffffffffffff\n      and\n      eq\n        /* \"@openzeppelin/contracts/access/Ownable.sol\":1240:1308  require(owner() == _msgSender(), \"Ownable: caller is not the owner\") */\n      tag_275\n      jumpi\n      mload(0x40)\n      0x08c379a000000000000000000000000000000000000000000000000000000000\n      dup2\n      mstore\n      0x04\n      add\n      tag_276\n      swap1\n      tag_150\n      jump\t// in\n    tag_276:\n      mload(0x40)\n      dup1\n      swap2\n      sub\n      swap1\n      revert\n    tag_275:\n        /* \"contracts/LooksRare/MultiRewardsDistributor.sol\":5045:5046  0 */\n      0x00\n        /* \"contracts/LooksRare/MultiRewardsDistributor.sol\":5028:5035  treeIds */\n      dup9\n      dup9\n        /* \"contracts/LooksRare/MultiRewardsDistributor.sol\":5028:5042  treeIds.length */\n      swap1\n      pop\n        /* \"contracts/LooksRare/MultiRewardsDistributor.sol\":5028:5046  treeIds.length > 0 */\n      gt\n        /* \"contracts/LooksRare/MultiRewardsDistributor.sol\":5028:5103  treeIds.length > 0 &&... */\n      dup1\n      iszero\n      tag_278\n      jumpi\n      pop\n        /* \"contracts/LooksRare/MultiRewardsDistributor.sol\":5085:5096  merkleRoots */\n      dup6\n      dup6\n        /* \"contracts/LooksRare/MultiRewardsDistributor.sol\":5085:5103  merkleRoots.length */\n      swap1\n      pop\n        /* \"contracts/LooksRare/MultiRewardsDistributor.sol\":5067:5074  treeIds */\n      dup9\n      dup9\n        /* \"contracts/LooksRare/MultiRewardsDistributor.sol\":5067:5081  treeIds.length */\n      swap1\n      pop\n        /* \"contracts/LooksRare/MultiRewardsDistributor.sol\":5067:5103  treeIds.length == merkleRoots.length */\n      eq\n        /* \"contracts/LooksRare/MultiRewardsDistributor.sol\":5028:5103  treeIds.length > 0 &&... */\n    tag_278:\n        /* \"contracts/LooksRare/MultiRewardsDistributor.sol\":5028:5166  treeIds.length > 0 &&... */\n      dup1\n      iszero\n      tag_279\n      jumpi\n      pop\n        /* \"contracts/LooksRare/MultiRewardsDistributor.sol\":5142:5159  maxAmountsPerUser */\n      dup4\n      dup4\n        /* \"contracts/LooksRare/MultiRewardsDistributor.sol\":5142:5166  maxAmountsPerUser.length */\n      swap1\n      pop\n        /* \"contracts/LooksRare/MultiRewardsDistributor.sol\":5124:5131  treeIds */\n      dup9\n      dup9\n        /* \"contracts/LooksRare/MultiRewardsDistributor.sol\":5124:5138  treeIds.length */\n      swap1\n      pop\n        /* \"contracts/LooksRare/MultiRewardsDistributor.sol\":5124:5166  treeIds.length == maxAmountsPerUser.length */\n      eq\n        /* \"contracts/LooksRare/MultiRewardsDistributor.sol\":5028:5166  treeIds.length > 0 &&... */\n    tag_279:\n        /* \"contracts/LooksRare/MultiRewardsDistributor.sol\":5028:5234  treeIds.length > 0 &&... */\n      dup1\n      iszero\n      tag_280\n      jumpi\n      pop\n        /* \"contracts/LooksRare/MultiRewardsDistributor.sol\":5205:5227  merkleProofsSafeGuards */\n      dup2\n      dup2\n        /* \"contracts/LooksRare/MultiRewardsDistributor.sol\":5205:5234  merkleProofsSafeGuards.length */\n      swap1\n      pop\n        /* \"contracts/LooksRare/MultiRewardsDistributor.sol\":5187:5194  treeIds */\n      dup9\n      dup9\n        /* \"contracts/LooksRare/MultiRewardsDistributor.sol\":5187:5201  treeIds.length */\n      swap1\n      pop\n        /* \"contracts/LooksRare/MultiRewardsDistributor.sol\":5187:5234  treeIds.length == merkleProofsSafeGuards.length */\n      eq\n        /* \"contracts/LooksRare/MultiRewardsDistributor.sol\":5028:5234  treeIds.length > 0 &&... */\n    tag_280:\n        /* \"contracts/LooksRare/MultiRewardsDistributor.sol\":5006:5282  require(... */\n      tag_281\n      jumpi\n      mload(0x40)\n      0x08c379a000000000000000000000000000000000000000000000000000000000\n      dup2\n      mstore\n      0x04\n      add\n      tag_282\n      swap1\n      tag_283\n      jump\t// in\n    tag_282:\n      mload(0x40)\n      dup1\n      swap2\n      sub\n      swap1\n      revert\n    tag_281:\n        /* \"contracts/LooksRare/MultiRewardsDistributor.sol\":5300:5309  uint256 i */\n      0x00\n        /* \"contracts/LooksRare/MultiRewardsDistributor.sol\":5295:6043  for (uint256 i = 0; i < merkleRoots.length; i++) {... */\n    tag_284:\n        /* \"contracts/LooksRare/MultiRewardsDistributor.sol\":5319:5330  merkleRoots */\n      dup7\n      dup7\n        /* \"contracts/LooksRare/MultiRewardsDistributor.sol\":5319:5337  merkleRoots.length */\n      swap1\n      pop\n        /* \"contracts/LooksRare/MultiRewardsDistributor.sol\":5315:5316  i */\n      dup2\n        /* \"contracts/LooksRare/MultiRewardsDistributor.sol\":5315:5337  i < merkleRoots.length */\n      lt\n        /* \"contracts/LooksRare/MultiRewardsDistributor.sol\":5295:6043  for (uint256 i = 0; i < merkleRoots.length; i++) {... */\n      iszero\n      tag_285\n      jumpi\n        /* \"contracts/LooksRare/MultiRewardsDistributor.sol\":5380:5391  numberTrees */\n      0x02\n      0x14\n      swap1\n      sload\n      swap1\n      0x0100\n      exp\n      swap1\n      div\n      0xff\n      and\n        /* \"contracts/LooksRare/MultiRewardsDistributor.sol\":5367:5391  treeIds[i] < numberTrees */\n      0xff\n      and\n        /* \"contracts/LooksRare/MultiRewardsDistributor.sol\":5367:5374  treeIds */\n      dup10\n      dup10\n        /* \"contracts/LooksRare/MultiRewardsDistributor.sol\":5375:5376  i */\n      dup4\n        /* \"contracts/LooksRare/MultiRewardsDistributor.sol\":5367:5377  treeIds[i] */\n      dup2\n      dup2\n      lt\n      tag_287\n      jumpi\n      tag_288\n      tag_124\n      jump\t// in\n    tag_288:\n    tag_287:\n      swap1\n      pop\n      0x20\n      mul\n      add\n      0x20\n      dup2\n      add\n      swap1\n      tag_289\n      swap2\n      swap1\n      tag_67\n      jump\t// in\n    tag_289:\n        /* \"contracts/LooksRare/MultiRewardsDistributor.sol\":5367:5391  treeIds[i] < numberTrees */\n      0xff\n      and\n      lt\n        /* \"contracts/LooksRare/MultiRewardsDistributor.sol\":5359:5419  require(treeIds[i] < numberTrees, \"Owner: Tree nonexistent\") */\n      tag_290\n      jumpi\n      mload(0x40)\n      0x08c379a000000000000000000000000000000000000000000000000000000000\n      dup2\n      mstore\n      0x04\n      add\n      tag_291\n      swap1\n      tag_292\n      jump\t// in\n    tag_291:\n      mload(0x40)\n      dup1\n      swap2\n      sub\n      swap1\n      revert\n    tag_290:\n        /* \"contracts/LooksRare/MultiRewardsDistributor.sol\":5443:5457  merkleRootUsed */\n      0x08\n        /* \"contracts/LooksRare/MultiRewardsDistributor.sol\":5443:5473  merkleRootUsed[merkleRoots[i]] */\n      0x00\n        /* \"contracts/LooksRare/MultiRewardsDistributor.sol\":5458:5469  merkleRoots */\n      dup9\n      dup9\n        /* \"contracts/LooksRare/MultiRewardsDistributor.sol\":5470:5471  i */\n      dup5\n        /* \"contracts/LooksRare/MultiRewardsDistributor.sol\":5458:5472  merkleRoots[i] */\n      dup2\n      dup2\n      lt\n      tag_293\n      jumpi\n      tag_294\n      tag_124\n      jump\t// in\n    tag_294:\n    tag_293:\n      swap1\n      pop\n      0x20\n      mul\n      add\n      calldataload\n        /* \"contracts/LooksRare/MultiRewardsDistributor.sol\":5443:5473  merkleRootUsed[merkleRoots[i]] */\n      dup2\n      mstore\n      0x20\n      add\n      swap1\n      dup2\n      mstore\n      0x20\n      add\n      0x00\n      keccak256\n      0x00\n      swap1\n      sload\n      swap1\n      0x0100\n      exp\n      swap1\n      div\n      0xff\n      and\n        /* \"contracts/LooksRare/MultiRewardsDistributor.sol\":5442:5473  !merkleRootUsed[merkleRoots[i]] */\n      iszero\n        /* \"contracts/LooksRare/MultiRewardsDistributor.sol\":5434:5509  require(!merkleRootUsed[merkleRoots[i]], \"Owner: Merkle root already used\") */\n      tag_295\n      jumpi\n      mload(0x40)\n      0x08c379a000000000000000000000000000000000000000000000000000000000\n      dup2\n      mstore\n      0x04\n      add\n      tag_296\n      swap1\n      tag_297\n      jump\t// in\n    tag_296:\n      mload(0x40)\n      dup1\n      swap2\n      sub\n      swap1\n      revert\n    tag_295:\n        /* \"contracts/LooksRare/MultiRewardsDistributor.sol\":5564:5575  merkleRoots */\n      dup7\n      dup7\n        /* \"contracts/LooksRare/MultiRewardsDistributor.sol\":5576:5577  i */\n      dup3\n        /* \"contracts/LooksRare/MultiRewardsDistributor.sol\":5564:5578  merkleRoots[i] */\n      dup2\n      dup2\n      lt\n      tag_298\n      jumpi\n      tag_299\n      tag_124\n      jump\t// in\n    tag_299:\n    tag_298:\n      swap1\n      pop\n      0x20\n      mul\n      add\n      calldataload\n        /* \"contracts/LooksRare/MultiRewardsDistributor.sol\":5524:5538  treeParameters */\n      0x05\n        /* \"contracts/LooksRare/MultiRewardsDistributor.sol\":5524:5550  treeParameters[treeIds[i]] */\n      0x00\n        /* \"contracts/LooksRare/MultiRewardsDistributor.sol\":5539:5546  treeIds */\n      dup12\n      dup12\n        /* \"contracts/LooksRare/MultiRewardsDistributor.sol\":5547:5548  i */\n      dup6\n        /* \"contracts/LooksRare/MultiRewardsDistributor.sol\":5539:5549  treeIds[i] */\n      dup2\n      dup2\n      lt\n      tag_300\n      jumpi\n      tag_301\n      tag_124\n      jump\t// in\n    tag_301:\n    tag_300:\n      swap1\n      pop\n      0x20\n      mul\n      add\n      0x20\n      dup2\n      add\n      swap1\n      tag_302\n      swap2\n      swap1\n      tag_67\n      jump\t// in\n    tag_302:\n        /* \"contracts/LooksRare/MultiRewardsDistributor.sol\":5524:5550  treeParameters[treeIds[i]] */\n      0xff\n      and\n      0xff\n      and\n      dup2\n      mstore\n      0x20\n      add\n      swap1\n      dup2\n      mstore\n      0x20\n      add\n      0x00\n      keccak256\n        /* \"contracts/LooksRare/MultiRewardsDistributor.sol\":5524:5561  treeParameters[treeIds[i]].merkleRoot */\n      0x01\n      add\n        /* \"contracts/LooksRare/MultiRewardsDistributor.sol\":5524:5578  treeParameters[treeIds[i]].merkleRoot = merkleRoots[i] */\n      dup2\n      swap1\n      sstore\n      pop\n        /* \"contracts/LooksRare/MultiRewardsDistributor.sol\":5652:5669  maxAmountsPerUser */\n      dup5\n      dup5\n        /* \"contracts/LooksRare/MultiRewardsDistributor.sol\":5670:5671  i */\n      dup3\n        /* \"contracts/LooksRare/MultiRewardsDistributor.sol\":5652:5672  maxAmountsPerUser[i] */\n      dup2\n      dup2\n      lt\n      tag_303\n      jumpi\n      tag_304\n      tag_124\n      jump\t// in\n    tag_304:\n    tag_303:\n      swap1\n      pop\n      0x20\n      mul\n      add\n      calldataload\n        /* \"contracts/LooksRare/MultiRewardsDistributor.sol\":5593:5607  treeParameters */\n      0x05\n        /* \"contracts/LooksRare/MultiRewardsDistributor.sol\":5593:5619  treeParameters[treeIds[i]] */\n      0x00\n        /* \"contracts/LooksRare/MultiRewardsDistributor.sol\":5608:5615  treeIds */\n      dup12\n      dup12\n        /* \"contracts/LooksRare/MultiRewardsDistributor.sol\":5616:5617  i */\n      dup6\n        /* \"contracts/LooksRare/MultiRewardsDistributor.sol\":5608:5618  treeIds[i] */\n      dup2\n      dup2\n      lt\n      tag_305\n      jumpi\n      tag_306\n      tag_124\n      jump\t// in\n    tag_306:\n    tag_305:\n      swap1\n      pop\n      0x20\n      mul\n      add\n      0x20\n      dup2\n      add\n      swap1\n      tag_307\n      swap2\n      swap1\n      tag_67\n      jump\t// in\n    tag_307:\n        /* \"contracts/LooksRare/MultiRewardsDistributor.sol\":5593:5619  treeParameters[treeIds[i]] */\n      0xff\n      and\n      0xff\n      and\n      dup2\n      mstore\n      0x20\n      add\n      swap1\n      dup2\n      mstore\n      0x20\n      add\n      0x00\n      keccak256\n        /* \"contracts/LooksRare/MultiRewardsDistributor.sol\":5593:5649  treeParameters[treeIds[i]].maxAmountPerUserInCurrentTree */\n      0x02\n      add\n        /* \"contracts/LooksRare/MultiRewardsDistributor.sol\":5593:5672  treeParameters[treeIds[i]].maxAmountPerUserInCurrentTree = maxAmountsPerUser[i] */\n      dup2\n      swap1\n      sstore\n      pop\n        /* \"contracts/LooksRare/MultiRewardsDistributor.sol\":5720:5724  true */\n      0x01\n        /* \"contracts/LooksRare/MultiRewardsDistributor.sol\":5687:5701  merkleRootUsed */\n      0x08\n        /* \"contracts/LooksRare/MultiRewardsDistributor.sol\":5687:5717  merkleRootUsed[merkleRoots[i]] */\n      0x00\n        /* \"contracts/LooksRare/MultiRewardsDistributor.sol\":5702:5713  merkleRoots */\n      dup10\n      dup10\n        /* \"contracts/LooksRare/MultiRewardsDistributor.sol\":5714:5715  i */\n      dup6\n        /* \"contracts/LooksRare/MultiRewardsDistributor.sol\":5702:5716  merkleRoots[i] */\n      dup2\n      dup2\n      lt\n      tag_308\n      jumpi\n      tag_309\n      tag_124\n      jump\t// in\n    tag_309:\n    tag_308:\n      swap1\n      pop\n      0x20\n      mul\n      add\n      calldataload\n        /* \"contracts/LooksRare/MultiRewardsDistributor.sol\":5687:5717  merkleRootUsed[merkleRoots[i]] */\n      dup2\n      mstore\n      0x20\n      add\n      swap1\n      dup2\n      mstore\n      0x20\n      add\n      0x00\n      keccak256\n      0x00\n        /* \"contracts/LooksRare/MultiRewardsDistributor.sol\":5687:5724  merkleRootUsed[merkleRoots[i]] = true */\n      0x0100\n      exp\n      dup2\n      sload\n      dup2\n      0xff\n      mul\n      not\n      and\n      swap1\n      dup4\n      iszero\n      iszero\n      mul\n      or\n      swap1\n      sstore\n      pop\n        /* \"contracts/LooksRare/MultiRewardsDistributor.sol\":5740:5762  bool canSafeGuardClaim */\n      0x00\n        /* \"contracts/LooksRare/MultiRewardsDistributor.sol\":5768:5956  _canClaim(... */\n      tag_310\n        /* \"contracts/LooksRare/MultiRewardsDistributor.sol\":5796:5810  treeParameters */\n      0x05\n        /* \"contracts/LooksRare/MultiRewardsDistributor.sol\":5796:5822  treeParameters[treeIds[i]] */\n      0x00\n        /* \"contracts/LooksRare/MultiRewardsDistributor.sol\":5811:5818  treeIds */\n      dup13\n      dup13\n        /* \"contracts/LooksRare/MultiRewardsDistributor.sol\":5819:5820  i */\n      dup7\n        /* \"contracts/LooksRare/MultiRewardsDistributor.sol\":5811:5821  treeIds[i] */\n      dup2\n      dup2\n      lt\n      tag_311\n      jumpi\n      tag_312\n      tag_124\n      jump\t// in\n    tag_312:\n    tag_311:\n      swap1\n      pop\n      0x20\n      mul\n      add\n      0x20\n      dup2\n      add\n      swap1\n      tag_313\n      swap2\n      swap1\n      tag_67\n      jump\t// in\n    tag_313:\n        /* \"contracts/LooksRare/MultiRewardsDistributor.sol\":5796:5822  treeParameters[treeIds[i]] */\n      0xff\n      and\n      0xff\n      and\n      dup2\n      mstore\n      0x20\n      add\n      swap1\n      dup2\n      mstore\n      0x20\n      add\n      0x00\n      keccak256\n        /* \"contracts/LooksRare/MultiRewardsDistributor.sol\":5796:5832  treeParameters[treeIds[i]].safeGuard */\n      0x00\n      add\n      0x00\n      swap1\n      sload\n      swap1\n      0x0100\n      exp\n      swap1\n      div\n      0xffffffffffffffffffffffffffffffffffffffff\n      and\n        /* \"contracts/LooksRare/MultiRewardsDistributor.sol\":5851:5858  treeIds */\n      dup12\n      dup12\n        /* \"contracts/LooksRare/MultiRewardsDistributor.sol\":5859:5860  i */\n      dup6\n        /* \"contracts/LooksRare/MultiRewardsDistributor.sol\":5851:5861  treeIds[i] */\n      dup2\n      dup2\n      lt\n      tag_314\n      jumpi\n      tag_315\n      tag_124\n      jump\t// in\n    tag_315:\n    tag_314:\n      swap1\n      pop\n      0x20\n      mul\n      add\n      0x20\n      dup2\n      add\n      swap1\n      tag_316\n      swap2\n      swap1\n      tag_67\n      jump\t// in\n    tag_316:\n        /* \"contracts/LooksRare/MultiRewardsDistributor.sol\":1411:1415  1e18 */\n      0x0de0b6b3a7640000\n        /* \"contracts/LooksRare/MultiRewardsDistributor.sol\":5916:5938  merkleProofsSafeGuards */\n      dup8\n      dup8\n        /* \"contracts/LooksRare/MultiRewardsDistributor.sol\":5939:5940  i */\n      dup8\n        /* \"contracts/LooksRare/MultiRewardsDistributor.sol\":5916:5941  merkleProofsSafeGuards[i] */\n      dup2\n      dup2\n      lt\n      tag_317\n      jumpi\n      tag_318\n      tag_124\n      jump\t// in\n    tag_318:\n    tag_317:\n      swap1\n      pop\n      0x20\n      mul\n      dup2\n      add\n      swap1\n      tag_319\n      swap2\n      swap1\n      tag_136\n      jump\t// in\n    tag_319:\n        /* \"contracts/LooksRare/MultiRewardsDistributor.sol\":5768:5777  _canClaim */\n      tag_137\n        /* \"contracts/LooksRare/MultiRewardsDistributor.sol\":5768:5956  _canClaim(... */\n      jump\t// in\n    tag_310:\n        /* \"contracts/LooksRare/MultiRewardsDistributor.sol\":5739:5956  (bool canSafeGuardClaim, ) = _canClaim(... */\n      pop\n      swap1\n      pop\n        /* \"contracts/LooksRare/MultiRewardsDistributor.sol\":5979:5996  canSafeGuardClaim */\n      dup1\n        /* \"contracts/LooksRare/MultiRewardsDistributor.sol\":5971:6031  require(canSafeGuardClaim, \"Owner: Wrong safe guard proofs\") */\n      tag_320\n      jumpi\n      mload(0x40)\n      0x08c379a000000000000000000000000000000000000000000000000000000000\n      dup2\n      mstore\n      0x04\n      add\n      tag_321\n      swap1\n      tag_322\n      jump\t// in\n    tag_321:\n      mload(0x40)\n      dup1\n      swap2\n      sub\n      swap1\n      revert\n    tag_320:\n        /* \"contracts/LooksRare/MultiRewardsDistributor.sol\":5344:6043  {... */\n      pop\n        /* \"contracts/LooksRare/MultiRewardsDistributor.sol\":5339:5342  i++ */\n      dup1\n      dup1\n      tag_323\n      swap1\n      tag_143\n      jump\t// in\n    tag_323:\n      swap2\n      pop\n      pop\n        /* \"contracts/LooksRare/MultiRewardsDistributor.sol\":5295:6043  for (uint256 i = 0; i < merkleRoots.length; i++) {... */\n      jump(tag_284)\n    tag_285:\n      pop\n        /* \"contracts/LooksRare/MultiRewardsDistributor.sol\":6133:6151  currentRewardRound */\n      0x03\n      0x00\n        /* \"contracts/LooksRare/MultiRewardsDistributor.sol\":6131:6151  ++currentRewardRound */\n      dup2\n      sload\n      tag_324\n      swap1\n      tag_143\n      jump\t// in\n    tag_324:\n      swap2\n      swap1\n      pop\n      dup2\n      swap1\n      sstore\n        /* \"contracts/LooksRare/MultiRewardsDistributor.sol\":6110:6152  UpdateTradingRewards(++currentRewardRound) */\n      0x0b1d6b49e69d133866d064a73f0181e1e35aa94fde3ef0095587d7ebd0423caa\n      mload(0x40)\n      mload(0x40)\n      dup1\n      swap2\n      sub\n      swap1\n      log2\n        /* \"contracts/LooksRare/MultiRewardsDistributor.sol\":4762:6160  function updateTradingRewards(... */\n      pop\n      pop\n      pop\n      pop\n      pop\n      pop\n      pop\n      pop\n      jump\t// out\n        /* \"@openzeppelin/contracts/access/Ownable.sol\":1918:2116  function transferOwnership(address newOwner) public virtual onlyOwner {... */\n    tag_103:\n        /* \"@openzeppelin/contracts/access/Ownable.sol\":1259:1271  _msgSender() */\n      tag_326\n        /* \"@openzeppelin/contracts/access/Ownable.sol\":1259:1269  _msgSender */\n      tag_146\n        /* \"@openzeppelin/contracts/access/Ownable.sol\":1259:1271  _msgSender() */\n      jump\t// in\n    tag_326:\n        /* \"@openzeppelin/contracts/access/Ownable.sol\":1248:1271  owner() == _msgSender() */\n      0xffffffffffffffffffffffffffffffffffffffff\n      and\n        /* \"@openzeppelin/contracts/access/Ownable.sol\":1248:1255  owner() */\n      tag_327\n        /* \"@openzeppelin/contracts/access/Ownable.sol\":1248:1253  owner */\n      tag_76\n        /* \"@openzeppelin/contracts/access/Ownable.sol\":1248:1255  owner() */\n      jump\t// in\n    tag_327:\n        /* \"@openzeppelin/contracts/access/Ownable.sol\":1248:1271  owner() == _msgSender() */\n      0xffffffffffffffffffffffffffffffffffffffff\n      and\n      eq\n        /* \"@openzeppelin/contracts/access/Ownable.sol\":1240:1308  require(owner() == _msgSender(), \"Ownable: caller is not the owner\") */\n      tag_328\n      jumpi\n      mload(0x40)\n      0x08c379a000000000000000000000000000000000000000000000000000000000\n      dup2\n      mstore\n      0x04\n      add\n      tag_329\n      swap1\n      tag_150\n      jump\t// in\n    tag_329:\n      mload(0x40)\n      dup1\n      swap2\n      sub\n      swap1\n      revert\n    tag_328:\n        /* \"@openzeppelin/contracts/access/Ownable.sol\":2026:2027  0 */\n      0x00\n        /* \"@openzeppelin/contracts/access/Ownable.sol\":2006:2028  newOwner != address(0) */\n      0xffffffffffffffffffffffffffffffffffffffff\n      and\n        /* \"@openzeppelin/contracts/access/Ownable.sol\":2006:2014  newOwner */\n      dup2\n        /* \"@openzeppelin/contracts/access/Ownable.sol\":2006:2028  newOwner != address(0) */\n      0xffffffffffffffffffffffffffffffffffffffff\n      and\n      eq\n      iszero\n        /* \"@openzeppelin/contracts/access/Ownable.sol\":1998:2071  require(newOwner != address(0), \"Ownable: new owner is the zero address\") */\n      tag_331\n      jumpi\n      mload(0x40)\n      0x08c379a000000000000000000000000000000000000000000000000000000000\n      dup2\n      mstore\n      0x04\n      add\n      tag_332\n      swap1\n      tag_333\n      jump\t// in\n    tag_332:\n      mload(0x40)\n      dup1\n      swap2\n      sub\n      swap1\n      revert\n    tag_331:\n        /* \"@openzeppelin/contracts/access/Ownable.sol\":2081:2109  _transferOwnership(newOwner) */\n      tag_334\n        /* \"@openzeppelin/contracts/access/Ownable.sol\":2100:2108  newOwner */\n      dup2\n        /* \"@openzeppelin/contracts/access/Ownable.sol\":2081:2099  _transferOwnership */\n      tag_179\n        /* \"@openzeppelin/contracts/access/Ownable.sol\":2081:2109  _transferOwnership(newOwner) */\n      jump\t// in\n    tag_334:\n        /* \"@openzeppelin/contracts/access/Ownable.sol\":1918:2116  function transferOwnership(address newOwner) public virtual onlyOwner {... */\n      pop\n      jump\t// out\n        /* \"contracts/LooksRare/MultiRewardsDistributor.sol\":1689:1723  uint256 public lastPausedTimestamp */\n    tag_105:\n      sload(0x04)\n      dup2\n      jump\t// out\n        /* \"contracts/LooksRare/MultiRewardsDistributor.sol\":9048:9687  function _canClaim(... */\n    tag_137:\n        /* \"contracts/LooksRare/MultiRewardsDistributor.sol\":9209:9213  bool */\n      0x00\n        /* \"contracts/LooksRare/MultiRewardsDistributor.sol\":9215:9222  uint256 */\n      dup1\n        /* \"contracts/LooksRare/MultiRewardsDistributor.sol\":9292:9304  bytes32 node */\n      0x00\n        /* \"contracts/LooksRare/MultiRewardsDistributor.sol\":9334:9338  user */\n      dup8\n        /* \"contracts/LooksRare/MultiRewardsDistributor.sol\":9340:9346  amount */\n      dup7\n        /* \"contracts/LooksRare/MultiRewardsDistributor.sol\":9317:9347  abi.encodePacked(user, amount) */\n      add(0x20, mload(0x40))\n      tag_336\n      swap3\n      swap2\n      swap1\n      tag_337\n      jump\t// in\n    tag_336:\n      mload(0x40)\n      0x20\n      dup2\n      dup4\n      sub\n      sub\n      dup2\n      mstore\n      swap1\n      0x40\n      mstore\n        /* \"contracts/LooksRare/MultiRewardsDistributor.sol\":9307:9348  keccak256(abi.encodePacked(user, amount)) */\n      dup1\n      mload\n      swap1\n      0x20\n      add\n      keccak256\n        /* \"contracts/LooksRare/MultiRewardsDistributor.sol\":9292:9348  bytes32 node = keccak256(abi.encodePacked(user, amount)) */\n      swap1\n      pop\n        /* \"contracts/LooksRare/MultiRewardsDistributor.sol\":9359:9376  bool canUserClaim */\n      0x00\n        /* \"contracts/LooksRare/MultiRewardsDistributor.sol\":9379:9451  MerkleProof.verify(merkleProof, treeParameters[treeId].merkleRoot, node) */\n      tag_338\n        /* \"contracts/LooksRare/MultiRewardsDistributor.sol\":9398:9409  merkleProof */\n      dup7\n      dup7\n        /* \"contracts/LooksRare/MultiRewardsDistributor.sol\":9379:9451  MerkleProof.verify(merkleProof, treeParameters[treeId].merkleRoot, node) */\n      dup1\n      dup1\n      0x20\n      mul\n      0x20\n      add\n      mload(0x40)\n      swap1\n      dup2\n      add\n      0x40\n      mstore\n      dup1\n      swap4\n      swap3\n      swap2\n      swap1\n      dup2\n      dup2\n      mstore\n      0x20\n      add\n      dup4\n      dup4\n      0x20\n      mul\n      dup1\n      dup3\n      dup5\n      calldatacopy\n      0x00\n      dup2\n      dup5\n      add\n      mstore\n      not(0x1f)\n      0x1f\n      dup3\n      add\n      and\n      swap1\n      pop\n      dup1\n      dup4\n      add\n      swap3\n      pop\n      pop\n      pop\n      pop\n      pop\n      pop\n      pop\n        /* \"contracts/LooksRare/MultiRewardsDistributor.sol\":9411:9425  treeParameters */\n      0x05\n        /* \"contracts/LooksRare/MultiRewardsDistributor.sol\":9411:9433  treeParameters[treeId] */\n      0x00\n        /* \"contracts/LooksRare/MultiRewardsDistributor.sol\":9426:9432  treeId */\n      dup12\n        /* \"contracts/LooksRare/MultiRewardsDistributor.sol\":9411:9433  treeParameters[treeId] */\n      0xff\n      and\n      0xff\n      and\n      dup2\n      mstore\n      0x20\n      add\n      swap1\n      dup2\n      mstore\n      0x20\n      add\n      0x00\n      keccak256\n        /* \"contracts/LooksRare/MultiRewardsDistributor.sol\":9411:9444  treeParameters[treeId].merkleRoot */\n      0x01\n      add\n      sload\n        /* \"contracts/LooksRare/MultiRewardsDistributor.sol\":9446:9450  node */\n      dup5\n        /* \"contracts/LooksRare/MultiRewardsDistributor.sol\":9379:9397  MerkleProof.verify */\n      tag_339\n        /* \"contracts/LooksRare/MultiRewardsDistributor.sol\":9379:9451  MerkleProof.verify(merkleProof, treeParameters[treeId].merkleRoot, node) */\n      jump\t// in\n    tag_338:\n        /* \"contracts/LooksRare/MultiRewardsDistributor.sol\":9359:9451  bool canUserClaim = MerkleProof.verify(merkleProof, treeParameters[treeId].merkleRoot, node) */\n      swap1\n      pop\n        /* \"contracts/LooksRare/MultiRewardsDistributor.sol\":9469:9481  canUserClaim */\n      dup1\n        /* \"contracts/LooksRare/MultiRewardsDistributor.sol\":9464:9680  if (!canUserClaim) {... */\n      tag_340\n      jumpi\n        /* \"contracts/LooksRare/MultiRewardsDistributor.sol\":9506:9511  false */\n      0x00\n        /* \"contracts/LooksRare/MultiRewardsDistributor.sol\":9513:9514  0 */\n      dup1\n        /* \"contracts/LooksRare/MultiRewardsDistributor.sol\":9498:9515  return (false, 0) */\n      swap4\n      pop\n      swap4\n      pop\n      pop\n      pop\n      jump(tag_335)\n        /* \"contracts/LooksRare/MultiRewardsDistributor.sol\":9464:9680  if (!canUserClaim) {... */\n    tag_340:\n        /* \"contracts/LooksRare/MultiRewardsDistributor.sol\":9548:9570  uint256 adjustedAmount */\n      0x00\n        /* \"contracts/LooksRare/MultiRewardsDistributor.sol\":9582:9610  amountClaimedByUserPerTreeId */\n      0x06\n        /* \"contracts/LooksRare/MultiRewardsDistributor.sol\":9582:9616  amountClaimedByUserPerTreeId[user] */\n      0x00\n        /* \"contracts/LooksRare/MultiRewardsDistributor.sol\":9611:9615  user */\n      dup12\n        /* \"contracts/LooksRare/MultiRewardsDistributor.sol\":9582:9616  amountClaimedByUserPerTreeId[user] */\n      0xffffffffffffffffffffffffffffffffffffffff\n      and\n      0xffffffffffffffffffffffffffffffffffffffff\n      and\n      dup2\n      mstore\n      0x20\n      add\n      swap1\n      dup2\n      mstore\n      0x20\n      add\n      0x00\n      keccak256\n        /* \"contracts/LooksRare/MultiRewardsDistributor.sol\":9582:9624  amountClaimedByUserPerTreeId[user][treeId] */\n      0x00\n        /* \"contracts/LooksRare/MultiRewardsDistributor.sol\":9617:9623  treeId */\n      dup11\n        /* \"contracts/LooksRare/MultiRewardsDistributor.sol\":9582:9624  amountClaimedByUserPerTreeId[user][treeId] */\n      0xff\n      and\n      0xff\n      and\n      dup2\n      mstore\n      0x20\n      add\n      swap1\n      dup2\n      mstore\n      0x20\n      add\n      0x00\n      keccak256\n      sload\n        /* \"contracts/LooksRare/MultiRewardsDistributor.sol\":9573:9579  amount */\n      dup9\n        /* \"contracts/LooksRare/MultiRewardsDistributor.sol\":9573:9624  amount - amountClaimedByUserPerTreeId[user][treeId] */\n      tag_342\n      swap2\n      swap1\n      tag_343\n      jump\t// in\n    tag_342:\n        /* \"contracts/LooksRare/MultiRewardsDistributor.sol\":9548:9624  uint256 adjustedAmount = amount - amountClaimedByUserPerTreeId[user][treeId] */\n      swap1\n      pop\n        /* \"contracts/LooksRare/MultiRewardsDistributor.sol\":9647:9651  true */\n      0x01\n        /* \"contracts/LooksRare/MultiRewardsDistributor.sol\":9653:9667  adjustedAmount */\n      dup2\n        /* \"contracts/LooksRare/MultiRewardsDistributor.sol\":9639:9668  return (true, adjustedAmount) */\n      swap5\n      pop\n      swap5\n      pop\n      pop\n      pop\n      pop\n        /* \"contracts/LooksRare/MultiRewardsDistributor.sol\":9048:9687  function _canClaim(... */\n    tag_335:\n      swap6\n      pop\n      swap6\n      swap4\n      pop\n      pop\n      pop\n      pop\n      jump\t// out\n        /* \"@openzeppelin/contracts/utils/Context.sol\":640:736  function _msgSender() internal view virtual returns (address) {... */\n    tag_146:\n        /* \"@openzeppelin/contracts/utils/Context.sol\":693:700  address */\n      0x00\n        /* \"@openzeppelin/contracts/utils/Context.sol\":719:729  msg.sender */\n      caller\n        /* \"@openzeppelin/contracts/utils/Context.sol\":712:729  return msg.sender */\n      swap1\n      pop\n        /* \"@openzeppelin/contracts/utils/Context.sol\":640:736  function _msgSender() internal view virtual returns (address) {... */\n      swap1\n      jump\t// out\n        /* \"@openzeppelin/contracts/security/Pausable.sol\":1863:1978  function _pause() internal virtual whenNotPaused {... */\n    tag_158:\n        /* \"@openzeppelin/contracts/security/Pausable.sol\":1412:1420  paused() */\n      tag_346\n        /* \"@openzeppelin/contracts/security/Pausable.sol\":1412:1418  paused */\n      tag_60\n        /* \"@openzeppelin/contracts/security/Pausable.sol\":1412:1420  paused() */\n      jump\t// in\n    tag_346:\n        /* \"@openzeppelin/contracts/security/Pausable.sol\":1411:1420  !paused() */\n      iszero\n        /* \"@openzeppelin/contracts/security/Pausable.sol\":1403:1441  require(!paused(), \"Pausable: paused\") */\n      tag_347\n      jumpi\n      mload(0x40)\n      0x08c379a000000000000000000000000000000000000000000000000000000000\n      dup2\n      mstore\n      0x04\n      add\n      tag_348\n      swap1\n      tag_155\n      jump\t// in\n    tag_348:\n      mload(0x40)\n      dup1\n      swap2\n      sub\n      swap1\n      revert\n    tag_347:\n        /* \"@openzeppelin/contracts/security/Pausable.sol\":1932:1936  true */\n      0x01\n        /* \"@openzeppelin/contracts/security/Pausable.sol\":1922:1929  _paused */\n      0x00\n      dup1\n        /* \"@openzeppelin/contracts/security/Pausable.sol\":1922:1936  _paused = true */\n      0x0100\n      exp\n      dup2\n      sload\n      dup2\n      0xff\n      mul\n      not\n      and\n      swap1\n      dup4\n      iszero\n      iszero\n      mul\n      or\n      swap1\n      sstore\n      pop\n        /* \"@openzeppelin/contracts/security/Pausable.sol\":1951:1971  Paused(_msgSender()) */\n      0x62e78cea01bee320cd4e420270b5ea74000d11b0c9f74754ebdbfc544b05a258\n        /* \"@openzeppelin/contracts/security/Pausable.sol\":1958:1970  _msgSender() */\n      tag_350\n        /* \"@openzeppelin/contracts/security/Pausable.sol\":1958:1968  _msgSender */\n      tag_146\n        /* \"@openzeppelin/contracts/security/Pausable.sol\":1958:1970  _msgSender() */\n      jump\t// in\n    tag_350:\n        /* \"@openzeppelin/contracts/security/Pausable.sol\":1951:1971  Paused(_msgSender()) */\n      mload(0x40)\n      tag_351\n      swap2\n      swap1\n      tag_78\n      jump\t// in\n    tag_351:\n      mload(0x40)\n      dup1\n      swap2\n      sub\n      swap1\n      log1\n        /* \"@openzeppelin/contracts/security/Pausable.sol\":1863:1978  function _pause() internal virtual whenNotPaused {... */\n      jump\t// out\n        /* \"@openzeppelin/contracts/access/Ownable.sol\":2270:2457  function _transferOwnership(address newOwner) internal virtual {... */\n    tag_179:\n        /* \"@openzeppelin/contracts/access/Ownable.sol\":2343:2359  address oldOwner */\n      0x00\n        /* \"@openzeppelin/contracts/access/Ownable.sol\":2362:2368  _owner */\n      0x02\n      0x00\n      swap1\n      sload\n      swap1\n      0x0100\n      exp\n      swap1\n      div\n      0xffffffffffffffffffffffffffffffffffffffff\n      and\n        /* \"@openzeppelin/contracts/access/Ownable.sol\":2343:2368  address oldOwner = _owner */\n      swap1\n      pop\n        /* \"@openzeppelin/contracts/access/Ownable.sol\":2387:2395  newOwner */\n      dup2\n        /* \"@openzeppelin/contracts/access/Ownable.sol\":2378:2384  _owner */\n      0x02\n      0x00\n        /* \"@openzeppelin/contracts/access/Ownable.sol\":2378:2395  _owner = newOwner */\n      0x0100\n      exp\n      dup2\n      sload\n      dup2\n      0xffffffffffffffffffffffffffffffffffffffff\n      mul\n      not\n      and\n      swap1\n      dup4\n      0xffffffffffffffffffffffffffffffffffffffff\n      and\n      mul\n      or\n      swap1\n      sstore\n      pop\n        /* \"@openzeppelin/contracts/access/Ownable.sol\":2441:2449  newOwner */\n      dup2\n        /* \"@openzeppelin/contracts/access/Ownable.sol\":2410:2450  OwnershipTransferred(oldOwner, newOwner) */\n      0xffffffffffffffffffffffffffffffffffffffff\n      and\n        /* \"@openzeppelin/contracts/access/Ownable.sol\":2431:2439  oldOwner */\n      dup2\n        /* \"@openzeppelin/contracts/access/Ownable.sol\":2410:2450  OwnershipTransferred(oldOwner, newOwner) */\n      0xffffffffffffffffffffffffffffffffffffffff\n      and\n      0x8be0079c531659141344cd1fd0a4f28419497f9722a3daafe3b4186f6b6457e0\n      mload(0x40)\n      mload(0x40)\n      dup1\n      swap2\n      sub\n      swap1\n      log3\n        /* \"@openzeppelin/contracts/access/Ownable.sol\":2333:2457  {... */\n      pop\n        /* \"@openzeppelin/contracts/access/Ownable.sol\":2270:2457  function _transferOwnership(address newOwner) internal virtual {... */\n      pop\n      jump\t// out\n        /* \"@openzeppelin/contracts/token/ERC20/utils/SafeERC20.sol\":701:906  function safeTransfer(... */\n    tag_197:\n        /* \"@openzeppelin/contracts/token/ERC20/utils/SafeERC20.sol\":813:899  _callOptionalReturn(token, abi.encodeWithSelector(token.transfer.selector, to, value)) */\n      tag_354\n        /* \"@openzeppelin/contracts/token/ERC20/utils/SafeERC20.sol\":833:838  token */\n      dup4\n        /* \"@openzeppelin/contracts/token/ERC20/utils/SafeERC20.sol\":863:886  token.transfer.selector */\n      shl(0xe0, 0xa9059cbb)\n        /* \"@openzeppelin/contracts/token/ERC20/utils/SafeERC20.sol\":888:890  to */\n      dup5\n        /* \"@openzeppelin/contracts/token/ERC20/utils/SafeERC20.sol\":892:897  value */\n      dup5\n        /* \"@openzeppelin/contracts/token/ERC20/utils/SafeERC20.sol\":840:898  abi.encodeWithSelector(token.transfer.selector, to, value) */\n      add(0x24, mload(0x40))\n      tag_355\n      swap3\n      swap2\n      swap1\n      tag_356\n      jump\t// in\n    tag_355:\n      mload(0x40)\n      0x20\n      dup2\n      dup4\n      sub\n      sub\n      dup2\n      mstore\n      swap1\n      0x40\n      mstore\n      swap1\n      not(0xffffffffffffffffffffffffffffffffffffffffffffffffffffffff)\n      and\n      0x20\n      dup3\n      add\n      dup1\n      mload\n      0xffffffffffffffffffffffffffffffffffffffffffffffffffffffff\n      dup4\n      dup2\n      dup4\n      and\n      or\n      dup4\n      mstore\n      pop\n      pop\n      pop\n      pop\n        /* \"@openzeppelin/contracts/token/ERC20/utils/SafeERC20.sol\":813:832  _callOptionalReturn */\n      tag_357\n        /* \"@openzeppelin/contracts/token/ERC20/utils/SafeERC20.sol\":813:899  _callOptionalReturn(token, abi.encodeWithSelector(token.transfer.selector, to, value)) */\n      jump\t// in\n    tag_354:\n        /* \"@openzeppelin/contracts/token/ERC20/utils/SafeERC20.sol\":701:906  function safeTransfer(... */\n      pop\n      pop\n      pop\n      jump\t// out\n        /* \"@openzeppelin/contracts/security/Pausable.sol\":2110:2227  function _unpause() internal virtual whenPaused {... */\n    tag_211:\n        /* \"@openzeppelin/contracts/security/Pausable.sol\":1677:1685  paused() */\n      tag_359\n        /* \"@openzeppelin/contracts/security/Pausable.sol\":1677:1683  paused */\n      tag_60\n        /* \"@openzeppelin/contracts/security/Pausable.sol\":1677:1685  paused() */\n      jump\t// in\n    tag_359:\n        /* \"@openzeppelin/contracts/security/Pausable.sol\":1669:1710  require(paused(), \"Pausable: not paused\") */\n      tag_360\n      jumpi\n      mload(0x40)\n      0x08c379a000000000000000000000000000000000000000000000000000000000\n      dup2\n      mstore\n      0x04\n      add\n      tag_361\n      swap1\n      tag_189\n      jump\t// in\n    tag_361:\n      mload(0x40)\n      dup1\n      swap2\n      sub\n      swap1\n      revert\n    tag_360:\n        /* \"@openzeppelin/contracts/security/Pausable.sol\":2178:2183  false */\n      0x00\n        /* \"@openzeppelin/contracts/security/Pausable.sol\":2168:2175  _paused */\n      dup1\n      0x00\n        /* \"@openzeppelin/contracts/security/Pausable.sol\":2168:2183  _paused = false */\n      0x0100\n      exp\n      dup2\n      sload\n      dup2\n      0xff\n      mul\n      not\n      and\n      swap1\n      dup4\n      iszero\n      iszero\n      mul\n      or\n      swap1\n      sstore\n      pop\n        /* \"@openzeppelin/contracts/security/Pausable.sol\":2198:2220  Unpaused(_msgSender()) */\n      0x5db9ee0a495bf2e6ff9c91a7834c1ba4fdd244a5e8aa4e537bd38aeae4b073aa\n        /* \"@openzeppelin/contracts/security/Pausable.sol\":2207:2219  _msgSender() */\n      tag_363\n        /* \"@openzeppelin/contracts/security/Pausable.sol\":2207:2217  _msgSender */\n      tag_146\n        /* \"@openzeppelin/contracts/security/Pausable.sol\":2207:2219  _msgSender() */\n      jump\t// in\n    tag_363:\n        /* \"@openzeppelin/contracts/security/Pausable.sol\":2198:2220  Unpaused(_msgSender()) */\n      mload(0x40)\n      tag_364\n      swap2\n      swap1\n      tag_78\n      jump\t// in\n    tag_364:\n      mload(0x40)\n      dup1\n      swap2\n      sub\n      swap1\n      log1\n        /* \"@openzeppelin/contracts/security/Pausable.sol\":2110:2227  function _unpause() internal virtual whenPaused {... */\n      jump\t// out\n        /* \"@openzeppelin/contracts/utils/cryptography/MerkleProof.sol\":1154:1338  function verify(... */\n    tag_339:\n        /* \"@openzeppelin/contracts/utils/cryptography/MerkleProof.sol\":1275:1279  bool */\n      0x00\n        /* \"@openzeppelin/contracts/utils/cryptography/MerkleProof.sol\":1327:1331  root */\n      dup3\n        /* \"@openzeppelin/contracts/utils/cryptography/MerkleProof.sol\":1298:1323  processProof(proof, leaf) */\n      tag_366\n        /* \"@openzeppelin/contracts/utils/cryptography/MerkleProof.sol\":1311:1316  proof */\n      dup6\n        /* \"@openzeppelin/contracts/utils/cryptography/MerkleProof.sol\":1318:1322  leaf */\n      dup5\n        /* \"@openzeppelin/contracts/utils/cryptography/MerkleProof.sol\":1298:1310  processProof */\n      tag_367\n        /* \"@openzeppelin/contracts/utils/cryptography/MerkleProof.sol\":1298:1323  processProof(proof, leaf) */\n      jump\t// in\n    tag_366:\n        /* \"@openzeppelin/contracts/utils/cryptography/MerkleProof.sol\":1298:1331  processProof(proof, leaf) == root */\n      eq\n        /* \"@openzeppelin/contracts/utils/cryptography/MerkleProof.sol\":1291:1331  return processProof(proof, leaf) == root */\n      swap1\n      pop\n        /* \"@openzeppelin/contracts/utils/cryptography/MerkleProof.sol\":1154:1338  function verify(... */\n      swap4\n      swap3\n      pop\n      pop\n      pop\n      jump\t// out\n        /* \"@openzeppelin/contracts/token/ERC20/utils/SafeERC20.sol\":3207:3913  function _callOptionalReturn(IERC20 token, bytes memory data) private {... */\n    tag_357:\n        /* \"@openzeppelin/contracts/token/ERC20/utils/SafeERC20.sol\":3626:3649  bytes memory returndata */\n      0x00\n        /* \"@openzeppelin/contracts/token/ERC20/utils/SafeERC20.sol\":3652:3721  address(token).functionCall(data, \"SafeERC20: low-level call failed\") */\n      tag_369\n        /* \"@openzeppelin/contracts/token/ERC20/utils/SafeERC20.sol\":3680:3684  data */\n      dup3\n        /* \"@openzeppelin/contracts/token/ERC20/utils/SafeERC20.sol\":3652:3721  address(token).functionCall(data, \"SafeERC20: low-level call failed\") */\n      mload(0x40)\n      dup1\n      0x40\n      add\n      0x40\n      mstore\n      dup1\n      0x20\n      dup2\n      mstore\n      0x20\n      add\n      0x5361666545524332303a206c6f772d6c6576656c2063616c6c206661696c6564\n      dup2\n      mstore\n      pop\n        /* \"@openzeppelin/contracts/token/ERC20/utils/SafeERC20.sol\":3660:3665  token */\n      dup6\n        /* \"@openzeppelin/contracts/token/ERC20/utils/SafeERC20.sol\":3652:3679  address(token).functionCall */\n      0xffffffffffffffffffffffffffffffffffffffff\n      and\n      tag_370\n      swap1\n        /* \"@openzeppelin/contracts/token/ERC20/utils/SafeERC20.sol\":3652:3721  address(token).functionCall(data, \"SafeERC20: low-level call failed\") */\n      swap3\n      swap2\n      swap1\n      0xffffffff\n      and\n      jump\t// in\n    tag_369:\n        /* \"@openzeppelin/contracts/token/ERC20/utils/SafeERC20.sol\":3626:3721  bytes memory returndata = address(token).functionCall(data, \"SafeERC20: low-level call failed\") */\n      swap1\n      pop\n        /* \"@openzeppelin/contracts/token/ERC20/utils/SafeERC20.sol\":3755:3756  0 */\n      0x00\n        /* \"@openzeppelin/contracts/token/ERC20/utils/SafeERC20.sol\":3735:3745  returndata */\n      dup2\n        /* \"@openzeppelin/contracts/token/ERC20/utils/SafeERC20.sol\":3735:3752  returndata.length */\n      mload\n        /* \"@openzeppelin/contracts/token/ERC20/utils/SafeERC20.sol\":3735:3756  returndata.length > 0 */\n      gt\n        /* \"@openzeppelin/contracts/token/ERC20/utils/SafeERC20.sol\":3731:3907  if (returndata.length > 0) {... */\n      iszero\n      tag_371\n      jumpi\n        /* \"@openzeppelin/contracts/token/ERC20/utils/SafeERC20.sol\":3830:3840  returndata */\n      dup1\n        /* \"@openzeppelin/contracts/token/ERC20/utils/SafeERC20.sol\":3819:3849  abi.decode(returndata, (bool)) */\n      dup1\n      0x20\n      add\n      swap1\n      mload\n      dup2\n      add\n      swap1\n      tag_372\n      swap2\n      swap1\n      tag_373\n      jump\t// in\n    tag_372:\n        /* \"@openzeppelin/contracts/token/ERC20/utils/SafeERC20.sol\":3811:3896  require(abi.decode(returndata, (bool)), \"SafeERC20: ERC20 operation did not succeed\") */\n      tag_374\n      jumpi\n      mload(0x40)\n      0x08c379a000000000000000000000000000000000000000000000000000000000\n      dup2\n      mstore\n      0x04\n      add\n      tag_375\n      swap1\n      tag_376\n      jump\t// in\n    tag_375:\n      mload(0x40)\n      dup1\n      swap2\n      sub\n      swap1\n      revert\n    tag_374:\n        /* \"@openzeppelin/contracts/token/ERC20/utils/SafeERC20.sol\":3731:3907  if (returndata.length > 0) {... */\n    tag_371:\n        /* \"@openzeppelin/contracts/token/ERC20/utils/SafeERC20.sol\":3277:3913  {... */\n      pop\n        /* \"@openzeppelin/contracts/token/ERC20/utils/SafeERC20.sol\":3207:3913  function _callOptionalReturn(IERC20 token, bytes memory data) private {... */\n      pop\n      pop\n      jump\t// out\n        /* \"@openzeppelin/contracts/utils/cryptography/MerkleProof.sol\":1689:2351  function processProof(bytes32[] memory proof, bytes32 leaf) internal pure returns (bytes32) {... */\n    tag_367:\n        /* \"@openzeppelin/contracts/utils/cryptography/MerkleProof.sol\":1772:1779  bytes32 */\n      0x00\n        /* \"@openzeppelin/contracts/utils/cryptography/MerkleProof.sol\":1791:1811  bytes32 computedHash */\n      dup1\n        /* \"@openzeppelin/contracts/utils/cryptography/MerkleProof.sol\":1814:1818  leaf */\n      dup3\n        /* \"@openzeppelin/contracts/utils/cryptography/MerkleProof.sol\":1791:1818  bytes32 computedHash = leaf */\n      swap1\n      pop\n        /* \"@openzeppelin/contracts/utils/cryptography/MerkleProof.sol\":1833:1842  uint256 i */\n      0x00\n        /* \"@openzeppelin/contracts/utils/cryptography/MerkleProof.sol\":1828:2316  for (uint256 i = 0; i < proof.length; i++) {... */\n    tag_378:\n        /* \"@openzeppelin/contracts/utils/cryptography/MerkleProof.sol\":1852:1857  proof */\n      dup5\n        /* \"@openzeppelin/contracts/utils/cryptography/MerkleProof.sol\":1852:1864  proof.length */\n      mload\n        /* \"@openzeppelin/contracts/utils/cryptography/MerkleProof.sol\":1848:1849  i */\n      dup2\n        /* \"@openzeppelin/contracts/utils/cryptography/MerkleProof.sol\":1848:1864  i < proof.length */\n      lt\n        /* \"@openzeppelin/contracts/utils/cryptography/MerkleProof.sol\":1828:2316  for (uint256 i = 0; i < proof.length; i++) {... */\n      iszero\n      tag_379\n      jumpi\n        /* \"@openzeppelin/contracts/utils/cryptography/MerkleProof.sol\":1885:1905  bytes32 proofElement */\n      0x00\n        /* \"@openzeppelin/contracts/utils/cryptography/MerkleProof.sol\":1908:1913  proof */\n      dup6\n        /* \"@openzeppelin/contracts/utils/cryptography/MerkleProof.sol\":1914:1915  i */\n      dup3\n        /* \"@openzeppelin/contracts/utils/cryptography/MerkleProof.sol\":1908:1916  proof[i] */\n      dup2\n      mload\n      dup2\n      lt\n      tag_381\n      jumpi\n      tag_382\n      tag_124\n      jump\t// in\n    tag_382:\n    tag_381:\n      0x20\n      mul\n      0x20\n      add\n      add\n      mload\n        /* \"@openzeppelin/contracts/utils/cryptography/MerkleProof.sol\":1885:1916  bytes32 proofElement = proof[i] */\n      swap1\n      pop\n        /* \"@openzeppelin/contracts/utils/cryptography/MerkleProof.sol\":1950:1962  proofElement */\n      dup1\n        /* \"@openzeppelin/contracts/utils/cryptography/MerkleProof.sol\":1934:1946  computedHash */\n      dup4\n        /* \"@openzeppelin/contracts/utils/cryptography/MerkleProof.sol\":1934:1962  computedHash <= proofElement */\n      gt\n        /* \"@openzeppelin/contracts/utils/cryptography/MerkleProof.sol\":1930:2306  if (computedHash <= proofElement) {... */\n      tag_383\n      jumpi\n        /* \"@openzeppelin/contracts/utils/cryptography/MerkleProof.sol\":2075:2117  _efficientHash(computedHash, proofElement) */\n      tag_384\n        /* \"@openzeppelin/contracts/utils/cryptography/MerkleProof.sol\":2090:2102  computedHash */\n      dup4\n        /* \"@openzeppelin/contracts/utils/cryptography/MerkleProof.sol\":2104:2116  proofElement */\n      dup3\n        /* \"@openzeppelin/contracts/utils/cryptography/MerkleProof.sol\":2075:2089  _efficientHash */\n      tag_385\n        /* \"@openzeppelin/contracts/utils/cryptography/MerkleProof.sol\":2075:2117  _efficientHash(computedHash, proofElement) */\n      jump\t// in\n    tag_384:\n        /* \"@openzeppelin/contracts/utils/cryptography/MerkleProof.sol\":2060:2117  computedHash = _efficientHash(computedHash, proofElement) */\n      swap3\n      pop\n        /* \"@openzeppelin/contracts/utils/cryptography/MerkleProof.sol\":1930:2306  if (computedHash <= proofElement) {... */\n      jump(tag_386)\n    tag_383:\n        /* \"@openzeppelin/contracts/utils/cryptography/MerkleProof.sol\":2249:2291  _efficientHash(proofElement, computedHash) */\n      tag_387\n        /* \"@openzeppelin/contracts/utils/cryptography/MerkleProof.sol\":2264:2276  proofElement */\n      dup2\n        /* \"@openzeppelin/contracts/utils/cryptography/MerkleProof.sol\":2278:2290  computedHash */\n      dup5\n        /* \"@openzeppelin/contracts/utils/cryptography/MerkleProof.sol\":2249:2263  _efficientHash */\n      tag_385\n        /* \"@openzeppelin/contracts/utils/cryptography/MerkleProof.sol\":2249:2291  _efficientHash(proofElement, computedHash) */\n      jump\t// in\n    tag_387:\n        /* \"@openzeppelin/contracts/utils/cryptography/MerkleProof.sol\":2234:2291  computedHash = _efficientHash(proofElement, computedHash) */\n      swap3\n      pop\n        /* \"@openzeppelin/contracts/utils/cryptography/MerkleProof.sol\":1930:2306  if (computedHash <= proofElement) {... */\n    tag_386:\n        /* \"@openzeppelin/contracts/utils/cryptography/MerkleProof.sol\":1871:2316  {... */\n      pop\n        /* \"@openzeppelin/contracts/utils/cryptography/MerkleProof.sol\":1866:1869  i++ */\n      dup1\n      dup1\n      tag_388\n      swap1\n      tag_143\n      jump\t// in\n    tag_388:\n      swap2\n      pop\n      pop\n        /* \"@openzeppelin/contracts/utils/cryptography/MerkleProof.sol\":1828:2316  for (uint256 i = 0; i < proof.length; i++) {... */\n      jump(tag_378)\n    tag_379:\n      pop\n        /* \"@openzeppelin/contracts/utils/cryptography/MerkleProof.sol\":2332:2344  computedHash */\n      dup1\n        /* \"@openzeppelin/contracts/utils/cryptography/MerkleProof.sol\":2325:2344  return computedHash */\n      swap2\n      pop\n      pop\n        /* \"@openzeppelin/contracts/utils/cryptography/MerkleProof.sol\":1689:2351  function processProof(bytes32[] memory proof, bytes32 leaf) internal pure returns (bytes32) {... */\n      swap3\n      swap2\n      pop\n      pop\n      jump\t// out\n        /* \"@openzeppelin/contracts/utils/Address.sol\":3861:4084  function functionCall(... */\n    tag_370:\n        /* \"@openzeppelin/contracts/utils/Address.sol\":3994:4006  bytes memory */\n      0x60\n        /* \"@openzeppelin/contracts/utils/Address.sol\":4025:4077  functionCallWithValue(target, data, 0, errorMessage) */\n      tag_390\n        /* \"@openzeppelin/contracts/utils/Address.sol\":4047:4053  target */\n      dup5\n        /* \"@openzeppelin/contracts/utils/Address.sol\":4055:4059  data */\n      dup5\n        /* \"@openzeppelin/contracts/utils/Address.sol\":4061:4062  0 */\n      0x00\n        /* \"@openzeppelin/contracts/utils/Address.sol\":4064:4076  errorMessage */\n      dup6\n        /* \"@openzeppelin/contracts/utils/Address.sol\":4025:4046  functionCallWithValue */\n      tag_391\n        /* \"@openzeppelin/contracts/utils/Address.sol\":4025:4077  functionCallWithValue(target, data, 0, errorMessage) */\n      jump\t// in\n    tag_390:\n        /* \"@openzeppelin/contracts/utils/Address.sol\":4018:4077  return functionCallWithValue(target, data, 0, errorMessage) */\n      swap1\n      pop\n        /* \"@openzeppelin/contracts/utils/Address.sol\":3861:4084  function functionCall(... */\n      swap4\n      swap3\n      pop\n      pop\n      pop\n      jump\t// out\n        /* \"@openzeppelin/contracts/utils/cryptography/MerkleProof.sol\":2357:2575  function _efficientHash(bytes32 a, bytes32 b) private pure returns (bytes32 value) {... */\n    tag_385:\n        /* \"@openzeppelin/contracts/utils/cryptography/MerkleProof.sol\":2425:2438  bytes32 value */\n      0x00\n        /* \"@openzeppelin/contracts/utils/cryptography/MerkleProof.sol\":2486:2487  a */\n      dup3\n        /* \"@openzeppelin/contracts/utils/cryptography/MerkleProof.sol\":2480:2484  0x00 */\n      0x00\n        /* \"@openzeppelin/contracts/utils/cryptography/MerkleProof.sol\":2473:2488  mstore(0x00, a) */\n      mstore\n        /* \"@openzeppelin/contracts/utils/cryptography/MerkleProof.sol\":2514:2515  b */\n      dup2\n        /* \"@openzeppelin/contracts/utils/cryptography/MerkleProof.sol\":2508:2512  0x20 */\n      0x20\n        /* \"@openzeppelin/contracts/utils/cryptography/MerkleProof.sol\":2501:2516  mstore(0x20, b) */\n      mstore\n        /* \"@openzeppelin/contracts/utils/cryptography/MerkleProof.sol\":2554:2558  0x40 */\n      0x40\n        /* \"@openzeppelin/contracts/utils/cryptography/MerkleProof.sol\":2548:2552  0x00 */\n      0x00\n        /* \"@openzeppelin/contracts/utils/cryptography/MerkleProof.sol\":2538:2559  keccak256(0x00, 0x40) */\n      keccak256\n        /* \"@openzeppelin/contracts/utils/cryptography/MerkleProof.sol\":2529:2559  value := keccak256(0x00, 0x40) */\n      swap1\n      pop\n        /* \"@openzeppelin/contracts/utils/cryptography/MerkleProof.sol\":2357:2575  function _efficientHash(bytes32 a, bytes32 b) private pure returns (bytes32 value) {... */\n      swap3\n      swap2\n      pop\n      pop\n      jump\t// out\n        /* \"@openzeppelin/contracts/utils/Address.sol\":4948:5447  function functionCallWithValue(... */\n    tag_391:\n        /* \"@openzeppelin/contracts/utils/Address.sol\":5113:5125  bytes memory */\n      0x60\n        /* \"@openzeppelin/contracts/utils/Address.sol\":5170:5175  value */\n      dup3\n        /* \"@openzeppelin/contracts/utils/Address.sol\":5145:5166  address(this).balance */\n      selfbalance\n        /* \"@openzeppelin/contracts/utils/Address.sol\":5145:5175  address(this).balance >= value */\n      lt\n      iszero\n        /* \"@openzeppelin/contracts/utils/Address.sol\":5137:5218  require(address(this).balance >= value, \"Address: insufficient balance for call\") */\n      tag_394\n      jumpi\n      mload(0x40)\n      0x08c379a000000000000000000000000000000000000000000000000000000000\n      dup2\n      mstore\n      0x04\n      add\n      tag_395\n      swap1\n      tag_396\n      jump\t// in\n    tag_395:\n      mload(0x40)\n      dup1\n      swap2\n      sub\n      swap1\n      revert\n    tag_394:\n        /* \"@openzeppelin/contracts/utils/Address.sol\":5236:5254  isContract(target) */\n      tag_397\n        /* \"@openzeppelin/contracts/utils/Address.sol\":5247:5253  target */\n      dup6\n        /* \"@openzeppelin/contracts/utils/Address.sol\":5236:5246  isContract */\n      tag_398\n        /* \"@openzeppelin/contracts/utils/Address.sol\":5236:5254  isContract(target) */\n      jump\t// in\n    tag_397:\n        /* \"@openzeppelin/contracts/utils/Address.sol\":5228:5288  require(isContract(target), \"Address: call to non-contract\") */\n      tag_399\n      jumpi\n      mload(0x40)\n      0x08c379a000000000000000000000000000000000000000000000000000000000\n      dup2\n      mstore\n      0x04\n      add\n      tag_400\n      swap1\n      tag_401\n      jump\t// in\n    tag_400:\n      mload(0x40)\n      dup1\n      swap2\n      sub\n      swap1\n      revert\n    tag_399:\n        /* \"@openzeppelin/contracts/utils/Address.sol\":5300:5312  bool success */\n      0x00\n        /* \"@openzeppelin/contracts/utils/Address.sol\":5314:5337  bytes memory returndata */\n      dup1\n        /* \"@openzeppelin/contracts/utils/Address.sol\":5341:5347  target */\n      dup7\n        /* \"@openzeppelin/contracts/utils/Address.sol\":5341:5352  target.call */\n      0xffffffffffffffffffffffffffffffffffffffff\n      and\n        /* \"@openzeppelin/contracts/utils/Address.sol\":5360:5365  value */\n      dup6\n        /* \"@openzeppelin/contracts/utils/Address.sol\":5367:5371  data */\n      dup8\n        /* \"@openzeppelin/contracts/utils/Address.sol\":5341:5372  target.call{value: value}(data) */\n      mload(0x40)\n      tag_402\n      swap2\n      swap1\n      tag_403\n      jump\t// in\n    tag_402:\n      0x00\n      mload(0x40)\n      dup1\n      dup4\n      sub\n      dup2\n      dup6\n      dup8\n      gas\n      call\n      swap3\n      pop\n      pop\n      pop\n      returndatasize\n      dup1\n      0x00\n      dup2\n      eq\n      tag_406\n      jumpi\n      mload(0x40)\n      swap2\n      pop\n      and(add(returndatasize, 0x3f), not(0x1f))\n      dup3\n      add\n      0x40\n      mstore\n      returndatasize\n      dup3\n      mstore\n      returndatasize\n      0x00\n      0x20\n      dup5\n      add\n      returndatacopy\n      jump(tag_405)\n    tag_406:\n      0x60\n      swap2\n      pop\n    tag_405:\n      pop\n        /* \"@openzeppelin/contracts/utils/Address.sol\":5299:5372  (bool success, bytes memory returndata) = target.call{value: value}(data) */\n      swap2\n      pop\n      swap2\n      pop\n        /* \"@openzeppelin/contracts/utils/Address.sol\":5389:5440  verifyCallResult(success, returndata, errorMessage) */\n      tag_407\n        /* \"@openzeppelin/contracts/utils/Address.sol\":5406:5413  success */\n      dup3\n        /* \"@openzeppelin/contracts/utils/Address.sol\":5415:5425  returndata */\n      dup3\n        /* \"@openzeppelin/contracts/utils/Address.sol\":5427:5439  errorMessage */\n      dup7\n        /* \"@openzeppelin/contracts/utils/Address.sol\":5389:5405  verifyCallResult */\n      tag_408\n        /* \"@openzeppelin/contracts/utils/Address.sol\":5389:5440  verifyCallResult(success, returndata, errorMessage) */\n      jump\t// in\n    tag_407:\n        /* \"@openzeppelin/contracts/utils/Address.sol\":5382:5440  return verifyCallResult(success, returndata, errorMessage) */\n      swap3\n      pop\n      pop\n      pop\n        /* \"@openzeppelin/contracts/utils/Address.sol\":4948:5447  function functionCallWithValue(... */\n      swap5\n      swap4\n      pop\n      pop\n      pop\n      pop\n      jump\t// out\n        /* \"@openzeppelin/contracts/utils/Address.sol\":1175:1495  function isContract(address account) internal view returns (bool) {... */\n    tag_398:\n        /* \"@openzeppelin/contracts/utils/Address.sol\":1235:1239  bool */\n      0x00\n        /* \"@openzeppelin/contracts/utils/Address.sol\":1487:1488  0 */\n      dup1\n        /* \"@openzeppelin/contracts/utils/Address.sol\":1465:1472  account */\n      dup3\n        /* \"@openzeppelin/contracts/utils/Address.sol\":1465:1484  account.code.length */\n      0xffffffffffffffffffffffffffffffffffffffff\n      and\n      extcodesize\n        /* \"@openzeppelin/contracts/utils/Address.sol\":1465:1488  account.code.length > 0 */\n      gt\n        /* \"@openzeppelin/contracts/utils/Address.sol\":1458:1488  return account.code.length > 0 */\n      swap1\n      pop\n        /* \"@openzeppelin/contracts/utils/Address.sol\":1175:1495  function isContract(address account) internal view returns (bool) {... */\n      swap2\n      swap1\n      pop\n      jump\t// out\n        /* \"@openzeppelin/contracts/utils/Address.sol\":7561:8253  function verifyCallResult(... */\n    tag_408:\n        /* \"@openzeppelin/contracts/utils/Address.sol\":7707:7719  bytes memory */\n      0x60\n        /* \"@openzeppelin/contracts/utils/Address.sol\":7735:7742  success */\n      dup4\n        /* \"@openzeppelin/contracts/utils/Address.sol\":7731:8247  if (success) {... */\n      iszero\n      tag_411\n      jumpi\n        /* \"@openzeppelin/contracts/utils/Address.sol\":7765:7775  returndata */\n      dup3\n        /* \"@openzeppelin/contracts/utils/Address.sol\":7758:7775  return returndata */\n      swap1\n      pop\n      jump(tag_410)\n        /* \"@openzeppelin/contracts/utils/Address.sol\":7731:8247  if (success) {... */\n    tag_411:\n        /* \"@openzeppelin/contracts/utils/Address.sol\":7896:7897  0 */\n      0x00\n        /* \"@openzeppelin/contracts/utils/Address.sol\":7876:7886  returndata */\n      dup4\n        /* \"@openzeppelin/contracts/utils/Address.sol\":7876:7893  returndata.length */\n      mload\n        /* \"@openzeppelin/contracts/utils/Address.sol\":7876:7897  returndata.length > 0 */\n      gt\n        /* \"@openzeppelin/contracts/utils/Address.sol\":7872:8237  if (returndata.length > 0) {... */\n      iszero\n      tag_413\n      jumpi\n        /* \"@openzeppelin/contracts/utils/Address.sol\":8070:8080  returndata */\n      dup3\n        /* \"@openzeppelin/contracts/utils/Address.sol\":8064:8081  mload(returndata) */\n      mload\n        /* \"@openzeppelin/contracts/utils/Address.sol\":8130:8145  returndata_size */\n      dup1\n        /* \"@openzeppelin/contracts/utils/Address.sol\":8117:8127  returndata */\n      dup5\n        /* \"@openzeppelin/contracts/utils/Address.sol\":8113:8115  32 */\n      0x20\n        /* \"@openzeppelin/contracts/utils/Address.sol\":8109:8128  add(32, returndata) */\n      add\n        /* \"@openzeppelin/contracts/utils/Address.sol\":8102:8146  revert(add(32, returndata), returndata_size) */\n      revert\n        /* \"@openzeppelin/contracts/utils/Address.sol\":7872:8237  if (returndata.length > 0) {... */\n    tag_413:\n        /* \"@openzeppelin/contracts/utils/Address.sol\":8209:8221  errorMessage */\n      dup2\n        /* \"@openzeppelin/contracts/utils/Address.sol\":8202:8222  revert(errorMessage) */\n      mload(0x40)\n      0x08c379a000000000000000000000000000000000000000000000000000000000\n      dup2\n      mstore\n      0x04\n      add\n      tag_415\n      swap2\n      swap1\n      tag_416\n      jump\t// in\n    tag_415:\n      mload(0x40)\n      dup1\n      swap2\n      sub\n      swap1\n      revert\n        /* \"@openzeppelin/contracts/utils/Address.sol\":7561:8253  function verifyCallResult(... */\n    tag_410:\n      swap4\n      swap3\n      pop\n      pop\n      pop\n      jump\t// out\n        /* \"#utility.yul\":88:205   */\n    tag_418:\n        /* \"#utility.yul\":197:198   */\n      0x00\n        /* \"#utility.yul\":194:195   */\n      dup1\n        /* \"#utility.yul\":187:199   */\n      revert\n        /* \"#utility.yul\":211:328   */\n    tag_419:\n        /* \"#utility.yul\":320:321   */\n      0x00\n        /* \"#utility.yul\":317:318   */\n      dup1\n        /* \"#utility.yul\":310:322   */\n      revert\n        /* \"#utility.yul\":334:460   */\n    tag_420:\n        /* \"#utility.yul\":371:378   */\n      0x00\n        /* \"#utility.yul\":411:453   */\n      0xffffffffffffffffffffffffffffffffffffffff\n        /* \"#utility.yul\":404:409   */\n      dup3\n        /* \"#utility.yul\":400:454   */\n      and\n        /* \"#utility.yul\":389:454   */\n      swap1\n      pop\n        /* \"#utility.yul\":334:460   */\n      swap2\n      swap1\n      pop\n      jump\t// out\n        /* \"#utility.yul\":466:562   */\n    tag_421:\n        /* \"#utility.yul\":503:510   */\n      0x00\n        /* \"#utility.yul\":532:556   */\n      tag_536\n        /* \"#utility.yul\":550:555   */\n      dup3\n        /* \"#utility.yul\":532:556   */\n      tag_420\n      jump\t// in\n    tag_536:\n        /* \"#utility.yul\":521:556   */\n      swap1\n      pop\n        /* \"#utility.yul\":466:562   */\n      swap2\n      swap1\n      pop\n      jump\t// out\n        /* \"#utility.yul\":568:690   */\n    tag_422:\n        /* \"#utility.yul\":641:665   */\n      tag_538\n        /* \"#utility.yul\":659:664   */\n      dup2\n        /* \"#utility.yul\":641:665   */\n      tag_421\n      jump\t// in\n    tag_538:\n        /* \"#utility.yul\":634:639   */\n      dup2\n        /* \"#utility.yul\":631:666   */\n      eq\n        /* \"#utility.yul\":621:684   */\n      tag_539\n      jumpi\n        /* \"#utility.yul\":680:681   */\n      0x00\n        /* \"#utility.yul\":677:678   */\n      dup1\n        /* \"#utility.yul\":670:682   */\n      revert\n        /* \"#utility.yul\":621:684   */\n    tag_539:\n        /* \"#utility.yul\":568:690   */\n      pop\n      jump\t// out\n        /* \"#utility.yul\":696:835   */\n    tag_423:\n        /* \"#utility.yul\":742:747   */\n      0x00\n        /* \"#utility.yul\":780:786   */\n      dup2\n        /* \"#utility.yul\":767:787   */\n      calldataload\n        /* \"#utility.yul\":758:787   */\n      swap1\n      pop\n        /* \"#utility.yul\":796:829   */\n      tag_541\n        /* \"#utility.yul\":823:828   */\n      dup2\n        /* \"#utility.yul\":796:829   */\n      tag_422\n      jump\t// in\n    tag_541:\n        /* \"#utility.yul\":696:835   */\n      swap3\n      swap2\n      pop\n      pop\n      jump\t// out\n        /* \"#utility.yul\":841:927   */\n    tag_424:\n        /* \"#utility.yul\":876:883   */\n      0x00\n        /* \"#utility.yul\":916:920   */\n      0xff\n        /* \"#utility.yul\":909:914   */\n      dup3\n        /* \"#utility.yul\":905:921   */\n      and\n        /* \"#utility.yul\":894:921   */\n      swap1\n      pop\n        /* \"#utility.yul\":841:927   */\n      swap2\n      swap1\n      pop\n      jump\t// out\n        /* \"#utility.yul\":933:1051   */\n    tag_425:\n        /* \"#utility.yul\":1004:1026   */\n      tag_544\n        /* \"#utility.yul\":1020:1025   */\n      dup2\n        /* \"#utility.yul\":1004:1026   */\n      tag_424\n      jump\t// in\n    tag_544:\n        /* \"#utility.yul\":997:1002   */\n      dup2\n        /* \"#utility.yul\":994:1027   */\n      eq\n        /* \"#utility.yul\":984:1045   */\n      tag_545\n      jumpi\n        /* \"#utility.yul\":1041:1042   */\n      0x00\n        /* \"#utility.yul\":1038:1039   */\n      dup1\n        /* \"#utility.yul\":1031:1043   */\n      revert\n        /* \"#utility.yul\":984:1045   */\n    tag_545:\n        /* \"#utility.yul\":933:1051   */\n      pop\n      jump\t// out\n        /* \"#utility.yul\":1057:1192   */\n    tag_426:\n        /* \"#utility.yul\":1101:1106   */\n      0x00\n        /* \"#utility.yul\":1139:1145   */\n      dup2\n        /* \"#utility.yul\":1126:1146   */\n      calldataload\n        /* \"#utility.yul\":1117:1146   */\n      swap1\n      pop\n        /* \"#utility.yul\":1155:1186   */\n      tag_547\n        /* \"#utility.yul\":1180:1185   */\n      dup2\n        /* \"#utility.yul\":1155:1186   */\n      tag_425\n      jump\t// in\n    tag_547:\n        /* \"#utility.yul\":1057:1192   */\n      swap3\n      swap2\n      pop\n      pop\n      jump\t// out\n        /* \"#utility.yul\":1198:1668   */\n    tag_29:\n        /* \"#utility.yul\":1264:1270   */\n      0x00\n        /* \"#utility.yul\":1272:1278   */\n      dup1\n        /* \"#utility.yul\":1321:1323   */\n      0x40\n        /* \"#utility.yul\":1309:1318   */\n      dup4\n        /* \"#utility.yul\":1300:1307   */\n      dup6\n        /* \"#utility.yul\":1296:1319   */\n      sub\n        /* \"#utility.yul\":1292:1324   */\n      slt\n        /* \"#utility.yul\":1289:1408   */\n      iszero\n      tag_549\n      jumpi\n        /* \"#utility.yul\":1327:1406   */\n      tag_550\n      tag_418\n      jump\t// in\n    tag_550:\n        /* \"#utility.yul\":1289:1408   */\n    tag_549:\n        /* \"#utility.yul\":1447:1448   */\n      0x00\n        /* \"#utility.yul\":1472:1525   */\n      tag_551\n        /* \"#utility.yul\":1517:1524   */\n      dup6\n        /* \"#utility.yul\":1508:1514   */\n      dup3\n        /* \"#utility.yul\":1497:1506   */\n      dup7\n        /* \"#utility.yul\":1493:1515   */\n      add\n        /* \"#utility.yul\":1472:1525   */\n      tag_423\n      jump\t// in\n    tag_551:\n        /* \"#utility.yul\":1462:1525   */\n      swap3\n      pop\n        /* \"#utility.yul\":1418:1535   */\n      pop\n        /* \"#utility.yul\":1574:1576   */\n      0x20\n        /* \"#utility.yul\":1600:1651   */\n      tag_552\n        /* \"#utility.yul\":1643:1650   */\n      dup6\n        /* \"#utility.yul\":1634:1640   */\n      dup3\n        /* \"#utility.yul\":1623:1632   */\n      dup7\n        /* \"#utility.yul\":1619:1641   */\n      add\n        /* \"#utility.yul\":1600:1651   */\n      tag_426\n      jump\t// in\n    tag_552:\n        /* \"#utility.yul\":1590:1651   */\n      swap2\n      pop\n        /* \"#utility.yul\":1545:1661   */\n      pop\n        /* \"#utility.yul\":1198:1668   */\n      swap3\n      pop\n      swap3\n      swap1\n      pop\n      jump\t// out\n        /* \"#utility.yul\":1674:1751   */\n    tag_427:\n        /* \"#utility.yul\":1711:1718   */\n      0x00\n        /* \"#utility.yul\":1740:1745   */\n      dup2\n        /* \"#utility.yul\":1729:1745   */\n      swap1\n      pop\n        /* \"#utility.yul\":1674:1751   */\n      swap2\n      swap1\n      pop\n      jump\t// out\n        /* \"#utility.yul\":1757:1875   */\n    tag_428:\n        /* \"#utility.yul\":1844:1868   */\n      tag_555\n        /* \"#utility.yul\":1862:1867   */\n      dup2\n        /* \"#utility.yul\":1844:1868   */\n      tag_427\n      jump\t// in\n    tag_555:\n        /* \"#utility.yul\":1839:1842   */\n      dup3\n        /* \"#utility.yul\":1832:1869   */\n      mstore\n        /* \"#utility.yul\":1757:1875   */\n      pop\n      pop\n      jump\t// out\n        /* \"#utility.yul\":1881:2103   */\n    tag_32:\n        /* \"#utility.yul\":1974:1978   */\n      0x00\n        /* \"#utility.yul\":2012:2014   */\n      0x20\n        /* \"#utility.yul\":2001:2010   */\n      dup3\n        /* \"#utility.yul\":1997:2015   */\n      add\n        /* \"#utility.yul\":1989:2015   */\n      swap1\n      pop\n        /* \"#utility.yul\":2025:2096   */\n      tag_557\n        /* \"#utility.yul\":2093:2094   */\n      0x00\n        /* \"#utility.yul\":2082:2091   */\n      dup4\n        /* \"#utility.yul\":2078:2095   */\n      add\n        /* \"#utility.yul\":2069:2075   */\n      dup5\n        /* \"#utility.yul\":2025:2096   */\n      tag_428\n      jump\t// in\n    tag_557:\n        /* \"#utility.yul\":1881:2103   */\n      swap3\n      swap2\n      pop\n      pop\n      jump\t// out\n        /* \"#utility.yul\":2109:2226   */\n    tag_429:\n        /* \"#utility.yul\":2218:2219   */\n      0x00\n        /* \"#utility.yul\":2215:2216   */\n      dup1\n        /* \"#utility.yul\":2208:2220   */\n      revert\n        /* \"#utility.yul\":2232:2349   */\n    tag_430:\n        /* \"#utility.yul\":2341:2342   */\n      0x00\n        /* \"#utility.yul\":2338:2339   */\n      dup1\n        /* \"#utility.yul\":2331:2343   */\n      revert\n        /* \"#utility.yul\":2355:2472   */\n    tag_431:\n        /* \"#utility.yul\":2464:2465   */\n      0x00\n        /* \"#utility.yul\":2461:2462   */\n      dup1\n        /* \"#utility.yul\":2454:2466   */\n      revert\n        /* \"#utility.yul\":2493:3059   */\n    tag_432:\n        /* \"#utility.yul\":2564:2572   */\n      0x00\n        /* \"#utility.yul\":2574:2580   */\n      dup1\n        /* \"#utility.yul\":2624:2627   */\n      dup4\n        /* \"#utility.yul\":2617:2621   */\n      0x1f\n        /* \"#utility.yul\":2609:2615   */\n      dup5\n        /* \"#utility.yul\":2605:2622   */\n      add\n        /* \"#utility.yul\":2601:2628   */\n      slt\n        /* \"#utility.yul\":2591:2713   */\n      tag_562\n      jumpi\n        /* \"#utility.yul\":2632:2711   */\n      tag_563\n      tag_429\n      jump\t// in\n    tag_563:\n        /* \"#utility.yul\":2591:2713   */\n    tag_562:\n        /* \"#utility.yul\":2745:2751   */\n      dup3\n        /* \"#utility.yul\":2732:2752   */\n      calldataload\n        /* \"#utility.yul\":2722:2752   */\n      swap1\n      pop\n        /* \"#utility.yul\":2775:2793   */\n      0xffffffffffffffff\n        /* \"#utility.yul\":2767:2773   */\n      dup2\n        /* \"#utility.yul\":2764:2794   */\n      gt\n        /* \"#utility.yul\":2761:2878   */\n      iszero\n      tag_564\n      jumpi\n        /* \"#utility.yul\":2797:2876   */\n      tag_565\n      tag_430\n      jump\t// in\n    tag_565:\n        /* \"#utility.yul\":2761:2878   */\n    tag_564:\n        /* \"#utility.yul\":2911:2915   */\n      0x20\n        /* \"#utility.yul\":2903:2909   */\n      dup4\n        /* \"#utility.yul\":2899:2916   */\n      add\n        /* \"#utility.yul\":2887:2916   */\n      swap2\n      pop\n        /* \"#utility.yul\":2965:2968   */\n      dup4\n        /* \"#utility.yul\":2957:2961   */\n      0x20\n        /* \"#utility.yul\":2949:2955   */\n      dup3\n        /* \"#utility.yul\":2945:2962   */\n      mul\n        /* \"#utility.yul\":2935:2943   */\n      dup4\n        /* \"#utility.yul\":2931:2963   */\n      add\n        /* \"#utility.yul\":2928:2969   */\n      gt\n        /* \"#utility.yul\":2925:3053   */\n      iszero\n      tag_566\n      jumpi\n        /* \"#utility.yul\":2972:3051   */\n      tag_567\n      tag_431\n      jump\t// in\n    tag_567:\n        /* \"#utility.yul\":2925:3053   */\n    tag_566:\n        /* \"#utility.yul\":2493:3059   */\n      swap3\n      pop\n      swap3\n      swap1\n      pop\n      jump\t// out\n        /* \"#utility.yul\":3082:3650   */\n    tag_433:\n        /* \"#utility.yul\":3155:3163   */\n      0x00\n        /* \"#utility.yul\":3165:3171   */\n      dup1\n        /* \"#utility.yul\":3215:3218   */\n      dup4\n        /* \"#utility.yul\":3208:3212   */\n      0x1f\n        /* \"#utility.yul\":3200:3206   */\n      dup5\n        /* \"#utility.yul\":3196:3213   */\n      add\n        /* \"#utility.yul\":3192:3219   */\n      slt\n        /* \"#utility.yul\":3182:3304   */\n      tag_569\n      jumpi\n        /* \"#utility.yul\":3223:3302   */\n      tag_570\n      tag_429\n      jump\t// in\n    tag_570:\n        /* \"#utility.yul\":3182:3304   */\n    tag_569:\n        /* \"#utility.yul\":3336:3342   */\n      dup3\n        /* \"#utility.yul\":3323:3343   */\n      calldataload\n        /* \"#utility.yul\":3313:3343   */\n      swap1\n      pop\n        /* \"#utility.yul\":3366:3384   */\n      0xffffffffffffffff\n        /* \"#utility.yul\":3358:3364   */\n      dup2\n        /* \"#utility.yul\":3355:3385   */\n      gt\n        /* \"#utility.yul\":3352:3469   */\n      iszero\n      tag_571\n      jumpi\n        /* \"#utility.yul\":3388:3467   */\n      tag_572\n      tag_430\n      jump\t// in\n    tag_572:\n        /* \"#utility.yul\":3352:3469   */\n    tag_571:\n        /* \"#utility.yul\":3502:3506   */\n      0x20\n        /* \"#utility.yul\":3494:3500   */\n      dup4\n        /* \"#utility.yul\":3490:3507   */\n      add\n        /* \"#utility.yul\":3478:3507   */\n      swap2\n      pop\n        /* \"#utility.yul\":3556:3559   */\n      dup4\n        /* \"#utility.yul\":3548:3552   */\n      0x20\n        /* \"#utility.yul\":3540:3546   */\n      dup3\n        /* \"#utility.yul\":3536:3553   */\n      mul\n        /* \"#utility.yul\":3526:3534   */\n      dup4\n        /* \"#utility.yul\":3522:3554   */\n      add\n        /* \"#utility.yul\":3519:3560   */\n      gt\n        /* \"#utility.yul\":3516:3644   */\n      iszero\n      tag_573\n      jumpi\n        /* \"#utility.yul\":3563:3642   */\n      tag_574\n      tag_431\n      jump\t// in\n    tag_574:\n        /* \"#utility.yul\":3516:3644   */\n    tag_573:\n        /* \"#utility.yul\":3082:3650   */\n      swap3\n      pop\n      swap3\n      swap1\n      pop\n      jump\t// out\n        /* \"#utility.yul\":3675:4270   */\n    tag_434:\n        /* \"#utility.yul\":3775:3783   */\n      0x00\n        /* \"#utility.yul\":3785:3791   */\n      dup1\n        /* \"#utility.yul\":3835:3838   */\n      dup4\n        /* \"#utility.yul\":3828:3832   */\n      0x1f\n        /* \"#utility.yul\":3820:3826   */\n      dup5\n        /* \"#utility.yul\":3816:3833   */\n      add\n        /* \"#utility.yul\":3812:3839   */\n      slt\n        /* \"#utility.yul\":3802:3924   */\n      tag_576\n      jumpi\n        /* \"#utility.yul\":3843:3922   */\n      tag_577\n      tag_429\n      jump\t// in\n    tag_577:\n        /* \"#utility.yul\":3802:3924   */\n    tag_576:\n        /* \"#utility.yul\":3956:3962   */\n      dup3\n        /* \"#utility.yul\":3943:3963   */\n      calldataload\n        /* \"#utility.yul\":3933:3963   */\n      swap1\n      pop\n        /* \"#utility.yul\":3986:4004   */\n      0xffffffffffffffff\n        /* \"#utility.yul\":3978:3984   */\n      dup2\n        /* \"#utility.yul\":3975:4005   */\n      gt\n        /* \"#utility.yul\":3972:4089   */\n      iszero\n      tag_578\n      jumpi\n        /* \"#utility.yul\":4008:4087   */\n      tag_579\n      tag_430\n      jump\t// in\n    tag_579:\n        /* \"#utility.yul\":3972:4089   */\n    tag_578:\n        /* \"#utility.yul\":4122:4126   */\n      0x20\n        /* \"#utility.yul\":4114:4120   */\n      dup4\n        /* \"#utility.yul\":4110:4127   */\n      add\n        /* \"#utility.yul\":4098:4127   */\n      swap2\n      pop\n        /* \"#utility.yul\":4176:4179   */\n      dup4\n        /* \"#utility.yul\":4168:4172   */\n      0x20\n        /* \"#utility.yul\":4160:4166   */\n      dup3\n        /* \"#utility.yul\":4156:4173   */\n      mul\n        /* \"#utility.yul\":4146:4154   */\n      dup4\n        /* \"#utility.yul\":4142:4174   */\n      add\n        /* \"#utility.yul\":4139:4180   */\n      gt\n        /* \"#utility.yul\":4136:4264   */\n      iszero\n      tag_580\n      jumpi\n        /* \"#utility.yul\":4183:4262   */\n      tag_581\n      tag_431\n      jump\t// in\n    tag_581:\n        /* \"#utility.yul\":4136:4264   */\n    tag_580:\n        /* \"#utility.yul\":3675:4270   */\n      swap3\n      pop\n      swap3\n      swap1\n      pop\n      jump\t// out\n        /* \"#utility.yul\":4276:5781   */\n    tag_35:\n        /* \"#utility.yul\":4468:4474   */\n      0x00\n        /* \"#utility.yul\":4476:4482   */\n      dup1\n        /* \"#utility.yul\":4484:4490   */\n      0x00\n        /* \"#utility.yul\":4492:4498   */\n      dup1\n        /* \"#utility.yul\":4500:4506   */\n      0x00\n        /* \"#utility.yul\":4508:4514   */\n      dup1\n        /* \"#utility.yul\":4516:4522   */\n      0x00\n        /* \"#utility.yul\":4565:4568   */\n      0x80\n        /* \"#utility.yul\":4553:4562   */\n      dup9\n        /* \"#utility.yul\":4544:4551   */\n      dup11\n        /* \"#utility.yul\":4540:4563   */\n      sub\n        /* \"#utility.yul\":4536:4569   */\n      slt\n        /* \"#utility.yul\":4533:4653   */\n      iszero\n      tag_583\n      jumpi\n        /* \"#utility.yul\":4572:4651   */\n      tag_584\n      tag_418\n      jump\t// in\n    tag_584:\n        /* \"#utility.yul\":4533:4653   */\n    tag_583:\n        /* \"#utility.yul\":4692:4693   */\n      0x00\n        /* \"#utility.yul\":4717:4770   */\n      tag_585\n        /* \"#utility.yul\":4762:4769   */\n      dup11\n        /* \"#utility.yul\":4753:4759   */\n      dup3\n        /* \"#utility.yul\":4742:4751   */\n      dup12\n        /* \"#utility.yul\":4738:4760   */\n      add\n        /* \"#utility.yul\":4717:4770   */\n      tag_423\n      jump\t// in\n    tag_585:\n        /* \"#utility.yul\":4707:4770   */\n      swap8\n      pop\n        /* \"#utility.yul\":4663:4780   */\n      pop\n        /* \"#utility.yul\":4847:4849   */\n      0x20\n        /* \"#utility.yul\":4836:4845   */\n      dup9\n        /* \"#utility.yul\":4832:4850   */\n      add\n        /* \"#utility.yul\":4819:4851   */\n      calldataload\n        /* \"#utility.yul\":4878:4896   */\n      0xffffffffffffffff\n        /* \"#utility.yul\":4870:4876   */\n      dup2\n        /* \"#utility.yul\":4867:4897   */\n      gt\n        /* \"#utility.yul\":4864:4981   */\n      iszero\n      tag_586\n      jumpi\n        /* \"#utility.yul\":4900:4979   */\n      tag_587\n      tag_419\n      jump\t// in\n    tag_587:\n        /* \"#utility.yul\":4864:4981   */\n    tag_586:\n        /* \"#utility.yul\":5013:5091   */\n      tag_588\n        /* \"#utility.yul\":5083:5090   */\n      dup11\n        /* \"#utility.yul\":5074:5080   */\n      dup3\n        /* \"#utility.yul\":5063:5072   */\n      dup12\n        /* \"#utility.yul\":5059:5081   */\n      add\n        /* \"#utility.yul\":5013:5091   */\n      tag_432\n      jump\t// in\n    tag_588:\n        /* \"#utility.yul\":4995:5091   */\n      swap7\n      pop\n      swap7\n      pop\n        /* \"#utility.yul\":4790:5101   */\n      pop\n        /* \"#utility.yul\":5168:5170   */\n      0x40\n        /* \"#utility.yul\":5157:5166   */\n      dup9\n        /* \"#utility.yul\":5153:5171   */\n      add\n        /* \"#utility.yul\":5140:5172   */\n      calldataload\n        /* \"#utility.yul\":5199:5217   */\n      0xffffffffffffffff\n        /* \"#utility.yul\":5191:5197   */\n      dup2\n        /* \"#utility.yul\":5188:5218   */\n      gt\n        /* \"#utility.yul\":5185:5302   */\n      iszero\n      tag_589\n      jumpi\n        /* \"#utility.yul\":5221:5300   */\n      tag_590\n      tag_419\n      jump\t// in\n    tag_590:\n        /* \"#utility.yul\":5185:5302   */\n    tag_589:\n        /* \"#utility.yul\":5334:5414   */\n      tag_591\n        /* \"#utility.yul\":5406:5413   */\n      dup11\n        /* \"#utility.yul\":5397:5403   */\n      dup3\n        /* \"#utility.yul\":5386:5395   */\n      dup12\n        /* \"#utility.yul\":5382:5404   */\n      add\n        /* \"#utility.yul\":5334:5414   */\n      tag_433\n      jump\t// in\n    tag_591:\n        /* \"#utility.yul\":5316:5414   */\n      swap5\n      pop\n      swap5\n      pop\n        /* \"#utility.yul\":5111:5424   */\n      pop\n        /* \"#utility.yul\":5491:5493   */\n      0x60\n        /* \"#utility.yul\":5480:5489   */\n      dup9\n        /* \"#utility.yul\":5476:5494   */\n      add\n        /* \"#utility.yul\":5463:5495   */\n      calldataload\n        /* \"#utility.yul\":5522:5540   */\n      0xffffffffffffffff\n        /* \"#utility.yul\":5514:5520   */\n      dup2\n        /* \"#utility.yul\":5511:5541   */\n      gt\n        /* \"#utility.yul\":5508:5625   */\n      iszero\n      tag_592\n      jumpi\n        /* \"#utility.yul\":5544:5623   */\n      tag_593\n      tag_419\n      jump\t// in\n    tag_593:\n        /* \"#utility.yul\":5508:5625   */\n    tag_592:\n        /* \"#utility.yul\":5657:5764   */\n      tag_594\n        /* \"#utility.yul\":5756:5763   */\n      dup11\n        /* \"#utility.yul\":5747:5753   */\n      dup3\n        /* \"#utility.yul\":5736:5745   */\n      dup12\n        /* \"#utility.yul\":5732:5754   */\n      add\n        /* \"#utility.yul\":5657:5764   */\n      tag_434\n      jump\t// in\n    tag_594:\n        /* \"#utility.yul\":5639:5764   */\n      swap3\n      pop\n      swap3\n      pop\n        /* \"#utility.yul\":5434:5774   */\n      pop\n        /* \"#utility.yul\":4276:5781   */\n      swap3\n      swap6\n      swap9\n      swap2\n      swap5\n      swap8\n      pop\n      swap3\n      swap6\n      pop\n      jump\t// out\n        /* \"#utility.yul\":5787:5898   */\n    tag_435:\n        /* \"#utility.yul\":5851:5857   */\n      0x00\n        /* \"#utility.yul\":5885:5890   */\n      dup2\n        /* \"#utility.yul\":5879:5891   */\n      mload\n        /* \"#utility.yul\":5869:5891   */\n      swap1\n      pop\n        /* \"#utility.yul\":5787:5898   */\n      swap2\n      swap1\n      pop\n      jump\t// out\n        /* \"#utility.yul\":5904:6085   */\n    tag_436:\n        /* \"#utility.yul\":6000:6011   */\n      0x00\n        /* \"#utility.yul\":6034:6040   */\n      dup3\n        /* \"#utility.yul\":6029:6032   */\n      dup3\n        /* \"#utility.yul\":6022:6041   */\n      mstore\n        /* \"#utility.yul\":6074:6078   */\n      0x20\n        /* \"#utility.yul\":6069:6072   */\n      dup3\n        /* \"#utility.yul\":6065:6079   */\n      add\n        /* \"#utility.yul\":6050:6079   */\n      swap1\n      pop\n        /* \"#utility.yul\":5904:6085   */\n      swap3\n      swap2\n      pop\n      pop\n      jump\t// out\n        /* \"#utility.yul\":6091:6220   */\n    tag_437:\n        /* \"#utility.yul\":6155:6159   */\n      0x00\n        /* \"#utility.yul\":6178:6181   */\n      dup2\n        /* \"#utility.yul\":6170:6181   */\n      swap1\n      pop\n        /* \"#utility.yul\":6208:6212   */\n      0x20\n        /* \"#utility.yul\":6203:6206   */\n      dup3\n        /* \"#utility.yul\":6199:6213   */\n      add\n        /* \"#utility.yul\":6191:6213   */\n      swap1\n      pop\n        /* \"#utility.yul\":6091:6220   */\n      swap2\n      swap1\n      pop\n      jump\t// out\n        /* \"#utility.yul\":6226:6316   */\n    tag_438:\n        /* \"#utility.yul\":6260:6267   */\n      0x00\n        /* \"#utility.yul\":6303:6308   */\n      dup2\n        /* \"#utility.yul\":6296:6309   */\n      iszero\n        /* \"#utility.yul\":6289:6310   */\n      iszero\n        /* \"#utility.yul\":6278:6310   */\n      swap1\n      pop\n        /* \"#utility.yul\":6226:6316   */\n      swap2\n      swap1\n      pop\n      jump\t// out\n        /* \"#utility.yul\":6322:6421   */\n    tag_439:\n        /* \"#utility.yul\":6393:6414   */\n      tag_600\n        /* \"#utility.yul\":6408:6413   */\n      dup2\n        /* \"#utility.yul\":6393:6414   */\n      tag_438\n      jump\t// in\n    tag_600:\n        /* \"#utility.yul\":6388:6391   */\n      dup3\n        /* \"#utility.yul\":6381:6415   */\n      mstore\n        /* \"#utility.yul\":6322:6421   */\n      pop\n      pop\n      jump\t// out\n        /* \"#utility.yul\":6427:6594   */\n    tag_440:\n        /* \"#utility.yul\":6490:6500   */\n      0x00\n        /* \"#utility.yul\":6511:6551   */\n      tag_602\n        /* \"#utility.yul\":6547:6550   */\n      dup4\n        /* \"#utility.yul\":6539:6545   */\n      dup4\n        /* \"#utility.yul\":6511:6551   */\n      tag_439\n      jump\t// in\n    tag_602:\n        /* \"#utility.yul\":6583:6587   */\n      0x20\n        /* \"#utility.yul\":6578:6581   */\n      dup4\n        /* \"#utility.yul\":6574:6588   */\n      add\n        /* \"#utility.yul\":6560:6588   */\n      swap1\n      pop\n        /* \"#utility.yul\":6427:6594   */\n      swap3\n      swap2\n      pop\n      pop\n      jump\t// out\n        /* \"#utility.yul\":6600:6710   */\n    tag_441:\n        /* \"#utility.yul\":6667:6671   */\n      0x00\n        /* \"#utility.yul\":6699:6703   */\n      0x20\n        /* \"#utility.yul\":6694:6697   */\n      dup3\n        /* \"#utility.yul\":6690:6704   */\n      add\n        /* \"#utility.yul\":6682:6704   */\n      swap1\n      pop\n        /* \"#utility.yul\":6600:6710   */\n      swap2\n      swap1\n      pop\n      jump\t// out\n        /* \"#utility.yul\":6740:7448   */\n    tag_442:\n        /* \"#utility.yul\":6853:6856   */\n      0x00\n        /* \"#utility.yul\":6882:6933   */\n      tag_605\n        /* \"#utility.yul\":6927:6932   */\n      dup3\n        /* \"#utility.yul\":6882:6933   */\n      tag_435\n      jump\t// in\n    tag_605:\n        /* \"#utility.yul\":6949:7032   */\n      tag_606\n        /* \"#utility.yul\":7025:7031   */\n      dup2\n        /* \"#utility.yul\":7020:7023   */\n      dup6\n        /* \"#utility.yul\":6949:7032   */\n      tag_436\n      jump\t// in\n    tag_606:\n        /* \"#utility.yul\":6942:7032   */\n      swap4\n      pop\n        /* \"#utility.yul\":7056:7109   */\n      tag_607\n        /* \"#utility.yul\":7103:7108   */\n      dup4\n        /* \"#utility.yul\":7056:7109   */\n      tag_437\n      jump\t// in\n    tag_607:\n        /* \"#utility.yul\":7132:7139   */\n      dup1\n        /* \"#utility.yul\":7163:7164   */\n      0x00\n        /* \"#utility.yul\":7148:7423   */\n    tag_608:\n        /* \"#utility.yul\":7173:7179   */\n      dup4\n        /* \"#utility.yul\":7170:7171   */\n      dup2\n        /* \"#utility.yul\":7167:7180   */\n      lt\n        /* \"#utility.yul\":7148:7423   */\n      iszero\n      tag_610\n      jumpi\n        /* \"#utility.yul\":7249:7255   */\n      dup2\n        /* \"#utility.yul\":7243:7256   */\n      mload\n        /* \"#utility.yul\":7276:7333   */\n      tag_611\n        /* \"#utility.yul\":7329:7332   */\n      dup9\n        /* \"#utility.yul\":7314:7327   */\n      dup3\n        /* \"#utility.yul\":7276:7333   */\n      tag_440\n      jump\t// in\n    tag_611:\n        /* \"#utility.yul\":7269:7333   */\n      swap8\n      pop\n        /* \"#utility.yul\":7356:7413   */\n      tag_612\n        /* \"#utility.yul\":7406:7412   */\n      dup4\n        /* \"#utility.yul\":7356:7413   */\n      tag_441\n      jump\t// in\n    tag_612:\n        /* \"#utility.yul\":7346:7413   */\n      swap3\n      pop\n        /* \"#utility.yul\":7208:7423   */\n      pop\n        /* \"#utility.yul\":7195:7196   */\n      0x01\n        /* \"#utility.yul\":7192:7193   */\n      dup2\n        /* \"#utility.yul\":7188:7197   */\n      add\n        /* \"#utility.yul\":7183:7197   */\n      swap1\n      pop\n        /* \"#utility.yul\":7148:7423   */\n      jump(tag_608)\n    tag_610:\n        /* \"#utility.yul\":7152:7166   */\n      pop\n        /* \"#utility.yul\":7439:7442   */\n      dup6\n        /* \"#utility.yul\":7432:7442   */\n      swap4\n      pop\n        /* \"#utility.yul\":6858:7448   */\n      pop\n      pop\n      pop\n        /* \"#utility.yul\":6740:7448   */\n      swap3\n      swap2\n      pop\n      pop\n      jump\t// out\n        /* \"#utility.yul\":7454:7568   */\n    tag_443:\n        /* \"#utility.yul\":7521:7527   */\n      0x00\n        /* \"#utility.yul\":7555:7560   */\n      dup2\n        /* \"#utility.yul\":7549:7561   */\n      mload\n        /* \"#utility.yul\":7539:7561   */\n      swap1\n      pop\n        /* \"#utility.yul\":7454:7568   */\n      swap2\n      swap1\n      pop\n      jump\t// out\n        /* \"#utility.yul\":7574:7758   */\n    tag_444:\n        /* \"#utility.yul\":7673:7684   */\n      0x00\n        /* \"#utility.yul\":7707:7713   */\n      dup3\n        /* \"#utility.yul\":7702:7705   */\n      dup3\n        /* \"#utility.yul\":7695:7714   */\n      mstore\n        /* \"#utility.yul\":7747:7751   */\n      0x20\n        /* \"#utility.yul\":7742:7745   */\n      dup3\n        /* \"#utility.yul\":7738:7752   */\n      add\n        /* \"#utility.yul\":7723:7752   */\n      swap1\n      pop\n        /* \"#utility.yul\":7574:7758   */\n      swap3\n      swap2\n      pop\n      pop\n      jump\t// out\n        /* \"#utility.yul\":7764:7896   */\n    tag_445:\n        /* \"#utility.yul\":7831:7835   */\n      0x00\n        /* \"#utility.yul\":7854:7857   */\n      dup2\n        /* \"#utility.yul\":7846:7857   */\n      swap1\n      pop\n        /* \"#utility.yul\":7884:7888   */\n      0x20\n        /* \"#utility.yul\":7879:7882   */\n      dup3\n        /* \"#utility.yul\":7875:7889   */\n      add\n        /* \"#utility.yul\":7867:7889   */\n      swap1\n      pop\n        /* \"#utility.yul\":7764:7896   */\n      swap2\n      swap1\n      pop\n      jump\t// out\n        /* \"#utility.yul\":7902:8010   */\n    tag_446:\n        /* \"#utility.yul\":7979:8003   */\n      tag_617\n        /* \"#utility.yul\":7997:8002   */\n      dup2\n        /* \"#utility.yul\":7979:8003   */\n      tag_427\n      jump\t// in\n    tag_617:\n        /* \"#utility.yul\":7974:7977   */\n      dup3\n        /* \"#utility.yul\":7967:8004   */\n      mstore\n        /* \"#utility.yul\":7902:8010   */\n      pop\n      pop\n      jump\t// out\n        /* \"#utility.yul\":8016:8195   */\n    tag_447:\n        /* \"#utility.yul\":8085:8095   */\n      0x00\n        /* \"#utility.yul\":8106:8152   */\n      tag_619\n        /* \"#utility.yul\":8148:8151   */\n      dup4\n        /* \"#utility.yul\":8140:8146   */\n      dup4\n        /* \"#utility.yul\":8106:8152   */\n      tag_446\n      jump\t// in\n    tag_619:\n        /* \"#utility.yul\":8184:8188   */\n      0x20\n        /* \"#utility.yul\":8179:8182   */\n      dup4\n        /* \"#utility.yul\":8175:8189   */\n      add\n        /* \"#utility.yul\":8161:8189   */\n      swap1\n      pop\n        /* \"#utility.yul\":8016:8195   */\n      swap3\n      swap2\n      pop\n      pop\n      jump\t// out\n        /* \"#utility.yul\":8201:8314   */\n    tag_448:\n        /* \"#utility.yul\":8271:8275   */\n      0x00\n        /* \"#utility.yul\":8303:8307   */\n      0x20\n        /* \"#utility.yul\":8298:8301   */\n      dup3\n        /* \"#utility.yul\":8294:8308   */\n      add\n        /* \"#utility.yul\":8286:8308   */\n      swap1\n      pop\n        /* \"#utility.yul\":8201:8314   */\n      swap2\n      swap1\n      pop\n      jump\t// out\n        /* \"#utility.yul\":8350:9082   */\n    tag_449:\n        /* \"#utility.yul\":8469:8472   */\n      0x00\n        /* \"#utility.yul\":8498:8552   */\n      tag_622\n        /* \"#utility.yul\":8546:8551   */\n      dup3\n        /* \"#utility.yul\":8498:8552   */\n      tag_443\n      jump\t// in\n    tag_622:\n        /* \"#utility.yul\":8568:8654   */\n      tag_623\n        /* \"#utility.yul\":8647:8653   */\n      dup2\n        /* \"#utility.yul\":8642:8645   */\n      dup6\n        /* \"#utility.yul\":8568:8654   */\n      tag_444\n      jump\t// in\n    tag_623:\n        /* \"#utility.yul\":8561:8654   */\n      swap4\n      pop\n        /* \"#utility.yul\":8678:8734   */\n      tag_624\n        /* \"#utility.yul\":8728:8733   */\n      dup4\n        /* \"#utility.yul\":8678:8734   */\n      tag_445\n      jump\t// in\n    tag_624:\n        /* \"#utility.yul\":8757:8764   */\n      dup1\n        /* \"#utility.yul\":8788:8789   */\n      0x00\n        /* \"#utility.yul\":8773:9057   */\n    tag_625:\n        /* \"#utility.yul\":8798:8804   */\n      dup4\n        /* \"#utility.yul\":8795:8796   */\n      dup2\n        /* \"#utility.yul\":8792:8805   */\n      lt\n        /* \"#utility.yul\":8773:9057   */\n      iszero\n      tag_627\n      jumpi\n        /* \"#utility.yul\":8874:8880   */\n      dup2\n        /* \"#utility.yul\":8868:8881   */\n      mload\n        /* \"#utility.yul\":8901:8964   */\n      tag_628\n        /* \"#utility.yul\":8960:8963   */\n      dup9\n        /* \"#utility.yul\":8945:8958   */\n      dup3\n        /* \"#utility.yul\":8901:8964   */\n      tag_447\n      jump\t// in\n    tag_628:\n        /* \"#utility.yul\":8894:8964   */\n      swap8\n      pop\n        /* \"#utility.yul\":8987:9047   */\n      tag_629\n        /* \"#utility.yul\":9040:9046   */\n      dup4\n        /* \"#utility.yul\":8987:9047   */\n      tag_448\n      jump\t// in\n    tag_629:\n        /* \"#utility.yul\":8977:9047   */\n      swap3\n      pop\n        /* \"#utility.yul\":8833:9057   */\n      pop\n        /* \"#utility.yul\":8820:8821   */\n      0x01\n        /* \"#utility.yul\":8817:8818   */\n      dup2\n        /* \"#utility.yul\":8813:8822   */\n      add\n        /* \"#utility.yul\":8808:8822   */\n      swap1\n      pop\n        /* \"#utility.yul\":8773:9057   */\n      jump(tag_625)\n    tag_627:\n        /* \"#utility.yul\":8777:8791   */\n      pop\n        /* \"#utility.yul\":9073:9076   */\n      dup6\n        /* \"#utility.yul\":9066:9076   */\n      swap4\n      pop\n        /* \"#utility.yul\":8474:9082   */\n      pop\n      pop\n      pop\n        /* \"#utility.yul\":8350:9082   */\n      swap3\n      swap2\n      pop\n      pop\n      jump\t// out\n        /* \"#utility.yul\":9088:9710   */\n    tag_38:\n        /* \"#utility.yul\":9303:9307   */\n      0x00\n        /* \"#utility.yul\":9341:9343   */\n      0x40\n        /* \"#utility.yul\":9330:9339   */\n      dup3\n        /* \"#utility.yul\":9326:9344   */\n      add\n        /* \"#utility.yul\":9318:9344   */\n      swap1\n      pop\n        /* \"#utility.yul\":9390:9399   */\n      dup2\n        /* \"#utility.yul\":9384:9388   */\n      dup2\n        /* \"#utility.yul\":9380:9400   */\n      sub\n        /* \"#utility.yul\":9376:9377   */\n      0x00\n        /* \"#utility.yul\":9365:9374   */\n      dup4\n        /* \"#utility.yul\":9361:9378   */\n      add\n        /* \"#utility.yul\":9354:9401   */\n      mstore\n        /* \"#utility.yul\":9418:9520   */\n      tag_631\n        /* \"#utility.yul\":9515:9519   */\n      dup2\n        /* \"#utility.yul\":9506:9512   */\n      dup6\n        /* \"#utility.yul\":9418:9520   */\n      tag_442\n      jump\t// in\n    tag_631:\n        /* \"#utility.yul\":9410:9520   */\n      swap1\n      pop\n        /* \"#utility.yul\":9567:9576   */\n      dup2\n        /* \"#utility.yul\":9561:9565   */\n      dup2\n        /* \"#utility.yul\":9557:9577   */\n      sub\n        /* \"#utility.yul\":9552:9554   */\n      0x20\n        /* \"#utility.yul\":9541:9550   */\n      dup4\n        /* \"#utility.yul\":9537:9555   */\n      add\n        /* \"#utility.yul\":9530:9578   */\n      mstore\n        /* \"#utility.yul\":9595:9703   */\n      tag_632\n        /* \"#utility.yul\":9698:9702   */\n      dup2\n        /* \"#utility.yul\":9689:9695   */\n      dup5\n        /* \"#utility.yul\":9595:9703   */\n      tag_449\n      jump\t// in\n    tag_632:\n        /* \"#utility.yul\":9587:9703   */\n      swap1\n      pop\n        /* \"#utility.yul\":9088:9710   */\n      swap4\n      swap3\n      pop\n      pop\n      pop\n      jump\t// out\n        /* \"#utility.yul\":9716:9828   */\n    tag_450:\n        /* \"#utility.yul\":9799:9821   */\n      tag_634\n        /* \"#utility.yul\":9815:9820   */\n      dup2\n        /* \"#utility.yul\":9799:9821   */\n      tag_424\n      jump\t// in\n    tag_634:\n        /* \"#utility.yul\":9794:9797   */\n      dup3\n        /* \"#utility.yul\":9787:9822   */\n      mstore\n        /* \"#utility.yul\":9716:9828   */\n      pop\n      pop\n      jump\t// out\n        /* \"#utility.yul\":9834:10048   */\n    tag_48:\n        /* \"#utility.yul\":9923:9927   */\n      0x00\n        /* \"#utility.yul\":9961:9963   */\n      0x20\n        /* \"#utility.yul\":9950:9959   */\n      dup3\n        /* \"#utility.yul\":9946:9964   */\n      add\n        /* \"#utility.yul\":9938:9964   */\n      swap1\n      pop\n        /* \"#utility.yul\":9974:10041   */\n      tag_636\n        /* \"#utility.yul\":10038:10039   */\n      0x00\n        /* \"#utility.yul\":10027:10036   */\n      dup4\n        /* \"#utility.yul\":10023:10040   */\n      add\n        /* \"#utility.yul\":10014:10020   */\n      dup5\n        /* \"#utility.yul\":9974:10041   */\n      tag_450\n      jump\t// in\n    tag_636:\n        /* \"#utility.yul\":9834:10048   */\n      swap3\n      swap2\n      pop\n      pop\n      jump\t// out\n        /* \"#utility.yul\":10054:10383   */\n    tag_53:\n        /* \"#utility.yul\":10113:10119   */\n      0x00\n        /* \"#utility.yul\":10162:10164   */\n      0x20\n        /* \"#utility.yul\":10150:10159   */\n      dup3\n        /* \"#utility.yul\":10141:10148   */\n      dup5\n        /* \"#utility.yul\":10137:10160   */\n      sub\n        /* \"#utility.yul\":10133:10165   */\n      slt\n        /* \"#utility.yul\":10130:10249   */\n      iszero\n      tag_638\n      jumpi\n        /* \"#utility.yul\":10168:10247   */\n      tag_639\n      tag_418\n      jump\t// in\n    tag_639:\n        /* \"#utility.yul\":10130:10249   */\n    tag_638:\n        /* \"#utility.yul\":10288:10289   */\n      0x00\n        /* \"#utility.yul\":10313:10366   */\n      tag_640\n        /* \"#utility.yul\":10358:10365   */\n      dup5\n        /* \"#utility.yul\":10349:10355   */\n      dup3\n        /* \"#utility.yul\":10338:10347   */\n      dup6\n        /* \"#utility.yul\":10334:10356   */\n      add\n        /* \"#utility.yul\":10313:10366   */\n      tag_423\n      jump\t// in\n    tag_640:\n        /* \"#utility.yul\":10303:10366   */\n      swap2\n      pop\n        /* \"#utility.yul\":10259:10376   */\n      pop\n        /* \"#utility.yul\":10054:10383   */\n      swap3\n      swap2\n      pop\n      pop\n      jump\t// out\n        /* \"#utility.yul\":10389:10449   */\n    tag_451:\n        /* \"#utility.yul\":10417:10420   */\n      0x00\n        /* \"#utility.yul\":10438:10443   */\n      dup2\n        /* \"#utility.yul\":10431:10443   */\n      swap1\n      pop\n        /* \"#utility.yul\":10389:10449   */\n      swap2\n      swap1\n      pop\n      jump\t// out\n        /* \"#utility.yul\":10455:10597   */\n    tag_452:\n        /* \"#utility.yul\":10505:10514   */\n      0x00\n        /* \"#utility.yul\":10538:10591   */\n      tag_643\n        /* \"#utility.yul\":10556:10590   */\n      tag_644\n        /* \"#utility.yul\":10565:10589   */\n      tag_645\n        /* \"#utility.yul\":10583:10588   */\n      dup5\n        /* \"#utility.yul\":10565:10589   */\n      tag_420\n      jump\t// in\n    tag_645:\n        /* \"#utility.yul\":10556:10590   */\n      tag_451\n      jump\t// in\n    tag_644:\n        /* \"#utility.yul\":10538:10591   */\n      tag_420\n      jump\t// in\n    tag_643:\n        /* \"#utility.yul\":10525:10591   */\n      swap1\n      pop\n        /* \"#utility.yul\":10455:10597   */\n      swap2\n      swap1\n      pop\n      jump\t// out\n        /* \"#utility.yul\":10603:10729   */\n    tag_453:\n        /* \"#utility.yul\":10653:10662   */\n      0x00\n        /* \"#utility.yul\":10686:10723   */\n      tag_647\n        /* \"#utility.yul\":10717:10722   */\n      dup3\n        /* \"#utility.yul\":10686:10723   */\n      tag_452\n      jump\t// in\n    tag_647:\n        /* \"#utility.yul\":10673:10723   */\n      swap1\n      pop\n        /* \"#utility.yul\":10603:10729   */\n      swap2\n      swap1\n      pop\n      jump\t// out\n        /* \"#utility.yul\":10735:10875   */\n    tag_454:\n        /* \"#utility.yul\":10799:10808   */\n      0x00\n        /* \"#utility.yul\":10832:10869   */\n      tag_649\n        /* \"#utility.yul\":10863:10868   */\n      dup3\n        /* \"#utility.yul\":10832:10869   */\n      tag_453\n      jump\t// in\n    tag_649:\n        /* \"#utility.yul\":10819:10869   */\n      swap1\n      pop\n        /* \"#utility.yul\":10735:10875   */\n      swap2\n      swap1\n      pop\n      jump\t// out\n        /* \"#utility.yul\":10881:11040   */\n    tag_455:\n        /* \"#utility.yul\":10982:11033   */\n      tag_651\n        /* \"#utility.yul\":11027:11032   */\n      dup2\n        /* \"#utility.yul\":10982:11033   */\n      tag_454\n      jump\t// in\n    tag_651:\n        /* \"#utility.yul\":10977:10980   */\n      dup3\n        /* \"#utility.yul\":10970:11034   */\n      mstore\n        /* \"#utility.yul\":10881:11040   */\n      pop\n      pop\n      jump\t// out\n        /* \"#utility.yul\":11046:11296   */\n    tag_58:\n        /* \"#utility.yul\":11153:11157   */\n      0x00\n        /* \"#utility.yul\":11191:11193   */\n      0x20\n        /* \"#utility.yul\":11180:11189   */\n      dup3\n        /* \"#utility.yul\":11176:11194   */\n      add\n        /* \"#utility.yul\":11168:11194   */\n      swap1\n      pop\n        /* \"#utility.yul\":11204:11289   */\n      tag_653\n        /* \"#utility.yul\":11286:11287   */\n      0x00\n        /* \"#utility.yul\":11275:11284   */\n      dup4\n        /* \"#utility.yul\":11271:11288   */\n      add\n        /* \"#utility.yul\":11262:11268   */\n      dup5\n        /* \"#utility.yul\":11204:11289   */\n      tag_455\n      jump\t// in\n    tag_653:\n        /* \"#utility.yul\":11046:11296   */\n      swap3\n      swap2\n      pop\n      pop\n      jump\t// out\n        /* \"#utility.yul\":11302:11411   */\n    tag_456:\n        /* \"#utility.yul\":11383:11404   */\n      tag_655\n        /* \"#utility.yul\":11398:11403   */\n      dup2\n        /* \"#utility.yul\":11383:11404   */\n      tag_438\n      jump\t// in\n    tag_655:\n        /* \"#utility.yul\":11378:11381   */\n      dup3\n        /* \"#utility.yul\":11371:11405   */\n      mstore\n        /* \"#utility.yul\":11302:11411   */\n      pop\n      pop\n      jump\t// out\n        /* \"#utility.yul\":11417:11627   */\n    tag_62:\n        /* \"#utility.yul\":11504:11508   */\n      0x00\n        /* \"#utility.yul\":11542:11544   */\n      0x20\n        /* \"#utility.yul\":11531:11540   */\n      dup3\n        /* \"#utility.yul\":11527:11545   */\n      add\n        /* \"#utility.yul\":11519:11545   */\n      swap1\n      pop\n        /* \"#utility.yul\":11555:11620   */\n      tag_657\n        /* \"#utility.yul\":11617:11618   */\n      0x00\n        /* \"#utility.yul\":11606:11615   */\n      dup4\n        /* \"#utility.yul\":11602:11619   */\n      add\n        /* \"#utility.yul\":11593:11599   */\n      dup5\n        /* \"#utility.yul\":11555:11620   */\n      tag_456\n      jump\t// in\n    tag_657:\n        /* \"#utility.yul\":11417:11627   */\n      swap3\n      swap2\n      pop\n      pop\n      jump\t// out\n        /* \"#utility.yul\":11633:11958   */\n    tag_67:\n        /* \"#utility.yul\":11690:11696   */\n      0x00\n        /* \"#utility.yul\":11739:11741   */\n      0x20\n        /* \"#utility.yul\":11727:11736   */\n      dup3\n        /* \"#utility.yul\":11718:11725   */\n      dup5\n        /* \"#utility.yul\":11714:11737   */\n      sub\n        /* \"#utility.yul\":11710:11742   */\n      slt\n        /* \"#utility.yul\":11707:11826   */\n      iszero\n      tag_659\n      jumpi\n        /* \"#utility.yul\":11745:11824   */\n      tag_660\n      tag_418\n      jump\t// in\n    tag_660:\n        /* \"#utility.yul\":11707:11826   */\n    tag_659:\n        /* \"#utility.yul\":11865:11866   */\n      0x00\n        /* \"#utility.yul\":11890:11941   */\n      tag_661\n        /* \"#utility.yul\":11933:11940   */\n      dup5\n        /* \"#utility.yul\":11924:11930   */\n      dup3\n        /* \"#utility.yul\":11913:11922   */\n      dup6\n        /* \"#utility.yul\":11909:11931   */\n      add\n        /* \"#utility.yul\":11890:11941   */\n      tag_426\n      jump\t// in\n    tag_661:\n        /* \"#utility.yul\":11880:11941   */\n      swap2\n      pop\n        /* \"#utility.yul\":11836:11951   */\n      pop\n        /* \"#utility.yul\":11633:11958   */\n      swap3\n      swap2\n      pop\n      pop\n      jump\t// out\n        /* \"#utility.yul\":11964:12082   */\n    tag_457:\n        /* \"#utility.yul\":12051:12075   */\n      tag_663\n        /* \"#utility.yul\":12069:12074   */\n      dup2\n        /* \"#utility.yul\":12051:12075   */\n      tag_421\n      jump\t// in\n    tag_663:\n        /* \"#utility.yul\":12046:12049   */\n      dup3\n        /* \"#utility.yul\":12039:12076   */\n      mstore\n        /* \"#utility.yul\":11964:12082   */\n      pop\n      pop\n      jump\t// out\n        /* \"#utility.yul\":12088:12165   */\n    tag_458:\n        /* \"#utility.yul\":12125:12132   */\n      0x00\n        /* \"#utility.yul\":12154:12159   */\n      dup2\n        /* \"#utility.yul\":12143:12159   */\n      swap1\n      pop\n        /* \"#utility.yul\":12088:12165   */\n      swap2\n      swap1\n      pop\n      jump\t// out\n        /* \"#utility.yul\":12171:12289   */\n    tag_459:\n        /* \"#utility.yul\":12258:12282   */\n      tag_666\n        /* \"#utility.yul\":12276:12281   */\n      dup2\n        /* \"#utility.yul\":12258:12282   */\n      tag_458\n      jump\t// in\n    tag_666:\n        /* \"#utility.yul\":12253:12256   */\n      dup3\n        /* \"#utility.yul\":12246:12283   */\n      mstore\n        /* \"#utility.yul\":12171:12289   */\n      pop\n      pop\n      jump\t// out\n        /* \"#utility.yul\":12295:12737   */\n    tag_70:\n        /* \"#utility.yul\":12444:12448   */\n      0x00\n        /* \"#utility.yul\":12482:12484   */\n      0x60\n        /* \"#utility.yul\":12471:12480   */\n      dup3\n        /* \"#utility.yul\":12467:12485   */\n      add\n        /* \"#utility.yul\":12459:12485   */\n      swap1\n      pop\n        /* \"#utility.yul\":12495:12566   */\n      tag_668\n        /* \"#utility.yul\":12563:12564   */\n      0x00\n        /* \"#utility.yul\":12552:12561   */\n      dup4\n        /* \"#utility.yul\":12548:12565   */\n      add\n        /* \"#utility.yul\":12539:12545   */\n      dup7\n        /* \"#utility.yul\":12495:12566   */\n      tag_457\n      jump\t// in\n    tag_668:\n        /* \"#utility.yul\":12576:12648   */\n      tag_669\n        /* \"#utility.yul\":12644:12646   */\n      0x20\n        /* \"#utility.yul\":12633:12642   */\n      dup4\n        /* \"#utility.yul\":12629:12647   */\n      add\n        /* \"#utility.yul\":12620:12626   */\n      dup6\n        /* \"#utility.yul\":12576:12648   */\n      tag_459\n      jump\t// in\n    tag_669:\n        /* \"#utility.yul\":12658:12730   */\n      tag_670\n        /* \"#utility.yul\":12726:12728   */\n      0x40\n        /* \"#utility.yul\":12715:12724   */\n      dup4\n        /* \"#utility.yul\":12711:12729   */\n      add\n        /* \"#utility.yul\":12702:12708   */\n      dup5\n        /* \"#utility.yul\":12658:12730   */\n      tag_428\n      jump\t// in\n    tag_670:\n        /* \"#utility.yul\":12295:12737   */\n      swap5\n      swap4\n      pop\n      pop\n      pop\n      pop\n      jump\t// out\n        /* \"#utility.yul\":12743:12865   */\n    tag_460:\n        /* \"#utility.yul\":12816:12840   */\n      tag_672\n        /* \"#utility.yul\":12834:12839   */\n      dup2\n        /* \"#utility.yul\":12816:12840   */\n      tag_427\n      jump\t// in\n    tag_672:\n        /* \"#utility.yul\":12809:12814   */\n      dup2\n        /* \"#utility.yul\":12806:12841   */\n      eq\n        /* \"#utility.yul\":12796:12859   */\n      tag_673\n      jumpi\n        /* \"#utility.yul\":12855:12856   */\n      0x00\n        /* \"#utility.yul\":12852:12853   */\n      dup1\n        /* \"#utility.yul\":12845:12857   */\n      revert\n        /* \"#utility.yul\":12796:12859   */\n    tag_673:\n        /* \"#utility.yul\":12743:12865   */\n      pop\n      jump\t// out\n        /* \"#utility.yul\":12871:13010   */\n    tag_461:\n        /* \"#utility.yul\":12917:12922   */\n      0x00\n        /* \"#utility.yul\":12955:12961   */\n      dup2\n        /* \"#utility.yul\":12942:12962   */\n      calldataload\n        /* \"#utility.yul\":12933:12962   */\n      swap1\n      pop\n        /* \"#utility.yul\":12971:13004   */\n      tag_675\n        /* \"#utility.yul\":12998:13003   */\n      dup2\n        /* \"#utility.yul\":12971:13004   */\n      tag_460\n      jump\t// in\n    tag_675:\n        /* \"#utility.yul\":12871:13010   */\n      swap3\n      swap2\n      pop\n      pop\n      jump\t// out\n        /* \"#utility.yul\":13016:13345   */\n    tag_73:\n        /* \"#utility.yul\":13075:13081   */\n      0x00\n        /* \"#utility.yul\":13124:13126   */\n      0x20\n        /* \"#utility.yul\":13112:13121   */\n      dup3\n        /* \"#utility.yul\":13103:13110   */\n      dup5\n        /* \"#utility.yul\":13099:13122   */\n      sub\n        /* \"#utility.yul\":13095:13127   */\n      slt\n        /* \"#utility.yul\":13092:13211   */\n      iszero\n      tag_677\n      jumpi\n        /* \"#utility.yul\":13130:13209   */\n      tag_678\n      tag_418\n      jump\t// in\n    tag_678:\n        /* \"#utility.yul\":13092:13211   */\n    tag_677:\n        /* \"#utility.yul\":13250:13251   */\n      0x00\n        /* \"#utility.yul\":13275:13328   */\n      tag_679\n        /* \"#utility.yul\":13320:13327   */\n      dup5\n        /* \"#utility.yul\":13311:13317   */\n      dup3\n        /* \"#utility.yul\":13300:13309   */\n      dup6\n        /* \"#utility.yul\":13296:13318   */\n      add\n        /* \"#utility.yul\":13275:13328   */\n      tag_461\n      jump\t// in\n    tag_679:\n        /* \"#utility.yul\":13265:13328   */\n      swap2\n      pop\n        /* \"#utility.yul\":13221:13338   */\n      pop\n        /* \"#utility.yul\":13016:13345   */\n      swap3\n      swap2\n      pop\n      pop\n      jump\t// out\n        /* \"#utility.yul\":13351:13573   */\n    tag_78:\n        /* \"#utility.yul\":13444:13448   */\n      0x00\n        /* \"#utility.yul\":13482:13484   */\n      0x20\n        /* \"#utility.yul\":13471:13480   */\n      dup3\n        /* \"#utility.yul\":13467:13485   */\n      add\n        /* \"#utility.yul\":13459:13485   */\n      swap1\n      pop\n        /* \"#utility.yul\":13495:13566   */\n      tag_681\n        /* \"#utility.yul\":13563:13564   */\n      0x00\n        /* \"#utility.yul\":13552:13561   */\n      dup4\n        /* \"#utility.yul\":13548:13565   */\n      add\n        /* \"#utility.yul\":13539:13545   */\n      dup5\n        /* \"#utility.yul\":13495:13566   */\n      tag_457\n      jump\t// in\n    tag_681:\n        /* \"#utility.yul\":13351:13573   */\n      swap3\n      swap2\n      pop\n      pop\n      jump\t// out\n        /* \"#utility.yul\":13579:13701   */\n    tag_462:\n        /* \"#utility.yul\":13652:13676   */\n      tag_683\n        /* \"#utility.yul\":13670:13675   */\n      dup2\n        /* \"#utility.yul\":13652:13676   */\n      tag_458\n      jump\t// in\n    tag_683:\n        /* \"#utility.yul\":13645:13650   */\n      dup2\n        /* \"#utility.yul\":13642:13677   */\n      eq\n        /* \"#utility.yul\":13632:13695   */\n      tag_684\n      jumpi\n        /* \"#utility.yul\":13691:13692   */\n      0x00\n        /* \"#utility.yul\":13688:13689   */\n      dup1\n        /* \"#utility.yul\":13681:13693   */\n      revert\n        /* \"#utility.yul\":13632:13695   */\n    tag_684:\n        /* \"#utility.yul\":13579:13701   */\n      pop\n      jump\t// out\n        /* \"#utility.yul\":13707:13846   */\n    tag_463:\n        /* \"#utility.yul\":13753:13758   */\n      0x00\n        /* \"#utility.yul\":13791:13797   */\n      dup2\n        /* \"#utility.yul\":13778:13798   */\n      calldataload\n        /* \"#utility.yul\":13769:13798   */\n      swap1\n      pop\n        /* \"#utility.yul\":13807:13840   */\n      tag_686\n        /* \"#utility.yul\":13834:13839   */\n      dup2\n        /* \"#utility.yul\":13807:13840   */\n      tag_462\n      jump\t// in\n    tag_686:\n        /* \"#utility.yul\":13707:13846   */\n      swap3\n      swap2\n      pop\n      pop\n      jump\t// out\n        /* \"#utility.yul\":13852:14181   */\n    tag_87:\n        /* \"#utility.yul\":13911:13917   */\n      0x00\n        /* \"#utility.yul\":13960:13962   */\n      0x20\n        /* \"#utility.yul\":13948:13957   */\n      dup3\n        /* \"#utility.yul\":13939:13946   */\n      dup5\n        /* \"#utility.yul\":13935:13958   */\n      sub\n        /* \"#utility.yul\":13931:13963   */\n      slt\n        /* \"#utility.yul\":13928:14047   */\n      iszero\n      tag_688\n      jumpi\n        /* \"#utility.yul\":13966:14045   */\n      tag_689\n      tag_418\n      jump\t// in\n    tag_689:\n        /* \"#utility.yul\":13928:14047   */\n    tag_688:\n        /* \"#utility.yul\":14086:14087   */\n      0x00\n        /* \"#utility.yul\":14111:14164   */\n      tag_690\n        /* \"#utility.yul\":14156:14163   */\n      dup5\n        /* \"#utility.yul\":14147:14153   */\n      dup3\n        /* \"#utility.yul\":14136:14145   */\n      dup6\n        /* \"#utility.yul\":14132:14154   */\n      add\n        /* \"#utility.yul\":14111:14164   */\n      tag_463\n      jump\t// in\n    tag_690:\n        /* \"#utility.yul\":14101:14164   */\n      swap2\n      pop\n        /* \"#utility.yul\":14057:14174   */\n      pop\n        /* \"#utility.yul\":13852:14181   */\n      swap3\n      swap2\n      pop\n      pop\n      jump\t// out\n        /* \"#utility.yul\":14187:15546   */\n    tag_92:\n        /* \"#utility.yul\":14370:14376   */\n      0x00\n        /* \"#utility.yul\":14378:14384   */\n      dup1\n        /* \"#utility.yul\":14386:14392   */\n      0x00\n        /* \"#utility.yul\":14394:14400   */\n      dup1\n        /* \"#utility.yul\":14402:14408   */\n      0x00\n        /* \"#utility.yul\":14410:14416   */\n      dup1\n        /* \"#utility.yul\":14459:14461   */\n      0x60\n        /* \"#utility.yul\":14447:14456   */\n      dup8\n        /* \"#utility.yul\":14438:14445   */\n      dup10\n        /* \"#utility.yul\":14434:14457   */\n      sub\n        /* \"#utility.yul\":14430:14462   */\n      slt\n        /* \"#utility.yul\":14427:14546   */\n      iszero\n      tag_692\n      jumpi\n        /* \"#utility.yul\":14465:14544   */\n      tag_693\n      tag_418\n      jump\t// in\n    tag_693:\n        /* \"#utility.yul\":14427:14546   */\n    tag_692:\n        /* \"#utility.yul\":14613:14614   */\n      0x00\n        /* \"#utility.yul\":14602:14611   */\n      dup8\n        /* \"#utility.yul\":14598:14615   */\n      add\n        /* \"#utility.yul\":14585:14616   */\n      calldataload\n        /* \"#utility.yul\":14643:14661   */\n      0xffffffffffffffff\n        /* \"#utility.yul\":14635:14641   */\n      dup2\n        /* \"#utility.yul\":14632:14662   */\n      gt\n        /* \"#utility.yul\":14629:14746   */\n      iszero\n      tag_694\n      jumpi\n        /* \"#utility.yul\":14665:14744   */\n      tag_695\n      tag_419\n      jump\t// in\n    tag_695:\n        /* \"#utility.yul\":14629:14746   */\n    tag_694:\n        /* \"#utility.yul\":14778:14856   */\n      tag_696\n        /* \"#utility.yul\":14848:14855   */\n      dup10\n        /* \"#utility.yul\":14839:14845   */\n      dup3\n        /* \"#utility.yul\":14828:14837   */\n      dup11\n        /* \"#utility.yul\":14824:14846   */\n      add\n        /* \"#utility.yul\":14778:14856   */\n      tag_432\n      jump\t// in\n    tag_696:\n        /* \"#utility.yul\":14760:14856   */\n      swap7\n      pop\n      swap7\n      pop\n        /* \"#utility.yul\":14556:14866   */\n      pop\n        /* \"#utility.yul\":14933:14935   */\n      0x20\n        /* \"#utility.yul\":14922:14931   */\n      dup8\n        /* \"#utility.yul\":14918:14936   */\n      add\n        /* \"#utility.yul\":14905:14937   */\n      calldataload\n        /* \"#utility.yul\":14964:14982   */\n      0xffffffffffffffff\n        /* \"#utility.yul\":14956:14962   */\n      dup2\n        /* \"#utility.yul\":14953:14983   */\n      gt\n        /* \"#utility.yul\":14950:15067   */\n      iszero\n      tag_697\n      jumpi\n        /* \"#utility.yul\":14986:15065   */\n      tag_698\n      tag_419\n      jump\t// in\n    tag_698:\n        /* \"#utility.yul\":14950:15067   */\n    tag_697:\n        /* \"#utility.yul\":15099:15179   */\n      tag_699\n        /* \"#utility.yul\":15171:15178   */\n      dup10\n        /* \"#utility.yul\":15162:15168   */\n      dup3\n        /* \"#utility.yul\":15151:15160   */\n      dup11\n        /* \"#utility.yul\":15147:15169   */\n      add\n        /* \"#utility.yul\":15099:15179   */\n      tag_433\n      jump\t// in\n    tag_699:\n        /* \"#utility.yul\":15081:15179   */\n      swap5\n      pop\n      swap5\n      pop\n        /* \"#utility.yul\":14876:15189   */\n      pop\n        /* \"#utility.yul\":15256:15258   */\n      0x40\n        /* \"#utility.yul\":15245:15254   */\n      dup8\n        /* \"#utility.yul\":15241:15259   */\n      add\n        /* \"#utility.yul\":15228:15260   */\n      calldataload\n        /* \"#utility.yul\":15287:15305   */\n      0xffffffffffffffff\n        /* \"#utility.yul\":15279:15285   */\n      dup2\n        /* \"#utility.yul\":15276:15306   */\n      gt\n        /* \"#utility.yul\":15273:15390   */\n      iszero\n      tag_700\n      jumpi\n        /* \"#utility.yul\":15309:15388   */\n      tag_701\n      tag_419\n      jump\t// in\n    tag_701:\n        /* \"#utility.yul\":15273:15390   */\n    tag_700:\n        /* \"#utility.yul\":15422:15529   */\n      tag_702\n        /* \"#utility.yul\":15521:15528   */\n      dup10\n        /* \"#utility.yul\":15512:15518   */\n      dup3\n        /* \"#utility.yul\":15501:15510   */\n      dup11\n        /* \"#utility.yul\":15497:15519   */\n      add\n        /* \"#utility.yul\":15422:15529   */\n      tag_434\n      jump\t// in\n    tag_702:\n        /* \"#utility.yul\":15404:15529   */\n      swap3\n      pop\n      swap3\n      pop\n        /* \"#utility.yul\":15199:15539   */\n      pop\n        /* \"#utility.yul\":14187:15546   */\n      swap3\n      swap6\n      pop\n      swap3\n      swap6\n      pop\n      swap3\n      swap6\n      jump\t// out\n        /* \"#utility.yul\":15569:16137   */\n    tag_464:\n        /* \"#utility.yul\":15642:15650   */\n      0x00\n        /* \"#utility.yul\":15652:15658   */\n      dup1\n        /* \"#utility.yul\":15702:15705   */\n      dup4\n        /* \"#utility.yul\":15695:15699   */\n      0x1f\n        /* \"#utility.yul\":15687:15693   */\n      dup5\n        /* \"#utility.yul\":15683:15700   */\n      add\n        /* \"#utility.yul\":15679:15706   */\n      slt\n        /* \"#utility.yul\":15669:15791   */\n      tag_704\n      jumpi\n        /* \"#utility.yul\":15710:15789   */\n      tag_705\n      tag_429\n      jump\t// in\n    tag_705:\n        /* \"#utility.yul\":15669:15791   */\n    tag_704:\n        /* \"#utility.yul\":15823:15829   */\n      dup3\n        /* \"#utility.yul\":15810:15830   */\n      calldataload\n        /* \"#utility.yul\":15800:15830   */\n      swap1\n      pop\n        /* \"#utility.yul\":15853:15871   */\n      0xffffffffffffffff\n        /* \"#utility.yul\":15845:15851   */\n      dup2\n        /* \"#utility.yul\":15842:15872   */\n      gt\n        /* \"#utility.yul\":15839:15956   */\n      iszero\n      tag_706\n      jumpi\n        /* \"#utility.yul\":15875:15954   */\n      tag_707\n      tag_430\n      jump\t// in\n    tag_707:\n        /* \"#utility.yul\":15839:15956   */\n    tag_706:\n        /* \"#utility.yul\":15989:15993   */\n      0x20\n        /* \"#utility.yul\":15981:15987   */\n      dup4\n        /* \"#utility.yul\":15977:15994   */\n      add\n        /* \"#utility.yul\":15965:15994   */\n      swap2\n      pop\n        /* \"#utility.yul\":16043:16046   */\n      dup4\n        /* \"#utility.yul\":16035:16039   */\n      0x20\n        /* \"#utility.yul\":16027:16033   */\n      dup3\n        /* \"#utility.yul\":16023:16040   */\n      mul\n        /* \"#utility.yul\":16013:16021   */\n      dup4\n        /* \"#utility.yul\":16009:16041   */\n      add\n        /* \"#utility.yul\":16006:16047   */\n      gt\n        /* \"#utility.yul\":16003:16131   */\n      iszero\n      tag_708\n      jumpi\n        /* \"#utility.yul\":16050:16129   */\n      tag_709\n      tag_431\n      jump\t// in\n    tag_709:\n        /* \"#utility.yul\":16003:16131   */\n    tag_708:\n        /* \"#utility.yul\":15569:16137   */\n      swap3\n      pop\n      swap3\n      swap1\n      pop\n      jump\t// out\n        /* \"#utility.yul\":16143:17878   */\n    tag_99:\n        /* \"#utility.yul\":16362:16368   */\n      0x00\n        /* \"#utility.yul\":16370:16376   */\n      dup1\n        /* \"#utility.yul\":16378:16384   */\n      0x00\n        /* \"#utility.yul\":16386:16392   */\n      dup1\n        /* \"#utility.yul\":16394:16400   */\n      0x00\n        /* \"#utility.yul\":16402:16408   */\n      dup1\n        /* \"#utility.yul\":16410:16416   */\n      0x00\n        /* \"#utility.yul\":16418:16424   */\n      dup1\n        /* \"#utility.yul\":16467:16470   */\n      0x80\n        /* \"#utility.yul\":16455:16464   */\n      dup10\n        /* \"#utility.yul\":16446:16453   */\n      dup12\n        /* \"#utility.yul\":16442:16465   */\n      sub\n        /* \"#utility.yul\":16438:16471   */\n      slt\n        /* \"#utility.yul\":16435:16555   */\n      iszero\n      tag_711\n      jumpi\n        /* \"#utility.yul\":16474:16553   */\n      tag_712\n      tag_418\n      jump\t// in\n    tag_712:\n        /* \"#utility.yul\":16435:16555   */\n    tag_711:\n        /* \"#utility.yul\":16622:16623   */\n      0x00\n        /* \"#utility.yul\":16611:16620   */\n      dup10\n        /* \"#utility.yul\":16607:16624   */\n      add\n        /* \"#utility.yul\":16594:16625   */\n      calldataload\n        /* \"#utility.yul\":16652:16670   */\n      0xffffffffffffffff\n        /* \"#utility.yul\":16644:16650   */\n      dup2\n        /* \"#utility.yul\":16641:16671   */\n      gt\n        /* \"#utility.yul\":16638:16755   */\n      iszero\n      tag_713\n      jumpi\n        /* \"#utility.yul\":16674:16753   */\n      tag_714\n      tag_419\n      jump\t// in\n    tag_714:\n        /* \"#utility.yul\":16638:16755   */\n    tag_713:\n        /* \"#utility.yul\":16787:16865   */\n      tag_715\n        /* \"#utility.yul\":16857:16864   */\n      dup12\n        /* \"#utility.yul\":16848:16854   */\n      dup3\n        /* \"#utility.yul\":16837:16846   */\n      dup13\n        /* \"#utility.yul\":16833:16855   */\n      add\n        /* \"#utility.yul\":16787:16865   */\n      tag_432\n      jump\t// in\n    tag_715:\n        /* \"#utility.yul\":16769:16865   */\n      swap9\n      pop\n      swap9\n      pop\n        /* \"#utility.yul\":16565:16875   */\n      pop\n        /* \"#utility.yul\":16942:16944   */\n      0x20\n        /* \"#utility.yul\":16931:16940   */\n      dup10\n        /* \"#utility.yul\":16927:16945   */\n      add\n        /* \"#utility.yul\":16914:16946   */\n      calldataload\n        /* \"#utility.yul\":16973:16991   */\n      0xffffffffffffffff\n        /* \"#utility.yul\":16965:16971   */\n      dup2\n        /* \"#utility.yul\":16962:16992   */\n      gt\n        /* \"#utility.yul\":16959:17076   */\n      iszero\n      tag_716\n      jumpi\n        /* \"#utility.yul\":16995:17074   */\n      tag_717\n      tag_419\n      jump\t// in\n    tag_717:\n        /* \"#utility.yul\":16959:17076   */\n    tag_716:\n        /* \"#utility.yul\":17108:17188   */\n      tag_718\n        /* \"#utility.yul\":17180:17187   */\n      dup12\n        /* \"#utility.yul\":17171:17177   */\n      dup3\n        /* \"#utility.yul\":17160:17169   */\n      dup13\n        /* \"#utility.yul\":17156:17178   */\n      add\n        /* \"#utility.yul\":17108:17188   */\n      tag_464\n      jump\t// in\n    tag_718:\n        /* \"#utility.yul\":17090:17188   */\n      swap7\n      pop\n      swap7\n      pop\n        /* \"#utility.yul\":16885:17198   */\n      pop\n        /* \"#utility.yul\":17265:17267   */\n      0x40\n        /* \"#utility.yul\":17254:17263   */\n      dup10\n        /* \"#utility.yul\":17250:17268   */\n      add\n        /* \"#utility.yul\":17237:17269   */\n      calldataload\n        /* \"#utility.yul\":17296:17314   */\n      0xffffffffffffffff\n        /* \"#utility.yul\":17288:17294   */\n      dup2\n        /* \"#utility.yul\":17285:17315   */\n      gt\n        /* \"#utility.yul\":17282:17399   */\n      iszero\n      tag_719\n      jumpi\n        /* \"#utility.yul\":17318:17397   */\n      tag_720\n      tag_419\n      jump\t// in\n    tag_720:\n        /* \"#utility.yul\":17282:17399   */\n    tag_719:\n        /* \"#utility.yul\":17431:17511   */\n      tag_721\n        /* \"#utility.yul\":17503:17510   */\n      dup12\n        /* \"#utility.yul\":17494:17500   */\n      dup3\n        /* \"#utility.yul\":17483:17492   */\n      dup13\n        /* \"#utility.yul\":17479:17501   */\n      add\n        /* \"#utility.yul\":17431:17511   */\n      tag_433\n      jump\t// in\n    tag_721:\n        /* \"#utility.yul\":17413:17511   */\n      swap5\n      pop\n      swap5\n      pop\n        /* \"#utility.yul\":17208:17521   */\n      pop\n        /* \"#utility.yul\":17588:17590   */\n      0x60\n        /* \"#utility.yul\":17577:17586   */\n      dup10\n        /* \"#utility.yul\":17573:17591   */\n      add\n        /* \"#utility.yul\":17560:17592   */\n      calldataload\n        /* \"#utility.yul\":17619:17637   */\n      0xffffffffffffffff\n        /* \"#utility.yul\":17611:17617   */\n      dup2\n        /* \"#utility.yul\":17608:17638   */\n      gt\n        /* \"#utility.yul\":17605:17722   */\n      iszero\n      tag_722\n      jumpi\n        /* \"#utility.yul\":17641:17720   */\n      tag_723\n      tag_419\n      jump\t// in\n    tag_723:\n        /* \"#utility.yul\":17605:17722   */\n    tag_722:\n        /* \"#utility.yul\":17754:17861   */\n      tag_724\n        /* \"#utility.yul\":17853:17860   */\n      dup12\n        /* \"#utility.yul\":17844:17850   */\n      dup3\n        /* \"#utility.yul\":17833:17842   */\n      dup13\n        /* \"#utility.yul\":17829:17851   */\n      add\n        /* \"#utility.yul\":17754:17861   */\n      tag_434\n      jump\t// in\n    tag_724:\n        /* \"#utility.yul\":17736:17861   */\n      swap3\n      pop\n      swap3\n      pop\n        /* \"#utility.yul\":17531:17871   */\n      pop\n        /* \"#utility.yul\":16143:17878   */\n      swap3\n      swap6\n      swap9\n      pop\n      swap3\n      swap6\n      swap9\n      swap1\n      swap4\n      swap7\n      pop\n      jump\t// out\n        /* \"#utility.yul\":17884:18064   */\n    tag_110:\n        /* \"#utility.yul\":17932:18009   */\n      0x4e487b7100000000000000000000000000000000000000000000000000000000\n        /* \"#utility.yul\":17929:17930   */\n      0x00\n        /* \"#utility.yul\":17922:18010   */\n      mstore\n        /* \"#utility.yul\":18029:18033   */\n      0x41\n        /* \"#utility.yul\":18026:18027   */\n      0x04\n        /* \"#utility.yul\":18019:18034   */\n      mstore\n        /* \"#utility.yul\":18053:18057   */\n      0x24\n        /* \"#utility.yul\":18050:18051   */\n      0x00\n        /* \"#utility.yul\":18043:18058   */\n      revert\n        /* \"#utility.yul\":18070:18250   */\n    tag_124:\n        /* \"#utility.yul\":18118:18195   */\n      0x4e487b7100000000000000000000000000000000000000000000000000000000\n        /* \"#utility.yul\":18115:18116   */\n      0x00\n        /* \"#utility.yul\":18108:18196   */\n      mstore\n        /* \"#utility.yul\":18215:18219   */\n      0x32\n        /* \"#utility.yul\":18212:18213   */\n      0x04\n        /* \"#utility.yul\":18205:18220   */\n      mstore\n        /* \"#utility.yul\":18239:18243   */\n      0x24\n        /* \"#utility.yul\":18236:18237   */\n      0x00\n        /* \"#utility.yul\":18229:18244   */\n      revert\n        /* \"#utility.yul\":18256:18373   */\n    tag_465:\n        /* \"#utility.yul\":18365:18366   */\n      0x00\n        /* \"#utility.yul\":18362:18363   */\n      dup1\n        /* \"#utility.yul\":18355:18367   */\n      revert\n        /* \"#utility.yul\":18379:18496   */\n    tag_466:\n        /* \"#utility.yul\":18488:18489   */\n      0x00\n        /* \"#utility.yul\":18485:18486   */\n      dup1\n        /* \"#utility.yul\":18478:18490   */\n      revert\n        /* \"#utility.yul\":18502:18619   */\n    tag_467:\n        /* \"#utility.yul\":18611:18612   */\n      0x00\n        /* \"#utility.yul\":18608:18609   */\n      dup1\n        /* \"#utility.yul\":18601:18613   */\n      revert\n        /* \"#utility.yul\":18625:19365   */\n    tag_136:\n        /* \"#utility.yul\":18718:18722   */\n      0x00\n        /* \"#utility.yul\":18724:18730   */\n      dup1\n        /* \"#utility.yul\":18780:18791   */\n      dup4\n        /* \"#utility.yul\":18767:18792   */\n      calldataload\n        /* \"#utility.yul\":18880:18881   */\n      0x01\n        /* \"#utility.yul\":18874:18878   */\n      0x20\n        /* \"#utility.yul\":18870:18882   */\n      sub\n        /* \"#utility.yul\":18859:18867   */\n      dup5\n        /* \"#utility.yul\":18843:18857   */\n      calldatasize\n        /* \"#utility.yul\":18839:18868   */\n      sub\n        /* \"#utility.yul\":18835:18883   */\n      sub\n        /* \"#utility.yul\":18815:18833   */\n      dup2\n        /* \"#utility.yul\":18811:18884   */\n      slt\n        /* \"#utility.yul\":18801:18969   */\n      tag_731\n      jumpi\n        /* \"#utility.yul\":18888:18967   */\n      tag_732\n      tag_465\n      jump\t// in\n    tag_732:\n        /* \"#utility.yul\":18801:18969   */\n    tag_731:\n        /* \"#utility.yul\":19000:19018   */\n      dup1\n        /* \"#utility.yul\":18990:18998   */\n      dup5\n        /* \"#utility.yul\":18986:19019   */\n      add\n        /* \"#utility.yul\":18978:19019   */\n      swap3\n      pop\n        /* \"#utility.yul\":19052:19056   */\n      dup3\n        /* \"#utility.yul\":19039:19057   */\n      calldataload\n        /* \"#utility.yul\":19029:19057   */\n      swap2\n      pop\n        /* \"#utility.yul\":19080:19098   */\n      0xffffffffffffffff\n        /* \"#utility.yul\":19072:19078   */\n      dup3\n        /* \"#utility.yul\":19069:19099   */\n      gt\n        /* \"#utility.yul\":19066:19183   */\n      iszero\n      tag_733\n      jumpi\n        /* \"#utility.yul\":19102:19181   */\n      tag_734\n      tag_466\n      jump\t// in\n    tag_734:\n        /* \"#utility.yul\":19066:19183   */\n    tag_733:\n        /* \"#utility.yul\":19210:19212   */\n      0x20\n        /* \"#utility.yul\":19204:19208   */\n      dup4\n        /* \"#utility.yul\":19200:19213   */\n      add\n        /* \"#utility.yul\":19192:19213   */\n      swap3\n      pop\n        /* \"#utility.yul\":19267:19271   */\n      0x20\n        /* \"#utility.yul\":19259:19265   */\n      dup3\n        /* \"#utility.yul\":19255:19272   */\n      mul\n        /* \"#utility.yul\":19239:19253   */\n      calldatasize\n        /* \"#utility.yul\":19235:19273   */\n      sub\n        /* \"#utility.yul\":19229:19233   */\n      dup4\n        /* \"#utility.yul\":19225:19274   */\n      sgt\n        /* \"#utility.yul\":19222:19358   */\n      iszero\n      tag_735\n      jumpi\n        /* \"#utility.yul\":19277:19356   */\n      tag_736\n      tag_467\n      jump\t// in\n    tag_736:\n        /* \"#utility.yul\":19222:19358   */\n    tag_735:\n        /* \"#utility.yul\":18731:19365   */\n      pop\n        /* \"#utility.yul\":18625:19365   */\n      swap3\n      pop\n      swap3\n      swap1\n      pop\n      jump\t// out\n        /* \"#utility.yul\":19371:19551   */\n    tag_468:\n        /* \"#utility.yul\":19419:19496   */\n      0x4e487b7100000000000000000000000000000000000000000000000000000000\n        /* \"#utility.yul\":19416:19417   */\n      0x00\n        /* \"#utility.yul\":19409:19497   */\n      mstore\n        /* \"#utility.yul\":19516:19520   */\n      0x11\n        /* \"#utility.yul\":19513:19514   */\n      0x04\n        /* \"#utility.yul\":19506:19521   */\n      mstore\n        /* \"#utility.yul\":19540:19544   */\n      0x24\n        /* \"#utility.yul\":19537:19538   */\n      0x00\n        /* \"#utility.yul\":19530:19545   */\n      revert\n        /* \"#utility.yul\":19557:19790   */\n    tag_143:\n        /* \"#utility.yul\":19596:19599   */\n      0x00\n        /* \"#utility.yul\":19619:19643   */\n      tag_739\n        /* \"#utility.yul\":19637:19642   */\n      dup3\n        /* \"#utility.yul\":19619:19643   */\n      tag_427\n      jump\t// in\n    tag_739:\n        /* \"#utility.yul\":19610:19643   */\n      swap2\n      pop\n        /* \"#utility.yul\":19665:19731   */\n      0xffffffffffffffffffffffffffffffffffffffffffffffffffffffffffffffff\n        /* \"#utility.yul\":19658:19663   */\n      dup3\n        /* \"#utility.yul\":19655:19732   */\n      eq\n        /* \"#utility.yul\":19652:19755   */\n      iszero\n      tag_740\n      jumpi\n        /* \"#utility.yul\":19735:19753   */\n      tag_741\n      tag_468\n      jump\t// in\n    tag_741:\n        /* \"#utility.yul\":19652:19755   */\n    tag_740:\n        /* \"#utility.yul\":19782:19783   */\n      0x01\n        /* \"#utility.yul\":19775:19780   */\n      dup3\n        /* \"#utility.yul\":19771:19784   */\n      add\n        /* \"#utility.yul\":19764:19784   */\n      swap1\n      pop\n        /* \"#utility.yul\":19557:19790   */\n      swap2\n      swap1\n      pop\n      jump\t// out\n        /* \"#utility.yul\":19796:19965   */\n    tag_469:\n        /* \"#utility.yul\":19880:19891   */\n      0x00\n        /* \"#utility.yul\":19914:19920   */\n      dup3\n        /* \"#utility.yul\":19909:19912   */\n      dup3\n        /* \"#utility.yul\":19902:19921   */\n      mstore\n        /* \"#utility.yul\":19954:19958   */\n      0x20\n        /* \"#utility.yul\":19949:19952   */\n      dup3\n        /* \"#utility.yul\":19945:19959   */\n      add\n        /* \"#utility.yul\":19930:19959   */\n      swap1\n      pop\n        /* \"#utility.yul\":19796:19965   */\n      swap3\n      swap2\n      pop\n      pop\n      jump\t// out\n        /* \"#utility.yul\":19971:20153   */\n    tag_470:\n        /* \"#utility.yul\":20111:20145   */\n      0x4f776e61626c653a2063616c6c6572206973206e6f7420746865206f776e6572\n        /* \"#utility.yul\":20107:20108   */\n      0x00\n        /* \"#utility.yul\":20099:20105   */\n      dup3\n        /* \"#utility.yul\":20095:20109   */\n      add\n        /* \"#utility.yul\":20088:20146   */\n      mstore\n        /* \"#utility.yul\":19971:20153   */\n      pop\n      jump\t// out\n        /* \"#utility.yul\":20159:20525   */\n    tag_471:\n        /* \"#utility.yul\":20301:20304   */\n      0x00\n        /* \"#utility.yul\":20322:20389   */\n      tag_745\n        /* \"#utility.yul\":20386:20388   */\n      0x20\n        /* \"#utility.yul\":20381:20384   */\n      dup4\n        /* \"#utility.yul\":20322:20389   */\n      tag_469\n      jump\t// in\n    tag_745:\n        /* \"#utility.yul\":20315:20389   */\n      swap2\n      pop\n        /* \"#utility.yul\":20398:20491   */\n      tag_746\n        /* \"#utility.yul\":20487:20490   */\n      dup3\n        /* \"#utility.yul\":20398:20491   */\n      tag_470\n      jump\t// in\n    tag_746:\n        /* \"#utility.yul\":20516:20518   */\n      0x20\n        /* \"#utility.yul\":20511:20514   */\n      dup3\n        /* \"#utility.yul\":20507:20519   */\n      add\n        /* \"#utility.yul\":20500:20519   */\n      swap1\n      pop\n        /* \"#utility.yul\":20159:20525   */\n      swap2\n      swap1\n      pop\n      jump\t// out\n        /* \"#utility.yul\":20531:20950   */\n    tag_150:\n        /* \"#utility.yul\":20697:20701   */\n      0x00\n        /* \"#utility.yul\":20735:20737   */\n      0x20\n        /* \"#utility.yul\":20724:20733   */\n      dup3\n        /* \"#utility.yul\":20720:20738   */\n      add\n        /* \"#utility.yul\":20712:20738   */\n      swap1\n      pop\n        /* \"#utility.yul\":20784:20793   */\n      dup2\n        /* \"#utility.yul\":20778:20782   */\n      dup2\n        /* \"#utility.yul\":20774:20794   */\n      sub\n        /* \"#utility.yul\":20770:20771   */\n      0x00\n        /* \"#utility.yul\":20759:20768   */\n      dup4\n        /* \"#utility.yul\":20755:20772   */\n      add\n        /* \"#utility.yul\":20748:20795   */\n      mstore\n        /* \"#utility.yul\":20812:20943   */\n      tag_748\n        /* \"#utility.yul\":20938:20942   */\n      dup2\n        /* \"#utility.yul\":20812:20943   */\n      tag_471\n      jump\t// in\n    tag_748:\n        /* \"#utility.yul\":20804:20943   */\n      swap1\n      pop\n        /* \"#utility.yul\":20531:20950   */\n      swap2\n      swap1\n      pop\n      jump\t// out\n        /* \"#utility.yul\":20956:21122   */\n    tag_472:\n        /* \"#utility.yul\":21096:21114   */\n      0x5061757361626c653a2070617573656400000000000000000000000000000000\n        /* \"#utility.yul\":21092:21093   */\n      0x00\n        /* \"#utility.yul\":21084:21090   */\n      dup3\n        /* \"#utility.yul\":21080:21094   */\n      add\n        /* \"#utility.yul\":21073:21115   */\n      mstore\n        /* \"#utility.yul\":20956:21122   */\n      pop\n      jump\t// out\n        /* \"#utility.yul\":21128:21494   */\n    tag_473:\n        /* \"#utility.yul\":21270:21273   */\n      0x00\n        /* \"#utility.yul\":21291:21358   */\n      tag_751\n        /* \"#utility.yul\":21355:21357   */\n      0x10\n        /* \"#utility.yul\":21350:21353   */\n      dup4\n        /* \"#utility.yul\":21291:21358   */\n      tag_469\n      jump\t// in\n    tag_751:\n        /* \"#utility.yul\":21284:21358   */\n      swap2\n      pop\n        /* \"#utility.yul\":21367:21460   */\n      tag_752\n        /* \"#utility.yul\":21456:21459   */\n      dup3\n        /* \"#utility.yul\":21367:21460   */\n      tag_472\n      jump\t// in\n    tag_752:\n        /* \"#utility.yul\":21485:21487   */\n      0x20\n        /* \"#utility.yul\":21480:21483   */\n      dup3\n        /* \"#utility.yul\":21476:21488   */\n      add\n        /* \"#utility.yul\":21469:21488   */\n      swap1\n      pop\n        /* \"#utility.yul\":21128:21494   */\n      swap2\n      swap1\n      pop\n      jump\t// out\n        /* \"#utility.yul\":21500:21919   */\n    tag_155:\n        /* \"#utility.yul\":21666:21670   */\n      0x00\n        /* \"#utility.yul\":21704:21706   */\n      0x20\n        /* \"#utility.yul\":21693:21702   */\n      dup3\n        /* \"#utility.yul\":21689:21707   */\n      add\n        /* \"#utility.yul\":21681:21707   */\n      swap1\n      pop\n        /* \"#utility.yul\":21753:21762   */\n      dup2\n        /* \"#utility.yul\":21747:21751   */\n      dup2\n        /* \"#utility.yul\":21743:21763   */\n      sub\n        /* \"#utility.yul\":21739:21740   */\n      0x00\n        /* \"#utility.yul\":21728:21737   */\n      dup4\n        /* \"#utility.yul\":21724:21741   */\n      add\n        /* \"#utility.yul\":21717:21764   */\n      mstore\n        /* \"#utility.yul\":21781:21912   */\n      tag_754\n        /* \"#utility.yul\":21907:21911   */\n      dup2\n        /* \"#utility.yul\":21781:21912   */\n      tag_473\n      jump\t// in\n    tag_754:\n        /* \"#utility.yul\":21773:21912   */\n      swap1\n      pop\n        /* \"#utility.yul\":21500:21919   */\n      swap2\n      swap1\n      pop\n      jump\t// out\n        /* \"#utility.yul\":21925:22105   */\n    tag_474:\n        /* \"#utility.yul\":22065:22097   */\n      0x4f776e65723a205361666520677561726420616c726561647920757365640000\n        /* \"#utility.yul\":22061:22062   */\n      0x00\n        /* \"#utility.yul\":22053:22059   */\n      dup3\n        /* \"#utility.yul\":22049:22063   */\n      add\n        /* \"#utility.yul\":22042:22098   */\n      mstore\n        /* \"#utility.yul\":21925:22105   */\n      pop\n      jump\t// out\n        /* \"#utility.yul\":22111:22477   */\n    tag_475:\n        /* \"#utility.yul\":22253:22256   */\n      0x00\n        /* \"#utility.yul\":22274:22341   */\n      tag_757\n        /* \"#utility.yul\":22338:22340   */\n      0x1e\n        /* \"#utility.yul\":22333:22336   */\n      dup4\n        /* \"#utility.yul\":22274:22341   */\n      tag_469\n      jump\t// in\n    tag_757:\n        /* \"#utility.yul\":22267:22341   */\n      swap2\n      pop\n        /* \"#utility.yul\":22350:22443   */\n      tag_758\n        /* \"#utility.yul\":22439:22442   */\n      dup3\n        /* \"#utility.yul\":22350:22443   */\n      tag_474\n      jump\t// in\n    tag_758:\n        /* \"#utility.yul\":22468:22470   */\n      0x20\n        /* \"#utility.yul\":22463:22466   */\n      dup3\n        /* \"#utility.yul\":22459:22471   */\n      add\n        /* \"#utility.yul\":22452:22471   */\n      swap1\n      pop\n        /* \"#utility.yul\":22111:22477   */\n      swap2\n      swap1\n      pop\n      jump\t// out\n        /* \"#utility.yul\":22483:22902   */\n    tag_167:\n        /* \"#utility.yul\":22649:22653   */\n      0x00\n        /* \"#utility.yul\":22687:22689   */\n      0x20\n        /* \"#utility.yul\":22676:22685   */\n      dup3\n        /* \"#utility.yul\":22672:22690   */\n      add\n        /* \"#utility.yul\":22664:22690   */\n      swap1\n      pop\n        /* \"#utility.yul\":22736:22745   */\n      dup2\n        /* \"#utility.yul\":22730:22734   */\n      dup2\n        /* \"#utility.yul\":22726:22746   */\n      sub\n        /* \"#utility.yul\":22722:22723   */\n      0x00\n        /* \"#utility.yul\":22711:22720   */\n      dup4\n        /* \"#utility.yul\":22707:22724   */\n      add\n        /* \"#utility.yul\":22700:22747   */\n      mstore\n        /* \"#utility.yul\":22764:22895   */\n      tag_760\n        /* \"#utility.yul\":22890:22894   */\n      dup2\n        /* \"#utility.yul\":22764:22895   */\n      tag_475\n      jump\t// in\n    tag_760:\n        /* \"#utility.yul\":22756:22895   */\n      swap1\n      pop\n        /* \"#utility.yul\":22483:22902   */\n      swap2\n      swap1\n      pop\n      jump\t// out\n        /* \"#utility.yul\":22908:23075   */\n    tag_169:\n        /* \"#utility.yul\":22945:22948   */\n      0x00\n        /* \"#utility.yul\":22968:22990   */\n      tag_762\n        /* \"#utility.yul\":22984:22989   */\n      dup3\n        /* \"#utility.yul\":22968:22990   */\n      tag_424\n      jump\t// in\n    tag_762:\n        /* \"#utility.yul\":22959:22990   */\n      swap2\n      pop\n        /* \"#utility.yul\":23012:23016   */\n      0xff\n        /* \"#utility.yul\":23005:23010   */\n      dup3\n        /* \"#utility.yul\":23002:23017   */\n      eq\n        /* \"#utility.yul\":22999:23040   */\n      iszero\n      tag_763\n      jumpi\n        /* \"#utility.yul\":23020:23038   */\n      tag_764\n      tag_468\n      jump\t// in\n    tag_764:\n        /* \"#utility.yul\":22999:23040   */\n    tag_763:\n        /* \"#utility.yul\":23067:23068   */\n      0x01\n        /* \"#utility.yul\":23060:23065   */\n      dup3\n        /* \"#utility.yul\":23056:23069   */\n      add\n        /* \"#utility.yul\":23049:23069   */\n      swap1\n      pop\n        /* \"#utility.yul\":22908:23075   */\n      swap2\n      swap1\n      pop\n      jump\t// out\n        /* \"#utility.yul\":23081:23251   */\n    tag_476:\n        /* \"#utility.yul\":23221:23243   */\n      0x5061757361626c653a206e6f7420706175736564000000000000000000000000\n        /* \"#utility.yul\":23217:23218   */\n      0x00\n        /* \"#utility.yul\":23209:23215   */\n      dup3\n        /* \"#utility.yul\":23205:23219   */\n      add\n        /* \"#utility.yul\":23198:23244   */\n      mstore\n        /* \"#utility.yul\":23081:23251   */\n      pop\n      jump\t// out\n        /* \"#utility.yul\":23257:23623   */\n    tag_477:\n        /* \"#utility.yul\":23399:23402   */\n      0x00\n        /* \"#utility.yul\":23420:23487   */\n      tag_767\n        /* \"#utility.yul\":23484:23486   */\n      0x14\n        /* \"#utility.yul\":23479:23482   */\n      dup4\n        /* \"#utility.yul\":23420:23487   */\n      tag_469\n      jump\t// in\n    tag_767:\n        /* \"#utility.yul\":23413:23487   */\n      swap2\n      pop\n        /* \"#utility.yul\":23496:23589   */\n      tag_768\n        /* \"#utility.yul\":23585:23588   */\n      dup3\n        /* \"#utility.yul\":23496:23589   */\n      tag_476\n      jump\t// in\n    tag_768:\n        /* \"#utility.yul\":23614:23616   */\n      0x20\n        /* \"#utility.yul\":23609:23612   */\n      dup3\n        /* \"#utility.yul\":23605:23617   */\n      add\n        /* \"#utility.yul\":23598:23617   */\n      swap1\n      pop\n        /* \"#utility.yul\":23257:23623   */\n      swap2\n      swap1\n      pop\n      jump\t// out\n        /* \"#utility.yul\":23629:24048   */\n    tag_189:\n        /* \"#utility.yul\":23795:23799   */\n      0x00\n        /* \"#utility.yul\":23833:23835   */\n      0x20\n        /* \"#utility.yul\":23822:23831   */\n      dup3\n        /* \"#utility.yul\":23818:23836   */\n      add\n        /* \"#utility.yul\":23810:23836   */\n      swap1\n      pop\n        /* \"#utility.yul\":23882:23891   */\n      dup2\n        /* \"#utility.yul\":23876:23880   */\n      dup2\n        /* \"#utility.yul\":23872:23892   */\n      sub\n        /* \"#utility.yul\":23868:23869   */\n      0x00\n        /* \"#utility.yul\":23857:23866   */\n      dup4\n        /* \"#utility.yul\":23853:23870   */\n      add\n        /* \"#utility.yul\":23846:23893   */\n      mstore\n        /* \"#utility.yul\":23910:24041   */\n      tag_770\n        /* \"#utility.yul\":24036:24040   */\n      dup2\n        /* \"#utility.yul\":23910:24041   */\n      tag_477\n      jump\t// in\n    tag_770:\n        /* \"#utility.yul\":23902:24041   */\n      swap1\n      pop\n        /* \"#utility.yul\":23629:24048   */\n      swap2\n      swap1\n      pop\n      jump\t// out\n        /* \"#utility.yul\":24054:24359   */\n    tag_192:\n        /* \"#utility.yul\":24094:24097   */\n      0x00\n        /* \"#utility.yul\":24113:24133   */\n      tag_772\n        /* \"#utility.yul\":24131:24132   */\n      dup3\n        /* \"#utility.yul\":24113:24133   */\n      tag_427\n      jump\t// in\n    tag_772:\n        /* \"#utility.yul\":24108:24133   */\n      swap2\n      pop\n        /* \"#utility.yul\":24147:24167   */\n      tag_773\n        /* \"#utility.yul\":24165:24166   */\n      dup4\n        /* \"#utility.yul\":24147:24167   */\n      tag_427\n      jump\t// in\n    tag_773:\n        /* \"#utility.yul\":24142:24167   */\n      swap3\n      pop\n        /* \"#utility.yul\":24301:24302   */\n      dup3\n        /* \"#utility.yul\":24233:24299   */\n      0xffffffffffffffffffffffffffffffffffffffffffffffffffffffffffffffff\n        /* \"#utility.yul\":24229:24303   */\n      sub\n        /* \"#utility.yul\":24226:24227   */\n      dup3\n        /* \"#utility.yul\":24223:24304   */\n      gt\n        /* \"#utility.yul\":24220:24327   */\n      iszero\n      tag_774\n      jumpi\n        /* \"#utility.yul\":24307:24325   */\n      tag_775\n      tag_468\n      jump\t// in\n    tag_775:\n        /* \"#utility.yul\":24220:24327   */\n    tag_774:\n        /* \"#utility.yul\":24351:24352   */\n      dup3\n        /* \"#utility.yul\":24348:24349   */\n      dup3\n        /* \"#utility.yul\":24344:24353   */\n      add\n        /* \"#utility.yul\":24337:24353   */\n      swap1\n      pop\n        /* \"#utility.yul\":24054:24359   */\n      swap3\n      swap2\n      pop\n      pop\n      jump\t// out\n        /* \"#utility.yul\":24365:24543   */\n    tag_478:\n        /* \"#utility.yul\":24505:24535   */\n      0x4f776e65723a20546f6f206561726c7920746f20776974686472617700000000\n        /* \"#utility.yul\":24501:24502   */\n      0x00\n        /* \"#utility.yul\":24493:24499   */\n      dup3\n        /* \"#utility.yul\":24489:24503   */\n      add\n        /* \"#utility.yul\":24482:24536   */\n      mstore\n        /* \"#utility.yul\":24365:24543   */\n      pop\n      jump\t// out\n        /* \"#utility.yul\":24549:24915   */\n    tag_479:\n        /* \"#utility.yul\":24691:24694   */\n      0x00\n        /* \"#utility.yul\":24712:24779   */\n      tag_778\n        /* \"#utility.yul\":24776:24778   */\n      0x1c\n        /* \"#utility.yul\":24771:24774   */\n      dup4\n        /* \"#utility.yul\":24712:24779   */\n      tag_469\n      jump\t// in\n    tag_778:\n        /* \"#utility.yul\":24705:24779   */\n      swap2\n      pop\n        /* \"#utility.yul\":24788:24881   */\n      tag_779\n        /* \"#utility.yul\":24877:24880   */\n      dup3\n        /* \"#utility.yul\":24788:24881   */\n      tag_478\n      jump\t// in\n    tag_779:\n        /* \"#utility.yul\":24906:24908   */\n      0x20\n        /* \"#utility.yul\":24901:24904   */\n      dup3\n        /* \"#utility.yul\":24897:24909   */\n      add\n        /* \"#utility.yul\":24890:24909   */\n      swap1\n      pop\n        /* \"#utility.yul\":24549:24915   */\n      swap2\n      swap1\n      pop\n      jump\t// out\n        /* \"#utility.yul\":24921:25340   */\n    tag_195:\n        /* \"#utility.yul\":25087:25091   */\n      0x00\n        /* \"#utility.yul\":25125:25127   */\n      0x20\n        /* \"#utility.yul\":25114:25123   */\n      dup3\n        /* \"#utility.yul\":25110:25128   */\n      add\n        /* \"#utility.yul\":25102:25128   */\n      swap1\n      pop\n        /* \"#utility.yul\":25174:25183   */\n      dup2\n        /* \"#utility.yul\":25168:25172   */\n      dup2\n        /* \"#utility.yul\":25164:25184   */\n      sub\n        /* \"#utility.yul\":25160:25161   */\n      0x00\n        /* \"#utility.yul\":25149:25158   */\n      dup4\n        /* \"#utility.yul\":25145:25162   */\n      add\n        /* \"#utility.yul\":25138:25185   */\n      mstore\n        /* \"#utility.yul\":25202:25333   */\n      tag_781\n        /* \"#utility.yul\":25328:25332   */\n      dup2\n        /* \"#utility.yul\":25202:25333   */\n      tag_479\n      jump\t// in\n    tag_781:\n        /* \"#utility.yul\":25194:25333   */\n      swap1\n      pop\n        /* \"#utility.yul\":24921:25340   */\n      swap2\n      swap1\n      pop\n      jump\t// out\n        /* \"#utility.yul\":25346:25527   */\n    tag_480:\n        /* \"#utility.yul\":25486:25519   */\n      0x5265656e7472616e637947756172643a207265656e7472616e742063616c6c00\n        /* \"#utility.yul\":25482:25483   */\n      0x00\n        /* \"#utility.yul\":25474:25480   */\n      dup3\n        /* \"#utility.yul\":25470:25484   */\n      add\n        /* \"#utility.yul\":25463:25520   */\n      mstore\n        /* \"#utility.yul\":25346:25527   */\n      pop\n      jump\t// out\n        /* \"#utility.yul\":25533:25899   */\n    tag_481:\n        /* \"#utility.yul\":25675:25678   */\n      0x00\n        /* \"#utility.yul\":25696:25763   */\n      tag_784\n        /* \"#utility.yul\":25760:25762   */\n      0x1f\n        /* \"#utility.yul\":25755:25758   */\n      dup4\n        /* \"#utility.yul\":25696:25763   */\n      tag_469\n      jump\t// in\n    tag_784:\n        /* \"#utility.yul\":25689:25763   */\n      swap2\n      pop\n        /* \"#utility.yul\":25772:25865   */\n      tag_785\n        /* \"#utility.yul\":25861:25864   */\n      dup3\n        /* \"#utility.yul\":25772:25865   */\n      tag_480\n      jump\t// in\n    tag_785:\n        /* \"#utility.yul\":25890:25892   */\n      0x20\n        /* \"#utility.yul\":25885:25888   */\n      dup3\n        /* \"#utility.yul\":25881:25893   */\n      add\n        /* \"#utility.yul\":25874:25893   */\n      swap1\n      pop\n        /* \"#utility.yul\":25533:25899   */\n      swap2\n      swap1\n      pop\n      jump\t// out\n        /* \"#utility.yul\":25905:26324   */\n    tag_219:\n        /* \"#utility.yul\":26071:26075   */\n      0x00\n        /* \"#utility.yul\":26109:26111   */\n      0x20\n        /* \"#utility.yul\":26098:26107   */\n      dup3\n        /* \"#utility.yul\":26094:26112   */\n      add\n        /* \"#utility.yul\":26086:26112   */\n      swap1\n      pop\n        /* \"#utility.yul\":26158:26167   */\n      dup2\n        /* \"#utility.yul\":26152:26156   */\n      dup2\n        /* \"#utility.yul\":26148:26168   */\n      sub\n        /* \"#utility.yul\":26144:26145   */\n      0x00\n        /* \"#utility.yul\":26133:26142   */\n      dup4\n        /* \"#utility.yul\":26129:26146   */\n      add\n        /* \"#utility.yul\":26122:26169   */\n      mstore\n        /* \"#utility.yul\":26186:26317   */\n      tag_787\n        /* \"#utility.yul\":26312:26316   */\n      dup2\n        /* \"#utility.yul\":26186:26317   */\n      tag_481\n      jump\t// in\n    tag_787:\n        /* \"#utility.yul\":26178:26317   */\n      swap1\n      pop\n        /* \"#utility.yul\":25905:26324   */\n      swap2\n      swap1\n      pop\n      jump\t// out\n        /* \"#utility.yul\":26330:26502   */\n    tag_482:\n        /* \"#utility.yul\":26470:26494   */\n      0x526577617264733a2057726f6e67206c656e6774687300000000000000000000\n        /* \"#utility.yul\":26466:26467   */\n      0x00\n        /* \"#utility.yul\":26458:26464   */\n      dup3\n        /* \"#utility.yul\":26454:26468   */\n      add\n        /* \"#utility.yul\":26447:26495   */\n      mstore\n        /* \"#utility.yul\":26330:26502   */\n      pop\n      jump\t// out\n        /* \"#utility.yul\":26508:26874   */\n    tag_483:\n        /* \"#utility.yul\":26650:26653   */\n      0x00\n        /* \"#utility.yul\":26671:26738   */\n      tag_790\n        /* \"#utility.yul\":26735:26737   */\n      0x16\n        /* \"#utility.yul\":26730:26733   */\n      dup4\n        /* \"#utility.yul\":26671:26738   */\n      tag_469\n      jump\t// in\n    tag_790:\n        /* \"#utility.yul\":26664:26738   */\n      swap2\n      pop\n        /* \"#utility.yul\":26747:26840   */\n      tag_791\n        /* \"#utility.yul\":26836:26839   */\n      dup3\n        /* \"#utility.yul\":26747:26840   */\n      tag_482\n      jump\t// in\n    tag_791:\n        /* \"#utility.yul\":26865:26867   */\n      0x20\n        /* \"#utility.yul\":26860:26863   */\n      dup3\n        /* \"#utility.yul\":26856:26868   */\n      add\n        /* \"#utility.yul\":26849:26868   */\n      swap1\n      pop\n        /* \"#utility.yul\":26508:26874   */\n      swap2\n      swap1\n      pop\n      jump\t// out\n        /* \"#utility.yul\":26880:27299   */\n    tag_225:\n        /* \"#utility.yul\":27046:27050   */\n      0x00\n        /* \"#utility.yul\":27084:27086   */\n      0x20\n        /* \"#utility.yul\":27073:27082   */\n      dup3\n        /* \"#utility.yul\":27069:27087   */\n      add\n        /* \"#utility.yul\":27061:27087   */\n      swap1\n      pop\n        /* \"#utility.yul\":27133:27142   */\n      dup2\n        /* \"#utility.yul\":27127:27131   */\n      dup2\n        /* \"#utility.yul\":27123:27143   */\n      sub\n        /* \"#utility.yul\":27119:27120   */\n      0x00\n        /* \"#utility.yul\":27108:27117   */\n      dup4\n        /* \"#utility.yul\":27104:27121   */\n      add\n        /* \"#utility.yul\":27097:27144   */\n      mstore\n        /* \"#utility.yul\":27161:27292   */\n      tag_793\n        /* \"#utility.yul\":27287:27291   */\n      dup2\n        /* \"#utility.yul\":27161:27292   */\n      tag_483\n      jump\t// in\n    tag_793:\n        /* \"#utility.yul\":27153:27292   */\n      swap1\n      pop\n        /* \"#utility.yul\":26880:27299   */\n      swap2\n      swap1\n      pop\n      jump\t// out\n        /* \"#utility.yul\":27305:27480   */\n    tag_484:\n        /* \"#utility.yul\":27445:27472   */\n      0x526577617264733a2054726565206e6f6e6578697374656e7400000000000000\n        /* \"#utility.yul\":27441:27442   */\n      0x00\n        /* \"#utility.yul\":27433:27439   */\n      dup3\n        /* \"#utility.yul\":27429:27443   */\n      add\n        /* \"#utility.yul\":27422:27473   */\n      mstore\n        /* \"#utility.yul\":27305:27480   */\n      pop\n      jump\t// out\n        /* \"#utility.yul\":27486:27852   */\n    tag_485:\n        /* \"#utility.yul\":27628:27631   */\n      0x00\n        /* \"#utility.yul\":27649:27716   */\n      tag_796\n        /* \"#utility.yul\":27713:27715   */\n      0x19\n        /* \"#utility.yul\":27708:27711   */\n      dup4\n        /* \"#utility.yul\":27649:27716   */\n      tag_469\n      jump\t// in\n    tag_796:\n        /* \"#utility.yul\":27642:27716   */\n      swap2\n      pop\n        /* \"#utility.yul\":27725:27818   */\n      tag_797\n        /* \"#utility.yul\":27814:27817   */\n      dup3\n        /* \"#utility.yul\":27725:27818   */\n      tag_484\n      jump\t// in\n    tag_797:\n        /* \"#utility.yul\":27843:27845   */\n      0x20\n        /* \"#utility.yul\":27838:27841   */\n      dup3\n        /* \"#utility.yul\":27834:27846   */\n      add\n        /* \"#utility.yul\":27827:27846   */\n      swap1\n      pop\n        /* \"#utility.yul\":27486:27852   */\n      swap2\n      swap1\n      pop\n      jump\t// out\n        /* \"#utility.yul\":27858:28277   */\n    tag_237:\n        /* \"#utility.yul\":28024:28028   */\n      0x00\n        /* \"#utility.yul\":28062:28064   */\n      0x20\n        /* \"#utility.yul\":28051:28060   */\n      dup3\n        /* \"#utility.yul\":28047:28065   */\n      add\n        /* \"#utility.yul\":28039:28065   */\n      swap1\n      pop\n        /* \"#utility.yul\":28111:28120   */\n      dup2\n        /* \"#utility.yul\":28105:28109   */\n      dup2\n        /* \"#utility.yul\":28101:28121   */\n      sub\n        /* \"#utility.yul\":28097:28098   */\n      0x00\n        /* \"#utility.yul\":28086:28095   */\n      dup4\n        /* \"#utility.yul\":28082:28099   */\n      add\n        /* \"#utility.yul\":28075:28122   */\n      mstore\n        /* \"#utility.yul\":28139:28270   */\n      tag_799\n        /* \"#utility.yul\":28265:28269   */\n      dup2\n        /* \"#utility.yul\":28139:28270   */\n      tag_485\n      jump\t// in\n    tag_799:\n        /* \"#utility.yul\":28131:28270   */\n      swap1\n      pop\n        /* \"#utility.yul\":27858:28277   */\n      swap2\n      swap1\n      pop\n      jump\t// out\n        /* \"#utility.yul\":28283:28455   */\n    tag_486:\n        /* \"#utility.yul\":28423:28447   */\n      0x526577617264733a20496e76616c69642070726f6f6600000000000000000000\n        /* \"#utility.yul\":28419:28420   */\n      0x00\n        /* \"#utility.yul\":28411:28417   */\n      dup3\n        /* \"#utility.yul\":28407:28421   */\n      add\n        /* \"#utility.yul\":28400:28448   */\n      mstore\n        /* \"#utility.yul\":28283:28455   */\n      pop\n      jump\t// out\n        /* \"#utility.yul\":28461:28827   */\n    tag_487:\n        /* \"#utility.yul\":28603:28606   */\n      0x00\n        /* \"#utility.yul\":28624:28691   */\n      tag_802\n        /* \"#utility.yul\":28688:28690   */\n      0x16\n        /* \"#utility.yul\":28683:28686   */\n      dup4\n        /* \"#utility.yul\":28624:28691   */\n      tag_469\n      jump\t// in\n    tag_802:\n        /* \"#utility.yul\":28617:28691   */\n      swap2\n      pop\n        /* \"#utility.yul\":28700:28793   */\n      tag_803\n        /* \"#utility.yul\":28789:28792   */\n      dup3\n        /* \"#utility.yul\":28700:28793   */\n      tag_486\n      jump\t// in\n    tag_803:\n        /* \"#utility.yul\":28818:28820   */\n      0x20\n        /* \"#utility.yul\":28813:28816   */\n      dup3\n        /* \"#utility.yul\":28809:28821   */\n      add\n        /* \"#utility.yul\":28802:28821   */\n      swap1\n      pop\n        /* \"#utility.yul\":28461:28827   */\n      swap2\n      swap1\n      pop\n      jump\t// out\n        /* \"#utility.yul\":28833:29252   */\n    tag_249:\n        /* \"#utility.yul\":28999:29003   */\n      0x00\n        /* \"#utility.yul\":29037:29039   */\n      0x20\n        /* \"#utility.yul\":29026:29035   */\n      dup3\n        /* \"#utility.yul\":29022:29040   */\n      add\n        /* \"#utility.yul\":29014:29040   */\n      swap1\n      pop\n        /* \"#utility.yul\":29086:29095   */\n      dup2\n        /* \"#utility.yul\":29080:29084   */\n      dup2\n        /* \"#utility.yul\":29076:29096   */\n      sub\n        /* \"#utility.yul\":29072:29073   */\n      0x00\n        /* \"#utility.yul\":29061:29070   */\n      dup4\n        /* \"#utility.yul\":29057:29074   */\n      add\n        /* \"#utility.yul\":29050:29097   */\n      mstore\n        /* \"#utility.yul\":29114:29245   */\n      tag_805\n        /* \"#utility.yul\":29240:29244   */\n      dup2\n        /* \"#utility.yul\":29114:29245   */\n      tag_487\n      jump\t// in\n    tag_805:\n        /* \"#utility.yul\":29106:29245   */\n      swap1\n      pop\n        /* \"#utility.yul\":28833:29252   */\n      swap2\n      swap1\n      pop\n      jump\t// out\n        /* \"#utility.yul\":29258:29432   */\n    tag_488:\n        /* \"#utility.yul\":29398:29424   */\n      0x526577617264733a20416c726561647920636c61696d65640000000000000000\n        /* \"#utility.yul\":29394:29395   */\n      0x00\n        /* \"#utility.yul\":29386:29392   */\n      dup3\n        /* \"#utility.yul\":29382:29396   */\n      add\n        /* \"#utility.yul\":29375:29425   */\n      mstore\n        /* \"#utility.yul\":29258:29432   */\n      pop\n      jump\t// out\n        /* \"#utility.yul\":29438:29804   */\n    tag_489:\n        /* \"#utility.yul\":29580:29583   */\n      0x00\n        /* \"#utility.yul\":29601:29668   */\n      tag_808\n        /* \"#utility.yul\":29665:29667   */\n      0x18\n        /* \"#utility.yul\":29660:29663   */\n      dup4\n        /* \"#utility.yul\":29601:29668   */\n      tag_469\n      jump\t// in\n    tag_808:\n        /* \"#utility.yul\":29594:29668   */\n      swap2\n      pop\n        /* \"#utility.yul\":29677:29770   */\n      tag_809\n        /* \"#utility.yul\":29766:29769   */\n      dup3\n        /* \"#utility.yul\":29677:29770   */\n      tag_488\n      jump\t// in\n    tag_809:\n        /* \"#utility.yul\":29795:29797   */\n      0x20\n        /* \"#utility.yul\":29790:29793   */\n      dup3\n        /* \"#utility.yul\":29786:29798   */\n      add\n        /* \"#utility.yul\":29779:29798   */\n      swap1\n      pop\n        /* \"#utility.yul\":29438:29804   */\n      swap2\n      swap1\n      pop\n      jump\t// out\n        /* \"#utility.yul\":29810:30229   */\n    tag_252:\n        /* \"#utility.yul\":29976:29980   */\n      0x00\n        /* \"#utility.yul\":30014:30016   */\n      0x20\n        /* \"#utility.yul\":30003:30012   */\n      dup3\n        /* \"#utility.yul\":29999:30017   */\n      add\n        /* \"#utility.yul\":29991:30017   */\n      swap1\n      pop\n        /* \"#utility.yul\":30063:30072   */\n      dup2\n        /* \"#utility.yul\":30057:30061   */\n      dup2\n        /* \"#utility.yul\":30053:30073   */\n      sub\n        /* \"#utility.yul\":30049:30050   */\n      0x00\n        /* \"#utility.yul\":30038:30047   */\n      dup4\n        /* \"#utility.yul\":30034:30051   */\n      add\n        /* \"#utility.yul\":30027:30074   */\n      mstore\n        /* \"#utility.yul\":30091:30222   */\n      tag_811\n        /* \"#utility.yul\":30217:30221   */\n      dup2\n        /* \"#utility.yul\":30091:30222   */\n      tag_489\n      jump\t// in\n    tag_811:\n        /* \"#utility.yul\":30083:30222   */\n      swap1\n      pop\n        /* \"#utility.yul\":29810:30229   */\n      swap2\n      swap1\n      pop\n      jump\t// out\n        /* \"#utility.yul\":30235:30416   */\n    tag_490:\n        /* \"#utility.yul\":30375:30408   */\n      0x526577617264733a20416d6f756e7420686967686572207468616e206d617800\n        /* \"#utility.yul\":30371:30372   */\n      0x00\n        /* \"#utility.yul\":30363:30369   */\n      dup3\n        /* \"#utility.yul\":30359:30373   */\n      add\n        /* \"#utility.yul\":30352:30409   */\n      mstore\n        /* \"#utility.yul\":30235:30416   */\n      pop\n      jump\t// out\n        /* \"#utility.yul\":30422:30788   */\n    tag_491:\n        /* \"#utility.yul\":30564:30567   */\n      0x00\n        /* \"#utility.yul\":30585:30652   */\n      tag_814\n        /* \"#utility.yul\":30649:30651   */\n      0x1f\n        /* \"#utility.yul\":30644:30647   */\n      dup4\n        /* \"#utility.yul\":30585:30652   */\n      tag_469\n      jump\t// in\n    tag_814:\n        /* \"#utility.yul\":30578:30652   */\n      swap2\n      pop\n        /* \"#utility.yul\":30661:30754   */\n      tag_815\n        /* \"#utility.yul\":30750:30753   */\n      dup3\n        /* \"#utility.yul\":30661:30754   */\n      tag_490\n      jump\t// in\n    tag_815:\n        /* \"#utility.yul\":30779:30781   */\n      0x20\n        /* \"#utility.yul\":30774:30777   */\n      dup3\n        /* \"#utility.yul\":30770:30782   */\n      add\n        /* \"#utility.yul\":30763:30782   */\n      swap1\n      pop\n        /* \"#utility.yul\":30422:30788   */\n      swap2\n      swap1\n      pop\n      jump\t// out\n        /* \"#utility.yul\":30794:31213   */\n    tag_260:\n        /* \"#utility.yul\":30960:30964   */\n      0x00\n        /* \"#utility.yul\":30998:31000   */\n      0x20\n        /* \"#utility.yul\":30987:30996   */\n      dup3\n        /* \"#utility.yul\":30983:31001   */\n      add\n        /* \"#utility.yul\":30975:31001   */\n      swap1\n      pop\n        /* \"#utility.yul\":31047:31056   */\n      dup2\n        /* \"#utility.yul\":31041:31045   */\n      dup2\n        /* \"#utility.yul\":31037:31057   */\n      sub\n        /* \"#utility.yul\":31033:31034   */\n      0x00\n        /* \"#utility.yul\":31022:31031   */\n      dup4\n        /* \"#utility.yul\":31018:31035   */\n      add\n        /* \"#utility.yul\":31011:31058   */\n      mstore\n        /* \"#utility.yul\":31075:31206   */\n      tag_817\n        /* \"#utility.yul\":31201:31205   */\n      dup2\n        /* \"#utility.yul\":31075:31206   */\n      tag_491\n      jump\t// in\n    tag_817:\n        /* \"#utility.yul\":31067:31206   */\n      swap1\n      pop\n        /* \"#utility.yul\":30794:31213   */\n      swap2\n      swap1\n      pop\n      jump\t// out\n        /* \"#utility.yul\":31219:31401   */\n    tag_492:\n        /* \"#utility.yul\":31316:31327   */\n      0x00\n        /* \"#utility.yul\":31350:31356   */\n      dup3\n        /* \"#utility.yul\":31345:31348   */\n      dup3\n        /* \"#utility.yul\":31338:31357   */\n      mstore\n        /* \"#utility.yul\":31390:31394   */\n      0x20\n        /* \"#utility.yul\":31385:31388   */\n      dup3\n        /* \"#utility.yul\":31381:31395   */\n      add\n        /* \"#utility.yul\":31366:31395   */\n      swap1\n      pop\n        /* \"#utility.yul\":31219:31401   */\n      swap3\n      swap2\n      pop\n      pop\n      jump\t// out\n        /* \"#utility.yul\":31407:31507   */\n    tag_493:\n        /* \"#utility.yul\":31474:31478   */\n      0x00\n        /* \"#utility.yul\":31497:31500   */\n      dup2\n        /* \"#utility.yul\":31489:31500   */\n      swap1\n      pop\n        /* \"#utility.yul\":31407:31507   */\n      swap2\n      swap1\n      pop\n      jump\t// out\n        /* \"#utility.yul\":31513:31615   */\n    tag_494:\n        /* \"#utility.yul\":31586:31608   */\n      tag_821\n        /* \"#utility.yul\":31602:31607   */\n      dup2\n        /* \"#utility.yul\":31586:31608   */\n      tag_424\n      jump\t// in\n    tag_821:\n        /* \"#utility.yul\":31581:31584   */\n      dup3\n        /* \"#utility.yul\":31574:31609   */\n      mstore\n        /* \"#utility.yul\":31513:31615   */\n      pop\n      pop\n      jump\t// out\n        /* \"#utility.yul\":31621:31792   */\n    tag_495:\n        /* \"#utility.yul\":31686:31696   */\n      0x00\n        /* \"#utility.yul\":31707:31749   */\n      tag_823\n        /* \"#utility.yul\":31745:31748   */\n      dup4\n        /* \"#utility.yul\":31737:31743   */\n      dup4\n        /* \"#utility.yul\":31707:31749   */\n      tag_494\n      jump\t// in\n    tag_823:\n        /* \"#utility.yul\":31781:31785   */\n      0x20\n        /* \"#utility.yul\":31776:31779   */\n      dup4\n        /* \"#utility.yul\":31772:31786   */\n      add\n        /* \"#utility.yul\":31758:31786   */\n      swap1\n      pop\n        /* \"#utility.yul\":31621:31792   */\n      swap3\n      swap2\n      pop\n      pop\n      jump\t// out\n        /* \"#utility.yul\":31798:31916   */\n    tag_496:\n        /* \"#utility.yul\":31848:31853   */\n      0x00\n        /* \"#utility.yul\":31873:31910   */\n      tag_825\n        /* \"#utility.yul\":31906:31908   */\n      0x20\n        /* \"#utility.yul\":31901:31904   */\n      dup5\n        /* \"#utility.yul\":31897:31909   */\n      add\n        /* \"#utility.yul\":31892:31895   */\n      dup5\n        /* \"#utility.yul\":31873:31910   */\n      tag_426\n      jump\t// in\n    tag_825:\n        /* \"#utility.yul\":31864:31910   */\n      swap1\n      pop\n        /* \"#utility.yul\":31798:31916   */\n      swap3\n      swap2\n      pop\n      pop\n      jump\t// out\n        /* \"#utility.yul\":31922:32035   */\n    tag_497:\n        /* \"#utility.yul\":31992:31996   */\n      0x00\n        /* \"#utility.yul\":32024:32028   */\n      0x20\n        /* \"#utility.yul\":32019:32022   */\n      dup3\n        /* \"#utility.yul\":32015:32029   */\n      add\n        /* \"#utility.yul\":32007:32029   */\n      swap1\n      pop\n        /* \"#utility.yul\":31922:32035   */\n      swap2\n      swap1\n      pop\n      jump\t// out\n        /* \"#utility.yul\":32067:32750   */\n    tag_498:\n        /* \"#utility.yul\":32192:32195   */\n      0x00\n        /* \"#utility.yul\":32215:32299   */\n      tag_828\n        /* \"#utility.yul\":32292:32298   */\n      dup4\n        /* \"#utility.yul\":32287:32290   */\n      dup6\n        /* \"#utility.yul\":32215:32299   */\n      tag_492\n      jump\t// in\n    tag_828:\n        /* \"#utility.yul\":32208:32299   */\n      swap4\n      pop\n        /* \"#utility.yul\":32323:32379   */\n      tag_829\n        /* \"#utility.yul\":32373:32378   */\n      dup3\n        /* \"#utility.yul\":32323:32379   */\n      tag_493\n      jump\t// in\n    tag_829:\n        /* \"#utility.yul\":32402:32409   */\n      dup1\n        /* \"#utility.yul\":32433:32434   */\n      0x00\n        /* \"#utility.yul\":32418:32725   */\n    tag_830:\n        /* \"#utility.yul\":32443:32449   */\n      dup6\n        /* \"#utility.yul\":32440:32441   */\n      dup2\n        /* \"#utility.yul\":32437:32450   */\n      lt\n        /* \"#utility.yul\":32418:32725   */\n      iszero\n      tag_832\n      jumpi\n        /* \"#utility.yul\":32513:32553   */\n      tag_833\n        /* \"#utility.yul\":32546:32552   */\n      dup3\n        /* \"#utility.yul\":32537:32544   */\n      dup5\n        /* \"#utility.yul\":32513:32553   */\n      tag_496\n      jump\t// in\n    tag_833:\n        /* \"#utility.yul\":32573:32632   */\n      tag_834\n        /* \"#utility.yul\":32628:32631   */\n      dup9\n        /* \"#utility.yul\":32613:32626   */\n      dup3\n        /* \"#utility.yul\":32573:32632   */\n      tag_495\n      jump\t// in\n    tag_834:\n        /* \"#utility.yul\":32566:32632   */\n      swap8\n      pop\n        /* \"#utility.yul\":32655:32715   */\n      tag_835\n        /* \"#utility.yul\":32708:32714   */\n      dup4\n        /* \"#utility.yul\":32655:32715   */\n      tag_497\n      jump\t// in\n    tag_835:\n        /* \"#utility.yul\":32645:32715   */\n      swap3\n      pop\n        /* \"#utility.yul\":32478:32725   */\n      pop\n        /* \"#utility.yul\":32465:32466   */\n      0x01\n        /* \"#utility.yul\":32462:32463   */\n      dup2\n        /* \"#utility.yul\":32458:32467   */\n      add\n        /* \"#utility.yul\":32453:32467   */\n      swap1\n      pop\n        /* \"#utility.yul\":32418:32725   */\n      jump(tag_830)\n    tag_832:\n        /* \"#utility.yul\":32422:32436   */\n      pop\n        /* \"#utility.yul\":32741:32744   */\n      dup6\n        /* \"#utility.yul\":32734:32744   */\n      swap3\n      pop\n        /* \"#utility.yul\":32197:32750   */\n      pop\n      pop\n        /* \"#utility.yul\":32067:32750   */\n      swap4\n      swap3\n      pop\n      pop\n      pop\n      jump\t// out\n        /* \"#utility.yul\":32756:33734   */\n    tag_271:\n        /* \"#utility.yul\":33067:33071   */\n      0x00\n        /* \"#utility.yul\":33105:33108   */\n      0xa0\n        /* \"#utility.yul\":33094:33103   */\n      dup3\n        /* \"#utility.yul\":33090:33109   */\n      add\n        /* \"#utility.yul\":33082:33109   */\n      swap1\n      pop\n        /* \"#utility.yul\":33119:33190   */\n      tag_837\n        /* \"#utility.yul\":33187:33188   */\n      0x00\n        /* \"#utility.yul\":33176:33185   */\n      dup4\n        /* \"#utility.yul\":33172:33189   */\n      add\n        /* \"#utility.yul\":33163:33169   */\n      dup10\n        /* \"#utility.yul\":33119:33190   */\n      tag_457\n      jump\t// in\n    tag_837:\n        /* \"#utility.yul\":33200:33272   */\n      tag_838\n        /* \"#utility.yul\":33268:33270   */\n      0x20\n        /* \"#utility.yul\":33257:33266   */\n      dup4\n        /* \"#utility.yul\":33253:33271   */\n      add\n        /* \"#utility.yul\":33244:33250   */\n      dup9\n        /* \"#utility.yul\":33200:33272   */\n      tag_428\n      jump\t// in\n    tag_838:\n        /* \"#utility.yul\":33282:33354   */\n      tag_839\n        /* \"#utility.yul\":33350:33352   */\n      0x40\n        /* \"#utility.yul\":33339:33348   */\n      dup4\n        /* \"#utility.yul\":33335:33353   */\n      add\n        /* \"#utility.yul\":33326:33332   */\n      dup8\n        /* \"#utility.yul\":33282:33354   */\n      tag_428\n      jump\t// in\n    tag_839:\n        /* \"#utility.yul\":33401:33410   */\n      dup2\n        /* \"#utility.yul\":33395:33399   */\n      dup2\n        /* \"#utility.yul\":33391:33411   */\n      sub\n        /* \"#utility.yul\":33386:33388   */\n      0x60\n        /* \"#utility.yul\":33375:33384   */\n      dup4\n        /* \"#utility.yul\":33371:33389   */\n      add\n        /* \"#utility.yul\":33364:33412   */\n      mstore\n        /* \"#utility.yul\":33429:33543   */\n      tag_840\n        /* \"#utility.yul\":33538:33542   */\n      dup2\n        /* \"#utility.yul\":33529:33535   */\n      dup6\n        /* \"#utility.yul\":33521:33527   */\n      dup8\n        /* \"#utility.yul\":33429:33543   */\n      tag_498\n      jump\t// in\n    tag_840:\n        /* \"#utility.yul\":33421:33543   */\n      swap1\n      pop\n        /* \"#utility.yul\":33591:33600   */\n      dup2\n        /* \"#utility.yul\":33585:33589   */\n      dup2\n        /* \"#utility.yul\":33581:33601   */\n      sub\n        /* \"#utility.yul\":33575:33578   */\n      0x80\n        /* \"#utility.yul\":33564:33573   */\n      dup4\n        /* \"#utility.yul\":33560:33579   */\n      add\n        /* \"#utility.yul\":33553:33602   */\n      mstore\n        /* \"#utility.yul\":33619:33727   */\n      tag_841\n        /* \"#utility.yul\":33722:33726   */\n      dup2\n        /* \"#utility.yul\":33713:33719   */\n      dup5\n        /* \"#utility.yul\":33619:33727   */\n      tag_449\n      jump\t// in\n    tag_841:\n        /* \"#utility.yul\":33611:33727   */\n      swap1\n      pop\n        /* \"#utility.yul\":32756:33734   */\n      swap8\n      swap7\n      pop\n      pop\n      pop\n      pop\n      pop\n      pop\n      pop\n      jump\t// out\n        /* \"#utility.yul\":33740:33910   */\n    tag_499:\n        /* \"#utility.yul\":33880:33902   */\n      0x4f776e65723a2057726f6e67206c656e67746873000000000000000000000000\n        /* \"#utility.yul\":33876:33877   */\n      0x00\n        /* \"#utility.yul\":33868:33874   */\n      dup3\n        /* \"#utility.yul\":33864:33878   */\n      add\n        /* \"#utility.yul\":33857:33903   */\n      mstore\n        /* \"#utility.yul\":33740:33910   */\n      pop\n      jump\t// out\n        /* \"#utility.yul\":33916:34282   */\n    tag_500:\n        /* \"#utility.yul\":34058:34061   */\n      0x00\n        /* \"#utility.yul\":34079:34146   */\n      tag_844\n        /* \"#utility.yul\":34143:34145   */\n      0x14\n        /* \"#utility.yul\":34138:34141   */\n      dup4\n        /* \"#utility.yul\":34079:34146   */\n      tag_469\n      jump\t// in\n    tag_844:\n        /* \"#utility.yul\":34072:34146   */\n      swap2\n      pop\n        /* \"#utility.yul\":34155:34248   */\n      tag_845\n        /* \"#utility.yul\":34244:34247   */\n      dup3\n        /* \"#utility.yul\":34155:34248   */\n      tag_499\n      jump\t// in\n    tag_845:\n        /* \"#utility.yul\":34273:34275   */\n      0x20\n        /* \"#utility.yul\":34268:34271   */\n      dup3\n        /* \"#utility.yul\":34264:34276   */\n      add\n        /* \"#utility.yul\":34257:34276   */\n      swap1\n      pop\n        /* \"#utility.yul\":33916:34282   */\n      swap2\n      swap1\n      pop\n      jump\t// out\n        /* \"#utility.yul\":34288:34707   */\n    tag_283:\n        /* \"#utility.yul\":34454:34458   */\n      0x00\n        /* \"#utility.yul\":34492:34494   */\n      0x20\n        /* \"#utility.yul\":34481:34490   */\n      dup3\n        /* \"#utility.yul\":34477:34495   */\n      add\n        /* \"#utility.yul\":34469:34495   */\n      swap1\n      pop\n        /* \"#utility.yul\":34541:34550   */\n      dup2\n        /* \"#utility.yul\":34535:34539   */\n      dup2\n        /* \"#utility.yul\":34531:34551   */\n      sub\n        /* \"#utility.yul\":34527:34528   */\n      0x00\n        /* \"#utility.yul\":34516:34525   */\n      dup4\n        /* \"#utility.yul\":34512:34529   */\n      add\n        /* \"#utility.yul\":34505:34552   */\n      mstore\n        /* \"#utility.yul\":34569:34700   */\n      tag_847\n        /* \"#utility.yul\":34695:34699   */\n      dup2\n        /* \"#utility.yul\":34569:34700   */\n      tag_500\n      jump\t// in\n    tag_847:\n        /* \"#utility.yul\":34561:34700   */\n      swap1\n      pop\n        /* \"#utility.yul\":34288:34707   */\n      swap2\n      swap1\n      pop\n      jump\t// out\n        /* \"#utility.yul\":34713:34886   */\n    tag_501:\n        /* \"#utility.yul\":34853:34878   */\n      0x4f776e65723a2054726565206e6f6e6578697374656e74000000000000000000\n        /* \"#utility.yul\":34849:34850   */\n      0x00\n        /* \"#utility.yul\":34841:34847   */\n      dup3\n        /* \"#utility.yul\":34837:34851   */\n      add\n        /* \"#utility.yul\":34830:34879   */\n      mstore\n        /* \"#utility.yul\":34713:34886   */\n      pop\n      jump\t// out\n        /* \"#utility.yul\":34892:35258   */\n    tag_502:\n        /* \"#utility.yul\":35034:35037   */\n      0x00\n        /* \"#utility.yul\":35055:35122   */\n      tag_850\n        /* \"#utility.yul\":35119:35121   */\n      0x17\n        /* \"#utility.yul\":35114:35117   */\n      dup4\n        /* \"#utility.yul\":35055:35122   */\n      tag_469\n      jump\t// in\n    tag_850:\n        /* \"#utility.yul\":35048:35122   */\n      swap2\n      pop\n        /* \"#utility.yul\":35131:35224   */\n      tag_851\n        /* \"#utility.yul\":35220:35223   */\n      dup3\n        /* \"#utility.yul\":35131:35224   */\n      tag_501\n      jump\t// in\n    tag_851:\n        /* \"#utility.yul\":35249:35251   */\n      0x20\n        /* \"#utility.yul\":35244:35247   */\n      dup3\n        /* \"#utility.yul\":35240:35252   */\n      add\n        /* \"#utility.yul\":35233:35252   */\n      swap1\n      pop\n        /* \"#utility.yul\":34892:35258   */\n      swap2\n      swap1\n      pop\n      jump\t// out\n        /* \"#utility.yul\":35264:35683   */\n    tag_292:\n        /* \"#utility.yul\":35430:35434   */\n      0x00\n        /* \"#utility.yul\":35468:35470   */\n      0x20\n        /* \"#utility.yul\":35457:35466   */\n      dup3\n        /* \"#utility.yul\":35453:35471   */\n      add\n        /* \"#utility.yul\":35445:35471   */\n      swap1\n      pop\n        /* \"#utility.yul\":35517:35526   */\n      dup2\n        /* \"#utility.yul\":35511:35515   */\n      dup2\n        /* \"#utility.yul\":35507:35527   */\n      sub\n        /* \"#utility.yul\":35503:35504   */\n      0x00\n        /* \"#utility.yul\":35492:35501   */\n      dup4\n        /* \"#utility.yul\":35488:35505   */\n      add\n        /* \"#utility.yul\":35481:35528   */\n      mstore\n        /* \"#utility.yul\":35545:35676   */\n      tag_853\n        /* \"#utility.yul\":35671:35675   */\n      dup2\n        /* \"#utility.yul\":35545:35676   */\n      tag_502\n      jump\t// in\n    tag_853:\n        /* \"#utility.yul\":35537:35676   */\n      swap1\n      pop\n        /* \"#utility.yul\":35264:35683   */\n      swap2\n      swap1\n      pop\n      jump\t// out\n        /* \"#utility.yul\":35689:35870   */\n    tag_503:\n        /* \"#utility.yul\":35829:35862   */\n      0x4f776e65723a204d65726b6c6520726f6f7420616c7265616479207573656400\n        /* \"#utility.yul\":35825:35826   */\n      0x00\n        /* \"#utility.yul\":35817:35823   */\n      dup3\n        /* \"#utility.yul\":35813:35827   */\n      add\n        /* \"#utility.yul\":35806:35863   */\n      mstore\n        /* \"#utility.yul\":35689:35870   */\n      pop\n      jump\t// out\n        /* \"#utility.yul\":35876:36242   */\n    tag_504:\n        /* \"#utility.yul\":36018:36021   */\n      0x00\n        /* \"#utility.yul\":36039:36106   */\n      tag_856\n        /* \"#utility.yul\":36103:36105   */\n      0x1f\n        /* \"#utility.yul\":36098:36101   */\n      dup4\n        /* \"#utility.yul\":36039:36106   */\n      tag_469\n      jump\t// in\n    tag_856:\n        /* \"#utility.yul\":36032:36106   */\n      swap2\n      pop\n        /* \"#utility.yul\":36115:36208   */\n      tag_857\n        /* \"#utility.yul\":36204:36207   */\n      dup3\n        /* \"#utility.yul\":36115:36208   */\n      tag_503\n      jump\t// in\n    tag_857:\n        /* \"#utility.yul\":36233:36235   */\n      0x20\n        /* \"#utility.yul\":36228:36231   */\n      dup3\n        /* \"#utility.yul\":36224:36236   */\n      add\n        /* \"#utility.yul\":36217:36236   */\n      swap1\n      pop\n        /* \"#utility.yul\":35876:36242   */\n      swap2\n      swap1\n      pop\n      jump\t// out\n        /* \"#utility.yul\":36248:36667   */\n    tag_297:\n        /* \"#utility.yul\":36414:36418   */\n      0x00\n        /* \"#utility.yul\":36452:36454   */\n      0x20\n        /* \"#utility.yul\":36441:36450   */\n      dup3\n        /* \"#utility.yul\":36437:36455   */\n      add\n        /* \"#utility.yul\":36429:36455   */\n      swap1\n      pop\n        /* \"#utility.yul\":36501:36510   */\n      dup2\n        /* \"#utility.yul\":36495:36499   */\n      dup2\n        /* \"#utility.yul\":36491:36511   */\n      sub\n        /* \"#utility.yul\":36487:36488   */\n      0x00\n        /* \"#utility.yul\":36476:36485   */\n      dup4\n        /* \"#utility.yul\":36472:36489   */\n      add\n        /* \"#utility.yul\":36465:36512   */\n      mstore\n        /* \"#utility.yul\":36529:36660   */\n      tag_859\n        /* \"#utility.yul\":36655:36659   */\n      dup2\n        /* \"#utility.yul\":36529:36660   */\n      tag_504\n      jump\t// in\n    tag_859:\n        /* \"#utility.yul\":36521:36660   */\n      swap1\n      pop\n        /* \"#utility.yul\":36248:36667   */\n      swap2\n      swap1\n      pop\n      jump\t// out\n        /* \"#utility.yul\":36673:36853   */\n    tag_505:\n        /* \"#utility.yul\":36813:36845   */\n      0x4f776e65723a2057726f6e6720736166652067756172642070726f6f66730000\n        /* \"#utility.yul\":36809:36810   */\n      0x00\n        /* \"#utility.yul\":36801:36807   */\n      dup3\n        /* \"#utility.yul\":36797:36811   */\n      add\n        /* \"#utility.yul\":36790:36846   */\n      mstore\n        /* \"#utility.yul\":36673:36853   */\n      pop\n      jump\t// out\n        /* \"#utility.yul\":36859:37225   */\n    tag_506:\n        /* \"#utility.yul\":37001:37004   */\n      0x00\n        /* \"#utility.yul\":37022:37089   */\n      tag_862\n        /* \"#utility.yul\":37086:37088   */\n      0x1e\n        /* \"#utility.yul\":37081:37084   */\n      dup4\n        /* \"#utility.yul\":37022:37089   */\n      tag_469\n      jump\t// in\n    tag_862:\n        /* \"#utility.yul\":37015:37089   */\n      swap2\n      pop\n        /* \"#utility.yul\":37098:37191   */\n      tag_863\n        /* \"#utility.yul\":37187:37190   */\n      dup3\n        /* \"#utility.yul\":37098:37191   */\n      tag_505\n      jump\t// in\n    tag_863:\n        /* \"#utility.yul\":37216:37218   */\n      0x20\n        /* \"#utility.yul\":37211:37214   */\n      dup3\n        /* \"#utility.yul\":37207:37219   */\n      add\n        /* \"#utility.yul\":37200:37219   */\n      swap1\n      pop\n        /* \"#utility.yul\":36859:37225   */\n      swap2\n      swap1\n      pop\n      jump\t// out\n        /* \"#utility.yul\":37231:37650   */\n    tag_322:\n        /* \"#utility.yul\":37397:37401   */\n      0x00\n        /* \"#utility.yul\":37435:37437   */\n      0x20\n        /* \"#utility.yul\":37424:37433   */\n      dup3\n        /* \"#utility.yul\":37420:37438   */\n      add\n        /* \"#utility.yul\":37412:37438   */\n      swap1\n      pop\n        /* \"#utility.yul\":37484:37493   */\n      dup2\n        /* \"#utility.yul\":37478:37482   */\n      dup2\n        /* \"#utility.yul\":37474:37494   */\n      sub\n        /* \"#utility.yul\":37470:37471   */\n      0x00\n        /* \"#utility.yul\":37459:37468   */\n      dup4\n        /* \"#utility.yul\":37455:37472   */\n      add\n        /* \"#utility.yul\":37448:37495   */\n      mstore\n        /* \"#utility.yul\":37512:37643   */\n      tag_865\n        /* \"#utility.yul\":37638:37642   */\n      dup2\n        /* \"#utility.yul\":37512:37643   */\n      tag_506\n      jump\t// in\n    tag_865:\n        /* \"#utility.yul\":37504:37643   */\n      swap1\n      pop\n        /* \"#utility.yul\":37231:37650   */\n      swap2\n      swap1\n      pop\n      jump\t// out\n        /* \"#utility.yul\":37656:37881   */\n    tag_507:\n        /* \"#utility.yul\":37796:37830   */\n      0x4f776e61626c653a206e6577206f776e657220697320746865207a65726f2061\n        /* \"#utility.yul\":37792:37793   */\n      0x00\n        /* \"#utility.yul\":37784:37790   */\n      dup3\n        /* \"#utility.yul\":37780:37794   */\n      add\n        /* \"#utility.yul\":37773:37831   */\n      mstore\n        /* \"#utility.yul\":37865:37873   */\n      0x6464726573730000000000000000000000000000000000000000000000000000\n        /* \"#utility.yul\":37860:37862   */\n      0x20\n        /* \"#utility.yul\":37852:37858   */\n      dup3\n        /* \"#utility.yul\":37848:37863   */\n      add\n        /* \"#utility.yul\":37841:37874   */\n      mstore\n        /* \"#utility.yul\":37656:37881   */\n      pop\n      jump\t// out\n        /* \"#utility.yul\":37887:38253   */\n    tag_508:\n        /* \"#utility.yul\":38029:38032   */\n      0x00\n        /* \"#utility.yul\":38050:38117   */\n      tag_868\n        /* \"#utility.yul\":38114:38116   */\n      0x26\n        /* \"#utility.yul\":38109:38112   */\n      dup4\n        /* \"#utility.yul\":38050:38117   */\n      tag_469\n      jump\t// in\n    tag_868:\n        /* \"#utility.yul\":38043:38117   */\n      swap2\n      pop\n        /* \"#utility.yul\":38126:38219   */\n      tag_869\n        /* \"#utility.yul\":38215:38218   */\n      dup3\n        /* \"#utility.yul\":38126:38219   */\n      tag_507\n      jump\t// in\n    tag_869:\n        /* \"#utility.yul\":38244:38246   */\n      0x40\n        /* \"#utility.yul\":38239:38242   */\n      dup3\n        /* \"#utility.yul\":38235:38247   */\n      add\n        /* \"#utility.yul\":38228:38247   */\n      swap1\n      pop\n        /* \"#utility.yul\":37887:38253   */\n      swap2\n      swap1\n      pop\n      jump\t// out\n        /* \"#utility.yul\":38259:38678   */\n    tag_333:\n        /* \"#utility.yul\":38425:38429   */\n      0x00\n        /* \"#utility.yul\":38463:38465   */\n      0x20\n        /* \"#utility.yul\":38452:38461   */\n      dup3\n        /* \"#utility.yul\":38448:38466   */\n      add\n        /* \"#utility.yul\":38440:38466   */\n      swap1\n      pop\n        /* \"#utility.yul\":38512:38521   */\n      dup2\n        /* \"#utility.yul\":38506:38510   */\n      dup2\n        /* \"#utility.yul\":38502:38522   */\n      sub\n        /* \"#utility.yul\":38498:38499   */\n      0x00\n        /* \"#utility.yul\":38487:38496   */\n      dup4\n        /* \"#utility.yul\":38483:38500   */\n      add\n        /* \"#utility.yul\":38476:38523   */\n      mstore\n        /* \"#utility.yul\":38540:38671   */\n      tag_871\n        /* \"#utility.yul\":38666:38670   */\n      dup2\n        /* \"#utility.yul\":38540:38671   */\n      tag_508\n      jump\t// in\n    tag_871:\n        /* \"#utility.yul\":38532:38671   */\n      swap1\n      pop\n        /* \"#utility.yul\":38259:38678   */\n      swap2\n      swap1\n      pop\n      jump\t// out\n        /* \"#utility.yul\":38684:38778   */\n    tag_509:\n        /* \"#utility.yul\":38717:38725   */\n      0x00\n        /* \"#utility.yul\":38765:38770   */\n      dup2\n        /* \"#utility.yul\":38761:38763   */\n      0x60\n        /* \"#utility.yul\":38757:38771   */\n      shl\n        /* \"#utility.yul\":38736:38771   */\n      swap1\n      pop\n        /* \"#utility.yul\":38684:38778   */\n      swap2\n      swap1\n      pop\n      jump\t// out\n        /* \"#utility.yul\":38784:38878   */\n    tag_510:\n        /* \"#utility.yul\":38823:38830   */\n      0x00\n        /* \"#utility.yul\":38852:38872   */\n      tag_874\n        /* \"#utility.yul\":38866:38871   */\n      dup3\n        /* \"#utility.yul\":38852:38872   */\n      tag_509\n      jump\t// in\n    tag_874:\n        /* \"#utility.yul\":38841:38872   */\n      swap1\n      pop\n        /* \"#utility.yul\":38784:38878   */\n      swap2\n      swap1\n      pop\n      jump\t// out\n        /* \"#utility.yul\":38884:38984   */\n    tag_511:\n        /* \"#utility.yul\":38923:38930   */\n      0x00\n        /* \"#utility.yul\":38952:38978   */\n      tag_876\n        /* \"#utility.yul\":38972:38977   */\n      dup3\n        /* \"#utility.yul\":38952:38978   */\n      tag_510\n      jump\t// in\n    tag_876:\n        /* \"#utility.yul\":38941:38978   */\n      swap1\n      pop\n        /* \"#utility.yul\":38884:38984   */\n      swap2\n      swap1\n      pop\n      jump\t// out\n        /* \"#utility.yul\":38990:39147   */\n    tag_512:\n        /* \"#utility.yul\":39095:39140   */\n      tag_878\n        /* \"#utility.yul\":39115:39139   */\n      tag_879\n        /* \"#utility.yul\":39133:39138   */\n      dup3\n        /* \"#utility.yul\":39115:39139   */\n      tag_421\n      jump\t// in\n    tag_879:\n        /* \"#utility.yul\":39095:39140   */\n      tag_511\n      jump\t// in\n    tag_878:\n        /* \"#utility.yul\":39090:39093   */\n      dup3\n        /* \"#utility.yul\":39083:39141   */\n      mstore\n        /* \"#utility.yul\":38990:39147   */\n      pop\n      pop\n      jump\t// out\n        /* \"#utility.yul\":39153:39232   */\n    tag_513:\n        /* \"#utility.yul\":39192:39199   */\n      0x00\n        /* \"#utility.yul\":39221:39226   */\n      dup2\n        /* \"#utility.yul\":39210:39226   */\n      swap1\n      pop\n        /* \"#utility.yul\":39153:39232   */\n      swap2\n      swap1\n      pop\n      jump\t// out\n        /* \"#utility.yul\":39238:39395   */\n    tag_514:\n        /* \"#utility.yul\":39343:39388   */\n      tag_882\n        /* \"#utility.yul\":39363:39387   */\n      tag_883\n        /* \"#utility.yul\":39381:39386   */\n      dup3\n        /* \"#utility.yul\":39363:39387   */\n      tag_427\n      jump\t// in\n    tag_883:\n        /* \"#utility.yul\":39343:39388   */\n      tag_513\n      jump\t// in\n    tag_882:\n        /* \"#utility.yul\":39338:39341   */\n      dup3\n        /* \"#utility.yul\":39331:39389   */\n      mstore\n        /* \"#utility.yul\":39238:39395   */\n      pop\n      pop\n      jump\t// out\n        /* \"#utility.yul\":39401:39798   */\n    tag_337:\n        /* \"#utility.yul\":39541:39544   */\n      0x00\n        /* \"#utility.yul\":39556:39631   */\n      tag_885\n        /* \"#utility.yul\":39627:39630   */\n      dup3\n        /* \"#utility.yul\":39618:39624   */\n      dup6\n        /* \"#utility.yul\":39556:39631   */\n      tag_512\n      jump\t// in\n    tag_885:\n        /* \"#utility.yul\":39656:39658   */\n      0x14\n        /* \"#utility.yul\":39651:39654   */\n      dup3\n        /* \"#utility.yul\":39647:39659   */\n      add\n        /* \"#utility.yul\":39640:39659   */\n      swap2\n      pop\n        /* \"#utility.yul\":39669:39744   */\n      tag_886\n        /* \"#utility.yul\":39740:39743   */\n      dup3\n        /* \"#utility.yul\":39731:39737   */\n      dup5\n        /* \"#utility.yul\":39669:39744   */\n      tag_514\n      jump\t// in\n    tag_886:\n        /* \"#utility.yul\":39769:39771   */\n      0x20\n        /* \"#utility.yul\":39764:39767   */\n      dup3\n        /* \"#utility.yul\":39760:39772   */\n      add\n        /* \"#utility.yul\":39753:39772   */\n      swap2\n      pop\n        /* \"#utility.yul\":39789:39792   */\n      dup2\n        /* \"#utility.yul\":39782:39792   */\n      swap1\n      pop\n        /* \"#utility.yul\":39401:39798   */\n      swap4\n      swap3\n      pop\n      pop\n      pop\n      jump\t// out\n        /* \"#utility.yul\":39804:39995   */\n    tag_343:\n        /* \"#utility.yul\":39844:39848   */\n      0x00\n        /* \"#utility.yul\":39864:39884   */\n      tag_888\n        /* \"#utility.yul\":39882:39883   */\n      dup3\n        /* \"#utility.yul\":39864:39884   */\n      tag_427\n      jump\t// in\n    tag_888:\n        /* \"#utility.yul\":39859:39884   */\n      swap2\n      pop\n        /* \"#utility.yul\":39898:39918   */\n      tag_889\n        /* \"#utility.yul\":39916:39917   */\n      dup4\n        /* \"#utility.yul\":39898:39918   */\n      tag_427\n      jump\t// in\n    tag_889:\n        /* \"#utility.yul\":39893:39918   */\n      swap3\n      pop\n        /* \"#utility.yul\":39937:39938   */\n      dup3\n        /* \"#utility.yul\":39934:39935   */\n      dup3\n        /* \"#utility.yul\":39931:39939   */\n      lt\n        /* \"#utility.yul\":39928:39962   */\n      iszero\n      tag_890\n      jumpi\n        /* \"#utility.yul\":39942:39960   */\n      tag_891\n      tag_468\n      jump\t// in\n    tag_891:\n        /* \"#utility.yul\":39928:39962   */\n    tag_890:\n        /* \"#utility.yul\":39987:39988   */\n      dup3\n        /* \"#utility.yul\":39984:39985   */\n      dup3\n        /* \"#utility.yul\":39980:39989   */\n      sub\n        /* \"#utility.yul\":39972:39989   */\n      swap1\n      pop\n        /* \"#utility.yul\":39804:39995   */\n      swap3\n      swap2\n      pop\n      pop\n      jump\t// out\n        /* \"#utility.yul\":40001:40333   */\n    tag_356:\n        /* \"#utility.yul\":40122:40126   */\n      0x00\n        /* \"#utility.yul\":40160:40162   */\n      0x40\n        /* \"#utility.yul\":40149:40158   */\n      dup3\n        /* \"#utility.yul\":40145:40163   */\n      add\n        /* \"#utility.yul\":40137:40163   */\n      swap1\n      pop\n        /* \"#utility.yul\":40173:40244   */\n      tag_893\n        /* \"#utility.yul\":40241:40242   */\n      0x00\n        /* \"#utility.yul\":40230:40239   */\n      dup4\n        /* \"#utility.yul\":40226:40243   */\n      add\n        /* \"#utility.yul\":40217:40223   */\n      dup6\n        /* \"#utility.yul\":40173:40244   */\n      tag_457\n      jump\t// in\n    tag_893:\n        /* \"#utility.yul\":40254:40326   */\n      tag_894\n        /* \"#utility.yul\":40322:40324   */\n      0x20\n        /* \"#utility.yul\":40311:40320   */\n      dup4\n        /* \"#utility.yul\":40307:40325   */\n      add\n        /* \"#utility.yul\":40298:40304   */\n      dup5\n        /* \"#utility.yul\":40254:40326   */\n      tag_428\n      jump\t// in\n    tag_894:\n        /* \"#utility.yul\":40001:40333   */\n      swap4\n      swap3\n      pop\n      pop\n      pop\n      jump\t// out\n        /* \"#utility.yul\":40339:40455   */\n    tag_515:\n        /* \"#utility.yul\":40409:40430   */\n      tag_896\n        /* \"#utility.yul\":40424:40429   */\n      dup2\n        /* \"#utility.yul\":40409:40430   */\n      tag_438\n      jump\t// in\n    tag_896:\n        /* \"#utility.yul\":40402:40407   */\n      dup2\n        /* \"#utility.yul\":40399:40431   */\n      eq\n        /* \"#utility.yul\":40389:40449   */\n      tag_897\n      jumpi\n        /* \"#utility.yul\":40445:40446   */\n      0x00\n        /* \"#utility.yul\":40442:40443   */\n      dup1\n        /* \"#utility.yul\":40435:40447   */\n      revert\n        /* \"#utility.yul\":40389:40449   */\n    tag_897:\n        /* \"#utility.yul\":40339:40455   */\n      pop\n      jump\t// out\n        /* \"#utility.yul\":40461:40598   */\n    tag_516:\n        /* \"#utility.yul\":40515:40520   */\n      0x00\n        /* \"#utility.yul\":40546:40552   */\n      dup2\n        /* \"#utility.yul\":40540:40553   */\n      mload\n        /* \"#utility.yul\":40531:40553   */\n      swap1\n      pop\n        /* \"#utility.yul\":40562:40592   */\n      tag_899\n        /* \"#utility.yul\":40586:40591   */\n      dup2\n        /* \"#utility.yul\":40562:40592   */\n      tag_515\n      jump\t// in\n    tag_899:\n        /* \"#utility.yul\":40461:40598   */\n      swap3\n      swap2\n      pop\n      pop\n      jump\t// out\n        /* \"#utility.yul\":40604:40949   */\n    tag_373:\n        /* \"#utility.yul\":40671:40677   */\n      0x00\n        /* \"#utility.yul\":40720:40722   */\n      0x20\n        /* \"#utility.yul\":40708:40717   */\n      dup3\n        /* \"#utility.yul\":40699:40706   */\n      dup5\n        /* \"#utility.yul\":40695:40718   */\n      sub\n        /* \"#utility.yul\":40691:40723   */\n      slt\n        /* \"#utility.yul\":40688:40807   */\n      iszero\n      tag_901\n      jumpi\n        /* \"#utility.yul\":40726:40805   */\n      tag_902\n      tag_418\n      jump\t// in\n    tag_902:\n        /* \"#utility.yul\":40688:40807   */\n    tag_901:\n        /* \"#utility.yul\":40846:40847   */\n      0x00\n        /* \"#utility.yul\":40871:40932   */\n      tag_903\n        /* \"#utility.yul\":40924:40931   */\n      dup5\n        /* \"#utility.yul\":40915:40921   */\n      dup3\n        /* \"#utility.yul\":40904:40913   */\n      dup6\n        /* \"#utility.yul\":40900:40922   */\n      add\n        /* \"#utility.yul\":40871:40932   */\n      tag_516\n      jump\t// in\n    tag_903:\n        /* \"#utility.yul\":40861:40932   */\n      swap2\n      pop\n        /* \"#utility.yul\":40817:40942   */\n      pop\n        /* \"#utility.yul\":40604:40949   */\n      swap3\n      swap2\n      pop\n      pop\n      jump\t// out\n        /* \"#utility.yul\":40955:41184   */\n    tag_517:\n        /* \"#utility.yul\":41095:41129   */\n      0x5361666545524332303a204552433230206f7065726174696f6e20646964206e\n        /* \"#utility.yul\":41091:41092   */\n      0x00\n        /* \"#utility.yul\":41083:41089   */\n      dup3\n        /* \"#utility.yul\":41079:41093   */\n      add\n        /* \"#utility.yul\":41072:41130   */\n      mstore\n        /* \"#utility.yul\":41164:41176   */\n      0x6f74207375636365656400000000000000000000000000000000000000000000\n        /* \"#utility.yul\":41159:41161   */\n      0x20\n        /* \"#utility.yul\":41151:41157   */\n      dup3\n        /* \"#utility.yul\":41147:41162   */\n      add\n        /* \"#utility.yul\":41140:41177   */\n      mstore\n        /* \"#utility.yul\":40955:41184   */\n      pop\n      jump\t// out\n        /* \"#utility.yul\":41190:41556   */\n    tag_518:\n        /* \"#utility.yul\":41332:41335   */\n      0x00\n        /* \"#utility.yul\":41353:41420   */\n      tag_906\n        /* \"#utility.yul\":41417:41419   */\n      0x2a\n        /* \"#utility.yul\":41412:41415   */\n      dup4\n        /* \"#utility.yul\":41353:41420   */\n      tag_469\n      jump\t// in\n    tag_906:\n        /* \"#utility.yul\":41346:41420   */\n      swap2\n      pop\n        /* \"#utility.yul\":41429:41522   */\n      tag_907\n        /* \"#utility.yul\":41518:41521   */\n      dup3\n        /* \"#utility.yul\":41429:41522   */\n      tag_517\n      jump\t// in\n    tag_907:\n        /* \"#utility.yul\":41547:41549   */\n      0x40\n        /* \"#utility.yul\":41542:41545   */\n      dup3\n        /* \"#utility.yul\":41538:41550   */\n      add\n        /* \"#utility.yul\":41531:41550   */\n      swap1\n      pop\n        /* \"#utility.yul\":41190:41556   */\n      swap2\n      swap1\n      pop\n      jump\t// out\n        /* \"#utility.yul\":41562:41981   */\n    tag_376:\n        /* \"#utility.yul\":41728:41732   */\n      0x00\n        /* \"#utility.yul\":41766:41768   */\n      0x20\n        /* \"#utility.yul\":41755:41764   */\n      dup3\n        /* \"#utility.yul\":41751:41769   */\n      add\n        /* \"#utility.yul\":41743:41769   */\n      swap1\n      pop\n        /* \"#utility.yul\":41815:41824   */\n      dup2\n        /* \"#utility.yul\":41809:41813   */\n      dup2\n        /* \"#utility.yul\":41805:41825   */\n      sub\n        /* \"#utility.yul\":41801:41802   */\n      0x00\n        /* \"#utility.yul\":41790:41799   */\n      dup4\n        /* \"#utility.yul\":41786:41803   */\n      add\n        /* \"#utility.yul\":41779:41826   */\n      mstore\n        /* \"#utility.yul\":41843:41974   */\n      tag_909\n        /* \"#utility.yul\":41969:41973   */\n      dup2\n        /* \"#utility.yul\":41843:41974   */\n      tag_518\n      jump\t// in\n    tag_909:\n        /* \"#utility.yul\":41835:41974   */\n      swap1\n      pop\n        /* \"#utility.yul\":41562:41981   */\n      swap2\n      swap1\n      pop\n      jump\t// out\n        /* \"#utility.yul\":41987:42212   */\n    tag_519:\n        /* \"#utility.yul\":42127:42161   */\n      0x416464726573733a20696e73756666696369656e742062616c616e636520666f\n        /* \"#utility.yul\":42123:42124   */\n      0x00\n        /* \"#utility.yul\":42115:42121   */\n      dup3\n        /* \"#utility.yul\":42111:42125   */\n      add\n        /* \"#utility.yul\":42104:42162   */\n      mstore\n        /* \"#utility.yul\":42196:42204   */\n      0x722063616c6c0000000000000000000000000000000000000000000000000000\n        /* \"#utility.yul\":42191:42193   */\n      0x20\n        /* \"#utility.yul\":42183:42189   */\n      dup3\n        /* \"#utility.yul\":42179:42194   */\n      add\n        /* \"#utility.yul\":42172:42205   */\n      mstore\n        /* \"#utility.yul\":41987:42212   */\n      pop\n      jump\t// out\n        /* \"#utility.yul\":42218:42584   */\n    tag_520:\n        /* \"#utility.yul\":42360:42363   */\n      0x00\n        /* \"#utility.yul\":42381:42448   */\n      tag_912\n        /* \"#utility.yul\":42445:42447   */\n      0x26\n        /* \"#utility.yul\":42440:42443   */\n      dup4\n        /* \"#utility.yul\":42381:42448   */\n      tag_469\n      jump\t// in\n    tag_912:\n        /* \"#utility.yul\":42374:42448   */\n      swap2\n      pop\n        /* \"#utility.yul\":42457:42550   */\n      tag_913\n        /* \"#utility.yul\":42546:42549   */\n      dup3\n        /* \"#utility.yul\":42457:42550   */\n      tag_519\n      jump\t// in\n    tag_913:\n        /* \"#utility.yul\":42575:42577   */\n      0x40\n        /* \"#utility.yul\":42570:42573   */\n      dup3\n        /* \"#utility.yul\":42566:42578   */\n      add\n        /* \"#utility.yul\":42559:42578   */\n      swap1\n      pop\n        /* \"#utility.yul\":42218:42584   */\n      swap2\n      swap1\n      pop\n      jump\t// out\n        /* \"#utility.yul\":42590:43009   */\n    tag_396:\n        /* \"#utility.yul\":42756:42760   */\n      0x00\n        /* \"#utility.yul\":42794:42796   */\n      0x20\n        /* \"#utility.yul\":42783:42792   */\n      dup3\n        /* \"#utility.yul\":42779:42797   */\n      add\n        /* \"#utility.yul\":42771:42797   */\n      swap1\n      pop\n        /* \"#utility.yul\":42843:42852   */\n      dup2\n        /* \"#utility.yul\":42837:42841   */\n      dup2\n        /* \"#utility.yul\":42833:42853   */\n      sub\n        /* \"#utility.yul\":42829:42830   */\n      0x00\n        /* \"#utility.yul\":42818:42827   */\n      dup4\n        /* \"#utility.yul\":42814:42831   */\n      add\n        /* \"#utility.yul\":42807:42854   */\n      mstore\n        /* \"#utility.yul\":42871:43002   */\n      tag_915\n        /* \"#utility.yul\":42997:43001   */\n      dup2\n        /* \"#utility.yul\":42871:43002   */\n      tag_520\n      jump\t// in\n    tag_915:\n        /* \"#utility.yul\":42863:43002   */\n      swap1\n      pop\n        /* \"#utility.yul\":42590:43009   */\n      swap2\n      swap1\n      pop\n      jump\t// out\n        /* \"#utility.yul\":43015:43194   */\n    tag_521:\n        /* \"#utility.yul\":43155:43186   */\n      0x416464726573733a2063616c6c20746f206e6f6e2d636f6e7472616374000000\n        /* \"#utility.yul\":43151:43152   */\n      0x00\n        /* \"#utility.yul\":43143:43149   */\n      dup3\n        /* \"#utility.yul\":43139:43153   */\n      add\n        /* \"#utility.yul\":43132:43187   */\n      mstore\n        /* \"#utility.yul\":43015:43194   */\n      pop\n      jump\t// out\n        /* \"#utility.yul\":43200:43566   */\n    tag_522:\n        /* \"#utility.yul\":43342:43345   */\n      0x00\n        /* \"#utility.yul\":43363:43430   */\n      tag_918\n        /* \"#utility.yul\":43427:43429   */\n      0x1d\n        /* \"#utility.yul\":43422:43425   */\n      dup4\n        /* \"#utility.yul\":43363:43430   */\n      tag_469\n      jump\t// in\n    tag_918:\n        /* \"#utility.yul\":43356:43430   */\n      swap2\n      pop\n        /* \"#utility.yul\":43439:43532   */\n      tag_919\n        /* \"#utility.yul\":43528:43531   */\n      dup3\n        /* \"#utility.yul\":43439:43532   */\n      tag_521\n      jump\t// in\n    tag_919:\n        /* \"#utility.yul\":43557:43559   */\n      0x20\n        /* \"#utility.yul\":43552:43555   */\n      dup3\n        /* \"#utility.yul\":43548:43560   */\n      add\n        /* \"#utility.yul\":43541:43560   */\n      swap1\n      pop\n        /* \"#utility.yul\":43200:43566   */\n      swap2\n      swap1\n      pop\n      jump\t// out\n        /* \"#utility.yul\":43572:43991   */\n    tag_401:\n        /* \"#utility.yul\":43738:43742   */\n      0x00\n        /* \"#utility.yul\":43776:43778   */\n      0x20\n        /* \"#utility.yul\":43765:43774   */\n      dup3\n        /* \"#utility.yul\":43761:43779   */\n      add\n        /* \"#utility.yul\":43753:43779   */\n      swap1\n      pop\n        /* \"#utility.yul\":43825:43834   */\n      dup2\n        /* \"#utility.yul\":43819:43823   */\n      dup2\n        /* \"#utility.yul\":43815:43835   */\n      sub\n        /* \"#utility.yul\":43811:43812   */\n      0x00\n        /* \"#utility.yul\":43800:43809   */\n      dup4\n        /* \"#utility.yul\":43796:43813   */\n      add\n        /* \"#utility.yul\":43789:43836   */\n      mstore\n        /* \"#utility.yul\":43853:43984   */\n      tag_921\n        /* \"#utility.yul\":43979:43983   */\n      dup2\n        /* \"#utility.yul\":43853:43984   */\n      tag_522\n      jump\t// in\n    tag_921:\n        /* \"#utility.yul\":43845:43984   */\n      swap1\n      pop\n        /* \"#utility.yul\":43572:43991   */\n      swap2\n      swap1\n      pop\n      jump\t// out\n        /* \"#utility.yul\":43997:44095   */\n    tag_523:\n        /* \"#utility.yul\":44048:44054   */\n      0x00\n        /* \"#utility.yul\":44082:44087   */\n      dup2\n        /* \"#utility.yul\":44076:44088   */\n      mload\n        /* \"#utility.yul\":44066:44088   */\n      swap1\n      pop\n        /* \"#utility.yul\":43997:44095   */\n      swap2\n      swap1\n      pop\n      jump\t// out\n        /* \"#utility.yul\":44101:44248   */\n    tag_524:\n        /* \"#utility.yul\":44202:44213   */\n      0x00\n        /* \"#utility.yul\":44239:44242   */\n      dup2\n        /* \"#utility.yul\":44224:44242   */\n      swap1\n      pop\n        /* \"#utility.yul\":44101:44248   */\n      swap3\n      swap2\n      pop\n      pop\n      jump\t// out\n        /* \"#utility.yul\":44254:44561   */\n    tag_525:\n        /* \"#utility.yul\":44322:44323   */\n      0x00\n        /* \"#utility.yul\":44332:44445   */\n    tag_925:\n        /* \"#utility.yul\":44346:44352   */\n      dup4\n        /* \"#utility.yul\":44343:44344   */\n      dup2\n        /* \"#utility.yul\":44340:44353   */\n      lt\n        /* \"#utility.yul\":44332:44445   */\n      iszero\n      tag_927\n      jumpi\n        /* \"#utility.yul\":44431:44432   */\n      dup1\n        /* \"#utility.yul\":44426:44429   */\n      dup3\n        /* \"#utility.yul\":44422:44433   */\n      add\n        /* \"#utility.yul\":44416:44434   */\n      mload\n        /* \"#utility.yul\":44412:44413   */\n      dup2\n        /* \"#utility.yul\":44407:44410   */\n      dup5\n        /* \"#utility.yul\":44403:44414   */\n      add\n        /* \"#utility.yul\":44396:44435   */\n      mstore\n        /* \"#utility.yul\":44368:44370   */\n      0x20\n        /* \"#utility.yul\":44365:44366   */\n      dup2\n        /* \"#utility.yul\":44361:44371   */\n      add\n        /* \"#utility.yul\":44356:44371   */\n      swap1\n      pop\n        /* \"#utility.yul\":44332:44445   */\n      jump(tag_925)\n    tag_927:\n        /* \"#utility.yul\":44463:44469   */\n      dup4\n        /* \"#utility.yul\":44460:44461   */\n      dup2\n        /* \"#utility.yul\":44457:44470   */\n      gt\n        /* \"#utility.yul\":44454:44555   */\n      iszero\n      tag_928\n      jumpi\n        /* \"#utility.yul\":44543:44544   */\n      0x00\n        /* \"#utility.yul\":44534:44540   */\n      dup5\n        /* \"#utility.yul\":44529:44532   */\n      dup5\n        /* \"#utility.yul\":44525:44541   */\n      add\n        /* \"#utility.yul\":44518:44545   */\n      mstore\n        /* \"#utility.yul\":44454:44555   */\n    tag_928:\n        /* \"#utility.yul\":44303:44561   */\n      pop\n        /* \"#utility.yul\":44254:44561   */\n      pop\n      pop\n      pop\n      jump\t// out\n        /* \"#utility.yul\":44567:44940   */\n    tag_526:\n        /* \"#utility.yul\":44671:44674   */\n      0x00\n        /* \"#utility.yul\":44699:44737   */\n      tag_930\n        /* \"#utility.yul\":44731:44736   */\n      dup3\n        /* \"#utility.yul\":44699:44737   */\n      tag_523\n      jump\t// in\n    tag_930:\n        /* \"#utility.yul\":44753:44841   */\n      tag_931\n        /* \"#utility.yul\":44834:44840   */\n      dup2\n        /* \"#utility.yul\":44829:44832   */\n      dup6\n        /* \"#utility.yul\":44753:44841   */\n      tag_524\n      jump\t// in\n    tag_931:\n        /* \"#utility.yul\":44746:44841   */\n      swap4\n      pop\n        /* \"#utility.yul\":44850:44902   */\n      tag_932\n        /* \"#utility.yul\":44895:44901   */\n      dup2\n        /* \"#utility.yul\":44890:44893   */\n      dup6\n        /* \"#utility.yul\":44883:44887   */\n      0x20\n        /* \"#utility.yul\":44876:44881   */\n      dup7\n        /* \"#utility.yul\":44872:44888   */\n      add\n        /* \"#utility.yul\":44850:44902   */\n      tag_525\n      jump\t// in\n    tag_932:\n        /* \"#utility.yul\":44927:44933   */\n      dup1\n        /* \"#utility.yul\":44922:44925   */\n      dup5\n        /* \"#utility.yul\":44918:44934   */\n      add\n        /* \"#utility.yul\":44911:44934   */\n      swap2\n      pop\n        /* \"#utility.yul\":44675:44940   */\n      pop\n        /* \"#utility.yul\":44567:44940   */\n      swap3\n      swap2\n      pop\n      pop\n      jump\t// out\n        /* \"#utility.yul\":44946:45217   */\n    tag_403:\n        /* \"#utility.yul\":45076:45079   */\n      0x00\n        /* \"#utility.yul\":45098:45191   */\n      tag_934\n        /* \"#utility.yul\":45187:45190   */\n      dup3\n        /* \"#utility.yul\":45178:45184   */\n      dup5\n        /* \"#utility.yul\":45098:45191   */\n      tag_526\n      jump\t// in\n    tag_934:\n        /* \"#utility.yul\":45091:45191   */\n      swap2\n      pop\n        /* \"#utility.yul\":45208:45211   */\n      dup2\n        /* \"#utility.yul\":45201:45211   */\n      swap1\n      pop\n        /* \"#utility.yul\":44946:45217   */\n      swap3\n      swap2\n      pop\n      pop\n      jump\t// out\n        /* \"#utility.yul\":45223:45322   */\n    tag_527:\n        /* \"#utility.yul\":45275:45281   */\n      0x00\n        /* \"#utility.yul\":45309:45314   */\n      dup2\n        /* \"#utility.yul\":45303:45315   */\n      mload\n        /* \"#utility.yul\":45293:45315   */\n      swap1\n      pop\n        /* \"#utility.yul\":45223:45322   */\n      swap2\n      swap1\n      pop\n      jump\t// out\n        /* \"#utility.yul\":45328:45430   */\n    tag_528:\n        /* \"#utility.yul\":45369:45375   */\n      0x00\n        /* \"#utility.yul\":45420:45422   */\n      0x1f\n        /* \"#utility.yul\":45416:45423   */\n      not\n        /* \"#utility.yul\":45411:45413   */\n      0x1f\n        /* \"#utility.yul\":45404:45409   */\n      dup4\n        /* \"#utility.yul\":45400:45414   */\n      add\n        /* \"#utility.yul\":45396:45424   */\n      and\n        /* \"#utility.yul\":45386:45424   */\n      swap1\n      pop\n        /* \"#utility.yul\":45328:45430   */\n      swap2\n      swap1\n      pop\n      jump\t// out\n        /* \"#utility.yul\":45436:45800   */\n    tag_529:\n        /* \"#utility.yul\":45524:45527   */\n      0x00\n        /* \"#utility.yul\":45552:45591   */\n      tag_938\n        /* \"#utility.yul\":45585:45590   */\n      dup3\n        /* \"#utility.yul\":45552:45591   */\n      tag_527\n      jump\t// in\n    tag_938:\n        /* \"#utility.yul\":45607:45678   */\n      tag_939\n        /* \"#utility.yul\":45671:45677   */\n      dup2\n        /* \"#utility.yul\":45666:45669   */\n      dup6\n        /* \"#utility.yul\":45607:45678   */\n      tag_469\n      jump\t// in\n    tag_939:\n        /* \"#utility.yul\":45600:45678   */\n      swap4\n      pop\n        /* \"#utility.yul\":45687:45739   */\n      tag_940\n        /* \"#utility.yul\":45732:45738   */\n      dup2\n        /* \"#utility.yul\":45727:45730   */\n      dup6\n        /* \"#utility.yul\":45720:45724   */\n      0x20\n        /* \"#utility.yul\":45713:45718   */\n      dup7\n        /* \"#utility.yul\":45709:45725   */\n      add\n        /* \"#utility.yul\":45687:45739   */\n      tag_525\n      jump\t// in\n    tag_940:\n        /* \"#utility.yul\":45764:45793   */\n      tag_941\n        /* \"#utility.yul\":45786:45792   */\n      dup2\n        /* \"#utility.yul\":45764:45793   */\n      tag_528\n      jump\t// in\n    tag_941:\n        /* \"#utility.yul\":45759:45762   */\n      dup5\n        /* \"#utility.yul\":45755:45794   */\n      add\n        /* \"#utility.yul\":45748:45794   */\n      swap2\n      pop\n        /* \"#utility.yul\":45528:45800   */\n      pop\n        /* \"#utility.yul\":45436:45800   */\n      swap3\n      swap2\n      pop\n      pop\n      jump\t// out\n        /* \"#utility.yul\":45806:46119   */\n    tag_416:\n        /* \"#utility.yul\":45919:45923   */\n      0x00\n        /* \"#utility.yul\":45957:45959   */\n      0x20\n        /* \"#utility.yul\":45946:45955   */\n      dup3\n        /* \"#utility.yul\":45942:45960   */\n      add\n        /* \"#utility.yul\":45934:45960   */\n      swap1\n      pop\n        /* \"#utility.yul\":46006:46015   */\n      dup2\n        /* \"#utility.yul\":46000:46004   */\n      dup2\n        /* \"#utility.yul\":45996:46016   */\n      sub\n        /* \"#utility.yul\":45992:45993   */\n      0x00\n        /* \"#utility.yul\":45981:45990   */\n      dup4\n        /* \"#utility.yul\":45977:45994   */\n      add\n        /* \"#utility.yul\":45970:46017   */\n      mstore\n        /* \"#utility.yul\":46034:46112   */\n      tag_943\n        /* \"#utility.yul\":46107:46111   */\n      dup2\n        /* \"#utility.yul\":46098:46104   */\n      dup5\n        /* \"#utility.yul\":46034:46112   */\n      tag_529\n      jump\t// in\n    tag_943:\n        /* \"#utility.yul\":46026:46112   */\n      swap1\n      pop\n        /* \"#utility.yul\":45806:46119   */\n      swap3\n      swap2\n      pop\n      pop\n      jump\t// out\n\n    auxdata: 0xa2646970667358221220076143338004c5fc26d7975aa4d44e3370ea7325a19d1232449042560cda2b0b64736f6c634300080b0033\n}\n",
				"bytecode": {
					"linkReferences": {},
					"object": "60a06040523480156200001157600080fd5b506040516200390e3803806200390e8339818101604052810190620000379190620002c8565b60008060006101000a81548160ff02191690831515021790555060018081905550620000786200006c620000c360201b60201c565b620000cb60201b60201c565b8073ffffffffffffffffffffffffffffffffffffffff1660808173ffffffffffffffffffffffffffffffffffffffff1681525050620000bc6200019160201b60201c565b50620003ab565b600033905090565b6000600260009054906101000a900473ffffffffffffffffffffffffffffffffffffffff16905081600260006101000a81548173ffffffffffffffffffffffffffffffffffffffff021916908373ffffffffffffffffffffffffffffffffffffffff1602179055508173ffffffffffffffffffffffffffffffffffffffff168173ffffffffffffffffffffffffffffffffffffffff167f8be0079c531659141344cd1fd0a4f28419497f9722a3daafe3b4186f6b6457e060405160405180910390a35050565b620001a16200024860201b60201c565b15620001e4576040517f08c379a0000000000000000000000000000000000000000000000000000000008152600401620001db906200035b565b60405180910390fd5b60016000806101000a81548160ff0219169083151502179055507f62e78cea01bee320cd4e420270b5ea74000d11b0c9f74754ebdbfc544b05a2586200022f620000c360201b60201c565b6040516200023e91906200038e565b60405180910390a1565b60008060009054906101000a900460ff16905090565b600080fd5b600073ffffffffffffffffffffffffffffffffffffffff82169050919050565b6000620002908262000263565b9050919050565b620002a28162000283565b8114620002ae57600080fd5b50565b600081519050620002c28162000297565b92915050565b600060208284031215620002e157620002e06200025e565b5b6000620002f184828501620002b1565b91505092915050565b600082825260208201905092915050565b7f5061757361626c653a2070617573656400000000000000000000000000000000600082015250565b600062000343601083620002fa565b915062000350826200030b565b602082019050919050565b60006020820190508181036000830152620003768162000334565b9050919050565b620003888162000283565b82525050565b6000602082019050620003a560008301846200037d565b92915050565b608051613539620003d56000396000818161092c01528181610b52015261115a01526135396000f3fe608060405234801561001057600080fd5b50600436106101375760003560e01c80637663d437116100b8578063ba42590d1161007c578063ba42590d14610309578063c6760f6b14610339578063d0e1f97f14610355578063da0195ec14610373578063f2fde38b1461038f578063fa461974146103ab57610137565b80637663d437146102635780638923e2f7146102955780638da5cb5b146102b1578063a95c56f5146102cf578063b94ec9d0146102ff57610137565b806331cec7a3116100ff57806331cec7a3146101f75780633488fca21461020157806336db9fb21461021d5780635c975abb1461023b578063715018a61461025957610137565b80630401ff481461013c578063070e44ce1461016c5780631040faf91461019d578063141fd8c8146101bb578063249c8f5e146101d9575b600080fd5b61015660048036038101906101519190611ee7565b6103c9565b6040516101639190611f40565b60405180910390f35b6101866004803603810190610181919061206c565b6103ee565b6040516101949291906122bd565b60405180910390f35b6101a56105fa565b6040516101b29190611f40565b60405180910390f35b6101c3610600565b6040516101d09190611f40565b60405180910390f35b6101e1610607565b6040516101ee9190612303565b60405180910390f35b6101ff61061a565b005b61021b6004803603810190610216919061231e565b6106ef565b005b61022561092a565b60405161023291906123aa565b60405180910390f35b61024361094e565b60405161025091906123d4565b60405180910390f35b610261610964565b005b61027d600480360381019061027891906123ef565b6109ec565b60405161028c93929190612444565b60405180910390f35b6102af60048036038101906102aa91906124a7565b610a36565b005b6102b9610bd0565b6040516102c691906124d4565b60405180910390f35b6102e960048036038101906102e4919061231e565b610bfa565b6040516102f691906123d4565b60405180910390f35b610307610c1a565b005b610323600480360381019061031e919061251b565b610ce7565b60405161033091906123d4565b60405180910390f35b610353600480360381019061034e9190612548565b610d07565b005b61035d6111f2565b60405161036a9190611f40565b60405180910390f35b61038d60048036038101906103889190612652565b6111fe565b005b6103a960048036038101906103a4919061231e565b611667565b005b6103b361175f565b6040516103c09190611f40565b60405180910390f35b6006602052816000526040600020602052806000526040600020600091509150505481565b60608060008686905067ffffffffffffffff8111156104105761040f61273b565b5b60405190808252806020026020018201604052801561043e5781602001602082028036833780820191505090505b50905060008787905067ffffffffffffffff8111156104605761045f61273b565b5b60405190808252806020026020018201604052801561048e5781602001602082028036833780820191505090505b509050878790508a8a90501415806104ac5750858590508a8a905014155b806104ba575060008a8a9050145b156104cc5781819350935050506105ee565b60005b8a8a90508110156105e457600260149054906101000a900460ff1660ff168b8b83818110610500576104ff61276a565b5b905060200201602081019061051591906123ef565b60ff1610156105d15761058e8c8c8c848181106105355761053461276a565b5b905060200201602081019061054a91906123ef565b8b8b8581811061055d5761055c61276a565b5b905060200201358a8a868181106105775761057661276a565b5b905060200281019061058991906127a8565b611765565b8483815181106105a1576105a061276a565b5b602002602001018484815181106105bb576105ba61276a565b5b6020026020010182815250821515151581525050505b80806105dc9061283a565b9150506104cf565b5081819350935050505b97509795505050505050565b60035481565b6203f48081565b600260149054906101000a900460ff1681565b61062261188f565b73ffffffffffffffffffffffffffffffffffffffff16610640610bd0565b73ffffffffffffffffffffffffffffffffffffffff1614610696576040517f08c379a000000000000000000000000000000000000000000000000000000000815260040161068d906128e0565b60405180910390fd5b61069e61094e565b156106de576040517f08c379a00000000000000000000000000000000000000000000000000000000081526004016106d59061294c565b60405180910390fd5b426004819055506106ed611897565b565b6106f761188f565b73ffffffffffffffffffffffffffffffffffffffff16610715610bd0565b73ffffffffffffffffffffffffffffffffffffffff161461076b576040517f08c379a0000000000000000000000000000000000000000000000000000000008152600401610762906128e0565b60405180910390fd5b600760008273ffffffffffffffffffffffffffffffffffffffff1673ffffffffffffffffffffffffffffffffffffffff16815260200190815260200160002060009054906101000a900460ff16156107f8576040517f08c379a00000000000000000000000000000000000000000000000000000000081526004016107ef906129b8565b60405180910390fd5b6001600760008373ffffffffffffffffffffffffffffffffffffffff1673ffffffffffffffffffffffffffffffffffffffff16815260200190815260200160002060006101000a81548160ff0219169083151502179055508060056000600260149054906101000a900460ff1660ff1660ff16815260200190815260200160002060000160006101000a81548173ffffffffffffffffffffffffffffffffffffffff021916908373ffffffffffffffffffffffffffffffffffffffff1602179055507f0cc7daa76db4972d6a17fb9d6aab3dc31eacbe5c2d577977f4cbe162f077c0b16002601481819054906101000a900460ff16809291906108fa906129d8565b91906101000a81548160ff021916908360ff16021790555060405161091f9190612303565b60405180910390a150565b7f000000000000000000000000000000000000000000000000000000000000000081565b60008060009054906101000a900460ff16905090565b61096c61188f565b73ffffffffffffffffffffffffffffffffffffffff1661098a610bd0565b73ffffffffffffffffffffffffffffffffffffffff16146109e0576040517f08c379a00000000000000000000000000000000000000000000000000000000081526004016109d7906128e0565b60405180910390fd5b6109ea6000611939565b565b60056020528060005260406000206000915090508060000160009054906101000a900473ffffffffffffffffffffffffffffffffffffffff16908060010154908060020154905083565b610a3e61188f565b73ffffffffffffffffffffffffffffffffffffffff16610a5c610bd0565b73ffffffffffffffffffffffffffffffffffffffff1614610ab2576040517f08c379a0000000000000000000000000000000000000000000000000000000008152600401610aa9906128e0565b60405180910390fd5b610aba61094e565b610af9576040517f08c379a0000000000000000000000000000000000000000000000000000000008152600401610af090612a4e565b60405180910390fd5b6203f480600454610b0a9190612a6e565b4211610b4b576040517f08c379a0000000000000000000000000000000000000000000000000000000008152600401610b4290612b10565b60405180910390fd5b610b9633827f000000000000000000000000000000000000000000000000000000000000000073ffffffffffffffffffffffffffffffffffffffff166119ff9092919063ffffffff16565b7fb4cd5c4a08bbed33abfe773ece179d156730e39629e065b7dcd8263027387c1d81604051610bc59190611f40565b60405180910390a150565b6000600260009054906101000a900473ffffffffffffffffffffffffffffffffffffffff16905090565b60076020528060005260406000206000915054906101000a900460ff1681565b610c2261188f565b73ffffffffffffffffffffffffffffffffffffffff16610c40610bd0565b73ffffffffffffffffffffffffffffffffffffffff1614610c96576040517f08c379a0000000000000000000000000000000000000000000000000000000008152600401610c8d906128e0565b60405180910390fd5b610c9e61094e565b610cdd576040517f08c379a0000000000000000000000000000000000000000000000000000000008152600401610cd490612a4e565b60405180910390fd5b610ce5611a85565b565b60086020528060005260406000206000915054906101000a900460ff1681565b610d0f61094e565b15610d4f576040517f08c379a0000000000000000000000000000000000000000000000000000000008152600401610d469061294c565b60405180910390fd5b60026001541415610d95576040517f08c379a0000000000000000000000000000000000000000000000000000000008152600401610d8c90612b7c565b60405180910390fd5b6002600181905550600086869050118015610db557508383905086869050145b8015610dc657508585905082829050145b610e05576040517f08c379a0000000000000000000000000000000000000000000000000000000008152600401610dfc90612be8565b60405180910390fd5b6000808585905067ffffffffffffffff811115610e2557610e2461273b565b5b604051908082528060200260200182016040528015610e535781602001602082028036833780820191505090505b50905060005b8888905081101561115257600260149054906101000a900460ff1660ff16898983818110610e8a57610e8961276a565b5b9050602002016020810190610e9f91906123ef565b60ff1610610ee2576040517f08c379a0000000000000000000000000000000000000000000000000000000008152600401610ed990612c54565b60405180910390fd5b600080610f55338c8c86818110610efc57610efb61276a565b5b9050602002016020810190610f1191906123ef565b8b8b87818110610f2457610f2361276a565b5b905060200201358a8a88818110610f3e57610f3d61276a565b5b9050602002810190610f5091906127a8565b611765565b9150915081610f99576040517f08c379a0000000000000000000000000000000000000000000000000000000008152600401610f9090612cc0565b60405180910390fd5b60008111610fdc576040517f08c379a0000000000000000000000000000000000000000000000000000000008152600401610fd390612d2c565b60405180910390fd5b600560008c8c86818110610ff357610ff261276a565b5b905060200201602081019061100891906123ef565b60ff1660ff168152602001908152602001600020600201548989858181106110335761103261276a565b5b90506020020135111561107b576040517f08c379a000000000000000000000000000000000000000000000000000000000815260040161107290612d98565b60405180910390fd5b80856110879190612a6e565b945080600660003373ffffffffffffffffffffffffffffffffffffffff1673ffffffffffffffffffffffffffffffffffffffff16815260200190815260200160002060008d8d878181106110de576110dd61276a565b5b90506020020160208101906110f391906123ef565b60ff1660ff16815260200190815260200160002060008282546111169190612a6e565b92505081905550808484815181106111315761113061276a565b5b6020026020010181815250505050808061114a9061283a565b915050610e59565b5061119e33837f000000000000000000000000000000000000000000000000000000000000000073ffffffffffffffffffffffffffffffffffffffff166119ff9092919063ffffffff16565b7f1bb61a7c0e8fe6922242f2a1fb97851dd40ebfa837ab768260708c3cbc1f860133600354848b8b866040516111d996959493929190612e7b565b60405180910390a1505060018081905550505050505050565b670de0b6b3a764000081565b61120661188f565b73ffffffffffffffffffffffffffffffffffffffff16611224610bd0565b73ffffffffffffffffffffffffffffffffffffffff161461127a576040517f08c379a0000000000000000000000000000000000000000000000000000000008152600401611271906128e0565b60405180910390fd5b60008888905011801561129257508585905088889050145b80156112a357508383905088889050145b80156112b457508181905088889050145b6112f3576040517f08c379a00000000000000000000000000000000000000000000000000000000081526004016112ea90612f2a565b60405180910390fd5b60005b8686905081101561161b57600260149054906101000a900460ff1660ff168989838181106113275761132661276a565b5b905060200201602081019061133c91906123ef565b60ff161061137f576040517f08c379a000000000000000000000000000000000000000000000000000000000815260040161137690612f96565b60405180910390fd5b600860008888848181106113965761139561276a565b5b90506020020135815260200190815260200160002060009054906101000a900460ff16156113f9576040517f08c379a00000000000000000000000000000000000000000000000000000000081526004016113f090613002565b60405180910390fd5b86868281811061140c5761140b61276a565b5b90506020020135600560008b8b8581811061142a5761142961276a565b5b905060200201602081019061143f91906123ef565b60ff1660ff1681526020019081526020016000206001018190555084848281811061146d5761146c61276a565b5b90506020020135600560008b8b8581811061148b5761148a61276a565b5b90506020020160208101906114a091906123ef565b60ff1660ff168152602001908152602001600020600201819055506001600860008989858181106114d4576114d361276a565b5b90506020020135815260200190815260200160002060006101000a81548160ff02191690831515021790555060006115c4600560008c8c8681811061151c5761151b61276a565b5b905060200201602081019061153191906123ef565b60ff1660ff16815260200190815260200160002060000160009054906101000a900473ffffffffffffffffffffffffffffffffffffffff168b8b8581811061157c5761157b61276a565b5b905060200201602081019061159191906123ef565b670de0b6b3a76400008787878181106115ad576115ac61276a565b5b90506020028101906115bf91906127a8565b611765565b50905080611607576040517f08c379a00000000000000000000000000000000000000000000000000000000081526004016115fe9061306e565b60405180910390fd5b5080806116139061283a565b9150506112f6565b5060036000815461162b9061283a565b9190508190557f0b1d6b49e69d133866d064a73f0181e1e35aa94fde3ef0095587d7ebd0423caa60405160405180910390a25050505050505050565b61166f61188f565b73ffffffffffffffffffffffffffffffffffffffff1661168d610bd0565b73ffffffffffffffffffffffffffffffffffffffff16146116e3576040517f08c379a00000000000000000000000000000000000000000000000000000000081526004016116da906128e0565b60405180910390fd5b600073ffffffffffffffffffffffffffffffffffffffff168173ffffffffffffffffffffffffffffffffffffffff161415611753576040517f08c379a000000000000000000000000000000000000000000000000000000000815260040161174a90613100565b60405180910390fd5b61175c81611939565b50565b60045481565b6000806000878660405160200161177d929190613189565b60405160208183030381529060405280519060200120905060006117ff868680806020026020016040519081016040528093929190818152602001838360200280828437600081840152601f19601f82011690508083019250505050505050600560008b60ff1660ff1681526020019081526020016000206001015484611b26565b90508061181457600080935093505050611885565b6000600660008b73ffffffffffffffffffffffffffffffffffffffff1673ffffffffffffffffffffffffffffffffffffffff16815260200190815260200160002060008a60ff1660ff168152602001908152602001600020548861187891906131b5565b9050600181945094505050505b9550959350505050565b600033905090565b61189f61094e565b156118df576040517f08c379a00000000000000000000000000000000000000000000000000000000081526004016118d69061294c565b60405180910390fd5b60016000806101000a81548160ff0219169083151502179055507f62e78cea01bee320cd4e420270b5ea74000d11b0c9f74754ebdbfc544b05a25861192261188f565b60405161192f91906124d4565b60405180910390a1565b6000600260009054906101000a900473ffffffffffffffffffffffffffffffffffffffff16905081600260006101000a81548173ffffffffffffffffffffffffffffffffffffffff021916908373ffffffffffffffffffffffffffffffffffffffff1602179055508173ffffffffffffffffffffffffffffffffffffffff168173ffffffffffffffffffffffffffffffffffffffff167f8be0079c531659141344cd1fd0a4f28419497f9722a3daafe3b4186f6b6457e060405160405180910390a35050565b611a808363a9059cbb60e01b8484604051602401611a1e9291906131e9565b604051602081830303815290604052907bffffffffffffffffffffffffffffffffffffffffffffffffffffffff19166020820180517bffffffffffffffffffffffffffffffffffffffffffffffffffffffff8381831617835250505050611b3d565b505050565b611a8d61094e565b611acc576040517f08c379a0000000000000000000000000000000000000000000000000000000008152600401611ac390612a4e565b60405180910390fd5b60008060006101000a81548160ff0219169083151502179055507f5db9ee0a495bf2e6ff9c91a7834c1ba4fdd244a5e8aa4e537bd38aeae4b073aa611b0f61188f565b604051611b1c91906124d4565b60405180910390a1565b600082611b338584611c04565b1490509392505050565b6000611b9f826040518060400160405280602081526020017f5361666545524332303a206c6f772d6c6576656c2063616c6c206661696c65648152508573ffffffffffffffffffffffffffffffffffffffff16611c799092919063ffffffff16565b9050600081511115611bff5780806020019051810190611bbf919061323e565b611bfe576040517f08c379a0000000000000000000000000000000000000000000000000000000008152600401611bf5906132dd565b60405180910390fd5b5b505050565b60008082905060005b8451811015611c6e576000858281518110611c2b57611c2a61276a565b5b60200260200101519050808311611c4d57611c468382611c91565b9250611c5a565b611c578184611c91565b92505b508080611c669061283a565b915050611c0d565b508091505092915050565b6060611c888484600085611ca8565b90509392505050565b600082600052816020526040600020905092915050565b606082471015611ced576040517f08c379a0000000000000000000000000000000000000000000000000000000008152600401611ce49061336f565b60405180910390fd5b611cf685611dbc565b611d35576040517f08c379a0000000000000000000000000000000000000000000000000000000008152600401611d2c906133db565b60405180910390fd5b6000808673ffffffffffffffffffffffffffffffffffffffff168587604051611d5e9190613475565b60006040518083038185875af1925050503d8060008114611d9b576040519150601f19603f3d011682016040523d82523d6000602084013e611da0565b606091505b5091509150611db0828286611ddf565b92505050949350505050565b6000808273ffffffffffffffffffffffffffffffffffffffff163b119050919050565b60608315611def57829050611e3f565b600083511115611e025782518084602001fd5b816040517f08c379a0000000000000000000000000000000000000000000000000000000008152600401611e3691906134e1565b60405180910390fd5b9392505050565b600080fd5b600080fd5b600073ffffffffffffffffffffffffffffffffffffffff82169050919050565b6000611e7b82611e50565b9050919050565b611e8b81611e70565b8114611e9657600080fd5b50565b600081359050611ea881611e82565b92915050565b600060ff82169050919050565b611ec481611eae565b8114611ecf57600080fd5b50565b600081359050611ee181611ebb565b92915050565b60008060408385031215611efe57611efd611e46565b5b6000611f0c85828601611e99565b9250506020611f1d85828601611ed2565b9150509250929050565b6000819050919050565b611f3a81611f27565b82525050565b6000602082019050611f556000830184611f31565b92915050565b600080fd5b600080fd5b600080fd5b60008083601f840112611f8057611f7f611f5b565b5b8235905067ffffffffffffffff811115611f9d57611f9c611f60565b5b602083019150836020820283011115611fb957611fb8611f65565b5b9250929050565b60008083601f840112611fd657611fd5611f5b565b5b8235905067ffffffffffffffff811115611ff357611ff2611f60565b5b60208301915083602082028301111561200f5761200e611f65565b5b9250929050565b60008083601f84011261202c5761202b611f5b565b5b8235905067ffffffffffffffff81111561204957612048611f60565b5b60208301915083602082028301111561206557612064611f65565b5b9250929050565b60008060008060008060006080888a03121561208b5761208a611e46565b5b60006120998a828b01611e99565b975050602088013567ffffffffffffffff8111156120ba576120b9611e4b565b5b6120c68a828b01611f6a565b9650965050604088013567ffffffffffffffff8111156120e9576120e8611e4b565b5b6120f58a828b01611fc0565b9450945050606088013567ffffffffffffffff81111561211857612117611e4b565b5b6121248a828b01612016565b925092505092959891949750929550565b600081519050919050565b600082825260208201905092915050565b6000819050602082019050919050565b60008115159050919050565b61217681612161565b82525050565b6000612188838361216d565b60208301905092915050565b6000602082019050919050565b60006121ac82612135565b6121b68185612140565b93506121c183612151565b8060005b838110156121f25781516121d9888261217c565b97506121e483612194565b9250506001810190506121c5565b5085935050505092915050565b600081519050919050565b600082825260208201905092915050565b6000819050602082019050919050565b61223481611f27565b82525050565b6000612246838361222b565b60208301905092915050565b6000602082019050919050565b600061226a826121ff565b612274818561220a565b935061227f8361221b565b8060005b838110156122b0578151612297888261223a565b97506122a283612252565b925050600181019050612283565b5085935050505092915050565b600060408201905081810360008301526122d781856121a1565b905081810360208301526122eb818461225f565b90509392505050565b6122fd81611eae565b82525050565b600060208201905061231860008301846122f4565b92915050565b60006020828403121561233457612333611e46565b5b600061234284828501611e99565b91505092915050565b6000819050919050565b600061237061236b61236684611e50565b61234b565b611e50565b9050919050565b600061238282612355565b9050919050565b600061239482612377565b9050919050565b6123a481612389565b82525050565b60006020820190506123bf600083018461239b565b92915050565b6123ce81612161565b82525050565b60006020820190506123e960008301846123c5565b92915050565b60006020828403121561240557612404611e46565b5b600061241384828501611ed2565b91505092915050565b61242581611e70565b82525050565b6000819050919050565b61243e8161242b565b82525050565b6000606082019050612459600083018661241c565b6124666020830185612435565b6124736040830184611f31565b949350505050565b61248481611f27565b811461248f57600080fd5b50565b6000813590506124a18161247b565b92915050565b6000602082840312156124bd576124bc611e46565b5b60006124cb84828501612492565b91505092915050565b60006020820190506124e9600083018461241c565b92915050565b6124f88161242b565b811461250357600080fd5b50565b600081359050612515816124ef565b92915050565b60006020828403121561253157612530611e46565b5b600061253f84828501612506565b91505092915050565b6000806000806000806060878903121561256557612564611e46565b5b600087013567ffffffffffffffff81111561258357612582611e4b565b5b61258f89828a01611f6a565b9650965050602087013567ffffffffffffffff8111156125b2576125b1611e4b565b5b6125be89828a01611fc0565b9450945050604087013567ffffffffffffffff8111156125e1576125e0611e4b565b5b6125ed89828a01612016565b92509250509295509295509295565b60008083601f84011261261257612611611f5b565b5b8235905067ffffffffffffffff81111561262f5761262e611f60565b5b60208301915083602082028301111561264b5761264a611f65565b5b9250929050565b6000806000806000806000806080898b03121561267257612671611e46565b5b600089013567ffffffffffffffff8111156126905761268f611e4b565b5b61269c8b828c01611f6a565b9850985050602089013567ffffffffffffffff8111156126bf576126be611e4b565b5b6126cb8b828c016125fc565b9650965050604089013567ffffffffffffffff8111156126ee576126ed611e4b565b5b6126fa8b828c01611fc0565b9450945050606089013567ffffffffffffffff81111561271d5761271c611e4b565b5b6127298b828c01612016565b92509250509295985092959890939650565b7f4e487b7100000000000000000000000000000000000000000000000000000000600052604160045260246000fd5b7f4e487b7100000000000000000000000000000000000000000000000000000000600052603260045260246000fd5b600080fd5b600080fd5b600080fd5b600080833560016020038436030381126127c5576127c4612799565b5b80840192508235915067ffffffffffffffff8211156127e7576127e661279e565b5b602083019250602082023603831315612803576128026127a3565b5b509250929050565b7f4e487b7100000000000000000000000000000000000000000000000000000000600052601160045260246000fd5b600061284582611f27565b91507fffffffffffffffffffffffffffffffffffffffffffffffffffffffffffffffff8214156128785761287761280b565b5b600182019050919050565b600082825260208201905092915050565b7f4f776e61626c653a2063616c6c6572206973206e6f7420746865206f776e6572600082015250565b60006128ca602083612883565b91506128d582612894565b602082019050919050565b600060208201905081810360008301526128f9816128bd565b9050919050565b7f5061757361626c653a2070617573656400000000000000000000000000000000600082015250565b6000612936601083612883565b915061294182612900565b602082019050919050565b6000602082019050818103600083015261296581612929565b9050919050565b7f4f776e65723a205361666520677561726420616c726561647920757365640000600082015250565b60006129a2601e83612883565b91506129ad8261296c565b602082019050919050565b600060208201905081810360008301526129d181612995565b9050919050565b60006129e382611eae565b915060ff8214156129f7576129f661280b565b5b600182019050919050565b7f5061757361626c653a206e6f7420706175736564000000000000000000000000600082015250565b6000612a38601483612883565b9150612a4382612a02565b602082019050919050565b60006020820190508181036000830152612a6781612a2b565b9050919050565b6000612a7982611f27565b9150612a8483611f27565b9250827fffffffffffffffffffffffffffffffffffffffffffffffffffffffffffffffff03821115612ab957612ab861280b565b5b828201905092915050565b7f4f776e65723a20546f6f206561726c7920746f20776974686472617700000000600082015250565b6000612afa601c83612883565b9150612b0582612ac4565b602082019050919050565b60006020820190508181036000830152612b2981612aed565b9050919050565b7f5265656e7472616e637947756172643a207265656e7472616e742063616c6c00600082015250565b6000612b66601f83612883565b9150612b7182612b30565b602082019050919050565b60006020820190508181036000830152612b9581612b59565b9050919050565b7f526577617264733a2057726f6e67206c656e6774687300000000000000000000600082015250565b6000612bd2601683612883565b9150612bdd82612b9c565b602082019050919050565b60006020820190508181036000830152612c0181612bc5565b9050919050565b7f526577617264733a2054726565206e6f6e6578697374656e7400000000000000600082015250565b6000612c3e601983612883565b9150612c4982612c08565b602082019050919050565b60006020820190508181036000830152612c6d81612c31565b9050919050565b7f526577617264733a20496e76616c69642070726f6f6600000000000000000000600082015250565b6000612caa601683612883565b9150612cb582612c74565b602082019050919050565b60006020820190508181036000830152612cd981612c9d565b9050919050565b7f526577617264733a20416c726561647920636c61696d65640000000000000000600082015250565b6000612d16601883612883565b9150612d2182612ce0565b602082019050919050565b60006020820190508181036000830152612d4581612d09565b9050919050565b7f526577617264733a20416d6f756e7420686967686572207468616e206d617800600082015250565b6000612d82601f83612883565b9150612d8d82612d4c565b602082019050919050565b60006020820190508181036000830152612db181612d75565b9050919050565b600082825260208201905092915050565b6000819050919050565b612ddc81611eae565b82525050565b6000612dee8383612dd3565b60208301905092915050565b6000612e096020840184611ed2565b905092915050565b6000602082019050919050565b6000612e2a8385612db8565b9350612e3582612dc9565b8060005b85811015612e6e57612e4b8284612dfa565b612e558882612de2565b9750612e6083612e11565b925050600181019050612e39565b5085925050509392505050565b600060a082019050612e90600083018961241c565b612e9d6020830188611f31565b612eaa6040830187611f31565b8181036060830152612ebd818587612e1e565b90508181036080830152612ed1818461225f565b9050979650505050505050565b7f4f776e65723a2057726f6e67206c656e67746873000000000000000000000000600082015250565b6000612f14601483612883565b9150612f1f82612ede565b602082019050919050565b60006020820190508181036000830152612f4381612f07565b9050919050565b7f4f776e65723a2054726565206e6f6e6578697374656e74000000000000000000600082015250565b6000612f80601783612883565b9150612f8b82612f4a565b602082019050919050565b60006020820190508181036000830152612faf81612f73565b9050919050565b7f4f776e65723a204d65726b6c6520726f6f7420616c7265616479207573656400600082015250565b6000612fec601f83612883565b9150612ff782612fb6565b602082019050919050565b6000602082019050818103600083015261301b81612fdf565b9050919050565b7f4f776e65723a2057726f6e6720736166652067756172642070726f6f66730000600082015250565b6000613058601e83612883565b915061306382613022565b602082019050919050565b600060208201905081810360008301526130878161304b565b9050919050565b7f4f776e61626c653a206e6577206f776e657220697320746865207a65726f206160008201527f6464726573730000000000000000000000000000000000000000000000000000602082015250565b60006130ea602683612883565b91506130f58261308e565b604082019050919050565b60006020820190508181036000830152613119816130dd565b9050919050565b60008160601b9050919050565b600061313882613120565b9050919050565b600061314a8261312d565b9050919050565b61316261315d82611e70565b61313f565b82525050565b6000819050919050565b61318361317e82611f27565b613168565b82525050565b60006131958285613151565b6014820191506131a58284613172565b6020820191508190509392505050565b60006131c082611f27565b91506131cb83611f27565b9250828210156131de576131dd61280b565b5b828203905092915050565b60006040820190506131fe600083018561241c565b61320b6020830184611f31565b9392505050565b61321b81612161565b811461322657600080fd5b50565b60008151905061323881613212565b92915050565b60006020828403121561325457613253611e46565b5b600061326284828501613229565b91505092915050565b7f5361666545524332303a204552433230206f7065726174696f6e20646964206e60008201527f6f74207375636365656400000000000000000000000000000000000000000000602082015250565b60006132c7602a83612883565b91506132d28261326b565b604082019050919050565b600060208201905081810360008301526132f6816132ba565b9050919050565b7f416464726573733a20696e73756666696369656e742062616c616e636520666f60008201527f722063616c6c0000000000000000000000000000000000000000000000000000602082015250565b6000613359602683612883565b9150613364826132fd565b604082019050919050565b600060208201905081810360008301526133888161334c565b9050919050565b7f416464726573733a2063616c6c20746f206e6f6e2d636f6e7472616374000000600082015250565b60006133c5601d83612883565b91506133d08261338f565b602082019050919050565b600060208201905081810360008301526133f4816133b8565b9050919050565b600081519050919050565b600081905092915050565b60005b8381101561342f578082015181840152602081019050613414565b8381111561343e576000848401525b50505050565b600061344f826133fb565b6134598185613406565b9350613469818560208601613411565b80840191505092915050565b60006134818284613444565b915081905092915050565b600081519050919050565b6000601f19601f8301169050919050565b60006134b38261348c565b6134bd8185612883565b93506134cd818560208601613411565b6134d681613497565b840191505092915050565b600060208201905081810360008301526134fb81846134a8565b90509291505056fea2646970667358221220076143338004c5fc26d7975aa4d44e3370ea7325a19d1232449042560cda2b0b64736f6c634300080b0033",
					"opcodes": "PUSH1 0xA0 PUSH1 0x40 MSTORE CALLVALUE DUP1 ISZERO PUSH3 0x11 JUMPI PUSH1 0x0 DUP1 REVERT JUMPDEST POP PUSH1 0x40 MLOAD PUSH3 0x390E CODESIZE SUB DUP1 PUSH3 0x390E DUP4 CODECOPY DUP2 DUP2 ADD PUSH1 0x40 MSTORE DUP2 ADD SWAP1 PUSH3 0x37 SWAP2 SWAP1 PUSH3 0x2C8 JUMP JUMPDEST PUSH1 0x0 DUP1 PUSH1 0x0 PUSH2 0x100 EXP DUP2 SLOAD DUP2 PUSH1 0xFF MUL NOT AND SWAP1 DUP4 ISZERO ISZERO MUL OR SWAP1 SSTORE POP PUSH1 0x1 DUP1 DUP2 SWAP1 SSTORE POP PUSH3 0x78 PUSH3 0x6C PUSH3 0xC3 PUSH1 0x20 SHL PUSH1 0x20 SHR JUMP JUMPDEST PUSH3 0xCB PUSH1 0x20 SHL PUSH1 0x20 SHR JUMP JUMPDEST DUP1 PUSH20 0xFFFFFFFFFFFFFFFFFFFFFFFFFFFFFFFFFFFFFFFF AND PUSH1 0x80 DUP2 PUSH20 0xFFFFFFFFFFFFFFFFFFFFFFFFFFFFFFFFFFFFFFFF AND DUP2 MSTORE POP POP PUSH3 0xBC PUSH3 0x191 PUSH1 0x20 SHL PUSH1 0x20 SHR JUMP JUMPDEST POP PUSH3 0x3AB JUMP JUMPDEST PUSH1 0x0 CALLER SWAP1 POP SWAP1 JUMP JUMPDEST PUSH1 0x0 PUSH1 0x2 PUSH1 0x0 SWAP1 SLOAD SWAP1 PUSH2 0x100 EXP SWAP1 DIV PUSH20 0xFFFFFFFFFFFFFFFFFFFFFFFFFFFFFFFFFFFFFFFF AND SWAP1 POP DUP2 PUSH1 0x2 PUSH1 0x0 PUSH2 0x100 EXP DUP2 SLOAD DUP2 PUSH20 0xFFFFFFFFFFFFFFFFFFFFFFFFFFFFFFFFFFFFFFFF MUL NOT AND SWAP1 DUP4 PUSH20 0xFFFFFFFFFFFFFFFFFFFFFFFFFFFFFFFFFFFFFFFF AND MUL OR SWAP1 SSTORE POP DUP2 PUSH20 0xFFFFFFFFFFFFFFFFFFFFFFFFFFFFFFFFFFFFFFFF AND DUP2 PUSH20 0xFFFFFFFFFFFFFFFFFFFFFFFFFFFFFFFFFFFFFFFF AND PUSH32 0x8BE0079C531659141344CD1FD0A4F28419497F9722A3DAAFE3B4186F6B6457E0 PUSH1 0x40 MLOAD PUSH1 0x40 MLOAD DUP1 SWAP2 SUB SWAP1 LOG3 POP POP JUMP JUMPDEST PUSH3 0x1A1 PUSH3 0x248 PUSH1 0x20 SHL PUSH1 0x20 SHR JUMP JUMPDEST ISZERO PUSH3 0x1E4 JUMPI PUSH1 0x40 MLOAD PUSH32 0x8C379A000000000000000000000000000000000000000000000000000000000 DUP2 MSTORE PUSH1 0x4 ADD PUSH3 0x1DB SWAP1 PUSH3 0x35B JUMP JUMPDEST PUSH1 0x40 MLOAD DUP1 SWAP2 SUB SWAP1 REVERT JUMPDEST PUSH1 0x1 PUSH1 0x0 DUP1 PUSH2 0x100 EXP DUP2 SLOAD DUP2 PUSH1 0xFF MUL NOT AND SWAP1 DUP4 ISZERO ISZERO MUL OR SWAP1 SSTORE POP PUSH32 0x62E78CEA01BEE320CD4E420270B5EA74000D11B0C9F74754EBDBFC544B05A258 PUSH3 0x22F PUSH3 0xC3 PUSH1 0x20 SHL PUSH1 0x20 SHR JUMP JUMPDEST PUSH1 0x40 MLOAD PUSH3 0x23E SWAP2 SWAP1 PUSH3 0x38E JUMP JUMPDEST PUSH1 0x40 MLOAD DUP1 SWAP2 SUB SWAP1 LOG1 JUMP JUMPDEST PUSH1 0x0 DUP1 PUSH1 0x0 SWAP1 SLOAD SWAP1 PUSH2 0x100 EXP SWAP1 DIV PUSH1 0xFF AND SWAP1 POP SWAP1 JUMP JUMPDEST PUSH1 0x0 DUP1 REVERT JUMPDEST PUSH1 0x0 PUSH20 0xFFFFFFFFFFFFFFFFFFFFFFFFFFFFFFFFFFFFFFFF DUP3 AND SWAP1 POP SWAP2 SWAP1 POP JUMP JUMPDEST PUSH1 0x0 PUSH3 0x290 DUP3 PUSH3 0x263 JUMP JUMPDEST SWAP1 POP SWAP2 SWAP1 POP JUMP JUMPDEST PUSH3 0x2A2 DUP2 PUSH3 0x283 JUMP JUMPDEST DUP2 EQ PUSH3 0x2AE JUMPI PUSH1 0x0 DUP1 REVERT JUMPDEST POP JUMP JUMPDEST PUSH1 0x0 DUP2 MLOAD SWAP1 POP PUSH3 0x2C2 DUP2 PUSH3 0x297 JUMP JUMPDEST SWAP3 SWAP2 POP POP JUMP JUMPDEST PUSH1 0x0 PUSH1 0x20 DUP3 DUP5 SUB SLT ISZERO PUSH3 0x2E1 JUMPI PUSH3 0x2E0 PUSH3 0x25E JUMP JUMPDEST JUMPDEST PUSH1 0x0 PUSH3 0x2F1 DUP5 DUP3 DUP6 ADD PUSH3 0x2B1 JUMP JUMPDEST SWAP2 POP POP SWAP3 SWAP2 POP POP JUMP JUMPDEST PUSH1 0x0 DUP3 DUP3 MSTORE PUSH1 0x20 DUP3 ADD SWAP1 POP SWAP3 SWAP2 POP POP JUMP JUMPDEST PUSH32 0x5061757361626C653A2070617573656400000000000000000000000000000000 PUSH1 0x0 DUP3 ADD MSTORE POP JUMP JUMPDEST PUSH1 0x0 PUSH3 0x343 PUSH1 0x10 DUP4 PUSH3 0x2FA JUMP JUMPDEST SWAP2 POP PUSH3 0x350 DUP3 PUSH3 0x30B JUMP JUMPDEST PUSH1 0x20 DUP3 ADD SWAP1 POP SWAP2 SWAP1 POP JUMP JUMPDEST PUSH1 0x0 PUSH1 0x20 DUP3 ADD SWAP1 POP DUP2 DUP2 SUB PUSH1 0x0 DUP4 ADD MSTORE PUSH3 0x376 DUP2 PUSH3 0x334 JUMP JUMPDEST SWAP1 POP SWAP2 SWAP1 POP JUMP JUMPDEST PUSH3 0x388 DUP2 PUSH3 0x283 JUMP JUMPDEST DUP3 MSTORE POP POP JUMP JUMPDEST PUSH1 0x0 PUSH1 0x20 DUP3 ADD SWAP1 POP PUSH3 0x3A5 PUSH1 0x0 DUP4 ADD DUP5 PUSH3 0x37D JUMP JUMPDEST SWAP3 SWAP2 POP POP JUMP JUMPDEST PUSH1 0x80 MLOAD PUSH2 0x3539 PUSH3 0x3D5 PUSH1 0x0 CODECOPY PUSH1 0x0 DUP2 DUP2 PUSH2 0x92C ADD MSTORE DUP2 DUP2 PUSH2 0xB52 ADD MSTORE PUSH2 0x115A ADD MSTORE PUSH2 0x3539 PUSH1 0x0 RETURN INVALID PUSH1 0x80 PUSH1 0x40 MSTORE CALLVALUE DUP1 ISZERO PUSH2 0x10 JUMPI PUSH1 0x0 DUP1 REVERT JUMPDEST POP PUSH1 0x4 CALLDATASIZE LT PUSH2 0x137 JUMPI PUSH1 0x0 CALLDATALOAD PUSH1 0xE0 SHR DUP1 PUSH4 0x7663D437 GT PUSH2 0xB8 JUMPI DUP1 PUSH4 0xBA42590D GT PUSH2 0x7C JUMPI DUP1 PUSH4 0xBA42590D EQ PUSH2 0x309 JUMPI DUP1 PUSH4 0xC6760F6B EQ PUSH2 0x339 JUMPI DUP1 PUSH4 0xD0E1F97F EQ PUSH2 0x355 JUMPI DUP1 PUSH4 0xDA0195EC EQ PUSH2 0x373 JUMPI DUP1 PUSH4 0xF2FDE38B EQ PUSH2 0x38F JUMPI DUP1 PUSH4 0xFA461974 EQ PUSH2 0x3AB JUMPI PUSH2 0x137 JUMP JUMPDEST DUP1 PUSH4 0x7663D437 EQ PUSH2 0x263 JUMPI DUP1 PUSH4 0x8923E2F7 EQ PUSH2 0x295 JUMPI DUP1 PUSH4 0x8DA5CB5B EQ PUSH2 0x2B1 JUMPI DUP1 PUSH4 0xA95C56F5 EQ PUSH2 0x2CF JUMPI DUP1 PUSH4 0xB94EC9D0 EQ PUSH2 0x2FF JUMPI PUSH2 0x137 JUMP JUMPDEST DUP1 PUSH4 0x31CEC7A3 GT PUSH2 0xFF JUMPI DUP1 PUSH4 0x31CEC7A3 EQ PUSH2 0x1F7 JUMPI DUP1 PUSH4 0x3488FCA2 EQ PUSH2 0x201 JUMPI DUP1 PUSH4 0x36DB9FB2 EQ PUSH2 0x21D JUMPI DUP1 PUSH4 0x5C975ABB EQ PUSH2 0x23B JUMPI DUP1 PUSH4 0x715018A6 EQ PUSH2 0x259 JUMPI PUSH2 0x137 JUMP JUMPDEST DUP1 PUSH4 0x401FF48 EQ PUSH2 0x13C JUMPI DUP1 PUSH4 0x70E44CE EQ PUSH2 0x16C JUMPI DUP1 PUSH4 0x1040FAF9 EQ PUSH2 0x19D JUMPI DUP1 PUSH4 0x141FD8C8 EQ PUSH2 0x1BB JUMPI DUP1 PUSH4 0x249C8F5E EQ PUSH2 0x1D9 JUMPI JUMPDEST PUSH1 0x0 DUP1 REVERT JUMPDEST PUSH2 0x156 PUSH1 0x4 DUP1 CALLDATASIZE SUB DUP2 ADD SWAP1 PUSH2 0x151 SWAP2 SWAP1 PUSH2 0x1EE7 JUMP JUMPDEST PUSH2 0x3C9 JUMP JUMPDEST PUSH1 0x40 MLOAD PUSH2 0x163 SWAP2 SWAP1 PUSH2 0x1F40 JUMP JUMPDEST PUSH1 0x40 MLOAD DUP1 SWAP2 SUB SWAP1 RETURN JUMPDEST PUSH2 0x186 PUSH1 0x4 DUP1 CALLDATASIZE SUB DUP2 ADD SWAP1 PUSH2 0x181 SWAP2 SWAP1 PUSH2 0x206C JUMP JUMPDEST PUSH2 0x3EE JUMP JUMPDEST PUSH1 0x40 MLOAD PUSH2 0x194 SWAP3 SWAP2 SWAP1 PUSH2 0x22BD JUMP JUMPDEST PUSH1 0x40 MLOAD DUP1 SWAP2 SUB SWAP1 RETURN JUMPDEST PUSH2 0x1A5 PUSH2 0x5FA JUMP JUMPDEST PUSH1 0x40 MLOAD PUSH2 0x1B2 SWAP2 SWAP1 PUSH2 0x1F40 JUMP JUMPDEST PUSH1 0x40 MLOAD DUP1 SWAP2 SUB SWAP1 RETURN JUMPDEST PUSH2 0x1C3 PUSH2 0x600 JUMP JUMPDEST PUSH1 0x40 MLOAD PUSH2 0x1D0 SWAP2 SWAP1 PUSH2 0x1F40 JUMP JUMPDEST PUSH1 0x40 MLOAD DUP1 SWAP2 SUB SWAP1 RETURN JUMPDEST PUSH2 0x1E1 PUSH2 0x607 JUMP JUMPDEST PUSH1 0x40 MLOAD PUSH2 0x1EE SWAP2 SWAP1 PUSH2 0x2303 JUMP JUMPDEST PUSH1 0x40 MLOAD DUP1 SWAP2 SUB SWAP1 RETURN JUMPDEST PUSH2 0x1FF PUSH2 0x61A JUMP JUMPDEST STOP JUMPDEST PUSH2 0x21B PUSH1 0x4 DUP1 CALLDATASIZE SUB DUP2 ADD SWAP1 PUSH2 0x216 SWAP2 SWAP1 PUSH2 0x231E JUMP JUMPDEST PUSH2 0x6EF JUMP JUMPDEST STOP JUMPDEST PUSH2 0x225 PUSH2 0x92A JUMP JUMPDEST PUSH1 0x40 MLOAD PUSH2 0x232 SWAP2 SWAP1 PUSH2 0x23AA JUMP JUMPDEST PUSH1 0x40 MLOAD DUP1 SWAP2 SUB SWAP1 RETURN JUMPDEST PUSH2 0x243 PUSH2 0x94E JUMP JUMPDEST PUSH1 0x40 MLOAD PUSH2 0x250 SWAP2 SWAP1 PUSH2 0x23D4 JUMP JUMPDEST PUSH1 0x40 MLOAD DUP1 SWAP2 SUB SWAP1 RETURN JUMPDEST PUSH2 0x261 PUSH2 0x964 JUMP JUMPDEST STOP JUMPDEST PUSH2 0x27D PUSH1 0x4 DUP1 CALLDATASIZE SUB DUP2 ADD SWAP1 PUSH2 0x278 SWAP2 SWAP1 PUSH2 0x23EF JUMP JUMPDEST PUSH2 0x9EC JUMP JUMPDEST PUSH1 0x40 MLOAD PUSH2 0x28C SWAP4 SWAP3 SWAP2 SWAP1 PUSH2 0x2444 JUMP JUMPDEST PUSH1 0x40 MLOAD DUP1 SWAP2 SUB SWAP1 RETURN JUMPDEST PUSH2 0x2AF PUSH1 0x4 DUP1 CALLDATASIZE SUB DUP2 ADD SWAP1 PUSH2 0x2AA SWAP2 SWAP1 PUSH2 0x24A7 JUMP JUMPDEST PUSH2 0xA36 JUMP JUMPDEST STOP JUMPDEST PUSH2 0x2B9 PUSH2 0xBD0 JUMP JUMPDEST PUSH1 0x40 MLOAD PUSH2 0x2C6 SWAP2 SWAP1 PUSH2 0x24D4 JUMP JUMPDEST PUSH1 0x40 MLOAD DUP1 SWAP2 SUB SWAP1 RETURN JUMPDEST PUSH2 0x2E9 PUSH1 0x4 DUP1 CALLDATASIZE SUB DUP2 ADD SWAP1 PUSH2 0x2E4 SWAP2 SWAP1 PUSH2 0x231E JUMP JUMPDEST PUSH2 0xBFA JUMP JUMPDEST PUSH1 0x40 MLOAD PUSH2 0x2F6 SWAP2 SWAP1 PUSH2 0x23D4 JUMP JUMPDEST PUSH1 0x40 MLOAD DUP1 SWAP2 SUB SWAP1 RETURN JUMPDEST PUSH2 0x307 PUSH2 0xC1A JUMP JUMPDEST STOP JUMPDEST PUSH2 0x323 PUSH1 0x4 DUP1 CALLDATASIZE SUB DUP2 ADD SWAP1 PUSH2 0x31E SWAP2 SWAP1 PUSH2 0x251B JUMP JUMPDEST PUSH2 0xCE7 JUMP JUMPDEST PUSH1 0x40 MLOAD PUSH2 0x330 SWAP2 SWAP1 PUSH2 0x23D4 JUMP JUMPDEST PUSH1 0x40 MLOAD DUP1 SWAP2 SUB SWAP1 RETURN JUMPDEST PUSH2 0x353 PUSH1 0x4 DUP1 CALLDATASIZE SUB DUP2 ADD SWAP1 PUSH2 0x34E SWAP2 SWAP1 PUSH2 0x2548 JUMP JUMPDEST PUSH2 0xD07 JUMP JUMPDEST STOP JUMPDEST PUSH2 0x35D PUSH2 0x11F2 JUMP JUMPDEST PUSH1 0x40 MLOAD PUSH2 0x36A SWAP2 SWAP1 PUSH2 0x1F40 JUMP JUMPDEST PUSH1 0x40 MLOAD DUP1 SWAP2 SUB SWAP1 RETURN JUMPDEST PUSH2 0x38D PUSH1 0x4 DUP1 CALLDATASIZE SUB DUP2 ADD SWAP1 PUSH2 0x388 SWAP2 SWAP1 PUSH2 0x2652 JUMP JUMPDEST PUSH2 0x11FE JUMP JUMPDEST STOP JUMPDEST PUSH2 0x3A9 PUSH1 0x4 DUP1 CALLDATASIZE SUB DUP2 ADD SWAP1 PUSH2 0x3A4 SWAP2 SWAP1 PUSH2 0x231E JUMP JUMPDEST PUSH2 0x1667 JUMP JUMPDEST STOP JUMPDEST PUSH2 0x3B3 PUSH2 0x175F JUMP JUMPDEST PUSH1 0x40 MLOAD PUSH2 0x3C0 SWAP2 SWAP1 PUSH2 0x1F40 JUMP JUMPDEST PUSH1 0x40 MLOAD DUP1 SWAP2 SUB SWAP1 RETURN JUMPDEST PUSH1 0x6 PUSH1 0x20 MSTORE DUP2 PUSH1 0x0 MSTORE PUSH1 0x40 PUSH1 0x0 KECCAK256 PUSH1 0x20 MSTORE DUP1 PUSH1 0x0 MSTORE PUSH1 0x40 PUSH1 0x0 KECCAK256 PUSH1 0x0 SWAP2 POP SWAP2 POP POP SLOAD DUP2 JUMP JUMPDEST PUSH1 0x60 DUP1 PUSH1 0x0 DUP7 DUP7 SWAP1 POP PUSH8 0xFFFFFFFFFFFFFFFF DUP2 GT ISZERO PUSH2 0x410 JUMPI PUSH2 0x40F PUSH2 0x273B JUMP JUMPDEST JUMPDEST PUSH1 0x40 MLOAD SWAP1 DUP1 DUP3 MSTORE DUP1 PUSH1 0x20 MUL PUSH1 0x20 ADD DUP3 ADD PUSH1 0x40 MSTORE DUP1 ISZERO PUSH2 0x43E JUMPI DUP2 PUSH1 0x20 ADD PUSH1 0x20 DUP3 MUL DUP1 CALLDATASIZE DUP4 CALLDATACOPY DUP1 DUP3 ADD SWAP2 POP POP SWAP1 POP JUMPDEST POP SWAP1 POP PUSH1 0x0 DUP8 DUP8 SWAP1 POP PUSH8 0xFFFFFFFFFFFFFFFF DUP2 GT ISZERO PUSH2 0x460 JUMPI PUSH2 0x45F PUSH2 0x273B JUMP JUMPDEST JUMPDEST PUSH1 0x40 MLOAD SWAP1 DUP1 DUP3 MSTORE DUP1 PUSH1 0x20 MUL PUSH1 0x20 ADD DUP3 ADD PUSH1 0x40 MSTORE DUP1 ISZERO PUSH2 0x48E JUMPI DUP2 PUSH1 0x20 ADD PUSH1 0x20 DUP3 MUL DUP1 CALLDATASIZE DUP4 CALLDATACOPY DUP1 DUP3 ADD SWAP2 POP POP SWAP1 POP JUMPDEST POP SWAP1 POP DUP8 DUP8 SWAP1 POP DUP11 DUP11 SWAP1 POP EQ ISZERO DUP1 PUSH2 0x4AC JUMPI POP DUP6 DUP6 SWAP1 POP DUP11 DUP11 SWAP1 POP EQ ISZERO JUMPDEST DUP1 PUSH2 0x4BA JUMPI POP PUSH1 0x0 DUP11 DUP11 SWAP1 POP EQ JUMPDEST ISZERO PUSH2 0x4CC JUMPI DUP2 DUP2 SWAP4 POP SWAP4 POP POP POP PUSH2 0x5EE JUMP JUMPDEST PUSH1 0x0 JUMPDEST DUP11 DUP11 SWAP1 POP DUP2 LT ISZERO PUSH2 0x5E4 JUMPI PUSH1 0x2 PUSH1 0x14 SWAP1 SLOAD SWAP1 PUSH2 0x100 EXP SWAP1 DIV PUSH1 0xFF AND PUSH1 0xFF AND DUP12 DUP12 DUP4 DUP2 DUP2 LT PUSH2 0x500 JUMPI PUSH2 0x4FF PUSH2 0x276A JUMP JUMPDEST JUMPDEST SWAP1 POP PUSH1 0x20 MUL ADD PUSH1 0x20 DUP2 ADD SWAP1 PUSH2 0x515 SWAP2 SWAP1 PUSH2 0x23EF JUMP JUMPDEST PUSH1 0xFF AND LT ISZERO PUSH2 0x5D1 JUMPI PUSH2 0x58E DUP13 DUP13 DUP13 DUP5 DUP2 DUP2 LT PUSH2 0x535 JUMPI PUSH2 0x534 PUSH2 0x276A JUMP JUMPDEST JUMPDEST SWAP1 POP PUSH1 0x20 MUL ADD PUSH1 0x20 DUP2 ADD SWAP1 PUSH2 0x54A SWAP2 SWAP1 PUSH2 0x23EF JUMP JUMPDEST DUP12 DUP12 DUP6 DUP2 DUP2 LT PUSH2 0x55D JUMPI PUSH2 0x55C PUSH2 0x276A JUMP JUMPDEST JUMPDEST SWAP1 POP PUSH1 0x20 MUL ADD CALLDATALOAD DUP11 DUP11 DUP7 DUP2 DUP2 LT PUSH2 0x577 JUMPI PUSH2 0x576 PUSH2 0x276A JUMP JUMPDEST JUMPDEST SWAP1 POP PUSH1 0x20 MUL DUP2 ADD SWAP1 PUSH2 0x589 SWAP2 SWAP1 PUSH2 0x27A8 JUMP JUMPDEST PUSH2 0x1765 JUMP JUMPDEST DUP5 DUP4 DUP2 MLOAD DUP2 LT PUSH2 0x5A1 JUMPI PUSH2 0x5A0 PUSH2 0x276A JUMP JUMPDEST JUMPDEST PUSH1 0x20 MUL PUSH1 0x20 ADD ADD DUP5 DUP5 DUP2 MLOAD DUP2 LT PUSH2 0x5BB JUMPI PUSH2 0x5BA PUSH2 0x276A JUMP JUMPDEST JUMPDEST PUSH1 0x20 MUL PUSH1 0x20 ADD ADD DUP3 DUP2 MSTORE POP DUP3 ISZERO ISZERO ISZERO ISZERO DUP2 MSTORE POP POP POP JUMPDEST DUP1 DUP1 PUSH2 0x5DC SWAP1 PUSH2 0x283A JUMP JUMPDEST SWAP2 POP POP PUSH2 0x4CF JUMP JUMPDEST POP DUP2 DUP2 SWAP4 POP SWAP4 POP POP POP JUMPDEST SWAP8 POP SWAP8 SWAP6 POP POP POP POP POP POP JUMP JUMPDEST PUSH1 0x3 SLOAD DUP2 JUMP JUMPDEST PUSH3 0x3F480 DUP2 JUMP JUMPDEST PUSH1 0x2 PUSH1 0x14 SWAP1 SLOAD SWAP1 PUSH2 0x100 EXP SWAP1 DIV PUSH1 0xFF AND DUP2 JUMP JUMPDEST PUSH2 0x622 PUSH2 0x188F JUMP JUMPDEST PUSH20 0xFFFFFFFFFFFFFFFFFFFFFFFFFFFFFFFFFFFFFFFF AND PUSH2 0x640 PUSH2 0xBD0 JUMP JUMPDEST PUSH20 0xFFFFFFFFFFFFFFFFFFFFFFFFFFFFFFFFFFFFFFFF AND EQ PUSH2 0x696 JUMPI PUSH1 0x40 MLOAD PUSH32 0x8C379A000000000000000000000000000000000000000000000000000000000 DUP2 MSTORE PUSH1 0x4 ADD PUSH2 0x68D SWAP1 PUSH2 0x28E0 JUMP JUMPDEST PUSH1 0x40 MLOAD DUP1 SWAP2 SUB SWAP1 REVERT JUMPDEST PUSH2 0x69E PUSH2 0x94E JUMP JUMPDEST ISZERO PUSH2 0x6DE JUMPI PUSH1 0x40 MLOAD PUSH32 0x8C379A000000000000000000000000000000000000000000000000000000000 DUP2 MSTORE PUSH1 0x4 ADD PUSH2 0x6D5 SWAP1 PUSH2 0x294C JUMP JUMPDEST PUSH1 0x40 MLOAD DUP1 SWAP2 SUB SWAP1 REVERT JUMPDEST TIMESTAMP PUSH1 0x4 DUP2 SWAP1 SSTORE POP PUSH2 0x6ED PUSH2 0x1897 JUMP JUMPDEST JUMP JUMPDEST PUSH2 0x6F7 PUSH2 0x188F JUMP JUMPDEST PUSH20 0xFFFFFFFFFFFFFFFFFFFFFFFFFFFFFFFFFFFFFFFF AND PUSH2 0x715 PUSH2 0xBD0 JUMP JUMPDEST PUSH20 0xFFFFFFFFFFFFFFFFFFFFFFFFFFFFFFFFFFFFFFFF AND EQ PUSH2 0x76B JUMPI PUSH1 0x40 MLOAD PUSH32 0x8C379A000000000000000000000000000000000000000000000000000000000 DUP2 MSTORE PUSH1 0x4 ADD PUSH2 0x762 SWAP1 PUSH2 0x28E0 JUMP JUMPDEST PUSH1 0x40 MLOAD DUP1 SWAP2 SUB SWAP1 REVERT JUMPDEST PUSH1 0x7 PUSH1 0x0 DUP3 PUSH20 0xFFFFFFFFFFFFFFFFFFFFFFFFFFFFFFFFFFFFFFFF AND PUSH20 0xFFFFFFFFFFFFFFFFFFFFFFFFFFFFFFFFFFFFFFFF AND DUP2 MSTORE PUSH1 0x20 ADD SWAP1 DUP2 MSTORE PUSH1 0x20 ADD PUSH1 0x0 KECCAK256 PUSH1 0x0 SWAP1 SLOAD SWAP1 PUSH2 0x100 EXP SWAP1 DIV PUSH1 0xFF AND ISZERO PUSH2 0x7F8 JUMPI PUSH1 0x40 MLOAD PUSH32 0x8C379A000000000000000000000000000000000000000000000000000000000 DUP2 MSTORE PUSH1 0x4 ADD PUSH2 0x7EF SWAP1 PUSH2 0x29B8 JUMP JUMPDEST PUSH1 0x40 MLOAD DUP1 SWAP2 SUB SWAP1 REVERT JUMPDEST PUSH1 0x1 PUSH1 0x7 PUSH1 0x0 DUP4 PUSH20 0xFFFFFFFFFFFFFFFFFFFFFFFFFFFFFFFFFFFFFFFF AND PUSH20 0xFFFFFFFFFFFFFFFFFFFFFFFFFFFFFFFFFFFFFFFF AND DUP2 MSTORE PUSH1 0x20 ADD SWAP1 DUP2 MSTORE PUSH1 0x20 ADD PUSH1 0x0 KECCAK256 PUSH1 0x0 PUSH2 0x100 EXP DUP2 SLOAD DUP2 PUSH1 0xFF MUL NOT AND SWAP1 DUP4 ISZERO ISZERO MUL OR SWAP1 SSTORE POP DUP1 PUSH1 0x5 PUSH1 0x0 PUSH1 0x2 PUSH1 0x14 SWAP1 SLOAD SWAP1 PUSH2 0x100 EXP SWAP1 DIV PUSH1 0xFF AND PUSH1 0xFF AND PUSH1 0xFF AND DUP2 MSTORE PUSH1 0x20 ADD SWAP1 DUP2 MSTORE PUSH1 0x20 ADD PUSH1 0x0 KECCAK256 PUSH1 0x0 ADD PUSH1 0x0 PUSH2 0x100 EXP DUP2 SLOAD DUP2 PUSH20 0xFFFFFFFFFFFFFFFFFFFFFFFFFFFFFFFFFFFFFFFF MUL NOT AND SWAP1 DUP4 PUSH20 0xFFFFFFFFFFFFFFFFFFFFFFFFFFFFFFFFFFFFFFFF AND MUL OR SWAP1 SSTORE POP PUSH32 0xCC7DAA76DB4972D6A17FB9D6AAB3DC31EACBE5C2D577977F4CBE162F077C0B1 PUSH1 0x2 PUSH1 0x14 DUP2 DUP2 SWAP1 SLOAD SWAP1 PUSH2 0x100 EXP SWAP1 DIV PUSH1 0xFF AND DUP1 SWAP3 SWAP2 SWAP1 PUSH2 0x8FA SWAP1 PUSH2 0x29D8 JUMP JUMPDEST SWAP2 SWAP1 PUSH2 0x100 EXP DUP2 SLOAD DUP2 PUSH1 0xFF MUL NOT AND SWAP1 DUP4 PUSH1 0xFF AND MUL OR SWAP1 SSTORE POP PUSH1 0x40 MLOAD PUSH2 0x91F SWAP2 SWAP1 PUSH2 0x2303 JUMP JUMPDEST PUSH1 0x40 MLOAD DUP1 SWAP2 SUB SWAP1 LOG1 POP JUMP JUMPDEST PUSH32 0x0 DUP2 JUMP JUMPDEST PUSH1 0x0 DUP1 PUSH1 0x0 SWAP1 SLOAD SWAP1 PUSH2 0x100 EXP SWAP1 DIV PUSH1 0xFF AND SWAP1 POP SWAP1 JUMP JUMPDEST PUSH2 0x96C PUSH2 0x188F JUMP JUMPDEST PUSH20 0xFFFFFFFFFFFFFFFFFFFFFFFFFFFFFFFFFFFFFFFF AND PUSH2 0x98A PUSH2 0xBD0 JUMP JUMPDEST PUSH20 0xFFFFFFFFFFFFFFFFFFFFFFFFFFFFFFFFFFFFFFFF AND EQ PUSH2 0x9E0 JUMPI PUSH1 0x40 MLOAD PUSH32 0x8C379A000000000000000000000000000000000000000000000000000000000 DUP2 MSTORE PUSH1 0x4 ADD PUSH2 0x9D7 SWAP1 PUSH2 0x28E0 JUMP JUMPDEST PUSH1 0x40 MLOAD DUP1 SWAP2 SUB SWAP1 REVERT JUMPDEST PUSH2 0x9EA PUSH1 0x0 PUSH2 0x1939 JUMP JUMPDEST JUMP JUMPDEST PUSH1 0x5 PUSH1 0x20 MSTORE DUP1 PUSH1 0x0 MSTORE PUSH1 0x40 PUSH1 0x0 KECCAK256 PUSH1 0x0 SWAP2 POP SWAP1 POP DUP1 PUSH1 0x0 ADD PUSH1 0x0 SWAP1 SLOAD SWAP1 PUSH2 0x100 EXP SWAP1 DIV PUSH20 0xFFFFFFFFFFFFFFFFFFFFFFFFFFFFFFFFFFFFFFFF AND SWAP1 DUP1 PUSH1 0x1 ADD SLOAD SWAP1 DUP1 PUSH1 0x2 ADD SLOAD SWAP1 POP DUP4 JUMP JUMPDEST PUSH2 0xA3E PUSH2 0x188F JUMP JUMPDEST PUSH20 0xFFFFFFFFFFFFFFFFFFFFFFFFFFFFFFFFFFFFFFFF AND PUSH2 0xA5C PUSH2 0xBD0 JUMP JUMPDEST PUSH20 0xFFFFFFFFFFFFFFFFFFFFFFFFFFFFFFFFFFFFFFFF AND EQ PUSH2 0xAB2 JUMPI PUSH1 0x40 MLOAD PUSH32 0x8C379A000000000000000000000000000000000000000000000000000000000 DUP2 MSTORE PUSH1 0x4 ADD PUSH2 0xAA9 SWAP1 PUSH2 0x28E0 JUMP JUMPDEST PUSH1 0x40 MLOAD DUP1 SWAP2 SUB SWAP1 REVERT JUMPDEST PUSH2 0xABA PUSH2 0x94E JUMP JUMPDEST PUSH2 0xAF9 JUMPI PUSH1 0x40 MLOAD PUSH32 0x8C379A000000000000000000000000000000000000000000000000000000000 DUP2 MSTORE PUSH1 0x4 ADD PUSH2 0xAF0 SWAP1 PUSH2 0x2A4E JUMP JUMPDEST PUSH1 0x40 MLOAD DUP1 SWAP2 SUB SWAP1 REVERT JUMPDEST PUSH3 0x3F480 PUSH1 0x4 SLOAD PUSH2 0xB0A SWAP2 SWAP1 PUSH2 0x2A6E JUMP JUMPDEST TIMESTAMP GT PUSH2 0xB4B JUMPI PUSH1 0x40 MLOAD PUSH32 0x8C379A000000000000000000000000000000000000000000000000000000000 DUP2 MSTORE PUSH1 0x4 ADD PUSH2 0xB42 SWAP1 PUSH2 0x2B10 JUMP JUMPDEST PUSH1 0x40 MLOAD DUP1 SWAP2 SUB SWAP1 REVERT JUMPDEST PUSH2 0xB96 CALLER DUP3 PUSH32 0x0 PUSH20 0xFFFFFFFFFFFFFFFFFFFFFFFFFFFFFFFFFFFFFFFF AND PUSH2 0x19FF SWAP1 SWAP3 SWAP2 SWAP1 PUSH4 0xFFFFFFFF AND JUMP JUMPDEST PUSH32 0xB4CD5C4A08BBED33ABFE773ECE179D156730E39629E065B7DCD8263027387C1D DUP2 PUSH1 0x40 MLOAD PUSH2 0xBC5 SWAP2 SWAP1 PUSH2 0x1F40 JUMP JUMPDEST PUSH1 0x40 MLOAD DUP1 SWAP2 SUB SWAP1 LOG1 POP JUMP JUMPDEST PUSH1 0x0 PUSH1 0x2 PUSH1 0x0 SWAP1 SLOAD SWAP1 PUSH2 0x100 EXP SWAP1 DIV PUSH20 0xFFFFFFFFFFFFFFFFFFFFFFFFFFFFFFFFFFFFFFFF AND SWAP1 POP SWAP1 JUMP JUMPDEST PUSH1 0x7 PUSH1 0x20 MSTORE DUP1 PUSH1 0x0 MSTORE PUSH1 0x40 PUSH1 0x0 KECCAK256 PUSH1 0x0 SWAP2 POP SLOAD SWAP1 PUSH2 0x100 EXP SWAP1 DIV PUSH1 0xFF AND DUP2 JUMP JUMPDEST PUSH2 0xC22 PUSH2 0x188F JUMP JUMPDEST PUSH20 0xFFFFFFFFFFFFFFFFFFFFFFFFFFFFFFFFFFFFFFFF AND PUSH2 0xC40 PUSH2 0xBD0 JUMP JUMPDEST PUSH20 0xFFFFFFFFFFFFFFFFFFFFFFFFFFFFFFFFFFFFFFFF AND EQ PUSH2 0xC96 JUMPI PUSH1 0x40 MLOAD PUSH32 0x8C379A000000000000000000000000000000000000000000000000000000000 DUP2 MSTORE PUSH1 0x4 ADD PUSH2 0xC8D SWAP1 PUSH2 0x28E0 JUMP JUMPDEST PUSH1 0x40 MLOAD DUP1 SWAP2 SUB SWAP1 REVERT JUMPDEST PUSH2 0xC9E PUSH2 0x94E JUMP JUMPDEST PUSH2 0xCDD JUMPI PUSH1 0x40 MLOAD PUSH32 0x8C379A000000000000000000000000000000000000000000000000000000000 DUP2 MSTORE PUSH1 0x4 ADD PUSH2 0xCD4 SWAP1 PUSH2 0x2A4E JUMP JUMPDEST PUSH1 0x40 MLOAD DUP1 SWAP2 SUB SWAP1 REVERT JUMPDEST PUSH2 0xCE5 PUSH2 0x1A85 JUMP JUMPDEST JUMP JUMPDEST PUSH1 0x8 PUSH1 0x20 MSTORE DUP1 PUSH1 0x0 MSTORE PUSH1 0x40 PUSH1 0x0 KECCAK256 PUSH1 0x0 SWAP2 POP SLOAD SWAP1 PUSH2 0x100 EXP SWAP1 DIV PUSH1 0xFF AND DUP2 JUMP JUMPDEST PUSH2 0xD0F PUSH2 0x94E JUMP JUMPDEST ISZERO PUSH2 0xD4F JUMPI PUSH1 0x40 MLOAD PUSH32 0x8C379A000000000000000000000000000000000000000000000000000000000 DUP2 MSTORE PUSH1 0x4 ADD PUSH2 0xD46 SWAP1 PUSH2 0x294C JUMP JUMPDEST PUSH1 0x40 MLOAD DUP1 SWAP2 SUB SWAP1 REVERT JUMPDEST PUSH1 0x2 PUSH1 0x1 SLOAD EQ ISZERO PUSH2 0xD95 JUMPI PUSH1 0x40 MLOAD PUSH32 0x8C379A000000000000000000000000000000000000000000000000000000000 DUP2 MSTORE PUSH1 0x4 ADD PUSH2 0xD8C SWAP1 PUSH2 0x2B7C JUMP JUMPDEST PUSH1 0x40 MLOAD DUP1 SWAP2 SUB SWAP1 REVERT JUMPDEST PUSH1 0x2 PUSH1 0x1 DUP2 SWAP1 SSTORE POP PUSH1 0x0 DUP7 DUP7 SWAP1 POP GT DUP1 ISZERO PUSH2 0xDB5 JUMPI POP DUP4 DUP4 SWAP1 POP DUP7 DUP7 SWAP1 POP EQ JUMPDEST DUP1 ISZERO PUSH2 0xDC6 JUMPI POP DUP6 DUP6 SWAP1 POP DUP3 DUP3 SWAP1 POP EQ JUMPDEST PUSH2 0xE05 JUMPI PUSH1 0x40 MLOAD PUSH32 0x8C379A000000000000000000000000000000000000000000000000000000000 DUP2 MSTORE PUSH1 0x4 ADD PUSH2 0xDFC SWAP1 PUSH2 0x2BE8 JUMP JUMPDEST PUSH1 0x40 MLOAD DUP1 SWAP2 SUB SWAP1 REVERT JUMPDEST PUSH1 0x0 DUP1 DUP6 DUP6 SWAP1 POP PUSH8 0xFFFFFFFFFFFFFFFF DUP2 GT ISZERO PUSH2 0xE25 JUMPI PUSH2 0xE24 PUSH2 0x273B JUMP JUMPDEST JUMPDEST PUSH1 0x40 MLOAD SWAP1 DUP1 DUP3 MSTORE DUP1 PUSH1 0x20 MUL PUSH1 0x20 ADD DUP3 ADD PUSH1 0x40 MSTORE DUP1 ISZERO PUSH2 0xE53 JUMPI DUP2 PUSH1 0x20 ADD PUSH1 0x20 DUP3 MUL DUP1 CALLDATASIZE DUP4 CALLDATACOPY DUP1 DUP3 ADD SWAP2 POP POP SWAP1 POP JUMPDEST POP SWAP1 POP PUSH1 0x0 JUMPDEST DUP9 DUP9 SWAP1 POP DUP2 LT ISZERO PUSH2 0x1152 JUMPI PUSH1 0x2 PUSH1 0x14 SWAP1 SLOAD SWAP1 PUSH2 0x100 EXP SWAP1 DIV PUSH1 0xFF AND PUSH1 0xFF AND DUP10 DUP10 DUP4 DUP2 DUP2 LT PUSH2 0xE8A JUMPI PUSH2 0xE89 PUSH2 0x276A JUMP JUMPDEST JUMPDEST SWAP1 POP PUSH1 0x20 MUL ADD PUSH1 0x20 DUP2 ADD SWAP1 PUSH2 0xE9F SWAP2 SWAP1 PUSH2 0x23EF JUMP JUMPDEST PUSH1 0xFF AND LT PUSH2 0xEE2 JUMPI PUSH1 0x40 MLOAD PUSH32 0x8C379A000000000000000000000000000000000000000000000000000000000 DUP2 MSTORE PUSH1 0x4 ADD PUSH2 0xED9 SWAP1 PUSH2 0x2C54 JUMP JUMPDEST PUSH1 0x40 MLOAD DUP1 SWAP2 SUB SWAP1 REVERT JUMPDEST PUSH1 0x0 DUP1 PUSH2 0xF55 CALLER DUP13 DUP13 DUP7 DUP2 DUP2 LT PUSH2 0xEFC JUMPI PUSH2 0xEFB PUSH2 0x276A JUMP JUMPDEST JUMPDEST SWAP1 POP PUSH1 0x20 MUL ADD PUSH1 0x20 DUP2 ADD SWAP1 PUSH2 0xF11 SWAP2 SWAP1 PUSH2 0x23EF JUMP JUMPDEST DUP12 DUP12 DUP8 DUP2 DUP2 LT PUSH2 0xF24 JUMPI PUSH2 0xF23 PUSH2 0x276A JUMP JUMPDEST JUMPDEST SWAP1 POP PUSH1 0x20 MUL ADD CALLDATALOAD DUP11 DUP11 DUP9 DUP2 DUP2 LT PUSH2 0xF3E JUMPI PUSH2 0xF3D PUSH2 0x276A JUMP JUMPDEST JUMPDEST SWAP1 POP PUSH1 0x20 MUL DUP2 ADD SWAP1 PUSH2 0xF50 SWAP2 SWAP1 PUSH2 0x27A8 JUMP JUMPDEST PUSH2 0x1765 JUMP JUMPDEST SWAP2 POP SWAP2 POP DUP2 PUSH2 0xF99 JUMPI PUSH1 0x40 MLOAD PUSH32 0x8C379A000000000000000000000000000000000000000000000000000000000 DUP2 MSTORE PUSH1 0x4 ADD PUSH2 0xF90 SWAP1 PUSH2 0x2CC0 JUMP JUMPDEST PUSH1 0x40 MLOAD DUP1 SWAP2 SUB SWAP1 REVERT JUMPDEST PUSH1 0x0 DUP2 GT PUSH2 0xFDC JUMPI PUSH1 0x40 MLOAD PUSH32 0x8C379A000000000000000000000000000000000000000000000000000000000 DUP2 MSTORE PUSH1 0x4 ADD PUSH2 0xFD3 SWAP1 PUSH2 0x2D2C JUMP JUMPDEST PUSH1 0x40 MLOAD DUP1 SWAP2 SUB SWAP1 REVERT JUMPDEST PUSH1 0x5 PUSH1 0x0 DUP13 DUP13 DUP7 DUP2 DUP2 LT PUSH2 0xFF3 JUMPI PUSH2 0xFF2 PUSH2 0x276A JUMP JUMPDEST JUMPDEST SWAP1 POP PUSH1 0x20 MUL ADD PUSH1 0x20 DUP2 ADD SWAP1 PUSH2 0x1008 SWAP2 SWAP1 PUSH2 0x23EF JUMP JUMPDEST PUSH1 0xFF AND PUSH1 0xFF AND DUP2 MSTORE PUSH1 0x20 ADD SWAP1 DUP2 MSTORE PUSH1 0x20 ADD PUSH1 0x0 KECCAK256 PUSH1 0x2 ADD SLOAD DUP10 DUP10 DUP6 DUP2 DUP2 LT PUSH2 0x1033 JUMPI PUSH2 0x1032 PUSH2 0x276A JUMP JUMPDEST JUMPDEST SWAP1 POP PUSH1 0x20 MUL ADD CALLDATALOAD GT ISZERO PUSH2 0x107B JUMPI PUSH1 0x40 MLOAD PUSH32 0x8C379A000000000000000000000000000000000000000000000000000000000 DUP2 MSTORE PUSH1 0x4 ADD PUSH2 0x1072 SWAP1 PUSH2 0x2D98 JUMP JUMPDEST PUSH1 0x40 MLOAD DUP1 SWAP2 SUB SWAP1 REVERT JUMPDEST DUP1 DUP6 PUSH2 0x1087 SWAP2 SWAP1 PUSH2 0x2A6E JUMP JUMPDEST SWAP5 POP DUP1 PUSH1 0x6 PUSH1 0x0 CALLER PUSH20 0xFFFFFFFFFFFFFFFFFFFFFFFFFFFFFFFFFFFFFFFF AND PUSH20 0xFFFFFFFFFFFFFFFFFFFFFFFFFFFFFFFFFFFFFFFF AND DUP2 MSTORE PUSH1 0x20 ADD SWAP1 DUP2 MSTORE PUSH1 0x20 ADD PUSH1 0x0 KECCAK256 PUSH1 0x0 DUP14 DUP14 DUP8 DUP2 DUP2 LT PUSH2 0x10DE JUMPI PUSH2 0x10DD PUSH2 0x276A JUMP JUMPDEST JUMPDEST SWAP1 POP PUSH1 0x20 MUL ADD PUSH1 0x20 DUP2 ADD SWAP1 PUSH2 0x10F3 SWAP2 SWAP1 PUSH2 0x23EF JUMP JUMPDEST PUSH1 0xFF AND PUSH1 0xFF AND DUP2 MSTORE PUSH1 0x20 ADD SWAP1 DUP2 MSTORE PUSH1 0x20 ADD PUSH1 0x0 KECCAK256 PUSH1 0x0 DUP3 DUP3 SLOAD PUSH2 0x1116 SWAP2 SWAP1 PUSH2 0x2A6E JUMP JUMPDEST SWAP3 POP POP DUP2 SWAP1 SSTORE POP DUP1 DUP5 DUP5 DUP2 MLOAD DUP2 LT PUSH2 0x1131 JUMPI PUSH2 0x1130 PUSH2 0x276A JUMP JUMPDEST JUMPDEST PUSH1 0x20 MUL PUSH1 0x20 ADD ADD DUP2 DUP2 MSTORE POP POP POP POP DUP1 DUP1 PUSH2 0x114A SWAP1 PUSH2 0x283A JUMP JUMPDEST SWAP2 POP POP PUSH2 0xE59 JUMP JUMPDEST POP PUSH2 0x119E CALLER DUP4 PUSH32 0x0 PUSH20 0xFFFFFFFFFFFFFFFFFFFFFFFFFFFFFFFFFFFFFFFF AND PUSH2 0x19FF SWAP1 SWAP3 SWAP2 SWAP1 PUSH4 0xFFFFFFFF AND JUMP JUMPDEST PUSH32 0x1BB61A7C0E8FE6922242F2A1FB97851DD40EBFA837AB768260708C3CBC1F8601 CALLER PUSH1 0x3 SLOAD DUP5 DUP12 DUP12 DUP7 PUSH1 0x40 MLOAD PUSH2 0x11D9 SWAP7 SWAP6 SWAP5 SWAP4 SWAP3 SWAP2 SWAP1 PUSH2 0x2E7B JUMP JUMPDEST PUSH1 0x40 MLOAD DUP1 SWAP2 SUB SWAP1 LOG1 POP POP PUSH1 0x1 DUP1 DUP2 SWAP1 SSTORE POP POP POP POP POP POP POP JUMP JUMPDEST PUSH8 0xDE0B6B3A7640000 DUP2 JUMP JUMPDEST PUSH2 0x1206 PUSH2 0x188F JUMP JUMPDEST PUSH20 0xFFFFFFFFFFFFFFFFFFFFFFFFFFFFFFFFFFFFFFFF AND PUSH2 0x1224 PUSH2 0xBD0 JUMP JUMPDEST PUSH20 0xFFFFFFFFFFFFFFFFFFFFFFFFFFFFFFFFFFFFFFFF AND EQ PUSH2 0x127A JUMPI PUSH1 0x40 MLOAD PUSH32 0x8C379A000000000000000000000000000000000000000000000000000000000 DUP2 MSTORE PUSH1 0x4 ADD PUSH2 0x1271 SWAP1 PUSH2 0x28E0 JUMP JUMPDEST PUSH1 0x40 MLOAD DUP1 SWAP2 SUB SWAP1 REVERT JUMPDEST PUSH1 0x0 DUP9 DUP9 SWAP1 POP GT DUP1 ISZERO PUSH2 0x1292 JUMPI POP DUP6 DUP6 SWAP1 POP DUP9 DUP9 SWAP1 POP EQ JUMPDEST DUP1 ISZERO PUSH2 0x12A3 JUMPI POP DUP4 DUP4 SWAP1 POP DUP9 DUP9 SWAP1 POP EQ JUMPDEST DUP1 ISZERO PUSH2 0x12B4 JUMPI POP DUP2 DUP2 SWAP1 POP DUP9 DUP9 SWAP1 POP EQ JUMPDEST PUSH2 0x12F3 JUMPI PUSH1 0x40 MLOAD PUSH32 0x8C379A000000000000000000000000000000000000000000000000000000000 DUP2 MSTORE PUSH1 0x4 ADD PUSH2 0x12EA SWAP1 PUSH2 0x2F2A JUMP JUMPDEST PUSH1 0x40 MLOAD DUP1 SWAP2 SUB SWAP1 REVERT JUMPDEST PUSH1 0x0 JUMPDEST DUP7 DUP7 SWAP1 POP DUP2 LT ISZERO PUSH2 0x161B JUMPI PUSH1 0x2 PUSH1 0x14 SWAP1 SLOAD SWAP1 PUSH2 0x100 EXP SWAP1 DIV PUSH1 0xFF AND PUSH1 0xFF AND DUP10 DUP10 DUP4 DUP2 DUP2 LT PUSH2 0x1327 JUMPI PUSH2 0x1326 PUSH2 0x276A JUMP JUMPDEST JUMPDEST SWAP1 POP PUSH1 0x20 MUL ADD PUSH1 0x20 DUP2 ADD SWAP1 PUSH2 0x133C SWAP2 SWAP1 PUSH2 0x23EF JUMP JUMPDEST PUSH1 0xFF AND LT PUSH2 0x137F JUMPI PUSH1 0x40 MLOAD PUSH32 0x8C379A000000000000000000000000000000000000000000000000000000000 DUP2 MSTORE PUSH1 0x4 ADD PUSH2 0x1376 SWAP1 PUSH2 0x2F96 JUMP JUMPDEST PUSH1 0x40 MLOAD DUP1 SWAP2 SUB SWAP1 REVERT JUMPDEST PUSH1 0x8 PUSH1 0x0 DUP9 DUP9 DUP5 DUP2 DUP2 LT PUSH2 0x1396 JUMPI PUSH2 0x1395 PUSH2 0x276A JUMP JUMPDEST JUMPDEST SWAP1 POP PUSH1 0x20 MUL ADD CALLDATALOAD DUP2 MSTORE PUSH1 0x20 ADD SWAP1 DUP2 MSTORE PUSH1 0x20 ADD PUSH1 0x0 KECCAK256 PUSH1 0x0 SWAP1 SLOAD SWAP1 PUSH2 0x100 EXP SWAP1 DIV PUSH1 0xFF AND ISZERO PUSH2 0x13F9 JUMPI PUSH1 0x40 MLOAD PUSH32 0x8C379A000000000000000000000000000000000000000000000000000000000 DUP2 MSTORE PUSH1 0x4 ADD PUSH2 0x13F0 SWAP1 PUSH2 0x3002 JUMP JUMPDEST PUSH1 0x40 MLOAD DUP1 SWAP2 SUB SWAP1 REVERT JUMPDEST DUP7 DUP7 DUP3 DUP2 DUP2 LT PUSH2 0x140C JUMPI PUSH2 0x140B PUSH2 0x276A JUMP JUMPDEST JUMPDEST SWAP1 POP PUSH1 0x20 MUL ADD CALLDATALOAD PUSH1 0x5 PUSH1 0x0 DUP12 DUP12 DUP6 DUP2 DUP2 LT PUSH2 0x142A JUMPI PUSH2 0x1429 PUSH2 0x276A JUMP JUMPDEST JUMPDEST SWAP1 POP PUSH1 0x20 MUL ADD PUSH1 0x20 DUP2 ADD SWAP1 PUSH2 0x143F SWAP2 SWAP1 PUSH2 0x23EF JUMP JUMPDEST PUSH1 0xFF AND PUSH1 0xFF AND DUP2 MSTORE PUSH1 0x20 ADD SWAP1 DUP2 MSTORE PUSH1 0x20 ADD PUSH1 0x0 KECCAK256 PUSH1 0x1 ADD DUP2 SWAP1 SSTORE POP DUP5 DUP5 DUP3 DUP2 DUP2 LT PUSH2 0x146D JUMPI PUSH2 0x146C PUSH2 0x276A JUMP JUMPDEST JUMPDEST SWAP1 POP PUSH1 0x20 MUL ADD CALLDATALOAD PUSH1 0x5 PUSH1 0x0 DUP12 DUP12 DUP6 DUP2 DUP2 LT PUSH2 0x148B JUMPI PUSH2 0x148A PUSH2 0x276A JUMP JUMPDEST JUMPDEST SWAP1 POP PUSH1 0x20 MUL ADD PUSH1 0x20 DUP2 ADD SWAP1 PUSH2 0x14A0 SWAP2 SWAP1 PUSH2 0x23EF JUMP JUMPDEST PUSH1 0xFF AND PUSH1 0xFF AND DUP2 MSTORE PUSH1 0x20 ADD SWAP1 DUP2 MSTORE PUSH1 0x20 ADD PUSH1 0x0 KECCAK256 PUSH1 0x2 ADD DUP2 SWAP1 SSTORE POP PUSH1 0x1 PUSH1 0x8 PUSH1 0x0 DUP10 DUP10 DUP6 DUP2 DUP2 LT PUSH2 0x14D4 JUMPI PUSH2 0x14D3 PUSH2 0x276A JUMP JUMPDEST JUMPDEST SWAP1 POP PUSH1 0x20 MUL ADD CALLDATALOAD DUP2 MSTORE PUSH1 0x20 ADD SWAP1 DUP2 MSTORE PUSH1 0x20 ADD PUSH1 0x0 KECCAK256 PUSH1 0x0 PUSH2 0x100 EXP DUP2 SLOAD DUP2 PUSH1 0xFF MUL NOT AND SWAP1 DUP4 ISZERO ISZERO MUL OR SWAP1 SSTORE POP PUSH1 0x0 PUSH2 0x15C4 PUSH1 0x5 PUSH1 0x0 DUP13 DUP13 DUP7 DUP2 DUP2 LT PUSH2 0x151C JUMPI PUSH2 0x151B PUSH2 0x276A JUMP JUMPDEST JUMPDEST SWAP1 POP PUSH1 0x20 MUL ADD PUSH1 0x20 DUP2 ADD SWAP1 PUSH2 0x1531 SWAP2 SWAP1 PUSH2 0x23EF JUMP JUMPDEST PUSH1 0xFF AND PUSH1 0xFF AND DUP2 MSTORE PUSH1 0x20 ADD SWAP1 DUP2 MSTORE PUSH1 0x20 ADD PUSH1 0x0 KECCAK256 PUSH1 0x0 ADD PUSH1 0x0 SWAP1 SLOAD SWAP1 PUSH2 0x100 EXP SWAP1 DIV PUSH20 0xFFFFFFFFFFFFFFFFFFFFFFFFFFFFFFFFFFFFFFFF AND DUP12 DUP12 DUP6 DUP2 DUP2 LT PUSH2 0x157C JUMPI PUSH2 0x157B PUSH2 0x276A JUMP JUMPDEST JUMPDEST SWAP1 POP PUSH1 0x20 MUL ADD PUSH1 0x20 DUP2 ADD SWAP1 PUSH2 0x1591 SWAP2 SWAP1 PUSH2 0x23EF JUMP JUMPDEST PUSH8 0xDE0B6B3A7640000 DUP8 DUP8 DUP8 DUP2 DUP2 LT PUSH2 0x15AD JUMPI PUSH2 0x15AC PUSH2 0x276A JUMP JUMPDEST JUMPDEST SWAP1 POP PUSH1 0x20 MUL DUP2 ADD SWAP1 PUSH2 0x15BF SWAP2 SWAP1 PUSH2 0x27A8 JUMP JUMPDEST PUSH2 0x1765 JUMP JUMPDEST POP SWAP1 POP DUP1 PUSH2 0x1607 JUMPI PUSH1 0x40 MLOAD PUSH32 0x8C379A000000000000000000000000000000000000000000000000000000000 DUP2 MSTORE PUSH1 0x4 ADD PUSH2 0x15FE SWAP1 PUSH2 0x306E JUMP JUMPDEST PUSH1 0x40 MLOAD DUP1 SWAP2 SUB SWAP1 REVERT JUMPDEST POP DUP1 DUP1 PUSH2 0x1613 SWAP1 PUSH2 0x283A JUMP JUMPDEST SWAP2 POP POP PUSH2 0x12F6 JUMP JUMPDEST POP PUSH1 0x3 PUSH1 0x0 DUP2 SLOAD PUSH2 0x162B SWAP1 PUSH2 0x283A JUMP JUMPDEST SWAP2 SWAP1 POP DUP2 SWAP1 SSTORE PUSH32 0xB1D6B49E69D133866D064A73F0181E1E35AA94FDE3EF0095587D7EBD0423CAA PUSH1 0x40 MLOAD PUSH1 0x40 MLOAD DUP1 SWAP2 SUB SWAP1 LOG2 POP POP POP POP POP POP POP POP JUMP JUMPDEST PUSH2 0x166F PUSH2 0x188F JUMP JUMPDEST PUSH20 0xFFFFFFFFFFFFFFFFFFFFFFFFFFFFFFFFFFFFFFFF AND PUSH2 0x168D PUSH2 0xBD0 JUMP JUMPDEST PUSH20 0xFFFFFFFFFFFFFFFFFFFFFFFFFFFFFFFFFFFFFFFF AND EQ PUSH2 0x16E3 JUMPI PUSH1 0x40 MLOAD PUSH32 0x8C379A000000000000000000000000000000000000000000000000000000000 DUP2 MSTORE PUSH1 0x4 ADD PUSH2 0x16DA SWAP1 PUSH2 0x28E0 JUMP JUMPDEST PUSH1 0x40 MLOAD DUP1 SWAP2 SUB SWAP1 REVERT JUMPDEST PUSH1 0x0 PUSH20 0xFFFFFFFFFFFFFFFFFFFFFFFFFFFFFFFFFFFFFFFF AND DUP2 PUSH20 0xFFFFFFFFFFFFFFFFFFFFFFFFFFFFFFFFFFFFFFFF AND EQ ISZERO PUSH2 0x1753 JUMPI PUSH1 0x40 MLOAD PUSH32 0x8C379A000000000000000000000000000000000000000000000000000000000 DUP2 MSTORE PUSH1 0x4 ADD PUSH2 0x174A SWAP1 PUSH2 0x3100 JUMP JUMPDEST PUSH1 0x40 MLOAD DUP1 SWAP2 SUB SWAP1 REVERT JUMPDEST PUSH2 0x175C DUP2 PUSH2 0x1939 JUMP JUMPDEST POP JUMP JUMPDEST PUSH1 0x4 SLOAD DUP2 JUMP JUMPDEST PUSH1 0x0 DUP1 PUSH1 0x0 DUP8 DUP7 PUSH1 0x40 MLOAD PUSH1 0x20 ADD PUSH2 0x177D SWAP3 SWAP2 SWAP1 PUSH2 0x3189 JUMP JUMPDEST PUSH1 0x40 MLOAD PUSH1 0x20 DUP2 DUP4 SUB SUB DUP2 MSTORE SWAP1 PUSH1 0x40 MSTORE DUP1 MLOAD SWAP1 PUSH1 0x20 ADD KECCAK256 SWAP1 POP PUSH1 0x0 PUSH2 0x17FF DUP7 DUP7 DUP1 DUP1 PUSH1 0x20 MUL PUSH1 0x20 ADD PUSH1 0x40 MLOAD SWAP1 DUP2 ADD PUSH1 0x40 MSTORE DUP1 SWAP4 SWAP3 SWAP2 SWAP1 DUP2 DUP2 MSTORE PUSH1 0x20 ADD DUP4 DUP4 PUSH1 0x20 MUL DUP1 DUP3 DUP5 CALLDATACOPY PUSH1 0x0 DUP2 DUP5 ADD MSTORE PUSH1 0x1F NOT PUSH1 0x1F DUP3 ADD AND SWAP1 POP DUP1 DUP4 ADD SWAP3 POP POP POP POP POP POP POP PUSH1 0x5 PUSH1 0x0 DUP12 PUSH1 0xFF AND PUSH1 0xFF AND DUP2 MSTORE PUSH1 0x20 ADD SWAP1 DUP2 MSTORE PUSH1 0x20 ADD PUSH1 0x0 KECCAK256 PUSH1 0x1 ADD SLOAD DUP5 PUSH2 0x1B26 JUMP JUMPDEST SWAP1 POP DUP1 PUSH2 0x1814 JUMPI PUSH1 0x0 DUP1 SWAP4 POP SWAP4 POP POP POP PUSH2 0x1885 JUMP JUMPDEST PUSH1 0x0 PUSH1 0x6 PUSH1 0x0 DUP12 PUSH20 0xFFFFFFFFFFFFFFFFFFFFFFFFFFFFFFFFFFFFFFFF AND PUSH20 0xFFFFFFFFFFFFFFFFFFFFFFFFFFFFFFFFFFFFFFFF AND DUP2 MSTORE PUSH1 0x20 ADD SWAP1 DUP2 MSTORE PUSH1 0x20 ADD PUSH1 0x0 KECCAK256 PUSH1 0x0 DUP11 PUSH1 0xFF AND PUSH1 0xFF AND DUP2 MSTORE PUSH1 0x20 ADD SWAP1 DUP2 MSTORE PUSH1 0x20 ADD PUSH1 0x0 KECCAK256 SLOAD DUP9 PUSH2 0x1878 SWAP2 SWAP1 PUSH2 0x31B5 JUMP JUMPDEST SWAP1 POP PUSH1 0x1 DUP2 SWAP5 POP SWAP5 POP POP POP POP JUMPDEST SWAP6 POP SWAP6 SWAP4 POP POP POP POP JUMP JUMPDEST PUSH1 0x0 CALLER SWAP1 POP SWAP1 JUMP JUMPDEST PUSH2 0x189F PUSH2 0x94E JUMP JUMPDEST ISZERO PUSH2 0x18DF JUMPI PUSH1 0x40 MLOAD PUSH32 0x8C379A000000000000000000000000000000000000000000000000000000000 DUP2 MSTORE PUSH1 0x4 ADD PUSH2 0x18D6 SWAP1 PUSH2 0x294C JUMP JUMPDEST PUSH1 0x40 MLOAD DUP1 SWAP2 SUB SWAP1 REVERT JUMPDEST PUSH1 0x1 PUSH1 0x0 DUP1 PUSH2 0x100 EXP DUP2 SLOAD DUP2 PUSH1 0xFF MUL NOT AND SWAP1 DUP4 ISZERO ISZERO MUL OR SWAP1 SSTORE POP PUSH32 0x62E78CEA01BEE320CD4E420270B5EA74000D11B0C9F74754EBDBFC544B05A258 PUSH2 0x1922 PUSH2 0x188F JUMP JUMPDEST PUSH1 0x40 MLOAD PUSH2 0x192F SWAP2 SWAP1 PUSH2 0x24D4 JUMP JUMPDEST PUSH1 0x40 MLOAD DUP1 SWAP2 SUB SWAP1 LOG1 JUMP JUMPDEST PUSH1 0x0 PUSH1 0x2 PUSH1 0x0 SWAP1 SLOAD SWAP1 PUSH2 0x100 EXP SWAP1 DIV PUSH20 0xFFFFFFFFFFFFFFFFFFFFFFFFFFFFFFFFFFFFFFFF AND SWAP1 POP DUP2 PUSH1 0x2 PUSH1 0x0 PUSH2 0x100 EXP DUP2 SLOAD DUP2 PUSH20 0xFFFFFFFFFFFFFFFFFFFFFFFFFFFFFFFFFFFFFFFF MUL NOT AND SWAP1 DUP4 PUSH20 0xFFFFFFFFFFFFFFFFFFFFFFFFFFFFFFFFFFFFFFFF AND MUL OR SWAP1 SSTORE POP DUP2 PUSH20 0xFFFFFFFFFFFFFFFFFFFFFFFFFFFFFFFFFFFFFFFF AND DUP2 PUSH20 0xFFFFFFFFFFFFFFFFFFFFFFFFFFFFFFFFFFFFFFFF AND PUSH32 0x8BE0079C531659141344CD1FD0A4F28419497F9722A3DAAFE3B4186F6B6457E0 PUSH1 0x40 MLOAD PUSH1 0x40 MLOAD DUP1 SWAP2 SUB SWAP1 LOG3 POP POP JUMP JUMPDEST PUSH2 0x1A80 DUP4 PUSH4 0xA9059CBB PUSH1 0xE0 SHL DUP5 DUP5 PUSH1 0x40 MLOAD PUSH1 0x24 ADD PUSH2 0x1A1E SWAP3 SWAP2 SWAP1 PUSH2 0x31E9 JUMP JUMPDEST PUSH1 0x40 MLOAD PUSH1 0x20 DUP2 DUP4 SUB SUB DUP2 MSTORE SWAP1 PUSH1 0x40 MSTORE SWAP1 PUSH28 0xFFFFFFFFFFFFFFFFFFFFFFFFFFFFFFFFFFFFFFFFFFFFFFFFFFFFFFFF NOT AND PUSH1 0x20 DUP3 ADD DUP1 MLOAD PUSH28 0xFFFFFFFFFFFFFFFFFFFFFFFFFFFFFFFFFFFFFFFFFFFFFFFFFFFFFFFF DUP4 DUP2 DUP4 AND OR DUP4 MSTORE POP POP POP POP PUSH2 0x1B3D JUMP JUMPDEST POP POP POP JUMP JUMPDEST PUSH2 0x1A8D PUSH2 0x94E JUMP JUMPDEST PUSH2 0x1ACC JUMPI PUSH1 0x40 MLOAD PUSH32 0x8C379A000000000000000000000000000000000000000000000000000000000 DUP2 MSTORE PUSH1 0x4 ADD PUSH2 0x1AC3 SWAP1 PUSH2 0x2A4E JUMP JUMPDEST PUSH1 0x40 MLOAD DUP1 SWAP2 SUB SWAP1 REVERT JUMPDEST PUSH1 0x0 DUP1 PUSH1 0x0 PUSH2 0x100 EXP DUP2 SLOAD DUP2 PUSH1 0xFF MUL NOT AND SWAP1 DUP4 ISZERO ISZERO MUL OR SWAP1 SSTORE POP PUSH32 0x5DB9EE0A495BF2E6FF9C91A7834C1BA4FDD244A5E8AA4E537BD38AEAE4B073AA PUSH2 0x1B0F PUSH2 0x188F JUMP JUMPDEST PUSH1 0x40 MLOAD PUSH2 0x1B1C SWAP2 SWAP1 PUSH2 0x24D4 JUMP JUMPDEST PUSH1 0x40 MLOAD DUP1 SWAP2 SUB SWAP1 LOG1 JUMP JUMPDEST PUSH1 0x0 DUP3 PUSH2 0x1B33 DUP6 DUP5 PUSH2 0x1C04 JUMP JUMPDEST EQ SWAP1 POP SWAP4 SWAP3 POP POP POP JUMP JUMPDEST PUSH1 0x0 PUSH2 0x1B9F DUP3 PUSH1 0x40 MLOAD DUP1 PUSH1 0x40 ADD PUSH1 0x40 MSTORE DUP1 PUSH1 0x20 DUP2 MSTORE PUSH1 0x20 ADD PUSH32 0x5361666545524332303A206C6F772D6C6576656C2063616C6C206661696C6564 DUP2 MSTORE POP DUP6 PUSH20 0xFFFFFFFFFFFFFFFFFFFFFFFFFFFFFFFFFFFFFFFF AND PUSH2 0x1C79 SWAP1 SWAP3 SWAP2 SWAP1 PUSH4 0xFFFFFFFF AND JUMP JUMPDEST SWAP1 POP PUSH1 0x0 DUP2 MLOAD GT ISZERO PUSH2 0x1BFF JUMPI DUP1 DUP1 PUSH1 0x20 ADD SWAP1 MLOAD DUP2 ADD SWAP1 PUSH2 0x1BBF SWAP2 SWAP1 PUSH2 0x323E JUMP JUMPDEST PUSH2 0x1BFE JUMPI PUSH1 0x40 MLOAD PUSH32 0x8C379A000000000000000000000000000000000000000000000000000000000 DUP2 MSTORE PUSH1 0x4 ADD PUSH2 0x1BF5 SWAP1 PUSH2 0x32DD JUMP JUMPDEST PUSH1 0x40 MLOAD DUP1 SWAP2 SUB SWAP1 REVERT JUMPDEST JUMPDEST POP POP POP JUMP JUMPDEST PUSH1 0x0 DUP1 DUP3 SWAP1 POP PUSH1 0x0 JUMPDEST DUP5 MLOAD DUP2 LT ISZERO PUSH2 0x1C6E JUMPI PUSH1 0x0 DUP6 DUP3 DUP2 MLOAD DUP2 LT PUSH2 0x1C2B JUMPI PUSH2 0x1C2A PUSH2 0x276A JUMP JUMPDEST JUMPDEST PUSH1 0x20 MUL PUSH1 0x20 ADD ADD MLOAD SWAP1 POP DUP1 DUP4 GT PUSH2 0x1C4D JUMPI PUSH2 0x1C46 DUP4 DUP3 PUSH2 0x1C91 JUMP JUMPDEST SWAP3 POP PUSH2 0x1C5A JUMP JUMPDEST PUSH2 0x1C57 DUP2 DUP5 PUSH2 0x1C91 JUMP JUMPDEST SWAP3 POP JUMPDEST POP DUP1 DUP1 PUSH2 0x1C66 SWAP1 PUSH2 0x283A JUMP JUMPDEST SWAP2 POP POP PUSH2 0x1C0D JUMP JUMPDEST POP DUP1 SWAP2 POP POP SWAP3 SWAP2 POP POP JUMP JUMPDEST PUSH1 0x60 PUSH2 0x1C88 DUP5 DUP5 PUSH1 0x0 DUP6 PUSH2 0x1CA8 JUMP JUMPDEST SWAP1 POP SWAP4 SWAP3 POP POP POP JUMP JUMPDEST PUSH1 0x0 DUP3 PUSH1 0x0 MSTORE DUP2 PUSH1 0x20 MSTORE PUSH1 0x40 PUSH1 0x0 KECCAK256 SWAP1 POP SWAP3 SWAP2 POP POP JUMP JUMPDEST PUSH1 0x60 DUP3 SELFBALANCE LT ISZERO PUSH2 0x1CED JUMPI PUSH1 0x40 MLOAD PUSH32 0x8C379A000000000000000000000000000000000000000000000000000000000 DUP2 MSTORE PUSH1 0x4 ADD PUSH2 0x1CE4 SWAP1 PUSH2 0x336F JUMP JUMPDEST PUSH1 0x40 MLOAD DUP1 SWAP2 SUB SWAP1 REVERT JUMPDEST PUSH2 0x1CF6 DUP6 PUSH2 0x1DBC JUMP JUMPDEST PUSH2 0x1D35 JUMPI PUSH1 0x40 MLOAD PUSH32 0x8C379A000000000000000000000000000000000000000000000000000000000 DUP2 MSTORE PUSH1 0x4 ADD PUSH2 0x1D2C SWAP1 PUSH2 0x33DB JUMP JUMPDEST PUSH1 0x40 MLOAD DUP1 SWAP2 SUB SWAP1 REVERT JUMPDEST PUSH1 0x0 DUP1 DUP7 PUSH20 0xFFFFFFFFFFFFFFFFFFFFFFFFFFFFFFFFFFFFFFFF AND DUP6 DUP8 PUSH1 0x40 MLOAD PUSH2 0x1D5E SWAP2 SWAP1 PUSH2 0x3475 JUMP JUMPDEST PUSH1 0x0 PUSH1 0x40 MLOAD DUP1 DUP4 SUB DUP2 DUP6 DUP8 GAS CALL SWAP3 POP POP POP RETURNDATASIZE DUP1 PUSH1 0x0 DUP2 EQ PUSH2 0x1D9B JUMPI PUSH1 0x40 MLOAD SWAP2 POP PUSH1 0x1F NOT PUSH1 0x3F RETURNDATASIZE ADD AND DUP3 ADD PUSH1 0x40 MSTORE RETURNDATASIZE DUP3 MSTORE RETURNDATASIZE PUSH1 0x0 PUSH1 0x20 DUP5 ADD RETURNDATACOPY PUSH2 0x1DA0 JUMP JUMPDEST PUSH1 0x60 SWAP2 POP JUMPDEST POP SWAP2 POP SWAP2 POP PUSH2 0x1DB0 DUP3 DUP3 DUP7 PUSH2 0x1DDF JUMP JUMPDEST SWAP3 POP POP POP SWAP5 SWAP4 POP POP POP POP JUMP JUMPDEST PUSH1 0x0 DUP1 DUP3 PUSH20 0xFFFFFFFFFFFFFFFFFFFFFFFFFFFFFFFFFFFFFFFF AND EXTCODESIZE GT SWAP1 POP SWAP2 SWAP1 POP JUMP JUMPDEST PUSH1 0x60 DUP4 ISZERO PUSH2 0x1DEF JUMPI DUP3 SWAP1 POP PUSH2 0x1E3F JUMP JUMPDEST PUSH1 0x0 DUP4 MLOAD GT ISZERO PUSH2 0x1E02 JUMPI DUP3 MLOAD DUP1 DUP5 PUSH1 0x20 ADD REVERT JUMPDEST DUP2 PUSH1 0x40 MLOAD PUSH32 0x8C379A000000000000000000000000000000000000000000000000000000000 DUP2 MSTORE PUSH1 0x4 ADD PUSH2 0x1E36 SWAP2 SWAP1 PUSH2 0x34E1 JUMP JUMPDEST PUSH1 0x40 MLOAD DUP1 SWAP2 SUB SWAP1 REVERT JUMPDEST SWAP4 SWAP3 POP POP POP JUMP JUMPDEST PUSH1 0x0 DUP1 REVERT JUMPDEST PUSH1 0x0 DUP1 REVERT JUMPDEST PUSH1 0x0 PUSH20 0xFFFFFFFFFFFFFFFFFFFFFFFFFFFFFFFFFFFFFFFF DUP3 AND SWAP1 POP SWAP2 SWAP1 POP JUMP JUMPDEST PUSH1 0x0 PUSH2 0x1E7B DUP3 PUSH2 0x1E50 JUMP JUMPDEST SWAP1 POP SWAP2 SWAP1 POP JUMP JUMPDEST PUSH2 0x1E8B DUP2 PUSH2 0x1E70 JUMP JUMPDEST DUP2 EQ PUSH2 0x1E96 JUMPI PUSH1 0x0 DUP1 REVERT JUMPDEST POP JUMP JUMPDEST PUSH1 0x0 DUP2 CALLDATALOAD SWAP1 POP PUSH2 0x1EA8 DUP2 PUSH2 0x1E82 JUMP JUMPDEST SWAP3 SWAP2 POP POP JUMP JUMPDEST PUSH1 0x0 PUSH1 0xFF DUP3 AND SWAP1 POP SWAP2 SWAP1 POP JUMP JUMPDEST PUSH2 0x1EC4 DUP2 PUSH2 0x1EAE JUMP JUMPDEST DUP2 EQ PUSH2 0x1ECF JUMPI PUSH1 0x0 DUP1 REVERT JUMPDEST POP JUMP JUMPDEST PUSH1 0x0 DUP2 CALLDATALOAD SWAP1 POP PUSH2 0x1EE1 DUP2 PUSH2 0x1EBB JUMP JUMPDEST SWAP3 SWAP2 POP POP JUMP JUMPDEST PUSH1 0x0 DUP1 PUSH1 0x40 DUP4 DUP6 SUB SLT ISZERO PUSH2 0x1EFE JUMPI PUSH2 0x1EFD PUSH2 0x1E46 JUMP JUMPDEST JUMPDEST PUSH1 0x0 PUSH2 0x1F0C DUP6 DUP3 DUP7 ADD PUSH2 0x1E99 JUMP JUMPDEST SWAP3 POP POP PUSH1 0x20 PUSH2 0x1F1D DUP6 DUP3 DUP7 ADD PUSH2 0x1ED2 JUMP JUMPDEST SWAP2 POP POP SWAP3 POP SWAP3 SWAP1 POP JUMP JUMPDEST PUSH1 0x0 DUP2 SWAP1 POP SWAP2 SWAP1 POP JUMP JUMPDEST PUSH2 0x1F3A DUP2 PUSH2 0x1F27 JUMP JUMPDEST DUP3 MSTORE POP POP JUMP JUMPDEST PUSH1 0x0 PUSH1 0x20 DUP3 ADD SWAP1 POP PUSH2 0x1F55 PUSH1 0x0 DUP4 ADD DUP5 PUSH2 0x1F31 JUMP JUMPDEST SWAP3 SWAP2 POP POP JUMP JUMPDEST PUSH1 0x0 DUP1 REVERT JUMPDEST PUSH1 0x0 DUP1 REVERT JUMPDEST PUSH1 0x0 DUP1 REVERT JUMPDEST PUSH1 0x0 DUP1 DUP4 PUSH1 0x1F DUP5 ADD SLT PUSH2 0x1F80 JUMPI PUSH2 0x1F7F PUSH2 0x1F5B JUMP JUMPDEST JUMPDEST DUP3 CALLDATALOAD SWAP1 POP PUSH8 0xFFFFFFFFFFFFFFFF DUP2 GT ISZERO PUSH2 0x1F9D JUMPI PUSH2 0x1F9C PUSH2 0x1F60 JUMP JUMPDEST JUMPDEST PUSH1 0x20 DUP4 ADD SWAP2 POP DUP4 PUSH1 0x20 DUP3 MUL DUP4 ADD GT ISZERO PUSH2 0x1FB9 JUMPI PUSH2 0x1FB8 PUSH2 0x1F65 JUMP JUMPDEST JUMPDEST SWAP3 POP SWAP3 SWAP1 POP JUMP JUMPDEST PUSH1 0x0 DUP1 DUP4 PUSH1 0x1F DUP5 ADD SLT PUSH2 0x1FD6 JUMPI PUSH2 0x1FD5 PUSH2 0x1F5B JUMP JUMPDEST JUMPDEST DUP3 CALLDATALOAD SWAP1 POP PUSH8 0xFFFFFFFFFFFFFFFF DUP2 GT ISZERO PUSH2 0x1FF3 JUMPI PUSH2 0x1FF2 PUSH2 0x1F60 JUMP JUMPDEST JUMPDEST PUSH1 0x20 DUP4 ADD SWAP2 POP DUP4 PUSH1 0x20 DUP3 MUL DUP4 ADD GT ISZERO PUSH2 0x200F JUMPI PUSH2 0x200E PUSH2 0x1F65 JUMP JUMPDEST JUMPDEST SWAP3 POP SWAP3 SWAP1 POP JUMP JUMPDEST PUSH1 0x0 DUP1 DUP4 PUSH1 0x1F DUP5 ADD SLT PUSH2 0x202C JUMPI PUSH2 0x202B PUSH2 0x1F5B JUMP JUMPDEST JUMPDEST DUP3 CALLDATALOAD SWAP1 POP PUSH8 0xFFFFFFFFFFFFFFFF DUP2 GT ISZERO PUSH2 0x2049 JUMPI PUSH2 0x2048 PUSH2 0x1F60 JUMP JUMPDEST JUMPDEST PUSH1 0x20 DUP4 ADD SWAP2 POP DUP4 PUSH1 0x20 DUP3 MUL DUP4 ADD GT ISZERO PUSH2 0x2065 JUMPI PUSH2 0x2064 PUSH2 0x1F65 JUMP JUMPDEST JUMPDEST SWAP3 POP SWAP3 SWAP1 POP JUMP JUMPDEST PUSH1 0x0 DUP1 PUSH1 0x0 DUP1 PUSH1 0x0 DUP1 PUSH1 0x0 PUSH1 0x80 DUP9 DUP11 SUB SLT ISZERO PUSH2 0x208B JUMPI PUSH2 0x208A PUSH2 0x1E46 JUMP JUMPDEST JUMPDEST PUSH1 0x0 PUSH2 0x2099 DUP11 DUP3 DUP12 ADD PUSH2 0x1E99 JUMP JUMPDEST SWAP8 POP POP PUSH1 0x20 DUP9 ADD CALLDATALOAD PUSH8 0xFFFFFFFFFFFFFFFF DUP2 GT ISZERO PUSH2 0x20BA JUMPI PUSH2 0x20B9 PUSH2 0x1E4B JUMP JUMPDEST JUMPDEST PUSH2 0x20C6 DUP11 DUP3 DUP12 ADD PUSH2 0x1F6A JUMP JUMPDEST SWAP7 POP SWAP7 POP POP PUSH1 0x40 DUP9 ADD CALLDATALOAD PUSH8 0xFFFFFFFFFFFFFFFF DUP2 GT ISZERO PUSH2 0x20E9 JUMPI PUSH2 0x20E8 PUSH2 0x1E4B JUMP JUMPDEST JUMPDEST PUSH2 0x20F5 DUP11 DUP3 DUP12 ADD PUSH2 0x1FC0 JUMP JUMPDEST SWAP5 POP SWAP5 POP POP PUSH1 0x60 DUP9 ADD CALLDATALOAD PUSH8 0xFFFFFFFFFFFFFFFF DUP2 GT ISZERO PUSH2 0x2118 JUMPI PUSH2 0x2117 PUSH2 0x1E4B JUMP JUMPDEST JUMPDEST PUSH2 0x2124 DUP11 DUP3 DUP12 ADD PUSH2 0x2016 JUMP JUMPDEST SWAP3 POP SWAP3 POP POP SWAP3 SWAP6 SWAP9 SWAP2 SWAP5 SWAP8 POP SWAP3 SWAP6 POP JUMP JUMPDEST PUSH1 0x0 DUP2 MLOAD SWAP1 POP SWAP2 SWAP1 POP JUMP JUMPDEST PUSH1 0x0 DUP3 DUP3 MSTORE PUSH1 0x20 DUP3 ADD SWAP1 POP SWAP3 SWAP2 POP POP JUMP JUMPDEST PUSH1 0x0 DUP2 SWAP1 POP PUSH1 0x20 DUP3 ADD SWAP1 POP SWAP2 SWAP1 POP JUMP JUMPDEST PUSH1 0x0 DUP2 ISZERO ISZERO SWAP1 POP SWAP2 SWAP1 POP JUMP JUMPDEST PUSH2 0x2176 DUP2 PUSH2 0x2161 JUMP JUMPDEST DUP3 MSTORE POP POP JUMP JUMPDEST PUSH1 0x0 PUSH2 0x2188 DUP4 DUP4 PUSH2 0x216D JUMP JUMPDEST PUSH1 0x20 DUP4 ADD SWAP1 POP SWAP3 SWAP2 POP POP JUMP JUMPDEST PUSH1 0x0 PUSH1 0x20 DUP3 ADD SWAP1 POP SWAP2 SWAP1 POP JUMP JUMPDEST PUSH1 0x0 PUSH2 0x21AC DUP3 PUSH2 0x2135 JUMP JUMPDEST PUSH2 0x21B6 DUP2 DUP6 PUSH2 0x2140 JUMP JUMPDEST SWAP4 POP PUSH2 0x21C1 DUP4 PUSH2 0x2151 JUMP JUMPDEST DUP1 PUSH1 0x0 JUMPDEST DUP4 DUP2 LT ISZERO PUSH2 0x21F2 JUMPI DUP2 MLOAD PUSH2 0x21D9 DUP9 DUP3 PUSH2 0x217C JUMP JUMPDEST SWAP8 POP PUSH2 0x21E4 DUP4 PUSH2 0x2194 JUMP JUMPDEST SWAP3 POP POP PUSH1 0x1 DUP2 ADD SWAP1 POP PUSH2 0x21C5 JUMP JUMPDEST POP DUP6 SWAP4 POP POP POP POP SWAP3 SWAP2 POP POP JUMP JUMPDEST PUSH1 0x0 DUP2 MLOAD SWAP1 POP SWAP2 SWAP1 POP JUMP JUMPDEST PUSH1 0x0 DUP3 DUP3 MSTORE PUSH1 0x20 DUP3 ADD SWAP1 POP SWAP3 SWAP2 POP POP JUMP JUMPDEST PUSH1 0x0 DUP2 SWAP1 POP PUSH1 0x20 DUP3 ADD SWAP1 POP SWAP2 SWAP1 POP JUMP JUMPDEST PUSH2 0x2234 DUP2 PUSH2 0x1F27 JUMP JUMPDEST DUP3 MSTORE POP POP JUMP JUMPDEST PUSH1 0x0 PUSH2 0x2246 DUP4 DUP4 PUSH2 0x222B JUMP JUMPDEST PUSH1 0x20 DUP4 ADD SWAP1 POP SWAP3 SWAP2 POP POP JUMP JUMPDEST PUSH1 0x0 PUSH1 0x20 DUP3 ADD SWAP1 POP SWAP2 SWAP1 POP JUMP JUMPDEST PUSH1 0x0 PUSH2 0x226A DUP3 PUSH2 0x21FF JUMP JUMPDEST PUSH2 0x2274 DUP2 DUP6 PUSH2 0x220A JUMP JUMPDEST SWAP4 POP PUSH2 0x227F DUP4 PUSH2 0x221B JUMP JUMPDEST DUP1 PUSH1 0x0 JUMPDEST DUP4 DUP2 LT ISZERO PUSH2 0x22B0 JUMPI DUP2 MLOAD PUSH2 0x2297 DUP9 DUP3 PUSH2 0x223A JUMP JUMPDEST SWAP8 POP PUSH2 0x22A2 DUP4 PUSH2 0x2252 JUMP JUMPDEST SWAP3 POP POP PUSH1 0x1 DUP2 ADD SWAP1 POP PUSH2 0x2283 JUMP JUMPDEST POP DUP6 SWAP4 POP POP POP POP SWAP3 SWAP2 POP POP JUMP JUMPDEST PUSH1 0x0 PUSH1 0x40 DUP3 ADD SWAP1 POP DUP2 DUP2 SUB PUSH1 0x0 DUP4 ADD MSTORE PUSH2 0x22D7 DUP2 DUP6 PUSH2 0x21A1 JUMP JUMPDEST SWAP1 POP DUP2 DUP2 SUB PUSH1 0x20 DUP4 ADD MSTORE PUSH2 0x22EB DUP2 DUP5 PUSH2 0x225F JUMP JUMPDEST SWAP1 POP SWAP4 SWAP3 POP POP POP JUMP JUMPDEST PUSH2 0x22FD DUP2 PUSH2 0x1EAE JUMP JUMPDEST DUP3 MSTORE POP POP JUMP JUMPDEST PUSH1 0x0 PUSH1 0x20 DUP3 ADD SWAP1 POP PUSH2 0x2318 PUSH1 0x0 DUP4 ADD DUP5 PUSH2 0x22F4 JUMP JUMPDEST SWAP3 SWAP2 POP POP JUMP JUMPDEST PUSH1 0x0 PUSH1 0x20 DUP3 DUP5 SUB SLT ISZERO PUSH2 0x2334 JUMPI PUSH2 0x2333 PUSH2 0x1E46 JUMP JUMPDEST JUMPDEST PUSH1 0x0 PUSH2 0x2342 DUP5 DUP3 DUP6 ADD PUSH2 0x1E99 JUMP JUMPDEST SWAP2 POP POP SWAP3 SWAP2 POP POP JUMP JUMPDEST PUSH1 0x0 DUP2 SWAP1 POP SWAP2 SWAP1 POP JUMP JUMPDEST PUSH1 0x0 PUSH2 0x2370 PUSH2 0x236B PUSH2 0x2366 DUP5 PUSH2 0x1E50 JUMP JUMPDEST PUSH2 0x234B JUMP JUMPDEST PUSH2 0x1E50 JUMP JUMPDEST SWAP1 POP SWAP2 SWAP1 POP JUMP JUMPDEST PUSH1 0x0 PUSH2 0x2382 DUP3 PUSH2 0x2355 JUMP JUMPDEST SWAP1 POP SWAP2 SWAP1 POP JUMP JUMPDEST PUSH1 0x0 PUSH2 0x2394 DUP3 PUSH2 0x2377 JUMP JUMPDEST SWAP1 POP SWAP2 SWAP1 POP JUMP JUMPDEST PUSH2 0x23A4 DUP2 PUSH2 0x2389 JUMP JUMPDEST DUP3 MSTORE POP POP JUMP JUMPDEST PUSH1 0x0 PUSH1 0x20 DUP3 ADD SWAP1 POP PUSH2 0x23BF PUSH1 0x0 DUP4 ADD DUP5 PUSH2 0x239B JUMP JUMPDEST SWAP3 SWAP2 POP POP JUMP JUMPDEST PUSH2 0x23CE DUP2 PUSH2 0x2161 JUMP JUMPDEST DUP3 MSTORE POP POP JUMP JUMPDEST PUSH1 0x0 PUSH1 0x20 DUP3 ADD SWAP1 POP PUSH2 0x23E9 PUSH1 0x0 DUP4 ADD DUP5 PUSH2 0x23C5 JUMP JUMPDEST SWAP3 SWAP2 POP POP JUMP JUMPDEST PUSH1 0x0 PUSH1 0x20 DUP3 DUP5 SUB SLT ISZERO PUSH2 0x2405 JUMPI PUSH2 0x2404 PUSH2 0x1E46 JUMP JUMPDEST JUMPDEST PUSH1 0x0 PUSH2 0x2413 DUP5 DUP3 DUP6 ADD PUSH2 0x1ED2 JUMP JUMPDEST SWAP2 POP POP SWAP3 SWAP2 POP POP JUMP JUMPDEST PUSH2 0x2425 DUP2 PUSH2 0x1E70 JUMP JUMPDEST DUP3 MSTORE POP POP JUMP JUMPDEST PUSH1 0x0 DUP2 SWAP1 POP SWAP2 SWAP1 POP JUMP JUMPDEST PUSH2 0x243E DUP2 PUSH2 0x242B JUMP JUMPDEST DUP3 MSTORE POP POP JUMP JUMPDEST PUSH1 0x0 PUSH1 0x60 DUP3 ADD SWAP1 POP PUSH2 0x2459 PUSH1 0x0 DUP4 ADD DUP7 PUSH2 0x241C JUMP JUMPDEST PUSH2 0x2466 PUSH1 0x20 DUP4 ADD DUP6 PUSH2 0x2435 JUMP JUMPDEST PUSH2 0x2473 PUSH1 0x40 DUP4 ADD DUP5 PUSH2 0x1F31 JUMP JUMPDEST SWAP5 SWAP4 POP POP POP POP JUMP JUMPDEST PUSH2 0x2484 DUP2 PUSH2 0x1F27 JUMP JUMPDEST DUP2 EQ PUSH2 0x248F JUMPI PUSH1 0x0 DUP1 REVERT JUMPDEST POP JUMP JUMPDEST PUSH1 0x0 DUP2 CALLDATALOAD SWAP1 POP PUSH2 0x24A1 DUP2 PUSH2 0x247B JUMP JUMPDEST SWAP3 SWAP2 POP POP JUMP JUMPDEST PUSH1 0x0 PUSH1 0x20 DUP3 DUP5 SUB SLT ISZERO PUSH2 0x24BD JUMPI PUSH2 0x24BC PUSH2 0x1E46 JUMP JUMPDEST JUMPDEST PUSH1 0x0 PUSH2 0x24CB DUP5 DUP3 DUP6 ADD PUSH2 0x2492 JUMP JUMPDEST SWAP2 POP POP SWAP3 SWAP2 POP POP JUMP JUMPDEST PUSH1 0x0 PUSH1 0x20 DUP3 ADD SWAP1 POP PUSH2 0x24E9 PUSH1 0x0 DUP4 ADD DUP5 PUSH2 0x241C JUMP JUMPDEST SWAP3 SWAP2 POP POP JUMP JUMPDEST PUSH2 0x24F8 DUP2 PUSH2 0x242B JUMP JUMPDEST DUP2 EQ PUSH2 0x2503 JUMPI PUSH1 0x0 DUP1 REVERT JUMPDEST POP JUMP JUMPDEST PUSH1 0x0 DUP2 CALLDATALOAD SWAP1 POP PUSH2 0x2515 DUP2 PUSH2 0x24EF JUMP JUMPDEST SWAP3 SWAP2 POP POP JUMP JUMPDEST PUSH1 0x0 PUSH1 0x20 DUP3 DUP5 SUB SLT ISZERO PUSH2 0x2531 JUMPI PUSH2 0x2530 PUSH2 0x1E46 JUMP JUMPDEST JUMPDEST PUSH1 0x0 PUSH2 0x253F DUP5 DUP3 DUP6 ADD PUSH2 0x2506 JUMP JUMPDEST SWAP2 POP POP SWAP3 SWAP2 POP POP JUMP JUMPDEST PUSH1 0x0 DUP1 PUSH1 0x0 DUP1 PUSH1 0x0 DUP1 PUSH1 0x60 DUP8 DUP10 SUB SLT ISZERO PUSH2 0x2565 JUMPI PUSH2 0x2564 PUSH2 0x1E46 JUMP JUMPDEST JUMPDEST PUSH1 0x0 DUP8 ADD CALLDATALOAD PUSH8 0xFFFFFFFFFFFFFFFF DUP2 GT ISZERO PUSH2 0x2583 JUMPI PUSH2 0x2582 PUSH2 0x1E4B JUMP JUMPDEST JUMPDEST PUSH2 0x258F DUP10 DUP3 DUP11 ADD PUSH2 0x1F6A JUMP JUMPDEST SWAP7 POP SWAP7 POP POP PUSH1 0x20 DUP8 ADD CALLDATALOAD PUSH8 0xFFFFFFFFFFFFFFFF DUP2 GT ISZERO PUSH2 0x25B2 JUMPI PUSH2 0x25B1 PUSH2 0x1E4B JUMP JUMPDEST JUMPDEST PUSH2 0x25BE DUP10 DUP3 DUP11 ADD PUSH2 0x1FC0 JUMP JUMPDEST SWAP5 POP SWAP5 POP POP PUSH1 0x40 DUP8 ADD CALLDATALOAD PUSH8 0xFFFFFFFFFFFFFFFF DUP2 GT ISZERO PUSH2 0x25E1 JUMPI PUSH2 0x25E0 PUSH2 0x1E4B JUMP JUMPDEST JUMPDEST PUSH2 0x25ED DUP10 DUP3 DUP11 ADD PUSH2 0x2016 JUMP JUMPDEST SWAP3 POP SWAP3 POP POP SWAP3 SWAP6 POP SWAP3 SWAP6 POP SWAP3 SWAP6 JUMP JUMPDEST PUSH1 0x0 DUP1 DUP4 PUSH1 0x1F DUP5 ADD SLT PUSH2 0x2612 JUMPI PUSH2 0x2611 PUSH2 0x1F5B JUMP JUMPDEST JUMPDEST DUP3 CALLDATALOAD SWAP1 POP PUSH8 0xFFFFFFFFFFFFFFFF DUP2 GT ISZERO PUSH2 0x262F JUMPI PUSH2 0x262E PUSH2 0x1F60 JUMP JUMPDEST JUMPDEST PUSH1 0x20 DUP4 ADD SWAP2 POP DUP4 PUSH1 0x20 DUP3 MUL DUP4 ADD GT ISZERO PUSH2 0x264B JUMPI PUSH2 0x264A PUSH2 0x1F65 JUMP JUMPDEST JUMPDEST SWAP3 POP SWAP3 SWAP1 POP JUMP JUMPDEST PUSH1 0x0 DUP1 PUSH1 0x0 DUP1 PUSH1 0x0 DUP1 PUSH1 0x0 DUP1 PUSH1 0x80 DUP10 DUP12 SUB SLT ISZERO PUSH2 0x2672 JUMPI PUSH2 0x2671 PUSH2 0x1E46 JUMP JUMPDEST JUMPDEST PUSH1 0x0 DUP10 ADD CALLDATALOAD PUSH8 0xFFFFFFFFFFFFFFFF DUP2 GT ISZERO PUSH2 0x2690 JUMPI PUSH2 0x268F PUSH2 0x1E4B JUMP JUMPDEST JUMPDEST PUSH2 0x269C DUP12 DUP3 DUP13 ADD PUSH2 0x1F6A JUMP JUMPDEST SWAP9 POP SWAP9 POP POP PUSH1 0x20 DUP10 ADD CALLDATALOAD PUSH8 0xFFFFFFFFFFFFFFFF DUP2 GT ISZERO PUSH2 0x26BF JUMPI PUSH2 0x26BE PUSH2 0x1E4B JUMP JUMPDEST JUMPDEST PUSH2 0x26CB DUP12 DUP3 DUP13 ADD PUSH2 0x25FC JUMP JUMPDEST SWAP7 POP SWAP7 POP POP PUSH1 0x40 DUP10 ADD CALLDATALOAD PUSH8 0xFFFFFFFFFFFFFFFF DUP2 GT ISZERO PUSH2 0x26EE JUMPI PUSH2 0x26ED PUSH2 0x1E4B JUMP JUMPDEST JUMPDEST PUSH2 0x26FA DUP12 DUP3 DUP13 ADD PUSH2 0x1FC0 JUMP JUMPDEST SWAP5 POP SWAP5 POP POP PUSH1 0x60 DUP10 ADD CALLDATALOAD PUSH8 0xFFFFFFFFFFFFFFFF DUP2 GT ISZERO PUSH2 0x271D JUMPI PUSH2 0x271C PUSH2 0x1E4B JUMP JUMPDEST JUMPDEST PUSH2 0x2729 DUP12 DUP3 DUP13 ADD PUSH2 0x2016 JUMP JUMPDEST SWAP3 POP SWAP3 POP POP SWAP3 SWAP6 SWAP9 POP SWAP3 SWAP6 SWAP9 SWAP1 SWAP4 SWAP7 POP JUMP JUMPDEST PUSH32 0x4E487B7100000000000000000000000000000000000000000000000000000000 PUSH1 0x0 MSTORE PUSH1 0x41 PUSH1 0x4 MSTORE PUSH1 0x24 PUSH1 0x0 REVERT JUMPDEST PUSH32 0x4E487B7100000000000000000000000000000000000000000000000000000000 PUSH1 0x0 MSTORE PUSH1 0x32 PUSH1 0x4 MSTORE PUSH1 0x24 PUSH1 0x0 REVERT JUMPDEST PUSH1 0x0 DUP1 REVERT JUMPDEST PUSH1 0x0 DUP1 REVERT JUMPDEST PUSH1 0x0 DUP1 REVERT JUMPDEST PUSH1 0x0 DUP1 DUP4 CALLDATALOAD PUSH1 0x1 PUSH1 0x20 SUB DUP5 CALLDATASIZE SUB SUB DUP2 SLT PUSH2 0x27C5 JUMPI PUSH2 0x27C4 PUSH2 0x2799 JUMP JUMPDEST JUMPDEST DUP1 DUP5 ADD SWAP3 POP DUP3 CALLDATALOAD SWAP2 POP PUSH8 0xFFFFFFFFFFFFFFFF DUP3 GT ISZERO PUSH2 0x27E7 JUMPI PUSH2 0x27E6 PUSH2 0x279E JUMP JUMPDEST JUMPDEST PUSH1 0x20 DUP4 ADD SWAP3 POP PUSH1 0x20 DUP3 MUL CALLDATASIZE SUB DUP4 SGT ISZERO PUSH2 0x2803 JUMPI PUSH2 0x2802 PUSH2 0x27A3 JUMP JUMPDEST JUMPDEST POP SWAP3 POP SWAP3 SWAP1 POP JUMP JUMPDEST PUSH32 0x4E487B7100000000000000000000000000000000000000000000000000000000 PUSH1 0x0 MSTORE PUSH1 0x11 PUSH1 0x4 MSTORE PUSH1 0x24 PUSH1 0x0 REVERT JUMPDEST PUSH1 0x0 PUSH2 0x2845 DUP3 PUSH2 0x1F27 JUMP JUMPDEST SWAP2 POP PUSH32 0xFFFFFFFFFFFFFFFFFFFFFFFFFFFFFFFFFFFFFFFFFFFFFFFFFFFFFFFFFFFFFFFF DUP3 EQ ISZERO PUSH2 0x2878 JUMPI PUSH2 0x2877 PUSH2 0x280B JUMP JUMPDEST JUMPDEST PUSH1 0x1 DUP3 ADD SWAP1 POP SWAP2 SWAP1 POP JUMP JUMPDEST PUSH1 0x0 DUP3 DUP3 MSTORE PUSH1 0x20 DUP3 ADD SWAP1 POP SWAP3 SWAP2 POP POP JUMP JUMPDEST PUSH32 0x4F776E61626C653A2063616C6C6572206973206E6F7420746865206F776E6572 PUSH1 0x0 DUP3 ADD MSTORE POP JUMP JUMPDEST PUSH1 0x0 PUSH2 0x28CA PUSH1 0x20 DUP4 PUSH2 0x2883 JUMP JUMPDEST SWAP2 POP PUSH2 0x28D5 DUP3 PUSH2 0x2894 JUMP JUMPDEST PUSH1 0x20 DUP3 ADD SWAP1 POP SWAP2 SWAP1 POP JUMP JUMPDEST PUSH1 0x0 PUSH1 0x20 DUP3 ADD SWAP1 POP DUP2 DUP2 SUB PUSH1 0x0 DUP4 ADD MSTORE PUSH2 0x28F9 DUP2 PUSH2 0x28BD JUMP JUMPDEST SWAP1 POP SWAP2 SWAP1 POP JUMP JUMPDEST PUSH32 0x5061757361626C653A2070617573656400000000000000000000000000000000 PUSH1 0x0 DUP3 ADD MSTORE POP JUMP JUMPDEST PUSH1 0x0 PUSH2 0x2936 PUSH1 0x10 DUP4 PUSH2 0x2883 JUMP JUMPDEST SWAP2 POP PUSH2 0x2941 DUP3 PUSH2 0x2900 JUMP JUMPDEST PUSH1 0x20 DUP3 ADD SWAP1 POP SWAP2 SWAP1 POP JUMP JUMPDEST PUSH1 0x0 PUSH1 0x20 DUP3 ADD SWAP1 POP DUP2 DUP2 SUB PUSH1 0x0 DUP4 ADD MSTORE PUSH2 0x2965 DUP2 PUSH2 0x2929 JUMP JUMPDEST SWAP1 POP SWAP2 SWAP1 POP JUMP JUMPDEST PUSH32 0x4F776E65723A205361666520677561726420616C726561647920757365640000 PUSH1 0x0 DUP3 ADD MSTORE POP JUMP JUMPDEST PUSH1 0x0 PUSH2 0x29A2 PUSH1 0x1E DUP4 PUSH2 0x2883 JUMP JUMPDEST SWAP2 POP PUSH2 0x29AD DUP3 PUSH2 0x296C JUMP JUMPDEST PUSH1 0x20 DUP3 ADD SWAP1 POP SWAP2 SWAP1 POP JUMP JUMPDEST PUSH1 0x0 PUSH1 0x20 DUP3 ADD SWAP1 POP DUP2 DUP2 SUB PUSH1 0x0 DUP4 ADD MSTORE PUSH2 0x29D1 DUP2 PUSH2 0x2995 JUMP JUMPDEST SWAP1 POP SWAP2 SWAP1 POP JUMP JUMPDEST PUSH1 0x0 PUSH2 0x29E3 DUP3 PUSH2 0x1EAE JUMP JUMPDEST SWAP2 POP PUSH1 0xFF DUP3 EQ ISZERO PUSH2 0x29F7 JUMPI PUSH2 0x29F6 PUSH2 0x280B JUMP JUMPDEST JUMPDEST PUSH1 0x1 DUP3 ADD SWAP1 POP SWAP2 SWAP1 POP JUMP JUMPDEST PUSH32 0x5061757361626C653A206E6F7420706175736564000000000000000000000000 PUSH1 0x0 DUP3 ADD MSTORE POP JUMP JUMPDEST PUSH1 0x0 PUSH2 0x2A38 PUSH1 0x14 DUP4 PUSH2 0x2883 JUMP JUMPDEST SWAP2 POP PUSH2 0x2A43 DUP3 PUSH2 0x2A02 JUMP JUMPDEST PUSH1 0x20 DUP3 ADD SWAP1 POP SWAP2 SWAP1 POP JUMP JUMPDEST PUSH1 0x0 PUSH1 0x20 DUP3 ADD SWAP1 POP DUP2 DUP2 SUB PUSH1 0x0 DUP4 ADD MSTORE PUSH2 0x2A67 DUP2 PUSH2 0x2A2B JUMP JUMPDEST SWAP1 POP SWAP2 SWAP1 POP JUMP JUMPDEST PUSH1 0x0 PUSH2 0x2A79 DUP3 PUSH2 0x1F27 JUMP JUMPDEST SWAP2 POP PUSH2 0x2A84 DUP4 PUSH2 0x1F27 JUMP JUMPDEST SWAP3 POP DUP3 PUSH32 0xFFFFFFFFFFFFFFFFFFFFFFFFFFFFFFFFFFFFFFFFFFFFFFFFFFFFFFFFFFFFFFFF SUB DUP3 GT ISZERO PUSH2 0x2AB9 JUMPI PUSH2 0x2AB8 PUSH2 0x280B JUMP JUMPDEST JUMPDEST DUP3 DUP3 ADD SWAP1 POP SWAP3 SWAP2 POP POP JUMP JUMPDEST PUSH32 0x4F776E65723A20546F6F206561726C7920746F20776974686472617700000000 PUSH1 0x0 DUP3 ADD MSTORE POP JUMP JUMPDEST PUSH1 0x0 PUSH2 0x2AFA PUSH1 0x1C DUP4 PUSH2 0x2883 JUMP JUMPDEST SWAP2 POP PUSH2 0x2B05 DUP3 PUSH2 0x2AC4 JUMP JUMPDEST PUSH1 0x20 DUP3 ADD SWAP1 POP SWAP2 SWAP1 POP JUMP JUMPDEST PUSH1 0x0 PUSH1 0x20 DUP3 ADD SWAP1 POP DUP2 DUP2 SUB PUSH1 0x0 DUP4 ADD MSTORE PUSH2 0x2B29 DUP2 PUSH2 0x2AED JUMP JUMPDEST SWAP1 POP SWAP2 SWAP1 POP JUMP JUMPDEST PUSH32 0x5265656E7472616E637947756172643A207265656E7472616E742063616C6C00 PUSH1 0x0 DUP3 ADD MSTORE POP JUMP JUMPDEST PUSH1 0x0 PUSH2 0x2B66 PUSH1 0x1F DUP4 PUSH2 0x2883 JUMP JUMPDEST SWAP2 POP PUSH2 0x2B71 DUP3 PUSH2 0x2B30 JUMP JUMPDEST PUSH1 0x20 DUP3 ADD SWAP1 POP SWAP2 SWAP1 POP JUMP JUMPDEST PUSH1 0x0 PUSH1 0x20 DUP3 ADD SWAP1 POP DUP2 DUP2 SUB PUSH1 0x0 DUP4 ADD MSTORE PUSH2 0x2B95 DUP2 PUSH2 0x2B59 JUMP JUMPDEST SWAP1 POP SWAP2 SWAP1 POP JUMP JUMPDEST PUSH32 0x526577617264733A2057726F6E67206C656E6774687300000000000000000000 PUSH1 0x0 DUP3 ADD MSTORE POP JUMP JUMPDEST PUSH1 0x0 PUSH2 0x2BD2 PUSH1 0x16 DUP4 PUSH2 0x2883 JUMP JUMPDEST SWAP2 POP PUSH2 0x2BDD DUP3 PUSH2 0x2B9C JUMP JUMPDEST PUSH1 0x20 DUP3 ADD SWAP1 POP SWAP2 SWAP1 POP JUMP JUMPDEST PUSH1 0x0 PUSH1 0x20 DUP3 ADD SWAP1 POP DUP2 DUP2 SUB PUSH1 0x0 DUP4 ADD MSTORE PUSH2 0x2C01 DUP2 PUSH2 0x2BC5 JUMP JUMPDEST SWAP1 POP SWAP2 SWAP1 POP JUMP JUMPDEST PUSH32 0x526577617264733A2054726565206E6F6E6578697374656E7400000000000000 PUSH1 0x0 DUP3 ADD MSTORE POP JUMP JUMPDEST PUSH1 0x0 PUSH2 0x2C3E PUSH1 0x19 DUP4 PUSH2 0x2883 JUMP JUMPDEST SWAP2 POP PUSH2 0x2C49 DUP3 PUSH2 0x2C08 JUMP JUMPDEST PUSH1 0x20 DUP3 ADD SWAP1 POP SWAP2 SWAP1 POP JUMP JUMPDEST PUSH1 0x0 PUSH1 0x20 DUP3 ADD SWAP1 POP DUP2 DUP2 SUB PUSH1 0x0 DUP4 ADD MSTORE PUSH2 0x2C6D DUP2 PUSH2 0x2C31 JUMP JUMPDEST SWAP1 POP SWAP2 SWAP1 POP JUMP JUMPDEST PUSH32 0x526577617264733A20496E76616C69642070726F6F6600000000000000000000 PUSH1 0x0 DUP3 ADD MSTORE POP JUMP JUMPDEST PUSH1 0x0 PUSH2 0x2CAA PUSH1 0x16 DUP4 PUSH2 0x2883 JUMP JUMPDEST SWAP2 POP PUSH2 0x2CB5 DUP3 PUSH2 0x2C74 JUMP JUMPDEST PUSH1 0x20 DUP3 ADD SWAP1 POP SWAP2 SWAP1 POP JUMP JUMPDEST PUSH1 0x0 PUSH1 0x20 DUP3 ADD SWAP1 POP DUP2 DUP2 SUB PUSH1 0x0 DUP4 ADD MSTORE PUSH2 0x2CD9 DUP2 PUSH2 0x2C9D JUMP JUMPDEST SWAP1 POP SWAP2 SWAP1 POP JUMP JUMPDEST PUSH32 0x526577617264733A20416C726561647920636C61696D65640000000000000000 PUSH1 0x0 DUP3 ADD MSTORE POP JUMP JUMPDEST PUSH1 0x0 PUSH2 0x2D16 PUSH1 0x18 DUP4 PUSH2 0x2883 JUMP JUMPDEST SWAP2 POP PUSH2 0x2D21 DUP3 PUSH2 0x2CE0 JUMP JUMPDEST PUSH1 0x20 DUP3 ADD SWAP1 POP SWAP2 SWAP1 POP JUMP JUMPDEST PUSH1 0x0 PUSH1 0x20 DUP3 ADD SWAP1 POP DUP2 DUP2 SUB PUSH1 0x0 DUP4 ADD MSTORE PUSH2 0x2D45 DUP2 PUSH2 0x2D09 JUMP JUMPDEST SWAP1 POP SWAP2 SWAP1 POP JUMP JUMPDEST PUSH32 0x526577617264733A20416D6F756E7420686967686572207468616E206D617800 PUSH1 0x0 DUP3 ADD MSTORE POP JUMP JUMPDEST PUSH1 0x0 PUSH2 0x2D82 PUSH1 0x1F DUP4 PUSH2 0x2883 JUMP JUMPDEST SWAP2 POP PUSH2 0x2D8D DUP3 PUSH2 0x2D4C JUMP JUMPDEST PUSH1 0x20 DUP3 ADD SWAP1 POP SWAP2 SWAP1 POP JUMP JUMPDEST PUSH1 0x0 PUSH1 0x20 DUP3 ADD SWAP1 POP DUP2 DUP2 SUB PUSH1 0x0 DUP4 ADD MSTORE PUSH2 0x2DB1 DUP2 PUSH2 0x2D75 JUMP JUMPDEST SWAP1 POP SWAP2 SWAP1 POP JUMP JUMPDEST PUSH1 0x0 DUP3 DUP3 MSTORE PUSH1 0x20 DUP3 ADD SWAP1 POP SWAP3 SWAP2 POP POP JUMP JUMPDEST PUSH1 0x0 DUP2 SWAP1 POP SWAP2 SWAP1 POP JUMP JUMPDEST PUSH2 0x2DDC DUP2 PUSH2 0x1EAE JUMP JUMPDEST DUP3 MSTORE POP POP JUMP JUMPDEST PUSH1 0x0 PUSH2 0x2DEE DUP4 DUP4 PUSH2 0x2DD3 JUMP JUMPDEST PUSH1 0x20 DUP4 ADD SWAP1 POP SWAP3 SWAP2 POP POP JUMP JUMPDEST PUSH1 0x0 PUSH2 0x2E09 PUSH1 0x20 DUP5 ADD DUP5 PUSH2 0x1ED2 JUMP JUMPDEST SWAP1 POP SWAP3 SWAP2 POP POP JUMP JUMPDEST PUSH1 0x0 PUSH1 0x20 DUP3 ADD SWAP1 POP SWAP2 SWAP1 POP JUMP JUMPDEST PUSH1 0x0 PUSH2 0x2E2A DUP4 DUP6 PUSH2 0x2DB8 JUMP JUMPDEST SWAP4 POP PUSH2 0x2E35 DUP3 PUSH2 0x2DC9 JUMP JUMPDEST DUP1 PUSH1 0x0 JUMPDEST DUP6 DUP2 LT ISZERO PUSH2 0x2E6E JUMPI PUSH2 0x2E4B DUP3 DUP5 PUSH2 0x2DFA JUMP JUMPDEST PUSH2 0x2E55 DUP9 DUP3 PUSH2 0x2DE2 JUMP JUMPDEST SWAP8 POP PUSH2 0x2E60 DUP4 PUSH2 0x2E11 JUMP JUMPDEST SWAP3 POP POP PUSH1 0x1 DUP2 ADD SWAP1 POP PUSH2 0x2E39 JUMP JUMPDEST POP DUP6 SWAP3 POP POP POP SWAP4 SWAP3 POP POP POP JUMP JUMPDEST PUSH1 0x0 PUSH1 0xA0 DUP3 ADD SWAP1 POP PUSH2 0x2E90 PUSH1 0x0 DUP4 ADD DUP10 PUSH2 0x241C JUMP JUMPDEST PUSH2 0x2E9D PUSH1 0x20 DUP4 ADD DUP9 PUSH2 0x1F31 JUMP JUMPDEST PUSH2 0x2EAA PUSH1 0x40 DUP4 ADD DUP8 PUSH2 0x1F31 JUMP JUMPDEST DUP2 DUP2 SUB PUSH1 0x60 DUP4 ADD MSTORE PUSH2 0x2EBD DUP2 DUP6 DUP8 PUSH2 0x2E1E JUMP JUMPDEST SWAP1 POP DUP2 DUP2 SUB PUSH1 0x80 DUP4 ADD MSTORE PUSH2 0x2ED1 DUP2 DUP5 PUSH2 0x225F JUMP JUMPDEST SWAP1 POP SWAP8 SWAP7 POP POP POP POP POP POP POP JUMP JUMPDEST PUSH32 0x4F776E65723A2057726F6E67206C656E67746873000000000000000000000000 PUSH1 0x0 DUP3 ADD MSTORE POP JUMP JUMPDEST PUSH1 0x0 PUSH2 0x2F14 PUSH1 0x14 DUP4 PUSH2 0x2883 JUMP JUMPDEST SWAP2 POP PUSH2 0x2F1F DUP3 PUSH2 0x2EDE JUMP JUMPDEST PUSH1 0x20 DUP3 ADD SWAP1 POP SWAP2 SWAP1 POP JUMP JUMPDEST PUSH1 0x0 PUSH1 0x20 DUP3 ADD SWAP1 POP DUP2 DUP2 SUB PUSH1 0x0 DUP4 ADD MSTORE PUSH2 0x2F43 DUP2 PUSH2 0x2F07 JUMP JUMPDEST SWAP1 POP SWAP2 SWAP1 POP JUMP JUMPDEST PUSH32 0x4F776E65723A2054726565206E6F6E6578697374656E74000000000000000000 PUSH1 0x0 DUP3 ADD MSTORE POP JUMP JUMPDEST PUSH1 0x0 PUSH2 0x2F80 PUSH1 0x17 DUP4 PUSH2 0x2883 JUMP JUMPDEST SWAP2 POP PUSH2 0x2F8B DUP3 PUSH2 0x2F4A JUMP JUMPDEST PUSH1 0x20 DUP3 ADD SWAP1 POP SWAP2 SWAP1 POP JUMP JUMPDEST PUSH1 0x0 PUSH1 0x20 DUP3 ADD SWAP1 POP DUP2 DUP2 SUB PUSH1 0x0 DUP4 ADD MSTORE PUSH2 0x2FAF DUP2 PUSH2 0x2F73 JUMP JUMPDEST SWAP1 POP SWAP2 SWAP1 POP JUMP JUMPDEST PUSH32 0x4F776E65723A204D65726B6C6520726F6F7420616C7265616479207573656400 PUSH1 0x0 DUP3 ADD MSTORE POP JUMP JUMPDEST PUSH1 0x0 PUSH2 0x2FEC PUSH1 0x1F DUP4 PUSH2 0x2883 JUMP JUMPDEST SWAP2 POP PUSH2 0x2FF7 DUP3 PUSH2 0x2FB6 JUMP JUMPDEST PUSH1 0x20 DUP3 ADD SWAP1 POP SWAP2 SWAP1 POP JUMP JUMPDEST PUSH1 0x0 PUSH1 0x20 DUP3 ADD SWAP1 POP DUP2 DUP2 SUB PUSH1 0x0 DUP4 ADD MSTORE PUSH2 0x301B DUP2 PUSH2 0x2FDF JUMP JUMPDEST SWAP1 POP SWAP2 SWAP1 POP JUMP JUMPDEST PUSH32 0x4F776E65723A2057726F6E6720736166652067756172642070726F6F66730000 PUSH1 0x0 DUP3 ADD MSTORE POP JUMP JUMPDEST PUSH1 0x0 PUSH2 0x3058 PUSH1 0x1E DUP4 PUSH2 0x2883 JUMP JUMPDEST SWAP2 POP PUSH2 0x3063 DUP3 PUSH2 0x3022 JUMP JUMPDEST PUSH1 0x20 DUP3 ADD SWAP1 POP SWAP2 SWAP1 POP JUMP JUMPDEST PUSH1 0x0 PUSH1 0x20 DUP3 ADD SWAP1 POP DUP2 DUP2 SUB PUSH1 0x0 DUP4 ADD MSTORE PUSH2 0x3087 DUP2 PUSH2 0x304B JUMP JUMPDEST SWAP1 POP SWAP2 SWAP1 POP JUMP JUMPDEST PUSH32 0x4F776E61626C653A206E6577206F776E657220697320746865207A65726F2061 PUSH1 0x0 DUP3 ADD MSTORE PUSH32 0x6464726573730000000000000000000000000000000000000000000000000000 PUSH1 0x20 DUP3 ADD MSTORE POP JUMP JUMPDEST PUSH1 0x0 PUSH2 0x30EA PUSH1 0x26 DUP4 PUSH2 0x2883 JUMP JUMPDEST SWAP2 POP PUSH2 0x30F5 DUP3 PUSH2 0x308E JUMP JUMPDEST PUSH1 0x40 DUP3 ADD SWAP1 POP SWAP2 SWAP1 POP JUMP JUMPDEST PUSH1 0x0 PUSH1 0x20 DUP3 ADD SWAP1 POP DUP2 DUP2 SUB PUSH1 0x0 DUP4 ADD MSTORE PUSH2 0x3119 DUP2 PUSH2 0x30DD JUMP JUMPDEST SWAP1 POP SWAP2 SWAP1 POP JUMP JUMPDEST PUSH1 0x0 DUP2 PUSH1 0x60 SHL SWAP1 POP SWAP2 SWAP1 POP JUMP JUMPDEST PUSH1 0x0 PUSH2 0x3138 DUP3 PUSH2 0x3120 JUMP JUMPDEST SWAP1 POP SWAP2 SWAP1 POP JUMP JUMPDEST PUSH1 0x0 PUSH2 0x314A DUP3 PUSH2 0x312D JUMP JUMPDEST SWAP1 POP SWAP2 SWAP1 POP JUMP JUMPDEST PUSH2 0x3162 PUSH2 0x315D DUP3 PUSH2 0x1E70 JUMP JUMPDEST PUSH2 0x313F JUMP JUMPDEST DUP3 MSTORE POP POP JUMP JUMPDEST PUSH1 0x0 DUP2 SWAP1 POP SWAP2 SWAP1 POP JUMP JUMPDEST PUSH2 0x3183 PUSH2 0x317E DUP3 PUSH2 0x1F27 JUMP JUMPDEST PUSH2 0x3168 JUMP JUMPDEST DUP3 MSTORE POP POP JUMP JUMPDEST PUSH1 0x0 PUSH2 0x3195 DUP3 DUP6 PUSH2 0x3151 JUMP JUMPDEST PUSH1 0x14 DUP3 ADD SWAP2 POP PUSH2 0x31A5 DUP3 DUP5 PUSH2 0x3172 JUMP JUMPDEST PUSH1 0x20 DUP3 ADD SWAP2 POP DUP2 SWAP1 POP SWAP4 SWAP3 POP POP POP JUMP JUMPDEST PUSH1 0x0 PUSH2 0x31C0 DUP3 PUSH2 0x1F27 JUMP JUMPDEST SWAP2 POP PUSH2 0x31CB DUP4 PUSH2 0x1F27 JUMP JUMPDEST SWAP3 POP DUP3 DUP3 LT ISZERO PUSH2 0x31DE JUMPI PUSH2 0x31DD PUSH2 0x280B JUMP JUMPDEST JUMPDEST DUP3 DUP3 SUB SWAP1 POP SWAP3 SWAP2 POP POP JUMP JUMPDEST PUSH1 0x0 PUSH1 0x40 DUP3 ADD SWAP1 POP PUSH2 0x31FE PUSH1 0x0 DUP4 ADD DUP6 PUSH2 0x241C JUMP JUMPDEST PUSH2 0x320B PUSH1 0x20 DUP4 ADD DUP5 PUSH2 0x1F31 JUMP JUMPDEST SWAP4 SWAP3 POP POP POP JUMP JUMPDEST PUSH2 0x321B DUP2 PUSH2 0x2161 JUMP JUMPDEST DUP2 EQ PUSH2 0x3226 JUMPI PUSH1 0x0 DUP1 REVERT JUMPDEST POP JUMP JUMPDEST PUSH1 0x0 DUP2 MLOAD SWAP1 POP PUSH2 0x3238 DUP2 PUSH2 0x3212 JUMP JUMPDEST SWAP3 SWAP2 POP POP JUMP JUMPDEST PUSH1 0x0 PUSH1 0x20 DUP3 DUP5 SUB SLT ISZERO PUSH2 0x3254 JUMPI PUSH2 0x3253 PUSH2 0x1E46 JUMP JUMPDEST JUMPDEST PUSH1 0x0 PUSH2 0x3262 DUP5 DUP3 DUP6 ADD PUSH2 0x3229 JUMP JUMPDEST SWAP2 POP POP SWAP3 SWAP2 POP POP JUMP JUMPDEST PUSH32 0x5361666545524332303A204552433230206F7065726174696F6E20646964206E PUSH1 0x0 DUP3 ADD MSTORE PUSH32 0x6F74207375636365656400000000000000000000000000000000000000000000 PUSH1 0x20 DUP3 ADD MSTORE POP JUMP JUMPDEST PUSH1 0x0 PUSH2 0x32C7 PUSH1 0x2A DUP4 PUSH2 0x2883 JUMP JUMPDEST SWAP2 POP PUSH2 0x32D2 DUP3 PUSH2 0x326B JUMP JUMPDEST PUSH1 0x40 DUP3 ADD SWAP1 POP SWAP2 SWAP1 POP JUMP JUMPDEST PUSH1 0x0 PUSH1 0x20 DUP3 ADD SWAP1 POP DUP2 DUP2 SUB PUSH1 0x0 DUP4 ADD MSTORE PUSH2 0x32F6 DUP2 PUSH2 0x32BA JUMP JUMPDEST SWAP1 POP SWAP2 SWAP1 POP JUMP JUMPDEST PUSH32 0x416464726573733A20696E73756666696369656E742062616C616E636520666F PUSH1 0x0 DUP3 ADD MSTORE PUSH32 0x722063616C6C0000000000000000000000000000000000000000000000000000 PUSH1 0x20 DUP3 ADD MSTORE POP JUMP JUMPDEST PUSH1 0x0 PUSH2 0x3359 PUSH1 0x26 DUP4 PUSH2 0x2883 JUMP JUMPDEST SWAP2 POP PUSH2 0x3364 DUP3 PUSH2 0x32FD JUMP JUMPDEST PUSH1 0x40 DUP3 ADD SWAP1 POP SWAP2 SWAP1 POP JUMP JUMPDEST PUSH1 0x0 PUSH1 0x20 DUP3 ADD SWAP1 POP DUP2 DUP2 SUB PUSH1 0x0 DUP4 ADD MSTORE PUSH2 0x3388 DUP2 PUSH2 0x334C JUMP JUMPDEST SWAP1 POP SWAP2 SWAP1 POP JUMP JUMPDEST PUSH32 0x416464726573733A2063616C6C20746F206E6F6E2D636F6E7472616374000000 PUSH1 0x0 DUP3 ADD MSTORE POP JUMP JUMPDEST PUSH1 0x0 PUSH2 0x33C5 PUSH1 0x1D DUP4 PUSH2 0x2883 JUMP JUMPDEST SWAP2 POP PUSH2 0x33D0 DUP3 PUSH2 0x338F JUMP JUMPDEST PUSH1 0x20 DUP3 ADD SWAP1 POP SWAP2 SWAP1 POP JUMP JUMPDEST PUSH1 0x0 PUSH1 0x20 DUP3 ADD SWAP1 POP DUP2 DUP2 SUB PUSH1 0x0 DUP4 ADD MSTORE PUSH2 0x33F4 DUP2 PUSH2 0x33B8 JUMP JUMPDEST SWAP1 POP SWAP2 SWAP1 POP JUMP JUMPDEST PUSH1 0x0 DUP2 MLOAD SWAP1 POP SWAP2 SWAP1 POP JUMP JUMPDEST PUSH1 0x0 DUP2 SWAP1 POP SWAP3 SWAP2 POP POP JUMP JUMPDEST PUSH1 0x0 JUMPDEST DUP4 DUP2 LT ISZERO PUSH2 0x342F JUMPI DUP1 DUP3 ADD MLOAD DUP2 DUP5 ADD MSTORE PUSH1 0x20 DUP2 ADD SWAP1 POP PUSH2 0x3414 JUMP JUMPDEST DUP4 DUP2 GT ISZERO PUSH2 0x343E JUMPI PUSH1 0x0 DUP5 DUP5 ADD MSTORE JUMPDEST POP POP POP POP JUMP JUMPDEST PUSH1 0x0 PUSH2 0x344F DUP3 PUSH2 0x33FB JUMP JUMPDEST PUSH2 0x3459 DUP2 DUP6 PUSH2 0x3406 JUMP JUMPDEST SWAP4 POP PUSH2 0x3469 DUP2 DUP6 PUSH1 0x20 DUP7 ADD PUSH2 0x3411 JUMP JUMPDEST DUP1 DUP5 ADD SWAP2 POP POP SWAP3 SWAP2 POP POP JUMP JUMPDEST PUSH1 0x0 PUSH2 0x3481 DUP3 DUP5 PUSH2 0x3444 JUMP JUMPDEST SWAP2 POP DUP2 SWAP1 POP SWAP3 SWAP2 POP POP JUMP JUMPDEST PUSH1 0x0 DUP2 MLOAD SWAP1 POP SWAP2 SWAP1 POP JUMP JUMPDEST PUSH1 0x0 PUSH1 0x1F NOT PUSH1 0x1F DUP4 ADD AND SWAP1 POP SWAP2 SWAP1 POP JUMP JUMPDEST PUSH1 0x0 PUSH2 0x34B3 DUP3 PUSH2 0x348C JUMP JUMPDEST PUSH2 0x34BD DUP2 DUP6 PUSH2 0x2883 JUMP JUMPDEST SWAP4 POP PUSH2 0x34CD DUP2 DUP6 PUSH1 0x20 DUP7 ADD PUSH2 0x3411 JUMP JUMPDEST PUSH2 0x34D6 DUP2 PUSH2 0x3497 JUMP JUMPDEST DUP5 ADD SWAP2 POP POP SWAP3 SWAP2 POP POP JUMP JUMPDEST PUSH1 0x0 PUSH1 0x20 DUP3 ADD SWAP1 POP DUP2 DUP2 SUB PUSH1 0x0 DUP4 ADD MSTORE PUSH2 0x34FB DUP2 DUP5 PUSH2 0x34A8 JUMP JUMPDEST SWAP1 POP SWAP3 SWAP2 POP POP JUMP INVALID LOG2 PUSH5 0x6970667358 0x22 SLT KECCAK256 SMOD PUSH2 0x4333 DUP1 DIV 0xC5 0xFC 0x26 0xD7 SWAP8 GAS LOG4 0xD4 0x4E CALLER PUSH17 0xEA7325A19D1232449042560CDA2B0B6473 PUSH16 0x6C634300080B00330000000000000000 "
				},
				"gasEstimates": {
					"creation": {
						"codeDepositCost": "2725000",
						"executionCost": "infinite",
						"totalCost": "infinite"
					},
					"external": {
						"BUFFER_ADMIN_WITHDRAW()": "419",
						"SAFE_GUARD_AMOUNT()": "395",
						"addNewTree(address)": "infinite",
						"amountClaimedByUserPerTreeId(address,uint8)": "3080",
						"canClaim(address,uint8[],uint256[],bytes32[][])": "infinite",
						"claim(uint8[],uint256[],bytes32[][])": "infinite",
						"currentRewardRound()": "2497",
						"lastPausedTimestamp()": "2561",
						"looksRareToken()": "infinite",
						"merkleRootUsed(bytes32)": "2818",
						"numberTrees()": "2633",
						"owner()": "2589",
						"pauseDistribution()": "infinite",
						"paused()": "2568",
						"renounceOwnership()": "30485",
						"safeGuardUsed(address)": "2934",
						"transferOwnership(address)": "30833",
						"treeParameters(uint8)": "7317",
						"unpauseDistribution()": "infinite",
						"updateTradingRewards(uint8[],bytes32[],uint256[],bytes32[][])": "infinite",
						"withdrawTokenRewards(uint256)": "infinite"
					},
					"internal": {
						"_canClaim(address,uint8,uint256,bytes32[] calldata)": "infinite"
					}
				},
				"methodIdentifiers": {
					"BUFFER_ADMIN_WITHDRAW()": "141fd8c8",
					"SAFE_GUARD_AMOUNT()": "d0e1f97f",
					"addNewTree(address)": "3488fca2",
					"amountClaimedByUserPerTreeId(address,uint8)": "0401ff48",
					"canClaim(address,uint8[],uint256[],bytes32[][])": "070e44ce",
					"claim(uint8[],uint256[],bytes32[][])": "c6760f6b",
					"currentRewardRound()": "1040faf9",
					"lastPausedTimestamp()": "fa461974",
					"looksRareToken()": "36db9fb2",
					"merkleRootUsed(bytes32)": "ba42590d",
					"numberTrees()": "249c8f5e",
					"owner()": "8da5cb5b",
					"pauseDistribution()": "31cec7a3",
					"paused()": "5c975abb",
					"renounceOwnership()": "715018a6",
					"safeGuardUsed(address)": "a95c56f5",
					"transferOwnership(address)": "f2fde38b",
					"treeParameters(uint8)": "7663d437",
					"unpauseDistribution()": "b94ec9d0",
					"updateTradingRewards(uint8[],bytes32[],uint256[],bytes32[][])": "da0195ec",
					"withdrawTokenRewards(uint256)": "8923e2f7"
				}
			},
			"storageLayout": {
				"storage": [
					{
						"astId": 122,
						"contract": "contracts/LooksRare/MultiRewardsDistributor.sol:MultiRewardsDistributor",
						"label": "_paused",
						"offset": 0,
						"slot": "0",
						"type": "t_bool"
					},
					{
						"astId": 207,
						"contract": "contracts/LooksRare/MultiRewardsDistributor.sol:MultiRewardsDistributor",
						"label": "_status",
						"offset": 0,
						"slot": "1",
						"type": "t_uint256"
					},
					{
						"astId": 7,
						"contract": "contracts/LooksRare/MultiRewardsDistributor.sol:MultiRewardsDistributor",
						"label": "_owner",
						"offset": 0,
						"slot": "2",
						"type": "t_address"
					},
					{
						"astId": 990,
						"contract": "contracts/LooksRare/MultiRewardsDistributor.sol:MultiRewardsDistributor",
						"label": "numberTrees",
						"offset": 20,
						"slot": "2",
						"type": "t_uint8"
					},
					{
						"astId": 992,
						"contract": "contracts/LooksRare/MultiRewardsDistributor.sol:MultiRewardsDistributor",
						"label": "currentRewardRound",
						"offset": 0,
						"slot": "3",
						"type": "t_uint256"
					},
					{
						"astId": 994,
						"contract": "contracts/LooksRare/MultiRewardsDistributor.sol:MultiRewardsDistributor",
						"label": "lastPausedTimestamp",
						"offset": 0,
						"slot": "4",
						"type": "t_uint256"
					},
					{
						"astId": 999,
						"contract": "contracts/LooksRare/MultiRewardsDistributor.sol:MultiRewardsDistributor",
						"label": "treeParameters",
						"offset": 0,
						"slot": "5",
						"type": "t_mapping(t_uint8,t_struct(TreeParameter)979_storage)"
					},
					{
						"astId": 1005,
						"contract": "contracts/LooksRare/MultiRewardsDistributor.sol:MultiRewardsDistributor",
						"label": "amountClaimedByUserPerTreeId",
						"offset": 0,
						"slot": "6",
						"type": "t_mapping(t_address,t_mapping(t_uint8,t_uint256))"
					},
					{
						"astId": 1009,
						"contract": "contracts/LooksRare/MultiRewardsDistributor.sol:MultiRewardsDistributor",
						"label": "safeGuardUsed",
						"offset": 0,
						"slot": "7",
						"type": "t_mapping(t_address,t_bool)"
					},
					{
						"astId": 1013,
						"contract": "contracts/LooksRare/MultiRewardsDistributor.sol:MultiRewardsDistributor",
						"label": "merkleRootUsed",
						"offset": 0,
						"slot": "8",
						"type": "t_mapping(t_bytes32,t_bool)"
					}
				],
				"types": {
					"t_address": {
						"encoding": "inplace",
						"label": "address",
						"numberOfBytes": "20"
					},
					"t_bool": {
						"encoding": "inplace",
						"label": "bool",
						"numberOfBytes": "1"
					},
					"t_bytes32": {
						"encoding": "inplace",
						"label": "bytes32",
						"numberOfBytes": "32"
					},
					"t_mapping(t_address,t_bool)": {
						"encoding": "mapping",
						"key": "t_address",
						"label": "mapping(address => bool)",
						"numberOfBytes": "32",
						"value": "t_bool"
					},
					"t_mapping(t_address,t_mapping(t_uint8,t_uint256))": {
						"encoding": "mapping",
						"key": "t_address",
						"label": "mapping(address => mapping(uint8 => uint256))",
						"numberOfBytes": "32",
						"value": "t_mapping(t_uint8,t_uint256)"
					},
					"t_mapping(t_bytes32,t_bool)": {
						"encoding": "mapping",
						"key": "t_bytes32",
						"label": "mapping(bytes32 => bool)",
						"numberOfBytes": "32",
						"value": "t_bool"
					},
					"t_mapping(t_uint8,t_struct(TreeParameter)979_storage)": {
						"encoding": "mapping",
						"key": "t_uint8",
						"label": "mapping(uint8 => struct MultiRewardsDistributor.TreeParameter)",
						"numberOfBytes": "32",
						"value": "t_struct(TreeParameter)979_storage"
					},
					"t_mapping(t_uint8,t_uint256)": {
						"encoding": "mapping",
						"key": "t_uint8",
						"label": "mapping(uint8 => uint256)",
						"numberOfBytes": "32",
						"value": "t_uint256"
					},
					"t_struct(TreeParameter)979_storage": {
						"encoding": "inplace",
						"label": "struct MultiRewardsDistributor.TreeParameter",
						"members": [
							{
								"astId": 974,
								"contract": "contracts/LooksRare/MultiRewardsDistributor.sol:MultiRewardsDistributor",
								"label": "safeGuard",
								"offset": 0,
								"slot": "0",
								"type": "t_address"
							},
							{
								"astId": 976,
								"contract": "contracts/LooksRare/MultiRewardsDistributor.sol:MultiRewardsDistributor",
								"label": "merkleRoot",
								"offset": 0,
								"slot": "1",
								"type": "t_bytes32"
							},
							{
								"astId": 978,
								"contract": "contracts/LooksRare/MultiRewardsDistributor.sol:MultiRewardsDistributor",
								"label": "maxAmountPerUserInCurrentTree",
								"offset": 0,
								"slot": "2",
								"type": "t_uint256"
							}
						],
						"numberOfBytes": "96"
					},
					"t_uint256": {
						"encoding": "inplace",
						"label": "uint256",
						"numberOfBytes": "32"
					},
					"t_uint8": {
						"encoding": "inplace",
						"label": "uint8",
						"numberOfBytes": "1"
					}
				}
			},
			"userdoc": {
				"kind": "user",
				"methods": {
					"addNewTree(address)": {
						"notice": "Add a new tree"
					},
					"canClaim(address,uint8[],uint256[],bytes32[][])": {
						"notice": "Check whether it is possible to claim and how much based on previous distribution"
					},
					"claim(uint8[],uint256[],bytes32[][])": {
						"notice": "Claim pending rewards"
					},
					"constructor": {
						"notice": "Constructor"
					},
					"pauseDistribution()": {
						"notice": "Pause distribution"
					},
					"unpauseDistribution()": {
						"notice": "Unpause distribution"
					},
					"updateTradingRewards(uint8[],bytes32[],uint256[],bytes32[][])": {
						"notice": "Update trading rewards with a new merkle root"
					},
					"withdrawTokenRewards(uint256)": {
						"notice": "Transfer LOOKS tokens back to owner"
					}
				},
				"notice": "It distributes LOOKS tokens with parallel rolling Merkle airdrops.",
				"version": 1
			}
		}
	}
}