{
	"contracts/LooksRare/TokenDistributor.sol": {
		"TokenDistributor": {
			"abi": [
				{
					"inputs": [
						{
							"internalType": "address",
							"name": "_looksRareToken",
							"type": "address"
						},
						{
							"internalType": "address",
							"name": "_tokenSplitter",
							"type": "address"
						},
						{
							"internalType": "uint256",
							"name": "_startBlock",
							"type": "uint256"
						},
						{
							"internalType": "uint256[]",
							"name": "_rewardsPerBlockForStaking",
							"type": "uint256[]"
						},
						{
							"internalType": "uint256[]",
							"name": "_rewardsPerBlockForOthers",
							"type": "uint256[]"
						},
						{
							"internalType": "uint256[]",
							"name": "_periodLengthesInBlocks",
							"type": "uint256[]"
						},
						{
							"internalType": "uint256",
							"name": "_numberPeriods",
							"type": "uint256"
						}
					],
					"stateMutability": "nonpayable",
					"type": "constructor"
				},
				{
					"anonymous": false,
					"inputs": [
						{
							"indexed": true,
							"internalType": "address",
							"name": "user",
							"type": "address"
						},
						{
							"indexed": false,
							"internalType": "uint256",
							"name": "harvestedAmount",
							"type": "uint256"
						}
					],
					"name": "Compound",
					"type": "event"
				},
				{
					"anonymous": false,
					"inputs": [
						{
							"indexed": true,
							"internalType": "address",
							"name": "user",
							"type": "address"
						},
						{
							"indexed": false,
							"internalType": "uint256",
							"name": "amount",
							"type": "uint256"
						},
						{
							"indexed": false,
							"internalType": "uint256",
							"name": "harvestedAmount",
							"type": "uint256"
						}
					],
					"name": "Deposit",
					"type": "event"
				},
				{
					"anonymous": false,
					"inputs": [
						{
							"indexed": true,
							"internalType": "uint256",
							"name": "currentPhase",
							"type": "uint256"
						},
						{
							"indexed": false,
							"internalType": "uint256",
							"name": "startBlock",
							"type": "uint256"
						},
						{
							"indexed": false,
							"internalType": "uint256",
							"name": "rewardPerBlockForStaking",
							"type": "uint256"
						},
						{
							"indexed": false,
							"internalType": "uint256",
							"name": "rewardPerBlockForOthers",
							"type": "uint256"
						}
					],
					"name": "NewRewardsPerBlock",
					"type": "event"
				},
				{
					"anonymous": false,
					"inputs": [
						{
							"indexed": true,
							"internalType": "address",
							"name": "user",
							"type": "address"
						},
						{
							"indexed": false,
							"internalType": "uint256",
							"name": "amount",
							"type": "uint256"
						},
						{
							"indexed": false,
							"internalType": "uint256",
							"name": "harvestedAmount",
							"type": "uint256"
						}
					],
					"name": "Withdraw",
					"type": "event"
				},
				{
					"inputs": [],
					"name": "NUMBER_PERIODS",
					"outputs": [
						{
							"internalType": "uint256",
							"name": "",
							"type": "uint256"
						}
					],
					"stateMutability": "view",
					"type": "function"
				},
				{
					"inputs": [],
					"name": "PRECISION_FACTOR",
					"outputs": [
						{
							"internalType": "uint256",
							"name": "",
							"type": "uint256"
						}
					],
					"stateMutability": "view",
					"type": "function"
				},
				{
					"inputs": [],
					"name": "START_BLOCK",
					"outputs": [
						{
							"internalType": "uint256",
							"name": "",
							"type": "uint256"
						}
					],
					"stateMutability": "view",
					"type": "function"
				},
				{
					"inputs": [],
					"name": "accTokenPerShare",
					"outputs": [
						{
							"internalType": "uint256",
							"name": "",
							"type": "uint256"
						}
					],
					"stateMutability": "view",
					"type": "function"
				},
				{
					"inputs": [
						{
							"internalType": "address",
							"name": "user",
							"type": "address"
						}
					],
					"name": "calculatePendingRewards",
					"outputs": [
						{
							"internalType": "uint256",
							"name": "",
							"type": "uint256"
						}
					],
					"stateMutability": "view",
					"type": "function"
				},
				{
					"inputs": [],
					"name": "currentPhase",
					"outputs": [
						{
							"internalType": "uint256",
							"name": "",
							"type": "uint256"
						}
					],
					"stateMutability": "view",
					"type": "function"
				},
				{
					"inputs": [
						{
							"internalType": "uint256",
							"name": "amount",
							"type": "uint256"
						}
					],
					"name": "deposit",
					"outputs": [],
					"stateMutability": "nonpayable",
					"type": "function"
				},
				{
					"inputs": [],
					"name": "endBlock",
					"outputs": [
						{
							"internalType": "uint256",
							"name": "",
							"type": "uint256"
						}
					],
					"stateMutability": "view",
					"type": "function"
				},
				{
					"inputs": [],
					"name": "harvestAndCompound",
					"outputs": [],
					"stateMutability": "nonpayable",
					"type": "function"
				},
				{
					"inputs": [],
					"name": "lastRewardBlock",
					"outputs": [
						{
							"internalType": "uint256",
							"name": "",
							"type": "uint256"
						}
					],
					"stateMutability": "view",
					"type": "function"
				},
				{
					"inputs": [],
					"name": "looksRareToken",
					"outputs": [
						{
							"internalType": "contract ITestToken",
							"name": "",
							"type": "address"
						}
					],
					"stateMutability": "view",
					"type": "function"
				},
				{
					"inputs": [],
					"name": "rewardPerBlockForOthers",
					"outputs": [
						{
							"internalType": "uint256",
							"name": "",
							"type": "uint256"
						}
					],
					"stateMutability": "view",
					"type": "function"
				},
				{
					"inputs": [],
					"name": "rewardPerBlockForStaking",
					"outputs": [
						{
							"internalType": "uint256",
							"name": "",
							"type": "uint256"
						}
					],
					"stateMutability": "view",
					"type": "function"
				},
				{
					"inputs": [
						{
							"internalType": "uint256",
							"name": "",
							"type": "uint256"
						}
					],
					"name": "stakingPeriod",
					"outputs": [
						{
							"internalType": "uint256",
							"name": "rewardPerBlockForStaking",
							"type": "uint256"
						},
						{
							"internalType": "uint256",
							"name": "rewardPerBlockForOthers",
							"type": "uint256"
						},
						{
							"internalType": "uint256",
							"name": "periodLengthInBlock",
							"type": "uint256"
						}
					],
					"stateMutability": "view",
					"type": "function"
				},
				{
					"inputs": [],
					"name": "tokenSplitter",
					"outputs": [
						{
							"internalType": "address",
							"name": "",
							"type": "address"
						}
					],
					"stateMutability": "view",
					"type": "function"
				},
				{
					"inputs": [],
					"name": "totalAmountStaked",
					"outputs": [
						{
							"internalType": "uint256",
							"name": "",
							"type": "uint256"
						}
					],
					"stateMutability": "view",
					"type": "function"
				},
				{
					"inputs": [],
					"name": "updatePool",
					"outputs": [],
					"stateMutability": "nonpayable",
					"type": "function"
				},
				{
					"inputs": [
						{
							"internalType": "address",
							"name": "",
							"type": "address"
						}
					],
					"name": "userInfo",
					"outputs": [
						{
							"internalType": "uint256",
							"name": "amount",
							"type": "uint256"
						},
						{
							"internalType": "uint256",
							"name": "rewardDebt",
							"type": "uint256"
						}
					],
					"stateMutability": "view",
					"type": "function"
				},
				{
					"inputs": [
						{
							"internalType": "uint256",
							"name": "amount",
							"type": "uint256"
						}
					],
					"name": "withdraw",
					"outputs": [],
					"stateMutability": "nonpayable",
					"type": "function"
				},
				{
					"inputs": [],
					"name": "withdrawAll",
					"outputs": [],
					"stateMutability": "nonpayable",
					"type": "function"
				}
			],
			"devdoc": {
				"kind": "dev",
				"methods": {
					"calculatePendingRewards(address)": {
						"params": {
							"user": "address of the user"
						},
						"returns": {
							"_0": "Pending rewards"
						}
					},
					"constructor": {
						"params": {
							"_looksRareToken": "LOOKS token address",
							"_numberPeriods": "number of periods with different rewards/lengthes (e.g., if 3 changes --> 4 periods)",
							"_periodLengthesInBlocks": "array of period lengthes",
							"_rewardsPerBlockForOthers": "array of rewards per block for other purposes (team + treasury + trading rewards)",
							"_rewardsPerBlockForStaking": "array of rewards per block for staking",
							"_startBlock": "start block for reward program",
							"_tokenSplitter": "token splitter contract address (for team and trading rewards)"
						}
					},
					"deposit(uint256)": {
						"params": {
							"amount": "amount to deposit (in LOOKS)"
						}
					},
					"withdraw(uint256)": {
						"params": {
							"amount": "amount to withdraw"
						}
					}
				},
				"title": "TokenDistributor",
				"version": 1
			},
			"evm": {
				"assembly": "    /* \"contracts/LooksRare/TokenDistributor.sol\":447:14993  contract TokenDistributor is ReentrancyGuard {... */\n  mstore(0x40, 0x0100)\n    /* \"contracts/LooksRare/TokenDistributor.sol\":3023:5022  constructor(... */\n  callvalue\n  dup1\n  iszero\n  tag_1\n  jumpi\n  0x00\n  dup1\n  revert\ntag_1:\n  pop\n  mload(0x40)\n  sub(codesize, bytecodeSize)\n  dup1\n  bytecodeSize\n  dup4\n  codecopy\n  dup2\n  dup2\n  add\n  0x40\n  mstore\n  dup2\n  add\n  swap1\n  tag_2\n  swap2\n  swap1\n  tag_3\n  jump\t// in\ntag_2:\n    /* \"@openzeppelin/contracts/security/ReentrancyGuard.sol\":1701:1702  1 */\n  0x01\n    /* \"@openzeppelin/contracts/security/ReentrancyGuard.sol\":1806:1813  _status */\n  0x00\n    /* \"@openzeppelin/contracts/security/ReentrancyGuard.sol\":1806:1828  _status = _NOT_ENTERED */\n  dup2\n  swap1\n  sstore\n  pop\n    /* \"contracts/LooksRare/TokenDistributor.sol\":3398:3412  _numberPeriods */\n  dup1\n    /* \"contracts/LooksRare/TokenDistributor.sol\":3364:3387  _periodLengthesInBlocks */\n  dup3\n    /* \"contracts/LooksRare/TokenDistributor.sol\":3364:3394  _periodLengthesInBlocks.length */\n  mload\n    /* \"contracts/LooksRare/TokenDistributor.sol\":3364:3412  _periodLengthesInBlocks.length == _numberPeriods */\n  eq\n    /* \"contracts/LooksRare/TokenDistributor.sol\":3363:3487  (_periodLengthesInBlocks.length == _numberPeriods) &&... */\n  dup1\n  iszero\n  tag_8\n  jumpi\n  pop\n    /* \"contracts/LooksRare/TokenDistributor.sol\":3472:3486  _numberPeriods */\n  dup1\n    /* \"contracts/LooksRare/TokenDistributor.sol\":3435:3461  _rewardsPerBlockForStaking */\n  dup5\n    /* \"contracts/LooksRare/TokenDistributor.sol\":3435:3468  _rewardsPerBlockForStaking.length */\n  mload\n    /* \"contracts/LooksRare/TokenDistributor.sol\":3435:3486  _rewardsPerBlockForStaking.length == _numberPeriods */\n  eq\n    /* \"contracts/LooksRare/TokenDistributor.sol\":3363:3487  (_periodLengthesInBlocks.length == _numberPeriods) &&... */\ntag_8:\n    /* \"contracts/LooksRare/TokenDistributor.sol\":3363:3561  (_periodLengthesInBlocks.length == _numberPeriods) &&... */\n  dup1\n  iszero\n  tag_9\n  jumpi\n  pop\n    /* \"contracts/LooksRare/TokenDistributor.sol\":3546:3560  _numberPeriods */\n  dup1\n    /* \"contracts/LooksRare/TokenDistributor.sol\":3509:3535  _rewardsPerBlockForStaking */\n  dup5\n    /* \"contracts/LooksRare/TokenDistributor.sol\":3509:3542  _rewardsPerBlockForStaking.length */\n  mload\n    /* \"contracts/LooksRare/TokenDistributor.sol\":3509:3560  _rewardsPerBlockForStaking.length == _numberPeriods */\n  eq\n    /* \"contracts/LooksRare/TokenDistributor.sol\":3363:3561  (_periodLengthesInBlocks.length == _numberPeriods) &&... */\ntag_9:\n    /* \"contracts/LooksRare/TokenDistributor.sol\":3341:3635  require(... */\n  tag_10\n  jumpi\n  mload(0x40)\n  0x08c379a000000000000000000000000000000000000000000000000000000000\n  dup2\n  mstore\n  0x04\n  add\n  tag_11\n  swap1\n  tag_12\n  jump\t// in\ntag_11:\n  mload(0x40)\n  dup1\n  swap2\n  sub\n  swap1\n  revert\ntag_10:\n    /* \"contracts/LooksRare/TokenDistributor.sol\":3693:3721  uint256 nonCirculatingSupply */\n  0x00\n    /* \"contracts/LooksRare/TokenDistributor.sol\":3791:3806  _looksRareToken */\n  dup8\n    /* \"contracts/LooksRare/TokenDistributor.sol\":3780:3819  ITestToken(_looksRareToken).totalSupply */\n  0xffffffffffffffffffffffffffffffffffffffff\n  and\n  0x18160ddd\n    /* \"contracts/LooksRare/TokenDistributor.sol\":3780:3821  ITestToken(_looksRareToken).totalSupply() */\n  mload(0x40)\n  dup2\n  0xffffffff\n  and\n  0xe0\n  shl\n  dup2\n  mstore\n  0x04\n  add\n  0x20\n  mload(0x40)\n  dup1\n  dup4\n  sub\n  dup2\n  dup7\n  gas\n  staticcall\n  iszero\n  dup1\n  iszero\n  tag_14\n  jumpi\n  returndatasize\n  0x00\n  dup1\n  returndatacopy\n  revert(0x00, returndatasize)\ntag_14:\n  pop\n  pop\n  pop\n  pop\n  mload(0x40)\n  returndatasize\n  not(0x1f)\n  0x1f\n  dup3\n  add\n  and\n  dup3\n  add\n  dup1\n  0x40\n  mstore\n  pop\n  dup2\n  add\n  swap1\n  tag_15\n  swap2\n  swap1\n  tag_16\n  jump\t// in\ntag_15:\n    /* \"contracts/LooksRare/TokenDistributor.sol\":3735:3750  _looksRareToken */\n  dup9\n    /* \"contracts/LooksRare/TokenDistributor.sol\":3724:3762  ITestToken(_looksRareToken).SUPPLY_CAP */\n  0xffffffffffffffffffffffffffffffffffffffff\n  and\n  0x0cfccc83\n    /* \"contracts/LooksRare/TokenDistributor.sol\":3724:3764  ITestToken(_looksRareToken).SUPPLY_CAP() */\n  mload(0x40)\n  dup2\n  0xffffffff\n  and\n  0xe0\n  shl\n  dup2\n  mstore\n  0x04\n  add\n  0x20\n  mload(0x40)\n  dup1\n  dup4\n  sub\n  dup2\n  dup7\n  gas\n  staticcall\n  iszero\n  dup1\n  iszero\n  tag_18\n  jumpi\n  returndatasize\n  0x00\n  dup1\n  returndatacopy\n  revert(0x00, returndatasize)\ntag_18:\n  pop\n  pop\n  pop\n  pop\n  mload(0x40)\n  returndatasize\n  not(0x1f)\n  0x1f\n  dup3\n  add\n  and\n  dup3\n  add\n  dup1\n  0x40\n  mstore\n  pop\n  dup2\n  add\n  swap1\n  tag_19\n  swap2\n  swap1\n  tag_16\n  jump\t// in\ntag_19:\n    /* \"contracts/LooksRare/TokenDistributor.sol\":3724:3821  ITestToken(_looksRareToken).SUPPLY_CAP() -... */\n  tag_20\n  swap2\n  swap1\n  tag_21\n  jump\t// in\ntag_20:\n    /* \"contracts/LooksRare/TokenDistributor.sol\":3693:3821  uint256 nonCirculatingSupply = ITestToken(_looksRareToken).SUPPLY_CAP() -... */\n  swap1\n  pop\n    /* \"contracts/LooksRare/TokenDistributor.sol\":3834:3864  uint256 amountTokensToBeMinted */\n  0x00\n    /* \"contracts/LooksRare/TokenDistributor.sol\":3882:3891  uint256 i */\n  dup1\n    /* \"contracts/LooksRare/TokenDistributor.sol\":3894:3895  0 */\n  0x00\n    /* \"contracts/LooksRare/TokenDistributor.sol\":3882:3895  uint256 i = 0 */\n  swap1\n  pop\n    /* \"contracts/LooksRare/TokenDistributor.sol\":3877:4409  for (uint256 i = 0; i < _numberPeriods; i++) {... */\ntag_22:\n    /* \"contracts/LooksRare/TokenDistributor.sol\":3901:3915  _numberPeriods */\n  dup4\n    /* \"contracts/LooksRare/TokenDistributor.sol\":3897:3898  i */\n  dup2\n    /* \"contracts/LooksRare/TokenDistributor.sol\":3897:3915  i < _numberPeriods */\n  lt\n    /* \"contracts/LooksRare/TokenDistributor.sol\":3877:4409  for (uint256 i = 0; i < _numberPeriods; i++) {... */\n  iszero\n  tag_23\n  jumpi\n    /* \"contracts/LooksRare/TokenDistributor.sol\":4092:4115  _periodLengthesInBlocks */\n  dup5\n    /* \"contracts/LooksRare/TokenDistributor.sol\":4116:4117  i */\n  dup2\n    /* \"contracts/LooksRare/TokenDistributor.sol\":4092:4118  _periodLengthesInBlocks[i] */\n  dup2\n  mload\n  dup2\n  lt\n  tag_25\n  jumpi\n  tag_26\n  tag_27\n  jump\t// in\ntag_26:\ntag_25:\n  0x20\n  mul\n  0x20\n  add\n  add\n  mload\n    /* \"contracts/LooksRare/TokenDistributor.sol\":4061:4086  _rewardsPerBlockForOthers */\n  dup7\n    /* \"contracts/LooksRare/TokenDistributor.sol\":4087:4088  i */\n  dup3\n    /* \"contracts/LooksRare/TokenDistributor.sol\":4061:4089  _rewardsPerBlockForOthers[i] */\n  dup2\n  mload\n  dup2\n  lt\n  tag_28\n  jumpi\n  tag_29\n  tag_27\n  jump\t// in\ntag_29:\ntag_28:\n  0x20\n  mul\n  0x20\n  add\n  add\n  mload\n    /* \"contracts/LooksRare/TokenDistributor.sol\":4061:4118  _rewardsPerBlockForOthers[i] * _periodLengthesInBlocks[i] */\n  tag_30\n  swap2\n  swap1\n  tag_31\n  jump\t// in\ntag_30:\n    /* \"contracts/LooksRare/TokenDistributor.sol\":4013:4036  _periodLengthesInBlocks */\n  dup6\n    /* \"contracts/LooksRare/TokenDistributor.sol\":4037:4038  i */\n  dup3\n    /* \"contracts/LooksRare/TokenDistributor.sol\":4013:4039  _periodLengthesInBlocks[i] */\n  dup2\n  mload\n  dup2\n  lt\n  tag_32\n  jumpi\n  tag_33\n  tag_27\n  jump\t// in\ntag_33:\ntag_32:\n  0x20\n  mul\n  0x20\n  add\n  add\n  mload\n    /* \"contracts/LooksRare/TokenDistributor.sol\":3981:4007  _rewardsPerBlockForStaking */\n  dup9\n    /* \"contracts/LooksRare/TokenDistributor.sol\":4008:4009  i */\n  dup4\n    /* \"contracts/LooksRare/TokenDistributor.sol\":3981:4010  _rewardsPerBlockForStaking[i] */\n  dup2\n  mload\n  dup2\n  lt\n  tag_34\n  jumpi\n  tag_35\n  tag_27\n  jump\t// in\ntag_35:\ntag_34:\n  0x20\n  mul\n  0x20\n  add\n  add\n  mload\n    /* \"contracts/LooksRare/TokenDistributor.sol\":3981:4039  _rewardsPerBlockForStaking[i] * _periodLengthesInBlocks[i] */\n  tag_36\n  swap2\n  swap1\n  tag_31\n  jump\t// in\ntag_36:\n    /* \"contracts/LooksRare/TokenDistributor.sol\":3980:4119  (_rewardsPerBlockForStaking[i] * _periodLengthesInBlocks[i]) +... */\n  tag_37\n  swap2\n  swap1\n  tag_38\n  jump\t// in\ntag_37:\n    /* \"contracts/LooksRare/TokenDistributor.sol\":3937:4119  amountTokensToBeMinted +=... */\n  dup3\n  tag_39\n  swap2\n  swap1\n  tag_38\n  jump\t// in\ntag_39:\n  swap2\n  pop\n    /* \"contracts/LooksRare/TokenDistributor.sol\":4155:4397  StakingPeriod({... */\n  mload(0x40)\n  dup1\n  0x60\n  add\n  0x40\n  mstore\n  dup1\n    /* \"contracts/LooksRare/TokenDistributor.sol\":4214:4240  _rewardsPerBlockForStaking */\n  dup9\n    /* \"contracts/LooksRare/TokenDistributor.sol\":4241:4242  i */\n  dup4\n    /* \"contracts/LooksRare/TokenDistributor.sol\":4214:4243  _rewardsPerBlockForStaking[i] */\n  dup2\n  mload\n  dup2\n  lt\n  tag_40\n  jumpi\n  tag_41\n  tag_27\n  jump\t// in\ntag_41:\ntag_40:\n  0x20\n  mul\n  0x20\n  add\n  add\n  mload\n    /* \"contracts/LooksRare/TokenDistributor.sol\":4155:4397  StakingPeriod({... */\n  dup2\n  mstore\n  0x20\n  add\n    /* \"contracts/LooksRare/TokenDistributor.sol\":4287:4312  _rewardsPerBlockForOthers */\n  dup8\n    /* \"contracts/LooksRare/TokenDistributor.sol\":4313:4314  i */\n  dup4\n    /* \"contracts/LooksRare/TokenDistributor.sol\":4287:4315  _rewardsPerBlockForOthers[i] */\n  dup2\n  mload\n  dup2\n  lt\n  tag_42\n  jumpi\n  tag_43\n  tag_27\n  jump\t// in\ntag_43:\ntag_42:\n  0x20\n  mul\n  0x20\n  add\n  add\n  mload\n    /* \"contracts/LooksRare/TokenDistributor.sol\":4155:4397  StakingPeriod({... */\n  dup2\n  mstore\n  0x20\n  add\n    /* \"contracts/LooksRare/TokenDistributor.sol\":4355:4378  _periodLengthesInBlocks */\n  dup7\n    /* \"contracts/LooksRare/TokenDistributor.sol\":4379:4380  i */\n  dup4\n    /* \"contracts/LooksRare/TokenDistributor.sol\":4355:4381  _periodLengthesInBlocks[i] */\n  dup2\n  mload\n  dup2\n  lt\n  tag_44\n  jumpi\n  tag_45\n  tag_27\n  jump\t// in\ntag_45:\ntag_44:\n  0x20\n  mul\n  0x20\n  add\n  add\n  mload\n    /* \"contracts/LooksRare/TokenDistributor.sol\":4155:4397  StakingPeriod({... */\n  dup2\n  mstore\n  pop\n    /* \"contracts/LooksRare/TokenDistributor.sol\":4136:4149  stakingPeriod */\n  0x08\n    /* \"contracts/LooksRare/TokenDistributor.sol\":4136:4152  stakingPeriod[i] */\n  0x00\n    /* \"contracts/LooksRare/TokenDistributor.sol\":4150:4151  i */\n  dup4\n    /* \"contracts/LooksRare/TokenDistributor.sol\":4136:4152  stakingPeriod[i] */\n  dup2\n  mstore\n  0x20\n  add\n  swap1\n  dup2\n  mstore\n  0x20\n  add\n  0x00\n  keccak256\n    /* \"contracts/LooksRare/TokenDistributor.sol\":4136:4397  stakingPeriod[i] = StakingPeriod({... */\n  0x00\n  dup3\n  add\n  mload\n  dup2\n  0x00\n  add\n  sstore\n  0x20\n  dup3\n  add\n  mload\n  dup2\n  0x01\n  add\n  sstore\n  0x40\n  dup3\n  add\n  mload\n  dup2\n  0x02\n  add\n  sstore\n  swap1\n  pop\n  pop\n    /* \"contracts/LooksRare/TokenDistributor.sol\":3917:3920  i++ */\n  dup1\n  dup1\n  tag_46\n  swap1\n  tag_47\n  jump\t// in\ntag_46:\n  swap2\n  pop\n  pop\n    /* \"contracts/LooksRare/TokenDistributor.sol\":3877:4409  for (uint256 i = 0; i < _numberPeriods; i++) {... */\n  jump(tag_22)\ntag_23:\n  pop\n    /* \"contracts/LooksRare/TokenDistributor.sol\":4455:4475  nonCirculatingSupply */\n  dup2\n    /* \"contracts/LooksRare/TokenDistributor.sol\":4429:4451  amountTokensToBeMinted */\n  dup2\n    /* \"contracts/LooksRare/TokenDistributor.sol\":4429:4475  amountTokensToBeMinted == nonCirculatingSupply */\n  eq\n    /* \"contracts/LooksRare/TokenDistributor.sol\":4421:4516  require(amountTokensToBeMinted == nonCirculatingSupply, \"Distributor: Wrong reward parameters\") */\n  tag_48\n  jumpi\n  mload(0x40)\n  0x08c379a000000000000000000000000000000000000000000000000000000000\n  dup2\n  mstore\n  0x04\n  add\n  tag_49\n  swap1\n  tag_50\n  jump\t// in\ntag_49:\n  mload(0x40)\n  dup1\n  swap2\n  sub\n  swap1\n  revert\ntag_48:\n    /* \"contracts/LooksRare/TokenDistributor.sol\":4585:4600  _looksRareToken */\n  dup9\n    /* \"contracts/LooksRare/TokenDistributor.sol\":4557:4601  looksRareToken = ITestToken(_looksRareToken) */\n  0xffffffffffffffffffffffffffffffffffffffff\n  and\n  0x80\n  dup2\n  0xffffffffffffffffffffffffffffffffffffffff\n  and\n  dup2\n  mstore\n  pop\n  pop\n    /* \"contracts/LooksRare/TokenDistributor.sol\":4628:4642  _tokenSplitter */\n  dup8\n    /* \"contracts/LooksRare/TokenDistributor.sol\":4612:4642  tokenSplitter = _tokenSplitter */\n  0xffffffffffffffffffffffffffffffffffffffff\n  and\n  0xa0\n  dup2\n  0xffffffffffffffffffffffffffffffffffffffff\n  and\n  dup2\n  mstore\n  pop\n  pop\n    /* \"contracts/LooksRare/TokenDistributor.sol\":4680:4706  _rewardsPerBlockForStaking */\n  dup6\n    /* \"contracts/LooksRare/TokenDistributor.sol\":4707:4708  0 */\n  0x00\n    /* \"contracts/LooksRare/TokenDistributor.sol\":4680:4709  _rewardsPerBlockForStaking[0] */\n  dup2\n  mload\n  dup2\n  lt\n  tag_51\n  jumpi\n  tag_52\n  tag_27\n  jump\t// in\ntag_52:\ntag_51:\n  0x20\n  mul\n  0x20\n  add\n  add\n  mload\n    /* \"contracts/LooksRare/TokenDistributor.sol\":4653:4677  rewardPerBlockForStaking */\n  0x06\n    /* \"contracts/LooksRare/TokenDistributor.sol\":4653:4709  rewardPerBlockForStaking = _rewardsPerBlockForStaking[0] */\n  dup2\n  swap1\n  sstore\n  pop\n    /* \"contracts/LooksRare/TokenDistributor.sol\":4746:4771  _rewardsPerBlockForOthers */\n  dup5\n    /* \"contracts/LooksRare/TokenDistributor.sol\":4772:4773  0 */\n  0x00\n    /* \"contracts/LooksRare/TokenDistributor.sol\":4746:4774  _rewardsPerBlockForOthers[0] */\n  dup2\n  mload\n  dup2\n  lt\n  tag_53\n  jumpi\n  tag_54\n  tag_27\n  jump\t// in\ntag_54:\ntag_53:\n  0x20\n  mul\n  0x20\n  add\n  add\n  mload\n    /* \"contracts/LooksRare/TokenDistributor.sol\":4720:4743  rewardPerBlockForOthers */\n  0x05\n    /* \"contracts/LooksRare/TokenDistributor.sol\":4720:4774  rewardPerBlockForOthers = _rewardsPerBlockForOthers[0] */\n  dup2\n  swap1\n  sstore\n  pop\n    /* \"contracts/LooksRare/TokenDistributor.sol\":4801:4812  _startBlock */\n  dup7\n    /* \"contracts/LooksRare/TokenDistributor.sol\":4787:4812  START_BLOCK = _startBlock */\n  0xe0\n  dup2\n  dup2\n  mstore\n  pop\n  pop\n    /* \"contracts/LooksRare/TokenDistributor.sol\":4848:4871  _periodLengthesInBlocks */\n  dup4\n    /* \"contracts/LooksRare/TokenDistributor.sol\":4872:4873  0 */\n  0x00\n    /* \"contracts/LooksRare/TokenDistributor.sol\":4848:4874  _periodLengthesInBlocks[0] */\n  dup2\n  mload\n  dup2\n  lt\n  tag_55\n  jumpi\n  tag_56\n  tag_27\n  jump\t// in\ntag_56:\ntag_55:\n  0x20\n  mul\n  0x20\n  add\n  add\n  mload\n    /* \"contracts/LooksRare/TokenDistributor.sol\":4834:4845  _startBlock */\n  dup8\n    /* \"contracts/LooksRare/TokenDistributor.sol\":4834:4874  _startBlock + _periodLengthesInBlocks[0] */\n  tag_57\n  swap2\n  swap1\n  tag_38\n  jump\t// in\ntag_57:\n    /* \"contracts/LooksRare/TokenDistributor.sol\":4823:4831  endBlock */\n  0x03\n    /* \"contracts/LooksRare/TokenDistributor.sol\":4823:4874  endBlock = _startBlock + _periodLengthesInBlocks[0] */\n  dup2\n  swap1\n  sstore\n  pop\n    /* \"contracts/LooksRare/TokenDistributor.sol\":4904:4918  _numberPeriods */\n  dup3\n    /* \"contracts/LooksRare/TokenDistributor.sol\":4887:4918  NUMBER_PERIODS = _numberPeriods */\n  0xc0\n  dup2\n  dup2\n  mstore\n  pop\n  pop\n    /* \"contracts/LooksRare/TokenDistributor.sol\":5003:5014  _startBlock */\n  dup7\n    /* \"contracts/LooksRare/TokenDistributor.sol\":4985:5000  lastRewardBlock */\n  0x04\n    /* \"contracts/LooksRare/TokenDistributor.sol\":4985:5014  lastRewardBlock = _startBlock */\n  dup2\n  swap1\n  sstore\n  pop\n    /* \"contracts/LooksRare/TokenDistributor.sol\":3330:5022  {... */\n  pop\n  pop\n    /* \"contracts/LooksRare/TokenDistributor.sol\":3023:5022  constructor(... */\n  pop\n  pop\n  pop\n  pop\n  pop\n  pop\n  pop\n    /* \"contracts/LooksRare/TokenDistributor.sol\":447:14993  contract TokenDistributor is ReentrancyGuard {... */\n  jump(tag_58)\n    /* \"#utility.yul\":7:82   */\ntag_59:\n    /* \"#utility.yul\":40:46   */\n  0x00\n    /* \"#utility.yul\":73:75   */\n  0x40\n    /* \"#utility.yul\":67:76   */\n  mload\n    /* \"#utility.yul\":57:76   */\n  swap1\n  pop\n    /* \"#utility.yul\":7:82   */\n  swap1\n  jump\t// out\n    /* \"#utility.yul\":88:205   */\ntag_60:\n    /* \"#utility.yul\":197:198   */\n  0x00\n    /* \"#utility.yul\":194:195   */\n  dup1\n    /* \"#utility.yul\":187:199   */\n  revert\n    /* \"#utility.yul\":211:328   */\ntag_61:\n    /* \"#utility.yul\":320:321   */\n  0x00\n    /* \"#utility.yul\":317:318   */\n  dup1\n    /* \"#utility.yul\":310:322   */\n  revert\n    /* \"#utility.yul\":334:460   */\ntag_62:\n    /* \"#utility.yul\":371:378   */\n  0x00\n    /* \"#utility.yul\":411:453   */\n  0xffffffffffffffffffffffffffffffffffffffff\n    /* \"#utility.yul\":404:409   */\n  dup3\n    /* \"#utility.yul\":400:454   */\n  and\n    /* \"#utility.yul\":389:454   */\n  swap1\n  pop\n    /* \"#utility.yul\":334:460   */\n  swap2\n  swap1\n  pop\n  jump\t// out\n    /* \"#utility.yul\":466:562   */\ntag_63:\n    /* \"#utility.yul\":503:510   */\n  0x00\n    /* \"#utility.yul\":532:556   */\n  tag_90\n    /* \"#utility.yul\":550:555   */\n  dup3\n    /* \"#utility.yul\":532:556   */\n  tag_62\n  jump\t// in\ntag_90:\n    /* \"#utility.yul\":521:556   */\n  swap1\n  pop\n    /* \"#utility.yul\":466:562   */\n  swap2\n  swap1\n  pop\n  jump\t// out\n    /* \"#utility.yul\":568:690   */\ntag_64:\n    /* \"#utility.yul\":641:665   */\n  tag_92\n    /* \"#utility.yul\":659:664   */\n  dup2\n    /* \"#utility.yul\":641:665   */\n  tag_63\n  jump\t// in\ntag_92:\n    /* \"#utility.yul\":634:639   */\n  dup2\n    /* \"#utility.yul\":631:666   */\n  eq\n    /* \"#utility.yul\":621:684   */\n  tag_93\n  jumpi\n    /* \"#utility.yul\":680:681   */\n  0x00\n    /* \"#utility.yul\":677:678   */\n  dup1\n    /* \"#utility.yul\":670:682   */\n  revert\n    /* \"#utility.yul\":621:684   */\ntag_93:\n    /* \"#utility.yul\":568:690   */\n  pop\n  jump\t// out\n    /* \"#utility.yul\":696:839   */\ntag_65:\n    /* \"#utility.yul\":753:758   */\n  0x00\n    /* \"#utility.yul\":784:790   */\n  dup2\n    /* \"#utility.yul\":778:791   */\n  mload\n    /* \"#utility.yul\":769:791   */\n  swap1\n  pop\n    /* \"#utility.yul\":800:833   */\n  tag_95\n    /* \"#utility.yul\":827:832   */\n  dup2\n    /* \"#utility.yul\":800:833   */\n  tag_64\n  jump\t// in\ntag_95:\n    /* \"#utility.yul\":696:839   */\n  swap3\n  swap2\n  pop\n  pop\n  jump\t// out\n    /* \"#utility.yul\":845:922   */\ntag_66:\n    /* \"#utility.yul\":882:889   */\n  0x00\n    /* \"#utility.yul\":911:916   */\n  dup2\n    /* \"#utility.yul\":900:916   */\n  swap1\n  pop\n    /* \"#utility.yul\":845:922   */\n  swap2\n  swap1\n  pop\n  jump\t// out\n    /* \"#utility.yul\":928:1050   */\ntag_67:\n    /* \"#utility.yul\":1001:1025   */\n  tag_98\n    /* \"#utility.yul\":1019:1024   */\n  dup2\n    /* \"#utility.yul\":1001:1025   */\n  tag_66\n  jump\t// in\ntag_98:\n    /* \"#utility.yul\":994:999   */\n  dup2\n    /* \"#utility.yul\":991:1026   */\n  eq\n    /* \"#utility.yul\":981:1044   */\n  tag_99\n  jumpi\n    /* \"#utility.yul\":1040:1041   */\n  0x00\n    /* \"#utility.yul\":1037:1038   */\n  dup1\n    /* \"#utility.yul\":1030:1042   */\n  revert\n    /* \"#utility.yul\":981:1044   */\ntag_99:\n    /* \"#utility.yul\":928:1050   */\n  pop\n  jump\t// out\n    /* \"#utility.yul\":1056:1199   */\ntag_68:\n    /* \"#utility.yul\":1113:1118   */\n  0x00\n    /* \"#utility.yul\":1144:1150   */\n  dup2\n    /* \"#utility.yul\":1138:1151   */\n  mload\n    /* \"#utility.yul\":1129:1151   */\n  swap1\n  pop\n    /* \"#utility.yul\":1160:1193   */\n  tag_101\n    /* \"#utility.yul\":1187:1192   */\n  dup2\n    /* \"#utility.yul\":1160:1193   */\n  tag_67\n  jump\t// in\ntag_101:\n    /* \"#utility.yul\":1056:1199   */\n  swap3\n  swap2\n  pop\n  pop\n  jump\t// out\n    /* \"#utility.yul\":1205:1322   */\ntag_69:\n    /* \"#utility.yul\":1314:1315   */\n  0x00\n    /* \"#utility.yul\":1311:1312   */\n  dup1\n    /* \"#utility.yul\":1304:1316   */\n  revert\n    /* \"#utility.yul\":1328:1430   */\ntag_70:\n    /* \"#utility.yul\":1369:1375   */\n  0x00\n    /* \"#utility.yul\":1420:1422   */\n  0x1f\n    /* \"#utility.yul\":1416:1423   */\n  not\n    /* \"#utility.yul\":1411:1413   */\n  0x1f\n    /* \"#utility.yul\":1404:1409   */\n  dup4\n    /* \"#utility.yul\":1400:1414   */\n  add\n    /* \"#utility.yul\":1396:1424   */\n  and\n    /* \"#utility.yul\":1386:1424   */\n  swap1\n  pop\n    /* \"#utility.yul\":1328:1430   */\n  swap2\n  swap1\n  pop\n  jump\t// out\n    /* \"#utility.yul\":1436:1616   */\ntag_71:\n    /* \"#utility.yul\":1484:1561   */\n  0x4e487b7100000000000000000000000000000000000000000000000000000000\n    /* \"#utility.yul\":1481:1482   */\n  0x00\n    /* \"#utility.yul\":1474:1562   */\n  mstore\n    /* \"#utility.yul\":1581:1585   */\n  0x41\n    /* \"#utility.yul\":1578:1579   */\n  0x04\n    /* \"#utility.yul\":1571:1586   */\n  mstore\n    /* \"#utility.yul\":1605:1609   */\n  0x24\n    /* \"#utility.yul\":1602:1603   */\n  0x00\n    /* \"#utility.yul\":1595:1610   */\n  revert\n    /* \"#utility.yul\":1622:1903   */\ntag_72:\n    /* \"#utility.yul\":1705:1732   */\n  tag_106\n    /* \"#utility.yul\":1727:1731   */\n  dup3\n    /* \"#utility.yul\":1705:1732   */\n  tag_70\n  jump\t// in\ntag_106:\n    /* \"#utility.yul\":1697:1703   */\n  dup2\n    /* \"#utility.yul\":1693:1733   */\n  add\n    /* \"#utility.yul\":1835:1841   */\n  dup2\n    /* \"#utility.yul\":1823:1833   */\n  dup2\n    /* \"#utility.yul\":1820:1842   */\n  lt\n    /* \"#utility.yul\":1799:1817   */\n  0xffffffffffffffff\n    /* \"#utility.yul\":1787:1797   */\n  dup3\n    /* \"#utility.yul\":1784:1818   */\n  gt\n    /* \"#utility.yul\":1781:1843   */\n  or\n    /* \"#utility.yul\":1778:1866   */\n  iszero\n  tag_107\n  jumpi\n    /* \"#utility.yul\":1846:1864   */\n  tag_108\n  tag_71\n  jump\t// in\ntag_108:\n    /* \"#utility.yul\":1778:1866   */\ntag_107:\n    /* \"#utility.yul\":1886:1896   */\n  dup1\n    /* \"#utility.yul\":1882:1884   */\n  0x40\n    /* \"#utility.yul\":1875:1897   */\n  mstore\n    /* \"#utility.yul\":1665:1903   */\n  pop\n    /* \"#utility.yul\":1622:1903   */\n  pop\n  pop\n  jump\t// out\n    /* \"#utility.yul\":1909:2038   */\ntag_73:\n    /* \"#utility.yul\":1943:1949   */\n  0x00\n    /* \"#utility.yul\":1970:1990   */\n  tag_110\n  tag_59\n  jump\t// in\ntag_110:\n    /* \"#utility.yul\":1960:1990   */\n  swap1\n  pop\n    /* \"#utility.yul\":1999:2032   */\n  tag_111\n    /* \"#utility.yul\":2027:2031   */\n  dup3\n    /* \"#utility.yul\":2019:2025   */\n  dup3\n    /* \"#utility.yul\":1999:2032   */\n  tag_72\n  jump\t// in\ntag_111:\n    /* \"#utility.yul\":1909:2038   */\n  swap2\n  swap1\n  pop\n  jump\t// out\n    /* \"#utility.yul\":2044:2355   */\ntag_74:\n    /* \"#utility.yul\":2121:2125   */\n  0x00\n    /* \"#utility.yul\":2211:2229   */\n  0xffffffffffffffff\n    /* \"#utility.yul\":2203:2209   */\n  dup3\n    /* \"#utility.yul\":2200:2230   */\n  gt\n    /* \"#utility.yul\":2197:2253   */\n  iszero\n  tag_113\n  jumpi\n    /* \"#utility.yul\":2233:2251   */\n  tag_114\n  tag_71\n  jump\t// in\ntag_114:\n    /* \"#utility.yul\":2197:2253   */\ntag_113:\n    /* \"#utility.yul\":2283:2287   */\n  0x20\n    /* \"#utility.yul\":2275:2281   */\n  dup3\n    /* \"#utility.yul\":2271:2288   */\n  mul\n    /* \"#utility.yul\":2263:2288   */\n  swap1\n  pop\n    /* \"#utility.yul\":2343:2347   */\n  0x20\n    /* \"#utility.yul\":2337:2341   */\n  dup2\n    /* \"#utility.yul\":2333:2348   */\n  add\n    /* \"#utility.yul\":2325:2348   */\n  swap1\n  pop\n    /* \"#utility.yul\":2044:2355   */\n  swap2\n  swap1\n  pop\n  jump\t// out\n    /* \"#utility.yul\":2361:2478   */\ntag_75:\n    /* \"#utility.yul\":2470:2471   */\n  0x00\n    /* \"#utility.yul\":2467:2468   */\n  dup1\n    /* \"#utility.yul\":2460:2472   */\n  revert\n    /* \"#utility.yul\":2501:3233   */\ntag_76:\n    /* \"#utility.yul\":2608:2613   */\n  0x00\n    /* \"#utility.yul\":2633:2714   */\n  tag_117\n    /* \"#utility.yul\":2649:2713   */\n  tag_118\n    /* \"#utility.yul\":2706:2712   */\n  dup5\n    /* \"#utility.yul\":2649:2713   */\n  tag_74\n  jump\t// in\ntag_118:\n    /* \"#utility.yul\":2633:2714   */\n  tag_73\n  jump\t// in\ntag_117:\n    /* \"#utility.yul\":2624:2714   */\n  swap1\n  pop\n    /* \"#utility.yul\":2734:2739   */\n  dup1\n    /* \"#utility.yul\":2763:2769   */\n  dup4\n    /* \"#utility.yul\":2756:2761   */\n  dup3\n    /* \"#utility.yul\":2749:2770   */\n  mstore\n    /* \"#utility.yul\":2797:2801   */\n  0x20\n    /* \"#utility.yul\":2790:2795   */\n  dup3\n    /* \"#utility.yul\":2786:2802   */\n  add\n    /* \"#utility.yul\":2779:2802   */\n  swap1\n  pop\n    /* \"#utility.yul\":2850:2854   */\n  0x20\n    /* \"#utility.yul\":2842:2848   */\n  dup5\n    /* \"#utility.yul\":2838:2855   */\n  mul\n    /* \"#utility.yul\":2830:2836   */\n  dup4\n    /* \"#utility.yul\":2826:2856   */\n  add\n    /* \"#utility.yul\":2879:2882   */\n  dup6\n    /* \"#utility.yul\":2871:2877   */\n  dup2\n    /* \"#utility.yul\":2868:2883   */\n  gt\n    /* \"#utility.yul\":2865:2987   */\n  iszero\n  tag_119\n  jumpi\n    /* \"#utility.yul\":2898:2977   */\n  tag_120\n  tag_75\n  jump\t// in\ntag_120:\n    /* \"#utility.yul\":2865:2987   */\ntag_119:\n    /* \"#utility.yul\":3013:3019   */\n  dup4\n    /* \"#utility.yul\":2996:3227   */\ntag_121:\n    /* \"#utility.yul\":3030:3036   */\n  dup2\n    /* \"#utility.yul\":3025:3028   */\n  dup2\n    /* \"#utility.yul\":3022:3037   */\n  lt\n    /* \"#utility.yul\":2996:3227   */\n  iszero\n  tag_123\n  jumpi\n    /* \"#utility.yul\":3105:3108   */\n  dup1\n    /* \"#utility.yul\":3134:3182   */\n  tag_124\n    /* \"#utility.yul\":3178:3181   */\n  dup9\n    /* \"#utility.yul\":3166:3176   */\n  dup3\n    /* \"#utility.yul\":3134:3182   */\n  tag_68\n  jump\t// in\ntag_124:\n    /* \"#utility.yul\":3129:3132   */\n  dup5\n    /* \"#utility.yul\":3122:3183   */\n  mstore\n    /* \"#utility.yul\":3212:3216   */\n  0x20\n    /* \"#utility.yul\":3207:3210   */\n  dup5\n    /* \"#utility.yul\":3203:3217   */\n  add\n    /* \"#utility.yul\":3196:3217   */\n  swap4\n  pop\n    /* \"#utility.yul\":3072:3227   */\n  pop\n    /* \"#utility.yul\":3056:3060   */\n  0x20\n    /* \"#utility.yul\":3051:3054   */\n  dup2\n    /* \"#utility.yul\":3047:3061   */\n  add\n    /* \"#utility.yul\":3040:3061   */\n  swap1\n  pop\n    /* \"#utility.yul\":2996:3227   */\n  jump(tag_121)\ntag_123:\n    /* \"#utility.yul\":3000:3021   */\n  pop\n    /* \"#utility.yul\":2614:3233   */\n  pop\n  pop\n    /* \"#utility.yul\":2501:3233   */\n  swap4\n  swap3\n  pop\n  pop\n  pop\n  jump\t// out\n    /* \"#utility.yul\":3256:3641   */\ntag_77:\n    /* \"#utility.yul\":3338:3343   */\n  0x00\n    /* \"#utility.yul\":3387:3390   */\n  dup3\n    /* \"#utility.yul\":3380:3384   */\n  0x1f\n    /* \"#utility.yul\":3372:3378   */\n  dup4\n    /* \"#utility.yul\":3368:3385   */\n  add\n    /* \"#utility.yul\":3364:3391   */\n  slt\n    /* \"#utility.yul\":3354:3476   */\n  tag_126\n  jumpi\n    /* \"#utility.yul\":3395:3474   */\n  tag_127\n  tag_69\n  jump\t// in\ntag_127:\n    /* \"#utility.yul\":3354:3476   */\ntag_126:\n    /* \"#utility.yul\":3505:3511   */\n  dup2\n    /* \"#utility.yul\":3499:3512   */\n  mload\n    /* \"#utility.yul\":3530:3635   */\n  tag_128\n    /* \"#utility.yul\":3631:3634   */\n  dup5\n    /* \"#utility.yul\":3623:3629   */\n  dup3\n    /* \"#utility.yul\":3616:3620   */\n  0x20\n    /* \"#utility.yul\":3608:3614   */\n  dup7\n    /* \"#utility.yul\":3604:3621   */\n  add\n    /* \"#utility.yul\":3530:3635   */\n  tag_76\n  jump\t// in\ntag_128:\n    /* \"#utility.yul\":3521:3635   */\n  swap2\n  pop\n    /* \"#utility.yul\":3344:3641   */\n  pop\n    /* \"#utility.yul\":3256:3641   */\n  swap3\n  swap2\n  pop\n  pop\n  jump\t// out\n    /* \"#utility.yul\":3647:5547   */\ntag_3:\n    /* \"#utility.yul\":3846:3852   */\n  0x00\n    /* \"#utility.yul\":3854:3860   */\n  dup1\n    /* \"#utility.yul\":3862:3868   */\n  0x00\n    /* \"#utility.yul\":3870:3876   */\n  dup1\n    /* \"#utility.yul\":3878:3884   */\n  0x00\n    /* \"#utility.yul\":3886:3892   */\n  dup1\n    /* \"#utility.yul\":3894:3900   */\n  0x00\n    /* \"#utility.yul\":3943:3946   */\n  0xe0\n    /* \"#utility.yul\":3931:3940   */\n  dup9\n    /* \"#utility.yul\":3922:3929   */\n  dup11\n    /* \"#utility.yul\":3918:3941   */\n  sub\n    /* \"#utility.yul\":3914:3947   */\n  slt\n    /* \"#utility.yul\":3911:4031   */\n  iszero\n  tag_130\n  jumpi\n    /* \"#utility.yul\":3950:4029   */\n  tag_131\n  tag_60\n  jump\t// in\ntag_131:\n    /* \"#utility.yul\":3911:4031   */\ntag_130:\n    /* \"#utility.yul\":4070:4071   */\n  0x00\n    /* \"#utility.yul\":4095:4159   */\n  tag_132\n    /* \"#utility.yul\":4151:4158   */\n  dup11\n    /* \"#utility.yul\":4142:4148   */\n  dup3\n    /* \"#utility.yul\":4131:4140   */\n  dup12\n    /* \"#utility.yul\":4127:4149   */\n  add\n    /* \"#utility.yul\":4095:4159   */\n  tag_65\n  jump\t// in\ntag_132:\n    /* \"#utility.yul\":4085:4159   */\n  swap8\n  pop\n    /* \"#utility.yul\":4041:4169   */\n  pop\n    /* \"#utility.yul\":4208:4210   */\n  0x20\n    /* \"#utility.yul\":4234:4298   */\n  tag_133\n    /* \"#utility.yul\":4290:4297   */\n  dup11\n    /* \"#utility.yul\":4281:4287   */\n  dup3\n    /* \"#utility.yul\":4270:4279   */\n  dup12\n    /* \"#utility.yul\":4266:4288   */\n  add\n    /* \"#utility.yul\":4234:4298   */\n  tag_65\n  jump\t// in\ntag_133:\n    /* \"#utility.yul\":4224:4298   */\n  swap7\n  pop\n    /* \"#utility.yul\":4179:4308   */\n  pop\n    /* \"#utility.yul\":4347:4349   */\n  0x40\n    /* \"#utility.yul\":4373:4437   */\n  tag_134\n    /* \"#utility.yul\":4429:4436   */\n  dup11\n    /* \"#utility.yul\":4420:4426   */\n  dup3\n    /* \"#utility.yul\":4409:4418   */\n  dup12\n    /* \"#utility.yul\":4405:4427   */\n  add\n    /* \"#utility.yul\":4373:4437   */\n  tag_68\n  jump\t// in\ntag_134:\n    /* \"#utility.yul\":4363:4437   */\n  swap6\n  pop\n    /* \"#utility.yul\":4318:4447   */\n  pop\n    /* \"#utility.yul\":4507:4509   */\n  0x60\n    /* \"#utility.yul\":4496:4505   */\n  dup9\n    /* \"#utility.yul\":4492:4510   */\n  add\n    /* \"#utility.yul\":4486:4511   */\n  mload\n    /* \"#utility.yul\":4538:4556   */\n  0xffffffffffffffff\n    /* \"#utility.yul\":4530:4536   */\n  dup2\n    /* \"#utility.yul\":4527:4557   */\n  gt\n    /* \"#utility.yul\":4524:4641   */\n  iszero\n  tag_135\n  jumpi\n    /* \"#utility.yul\":4560:4639   */\n  tag_136\n  tag_61\n  jump\t// in\ntag_136:\n    /* \"#utility.yul\":4524:4641   */\ntag_135:\n    /* \"#utility.yul\":4665:4754   */\n  tag_137\n    /* \"#utility.yul\":4746:4753   */\n  dup11\n    /* \"#utility.yul\":4737:4743   */\n  dup3\n    /* \"#utility.yul\":4726:4735   */\n  dup12\n    /* \"#utility.yul\":4722:4744   */\n  add\n    /* \"#utility.yul\":4665:4754   */\n  tag_77\n  jump\t// in\ntag_137:\n    /* \"#utility.yul\":4655:4754   */\n  swap5\n  pop\n    /* \"#utility.yul\":4457:4764   */\n  pop\n    /* \"#utility.yul\":4824:4827   */\n  0x80\n    /* \"#utility.yul\":4813:4822   */\n  dup9\n    /* \"#utility.yul\":4809:4828   */\n  add\n    /* \"#utility.yul\":4803:4829   */\n  mload\n    /* \"#utility.yul\":4856:4874   */\n  0xffffffffffffffff\n    /* \"#utility.yul\":4848:4854   */\n  dup2\n    /* \"#utility.yul\":4845:4875   */\n  gt\n    /* \"#utility.yul\":4842:4959   */\n  iszero\n  tag_138\n  jumpi\n    /* \"#utility.yul\":4878:4957   */\n  tag_139\n  tag_61\n  jump\t// in\ntag_139:\n    /* \"#utility.yul\":4842:4959   */\ntag_138:\n    /* \"#utility.yul\":4983:5072   */\n  tag_140\n    /* \"#utility.yul\":5064:5071   */\n  dup11\n    /* \"#utility.yul\":5055:5061   */\n  dup3\n    /* \"#utility.yul\":5044:5053   */\n  dup12\n    /* \"#utility.yul\":5040:5062   */\n  add\n    /* \"#utility.yul\":4983:5072   */\n  tag_77\n  jump\t// in\ntag_140:\n    /* \"#utility.yul\":4973:5072   */\n  swap4\n  pop\n    /* \"#utility.yul\":4774:5082   */\n  pop\n    /* \"#utility.yul\":5142:5145   */\n  0xa0\n    /* \"#utility.yul\":5131:5140   */\n  dup9\n    /* \"#utility.yul\":5127:5146   */\n  add\n    /* \"#utility.yul\":5121:5147   */\n  mload\n    /* \"#utility.yul\":5174:5192   */\n  0xffffffffffffffff\n    /* \"#utility.yul\":5166:5172   */\n  dup2\n    /* \"#utility.yul\":5163:5193   */\n  gt\n    /* \"#utility.yul\":5160:5277   */\n  iszero\n  tag_141\n  jumpi\n    /* \"#utility.yul\":5196:5275   */\n  tag_142\n  tag_61\n  jump\t// in\ntag_142:\n    /* \"#utility.yul\":5160:5277   */\ntag_141:\n    /* \"#utility.yul\":5301:5390   */\n  tag_143\n    /* \"#utility.yul\":5382:5389   */\n  dup11\n    /* \"#utility.yul\":5373:5379   */\n  dup3\n    /* \"#utility.yul\":5362:5371   */\n  dup12\n    /* \"#utility.yul\":5358:5380   */\n  add\n    /* \"#utility.yul\":5301:5390   */\n  tag_77\n  jump\t// in\ntag_143:\n    /* \"#utility.yul\":5291:5390   */\n  swap3\n  pop\n    /* \"#utility.yul\":5092:5400   */\n  pop\n    /* \"#utility.yul\":5439:5442   */\n  0xc0\n    /* \"#utility.yul\":5466:5530   */\n  tag_144\n    /* \"#utility.yul\":5522:5529   */\n  dup11\n    /* \"#utility.yul\":5513:5519   */\n  dup3\n    /* \"#utility.yul\":5502:5511   */\n  dup12\n    /* \"#utility.yul\":5498:5520   */\n  add\n    /* \"#utility.yul\":5466:5530   */\n  tag_68\n  jump\t// in\ntag_144:\n    /* \"#utility.yul\":5456:5530   */\n  swap2\n  pop\n    /* \"#utility.yul\":5410:5540   */\n  pop\n    /* \"#utility.yul\":3647:5547   */\n  swap3\n  swap6\n  swap9\n  swap2\n  swap5\n  swap8\n  pop\n  swap3\n  swap6\n  pop\n  jump\t// out\n    /* \"#utility.yul\":5553:5722   */\ntag_78:\n    /* \"#utility.yul\":5637:5648   */\n  0x00\n    /* \"#utility.yul\":5671:5677   */\n  dup3\n    /* \"#utility.yul\":5666:5669   */\n  dup3\n    /* \"#utility.yul\":5659:5678   */\n  mstore\n    /* \"#utility.yul\":5711:5715   */\n  0x20\n    /* \"#utility.yul\":5706:5709   */\n  dup3\n    /* \"#utility.yul\":5702:5716   */\n  add\n    /* \"#utility.yul\":5687:5716   */\n  swap1\n  pop\n    /* \"#utility.yul\":5553:5722   */\n  swap3\n  swap2\n  pop\n  pop\n  jump\t// out\n    /* \"#utility.yul\":5728:5961   */\ntag_79:\n    /* \"#utility.yul\":5868:5902   */\n  0x4469737472696275746f723a204c656e6774686573206d757374206d61746368\n    /* \"#utility.yul\":5864:5865   */\n  0x00\n    /* \"#utility.yul\":5856:5862   */\n  dup3\n    /* \"#utility.yul\":5852:5866   */\n  add\n    /* \"#utility.yul\":5845:5903   */\n  mstore\n    /* \"#utility.yul\":5937:5953   */\n  0x206e756d626572506572696f6473000000000000000000000000000000000000\n    /* \"#utility.yul\":5932:5934   */\n  0x20\n    /* \"#utility.yul\":5924:5930   */\n  dup3\n    /* \"#utility.yul\":5920:5935   */\n  add\n    /* \"#utility.yul\":5913:5954   */\n  mstore\n    /* \"#utility.yul\":5728:5961   */\n  pop\n  jump\t// out\n    /* \"#utility.yul\":5967:6333   */\ntag_80:\n    /* \"#utility.yul\":6109:6112   */\n  0x00\n    /* \"#utility.yul\":6130:6197   */\n  tag_148\n    /* \"#utility.yul\":6194:6196   */\n  0x2e\n    /* \"#utility.yul\":6189:6192   */\n  dup4\n    /* \"#utility.yul\":6130:6197   */\n  tag_78\n  jump\t// in\ntag_148:\n    /* \"#utility.yul\":6123:6197   */\n  swap2\n  pop\n    /* \"#utility.yul\":6206:6299   */\n  tag_149\n    /* \"#utility.yul\":6295:6298   */\n  dup3\n    /* \"#utility.yul\":6206:6299   */\n  tag_79\n  jump\t// in\ntag_149:\n    /* \"#utility.yul\":6324:6326   */\n  0x40\n    /* \"#utility.yul\":6319:6322   */\n  dup3\n    /* \"#utility.yul\":6315:6327   */\n  add\n    /* \"#utility.yul\":6308:6327   */\n  swap1\n  pop\n    /* \"#utility.yul\":5967:6333   */\n  swap2\n  swap1\n  pop\n  jump\t// out\n    /* \"#utility.yul\":6339:6758   */\ntag_12:\n    /* \"#utility.yul\":6505:6509   */\n  0x00\n    /* \"#utility.yul\":6543:6545   */\n  0x20\n    /* \"#utility.yul\":6532:6541   */\n  dup3\n    /* \"#utility.yul\":6528:6546   */\n  add\n    /* \"#utility.yul\":6520:6546   */\n  swap1\n  pop\n    /* \"#utility.yul\":6592:6601   */\n  dup2\n    /* \"#utility.yul\":6586:6590   */\n  dup2\n    /* \"#utility.yul\":6582:6602   */\n  sub\n    /* \"#utility.yul\":6578:6579   */\n  0x00\n    /* \"#utility.yul\":6567:6576   */\n  dup4\n    /* \"#utility.yul\":6563:6580   */\n  add\n    /* \"#utility.yul\":6556:6603   */\n  mstore\n    /* \"#utility.yul\":6620:6751   */\n  tag_151\n    /* \"#utility.yul\":6746:6750   */\n  dup2\n    /* \"#utility.yul\":6620:6751   */\n  tag_80\n  jump\t// in\ntag_151:\n    /* \"#utility.yul\":6612:6751   */\n  swap1\n  pop\n    /* \"#utility.yul\":6339:6758   */\n  swap2\n  swap1\n  pop\n  jump\t// out\n    /* \"#utility.yul\":6764:7115   */\ntag_16:\n    /* \"#utility.yul\":6834:6840   */\n  0x00\n    /* \"#utility.yul\":6883:6885   */\n  0x20\n    /* \"#utility.yul\":6871:6880   */\n  dup3\n    /* \"#utility.yul\":6862:6869   */\n  dup5\n    /* \"#utility.yul\":6858:6881   */\n  sub\n    /* \"#utility.yul\":6854:6886   */\n  slt\n    /* \"#utility.yul\":6851:6970   */\n  iszero\n  tag_153\n  jumpi\n    /* \"#utility.yul\":6889:6968   */\n  tag_154\n  tag_60\n  jump\t// in\ntag_154:\n    /* \"#utility.yul\":6851:6970   */\ntag_153:\n    /* \"#utility.yul\":7009:7010   */\n  0x00\n    /* \"#utility.yul\":7034:7098   */\n  tag_155\n    /* \"#utility.yul\":7090:7097   */\n  dup5\n    /* \"#utility.yul\":7081:7087   */\n  dup3\n    /* \"#utility.yul\":7070:7079   */\n  dup6\n    /* \"#utility.yul\":7066:7088   */\n  add\n    /* \"#utility.yul\":7034:7098   */\n  tag_68\n  jump\t// in\ntag_155:\n    /* \"#utility.yul\":7024:7098   */\n  swap2\n  pop\n    /* \"#utility.yul\":6980:7108   */\n  pop\n    /* \"#utility.yul\":6764:7115   */\n  swap3\n  swap2\n  pop\n  pop\n  jump\t// out\n    /* \"#utility.yul\":7121:7301   */\ntag_81:\n    /* \"#utility.yul\":7169:7246   */\n  0x4e487b7100000000000000000000000000000000000000000000000000000000\n    /* \"#utility.yul\":7166:7167   */\n  0x00\n    /* \"#utility.yul\":7159:7247   */\n  mstore\n    /* \"#utility.yul\":7266:7270   */\n  0x11\n    /* \"#utility.yul\":7263:7264   */\n  0x04\n    /* \"#utility.yul\":7256:7271   */\n  mstore\n    /* \"#utility.yul\":7290:7294   */\n  0x24\n    /* \"#utility.yul\":7287:7288   */\n  0x00\n    /* \"#utility.yul\":7280:7295   */\n  revert\n    /* \"#utility.yul\":7307:7498   */\ntag_21:\n    /* \"#utility.yul\":7347:7351   */\n  0x00\n    /* \"#utility.yul\":7367:7387   */\n  tag_158\n    /* \"#utility.yul\":7385:7386   */\n  dup3\n    /* \"#utility.yul\":7367:7387   */\n  tag_66\n  jump\t// in\ntag_158:\n    /* \"#utility.yul\":7362:7387   */\n  swap2\n  pop\n    /* \"#utility.yul\":7401:7421   */\n  tag_159\n    /* \"#utility.yul\":7419:7420   */\n  dup4\n    /* \"#utility.yul\":7401:7421   */\n  tag_66\n  jump\t// in\ntag_159:\n    /* \"#utility.yul\":7396:7421   */\n  swap3\n  pop\n    /* \"#utility.yul\":7440:7441   */\n  dup3\n    /* \"#utility.yul\":7437:7438   */\n  dup3\n    /* \"#utility.yul\":7434:7442   */\n  lt\n    /* \"#utility.yul\":7431:7465   */\n  iszero\n  tag_160\n  jumpi\n    /* \"#utility.yul\":7445:7463   */\n  tag_161\n  tag_81\n  jump\t// in\ntag_161:\n    /* \"#utility.yul\":7431:7465   */\ntag_160:\n    /* \"#utility.yul\":7490:7491   */\n  dup3\n    /* \"#utility.yul\":7487:7488   */\n  dup3\n    /* \"#utility.yul\":7483:7492   */\n  sub\n    /* \"#utility.yul\":7475:7492   */\n  swap1\n  pop\n    /* \"#utility.yul\":7307:7498   */\n  swap3\n  swap2\n  pop\n  pop\n  jump\t// out\n    /* \"#utility.yul\":7504:7684   */\ntag_27:\n    /* \"#utility.yul\":7552:7629   */\n  0x4e487b7100000000000000000000000000000000000000000000000000000000\n    /* \"#utility.yul\":7549:7550   */\n  0x00\n    /* \"#utility.yul\":7542:7630   */\n  mstore\n    /* \"#utility.yul\":7649:7653   */\n  0x32\n    /* \"#utility.yul\":7646:7647   */\n  0x04\n    /* \"#utility.yul\":7639:7654   */\n  mstore\n    /* \"#utility.yul\":7673:7677   */\n  0x24\n    /* \"#utility.yul\":7670:7671   */\n  0x00\n    /* \"#utility.yul\":7663:7678   */\n  revert\n    /* \"#utility.yul\":7690:8038   */\ntag_31:\n    /* \"#utility.yul\":7730:7737   */\n  0x00\n    /* \"#utility.yul\":7753:7773   */\n  tag_164\n    /* \"#utility.yul\":7771:7772   */\n  dup3\n    /* \"#utility.yul\":7753:7773   */\n  tag_66\n  jump\t// in\ntag_164:\n    /* \"#utility.yul\":7748:7773   */\n  swap2\n  pop\n    /* \"#utility.yul\":7787:7807   */\n  tag_165\n    /* \"#utility.yul\":7805:7806   */\n  dup4\n    /* \"#utility.yul\":7787:7807   */\n  tag_66\n  jump\t// in\ntag_165:\n    /* \"#utility.yul\":7782:7807   */\n  swap3\n  pop\n    /* \"#utility.yul\":7975:7976   */\n  dup2\n    /* \"#utility.yul\":7907:7973   */\n  0xffffffffffffffffffffffffffffffffffffffffffffffffffffffffffffffff\n    /* \"#utility.yul\":7903:7977   */\n  div\n    /* \"#utility.yul\":7900:7901   */\n  dup4\n    /* \"#utility.yul\":7897:7978   */\n  gt\n    /* \"#utility.yul\":7892:7893   */\n  dup3\n    /* \"#utility.yul\":7885:7894   */\n  iszero\n    /* \"#utility.yul\":7878:7895   */\n  iszero\n    /* \"#utility.yul\":7874:7979   */\n  and\n    /* \"#utility.yul\":7871:8002   */\n  iszero\n  tag_166\n  jumpi\n    /* \"#utility.yul\":7982:8000   */\n  tag_167\n  tag_81\n  jump\t// in\ntag_167:\n    /* \"#utility.yul\":7871:8002   */\ntag_166:\n    /* \"#utility.yul\":8030:8031   */\n  dup3\n    /* \"#utility.yul\":8027:8028   */\n  dup3\n    /* \"#utility.yul\":8023:8032   */\n  mul\n    /* \"#utility.yul\":8012:8032   */\n  swap1\n  pop\n    /* \"#utility.yul\":7690:8038   */\n  swap3\n  swap2\n  pop\n  pop\n  jump\t// out\n    /* \"#utility.yul\":8044:8349   */\ntag_38:\n    /* \"#utility.yul\":8084:8087   */\n  0x00\n    /* \"#utility.yul\":8103:8123   */\n  tag_169\n    /* \"#utility.yul\":8121:8122   */\n  dup3\n    /* \"#utility.yul\":8103:8123   */\n  tag_66\n  jump\t// in\ntag_169:\n    /* \"#utility.yul\":8098:8123   */\n  swap2\n  pop\n    /* \"#utility.yul\":8137:8157   */\n  tag_170\n    /* \"#utility.yul\":8155:8156   */\n  dup4\n    /* \"#utility.yul\":8137:8157   */\n  tag_66\n  jump\t// in\ntag_170:\n    /* \"#utility.yul\":8132:8157   */\n  swap3\n  pop\n    /* \"#utility.yul\":8291:8292   */\n  dup3\n    /* \"#utility.yul\":8223:8289   */\n  0xffffffffffffffffffffffffffffffffffffffffffffffffffffffffffffffff\n    /* \"#utility.yul\":8219:8293   */\n  sub\n    /* \"#utility.yul\":8216:8217   */\n  dup3\n    /* \"#utility.yul\":8213:8294   */\n  gt\n    /* \"#utility.yul\":8210:8317   */\n  iszero\n  tag_171\n  jumpi\n    /* \"#utility.yul\":8297:8315   */\n  tag_172\n  tag_81\n  jump\t// in\ntag_172:\n    /* \"#utility.yul\":8210:8317   */\ntag_171:\n    /* \"#utility.yul\":8341:8342   */\n  dup3\n    /* \"#utility.yul\":8338:8339   */\n  dup3\n    /* \"#utility.yul\":8334:8343   */\n  add\n    /* \"#utility.yul\":8327:8343   */\n  swap1\n  pop\n    /* \"#utility.yul\":8044:8349   */\n  swap3\n  swap2\n  pop\n  pop\n  jump\t// out\n    /* \"#utility.yul\":8355:8588   */\ntag_47:\n    /* \"#utility.yul\":8394:8397   */\n  0x00\n    /* \"#utility.yul\":8417:8441   */\n  tag_174\n    /* \"#utility.yul\":8435:8440   */\n  dup3\n    /* \"#utility.yul\":8417:8441   */\n  tag_66\n  jump\t// in\ntag_174:\n    /* \"#utility.yul\":8408:8441   */\n  swap2\n  pop\n    /* \"#utility.yul\":8463:8529   */\n  0xffffffffffffffffffffffffffffffffffffffffffffffffffffffffffffffff\n    /* \"#utility.yul\":8456:8461   */\n  dup3\n    /* \"#utility.yul\":8453:8530   */\n  eq\n    /* \"#utility.yul\":8450:8553   */\n  iszero\n  tag_175\n  jumpi\n    /* \"#utility.yul\":8533:8551   */\n  tag_176\n  tag_81\n  jump\t// in\ntag_176:\n    /* \"#utility.yul\":8450:8553   */\ntag_175:\n    /* \"#utility.yul\":8580:8581   */\n  0x01\n    /* \"#utility.yul\":8573:8578   */\n  dup3\n    /* \"#utility.yul\":8569:8582   */\n  add\n    /* \"#utility.yul\":8562:8582   */\n  swap1\n  pop\n    /* \"#utility.yul\":8355:8588   */\n  swap2\n  swap1\n  pop\n  jump\t// out\n    /* \"#utility.yul\":8594:8817   */\ntag_82:\n    /* \"#utility.yul\":8734:8768   */\n  0x4469737472696275746f723a2057726f6e672072657761726420706172616d65\n    /* \"#utility.yul\":8730:8731   */\n  0x00\n    /* \"#utility.yul\":8722:8728   */\n  dup3\n    /* \"#utility.yul\":8718:8732   */\n  add\n    /* \"#utility.yul\":8711:8769   */\n  mstore\n    /* \"#utility.yul\":8803:8809   */\n  0x7465727300000000000000000000000000000000000000000000000000000000\n    /* \"#utility.yul\":8798:8800   */\n  0x20\n    /* \"#utility.yul\":8790:8796   */\n  dup3\n    /* \"#utility.yul\":8786:8801   */\n  add\n    /* \"#utility.yul\":8779:8810   */\n  mstore\n    /* \"#utility.yul\":8594:8817   */\n  pop\n  jump\t// out\n    /* \"#utility.yul\":8823:9189   */\ntag_83:\n    /* \"#utility.yul\":8965:8968   */\n  0x00\n    /* \"#utility.yul\":8986:9053   */\n  tag_179\n    /* \"#utility.yul\":9050:9052   */\n  0x24\n    /* \"#utility.yul\":9045:9048   */\n  dup4\n    /* \"#utility.yul\":8986:9053   */\n  tag_78\n  jump\t// in\ntag_179:\n    /* \"#utility.yul\":8979:9053   */\n  swap2\n  pop\n    /* \"#utility.yul\":9062:9155   */\n  tag_180\n    /* \"#utility.yul\":9151:9154   */\n  dup3\n    /* \"#utility.yul\":9062:9155   */\n  tag_82\n  jump\t// in\ntag_180:\n    /* \"#utility.yul\":9180:9182   */\n  0x40\n    /* \"#utility.yul\":9175:9178   */\n  dup3\n    /* \"#utility.yul\":9171:9183   */\n  add\n    /* \"#utility.yul\":9164:9183   */\n  swap1\n  pop\n    /* \"#utility.yul\":8823:9189   */\n  swap2\n  swap1\n  pop\n  jump\t// out\n    /* \"#utility.yul\":9195:9614   */\ntag_50:\n    /* \"#utility.yul\":9361:9365   */\n  0x00\n    /* \"#utility.yul\":9399:9401   */\n  0x20\n    /* \"#utility.yul\":9388:9397   */\n  dup3\n    /* \"#utility.yul\":9384:9402   */\n  add\n    /* \"#utility.yul\":9376:9402   */\n  swap1\n  pop\n    /* \"#utility.yul\":9448:9457   */\n  dup2\n    /* \"#utility.yul\":9442:9446   */\n  dup2\n    /* \"#utility.yul\":9438:9458   */\n  sub\n    /* \"#utility.yul\":9434:9435   */\n  0x00\n    /* \"#utility.yul\":9423:9432   */\n  dup4\n    /* \"#utility.yul\":9419:9436   */\n  add\n    /* \"#utility.yul\":9412:9459   */\n  mstore\n    /* \"#utility.yul\":9476:9607   */\n  tag_182\n    /* \"#utility.yul\":9602:9606   */\n  dup2\n    /* \"#utility.yul\":9476:9607   */\n  tag_83\n  jump\t// in\ntag_182:\n    /* \"#utility.yul\":9468:9607   */\n  swap1\n  pop\n    /* \"#utility.yul\":9195:9614   */\n  swap2\n  swap1\n  pop\n  jump\t// out\n    /* \"contracts/LooksRare/TokenDistributor.sol\":447:14993  contract TokenDistributor is ReentrancyGuard {... */\ntag_58:\n  mload(0x80)\n  mload(0xa0)\n  mload(0xc0)\n  mload(0xe0)\n  codecopy(0x00, dataOffset(sub_0), dataSize(sub_0))\n  0x00\n  assignImmutable(\"0xda454547ca5f9bde387781b7470d1c4b06be980d23784ba34fd5243580f9e233\")\n  0x00\n  assignImmutable(\"0xafcd10eb8a933fb34272fbf3a0d55ec898d75144e8be37ea9b6ca4a0ee7bc3b2\")\n  0x00\n  assignImmutable(\"0xa752a62a6f5fb32dd4e041dbf29a56f1f90fbf8d8356b6069d6d3304e11d2d2e\")\n  0x00\n  assignImmutable(\"0x94ac46a65f1fb0934ae334b85100dc6a35a94d53aa1e2b4e46f9a861095e9ac0\")\n  return(0x00, dataSize(sub_0))\nstop\n\nsub_0: assembly {\n        /* \"contracts/LooksRare/TokenDistributor.sol\":447:14993  contract TokenDistributor is ReentrancyGuard {... */\n      mstore(0x40, 0x80)\n      callvalue\n      dup1\n      iszero\n      tag_1\n      jumpi\n      0x00\n      dup1\n      revert\n    tag_1:\n      pop\n      jumpi(tag_2, lt(calldatasize, 0x04))\n      shr(0xe0, calldataload(0x00))\n      dup1\n      0x853828b6\n      gt\n      tag_23\n      jumpi\n      dup1\n      0xc1027c98\n      gt\n      tag_24\n      jumpi\n      dup1\n      0xc1027c98\n      eq\n      tag_18\n      jumpi\n      dup1\n      0xccd34cd5\n      eq\n      tag_19\n      jumpi\n      dup1\n      0xe3161ddd\n      eq\n      tag_20\n      jumpi\n      dup1\n      0xe683d96f\n      eq\n      tag_21\n      jumpi\n      dup1\n      0xfe961f61\n      eq\n      tag_22\n      jumpi\n      jump(tag_2)\n    tag_24:\n      dup1\n      0x853828b6\n      eq\n      tag_13\n      jumpi\n      dup1\n      0x8f662915\n      eq\n      tag_14\n      jumpi\n      dup1\n      0xa46074c3\n      eq\n      tag_15\n      jumpi\n      dup1\n      0xa9f8d181\n      eq\n      tag_16\n      jumpi\n      dup1\n      0xb6b55f25\n      eq\n      tag_17\n      jumpi\n      jump(tag_2)\n    tag_23:\n      dup1\n      0x2e1a7d4d\n      gt\n      tag_25\n      jumpi\n      dup1\n      0x2e1a7d4d\n      eq\n      tag_8\n      jumpi\n      dup1\n      0x36db9fb2\n      eq\n      tag_9\n      jumpi\n      dup1\n      0x39b3e826\n      eq\n      tag_10\n      jumpi\n      dup1\n      0x52bf348c\n      eq\n      tag_11\n      jumpi\n      dup1\n      0x5a9477e9\n      eq\n      tag_12\n      jumpi\n      jump(tag_2)\n    tag_25:\n      dup1\n      0x055ad42e\n      eq\n      tag_3\n      jumpi\n      dup1\n      0x083c6323\n      eq\n      tag_4\n      jumpi\n      dup1\n      0x097aad10\n      eq\n      tag_5\n      jumpi\n      dup1\n      0x1959a002\n      eq\n      tag_6\n      jumpi\n      dup1\n      0x2a4e051b\n      eq\n      tag_7\n      jumpi\n    tag_2:\n      0x00\n      dup1\n      revert\n        /* \"contracts/LooksRare/TokenDistributor.sol\":1358:1385  uint256 public currentPhase */\n    tag_3:\n      tag_26\n      tag_27\n      jump\t// in\n    tag_26:\n      mload(0x40)\n      tag_28\n      swap2\n      swap1\n      tag_29\n      jump\t// in\n    tag_28:\n      mload(0x40)\n      dup1\n      swap2\n      sub\n      swap1\n      return\n        /* \"contracts/LooksRare/TokenDistributor.sol\":1432:1455  uint256 public endBlock */\n    tag_4:\n      tag_30\n      tag_31\n      jump\t// in\n    tag_30:\n      mload(0x40)\n      tag_32\n      swap2\n      swap1\n      tag_29\n      jump\t// in\n    tag_32:\n      mload(0x40)\n      dup1\n      swap2\n      sub\n      swap1\n      return\n        /* \"contracts/LooksRare/TokenDistributor.sol\":9681:11667  function calculatePendingRewards(address user) external view returns (uint256) {... */\n    tag_5:\n      tag_33\n      0x04\n      dup1\n      calldatasize\n      sub\n      dup2\n      add\n      swap1\n      tag_34\n      swap2\n      swap1\n      tag_35\n      jump\t// in\n    tag_34:\n      tag_36\n      jump\t// in\n    tag_33:\n      mload(0x40)\n      tag_37\n      swap2\n      swap1\n      tag_29\n      jump\t// in\n    tag_37:\n      mload(0x40)\n      dup1\n      swap2\n      sub\n      swap1\n      return\n        /* \"contracts/LooksRare/TokenDistributor.sol\":1911:1955  mapping(address => UserInfo) public userInfo */\n    tag_6:\n      tag_38\n      0x04\n      dup1\n      calldatasize\n      sub\n      dup2\n      add\n      swap1\n      tag_39\n      swap2\n      swap1\n      tag_35\n      jump\t// in\n    tag_39:\n      tag_40\n      jump\t// in\n    tag_38:\n      mload(0x40)\n      tag_41\n      swap3\n      swap2\n      swap1\n      tag_42\n      jump\t// in\n    tag_41:\n      mload(0x40)\n      dup1\n      swap2\n      sub\n      swap1\n      return\n        /* \"contracts/LooksRare/TokenDistributor.sol\":6281:7227  function harvestAndCompound() external nonReentrant {... */\n    tag_7:\n      tag_43\n      tag_44\n      jump\t// in\n    tag_43:\n      stop\n        /* \"contracts/LooksRare/TokenDistributor.sol\":7500:8506  function withdraw(uint256 amount) external nonReentrant {... */\n    tag_8:\n      tag_45\n      0x04\n      dup1\n      calldatasize\n      sub\n      dup2\n      add\n      swap1\n      tag_46\n      swap2\n      swap1\n      tag_47\n      jump\t// in\n    tag_46:\n      tag_48\n      jump\t// in\n    tag_45:\n      stop\n        /* \"contracts/LooksRare/TokenDistributor.sol\":983:1025  ITestToken public immutable looksRareToken */\n    tag_9:\n      tag_49\n      tag_50\n      jump\t// in\n    tag_49:\n      mload(0x40)\n      tag_51\n      swap2\n      swap1\n      tag_52\n      jump\t// in\n    tag_51:\n      mload(0x40)\n      dup1\n      swap2\n      sub\n      swap1\n      return\n        /* \"contracts/LooksRare/TokenDistributor.sol\":1202:1238  uint256 public immutable START_BLOCK */\n    tag_10:\n      tag_53\n      tag_54\n      jump\t// in\n    tag_53:\n      mload(0x40)\n      tag_55\n      swap2\n      swap1\n      tag_29\n      jump\t// in\n    tag_55:\n      mload(0x40)\n      dup1\n      swap2\n      sub\n      swap1\n      return\n        /* \"contracts/LooksRare/TokenDistributor.sol\":1114:1153  uint256 public immutable NUMBER_PERIODS */\n    tag_11:\n      tag_56\n      tag_57\n      jump\t// in\n    tag_56:\n      mload(0x40)\n      tag_58\n      swap2\n      swap1\n      tag_29\n      jump\t// in\n    tag_58:\n      mload(0x40)\n      dup1\n      swap2\n      sub\n      swap1\n      return\n        /* \"contracts/LooksRare/TokenDistributor.sol\":1731:1770  uint256 public rewardPerBlockForStaking */\n    tag_12:\n      tag_59\n      tag_60\n      jump\t// in\n    tag_59:\n      mload(0x40)\n      tag_61\n      swap2\n      swap1\n      tag_29\n      jump\t// in\n    tag_61:\n      mload(0x40)\n      dup1\n      swap2\n      sub\n      swap1\n      return\n        /* \"contracts/LooksRare/TokenDistributor.sol\":8594:9530  function withdrawAll() external nonReentrant {... */\n    tag_13:\n      tag_62\n      tag_63\n      jump\t// in\n    tag_62:\n      stop\n        /* \"contracts/LooksRare/TokenDistributor.sol\":1284:1315  uint256 public accTokenPerShare */\n    tag_14:\n      tag_64\n      tag_65\n      jump\t// in\n    tag_64:\n      mload(0x40)\n      tag_66\n      swap2\n      swap1\n      tag_29\n      jump\t// in\n    tag_66:\n      mload(0x40)\n      dup1\n      swap2\n      sub\n      swap1\n      return\n        /* \"contracts/LooksRare/TokenDistributor.sol\":1034:1072  address public immutable tokenSplitter */\n    tag_15:\n      tag_67\n      tag_68\n      jump\t// in\n    tag_67:\n      mload(0x40)\n      tag_69\n      swap2\n      swap1\n      tag_70\n      jump\t// in\n    tag_69:\n      mload(0x40)\n      dup1\n      swap2\n      sub\n      swap1\n      return\n        /* \"contracts/LooksRare/TokenDistributor.sol\":1504:1534  uint256 public lastRewardBlock */\n    tag_16:\n      tag_71\n      tag_72\n      jump\t// in\n    tag_71:\n      mload(0x40)\n      tag_73\n      swap2\n      swap1\n      tag_29\n      jump\t// in\n    tag_73:\n      mload(0x40)\n      dup1\n      swap2\n      sub\n      swap1\n      return\n        /* \"contracts/LooksRare/TokenDistributor.sol\":5167:6205  function deposit(uint256 amount) external nonReentrant {... */\n    tag_17:\n      tag_74\n      0x04\n      dup1\n      calldatasize\n      sub\n      dup2\n      add\n      swap1\n      tag_75\n      swap2\n      swap1\n      tag_47\n      jump\t// in\n    tag_75:\n      tag_76\n      jump\t// in\n    tag_74:\n      stop\n        /* \"contracts/LooksRare/TokenDistributor.sol\":1848:1902  mapping(uint256 => StakingPeriod) public stakingPeriod */\n    tag_18:\n      tag_77\n      0x04\n      dup1\n      calldatasize\n      sub\n      dup2\n      add\n      swap1\n      tag_78\n      swap2\n      swap1\n      tag_47\n      jump\t// in\n    tag_78:\n      tag_79\n      jump\t// in\n    tag_77:\n      mload(0x40)\n      tag_80\n      swap4\n      swap3\n      swap2\n      swap1\n      tag_81\n      jump\t// in\n    tag_80:\n      mload(0x40)\n      dup1\n      swap2\n      sub\n      swap1\n      return\n        /* \"contracts/LooksRare/TokenDistributor.sol\":925:974  uint256 public constant PRECISION_FACTOR = 10**12 */\n    tag_19:\n      tag_82\n      tag_83\n      jump\t// in\n    tag_82:\n      mload(0x40)\n      tag_84\n      swap2\n      swap1\n      tag_29\n      jump\t// in\n    tag_84:\n      mload(0x40)\n      dup1\n      swap2\n      sub\n      swap1\n      return\n        /* \"contracts/LooksRare/TokenDistributor.sol\":7289:7365  function updatePool() external nonReentrant {... */\n    tag_20:\n      tag_85\n      tag_86\n      jump\t// in\n    tag_85:\n      stop\n        /* \"contracts/LooksRare/TokenDistributor.sol\":1635:1673  uint256 public rewardPerBlockForOthers */\n    tag_21:\n      tag_87\n      tag_88\n      jump\t// in\n    tag_87:\n      mload(0x40)\n      tag_89\n      swap2\n      swap1\n      tag_29\n      jump\t// in\n    tag_89:\n      mload(0x40)\n      dup1\n      swap2\n      sub\n      swap1\n      return\n        /* \"contracts/LooksRare/TokenDistributor.sol\":1807:1839  uint256 public totalAmountStaked */\n    tag_22:\n      tag_90\n      tag_91\n      jump\t// in\n    tag_90:\n      mload(0x40)\n      tag_92\n      swap2\n      swap1\n      tag_29\n      jump\t// in\n    tag_92:\n      mload(0x40)\n      dup1\n      swap2\n      sub\n      swap1\n      return\n        /* \"contracts/LooksRare/TokenDistributor.sol\":1358:1385  uint256 public currentPhase */\n    tag_27:\n      sload(0x02)\n      dup2\n      jump\t// out\n        /* \"contracts/LooksRare/TokenDistributor.sol\":1432:1455  uint256 public endBlock */\n    tag_31:\n      sload(0x03)\n      dup2\n      jump\t// out\n        /* \"contracts/LooksRare/TokenDistributor.sol\":9681:11667  function calculatePendingRewards(address user) external view returns (uint256) {... */\n    tag_36:\n        /* \"contracts/LooksRare/TokenDistributor.sol\":9751:9758  uint256 */\n      0x00\n        /* \"contracts/LooksRare/TokenDistributor.sol\":9791:9806  lastRewardBlock */\n      sload(0x04)\n        /* \"contracts/LooksRare/TokenDistributor.sol\":9776:9788  block.number */\n      number\n        /* \"contracts/LooksRare/TokenDistributor.sol\":9776:9806  block.number > lastRewardBlock */\n      gt\n        /* \"contracts/LooksRare/TokenDistributor.sol\":9775:9835  (block.number > lastRewardBlock) && (totalAmountStaked != 0) */\n      dup1\n      iszero\n      tag_94\n      jumpi\n      pop\n        /* \"contracts/LooksRare/TokenDistributor.sol\":9833:9834  0 */\n      0x00\n        /* \"contracts/LooksRare/TokenDistributor.sol\":9812:9829  totalAmountStaked */\n      sload(0x07)\n        /* \"contracts/LooksRare/TokenDistributor.sol\":9812:9834  totalAmountStaked != 0 */\n      eq\n      iszero\n        /* \"contracts/LooksRare/TokenDistributor.sol\":9775:9835  (block.number > lastRewardBlock) && (totalAmountStaked != 0) */\n    tag_94:\n        /* \"contracts/LooksRare/TokenDistributor.sol\":9771:11660  if ((block.number > lastRewardBlock) && (totalAmountStaked != 0)) {... */\n      iszero\n      tag_95\n      jumpi\n        /* \"contracts/LooksRare/TokenDistributor.sol\":9852:9870  uint256 multiplier */\n      0x00\n        /* \"contracts/LooksRare/TokenDistributor.sol\":9873:9918  _getMultiplier(lastRewardBlock, block.number) */\n      tag_96\n        /* \"contracts/LooksRare/TokenDistributor.sol\":9888:9903  lastRewardBlock */\n      sload(0x04)\n        /* \"contracts/LooksRare/TokenDistributor.sol\":9905:9917  block.number */\n      number\n        /* \"contracts/LooksRare/TokenDistributor.sol\":9873:9887  _getMultiplier */\n      tag_97\n        /* \"contracts/LooksRare/TokenDistributor.sol\":9873:9918  _getMultiplier(lastRewardBlock, block.number) */\n      jump\t// in\n    tag_96:\n        /* \"contracts/LooksRare/TokenDistributor.sol\":9852:9918  uint256 multiplier = _getMultiplier(lastRewardBlock, block.number) */\n      swap1\n      pop\n        /* \"contracts/LooksRare/TokenDistributor.sol\":9935:9964  uint256 tokenRewardForStaking */\n      0x00\n        /* \"contracts/LooksRare/TokenDistributor.sol\":9980:10004  rewardPerBlockForStaking */\n      sload(0x06)\n        /* \"contracts/LooksRare/TokenDistributor.sol\":9967:9977  multiplier */\n      dup3\n        /* \"contracts/LooksRare/TokenDistributor.sol\":9967:10004  multiplier * rewardPerBlockForStaking */\n      tag_98\n      swap2\n      swap1\n      tag_99\n      jump\t// in\n    tag_98:\n        /* \"contracts/LooksRare/TokenDistributor.sol\":9935:10004  uint256 tokenRewardForStaking = multiplier * rewardPerBlockForStaking */\n      swap1\n      pop\n        /* \"contracts/LooksRare/TokenDistributor.sol\":10021:10045  uint256 adjustedEndBlock */\n      0x00\n        /* \"contracts/LooksRare/TokenDistributor.sol\":10048:10056  endBlock */\n      sload(0x03)\n        /* \"contracts/LooksRare/TokenDistributor.sol\":10021:10056  uint256 adjustedEndBlock = endBlock */\n      swap1\n      pop\n        /* \"contracts/LooksRare/TokenDistributor.sol\":10071:10099  uint256 adjustedCurrentPhase */\n      0x00\n        /* \"contracts/LooksRare/TokenDistributor.sol\":10102:10114  currentPhase */\n      sload(0x02)\n        /* \"contracts/LooksRare/TokenDistributor.sol\":10071:10114  uint256 adjustedCurrentPhase = currentPhase */\n      swap1\n      pop\n        /* \"contracts/LooksRare/TokenDistributor.sol\":10204:11238  while ((block.number > adjustedEndBlock) && (adjustedCurrentPhase < (NUMBER_PERIODS - 1))) {... */\n    tag_100:\n        /* \"contracts/LooksRare/TokenDistributor.sol\":10227:10243  adjustedEndBlock */\n      dup2\n        /* \"contracts/LooksRare/TokenDistributor.sol\":10212:10224  block.number */\n      number\n        /* \"contracts/LooksRare/TokenDistributor.sol\":10212:10243  block.number > adjustedEndBlock */\n      gt\n        /* \"contracts/LooksRare/TokenDistributor.sol\":10211:10293  (block.number > adjustedEndBlock) && (adjustedCurrentPhase < (NUMBER_PERIODS - 1)) */\n      dup1\n      iszero\n      tag_102\n      jumpi\n      pop\n        /* \"contracts/LooksRare/TokenDistributor.sol\":10290:10291  1 */\n      0x01\n        /* \"contracts/LooksRare/TokenDistributor.sol\":10273:10287  NUMBER_PERIODS */\n      immutable(\"0xafcd10eb8a933fb34272fbf3a0d55ec898d75144e8be37ea9b6ca4a0ee7bc3b2\")\n        /* \"contracts/LooksRare/TokenDistributor.sol\":10273:10291  NUMBER_PERIODS - 1 */\n      tag_103\n      swap2\n      swap1\n      tag_104\n      jump\t// in\n    tag_103:\n        /* \"contracts/LooksRare/TokenDistributor.sol\":10249:10269  adjustedCurrentPhase */\n      dup2\n        /* \"contracts/LooksRare/TokenDistributor.sol\":10249:10292  adjustedCurrentPhase < (NUMBER_PERIODS - 1) */\n      lt\n        /* \"contracts/LooksRare/TokenDistributor.sol\":10211:10293  (block.number > adjustedEndBlock) && (adjustedCurrentPhase < (NUMBER_PERIODS - 1)) */\n    tag_102:\n        /* \"contracts/LooksRare/TokenDistributor.sol\":10204:11238  while ((block.number > adjustedEndBlock) && (adjustedCurrentPhase < (NUMBER_PERIODS - 1))) {... */\n      iszero\n      tag_101\n      jumpi\n        /* \"contracts/LooksRare/TokenDistributor.sol\":10355:10377  adjustedCurrentPhase++ */\n      dup1\n      dup1\n      tag_105\n      swap1\n      tag_106\n      jump\t// in\n    tag_105:\n      swap2\n      pop\n      pop\n        /* \"contracts/LooksRare/TokenDistributor.sol\":10443:10483  uint256 adjustedRewardPerBlockForStaking */\n      0x00\n        /* \"contracts/LooksRare/TokenDistributor.sol\":10486:10499  stakingPeriod */\n      0x08\n        /* \"contracts/LooksRare/TokenDistributor.sol\":10486:10521  stakingPeriod[adjustedCurrentPhase] */\n      0x00\n        /* \"contracts/LooksRare/TokenDistributor.sol\":10500:10520  adjustedCurrentPhase */\n      dup4\n        /* \"contracts/LooksRare/TokenDistributor.sol\":10486:10521  stakingPeriod[adjustedCurrentPhase] */\n      dup2\n      mstore\n      0x20\n      add\n      swap1\n      dup2\n      mstore\n      0x20\n      add\n      0x00\n      keccak256\n        /* \"contracts/LooksRare/TokenDistributor.sol\":10486:10546  stakingPeriod[adjustedCurrentPhase].rewardPerBlockForStaking */\n      0x00\n      add\n      sload\n        /* \"contracts/LooksRare/TokenDistributor.sol\":10443:10546  uint256 adjustedRewardPerBlockForStaking = stakingPeriod[adjustedCurrentPhase].rewardPerBlockForStaking */\n      swap1\n      pop\n        /* \"contracts/LooksRare/TokenDistributor.sol\":10619:10643  uint256 previousEndBlock */\n      0x00\n        /* \"contracts/LooksRare/TokenDistributor.sol\":10646:10662  adjustedEndBlock */\n      dup4\n        /* \"contracts/LooksRare/TokenDistributor.sol\":10619:10662  uint256 previousEndBlock = adjustedEndBlock */\n      swap1\n      pop\n        /* \"contracts/LooksRare/TokenDistributor.sol\":10758:10771  stakingPeriod */\n      0x08\n        /* \"contracts/LooksRare/TokenDistributor.sol\":10758:10793  stakingPeriod[adjustedCurrentPhase] */\n      0x00\n        /* \"contracts/LooksRare/TokenDistributor.sol\":10772:10792  adjustedCurrentPhase */\n      dup5\n        /* \"contracts/LooksRare/TokenDistributor.sol\":10758:10793  stakingPeriod[adjustedCurrentPhase] */\n      dup2\n      mstore\n      0x20\n      add\n      swap1\n      dup2\n      mstore\n      0x20\n      add\n      0x00\n      keccak256\n        /* \"contracts/LooksRare/TokenDistributor.sol\":10758:10813  stakingPeriod[adjustedCurrentPhase].periodLengthInBlock */\n      0x02\n      add\n      sload\n        /* \"contracts/LooksRare/TokenDistributor.sol\":10739:10755  previousEndBlock */\n      dup2\n        /* \"contracts/LooksRare/TokenDistributor.sol\":10739:10813  previousEndBlock + stakingPeriod[adjustedCurrentPhase].periodLengthInBlock */\n      tag_107\n      swap2\n      swap1\n      tag_108\n      jump\t// in\n    tag_107:\n        /* \"contracts/LooksRare/TokenDistributor.sol\":10720:10813  adjustedEndBlock = previousEndBlock + stakingPeriod[adjustedCurrentPhase].periodLengthInBlock */\n      swap4\n      pop\n        /* \"contracts/LooksRare/TokenDistributor.sol\":10879:10900  uint256 newMultiplier */\n      0x00\n        /* \"contracts/LooksRare/TokenDistributor.sol\":10920:10936  adjustedEndBlock */\n      dup5\n        /* \"contracts/LooksRare/TokenDistributor.sol\":10904:10916  block.number */\n      number\n        /* \"contracts/LooksRare/TokenDistributor.sol\":10904:10936  block.number <= adjustedEndBlock */\n      gt\n      iszero\n        /* \"contracts/LooksRare/TokenDistributor.sol\":10903:11073  (block.number <= adjustedEndBlock)... */\n      tag_109\n      jumpi\n        /* \"contracts/LooksRare/TokenDistributor.sol\":11018:11031  stakingPeriod */\n      0x08\n        /* \"contracts/LooksRare/TokenDistributor.sol\":11018:11053  stakingPeriod[adjustedCurrentPhase] */\n      0x00\n        /* \"contracts/LooksRare/TokenDistributor.sol\":11032:11052  adjustedCurrentPhase */\n      dup6\n        /* \"contracts/LooksRare/TokenDistributor.sol\":11018:11053  stakingPeriod[adjustedCurrentPhase] */\n      dup2\n      mstore\n      0x20\n      add\n      swap1\n      dup2\n      mstore\n      0x20\n      add\n      0x00\n      keccak256\n        /* \"contracts/LooksRare/TokenDistributor.sol\":11018:11073  stakingPeriod[adjustedCurrentPhase].periodLengthInBlock */\n      0x02\n      add\n      sload\n        /* \"contracts/LooksRare/TokenDistributor.sol\":10903:11073  (block.number <= adjustedEndBlock)... */\n      jump(tag_110)\n    tag_109:\n        /* \"contracts/LooksRare/TokenDistributor.sol\":10977:10993  previousEndBlock */\n      dup2\n        /* \"contracts/LooksRare/TokenDistributor.sol\":10962:10974  block.number */\n      number\n        /* \"contracts/LooksRare/TokenDistributor.sol\":10962:10993  block.number - previousEndBlock */\n      tag_111\n      swap2\n      swap1\n      tag_104\n      jump\t// in\n    tag_111:\n        /* \"contracts/LooksRare/TokenDistributor.sol\":10903:11073  (block.number <= adjustedEndBlock)... */\n    tag_110:\n        /* \"contracts/LooksRare/TokenDistributor.sol\":10879:11073  uint256 newMultiplier = (block.number <= adjustedEndBlock)... */\n      swap1\n      pop\n        /* \"contracts/LooksRare/TokenDistributor.sol\":11189:11221  adjustedRewardPerBlockForStaking */\n      dup3\n        /* \"contracts/LooksRare/TokenDistributor.sol\":11173:11186  newMultiplier */\n      dup2\n        /* \"contracts/LooksRare/TokenDistributor.sol\":11173:11221  newMultiplier * adjustedRewardPerBlockForStaking */\n      tag_112\n      swap2\n      swap1\n      tag_99\n      jump\t// in\n    tag_112:\n        /* \"contracts/LooksRare/TokenDistributor.sol\":11147:11222  tokenRewardForStaking += (newMultiplier * adjustedRewardPerBlockForStaking) */\n      dup7\n      tag_113\n      swap2\n      swap1\n      tag_108\n      jump\t// in\n    tag_113:\n      swap6\n      pop\n        /* \"contracts/LooksRare/TokenDistributor.sol\":10295:11238  {... */\n      pop\n      pop\n      pop\n        /* \"contracts/LooksRare/TokenDistributor.sol\":10204:11238  while ((block.number > adjustedEndBlock) && (adjustedCurrentPhase < (NUMBER_PERIODS - 1))) {... */\n      jump(tag_100)\n    tag_101:\n        /* \"contracts/LooksRare/TokenDistributor.sol\":11254:11283  uint256 adjustedTokenPerShare */\n      0x00\n        /* \"contracts/LooksRare/TokenDistributor.sol\":11384:11401  totalAmountStaked */\n      sload(0x07)\n        /* \"contracts/LooksRare/TokenDistributor.sol\":968:974  10**12 */\n      0xe8d4a51000\n        /* \"contracts/LooksRare/TokenDistributor.sol\":11323:11344  tokenRewardForStaking */\n      dup6\n        /* \"contracts/LooksRare/TokenDistributor.sol\":11323:11363  tokenRewardForStaking * PRECISION_FACTOR */\n      tag_114\n      swap2\n      swap1\n      tag_99\n      jump\t// in\n    tag_114:\n        /* \"contracts/LooksRare/TokenDistributor.sol\":11322:11401  (tokenRewardForStaking * PRECISION_FACTOR) /... */\n      tag_115\n      swap2\n      swap1\n      tag_116\n      jump\t// in\n    tag_115:\n        /* \"contracts/LooksRare/TokenDistributor.sol\":11286:11302  accTokenPerShare */\n      sload(0x01)\n        /* \"contracts/LooksRare/TokenDistributor.sol\":11286:11401  accTokenPerShare +... */\n      tag_117\n      swap2\n      swap1\n      tag_108\n      jump\t// in\n    tag_117:\n        /* \"contracts/LooksRare/TokenDistributor.sol\":11254:11401  uint256 adjustedTokenPerShare = accTokenPerShare +... */\n      swap1\n      pop\n        /* \"contracts/LooksRare/TokenDistributor.sol\":11494:11502  userInfo */\n      0x09\n        /* \"contracts/LooksRare/TokenDistributor.sol\":11494:11508  userInfo[user] */\n      0x00\n        /* \"contracts/LooksRare/TokenDistributor.sol\":11503:11507  user */\n      dup9\n        /* \"contracts/LooksRare/TokenDistributor.sol\":11494:11508  userInfo[user] */\n      0xffffffffffffffffffffffffffffffffffffffff\n      and\n      0xffffffffffffffffffffffffffffffffffffffff\n      and\n      dup2\n      mstore\n      0x20\n      add\n      swap1\n      dup2\n      mstore\n      0x20\n      add\n      0x00\n      keccak256\n        /* \"contracts/LooksRare/TokenDistributor.sol\":11494:11519  userInfo[user].rewardDebt */\n      0x01\n      add\n      sload\n        /* \"contracts/LooksRare/TokenDistributor.sol\":968:974  10**12 */\n      0xe8d4a51000\n        /* \"contracts/LooksRare/TokenDistributor.sol\":11450:11471  adjustedTokenPerShare */\n      dup3\n        /* \"contracts/LooksRare/TokenDistributor.sol\":11426:11434  userInfo */\n      0x09\n        /* \"contracts/LooksRare/TokenDistributor.sol\":11426:11440  userInfo[user] */\n      0x00\n        /* \"contracts/LooksRare/TokenDistributor.sol\":11435:11439  user */\n      dup12\n        /* \"contracts/LooksRare/TokenDistributor.sol\":11426:11440  userInfo[user] */\n      0xffffffffffffffffffffffffffffffffffffffff\n      and\n      0xffffffffffffffffffffffffffffffffffffffff\n      and\n      dup2\n      mstore\n      0x20\n      add\n      swap1\n      dup2\n      mstore\n      0x20\n      add\n      0x00\n      keccak256\n        /* \"contracts/LooksRare/TokenDistributor.sol\":11426:11447  userInfo[user].amount */\n      0x00\n      add\n      sload\n        /* \"contracts/LooksRare/TokenDistributor.sol\":11426:11471  userInfo[user].amount * adjustedTokenPerShare */\n      tag_118\n      swap2\n      swap1\n      tag_99\n      jump\t// in\n    tag_118:\n        /* \"contracts/LooksRare/TokenDistributor.sol\":11425:11491  (userInfo[user].amount * adjustedTokenPerShare) / PRECISION_FACTOR */\n      tag_119\n      swap2\n      swap1\n      tag_116\n      jump\t// in\n    tag_119:\n        /* \"contracts/LooksRare/TokenDistributor.sol\":11425:11519  (userInfo[user].amount * adjustedTokenPerShare) / PRECISION_FACTOR - userInfo[user].rewardDebt */\n      tag_120\n      swap2\n      swap1\n      tag_104\n      jump\t// in\n    tag_120:\n        /* \"contracts/LooksRare/TokenDistributor.sol\":11418:11519  return (userInfo[user].amount * adjustedTokenPerShare) / PRECISION_FACTOR - userInfo[user].rewardDebt */\n      swap6\n      pop\n      pop\n      pop\n      pop\n      pop\n      pop\n      jump(tag_93)\n        /* \"contracts/LooksRare/TokenDistributor.sol\":9771:11660  if ((block.number > lastRewardBlock) && (totalAmountStaked != 0)) {... */\n    tag_95:\n        /* \"contracts/LooksRare/TokenDistributor.sol\":11623:11631  userInfo */\n      0x09\n        /* \"contracts/LooksRare/TokenDistributor.sol\":11623:11637  userInfo[user] */\n      0x00\n        /* \"contracts/LooksRare/TokenDistributor.sol\":11632:11636  user */\n      dup4\n        /* \"contracts/LooksRare/TokenDistributor.sol\":11623:11637  userInfo[user] */\n      0xffffffffffffffffffffffffffffffffffffffff\n      and\n      0xffffffffffffffffffffffffffffffffffffffff\n      and\n      dup2\n      mstore\n      0x20\n      add\n      swap1\n      dup2\n      mstore\n      0x20\n      add\n      0x00\n      keccak256\n        /* \"contracts/LooksRare/TokenDistributor.sol\":11623:11648  userInfo[user].rewardDebt */\n      0x01\n      add\n      sload\n        /* \"contracts/LooksRare/TokenDistributor.sol\":968:974  10**12 */\n      0xe8d4a51000\n        /* \"contracts/LooksRare/TokenDistributor.sol\":11584:11600  accTokenPerShare */\n      sload(0x01)\n        /* \"contracts/LooksRare/TokenDistributor.sol\":11560:11568  userInfo */\n      0x09\n        /* \"contracts/LooksRare/TokenDistributor.sol\":11560:11574  userInfo[user] */\n      0x00\n        /* \"contracts/LooksRare/TokenDistributor.sol\":11569:11573  user */\n      dup7\n        /* \"contracts/LooksRare/TokenDistributor.sol\":11560:11574  userInfo[user] */\n      0xffffffffffffffffffffffffffffffffffffffff\n      and\n      0xffffffffffffffffffffffffffffffffffffffff\n      and\n      dup2\n      mstore\n      0x20\n      add\n      swap1\n      dup2\n      mstore\n      0x20\n      add\n      0x00\n      keccak256\n        /* \"contracts/LooksRare/TokenDistributor.sol\":11560:11581  userInfo[user].amount */\n      0x00\n      add\n      sload\n        /* \"contracts/LooksRare/TokenDistributor.sol\":11560:11600  userInfo[user].amount * accTokenPerShare */\n      tag_122\n      swap2\n      swap1\n      tag_99\n      jump\t// in\n    tag_122:\n        /* \"contracts/LooksRare/TokenDistributor.sol\":11559:11620  (userInfo[user].amount * accTokenPerShare) / PRECISION_FACTOR */\n      tag_123\n      swap2\n      swap1\n      tag_116\n      jump\t// in\n    tag_123:\n        /* \"contracts/LooksRare/TokenDistributor.sol\":11559:11648  (userInfo[user].amount * accTokenPerShare) / PRECISION_FACTOR - userInfo[user].rewardDebt */\n      tag_124\n      swap2\n      swap1\n      tag_104\n      jump\t// in\n    tag_124:\n        /* \"contracts/LooksRare/TokenDistributor.sol\":11552:11648  return (userInfo[user].amount * accTokenPerShare) / PRECISION_FACTOR - userInfo[user].rewardDebt */\n      swap1\n      pop\n        /* \"contracts/LooksRare/TokenDistributor.sol\":9681:11667  function calculatePendingRewards(address user) external view returns (uint256) {... */\n    tag_93:\n      swap2\n      swap1\n      pop\n      jump\t// out\n        /* \"contracts/LooksRare/TokenDistributor.sol\":1911:1955  mapping(address => UserInfo) public userInfo */\n    tag_40:\n      mstore(0x20, 0x09)\n      dup1\n      0x00\n      mstore\n      keccak256(0x00, 0x40)\n      0x00\n      swap2\n      pop\n      swap1\n      pop\n      dup1\n      0x00\n      add\n      sload\n      swap1\n      dup1\n      0x01\n      add\n      sload\n      swap1\n      pop\n      dup3\n      jump\t// out\n        /* \"contracts/LooksRare/TokenDistributor.sol\":6281:7227  function harvestAndCompound() external nonReentrant {... */\n    tag_44:\n        /* \"@openzeppelin/contracts/security/ReentrancyGuard.sol\":1744:1745  2 */\n      0x02\n        /* \"@openzeppelin/contracts/security/ReentrancyGuard.sol\":2325:2332  _status */\n      sload(0x00)\n        /* \"@openzeppelin/contracts/security/ReentrancyGuard.sol\":2325:2344  _status != _ENTERED */\n      eq\n      iszero\n        /* \"@openzeppelin/contracts/security/ReentrancyGuard.sol\":2317:2380  require(_status != _ENTERED, \"ReentrancyGuard: reentrant call\") */\n      tag_126\n      jumpi\n      mload(0x40)\n      0x08c379a000000000000000000000000000000000000000000000000000000000\n      dup2\n      mstore\n      0x04\n      add\n      tag_127\n      swap1\n      tag_128\n      jump\t// in\n    tag_127:\n      mload(0x40)\n      dup1\n      swap2\n      sub\n      swap1\n      revert\n    tag_126:\n        /* \"@openzeppelin/contracts/security/ReentrancyGuard.sol\":1744:1745  2 */\n      0x02\n        /* \"@openzeppelin/contracts/security/ReentrancyGuard.sol\":2455:2462  _status */\n      0x00\n        /* \"@openzeppelin/contracts/security/ReentrancyGuard.sol\":2455:2473  _status = _ENTERED */\n      dup2\n      swap1\n      sstore\n      pop\n        /* \"contracts/LooksRare/TokenDistributor.sol\":6380:6393  _updatePool() */\n      tag_130\n        /* \"contracts/LooksRare/TokenDistributor.sol\":6380:6391  _updatePool */\n      tag_131\n        /* \"contracts/LooksRare/TokenDistributor.sol\":6380:6393  _updatePool() */\n      jump\t// in\n    tag_130:\n        /* \"contracts/LooksRare/TokenDistributor.sol\":6444:6466  uint256 pendingRewards */\n      0x00\n        /* \"contracts/LooksRare/TokenDistributor.sol\":6554:6562  userInfo */\n      0x09\n        /* \"contracts/LooksRare/TokenDistributor.sol\":6554:6574  userInfo[msg.sender] */\n      0x00\n        /* \"contracts/LooksRare/TokenDistributor.sol\":6563:6573  msg.sender */\n      caller\n        /* \"contracts/LooksRare/TokenDistributor.sol\":6554:6574  userInfo[msg.sender] */\n      0xffffffffffffffffffffffffffffffffffffffff\n      and\n      0xffffffffffffffffffffffffffffffffffffffff\n      and\n      dup2\n      mstore\n      0x20\n      add\n      swap1\n      dup2\n      mstore\n      0x20\n      add\n      0x00\n      keccak256\n        /* \"contracts/LooksRare/TokenDistributor.sol\":6554:6585  userInfo[msg.sender].rewardDebt */\n      0x01\n      add\n      sload\n        /* \"contracts/LooksRare/TokenDistributor.sol\":968:974  10**12 */\n      0xe8d4a51000\n        /* \"contracts/LooksRare/TokenDistributor.sol\":6501:6517  accTokenPerShare */\n      sload(0x01)\n        /* \"contracts/LooksRare/TokenDistributor.sol\":6471:6479  userInfo */\n      0x09\n        /* \"contracts/LooksRare/TokenDistributor.sol\":6471:6491  userInfo[msg.sender] */\n      0x00\n        /* \"contracts/LooksRare/TokenDistributor.sol\":6480:6490  msg.sender */\n      caller\n        /* \"contracts/LooksRare/TokenDistributor.sol\":6471:6491  userInfo[msg.sender] */\n      0xffffffffffffffffffffffffffffffffffffffff\n      and\n      0xffffffffffffffffffffffffffffffffffffffff\n      and\n      dup2\n      mstore\n      0x20\n      add\n      swap1\n      dup2\n      mstore\n      0x20\n      add\n      0x00\n      keccak256\n        /* \"contracts/LooksRare/TokenDistributor.sol\":6471:6498  userInfo[msg.sender].amount */\n      0x00\n      add\n      sload\n        /* \"contracts/LooksRare/TokenDistributor.sol\":6471:6517  userInfo[msg.sender].amount * accTokenPerShare */\n      tag_132\n      swap2\n      swap1\n      tag_99\n      jump\t// in\n    tag_132:\n        /* \"contracts/LooksRare/TokenDistributor.sol\":6470:6537  (userInfo[msg.sender].amount * accTokenPerShare) / PRECISION_FACTOR */\n      tag_133\n      swap2\n      swap1\n      tag_116\n      jump\t// in\n    tag_133:\n        /* \"contracts/LooksRare/TokenDistributor.sol\":6469:6585  ((userInfo[msg.sender].amount * accTokenPerShare) / PRECISION_FACTOR) -... */\n      tag_134\n      swap2\n      swap1\n      tag_104\n      jump\t// in\n    tag_134:\n        /* \"contracts/LooksRare/TokenDistributor.sol\":6444:6585  uint256 pendingRewards = ((userInfo[msg.sender].amount * accTokenPerShare) / PRECISION_FACTOR) -... */\n      swap1\n      pop\n        /* \"contracts/LooksRare/TokenDistributor.sol\":6661:6662  0 */\n      0x00\n        /* \"contracts/LooksRare/TokenDistributor.sol\":6643:6657  pendingRewards */\n      dup2\n        /* \"contracts/LooksRare/TokenDistributor.sol\":6643:6662  pendingRewards == 0 */\n      eq\n        /* \"contracts/LooksRare/TokenDistributor.sol\":6639:6797  if (pendingRewards == 0) {... */\n      iszero\n      tag_135\n      jumpi\n        /* \"contracts/LooksRare/TokenDistributor.sol\":6779:6786  return; */\n      pop\n      jump(tag_129)\n        /* \"contracts/LooksRare/TokenDistributor.sol\":6639:6797  if (pendingRewards == 0) {... */\n    tag_135:\n        /* \"contracts/LooksRare/TokenDistributor.sol\":6891:6905  pendingRewards */\n      dup1\n        /* \"contracts/LooksRare/TokenDistributor.sol\":6860:6868  userInfo */\n      0x09\n        /* \"contracts/LooksRare/TokenDistributor.sol\":6860:6880  userInfo[msg.sender] */\n      0x00\n        /* \"contracts/LooksRare/TokenDistributor.sol\":6869:6879  msg.sender */\n      caller\n        /* \"contracts/LooksRare/TokenDistributor.sol\":6860:6880  userInfo[msg.sender] */\n      0xffffffffffffffffffffffffffffffffffffffff\n      and\n      0xffffffffffffffffffffffffffffffffffffffff\n      and\n      dup2\n      mstore\n      0x20\n      add\n      swap1\n      dup2\n      mstore\n      0x20\n      add\n      0x00\n      keccak256\n        /* \"contracts/LooksRare/TokenDistributor.sol\":6860:6887  userInfo[msg.sender].amount */\n      0x00\n      add\n      0x00\n        /* \"contracts/LooksRare/TokenDistributor.sol\":6860:6905  userInfo[msg.sender].amount += pendingRewards */\n      dup3\n      dup3\n      sload\n      tag_136\n      swap2\n      swap1\n      tag_108\n      jump\t// in\n    tag_136:\n      swap3\n      pop\n      pop\n      dup2\n      swap1\n      sstore\n      pop\n        /* \"contracts/LooksRare/TokenDistributor.sol\":6976:6990  pendingRewards */\n      dup1\n        /* \"contracts/LooksRare/TokenDistributor.sol\":6955:6972  totalAmountStaked */\n      0x07\n      0x00\n        /* \"contracts/LooksRare/TokenDistributor.sol\":6955:6990  totalAmountStaked += pendingRewards */\n      dup3\n      dup3\n      sload\n      tag_137\n      swap2\n      swap1\n      tag_108\n      jump\t// in\n    tag_137:\n      swap3\n      pop\n      pop\n      dup2\n      swap1\n      sstore\n      pop\n        /* \"contracts/LooksRare/TokenDistributor.sol\":968:974  10**12 */\n      0xe8d4a51000\n        /* \"contracts/LooksRare/TokenDistributor.sol\":7129:7145  accTokenPerShare */\n      sload(0x01)\n        /* \"contracts/LooksRare/TokenDistributor.sol\":7099:7107  userInfo */\n      0x09\n        /* \"contracts/LooksRare/TokenDistributor.sol\":7099:7119  userInfo[msg.sender] */\n      0x00\n        /* \"contracts/LooksRare/TokenDistributor.sol\":7108:7118  msg.sender */\n      caller\n        /* \"contracts/LooksRare/TokenDistributor.sol\":7099:7119  userInfo[msg.sender] */\n      0xffffffffffffffffffffffffffffffffffffffff\n      and\n      0xffffffffffffffffffffffffffffffffffffffff\n      and\n      dup2\n      mstore\n      0x20\n      add\n      swap1\n      dup2\n      mstore\n      0x20\n      add\n      0x00\n      keccak256\n        /* \"contracts/LooksRare/TokenDistributor.sol\":7099:7126  userInfo[msg.sender].amount */\n      0x00\n      add\n      sload\n        /* \"contracts/LooksRare/TokenDistributor.sol\":7099:7145  userInfo[msg.sender].amount * accTokenPerShare */\n      tag_138\n      swap2\n      swap1\n      tag_99\n      jump\t// in\n    tag_138:\n        /* \"contracts/LooksRare/TokenDistributor.sol\":7098:7165  (userInfo[msg.sender].amount * accTokenPerShare) / PRECISION_FACTOR */\n      tag_139\n      swap2\n      swap1\n      tag_116\n      jump\t// in\n    tag_139:\n        /* \"contracts/LooksRare/TokenDistributor.sol\":7064:7072  userInfo */\n      0x09\n        /* \"contracts/LooksRare/TokenDistributor.sol\":7064:7084  userInfo[msg.sender] */\n      0x00\n        /* \"contracts/LooksRare/TokenDistributor.sol\":7073:7083  msg.sender */\n      caller\n        /* \"contracts/LooksRare/TokenDistributor.sol\":7064:7084  userInfo[msg.sender] */\n      0xffffffffffffffffffffffffffffffffffffffff\n      and\n      0xffffffffffffffffffffffffffffffffffffffff\n      and\n      dup2\n      mstore\n      0x20\n      add\n      swap1\n      dup2\n      mstore\n      0x20\n      add\n      0x00\n      keccak256\n        /* \"contracts/LooksRare/TokenDistributor.sol\":7064:7095  userInfo[msg.sender].rewardDebt */\n      0x01\n      add\n        /* \"contracts/LooksRare/TokenDistributor.sol\":7064:7165  userInfo[msg.sender].rewardDebt = (userInfo[msg.sender].amount * accTokenPerShare) / PRECISION_FACTOR */\n      dup2\n      swap1\n      sstore\n      pop\n        /* \"contracts/LooksRare/TokenDistributor.sol\":7192:7202  msg.sender */\n      caller\n        /* \"contracts/LooksRare/TokenDistributor.sol\":7183:7219  Compound(msg.sender, pendingRewards) */\n      0xffffffffffffffffffffffffffffffffffffffff\n      and\n      0x169f1815ebdea059aac3bb00ec9a9594c7a5ffcb64a17e8392b5d84909a14556\n        /* \"contracts/LooksRare/TokenDistributor.sol\":7204:7218  pendingRewards */\n      dup3\n        /* \"contracts/LooksRare/TokenDistributor.sol\":7183:7219  Compound(msg.sender, pendingRewards) */\n      mload(0x40)\n      tag_140\n      swap2\n      swap1\n      tag_29\n      jump\t// in\n    tag_140:\n      mload(0x40)\n      dup1\n      swap2\n      sub\n      swap1\n      log2\n        /* \"contracts/LooksRare/TokenDistributor.sol\":6333:7227  {... */\n      pop\n        /* \"@openzeppelin/contracts/security/ReentrancyGuard.sol\":2484:2485  _ */\n    tag_129:\n        /* \"@openzeppelin/contracts/security/ReentrancyGuard.sol\":1701:1702  1 */\n      0x01\n        /* \"@openzeppelin/contracts/security/ReentrancyGuard.sol\":2628:2635  _status */\n      0x00\n        /* \"@openzeppelin/contracts/security/ReentrancyGuard.sol\":2628:2650  _status = _NOT_ENTERED */\n      dup2\n      swap1\n      sstore\n      pop\n        /* \"contracts/LooksRare/TokenDistributor.sol\":6281:7227  function harvestAndCompound() external nonReentrant {... */\n      jump\t// out\n        /* \"contracts/LooksRare/TokenDistributor.sol\":7500:8506  function withdraw(uint256 amount) external nonReentrant {... */\n    tag_48:\n        /* \"@openzeppelin/contracts/security/ReentrancyGuard.sol\":1744:1745  2 */\n      0x02\n        /* \"@openzeppelin/contracts/security/ReentrancyGuard.sol\":2325:2332  _status */\n      sload(0x00)\n        /* \"@openzeppelin/contracts/security/ReentrancyGuard.sol\":2325:2344  _status != _ENTERED */\n      eq\n      iszero\n        /* \"@openzeppelin/contracts/security/ReentrancyGuard.sol\":2317:2380  require(_status != _ENTERED, \"ReentrancyGuard: reentrant call\") */\n      tag_142\n      jumpi\n      mload(0x40)\n      0x08c379a000000000000000000000000000000000000000000000000000000000\n      dup2\n      mstore\n      0x04\n      add\n      tag_143\n      swap1\n      tag_128\n      jump\t// in\n    tag_143:\n      mload(0x40)\n      dup1\n      swap2\n      sub\n      swap1\n      revert\n    tag_142:\n        /* \"@openzeppelin/contracts/security/ReentrancyGuard.sol\":1744:1745  2 */\n      0x02\n        /* \"@openzeppelin/contracts/security/ReentrancyGuard.sol\":2455:2462  _status */\n      0x00\n        /* \"@openzeppelin/contracts/security/ReentrancyGuard.sol\":2455:2473  _status = _ENTERED */\n      dup2\n      swap1\n      sstore\n      pop\n        /* \"contracts/LooksRare/TokenDistributor.sol\":7621:7627  amount */\n      dup1\n        /* \"contracts/LooksRare/TokenDistributor.sol\":7590:7598  userInfo */\n      0x09\n        /* \"contracts/LooksRare/TokenDistributor.sol\":7590:7610  userInfo[msg.sender] */\n      0x00\n        /* \"contracts/LooksRare/TokenDistributor.sol\":7599:7609  msg.sender */\n      caller\n        /* \"contracts/LooksRare/TokenDistributor.sol\":7590:7610  userInfo[msg.sender] */\n      0xffffffffffffffffffffffffffffffffffffffff\n      and\n      0xffffffffffffffffffffffffffffffffffffffff\n      and\n      dup2\n      mstore\n      0x20\n      add\n      swap1\n      dup2\n      mstore\n      0x20\n      add\n      0x00\n      keccak256\n        /* \"contracts/LooksRare/TokenDistributor.sol\":7590:7617  userInfo[msg.sender].amount */\n      0x00\n      add\n      sload\n        /* \"contracts/LooksRare/TokenDistributor.sol\":7590:7627  userInfo[msg.sender].amount >= amount */\n      lt\n      iszero\n        /* \"contracts/LooksRare/TokenDistributor.sol\":7589:7644  (userInfo[msg.sender].amount >= amount) && (amount > 0) */\n      dup1\n      iszero\n      tag_145\n      jumpi\n      pop\n        /* \"contracts/LooksRare/TokenDistributor.sol\":7642:7643  0 */\n      0x00\n        /* \"contracts/LooksRare/TokenDistributor.sol\":7633:7639  amount */\n      dup2\n        /* \"contracts/LooksRare/TokenDistributor.sol\":7633:7643  amount > 0 */\n      gt\n        /* \"contracts/LooksRare/TokenDistributor.sol\":7589:7644  (userInfo[msg.sender].amount >= amount) && (amount > 0) */\n    tag_145:\n        /* \"contracts/LooksRare/TokenDistributor.sol\":7567:7727  require(... */\n      tag_146\n      jumpi\n      mload(0x40)\n      0x08c379a000000000000000000000000000000000000000000000000000000000\n      dup2\n      mstore\n      0x04\n      add\n      tag_147\n      swap1\n      tag_148\n      jump\t// in\n    tag_147:\n      mload(0x40)\n      dup1\n      swap2\n      sub\n      swap1\n      revert\n    tag_146:\n        /* \"contracts/LooksRare/TokenDistributor.sol\":7764:7777  _updatePool() */\n      tag_149\n        /* \"contracts/LooksRare/TokenDistributor.sol\":7764:7775  _updatePool */\n      tag_131\n        /* \"contracts/LooksRare/TokenDistributor.sol\":7764:7777  _updatePool() */\n      jump\t// in\n    tag_149:\n        /* \"contracts/LooksRare/TokenDistributor.sol\":7828:7850  uint256 pendingRewards */\n      0x00\n        /* \"contracts/LooksRare/TokenDistributor.sol\":7938:7946  userInfo */\n      0x09\n        /* \"contracts/LooksRare/TokenDistributor.sol\":7938:7958  userInfo[msg.sender] */\n      0x00\n        /* \"contracts/LooksRare/TokenDistributor.sol\":7947:7957  msg.sender */\n      caller\n        /* \"contracts/LooksRare/TokenDistributor.sol\":7938:7958  userInfo[msg.sender] */\n      0xffffffffffffffffffffffffffffffffffffffff\n      and\n      0xffffffffffffffffffffffffffffffffffffffff\n      and\n      dup2\n      mstore\n      0x20\n      add\n      swap1\n      dup2\n      mstore\n      0x20\n      add\n      0x00\n      keccak256\n        /* \"contracts/LooksRare/TokenDistributor.sol\":7938:7969  userInfo[msg.sender].rewardDebt */\n      0x01\n      add\n      sload\n        /* \"contracts/LooksRare/TokenDistributor.sol\":968:974  10**12 */\n      0xe8d4a51000\n        /* \"contracts/LooksRare/TokenDistributor.sol\":7885:7901  accTokenPerShare */\n      sload(0x01)\n        /* \"contracts/LooksRare/TokenDistributor.sol\":7855:7863  userInfo */\n      0x09\n        /* \"contracts/LooksRare/TokenDistributor.sol\":7855:7875  userInfo[msg.sender] */\n      0x00\n        /* \"contracts/LooksRare/TokenDistributor.sol\":7864:7874  msg.sender */\n      caller\n        /* \"contracts/LooksRare/TokenDistributor.sol\":7855:7875  userInfo[msg.sender] */\n      0xffffffffffffffffffffffffffffffffffffffff\n      and\n      0xffffffffffffffffffffffffffffffffffffffff\n      and\n      dup2\n      mstore\n      0x20\n      add\n      swap1\n      dup2\n      mstore\n      0x20\n      add\n      0x00\n      keccak256\n        /* \"contracts/LooksRare/TokenDistributor.sol\":7855:7882  userInfo[msg.sender].amount */\n      0x00\n      add\n      sload\n        /* \"contracts/LooksRare/TokenDistributor.sol\":7855:7901  userInfo[msg.sender].amount * accTokenPerShare */\n      tag_150\n      swap2\n      swap1\n      tag_99\n      jump\t// in\n    tag_150:\n        /* \"contracts/LooksRare/TokenDistributor.sol\":7854:7921  (userInfo[msg.sender].amount * accTokenPerShare) / PRECISION_FACTOR */\n      tag_151\n      swap2\n      swap1\n      tag_116\n      jump\t// in\n    tag_151:\n        /* \"contracts/LooksRare/TokenDistributor.sol\":7853:7969  ((userInfo[msg.sender].amount * accTokenPerShare) / PRECISION_FACTOR) -... */\n      tag_152\n      swap2\n      swap1\n      tag_104\n      jump\t// in\n    tag_152:\n        /* \"contracts/LooksRare/TokenDistributor.sol\":7828:7969  uint256 pendingRewards = ((userInfo[msg.sender].amount * accTokenPerShare) / PRECISION_FACTOR) -... */\n      swap1\n      pop\n        /* \"contracts/LooksRare/TokenDistributor.sol\":8095:8101  amount */\n      dup2\n        /* \"contracts/LooksRare/TokenDistributor.sol\":8078:8092  pendingRewards */\n      dup2\n        /* \"contracts/LooksRare/TokenDistributor.sol\":8048:8056  userInfo */\n      0x09\n        /* \"contracts/LooksRare/TokenDistributor.sol\":8048:8068  userInfo[msg.sender] */\n      0x00\n        /* \"contracts/LooksRare/TokenDistributor.sol\":8057:8067  msg.sender */\n      caller\n        /* \"contracts/LooksRare/TokenDistributor.sol\":8048:8068  userInfo[msg.sender] */\n      0xffffffffffffffffffffffffffffffffffffffff\n      and\n      0xffffffffffffffffffffffffffffffffffffffff\n      and\n      dup2\n      mstore\n      0x20\n      add\n      swap1\n      dup2\n      mstore\n      0x20\n      add\n      0x00\n      keccak256\n        /* \"contracts/LooksRare/TokenDistributor.sol\":8048:8075  userInfo[msg.sender].amount */\n      0x00\n      add\n      sload\n        /* \"contracts/LooksRare/TokenDistributor.sol\":8048:8092  userInfo[msg.sender].amount + pendingRewards */\n      tag_153\n      swap2\n      swap1\n      tag_108\n      jump\t// in\n    tag_153:\n        /* \"contracts/LooksRare/TokenDistributor.sol\":8048:8101  userInfo[msg.sender].amount + pendingRewards - amount */\n      tag_154\n      swap2\n      swap1\n      tag_104\n      jump\t// in\n    tag_154:\n        /* \"contracts/LooksRare/TokenDistributor.sol\":8018:8026  userInfo */\n      0x09\n        /* \"contracts/LooksRare/TokenDistributor.sol\":8018:8038  userInfo[msg.sender] */\n      0x00\n        /* \"contracts/LooksRare/TokenDistributor.sol\":8027:8037  msg.sender */\n      caller\n        /* \"contracts/LooksRare/TokenDistributor.sol\":8018:8038  userInfo[msg.sender] */\n      0xffffffffffffffffffffffffffffffffffffffff\n      and\n      0xffffffffffffffffffffffffffffffffffffffff\n      and\n      dup2\n      mstore\n      0x20\n      add\n      swap1\n      dup2\n      mstore\n      0x20\n      add\n      0x00\n      keccak256\n        /* \"contracts/LooksRare/TokenDistributor.sol\":8018:8045  userInfo[msg.sender].amount */\n      0x00\n      add\n        /* \"contracts/LooksRare/TokenDistributor.sol\":8018:8101  userInfo[msg.sender].amount = userInfo[msg.sender].amount + pendingRewards - amount */\n      dup2\n      swap1\n      sstore\n      pop\n        /* \"contracts/LooksRare/TokenDistributor.sol\":968:974  10**12 */\n      0xe8d4a51000\n        /* \"contracts/LooksRare/TokenDistributor.sol\":8177:8193  accTokenPerShare */\n      sload(0x01)\n        /* \"contracts/LooksRare/TokenDistributor.sol\":8147:8155  userInfo */\n      0x09\n        /* \"contracts/LooksRare/TokenDistributor.sol\":8147:8167  userInfo[msg.sender] */\n      0x00\n        /* \"contracts/LooksRare/TokenDistributor.sol\":8156:8166  msg.sender */\n      caller\n        /* \"contracts/LooksRare/TokenDistributor.sol\":8147:8167  userInfo[msg.sender] */\n      0xffffffffffffffffffffffffffffffffffffffff\n      and\n      0xffffffffffffffffffffffffffffffffffffffff\n      and\n      dup2\n      mstore\n      0x20\n      add\n      swap1\n      dup2\n      mstore\n      0x20\n      add\n      0x00\n      keccak256\n        /* \"contracts/LooksRare/TokenDistributor.sol\":8147:8174  userInfo[msg.sender].amount */\n      0x00\n      add\n      sload\n        /* \"contracts/LooksRare/TokenDistributor.sol\":8147:8193  userInfo[msg.sender].amount * accTokenPerShare */\n      tag_155\n      swap2\n      swap1\n      tag_99\n      jump\t// in\n    tag_155:\n        /* \"contracts/LooksRare/TokenDistributor.sol\":8146:8213  (userInfo[msg.sender].amount * accTokenPerShare) / PRECISION_FACTOR */\n      tag_156\n      swap2\n      swap1\n      tag_116\n      jump\t// in\n    tag_156:\n        /* \"contracts/LooksRare/TokenDistributor.sol\":8112:8120  userInfo */\n      0x09\n        /* \"contracts/LooksRare/TokenDistributor.sol\":8112:8132  userInfo[msg.sender] */\n      0x00\n        /* \"contracts/LooksRare/TokenDistributor.sol\":8121:8131  msg.sender */\n      caller\n        /* \"contracts/LooksRare/TokenDistributor.sol\":8112:8132  userInfo[msg.sender] */\n      0xffffffffffffffffffffffffffffffffffffffff\n      and\n      0xffffffffffffffffffffffffffffffffffffffff\n      and\n      dup2\n      mstore\n      0x20\n      add\n      swap1\n      dup2\n      mstore\n      0x20\n      add\n      0x00\n      keccak256\n        /* \"contracts/LooksRare/TokenDistributor.sol\":8112:8143  userInfo[msg.sender].rewardDebt */\n      0x01\n      add\n        /* \"contracts/LooksRare/TokenDistributor.sol\":8112:8213  userInfo[msg.sender].rewardDebt = (userInfo[msg.sender].amount * accTokenPerShare) / PRECISION_FACTOR */\n      dup2\n      swap1\n      sstore\n      pop\n        /* \"contracts/LooksRare/TokenDistributor.sol\":8322:8328  amount */\n      dup2\n        /* \"contracts/LooksRare/TokenDistributor.sol\":8305:8319  pendingRewards */\n      dup2\n        /* \"contracts/LooksRare/TokenDistributor.sol\":8285:8302  totalAmountStaked */\n      sload(0x07)\n        /* \"contracts/LooksRare/TokenDistributor.sol\":8285:8319  totalAmountStaked + pendingRewards */\n      tag_157\n      swap2\n      swap1\n      tag_108\n      jump\t// in\n    tag_157:\n        /* \"contracts/LooksRare/TokenDistributor.sol\":8285:8328  totalAmountStaked + pendingRewards - amount */\n      tag_158\n      swap2\n      swap1\n      tag_104\n      jump\t// in\n    tag_158:\n        /* \"contracts/LooksRare/TokenDistributor.sol\":8265:8282  totalAmountStaked */\n      0x07\n        /* \"contracts/LooksRare/TokenDistributor.sol\":8265:8328  totalAmountStaked = totalAmountStaked + pendingRewards - amount */\n      dup2\n      swap1\n      sstore\n      pop\n        /* \"contracts/LooksRare/TokenDistributor.sol\":8389:8436  looksRareToken.safeTransfer(msg.sender, amount) */\n      tag_159\n        /* \"contracts/LooksRare/TokenDistributor.sol\":8417:8427  msg.sender */\n      caller\n        /* \"contracts/LooksRare/TokenDistributor.sol\":8429:8435  amount */\n      dup4\n        /* \"contracts/LooksRare/TokenDistributor.sol\":8389:8403  looksRareToken */\n      immutable(\"0x94ac46a65f1fb0934ae334b85100dc6a35a94d53aa1e2b4e46f9a861095e9ac0\")\n        /* \"contracts/LooksRare/TokenDistributor.sol\":8389:8416  looksRareToken.safeTransfer */\n      0xffffffffffffffffffffffffffffffffffffffff\n      and\n      tag_160\n      swap1\n        /* \"contracts/LooksRare/TokenDistributor.sol\":8389:8436  looksRareToken.safeTransfer(msg.sender, amount) */\n      swap3\n      swap2\n      swap1\n      0xffffffff\n      and\n      jump\t// in\n    tag_159:\n        /* \"contracts/LooksRare/TokenDistributor.sol\":8463:8473  msg.sender */\n      caller\n        /* \"contracts/LooksRare/TokenDistributor.sol\":8454:8498  Withdraw(msg.sender, amount, pendingRewards) */\n      0xffffffffffffffffffffffffffffffffffffffff\n      and\n      0xf279e6a1f5e320cca91135676d9cb6e44ca8a08c0b88342bcdb1144f6511b568\n        /* \"contracts/LooksRare/TokenDistributor.sol\":8475:8481  amount */\n      dup4\n        /* \"contracts/LooksRare/TokenDistributor.sol\":8483:8497  pendingRewards */\n      dup4\n        /* \"contracts/LooksRare/TokenDistributor.sol\":8454:8498  Withdraw(msg.sender, amount, pendingRewards) */\n      mload(0x40)\n      tag_161\n      swap3\n      swap2\n      swap1\n      tag_42\n      jump\t// in\n    tag_161:\n      mload(0x40)\n      dup1\n      swap2\n      sub\n      swap1\n      log2\n        /* \"contracts/LooksRare/TokenDistributor.sol\":7556:8506  {... */\n      pop\n        /* \"@openzeppelin/contracts/security/ReentrancyGuard.sol\":1701:1702  1 */\n      0x01\n        /* \"@openzeppelin/contracts/security/ReentrancyGuard.sol\":2628:2635  _status */\n      0x00\n        /* \"@openzeppelin/contracts/security/ReentrancyGuard.sol\":2628:2650  _status = _NOT_ENTERED */\n      dup2\n      swap1\n      sstore\n      pop\n        /* \"contracts/LooksRare/TokenDistributor.sol\":7500:8506  function withdraw(uint256 amount) external nonReentrant {... */\n      pop\n      jump\t// out\n        /* \"contracts/LooksRare/TokenDistributor.sol\":983:1025  ITestToken public immutable looksRareToken */\n    tag_50:\n      immutable(\"0x94ac46a65f1fb0934ae334b85100dc6a35a94d53aa1e2b4e46f9a861095e9ac0\")\n      dup2\n      jump\t// out\n        /* \"contracts/LooksRare/TokenDistributor.sol\":1202:1238  uint256 public immutable START_BLOCK */\n    tag_54:\n      immutable(\"0xda454547ca5f9bde387781b7470d1c4b06be980d23784ba34fd5243580f9e233\")\n      dup2\n      jump\t// out\n        /* \"contracts/LooksRare/TokenDistributor.sol\":1114:1153  uint256 public immutable NUMBER_PERIODS */\n    tag_57:\n      immutable(\"0xafcd10eb8a933fb34272fbf3a0d55ec898d75144e8be37ea9b6ca4a0ee7bc3b2\")\n      dup2\n      jump\t// out\n        /* \"contracts/LooksRare/TokenDistributor.sol\":1731:1770  uint256 public rewardPerBlockForStaking */\n    tag_60:\n      sload(0x06)\n      dup2\n      jump\t// out\n        /* \"contracts/LooksRare/TokenDistributor.sol\":8594:9530  function withdrawAll() external nonReentrant {... */\n    tag_63:\n        /* \"@openzeppelin/contracts/security/ReentrancyGuard.sol\":1744:1745  2 */\n      0x02\n        /* \"@openzeppelin/contracts/security/ReentrancyGuard.sol\":2325:2332  _status */\n      sload(0x00)\n        /* \"@openzeppelin/contracts/security/ReentrancyGuard.sol\":2325:2344  _status != _ENTERED */\n      eq\n      iszero\n        /* \"@openzeppelin/contracts/security/ReentrancyGuard.sol\":2317:2380  require(_status != _ENTERED, \"ReentrancyGuard: reentrant call\") */\n      tag_163\n      jumpi\n      mload(0x40)\n      0x08c379a000000000000000000000000000000000000000000000000000000000\n      dup2\n      mstore\n      0x04\n      add\n      tag_164\n      swap1\n      tag_128\n      jump\t// in\n    tag_164:\n      mload(0x40)\n      dup1\n      swap2\n      sub\n      swap1\n      revert\n    tag_163:\n        /* \"@openzeppelin/contracts/security/ReentrancyGuard.sol\":1744:1745  2 */\n      0x02\n        /* \"@openzeppelin/contracts/security/ReentrancyGuard.sol\":2455:2462  _status */\n      0x00\n        /* \"@openzeppelin/contracts/security/ReentrancyGuard.sol\":2455:2473  _status = _ENTERED */\n      dup2\n      swap1\n      sstore\n      pop\n        /* \"contracts/LooksRare/TokenDistributor.sol\":8688:8689  0 */\n      0x00\n        /* \"contracts/LooksRare/TokenDistributor.sol\":8658:8666  userInfo */\n      0x09\n        /* \"contracts/LooksRare/TokenDistributor.sol\":8658:8678  userInfo[msg.sender] */\n      0x00\n        /* \"contracts/LooksRare/TokenDistributor.sol\":8667:8677  msg.sender */\n      caller\n        /* \"contracts/LooksRare/TokenDistributor.sol\":8658:8678  userInfo[msg.sender] */\n      0xffffffffffffffffffffffffffffffffffffffff\n      and\n      0xffffffffffffffffffffffffffffffffffffffff\n      and\n      dup2\n      mstore\n      0x20\n      add\n      swap1\n      dup2\n      mstore\n      0x20\n      add\n      0x00\n      keccak256\n        /* \"contracts/LooksRare/TokenDistributor.sol\":8658:8685  userInfo[msg.sender].amount */\n      0x00\n      add\n      sload\n        /* \"contracts/LooksRare/TokenDistributor.sol\":8658:8689  userInfo[msg.sender].amount > 0 */\n      gt\n        /* \"contracts/LooksRare/TokenDistributor.sol\":8650:8722  require(userInfo[msg.sender].amount > 0, \"Withdraw: Amount must be > 0\") */\n      tag_166\n      jumpi\n      mload(0x40)\n      0x08c379a000000000000000000000000000000000000000000000000000000000\n      dup2\n      mstore\n      0x04\n      add\n      tag_167\n      swap1\n      tag_168\n      jump\t// in\n    tag_167:\n      mload(0x40)\n      dup1\n      swap2\n      sub\n      swap1\n      revert\n    tag_166:\n        /* \"contracts/LooksRare/TokenDistributor.sol\":8759:8772  _updatePool() */\n      tag_169\n        /* \"contracts/LooksRare/TokenDistributor.sol\":8759:8770  _updatePool */\n      tag_131\n        /* \"contracts/LooksRare/TokenDistributor.sol\":8759:8772  _updatePool() */\n      jump\t// in\n    tag_169:\n        /* \"contracts/LooksRare/TokenDistributor.sol\":8862:8884  uint256 pendingRewards */\n      0x00\n        /* \"contracts/LooksRare/TokenDistributor.sol\":8972:8980  userInfo */\n      0x09\n        /* \"contracts/LooksRare/TokenDistributor.sol\":8972:8992  userInfo[msg.sender] */\n      0x00\n        /* \"contracts/LooksRare/TokenDistributor.sol\":8981:8991  msg.sender */\n      caller\n        /* \"contracts/LooksRare/TokenDistributor.sol\":8972:8992  userInfo[msg.sender] */\n      0xffffffffffffffffffffffffffffffffffffffff\n      and\n      0xffffffffffffffffffffffffffffffffffffffff\n      and\n      dup2\n      mstore\n      0x20\n      add\n      swap1\n      dup2\n      mstore\n      0x20\n      add\n      0x00\n      keccak256\n        /* \"contracts/LooksRare/TokenDistributor.sol\":8972:9003  userInfo[msg.sender].rewardDebt */\n      0x01\n      add\n      sload\n        /* \"contracts/LooksRare/TokenDistributor.sol\":968:974  10**12 */\n      0xe8d4a51000\n        /* \"contracts/LooksRare/TokenDistributor.sol\":8919:8935  accTokenPerShare */\n      sload(0x01)\n        /* \"contracts/LooksRare/TokenDistributor.sol\":8889:8897  userInfo */\n      0x09\n        /* \"contracts/LooksRare/TokenDistributor.sol\":8889:8909  userInfo[msg.sender] */\n      0x00\n        /* \"contracts/LooksRare/TokenDistributor.sol\":8898:8908  msg.sender */\n      caller\n        /* \"contracts/LooksRare/TokenDistributor.sol\":8889:8909  userInfo[msg.sender] */\n      0xffffffffffffffffffffffffffffffffffffffff\n      and\n      0xffffffffffffffffffffffffffffffffffffffff\n      and\n      dup2\n      mstore\n      0x20\n      add\n      swap1\n      dup2\n      mstore\n      0x20\n      add\n      0x00\n      keccak256\n        /* \"contracts/LooksRare/TokenDistributor.sol\":8889:8916  userInfo[msg.sender].amount */\n      0x00\n      add\n      sload\n        /* \"contracts/LooksRare/TokenDistributor.sol\":8889:8935  userInfo[msg.sender].amount * accTokenPerShare */\n      tag_170\n      swap2\n      swap1\n      tag_99\n      jump\t// in\n    tag_170:\n        /* \"contracts/LooksRare/TokenDistributor.sol\":8888:8955  (userInfo[msg.sender].amount * accTokenPerShare) / PRECISION_FACTOR */\n      tag_171\n      swap2\n      swap1\n      tag_116\n      jump\t// in\n    tag_171:\n        /* \"contracts/LooksRare/TokenDistributor.sol\":8887:9003  ((userInfo[msg.sender].amount * accTokenPerShare) / PRECISION_FACTOR) -... */\n      tag_172\n      swap2\n      swap1\n      tag_104\n      jump\t// in\n    tag_172:\n        /* \"contracts/LooksRare/TokenDistributor.sol\":8862:9003  uint256 pendingRewards = ((userInfo[msg.sender].amount * accTokenPerShare) / PRECISION_FACTOR) -... */\n      swap1\n      pop\n        /* \"contracts/LooksRare/TokenDistributor.sol\":9016:9040  uint256 amountToTransfer */\n      0x00\n        /* \"contracts/LooksRare/TokenDistributor.sol\":9073:9087  pendingRewards */\n      dup2\n        /* \"contracts/LooksRare/TokenDistributor.sol\":9043:9051  userInfo */\n      0x09\n        /* \"contracts/LooksRare/TokenDistributor.sol\":9043:9063  userInfo[msg.sender] */\n      0x00\n        /* \"contracts/LooksRare/TokenDistributor.sol\":9052:9062  msg.sender */\n      caller\n        /* \"contracts/LooksRare/TokenDistributor.sol\":9043:9063  userInfo[msg.sender] */\n      0xffffffffffffffffffffffffffffffffffffffff\n      and\n      0xffffffffffffffffffffffffffffffffffffffff\n      and\n      dup2\n      mstore\n      0x20\n      add\n      swap1\n      dup2\n      mstore\n      0x20\n      add\n      0x00\n      keccak256\n        /* \"contracts/LooksRare/TokenDistributor.sol\":9043:9070  userInfo[msg.sender].amount */\n      0x00\n      add\n      sload\n        /* \"contracts/LooksRare/TokenDistributor.sol\":9043:9087  userInfo[msg.sender].amount + pendingRewards */\n      tag_173\n      swap2\n      swap1\n      tag_108\n      jump\t// in\n    tag_173:\n        /* \"contracts/LooksRare/TokenDistributor.sol\":9016:9087  uint256 amountToTransfer = userInfo[msg.sender].amount + pendingRewards */\n      swap1\n      pop\n        /* \"contracts/LooksRare/TokenDistributor.sol\":9179:9187  userInfo */\n      0x09\n        /* \"contracts/LooksRare/TokenDistributor.sol\":9179:9199  userInfo[msg.sender] */\n      0x00\n        /* \"contracts/LooksRare/TokenDistributor.sol\":9188:9198  msg.sender */\n      caller\n        /* \"contracts/LooksRare/TokenDistributor.sol\":9179:9199  userInfo[msg.sender] */\n      0xffffffffffffffffffffffffffffffffffffffff\n      and\n      0xffffffffffffffffffffffffffffffffffffffff\n      and\n      dup2\n      mstore\n      0x20\n      add\n      swap1\n      dup2\n      mstore\n      0x20\n      add\n      0x00\n      keccak256\n        /* \"contracts/LooksRare/TokenDistributor.sol\":9179:9206  userInfo[msg.sender].amount */\n      0x00\n      add\n      sload\n        /* \"contracts/LooksRare/TokenDistributor.sol\":9159:9176  totalAmountStaked */\n      sload(0x07)\n        /* \"contracts/LooksRare/TokenDistributor.sol\":9159:9206  totalAmountStaked - userInfo[msg.sender].amount */\n      tag_174\n      swap2\n      swap1\n      tag_104\n      jump\t// in\n    tag_174:\n        /* \"contracts/LooksRare/TokenDistributor.sol\":9139:9156  totalAmountStaked */\n      0x07\n        /* \"contracts/LooksRare/TokenDistributor.sol\":9139:9206  totalAmountStaked = totalAmountStaked - userInfo[msg.sender].amount */\n      dup2\n      swap1\n      sstore\n      pop\n        /* \"contracts/LooksRare/TokenDistributor.sol\":9285:9286  0 */\n      0x00\n        /* \"contracts/LooksRare/TokenDistributor.sol\":9255:9263  userInfo */\n      0x09\n        /* \"contracts/LooksRare/TokenDistributor.sol\":9255:9275  userInfo[msg.sender] */\n      0x00\n        /* \"contracts/LooksRare/TokenDistributor.sol\":9264:9274  msg.sender */\n      caller\n        /* \"contracts/LooksRare/TokenDistributor.sol\":9255:9275  userInfo[msg.sender] */\n      0xffffffffffffffffffffffffffffffffffffffff\n      and\n      0xffffffffffffffffffffffffffffffffffffffff\n      and\n      dup2\n      mstore\n      0x20\n      add\n      swap1\n      dup2\n      mstore\n      0x20\n      add\n      0x00\n      keccak256\n        /* \"contracts/LooksRare/TokenDistributor.sol\":9255:9282  userInfo[msg.sender].amount */\n      0x00\n      add\n        /* \"contracts/LooksRare/TokenDistributor.sol\":9255:9286  userInfo[msg.sender].amount = 0 */\n      dup2\n      swap1\n      sstore\n      pop\n        /* \"contracts/LooksRare/TokenDistributor.sol\":9331:9332  0 */\n      0x00\n        /* \"contracts/LooksRare/TokenDistributor.sol\":9297:9305  userInfo */\n      0x09\n        /* \"contracts/LooksRare/TokenDistributor.sol\":9297:9317  userInfo[msg.sender] */\n      0x00\n        /* \"contracts/LooksRare/TokenDistributor.sol\":9306:9316  msg.sender */\n      caller\n        /* \"contracts/LooksRare/TokenDistributor.sol\":9297:9317  userInfo[msg.sender] */\n      0xffffffffffffffffffffffffffffffffffffffff\n      and\n      0xffffffffffffffffffffffffffffffffffffffff\n      and\n      dup2\n      mstore\n      0x20\n      add\n      swap1\n      dup2\n      mstore\n      0x20\n      add\n      0x00\n      keccak256\n        /* \"contracts/LooksRare/TokenDistributor.sol\":9297:9328  userInfo[msg.sender].rewardDebt */\n      0x01\n      add\n        /* \"contracts/LooksRare/TokenDistributor.sol\":9297:9332  userInfo[msg.sender].rewardDebt = 0 */\n      dup2\n      swap1\n      sstore\n      pop\n        /* \"contracts/LooksRare/TokenDistributor.sol\":9393:9450  looksRareToken.safeTransfer(msg.sender, amountToTransfer) */\n      tag_175\n        /* \"contracts/LooksRare/TokenDistributor.sol\":9421:9431  msg.sender */\n      caller\n        /* \"contracts/LooksRare/TokenDistributor.sol\":9433:9449  amountToTransfer */\n      dup3\n        /* \"contracts/LooksRare/TokenDistributor.sol\":9393:9407  looksRareToken */\n      immutable(\"0x94ac46a65f1fb0934ae334b85100dc6a35a94d53aa1e2b4e46f9a861095e9ac0\")\n        /* \"contracts/LooksRare/TokenDistributor.sol\":9393:9420  looksRareToken.safeTransfer */\n      0xffffffffffffffffffffffffffffffffffffffff\n      and\n      tag_160\n      swap1\n        /* \"contracts/LooksRare/TokenDistributor.sol\":9393:9450  looksRareToken.safeTransfer(msg.sender, amountToTransfer) */\n      swap3\n      swap2\n      swap1\n      0xffffffff\n      and\n      jump\t// in\n    tag_175:\n        /* \"contracts/LooksRare/TokenDistributor.sol\":9477:9487  msg.sender */\n      caller\n        /* \"contracts/LooksRare/TokenDistributor.sol\":9468:9522  Withdraw(msg.sender, amountToTransfer, pendingRewards) */\n      0xffffffffffffffffffffffffffffffffffffffff\n      and\n      0xf279e6a1f5e320cca91135676d9cb6e44ca8a08c0b88342bcdb1144f6511b568\n        /* \"contracts/LooksRare/TokenDistributor.sol\":9489:9505  amountToTransfer */\n      dup3\n        /* \"contracts/LooksRare/TokenDistributor.sol\":9507:9521  pendingRewards */\n      dup5\n        /* \"contracts/LooksRare/TokenDistributor.sol\":9468:9522  Withdraw(msg.sender, amountToTransfer, pendingRewards) */\n      mload(0x40)\n      tag_176\n      swap3\n      swap2\n      swap1\n      tag_42\n      jump\t// in\n    tag_176:\n      mload(0x40)\n      dup1\n      swap2\n      sub\n      swap1\n      log2\n        /* \"contracts/LooksRare/TokenDistributor.sol\":8639:9530  {... */\n      pop\n      pop\n        /* \"@openzeppelin/contracts/security/ReentrancyGuard.sol\":1701:1702  1 */\n      0x01\n        /* \"@openzeppelin/contracts/security/ReentrancyGuard.sol\":2628:2635  _status */\n      0x00\n        /* \"@openzeppelin/contracts/security/ReentrancyGuard.sol\":2628:2650  _status = _NOT_ENTERED */\n      dup2\n      swap1\n      sstore\n      pop\n        /* \"contracts/LooksRare/TokenDistributor.sol\":8594:9530  function withdrawAll() external nonReentrant {... */\n      jump\t// out\n        /* \"contracts/LooksRare/TokenDistributor.sol\":1284:1315  uint256 public accTokenPerShare */\n    tag_65:\n      sload(0x01)\n      dup2\n      jump\t// out\n        /* \"contracts/LooksRare/TokenDistributor.sol\":1034:1072  address public immutable tokenSplitter */\n    tag_68:\n      immutable(\"0xa752a62a6f5fb32dd4e041dbf29a56f1f90fbf8d8356b6069d6d3304e11d2d2e\")\n      dup2\n      jump\t// out\n        /* \"contracts/LooksRare/TokenDistributor.sol\":1504:1534  uint256 public lastRewardBlock */\n    tag_72:\n      sload(0x04)\n      dup2\n      jump\t// out\n        /* \"contracts/LooksRare/TokenDistributor.sol\":5167:6205  function deposit(uint256 amount) external nonReentrant {... */\n    tag_76:\n        /* \"@openzeppelin/contracts/security/ReentrancyGuard.sol\":1744:1745  2 */\n      0x02\n        /* \"@openzeppelin/contracts/security/ReentrancyGuard.sol\":2325:2332  _status */\n      sload(0x00)\n        /* \"@openzeppelin/contracts/security/ReentrancyGuard.sol\":2325:2344  _status != _ENTERED */\n      eq\n      iszero\n        /* \"@openzeppelin/contracts/security/ReentrancyGuard.sol\":2317:2380  require(_status != _ENTERED, \"ReentrancyGuard: reentrant call\") */\n      tag_178\n      jumpi\n      mload(0x40)\n      0x08c379a000000000000000000000000000000000000000000000000000000000\n      dup2\n      mstore\n      0x04\n      add\n      tag_179\n      swap1\n      tag_128\n      jump\t// in\n    tag_179:\n      mload(0x40)\n      dup1\n      swap2\n      sub\n      swap1\n      revert\n    tag_178:\n        /* \"@openzeppelin/contracts/security/ReentrancyGuard.sol\":1744:1745  2 */\n      0x02\n        /* \"@openzeppelin/contracts/security/ReentrancyGuard.sol\":2455:2462  _status */\n      0x00\n        /* \"@openzeppelin/contracts/security/ReentrancyGuard.sol\":2455:2473  _status = _ENTERED */\n      dup2\n      swap1\n      sstore\n      pop\n        /* \"contracts/LooksRare/TokenDistributor.sol\":5250:5251  0 */\n      0x00\n        /* \"contracts/LooksRare/TokenDistributor.sol\":5241:5247  amount */\n      dup2\n        /* \"contracts/LooksRare/TokenDistributor.sol\":5241:5251  amount > 0 */\n      gt\n        /* \"contracts/LooksRare/TokenDistributor.sol\":5233:5283  require(amount > 0, \"Deposit: Amount must be > 0\") */\n      tag_181\n      jumpi\n      mload(0x40)\n      0x08c379a000000000000000000000000000000000000000000000000000000000\n      dup2\n      mstore\n      0x04\n      add\n      tag_182\n      swap1\n      tag_183\n      jump\t// in\n    tag_182:\n      mload(0x40)\n      dup1\n      swap2\n      sub\n      swap1\n      revert\n    tag_181:\n        /* \"contracts/LooksRare/TokenDistributor.sol\":5332:5345  _updatePool() */\n      tag_184\n        /* \"contracts/LooksRare/TokenDistributor.sol\":5332:5343  _updatePool */\n      tag_131\n        /* \"contracts/LooksRare/TokenDistributor.sol\":5332:5345  _updatePool() */\n      jump\t// in\n    tag_184:\n        /* \"contracts/LooksRare/TokenDistributor.sol\":5409:5475  looksRareToken.safeTransferFrom(msg.sender, address(this), amount) */\n      tag_185\n        /* \"contracts/LooksRare/TokenDistributor.sol\":5441:5451  msg.sender */\n      caller\n        /* \"contracts/LooksRare/TokenDistributor.sol\":5461:5465  this */\n      address\n        /* \"contracts/LooksRare/TokenDistributor.sol\":5468:5474  amount */\n      dup4\n        /* \"contracts/LooksRare/TokenDistributor.sol\":5409:5423  looksRareToken */\n      immutable(\"0x94ac46a65f1fb0934ae334b85100dc6a35a94d53aa1e2b4e46f9a861095e9ac0\")\n        /* \"contracts/LooksRare/TokenDistributor.sol\":5409:5440  looksRareToken.safeTransferFrom */\n      0xffffffffffffffffffffffffffffffffffffffff\n      and\n      tag_186\n      swap1\n        /* \"contracts/LooksRare/TokenDistributor.sol\":5409:5475  looksRareToken.safeTransferFrom(msg.sender, address(this), amount) */\n      swap4\n      swap3\n      swap2\n      swap1\n      0xffffffff\n      and\n      jump\t// in\n    tag_185:\n        /* \"contracts/LooksRare/TokenDistributor.sol\":5488:5510  uint256 pendingRewards */\n      0x00\n        /* \"contracts/LooksRare/TokenDistributor.sol\":5638:5639  0 */\n      dup1\n        /* \"contracts/LooksRare/TokenDistributor.sol\":5608:5616  userInfo */\n      0x09\n        /* \"contracts/LooksRare/TokenDistributor.sol\":5608:5628  userInfo[msg.sender] */\n      0x00\n        /* \"contracts/LooksRare/TokenDistributor.sol\":5617:5627  msg.sender */\n      caller\n        /* \"contracts/LooksRare/TokenDistributor.sol\":5608:5628  userInfo[msg.sender] */\n      0xffffffffffffffffffffffffffffffffffffffff\n      and\n      0xffffffffffffffffffffffffffffffffffffffff\n      and\n      dup2\n      mstore\n      0x20\n      add\n      swap1\n      dup2\n      mstore\n      0x20\n      add\n      0x00\n      keccak256\n        /* \"contracts/LooksRare/TokenDistributor.sol\":5608:5635  userInfo[msg.sender].amount */\n      0x00\n      add\n      sload\n        /* \"contracts/LooksRare/TokenDistributor.sol\":5608:5639  userInfo[msg.sender].amount > 0 */\n      gt\n        /* \"contracts/LooksRare/TokenDistributor.sol\":5604:5822  if (userInfo[msg.sender].amount > 0) {... */\n      iszero\n      tag_187\n      jumpi\n        /* \"contracts/LooksRare/TokenDistributor.sol\":5779:5787  userInfo */\n      0x09\n        /* \"contracts/LooksRare/TokenDistributor.sol\":5779:5799  userInfo[msg.sender] */\n      0x00\n        /* \"contracts/LooksRare/TokenDistributor.sol\":5788:5798  msg.sender */\n      caller\n        /* \"contracts/LooksRare/TokenDistributor.sol\":5779:5799  userInfo[msg.sender] */\n      0xffffffffffffffffffffffffffffffffffffffff\n      and\n      0xffffffffffffffffffffffffffffffffffffffff\n      and\n      dup2\n      mstore\n      0x20\n      add\n      swap1\n      dup2\n      mstore\n      0x20\n      add\n      0x00\n      keccak256\n        /* \"contracts/LooksRare/TokenDistributor.sol\":5779:5810  userInfo[msg.sender].rewardDebt */\n      0x01\n      add\n      sload\n        /* \"contracts/LooksRare/TokenDistributor.sol\":968:974  10**12 */\n      0xe8d4a51000\n        /* \"contracts/LooksRare/TokenDistributor.sol\":5722:5738  accTokenPerShare */\n      sload(0x01)\n        /* \"contracts/LooksRare/TokenDistributor.sol\":5692:5700  userInfo */\n      0x09\n        /* \"contracts/LooksRare/TokenDistributor.sol\":5692:5712  userInfo[msg.sender] */\n      0x00\n        /* \"contracts/LooksRare/TokenDistributor.sol\":5701:5711  msg.sender */\n      caller\n        /* \"contracts/LooksRare/TokenDistributor.sol\":5692:5712  userInfo[msg.sender] */\n      0xffffffffffffffffffffffffffffffffffffffff\n      and\n      0xffffffffffffffffffffffffffffffffffffffff\n      and\n      dup2\n      mstore\n      0x20\n      add\n      swap1\n      dup2\n      mstore\n      0x20\n      add\n      0x00\n      keccak256\n        /* \"contracts/LooksRare/TokenDistributor.sol\":5692:5719  userInfo[msg.sender].amount */\n      0x00\n      add\n      sload\n        /* \"contracts/LooksRare/TokenDistributor.sol\":5692:5738  userInfo[msg.sender].amount * accTokenPerShare */\n      tag_188\n      swap2\n      swap1\n      tag_99\n      jump\t// in\n    tag_188:\n        /* \"contracts/LooksRare/TokenDistributor.sol\":5691:5758  (userInfo[msg.sender].amount * accTokenPerShare) / PRECISION_FACTOR */\n      tag_189\n      swap2\n      swap1\n      tag_116\n      jump\t// in\n    tag_189:\n        /* \"contracts/LooksRare/TokenDistributor.sol\":5690:5810  ((userInfo[msg.sender].amount * accTokenPerShare) / PRECISION_FACTOR) -... */\n      tag_190\n      swap2\n      swap1\n      tag_104\n      jump\t// in\n    tag_190:\n        /* \"contracts/LooksRare/TokenDistributor.sol\":5656:5810  pendingRewards =... */\n      swap1\n      pop\n        /* \"contracts/LooksRare/TokenDistributor.sol\":5604:5822  if (userInfo[msg.sender].amount > 0) {... */\n    tag_187:\n        /* \"contracts/LooksRare/TokenDistributor.sol\":5911:5925  pendingRewards */\n      dup1\n        /* \"contracts/LooksRare/TokenDistributor.sol\":5902:5908  amount */\n      dup3\n        /* \"contracts/LooksRare/TokenDistributor.sol\":5902:5925  amount + pendingRewards */\n      tag_191\n      swap2\n      swap1\n      tag_108\n      jump\t// in\n    tag_191:\n        /* \"contracts/LooksRare/TokenDistributor.sol\":5870:5878  userInfo */\n      0x09\n        /* \"contracts/LooksRare/TokenDistributor.sol\":5870:5890  userInfo[msg.sender] */\n      0x00\n        /* \"contracts/LooksRare/TokenDistributor.sol\":5879:5889  msg.sender */\n      caller\n        /* \"contracts/LooksRare/TokenDistributor.sol\":5870:5890  userInfo[msg.sender] */\n      0xffffffffffffffffffffffffffffffffffffffff\n      and\n      0xffffffffffffffffffffffffffffffffffffffff\n      and\n      dup2\n      mstore\n      0x20\n      add\n      swap1\n      dup2\n      mstore\n      0x20\n      add\n      0x00\n      keccak256\n        /* \"contracts/LooksRare/TokenDistributor.sol\":5870:5897  userInfo[msg.sender].amount */\n      0x00\n      add\n      0x00\n        /* \"contracts/LooksRare/TokenDistributor.sol\":5870:5926  userInfo[msg.sender].amount += (amount + pendingRewards) */\n      dup3\n      dup3\n      sload\n      tag_192\n      swap2\n      swap1\n      tag_108\n      jump\t// in\n    tag_192:\n      swap3\n      pop\n      pop\n      dup2\n      swap1\n      sstore\n      pop\n        /* \"contracts/LooksRare/TokenDistributor.sol\":968:974  10**12 */\n      0xe8d4a51000\n        /* \"contracts/LooksRare/TokenDistributor.sol\":6002:6018  accTokenPerShare */\n      sload(0x01)\n        /* \"contracts/LooksRare/TokenDistributor.sol\":5972:5980  userInfo */\n      0x09\n        /* \"contracts/LooksRare/TokenDistributor.sol\":5972:5992  userInfo[msg.sender] */\n      0x00\n        /* \"contracts/LooksRare/TokenDistributor.sol\":5981:5991  msg.sender */\n      caller\n        /* \"contracts/LooksRare/TokenDistributor.sol\":5972:5992  userInfo[msg.sender] */\n      0xffffffffffffffffffffffffffffffffffffffff\n      and\n      0xffffffffffffffffffffffffffffffffffffffff\n      and\n      dup2\n      mstore\n      0x20\n      add\n      swap1\n      dup2\n      mstore\n      0x20\n      add\n      0x00\n      keccak256\n        /* \"contracts/LooksRare/TokenDistributor.sol\":5972:5999  userInfo[msg.sender].amount */\n      0x00\n      add\n      sload\n        /* \"contracts/LooksRare/TokenDistributor.sol\":5972:6018  userInfo[msg.sender].amount * accTokenPerShare */\n      tag_193\n      swap2\n      swap1\n      tag_99\n      jump\t// in\n    tag_193:\n        /* \"contracts/LooksRare/TokenDistributor.sol\":5971:6038  (userInfo[msg.sender].amount * accTokenPerShare) / PRECISION_FACTOR */\n      tag_194\n      swap2\n      swap1\n      tag_116\n      jump\t// in\n    tag_194:\n        /* \"contracts/LooksRare/TokenDistributor.sol\":5937:5945  userInfo */\n      0x09\n        /* \"contracts/LooksRare/TokenDistributor.sol\":5937:5957  userInfo[msg.sender] */\n      0x00\n        /* \"contracts/LooksRare/TokenDistributor.sol\":5946:5956  msg.sender */\n      caller\n        /* \"contracts/LooksRare/TokenDistributor.sol\":5937:5957  userInfo[msg.sender] */\n      0xffffffffffffffffffffffffffffffffffffffff\n      and\n      0xffffffffffffffffffffffffffffffffffffffff\n      and\n      dup2\n      mstore\n      0x20\n      add\n      swap1\n      dup2\n      mstore\n      0x20\n      add\n      0x00\n      keccak256\n        /* \"contracts/LooksRare/TokenDistributor.sol\":5937:5968  userInfo[msg.sender].rewardDebt */\n      0x01\n      add\n        /* \"contracts/LooksRare/TokenDistributor.sol\":5937:6038  userInfo[msg.sender].rewardDebt = (userInfo[msg.sender].amount * accTokenPerShare) / PRECISION_FACTOR */\n      dup2\n      swap1\n      sstore\n      pop\n        /* \"contracts/LooksRare/TokenDistributor.sol\":6121:6135  pendingRewards */\n      dup1\n        /* \"contracts/LooksRare/TokenDistributor.sol\":6112:6118  amount */\n      dup3\n        /* \"contracts/LooksRare/TokenDistributor.sol\":6112:6135  amount + pendingRewards */\n      tag_195\n      swap2\n      swap1\n      tag_108\n      jump\t// in\n    tag_195:\n        /* \"contracts/LooksRare/TokenDistributor.sol\":6090:6107  totalAmountStaked */\n      0x07\n      0x00\n        /* \"contracts/LooksRare/TokenDistributor.sol\":6090:6136  totalAmountStaked += (amount + pendingRewards) */\n      dup3\n      dup3\n      sload\n      tag_196\n      swap2\n      swap1\n      tag_108\n      jump\t// in\n    tag_196:\n      swap3\n      pop\n      pop\n      dup2\n      swap1\n      sstore\n      pop\n        /* \"contracts/LooksRare/TokenDistributor.sol\":6162:6172  msg.sender */\n      caller\n        /* \"contracts/LooksRare/TokenDistributor.sol\":6154:6197  Deposit(msg.sender, amount, pendingRewards) */\n      0xffffffffffffffffffffffffffffffffffffffff\n      and\n      0x90890809c654f11d6e72a28fa60149770a0d11ec6c92319d6ceb2bb0a4ea1a15\n        /* \"contracts/LooksRare/TokenDistributor.sol\":6174:6180  amount */\n      dup4\n        /* \"contracts/LooksRare/TokenDistributor.sol\":6182:6196  pendingRewards */\n      dup4\n        /* \"contracts/LooksRare/TokenDistributor.sol\":6154:6197  Deposit(msg.sender, amount, pendingRewards) */\n      mload(0x40)\n      tag_197\n      swap3\n      swap2\n      swap1\n      tag_42\n      jump\t// in\n    tag_197:\n      mload(0x40)\n      dup1\n      swap2\n      sub\n      swap1\n      log2\n        /* \"contracts/LooksRare/TokenDistributor.sol\":5222:6205  {... */\n      pop\n        /* \"@openzeppelin/contracts/security/ReentrancyGuard.sol\":1701:1702  1 */\n      0x01\n        /* \"@openzeppelin/contracts/security/ReentrancyGuard.sol\":2628:2635  _status */\n      0x00\n        /* \"@openzeppelin/contracts/security/ReentrancyGuard.sol\":2628:2650  _status = _NOT_ENTERED */\n      dup2\n      swap1\n      sstore\n      pop\n        /* \"contracts/LooksRare/TokenDistributor.sol\":5167:6205  function deposit(uint256 amount) external nonReentrant {... */\n      pop\n      jump\t// out\n        /* \"contracts/LooksRare/TokenDistributor.sol\":1848:1902  mapping(uint256 => StakingPeriod) public stakingPeriod */\n    tag_79:\n      mstore(0x20, 0x08)\n      dup1\n      0x00\n      mstore\n      keccak256(0x00, 0x40)\n      0x00\n      swap2\n      pop\n      swap1\n      pop\n      dup1\n      0x00\n      add\n      sload\n      swap1\n      dup1\n      0x01\n      add\n      sload\n      swap1\n      dup1\n      0x02\n      add\n      sload\n      swap1\n      pop\n      dup4\n      jump\t// out\n        /* \"contracts/LooksRare/TokenDistributor.sol\":925:974  uint256 public constant PRECISION_FACTOR = 10**12 */\n    tag_83:\n        /* \"contracts/LooksRare/TokenDistributor.sol\":968:974  10**12 */\n      0xe8d4a51000\n        /* \"contracts/LooksRare/TokenDistributor.sol\":925:974  uint256 public constant PRECISION_FACTOR = 10**12 */\n      dup2\n      jump\t// out\n        /* \"contracts/LooksRare/TokenDistributor.sol\":7289:7365  function updatePool() external nonReentrant {... */\n    tag_86:\n        /* \"@openzeppelin/contracts/security/ReentrancyGuard.sol\":1744:1745  2 */\n      0x02\n        /* \"@openzeppelin/contracts/security/ReentrancyGuard.sol\":2325:2332  _status */\n      sload(0x00)\n        /* \"@openzeppelin/contracts/security/ReentrancyGuard.sol\":2325:2344  _status != _ENTERED */\n      eq\n      iszero\n        /* \"@openzeppelin/contracts/security/ReentrancyGuard.sol\":2317:2380  require(_status != _ENTERED, \"ReentrancyGuard: reentrant call\") */\n      tag_199\n      jumpi\n      mload(0x40)\n      0x08c379a000000000000000000000000000000000000000000000000000000000\n      dup2\n      mstore\n      0x04\n      add\n      tag_200\n      swap1\n      tag_128\n      jump\t// in\n    tag_200:\n      mload(0x40)\n      dup1\n      swap2\n      sub\n      swap1\n      revert\n    tag_199:\n        /* \"@openzeppelin/contracts/security/ReentrancyGuard.sol\":1744:1745  2 */\n      0x02\n        /* \"@openzeppelin/contracts/security/ReentrancyGuard.sol\":2455:2462  _status */\n      0x00\n        /* \"@openzeppelin/contracts/security/ReentrancyGuard.sol\":2455:2473  _status = _ENTERED */\n      dup2\n      swap1\n      sstore\n      pop\n        /* \"contracts/LooksRare/TokenDistributor.sol\":7344:7357  _updatePool() */\n      tag_202\n        /* \"contracts/LooksRare/TokenDistributor.sol\":7344:7355  _updatePool */\n      tag_131\n        /* \"contracts/LooksRare/TokenDistributor.sol\":7344:7357  _updatePool() */\n      jump\t// in\n    tag_202:\n        /* \"@openzeppelin/contracts/security/ReentrancyGuard.sol\":1701:1702  1 */\n      0x01\n        /* \"@openzeppelin/contracts/security/ReentrancyGuard.sol\":2628:2635  _status */\n      0x00\n        /* \"@openzeppelin/contracts/security/ReentrancyGuard.sol\":2628:2650  _status = _NOT_ENTERED */\n      dup2\n      swap1\n      sstore\n      pop\n        /* \"contracts/LooksRare/TokenDistributor.sol\":7289:7365  function updatePool() external nonReentrant {... */\n      jump\t// out\n        /* \"contracts/LooksRare/TokenDistributor.sol\":1635:1673  uint256 public rewardPerBlockForOthers */\n    tag_88:\n      sload(0x05)\n      dup2\n      jump\t// out\n        /* \"contracts/LooksRare/TokenDistributor.sol\":1807:1839  uint256 public totalAmountStaked */\n    tag_91:\n      sload(0x07)\n      dup2\n      jump\t// out\n        /* \"contracts/LooksRare/TokenDistributor.sol\":14709:14990  function _getMultiplier(uint256 from, uint256 to) internal view returns (uint256) {... */\n    tag_97:\n        /* \"contracts/LooksRare/TokenDistributor.sol\":14782:14789  uint256 */\n      0x00\n        /* \"contracts/LooksRare/TokenDistributor.sol\":14812:14820  endBlock */\n      sload(0x03)\n        /* \"contracts/LooksRare/TokenDistributor.sol\":14806:14808  to */\n      dup3\n        /* \"contracts/LooksRare/TokenDistributor.sol\":14806:14820  to <= endBlock */\n      gt\n        /* \"contracts/LooksRare/TokenDistributor.sol\":14802:14983  if (to <= endBlock) {... */\n      tag_204\n      jumpi\n        /* \"contracts/LooksRare/TokenDistributor.sol\":14849:14853  from */\n      dup3\n        /* \"contracts/LooksRare/TokenDistributor.sol\":14844:14846  to */\n      dup3\n        /* \"contracts/LooksRare/TokenDistributor.sol\":14844:14853  to - from */\n      tag_205\n      swap2\n      swap1\n      tag_104\n      jump\t// in\n    tag_205:\n        /* \"contracts/LooksRare/TokenDistributor.sol\":14837:14853  return to - from */\n      swap1\n      pop\n      jump(tag_203)\n        /* \"contracts/LooksRare/TokenDistributor.sol\":14802:14983  if (to <= endBlock) {... */\n    tag_204:\n        /* \"contracts/LooksRare/TokenDistributor.sol\":14883:14891  endBlock */\n      sload(0x03)\n        /* \"contracts/LooksRare/TokenDistributor.sol\":14875:14879  from */\n      dup4\n        /* \"contracts/LooksRare/TokenDistributor.sol\":14875:14891  from >= endBlock */\n      lt\n        /* \"contracts/LooksRare/TokenDistributor.sol\":14871:14983  if (from >= endBlock) {... */\n      tag_207\n      jumpi\n        /* \"contracts/LooksRare/TokenDistributor.sol\":14915:14916  0 */\n      0x00\n        /* \"contracts/LooksRare/TokenDistributor.sol\":14908:14916  return 0 */\n      swap1\n      pop\n      jump(tag_203)\n        /* \"contracts/LooksRare/TokenDistributor.sol\":14871:14983  if (from >= endBlock) {... */\n    tag_207:\n        /* \"contracts/LooksRare/TokenDistributor.sol\":14967:14971  from */\n      dup3\n        /* \"contracts/LooksRare/TokenDistributor.sol\":14956:14964  endBlock */\n      sload(0x03)\n        /* \"contracts/LooksRare/TokenDistributor.sol\":14956:14971  endBlock - from */\n      tag_209\n      swap2\n      swap1\n      tag_104\n      jump\t// in\n    tag_209:\n        /* \"contracts/LooksRare/TokenDistributor.sol\":14949:14971  return endBlock - from */\n      swap1\n      pop\n        /* \"contracts/LooksRare/TokenDistributor.sol\":14709:14990  function _getMultiplier(uint256 from, uint256 to) internal view returns (uint256) {... */\n    tag_203:\n      swap3\n      swap2\n      pop\n      pop\n      jump\t// out\n        /* \"contracts/LooksRare/TokenDistributor.sol\":11745:13860  function _updatePool() internal {... */\n    tag_131:\n        /* \"contracts/LooksRare/TokenDistributor.sol\":11808:11823  lastRewardBlock */\n      sload(0x04)\n        /* \"contracts/LooksRare/TokenDistributor.sol\":11792:11804  block.number */\n      number\n        /* \"contracts/LooksRare/TokenDistributor.sol\":11792:11823  block.number <= lastRewardBlock */\n      gt\n        /* \"contracts/LooksRare/TokenDistributor.sol\":11788:11858  if (block.number <= lastRewardBlock) {... */\n      tag_211\n      jumpi\n        /* \"contracts/LooksRare/TokenDistributor.sol\":11840:11847  return; */\n      jump(tag_210)\n        /* \"contracts/LooksRare/TokenDistributor.sol\":11788:11858  if (block.number <= lastRewardBlock) {... */\n    tag_211:\n        /* \"contracts/LooksRare/TokenDistributor.sol\":11895:11896  0 */\n      0x00\n        /* \"contracts/LooksRare/TokenDistributor.sol\":11874:11891  totalAmountStaked */\n      sload(0x07)\n        /* \"contracts/LooksRare/TokenDistributor.sol\":11874:11896  totalAmountStaked == 0 */\n      eq\n        /* \"contracts/LooksRare/TokenDistributor.sol\":11870:11976  if (totalAmountStaked == 0) {... */\n      iszero\n      tag_212\n      jumpi\n        /* \"contracts/LooksRare/TokenDistributor.sol\":11931:11943  block.number */\n      number\n        /* \"contracts/LooksRare/TokenDistributor.sol\":11913:11928  lastRewardBlock */\n      0x04\n        /* \"contracts/LooksRare/TokenDistributor.sol\":11913:11943  lastRewardBlock = block.number */\n      dup2\n      swap1\n      sstore\n      pop\n        /* \"contracts/LooksRare/TokenDistributor.sol\":11958:11965  return; */\n      jump(tag_210)\n        /* \"contracts/LooksRare/TokenDistributor.sol\":11870:11976  if (totalAmountStaked == 0) {... */\n    tag_212:\n        /* \"contracts/LooksRare/TokenDistributor.sol\":12021:12039  uint256 multiplier */\n      0x00\n        /* \"contracts/LooksRare/TokenDistributor.sol\":12042:12087  _getMultiplier(lastRewardBlock, block.number) */\n      tag_213\n        /* \"contracts/LooksRare/TokenDistributor.sol\":12057:12072  lastRewardBlock */\n      sload(0x04)\n        /* \"contracts/LooksRare/TokenDistributor.sol\":12074:12086  block.number */\n      number\n        /* \"contracts/LooksRare/TokenDistributor.sol\":12042:12056  _getMultiplier */\n      tag_97\n        /* \"contracts/LooksRare/TokenDistributor.sol\":12042:12087  _getMultiplier(lastRewardBlock, block.number) */\n      jump\t// in\n    tag_213:\n        /* \"contracts/LooksRare/TokenDistributor.sol\":12021:12087  uint256 multiplier = _getMultiplier(lastRewardBlock, block.number) */\n      swap1\n      pop\n        /* \"contracts/LooksRare/TokenDistributor.sol\":12153:12182  uint256 tokenRewardForStaking */\n      0x00\n        /* \"contracts/LooksRare/TokenDistributor.sol\":12198:12222  rewardPerBlockForStaking */\n      sload(0x06)\n        /* \"contracts/LooksRare/TokenDistributor.sol\":12185:12195  multiplier */\n      dup3\n        /* \"contracts/LooksRare/TokenDistributor.sol\":12185:12222  multiplier * rewardPerBlockForStaking */\n      tag_214\n      swap2\n      swap1\n      tag_99\n      jump\t// in\n    tag_214:\n        /* \"contracts/LooksRare/TokenDistributor.sol\":12153:12222  uint256 tokenRewardForStaking = multiplier * rewardPerBlockForStaking */\n      swap1\n      pop\n        /* \"contracts/LooksRare/TokenDistributor.sol\":12233:12261  uint256 tokenRewardForOthers */\n      0x00\n        /* \"contracts/LooksRare/TokenDistributor.sol\":12277:12300  rewardPerBlockForOthers */\n      sload(0x05)\n        /* \"contracts/LooksRare/TokenDistributor.sol\":12264:12274  multiplier */\n      dup4\n        /* \"contracts/LooksRare/TokenDistributor.sol\":12264:12300  multiplier * rewardPerBlockForOthers */\n      tag_215\n      swap2\n      swap1\n      tag_99\n      jump\t// in\n    tag_215:\n        /* \"contracts/LooksRare/TokenDistributor.sol\":12233:12300  uint256 tokenRewardForOthers = multiplier * rewardPerBlockForOthers */\n      swap1\n      pop\n        /* \"contracts/LooksRare/TokenDistributor.sol\":12382:13109  while ((block.number > endBlock) && (currentPhase < (NUMBER_PERIODS - 1))) {... */\n    tag_216:\n        /* \"contracts/LooksRare/TokenDistributor.sol\":12405:12413  endBlock */\n      sload(0x03)\n        /* \"contracts/LooksRare/TokenDistributor.sol\":12390:12402  block.number */\n      number\n        /* \"contracts/LooksRare/TokenDistributor.sol\":12390:12413  block.number > endBlock */\n      gt\n        /* \"contracts/LooksRare/TokenDistributor.sol\":12389:12455  (block.number > endBlock) && (currentPhase < (NUMBER_PERIODS - 1)) */\n      dup1\n      iszero\n      tag_218\n      jumpi\n      pop\n        /* \"contracts/LooksRare/TokenDistributor.sol\":12452:12453  1 */\n      0x01\n        /* \"contracts/LooksRare/TokenDistributor.sol\":12435:12449  NUMBER_PERIODS */\n      immutable(\"0xafcd10eb8a933fb34272fbf3a0d55ec898d75144e8be37ea9b6ca4a0ee7bc3b2\")\n        /* \"contracts/LooksRare/TokenDistributor.sol\":12435:12453  NUMBER_PERIODS - 1 */\n      tag_219\n      swap2\n      swap1\n      tag_104\n      jump\t// in\n    tag_219:\n        /* \"contracts/LooksRare/TokenDistributor.sol\":12419:12431  currentPhase */\n      sload(0x02)\n        /* \"contracts/LooksRare/TokenDistributor.sol\":12419:12454  currentPhase < (NUMBER_PERIODS - 1) */\n      lt\n        /* \"contracts/LooksRare/TokenDistributor.sol\":12389:12455  (block.number > endBlock) && (currentPhase < (NUMBER_PERIODS - 1)) */\n    tag_218:\n        /* \"contracts/LooksRare/TokenDistributor.sol\":12382:13109  while ((block.number > endBlock) && (currentPhase < (NUMBER_PERIODS - 1))) {... */\n      iszero\n      tag_217\n      jumpi\n        /* \"contracts/LooksRare/TokenDistributor.sol\":12513:12545  _updateRewardsPerBlock(endBlock) */\n      tag_220\n        /* \"contracts/LooksRare/TokenDistributor.sol\":12536:12544  endBlock */\n      sload(0x03)\n        /* \"contracts/LooksRare/TokenDistributor.sol\":12513:12535  _updateRewardsPerBlock */\n      tag_221\n        /* \"contracts/LooksRare/TokenDistributor.sol\":12513:12545  _updateRewardsPerBlock(endBlock) */\n      jump\t// in\n    tag_220:\n        /* \"contracts/LooksRare/TokenDistributor.sol\":12562:12586  uint256 previousEndBlock */\n      0x00\n        /* \"contracts/LooksRare/TokenDistributor.sol\":12589:12597  endBlock */\n      sload(0x03)\n        /* \"contracts/LooksRare/TokenDistributor.sol\":12562:12597  uint256 previousEndBlock = endBlock */\n      swap1\n      pop\n        /* \"contracts/LooksRare/TokenDistributor.sol\":12663:12676  stakingPeriod */\n      0x08\n        /* \"contracts/LooksRare/TokenDistributor.sol\":12663:12690  stakingPeriod[currentPhase] */\n      0x00\n        /* \"contracts/LooksRare/TokenDistributor.sol\":12677:12689  currentPhase */\n      sload(0x02)\n        /* \"contracts/LooksRare/TokenDistributor.sol\":12663:12690  stakingPeriod[currentPhase] */\n      dup2\n      mstore\n      0x20\n      add\n      swap1\n      dup2\n      mstore\n      0x20\n      add\n      0x00\n      keccak256\n        /* \"contracts/LooksRare/TokenDistributor.sol\":12663:12710  stakingPeriod[currentPhase].periodLengthInBlock */\n      0x02\n      add\n      sload\n        /* \"contracts/LooksRare/TokenDistributor.sol\":12651:12659  endBlock */\n      0x03\n      0x00\n        /* \"contracts/LooksRare/TokenDistributor.sol\":12651:12710  endBlock += stakingPeriod[currentPhase].periodLengthInBlock */\n      dup3\n      dup3\n      sload\n      tag_222\n      swap2\n      swap1\n      tag_108\n      jump\t// in\n    tag_222:\n      swap3\n      pop\n      pop\n      dup2\n      swap1\n      sstore\n      pop\n        /* \"contracts/LooksRare/TokenDistributor.sol\":12826:12847  uint256 newMultiplier */\n      0x00\n        /* \"contracts/LooksRare/TokenDistributor.sol\":12850:12896  _getMultiplier(previousEndBlock, block.number) */\n      tag_223\n        /* \"contracts/LooksRare/TokenDistributor.sol\":12865:12881  previousEndBlock */\n      dup3\n        /* \"contracts/LooksRare/TokenDistributor.sol\":12883:12895  block.number */\n      number\n        /* \"contracts/LooksRare/TokenDistributor.sol\":12850:12864  _getMultiplier */\n      tag_97\n        /* \"contracts/LooksRare/TokenDistributor.sol\":12850:12896  _getMultiplier(previousEndBlock, block.number) */\n      jump\t// in\n    tag_223:\n        /* \"contracts/LooksRare/TokenDistributor.sol\":12826:12896  uint256 newMultiplier = _getMultiplier(previousEndBlock, block.number) */\n      swap1\n      pop\n        /* \"contracts/LooksRare/TokenDistributor.sol\":12992:13016  rewardPerBlockForStaking */\n      sload(0x06)\n        /* \"contracts/LooksRare/TokenDistributor.sol\":12976:12989  newMultiplier */\n      dup2\n        /* \"contracts/LooksRare/TokenDistributor.sol\":12976:13016  newMultiplier * rewardPerBlockForStaking */\n      tag_224\n      swap2\n      swap1\n      tag_99\n      jump\t// in\n    tag_224:\n        /* \"contracts/LooksRare/TokenDistributor.sol\":12950:13017  tokenRewardForStaking += (newMultiplier * rewardPerBlockForStaking) */\n      dup5\n      tag_225\n      swap2\n      swap1\n      tag_108\n      jump\t// in\n    tag_225:\n      swap4\n      pop\n        /* \"contracts/LooksRare/TokenDistributor.sol\":13073:13096  rewardPerBlockForOthers */\n      sload(0x05)\n        /* \"contracts/LooksRare/TokenDistributor.sol\":13057:13070  newMultiplier */\n      dup2\n        /* \"contracts/LooksRare/TokenDistributor.sol\":13057:13096  newMultiplier * rewardPerBlockForOthers */\n      tag_226\n      swap2\n      swap1\n      tag_99\n      jump\t// in\n    tag_226:\n        /* \"contracts/LooksRare/TokenDistributor.sol\":13032:13097  tokenRewardForOthers += (newMultiplier * rewardPerBlockForOthers) */\n      dup4\n      tag_227\n      swap2\n      swap1\n      tag_108\n      jump\t// in\n    tag_227:\n      swap3\n      pop\n        /* \"contracts/LooksRare/TokenDistributor.sol\":12457:13109  {... */\n      pop\n      pop\n        /* \"contracts/LooksRare/TokenDistributor.sol\":12382:13109  while ((block.number > endBlock) && (currentPhase < (NUMBER_PERIODS - 1))) {... */\n      jump(tag_216)\n    tag_217:\n        /* \"contracts/LooksRare/TokenDistributor.sol\":13220:13221  0 */\n      0x00\n        /* \"contracts/LooksRare/TokenDistributor.sol\":13196:13217  tokenRewardForStaking */\n      dup3\n        /* \"contracts/LooksRare/TokenDistributor.sol\":13196:13221  tokenRewardForStaking > 0 */\n      gt\n        /* \"contracts/LooksRare/TokenDistributor.sol\":13192:13662  if (tokenRewardForStaking > 0) {... */\n      iszero\n      tag_228\n      jumpi\n        /* \"contracts/LooksRare/TokenDistributor.sol\":13335:13350  bool mintStatus */\n      0x00\n        /* \"contracts/LooksRare/TokenDistributor.sol\":13353:13367  looksRareToken */\n      immutable(\"0x94ac46a65f1fb0934ae334b85100dc6a35a94d53aa1e2b4e46f9a861095e9ac0\")\n        /* \"contracts/LooksRare/TokenDistributor.sol\":13353:13372  looksRareToken.mint */\n      0xffffffffffffffffffffffffffffffffffffffff\n      and\n      0x40c10f19\n        /* \"contracts/LooksRare/TokenDistributor.sol\":13381:13385  this */\n      address\n        /* \"contracts/LooksRare/TokenDistributor.sol\":13388:13409  tokenRewardForStaking */\n      dup6\n        /* \"contracts/LooksRare/TokenDistributor.sol\":13353:13410  looksRareToken.mint(address(this), tokenRewardForStaking) */\n      mload(0x40)\n      dup4\n      0xffffffff\n      and\n      0xe0\n      shl\n      dup2\n      mstore\n      0x04\n      add\n      tag_229\n      swap3\n      swap2\n      swap1\n      tag_230\n      jump\t// in\n    tag_229:\n      0x20\n      mload(0x40)\n      dup1\n      dup4\n      sub\n      dup2\n      0x00\n      dup8\n      gas\n      call\n      iszero\n      dup1\n      iszero\n      tag_232\n      jumpi\n      returndatasize\n      0x00\n      dup1\n      returndatacopy\n      revert(0x00, returndatasize)\n    tag_232:\n      pop\n      pop\n      pop\n      pop\n      mload(0x40)\n      returndatasize\n      not(0x1f)\n      0x1f\n      dup3\n      add\n      and\n      dup3\n      add\n      dup1\n      0x40\n      mstore\n      pop\n      dup2\n      add\n      swap1\n      tag_233\n      swap2\n      swap1\n      tag_234\n      jump\t// in\n    tag_233:\n        /* \"contracts/LooksRare/TokenDistributor.sol\":13335:13410  bool mintStatus = looksRareToken.mint(address(this), tokenRewardForStaking) */\n      swap1\n      pop\n        /* \"contracts/LooksRare/TokenDistributor.sol\":13429:13439  mintStatus */\n      dup1\n        /* \"contracts/LooksRare/TokenDistributor.sol\":13425:13578  if (mintStatus) {... */\n      iszero\n      tag_235\n      jumpi\n        /* \"contracts/LooksRare/TokenDistributor.sol\":13544:13561  totalAmountStaked */\n      sload(0x07)\n        /* \"contracts/LooksRare/TokenDistributor.sol\":968:974  10**12 */\n      0xe8d4a51000\n        /* \"contracts/LooksRare/TokenDistributor.sol\":13500:13521  tokenRewardForStaking */\n      dup5\n        /* \"contracts/LooksRare/TokenDistributor.sol\":13500:13540  tokenRewardForStaking * PRECISION_FACTOR */\n      tag_236\n      swap2\n      swap1\n      tag_99\n      jump\t// in\n    tag_236:\n        /* \"contracts/LooksRare/TokenDistributor.sol\":13499:13561  (tokenRewardForStaking * PRECISION_FACTOR) / totalAmountStaked */\n      tag_237\n      swap2\n      swap1\n      tag_116\n      jump\t// in\n    tag_237:\n        /* \"contracts/LooksRare/TokenDistributor.sol\":13479:13495  accTokenPerShare */\n      sload(0x01)\n        /* \"contracts/LooksRare/TokenDistributor.sol\":13479:13562  accTokenPerShare + ((tokenRewardForStaking * PRECISION_FACTOR) / totalAmountStaked) */\n      tag_238\n      swap2\n      swap1\n      tag_108\n      jump\t// in\n    tag_238:\n        /* \"contracts/LooksRare/TokenDistributor.sol\":13460:13476  accTokenPerShare */\n      0x01\n        /* \"contracts/LooksRare/TokenDistributor.sol\":13460:13562  accTokenPerShare = accTokenPerShare + ((tokenRewardForStaking * PRECISION_FACTOR) / totalAmountStaked) */\n      dup2\n      swap1\n      sstore\n      pop\n        /* \"contracts/LooksRare/TokenDistributor.sol\":13425:13578  if (mintStatus) {... */\n    tag_235:\n        /* \"contracts/LooksRare/TokenDistributor.sol\":13594:13608  looksRareToken */\n      immutable(\"0x94ac46a65f1fb0934ae334b85100dc6a35a94d53aa1e2b4e46f9a861095e9ac0\")\n        /* \"contracts/LooksRare/TokenDistributor.sol\":13594:13613  looksRareToken.mint */\n      0xffffffffffffffffffffffffffffffffffffffff\n      and\n      0x40c10f19\n        /* \"contracts/LooksRare/TokenDistributor.sol\":13614:13627  tokenSplitter */\n      immutable(\"0xa752a62a6f5fb32dd4e041dbf29a56f1f90fbf8d8356b6069d6d3304e11d2d2e\")\n        /* \"contracts/LooksRare/TokenDistributor.sol\":13629:13649  tokenRewardForOthers */\n      dup5\n        /* \"contracts/LooksRare/TokenDistributor.sol\":13594:13650  looksRareToken.mint(tokenSplitter, tokenRewardForOthers) */\n      mload(0x40)\n      dup4\n      0xffffffff\n      and\n      0xe0\n      shl\n      dup2\n      mstore\n      0x04\n      add\n      tag_239\n      swap3\n      swap2\n      swap1\n      tag_230\n      jump\t// in\n    tag_239:\n      0x20\n      mload(0x40)\n      dup1\n      dup4\n      sub\n      dup2\n      0x00\n      dup8\n      gas\n      call\n      iszero\n      dup1\n      iszero\n      tag_241\n      jumpi\n      returndatasize\n      0x00\n      dup1\n      returndatacopy\n      revert(0x00, returndatasize)\n    tag_241:\n      pop\n      pop\n      pop\n      pop\n      mload(0x40)\n      returndatasize\n      not(0x1f)\n      0x1f\n      dup3\n      add\n      and\n      dup3\n      add\n      dup1\n      0x40\n      mstore\n      pop\n      dup2\n      add\n      swap1\n      tag_242\n      swap2\n      swap1\n      tag_234\n      jump\t// in\n    tag_242:\n      pop\n        /* \"contracts/LooksRare/TokenDistributor.sol\":13223:13662  {... */\n      pop\n        /* \"contracts/LooksRare/TokenDistributor.sol\":13192:13662  if (tokenRewardForStaking > 0) {... */\n    tag_228:\n        /* \"contracts/LooksRare/TokenDistributor.sol\":13786:13794  endBlock */\n      sload(0x03)\n        /* \"contracts/LooksRare/TokenDistributor.sol\":13767:13782  lastRewardBlock */\n      sload(0x04)\n        /* \"contracts/LooksRare/TokenDistributor.sol\":13767:13794  lastRewardBlock <= endBlock */\n      gt\n        /* \"contracts/LooksRare/TokenDistributor.sol\":13763:13853  if (lastRewardBlock <= endBlock) {... */\n      tag_243\n      jumpi\n        /* \"contracts/LooksRare/TokenDistributor.sol\":13829:13841  block.number */\n      number\n        /* \"contracts/LooksRare/TokenDistributor.sol\":13811:13826  lastRewardBlock */\n      0x04\n        /* \"contracts/LooksRare/TokenDistributor.sol\":13811:13841  lastRewardBlock = block.number */\n      dup2\n      swap1\n      sstore\n      pop\n        /* \"contracts/LooksRare/TokenDistributor.sol\":13763:13853  if (lastRewardBlock <= endBlock) {... */\n    tag_243:\n        /* \"contracts/LooksRare/TokenDistributor.sol\":11777:13860  {... */\n      pop\n      pop\n      pop\n        /* \"contracts/LooksRare/TokenDistributor.sol\":11745:13860  function _updatePool() internal {... */\n    tag_210:\n      jump\t// out\n        /* \"@openzeppelin/contracts/token/ERC20/utils/SafeERC20.sol\":701:906  function safeTransfer(... */\n    tag_160:\n        /* \"@openzeppelin/contracts/token/ERC20/utils/SafeERC20.sol\":813:899  _callOptionalReturn(token, abi.encodeWithSelector(token.transfer.selector, to, value)) */\n      tag_245\n        /* \"@openzeppelin/contracts/token/ERC20/utils/SafeERC20.sol\":833:838  token */\n      dup4\n        /* \"@openzeppelin/contracts/token/ERC20/utils/SafeERC20.sol\":863:886  token.transfer.selector */\n      shl(0xe0, 0xa9059cbb)\n        /* \"@openzeppelin/contracts/token/ERC20/utils/SafeERC20.sol\":888:890  to */\n      dup5\n        /* \"@openzeppelin/contracts/token/ERC20/utils/SafeERC20.sol\":892:897  value */\n      dup5\n        /* \"@openzeppelin/contracts/token/ERC20/utils/SafeERC20.sol\":840:898  abi.encodeWithSelector(token.transfer.selector, to, value) */\n      add(0x24, mload(0x40))\n      tag_246\n      swap3\n      swap2\n      swap1\n      tag_230\n      jump\t// in\n    tag_246:\n      mload(0x40)\n      0x20\n      dup2\n      dup4\n      sub\n      sub\n      dup2\n      mstore\n      swap1\n      0x40\n      mstore\n      swap1\n      not(0xffffffffffffffffffffffffffffffffffffffffffffffffffffffff)\n      and\n      0x20\n      dup3\n      add\n      dup1\n      mload\n      0xffffffffffffffffffffffffffffffffffffffffffffffffffffffff\n      dup4\n      dup2\n      dup4\n      and\n      or\n      dup4\n      mstore\n      pop\n      pop\n      pop\n      pop\n        /* \"@openzeppelin/contracts/token/ERC20/utils/SafeERC20.sol\":813:832  _callOptionalReturn */\n      tag_247\n        /* \"@openzeppelin/contracts/token/ERC20/utils/SafeERC20.sol\":813:899  _callOptionalReturn(token, abi.encodeWithSelector(token.transfer.selector, to, value)) */\n      jump\t// in\n    tag_245:\n        /* \"@openzeppelin/contracts/token/ERC20/utils/SafeERC20.sol\":701:906  function safeTransfer(... */\n      pop\n      pop\n      pop\n      jump\t// out\n        /* \"@openzeppelin/contracts/token/ERC20/utils/SafeERC20.sol\":912:1153  function safeTransferFrom(... */\n    tag_186:\n        /* \"@openzeppelin/contracts/token/ERC20/utils/SafeERC20.sol\":1050:1146  _callOptionalReturn(token, abi.encodeWithSelector(token.transferFrom.selector, from, to, value)) */\n      tag_249\n        /* \"@openzeppelin/contracts/token/ERC20/utils/SafeERC20.sol\":1070:1075  token */\n      dup5\n        /* \"@openzeppelin/contracts/token/ERC20/utils/SafeERC20.sol\":1100:1127  token.transferFrom.selector */\n      shl(0xe0, 0x23b872dd)\n        /* \"@openzeppelin/contracts/token/ERC20/utils/SafeERC20.sol\":1129:1133  from */\n      dup6\n        /* \"@openzeppelin/contracts/token/ERC20/utils/SafeERC20.sol\":1135:1137  to */\n      dup6\n        /* \"@openzeppelin/contracts/token/ERC20/utils/SafeERC20.sol\":1139:1144  value */\n      dup6\n        /* \"@openzeppelin/contracts/token/ERC20/utils/SafeERC20.sol\":1077:1145  abi.encodeWithSelector(token.transferFrom.selector, from, to, value) */\n      add(0x24, mload(0x40))\n      tag_250\n      swap4\n      swap3\n      swap2\n      swap1\n      tag_251\n      jump\t// in\n    tag_250:\n      mload(0x40)\n      0x20\n      dup2\n      dup4\n      sub\n      sub\n      dup2\n      mstore\n      swap1\n      0x40\n      mstore\n      swap1\n      not(0xffffffffffffffffffffffffffffffffffffffffffffffffffffffff)\n      and\n      0x20\n      dup3\n      add\n      dup1\n      mload\n      0xffffffffffffffffffffffffffffffffffffffffffffffffffffffff\n      dup4\n      dup2\n      dup4\n      and\n      or\n      dup4\n      mstore\n      pop\n      pop\n      pop\n      pop\n        /* \"@openzeppelin/contracts/token/ERC20/utils/SafeERC20.sol\":1050:1069  _callOptionalReturn */\n      tag_247\n        /* \"@openzeppelin/contracts/token/ERC20/utils/SafeERC20.sol\":1050:1146  _callOptionalReturn(token, abi.encodeWithSelector(token.transferFrom.selector, from, to, value)) */\n      jump\t// in\n    tag_249:\n        /* \"@openzeppelin/contracts/token/ERC20/utils/SafeERC20.sol\":912:1153  function safeTransferFrom(... */\n      pop\n      pop\n      pop\n      pop\n      jump\t// out\n        /* \"contracts/LooksRare/TokenDistributor.sol\":13987:14452  function _updateRewardsPerBlock(uint256 _newStartBlock) internal {... */\n    tag_221:\n        /* \"contracts/LooksRare/TokenDistributor.sol\":14096:14108  currentPhase */\n      0x02\n      0x00\n        /* \"contracts/LooksRare/TokenDistributor.sol\":14096:14110  currentPhase++ */\n      dup2\n      sload\n      dup1\n      swap3\n      swap2\n      swap1\n      tag_253\n      swap1\n      tag_106\n      jump\t// in\n    tag_253:\n      swap2\n      swap1\n      pop\n      sstore\n      pop\n        /* \"contracts/LooksRare/TokenDistributor.sol\":14187:14200  stakingPeriod */\n      0x08\n        /* \"contracts/LooksRare/TokenDistributor.sol\":14187:14214  stakingPeriod[currentPhase] */\n      0x00\n        /* \"contracts/LooksRare/TokenDistributor.sol\":14201:14213  currentPhase */\n      sload(0x02)\n        /* \"contracts/LooksRare/TokenDistributor.sol\":14187:14214  stakingPeriod[currentPhase] */\n      dup2\n      mstore\n      0x20\n      add\n      swap1\n      dup2\n      mstore\n      0x20\n      add\n      0x00\n      keccak256\n        /* \"contracts/LooksRare/TokenDistributor.sol\":14187:14239  stakingPeriod[currentPhase].rewardPerBlockForStaking */\n      0x00\n      add\n      sload\n        /* \"contracts/LooksRare/TokenDistributor.sol\":14160:14184  rewardPerBlockForStaking */\n      0x06\n        /* \"contracts/LooksRare/TokenDistributor.sol\":14160:14239  rewardPerBlockForStaking = stakingPeriod[currentPhase].rewardPerBlockForStaking */\n      dup2\n      swap1\n      sstore\n      pop\n        /* \"contracts/LooksRare/TokenDistributor.sol\":14276:14289  stakingPeriod */\n      0x08\n        /* \"contracts/LooksRare/TokenDistributor.sol\":14276:14303  stakingPeriod[currentPhase] */\n      0x00\n        /* \"contracts/LooksRare/TokenDistributor.sol\":14290:14302  currentPhase */\n      sload(0x02)\n        /* \"contracts/LooksRare/TokenDistributor.sol\":14276:14303  stakingPeriod[currentPhase] */\n      dup2\n      mstore\n      0x20\n      add\n      swap1\n      dup2\n      mstore\n      0x20\n      add\n      0x00\n      keccak256\n        /* \"contracts/LooksRare/TokenDistributor.sol\":14276:14327  stakingPeriod[currentPhase].rewardPerBlockForOthers */\n      0x01\n      add\n      sload\n        /* \"contracts/LooksRare/TokenDistributor.sol\":14250:14273  rewardPerBlockForOthers */\n      0x05\n        /* \"contracts/LooksRare/TokenDistributor.sol\":14250:14327  rewardPerBlockForOthers = stakingPeriod[currentPhase].rewardPerBlockForOthers */\n      dup2\n      swap1\n      sstore\n      pop\n        /* \"contracts/LooksRare/TokenDistributor.sol\":14364:14376  currentPhase */\n      sload(0x02)\n        /* \"contracts/LooksRare/TokenDistributor.sol\":14345:14444  NewRewardsPerBlock(currentPhase, _newStartBlock, rewardPerBlockForStaking, rewardPerBlockForOthers) */\n      0x40181eb77bccfdef1a73b669bb4290d98e2fbec678c7cf4578ae256210420e17\n        /* \"contracts/LooksRare/TokenDistributor.sol\":14378:14392  _newStartBlock */\n      dup3\n        /* \"contracts/LooksRare/TokenDistributor.sol\":14394:14418  rewardPerBlockForStaking */\n      sload(0x06)\n        /* \"contracts/LooksRare/TokenDistributor.sol\":14420:14443  rewardPerBlockForOthers */\n      sload(0x05)\n        /* \"contracts/LooksRare/TokenDistributor.sol\":14345:14444  NewRewardsPerBlock(currentPhase, _newStartBlock, rewardPerBlockForStaking, rewardPerBlockForOthers) */\n      mload(0x40)\n      tag_254\n      swap4\n      swap3\n      swap2\n      swap1\n      tag_81\n      jump\t// in\n    tag_254:\n      mload(0x40)\n      dup1\n      swap2\n      sub\n      swap1\n      log2\n        /* \"contracts/LooksRare/TokenDistributor.sol\":13987:14452  function _updateRewardsPerBlock(uint256 _newStartBlock) internal {... */\n      pop\n      jump\t// out\n        /* \"@openzeppelin/contracts/token/ERC20/utils/SafeERC20.sol\":3207:3913  function _callOptionalReturn(IERC20 token, bytes memory data) private {... */\n    tag_247:\n        /* \"@openzeppelin/contracts/token/ERC20/utils/SafeERC20.sol\":3626:3649  bytes memory returndata */\n      0x00\n        /* \"@openzeppelin/contracts/token/ERC20/utils/SafeERC20.sol\":3652:3721  address(token).functionCall(data, \"SafeERC20: low-level call failed\") */\n      tag_256\n        /* \"@openzeppelin/contracts/token/ERC20/utils/SafeERC20.sol\":3680:3684  data */\n      dup3\n        /* \"@openzeppelin/contracts/token/ERC20/utils/SafeERC20.sol\":3652:3721  address(token).functionCall(data, \"SafeERC20: low-level call failed\") */\n      mload(0x40)\n      dup1\n      0x40\n      add\n      0x40\n      mstore\n      dup1\n      0x20\n      dup2\n      mstore\n      0x20\n      add\n      0x5361666545524332303a206c6f772d6c6576656c2063616c6c206661696c6564\n      dup2\n      mstore\n      pop\n        /* \"@openzeppelin/contracts/token/ERC20/utils/SafeERC20.sol\":3660:3665  token */\n      dup6\n        /* \"@openzeppelin/contracts/token/ERC20/utils/SafeERC20.sol\":3652:3679  address(token).functionCall */\n      0xffffffffffffffffffffffffffffffffffffffff\n      and\n      tag_257\n      swap1\n        /* \"@openzeppelin/contracts/token/ERC20/utils/SafeERC20.sol\":3652:3721  address(token).functionCall(data, \"SafeERC20: low-level call failed\") */\n      swap3\n      swap2\n      swap1\n      0xffffffff\n      and\n      jump\t// in\n    tag_256:\n        /* \"@openzeppelin/contracts/token/ERC20/utils/SafeERC20.sol\":3626:3721  bytes memory returndata = address(token).functionCall(data, \"SafeERC20: low-level call failed\") */\n      swap1\n      pop\n        /* \"@openzeppelin/contracts/token/ERC20/utils/SafeERC20.sol\":3755:3756  0 */\n      0x00\n        /* \"@openzeppelin/contracts/token/ERC20/utils/SafeERC20.sol\":3735:3745  returndata */\n      dup2\n        /* \"@openzeppelin/contracts/token/ERC20/utils/SafeERC20.sol\":3735:3752  returndata.length */\n      mload\n        /* \"@openzeppelin/contracts/token/ERC20/utils/SafeERC20.sol\":3735:3756  returndata.length > 0 */\n      gt\n        /* \"@openzeppelin/contracts/token/ERC20/utils/SafeERC20.sol\":3731:3907  if (returndata.length > 0) {... */\n      iszero\n      tag_258\n      jumpi\n        /* \"@openzeppelin/contracts/token/ERC20/utils/SafeERC20.sol\":3830:3840  returndata */\n      dup1\n        /* \"@openzeppelin/contracts/token/ERC20/utils/SafeERC20.sol\":3819:3849  abi.decode(returndata, (bool)) */\n      dup1\n      0x20\n      add\n      swap1\n      mload\n      dup2\n      add\n      swap1\n      tag_259\n      swap2\n      swap1\n      tag_234\n      jump\t// in\n    tag_259:\n        /* \"@openzeppelin/contracts/token/ERC20/utils/SafeERC20.sol\":3811:3896  require(abi.decode(returndata, (bool)), \"SafeERC20: ERC20 operation did not succeed\") */\n      tag_260\n      jumpi\n      mload(0x40)\n      0x08c379a000000000000000000000000000000000000000000000000000000000\n      dup2\n      mstore\n      0x04\n      add\n      tag_261\n      swap1\n      tag_262\n      jump\t// in\n    tag_261:\n      mload(0x40)\n      dup1\n      swap2\n      sub\n      swap1\n      revert\n    tag_260:\n        /* \"@openzeppelin/contracts/token/ERC20/utils/SafeERC20.sol\":3731:3907  if (returndata.length > 0) {... */\n    tag_258:\n        /* \"@openzeppelin/contracts/token/ERC20/utils/SafeERC20.sol\":3277:3913  {... */\n      pop\n        /* \"@openzeppelin/contracts/token/ERC20/utils/SafeERC20.sol\":3207:3913  function _callOptionalReturn(IERC20 token, bytes memory data) private {... */\n      pop\n      pop\n      jump\t// out\n        /* \"@openzeppelin/contracts/utils/Address.sol\":3861:4084  function functionCall(... */\n    tag_257:\n        /* \"@openzeppelin/contracts/utils/Address.sol\":3994:4006  bytes memory */\n      0x60\n        /* \"@openzeppelin/contracts/utils/Address.sol\":4025:4077  functionCallWithValue(target, data, 0, errorMessage) */\n      tag_264\n        /* \"@openzeppelin/contracts/utils/Address.sol\":4047:4053  target */\n      dup5\n        /* \"@openzeppelin/contracts/utils/Address.sol\":4055:4059  data */\n      dup5\n        /* \"@openzeppelin/contracts/utils/Address.sol\":4061:4062  0 */\n      0x00\n        /* \"@openzeppelin/contracts/utils/Address.sol\":4064:4076  errorMessage */\n      dup6\n        /* \"@openzeppelin/contracts/utils/Address.sol\":4025:4046  functionCallWithValue */\n      tag_265\n        /* \"@openzeppelin/contracts/utils/Address.sol\":4025:4077  functionCallWithValue(target, data, 0, errorMessage) */\n      jump\t// in\n    tag_264:\n        /* \"@openzeppelin/contracts/utils/Address.sol\":4018:4077  return functionCallWithValue(target, data, 0, errorMessage) */\n      swap1\n      pop\n        /* \"@openzeppelin/contracts/utils/Address.sol\":3861:4084  function functionCall(... */\n      swap4\n      swap3\n      pop\n      pop\n      pop\n      jump\t// out\n        /* \"@openzeppelin/contracts/utils/Address.sol\":4948:5447  function functionCallWithValue(... */\n    tag_265:\n        /* \"@openzeppelin/contracts/utils/Address.sol\":5113:5125  bytes memory */\n      0x60\n        /* \"@openzeppelin/contracts/utils/Address.sol\":5170:5175  value */\n      dup3\n        /* \"@openzeppelin/contracts/utils/Address.sol\":5145:5166  address(this).balance */\n      selfbalance\n        /* \"@openzeppelin/contracts/utils/Address.sol\":5145:5175  address(this).balance >= value */\n      lt\n      iszero\n        /* \"@openzeppelin/contracts/utils/Address.sol\":5137:5218  require(address(this).balance >= value, \"Address: insufficient balance for call\") */\n      tag_267\n      jumpi\n      mload(0x40)\n      0x08c379a000000000000000000000000000000000000000000000000000000000\n      dup2\n      mstore\n      0x04\n      add\n      tag_268\n      swap1\n      tag_269\n      jump\t// in\n    tag_268:\n      mload(0x40)\n      dup1\n      swap2\n      sub\n      swap1\n      revert\n    tag_267:\n        /* \"@openzeppelin/contracts/utils/Address.sol\":5236:5254  isContract(target) */\n      tag_270\n        /* \"@openzeppelin/contracts/utils/Address.sol\":5247:5253  target */\n      dup6\n        /* \"@openzeppelin/contracts/utils/Address.sol\":5236:5246  isContract */\n      tag_271\n        /* \"@openzeppelin/contracts/utils/Address.sol\":5236:5254  isContract(target) */\n      jump\t// in\n    tag_270:\n        /* \"@openzeppelin/contracts/utils/Address.sol\":5228:5288  require(isContract(target), \"Address: call to non-contract\") */\n      tag_272\n      jumpi\n      mload(0x40)\n      0x08c379a000000000000000000000000000000000000000000000000000000000\n      dup2\n      mstore\n      0x04\n      add\n      tag_273\n      swap1\n      tag_274\n      jump\t// in\n    tag_273:\n      mload(0x40)\n      dup1\n      swap2\n      sub\n      swap1\n      revert\n    tag_272:\n        /* \"@openzeppelin/contracts/utils/Address.sol\":5300:5312  bool success */\n      0x00\n        /* \"@openzeppelin/contracts/utils/Address.sol\":5314:5337  bytes memory returndata */\n      dup1\n        /* \"@openzeppelin/contracts/utils/Address.sol\":5341:5347  target */\n      dup7\n        /* \"@openzeppelin/contracts/utils/Address.sol\":5341:5352  target.call */\n      0xffffffffffffffffffffffffffffffffffffffff\n      and\n        /* \"@openzeppelin/contracts/utils/Address.sol\":5360:5365  value */\n      dup6\n        /* \"@openzeppelin/contracts/utils/Address.sol\":5367:5371  data */\n      dup8\n        /* \"@openzeppelin/contracts/utils/Address.sol\":5341:5372  target.call{value: value}(data) */\n      mload(0x40)\n      tag_275\n      swap2\n      swap1\n      tag_276\n      jump\t// in\n    tag_275:\n      0x00\n      mload(0x40)\n      dup1\n      dup4\n      sub\n      dup2\n      dup6\n      dup8\n      gas\n      call\n      swap3\n      pop\n      pop\n      pop\n      returndatasize\n      dup1\n      0x00\n      dup2\n      eq\n      tag_279\n      jumpi\n      mload(0x40)\n      swap2\n      pop\n      and(add(returndatasize, 0x3f), not(0x1f))\n      dup3\n      add\n      0x40\n      mstore\n      returndatasize\n      dup3\n      mstore\n      returndatasize\n      0x00\n      0x20\n      dup5\n      add\n      returndatacopy\n      jump(tag_278)\n    tag_279:\n      0x60\n      swap2\n      pop\n    tag_278:\n      pop\n        /* \"@openzeppelin/contracts/utils/Address.sol\":5299:5372  (bool success, bytes memory returndata) = target.call{value: value}(data) */\n      swap2\n      pop\n      swap2\n      pop\n        /* \"@openzeppelin/contracts/utils/Address.sol\":5389:5440  verifyCallResult(success, returndata, errorMessage) */\n      tag_280\n        /* \"@openzeppelin/contracts/utils/Address.sol\":5406:5413  success */\n      dup3\n        /* \"@openzeppelin/contracts/utils/Address.sol\":5415:5425  returndata */\n      dup3\n        /* \"@openzeppelin/contracts/utils/Address.sol\":5427:5439  errorMessage */\n      dup7\n        /* \"@openzeppelin/contracts/utils/Address.sol\":5389:5405  verifyCallResult */\n      tag_281\n        /* \"@openzeppelin/contracts/utils/Address.sol\":5389:5440  verifyCallResult(success, returndata, errorMessage) */\n      jump\t// in\n    tag_280:\n        /* \"@openzeppelin/contracts/utils/Address.sol\":5382:5440  return verifyCallResult(success, returndata, errorMessage) */\n      swap3\n      pop\n      pop\n      pop\n        /* \"@openzeppelin/contracts/utils/Address.sol\":4948:5447  function functionCallWithValue(... */\n      swap5\n      swap4\n      pop\n      pop\n      pop\n      pop\n      jump\t// out\n        /* \"@openzeppelin/contracts/utils/Address.sol\":1175:1495  function isContract(address account) internal view returns (bool) {... */\n    tag_271:\n        /* \"@openzeppelin/contracts/utils/Address.sol\":1235:1239  bool */\n      0x00\n        /* \"@openzeppelin/contracts/utils/Address.sol\":1487:1488  0 */\n      dup1\n        /* \"@openzeppelin/contracts/utils/Address.sol\":1465:1472  account */\n      dup3\n        /* \"@openzeppelin/contracts/utils/Address.sol\":1465:1484  account.code.length */\n      0xffffffffffffffffffffffffffffffffffffffff\n      and\n      extcodesize\n        /* \"@openzeppelin/contracts/utils/Address.sol\":1465:1488  account.code.length > 0 */\n      gt\n        /* \"@openzeppelin/contracts/utils/Address.sol\":1458:1488  return account.code.length > 0 */\n      swap1\n      pop\n        /* \"@openzeppelin/contracts/utils/Address.sol\":1175:1495  function isContract(address account) internal view returns (bool) {... */\n      swap2\n      swap1\n      pop\n      jump\t// out\n        /* \"@openzeppelin/contracts/utils/Address.sol\":7561:8253  function verifyCallResult(... */\n    tag_281:\n        /* \"@openzeppelin/contracts/utils/Address.sol\":7707:7719  bytes memory */\n      0x60\n        /* \"@openzeppelin/contracts/utils/Address.sol\":7735:7742  success */\n      dup4\n        /* \"@openzeppelin/contracts/utils/Address.sol\":7731:8247  if (success) {... */\n      iszero\n      tag_284\n      jumpi\n        /* \"@openzeppelin/contracts/utils/Address.sol\":7765:7775  returndata */\n      dup3\n        /* \"@openzeppelin/contracts/utils/Address.sol\":7758:7775  return returndata */\n      swap1\n      pop\n      jump(tag_283)\n        /* \"@openzeppelin/contracts/utils/Address.sol\":7731:8247  if (success) {... */\n    tag_284:\n        /* \"@openzeppelin/contracts/utils/Address.sol\":7896:7897  0 */\n      0x00\n        /* \"@openzeppelin/contracts/utils/Address.sol\":7876:7886  returndata */\n      dup4\n        /* \"@openzeppelin/contracts/utils/Address.sol\":7876:7893  returndata.length */\n      mload\n        /* \"@openzeppelin/contracts/utils/Address.sol\":7876:7897  returndata.length > 0 */\n      gt\n        /* \"@openzeppelin/contracts/utils/Address.sol\":7872:8237  if (returndata.length > 0) {... */\n      iszero\n      tag_286\n      jumpi\n        /* \"@openzeppelin/contracts/utils/Address.sol\":8070:8080  returndata */\n      dup3\n        /* \"@openzeppelin/contracts/utils/Address.sol\":8064:8081  mload(returndata) */\n      mload\n        /* \"@openzeppelin/contracts/utils/Address.sol\":8130:8145  returndata_size */\n      dup1\n        /* \"@openzeppelin/contracts/utils/Address.sol\":8117:8127  returndata */\n      dup5\n        /* \"@openzeppelin/contracts/utils/Address.sol\":8113:8115  32 */\n      0x20\n        /* \"@openzeppelin/contracts/utils/Address.sol\":8109:8128  add(32, returndata) */\n      add\n        /* \"@openzeppelin/contracts/utils/Address.sol\":8102:8146  revert(add(32, returndata), returndata_size) */\n      revert\n        /* \"@openzeppelin/contracts/utils/Address.sol\":7872:8237  if (returndata.length > 0) {... */\n    tag_286:\n        /* \"@openzeppelin/contracts/utils/Address.sol\":8209:8221  errorMessage */\n      dup2\n        /* \"@openzeppelin/contracts/utils/Address.sol\":8202:8222  revert(errorMessage) */\n      mload(0x40)\n      0x08c379a000000000000000000000000000000000000000000000000000000000\n      dup2\n      mstore\n      0x04\n      add\n      tag_288\n      swap2\n      swap1\n      tag_289\n      jump\t// in\n    tag_288:\n      mload(0x40)\n      dup1\n      swap2\n      sub\n      swap1\n      revert\n        /* \"@openzeppelin/contracts/utils/Address.sol\":7561:8253  function verifyCallResult(... */\n    tag_283:\n      swap4\n      swap3\n      pop\n      pop\n      pop\n      jump\t// out\n        /* \"#utility.yul\":7:84   */\n    tag_290:\n        /* \"#utility.yul\":44:51   */\n      0x00\n        /* \"#utility.yul\":73:78   */\n      dup2\n        /* \"#utility.yul\":62:78   */\n      swap1\n      pop\n        /* \"#utility.yul\":7:84   */\n      swap2\n      swap1\n      pop\n      jump\t// out\n        /* \"#utility.yul\":90:208   */\n    tag_291:\n        /* \"#utility.yul\":177:201   */\n      tag_337\n        /* \"#utility.yul\":195:200   */\n      dup2\n        /* \"#utility.yul\":177:201   */\n      tag_290\n      jump\t// in\n    tag_337:\n        /* \"#utility.yul\":172:175   */\n      dup3\n        /* \"#utility.yul\":165:202   */\n      mstore\n        /* \"#utility.yul\":90:208   */\n      pop\n      pop\n      jump\t// out\n        /* \"#utility.yul\":214:436   */\n    tag_29:\n        /* \"#utility.yul\":307:311   */\n      0x00\n        /* \"#utility.yul\":345:347   */\n      0x20\n        /* \"#utility.yul\":334:343   */\n      dup3\n        /* \"#utility.yul\":330:348   */\n      add\n        /* \"#utility.yul\":322:348   */\n      swap1\n      pop\n        /* \"#utility.yul\":358:429   */\n      tag_339\n        /* \"#utility.yul\":426:427   */\n      0x00\n        /* \"#utility.yul\":415:424   */\n      dup4\n        /* \"#utility.yul\":411:428   */\n      add\n        /* \"#utility.yul\":402:408   */\n      dup5\n        /* \"#utility.yul\":358:429   */\n      tag_291\n      jump\t// in\n    tag_339:\n        /* \"#utility.yul\":214:436   */\n      swap3\n      swap2\n      pop\n      pop\n      jump\t// out\n        /* \"#utility.yul\":523:640   */\n    tag_293:\n        /* \"#utility.yul\":632:633   */\n      0x00\n        /* \"#utility.yul\":629:630   */\n      dup1\n        /* \"#utility.yul\":622:634   */\n      revert\n        /* \"#utility.yul\":769:895   */\n    tag_295:\n        /* \"#utility.yul\":806:813   */\n      0x00\n        /* \"#utility.yul\":846:888   */\n      0xffffffffffffffffffffffffffffffffffffffff\n        /* \"#utility.yul\":839:844   */\n      dup3\n        /* \"#utility.yul\":835:889   */\n      and\n        /* \"#utility.yul\":824:889   */\n      swap1\n      pop\n        /* \"#utility.yul\":769:895   */\n      swap2\n      swap1\n      pop\n      jump\t// out\n        /* \"#utility.yul\":901:997   */\n    tag_296:\n        /* \"#utility.yul\":938:945   */\n      0x00\n        /* \"#utility.yul\":967:991   */\n      tag_345\n        /* \"#utility.yul\":985:990   */\n      dup3\n        /* \"#utility.yul\":967:991   */\n      tag_295\n      jump\t// in\n    tag_345:\n        /* \"#utility.yul\":956:991   */\n      swap1\n      pop\n        /* \"#utility.yul\":901:997   */\n      swap2\n      swap1\n      pop\n      jump\t// out\n        /* \"#utility.yul\":1003:1125   */\n    tag_297:\n        /* \"#utility.yul\":1076:1100   */\n      tag_347\n        /* \"#utility.yul\":1094:1099   */\n      dup2\n        /* \"#utility.yul\":1076:1100   */\n      tag_296\n      jump\t// in\n    tag_347:\n        /* \"#utility.yul\":1069:1074   */\n      dup2\n        /* \"#utility.yul\":1066:1101   */\n      eq\n        /* \"#utility.yul\":1056:1119   */\n      tag_348\n      jumpi\n        /* \"#utility.yul\":1115:1116   */\n      0x00\n        /* \"#utility.yul\":1112:1113   */\n      dup1\n        /* \"#utility.yul\":1105:1117   */\n      revert\n        /* \"#utility.yul\":1056:1119   */\n    tag_348:\n        /* \"#utility.yul\":1003:1125   */\n      pop\n      jump\t// out\n        /* \"#utility.yul\":1131:1270   */\n    tag_298:\n        /* \"#utility.yul\":1177:1182   */\n      0x00\n        /* \"#utility.yul\":1215:1221   */\n      dup2\n        /* \"#utility.yul\":1202:1222   */\n      calldataload\n        /* \"#utility.yul\":1193:1222   */\n      swap1\n      pop\n        /* \"#utility.yul\":1231:1264   */\n      tag_350\n        /* \"#utility.yul\":1258:1263   */\n      dup2\n        /* \"#utility.yul\":1231:1264   */\n      tag_297\n      jump\t// in\n    tag_350:\n        /* \"#utility.yul\":1131:1270   */\n      swap3\n      swap2\n      pop\n      pop\n      jump\t// out\n        /* \"#utility.yul\":1276:1605   */\n    tag_35:\n        /* \"#utility.yul\":1335:1341   */\n      0x00\n        /* \"#utility.yul\":1384:1386   */\n      0x20\n        /* \"#utility.yul\":1372:1381   */\n      dup3\n        /* \"#utility.yul\":1363:1370   */\n      dup5\n        /* \"#utility.yul\":1359:1382   */\n      sub\n        /* \"#utility.yul\":1355:1387   */\n      slt\n        /* \"#utility.yul\":1352:1471   */\n      iszero\n      tag_352\n      jumpi\n        /* \"#utility.yul\":1390:1469   */\n      tag_353\n      tag_293\n      jump\t// in\n    tag_353:\n        /* \"#utility.yul\":1352:1471   */\n    tag_352:\n        /* \"#utility.yul\":1510:1511   */\n      0x00\n        /* \"#utility.yul\":1535:1588   */\n      tag_354\n        /* \"#utility.yul\":1580:1587   */\n      dup5\n        /* \"#utility.yul\":1571:1577   */\n      dup3\n        /* \"#utility.yul\":1560:1569   */\n      dup6\n        /* \"#utility.yul\":1556:1578   */\n      add\n        /* \"#utility.yul\":1535:1588   */\n      tag_298\n      jump\t// in\n    tag_354:\n        /* \"#utility.yul\":1525:1588   */\n      swap2\n      pop\n        /* \"#utility.yul\":1481:1598   */\n      pop\n        /* \"#utility.yul\":1276:1605   */\n      swap3\n      swap2\n      pop\n      pop\n      jump\t// out\n        /* \"#utility.yul\":1611:1943   */\n    tag_42:\n        /* \"#utility.yul\":1732:1736   */\n      0x00\n        /* \"#utility.yul\":1770:1772   */\n      0x40\n        /* \"#utility.yul\":1759:1768   */\n      dup3\n        /* \"#utility.yul\":1755:1773   */\n      add\n        /* \"#utility.yul\":1747:1773   */\n      swap1\n      pop\n        /* \"#utility.yul\":1783:1854   */\n      tag_356\n        /* \"#utility.yul\":1851:1852   */\n      0x00\n        /* \"#utility.yul\":1840:1849   */\n      dup4\n        /* \"#utility.yul\":1836:1853   */\n      add\n        /* \"#utility.yul\":1827:1833   */\n      dup6\n        /* \"#utility.yul\":1783:1854   */\n      tag_291\n      jump\t// in\n    tag_356:\n        /* \"#utility.yul\":1864:1936   */\n      tag_357\n        /* \"#utility.yul\":1932:1934   */\n      0x20\n        /* \"#utility.yul\":1921:1930   */\n      dup4\n        /* \"#utility.yul\":1917:1935   */\n      add\n        /* \"#utility.yul\":1908:1914   */\n      dup5\n        /* \"#utility.yul\":1864:1936   */\n      tag_291\n      jump\t// in\n    tag_357:\n        /* \"#utility.yul\":1611:1943   */\n      swap4\n      swap3\n      pop\n      pop\n      pop\n      jump\t// out\n        /* \"#utility.yul\":1949:2071   */\n    tag_299:\n        /* \"#utility.yul\":2022:2046   */\n      tag_359\n        /* \"#utility.yul\":2040:2045   */\n      dup2\n        /* \"#utility.yul\":2022:2046   */\n      tag_290\n      jump\t// in\n    tag_359:\n        /* \"#utility.yul\":2015:2020   */\n      dup2\n        /* \"#utility.yul\":2012:2047   */\n      eq\n        /* \"#utility.yul\":2002:2065   */\n      tag_360\n      jumpi\n        /* \"#utility.yul\":2061:2062   */\n      0x00\n        /* \"#utility.yul\":2058:2059   */\n      dup1\n        /* \"#utility.yul\":2051:2063   */\n      revert\n        /* \"#utility.yul\":2002:2065   */\n    tag_360:\n        /* \"#utility.yul\":1949:2071   */\n      pop\n      jump\t// out\n        /* \"#utility.yul\":2077:2216   */\n    tag_300:\n        /* \"#utility.yul\":2123:2128   */\n      0x00\n        /* \"#utility.yul\":2161:2167   */\n      dup2\n        /* \"#utility.yul\":2148:2168   */\n      calldataload\n        /* \"#utility.yul\":2139:2168   */\n      swap1\n      pop\n        /* \"#utility.yul\":2177:2210   */\n      tag_362\n        /* \"#utility.yul\":2204:2209   */\n      dup2\n        /* \"#utility.yul\":2177:2210   */\n      tag_299\n      jump\t// in\n    tag_362:\n        /* \"#utility.yul\":2077:2216   */\n      swap3\n      swap2\n      pop\n      pop\n      jump\t// out\n        /* \"#utility.yul\":2222:2551   */\n    tag_47:\n        /* \"#utility.yul\":2281:2287   */\n      0x00\n        /* \"#utility.yul\":2330:2332   */\n      0x20\n        /* \"#utility.yul\":2318:2327   */\n      dup3\n        /* \"#utility.yul\":2309:2316   */\n      dup5\n        /* \"#utility.yul\":2305:2328   */\n      sub\n        /* \"#utility.yul\":2301:2333   */\n      slt\n        /* \"#utility.yul\":2298:2417   */\n      iszero\n      tag_364\n      jumpi\n        /* \"#utility.yul\":2336:2415   */\n      tag_365\n      tag_293\n      jump\t// in\n    tag_365:\n        /* \"#utility.yul\":2298:2417   */\n    tag_364:\n        /* \"#utility.yul\":2456:2457   */\n      0x00\n        /* \"#utility.yul\":2481:2534   */\n      tag_366\n        /* \"#utility.yul\":2526:2533   */\n      dup5\n        /* \"#utility.yul\":2517:2523   */\n      dup3\n        /* \"#utility.yul\":2506:2515   */\n      dup6\n        /* \"#utility.yul\":2502:2524   */\n      add\n        /* \"#utility.yul\":2481:2534   */\n      tag_300\n      jump\t// in\n    tag_366:\n        /* \"#utility.yul\":2471:2534   */\n      swap2\n      pop\n        /* \"#utility.yul\":2427:2544   */\n      pop\n        /* \"#utility.yul\":2222:2551   */\n      swap3\n      swap2\n      pop\n      pop\n      jump\t// out\n        /* \"#utility.yul\":2557:2617   */\n    tag_301:\n        /* \"#utility.yul\":2585:2588   */\n      0x00\n        /* \"#utility.yul\":2606:2611   */\n      dup2\n        /* \"#utility.yul\":2599:2611   */\n      swap1\n      pop\n        /* \"#utility.yul\":2557:2617   */\n      swap2\n      swap1\n      pop\n      jump\t// out\n        /* \"#utility.yul\":2623:2765   */\n    tag_302:\n        /* \"#utility.yul\":2673:2682   */\n      0x00\n        /* \"#utility.yul\":2706:2759   */\n      tag_369\n        /* \"#utility.yul\":2724:2758   */\n      tag_370\n        /* \"#utility.yul\":2733:2757   */\n      tag_371\n        /* \"#utility.yul\":2751:2756   */\n      dup5\n        /* \"#utility.yul\":2733:2757   */\n      tag_295\n      jump\t// in\n    tag_371:\n        /* \"#utility.yul\":2724:2758   */\n      tag_301\n      jump\t// in\n    tag_370:\n        /* \"#utility.yul\":2706:2759   */\n      tag_295\n      jump\t// in\n    tag_369:\n        /* \"#utility.yul\":2693:2759   */\n      swap1\n      pop\n        /* \"#utility.yul\":2623:2765   */\n      swap2\n      swap1\n      pop\n      jump\t// out\n        /* \"#utility.yul\":2771:2897   */\n    tag_303:\n        /* \"#utility.yul\":2821:2830   */\n      0x00\n        /* \"#utility.yul\":2854:2891   */\n      tag_373\n        /* \"#utility.yul\":2885:2890   */\n      dup3\n        /* \"#utility.yul\":2854:2891   */\n      tag_302\n      jump\t// in\n    tag_373:\n        /* \"#utility.yul\":2841:2891   */\n      swap1\n      pop\n        /* \"#utility.yul\":2771:2897   */\n      swap2\n      swap1\n      pop\n      jump\t// out\n        /* \"#utility.yul\":2903:3047   */\n    tag_304:\n        /* \"#utility.yul\":2971:2980   */\n      0x00\n        /* \"#utility.yul\":3004:3041   */\n      tag_375\n        /* \"#utility.yul\":3035:3040   */\n      dup3\n        /* \"#utility.yul\":3004:3041   */\n      tag_303\n      jump\t// in\n    tag_375:\n        /* \"#utility.yul\":2991:3041   */\n      swap1\n      pop\n        /* \"#utility.yul\":2903:3047   */\n      swap2\n      swap1\n      pop\n      jump\t// out\n        /* \"#utility.yul\":3053:3220   */\n    tag_305:\n        /* \"#utility.yul\":3158:3213   */\n      tag_377\n        /* \"#utility.yul\":3207:3212   */\n      dup2\n        /* \"#utility.yul\":3158:3213   */\n      tag_304\n      jump\t// in\n    tag_377:\n        /* \"#utility.yul\":3153:3156   */\n      dup3\n        /* \"#utility.yul\":3146:3214   */\n      mstore\n        /* \"#utility.yul\":3053:3220   */\n      pop\n      pop\n      jump\t// out\n        /* \"#utility.yul\":3226:3484   */\n    tag_52:\n        /* \"#utility.yul\":3337:3341   */\n      0x00\n        /* \"#utility.yul\":3375:3377   */\n      0x20\n        /* \"#utility.yul\":3364:3373   */\n      dup3\n        /* \"#utility.yul\":3360:3378   */\n      add\n        /* \"#utility.yul\":3352:3378   */\n      swap1\n      pop\n        /* \"#utility.yul\":3388:3477   */\n      tag_379\n        /* \"#utility.yul\":3474:3475   */\n      0x00\n        /* \"#utility.yul\":3463:3472   */\n      dup4\n        /* \"#utility.yul\":3459:3476   */\n      add\n        /* \"#utility.yul\":3450:3456   */\n      dup5\n        /* \"#utility.yul\":3388:3477   */\n      tag_305\n      jump\t// in\n    tag_379:\n        /* \"#utility.yul\":3226:3484   */\n      swap3\n      swap2\n      pop\n      pop\n      jump\t// out\n        /* \"#utility.yul\":3490:3608   */\n    tag_306:\n        /* \"#utility.yul\":3577:3601   */\n      tag_381\n        /* \"#utility.yul\":3595:3600   */\n      dup2\n        /* \"#utility.yul\":3577:3601   */\n      tag_296\n      jump\t// in\n    tag_381:\n        /* \"#utility.yul\":3572:3575   */\n      dup3\n        /* \"#utility.yul\":3565:3602   */\n      mstore\n        /* \"#utility.yul\":3490:3608   */\n      pop\n      pop\n      jump\t// out\n        /* \"#utility.yul\":3614:3836   */\n    tag_70:\n        /* \"#utility.yul\":3707:3711   */\n      0x00\n        /* \"#utility.yul\":3745:3747   */\n      0x20\n        /* \"#utility.yul\":3734:3743   */\n      dup3\n        /* \"#utility.yul\":3730:3748   */\n      add\n        /* \"#utility.yul\":3722:3748   */\n      swap1\n      pop\n        /* \"#utility.yul\":3758:3829   */\n      tag_383\n        /* \"#utility.yul\":3826:3827   */\n      0x00\n        /* \"#utility.yul\":3815:3824   */\n      dup4\n        /* \"#utility.yul\":3811:3828   */\n      add\n        /* \"#utility.yul\":3802:3808   */\n      dup5\n        /* \"#utility.yul\":3758:3829   */\n      tag_306\n      jump\t// in\n    tag_383:\n        /* \"#utility.yul\":3614:3836   */\n      swap3\n      swap2\n      pop\n      pop\n      jump\t// out\n        /* \"#utility.yul\":3842:4284   */\n    tag_81:\n        /* \"#utility.yul\":3991:3995   */\n      0x00\n        /* \"#utility.yul\":4029:4031   */\n      0x60\n        /* \"#utility.yul\":4018:4027   */\n      dup3\n        /* \"#utility.yul\":4014:4032   */\n      add\n        /* \"#utility.yul\":4006:4032   */\n      swap1\n      pop\n        /* \"#utility.yul\":4042:4113   */\n      tag_385\n        /* \"#utility.yul\":4110:4111   */\n      0x00\n        /* \"#utility.yul\":4099:4108   */\n      dup4\n        /* \"#utility.yul\":4095:4112   */\n      add\n        /* \"#utility.yul\":4086:4092   */\n      dup7\n        /* \"#utility.yul\":4042:4113   */\n      tag_291\n      jump\t// in\n    tag_385:\n        /* \"#utility.yul\":4123:4195   */\n      tag_386\n        /* \"#utility.yul\":4191:4193   */\n      0x20\n        /* \"#utility.yul\":4180:4189   */\n      dup4\n        /* \"#utility.yul\":4176:4194   */\n      add\n        /* \"#utility.yul\":4167:4173   */\n      dup6\n        /* \"#utility.yul\":4123:4195   */\n      tag_291\n      jump\t// in\n    tag_386:\n        /* \"#utility.yul\":4205:4277   */\n      tag_387\n        /* \"#utility.yul\":4273:4275   */\n      0x40\n        /* \"#utility.yul\":4262:4271   */\n      dup4\n        /* \"#utility.yul\":4258:4276   */\n      add\n        /* \"#utility.yul\":4249:4255   */\n      dup5\n        /* \"#utility.yul\":4205:4277   */\n      tag_291\n      jump\t// in\n    tag_387:\n        /* \"#utility.yul\":3842:4284   */\n      swap5\n      swap4\n      pop\n      pop\n      pop\n      pop\n      jump\t// out\n        /* \"#utility.yul\":4290:4470   */\n    tag_307:\n        /* \"#utility.yul\":4338:4415   */\n      0x4e487b7100000000000000000000000000000000000000000000000000000000\n        /* \"#utility.yul\":4335:4336   */\n      0x00\n        /* \"#utility.yul\":4328:4416   */\n      mstore\n        /* \"#utility.yul\":4435:4439   */\n      0x11\n        /* \"#utility.yul\":4432:4433   */\n      0x04\n        /* \"#utility.yul\":4425:4440   */\n      mstore\n        /* \"#utility.yul\":4459:4463   */\n      0x24\n        /* \"#utility.yul\":4456:4457   */\n      0x00\n        /* \"#utility.yul\":4449:4464   */\n      revert\n        /* \"#utility.yul\":4476:4824   */\n    tag_99:\n        /* \"#utility.yul\":4516:4523   */\n      0x00\n        /* \"#utility.yul\":4539:4559   */\n      tag_390\n        /* \"#utility.yul\":4557:4558   */\n      dup3\n        /* \"#utility.yul\":4539:4559   */\n      tag_290\n      jump\t// in\n    tag_390:\n        /* \"#utility.yul\":4534:4559   */\n      swap2\n      pop\n        /* \"#utility.yul\":4573:4593   */\n      tag_391\n        /* \"#utility.yul\":4591:4592   */\n      dup4\n        /* \"#utility.yul\":4573:4593   */\n      tag_290\n      jump\t// in\n    tag_391:\n        /* \"#utility.yul\":4568:4593   */\n      swap3\n      pop\n        /* \"#utility.yul\":4761:4762   */\n      dup2\n        /* \"#utility.yul\":4693:4759   */\n      0xffffffffffffffffffffffffffffffffffffffffffffffffffffffffffffffff\n        /* \"#utility.yul\":4689:4763   */\n      div\n        /* \"#utility.yul\":4686:4687   */\n      dup4\n        /* \"#utility.yul\":4683:4764   */\n      gt\n        /* \"#utility.yul\":4678:4679   */\n      dup3\n        /* \"#utility.yul\":4671:4680   */\n      iszero\n        /* \"#utility.yul\":4664:4681   */\n      iszero\n        /* \"#utility.yul\":4660:4765   */\n      and\n        /* \"#utility.yul\":4657:4788   */\n      iszero\n      tag_392\n      jumpi\n        /* \"#utility.yul\":4768:4786   */\n      tag_393\n      tag_307\n      jump\t// in\n    tag_393:\n        /* \"#utility.yul\":4657:4788   */\n    tag_392:\n        /* \"#utility.yul\":4816:4817   */\n      dup3\n        /* \"#utility.yul\":4813:4814   */\n      dup3\n        /* \"#utility.yul\":4809:4818   */\n      mul\n        /* \"#utility.yul\":4798:4818   */\n      swap1\n      pop\n        /* \"#utility.yul\":4476:4824   */\n      swap3\n      swap2\n      pop\n      pop\n      jump\t// out\n        /* \"#utility.yul\":4830:5021   */\n    tag_104:\n        /* \"#utility.yul\":4870:4874   */\n      0x00\n        /* \"#utility.yul\":4890:4910   */\n      tag_395\n        /* \"#utility.yul\":4908:4909   */\n      dup3\n        /* \"#utility.yul\":4890:4910   */\n      tag_290\n      jump\t// in\n    tag_395:\n        /* \"#utility.yul\":4885:4910   */\n      swap2\n      pop\n        /* \"#utility.yul\":4924:4944   */\n      tag_396\n        /* \"#utility.yul\":4942:4943   */\n      dup4\n        /* \"#utility.yul\":4924:4944   */\n      tag_290\n      jump\t// in\n    tag_396:\n        /* \"#utility.yul\":4919:4944   */\n      swap3\n      pop\n        /* \"#utility.yul\":4963:4964   */\n      dup3\n        /* \"#utility.yul\":4960:4961   */\n      dup3\n        /* \"#utility.yul\":4957:4965   */\n      lt\n        /* \"#utility.yul\":4954:4988   */\n      iszero\n      tag_397\n      jumpi\n        /* \"#utility.yul\":4968:4986   */\n      tag_398\n      tag_307\n      jump\t// in\n    tag_398:\n        /* \"#utility.yul\":4954:4988   */\n    tag_397:\n        /* \"#utility.yul\":5013:5014   */\n      dup3\n        /* \"#utility.yul\":5010:5011   */\n      dup3\n        /* \"#utility.yul\":5006:5015   */\n      sub\n        /* \"#utility.yul\":4998:5015   */\n      swap1\n      pop\n        /* \"#utility.yul\":4830:5021   */\n      swap3\n      swap2\n      pop\n      pop\n      jump\t// out\n        /* \"#utility.yul\":5027:5260   */\n    tag_106:\n        /* \"#utility.yul\":5066:5069   */\n      0x00\n        /* \"#utility.yul\":5089:5113   */\n      tag_400\n        /* \"#utility.yul\":5107:5112   */\n      dup3\n        /* \"#utility.yul\":5089:5113   */\n      tag_290\n      jump\t// in\n    tag_400:\n        /* \"#utility.yul\":5080:5113   */\n      swap2\n      pop\n        /* \"#utility.yul\":5135:5201   */\n      0xffffffffffffffffffffffffffffffffffffffffffffffffffffffffffffffff\n        /* \"#utility.yul\":5128:5133   */\n      dup3\n        /* \"#utility.yul\":5125:5202   */\n      eq\n        /* \"#utility.yul\":5122:5225   */\n      iszero\n      tag_401\n      jumpi\n        /* \"#utility.yul\":5205:5223   */\n      tag_402\n      tag_307\n      jump\t// in\n    tag_402:\n        /* \"#utility.yul\":5122:5225   */\n    tag_401:\n        /* \"#utility.yul\":5252:5253   */\n      0x01\n        /* \"#utility.yul\":5245:5250   */\n      dup3\n        /* \"#utility.yul\":5241:5254   */\n      add\n        /* \"#utility.yul\":5234:5254   */\n      swap1\n      pop\n        /* \"#utility.yul\":5027:5260   */\n      swap2\n      swap1\n      pop\n      jump\t// out\n        /* \"#utility.yul\":5266:5571   */\n    tag_108:\n        /* \"#utility.yul\":5306:5309   */\n      0x00\n        /* \"#utility.yul\":5325:5345   */\n      tag_404\n        /* \"#utility.yul\":5343:5344   */\n      dup3\n        /* \"#utility.yul\":5325:5345   */\n      tag_290\n      jump\t// in\n    tag_404:\n        /* \"#utility.yul\":5320:5345   */\n      swap2\n      pop\n        /* \"#utility.yul\":5359:5379   */\n      tag_405\n        /* \"#utility.yul\":5377:5378   */\n      dup4\n        /* \"#utility.yul\":5359:5379   */\n      tag_290\n      jump\t// in\n    tag_405:\n        /* \"#utility.yul\":5354:5379   */\n      swap3\n      pop\n        /* \"#utility.yul\":5513:5514   */\n      dup3\n        /* \"#utility.yul\":5445:5511   */\n      0xffffffffffffffffffffffffffffffffffffffffffffffffffffffffffffffff\n        /* \"#utility.yul\":5441:5515   */\n      sub\n        /* \"#utility.yul\":5438:5439   */\n      dup3\n        /* \"#utility.yul\":5435:5516   */\n      gt\n        /* \"#utility.yul\":5432:5539   */\n      iszero\n      tag_406\n      jumpi\n        /* \"#utility.yul\":5519:5537   */\n      tag_407\n      tag_307\n      jump\t// in\n    tag_407:\n        /* \"#utility.yul\":5432:5539   */\n    tag_406:\n        /* \"#utility.yul\":5563:5564   */\n      dup3\n        /* \"#utility.yul\":5560:5561   */\n      dup3\n        /* \"#utility.yul\":5556:5565   */\n      add\n        /* \"#utility.yul\":5549:5565   */\n      swap1\n      pop\n        /* \"#utility.yul\":5266:5571   */\n      swap3\n      swap2\n      pop\n      pop\n      jump\t// out\n        /* \"#utility.yul\":5577:5757   */\n    tag_308:\n        /* \"#utility.yul\":5625:5702   */\n      0x4e487b7100000000000000000000000000000000000000000000000000000000\n        /* \"#utility.yul\":5622:5623   */\n      0x00\n        /* \"#utility.yul\":5615:5703   */\n      mstore\n        /* \"#utility.yul\":5722:5726   */\n      0x12\n        /* \"#utility.yul\":5719:5720   */\n      0x04\n        /* \"#utility.yul\":5712:5727   */\n      mstore\n        /* \"#utility.yul\":5746:5750   */\n      0x24\n        /* \"#utility.yul\":5743:5744   */\n      0x00\n        /* \"#utility.yul\":5736:5751   */\n      revert\n        /* \"#utility.yul\":5763:5948   */\n    tag_116:\n        /* \"#utility.yul\":5803:5804   */\n      0x00\n        /* \"#utility.yul\":5820:5840   */\n      tag_410\n        /* \"#utility.yul\":5838:5839   */\n      dup3\n        /* \"#utility.yul\":5820:5840   */\n      tag_290\n      jump\t// in\n    tag_410:\n        /* \"#utility.yul\":5815:5840   */\n      swap2\n      pop\n        /* \"#utility.yul\":5854:5874   */\n      tag_411\n        /* \"#utility.yul\":5872:5873   */\n      dup4\n        /* \"#utility.yul\":5854:5874   */\n      tag_290\n      jump\t// in\n    tag_411:\n        /* \"#utility.yul\":5849:5874   */\n      swap3\n      pop\n        /* \"#utility.yul\":5893:5894   */\n      dup3\n        /* \"#utility.yul\":5883:5918   */\n      tag_412\n      jumpi\n        /* \"#utility.yul\":5898:5916   */\n      tag_413\n      tag_308\n      jump\t// in\n    tag_413:\n        /* \"#utility.yul\":5883:5918   */\n    tag_412:\n        /* \"#utility.yul\":5940:5941   */\n      dup3\n        /* \"#utility.yul\":5937:5938   */\n      dup3\n        /* \"#utility.yul\":5933:5942   */\n      div\n        /* \"#utility.yul\":5928:5942   */\n      swap1\n      pop\n        /* \"#utility.yul\":5763:5948   */\n      swap3\n      swap2\n      pop\n      pop\n      jump\t// out\n        /* \"#utility.yul\":5954:6123   */\n    tag_309:\n        /* \"#utility.yul\":6038:6049   */\n      0x00\n        /* \"#utility.yul\":6072:6078   */\n      dup3\n        /* \"#utility.yul\":6067:6070   */\n      dup3\n        /* \"#utility.yul\":6060:6079   */\n      mstore\n        /* \"#utility.yul\":6112:6116   */\n      0x20\n        /* \"#utility.yul\":6107:6110   */\n      dup3\n        /* \"#utility.yul\":6103:6117   */\n      add\n        /* \"#utility.yul\":6088:6117   */\n      swap1\n      pop\n        /* \"#utility.yul\":5954:6123   */\n      swap3\n      swap2\n      pop\n      pop\n      jump\t// out\n        /* \"#utility.yul\":6129:6310   */\n    tag_310:\n        /* \"#utility.yul\":6269:6302   */\n      0x5265656e7472616e637947756172643a207265656e7472616e742063616c6c00\n        /* \"#utility.yul\":6265:6266   */\n      0x00\n        /* \"#utility.yul\":6257:6263   */\n      dup3\n        /* \"#utility.yul\":6253:6267   */\n      add\n        /* \"#utility.yul\":6246:6303   */\n      mstore\n        /* \"#utility.yul\":6129:6310   */\n      pop\n      jump\t// out\n        /* \"#utility.yul\":6316:6682   */\n    tag_311:\n        /* \"#utility.yul\":6458:6461   */\n      0x00\n        /* \"#utility.yul\":6479:6546   */\n      tag_417\n        /* \"#utility.yul\":6543:6545   */\n      0x1f\n        /* \"#utility.yul\":6538:6541   */\n      dup4\n        /* \"#utility.yul\":6479:6546   */\n      tag_309\n      jump\t// in\n    tag_417:\n        /* \"#utility.yul\":6472:6546   */\n      swap2\n      pop\n        /* \"#utility.yul\":6555:6648   */\n      tag_418\n        /* \"#utility.yul\":6644:6647   */\n      dup3\n        /* \"#utility.yul\":6555:6648   */\n      tag_310\n      jump\t// in\n    tag_418:\n        /* \"#utility.yul\":6673:6675   */\n      0x20\n        /* \"#utility.yul\":6668:6671   */\n      dup3\n        /* \"#utility.yul\":6664:6676   */\n      add\n        /* \"#utility.yul\":6657:6676   */\n      swap1\n      pop\n        /* \"#utility.yul\":6316:6682   */\n      swap2\n      swap1\n      pop\n      jump\t// out\n        /* \"#utility.yul\":6688:7107   */\n    tag_128:\n        /* \"#utility.yul\":6854:6858   */\n      0x00\n        /* \"#utility.yul\":6892:6894   */\n      0x20\n        /* \"#utility.yul\":6881:6890   */\n      dup3\n        /* \"#utility.yul\":6877:6895   */\n      add\n        /* \"#utility.yul\":6869:6895   */\n      swap1\n      pop\n        /* \"#utility.yul\":6941:6950   */\n      dup2\n        /* \"#utility.yul\":6935:6939   */\n      dup2\n        /* \"#utility.yul\":6931:6951   */\n      sub\n        /* \"#utility.yul\":6927:6928   */\n      0x00\n        /* \"#utility.yul\":6916:6925   */\n      dup4\n        /* \"#utility.yul\":6912:6929   */\n      add\n        /* \"#utility.yul\":6905:6952   */\n      mstore\n        /* \"#utility.yul\":6969:7100   */\n      tag_420\n        /* \"#utility.yul\":7095:7099   */\n      dup2\n        /* \"#utility.yul\":6969:7100   */\n      tag_311\n      jump\t// in\n    tag_420:\n        /* \"#utility.yul\":6961:7100   */\n      swap1\n      pop\n        /* \"#utility.yul\":6688:7107   */\n      swap2\n      swap1\n      pop\n      jump\t// out\n        /* \"#utility.yul\":7113:7355   */\n    tag_312:\n        /* \"#utility.yul\":7253:7287   */\n      0x57697468647261773a20416d6f756e74206d757374206265203e2030206f7220\n        /* \"#utility.yul\":7249:7250   */\n      0x00\n        /* \"#utility.yul\":7241:7247   */\n      dup3\n        /* \"#utility.yul\":7237:7251   */\n      add\n        /* \"#utility.yul\":7230:7288   */\n      mstore\n        /* \"#utility.yul\":7322:7347   */\n      0x6c6f776572207468616e20757365722062616c616e6365000000000000000000\n        /* \"#utility.yul\":7317:7319   */\n      0x20\n        /* \"#utility.yul\":7309:7315   */\n      dup3\n        /* \"#utility.yul\":7305:7320   */\n      add\n        /* \"#utility.yul\":7298:7348   */\n      mstore\n        /* \"#utility.yul\":7113:7355   */\n      pop\n      jump\t// out\n        /* \"#utility.yul\":7361:7727   */\n    tag_313:\n        /* \"#utility.yul\":7503:7506   */\n      0x00\n        /* \"#utility.yul\":7524:7591   */\n      tag_423\n        /* \"#utility.yul\":7588:7590   */\n      0x37\n        /* \"#utility.yul\":7583:7586   */\n      dup4\n        /* \"#utility.yul\":7524:7591   */\n      tag_309\n      jump\t// in\n    tag_423:\n        /* \"#utility.yul\":7517:7591   */\n      swap2\n      pop\n        /* \"#utility.yul\":7600:7693   */\n      tag_424\n        /* \"#utility.yul\":7689:7692   */\n      dup3\n        /* \"#utility.yul\":7600:7693   */\n      tag_312\n      jump\t// in\n    tag_424:\n        /* \"#utility.yul\":7718:7720   */\n      0x40\n        /* \"#utility.yul\":7713:7716   */\n      dup3\n        /* \"#utility.yul\":7709:7721   */\n      add\n        /* \"#utility.yul\":7702:7721   */\n      swap1\n      pop\n        /* \"#utility.yul\":7361:7727   */\n      swap2\n      swap1\n      pop\n      jump\t// out\n        /* \"#utility.yul\":7733:8152   */\n    tag_148:\n        /* \"#utility.yul\":7899:7903   */\n      0x00\n        /* \"#utility.yul\":7937:7939   */\n      0x20\n        /* \"#utility.yul\":7926:7935   */\n      dup3\n        /* \"#utility.yul\":7922:7940   */\n      add\n        /* \"#utility.yul\":7914:7940   */\n      swap1\n      pop\n        /* \"#utility.yul\":7986:7995   */\n      dup2\n        /* \"#utility.yul\":7980:7984   */\n      dup2\n        /* \"#utility.yul\":7976:7996   */\n      sub\n        /* \"#utility.yul\":7972:7973   */\n      0x00\n        /* \"#utility.yul\":7961:7970   */\n      dup4\n        /* \"#utility.yul\":7957:7974   */\n      add\n        /* \"#utility.yul\":7950:7997   */\n      mstore\n        /* \"#utility.yul\":8014:8145   */\n      tag_426\n        /* \"#utility.yul\":8140:8144   */\n      dup2\n        /* \"#utility.yul\":8014:8145   */\n      tag_313\n      jump\t// in\n    tag_426:\n        /* \"#utility.yul\":8006:8145   */\n      swap1\n      pop\n        /* \"#utility.yul\":7733:8152   */\n      swap2\n      swap1\n      pop\n      jump\t// out\n        /* \"#utility.yul\":8158:8336   */\n    tag_314:\n        /* \"#utility.yul\":8298:8328   */\n      0x57697468647261773a20416d6f756e74206d757374206265203e203000000000\n        /* \"#utility.yul\":8294:8295   */\n      0x00\n        /* \"#utility.yul\":8286:8292   */\n      dup3\n        /* \"#utility.yul\":8282:8296   */\n      add\n        /* \"#utility.yul\":8275:8329   */\n      mstore\n        /* \"#utility.yul\":8158:8336   */\n      pop\n      jump\t// out\n        /* \"#utility.yul\":8342:8708   */\n    tag_315:\n        /* \"#utility.yul\":8484:8487   */\n      0x00\n        /* \"#utility.yul\":8505:8572   */\n      tag_429\n        /* \"#utility.yul\":8569:8571   */\n      0x1c\n        /* \"#utility.yul\":8564:8567   */\n      dup4\n        /* \"#utility.yul\":8505:8572   */\n      tag_309\n      jump\t// in\n    tag_429:\n        /* \"#utility.yul\":8498:8572   */\n      swap2\n      pop\n        /* \"#utility.yul\":8581:8674   */\n      tag_430\n        /* \"#utility.yul\":8670:8673   */\n      dup3\n        /* \"#utility.yul\":8581:8674   */\n      tag_314\n      jump\t// in\n    tag_430:\n        /* \"#utility.yul\":8699:8701   */\n      0x20\n        /* \"#utility.yul\":8694:8697   */\n      dup3\n        /* \"#utility.yul\":8690:8702   */\n      add\n        /* \"#utility.yul\":8683:8702   */\n      swap1\n      pop\n        /* \"#utility.yul\":8342:8708   */\n      swap2\n      swap1\n      pop\n      jump\t// out\n        /* \"#utility.yul\":8714:9133   */\n    tag_168:\n        /* \"#utility.yul\":8880:8884   */\n      0x00\n        /* \"#utility.yul\":8918:8920   */\n      0x20\n        /* \"#utility.yul\":8907:8916   */\n      dup3\n        /* \"#utility.yul\":8903:8921   */\n      add\n        /* \"#utility.yul\":8895:8921   */\n      swap1\n      pop\n        /* \"#utility.yul\":8967:8976   */\n      dup2\n        /* \"#utility.yul\":8961:8965   */\n      dup2\n        /* \"#utility.yul\":8957:8977   */\n      sub\n        /* \"#utility.yul\":8953:8954   */\n      0x00\n        /* \"#utility.yul\":8942:8951   */\n      dup4\n        /* \"#utility.yul\":8938:8955   */\n      add\n        /* \"#utility.yul\":8931:8978   */\n      mstore\n        /* \"#utility.yul\":8995:9126   */\n      tag_432\n        /* \"#utility.yul\":9121:9125   */\n      dup2\n        /* \"#utility.yul\":8995:9126   */\n      tag_315\n      jump\t// in\n    tag_432:\n        /* \"#utility.yul\":8987:9126   */\n      swap1\n      pop\n        /* \"#utility.yul\":8714:9133   */\n      swap2\n      swap1\n      pop\n      jump\t// out\n        /* \"#utility.yul\":9139:9316   */\n    tag_316:\n        /* \"#utility.yul\":9279:9308   */\n      0x4465706f7369743a20416d6f756e74206d757374206265203e20300000000000\n        /* \"#utility.yul\":9275:9276   */\n      0x00\n        /* \"#utility.yul\":9267:9273   */\n      dup3\n        /* \"#utility.yul\":9263:9277   */\n      add\n        /* \"#utility.yul\":9256:9309   */\n      mstore\n        /* \"#utility.yul\":9139:9316   */\n      pop\n      jump\t// out\n        /* \"#utility.yul\":9322:9688   */\n    tag_317:\n        /* \"#utility.yul\":9464:9467   */\n      0x00\n        /* \"#utility.yul\":9485:9552   */\n      tag_435\n        /* \"#utility.yul\":9549:9551   */\n      0x1b\n        /* \"#utility.yul\":9544:9547   */\n      dup4\n        /* \"#utility.yul\":9485:9552   */\n      tag_309\n      jump\t// in\n    tag_435:\n        /* \"#utility.yul\":9478:9552   */\n      swap2\n      pop\n        /* \"#utility.yul\":9561:9654   */\n      tag_436\n        /* \"#utility.yul\":9650:9653   */\n      dup3\n        /* \"#utility.yul\":9561:9654   */\n      tag_316\n      jump\t// in\n    tag_436:\n        /* \"#utility.yul\":9679:9681   */\n      0x20\n        /* \"#utility.yul\":9674:9677   */\n      dup3\n        /* \"#utility.yul\":9670:9682   */\n      add\n        /* \"#utility.yul\":9663:9682   */\n      swap1\n      pop\n        /* \"#utility.yul\":9322:9688   */\n      swap2\n      swap1\n      pop\n      jump\t// out\n        /* \"#utility.yul\":9694:10113   */\n    tag_183:\n        /* \"#utility.yul\":9860:9864   */\n      0x00\n        /* \"#utility.yul\":9898:9900   */\n      0x20\n        /* \"#utility.yul\":9887:9896   */\n      dup3\n        /* \"#utility.yul\":9883:9901   */\n      add\n        /* \"#utility.yul\":9875:9901   */\n      swap1\n      pop\n        /* \"#utility.yul\":9947:9956   */\n      dup2\n        /* \"#utility.yul\":9941:9945   */\n      dup2\n        /* \"#utility.yul\":9937:9957   */\n      sub\n        /* \"#utility.yul\":9933:9934   */\n      0x00\n        /* \"#utility.yul\":9922:9931   */\n      dup4\n        /* \"#utility.yul\":9918:9935   */\n      add\n        /* \"#utility.yul\":9911:9958   */\n      mstore\n        /* \"#utility.yul\":9975:10106   */\n      tag_438\n        /* \"#utility.yul\":10101:10105   */\n      dup2\n        /* \"#utility.yul\":9975:10106   */\n      tag_317\n      jump\t// in\n    tag_438:\n        /* \"#utility.yul\":9967:10106   */\n      swap1\n      pop\n        /* \"#utility.yul\":9694:10113   */\n      swap2\n      swap1\n      pop\n      jump\t// out\n        /* \"#utility.yul\":10119:10451   */\n    tag_230:\n        /* \"#utility.yul\":10240:10244   */\n      0x00\n        /* \"#utility.yul\":10278:10280   */\n      0x40\n        /* \"#utility.yul\":10267:10276   */\n      dup3\n        /* \"#utility.yul\":10263:10281   */\n      add\n        /* \"#utility.yul\":10255:10281   */\n      swap1\n      pop\n        /* \"#utility.yul\":10291:10362   */\n      tag_440\n        /* \"#utility.yul\":10359:10360   */\n      0x00\n        /* \"#utility.yul\":10348:10357   */\n      dup4\n        /* \"#utility.yul\":10344:10361   */\n      add\n        /* \"#utility.yul\":10335:10341   */\n      dup6\n        /* \"#utility.yul\":10291:10362   */\n      tag_306\n      jump\t// in\n    tag_440:\n        /* \"#utility.yul\":10372:10444   */\n      tag_441\n        /* \"#utility.yul\":10440:10442   */\n      0x20\n        /* \"#utility.yul\":10429:10438   */\n      dup4\n        /* \"#utility.yul\":10425:10443   */\n      add\n        /* \"#utility.yul\":10416:10422   */\n      dup5\n        /* \"#utility.yul\":10372:10444   */\n      tag_291\n      jump\t// in\n    tag_441:\n        /* \"#utility.yul\":10119:10451   */\n      swap4\n      swap3\n      pop\n      pop\n      pop\n      jump\t// out\n        /* \"#utility.yul\":10457:10547   */\n    tag_318:\n        /* \"#utility.yul\":10491:10498   */\n      0x00\n        /* \"#utility.yul\":10534:10539   */\n      dup2\n        /* \"#utility.yul\":10527:10540   */\n      iszero\n        /* \"#utility.yul\":10520:10541   */\n      iszero\n        /* \"#utility.yul\":10509:10541   */\n      swap1\n      pop\n        /* \"#utility.yul\":10457:10547   */\n      swap2\n      swap1\n      pop\n      jump\t// out\n        /* \"#utility.yul\":10553:10669   */\n    tag_319:\n        /* \"#utility.yul\":10623:10644   */\n      tag_444\n        /* \"#utility.yul\":10638:10643   */\n      dup2\n        /* \"#utility.yul\":10623:10644   */\n      tag_318\n      jump\t// in\n    tag_444:\n        /* \"#utility.yul\":10616:10621   */\n      dup2\n        /* \"#utility.yul\":10613:10645   */\n      eq\n        /* \"#utility.yul\":10603:10663   */\n      tag_445\n      jumpi\n        /* \"#utility.yul\":10659:10660   */\n      0x00\n        /* \"#utility.yul\":10656:10657   */\n      dup1\n        /* \"#utility.yul\":10649:10661   */\n      revert\n        /* \"#utility.yul\":10603:10663   */\n    tag_445:\n        /* \"#utility.yul\":10553:10669   */\n      pop\n      jump\t// out\n        /* \"#utility.yul\":10675:10812   */\n    tag_320:\n        /* \"#utility.yul\":10729:10734   */\n      0x00\n        /* \"#utility.yul\":10760:10766   */\n      dup2\n        /* \"#utility.yul\":10754:10767   */\n      mload\n        /* \"#utility.yul\":10745:10767   */\n      swap1\n      pop\n        /* \"#utility.yul\":10776:10806   */\n      tag_447\n        /* \"#utility.yul\":10800:10805   */\n      dup2\n        /* \"#utility.yul\":10776:10806   */\n      tag_319\n      jump\t// in\n    tag_447:\n        /* \"#utility.yul\":10675:10812   */\n      swap3\n      swap2\n      pop\n      pop\n      jump\t// out\n        /* \"#utility.yul\":10818:11163   */\n    tag_234:\n        /* \"#utility.yul\":10885:10891   */\n      0x00\n        /* \"#utility.yul\":10934:10936   */\n      0x20\n        /* \"#utility.yul\":10922:10931   */\n      dup3\n        /* \"#utility.yul\":10913:10920   */\n      dup5\n        /* \"#utility.yul\":10909:10932   */\n      sub\n        /* \"#utility.yul\":10905:10937   */\n      slt\n        /* \"#utility.yul\":10902:11021   */\n      iszero\n      tag_449\n      jumpi\n        /* \"#utility.yul\":10940:11019   */\n      tag_450\n      tag_293\n      jump\t// in\n    tag_450:\n        /* \"#utility.yul\":10902:11021   */\n    tag_449:\n        /* \"#utility.yul\":11060:11061   */\n      0x00\n        /* \"#utility.yul\":11085:11146   */\n      tag_451\n        /* \"#utility.yul\":11138:11145   */\n      dup5\n        /* \"#utility.yul\":11129:11135   */\n      dup3\n        /* \"#utility.yul\":11118:11127   */\n      dup6\n        /* \"#utility.yul\":11114:11136   */\n      add\n        /* \"#utility.yul\":11085:11146   */\n      tag_320\n      jump\t// in\n    tag_451:\n        /* \"#utility.yul\":11075:11146   */\n      swap2\n      pop\n        /* \"#utility.yul\":11031:11156   */\n      pop\n        /* \"#utility.yul\":10818:11163   */\n      swap3\n      swap2\n      pop\n      pop\n      jump\t// out\n        /* \"#utility.yul\":11169:11611   */\n    tag_251:\n        /* \"#utility.yul\":11318:11322   */\n      0x00\n        /* \"#utility.yul\":11356:11358   */\n      0x60\n        /* \"#utility.yul\":11345:11354   */\n      dup3\n        /* \"#utility.yul\":11341:11359   */\n      add\n        /* \"#utility.yul\":11333:11359   */\n      swap1\n      pop\n        /* \"#utility.yul\":11369:11440   */\n      tag_453\n        /* \"#utility.yul\":11437:11438   */\n      0x00\n        /* \"#utility.yul\":11426:11435   */\n      dup4\n        /* \"#utility.yul\":11422:11439   */\n      add\n        /* \"#utility.yul\":11413:11419   */\n      dup7\n        /* \"#utility.yul\":11369:11440   */\n      tag_306\n      jump\t// in\n    tag_453:\n        /* \"#utility.yul\":11450:11522   */\n      tag_454\n        /* \"#utility.yul\":11518:11520   */\n      0x20\n        /* \"#utility.yul\":11507:11516   */\n      dup4\n        /* \"#utility.yul\":11503:11521   */\n      add\n        /* \"#utility.yul\":11494:11500   */\n      dup6\n        /* \"#utility.yul\":11450:11522   */\n      tag_306\n      jump\t// in\n    tag_454:\n        /* \"#utility.yul\":11532:11604   */\n      tag_455\n        /* \"#utility.yul\":11600:11602   */\n      0x40\n        /* \"#utility.yul\":11589:11598   */\n      dup4\n        /* \"#utility.yul\":11585:11603   */\n      add\n        /* \"#utility.yul\":11576:11582   */\n      dup5\n        /* \"#utility.yul\":11532:11604   */\n      tag_291\n      jump\t// in\n    tag_455:\n        /* \"#utility.yul\":11169:11611   */\n      swap5\n      swap4\n      pop\n      pop\n      pop\n      pop\n      jump\t// out\n        /* \"#utility.yul\":11617:11846   */\n    tag_321:\n        /* \"#utility.yul\":11757:11791   */\n      0x5361666545524332303a204552433230206f7065726174696f6e20646964206e\n        /* \"#utility.yul\":11753:11754   */\n      0x00\n        /* \"#utility.yul\":11745:11751   */\n      dup3\n        /* \"#utility.yul\":11741:11755   */\n      add\n        /* \"#utility.yul\":11734:11792   */\n      mstore\n        /* \"#utility.yul\":11826:11838   */\n      0x6f74207375636365656400000000000000000000000000000000000000000000\n        /* \"#utility.yul\":11821:11823   */\n      0x20\n        /* \"#utility.yul\":11813:11819   */\n      dup3\n        /* \"#utility.yul\":11809:11824   */\n      add\n        /* \"#utility.yul\":11802:11839   */\n      mstore\n        /* \"#utility.yul\":11617:11846   */\n      pop\n      jump\t// out\n        /* \"#utility.yul\":11852:12218   */\n    tag_322:\n        /* \"#utility.yul\":11994:11997   */\n      0x00\n        /* \"#utility.yul\":12015:12082   */\n      tag_458\n        /* \"#utility.yul\":12079:12081   */\n      0x2a\n        /* \"#utility.yul\":12074:12077   */\n      dup4\n        /* \"#utility.yul\":12015:12082   */\n      tag_309\n      jump\t// in\n    tag_458:\n        /* \"#utility.yul\":12008:12082   */\n      swap2\n      pop\n        /* \"#utility.yul\":12091:12184   */\n      tag_459\n        /* \"#utility.yul\":12180:12183   */\n      dup3\n        /* \"#utility.yul\":12091:12184   */\n      tag_321\n      jump\t// in\n    tag_459:\n        /* \"#utility.yul\":12209:12211   */\n      0x40\n        /* \"#utility.yul\":12204:12207   */\n      dup3\n        /* \"#utility.yul\":12200:12212   */\n      add\n        /* \"#utility.yul\":12193:12212   */\n      swap1\n      pop\n        /* \"#utility.yul\":11852:12218   */\n      swap2\n      swap1\n      pop\n      jump\t// out\n        /* \"#utility.yul\":12224:12643   */\n    tag_262:\n        /* \"#utility.yul\":12390:12394   */\n      0x00\n        /* \"#utility.yul\":12428:12430   */\n      0x20\n        /* \"#utility.yul\":12417:12426   */\n      dup3\n        /* \"#utility.yul\":12413:12431   */\n      add\n        /* \"#utility.yul\":12405:12431   */\n      swap1\n      pop\n        /* \"#utility.yul\":12477:12486   */\n      dup2\n        /* \"#utility.yul\":12471:12475   */\n      dup2\n        /* \"#utility.yul\":12467:12487   */\n      sub\n        /* \"#utility.yul\":12463:12464   */\n      0x00\n        /* \"#utility.yul\":12452:12461   */\n      dup4\n        /* \"#utility.yul\":12448:12465   */\n      add\n        /* \"#utility.yul\":12441:12488   */\n      mstore\n        /* \"#utility.yul\":12505:12636   */\n      tag_461\n        /* \"#utility.yul\":12631:12635   */\n      dup2\n        /* \"#utility.yul\":12505:12636   */\n      tag_322\n      jump\t// in\n    tag_461:\n        /* \"#utility.yul\":12497:12636   */\n      swap1\n      pop\n        /* \"#utility.yul\":12224:12643   */\n      swap2\n      swap1\n      pop\n      jump\t// out\n        /* \"#utility.yul\":12649:12874   */\n    tag_323:\n        /* \"#utility.yul\":12789:12823   */\n      0x416464726573733a20696e73756666696369656e742062616c616e636520666f\n        /* \"#utility.yul\":12785:12786   */\n      0x00\n        /* \"#utility.yul\":12777:12783   */\n      dup3\n        /* \"#utility.yul\":12773:12787   */\n      add\n        /* \"#utility.yul\":12766:12824   */\n      mstore\n        /* \"#utility.yul\":12858:12866   */\n      0x722063616c6c0000000000000000000000000000000000000000000000000000\n        /* \"#utility.yul\":12853:12855   */\n      0x20\n        /* \"#utility.yul\":12845:12851   */\n      dup3\n        /* \"#utility.yul\":12841:12856   */\n      add\n        /* \"#utility.yul\":12834:12867   */\n      mstore\n        /* \"#utility.yul\":12649:12874   */\n      pop\n      jump\t// out\n        /* \"#utility.yul\":12880:13246   */\n    tag_324:\n        /* \"#utility.yul\":13022:13025   */\n      0x00\n        /* \"#utility.yul\":13043:13110   */\n      tag_464\n        /* \"#utility.yul\":13107:13109   */\n      0x26\n        /* \"#utility.yul\":13102:13105   */\n      dup4\n        /* \"#utility.yul\":13043:13110   */\n      tag_309\n      jump\t// in\n    tag_464:\n        /* \"#utility.yul\":13036:13110   */\n      swap2\n      pop\n        /* \"#utility.yul\":13119:13212   */\n      tag_465\n        /* \"#utility.yul\":13208:13211   */\n      dup3\n        /* \"#utility.yul\":13119:13212   */\n      tag_323\n      jump\t// in\n    tag_465:\n        /* \"#utility.yul\":13237:13239   */\n      0x40\n        /* \"#utility.yul\":13232:13235   */\n      dup3\n        /* \"#utility.yul\":13228:13240   */\n      add\n        /* \"#utility.yul\":13221:13240   */\n      swap1\n      pop\n        /* \"#utility.yul\":12880:13246   */\n      swap2\n      swap1\n      pop\n      jump\t// out\n        /* \"#utility.yul\":13252:13671   */\n    tag_269:\n        /* \"#utility.yul\":13418:13422   */\n      0x00\n        /* \"#utility.yul\":13456:13458   */\n      0x20\n        /* \"#utility.yul\":13445:13454   */\n      dup3\n        /* \"#utility.yul\":13441:13459   */\n      add\n        /* \"#utility.yul\":13433:13459   */\n      swap1\n      pop\n        /* \"#utility.yul\":13505:13514   */\n      dup2\n        /* \"#utility.yul\":13499:13503   */\n      dup2\n        /* \"#utility.yul\":13495:13515   */\n      sub\n        /* \"#utility.yul\":13491:13492   */\n      0x00\n        /* \"#utility.yul\":13480:13489   */\n      dup4\n        /* \"#utility.yul\":13476:13493   */\n      add\n        /* \"#utility.yul\":13469:13516   */\n      mstore\n        /* \"#utility.yul\":13533:13664   */\n      tag_467\n        /* \"#utility.yul\":13659:13663   */\n      dup2\n        /* \"#utility.yul\":13533:13664   */\n      tag_324\n      jump\t// in\n    tag_467:\n        /* \"#utility.yul\":13525:13664   */\n      swap1\n      pop\n        /* \"#utility.yul\":13252:13671   */\n      swap2\n      swap1\n      pop\n      jump\t// out\n        /* \"#utility.yul\":13677:13856   */\n    tag_325:\n        /* \"#utility.yul\":13817:13848   */\n      0x416464726573733a2063616c6c20746f206e6f6e2d636f6e7472616374000000\n        /* \"#utility.yul\":13813:13814   */\n      0x00\n        /* \"#utility.yul\":13805:13811   */\n      dup3\n        /* \"#utility.yul\":13801:13815   */\n      add\n        /* \"#utility.yul\":13794:13849   */\n      mstore\n        /* \"#utility.yul\":13677:13856   */\n      pop\n      jump\t// out\n        /* \"#utility.yul\":13862:14228   */\n    tag_326:\n        /* \"#utility.yul\":14004:14007   */\n      0x00\n        /* \"#utility.yul\":14025:14092   */\n      tag_470\n        /* \"#utility.yul\":14089:14091   */\n      0x1d\n        /* \"#utility.yul\":14084:14087   */\n      dup4\n        /* \"#utility.yul\":14025:14092   */\n      tag_309\n      jump\t// in\n    tag_470:\n        /* \"#utility.yul\":14018:14092   */\n      swap2\n      pop\n        /* \"#utility.yul\":14101:14194   */\n      tag_471\n        /* \"#utility.yul\":14190:14193   */\n      dup3\n        /* \"#utility.yul\":14101:14194   */\n      tag_325\n      jump\t// in\n    tag_471:\n        /* \"#utility.yul\":14219:14221   */\n      0x20\n        /* \"#utility.yul\":14214:14217   */\n      dup3\n        /* \"#utility.yul\":14210:14222   */\n      add\n        /* \"#utility.yul\":14203:14222   */\n      swap1\n      pop\n        /* \"#utility.yul\":13862:14228   */\n      swap2\n      swap1\n      pop\n      jump\t// out\n        /* \"#utility.yul\":14234:14653   */\n    tag_274:\n        /* \"#utility.yul\":14400:14404   */\n      0x00\n        /* \"#utility.yul\":14438:14440   */\n      0x20\n        /* \"#utility.yul\":14427:14436   */\n      dup3\n        /* \"#utility.yul\":14423:14441   */\n      add\n        /* \"#utility.yul\":14415:14441   */\n      swap1\n      pop\n        /* \"#utility.yul\":14487:14496   */\n      dup2\n        /* \"#utility.yul\":14481:14485   */\n      dup2\n        /* \"#utility.yul\":14477:14497   */\n      sub\n        /* \"#utility.yul\":14473:14474   */\n      0x00\n        /* \"#utility.yul\":14462:14471   */\n      dup4\n        /* \"#utility.yul\":14458:14475   */\n      add\n        /* \"#utility.yul\":14451:14498   */\n      mstore\n        /* \"#utility.yul\":14515:14646   */\n      tag_473\n        /* \"#utility.yul\":14641:14645   */\n      dup2\n        /* \"#utility.yul\":14515:14646   */\n      tag_326\n      jump\t// in\n    tag_473:\n        /* \"#utility.yul\":14507:14646   */\n      swap1\n      pop\n        /* \"#utility.yul\":14234:14653   */\n      swap2\n      swap1\n      pop\n      jump\t// out\n        /* \"#utility.yul\":14659:14757   */\n    tag_327:\n        /* \"#utility.yul\":14710:14716   */\n      0x00\n        /* \"#utility.yul\":14744:14749   */\n      dup2\n        /* \"#utility.yul\":14738:14750   */\n      mload\n        /* \"#utility.yul\":14728:14750   */\n      swap1\n      pop\n        /* \"#utility.yul\":14659:14757   */\n      swap2\n      swap1\n      pop\n      jump\t// out\n        /* \"#utility.yul\":14763:14910   */\n    tag_328:\n        /* \"#utility.yul\":14864:14875   */\n      0x00\n        /* \"#utility.yul\":14901:14904   */\n      dup2\n        /* \"#utility.yul\":14886:14904   */\n      swap1\n      pop\n        /* \"#utility.yul\":14763:14910   */\n      swap3\n      swap2\n      pop\n      pop\n      jump\t// out\n        /* \"#utility.yul\":14916:15223   */\n    tag_329:\n        /* \"#utility.yul\":14984:14985   */\n      0x00\n        /* \"#utility.yul\":14994:15107   */\n    tag_477:\n        /* \"#utility.yul\":15008:15014   */\n      dup4\n        /* \"#utility.yul\":15005:15006   */\n      dup2\n        /* \"#utility.yul\":15002:15015   */\n      lt\n        /* \"#utility.yul\":14994:15107   */\n      iszero\n      tag_479\n      jumpi\n        /* \"#utility.yul\":15093:15094   */\n      dup1\n        /* \"#utility.yul\":15088:15091   */\n      dup3\n        /* \"#utility.yul\":15084:15095   */\n      add\n        /* \"#utility.yul\":15078:15096   */\n      mload\n        /* \"#utility.yul\":15074:15075   */\n      dup2\n        /* \"#utility.yul\":15069:15072   */\n      dup5\n        /* \"#utility.yul\":15065:15076   */\n      add\n        /* \"#utility.yul\":15058:15097   */\n      mstore\n        /* \"#utility.yul\":15030:15032   */\n      0x20\n        /* \"#utility.yul\":15027:15028   */\n      dup2\n        /* \"#utility.yul\":15023:15033   */\n      add\n        /* \"#utility.yul\":15018:15033   */\n      swap1\n      pop\n        /* \"#utility.yul\":14994:15107   */\n      jump(tag_477)\n    tag_479:\n        /* \"#utility.yul\":15125:15131   */\n      dup4\n        /* \"#utility.yul\":15122:15123   */\n      dup2\n        /* \"#utility.yul\":15119:15132   */\n      gt\n        /* \"#utility.yul\":15116:15217   */\n      iszero\n      tag_480\n      jumpi\n        /* \"#utility.yul\":15205:15206   */\n      0x00\n        /* \"#utility.yul\":15196:15202   */\n      dup5\n        /* \"#utility.yul\":15191:15194   */\n      dup5\n        /* \"#utility.yul\":15187:15203   */\n      add\n        /* \"#utility.yul\":15180:15207   */\n      mstore\n        /* \"#utility.yul\":15116:15217   */\n    tag_480:\n        /* \"#utility.yul\":14965:15223   */\n      pop\n        /* \"#utility.yul\":14916:15223   */\n      pop\n      pop\n      pop\n      jump\t// out\n        /* \"#utility.yul\":15229:15602   */\n    tag_330:\n        /* \"#utility.yul\":15333:15336   */\n      0x00\n        /* \"#utility.yul\":15361:15399   */\n      tag_482\n        /* \"#utility.yul\":15393:15398   */\n      dup3\n        /* \"#utility.yul\":15361:15399   */\n      tag_327\n      jump\t// in\n    tag_482:\n        /* \"#utility.yul\":15415:15503   */\n      tag_483\n        /* \"#utility.yul\":15496:15502   */\n      dup2\n        /* \"#utility.yul\":15491:15494   */\n      dup6\n        /* \"#utility.yul\":15415:15503   */\n      tag_328\n      jump\t// in\n    tag_483:\n        /* \"#utility.yul\":15408:15503   */\n      swap4\n      pop\n        /* \"#utility.yul\":15512:15564   */\n      tag_484\n        /* \"#utility.yul\":15557:15563   */\n      dup2\n        /* \"#utility.yul\":15552:15555   */\n      dup6\n        /* \"#utility.yul\":15545:15549   */\n      0x20\n        /* \"#utility.yul\":15538:15543   */\n      dup7\n        /* \"#utility.yul\":15534:15550   */\n      add\n        /* \"#utility.yul\":15512:15564   */\n      tag_329\n      jump\t// in\n    tag_484:\n        /* \"#utility.yul\":15589:15595   */\n      dup1\n        /* \"#utility.yul\":15584:15587   */\n      dup5\n        /* \"#utility.yul\":15580:15596   */\n      add\n        /* \"#utility.yul\":15573:15596   */\n      swap2\n      pop\n        /* \"#utility.yul\":15337:15602   */\n      pop\n        /* \"#utility.yul\":15229:15602   */\n      swap3\n      swap2\n      pop\n      pop\n      jump\t// out\n        /* \"#utility.yul\":15608:15879   */\n    tag_276:\n        /* \"#utility.yul\":15738:15741   */\n      0x00\n        /* \"#utility.yul\":15760:15853   */\n      tag_486\n        /* \"#utility.yul\":15849:15852   */\n      dup3\n        /* \"#utility.yul\":15840:15846   */\n      dup5\n        /* \"#utility.yul\":15760:15853   */\n      tag_330\n      jump\t// in\n    tag_486:\n        /* \"#utility.yul\":15753:15853   */\n      swap2\n      pop\n        /* \"#utility.yul\":15870:15873   */\n      dup2\n        /* \"#utility.yul\":15863:15873   */\n      swap1\n      pop\n        /* \"#utility.yul\":15608:15879   */\n      swap3\n      swap2\n      pop\n      pop\n      jump\t// out\n        /* \"#utility.yul\":15885:15984   */\n    tag_331:\n        /* \"#utility.yul\":15937:15943   */\n      0x00\n        /* \"#utility.yul\":15971:15976   */\n      dup2\n        /* \"#utility.yul\":15965:15977   */\n      mload\n        /* \"#utility.yul\":15955:15977   */\n      swap1\n      pop\n        /* \"#utility.yul\":15885:15984   */\n      swap2\n      swap1\n      pop\n      jump\t// out\n        /* \"#utility.yul\":15990:16092   */\n    tag_332:\n        /* \"#utility.yul\":16031:16037   */\n      0x00\n        /* \"#utility.yul\":16082:16084   */\n      0x1f\n        /* \"#utility.yul\":16078:16085   */\n      not\n        /* \"#utility.yul\":16073:16075   */\n      0x1f\n        /* \"#utility.yul\":16066:16071   */\n      dup4\n        /* \"#utility.yul\":16062:16076   */\n      add\n        /* \"#utility.yul\":16058:16086   */\n      and\n        /* \"#utility.yul\":16048:16086   */\n      swap1\n      pop\n        /* \"#utility.yul\":15990:16092   */\n      swap2\n      swap1\n      pop\n      jump\t// out\n        /* \"#utility.yul\":16098:16462   */\n    tag_333:\n        /* \"#utility.yul\":16186:16189   */\n      0x00\n        /* \"#utility.yul\":16214:16253   */\n      tag_490\n        /* \"#utility.yul\":16247:16252   */\n      dup3\n        /* \"#utility.yul\":16214:16253   */\n      tag_331\n      jump\t// in\n    tag_490:\n        /* \"#utility.yul\":16269:16340   */\n      tag_491\n        /* \"#utility.yul\":16333:16339   */\n      dup2\n        /* \"#utility.yul\":16328:16331   */\n      dup6\n        /* \"#utility.yul\":16269:16340   */\n      tag_309\n      jump\t// in\n    tag_491:\n        /* \"#utility.yul\":16262:16340   */\n      swap4\n      pop\n        /* \"#utility.yul\":16349:16401   */\n      tag_492\n        /* \"#utility.yul\":16394:16400   */\n      dup2\n        /* \"#utility.yul\":16389:16392   */\n      dup6\n        /* \"#utility.yul\":16382:16386   */\n      0x20\n        /* \"#utility.yul\":16375:16380   */\n      dup7\n        /* \"#utility.yul\":16371:16387   */\n      add\n        /* \"#utility.yul\":16349:16401   */\n      tag_329\n      jump\t// in\n    tag_492:\n        /* \"#utility.yul\":16426:16455   */\n      tag_493\n        /* \"#utility.yul\":16448:16454   */\n      dup2\n        /* \"#utility.yul\":16426:16455   */\n      tag_332\n      jump\t// in\n    tag_493:\n        /* \"#utility.yul\":16421:16424   */\n      dup5\n        /* \"#utility.yul\":16417:16456   */\n      add\n        /* \"#utility.yul\":16410:16456   */\n      swap2\n      pop\n        /* \"#utility.yul\":16190:16462   */\n      pop\n        /* \"#utility.yul\":16098:16462   */\n      swap3\n      swap2\n      pop\n      pop\n      jump\t// out\n        /* \"#utility.yul\":16468:16781   */\n    tag_289:\n        /* \"#utility.yul\":16581:16585   */\n      0x00\n        /* \"#utility.yul\":16619:16621   */\n      0x20\n        /* \"#utility.yul\":16608:16617   */\n      dup3\n        /* \"#utility.yul\":16604:16622   */\n      add\n        /* \"#utility.yul\":16596:16622   */\n      swap1\n      pop\n        /* \"#utility.yul\":16668:16677   */\n      dup2\n        /* \"#utility.yul\":16662:16666   */\n      dup2\n        /* \"#utility.yul\":16658:16678   */\n      sub\n        /* \"#utility.yul\":16654:16655   */\n      0x00\n        /* \"#utility.yul\":16643:16652   */\n      dup4\n        /* \"#utility.yul\":16639:16656   */\n      add\n        /* \"#utility.yul\":16632:16679   */\n      mstore\n        /* \"#utility.yul\":16696:16774   */\n      tag_495\n        /* \"#utility.yul\":16769:16773   */\n      dup2\n        /* \"#utility.yul\":16760:16766   */\n      dup5\n        /* \"#utility.yul\":16696:16774   */\n      tag_333\n      jump\t// in\n    tag_495:\n        /* \"#utility.yul\":16688:16774   */\n      swap1\n      pop\n        /* \"#utility.yul\":16468:16781   */\n      swap3\n      swap2\n      pop\n      pop\n      jump\t// out\n\n    auxdata: 0xa264697066735822122066a0fe60f203e0dec0a755361554aa991e2621a7e8b2339c3785b02ccaca329364736f6c634300080b0033\n}\n",
				"bytecode": {
					"linkReferences": {},
					"object": "6101006040523480156200001257600080fd5b506040516200308f3803806200308f833981810160405281019062000038919062000685565b6001600081905550808251148015620000515750808451145b80156200005e5750808451145b620000a0576040517f08c379a000000000000000000000000000000000000000000000000000000000815260040162000097906200081c565b60405180910390fd5b60008773ffffffffffffffffffffffffffffffffffffffff166318160ddd6040518163ffffffff1660e01b8152600401602060405180830381865afa158015620000ee573d6000803e3d6000fd5b505050506040513d601f19601f820116820180604052508101906200011491906200083e565b8873ffffffffffffffffffffffffffffffffffffffff16630cfccc836040518163ffffffff1660e01b8152600401602060405180830381865afa15801562000160573d6000803e3d6000fd5b505050506040513d601f19601f820116820180604052508101906200018691906200083e565b6200019291906200089f565b9050600080600090505b838110156200030c57848181518110620001bb57620001ba620008da565b5b6020026020010151868281518110620001d957620001d8620008da565b5b6020026020010151620001ed919062000909565b858281518110620002035762000202620008da565b5b6020026020010151888381518110620002215762000220620008da565b5b602002602001015162000235919062000909565b6200024191906200096a565b826200024e91906200096a565b91506040518060600160405280888381518110620002715762000270620008da565b5b60200260200101518152602001878381518110620002945762000293620008da565b5b60200260200101518152602001868381518110620002b757620002b6620008da565b5b60200260200101518152506008600083815260200190815260200160002060008201518160000155602082015181600101556040820151816002015590505080806200030390620009c7565b9150506200019c565b5081811462000352576040517f08c379a0000000000000000000000000000000000000000000000000000000008152600401620003499062000a8b565b60405180910390fd5b8873ffffffffffffffffffffffffffffffffffffffff1660808173ffffffffffffffffffffffffffffffffffffffff16815250508773ffffffffffffffffffffffffffffffffffffffff1660a08173ffffffffffffffffffffffffffffffffffffffff168152505085600081518110620003d157620003d0620008da565b5b602002602001015160068190555084600081518110620003f657620003f5620008da565b5b60200260200101516005819055508660e0818152505083600081518110620004235762000422620008da565b5b6020026020010151876200043891906200096a565b6003819055508260c081815250508660048190555050505050505050505062000aad565b6000604051905090565b600080fd5b600080fd5b600073ffffffffffffffffffffffffffffffffffffffff82169050919050565b60006200049d8262000470565b9050919050565b620004af8162000490565b8114620004bb57600080fd5b50565b600081519050620004cf81620004a4565b92915050565b6000819050919050565b620004ea81620004d5565b8114620004f657600080fd5b50565b6000815190506200050a81620004df565b92915050565b600080fd5b6000601f19601f8301169050919050565b7f4e487b7100000000000000000000000000000000000000000000000000000000600052604160045260246000fd5b620005608262000515565b810181811067ffffffffffffffff8211171562000582576200058162000526565b5b80604052505050565b6000620005976200045c565b9050620005a5828262000555565b919050565b600067ffffffffffffffff821115620005c857620005c762000526565b5b602082029050602081019050919050565b600080fd5b6000620005f5620005ef84620005aa565b6200058b565b905080838252602082019050602084028301858111156200061b576200061a620005d9565b5b835b81811015620006485780620006338882620004f9565b8452602084019350506020810190506200061d565b5050509392505050565b600082601f8301126200066a576200066962000510565b5b81516200067c848260208601620005de565b91505092915050565b600080600080600080600060e0888a031215620006a757620006a662000466565b5b6000620006b78a828b01620004be565b9750506020620006ca8a828b01620004be565b9650506040620006dd8a828b01620004f9565b955050606088015167ffffffffffffffff8111156200070157620007006200046b565b5b6200070f8a828b0162000652565b945050608088015167ffffffffffffffff8111156200073357620007326200046b565b5b620007418a828b0162000652565b93505060a088015167ffffffffffffffff8111156200076557620007646200046b565b5b620007738a828b0162000652565b92505060c0620007868a828b01620004f9565b91505092959891949750929550565b600082825260208201905092915050565b7f4469737472696275746f723a204c656e6774686573206d757374206d6174636860008201527f206e756d626572506572696f6473000000000000000000000000000000000000602082015250565b600062000804602e8362000795565b91506200081182620007a6565b604082019050919050565b600060208201905081810360008301526200083781620007f5565b9050919050565b60006020828403121562000857576200085662000466565b5b60006200086784828501620004f9565b91505092915050565b7f4e487b7100000000000000000000000000000000000000000000000000000000600052601160045260246000fd5b6000620008ac82620004d5565b9150620008b983620004d5565b925082821015620008cf57620008ce62000870565b5b828203905092915050565b7f4e487b7100000000000000000000000000000000000000000000000000000000600052603260045260246000fd5b60006200091682620004d5565b91506200092383620004d5565b9250817fffffffffffffffffffffffffffffffffffffffffffffffffffffffffffffffff04831182151516156200095f576200095e62000870565b5b828202905092915050565b60006200097782620004d5565b91506200098483620004d5565b9250827fffffffffffffffffffffffffffffffffffffffffffffffffffffffffffffffff03821115620009bc57620009bb62000870565b5b828201905092915050565b6000620009d482620004d5565b91507fffffffffffffffffffffffffffffffffffffffffffffffffffffffffffffffff82141562000a0a5762000a0962000870565b5b600182019050919050565b7f4469737472696275746f723a2057726f6e672072657761726420706172616d6560008201527f7465727300000000000000000000000000000000000000000000000000000000602082015250565b600062000a7360248362000795565b915062000a808262000a15565b604082019050919050565b6000602082019050818103600083015262000aa68162000a64565b9050919050565b60805160a05160c05160e05161257062000b1f6000396000610cd10152600081816103e801528181610cf501526115740152600081816110900152611756015260008181610c0b01528181610cad01528181610fe80152818161115901528181611642015261171a01526125706000f3fe608060405234801561001057600080fd5b506004361061012c5760003560e01c8063853828b6116100ad578063c1027c9811610071578063c1027c98146102ec578063ccd34cd51461031e578063e3161ddd1461033c578063e683d96f14610346578063fe961f61146103645761012c565b8063853828b61461026c5780638f66291514610276578063a46074c314610294578063a9f8d181146102b2578063b6b55f25146102d05761012c565b80632e1a7d4d116100f45780632e1a7d4d146101d857806336db9fb2146101f457806339b3e8261461021257806352bf348c146102305780635a9477e91461024e5761012c565b8063055ad42e14610131578063083c63231461014f578063097aad101461016d5780631959a0021461019d5780632a4e051b146101ce575b600080fd5b610139610382565b6040516101469190611c32565b60405180910390f35b610157610388565b6040516101649190611c32565b60405180910390f35b61018760048036038101906101829190611cb0565b61038e565b6040516101949190611c32565b60405180910390f35b6101b760048036038101906101b29190611cb0565b61065c565b6040516101c5929190611cdd565b60405180910390f35b6101d6610680565b005b6101f260048036038101906101ed9190611d32565b610908565b005b6101fc610cab565b6040516102099190611dbe565b60405180910390f35b61021a610ccf565b6040516102279190611c32565b60405180910390f35b610238610cf3565b6040516102459190611c32565b60405180910390f35b610256610d17565b6040516102639190611c32565b60405180910390f35b610274610d1d565b005b61027e611088565b60405161028b9190611c32565b60405180910390f35b61029c61108e565b6040516102a99190611de8565b60405180910390f35b6102ba6110b2565b6040516102c79190611c32565b60405180910390f35b6102ea60048036038101906102e59190611d32565b6110b8565b005b61030660048036038101906103019190611d32565b611424565b60405161031593929190611e03565b60405180910390f35b61032661144e565b6040516103339190611c32565b60405180910390f35b610344611457565b005b61034e6114b7565b60405161035b9190611c32565b60405180910390f35b61036c6114bd565b6040516103799190611c32565b60405180910390f35b60025481565b60035481565b6000600454431180156103a45750600060075414155b156105a75760006103b7600454436114c3565b90506000600654826103c99190611e69565b905060006003549050600060025490505b8143118015610414575060017f00000000000000000000000000000000000000000000000000000000000000006104119190611ec3565b81105b156104c157808061042490611ef7565b91505060006008600083815260200190815260200160002060000154905060008390506008600084815260200190815260200160002060020154816104699190611f40565b935060008443111561049157600860008581526020019081526020016000206002015461049e565b814361049d9190611ec3565b5b905082816104ac9190611e69565b866104b79190611f40565b95505050506103da565b600060075464e8d4a51000856104d79190611e69565b6104e19190611fc5565b6001546104ee9190611f40565b9050600960008873ffffffffffffffffffffffffffffffffffffffff1673ffffffffffffffffffffffffffffffffffffffff1681526020019081526020016000206001015464e8d4a5100082600960008b73ffffffffffffffffffffffffffffffffffffffff1673ffffffffffffffffffffffffffffffffffffffff168152602001908152602001600020600001546105879190611e69565b6105919190611fc5565b61059b9190611ec3565b95505050505050610657565b600960008373ffffffffffffffffffffffffffffffffffffffff1673ffffffffffffffffffffffffffffffffffffffff1681526020019081526020016000206001015464e8d4a51000600154600960008673ffffffffffffffffffffffffffffffffffffffff1673ffffffffffffffffffffffffffffffffffffffff168152602001908152602001600020600001546106409190611e69565b61064a9190611fc5565b6106549190611ec3565b90505b919050565b60096020528060005260406000206000915090508060000154908060010154905082565b600260005414156106c6576040517f08c379a00000000000000000000000000000000000000000000000000000000081526004016106bd90612053565b60405180910390fd5b60026000819055506106d661150a565b6000600960003373ffffffffffffffffffffffffffffffffffffffff1673ffffffffffffffffffffffffffffffffffffffff1681526020019081526020016000206001015464e8d4a51000600154600960003373ffffffffffffffffffffffffffffffffffffffff1673ffffffffffffffffffffffffffffffffffffffff168152602001908152602001600020600001546107719190611e69565b61077b9190611fc5565b6107859190611ec3565b9050600081141561079657506108fe565b80600960003373ffffffffffffffffffffffffffffffffffffffff1673ffffffffffffffffffffffffffffffffffffffff16815260200190815260200160002060000160008282546107e89190611f40565b9250508190555080600760008282546108019190611f40565b9250508190555064e8d4a51000600154600960003373ffffffffffffffffffffffffffffffffffffffff1673ffffffffffffffffffffffffffffffffffffffff1681526020019081526020016000206000015461085e9190611e69565b6108689190611fc5565b600960003373ffffffffffffffffffffffffffffffffffffffff1673ffffffffffffffffffffffffffffffffffffffff168152602001908152602001600020600101819055503373ffffffffffffffffffffffffffffffffffffffff167f169f1815ebdea059aac3bb00ec9a9594c7a5ffcb64a17e8392b5d84909a14556826040516108f49190611c32565b60405180910390a2505b6001600081905550565b6002600054141561094e576040517f08c379a000000000000000000000000000000000000000000000000000000000815260040161094590612053565b60405180910390fd5b600260008190555080600960003373ffffffffffffffffffffffffffffffffffffffff1673ffffffffffffffffffffffffffffffffffffffff16815260200190815260200160002060000154101580156109a85750600081115b6109e7576040517f08c379a00000000000000000000000000000000000000000000000000000000081526004016109de906120e5565b60405180910390fd5b6109ef61150a565b6000600960003373ffffffffffffffffffffffffffffffffffffffff1673ffffffffffffffffffffffffffffffffffffffff1681526020019081526020016000206001015464e8d4a51000600154600960003373ffffffffffffffffffffffffffffffffffffffff1673ffffffffffffffffffffffffffffffffffffffff16815260200190815260200160002060000154610a8a9190611e69565b610a949190611fc5565b610a9e9190611ec3565b90508181600960003373ffffffffffffffffffffffffffffffffffffffff1673ffffffffffffffffffffffffffffffffffffffff16815260200190815260200160002060000154610aef9190611f40565b610af99190611ec3565b600960003373ffffffffffffffffffffffffffffffffffffffff1673ffffffffffffffffffffffffffffffffffffffff1681526020019081526020016000206000018190555064e8d4a51000600154600960003373ffffffffffffffffffffffffffffffffffffffff1673ffffffffffffffffffffffffffffffffffffffff16815260200190815260200160002060000154610b959190611e69565b610b9f9190611fc5565b600960003373ffffffffffffffffffffffffffffffffffffffff1673ffffffffffffffffffffffffffffffffffffffff168152602001908152602001600020600101819055508181600754610bf49190611f40565b610bfe9190611ec3565b600781905550610c4f33837f000000000000000000000000000000000000000000000000000000000000000073ffffffffffffffffffffffffffffffffffffffff166117f29092919063ffffffff16565b3373ffffffffffffffffffffffffffffffffffffffff167ff279e6a1f5e320cca91135676d9cb6e44ca8a08c0b88342bcdb1144f6511b5688383604051610c97929190611cdd565b60405180910390a250600160008190555050565b7f000000000000000000000000000000000000000000000000000000000000000081565b7f000000000000000000000000000000000000000000000000000000000000000081565b7f000000000000000000000000000000000000000000000000000000000000000081565b60065481565b60026000541415610d63576040517f08c379a0000000000000000000000000000000000000000000000000000000008152600401610d5a90612053565b60405180910390fd5b60026000819055506000600960003373ffffffffffffffffffffffffffffffffffffffff1673ffffffffffffffffffffffffffffffffffffffff1681526020019081526020016000206000015411610df0576040517f08c379a0000000000000000000000000000000000000000000000000000000008152600401610de790612151565b60405180910390fd5b610df861150a565b6000600960003373ffffffffffffffffffffffffffffffffffffffff1673ffffffffffffffffffffffffffffffffffffffff1681526020019081526020016000206001015464e8d4a51000600154600960003373ffffffffffffffffffffffffffffffffffffffff1673ffffffffffffffffffffffffffffffffffffffff16815260200190815260200160002060000154610e939190611e69565b610e9d9190611fc5565b610ea79190611ec3565b9050600081600960003373ffffffffffffffffffffffffffffffffffffffff1673ffffffffffffffffffffffffffffffffffffffff16815260200190815260200160002060000154610ef99190611f40565b9050600960003373ffffffffffffffffffffffffffffffffffffffff1673ffffffffffffffffffffffffffffffffffffffff16815260200190815260200160002060000154600754610f4b9190611ec3565b6007819055506000600960003373ffffffffffffffffffffffffffffffffffffffff1673ffffffffffffffffffffffffffffffffffffffff168152602001908152602001600020600001819055506000600960003373ffffffffffffffffffffffffffffffffffffffff1673ffffffffffffffffffffffffffffffffffffffff1681526020019081526020016000206001018190555061102c33827f000000000000000000000000000000000000000000000000000000000000000073ffffffffffffffffffffffffffffffffffffffff166117f29092919063ffffffff16565b3373ffffffffffffffffffffffffffffffffffffffff167ff279e6a1f5e320cca91135676d9cb6e44ca8a08c0b88342bcdb1144f6511b5688284604051611074929190611cdd565b60405180910390a250506001600081905550565b60015481565b7f000000000000000000000000000000000000000000000000000000000000000081565b60045481565b600260005414156110fe576040517f08c379a00000000000000000000000000000000000000000000000000000000081526004016110f590612053565b60405180910390fd5b600260008190555060008111611149576040517f08c379a0000000000000000000000000000000000000000000000000000000008152600401611140906121bd565b60405180910390fd5b61115161150a565b61119e3330837f000000000000000000000000000000000000000000000000000000000000000073ffffffffffffffffffffffffffffffffffffffff16611878909392919063ffffffff16565b600080600960003373ffffffffffffffffffffffffffffffffffffffff1673ffffffffffffffffffffffffffffffffffffffff16815260200190815260200160002060000154111561129a57600960003373ffffffffffffffffffffffffffffffffffffffff1673ffffffffffffffffffffffffffffffffffffffff1681526020019081526020016000206001015464e8d4a51000600154600960003373ffffffffffffffffffffffffffffffffffffffff1673ffffffffffffffffffffffffffffffffffffffff168152602001908152602001600020600001546112839190611e69565b61128d9190611fc5565b6112979190611ec3565b90505b80826112a69190611f40565b600960003373ffffffffffffffffffffffffffffffffffffffff1673ffffffffffffffffffffffffffffffffffffffff16815260200190815260200160002060000160008282546112f79190611f40565b9250508190555064e8d4a51000600154600960003373ffffffffffffffffffffffffffffffffffffffff1673ffffffffffffffffffffffffffffffffffffffff168152602001908152602001600020600001546113549190611e69565b61135e9190611fc5565b600960003373ffffffffffffffffffffffffffffffffffffffff1673ffffffffffffffffffffffffffffffffffffffff1681526020019081526020016000206001018190555080826113b09190611f40565b600760008282546113c19190611f40565b925050819055503373ffffffffffffffffffffffffffffffffffffffff167f90890809c654f11d6e72a28fa60149770a0d11ec6c92319d6ceb2bb0a4ea1a158383604051611410929190611cdd565b60405180910390a250600160008190555050565b60086020528060005260406000206000915090508060000154908060010154908060020154905083565b64e8d4a5100081565b6002600054141561149d576040517f08c379a000000000000000000000000000000000000000000000000000000000815260040161149490612053565b60405180910390fd5b60026000819055506114ad61150a565b6001600081905550565b60055481565b60075481565b600060035482116114e15782826114da9190611ec3565b9050611504565b60035483106114f35760009050611504565b826003546115019190611ec3565b90505b92915050565b6004544311611518576117f0565b6000600754141561152f57436004819055506117f0565b600061153d600454436114c3565b905060006006548261154f9190611e69565b90506000600554836115619190611e69565b90505b600354431180156115a2575060017f000000000000000000000000000000000000000000000000000000000000000061159d9190611ec3565b600254105b15611635576115b2600354611901565b6000600354905060086000600254815260200190815260200160002060020154600360008282546115e39190611f40565b9250508190555060006115f682436114c3565b9050600654816116069190611e69565b846116119190611f40565b9350600554816116219190611e69565b8361162c9190611f40565b92505050611564565b60008211156117d95760007f000000000000000000000000000000000000000000000000000000000000000073ffffffffffffffffffffffffffffffffffffffff166340c10f1930856040518363ffffffff1660e01b815260040161169b9291906121dd565b6020604051808303816000875af11580156116ba573d6000803e3d6000fd5b505050506040513d601f19601f820116820180604052508101906116de919061223e565b905080156117185760075464e8d4a51000846116fa9190611e69565b6117049190611fc5565b6001546117119190611f40565b6001819055505b7f000000000000000000000000000000000000000000000000000000000000000073ffffffffffffffffffffffffffffffffffffffff166340c10f197f0000000000000000000000000000000000000000000000000000000000000000846040518363ffffffff1660e01b81526004016117939291906121dd565b6020604051808303816000875af11580156117b2573d6000803e3d6000fd5b505050506040513d601f19601f820116820180604052508101906117d6919061223e565b50505b600354600454116117ec57436004819055505b5050505b565b6118738363a9059cbb60e01b84846040516024016118119291906121dd565b604051602081830303815290604052907bffffffffffffffffffffffffffffffffffffffffffffffffffffffff19166020820180517bffffffffffffffffffffffffffffffffffffffffffffffffffffffff838183161783525050505061199c565b505050565b6118fb846323b872dd60e01b8585856040516024016118999392919061226b565b604051602081830303815290604052907bffffffffffffffffffffffffffffffffffffffffffffffffffffffff19166020820180517bffffffffffffffffffffffffffffffffffffffffffffffffffffffff838183161783525050505061199c565b50505050565b6002600081548092919061191490611ef7565b919050555060086000600254815260200190815260200160002060000154600681905550600860006002548152602001908152602001600020600101546005819055506002547f40181eb77bccfdef1a73b669bb4290d98e2fbec678c7cf4578ae256210420e178260065460055460405161199193929190611e03565b60405180910390a250565b60006119fe826040518060400160405280602081526020017f5361666545524332303a206c6f772d6c6576656c2063616c6c206661696c65648152508573ffffffffffffffffffffffffffffffffffffffff16611a639092919063ffffffff16565b9050600081511115611a5e5780806020019051810190611a1e919061223e565b611a5d576040517f08c379a0000000000000000000000000000000000000000000000000000000008152600401611a5490612314565b60405180910390fd5b5b505050565b6060611a728484600085611a7b565b90509392505050565b606082471015611ac0576040517f08c379a0000000000000000000000000000000000000000000000000000000008152600401611ab7906123a6565b60405180910390fd5b611ac985611b8f565b611b08576040517f08c379a0000000000000000000000000000000000000000000000000000000008152600401611aff90612412565b60405180910390fd5b6000808673ffffffffffffffffffffffffffffffffffffffff168587604051611b3191906124ac565b60006040518083038185875af1925050503d8060008114611b6e576040519150601f19603f3d011682016040523d82523d6000602084013e611b73565b606091505b5091509150611b83828286611bb2565b92505050949350505050565b6000808273ffffffffffffffffffffffffffffffffffffffff163b119050919050565b60608315611bc257829050611c12565b600083511115611bd55782518084602001fd5b816040517f08c379a0000000000000000000000000000000000000000000000000000000008152600401611c099190612518565b60405180910390fd5b9392505050565b6000819050919050565b611c2c81611c19565b82525050565b6000602082019050611c476000830184611c23565b92915050565b600080fd5b600073ffffffffffffffffffffffffffffffffffffffff82169050919050565b6000611c7d82611c52565b9050919050565b611c8d81611c72565b8114611c9857600080fd5b50565b600081359050611caa81611c84565b92915050565b600060208284031215611cc657611cc5611c4d565b5b6000611cd484828501611c9b565b91505092915050565b6000604082019050611cf26000830185611c23565b611cff6020830184611c23565b9392505050565b611d0f81611c19565b8114611d1a57600080fd5b50565b600081359050611d2c81611d06565b92915050565b600060208284031215611d4857611d47611c4d565b5b6000611d5684828501611d1d565b91505092915050565b6000819050919050565b6000611d84611d7f611d7a84611c52565b611d5f565b611c52565b9050919050565b6000611d9682611d69565b9050919050565b6000611da882611d8b565b9050919050565b611db881611d9d565b82525050565b6000602082019050611dd36000830184611daf565b92915050565b611de281611c72565b82525050565b6000602082019050611dfd6000830184611dd9565b92915050565b6000606082019050611e186000830186611c23565b611e256020830185611c23565b611e326040830184611c23565b949350505050565b7f4e487b7100000000000000000000000000000000000000000000000000000000600052601160045260246000fd5b6000611e7482611c19565b9150611e7f83611c19565b9250817fffffffffffffffffffffffffffffffffffffffffffffffffffffffffffffffff0483118215151615611eb857611eb7611e3a565b5b828202905092915050565b6000611ece82611c19565b9150611ed983611c19565b925082821015611eec57611eeb611e3a565b5b828203905092915050565b6000611f0282611c19565b91507fffffffffffffffffffffffffffffffffffffffffffffffffffffffffffffffff821415611f3557611f34611e3a565b5b600182019050919050565b6000611f4b82611c19565b9150611f5683611c19565b9250827fffffffffffffffffffffffffffffffffffffffffffffffffffffffffffffffff03821115611f8b57611f8a611e3a565b5b828201905092915050565b7f4e487b7100000000000000000000000000000000000000000000000000000000600052601260045260246000fd5b6000611fd082611c19565b9150611fdb83611c19565b925082611feb57611fea611f96565b5b828204905092915050565b600082825260208201905092915050565b7f5265656e7472616e637947756172643a207265656e7472616e742063616c6c00600082015250565b600061203d601f83611ff6565b915061204882612007565b602082019050919050565b6000602082019050818103600083015261206c81612030565b9050919050565b7f57697468647261773a20416d6f756e74206d757374206265203e2030206f722060008201527f6c6f776572207468616e20757365722062616c616e6365000000000000000000602082015250565b60006120cf603783611ff6565b91506120da82612073565b604082019050919050565b600060208201905081810360008301526120fe816120c2565b9050919050565b7f57697468647261773a20416d6f756e74206d757374206265203e203000000000600082015250565b600061213b601c83611ff6565b915061214682612105565b602082019050919050565b6000602082019050818103600083015261216a8161212e565b9050919050565b7f4465706f7369743a20416d6f756e74206d757374206265203e20300000000000600082015250565b60006121a7601b83611ff6565b91506121b282612171565b602082019050919050565b600060208201905081810360008301526121d68161219a565b9050919050565b60006040820190506121f26000830185611dd9565b6121ff6020830184611c23565b9392505050565b60008115159050919050565b61221b81612206565b811461222657600080fd5b50565b60008151905061223881612212565b92915050565b60006020828403121561225457612253611c4d565b5b600061226284828501612229565b91505092915050565b60006060820190506122806000830186611dd9565b61228d6020830185611dd9565b61229a6040830184611c23565b949350505050565b7f5361666545524332303a204552433230206f7065726174696f6e20646964206e60008201527f6f74207375636365656400000000000000000000000000000000000000000000602082015250565b60006122fe602a83611ff6565b9150612309826122a2565b604082019050919050565b6000602082019050818103600083015261232d816122f1565b9050919050565b7f416464726573733a20696e73756666696369656e742062616c616e636520666f60008201527f722063616c6c0000000000000000000000000000000000000000000000000000602082015250565b6000612390602683611ff6565b915061239b82612334565b604082019050919050565b600060208201905081810360008301526123bf81612383565b9050919050565b7f416464726573733a2063616c6c20746f206e6f6e2d636f6e7472616374000000600082015250565b60006123fc601d83611ff6565b9150612407826123c6565b602082019050919050565b6000602082019050818103600083015261242b816123ef565b9050919050565b600081519050919050565b600081905092915050565b60005b8381101561246657808201518184015260208101905061244b565b83811115612475576000848401525b50505050565b600061248682612432565b612490818561243d565b93506124a0818560208601612448565b80840191505092915050565b60006124b8828461247b565b915081905092915050565b600081519050919050565b6000601f19601f8301169050919050565b60006124ea826124c3565b6124f48185611ff6565b9350612504818560208601612448565b61250d816124ce565b840191505092915050565b6000602082019050818103600083015261253281846124df565b90509291505056fea264697066735822122066a0fe60f203e0dec0a755361554aa991e2621a7e8b2339c3785b02ccaca329364736f6c634300080b0033",
					"opcodes": "PUSH2 0x100 PUSH1 0x40 MSTORE CALLVALUE DUP1 ISZERO PUSH3 0x12 JUMPI PUSH1 0x0 DUP1 REVERT JUMPDEST POP PUSH1 0x40 MLOAD PUSH3 0x308F CODESIZE SUB DUP1 PUSH3 0x308F DUP4 CODECOPY DUP2 DUP2 ADD PUSH1 0x40 MSTORE DUP2 ADD SWAP1 PUSH3 0x38 SWAP2 SWAP1 PUSH3 0x685 JUMP JUMPDEST PUSH1 0x1 PUSH1 0x0 DUP2 SWAP1 SSTORE POP DUP1 DUP3 MLOAD EQ DUP1 ISZERO PUSH3 0x51 JUMPI POP DUP1 DUP5 MLOAD EQ JUMPDEST DUP1 ISZERO PUSH3 0x5E JUMPI POP DUP1 DUP5 MLOAD EQ JUMPDEST PUSH3 0xA0 JUMPI PUSH1 0x40 MLOAD PUSH32 0x8C379A000000000000000000000000000000000000000000000000000000000 DUP2 MSTORE PUSH1 0x4 ADD PUSH3 0x97 SWAP1 PUSH3 0x81C JUMP JUMPDEST PUSH1 0x40 MLOAD DUP1 SWAP2 SUB SWAP1 REVERT JUMPDEST PUSH1 0x0 DUP8 PUSH20 0xFFFFFFFFFFFFFFFFFFFFFFFFFFFFFFFFFFFFFFFF AND PUSH4 0x18160DDD PUSH1 0x40 MLOAD DUP2 PUSH4 0xFFFFFFFF AND PUSH1 0xE0 SHL DUP2 MSTORE PUSH1 0x4 ADD PUSH1 0x20 PUSH1 0x40 MLOAD DUP1 DUP4 SUB DUP2 DUP7 GAS STATICCALL ISZERO DUP1 ISZERO PUSH3 0xEE JUMPI RETURNDATASIZE PUSH1 0x0 DUP1 RETURNDATACOPY RETURNDATASIZE PUSH1 0x0 REVERT JUMPDEST POP POP POP POP PUSH1 0x40 MLOAD RETURNDATASIZE PUSH1 0x1F NOT PUSH1 0x1F DUP3 ADD AND DUP3 ADD DUP1 PUSH1 0x40 MSTORE POP DUP2 ADD SWAP1 PUSH3 0x114 SWAP2 SWAP1 PUSH3 0x83E JUMP JUMPDEST DUP9 PUSH20 0xFFFFFFFFFFFFFFFFFFFFFFFFFFFFFFFFFFFFFFFF AND PUSH4 0xCFCCC83 PUSH1 0x40 MLOAD DUP2 PUSH4 0xFFFFFFFF AND PUSH1 0xE0 SHL DUP2 MSTORE PUSH1 0x4 ADD PUSH1 0x20 PUSH1 0x40 MLOAD DUP1 DUP4 SUB DUP2 DUP7 GAS STATICCALL ISZERO DUP1 ISZERO PUSH3 0x160 JUMPI RETURNDATASIZE PUSH1 0x0 DUP1 RETURNDATACOPY RETURNDATASIZE PUSH1 0x0 REVERT JUMPDEST POP POP POP POP PUSH1 0x40 MLOAD RETURNDATASIZE PUSH1 0x1F NOT PUSH1 0x1F DUP3 ADD AND DUP3 ADD DUP1 PUSH1 0x40 MSTORE POP DUP2 ADD SWAP1 PUSH3 0x186 SWAP2 SWAP1 PUSH3 0x83E JUMP JUMPDEST PUSH3 0x192 SWAP2 SWAP1 PUSH3 0x89F JUMP JUMPDEST SWAP1 POP PUSH1 0x0 DUP1 PUSH1 0x0 SWAP1 POP JUMPDEST DUP4 DUP2 LT ISZERO PUSH3 0x30C JUMPI DUP5 DUP2 DUP2 MLOAD DUP2 LT PUSH3 0x1BB JUMPI PUSH3 0x1BA PUSH3 0x8DA JUMP JUMPDEST JUMPDEST PUSH1 0x20 MUL PUSH1 0x20 ADD ADD MLOAD DUP7 DUP3 DUP2 MLOAD DUP2 LT PUSH3 0x1D9 JUMPI PUSH3 0x1D8 PUSH3 0x8DA JUMP JUMPDEST JUMPDEST PUSH1 0x20 MUL PUSH1 0x20 ADD ADD MLOAD PUSH3 0x1ED SWAP2 SWAP1 PUSH3 0x909 JUMP JUMPDEST DUP6 DUP3 DUP2 MLOAD DUP2 LT PUSH3 0x203 JUMPI PUSH3 0x202 PUSH3 0x8DA JUMP JUMPDEST JUMPDEST PUSH1 0x20 MUL PUSH1 0x20 ADD ADD MLOAD DUP9 DUP4 DUP2 MLOAD DUP2 LT PUSH3 0x221 JUMPI PUSH3 0x220 PUSH3 0x8DA JUMP JUMPDEST JUMPDEST PUSH1 0x20 MUL PUSH1 0x20 ADD ADD MLOAD PUSH3 0x235 SWAP2 SWAP1 PUSH3 0x909 JUMP JUMPDEST PUSH3 0x241 SWAP2 SWAP1 PUSH3 0x96A JUMP JUMPDEST DUP3 PUSH3 0x24E SWAP2 SWAP1 PUSH3 0x96A JUMP JUMPDEST SWAP2 POP PUSH1 0x40 MLOAD DUP1 PUSH1 0x60 ADD PUSH1 0x40 MSTORE DUP1 DUP9 DUP4 DUP2 MLOAD DUP2 LT PUSH3 0x271 JUMPI PUSH3 0x270 PUSH3 0x8DA JUMP JUMPDEST JUMPDEST PUSH1 0x20 MUL PUSH1 0x20 ADD ADD MLOAD DUP2 MSTORE PUSH1 0x20 ADD DUP8 DUP4 DUP2 MLOAD DUP2 LT PUSH3 0x294 JUMPI PUSH3 0x293 PUSH3 0x8DA JUMP JUMPDEST JUMPDEST PUSH1 0x20 MUL PUSH1 0x20 ADD ADD MLOAD DUP2 MSTORE PUSH1 0x20 ADD DUP7 DUP4 DUP2 MLOAD DUP2 LT PUSH3 0x2B7 JUMPI PUSH3 0x2B6 PUSH3 0x8DA JUMP JUMPDEST JUMPDEST PUSH1 0x20 MUL PUSH1 0x20 ADD ADD MLOAD DUP2 MSTORE POP PUSH1 0x8 PUSH1 0x0 DUP4 DUP2 MSTORE PUSH1 0x20 ADD SWAP1 DUP2 MSTORE PUSH1 0x20 ADD PUSH1 0x0 KECCAK256 PUSH1 0x0 DUP3 ADD MLOAD DUP2 PUSH1 0x0 ADD SSTORE PUSH1 0x20 DUP3 ADD MLOAD DUP2 PUSH1 0x1 ADD SSTORE PUSH1 0x40 DUP3 ADD MLOAD DUP2 PUSH1 0x2 ADD SSTORE SWAP1 POP POP DUP1 DUP1 PUSH3 0x303 SWAP1 PUSH3 0x9C7 JUMP JUMPDEST SWAP2 POP POP PUSH3 0x19C JUMP JUMPDEST POP DUP2 DUP2 EQ PUSH3 0x352 JUMPI PUSH1 0x40 MLOAD PUSH32 0x8C379A000000000000000000000000000000000000000000000000000000000 DUP2 MSTORE PUSH1 0x4 ADD PUSH3 0x349 SWAP1 PUSH3 0xA8B JUMP JUMPDEST PUSH1 0x40 MLOAD DUP1 SWAP2 SUB SWAP1 REVERT JUMPDEST DUP9 PUSH20 0xFFFFFFFFFFFFFFFFFFFFFFFFFFFFFFFFFFFFFFFF AND PUSH1 0x80 DUP2 PUSH20 0xFFFFFFFFFFFFFFFFFFFFFFFFFFFFFFFFFFFFFFFF AND DUP2 MSTORE POP POP DUP8 PUSH20 0xFFFFFFFFFFFFFFFFFFFFFFFFFFFFFFFFFFFFFFFF AND PUSH1 0xA0 DUP2 PUSH20 0xFFFFFFFFFFFFFFFFFFFFFFFFFFFFFFFFFFFFFFFF AND DUP2 MSTORE POP POP DUP6 PUSH1 0x0 DUP2 MLOAD DUP2 LT PUSH3 0x3D1 JUMPI PUSH3 0x3D0 PUSH3 0x8DA JUMP JUMPDEST JUMPDEST PUSH1 0x20 MUL PUSH1 0x20 ADD ADD MLOAD PUSH1 0x6 DUP2 SWAP1 SSTORE POP DUP5 PUSH1 0x0 DUP2 MLOAD DUP2 LT PUSH3 0x3F6 JUMPI PUSH3 0x3F5 PUSH3 0x8DA JUMP JUMPDEST JUMPDEST PUSH1 0x20 MUL PUSH1 0x20 ADD ADD MLOAD PUSH1 0x5 DUP2 SWAP1 SSTORE POP DUP7 PUSH1 0xE0 DUP2 DUP2 MSTORE POP POP DUP4 PUSH1 0x0 DUP2 MLOAD DUP2 LT PUSH3 0x423 JUMPI PUSH3 0x422 PUSH3 0x8DA JUMP JUMPDEST JUMPDEST PUSH1 0x20 MUL PUSH1 0x20 ADD ADD MLOAD DUP8 PUSH3 0x438 SWAP2 SWAP1 PUSH3 0x96A JUMP JUMPDEST PUSH1 0x3 DUP2 SWAP1 SSTORE POP DUP3 PUSH1 0xC0 DUP2 DUP2 MSTORE POP POP DUP7 PUSH1 0x4 DUP2 SWAP1 SSTORE POP POP POP POP POP POP POP POP POP POP PUSH3 0xAAD JUMP JUMPDEST PUSH1 0x0 PUSH1 0x40 MLOAD SWAP1 POP SWAP1 JUMP JUMPDEST PUSH1 0x0 DUP1 REVERT JUMPDEST PUSH1 0x0 DUP1 REVERT JUMPDEST PUSH1 0x0 PUSH20 0xFFFFFFFFFFFFFFFFFFFFFFFFFFFFFFFFFFFFFFFF DUP3 AND SWAP1 POP SWAP2 SWAP1 POP JUMP JUMPDEST PUSH1 0x0 PUSH3 0x49D DUP3 PUSH3 0x470 JUMP JUMPDEST SWAP1 POP SWAP2 SWAP1 POP JUMP JUMPDEST PUSH3 0x4AF DUP2 PUSH3 0x490 JUMP JUMPDEST DUP2 EQ PUSH3 0x4BB JUMPI PUSH1 0x0 DUP1 REVERT JUMPDEST POP JUMP JUMPDEST PUSH1 0x0 DUP2 MLOAD SWAP1 POP PUSH3 0x4CF DUP2 PUSH3 0x4A4 JUMP JUMPDEST SWAP3 SWAP2 POP POP JUMP JUMPDEST PUSH1 0x0 DUP2 SWAP1 POP SWAP2 SWAP1 POP JUMP JUMPDEST PUSH3 0x4EA DUP2 PUSH3 0x4D5 JUMP JUMPDEST DUP2 EQ PUSH3 0x4F6 JUMPI PUSH1 0x0 DUP1 REVERT JUMPDEST POP JUMP JUMPDEST PUSH1 0x0 DUP2 MLOAD SWAP1 POP PUSH3 0x50A DUP2 PUSH3 0x4DF JUMP JUMPDEST SWAP3 SWAP2 POP POP JUMP JUMPDEST PUSH1 0x0 DUP1 REVERT JUMPDEST PUSH1 0x0 PUSH1 0x1F NOT PUSH1 0x1F DUP4 ADD AND SWAP1 POP SWAP2 SWAP1 POP JUMP JUMPDEST PUSH32 0x4E487B7100000000000000000000000000000000000000000000000000000000 PUSH1 0x0 MSTORE PUSH1 0x41 PUSH1 0x4 MSTORE PUSH1 0x24 PUSH1 0x0 REVERT JUMPDEST PUSH3 0x560 DUP3 PUSH3 0x515 JUMP JUMPDEST DUP2 ADD DUP2 DUP2 LT PUSH8 0xFFFFFFFFFFFFFFFF DUP3 GT OR ISZERO PUSH3 0x582 JUMPI PUSH3 0x581 PUSH3 0x526 JUMP JUMPDEST JUMPDEST DUP1 PUSH1 0x40 MSTORE POP POP POP JUMP JUMPDEST PUSH1 0x0 PUSH3 0x597 PUSH3 0x45C JUMP JUMPDEST SWAP1 POP PUSH3 0x5A5 DUP3 DUP3 PUSH3 0x555 JUMP JUMPDEST SWAP2 SWAP1 POP JUMP JUMPDEST PUSH1 0x0 PUSH8 0xFFFFFFFFFFFFFFFF DUP3 GT ISZERO PUSH3 0x5C8 JUMPI PUSH3 0x5C7 PUSH3 0x526 JUMP JUMPDEST JUMPDEST PUSH1 0x20 DUP3 MUL SWAP1 POP PUSH1 0x20 DUP2 ADD SWAP1 POP SWAP2 SWAP1 POP JUMP JUMPDEST PUSH1 0x0 DUP1 REVERT JUMPDEST PUSH1 0x0 PUSH3 0x5F5 PUSH3 0x5EF DUP5 PUSH3 0x5AA JUMP JUMPDEST PUSH3 0x58B JUMP JUMPDEST SWAP1 POP DUP1 DUP4 DUP3 MSTORE PUSH1 0x20 DUP3 ADD SWAP1 POP PUSH1 0x20 DUP5 MUL DUP4 ADD DUP6 DUP2 GT ISZERO PUSH3 0x61B JUMPI PUSH3 0x61A PUSH3 0x5D9 JUMP JUMPDEST JUMPDEST DUP4 JUMPDEST DUP2 DUP2 LT ISZERO PUSH3 0x648 JUMPI DUP1 PUSH3 0x633 DUP9 DUP3 PUSH3 0x4F9 JUMP JUMPDEST DUP5 MSTORE PUSH1 0x20 DUP5 ADD SWAP4 POP POP PUSH1 0x20 DUP2 ADD SWAP1 POP PUSH3 0x61D JUMP JUMPDEST POP POP POP SWAP4 SWAP3 POP POP POP JUMP JUMPDEST PUSH1 0x0 DUP3 PUSH1 0x1F DUP4 ADD SLT PUSH3 0x66A JUMPI PUSH3 0x669 PUSH3 0x510 JUMP JUMPDEST JUMPDEST DUP2 MLOAD PUSH3 0x67C DUP5 DUP3 PUSH1 0x20 DUP7 ADD PUSH3 0x5DE JUMP JUMPDEST SWAP2 POP POP SWAP3 SWAP2 POP POP JUMP JUMPDEST PUSH1 0x0 DUP1 PUSH1 0x0 DUP1 PUSH1 0x0 DUP1 PUSH1 0x0 PUSH1 0xE0 DUP9 DUP11 SUB SLT ISZERO PUSH3 0x6A7 JUMPI PUSH3 0x6A6 PUSH3 0x466 JUMP JUMPDEST JUMPDEST PUSH1 0x0 PUSH3 0x6B7 DUP11 DUP3 DUP12 ADD PUSH3 0x4BE JUMP JUMPDEST SWAP8 POP POP PUSH1 0x20 PUSH3 0x6CA DUP11 DUP3 DUP12 ADD PUSH3 0x4BE JUMP JUMPDEST SWAP7 POP POP PUSH1 0x40 PUSH3 0x6DD DUP11 DUP3 DUP12 ADD PUSH3 0x4F9 JUMP JUMPDEST SWAP6 POP POP PUSH1 0x60 DUP9 ADD MLOAD PUSH8 0xFFFFFFFFFFFFFFFF DUP2 GT ISZERO PUSH3 0x701 JUMPI PUSH3 0x700 PUSH3 0x46B JUMP JUMPDEST JUMPDEST PUSH3 0x70F DUP11 DUP3 DUP12 ADD PUSH3 0x652 JUMP JUMPDEST SWAP5 POP POP PUSH1 0x80 DUP9 ADD MLOAD PUSH8 0xFFFFFFFFFFFFFFFF DUP2 GT ISZERO PUSH3 0x733 JUMPI PUSH3 0x732 PUSH3 0x46B JUMP JUMPDEST JUMPDEST PUSH3 0x741 DUP11 DUP3 DUP12 ADD PUSH3 0x652 JUMP JUMPDEST SWAP4 POP POP PUSH1 0xA0 DUP9 ADD MLOAD PUSH8 0xFFFFFFFFFFFFFFFF DUP2 GT ISZERO PUSH3 0x765 JUMPI PUSH3 0x764 PUSH3 0x46B JUMP JUMPDEST JUMPDEST PUSH3 0x773 DUP11 DUP3 DUP12 ADD PUSH3 0x652 JUMP JUMPDEST SWAP3 POP POP PUSH1 0xC0 PUSH3 0x786 DUP11 DUP3 DUP12 ADD PUSH3 0x4F9 JUMP JUMPDEST SWAP2 POP POP SWAP3 SWAP6 SWAP9 SWAP2 SWAP5 SWAP8 POP SWAP3 SWAP6 POP JUMP JUMPDEST PUSH1 0x0 DUP3 DUP3 MSTORE PUSH1 0x20 DUP3 ADD SWAP1 POP SWAP3 SWAP2 POP POP JUMP JUMPDEST PUSH32 0x4469737472696275746F723A204C656E6774686573206D757374206D61746368 PUSH1 0x0 DUP3 ADD MSTORE PUSH32 0x206E756D626572506572696F6473000000000000000000000000000000000000 PUSH1 0x20 DUP3 ADD MSTORE POP JUMP JUMPDEST PUSH1 0x0 PUSH3 0x804 PUSH1 0x2E DUP4 PUSH3 0x795 JUMP JUMPDEST SWAP2 POP PUSH3 0x811 DUP3 PUSH3 0x7A6 JUMP JUMPDEST PUSH1 0x40 DUP3 ADD SWAP1 POP SWAP2 SWAP1 POP JUMP JUMPDEST PUSH1 0x0 PUSH1 0x20 DUP3 ADD SWAP1 POP DUP2 DUP2 SUB PUSH1 0x0 DUP4 ADD MSTORE PUSH3 0x837 DUP2 PUSH3 0x7F5 JUMP JUMPDEST SWAP1 POP SWAP2 SWAP1 POP JUMP JUMPDEST PUSH1 0x0 PUSH1 0x20 DUP3 DUP5 SUB SLT ISZERO PUSH3 0x857 JUMPI PUSH3 0x856 PUSH3 0x466 JUMP JUMPDEST JUMPDEST PUSH1 0x0 PUSH3 0x867 DUP5 DUP3 DUP6 ADD PUSH3 0x4F9 JUMP JUMPDEST SWAP2 POP POP SWAP3 SWAP2 POP POP JUMP JUMPDEST PUSH32 0x4E487B7100000000000000000000000000000000000000000000000000000000 PUSH1 0x0 MSTORE PUSH1 0x11 PUSH1 0x4 MSTORE PUSH1 0x24 PUSH1 0x0 REVERT JUMPDEST PUSH1 0x0 PUSH3 0x8AC DUP3 PUSH3 0x4D5 JUMP JUMPDEST SWAP2 POP PUSH3 0x8B9 DUP4 PUSH3 0x4D5 JUMP JUMPDEST SWAP3 POP DUP3 DUP3 LT ISZERO PUSH3 0x8CF JUMPI PUSH3 0x8CE PUSH3 0x870 JUMP JUMPDEST JUMPDEST DUP3 DUP3 SUB SWAP1 POP SWAP3 SWAP2 POP POP JUMP JUMPDEST PUSH32 0x4E487B7100000000000000000000000000000000000000000000000000000000 PUSH1 0x0 MSTORE PUSH1 0x32 PUSH1 0x4 MSTORE PUSH1 0x24 PUSH1 0x0 REVERT JUMPDEST PUSH1 0x0 PUSH3 0x916 DUP3 PUSH3 0x4D5 JUMP JUMPDEST SWAP2 POP PUSH3 0x923 DUP4 PUSH3 0x4D5 JUMP JUMPDEST SWAP3 POP DUP2 PUSH32 0xFFFFFFFFFFFFFFFFFFFFFFFFFFFFFFFFFFFFFFFFFFFFFFFFFFFFFFFFFFFFFFFF DIV DUP4 GT DUP3 ISZERO ISZERO AND ISZERO PUSH3 0x95F JUMPI PUSH3 0x95E PUSH3 0x870 JUMP JUMPDEST JUMPDEST DUP3 DUP3 MUL SWAP1 POP SWAP3 SWAP2 POP POP JUMP JUMPDEST PUSH1 0x0 PUSH3 0x977 DUP3 PUSH3 0x4D5 JUMP JUMPDEST SWAP2 POP PUSH3 0x984 DUP4 PUSH3 0x4D5 JUMP JUMPDEST SWAP3 POP DUP3 PUSH32 0xFFFFFFFFFFFFFFFFFFFFFFFFFFFFFFFFFFFFFFFFFFFFFFFFFFFFFFFFFFFFFFFF SUB DUP3 GT ISZERO PUSH3 0x9BC JUMPI PUSH3 0x9BB PUSH3 0x870 JUMP JUMPDEST JUMPDEST DUP3 DUP3 ADD SWAP1 POP SWAP3 SWAP2 POP POP JUMP JUMPDEST PUSH1 0x0 PUSH3 0x9D4 DUP3 PUSH3 0x4D5 JUMP JUMPDEST SWAP2 POP PUSH32 0xFFFFFFFFFFFFFFFFFFFFFFFFFFFFFFFFFFFFFFFFFFFFFFFFFFFFFFFFFFFFFFFF DUP3 EQ ISZERO PUSH3 0xA0A JUMPI PUSH3 0xA09 PUSH3 0x870 JUMP JUMPDEST JUMPDEST PUSH1 0x1 DUP3 ADD SWAP1 POP SWAP2 SWAP1 POP JUMP JUMPDEST PUSH32 0x4469737472696275746F723A2057726F6E672072657761726420706172616D65 PUSH1 0x0 DUP3 ADD MSTORE PUSH32 0x7465727300000000000000000000000000000000000000000000000000000000 PUSH1 0x20 DUP3 ADD MSTORE POP JUMP JUMPDEST PUSH1 0x0 PUSH3 0xA73 PUSH1 0x24 DUP4 PUSH3 0x795 JUMP JUMPDEST SWAP2 POP PUSH3 0xA80 DUP3 PUSH3 0xA15 JUMP JUMPDEST PUSH1 0x40 DUP3 ADD SWAP1 POP SWAP2 SWAP1 POP JUMP JUMPDEST PUSH1 0x0 PUSH1 0x20 DUP3 ADD SWAP1 POP DUP2 DUP2 SUB PUSH1 0x0 DUP4 ADD MSTORE PUSH3 0xAA6 DUP2 PUSH3 0xA64 JUMP JUMPDEST SWAP1 POP SWAP2 SWAP1 POP JUMP JUMPDEST PUSH1 0x80 MLOAD PUSH1 0xA0 MLOAD PUSH1 0xC0 MLOAD PUSH1 0xE0 MLOAD PUSH2 0x2570 PUSH3 0xB1F PUSH1 0x0 CODECOPY PUSH1 0x0 PUSH2 0xCD1 ADD MSTORE PUSH1 0x0 DUP2 DUP2 PUSH2 0x3E8 ADD MSTORE DUP2 DUP2 PUSH2 0xCF5 ADD MSTORE PUSH2 0x1574 ADD MSTORE PUSH1 0x0 DUP2 DUP2 PUSH2 0x1090 ADD MSTORE PUSH2 0x1756 ADD MSTORE PUSH1 0x0 DUP2 DUP2 PUSH2 0xC0B ADD MSTORE DUP2 DUP2 PUSH2 0xCAD ADD MSTORE DUP2 DUP2 PUSH2 0xFE8 ADD MSTORE DUP2 DUP2 PUSH2 0x1159 ADD MSTORE DUP2 DUP2 PUSH2 0x1642 ADD MSTORE PUSH2 0x171A ADD MSTORE PUSH2 0x2570 PUSH1 0x0 RETURN INVALID PUSH1 0x80 PUSH1 0x40 MSTORE CALLVALUE DUP1 ISZERO PUSH2 0x10 JUMPI PUSH1 0x0 DUP1 REVERT JUMPDEST POP PUSH1 0x4 CALLDATASIZE LT PUSH2 0x12C JUMPI PUSH1 0x0 CALLDATALOAD PUSH1 0xE0 SHR DUP1 PUSH4 0x853828B6 GT PUSH2 0xAD JUMPI DUP1 PUSH4 0xC1027C98 GT PUSH2 0x71 JUMPI DUP1 PUSH4 0xC1027C98 EQ PUSH2 0x2EC JUMPI DUP1 PUSH4 0xCCD34CD5 EQ PUSH2 0x31E JUMPI DUP1 PUSH4 0xE3161DDD EQ PUSH2 0x33C JUMPI DUP1 PUSH4 0xE683D96F EQ PUSH2 0x346 JUMPI DUP1 PUSH4 0xFE961F61 EQ PUSH2 0x364 JUMPI PUSH2 0x12C JUMP JUMPDEST DUP1 PUSH4 0x853828B6 EQ PUSH2 0x26C JUMPI DUP1 PUSH4 0x8F662915 EQ PUSH2 0x276 JUMPI DUP1 PUSH4 0xA46074C3 EQ PUSH2 0x294 JUMPI DUP1 PUSH4 0xA9F8D181 EQ PUSH2 0x2B2 JUMPI DUP1 PUSH4 0xB6B55F25 EQ PUSH2 0x2D0 JUMPI PUSH2 0x12C JUMP JUMPDEST DUP1 PUSH4 0x2E1A7D4D GT PUSH2 0xF4 JUMPI DUP1 PUSH4 0x2E1A7D4D EQ PUSH2 0x1D8 JUMPI DUP1 PUSH4 0x36DB9FB2 EQ PUSH2 0x1F4 JUMPI DUP1 PUSH4 0x39B3E826 EQ PUSH2 0x212 JUMPI DUP1 PUSH4 0x52BF348C EQ PUSH2 0x230 JUMPI DUP1 PUSH4 0x5A9477E9 EQ PUSH2 0x24E JUMPI PUSH2 0x12C JUMP JUMPDEST DUP1 PUSH4 0x55AD42E EQ PUSH2 0x131 JUMPI DUP1 PUSH4 0x83C6323 EQ PUSH2 0x14F JUMPI DUP1 PUSH4 0x97AAD10 EQ PUSH2 0x16D JUMPI DUP1 PUSH4 0x1959A002 EQ PUSH2 0x19D JUMPI DUP1 PUSH4 0x2A4E051B EQ PUSH2 0x1CE JUMPI JUMPDEST PUSH1 0x0 DUP1 REVERT JUMPDEST PUSH2 0x139 PUSH2 0x382 JUMP JUMPDEST PUSH1 0x40 MLOAD PUSH2 0x146 SWAP2 SWAP1 PUSH2 0x1C32 JUMP JUMPDEST PUSH1 0x40 MLOAD DUP1 SWAP2 SUB SWAP1 RETURN JUMPDEST PUSH2 0x157 PUSH2 0x388 JUMP JUMPDEST PUSH1 0x40 MLOAD PUSH2 0x164 SWAP2 SWAP1 PUSH2 0x1C32 JUMP JUMPDEST PUSH1 0x40 MLOAD DUP1 SWAP2 SUB SWAP1 RETURN JUMPDEST PUSH2 0x187 PUSH1 0x4 DUP1 CALLDATASIZE SUB DUP2 ADD SWAP1 PUSH2 0x182 SWAP2 SWAP1 PUSH2 0x1CB0 JUMP JUMPDEST PUSH2 0x38E JUMP JUMPDEST PUSH1 0x40 MLOAD PUSH2 0x194 SWAP2 SWAP1 PUSH2 0x1C32 JUMP JUMPDEST PUSH1 0x40 MLOAD DUP1 SWAP2 SUB SWAP1 RETURN JUMPDEST PUSH2 0x1B7 PUSH1 0x4 DUP1 CALLDATASIZE SUB DUP2 ADD SWAP1 PUSH2 0x1B2 SWAP2 SWAP1 PUSH2 0x1CB0 JUMP JUMPDEST PUSH2 0x65C JUMP JUMPDEST PUSH1 0x40 MLOAD PUSH2 0x1C5 SWAP3 SWAP2 SWAP1 PUSH2 0x1CDD JUMP JUMPDEST PUSH1 0x40 MLOAD DUP1 SWAP2 SUB SWAP1 RETURN JUMPDEST PUSH2 0x1D6 PUSH2 0x680 JUMP JUMPDEST STOP JUMPDEST PUSH2 0x1F2 PUSH1 0x4 DUP1 CALLDATASIZE SUB DUP2 ADD SWAP1 PUSH2 0x1ED SWAP2 SWAP1 PUSH2 0x1D32 JUMP JUMPDEST PUSH2 0x908 JUMP JUMPDEST STOP JUMPDEST PUSH2 0x1FC PUSH2 0xCAB JUMP JUMPDEST PUSH1 0x40 MLOAD PUSH2 0x209 SWAP2 SWAP1 PUSH2 0x1DBE JUMP JUMPDEST PUSH1 0x40 MLOAD DUP1 SWAP2 SUB SWAP1 RETURN JUMPDEST PUSH2 0x21A PUSH2 0xCCF JUMP JUMPDEST PUSH1 0x40 MLOAD PUSH2 0x227 SWAP2 SWAP1 PUSH2 0x1C32 JUMP JUMPDEST PUSH1 0x40 MLOAD DUP1 SWAP2 SUB SWAP1 RETURN JUMPDEST PUSH2 0x238 PUSH2 0xCF3 JUMP JUMPDEST PUSH1 0x40 MLOAD PUSH2 0x245 SWAP2 SWAP1 PUSH2 0x1C32 JUMP JUMPDEST PUSH1 0x40 MLOAD DUP1 SWAP2 SUB SWAP1 RETURN JUMPDEST PUSH2 0x256 PUSH2 0xD17 JUMP JUMPDEST PUSH1 0x40 MLOAD PUSH2 0x263 SWAP2 SWAP1 PUSH2 0x1C32 JUMP JUMPDEST PUSH1 0x40 MLOAD DUP1 SWAP2 SUB SWAP1 RETURN JUMPDEST PUSH2 0x274 PUSH2 0xD1D JUMP JUMPDEST STOP JUMPDEST PUSH2 0x27E PUSH2 0x1088 JUMP JUMPDEST PUSH1 0x40 MLOAD PUSH2 0x28B SWAP2 SWAP1 PUSH2 0x1C32 JUMP JUMPDEST PUSH1 0x40 MLOAD DUP1 SWAP2 SUB SWAP1 RETURN JUMPDEST PUSH2 0x29C PUSH2 0x108E JUMP JUMPDEST PUSH1 0x40 MLOAD PUSH2 0x2A9 SWAP2 SWAP1 PUSH2 0x1DE8 JUMP JUMPDEST PUSH1 0x40 MLOAD DUP1 SWAP2 SUB SWAP1 RETURN JUMPDEST PUSH2 0x2BA PUSH2 0x10B2 JUMP JUMPDEST PUSH1 0x40 MLOAD PUSH2 0x2C7 SWAP2 SWAP1 PUSH2 0x1C32 JUMP JUMPDEST PUSH1 0x40 MLOAD DUP1 SWAP2 SUB SWAP1 RETURN JUMPDEST PUSH2 0x2EA PUSH1 0x4 DUP1 CALLDATASIZE SUB DUP2 ADD SWAP1 PUSH2 0x2E5 SWAP2 SWAP1 PUSH2 0x1D32 JUMP JUMPDEST PUSH2 0x10B8 JUMP JUMPDEST STOP JUMPDEST PUSH2 0x306 PUSH1 0x4 DUP1 CALLDATASIZE SUB DUP2 ADD SWAP1 PUSH2 0x301 SWAP2 SWAP1 PUSH2 0x1D32 JUMP JUMPDEST PUSH2 0x1424 JUMP JUMPDEST PUSH1 0x40 MLOAD PUSH2 0x315 SWAP4 SWAP3 SWAP2 SWAP1 PUSH2 0x1E03 JUMP JUMPDEST PUSH1 0x40 MLOAD DUP1 SWAP2 SUB SWAP1 RETURN JUMPDEST PUSH2 0x326 PUSH2 0x144E JUMP JUMPDEST PUSH1 0x40 MLOAD PUSH2 0x333 SWAP2 SWAP1 PUSH2 0x1C32 JUMP JUMPDEST PUSH1 0x40 MLOAD DUP1 SWAP2 SUB SWAP1 RETURN JUMPDEST PUSH2 0x344 PUSH2 0x1457 JUMP JUMPDEST STOP JUMPDEST PUSH2 0x34E PUSH2 0x14B7 JUMP JUMPDEST PUSH1 0x40 MLOAD PUSH2 0x35B SWAP2 SWAP1 PUSH2 0x1C32 JUMP JUMPDEST PUSH1 0x40 MLOAD DUP1 SWAP2 SUB SWAP1 RETURN JUMPDEST PUSH2 0x36C PUSH2 0x14BD JUMP JUMPDEST PUSH1 0x40 MLOAD PUSH2 0x379 SWAP2 SWAP1 PUSH2 0x1C32 JUMP JUMPDEST PUSH1 0x40 MLOAD DUP1 SWAP2 SUB SWAP1 RETURN JUMPDEST PUSH1 0x2 SLOAD DUP2 JUMP JUMPDEST PUSH1 0x3 SLOAD DUP2 JUMP JUMPDEST PUSH1 0x0 PUSH1 0x4 SLOAD NUMBER GT DUP1 ISZERO PUSH2 0x3A4 JUMPI POP PUSH1 0x0 PUSH1 0x7 SLOAD EQ ISZERO JUMPDEST ISZERO PUSH2 0x5A7 JUMPI PUSH1 0x0 PUSH2 0x3B7 PUSH1 0x4 SLOAD NUMBER PUSH2 0x14C3 JUMP JUMPDEST SWAP1 POP PUSH1 0x0 PUSH1 0x6 SLOAD DUP3 PUSH2 0x3C9 SWAP2 SWAP1 PUSH2 0x1E69 JUMP JUMPDEST SWAP1 POP PUSH1 0x0 PUSH1 0x3 SLOAD SWAP1 POP PUSH1 0x0 PUSH1 0x2 SLOAD SWAP1 POP JUMPDEST DUP2 NUMBER GT DUP1 ISZERO PUSH2 0x414 JUMPI POP PUSH1 0x1 PUSH32 0x0 PUSH2 0x411 SWAP2 SWAP1 PUSH2 0x1EC3 JUMP JUMPDEST DUP2 LT JUMPDEST ISZERO PUSH2 0x4C1 JUMPI DUP1 DUP1 PUSH2 0x424 SWAP1 PUSH2 0x1EF7 JUMP JUMPDEST SWAP2 POP POP PUSH1 0x0 PUSH1 0x8 PUSH1 0x0 DUP4 DUP2 MSTORE PUSH1 0x20 ADD SWAP1 DUP2 MSTORE PUSH1 0x20 ADD PUSH1 0x0 KECCAK256 PUSH1 0x0 ADD SLOAD SWAP1 POP PUSH1 0x0 DUP4 SWAP1 POP PUSH1 0x8 PUSH1 0x0 DUP5 DUP2 MSTORE PUSH1 0x20 ADD SWAP1 DUP2 MSTORE PUSH1 0x20 ADD PUSH1 0x0 KECCAK256 PUSH1 0x2 ADD SLOAD DUP2 PUSH2 0x469 SWAP2 SWAP1 PUSH2 0x1F40 JUMP JUMPDEST SWAP4 POP PUSH1 0x0 DUP5 NUMBER GT ISZERO PUSH2 0x491 JUMPI PUSH1 0x8 PUSH1 0x0 DUP6 DUP2 MSTORE PUSH1 0x20 ADD SWAP1 DUP2 MSTORE PUSH1 0x20 ADD PUSH1 0x0 KECCAK256 PUSH1 0x2 ADD SLOAD PUSH2 0x49E JUMP JUMPDEST DUP2 NUMBER PUSH2 0x49D SWAP2 SWAP1 PUSH2 0x1EC3 JUMP JUMPDEST JUMPDEST SWAP1 POP DUP3 DUP2 PUSH2 0x4AC SWAP2 SWAP1 PUSH2 0x1E69 JUMP JUMPDEST DUP7 PUSH2 0x4B7 SWAP2 SWAP1 PUSH2 0x1F40 JUMP JUMPDEST SWAP6 POP POP POP POP PUSH2 0x3DA JUMP JUMPDEST PUSH1 0x0 PUSH1 0x7 SLOAD PUSH5 0xE8D4A51000 DUP6 PUSH2 0x4D7 SWAP2 SWAP1 PUSH2 0x1E69 JUMP JUMPDEST PUSH2 0x4E1 SWAP2 SWAP1 PUSH2 0x1FC5 JUMP JUMPDEST PUSH1 0x1 SLOAD PUSH2 0x4EE SWAP2 SWAP1 PUSH2 0x1F40 JUMP JUMPDEST SWAP1 POP PUSH1 0x9 PUSH1 0x0 DUP9 PUSH20 0xFFFFFFFFFFFFFFFFFFFFFFFFFFFFFFFFFFFFFFFF AND PUSH20 0xFFFFFFFFFFFFFFFFFFFFFFFFFFFFFFFFFFFFFFFF AND DUP2 MSTORE PUSH1 0x20 ADD SWAP1 DUP2 MSTORE PUSH1 0x20 ADD PUSH1 0x0 KECCAK256 PUSH1 0x1 ADD SLOAD PUSH5 0xE8D4A51000 DUP3 PUSH1 0x9 PUSH1 0x0 DUP12 PUSH20 0xFFFFFFFFFFFFFFFFFFFFFFFFFFFFFFFFFFFFFFFF AND PUSH20 0xFFFFFFFFFFFFFFFFFFFFFFFFFFFFFFFFFFFFFFFF AND DUP2 MSTORE PUSH1 0x20 ADD SWAP1 DUP2 MSTORE PUSH1 0x20 ADD PUSH1 0x0 KECCAK256 PUSH1 0x0 ADD SLOAD PUSH2 0x587 SWAP2 SWAP1 PUSH2 0x1E69 JUMP JUMPDEST PUSH2 0x591 SWAP2 SWAP1 PUSH2 0x1FC5 JUMP JUMPDEST PUSH2 0x59B SWAP2 SWAP1 PUSH2 0x1EC3 JUMP JUMPDEST SWAP6 POP POP POP POP POP POP PUSH2 0x657 JUMP JUMPDEST PUSH1 0x9 PUSH1 0x0 DUP4 PUSH20 0xFFFFFFFFFFFFFFFFFFFFFFFFFFFFFFFFFFFFFFFF AND PUSH20 0xFFFFFFFFFFFFFFFFFFFFFFFFFFFFFFFFFFFFFFFF AND DUP2 MSTORE PUSH1 0x20 ADD SWAP1 DUP2 MSTORE PUSH1 0x20 ADD PUSH1 0x0 KECCAK256 PUSH1 0x1 ADD SLOAD PUSH5 0xE8D4A51000 PUSH1 0x1 SLOAD PUSH1 0x9 PUSH1 0x0 DUP7 PUSH20 0xFFFFFFFFFFFFFFFFFFFFFFFFFFFFFFFFFFFFFFFF AND PUSH20 0xFFFFFFFFFFFFFFFFFFFFFFFFFFFFFFFFFFFFFFFF AND DUP2 MSTORE PUSH1 0x20 ADD SWAP1 DUP2 MSTORE PUSH1 0x20 ADD PUSH1 0x0 KECCAK256 PUSH1 0x0 ADD SLOAD PUSH2 0x640 SWAP2 SWAP1 PUSH2 0x1E69 JUMP JUMPDEST PUSH2 0x64A SWAP2 SWAP1 PUSH2 0x1FC5 JUMP JUMPDEST PUSH2 0x654 SWAP2 SWAP1 PUSH2 0x1EC3 JUMP JUMPDEST SWAP1 POP JUMPDEST SWAP2 SWAP1 POP JUMP JUMPDEST PUSH1 0x9 PUSH1 0x20 MSTORE DUP1 PUSH1 0x0 MSTORE PUSH1 0x40 PUSH1 0x0 KECCAK256 PUSH1 0x0 SWAP2 POP SWAP1 POP DUP1 PUSH1 0x0 ADD SLOAD SWAP1 DUP1 PUSH1 0x1 ADD SLOAD SWAP1 POP DUP3 JUMP JUMPDEST PUSH1 0x2 PUSH1 0x0 SLOAD EQ ISZERO PUSH2 0x6C6 JUMPI PUSH1 0x40 MLOAD PUSH32 0x8C379A000000000000000000000000000000000000000000000000000000000 DUP2 MSTORE PUSH1 0x4 ADD PUSH2 0x6BD SWAP1 PUSH2 0x2053 JUMP JUMPDEST PUSH1 0x40 MLOAD DUP1 SWAP2 SUB SWAP1 REVERT JUMPDEST PUSH1 0x2 PUSH1 0x0 DUP2 SWAP1 SSTORE POP PUSH2 0x6D6 PUSH2 0x150A JUMP JUMPDEST PUSH1 0x0 PUSH1 0x9 PUSH1 0x0 CALLER PUSH20 0xFFFFFFFFFFFFFFFFFFFFFFFFFFFFFFFFFFFFFFFF AND PUSH20 0xFFFFFFFFFFFFFFFFFFFFFFFFFFFFFFFFFFFFFFFF AND DUP2 MSTORE PUSH1 0x20 ADD SWAP1 DUP2 MSTORE PUSH1 0x20 ADD PUSH1 0x0 KECCAK256 PUSH1 0x1 ADD SLOAD PUSH5 0xE8D4A51000 PUSH1 0x1 SLOAD PUSH1 0x9 PUSH1 0x0 CALLER PUSH20 0xFFFFFFFFFFFFFFFFFFFFFFFFFFFFFFFFFFFFFFFF AND PUSH20 0xFFFFFFFFFFFFFFFFFFFFFFFFFFFFFFFFFFFFFFFF AND DUP2 MSTORE PUSH1 0x20 ADD SWAP1 DUP2 MSTORE PUSH1 0x20 ADD PUSH1 0x0 KECCAK256 PUSH1 0x0 ADD SLOAD PUSH2 0x771 SWAP2 SWAP1 PUSH2 0x1E69 JUMP JUMPDEST PUSH2 0x77B SWAP2 SWAP1 PUSH2 0x1FC5 JUMP JUMPDEST PUSH2 0x785 SWAP2 SWAP1 PUSH2 0x1EC3 JUMP JUMPDEST SWAP1 POP PUSH1 0x0 DUP2 EQ ISZERO PUSH2 0x796 JUMPI POP PUSH2 0x8FE JUMP JUMPDEST DUP1 PUSH1 0x9 PUSH1 0x0 CALLER PUSH20 0xFFFFFFFFFFFFFFFFFFFFFFFFFFFFFFFFFFFFFFFF AND PUSH20 0xFFFFFFFFFFFFFFFFFFFFFFFFFFFFFFFFFFFFFFFF AND DUP2 MSTORE PUSH1 0x20 ADD SWAP1 DUP2 MSTORE PUSH1 0x20 ADD PUSH1 0x0 KECCAK256 PUSH1 0x0 ADD PUSH1 0x0 DUP3 DUP3 SLOAD PUSH2 0x7E8 SWAP2 SWAP1 PUSH2 0x1F40 JUMP JUMPDEST SWAP3 POP POP DUP2 SWAP1 SSTORE POP DUP1 PUSH1 0x7 PUSH1 0x0 DUP3 DUP3 SLOAD PUSH2 0x801 SWAP2 SWAP1 PUSH2 0x1F40 JUMP JUMPDEST SWAP3 POP POP DUP2 SWAP1 SSTORE POP PUSH5 0xE8D4A51000 PUSH1 0x1 SLOAD PUSH1 0x9 PUSH1 0x0 CALLER PUSH20 0xFFFFFFFFFFFFFFFFFFFFFFFFFFFFFFFFFFFFFFFF AND PUSH20 0xFFFFFFFFFFFFFFFFFFFFFFFFFFFFFFFFFFFFFFFF AND DUP2 MSTORE PUSH1 0x20 ADD SWAP1 DUP2 MSTORE PUSH1 0x20 ADD PUSH1 0x0 KECCAK256 PUSH1 0x0 ADD SLOAD PUSH2 0x85E SWAP2 SWAP1 PUSH2 0x1E69 JUMP JUMPDEST PUSH2 0x868 SWAP2 SWAP1 PUSH2 0x1FC5 JUMP JUMPDEST PUSH1 0x9 PUSH1 0x0 CALLER PUSH20 0xFFFFFFFFFFFFFFFFFFFFFFFFFFFFFFFFFFFFFFFF AND PUSH20 0xFFFFFFFFFFFFFFFFFFFFFFFFFFFFFFFFFFFFFFFF AND DUP2 MSTORE PUSH1 0x20 ADD SWAP1 DUP2 MSTORE PUSH1 0x20 ADD PUSH1 0x0 KECCAK256 PUSH1 0x1 ADD DUP2 SWAP1 SSTORE POP CALLER PUSH20 0xFFFFFFFFFFFFFFFFFFFFFFFFFFFFFFFFFFFFFFFF AND PUSH32 0x169F1815EBDEA059AAC3BB00EC9A9594C7A5FFCB64A17E8392B5D84909A14556 DUP3 PUSH1 0x40 MLOAD PUSH2 0x8F4 SWAP2 SWAP1 PUSH2 0x1C32 JUMP JUMPDEST PUSH1 0x40 MLOAD DUP1 SWAP2 SUB SWAP1 LOG2 POP JUMPDEST PUSH1 0x1 PUSH1 0x0 DUP2 SWAP1 SSTORE POP JUMP JUMPDEST PUSH1 0x2 PUSH1 0x0 SLOAD EQ ISZERO PUSH2 0x94E JUMPI PUSH1 0x40 MLOAD PUSH32 0x8C379A000000000000000000000000000000000000000000000000000000000 DUP2 MSTORE PUSH1 0x4 ADD PUSH2 0x945 SWAP1 PUSH2 0x2053 JUMP JUMPDEST PUSH1 0x40 MLOAD DUP1 SWAP2 SUB SWAP1 REVERT JUMPDEST PUSH1 0x2 PUSH1 0x0 DUP2 SWAP1 SSTORE POP DUP1 PUSH1 0x9 PUSH1 0x0 CALLER PUSH20 0xFFFFFFFFFFFFFFFFFFFFFFFFFFFFFFFFFFFFFFFF AND PUSH20 0xFFFFFFFFFFFFFFFFFFFFFFFFFFFFFFFFFFFFFFFF AND DUP2 MSTORE PUSH1 0x20 ADD SWAP1 DUP2 MSTORE PUSH1 0x20 ADD PUSH1 0x0 KECCAK256 PUSH1 0x0 ADD SLOAD LT ISZERO DUP1 ISZERO PUSH2 0x9A8 JUMPI POP PUSH1 0x0 DUP2 GT JUMPDEST PUSH2 0x9E7 JUMPI PUSH1 0x40 MLOAD PUSH32 0x8C379A000000000000000000000000000000000000000000000000000000000 DUP2 MSTORE PUSH1 0x4 ADD PUSH2 0x9DE SWAP1 PUSH2 0x20E5 JUMP JUMPDEST PUSH1 0x40 MLOAD DUP1 SWAP2 SUB SWAP1 REVERT JUMPDEST PUSH2 0x9EF PUSH2 0x150A JUMP JUMPDEST PUSH1 0x0 PUSH1 0x9 PUSH1 0x0 CALLER PUSH20 0xFFFFFFFFFFFFFFFFFFFFFFFFFFFFFFFFFFFFFFFF AND PUSH20 0xFFFFFFFFFFFFFFFFFFFFFFFFFFFFFFFFFFFFFFFF AND DUP2 MSTORE PUSH1 0x20 ADD SWAP1 DUP2 MSTORE PUSH1 0x20 ADD PUSH1 0x0 KECCAK256 PUSH1 0x1 ADD SLOAD PUSH5 0xE8D4A51000 PUSH1 0x1 SLOAD PUSH1 0x9 PUSH1 0x0 CALLER PUSH20 0xFFFFFFFFFFFFFFFFFFFFFFFFFFFFFFFFFFFFFFFF AND PUSH20 0xFFFFFFFFFFFFFFFFFFFFFFFFFFFFFFFFFFFFFFFF AND DUP2 MSTORE PUSH1 0x20 ADD SWAP1 DUP2 MSTORE PUSH1 0x20 ADD PUSH1 0x0 KECCAK256 PUSH1 0x0 ADD SLOAD PUSH2 0xA8A SWAP2 SWAP1 PUSH2 0x1E69 JUMP JUMPDEST PUSH2 0xA94 SWAP2 SWAP1 PUSH2 0x1FC5 JUMP JUMPDEST PUSH2 0xA9E SWAP2 SWAP1 PUSH2 0x1EC3 JUMP JUMPDEST SWAP1 POP DUP2 DUP2 PUSH1 0x9 PUSH1 0x0 CALLER PUSH20 0xFFFFFFFFFFFFFFFFFFFFFFFFFFFFFFFFFFFFFFFF AND PUSH20 0xFFFFFFFFFFFFFFFFFFFFFFFFFFFFFFFFFFFFFFFF AND DUP2 MSTORE PUSH1 0x20 ADD SWAP1 DUP2 MSTORE PUSH1 0x20 ADD PUSH1 0x0 KECCAK256 PUSH1 0x0 ADD SLOAD PUSH2 0xAEF SWAP2 SWAP1 PUSH2 0x1F40 JUMP JUMPDEST PUSH2 0xAF9 SWAP2 SWAP1 PUSH2 0x1EC3 JUMP JUMPDEST PUSH1 0x9 PUSH1 0x0 CALLER PUSH20 0xFFFFFFFFFFFFFFFFFFFFFFFFFFFFFFFFFFFFFFFF AND PUSH20 0xFFFFFFFFFFFFFFFFFFFFFFFFFFFFFFFFFFFFFFFF AND DUP2 MSTORE PUSH1 0x20 ADD SWAP1 DUP2 MSTORE PUSH1 0x20 ADD PUSH1 0x0 KECCAK256 PUSH1 0x0 ADD DUP2 SWAP1 SSTORE POP PUSH5 0xE8D4A51000 PUSH1 0x1 SLOAD PUSH1 0x9 PUSH1 0x0 CALLER PUSH20 0xFFFFFFFFFFFFFFFFFFFFFFFFFFFFFFFFFFFFFFFF AND PUSH20 0xFFFFFFFFFFFFFFFFFFFFFFFFFFFFFFFFFFFFFFFF AND DUP2 MSTORE PUSH1 0x20 ADD SWAP1 DUP2 MSTORE PUSH1 0x20 ADD PUSH1 0x0 KECCAK256 PUSH1 0x0 ADD SLOAD PUSH2 0xB95 SWAP2 SWAP1 PUSH2 0x1E69 JUMP JUMPDEST PUSH2 0xB9F SWAP2 SWAP1 PUSH2 0x1FC5 JUMP JUMPDEST PUSH1 0x9 PUSH1 0x0 CALLER PUSH20 0xFFFFFFFFFFFFFFFFFFFFFFFFFFFFFFFFFFFFFFFF AND PUSH20 0xFFFFFFFFFFFFFFFFFFFFFFFFFFFFFFFFFFFFFFFF AND DUP2 MSTORE PUSH1 0x20 ADD SWAP1 DUP2 MSTORE PUSH1 0x20 ADD PUSH1 0x0 KECCAK256 PUSH1 0x1 ADD DUP2 SWAP1 SSTORE POP DUP2 DUP2 PUSH1 0x7 SLOAD PUSH2 0xBF4 SWAP2 SWAP1 PUSH2 0x1F40 JUMP JUMPDEST PUSH2 0xBFE SWAP2 SWAP1 PUSH2 0x1EC3 JUMP JUMPDEST PUSH1 0x7 DUP2 SWAP1 SSTORE POP PUSH2 0xC4F CALLER DUP4 PUSH32 0x0 PUSH20 0xFFFFFFFFFFFFFFFFFFFFFFFFFFFFFFFFFFFFFFFF AND PUSH2 0x17F2 SWAP1 SWAP3 SWAP2 SWAP1 PUSH4 0xFFFFFFFF AND JUMP JUMPDEST CALLER PUSH20 0xFFFFFFFFFFFFFFFFFFFFFFFFFFFFFFFFFFFFFFFF AND PUSH32 0xF279E6A1F5E320CCA91135676D9CB6E44CA8A08C0B88342BCDB1144F6511B568 DUP4 DUP4 PUSH1 0x40 MLOAD PUSH2 0xC97 SWAP3 SWAP2 SWAP1 PUSH2 0x1CDD JUMP JUMPDEST PUSH1 0x40 MLOAD DUP1 SWAP2 SUB SWAP1 LOG2 POP PUSH1 0x1 PUSH1 0x0 DUP2 SWAP1 SSTORE POP POP JUMP JUMPDEST PUSH32 0x0 DUP2 JUMP JUMPDEST PUSH32 0x0 DUP2 JUMP JUMPDEST PUSH32 0x0 DUP2 JUMP JUMPDEST PUSH1 0x6 SLOAD DUP2 JUMP JUMPDEST PUSH1 0x2 PUSH1 0x0 SLOAD EQ ISZERO PUSH2 0xD63 JUMPI PUSH1 0x40 MLOAD PUSH32 0x8C379A000000000000000000000000000000000000000000000000000000000 DUP2 MSTORE PUSH1 0x4 ADD PUSH2 0xD5A SWAP1 PUSH2 0x2053 JUMP JUMPDEST PUSH1 0x40 MLOAD DUP1 SWAP2 SUB SWAP1 REVERT JUMPDEST PUSH1 0x2 PUSH1 0x0 DUP2 SWAP1 SSTORE POP PUSH1 0x0 PUSH1 0x9 PUSH1 0x0 CALLER PUSH20 0xFFFFFFFFFFFFFFFFFFFFFFFFFFFFFFFFFFFFFFFF AND PUSH20 0xFFFFFFFFFFFFFFFFFFFFFFFFFFFFFFFFFFFFFFFF AND DUP2 MSTORE PUSH1 0x20 ADD SWAP1 DUP2 MSTORE PUSH1 0x20 ADD PUSH1 0x0 KECCAK256 PUSH1 0x0 ADD SLOAD GT PUSH2 0xDF0 JUMPI PUSH1 0x40 MLOAD PUSH32 0x8C379A000000000000000000000000000000000000000000000000000000000 DUP2 MSTORE PUSH1 0x4 ADD PUSH2 0xDE7 SWAP1 PUSH2 0x2151 JUMP JUMPDEST PUSH1 0x40 MLOAD DUP1 SWAP2 SUB SWAP1 REVERT JUMPDEST PUSH2 0xDF8 PUSH2 0x150A JUMP JUMPDEST PUSH1 0x0 PUSH1 0x9 PUSH1 0x0 CALLER PUSH20 0xFFFFFFFFFFFFFFFFFFFFFFFFFFFFFFFFFFFFFFFF AND PUSH20 0xFFFFFFFFFFFFFFFFFFFFFFFFFFFFFFFFFFFFFFFF AND DUP2 MSTORE PUSH1 0x20 ADD SWAP1 DUP2 MSTORE PUSH1 0x20 ADD PUSH1 0x0 KECCAK256 PUSH1 0x1 ADD SLOAD PUSH5 0xE8D4A51000 PUSH1 0x1 SLOAD PUSH1 0x9 PUSH1 0x0 CALLER PUSH20 0xFFFFFFFFFFFFFFFFFFFFFFFFFFFFFFFFFFFFFFFF AND PUSH20 0xFFFFFFFFFFFFFFFFFFFFFFFFFFFFFFFFFFFFFFFF AND DUP2 MSTORE PUSH1 0x20 ADD SWAP1 DUP2 MSTORE PUSH1 0x20 ADD PUSH1 0x0 KECCAK256 PUSH1 0x0 ADD SLOAD PUSH2 0xE93 SWAP2 SWAP1 PUSH2 0x1E69 JUMP JUMPDEST PUSH2 0xE9D SWAP2 SWAP1 PUSH2 0x1FC5 JUMP JUMPDEST PUSH2 0xEA7 SWAP2 SWAP1 PUSH2 0x1EC3 JUMP JUMPDEST SWAP1 POP PUSH1 0x0 DUP2 PUSH1 0x9 PUSH1 0x0 CALLER PUSH20 0xFFFFFFFFFFFFFFFFFFFFFFFFFFFFFFFFFFFFFFFF AND PUSH20 0xFFFFFFFFFFFFFFFFFFFFFFFFFFFFFFFFFFFFFFFF AND DUP2 MSTORE PUSH1 0x20 ADD SWAP1 DUP2 MSTORE PUSH1 0x20 ADD PUSH1 0x0 KECCAK256 PUSH1 0x0 ADD SLOAD PUSH2 0xEF9 SWAP2 SWAP1 PUSH2 0x1F40 JUMP JUMPDEST SWAP1 POP PUSH1 0x9 PUSH1 0x0 CALLER PUSH20 0xFFFFFFFFFFFFFFFFFFFFFFFFFFFFFFFFFFFFFFFF AND PUSH20 0xFFFFFFFFFFFFFFFFFFFFFFFFFFFFFFFFFFFFFFFF AND DUP2 MSTORE PUSH1 0x20 ADD SWAP1 DUP2 MSTORE PUSH1 0x20 ADD PUSH1 0x0 KECCAK256 PUSH1 0x0 ADD SLOAD PUSH1 0x7 SLOAD PUSH2 0xF4B SWAP2 SWAP1 PUSH2 0x1EC3 JUMP JUMPDEST PUSH1 0x7 DUP2 SWAP1 SSTORE POP PUSH1 0x0 PUSH1 0x9 PUSH1 0x0 CALLER PUSH20 0xFFFFFFFFFFFFFFFFFFFFFFFFFFFFFFFFFFFFFFFF AND PUSH20 0xFFFFFFFFFFFFFFFFFFFFFFFFFFFFFFFFFFFFFFFF AND DUP2 MSTORE PUSH1 0x20 ADD SWAP1 DUP2 MSTORE PUSH1 0x20 ADD PUSH1 0x0 KECCAK256 PUSH1 0x0 ADD DUP2 SWAP1 SSTORE POP PUSH1 0x0 PUSH1 0x9 PUSH1 0x0 CALLER PUSH20 0xFFFFFFFFFFFFFFFFFFFFFFFFFFFFFFFFFFFFFFFF AND PUSH20 0xFFFFFFFFFFFFFFFFFFFFFFFFFFFFFFFFFFFFFFFF AND DUP2 MSTORE PUSH1 0x20 ADD SWAP1 DUP2 MSTORE PUSH1 0x20 ADD PUSH1 0x0 KECCAK256 PUSH1 0x1 ADD DUP2 SWAP1 SSTORE POP PUSH2 0x102C CALLER DUP3 PUSH32 0x0 PUSH20 0xFFFFFFFFFFFFFFFFFFFFFFFFFFFFFFFFFFFFFFFF AND PUSH2 0x17F2 SWAP1 SWAP3 SWAP2 SWAP1 PUSH4 0xFFFFFFFF AND JUMP JUMPDEST CALLER PUSH20 0xFFFFFFFFFFFFFFFFFFFFFFFFFFFFFFFFFFFFFFFF AND PUSH32 0xF279E6A1F5E320CCA91135676D9CB6E44CA8A08C0B88342BCDB1144F6511B568 DUP3 DUP5 PUSH1 0x40 MLOAD PUSH2 0x1074 SWAP3 SWAP2 SWAP1 PUSH2 0x1CDD JUMP JUMPDEST PUSH1 0x40 MLOAD DUP1 SWAP2 SUB SWAP1 LOG2 POP POP PUSH1 0x1 PUSH1 0x0 DUP2 SWAP1 SSTORE POP JUMP JUMPDEST PUSH1 0x1 SLOAD DUP2 JUMP JUMPDEST PUSH32 0x0 DUP2 JUMP JUMPDEST PUSH1 0x4 SLOAD DUP2 JUMP JUMPDEST PUSH1 0x2 PUSH1 0x0 SLOAD EQ ISZERO PUSH2 0x10FE JUMPI PUSH1 0x40 MLOAD PUSH32 0x8C379A000000000000000000000000000000000000000000000000000000000 DUP2 MSTORE PUSH1 0x4 ADD PUSH2 0x10F5 SWAP1 PUSH2 0x2053 JUMP JUMPDEST PUSH1 0x40 MLOAD DUP1 SWAP2 SUB SWAP1 REVERT JUMPDEST PUSH1 0x2 PUSH1 0x0 DUP2 SWAP1 SSTORE POP PUSH1 0x0 DUP2 GT PUSH2 0x1149 JUMPI PUSH1 0x40 MLOAD PUSH32 0x8C379A000000000000000000000000000000000000000000000000000000000 DUP2 MSTORE PUSH1 0x4 ADD PUSH2 0x1140 SWAP1 PUSH2 0x21BD JUMP JUMPDEST PUSH1 0x40 MLOAD DUP1 SWAP2 SUB SWAP1 REVERT JUMPDEST PUSH2 0x1151 PUSH2 0x150A JUMP JUMPDEST PUSH2 0x119E CALLER ADDRESS DUP4 PUSH32 0x0 PUSH20 0xFFFFFFFFFFFFFFFFFFFFFFFFFFFFFFFFFFFFFFFF AND PUSH2 0x1878 SWAP1 SWAP4 SWAP3 SWAP2 SWAP1 PUSH4 0xFFFFFFFF AND JUMP JUMPDEST PUSH1 0x0 DUP1 PUSH1 0x9 PUSH1 0x0 CALLER PUSH20 0xFFFFFFFFFFFFFFFFFFFFFFFFFFFFFFFFFFFFFFFF AND PUSH20 0xFFFFFFFFFFFFFFFFFFFFFFFFFFFFFFFFFFFFFFFF AND DUP2 MSTORE PUSH1 0x20 ADD SWAP1 DUP2 MSTORE PUSH1 0x20 ADD PUSH1 0x0 KECCAK256 PUSH1 0x0 ADD SLOAD GT ISZERO PUSH2 0x129A JUMPI PUSH1 0x9 PUSH1 0x0 CALLER PUSH20 0xFFFFFFFFFFFFFFFFFFFFFFFFFFFFFFFFFFFFFFFF AND PUSH20 0xFFFFFFFFFFFFFFFFFFFFFFFFFFFFFFFFFFFFFFFF AND DUP2 MSTORE PUSH1 0x20 ADD SWAP1 DUP2 MSTORE PUSH1 0x20 ADD PUSH1 0x0 KECCAK256 PUSH1 0x1 ADD SLOAD PUSH5 0xE8D4A51000 PUSH1 0x1 SLOAD PUSH1 0x9 PUSH1 0x0 CALLER PUSH20 0xFFFFFFFFFFFFFFFFFFFFFFFFFFFFFFFFFFFFFFFF AND PUSH20 0xFFFFFFFFFFFFFFFFFFFFFFFFFFFFFFFFFFFFFFFF AND DUP2 MSTORE PUSH1 0x20 ADD SWAP1 DUP2 MSTORE PUSH1 0x20 ADD PUSH1 0x0 KECCAK256 PUSH1 0x0 ADD SLOAD PUSH2 0x1283 SWAP2 SWAP1 PUSH2 0x1E69 JUMP JUMPDEST PUSH2 0x128D SWAP2 SWAP1 PUSH2 0x1FC5 JUMP JUMPDEST PUSH2 0x1297 SWAP2 SWAP1 PUSH2 0x1EC3 JUMP JUMPDEST SWAP1 POP JUMPDEST DUP1 DUP3 PUSH2 0x12A6 SWAP2 SWAP1 PUSH2 0x1F40 JUMP JUMPDEST PUSH1 0x9 PUSH1 0x0 CALLER PUSH20 0xFFFFFFFFFFFFFFFFFFFFFFFFFFFFFFFFFFFFFFFF AND PUSH20 0xFFFFFFFFFFFFFFFFFFFFFFFFFFFFFFFFFFFFFFFF AND DUP2 MSTORE PUSH1 0x20 ADD SWAP1 DUP2 MSTORE PUSH1 0x20 ADD PUSH1 0x0 KECCAK256 PUSH1 0x0 ADD PUSH1 0x0 DUP3 DUP3 SLOAD PUSH2 0x12F7 SWAP2 SWAP1 PUSH2 0x1F40 JUMP JUMPDEST SWAP3 POP POP DUP2 SWAP1 SSTORE POP PUSH5 0xE8D4A51000 PUSH1 0x1 SLOAD PUSH1 0x9 PUSH1 0x0 CALLER PUSH20 0xFFFFFFFFFFFFFFFFFFFFFFFFFFFFFFFFFFFFFFFF AND PUSH20 0xFFFFFFFFFFFFFFFFFFFFFFFFFFFFFFFFFFFFFFFF AND DUP2 MSTORE PUSH1 0x20 ADD SWAP1 DUP2 MSTORE PUSH1 0x20 ADD PUSH1 0x0 KECCAK256 PUSH1 0x0 ADD SLOAD PUSH2 0x1354 SWAP2 SWAP1 PUSH2 0x1E69 JUMP JUMPDEST PUSH2 0x135E SWAP2 SWAP1 PUSH2 0x1FC5 JUMP JUMPDEST PUSH1 0x9 PUSH1 0x0 CALLER PUSH20 0xFFFFFFFFFFFFFFFFFFFFFFFFFFFFFFFFFFFFFFFF AND PUSH20 0xFFFFFFFFFFFFFFFFFFFFFFFFFFFFFFFFFFFFFFFF AND DUP2 MSTORE PUSH1 0x20 ADD SWAP1 DUP2 MSTORE PUSH1 0x20 ADD PUSH1 0x0 KECCAK256 PUSH1 0x1 ADD DUP2 SWAP1 SSTORE POP DUP1 DUP3 PUSH2 0x13B0 SWAP2 SWAP1 PUSH2 0x1F40 JUMP JUMPDEST PUSH1 0x7 PUSH1 0x0 DUP3 DUP3 SLOAD PUSH2 0x13C1 SWAP2 SWAP1 PUSH2 0x1F40 JUMP JUMPDEST SWAP3 POP POP DUP2 SWAP1 SSTORE POP CALLER PUSH20 0xFFFFFFFFFFFFFFFFFFFFFFFFFFFFFFFFFFFFFFFF AND PUSH32 0x90890809C654F11D6E72A28FA60149770A0D11EC6C92319D6CEB2BB0A4EA1A15 DUP4 DUP4 PUSH1 0x40 MLOAD PUSH2 0x1410 SWAP3 SWAP2 SWAP1 PUSH2 0x1CDD JUMP JUMPDEST PUSH1 0x40 MLOAD DUP1 SWAP2 SUB SWAP1 LOG2 POP PUSH1 0x1 PUSH1 0x0 DUP2 SWAP1 SSTORE POP POP JUMP JUMPDEST PUSH1 0x8 PUSH1 0x20 MSTORE DUP1 PUSH1 0x0 MSTORE PUSH1 0x40 PUSH1 0x0 KECCAK256 PUSH1 0x0 SWAP2 POP SWAP1 POP DUP1 PUSH1 0x0 ADD SLOAD SWAP1 DUP1 PUSH1 0x1 ADD SLOAD SWAP1 DUP1 PUSH1 0x2 ADD SLOAD SWAP1 POP DUP4 JUMP JUMPDEST PUSH5 0xE8D4A51000 DUP2 JUMP JUMPDEST PUSH1 0x2 PUSH1 0x0 SLOAD EQ ISZERO PUSH2 0x149D JUMPI PUSH1 0x40 MLOAD PUSH32 0x8C379A000000000000000000000000000000000000000000000000000000000 DUP2 MSTORE PUSH1 0x4 ADD PUSH2 0x1494 SWAP1 PUSH2 0x2053 JUMP JUMPDEST PUSH1 0x40 MLOAD DUP1 SWAP2 SUB SWAP1 REVERT JUMPDEST PUSH1 0x2 PUSH1 0x0 DUP2 SWAP1 SSTORE POP PUSH2 0x14AD PUSH2 0x150A JUMP JUMPDEST PUSH1 0x1 PUSH1 0x0 DUP2 SWAP1 SSTORE POP JUMP JUMPDEST PUSH1 0x5 SLOAD DUP2 JUMP JUMPDEST PUSH1 0x7 SLOAD DUP2 JUMP JUMPDEST PUSH1 0x0 PUSH1 0x3 SLOAD DUP3 GT PUSH2 0x14E1 JUMPI DUP3 DUP3 PUSH2 0x14DA SWAP2 SWAP1 PUSH2 0x1EC3 JUMP JUMPDEST SWAP1 POP PUSH2 0x1504 JUMP JUMPDEST PUSH1 0x3 SLOAD DUP4 LT PUSH2 0x14F3 JUMPI PUSH1 0x0 SWAP1 POP PUSH2 0x1504 JUMP JUMPDEST DUP3 PUSH1 0x3 SLOAD PUSH2 0x1501 SWAP2 SWAP1 PUSH2 0x1EC3 JUMP JUMPDEST SWAP1 POP JUMPDEST SWAP3 SWAP2 POP POP JUMP JUMPDEST PUSH1 0x4 SLOAD NUMBER GT PUSH2 0x1518 JUMPI PUSH2 0x17F0 JUMP JUMPDEST PUSH1 0x0 PUSH1 0x7 SLOAD EQ ISZERO PUSH2 0x152F JUMPI NUMBER PUSH1 0x4 DUP2 SWAP1 SSTORE POP PUSH2 0x17F0 JUMP JUMPDEST PUSH1 0x0 PUSH2 0x153D PUSH1 0x4 SLOAD NUMBER PUSH2 0x14C3 JUMP JUMPDEST SWAP1 POP PUSH1 0x0 PUSH1 0x6 SLOAD DUP3 PUSH2 0x154F SWAP2 SWAP1 PUSH2 0x1E69 JUMP JUMPDEST SWAP1 POP PUSH1 0x0 PUSH1 0x5 SLOAD DUP4 PUSH2 0x1561 SWAP2 SWAP1 PUSH2 0x1E69 JUMP JUMPDEST SWAP1 POP JUMPDEST PUSH1 0x3 SLOAD NUMBER GT DUP1 ISZERO PUSH2 0x15A2 JUMPI POP PUSH1 0x1 PUSH32 0x0 PUSH2 0x159D SWAP2 SWAP1 PUSH2 0x1EC3 JUMP JUMPDEST PUSH1 0x2 SLOAD LT JUMPDEST ISZERO PUSH2 0x1635 JUMPI PUSH2 0x15B2 PUSH1 0x3 SLOAD PUSH2 0x1901 JUMP JUMPDEST PUSH1 0x0 PUSH1 0x3 SLOAD SWAP1 POP PUSH1 0x8 PUSH1 0x0 PUSH1 0x2 SLOAD DUP2 MSTORE PUSH1 0x20 ADD SWAP1 DUP2 MSTORE PUSH1 0x20 ADD PUSH1 0x0 KECCAK256 PUSH1 0x2 ADD SLOAD PUSH1 0x3 PUSH1 0x0 DUP3 DUP3 SLOAD PUSH2 0x15E3 SWAP2 SWAP1 PUSH2 0x1F40 JUMP JUMPDEST SWAP3 POP POP DUP2 SWAP1 SSTORE POP PUSH1 0x0 PUSH2 0x15F6 DUP3 NUMBER PUSH2 0x14C3 JUMP JUMPDEST SWAP1 POP PUSH1 0x6 SLOAD DUP2 PUSH2 0x1606 SWAP2 SWAP1 PUSH2 0x1E69 JUMP JUMPDEST DUP5 PUSH2 0x1611 SWAP2 SWAP1 PUSH2 0x1F40 JUMP JUMPDEST SWAP4 POP PUSH1 0x5 SLOAD DUP2 PUSH2 0x1621 SWAP2 SWAP1 PUSH2 0x1E69 JUMP JUMPDEST DUP4 PUSH2 0x162C SWAP2 SWAP1 PUSH2 0x1F40 JUMP JUMPDEST SWAP3 POP POP POP PUSH2 0x1564 JUMP JUMPDEST PUSH1 0x0 DUP3 GT ISZERO PUSH2 0x17D9 JUMPI PUSH1 0x0 PUSH32 0x0 PUSH20 0xFFFFFFFFFFFFFFFFFFFFFFFFFFFFFFFFFFFFFFFF AND PUSH4 0x40C10F19 ADDRESS DUP6 PUSH1 0x40 MLOAD DUP4 PUSH4 0xFFFFFFFF AND PUSH1 0xE0 SHL DUP2 MSTORE PUSH1 0x4 ADD PUSH2 0x169B SWAP3 SWAP2 SWAP1 PUSH2 0x21DD JUMP JUMPDEST PUSH1 0x20 PUSH1 0x40 MLOAD DUP1 DUP4 SUB DUP2 PUSH1 0x0 DUP8 GAS CALL ISZERO DUP1 ISZERO PUSH2 0x16BA JUMPI RETURNDATASIZE PUSH1 0x0 DUP1 RETURNDATACOPY RETURNDATASIZE PUSH1 0x0 REVERT JUMPDEST POP POP POP POP PUSH1 0x40 MLOAD RETURNDATASIZE PUSH1 0x1F NOT PUSH1 0x1F DUP3 ADD AND DUP3 ADD DUP1 PUSH1 0x40 MSTORE POP DUP2 ADD SWAP1 PUSH2 0x16DE SWAP2 SWAP1 PUSH2 0x223E JUMP JUMPDEST SWAP1 POP DUP1 ISZERO PUSH2 0x1718 JUMPI PUSH1 0x7 SLOAD PUSH5 0xE8D4A51000 DUP5 PUSH2 0x16FA SWAP2 SWAP1 PUSH2 0x1E69 JUMP JUMPDEST PUSH2 0x1704 SWAP2 SWAP1 PUSH2 0x1FC5 JUMP JUMPDEST PUSH1 0x1 SLOAD PUSH2 0x1711 SWAP2 SWAP1 PUSH2 0x1F40 JUMP JUMPDEST PUSH1 0x1 DUP2 SWAP1 SSTORE POP JUMPDEST PUSH32 0x0 PUSH20 0xFFFFFFFFFFFFFFFFFFFFFFFFFFFFFFFFFFFFFFFF AND PUSH4 0x40C10F19 PUSH32 0x0 DUP5 PUSH1 0x40 MLOAD DUP4 PUSH4 0xFFFFFFFF AND PUSH1 0xE0 SHL DUP2 MSTORE PUSH1 0x4 ADD PUSH2 0x1793 SWAP3 SWAP2 SWAP1 PUSH2 0x21DD JUMP JUMPDEST PUSH1 0x20 PUSH1 0x40 MLOAD DUP1 DUP4 SUB DUP2 PUSH1 0x0 DUP8 GAS CALL ISZERO DUP1 ISZERO PUSH2 0x17B2 JUMPI RETURNDATASIZE PUSH1 0x0 DUP1 RETURNDATACOPY RETURNDATASIZE PUSH1 0x0 REVERT JUMPDEST POP POP POP POP PUSH1 0x40 MLOAD RETURNDATASIZE PUSH1 0x1F NOT PUSH1 0x1F DUP3 ADD AND DUP3 ADD DUP1 PUSH1 0x40 MSTORE POP DUP2 ADD SWAP1 PUSH2 0x17D6 SWAP2 SWAP1 PUSH2 0x223E JUMP JUMPDEST POP POP JUMPDEST PUSH1 0x3 SLOAD PUSH1 0x4 SLOAD GT PUSH2 0x17EC JUMPI NUMBER PUSH1 0x4 DUP2 SWAP1 SSTORE POP JUMPDEST POP POP POP JUMPDEST JUMP JUMPDEST PUSH2 0x1873 DUP4 PUSH4 0xA9059CBB PUSH1 0xE0 SHL DUP5 DUP5 PUSH1 0x40 MLOAD PUSH1 0x24 ADD PUSH2 0x1811 SWAP3 SWAP2 SWAP1 PUSH2 0x21DD JUMP JUMPDEST PUSH1 0x40 MLOAD PUSH1 0x20 DUP2 DUP4 SUB SUB DUP2 MSTORE SWAP1 PUSH1 0x40 MSTORE SWAP1 PUSH28 0xFFFFFFFFFFFFFFFFFFFFFFFFFFFFFFFFFFFFFFFFFFFFFFFFFFFFFFFF NOT AND PUSH1 0x20 DUP3 ADD DUP1 MLOAD PUSH28 0xFFFFFFFFFFFFFFFFFFFFFFFFFFFFFFFFFFFFFFFFFFFFFFFFFFFFFFFF DUP4 DUP2 DUP4 AND OR DUP4 MSTORE POP POP POP POP PUSH2 0x199C JUMP JUMPDEST POP POP POP JUMP JUMPDEST PUSH2 0x18FB DUP5 PUSH4 0x23B872DD PUSH1 0xE0 SHL DUP6 DUP6 DUP6 PUSH1 0x40 MLOAD PUSH1 0x24 ADD PUSH2 0x1899 SWAP4 SWAP3 SWAP2 SWAP1 PUSH2 0x226B JUMP JUMPDEST PUSH1 0x40 MLOAD PUSH1 0x20 DUP2 DUP4 SUB SUB DUP2 MSTORE SWAP1 PUSH1 0x40 MSTORE SWAP1 PUSH28 0xFFFFFFFFFFFFFFFFFFFFFFFFFFFFFFFFFFFFFFFFFFFFFFFFFFFFFFFF NOT AND PUSH1 0x20 DUP3 ADD DUP1 MLOAD PUSH28 0xFFFFFFFFFFFFFFFFFFFFFFFFFFFFFFFFFFFFFFFFFFFFFFFFFFFFFFFF DUP4 DUP2 DUP4 AND OR DUP4 MSTORE POP POP POP POP PUSH2 0x199C JUMP JUMPDEST POP POP POP POP JUMP JUMPDEST PUSH1 0x2 PUSH1 0x0 DUP2 SLOAD DUP1 SWAP3 SWAP2 SWAP1 PUSH2 0x1914 SWAP1 PUSH2 0x1EF7 JUMP JUMPDEST SWAP2 SWAP1 POP SSTORE POP PUSH1 0x8 PUSH1 0x0 PUSH1 0x2 SLOAD DUP2 MSTORE PUSH1 0x20 ADD SWAP1 DUP2 MSTORE PUSH1 0x20 ADD PUSH1 0x0 KECCAK256 PUSH1 0x0 ADD SLOAD PUSH1 0x6 DUP2 SWAP1 SSTORE POP PUSH1 0x8 PUSH1 0x0 PUSH1 0x2 SLOAD DUP2 MSTORE PUSH1 0x20 ADD SWAP1 DUP2 MSTORE PUSH1 0x20 ADD PUSH1 0x0 KECCAK256 PUSH1 0x1 ADD SLOAD PUSH1 0x5 DUP2 SWAP1 SSTORE POP PUSH1 0x2 SLOAD PUSH32 0x40181EB77BCCFDEF1A73B669BB4290D98E2FBEC678C7CF4578AE256210420E17 DUP3 PUSH1 0x6 SLOAD PUSH1 0x5 SLOAD PUSH1 0x40 MLOAD PUSH2 0x1991 SWAP4 SWAP3 SWAP2 SWAP1 PUSH2 0x1E03 JUMP JUMPDEST PUSH1 0x40 MLOAD DUP1 SWAP2 SUB SWAP1 LOG2 POP JUMP JUMPDEST PUSH1 0x0 PUSH2 0x19FE DUP3 PUSH1 0x40 MLOAD DUP1 PUSH1 0x40 ADD PUSH1 0x40 MSTORE DUP1 PUSH1 0x20 DUP2 MSTORE PUSH1 0x20 ADD PUSH32 0x5361666545524332303A206C6F772D6C6576656C2063616C6C206661696C6564 DUP2 MSTORE POP DUP6 PUSH20 0xFFFFFFFFFFFFFFFFFFFFFFFFFFFFFFFFFFFFFFFF AND PUSH2 0x1A63 SWAP1 SWAP3 SWAP2 SWAP1 PUSH4 0xFFFFFFFF AND JUMP JUMPDEST SWAP1 POP PUSH1 0x0 DUP2 MLOAD GT ISZERO PUSH2 0x1A5E JUMPI DUP1 DUP1 PUSH1 0x20 ADD SWAP1 MLOAD DUP2 ADD SWAP1 PUSH2 0x1A1E SWAP2 SWAP1 PUSH2 0x223E JUMP JUMPDEST PUSH2 0x1A5D JUMPI PUSH1 0x40 MLOAD PUSH32 0x8C379A000000000000000000000000000000000000000000000000000000000 DUP2 MSTORE PUSH1 0x4 ADD PUSH2 0x1A54 SWAP1 PUSH2 0x2314 JUMP JUMPDEST PUSH1 0x40 MLOAD DUP1 SWAP2 SUB SWAP1 REVERT JUMPDEST JUMPDEST POP POP POP JUMP JUMPDEST PUSH1 0x60 PUSH2 0x1A72 DUP5 DUP5 PUSH1 0x0 DUP6 PUSH2 0x1A7B JUMP JUMPDEST SWAP1 POP SWAP4 SWAP3 POP POP POP JUMP JUMPDEST PUSH1 0x60 DUP3 SELFBALANCE LT ISZERO PUSH2 0x1AC0 JUMPI PUSH1 0x40 MLOAD PUSH32 0x8C379A000000000000000000000000000000000000000000000000000000000 DUP2 MSTORE PUSH1 0x4 ADD PUSH2 0x1AB7 SWAP1 PUSH2 0x23A6 JUMP JUMPDEST PUSH1 0x40 MLOAD DUP1 SWAP2 SUB SWAP1 REVERT JUMPDEST PUSH2 0x1AC9 DUP6 PUSH2 0x1B8F JUMP JUMPDEST PUSH2 0x1B08 JUMPI PUSH1 0x40 MLOAD PUSH32 0x8C379A000000000000000000000000000000000000000000000000000000000 DUP2 MSTORE PUSH1 0x4 ADD PUSH2 0x1AFF SWAP1 PUSH2 0x2412 JUMP JUMPDEST PUSH1 0x40 MLOAD DUP1 SWAP2 SUB SWAP1 REVERT JUMPDEST PUSH1 0x0 DUP1 DUP7 PUSH20 0xFFFFFFFFFFFFFFFFFFFFFFFFFFFFFFFFFFFFFFFF AND DUP6 DUP8 PUSH1 0x40 MLOAD PUSH2 0x1B31 SWAP2 SWAP1 PUSH2 0x24AC JUMP JUMPDEST PUSH1 0x0 PUSH1 0x40 MLOAD DUP1 DUP4 SUB DUP2 DUP6 DUP8 GAS CALL SWAP3 POP POP POP RETURNDATASIZE DUP1 PUSH1 0x0 DUP2 EQ PUSH2 0x1B6E JUMPI PUSH1 0x40 MLOAD SWAP2 POP PUSH1 0x1F NOT PUSH1 0x3F RETURNDATASIZE ADD AND DUP3 ADD PUSH1 0x40 MSTORE RETURNDATASIZE DUP3 MSTORE RETURNDATASIZE PUSH1 0x0 PUSH1 0x20 DUP5 ADD RETURNDATACOPY PUSH2 0x1B73 JUMP JUMPDEST PUSH1 0x60 SWAP2 POP JUMPDEST POP SWAP2 POP SWAP2 POP PUSH2 0x1B83 DUP3 DUP3 DUP7 PUSH2 0x1BB2 JUMP JUMPDEST SWAP3 POP POP POP SWAP5 SWAP4 POP POP POP POP JUMP JUMPDEST PUSH1 0x0 DUP1 DUP3 PUSH20 0xFFFFFFFFFFFFFFFFFFFFFFFFFFFFFFFFFFFFFFFF AND EXTCODESIZE GT SWAP1 POP SWAP2 SWAP1 POP JUMP JUMPDEST PUSH1 0x60 DUP4 ISZERO PUSH2 0x1BC2 JUMPI DUP3 SWAP1 POP PUSH2 0x1C12 JUMP JUMPDEST PUSH1 0x0 DUP4 MLOAD GT ISZERO PUSH2 0x1BD5 JUMPI DUP3 MLOAD DUP1 DUP5 PUSH1 0x20 ADD REVERT JUMPDEST DUP2 PUSH1 0x40 MLOAD PUSH32 0x8C379A000000000000000000000000000000000000000000000000000000000 DUP2 MSTORE PUSH1 0x4 ADD PUSH2 0x1C09 SWAP2 SWAP1 PUSH2 0x2518 JUMP JUMPDEST PUSH1 0x40 MLOAD DUP1 SWAP2 SUB SWAP1 REVERT JUMPDEST SWAP4 SWAP3 POP POP POP JUMP JUMPDEST PUSH1 0x0 DUP2 SWAP1 POP SWAP2 SWAP1 POP JUMP JUMPDEST PUSH2 0x1C2C DUP2 PUSH2 0x1C19 JUMP JUMPDEST DUP3 MSTORE POP POP JUMP JUMPDEST PUSH1 0x0 PUSH1 0x20 DUP3 ADD SWAP1 POP PUSH2 0x1C47 PUSH1 0x0 DUP4 ADD DUP5 PUSH2 0x1C23 JUMP JUMPDEST SWAP3 SWAP2 POP POP JUMP JUMPDEST PUSH1 0x0 DUP1 REVERT JUMPDEST PUSH1 0x0 PUSH20 0xFFFFFFFFFFFFFFFFFFFFFFFFFFFFFFFFFFFFFFFF DUP3 AND SWAP1 POP SWAP2 SWAP1 POP JUMP JUMPDEST PUSH1 0x0 PUSH2 0x1C7D DUP3 PUSH2 0x1C52 JUMP JUMPDEST SWAP1 POP SWAP2 SWAP1 POP JUMP JUMPDEST PUSH2 0x1C8D DUP2 PUSH2 0x1C72 JUMP JUMPDEST DUP2 EQ PUSH2 0x1C98 JUMPI PUSH1 0x0 DUP1 REVERT JUMPDEST POP JUMP JUMPDEST PUSH1 0x0 DUP2 CALLDATALOAD SWAP1 POP PUSH2 0x1CAA DUP2 PUSH2 0x1C84 JUMP JUMPDEST SWAP3 SWAP2 POP POP JUMP JUMPDEST PUSH1 0x0 PUSH1 0x20 DUP3 DUP5 SUB SLT ISZERO PUSH2 0x1CC6 JUMPI PUSH2 0x1CC5 PUSH2 0x1C4D JUMP JUMPDEST JUMPDEST PUSH1 0x0 PUSH2 0x1CD4 DUP5 DUP3 DUP6 ADD PUSH2 0x1C9B JUMP JUMPDEST SWAP2 POP POP SWAP3 SWAP2 POP POP JUMP JUMPDEST PUSH1 0x0 PUSH1 0x40 DUP3 ADD SWAP1 POP PUSH2 0x1CF2 PUSH1 0x0 DUP4 ADD DUP6 PUSH2 0x1C23 JUMP JUMPDEST PUSH2 0x1CFF PUSH1 0x20 DUP4 ADD DUP5 PUSH2 0x1C23 JUMP JUMPDEST SWAP4 SWAP3 POP POP POP JUMP JUMPDEST PUSH2 0x1D0F DUP2 PUSH2 0x1C19 JUMP JUMPDEST DUP2 EQ PUSH2 0x1D1A JUMPI PUSH1 0x0 DUP1 REVERT JUMPDEST POP JUMP JUMPDEST PUSH1 0x0 DUP2 CALLDATALOAD SWAP1 POP PUSH2 0x1D2C DUP2 PUSH2 0x1D06 JUMP JUMPDEST SWAP3 SWAP2 POP POP JUMP JUMPDEST PUSH1 0x0 PUSH1 0x20 DUP3 DUP5 SUB SLT ISZERO PUSH2 0x1D48 JUMPI PUSH2 0x1D47 PUSH2 0x1C4D JUMP JUMPDEST JUMPDEST PUSH1 0x0 PUSH2 0x1D56 DUP5 DUP3 DUP6 ADD PUSH2 0x1D1D JUMP JUMPDEST SWAP2 POP POP SWAP3 SWAP2 POP POP JUMP JUMPDEST PUSH1 0x0 DUP2 SWAP1 POP SWAP2 SWAP1 POP JUMP JUMPDEST PUSH1 0x0 PUSH2 0x1D84 PUSH2 0x1D7F PUSH2 0x1D7A DUP5 PUSH2 0x1C52 JUMP JUMPDEST PUSH2 0x1D5F JUMP JUMPDEST PUSH2 0x1C52 JUMP JUMPDEST SWAP1 POP SWAP2 SWAP1 POP JUMP JUMPDEST PUSH1 0x0 PUSH2 0x1D96 DUP3 PUSH2 0x1D69 JUMP JUMPDEST SWAP1 POP SWAP2 SWAP1 POP JUMP JUMPDEST PUSH1 0x0 PUSH2 0x1DA8 DUP3 PUSH2 0x1D8B JUMP JUMPDEST SWAP1 POP SWAP2 SWAP1 POP JUMP JUMPDEST PUSH2 0x1DB8 DUP2 PUSH2 0x1D9D JUMP JUMPDEST DUP3 MSTORE POP POP JUMP JUMPDEST PUSH1 0x0 PUSH1 0x20 DUP3 ADD SWAP1 POP PUSH2 0x1DD3 PUSH1 0x0 DUP4 ADD DUP5 PUSH2 0x1DAF JUMP JUMPDEST SWAP3 SWAP2 POP POP JUMP JUMPDEST PUSH2 0x1DE2 DUP2 PUSH2 0x1C72 JUMP JUMPDEST DUP3 MSTORE POP POP JUMP JUMPDEST PUSH1 0x0 PUSH1 0x20 DUP3 ADD SWAP1 POP PUSH2 0x1DFD PUSH1 0x0 DUP4 ADD DUP5 PUSH2 0x1DD9 JUMP JUMPDEST SWAP3 SWAP2 POP POP JUMP JUMPDEST PUSH1 0x0 PUSH1 0x60 DUP3 ADD SWAP1 POP PUSH2 0x1E18 PUSH1 0x0 DUP4 ADD DUP7 PUSH2 0x1C23 JUMP JUMPDEST PUSH2 0x1E25 PUSH1 0x20 DUP4 ADD DUP6 PUSH2 0x1C23 JUMP JUMPDEST PUSH2 0x1E32 PUSH1 0x40 DUP4 ADD DUP5 PUSH2 0x1C23 JUMP JUMPDEST SWAP5 SWAP4 POP POP POP POP JUMP JUMPDEST PUSH32 0x4E487B7100000000000000000000000000000000000000000000000000000000 PUSH1 0x0 MSTORE PUSH1 0x11 PUSH1 0x4 MSTORE PUSH1 0x24 PUSH1 0x0 REVERT JUMPDEST PUSH1 0x0 PUSH2 0x1E74 DUP3 PUSH2 0x1C19 JUMP JUMPDEST SWAP2 POP PUSH2 0x1E7F DUP4 PUSH2 0x1C19 JUMP JUMPDEST SWAP3 POP DUP2 PUSH32 0xFFFFFFFFFFFFFFFFFFFFFFFFFFFFFFFFFFFFFFFFFFFFFFFFFFFFFFFFFFFFFFFF DIV DUP4 GT DUP3 ISZERO ISZERO AND ISZERO PUSH2 0x1EB8 JUMPI PUSH2 0x1EB7 PUSH2 0x1E3A JUMP JUMPDEST JUMPDEST DUP3 DUP3 MUL SWAP1 POP SWAP3 SWAP2 POP POP JUMP JUMPDEST PUSH1 0x0 PUSH2 0x1ECE DUP3 PUSH2 0x1C19 JUMP JUMPDEST SWAP2 POP PUSH2 0x1ED9 DUP4 PUSH2 0x1C19 JUMP JUMPDEST SWAP3 POP DUP3 DUP3 LT ISZERO PUSH2 0x1EEC JUMPI PUSH2 0x1EEB PUSH2 0x1E3A JUMP JUMPDEST JUMPDEST DUP3 DUP3 SUB SWAP1 POP SWAP3 SWAP2 POP POP JUMP JUMPDEST PUSH1 0x0 PUSH2 0x1F02 DUP3 PUSH2 0x1C19 JUMP JUMPDEST SWAP2 POP PUSH32 0xFFFFFFFFFFFFFFFFFFFFFFFFFFFFFFFFFFFFFFFFFFFFFFFFFFFFFFFFFFFFFFFF DUP3 EQ ISZERO PUSH2 0x1F35 JUMPI PUSH2 0x1F34 PUSH2 0x1E3A JUMP JUMPDEST JUMPDEST PUSH1 0x1 DUP3 ADD SWAP1 POP SWAP2 SWAP1 POP JUMP JUMPDEST PUSH1 0x0 PUSH2 0x1F4B DUP3 PUSH2 0x1C19 JUMP JUMPDEST SWAP2 POP PUSH2 0x1F56 DUP4 PUSH2 0x1C19 JUMP JUMPDEST SWAP3 POP DUP3 PUSH32 0xFFFFFFFFFFFFFFFFFFFFFFFFFFFFFFFFFFFFFFFFFFFFFFFFFFFFFFFFFFFFFFFF SUB DUP3 GT ISZERO PUSH2 0x1F8B JUMPI PUSH2 0x1F8A PUSH2 0x1E3A JUMP JUMPDEST JUMPDEST DUP3 DUP3 ADD SWAP1 POP SWAP3 SWAP2 POP POP JUMP JUMPDEST PUSH32 0x4E487B7100000000000000000000000000000000000000000000000000000000 PUSH1 0x0 MSTORE PUSH1 0x12 PUSH1 0x4 MSTORE PUSH1 0x24 PUSH1 0x0 REVERT JUMPDEST PUSH1 0x0 PUSH2 0x1FD0 DUP3 PUSH2 0x1C19 JUMP JUMPDEST SWAP2 POP PUSH2 0x1FDB DUP4 PUSH2 0x1C19 JUMP JUMPDEST SWAP3 POP DUP3 PUSH2 0x1FEB JUMPI PUSH2 0x1FEA PUSH2 0x1F96 JUMP JUMPDEST JUMPDEST DUP3 DUP3 DIV SWAP1 POP SWAP3 SWAP2 POP POP JUMP JUMPDEST PUSH1 0x0 DUP3 DUP3 MSTORE PUSH1 0x20 DUP3 ADD SWAP1 POP SWAP3 SWAP2 POP POP JUMP JUMPDEST PUSH32 0x5265656E7472616E637947756172643A207265656E7472616E742063616C6C00 PUSH1 0x0 DUP3 ADD MSTORE POP JUMP JUMPDEST PUSH1 0x0 PUSH2 0x203D PUSH1 0x1F DUP4 PUSH2 0x1FF6 JUMP JUMPDEST SWAP2 POP PUSH2 0x2048 DUP3 PUSH2 0x2007 JUMP JUMPDEST PUSH1 0x20 DUP3 ADD SWAP1 POP SWAP2 SWAP1 POP JUMP JUMPDEST PUSH1 0x0 PUSH1 0x20 DUP3 ADD SWAP1 POP DUP2 DUP2 SUB PUSH1 0x0 DUP4 ADD MSTORE PUSH2 0x206C DUP2 PUSH2 0x2030 JUMP JUMPDEST SWAP1 POP SWAP2 SWAP1 POP JUMP JUMPDEST PUSH32 0x57697468647261773A20416D6F756E74206D757374206265203E2030206F7220 PUSH1 0x0 DUP3 ADD MSTORE PUSH32 0x6C6F776572207468616E20757365722062616C616E6365000000000000000000 PUSH1 0x20 DUP3 ADD MSTORE POP JUMP JUMPDEST PUSH1 0x0 PUSH2 0x20CF PUSH1 0x37 DUP4 PUSH2 0x1FF6 JUMP JUMPDEST SWAP2 POP PUSH2 0x20DA DUP3 PUSH2 0x2073 JUMP JUMPDEST PUSH1 0x40 DUP3 ADD SWAP1 POP SWAP2 SWAP1 POP JUMP JUMPDEST PUSH1 0x0 PUSH1 0x20 DUP3 ADD SWAP1 POP DUP2 DUP2 SUB PUSH1 0x0 DUP4 ADD MSTORE PUSH2 0x20FE DUP2 PUSH2 0x20C2 JUMP JUMPDEST SWAP1 POP SWAP2 SWAP1 POP JUMP JUMPDEST PUSH32 0x57697468647261773A20416D6F756E74206D757374206265203E203000000000 PUSH1 0x0 DUP3 ADD MSTORE POP JUMP JUMPDEST PUSH1 0x0 PUSH2 0x213B PUSH1 0x1C DUP4 PUSH2 0x1FF6 JUMP JUMPDEST SWAP2 POP PUSH2 0x2146 DUP3 PUSH2 0x2105 JUMP JUMPDEST PUSH1 0x20 DUP3 ADD SWAP1 POP SWAP2 SWAP1 POP JUMP JUMPDEST PUSH1 0x0 PUSH1 0x20 DUP3 ADD SWAP1 POP DUP2 DUP2 SUB PUSH1 0x0 DUP4 ADD MSTORE PUSH2 0x216A DUP2 PUSH2 0x212E JUMP JUMPDEST SWAP1 POP SWAP2 SWAP1 POP JUMP JUMPDEST PUSH32 0x4465706F7369743A20416D6F756E74206D757374206265203E20300000000000 PUSH1 0x0 DUP3 ADD MSTORE POP JUMP JUMPDEST PUSH1 0x0 PUSH2 0x21A7 PUSH1 0x1B DUP4 PUSH2 0x1FF6 JUMP JUMPDEST SWAP2 POP PUSH2 0x21B2 DUP3 PUSH2 0x2171 JUMP JUMPDEST PUSH1 0x20 DUP3 ADD SWAP1 POP SWAP2 SWAP1 POP JUMP JUMPDEST PUSH1 0x0 PUSH1 0x20 DUP3 ADD SWAP1 POP DUP2 DUP2 SUB PUSH1 0x0 DUP4 ADD MSTORE PUSH2 0x21D6 DUP2 PUSH2 0x219A JUMP JUMPDEST SWAP1 POP SWAP2 SWAP1 POP JUMP JUMPDEST PUSH1 0x0 PUSH1 0x40 DUP3 ADD SWAP1 POP PUSH2 0x21F2 PUSH1 0x0 DUP4 ADD DUP6 PUSH2 0x1DD9 JUMP JUMPDEST PUSH2 0x21FF PUSH1 0x20 DUP4 ADD DUP5 PUSH2 0x1C23 JUMP JUMPDEST SWAP4 SWAP3 POP POP POP JUMP JUMPDEST PUSH1 0x0 DUP2 ISZERO ISZERO SWAP1 POP SWAP2 SWAP1 POP JUMP JUMPDEST PUSH2 0x221B DUP2 PUSH2 0x2206 JUMP JUMPDEST DUP2 EQ PUSH2 0x2226 JUMPI PUSH1 0x0 DUP1 REVERT JUMPDEST POP JUMP JUMPDEST PUSH1 0x0 DUP2 MLOAD SWAP1 POP PUSH2 0x2238 DUP2 PUSH2 0x2212 JUMP JUMPDEST SWAP3 SWAP2 POP POP JUMP JUMPDEST PUSH1 0x0 PUSH1 0x20 DUP3 DUP5 SUB SLT ISZERO PUSH2 0x2254 JUMPI PUSH2 0x2253 PUSH2 0x1C4D JUMP JUMPDEST JUMPDEST PUSH1 0x0 PUSH2 0x2262 DUP5 DUP3 DUP6 ADD PUSH2 0x2229 JUMP JUMPDEST SWAP2 POP POP SWAP3 SWAP2 POP POP JUMP JUMPDEST PUSH1 0x0 PUSH1 0x60 DUP3 ADD SWAP1 POP PUSH2 0x2280 PUSH1 0x0 DUP4 ADD DUP7 PUSH2 0x1DD9 JUMP JUMPDEST PUSH2 0x228D PUSH1 0x20 DUP4 ADD DUP6 PUSH2 0x1DD9 JUMP JUMPDEST PUSH2 0x229A PUSH1 0x40 DUP4 ADD DUP5 PUSH2 0x1C23 JUMP JUMPDEST SWAP5 SWAP4 POP POP POP POP JUMP JUMPDEST PUSH32 0x5361666545524332303A204552433230206F7065726174696F6E20646964206E PUSH1 0x0 DUP3 ADD MSTORE PUSH32 0x6F74207375636365656400000000000000000000000000000000000000000000 PUSH1 0x20 DUP3 ADD MSTORE POP JUMP JUMPDEST PUSH1 0x0 PUSH2 0x22FE PUSH1 0x2A DUP4 PUSH2 0x1FF6 JUMP JUMPDEST SWAP2 POP PUSH2 0x2309 DUP3 PUSH2 0x22A2 JUMP JUMPDEST PUSH1 0x40 DUP3 ADD SWAP1 POP SWAP2 SWAP1 POP JUMP JUMPDEST PUSH1 0x0 PUSH1 0x20 DUP3 ADD SWAP1 POP DUP2 DUP2 SUB PUSH1 0x0 DUP4 ADD MSTORE PUSH2 0x232D DUP2 PUSH2 0x22F1 JUMP JUMPDEST SWAP1 POP SWAP2 SWAP1 POP JUMP JUMPDEST PUSH32 0x416464726573733A20696E73756666696369656E742062616C616E636520666F PUSH1 0x0 DUP3 ADD MSTORE PUSH32 0x722063616C6C0000000000000000000000000000000000000000000000000000 PUSH1 0x20 DUP3 ADD MSTORE POP JUMP JUMPDEST PUSH1 0x0 PUSH2 0x2390 PUSH1 0x26 DUP4 PUSH2 0x1FF6 JUMP JUMPDEST SWAP2 POP PUSH2 0x239B DUP3 PUSH2 0x2334 JUMP JUMPDEST PUSH1 0x40 DUP3 ADD SWAP1 POP SWAP2 SWAP1 POP JUMP JUMPDEST PUSH1 0x0 PUSH1 0x20 DUP3 ADD SWAP1 POP DUP2 DUP2 SUB PUSH1 0x0 DUP4 ADD MSTORE PUSH2 0x23BF DUP2 PUSH2 0x2383 JUMP JUMPDEST SWAP1 POP SWAP2 SWAP1 POP JUMP JUMPDEST PUSH32 0x416464726573733A2063616C6C20746F206E6F6E2D636F6E7472616374000000 PUSH1 0x0 DUP3 ADD MSTORE POP JUMP JUMPDEST PUSH1 0x0 PUSH2 0x23FC PUSH1 0x1D DUP4 PUSH2 0x1FF6 JUMP JUMPDEST SWAP2 POP PUSH2 0x2407 DUP3 PUSH2 0x23C6 JUMP JUMPDEST PUSH1 0x20 DUP3 ADD SWAP1 POP SWAP2 SWAP1 POP JUMP JUMPDEST PUSH1 0x0 PUSH1 0x20 DUP3 ADD SWAP1 POP DUP2 DUP2 SUB PUSH1 0x0 DUP4 ADD MSTORE PUSH2 0x242B DUP2 PUSH2 0x23EF JUMP JUMPDEST SWAP1 POP SWAP2 SWAP1 POP JUMP JUMPDEST PUSH1 0x0 DUP2 MLOAD SWAP1 POP SWAP2 SWAP1 POP JUMP JUMPDEST PUSH1 0x0 DUP2 SWAP1 POP SWAP3 SWAP2 POP POP JUMP JUMPDEST PUSH1 0x0 JUMPDEST DUP4 DUP2 LT ISZERO PUSH2 0x2466 JUMPI DUP1 DUP3 ADD MLOAD DUP2 DUP5 ADD MSTORE PUSH1 0x20 DUP2 ADD SWAP1 POP PUSH2 0x244B JUMP JUMPDEST DUP4 DUP2 GT ISZERO PUSH2 0x2475 JUMPI PUSH1 0x0 DUP5 DUP5 ADD MSTORE JUMPDEST POP POP POP POP JUMP JUMPDEST PUSH1 0x0 PUSH2 0x2486 DUP3 PUSH2 0x2432 JUMP JUMPDEST PUSH2 0x2490 DUP2 DUP6 PUSH2 0x243D JUMP JUMPDEST SWAP4 POP PUSH2 0x24A0 DUP2 DUP6 PUSH1 0x20 DUP7 ADD PUSH2 0x2448 JUMP JUMPDEST DUP1 DUP5 ADD SWAP2 POP POP SWAP3 SWAP2 POP POP JUMP JUMPDEST PUSH1 0x0 PUSH2 0x24B8 DUP3 DUP5 PUSH2 0x247B JUMP JUMPDEST SWAP2 POP DUP2 SWAP1 POP SWAP3 SWAP2 POP POP JUMP JUMPDEST PUSH1 0x0 DUP2 MLOAD SWAP1 POP SWAP2 SWAP1 POP JUMP JUMPDEST PUSH1 0x0 PUSH1 0x1F NOT PUSH1 0x1F DUP4 ADD AND SWAP1 POP SWAP2 SWAP1 POP JUMP JUMPDEST PUSH1 0x0 PUSH2 0x24EA DUP3 PUSH2 0x24C3 JUMP JUMPDEST PUSH2 0x24F4 DUP2 DUP6 PUSH2 0x1FF6 JUMP JUMPDEST SWAP4 POP PUSH2 0x2504 DUP2 DUP6 PUSH1 0x20 DUP7 ADD PUSH2 0x2448 JUMP JUMPDEST PUSH2 0x250D DUP2 PUSH2 0x24CE JUMP JUMPDEST DUP5 ADD SWAP2 POP POP SWAP3 SWAP2 POP POP JUMP JUMPDEST PUSH1 0x0 PUSH1 0x20 DUP3 ADD SWAP1 POP DUP2 DUP2 SUB PUSH1 0x0 DUP4 ADD MSTORE PUSH2 0x2532 DUP2 DUP5 PUSH2 0x24DF JUMP JUMPDEST SWAP1 POP SWAP3 SWAP2 POP POP JUMP INVALID LOG2 PUSH5 0x6970667358 0x22 SLT KECCAK256 PUSH7 0xA0FE60F203E0DE 0xC0 0xA7 SSTORE CALLDATASIZE ISZERO SLOAD 0xAA SWAP10 0x1E 0x26 0x21 0xA7 0xE8 0xB2 CALLER SWAP13 CALLDATACOPY DUP6 0xB0 0x2C 0xCA 0xCA ORIGIN SWAP4 PUSH5 0x736F6C6343 STOP ADDMOD SIGNEXTEND STOP CALLER "
				},
				"gasEstimates": {
					"creation": {
						"codeDepositCost": "1916800",
						"executionCost": "infinite",
						"totalCost": "infinite"
					},
					"external": {
						"NUMBER_PERIODS()": "infinite",
						"PRECISION_FACTOR()": "373",
						"START_BLOCK()": "infinite",
						"accTokenPerShare()": "2474",
						"calculatePendingRewards(address)": "infinite",
						"currentPhase()": "2453",
						"deposit(uint256)": "infinite",
						"endBlock()": "2475",
						"harvestAndCompound()": "infinite",
						"lastRewardBlock()": "2518",
						"looksRareToken()": "infinite",
						"rewardPerBlockForOthers()": "2517",
						"rewardPerBlockForStaking()": "2540",
						"stakingPeriod(uint256)": "infinite",
						"tokenSplitter()": "infinite",
						"totalAmountStaked()": "2539",
						"updatePool()": "infinite",
						"userInfo(address)": "infinite",
						"withdraw(uint256)": "infinite",
						"withdrawAll()": "infinite"
					},
					"internal": {
						"_getMultiplier(uint256,uint256)": "infinite",
						"_updatePool()": "infinite",
						"_updateRewardsPerBlock(uint256)": "infinite"
					}
				},
				"methodIdentifiers": {
					"NUMBER_PERIODS()": "52bf348c",
					"PRECISION_FACTOR()": "ccd34cd5",
					"START_BLOCK()": "39b3e826",
					"accTokenPerShare()": "8f662915",
					"calculatePendingRewards(address)": "097aad10",
					"currentPhase()": "055ad42e",
					"deposit(uint256)": "b6b55f25",
					"endBlock()": "083c6323",
					"harvestAndCompound()": "2a4e051b",
					"lastRewardBlock()": "a9f8d181",
					"looksRareToken()": "36db9fb2",
					"rewardPerBlockForOthers()": "e683d96f",
					"rewardPerBlockForStaking()": "5a9477e9",
					"stakingPeriod(uint256)": "c1027c98",
					"tokenSplitter()": "a46074c3",
					"totalAmountStaked()": "fe961f61",
					"updatePool()": "e3161ddd",
					"userInfo(address)": "1959a002",
					"withdraw(uint256)": "2e1a7d4d",
					"withdrawAll()": "853828b6"
				}
			},
			"storageLayout": {
				"storage": [
					{
						"astId": 10,
						"contract": "contracts/LooksRare/TokenDistributor.sol:TokenDistributor",
						"label": "_status",
						"offset": 0,
						"slot": "0",
						"type": "t_uint256"
					},
					{
						"astId": 705,
						"contract": "contracts/LooksRare/TokenDistributor.sol:TokenDistributor",
						"label": "accTokenPerShare",
						"offset": 0,
						"slot": "1",
						"type": "t_uint256"
					},
					{
						"astId": 707,
						"contract": "contracts/LooksRare/TokenDistributor.sol:TokenDistributor",
						"label": "currentPhase",
						"offset": 0,
						"slot": "2",
						"type": "t_uint256"
					},
					{
						"astId": 709,
						"contract": "contracts/LooksRare/TokenDistributor.sol:TokenDistributor",
						"label": "endBlock",
						"offset": 0,
						"slot": "3",
						"type": "t_uint256"
					},
					{
						"astId": 711,
						"contract": "contracts/LooksRare/TokenDistributor.sol:TokenDistributor",
						"label": "lastRewardBlock",
						"offset": 0,
						"slot": "4",
						"type": "t_uint256"
					},
					{
						"astId": 713,
						"contract": "contracts/LooksRare/TokenDistributor.sol:TokenDistributor",
						"label": "rewardPerBlockForOthers",
						"offset": 0,
						"slot": "5",
						"type": "t_uint256"
					},
					{
						"astId": 715,
						"contract": "contracts/LooksRare/TokenDistributor.sol:TokenDistributor",
						"label": "rewardPerBlockForStaking",
						"offset": 0,
						"slot": "6",
						"type": "t_uint256"
					},
					{
						"astId": 717,
						"contract": "contracts/LooksRare/TokenDistributor.sol:TokenDistributor",
						"label": "totalAmountStaked",
						"offset": 0,
						"slot": "7",
						"type": "t_uint256"
					},
					{
						"astId": 722,
						"contract": "contracts/LooksRare/TokenDistributor.sol:TokenDistributor",
						"label": "stakingPeriod",
						"offset": 0,
						"slot": "8",
						"type": "t_mapping(t_uint256,t_struct(StakingPeriod)684_storage)"
					},
					{
						"astId": 727,
						"contract": "contracts/LooksRare/TokenDistributor.sol:TokenDistributor",
						"label": "userInfo",
						"offset": 0,
						"slot": "9",
						"type": "t_mapping(t_address,t_struct(UserInfo)689_storage)"
					}
				],
				"types": {
					"t_address": {
						"encoding": "inplace",
						"label": "address",
						"numberOfBytes": "20"
					},
					"t_mapping(t_address,t_struct(UserInfo)689_storage)": {
						"encoding": "mapping",
						"key": "t_address",
						"label": "mapping(address => struct TokenDistributor.UserInfo)",
						"numberOfBytes": "32",
						"value": "t_struct(UserInfo)689_storage"
					},
					"t_mapping(t_uint256,t_struct(StakingPeriod)684_storage)": {
						"encoding": "mapping",
						"key": "t_uint256",
						"label": "mapping(uint256 => struct TokenDistributor.StakingPeriod)",
						"numberOfBytes": "32",
						"value": "t_struct(StakingPeriod)684_storage"
					},
					"t_struct(StakingPeriod)684_storage": {
						"encoding": "inplace",
						"label": "struct TokenDistributor.StakingPeriod",
						"members": [
							{
								"astId": 679,
								"contract": "contracts/LooksRare/TokenDistributor.sol:TokenDistributor",
								"label": "rewardPerBlockForStaking",
								"offset": 0,
								"slot": "0",
								"type": "t_uint256"
							},
							{
								"astId": 681,
								"contract": "contracts/LooksRare/TokenDistributor.sol:TokenDistributor",
								"label": "rewardPerBlockForOthers",
								"offset": 0,
								"slot": "1",
								"type": "t_uint256"
							},
							{
								"astId": 683,
								"contract": "contracts/LooksRare/TokenDistributor.sol:TokenDistributor",
								"label": "periodLengthInBlock",
								"offset": 0,
								"slot": "2",
								"type": "t_uint256"
							}
						],
						"numberOfBytes": "96"
					},
					"t_struct(UserInfo)689_storage": {
						"encoding": "inplace",
						"label": "struct TokenDistributor.UserInfo",
						"members": [
							{
								"astId": 686,
								"contract": "contracts/LooksRare/TokenDistributor.sol:TokenDistributor",
								"label": "amount",
								"offset": 0,
								"slot": "0",
								"type": "t_uint256"
							},
							{
								"astId": 688,
								"contract": "contracts/LooksRare/TokenDistributor.sol:TokenDistributor",
								"label": "rewardDebt",
								"offset": 0,
								"slot": "1",
								"type": "t_uint256"
							}
						],
						"numberOfBytes": "64"
					},
					"t_uint256": {
						"encoding": "inplace",
						"label": "uint256",
						"numberOfBytes": "32"
					}
				}
			},
			"userdoc": {
				"kind": "user",
				"methods": {
					"calculatePendingRewards(address)": {
						"notice": "Calculate pending rewards for a user"
					},
					"constructor": {
						"notice": "Constructor"
					},
					"deposit(uint256)": {
						"notice": "Deposit staked tokens and compounds pending rewards"
					},
					"harvestAndCompound()": {
						"notice": "Compound based on pending rewards"
					},
					"updatePool()": {
						"notice": "Update pool rewards"
					},
					"withdraw(uint256)": {
						"notice": "Withdraw staked tokens and compound pending rewards"
					},
					"withdrawAll()": {
						"notice": "Withdraw all staked tokens and collect tokens"
					}
				},
				"notice": "It handles the distribution of LOOKS token. It auto-adjusts block rewards over a set number of periods.",
				"version": 1
			}
		}
	}
}